{"abi":[{"type":"constructor","inputs":[{"name":"_airdropAdminAddress","type":"address","internalType":"address"},{"name":"_morpherToken","type":"address","internalType":"address"},{"name":"_coldStorageOwnerAddress","type":"address","internalType":"address"}],"stateMutability":"nonpayable"},{"type":"fallback","stateMutability":"payable"},{"type":"receive","stateMutability":"payable"},{"type":"function","name":"adminAuthorizeAndSend","inputs":[{"name":"_recipient","type":"address","internalType":"address"},{"name":"_amount","type":"uint256","internalType":"uint256"}],"outputs":[],"stateMutability":"nonpayable"},{"type":"function","name":"adminSendAirdrop","inputs":[{"name":"_recipient","type":"address","internalType":"address"}],"outputs":[],"stateMutability":"nonpayable"},{"type":"function","name":"adminSendSomeAirdrop","inputs":[{"name":"_recipient","type":"address","internalType":"address"},{"name":"_amount","type":"uint256","internalType":"uint256"}],"outputs":[],"stateMutability":"nonpayable"},{"type":"function","name":"airdropAdmin","inputs":[],"outputs":[{"name":"","type":"address","internalType":"address"}],"stateMutability":"view"},{"type":"function","name":"claimAirdrop","inputs":[],"outputs":[],"stateMutability":"nonpayable"},{"type":"function","name":"claimSomeAirdrop","inputs":[{"name":"_amount","type":"uint256","internalType":"uint256"}],"outputs":[],"stateMutability":"nonpayable"},{"type":"function","name":"getAirdrop","inputs":[{"name":"_userAddress","type":"address","internalType":"address"}],"outputs":[{"name":"_claimed","type":"uint256","internalType":"uint256"},{"name":"_authorized","type":"uint256","internalType":"uint256"}],"stateMutability":"view"},{"type":"function","name":"getAirdropAuthorized","inputs":[{"name":"_userAddress","type":"address","internalType":"address"}],"outputs":[{"name":"_balance","type":"uint256","internalType":"uint256"}],"stateMutability":"view"},{"type":"function","name":"getAirdropClaimed","inputs":[{"name":"_userAddress","type":"address","internalType":"address"}],"outputs":[{"name":"_amount","type":"uint256","internalType":"uint256"}],"stateMutability":"view"},{"type":"function","name":"morpherToken","inputs":[],"outputs":[{"name":"","type":"address","internalType":"address"}],"stateMutability":"view"},{"type":"function","name":"owner","inputs":[],"outputs":[{"name":"","type":"address","internalType":"address"}],"stateMutability":"view"},{"type":"function","name":"renounceOwnership","inputs":[],"outputs":[],"stateMutability":"nonpayable"},{"type":"function","name":"setAirdropAdmin","inputs":[{"name":"_address","type":"address","internalType":"address"}],"outputs":[],"stateMutability":"nonpayable"},{"type":"function","name":"setAirdropAuthorized","inputs":[{"name":"_userAddress","type":"address","internalType":"address"},{"name":"_authorized","type":"uint256","internalType":"uint256"}],"outputs":[],"stateMutability":"nonpayable"},{"type":"function","name":"setMorpherTokenAddress","inputs":[{"name":"_address","type":"address","internalType":"address"}],"outputs":[],"stateMutability":"nonpayable"},{"type":"function","name":"totalAirdropAuthorized","inputs":[],"outputs":[{"name":"","type":"uint256","internalType":"uint256"}],"stateMutability":"view"},{"type":"function","name":"totalAirdropClaimed","inputs":[],"outputs":[{"name":"","type":"uint256","internalType":"uint256"}],"stateMutability":"view"},{"type":"function","name":"transferOwnership","inputs":[{"name":"newOwner","type":"address","internalType":"address"}],"outputs":[],"stateMutability":"nonpayable"},{"type":"event","name":"AirdropSent","inputs":[{"name":"_operator","type":"address","indexed":true,"internalType":"address"},{"name":"_recipient","type":"address","indexed":true,"internalType":"address"},{"name":"_amountClaimed","type":"uint256","indexed":false,"internalType":"uint256"},{"name":"_amountAuthorized","type":"uint256","indexed":false,"internalType":"uint256"}],"anonymous":false},{"type":"event","name":"OwnershipTransferred","inputs":[{"name":"previousOwner","type":"address","indexed":true,"internalType":"address"},{"name":"newOwner","type":"address","indexed":true,"internalType":"address"}],"anonymous":false},{"type":"event","name":"SetAirdropAuthorized","inputs":[{"name":"_recipient","type":"address","indexed":true,"internalType":"address"},{"name":"_amountClaimed","type":"uint256","indexed":false,"internalType":"uint256"},{"name":"_amountAuthorized","type":"uint256","indexed":false,"internalType":"uint256"}],"anonymous":false},{"type":"error","name":"OwnableInvalidOwner","inputs":[{"name":"owner","type":"address","internalType":"address"}]},{"type":"error","name":"OwnableUnauthorizedAccount","inputs":[{"name":"account","type":"address","internalType":"address"}]}],"bytecode":{"object":"0x608060405234801561001057600080fd5b50604051610d37380380610d3783398101604081905261002f916101b0565b338061005657604051631e4fbdf760e01b8152600060048201526024015b60405180910390fd5b61005f81610083565b50610069836100d3565b610072826100fd565b61007b81610127565b5050506101f3565b600080546001600160a01b038381166001600160a01b0319831681178455604051919092169283917f8be0079c531659141344cd1fd0a4f28419497f9722a3daafe3b4186f6b6457e09190a35050565b6100db610165565b600580546001600160a01b0319166001600160a01b0392909216919091179055565b610105610165565b600680546001600160a01b0319166001600160a01b0392909216919091179055565b61012f610165565b6001600160a01b03811661015957604051631e4fbdf760e01b81526000600482015260240161004d565b61016281610083565b50565b6000546001600160a01b031633146101925760405163118cdaa760e01b815233600482015260240161004d565b565b80516001600160a01b03811681146101ab57600080fd5b919050565b6000806000606084860312156101c557600080fd5b6101ce84610194565b92506101dc60208501610194565b91506101ea60408501610194565b90509250925092565b610b35806102026000396000f3fe60806040526004361061010d5760003560e01c806370a2de1e116100955780639f4c5c4d116100645780639f4c5c4d14610344578063ba3fe3aa1461037a578063c820e1701461039a578063cc8fd18a146103b0578063f2fde38b146103d057610133565b806370a2de1e146102db578063715018a6146102fb5780638da5cb5b146103105780639605330b1461032e57610133565b80633817f554116100dc5780633817f5541461022e5780634441e5991461024e5780635b88349d1461026e57806368afeab214610283578063706277da146102bb57610133565b8063069f5bdd1461014b57806311e90fd4146101a857806311fef1b8146101ec5780631f005f511461020e57610133565b366101335760405162461bcd60e51b815260040161012a90610971565b60405180910390fd5b60405162461bcd60e51b815260040161012a90610971565b34801561015757600080fd5b5061018e6101663660046109d9565b6001600160a01b03166000908152600160209081526040808320546002909252909120549091565b604080519283526020830191909152015b60405180910390f35b3480156101b457600080fd5b506101de6101c33660046109d9565b6001600160a01b031660009081526002602052604090205490565b60405190815260200161019f565b3480156101f857600080fd5b5061020c6102073660046109fb565b6103f0565b005b34801561021a57600080fd5b5061020c6102293660046109fb565b610456565b34801561023a57600080fd5b5061020c6102493660046109d9565b610480565b34801561025a57600080fd5b5061020c6102693660046109d9565b6104aa565b34801561027a57600080fd5b5061020c61050e565b34801561028f57600080fd5b506005546102a3906001600160a01b031681565b6040516001600160a01b03909116815260200161019f565b3480156102c757600080fd5b506006546102a3906001600160a01b031681565b3480156102e757600080fd5b5061020c6102f63660046109d9565b610542565b34801561030757600080fd5b5061020c61056c565b34801561031c57600080fd5b506000546001600160a01b03166102a3565b34801561033a57600080fd5b506101de60045481565b34801561035057600080fd5b506101de61035f3660046109d9565b6001600160a01b031660009081526001602052604090205490565b34801561038657600080fd5b5061020c6103953660046109fb565b610580565b3480156103a657600080fd5b506101de60035481565b3480156103bc57600080fd5b5061020c6103cb366004610a25565b6106d3565b3480156103dc57600080fd5b5061020c6103eb3660046109d9565b6106dd565b6005546001600160a01b0316331461041a5760405162461bcd60e51b815260040161012a90610a3e565b610448828261043e856001600160a01b031660009081526002602052604090205490565b6103959190610ab1565b6104528282610718565b5050565b6005546001600160a01b031633146104485760405162461bcd60e51b815260040161012a90610a3e565b6104886108f4565b600680546001600160a01b0319166001600160a01b0392909216919091179055565b6005546001600160a01b031633146104d45760405162461bcd60e51b815260040161012a90610a3e565b6001600160a01b03811660009081526001602090815260408083205460029092528220546105029190610aca565b90506104528282610718565b3360009081526001602090815260408083205460029092528220546105339190610aca565b905061053f3382610718565b50565b61054a6108f4565b600580546001600160a01b0319166001600160a01b0392909216919091179055565b6105746108f4565b61057e6000610921565b565b6005546001600160a01b031633146105aa5760405162461bcd60e51b815260040161012a90610a3e565b6001600160a01b0382166000908152600160205260409020548110156106385760405162461bcd60e51b815260206004820152603f60248201527f4d6f727068657241697264726f703a2061697264726f7020617574686f72697a60448201527f6564206d757374206265206c6172676572207468616e20636c61696d65642e00606482015260840161012a565b80610658836001600160a01b031660009081526002602052604090205490565b6003546106659190610aca565b61066f9190610ab1565b6003556001600160a01b038216600081815260026020908152604080832085905560018252918290205482519081529081018490527f24054b8121f807df44790c6ddcb4d716004a1e5f83c594139a3820fdccf2fc82910160405180910390a25050565b61053f3382610718565b6106e56108f4565b6001600160a01b03811661070f57604051631e4fbdf760e01b81526000600482015260240161012a565b61053f81610921565b6001600160a01b03821660009081526001602052604090205461073c908290610ab1565b6001600160a01b03831660009081526002602052604090205410156107c95760405162461bcd60e51b815260206004820152603960248201527f4d6f727068657241697264726f703a20616d6f756e742065786365656473206160448201527f7574686f72697a65642061697264726f7020616d6f756e742e00000000000000606482015260840161012a565b6001600160a01b0382166000908152600160205260409020546107ed908290610ab1565b6001600160a01b038316600090815260016020526040902055600454610814908290610ab1565b600490815560065460405163a9059cbb60e01b81526001600160a01b03858116938201939093526024810184905291169063a9059cbb906044016020604051808303816000875af115801561086d573d6000803e3d6000fd5b505050506040513d601f19601f820116820180604052508101906108919190610add565b506001600160a01b03821660008181526001602090815260408083205460028352928190205481519384529183019190915233917fa101eec99cd065f6b0c7dd60fe2a3df7dd8b8b189ef65ac430496f0a06e57d30910160405180910390a35050565b6000546001600160a01b0316331461057e5760405163118cdaa760e01b815233600482015260240161012a565b600080546001600160a01b038381166001600160a01b0319831681178455604051919092169283917f8be0079c531659141344cd1fd0a4f28419497f9722a3daafe3b4186f6b6457e09190a35050565b6020808252602c908201527f4d6f727068657241697264726f703a20796f752063616e2774206465706f736960408201526b74204574686572206865726560a01b606082015260800190565b80356001600160a01b03811681146109d457600080fd5b919050565b6000602082840312156109eb57600080fd5b6109f4826109bd565b9392505050565b60008060408385031215610a0e57600080fd5b610a17836109bd565b946020939093013593505050565b600060208284031215610a3757600080fd5b5035919050565b6020808252603c908201527f4d6f727068657241697264726f703a2063616e206f6e6c792062652063616c6c60408201527f65642062792041697264726f702041646d696e6973747261746f722e00000000606082015260800190565b634e487b7160e01b600052601160045260246000fd5b80820180821115610ac457610ac4610a9b565b92915050565b81810381811115610ac457610ac4610a9b565b600060208284031215610aef57600080fd5b815180151581146109f457600080fdfea2646970667358221220408f2b015b5cc32df80b5a06e42ed50ebb8d051cc675b827984237c83be1c66f64736f6c634300081a0033","linkReferences":{}},"methodIdentifiers":{"adminAuthorizeAndSend(address,uint256)":"11fef1b8","adminSendAirdrop(address)":"4441e599","adminSendSomeAirdrop(address,uint256)":"1f005f51","airdropAdmin()":"68afeab2","claimAirdrop()":"5b88349d","claimSomeAirdrop(uint256)":"cc8fd18a","getAirdrop(address)":"069f5bdd","getAirdropAuthorized(address)":"11e90fd4","getAirdropClaimed(address)":"9f4c5c4d","morpherToken()":"706277da","owner()":"8da5cb5b","renounceOwnership()":"715018a6","setAirdropAdmin(address)":"70a2de1e","setAirdropAuthorized(address,uint256)":"ba3fe3aa","setMorpherTokenAddress(address)":"3817f554","totalAirdropAuthorized()":"c820e170","totalAirdropClaimed()":"9605330b","transferOwnership(address)":"f2fde38b"},"storageLayout":{"storage":[{"astId":66571,"contract":"contracts/MorpherAirdrop.sol:MorpherAirdrop","label":"_owner","offset":0,"slot":"0","type":"t_address"},{"astId":1029,"contract":"contracts/MorpherAirdrop.sol:MorpherAirdrop","label":"airdropClaimed","offset":0,"slot":"1","type":"t_mapping(t_address,t_uint256)"},{"astId":1033,"contract":"contracts/MorpherAirdrop.sol:MorpherAirdrop","label":"airdropAuthorized","offset":0,"slot":"2","type":"t_mapping(t_address,t_uint256)"},{"astId":1035,"contract":"contracts/MorpherAirdrop.sol:MorpherAirdrop","label":"totalAirdropAuthorized","offset":0,"slot":"3","type":"t_uint256"},{"astId":1037,"contract":"contracts/MorpherAirdrop.sol:MorpherAirdrop","label":"totalAirdropClaimed","offset":0,"slot":"4","type":"t_uint256"},{"astId":1039,"contract":"contracts/MorpherAirdrop.sol:MorpherAirdrop","label":"airdropAdmin","offset":0,"slot":"5","type":"t_address"},{"astId":1041,"contract":"contracts/MorpherAirdrop.sol:MorpherAirdrop","label":"morpherToken","offset":0,"slot":"6","type":"t_address"}],"types":{"t_address":{"encoding":"inplace","label":"address","numberOfBytes":"20"},"t_mapping(t_address,t_uint256)":{"encoding":"mapping","key":"t_address","label":"mapping(address => uint256)","numberOfBytes":"32","value":"t_uint256"},"t_uint256":{"encoding":"inplace","label":"uint256","numberOfBytes":"32"}}},"id":4}