{"abi":[{"type":"function","name":"ADMINISTRATOR_ROLE","inputs":[],"outputs":[{"name":"","type":"bytes32","internalType":"bytes32"}],"stateMutability":"view"},{"type":"function","name":"BURNER_ROLE","inputs":[],"outputs":[{"name":"","type":"bytes32","internalType":"bytes32"}],"stateMutability":"view"},{"type":"function","name":"DOMAIN_SEPARATOR","inputs":[],"outputs":[{"name":"","type":"bytes32","internalType":"bytes32"}],"stateMutability":"view"},{"type":"function","name":"MINTER_ROLE","inputs":[],"outputs":[{"name":"","type":"bytes32","internalType":"bytes32"}],"stateMutability":"view"},{"type":"function","name":"PAUSER_ROLE","inputs":[],"outputs":[{"name":"","type":"bytes32","internalType":"bytes32"}],"stateMutability":"view"},{"type":"function","name":"POLYGONMINTER_ROLE","inputs":[],"outputs":[{"name":"","type":"bytes32","internalType":"bytes32"}],"stateMutability":"view"},{"type":"function","name":"TOKENUPDATER_ROLE","inputs":[],"outputs":[{"name":"","type":"bytes32","internalType":"bytes32"}],"stateMutability":"view"},{"type":"function","name":"TRANSFERBLOCKED_ROLE","inputs":[],"outputs":[{"name":"","type":"bytes32","internalType":"bytes32"}],"stateMutability":"view"},{"type":"function","name":"TRANSFER_ROLE","inputs":[],"outputs":[{"name":"","type":"bytes32","internalType":"bytes32"}],"stateMutability":"view"},{"type":"function","name":"allowance","inputs":[{"name":"owner","type":"address","internalType":"address"},{"name":"spender","type":"address","internalType":"address"}],"outputs":[{"name":"","type":"uint256","internalType":"uint256"}],"stateMutability":"view"},{"type":"function","name":"approve","inputs":[{"name":"spender","type":"address","internalType":"address"},{"name":"amount","type":"uint256","internalType":"uint256"}],"outputs":[{"name":"","type":"bool","internalType":"bool"}],"stateMutability":"nonpayable"},{"type":"function","name":"balanceOf","inputs":[{"name":"account","type":"address","internalType":"address"}],"outputs":[{"name":"","type":"uint256","internalType":"uint256"}],"stateMutability":"view"},{"type":"function","name":"burn","inputs":[{"name":"from","type":"address","internalType":"address"},{"name":"amount","type":"uint256","internalType":"uint256"}],"outputs":[],"stateMutability":"nonpayable"},{"type":"function","name":"decimals","inputs":[],"outputs":[{"name":"","type":"uint8","internalType":"uint8"}],"stateMutability":"view"},{"type":"function","name":"decreaseAllowance","inputs":[{"name":"spender","type":"address","internalType":"address"},{"name":"subtractedValue","type":"uint256","internalType":"uint256"}],"outputs":[{"name":"","type":"bool","internalType":"bool"}],"stateMutability":"nonpayable"},{"type":"function","name":"deposit","inputs":[{"name":"user","type":"address","internalType":"address"},{"name":"depositData","type":"bytes","internalType":"bytes"}],"outputs":[],"stateMutability":"nonpayable"},{"type":"function","name":"getRestrictTransfers","inputs":[],"outputs":[{"name":"","type":"bool","internalType":"bool"}],"stateMutability":"view"},{"type":"function","name":"getTotalTokensInPositions","inputs":[],"outputs":[{"name":"","type":"uint256","internalType":"uint256"}],"stateMutability":"view"},{"type":"function","name":"getTotalTokensOnOtherChain","inputs":[],"outputs":[{"name":"","type":"uint256","internalType":"uint256"}],"stateMutability":"view"},{"type":"function","name":"increaseAllowance","inputs":[{"name":"spender","type":"address","internalType":"address"},{"name":"addedValue","type":"uint256","internalType":"uint256"}],"outputs":[{"name":"","type":"bool","internalType":"bool"}],"stateMutability":"nonpayable"},{"type":"function","name":"initialize","inputs":[{"name":"_morpherAccessControl","type":"address","internalType":"address"}],"outputs":[],"stateMutability":"nonpayable"},{"type":"function","name":"mint","inputs":[{"name":"to","type":"address","internalType":"address"},{"name":"amount","type":"uint256","internalType":"uint256"}],"outputs":[],"stateMutability":"nonpayable"},{"type":"function","name":"morpherAccessControl","inputs":[],"outputs":[{"name":"","type":"address","internalType":"contract MorpherAccessControl"}],"stateMutability":"view"},{"type":"function","name":"name","inputs":[],"outputs":[{"name":"","type":"string","internalType":"string"}],"stateMutability":"view"},{"type":"function","name":"nonces","inputs":[{"name":"owner","type":"address","internalType":"address"}],"outputs":[{"name":"","type":"uint256","internalType":"uint256"}],"stateMutability":"view"},{"type":"function","name":"pause","inputs":[],"outputs":[],"stateMutability":"nonpayable"},{"type":"function","name":"paused","inputs":[],"outputs":[{"name":"","type":"bool","internalType":"bool"}],"stateMutability":"view"},{"type":"function","name":"permit","inputs":[{"name":"owner","type":"address","internalType":"address"},{"name":"spender","type":"address","internalType":"address"},{"name":"value","type":"uint256","internalType":"uint256"},{"name":"deadline","type":"uint256","internalType":"uint256"},{"name":"v","type":"uint8","internalType":"uint8"},{"name":"r","type":"bytes32","internalType":"bytes32"},{"name":"s","type":"bytes32","internalType":"bytes32"}],"outputs":[],"stateMutability":"nonpayable"},{"type":"function","name":"setHashedName","inputs":[{"name":"_name","type":"string","internalType":"string"}],"outputs":[],"stateMutability":"nonpayable"},{"type":"function","name":"setHashedVersion","inputs":[{"name":"_version","type":"string","internalType":"string"}],"outputs":[],"stateMutability":"nonpayable"},{"type":"function","name":"setRestrictTransfers","inputs":[{"name":"restrictTransfers","type":"bool","internalType":"bool"}],"outputs":[],"stateMutability":"nonpayable"},{"type":"function","name":"setTotalInPositions","inputs":[{"name":"totalTokensInPositions","type":"uint256","internalType":"uint256"}],"outputs":[],"stateMutability":"nonpayable"},{"type":"function","name":"setTotalTokensOnOtherChain","inputs":[{"name":"totalOnOtherChain","type":"uint256","internalType":"uint256"}],"outputs":[],"stateMutability":"nonpayable"},{"type":"function","name":"symbol","inputs":[],"outputs":[{"name":"","type":"string","internalType":"string"}],"stateMutability":"view"},{"type":"function","name":"totalSupply","inputs":[],"outputs":[{"name":"","type":"uint256","internalType":"uint256"}],"stateMutability":"view"},{"type":"function","name":"transfer","inputs":[{"name":"to","type":"address","internalType":"address"},{"name":"amount","type":"uint256","internalType":"uint256"}],"outputs":[{"name":"","type":"bool","internalType":"bool"}],"stateMutability":"nonpayable"},{"type":"function","name":"transferFrom","inputs":[{"name":"from","type":"address","internalType":"address"},{"name":"to","type":"address","internalType":"address"},{"name":"amount","type":"uint256","internalType":"uint256"}],"outputs":[{"name":"","type":"bool","internalType":"bool"}],"stateMutability":"nonpayable"},{"type":"function","name":"unpause","inputs":[],"outputs":[],"stateMutability":"nonpayable"},{"type":"function","name":"withdraw","inputs":[{"name":"amount","type":"uint256","internalType":"uint256"}],"outputs":[],"stateMutability":"nonpayable"},{"type":"event","name":"Approval","inputs":[{"name":"owner","type":"address","indexed":true,"internalType":"address"},{"name":"spender","type":"address","indexed":true,"internalType":"address"},{"name":"value","type":"uint256","indexed":false,"internalType":"uint256"}],"anonymous":false},{"type":"event","name":"Initialized","inputs":[{"name":"version","type":"uint8","indexed":false,"internalType":"uint8"}],"anonymous":false},{"type":"event","name":"Paused","inputs":[{"name":"account","type":"address","indexed":false,"internalType":"address"}],"anonymous":false},{"type":"event","name":"SetRestrictTransfers","inputs":[{"name":"_oldValue","type":"bool","indexed":false,"internalType":"bool"},{"name":"_newValue","type":"bool","indexed":false,"internalType":"bool"}],"anonymous":false},{"type":"event","name":"SetTotalTokensInPositions","inputs":[{"name":"_oldValue","type":"uint256","indexed":false,"internalType":"uint256"},{"name":"_newValue","type":"uint256","indexed":false,"internalType":"uint256"}],"anonymous":false},{"type":"event","name":"SetTotalTokensOnOtherChain","inputs":[{"name":"_oldValue","type":"uint256","indexed":false,"internalType":"uint256"},{"name":"_newValue","type":"uint256","indexed":false,"internalType":"uint256"}],"anonymous":false},{"type":"event","name":"Transfer","inputs":[{"name":"from","type":"address","indexed":true,"internalType":"address"},{"name":"to","type":"address","indexed":true,"internalType":"address"},{"name":"value","type":"uint256","indexed":false,"internalType":"uint256"}],"anonymous":false},{"type":"event","name":"Unpaused","inputs":[{"name":"account","type":"address","indexed":false,"internalType":"address"}],"anonymous":false}],"bytecode":{"object":"0x6080604052348015600f57600080fd5b5061293c8061001f6000396000f3fe608060405234801561001057600080fd5b506004361061023d5760003560e01c80638456cb591161013b578063c4d66de8116100b8578063d53913931161007c578063d539139314610520578063dd62ed3e14610547578063e5160f801461055a578063e63ab1e91461056d578063f45edb5f1461059457600080fd5b8063c4d66de8146104ad578063c4f33a5e146104c0578063cae6a37d146104e7578063cf2c52cb146104fa578063d505accf1461050d57600080fd5b806397226ece116100ff57806397226ece146104595780639895724b146104615780639dc29fac14610474578063a457c2d714610487578063a9059cbb1461049a57600080fd5b80638456cb591461040357806385f993c61461040b5780638ac203a71461041357806395a5d2921461042657806395d89b411461045157600080fd5b80633644e515116101c95780635c975abb1161018d5780635c975abb146103825780636816a3b11461038d57806370a08231146103a05780637599a393146103c95780637ecebe00146103f057600080fd5b80633644e5151461034157806339509351146103495780633ba2e5661461035c5780633f4ba83a1461036757806340c10f191461036f57600080fd5b8063206b60f911610210578063206b60f9146102bc57806323b872dd146102e3578063282c51f3146102f65780632e1a7d4d1461031d578063313ce5671461033257600080fd5b80630529fec21461024257806306fdde031461027c578063095ea7b31461029157806318160ddd146102b4575b600080fd5b6102697f976f69c4d3b65478fca9223fe0ed1b2522bde010f2060b8733f0ed5e916f496481565b6040519081526020015b60405180910390f35b6102846105a9565b60405161027391906123a7565b6102a461029f366004612411565b61063b565b6040519015158152602001610273565b610269610655565b6102697f8502233096d909befbda0999bb8ea2f3a6be3c138b9fbf003752a4c8bce86f6c81565b6102a46102f136600461243b565b61067f565b6102697f3c11d16cbaffd01df69ce1c404f6340ee057498f5f00246190ea54220576a84881565b61033061032b366004612478565b6106a3565b005b60405160128152602001610273565b610269610779565b6102a4610357366004612411565b610783565b60cc5460ff166102a4565b6103306107a5565b61033061037d366004612411565b6108b3565b60655460ff166102a4565b61033061039b3660046124a7565b6109be565b6102696103ae366004612560565b6001600160a01b031660009081526033602052604090205490565b6102697f8f9b87baaf0dcf6097cd12d17d5a30d81dfb97be0fd6e19c2ba4376afd55a3a981565b6102696103fe366004612560565b610a79565b610330610a97565b60cb54610269565b610330610421366004612478565b610ba1565b60c954610439906001600160a01b031681565b6040516001600160a01b039091168152602001610273565b610284610ca2565b60ca54610269565b61033061046f3660046124a7565b610cb1565b610330610482366004612411565b610d6c565b6102a4610495366004612411565b610e77565b6102a46104a8366004612411565b610ef2565b6103306104bb366004612560565b610f00565b6102697f22060b5f5e80cc25f73a2ae7f4b9389213d436da9a0db76b0bf57fa95eddf87d81565b6103306104f5366004612590565b6110e7565b6103306105083660046125ad565b6111eb565b61033061051b366004612632565b6112cb565b6102697f9f2df0fed2c77648de5860a4cc508cd0818c85b8b8a1ab4ceeef8d981c8956a681565b6102696105553660046126a5565b61142f565b610330610568366004612478565b61145a565b6102697f65d7a28e3265b37a6474929f336521b332c1681b933f6cb9f3376673440d862a81565b6102696000805160206128e783398151915281565b6060603680546105b8906126d8565b80601f01602080910402602001604051908101604052809291908181526020018280546105e4906126d8565b80156106315780601f1061060657610100808354040283529160200191610631565b820191906000526020600020905b81548152906001019060200180831161061457829003601f168201915b5050505050905090565b60003361064981858561155b565b60019150505b92915050565b600060cb5460ca5461066660355490565b610670919061270c565b61067a919061270c565b905090565b60003361068d858285611680565b6106988585856116fa565b506001949350505050565b60c9547f22060b5f5e80cc25f73a2ae7f4b9389213d436da9a0db76b0bf57fa95eddf87d906001600160a01b03166391d1485482336040516001600160e01b031960e085901b16815260048101929092526001600160a01b03166024820152604401602060405180830381865afa158015610722573d6000803e3d6000fd5b505050506040513d601f19601f82011682018060405250810190610746919061272d565b61076b5760405162461bcd60e51b81526004016107629061274a565b60405180910390fd5b61077533836118b0565b5050565b600061067a6119ed565b600033610649818585610796838361142f565b6107a0919061270c565b61155b565b60c9546001600160a01b03166391d148547f65d7a28e3265b37a6474929f336521b332c1681b933f6cb9f3376673440d862a336040516001600160e01b031960e085901b16815260048101929092526001600160a01b03166024820152604401602060405180830381865afa158015610822573d6000803e3d6000fd5b505050506040513d601f19601f82011682018060405250810190610846919061272d565b6108a95760405162461bcd60e51b815260206004820152602e60248201527f4d6f7270686572546f6b656e3a206d757374206861766520706175736572207260448201526d6f6c6520746f20756e706175736560901b6064820152608401610762565b6108b1611a68565b565b60c9546001600160a01b03166391d148547f9f2df0fed2c77648de5860a4cc508cd0818c85b8b8a1ab4ceeef8d981c8956a6336040516001600160e01b031960e085901b16815260048101929092526001600160a01b03166024820152604401602060405180830381865afa158015610930573d6000803e3d6000fd5b505050506040513d601f19601f82011682018060405250810190610954919061272d565b6109b45760405162461bcd60e51b815260206004820152602b60248201527f4d6f7270686572546f6b656e3a206d7573742068617665206d696e746572207260448201526a1bdb19481d1bc81b5a5b9d60aa1b6064820152608401610762565b6107758282611aba565b60c9546000805160206128e7833981519152906001600160a01b03166391d1485482336040516001600160e01b031960e085901b16815260048101929092526001600160a01b03166024820152604401602060405180830381865afa158015610a2b573d6000803e3d6000fd5b505050506040513d601f19601f82011682018060405250810190610a4f919061272d565b610a6b5760405162461bcd60e51b81526004016107629061274a565b50805160209091012060ce55565b6001600160a01b038116600090815260cf602052604081205461064f565b60c9546001600160a01b03166391d148547f65d7a28e3265b37a6474929f336521b332c1681b933f6cb9f3376673440d862a336040516001600160e01b031960e085901b16815260048101929092526001600160a01b03166024820152604401602060405180830381865afa158015610b14573d6000803e3d6000fd5b505050506040513d601f19601f82011682018060405250810190610b38919061272d565b610b995760405162461bcd60e51b815260206004820152602c60248201527f4d6f7270686572546f6b656e3a206d757374206861766520706175736572207260448201526b6f6c6520746f20706175736560a01b6064820152608401610762565b6108b1611b87565b60c9547f8f9b87baaf0dcf6097cd12d17d5a30d81dfb97be0fd6e19c2ba4376afd55a3a9906001600160a01b03166391d1485482336040516001600160e01b031960e085901b16815260048101929092526001600160a01b03166024820152604401602060405180830381865afa158015610c20573d6000803e3d6000fd5b505050506040513d601f19601f82011682018060405250810190610c44919061272d565b610c605760405162461bcd60e51b81526004016107629061274a565b60cb5460408051918252602082018490527f403593c572c4e2016cd93550e0260e82ab507a5ce5c9604f7c1fe84192f7649d910160405180910390a15060ca55565b6060603780546105b8906126d8565b60c9546000805160206128e7833981519152906001600160a01b03166391d1485482336040516001600160e01b031960e085901b16815260048101929092526001600160a01b03166024820152604401602060405180830381865afa158015610d1e573d6000803e3d6000fd5b505050506040513d601f19601f82011682018060405250810190610d42919061272d565b610d5e5760405162461bcd60e51b81526004016107629061274a565b50805160209091012060cd55565b60c9546001600160a01b03166391d148547f3c11d16cbaffd01df69ce1c404f6340ee057498f5f00246190ea54220576a848336040516001600160e01b031960e085901b16815260048101929092526001600160a01b03166024820152604401602060405180830381865afa158015610de9573d6000803e3d6000fd5b505050506040513d601f19601f82011682018060405250810190610e0d919061272d565b610e6d5760405162461bcd60e51b815260206004820152602b60248201527f4d6f7270686572546f6b656e3a206d7573742068617665206275726e6572207260448201526a37b632903a3790313ab93760a91b6064820152608401610762565b61077582826118b0565b60003381610e85828661142f565b905083811015610ee55760405162461bcd60e51b815260206004820152602560248201527f45524332303a2064656372656173656420616c6c6f77616e63652062656c6f77604482015264207a65726f60d81b6064820152608401610762565b610698828686840361155b565b6000336106498185856116fa565b600054610100900460ff1615808015610f205750600054600160ff909116105b80610f3a5750303b158015610f3a575060005460ff166001145b610f9d5760405162461bcd60e51b815260206004820152602e60248201527f496e697469616c697a61626c653a20636f6e747261637420697320616c72656160448201526d191e481a5b9a5d1a585b1a5e995960921b6064820152608401610762565b6000805460ff191660011790558015610fc0576000805461ff0019166101001790555b6110046040518060400160405280600781526020016626b7b9383432b960c91b8152506040518060400160405280600381526020016209aa0960eb1b815250611bc4565b60c980546001600160a01b0319166001600160a01b038416179055604080518082018252600c81526b26b7b9383432b92a37b5b2b760a11b6020918201527fd16acfd147da095d5ec75818c7421026214d7a249bdcafd234378a499e6ade2060cd55815180830190925260018252603160f81b9101527fc89efdaa54c0f20c7adf612882df0950f5a951637e0307cdcb4c672f298b8bc660ce558015610775576000805461ff0019169055604051600181527f7f26b83ff96e1f2b6a682f133852f6798a09c465da95921460cefb38474024989060200160405180910390a15050565b60c9546000805160206128e7833981519152906001600160a01b03166391d1485482336040516001600160e01b031960e085901b16815260048101929092526001600160a01b03166024820152604401602060405180830381865afa158015611154573d6000803e3d6000fd5b505050506040513d601f19601f82011682018060405250810190611178919061272d565b6111945760405162461bcd60e51b81526004016107629061274a565b60cc546040805160ff9092161515825283151560208301527f031b7076ea69cc7c069abb5b40b40971da5a280ca9d1c3bda1e25e69b2e72abb910160405180910390a15060cc805460ff1916911515919091179055565b60c9547f22060b5f5e80cc25f73a2ae7f4b9389213d436da9a0db76b0bf57fa95eddf87d906001600160a01b03166391d1485482336040516001600160e01b031960e085901b16815260048101929092526001600160a01b03166024820152604401602060405180830381865afa15801561126a573d6000803e3d6000fd5b505050506040513d601f19601f8201168201806040525081019061128e919061272d565b6112aa5760405162461bcd60e51b81526004016107629061274a565b60006112b883850185612478565b90506112c48582611aba565b5050505050565b8342111561131b5760405162461bcd60e51b815260206004820152601d60248201527f45524332305065726d69743a206578706972656420646561646c696e650000006044820152606401610762565b60007f6e71edae12b1b97f4d1f60370fef10105fa2faae0126114a169c64845d6126c988888861134a8c611bf5565b6040805160208101969096526001600160a01b0394851690860152929091166060840152608083015260a082015260c0810186905260e00160405160208183030381529060405280519060200120905060006113a582611c1d565b905060006113b582878787611c4a565b9050896001600160a01b0316816001600160a01b0316146114185760405162461bcd60e51b815260206004820152601e60248201527f45524332305065726d69743a20696e76616c6964207369676e617475726500006044820152606401610762565b6114238a8a8a61155b565b50505050505050505050565b6001600160a01b03918216600090815260346020908152604080832093909416825291909152205490565b60c9547f8f9b87baaf0dcf6097cd12d17d5a30d81dfb97be0fd6e19c2ba4376afd55a3a9906001600160a01b03166391d1485482336040516001600160e01b031960e085901b16815260048101929092526001600160a01b03166024820152604401602060405180830381865afa1580156114d9573d6000803e3d6000fd5b505050506040513d601f19601f820116820180604052508101906114fd919061272d565b6115195760405162461bcd60e51b81526004016107629061274a565b60cb5460408051918252602082018490527f9be715265056d01e32a5a436e7cf9bd1e204862153232c5ccdd5bbb72f5ea944910160405180910390a15060cb55565b6001600160a01b0383166115bd5760405162461bcd60e51b8152602060048201526024808201527f45524332303a20617070726f76652066726f6d20746865207a65726f206164646044820152637265737360e01b6064820152608401610762565b6001600160a01b03821661161e5760405162461bcd60e51b815260206004820152602260248201527f45524332303a20617070726f766520746f20746865207a65726f206164647265604482015261737360f01b6064820152608401610762565b6001600160a01b0383811660008181526034602090815260408083209487168084529482529182902085905590518481527f8c5be1e5ebec7d5bd14f71427d1e84f3dd0314c0f7b2291e5b200ac8c7c3b92591015b60405180910390a3505050565b600061168c848461142f565b905060001981146116f457818110156116e75760405162461bcd60e51b815260206004820152601d60248201527f45524332303a20696e73756666696369656e7420616c6c6f77616e63650000006044820152606401610762565b6116f4848484840361155b565b50505050565b6001600160a01b03831661175e5760405162461bcd60e51b815260206004820152602560248201527f45524332303a207472616e736665722066726f6d20746865207a65726f206164604482015264647265737360d81b6064820152608401610762565b6001600160a01b0382166117c05760405162461bcd60e51b815260206004820152602360248201527f45524332303a207472616e7366657220746f20746865207a65726f206164647260448201526265737360e81b6064820152608401610762565b6117cb838383611c72565b6001600160a01b038316600090815260336020526040902054818110156118435760405162461bcd60e51b815260206004820152602660248201527f45524332303a207472616e7366657220616d6f756e7420657863656564732062604482015265616c616e636560d01b6064820152608401610762565b6001600160a01b0380851660008181526033602052604080822086860390559286168082529083902080548601905591517fddf252ad1be2c89b69c2b068fc378daa952ba7f163c4a11628f55a4df523b3ef906118a39086815260200190565b60405180910390a36116f4565b6001600160a01b0382166119105760405162461bcd60e51b815260206004820152602160248201527f45524332303a206275726e2066726f6d20746865207a65726f206164647265736044820152607360f81b6064820152608401610762565b61191c82600083611c72565b6001600160a01b038216600090815260336020526040902054818110156119905760405162461bcd60e51b815260206004820152602260248201527f45524332303a206275726e20616d6f756e7420657863656564732062616c616e604482015261636560f01b6064820152608401610762565b6001600160a01b03831660008181526033602090815260408083208686039055603580548790039055518581529192917fddf252ad1be2c89b69c2b068fc378daa952ba7f163c4a11628f55a4df523b3ef9101611673565b505050565b600061067a7f8b73c3c69bb8fe3d512ecc4cf759cc79239f7b179b0ffacaa9a75d522b39400f611a1c60cd5490565b60ce546040805160208101859052908101839052606081018290524660808201523060a082015260009060c0016040516020818303038152906040528051906020012090509392505050565b611a70612061565b6065805460ff191690557f5db9ee0a495bf2e6ff9c91a7834c1ba4fdd244a5e8aa4e537bd38aeae4b073aa335b6040516001600160a01b03909116815260200160405180910390a1565b6001600160a01b038216611b105760405162461bcd60e51b815260206004820152601f60248201527f45524332303a206d696e7420746f20746865207a65726f2061646472657373006044820152606401610762565b611b1c60008383611c72565b8060356000828254611b2e919061270c565b90915550506001600160a01b0382166000818152603360209081526040808320805486019055518481527fddf252ad1be2c89b69c2b068fc378daa952ba7f163c4a11628f55a4df523b3ef910160405180910390a35050565b611b8f6120aa565b6065805460ff191660011790557f62e78cea01bee320cd4e420270b5ea74000d11b0c9f74754ebdbfc544b05a258611a9d3390565b600054610100900460ff16611beb5760405162461bcd60e51b81526004016107629061277f565b61077582826120f0565b6001600160a01b038116600090815260cf602052604090208054600181018255905b50919050565b600061064f611c2a6119ed565b8360405161190160f01b8152600281019290925260228201526042902090565b6000806000611c5b87878787612130565b91509150611c68816121f4565b5095945050505050565b60cc5460ff161580611d20575060c9546001600160a01b03166391d148547f8502233096d909befbda0999bb8ea2f3a6be3c138b9fbf003752a4c8bce86f6c336040516001600160e01b031960e085901b16815260048101929092526001600160a01b03166024820152604401602060405180830381865afa158015611cfc573d6000803e3d6000fd5b505050506040513d601f19601f82011682018060405250810190611d20919061272d565b80611dc7575060c9546001600160a01b03166391d148547f9f2df0fed2c77648de5860a4cc508cd0818c85b8b8a1ab4ceeef8d981c8956a6336040516001600160e01b031960e085901b16815260048101929092526001600160a01b03166024820152604401602060405180830381865afa158015611da3573d6000803e3d6000fd5b505050506040513d601f19601f82011682018060405250810190611dc7919061272d565b80611e6e575060c9546001600160a01b03166391d148547f3c11d16cbaffd01df69ce1c404f6340ee057498f5f00246190ea54220576a848336040516001600160e01b031960e085901b16815260048101929092526001600160a01b03166024820152604401602060405180830381865afa158015611e4a573d6000803e3d6000fd5b505050506040513d601f19601f82011682018060405250810190611e6e919061272d565b80611f08575060c954604051632474521560e21b81527f8502233096d909befbda0999bb8ea2f3a6be3c138b9fbf003752a4c8bce86f6c60048201526001600160a01b038581166024830152909116906391d1485490604401602060405180830381865afa158015611ee4573d6000803e3d6000fd5b505050506040513d601f19601f82011682018060405250810190611f08919061272d565b611f545760405162461bcd60e51b815260206004820152601d60248201527f4d6f7270686572546f6b656e3a205472616e736665722064656e6965640000006044820152606401610762565b60c9546001600160a01b03166391d148547f976f69c4d3b65478fca9223fe0ed1b2522bde010f2060b8733f0ed5e916f4964336040516001600160e01b031960e085901b16815260048101929092526001600160a01b03166024820152604401602060405180830381865afa158015611fd1573d6000803e3d6000fd5b505050506040513d601f19601f82011682018060405250810190611ff5919061272d565b156120565760405162461bcd60e51b815260206004820152602b60248201527f4d6f7270686572546f6b656e3a205472616e7366657220666f7220557365722060448201526a34b990313637b1b5b2b21760a91b6064820152608401610762565b6119e8838383612341565b60655460ff166108b15760405162461bcd60e51b815260206004820152601460248201527314185d5cd8589b194e881b9bdd081c185d5cd95960621b6044820152606401610762565b60655460ff16156108b15760405162461bcd60e51b815260206004820152601060248201526f14185d5cd8589b194e881c185d5cd95960821b6044820152606401610762565b600054610100900460ff166121175760405162461bcd60e51b81526004016107629061277f565b60366121238382612811565b5060376119e88282612811565b6000807f7fffffffffffffffffffffffffffffff5d576e7357a4501ddfe92f46681b20a083111561216757506000905060036121eb565b6040805160008082526020820180845289905260ff881692820192909252606081018690526080810185905260019060a0016020604051602081039080840390855afa1580156121bb573d6000803e3d6000fd5b5050604051601f1901519150506001600160a01b0381166121e4576000600192509250506121eb565b9150600090505b94509492505050565b6000816004811115612208576122086128d0565b036122105750565b6001816004811115612224576122246128d0565b036122715760405162461bcd60e51b815260206004820152601860248201527f45434453413a20696e76616c6964207369676e617475726500000000000000006044820152606401610762565b6002816004811115612285576122856128d0565b036122d25760405162461bcd60e51b815260206004820152601f60248201527f45434453413a20696e76616c6964207369676e6174757265206c656e677468006044820152606401610762565b60038160048111156122e6576122e66128d0565b0361233e5760405162461bcd60e51b815260206004820152602260248201527f45434453413a20696e76616c6964207369676e6174757265202773272076616c604482015261756560f01b6064820152608401610762565b50565b60655460ff16156119e85760405162461bcd60e51b815260206004820152602a60248201527f45524332305061757361626c653a20746f6b656e207472616e736665722077686044820152691a5b19481c185d5cd95960b21b6064820152608401610762565b602081526000825180602084015260005b818110156123d557602081860181015160408684010152016123b8565b506000604082850101526040601f19601f83011684010191505092915050565b80356001600160a01b038116811461240c57600080fd5b919050565b6000806040838503121561242457600080fd5b61242d836123f5565b946020939093013593505050565b60008060006060848603121561245057600080fd5b612459846123f5565b9250612467602085016123f5565b929592945050506040919091013590565b60006020828403121561248a57600080fd5b5035919050565b634e487b7160e01b600052604160045260246000fd5b6000602082840312156124b957600080fd5b813567ffffffffffffffff8111156124d057600080fd5b8201601f810184136124e157600080fd5b803567ffffffffffffffff8111156124fb576124fb612491565b604051601f8201601f19908116603f0116810167ffffffffffffffff8111828210171561252a5761252a612491565b60405281815282820160200186101561254257600080fd5b81602084016020830137600091810160200191909152949350505050565b60006020828403121561257257600080fd5b61257b826123f5565b9392505050565b801515811461233e57600080fd5b6000602082840312156125a257600080fd5b813561257b81612582565b6000806000604084860312156125c257600080fd5b6125cb846123f5565b9250602084013567ffffffffffffffff8111156125e757600080fd5b8401601f810186136125f857600080fd5b803567ffffffffffffffff81111561260f57600080fd5b86602082840101111561262157600080fd5b939660209190910195509293505050565b600080600080600080600060e0888a03121561264d57600080fd5b612656886123f5565b9650612664602089016123f5565b95506040880135945060608801359350608088013560ff8116811461268857600080fd5b9699959850939692959460a0840135945060c09093013592915050565b600080604083850312156126b857600080fd5b6126c1836123f5565b91506126cf602084016123f5565b90509250929050565b600181811c908216806126ec57607f821691505b602082108103611c1757634e487b7160e01b600052602260045260246000fd5b8082018082111561064f57634e487b7160e01b600052601160045260246000fd5b60006020828403121561273f57600080fd5b815161257b81612582565b6020808252818101527f4d6f7270686572546f6b656e3a205065726d697373696f6e2064656e6965642e604082015260600190565b6020808252602b908201527f496e697469616c697a61626c653a20636f6e7472616374206973206e6f74206960408201526a6e697469616c697a696e6760a81b606082015260800190565b601f8211156119e857806000526020600020601f840160051c810160208510156127f15750805b601f840160051c820191505b818110156112c457600081556001016127fd565b815167ffffffffffffffff81111561282b5761282b612491565b61283f8161283984546126d8565b846127ca565b6020601f821160018114612873576000831561285b5750848201515b600019600385901b1c1916600184901b1784556112c4565b600084815260208120601f198516915b828110156128a35787850151825560209485019460019092019101612883565b50848210156128c15786840151600019600387901b60f8161c191681555b50505050600190811b01905550565b634e487b7160e01b600052602160045260246000fdfee5a0b4d50f56047f84728557fedbda92f956391bc9d5c762e8461996dd8e7ad7a26469706673582212203146a08e743ab1902c1576fa23d306adc9f49969b2855e5a4c0608ce44b853ba64736f6c634300081a0033","linkReferences":{}},"methodIdentifiers":{"ADMINISTRATOR_ROLE()":"f45edb5f","BURNER_ROLE()":"282c51f3","DOMAIN_SEPARATOR()":"3644e515","MINTER_ROLE()":"d5391393","PAUSER_ROLE()":"e63ab1e9","POLYGONMINTER_ROLE()":"c4f33a5e","TOKENUPDATER_ROLE()":"7599a393","TRANSFERBLOCKED_ROLE()":"0529fec2","TRANSFER_ROLE()":"206b60f9","allowance(address,address)":"dd62ed3e","approve(address,uint256)":"095ea7b3","balanceOf(address)":"70a08231","burn(address,uint256)":"9dc29fac","decimals()":"313ce567","decreaseAllowance(address,uint256)":"a457c2d7","deposit(address,bytes)":"cf2c52cb","getRestrictTransfers()":"3ba2e566","getTotalTokensInPositions()":"85f993c6","getTotalTokensOnOtherChain()":"97226ece","increaseAllowance(address,uint256)":"39509351","initialize(address)":"c4d66de8","mint(address,uint256)":"40c10f19","morpherAccessControl()":"95a5d292","name()":"06fdde03","nonces(address)":"7ecebe00","pause()":"8456cb59","paused()":"5c975abb","permit(address,address,uint256,uint256,uint8,bytes32,bytes32)":"d505accf","setHashedName(string)":"9895724b","setHashedVersion(string)":"6816a3b1","setRestrictTransfers(bool)":"cae6a37d","setTotalInPositions(uint256)":"e5160f80","setTotalTokensOnOtherChain(uint256)":"8ac203a7","symbol()":"95d89b41","totalSupply()":"18160ddd","transfer(address,uint256)":"a9059cbb","transferFrom(address,address,uint256)":"23b872dd","unpause()":"3f4ba83a","withdraw(uint256)":"2e1a7d4d"},"storageLayout":{"storage":[{"astId":57931,"contract":"contracts/MorpherToken.sol:MorpherToken","label":"_initialized","offset":0,"slot":"0","type":"t_uint8"},{"astId":57934,"contract":"contracts/MorpherToken.sol:MorpherToken","label":"_initializing","offset":1,"slot":"0","type":"t_bool"},{"astId":59790,"contract":"contracts/MorpherToken.sol:MorpherToken","label":"__gap","offset":0,"slot":"1","type":"t_array(t_uint256)50_storage"},{"astId":58241,"contract":"contracts/MorpherToken.sol:MorpherToken","label":"_balances","offset":0,"slot":"51","type":"t_mapping(t_address,t_uint256)"},{"astId":58247,"contract":"contracts/MorpherToken.sol:MorpherToken","label":"_allowances","offset":0,"slot":"52","type":"t_mapping(t_address,t_mapping(t_address,t_uint256))"},{"astId":58249,"contract":"contracts/MorpherToken.sol:MorpherToken","label":"_totalSupply","offset":0,"slot":"53","type":"t_uint256"},{"astId":58251,"contract":"contracts/MorpherToken.sol:MorpherToken","label":"_name","offset":0,"slot":"54","type":"t_string_storage"},{"astId":58253,"contract":"contracts/MorpherToken.sol:MorpherToken","label":"_symbol","offset":0,"slot":"55","type":"t_string_storage"},{"astId":58833,"contract":"contracts/MorpherToken.sol:MorpherToken","label":"__gap","offset":0,"slot":"56","type":"t_array(t_uint256)45_storage"},{"astId":58115,"contract":"contracts/MorpherToken.sol:MorpherToken","label":"_paused","offset":0,"slot":"101","type":"t_bool"},{"astId":58220,"contract":"contracts/MorpherToken.sol:MorpherToken","label":"__gap","offset":0,"slot":"102","type":"t_array(t_uint256)49_storage"},{"astId":58972,"contract":"contracts/MorpherToken.sol:MorpherToken","label":"__gap","offset":0,"slot":"151","type":"t_array(t_uint256)50_storage"},{"astId":8075,"contract":"contracts/MorpherToken.sol:MorpherToken","label":"morpherAccessControl","offset":0,"slot":"201","type":"t_contract(MorpherAccessControl)80"},{"astId":8117,"contract":"contracts/MorpherToken.sol:MorpherToken","label":"_totalTokensOnOtherChain","offset":0,"slot":"202","type":"t_uint256"},{"astId":8119,"contract":"contracts/MorpherToken.sol:MorpherToken","label":"_totalTokensInPositions","offset":0,"slot":"203","type":"t_uint256"},{"astId":8121,"contract":"contracts/MorpherToken.sol:MorpherToken","label":"_restrictTransfers","offset":0,"slot":"204","type":"t_bool"},{"astId":8124,"contract":"contracts/MorpherToken.sol:MorpherToken","label":"_HASHED_NAME","offset":0,"slot":"205","type":"t_bytes32"},{"astId":8126,"contract":"contracts/MorpherToken.sol:MorpherToken","label":"_HASHED_VERSION","offset":0,"slot":"206","type":"t_bytes32"},{"astId":8140,"contract":"contracts/MorpherToken.sol:MorpherToken","label":"_nonces","offset":0,"slot":"207","type":"t_mapping(t_address,t_struct(Counter)59797_storage)"},{"astId":8147,"contract":"contracts/MorpherToken.sol:MorpherToken","label":"_PERMIT_TYPEHASH_DEPRECATED_SLOT","offset":0,"slot":"208","type":"t_bytes32"}],"types":{"t_address":{"encoding":"inplace","label":"address","numberOfBytes":"20"},"t_array(t_uint256)45_storage":{"encoding":"inplace","label":"uint256[45]","numberOfBytes":"1440","base":"t_uint256"},"t_array(t_uint256)49_storage":{"encoding":"inplace","label":"uint256[49]","numberOfBytes":"1568","base":"t_uint256"},"t_array(t_uint256)50_storage":{"encoding":"inplace","label":"uint256[50]","numberOfBytes":"1600","base":"t_uint256"},"t_bool":{"encoding":"inplace","label":"bool","numberOfBytes":"1"},"t_bytes32":{"encoding":"inplace","label":"bytes32","numberOfBytes":"32"},"t_contract(MorpherAccessControl)80":{"encoding":"inplace","label":"contract MorpherAccessControl","numberOfBytes":"20"},"t_mapping(t_address,t_mapping(t_address,t_uint256))":{"encoding":"mapping","key":"t_address","label":"mapping(address => mapping(address => uint256))","numberOfBytes":"32","value":"t_mapping(t_address,t_uint256)"},"t_mapping(t_address,t_struct(Counter)59797_storage)":{"encoding":"mapping","key":"t_address","label":"mapping(address => struct CountersUpgradeable.Counter)","numberOfBytes":"32","value":"t_struct(Counter)59797_storage"},"t_mapping(t_address,t_uint256)":{"encoding":"mapping","key":"t_address","label":"mapping(address => uint256)","numberOfBytes":"32","value":"t_uint256"},"t_string_storage":{"encoding":"bytes","label":"string","numberOfBytes":"32"},"t_struct(Counter)59797_storage":{"encoding":"inplace","label":"struct CountersUpgradeable.Counter","numberOfBytes":"32","members":[{"astId":59796,"contract":"contracts/MorpherToken.sol:MorpherToken","label":"_value","offset":0,"slot":"0","type":"t_uint256"}]},"t_uint256":{"encoding":"inplace","label":"uint256","numberOfBytes":"32"},"t_uint8":{"encoding":"inplace","label":"uint8","numberOfBytes":"1"}}},"id":14}