{"abi":[{"type":"function","name":"ADMINISTRATOR_ROLE","inputs":[],"outputs":[{"name":"","type":"bytes32","internalType":"bytes32"}],"stateMutability":"view"},{"type":"function","name":"DOMAIN_SEPARATOR","inputs":[],"outputs":[{"name":"","type":"bytes32","internalType":"bytes32"}],"stateMutability":"view"},{"type":"function","name":"ORACLEOPERATOR_ROLE","inputs":[],"outputs":[{"name":"","type":"bytes32","internalType":"bytes32"}],"stateMutability":"view"},{"type":"function","name":"PAUSER_ROLE","inputs":[],"outputs":[{"name":"","type":"bytes32","internalType":"bytes32"}],"stateMutability":"view"},{"type":"function","name":"UNISWAP_ROUTER","inputs":[],"outputs":[{"name":"","type":"address","internalType":"address"}],"stateMutability":"view"},{"type":"function","name":"_HASHED_NAME","inputs":[],"outputs":[{"name":"","type":"bytes32","internalType":"bytes32"}],"stateMutability":"view"},{"type":"function","name":"_HASHED_VERSION","inputs":[],"outputs":[{"name":"","type":"bytes32","internalType":"bytes32"}],"stateMutability":"view"},{"type":"function","name":"_PERMIT_TYPEHASH","inputs":[],"outputs":[{"name":"","type":"bytes32","internalType":"bytes32"}],"stateMutability":"view"},{"type":"function","name":"_TYPE_HASH","inputs":[],"outputs":[{"name":"","type":"bytes32","internalType":"bytes32"}],"stateMutability":"view"},{"type":"function","name":"__callback","inputs":[{"name":"_orderId","type":"bytes32","internalType":"bytes32"},{"name":"_price","type":"uint256","internalType":"uint256"},{"name":"_unadjustedMarketPrice","type":"uint256","internalType":"uint256"},{"name":"_spread","type":"uint256","internalType":"uint256"},{"name":"_liquidationTimestamp","type":"uint256","internalType":"uint256"},{"name":"_timeStamp","type":"uint256","internalType":"uint256"},{"name":"_gasForNextCallback","type":"uint256","internalType":"uint256"}],"outputs":[{"name":"createdPosition","type":"tuple","internalType":"struct MorpherTradeEngine.position","components":[{"name":"lastUpdated","type":"uint256","internalType":"uint256"},{"name":"longShares","type":"uint256","internalType":"uint256"},{"name":"shortShares","type":"uint256","internalType":"uint256"},{"name":"meanEntryPrice","type":"uint256","internalType":"uint256"},{"name":"meanEntrySpread","type":"uint256","internalType":"uint256"},{"name":"meanEntryLeverage","type":"uint256","internalType":"uint256"},{"name":"liquidationPrice","type":"uint256","internalType":"uint256"},{"name":"positionHash","type":"bytes32","internalType":"bytes32"}]}],"stateMutability":"nonpayable"},{"type":"function","name":"adminCancelOrder","inputs":[{"name":"_orderId","type":"bytes32","internalType":"bytes32"}],"outputs":[],"stateMutability":"nonpayable"},{"type":"function","name":"adminLiquidationOrder","inputs":[{"name":"_address","type":"address","internalType":"address"},{"name":"_marketId","type":"bytes32","internalType":"bytes32"}],"outputs":[{"name":"_orderId","type":"bytes32","internalType":"bytes32"}],"stateMutability":"nonpayable"},{"type":"function","name":"callBackAddress","inputs":[{"name":"","type":"address","internalType":"address"}],"outputs":[{"name":"","type":"bool","internalType":"bool"}],"stateMutability":"view"},{"type":"function","name":"callBackCollectionAddress","inputs":[],"outputs":[{"name":"","type":"address","internalType":"address payable"}],"stateMutability":"view"},{"type":"function","name":"cancelOrder","inputs":[{"name":"_orderId","type":"bytes32","internalType":"bytes32"}],"outputs":[],"stateMutability":"nonpayable"},{"type":"function","name":"checkOrderConditions","inputs":[{"name":"_orderId","type":"bytes32","internalType":"bytes32"},{"name":"_price","type":"uint256","internalType":"uint256"}],"outputs":[{"name":"_conditionsMet","type":"bool","internalType":"bool"}],"stateMutability":"view"},{"type":"function","name":"createLiquidationOrder","inputs":[{"name":"_address","type":"address","internalType":"address"},{"name":"_marketId","type":"bytes32","internalType":"bytes32"}],"outputs":[{"name":"_orderId","type":"bytes32","internalType":"bytes32"}],"stateMutability":"payable"},{"type":"function","name":"createOrder","inputs":[{"name":"createOrderParams","type":"tuple","internalType":"struct MorpherOracle.CreateOrderStruct","components":[{"name":"_marketId","type":"bytes32","internalType":"bytes32"},{"name":"_closeSharesAmount","type":"uint256","internalType":"uint256"},{"name":"_openMPHTokenAmount","type":"uint256","internalType":"uint256"},{"name":"_tradeDirection","type":"bool","internalType":"bool"},{"name":"_orderLeverage","type":"uint256","internalType":"uint256"},{"name":"_onlyIfPriceAbove","type":"uint256","internalType":"uint256"},{"name":"_onlyIfPriceBelow","type":"uint256","internalType":"uint256"},{"name":"_goodUntil","type":"uint256","internalType":"uint256"},{"name":"_goodFrom","type":"uint256","internalType":"uint256"}]}],"outputs":[{"name":"_orderId","type":"bytes32","internalType":"bytes32"}],"stateMutability":"payable"},{"type":"function","name":"createOrder","inputs":[{"name":"_marketId","type":"bytes32","internalType":"bytes32"},{"name":"_closeSharesAmount","type":"uint256","internalType":"uint256"},{"name":"_openMPHTokenAmount","type":"uint256","internalType":"uint256"},{"name":"_tradeDirection","type":"bool","internalType":"bool"},{"name":"_orderLeverage","type":"uint256","internalType":"uint256"},{"name":"_onlyIfPriceAbove","type":"uint256","internalType":"uint256"},{"name":"_onlyIfPriceBelow","type":"uint256","internalType":"uint256"},{"name":"_goodUntil","type":"uint256","internalType":"uint256"},{"name":"_goodFrom","type":"uint256","internalType":"uint256"}],"outputs":[{"name":"_orderId","type":"bytes32","internalType":"bytes32"}],"stateMutability":"payable"},{"type":"function","name":"createOrderFromToken","inputs":[{"name":"createOrderParams","type":"tuple","internalType":"struct MorpherOracle.CreateOrderStruct","components":[{"name":"_marketId","type":"bytes32","internalType":"bytes32"},{"name":"_closeSharesAmount","type":"uint256","internalType":"uint256"},{"name":"_openMPHTokenAmount","type":"uint256","internalType":"uint256"},{"name":"_tradeDirection","type":"bool","internalType":"bool"},{"name":"_orderLeverage","type":"uint256","internalType":"uint256"},{"name":"_onlyIfPriceAbove","type":"uint256","internalType":"uint256"},{"name":"_onlyIfPriceBelow","type":"uint256","internalType":"uint256"},{"name":"_goodUntil","type":"uint256","internalType":"uint256"},{"name":"_goodFrom","type":"uint256","internalType":"uint256"}]},{"name":"inputToken","type":"tuple","internalType":"struct MorpherOracle.TokenPermitEIP712Struct","components":[{"name":"tokenAddress","type":"address","internalType":"address"},{"name":"owner","type":"address","internalType":"address"},{"name":"value","type":"uint256","internalType":"uint256"},{"name":"minOutValue","type":"uint256","internalType":"uint256"},{"name":"deadline","type":"uint256","internalType":"uint256"},{"name":"v","type":"uint8","internalType":"uint8"},{"name":"r","type":"bytes32","internalType":"bytes32"},{"name":"s","type":"bytes32","internalType":"bytes32"}]}],"outputs":[],"stateMutability":"nonpayable"},{"type":"function","name":"createOrderFromToken","inputs":[{"name":"createOrderParams","type":"tuple","internalType":"struct MorpherOracle.CreateOrderStruct","components":[{"name":"_marketId","type":"bytes32","internalType":"bytes32"},{"name":"_closeSharesAmount","type":"uint256","internalType":"uint256"},{"name":"_openMPHTokenAmount","type":"uint256","internalType":"uint256"},{"name":"_tradeDirection","type":"bool","internalType":"bool"},{"name":"_orderLeverage","type":"uint256","internalType":"uint256"},{"name":"_onlyIfPriceAbove","type":"uint256","internalType":"uint256"},{"name":"_onlyIfPriceBelow","type":"uint256","internalType":"uint256"},{"name":"_goodUntil","type":"uint256","internalType":"uint256"},{"name":"_goodFrom","type":"uint256","internalType":"uint256"}]},{"name":"inputToken","type":"tuple","internalType":"struct MorpherOracle.TokenPermitEIP712Struct","components":[{"name":"tokenAddress","type":"address","internalType":"address"},{"name":"owner","type":"address","internalType":"address"},{"name":"value","type":"uint256","internalType":"uint256"},{"name":"minOutValue","type":"uint256","internalType":"uint256"},{"name":"deadline","type":"uint256","internalType":"uint256"},{"name":"v","type":"uint8","internalType":"uint8"},{"name":"r","type":"bytes32","internalType":"bytes32"},{"name":"s","type":"bytes32","internalType":"bytes32"}]},{"name":"_addressPositionOwner","type":"address","internalType":"address"},{"name":"deadline","type":"uint256","internalType":"uint256"},{"name":"v","type":"uint8","internalType":"uint8"},{"name":"r","type":"bytes32","internalType":"bytes32"},{"name":"s","type":"bytes32","internalType":"bytes32"}],"outputs":[],"stateMutability":"nonpayable"},{"type":"function","name":"createOrderPermittedBySignature","inputs":[{"name":"createOrderParams","type":"tuple","internalType":"struct MorpherOracle.CreateOrderStruct","components":[{"name":"_marketId","type":"bytes32","internalType":"bytes32"},{"name":"_closeSharesAmount","type":"uint256","internalType":"uint256"},{"name":"_openMPHTokenAmount","type":"uint256","internalType":"uint256"},{"name":"_tradeDirection","type":"bool","internalType":"bool"},{"name":"_orderLeverage","type":"uint256","internalType":"uint256"},{"name":"_onlyIfPriceAbove","type":"uint256","internalType":"uint256"},{"name":"_onlyIfPriceBelow","type":"uint256","internalType":"uint256"},{"name":"_goodUntil","type":"uint256","internalType":"uint256"},{"name":"_goodFrom","type":"uint256","internalType":"uint256"}]},{"name":"_addressPositionOwner","type":"address","internalType":"address"},{"name":"deadline","type":"uint256","internalType":"uint256"},{"name":"v","type":"uint8","internalType":"uint8"},{"name":"r","type":"bytes32","internalType":"bytes32"},{"name":"s","type":"bytes32","internalType":"bytes32"}],"outputs":[{"name":"orderId","type":"bytes32","internalType":"bytes32"}],"stateMutability":"nonpayable"},{"type":"function","name":"delistMarket","inputs":[{"name":"_marketId","type":"bytes32","internalType":"bytes32"},{"name":"_startFromScratch","type":"bool","internalType":"bool"}],"outputs":[],"stateMutability":"nonpayable"},{"type":"function","name":"emitOrderFailed","inputs":[{"name":"_orderId","type":"bytes32","internalType":"bytes32"},{"name":"_address","type":"address","internalType":"address"},{"name":"_marketId","type":"bytes32","internalType":"bytes32"},{"name":"_closeSharesAmount","type":"uint256","internalType":"uint256"},{"name":"_openMPHTokenAmount","type":"uint256","internalType":"uint256"},{"name":"_tradeDirection","type":"bool","internalType":"bool"},{"name":"_orderLeverage","type":"uint256","internalType":"uint256"},{"name":"_onlyIfPriceBelow","type":"uint256","internalType":"uint256"},{"name":"_onlyIfPriceAbove","type":"uint256","internalType":"uint256"},{"name":"_goodFrom","type":"uint256","internalType":"uint256"},{"name":"_goodUntil","type":"uint256","internalType":"uint256"}],"outputs":[],"stateMutability":"nonpayable"},{"type":"function","name":"gasForCallback","inputs":[],"outputs":[{"name":"","type":"uint256","internalType":"uint256"}],"stateMutability":"view"},{"type":"function","name":"getTradeEngineFromOrderId","inputs":[{"name":"orderId","type":"uint256","internalType":"uint256"}],"outputs":[{"name":"","type":"address","internalType":"address"}],"stateMutability":"view"},{"type":"function","name":"goodFrom","inputs":[{"name":"","type":"bytes32","internalType":"bytes32"}],"outputs":[{"name":"","type":"uint256","internalType":"uint256"}],"stateMutability":"view"},{"type":"function","name":"goodUntil","inputs":[{"name":"","type":"bytes32","internalType":"bytes32"}],"outputs":[{"name":"","type":"uint256","internalType":"uint256"}],"stateMutability":"view"},{"type":"function","name":"initialize","inputs":[{"name":"_morpherState","type":"address","internalType":"address"},{"name":"_gasCollectionAddress","type":"address","internalType":"address payable"},{"name":"_gasForCallback","type":"uint256","internalType":"uint256"}],"outputs":[],"stateMutability":"nonpayable"},{"type":"function","name":"initiateCancelOrder","inputs":[{"name":"_orderId","type":"bytes32","internalType":"bytes32"}],"outputs":[],"stateMutability":"nonpayable"},{"type":"function","name":"nonces","inputs":[{"name":"owner","type":"address","internalType":"address"}],"outputs":[{"name":"","type":"uint256","internalType":"uint256"}],"stateMutability":"view"},{"type":"function","name":"orderCancellationRequested","inputs":[{"name":"","type":"bytes32","internalType":"bytes32"}],"outputs":[{"name":"","type":"bool","internalType":"bool"}],"stateMutability":"view"},{"type":"function","name":"overrideGasForCallback","inputs":[{"name":"_gasForCallback","type":"uint256","internalType":"uint256"}],"outputs":[],"stateMutability":"nonpayable"},{"type":"function","name":"pause","inputs":[],"outputs":[],"stateMutability":"nonpayable"},{"type":"function","name":"paused","inputs":[],"outputs":[{"name":"","type":"bool","internalType":"bool"}],"stateMutability":"view"},{"type":"function","name":"poolFee","inputs":[],"outputs":[{"name":"","type":"uint24","internalType":"uint24"}],"stateMutability":"view"},{"type":"function","name":"priceAbove","inputs":[{"name":"","type":"bytes32","internalType":"bytes32"}],"outputs":[{"name":"","type":"uint256","internalType":"uint256"}],"stateMutability":"view"},{"type":"function","name":"priceBelow","inputs":[{"name":"","type":"bytes32","internalType":"bytes32"}],"outputs":[{"name":"","type":"uint256","internalType":"uint256"}],"stateMutability":"view"},{"type":"function","name":"setCallbackCollectionAddress","inputs":[{"name":"_address","type":"address","internalType":"address payable"}],"outputs":[],"stateMutability":"nonpayable"},{"type":"function","name":"setStateAddress","inputs":[{"name":"_address","type":"address","internalType":"address"}],"outputs":[],"stateMutability":"nonpayable"},{"type":"function","name":"setWmaticAddress","inputs":[{"name":"_address","type":"address","internalType":"address"}],"outputs":[],"stateMutability":"nonpayable"},{"type":"function","name":"unpause","inputs":[],"outputs":[],"stateMutability":"nonpayable"},{"type":"function","name":"useWhiteList","inputs":[],"outputs":[{"name":"","type":"bool","internalType":"bool"}],"stateMutability":"view"},{"type":"function","name":"wMaticAddress","inputs":[],"outputs":[{"name":"","type":"address","internalType":"address"}],"stateMutability":"view"},{"type":"function","name":"whiteList","inputs":[{"name":"","type":"address","internalType":"address"}],"outputs":[{"name":"","type":"bool","internalType":"bool"}],"stateMutability":"view"},{"type":"event","name":"AddressBlackListed","inputs":[{"name":"_address","type":"address","indexed":false,"internalType":"address"}],"anonymous":false},{"type":"event","name":"AddressWhiteListed","inputs":[{"name":"_address","type":"address","indexed":false,"internalType":"address"}],"anonymous":false},{"type":"event","name":"AdminLiquidationOrderCreated","inputs":[{"name":"_orderId","type":"bytes32","indexed":true,"internalType":"bytes32"},{"name":"_address","type":"address","indexed":true,"internalType":"address"},{"name":"_marketId","type":"bytes32","indexed":true,"internalType":"bytes32"},{"name":"_closeSharesAmount","type":"uint256","indexed":false,"internalType":"uint256"},{"name":"_openMPHTokenAmount","type":"uint256","indexed":false,"internalType":"uint256"},{"name":"_tradeDirection","type":"bool","indexed":false,"internalType":"bool"},{"name":"_orderLeverage","type":"uint256","indexed":false,"internalType":"uint256"}],"anonymous":false},{"type":"event","name":"AdminOrderCancelled","inputs":[{"name":"_orderId","type":"bytes32","indexed":true,"internalType":"bytes32"},{"name":"_sender","type":"address","indexed":true,"internalType":"address"},{"name":"_oracleAddress","type":"address","indexed":true,"internalType":"address"}],"anonymous":false},{"type":"event","name":"CallBackCollectionAddressChange","inputs":[{"name":"_address","type":"address","indexed":false,"internalType":"address"}],"anonymous":false},{"type":"event","name":"CallbackAddressDisabled","inputs":[{"name":"_address","type":"address","indexed":true,"internalType":"address"}],"anonymous":false},{"type":"event","name":"CallbackAddressEnabled","inputs":[{"name":"_address","type":"address","indexed":true,"internalType":"address"}],"anonymous":false},{"type":"event","name":"DelistMarketComplete","inputs":[{"name":"_marketId","type":"bytes32","indexed":false,"internalType":"bytes32"}],"anonymous":false},{"type":"event","name":"DelistMarketIncomplete","inputs":[{"name":"_marketId","type":"bytes32","indexed":false,"internalType":"bytes32"},{"name":"_processedUntilIndex","type":"uint256","indexed":false,"internalType":"uint256"}],"anonymous":false},{"type":"event","name":"Initialized","inputs":[{"name":"version","type":"uint8","indexed":false,"internalType":"uint8"}],"anonymous":false},{"type":"event","name":"LinkMorpherState","inputs":[{"name":"_address","type":"address","indexed":false,"internalType":"address"}],"anonymous":false},{"type":"event","name":"LinkTradeEngine","inputs":[{"name":"_address","type":"address","indexed":false,"internalType":"address"}],"anonymous":false},{"type":"event","name":"LinkWMatic","inputs":[{"name":"_address","type":"address","indexed":false,"internalType":"address"}],"anonymous":false},{"type":"event","name":"LiquidationOrderCreated","inputs":[{"name":"_orderId","type":"bytes32","indexed":true,"internalType":"bytes32"},{"name":"_sender","type":"address","indexed":false,"internalType":"address"},{"name":"_address","type":"address","indexed":true,"internalType":"address"},{"name":"_marketId","type":"bytes32","indexed":true,"internalType":"bytes32"}],"anonymous":false},{"type":"event","name":"LockedPriceForClosingPositions","inputs":[{"name":"_marketId","type":"bytes32","indexed":false,"internalType":"bytes32"},{"name":"_price","type":"uint256","indexed":false,"internalType":"uint256"}],"anonymous":false},{"type":"event","name":"OraclePaused","inputs":[{"name":"_paused","type":"bool","indexed":false,"internalType":"bool"}],"anonymous":false},{"type":"event","name":"OrderCancellationRequestedEvent","inputs":[{"name":"_orderId","type":"bytes32","indexed":true,"internalType":"bytes32"},{"name":"_sender","type":"address","indexed":true,"internalType":"address"}],"anonymous":false},{"type":"event","name":"OrderCancelled","inputs":[{"name":"_orderId","type":"bytes32","indexed":true,"internalType":"bytes32"},{"name":"_sender","type":"address","indexed":true,"internalType":"address"},{"name":"_oracleAddress","type":"address","indexed":true,"internalType":"address"}],"anonymous":false},{"type":"event","name":"OrderCreated","inputs":[{"name":"_orderId","type":"bytes32","indexed":true,"internalType":"bytes32"},{"name":"_address","type":"address","indexed":true,"internalType":"address"},{"name":"_marketId","type":"bytes32","indexed":true,"internalType":"bytes32"},{"name":"_closeSharesAmount","type":"uint256","indexed":false,"internalType":"uint256"},{"name":"_openMPHTokenAmount","type":"uint256","indexed":false,"internalType":"uint256"},{"name":"_tradeDirection","type":"bool","indexed":false,"internalType":"bool"},{"name":"_orderLeverage","type":"uint256","indexed":false,"internalType":"uint256"},{"name":"_onlyIfPriceBelow","type":"uint256","indexed":false,"internalType":"uint256"},{"name":"_onlyIfPriceAbove","type":"uint256","indexed":false,"internalType":"uint256"},{"name":"_goodFrom","type":"uint256","indexed":false,"internalType":"uint256"},{"name":"_goodUntil","type":"uint256","indexed":false,"internalType":"uint256"}],"anonymous":false},{"type":"event","name":"OrderFailed","inputs":[{"name":"_orderId","type":"bytes32","indexed":true,"internalType":"bytes32"},{"name":"_address","type":"address","indexed":true,"internalType":"address"},{"name":"_marketId","type":"bytes32","indexed":true,"internalType":"bytes32"},{"name":"_closeSharesAmount","type":"uint256","indexed":false,"internalType":"uint256"},{"name":"_openMPHTokenAmount","type":"uint256","indexed":false,"internalType":"uint256"},{"name":"_tradeDirection","type":"bool","indexed":false,"internalType":"bool"},{"name":"_orderLeverage","type":"uint256","indexed":false,"internalType":"uint256"},{"name":"_onlyIfPriceBelow","type":"uint256","indexed":false,"internalType":"uint256"},{"name":"_onlyIfPriceAbove","type":"uint256","indexed":false,"internalType":"uint256"},{"name":"_goodFrom","type":"uint256","indexed":false,"internalType":"uint256"},{"name":"_goodUntil","type":"uint256","indexed":false,"internalType":"uint256"}],"anonymous":false},{"type":"event","name":"OrderProcessed","inputs":[{"name":"_orderId","type":"bytes32","indexed":true,"internalType":"bytes32"},{"name":"_price","type":"uint256","indexed":false,"internalType":"uint256"},{"name":"_unadjustedMarketPrice","type":"uint256","indexed":false,"internalType":"uint256"},{"name":"_spread","type":"uint256","indexed":false,"internalType":"uint256"},{"name":"_positionLiquidationTimestamp","type":"uint256","indexed":false,"internalType":"uint256"},{"name":"_timeStamp","type":"uint256","indexed":false,"internalType":"uint256"},{"name":"_newLongShares","type":"uint256","indexed":false,"internalType":"uint256"},{"name":"_newShortShares","type":"uint256","indexed":false,"internalType":"uint256"},{"name":"_newMeanEntry","type":"uint256","indexed":false,"internalType":"uint256"},{"name":"_newMeanSprad","type":"uint256","indexed":false,"internalType":"uint256"},{"name":"_newMeanLeverage","type":"uint256","indexed":false,"internalType":"uint256"},{"name":"_liquidationPrice","type":"uint256","indexed":false,"internalType":"uint256"}],"anonymous":false},{"type":"event","name":"Paused","inputs":[{"name":"account","type":"address","indexed":false,"internalType":"address"}],"anonymous":false},{"type":"event","name":"SetGasForCallback","inputs":[{"name":"_gasForCallback","type":"uint256","indexed":false,"internalType":"uint256"}],"anonymous":false},{"type":"event","name":"SetUseWhiteList","inputs":[{"name":"_useWhiteList","type":"bool","indexed":false,"internalType":"bool"}],"anonymous":false},{"type":"event","name":"Unpaused","inputs":[{"name":"account","type":"address","indexed":false,"internalType":"address"}],"anonymous":false}],"bytecode":{"object":"0x6080604052348015600f57600080fd5b5061513a8061001f6000396000f3fe6080604052600436106102725760003560e01c80637489ec231161014f57806399614d18116100c1578063d82649201161007a578063d82649201461084e578063d99f867414610876578063e087e3ce14610897578063e63ab1e9146108c4578063f45edb5f146108f8578063f51ff2211461091a57600080fd5b806399614d1814610760578063aeb2cc3314610773578063b95e437b146107a0578063c7f4532d146107c0578063caac6c82146107ed578063d204bc6c1461082157600080fd5b80637ecebe00116101135780637ecebe00146106875780638456cb59146106a757806385e75e72146106bc57806388deab73146106dc5780638adbe72f146106fc578063982aaf6b1461072c57600080fd5b80637489ec231461058657806374d94024146105a65780637848d1df146105c65780637dd63e1d146105e65780637e031af21461066757600080fd5b80633a196bab116101e85780635952525a116101ac5780635952525a146104965780635c975abb146104b65780635d2dab0b146104ce57806367aa1e0f146105025780636b0ed36e14610522578063712ac56d1461055257600080fd5b80633a196bab1461040e5780633e37c0dc1461042e5780633f4ba83a1461044e5780634c79fdf91461046357806350a5fdef1461048357600080fd5b80632ac21a481161023a5780632ac21a481461031f5780632d559f6a1461034157806330b589b9146103795780633644e51514610399578063372c12b1146103ae57806338bd3ad1146103ee57600080fd5b8063089fe6aa1461027757806316afdfd3146102a65780631794bb3c146102ca5780631c4c7fd8146102ec578063290893c81461030c575b600080fd5b34801561028357600080fd5b5061028d610bb881565b60405162ffffff90911681526020015b60405180910390f35b3480156102b257600080fd5b506102bc60665481565b60405190815260200161029d565b3480156102d657600080fd5b506102ea6102e536600461478d565b61093a565b005b3480156102f857600080fd5b506102ea6103073660046147ce565b610a88565b6102bc61031a3660046148f6565b610bfa565b34801561032b57600080fd5b506102bc6000805160206150e583398151915281565b34801561034d57600080fd5b50607254610361906001600160a01b031681565b6040516001600160a01b03909116815260200161029d565b34801561038557600080fd5b506102ea6103943660046149aa565b611227565b3480156103a557600080fd5b506102bc6112ef565b3480156103ba57600080fd5b506103de6103c93660046147ce565b60696020526000908152604090205460ff1681565b604051901515815260200161029d565b3480156103fa57600080fd5b506102ea6104093660046149e1565b6112fe565b34801561041a57600080fd5b506102ea6104293660046149fa565b6115e8565b34801561043a57600080fd5b506102ea6104493660046147ce565b611a81565b34801561045a57600080fd5b506102ea611beb565b34801561046f57600080fd5b5061036161047e3660046149e1565b611d24565b6102bc610491366004614a2a565b611d98565b3480156104a257600080fd5b506102ea6104b1366004614a56565b612071565b3480156104c257600080fd5b5060335460ff166103de565b3480156104da57600080fd5b506102bc7f8b73c3c69bb8fe3d512ecc4cf759cc79239f7b179b0ffacaa9a75d522b39400f81565b34801561050e57600080fd5b50606754610361906001600160a01b031681565b34801561052e57600080fd5b506103de61053d3660046149e1565b606e6020526000908152604090205460ff1681565b34801561055e57600080fd5b506102bc7fc89efdaa54c0f20c7adf612882df0950f5a951637e0307cdcb4c672f298b8bc681565b34801561059257600080fd5b506102ea6105a13660046149e1565b612209565b3480156105b257600080fd5b506102ea6105c13660046149e1565b612573565b3480156105d257600080fd5b506102bc6105e1366004614a2a565b6127b4565b3480156105f257600080fd5b50610606610601366004614ad3565b612c95565b60405161029d9190600061010082019050825182526020830151602083015260408301516040830152606083015160608301526080830151608083015260a083015160a083015260c083015160c083015260e083015160e083015292915050565b34801561067357600080fd5b506103de610682366004614b1f565b613020565b34801561069357600080fd5b506102bc6106a23660046147ce565b61315b565b3480156106b357600080fd5b506102ea613179565b3480156106c857600080fd5b506102ea6106d73660046149e1565b6132af565b3480156106e857600080fd5b506102ea6106f73660046147ce565b613400565b34801561070857600080fd5b506103de6107173660046147ce565b60686020526000908152604090205460ff1681565b34801561073857600080fd5b506102bc7f7fd20421357a1c20062b0fca45106216b1f0c9af8635225c603297387ba5269581565b6102bc61076e366004614b41565b61356a565b34801561077f57600080fd5b506102bc61078e3660046149e1565b606b6020526000908152604090205481565b3480156107ac57600080fd5b506102ea6107bb366004614bb0565b6135d2565b3480156107cc57600080fd5b506102bc6107db3660046149e1565b606d6020526000908152604090205481565b3480156107f957600080fd5b506102bc7fca82a94b3c35be4fb8e06faa102ba96b016e9c5dd45f747224333f012bfd5e6a81565b34801561082d57600080fd5b506102bc61083c3660046149e1565b606a6020526000908152604090205481565b34801561085a57600080fd5b5061036173e592427a0aece92de3edee1f18e0157c0586156481565b34801561088257600080fd5b506065546103de90600160a01b900460ff1681565b3480156108a357600080fd5b506102bc6108b23660046149e1565b606c6020526000908152604090205481565b3480156108d057600080fd5b506102bc7f65d7a28e3265b37a6474929f336521b332c1681b933f6cb9f3376673440d862a81565b34801561090457600080fd5b506102bc6000805160206150c583398151915281565b34801561092657600080fd5b506102bc610935366004614c40565b613771565b600054610100900460ff161580801561095a5750600054600160ff909116105b806109745750303b158015610974575060005460ff166001145b6109dc5760405162461bcd60e51b815260206004820152602e60248201527f496e697469616c697a61626c653a20636f6e747261637420697320616c72656160448201526d191e481a5b9a5d1a585b1a5e995960921b60648201526084015b60405180910390fd5b6000805460ff1916600117905580156109ff576000805461ff0019166101001790555b610a0761390c565b610a0f613935565b606580546001600160a01b0319166001600160a01b038616179055610a3383613400565b610a3c82613964565b8015610a82576000805461ff0019169055604051600181527f7f26b83ff96e1f2b6a682f133852f6798a09c465da95921460cefb38474024989060200160405180910390a15b50505050565b60655460408051630140cb6560e51b815290516000805160206150c5833981519152926001600160a01b0316916328196ca09160048083019260209291908290030181865afa158015610adf573d6000803e3d6000fd5b505050506040513d601f19601f82011682018060405250810190610b039190614ca8565b6001600160a01b03166391d1485482610b1a61399f565b6040516001600160e01b031960e085901b16815260048101929092526001600160a01b03166024820152604401602060405180830381865afa158015610b64573d6000803e3d6000fd5b505050506040513d601f19601f82011682018060405250810190610b889190614cc5565b610ba45760405162461bcd60e51b81526004016109d390614ce2565b606580546001600160a01b0319166001600160a01b0384169081179091556040519081527f9ceaf926f42b3faf9a5f7f52388397891ad1608576994e5c3b2d055a09bb225f906020015b60405180910390a15050565b6000610c046139c8565b60665415610c6957606654341015610c2e5760405162461bcd60e51b81526004016109d390614d23565b6067546040516001600160a01b03909116903480156108fc02916000818181858888f19350505050158015610c67573d6000803e3d6000fd5b505b606560009054906101000a90046001600160a01b03166001600160a01b031663d37afa8d6040518163ffffffff1660e01b8152600401602060405180830381865afa158015610cbc573d6000803e3d6000fd5b505050506040513d601f19601f82011682018060405250810190610ce09190614ca8565b6001600160a01b031663ac8f6f7f610cf661399f565b84516020860151604080880151606089015160808a015192516001600160e01b031960e089901b168152610d309695949390600401614d8d565b6020604051808303816000875af1158015610d4f573d6000803e3d6000fd5b505050506040513d601f19601f82011682018060405250810190610d739190614dc2565b6065548351604051634a4cce9760e01b815260048101919091529192506001600160a01b031690634a4cce9790602401602060405180830381865afa158015610dc0573d6000803e3d6000fd5b505050506040513d601f19601f82011682018060405250810190610de49190614cc5565b151560000361113357606560009054906101000a90046001600160a01b03166001600160a01b031663d37afa8d6040518163ffffffff1660e01b8152600401602060405180830381865afa158015610e40573d6000803e3d6000fd5b505050506040513d601f19601f82011682018060405250810190610e649190614ca8565b6001600160a01b03166316f77a5b82606560009054906101000a90046001600160a01b03166001600160a01b031663d37afa8d6040518163ffffffff1660e01b8152600401602060405180830381865afa158015610ec6573d6000803e3d6000fd5b505050506040513d601f19601f82011682018060405250810190610eea9190614ca8565b85516040516351c37dab60e11b81526001600160a01b03929092169163a386fb5691610f1c9160040190815260200190565b602060405180830381865afa158015610f39573d6000803e3d6000fd5b505050506040513d601f19601f82011682018060405250810190610f5d9190614dc2565b600080610f6c426103e8614df1565b6040516001600160e01b031960e088901b1681526004810195909552602485019390935260448401919091526064830152608482015260a401610100604051808303816000875af1158015610fc5573d6000803e3d6000fd5b505050506040513d601f19601f82011682018060405250810190610fe99190614e08565b50807ff45eeb03060db0baf36cec20acde5e8464f49340c9877c55029d6ffe0e5cdac1606560009054906101000a90046001600160a01b03166001600160a01b031663d37afa8d6040518163ffffffff1660e01b8152600401602060405180830381865afa15801561105f573d6000803e3d6000fd5b505050506040513d601f19601f820116820180604052508101906110839190614ca8565b84516040516351c37dab60e11b81526001600160a01b03929092169163a386fb56916110b59160040190815260200190565b602060405180830381865afa1580156110d2573d6000803e3d6000fd5b505050506040513d601f19601f820116820180604052508101906110f69190614dc2565b60008080611106426103e8614df1565b6000806000806000806040516111269b9a99989796959493929190614e7c565b60405180910390a2919050565b60a08201516000828152606b602090815260408083209390935560c0850151606a825283832055610100850151606c82528383205560e0850151606d90915291902055815161118061399f565b6001600160a01b0316827fc7392b9822094f2dca86d2a7a97945e80918a8aee61c04de90253f3683b5695085602001518660400151876060015188608001518960c001518a60a001518b61010001518c60e00151604051611219989796959493929190978852602088019690965293151560408701526060860192909252608085015260a084015260c083015260e08201526101000190565b60405180910390a45b919050565b60408201511561124d5761123f818360400151613a0e565b61124882610bfa565b505050565b600061125883610bfa565b600090815260716020908152604091829020845181546001600160a01b03199081166001600160a01b0392831617835592860151600183018054909416911617909155908301516002820155606083015160038201556080830151600482015560a083015160058201805460ff191660ff90921691909117905560c0830151600682015560e0909201516007909201919091555050565b60006112f9614101565b905090565b60655460408051630140cb6560e51b815290516000805160206150e5833981519152926001600160a01b0316916328196ca09160048083019260209291908290030181865afa158015611355573d6000803e3d6000fd5b505050506040513d601f19601f820116820180604052508101906113799190614ca8565b6001600160a01b03166391d148548261139061399f565b6040516001600160e01b031960e085901b16815260048101929092526001600160a01b03166024820152604401602060405180830381865afa1580156113da573d6000803e3d6000fd5b505050506040513d601f19601f820116820180604052508101906113fe9190614cc5565b61141a5760405162461bcd60e51b81526004016109d390614ce2565b6065546040805163d37afa8d60e01b815290516000926001600160a01b03169163d37afa8d9160048083019260209291908290030181865afa158015611464573d6000803e3d6000fd5b505050506040513d601f19601f820116820180604052508101906114889190614ca8565b604051632bbc239560e11b8152600481018590529091506000906001600160a01b03831690635778472a9060240160e060405180830381865afa1580156114d3573d6000803e3d6000fd5b505050506040513d601f19601f820116820180604052508101906114f79190614eca565b5050604051636b0d76bd60e11b8152600481018a90526001600160a01b0380871660248301529596509487169463d61aed7a94506044019250611538915050565b600060405180830381600087803b15801561155257600080fd5b505af1158015611566573d6000803e3d6000fd5b5050506000858152606b60209081526040808320839055606a8252808320839055606c8252808320839055606d909152812055506115a261399f565b6001600160a01b0316816001600160a01b0316857fbda7bebff2a349d53ff61a2f625aba38b63add7de03f20f568c660aaf3c61f5160405160405180910390a450505050565b60655460408051630140cb6560e51b815290516000805160206150c5833981519152926001600160a01b0316916328196ca09160048083019260209291908290030181865afa15801561163f573d6000803e3d6000fd5b505050506040513d601f19601f820116820180604052508101906116639190614ca8565b6001600160a01b03166391d148548261167a61399f565b6040516001600160e01b031960e085901b16815260048101929092526001600160a01b03166024820152604401602060405180830381865afa1580156116c4573d6000803e3d6000fd5b505050506040513d601f19601f820116820180604052508101906116e89190614cc5565b6117045760405162461bcd60e51b81526004016109d390614ce2565b606554604051634a4cce9760e01b8152600481018590526001600160a01b0390911690634a4cce9790602401602060405180830381865afa15801561174d573d6000803e3d6000fd5b505050506040513d601f19601f820116820180604052508101906117719190614cc5565b15156001146117e85760405162461bcd60e51b815260206004820152603760248201527f4d61726b6574206d7573742062652061637469766520746f2070726f6365737360448201527f20706f736974696f6e206c69717569646174696f6e732e00000000000000000060648201526084016109d3565b81156117f45760006073555b6065546040805163d37afa8d60e01b815290516000926001600160a01b03169163d37afa8d9160048083019260209291908290030181865afa15801561183e573d6000803e3d6000fd5b505050506040513d601f19601f820116820180604052508101906118629190614ca8565b6001600160a01b031663ef92f831856040518263ffffffff1660e01b815260040161188f91815260200190565b602060405180830381865afa1580156118ac573d6000803e3d6000fd5b505050506040513d601f19601f820116820180604052508101906118d09190614dc2565b6073549091506000905b828111611a46576203d0905a1080156118f35750828114155b1561193e57607381905560408051878152602081018590527f6f7e2b4e250b68477086154afade591035c41aae27a60e044260f031e0f6a1ff910160405180910390a1505050505050565b606560009054906101000a90046001600160a01b03166001600160a01b031663d37afa8d6040518163ffffffff1660e01b8152600401602060405180830381865afa158015611991573d6000803e3d6000fd5b505050506040513d601f19601f820116820180604052508101906119b59190614ca8565b604051632d7b42c160e01b815260048101889052602481018390526001600160a01b039190911690632d7b42c190604401602060405180830381865afa158015611a03573d6000803e3d6000fd5b505050506040513d601f19601f82011682018060405250810190611a279190614ca8565b9150611a3382876127b4565b5080611a3e81614f27565b9150506118da565b506040518581527f89d629fd4446c04fb00ba5e14060971d7cc08049bb55786f1bb8d4294a5bb95c9060200160405180910390a15050505050565b60655460408051630140cb6560e51b815290516000805160206150c5833981519152926001600160a01b0316916328196ca09160048083019260209291908290030181865afa158015611ad8573d6000803e3d6000fd5b505050506040513d601f19601f82011682018060405250810190611afc9190614ca8565b6001600160a01b03166391d1485482611b1361399f565b6040516001600160e01b031960e085901b16815260048101929092526001600160a01b03166024820152604401602060405180830381865afa158015611b5d573d6000803e3d6000fd5b505050506040513d601f19601f82011682018060405250810190611b819190614cc5565b611b9d5760405162461bcd60e51b81526004016109d390614ce2565b607280546001600160a01b0319166001600160a01b0384169081179091556040519081527f0fa5c194558467cdb25d2dd69df7bbbf1bda4cd38903214b0291829f0d6c94eb90602001610bee565b60655460408051630140cb6560e51b815290517f65d7a28e3265b37a6474929f336521b332c1681b933f6cb9f3376673440d862a926001600160a01b0316916328196ca09160048083019260209291908290030181865afa158015611c54573d6000803e3d6000fd5b505050506040513d601f19601f82011682018060405250810190611c789190614ca8565b6001600160a01b03166391d1485482611c8f61399f565b6040516001600160e01b031960e085901b16815260048101929092526001600160a01b03166024820152604401602060405180830381865afa158015611cd9573d6000803e3d6000fd5b505050506040513d601f19601f82011682018060405250810190611cfd9190614cc5565b611d195760405162461bcd60e51b81526004016109d390614ce2565b611d216141a4565b50565b6065546040805163d37afa8d60e01b815290516000926001600160a01b03169163d37afa8d9160048083019260209291908290030181865afa158015611d6e573d6000803e3d6000fd5b505050506040513d601f19601f82011682018060405250810190611d929190614ca8565b92915050565b6000611da26139c8565b60655460408051630140cb6560e51b815290516000805160206150e5833981519152926001600160a01b0316916328196ca09160048083019260209291908290030181865afa158015611df9573d6000803e3d6000fd5b505050506040513d601f19601f82011682018060405250810190611e1d9190614ca8565b6001600160a01b03166391d1485482611e3461399f565b6040516001600160e01b031960e085901b16815260048101929092526001600160a01b03166024820152604401602060405180830381865afa158015611e7e573d6000803e3d6000fd5b505050506040513d601f19601f82011682018060405250810190611ea29190614cc5565b611ebe5760405162461bcd60e51b81526004016109d390614ce2565b60665415611f2357606654341015611ee85760405162461bcd60e51b81526004016109d390614d23565b6067546040516001600160a01b03909116903480156108fc02916000818181858888f19350505050158015611f21573d6000803e3d6000fd5b505b606560009054906101000a90046001600160a01b03166001600160a01b031663d37afa8d6040518163ffffffff1660e01b8152600401602060405180830381865afa158015611f76573d6000803e3d6000fd5b505050506040513d601f19601f82011682018060405250810190611f9a9190614ca8565b6001600160a01b031663ac8f6f7f858560008060016305f5e1006040518763ffffffff1660e01b8152600401611fd596959493929190614d8d565b6020604051808303816000875af1158015611ff4573d6000803e3d6000fd5b505050506040513d601f19601f820116820180604052508101906120189190614dc2565b915082846001600160a01b0316837f1e73a21af9c77a375ee7275ea920afd5c4b6170bc8e21c0cfeeae8139a3cea0961204f61399f565b6040516001600160a01b03909116815260200160405180910390a45092915050565b834211156120c15760405162461bcd60e51b815260206004820152601f60248201527f4d6f72706865724f7261636c653a206578706972656420646561646c696e650060448201526064016109d3565b60007f7fd20421357a1c20062b0fca45106216b1f0c9af8635225c603297387ba52695886000015189602001518a604001518961211b8b6001600160a01b03166000908152606f6020526040902080546001810190915590565b8a6040516020016121329796959493929190614f40565b6040516020818303038152906040528051906020012090506000612155826141fc565b9050600061216582878787614229565b9050876001600160a01b0316816001600160a01b0316146121c85760405162461bcd60e51b815260206004820181905260248201527f4d6f72706865724f7261636c653a20696e76616c6964207369676e617475726560448201526064016109d3565b607080546001600160a01b0319166001600160a01b038a161790556121ed8a8a611227565b5050607080546001600160a01b03191690555050505050505050565b60655460408051630140cb6560e51b815290516000805160206150e5833981519152926001600160a01b0316916328196ca09160048083019260209291908290030181865afa158015612260573d6000803e3d6000fd5b505050506040513d601f19601f820116820180604052508101906122849190614ca8565b6001600160a01b03166391d148548261229b61399f565b6040516001600160e01b031960e085901b16815260048101929092526001600160a01b03166024820152604401602060405180830381865afa1580156122e5573d6000803e3d6000fd5b505050506040513d601f19601f820116820180604052508101906123099190614cc5565b6123255760405162461bcd60e51b81526004016109d390614ce2565b6000828152606e602052604090205460ff1615156001146123a55760405162461bcd60e51b815260206004820152603460248201527f4d6f72706865724f7261636c653a204f726465722d43616e63656c6c6174696f60448201527337103bb0b9903737ba103932b8bab2b9ba32b21760611b60648201526084016109d3565b6065546040805163d37afa8d60e01b815290516000926001600160a01b03169163d37afa8d9160048083019260209291908290030181865afa1580156123ef573d6000803e3d6000fd5b505050506040513d601f19601f820116820180604052508101906124139190614ca8565b604051632bbc239560e11b8152600481018590529091506000906001600160a01b03831690635778472a9060240160e060405180830381865afa15801561245e573d6000803e3d6000fd5b505050506040513d601f19601f820116820180604052508101906124829190614eca565b5050604051636b0d76bd60e11b8152600481018a90526001600160a01b0380871660248301529596509487169463d61aed7a945060440192506124c3915050565b600060405180830381600087803b1580156124dd57600080fd5b505af11580156124f1573d6000803e3d6000fd5b5050506000858152606b60209081526040808320839055606a8252808320839055606c8252808320839055606d9091528120555061252d61399f565b6001600160a01b0316816001600160a01b0316857f6bacc01dbe442496068f7d234edd811f1a5f833243e0aec824f86ab861f3c90d60405160405180910390a450505050565b6065546040805163d37afa8d60e01b815290516000926001600160a01b03169163d37afa8d9160048083019260209291908290030181865afa1580156125bd573d6000803e3d6000fd5b505050506040513d601f19601f820116820180604052508101906125e19190614ca8565b6000838152606e602052604090205490915060ff16156126565760405162461bcd60e51b815260206004820152602a60248201527f4d6f72706865724f7261636c653a204f726465722077617320616c72656164796044820152691031b0b731b2b632b21760b11b60648201526084016109d3565b604051632bbc239560e11b8152600481018390526000906001600160a01b03831690635778472a9060240160e060405180830381865afa15801561269e573d6000803e3d6000fd5b505050506040513d601f19601f820116820180604052508101906126c29190614eca565b50505050505090506126d261399f565b6001600160a01b0316816001600160a01b0316146127585760405162461bcd60e51b815260206004820152603f60248201527f4d6f72706865724f7261636c653a204f6e6c792074686520757365722063616e60448201527f207265717565737420616e206f726465722063616e63656c6c6174696f6e2e0060648201526084016109d3565b6000838152606e60205260409020805460ff1916600117905561277961399f565b6001600160a01b0316837f02487731041c5966b7038b3e0d347a232658f9e76e79848ed5fa003ca5f2506360405160405180910390a3505050565b60006000805160206150c5833981519152606560009054906101000a90046001600160a01b03166001600160a01b03166328196ca06040518163ffffffff1660e01b8152600401602060405180830381865afa158015612818573d6000803e3d6000fd5b505050506040513d601f19601f8201168201806040525081019061283c9190614ca8565b6001600160a01b03166391d148548261285361399f565b6040516001600160e01b031960e085901b16815260048101929092526001600160a01b03166024820152604401602060405180830381865afa15801561289d573d6000803e3d6000fd5b505050506040513d601f19601f820116820180604052508101906128c19190614cc5565b6128dd5760405162461bcd60e51b81526004016109d390614ce2565b6065546040805163d37afa8d60e01b815290516000926001600160a01b03169163d37afa8d9160048083019260209291908290030181865afa158015612927573d6000803e3d6000fd5b505050506040513d601f19601f8201168201806040525081019061294b9190614ca8565b6040516307d47a8b60e11b81526001600160a01b038781166004830152602482018790529190911690630fa8f5169060440161010060405180830381865afa15801561299b573d6000803e3d6000fd5b505050506040513d601f19601f820116820180604052508101906129bf9190614e08565b602081015190915015612b2957606560009054906101000a90046001600160a01b03166001600160a01b031663d37afa8d6040518163ffffffff1660e01b8152600401602060405180830381865afa158015612a1f573d6000803e3d6000fd5b505050506040513d601f19601f82011682018060405250810190612a439190614ca8565b6001600160a01b031663ac8f6f7f868684602001516000806305f5e1006040518763ffffffff1660e01b8152600401612a8196959493929190614d8d565b6020604051808303816000875af1158015612aa0573d6000803e3d6000fd5b505050506040513d601f19601f82011682018060405250810190612ac49190614dc2565b6020808301516040805191825260009282018390528101919091526305f5e100606082015290935084906001600160a01b0387169085907f68909f9be64c2fb9036bc6c47d8cff89160ee7f28d4e14082931cfcc8e980d779060800160405180910390a45b604081015115612c8d57606560009054906101000a90046001600160a01b03166001600160a01b031663d37afa8d6040518163ffffffff1660e01b8152600401602060405180830381865afa158015612b86573d6000803e3d6000fd5b505050506040513d601f19601f82011682018060405250810190612baa9190614ca8565b6001600160a01b031663ac8f6f7f86868460400151600060016305f5e1006040518763ffffffff1660e01b8152600401612be996959493929190614d8d565b6020604051808303816000875af1158015612c08573d6000803e3d6000fd5b505050506040513d601f19601f82011682018060405250810190612c2c9190614dc2565b6040828101518151908152600060208201526001818301526305f5e1006060820152905191945085916001600160a01b0388169186917f68909f9be64c2fb9036bc6c47d8cff89160ee7f28d4e14082931cfcc8e980d779181900360800190a45b505092915050565b612ce060405180610100016040528060008152602001600081526020016000815260200160008152602001600081526020016000815260200160008152602001600080191681525090565b60655460408051630140cb6560e51b815290516000805160206150e5833981519152926001600160a01b0316916328196ca09160048083019260209291908290030181865afa158015612d37573d6000803e3d6000fd5b505050506040513d601f19601f82011682018060405250810190612d5b9190614ca8565b6001600160a01b03166391d1485482612d7261399f565b6040516001600160e01b031960e085901b16815260048101929092526001600160a01b03166024820152604401602060405180830381865afa158015612dbc573d6000803e3d6000fd5b505050506040513d601f19601f82011682018060405250810190612de09190614cc5565b612dfc5760405162461bcd60e51b81526004016109d390614ce2565b612e046139c8565b612e0e8989613020565b612e745760405162461bcd60e51b815260206004820152603160248201527f4d6f72706865724f7261636c65204572726f723a204f7264657220436f6e64696044820152701d1a5bdb9cc8185c99481b9bdd081b595d607a1b60648201526084016109d3565b606560009054906101000a90046001600160a01b03166001600160a01b031663d37afa8d6040518163ffffffff1660e01b8152600401602060405180830381865afa158015612ec7573d6000803e3d6000fd5b505050506040513d601f19601f82011682018060405250810190612eeb9190614ca8565b6040516316f77a5b60e01b8152600481018b9052602481018a90526044810188905260648101879052608481018690526001600160a01b0391909116906316f77a5b9060a401610100604051808303816000875af1158015612f51573d6000803e3d6000fd5b505050506040513d601f19601f82011682018060405250810190612f759190614e08565b60008a8152606b60209081526040808320839055606a8252808320839055606c8252808320839055606d9091528120559150887ff45eeb03060db0baf36cec20acde5e8464f49340c9877c55029d6ffe0e5cdac18989898989886020015189604001518a606001518b608001518c60a001518d60c001516040516130039b9a99989796959493929190614e7c565b60405180910390a261301483613964565b50979650505050505050565b6000828152606d60205260409020546001904211801561304d57506000838152606d602052604090205415155b15613056575060005b6000838152606c60205260409020544210801561308057506000838152606c602052604090205415155b15613089575060005b6000838152606b6020526040902054158015906130b357506000838152606a602052604090205415155b156130f0576000838152606b6020526040902054821080156130e257506000838152606a602052604090205482115b156130eb575060005b611d92565b6000838152606b60205260409020548210801561311a57506000838152606b602052604090205415155b15613123575060005b6000838152606a60205260409020548211801561314d57506000838152606a602052604090205415155b15611d925750600092915050565b6001600160a01b0381166000908152606f6020526040812054611d92565b60655460408051630140cb6560e51b815290517f65d7a28e3265b37a6474929f336521b332c1681b933f6cb9f3376673440d862a926001600160a01b0316916328196ca09160048083019260209291908290030181865afa1580156131e2573d6000803e3d6000fd5b505050506040513d601f19601f820116820180604052508101906132069190614ca8565b6001600160a01b03166391d148548261321d61399f565b6040516001600160e01b031960e085901b16815260048101929092526001600160a01b03166024820152604401602060405180830381865afa158015613267573d6000803e3d6000fd5b505050506040513d601f19601f8201168201806040525081019061328b9190614cc5565b6132a75760405162461bcd60e51b81526004016109d390614ce2565b611d21614253565b60655460408051630140cb6560e51b815290516000805160206150c5833981519152926001600160a01b0316916328196ca09160048083019260209291908290030181865afa158015613306573d6000803e3d6000fd5b505050506040513d601f19601f8201168201806040525081019061332a9190614ca8565b6001600160a01b03166391d148548261334161399f565b6040516001600160e01b031960e085901b16815260048101929092526001600160a01b03166024820152604401602060405180830381865afa15801561338b573d6000803e3d6000fd5b505050506040513d601f19601f820116820180604052508101906133af9190614cc5565b6133cb5760405162461bcd60e51b81526004016109d390614ce2565b60668290556040518281527f0a20b6289d596db2ac25c70c6c69f5e39361ed00454ab483397db8c744ec0b3190602001610bee565b60655460408051630140cb6560e51b815290516000805160206150c5833981519152926001600160a01b0316916328196ca09160048083019260209291908290030181865afa158015613457573d6000803e3d6000fd5b505050506040513d601f19601f8201168201806040525081019061347b9190614ca8565b6001600160a01b03166391d148548261349261399f565b6040516001600160e01b031960e085901b16815260048101929092526001600160a01b03166024820152604401602060405180830381865afa1580156134dc573d6000803e3d6000fd5b505050506040513d601f19601f820116820180604052508101906135009190614cc5565b61351c5760405162461bcd60e51b81526004016109d390614ce2565b606780546001600160a01b0319166001600160a01b0384169081179091556040519081527f1cd1802fd5b9e82a19a67f7a572c9be656c58ffe140184139d1708b2cfe3a8dc90602001610bee565b60006135746139c8565b60006040518061012001604052808c81526020018b81526020018a815260200189151581526020018881526020018781526020018681526020018581526020018481525090506135c381610bfa565b9b9a5050505050505050505050565b60655460408051630140cb6560e51b815290516000805160206150e5833981519152926001600160a01b0316916328196ca09160048083019260209291908290030181865afa158015613629573d6000803e3d6000fd5b505050506040513d601f19601f8201168201806040525081019061364d9190614ca8565b6001600160a01b03166391d148548261366461399f565b6040516001600160e01b031960e085901b16815260048101929092526001600160a01b03166024820152604401602060405180830381865afa1580156136ae573d6000803e3d6000fd5b505050506040513d601f19601f820116820180604052508101906136d29190614cc5565b6136ee5760405162461bcd60e51b81526004016109d390614ce2565b604080518a8152602081018a905288151581830152606081018890526080810187905260a0810186905260c0810185905260e0810184905290518b916001600160a01b038e16918f917fe27c49d1eafe79b2bc5109b33b96343dba653822906061750c5b6f591b8c753191908190036101000190a4505050505050505050505050565b6000844211156137c35760405162461bcd60e51b815260206004820152601f60248201527f4d6f72706865724f7261636c653a206578706972656420646561646c696e650060448201526064016109d3565b60007f7fd20421357a1c20062b0fca45106216b1f0c9af8635225c603297387ba52695886000015189602001518a604001518a61381d8c6001600160a01b03166000908152606f6020526040902080546001810190915590565b8b6040516020016138349796959493929190614f40565b6040516020818303038152906040528051906020012090506000613857826141fc565b9050600061386782888888614229565b9050886001600160a01b0316816001600160a01b0316146138ca5760405162461bcd60e51b815260206004820181905260248201527f4d6f72706865724f7261636c653a20696e76616c6964207369676e617475726560448201526064016109d3565b607080546001600160a01b0319166001600160a01b038b161790556138ee8a610bfa565b607080546001600160a01b03191690559a9950505050505050505050565b600054610100900460ff166139335760405162461bcd60e51b81526004016109d390614f79565b565b600054610100900460ff1661395c5760405162461bcd60e51b81526004016109d390614f79565b613933614291565b60668190556040518181527f0a20b6289d596db2ac25c70c6c69f5e39361ed00454ab483397db8c744ec0b319060200160405180910390a150565b6070546000906001600160a01b0316156139c357506070546001600160a01b031690565b503390565b60335460ff16156139335760405162461bcd60e51b815260206004820152601060248201526f14185d5cd8589b194e881c185d5cd95960821b60448201526064016109d3565b81516020830151604080850151608086015160a087015160c088015160e0890151945163d505accf60e01b81526001600160a01b0396871660048201523060248201526044810194909452606484019290925260ff16608483015260a482015260c481019190915291169063d505accf9060e401600060405180830381600087803b158015613a9c57600080fd5b505af1158015613ab0573d6000803e3d6000fd5b50505050613acc826000015183602001513085604001516142c4565b8151604080840151905163095ea7b360e01b815273e592427a0aece92de3edee1f18e0157c05861564600482015260248101919091526001600160a01b039091169063095ea7b3906044016020604051808303816000875af1158015613b36573d6000803e3d6000fd5b505050506040513d601f19601f82011682018060405250810190613b5a9190614cc5565b50606560009054906101000a90046001600160a01b03166001600160a01b031663432556ba6040518163ffffffff1660e01b8152600401602060405180830381865afa158015613bae573d6000803e3d6000fd5b505050506040513d601f19601f82011682018060405250810190613bd29190614ca8565b60405163095ea7b360e01b815273e592427a0aece92de3edee1f18e0157c058615646004820152602481018390526001600160a01b03919091169063095ea7b3906044016020604051808303816000875af1158015613c35573d6000803e3d6000fd5b505050506040513d601f19601f82011682018060405250810190613c599190614cc5565b5060725482516060916001600160a01b03918216911614613d4d57606560009054906101000a90046001600160a01b03166001600160a01b031663432556ba6040518163ffffffff1660e01b8152600401602060405180830381865afa158015613cc7573d6000803e3d6000fd5b505050506040513d601f19601f82011682018060405250810190613ceb9190614ca8565b60725484516040516bffffffffffffffffffffffff19606094851b8116602083015261017760eb1b6034830181905293851b81166037830152604b820193909352921b16604e8201526062016040516020818303038152906040529050613e0e565b606560009054906101000a90046001600160a01b03166001600160a01b031663432556ba6040518163ffffffff1660e01b8152600401602060405180830381865afa158015613da0573d6000803e3d6000fd5b505050506040513d601f19601f82011682018060405250810190613dc49190614ca8565b6072546040516bffffffffffffffffffffffff19606093841b8116602083015261017760eb1b60348301529190921b166037820152604b0160405160208183030381529060405290505b600073e592427a0aece92de3edee1f18e0157c05861564905060006040518060a00160405280848152602001613e4261399f565b6001600160a01b03168152602001428152602001858152602001866040015181525090506000826001600160a01b031663f28c0498836040518263ffffffff1660e01b8152600401613e949190615014565b6020604051808303816000875af1158015613eb3573d6000803e3d6000fd5b505050506040513d601f19601f82011682018060405250810190613ed79190614dc2565b905085600001516001600160a01b031663a9059cbb8760200151838960400151613f01919061506c565b6040516001600160e01b031960e085901b1681526001600160a01b03909216600483015260248201526044016020604051808303816000875af1158015613f4c573d6000803e3d6000fd5b505050506040513d601f19601f82011682018060405250810190613f709190614cc5565b50855160405163095ea7b360e01b815273e592427a0aece92de3edee1f18e0157c058615646004820152600060248201526001600160a01b039091169063095ea7b3906044016020604051808303816000875af1158015613fd5573d6000803e3d6000fd5b505050506040513d601f19601f82011682018060405250810190613ff99190614cc5565b50606560009054906101000a90046001600160a01b03166001600160a01b031663432556ba6040518163ffffffff1660e01b8152600401602060405180830381865afa15801561404d573d6000803e3d6000fd5b505050506040513d601f19601f820116820180604052508101906140719190614ca8565b60405163095ea7b360e01b815273e592427a0aece92de3edee1f18e0157c058615646004820152600060248201526001600160a01b03919091169063095ea7b3906044016020604051808303816000875af11580156140d4573d6000803e3d6000fd5b505050506040513d601f19601f820116820180604052508101906140f89190614cc5565b50505050505050565b604080517f8b73c3c69bb8fe3d512ecc4cf759cc79239f7b179b0ffacaa9a75d522b39400f6020808301919091527fca82a94b3c35be4fb8e06faa102ba96b016e9c5dd45f747224333f012bfd5e6a828401527fc89efdaa54c0f20c7adf612882df0950f5a951637e0307cdcb4c672f298b8bc660608301524660808301523060a0808401919091528351808403909101815260c0909201909252805191012090565b6141ac61431e565b6033805460ff191690557f5db9ee0a495bf2e6ff9c91a7834c1ba4fdd244a5e8aa4e537bd38aeae4b073aa6141df61399f565b6040516001600160a01b03909116815260200160405180910390a1565b6000611d92614209614101565b8360405161190160f01b8152600281019290925260228201526042902090565b600080600061423a87878787614367565b915091506142478161442b565b5090505b949350505050565b61425b6139c8565b6033805460ff191660011790557f62e78cea01bee320cd4e420270b5ea74000d11b0c9f74754ebdbfc544b05a2586141df61399f565b600054610100900460ff166142b85760405162461bcd60e51b81526004016109d390614f79565b6033805460ff19169055565b604080516001600160a01b0385811660248301528416604482015260648082018490528251808303909101815260849091019091526020810180516001600160e01b03166323b872dd60e01b179052610a82908590614575565b60335460ff166139335760405162461bcd60e51b815260206004820152601460248201527314185d5cd8589b194e881b9bdd081c185d5cd95960621b60448201526064016109d3565b6000807f7fffffffffffffffffffffffffffffff5d576e7357a4501ddfe92f46681b20a083111561439e5750600090506003614422565b6040805160008082526020820180845289905260ff881692820192909252606081018690526080810185905260019060a0016020604051602081039080840390855afa1580156143f2573d6000803e3d6000fd5b5050604051601f1901519150506001600160a01b03811661441b57600060019250925050614422565b9150600090505b94509492505050565b600081600481111561443f5761443f61507f565b036144475750565b600181600481111561445b5761445b61507f565b036144a85760405162461bcd60e51b815260206004820152601860248201527f45434453413a20696e76616c6964207369676e6174757265000000000000000060448201526064016109d3565b60028160048111156144bc576144bc61507f565b036145095760405162461bcd60e51b815260206004820152601f60248201527f45434453413a20696e76616c6964207369676e6174757265206c656e6774680060448201526064016109d3565b600381600481111561451d5761451d61507f565b03611d215760405162461bcd60e51b815260206004820152602260248201527f45434453413a20696e76616c6964207369676e6174757265202773272076616c604482015261756560f01b60648201526084016109d3565b60006145ca826040518060400160405280602081526020017f5361666545524332303a206c6f772d6c6576656c2063616c6c206661696c6564815250856001600160a01b031661464a9092919063ffffffff16565b90508051600014806145eb5750808060200190518101906145eb9190614cc5565b6112485760405162461bcd60e51b815260206004820152602a60248201527f5361666545524332303a204552433230206f7065726174696f6e20646964206e6044820152691bdd081cdd58d8d9595960b21b60648201526084016109d3565b606061424b848460008585600080866001600160a01b031685876040516146719190615095565b60006040518083038185875af1925050503d80600081146146ae576040519150601f19603f3d011682016040523d82523d6000602084013e6146b3565b606091505b50915091506146c4878383876146cf565b979650505050505050565b6060831561473e578251600003614737576001600160a01b0385163b6147375760405162461bcd60e51b815260206004820152601d60248201527f416464726573733a2063616c6c20746f206e6f6e2d636f6e747261637400000060448201526064016109d3565b508161424b565b61424b83838151156147535781518083602001fd5b8060405162461bcd60e51b81526004016109d391906150b1565b6001600160a01b0381168114611d2157600080fd5b80356112228161476d565b6000806000606084860312156147a257600080fd5b83356147ad8161476d565b925060208401356147bd8161476d565b929592945050506040919091013590565b6000602082840312156147e057600080fd5b81356147eb8161476d565b9392505050565b604051610120810167ffffffffffffffff8111828210171561482457634e487b7160e01b600052604160045260246000fd5b60405290565b604051610100810167ffffffffffffffff8111828210171561482457634e487b7160e01b600052604160045260246000fd5b8015158114611d2157600080fd5b80356112228161485c565b6000610120828403121561488857600080fd5b6148906147f2565b82358152602080840135908201526040808401359082015290506148b66060830161486a565b60608201526080828101359082015260a0808301359082015260c0808301359082015260e080830135908201526101009182013591810191909152919050565b6000610120828403121561490957600080fd5b6147eb8383614875565b803560ff8116811461122257600080fd5b6000610100828403121561493757600080fd5b61493f61482a565b9050813561494c8161476d565b815261495a60208301614782565b602082015260408281013590820152606080830135908201526080808301359082015261498960a08301614913565b60a082015260c0828101359082015260e09182013591810191909152919050565b60008061022083850312156149be57600080fd5b6149c88484614875565b91506149d8846101208501614924565b90509250929050565b6000602082840312156149f357600080fd5b5035919050565b60008060408385031215614a0d57600080fd5b823591506020830135614a1f8161485c565b809150509250929050565b60008060408385031215614a3d57600080fd5b8235614a488161476d565b946020939093013593505050565b60008060008060008060006102c0888a031215614a7257600080fd5b614a7c8989614875565b9650614a8c896101208a01614924565b9550610220880135614a9d8161476d565b94506102408801359350614ab46102608901614913565b9699959850939692959461028084013594506102a09093013592915050565b600080600080600080600060e0888a031215614aee57600080fd5b505085359760208701359750604087013596606081013596506080810135955060a0810135945060c0013592509050565b60008060408385031215614b3257600080fd5b50508035926020909101359150565b60008060008060008060008060006101208a8c031215614b6057600080fd5b8935985060208a0135975060408a0135965060608a0135614b808161485c565b989b979a50959860808101359760a0820135975060c0820135965060e08201359550610100909101359350915050565b60008060008060008060008060008060006101608c8e031215614bd257600080fd5b8b359a5060208c0135614be48161476d565b995060408c0135985060608c0135975060808c0135965060a08c0135614c098161485c565b9a9d999c50979a9699959895975050505060c08401359360e081013593610100820135935061012082013592506101409091013590565b6000806000806000806101c08789031215614c5a57600080fd5b614c648888614875565b9550610120870135614c758161476d565b94506101408701359350614c8c6101608801614913565b95989497509295610180810135946101a0909101359350915050565b600060208284031215614cba57600080fd5b81516147eb8161476d565b600060208284031215614cd757600080fd5b81516147eb8161485c565b60208082526021908201527f4d6f72706865724f7261636c653a205065726d697373696f6e2064656e6965646040820152601760f91b606082015260800190565b60208082526044908201527f4d6f72706865724f7261636c653a204d757374207472616e736665722067617360408201527f20636f73747320666f72204f7261636c652043616c6c6261636b2066756e637460608201526334b7b71760e11b608082015260a00190565b6001600160a01b039690961686526020860194909452604085019290925260608401521515608083015260a082015260c00190565b600060208284031215614dd457600080fd5b5051919050565b634e487b7160e01b600052601160045260246000fd5b8082028115828204841417611d9257611d92614ddb565b6000610100828403128015614e1c57600080fd5b506000614e2761482a565b835181526020808501519082015260408085015190820152606080850151908201526080808501519082015260a0808501519082015260c0808501519082015260e09384015193810193909352509092915050565b9a8b5260208b019990995260408a01979097526060890195909552608088019390935260a087019190915260c086015260e08501526101008401526101208301526101408201526101600190565b600080600080600080600060e0888a031215614ee557600080fd5b8751614ef08161476d565b602089015160408a015160608b015160808c015160a08d015160c0909d0151949e939d50919b909a50909850965090945092505050565b600060018201614f3957614f39614ddb565b5060010190565b9687526020870195909552604086019390935260608501919091526001600160a01b0316608084015260a083015260c082015260e00190565b6020808252602b908201527f496e697469616c697a61626c653a20636f6e7472616374206973206e6f74206960408201526a6e697469616c697a696e6760a81b606082015260800190565b60005b83811015614fdf578181015183820152602001614fc7565b50506000910152565b60008151808452615000816020860160208601614fc4565b601f01601f19169290920160200192915050565b602081526000825160a0602084015261503060c0840182614fe8565b905060018060a01b0360208501511660408401526040840151606084015260608401516080840152608084015160a08401528091505092915050565b81810381811115611d9257611d92614ddb565b634e487b7160e01b600052602160045260246000fd5b600082516150a7818460208701614fc4565b9190910192915050565b6020815260006147eb6020830184614fe856fee5a0b4d50f56047f84728557fedbda92f956391bc9d5c762e8461996dd8e7ad7456e80d7f83ecad5376797c2562c7d48cc4873cf784699120b78efad9ba18ecca26469706673582212206049833a2b771f7f1c211fc6b39a9790b680d1b56fdf4428217d676c3b2d5bce64736f6c634300081a0033","linkReferences":{}},"methodIdentifiers":{"ADMINISTRATOR_ROLE()":"f45edb5f","DOMAIN_SEPARATOR()":"3644e515","ORACLEOPERATOR_ROLE()":"2ac21a48","PAUSER_ROLE()":"e63ab1e9","UNISWAP_ROUTER()":"d8264920","_HASHED_NAME()":"caac6c82","_HASHED_VERSION()":"712ac56d","_PERMIT_TYPEHASH()":"982aaf6b","_TYPE_HASH()":"5d2dab0b","__callback(bytes32,uint256,uint256,uint256,uint256,uint256,uint256)":"7dd63e1d","adminCancelOrder(bytes32)":"38bd3ad1","adminLiquidationOrder(address,bytes32)":"7848d1df","callBackAddress(address)":"8adbe72f","callBackCollectionAddress()":"67aa1e0f","cancelOrder(bytes32)":"7489ec23","checkOrderConditions(bytes32,uint256)":"7e031af2","createLiquidationOrder(address,bytes32)":"50a5fdef","createOrder((bytes32,uint256,uint256,bool,uint256,uint256,uint256,uint256,uint256))":"290893c8","createOrder(bytes32,uint256,uint256,bool,uint256,uint256,uint256,uint256,uint256)":"99614d18","createOrderFromToken((bytes32,uint256,uint256,bool,uint256,uint256,uint256,uint256,uint256),(address,address,uint256,uint256,uint256,uint8,bytes32,bytes32))":"30b589b9","createOrderFromToken((bytes32,uint256,uint256,bool,uint256,uint256,uint256,uint256,uint256),(address,address,uint256,uint256,uint256,uint8,bytes32,bytes32),address,uint256,uint8,bytes32,bytes32)":"5952525a","createOrderPermittedBySignature((bytes32,uint256,uint256,bool,uint256,uint256,uint256,uint256,uint256),address,uint256,uint8,bytes32,bytes32)":"f51ff221","delistMarket(bytes32,bool)":"3a196bab","emitOrderFailed(bytes32,address,bytes32,uint256,uint256,bool,uint256,uint256,uint256,uint256,uint256)":"b95e437b","gasForCallback()":"16afdfd3","getTradeEngineFromOrderId(uint256)":"4c79fdf9","goodFrom(bytes32)":"e087e3ce","goodUntil(bytes32)":"c7f4532d","initialize(address,address,uint256)":"1794bb3c","initiateCancelOrder(bytes32)":"74d94024","nonces(address)":"7ecebe00","orderCancellationRequested(bytes32)":"6b0ed36e","overrideGasForCallback(uint256)":"85e75e72","pause()":"8456cb59","paused()":"5c975abb","poolFee()":"089fe6aa","priceAbove(bytes32)":"aeb2cc33","priceBelow(bytes32)":"d204bc6c","setCallbackCollectionAddress(address)":"88deab73","setStateAddress(address)":"1c4c7fd8","setWmaticAddress(address)":"3e37c0dc","unpause()":"3f4ba83a","useWhiteList()":"d99f8674","wMaticAddress()":"2d559f6a","whiteList(address)":"372c12b1"},"storageLayout":{"storage":[{"astId":57931,"contract":"contracts/MorpherOracle.sol:MorpherOracle","label":"_initialized","offset":0,"slot":"0","type":"t_uint8"},{"astId":57934,"contract":"contracts/MorpherOracle.sol:MorpherOracle","label":"_initializing","offset":1,"slot":"0","type":"t_bool"},{"astId":59790,"contract":"contracts/MorpherOracle.sol:MorpherOracle","label":"__gap","offset":0,"slot":"1","type":"t_array(t_uint256)50_storage"},{"astId":58115,"contract":"contracts/MorpherOracle.sol:MorpherOracle","label":"_paused","offset":0,"slot":"51","type":"t_bool"},{"astId":58220,"contract":"contracts/MorpherOracle.sol:MorpherOracle","label":"__gap","offset":0,"slot":"52","type":"t_array(t_uint256)49_storage"},{"astId":4215,"contract":"contracts/MorpherOracle.sol:MorpherOracle","label":"state","offset":0,"slot":"101","type":"t_contract(MorpherState)8060"},{"astId":4217,"contract":"contracts/MorpherOracle.sol:MorpherOracle","label":"useWhiteList","offset":20,"slot":"101","type":"t_bool"},{"astId":4219,"contract":"contracts/MorpherOracle.sol:MorpherOracle","label":"gasForCallback","offset":0,"slot":"102","type":"t_uint256"},{"astId":4221,"contract":"contracts/MorpherOracle.sol:MorpherOracle","label":"callBackCollectionAddress","offset":0,"slot":"103","type":"t_address_payable"},{"astId":4225,"contract":"contracts/MorpherOracle.sol:MorpherOracle","label":"callBackAddress","offset":0,"slot":"104","type":"t_mapping(t_address,t_bool)"},{"astId":4229,"contract":"contracts/MorpherOracle.sol:MorpherOracle","label":"whiteList","offset":0,"slot":"105","type":"t_mapping(t_address,t_bool)"},{"astId":4233,"contract":"contracts/MorpherOracle.sol:MorpherOracle","label":"priceBelow","offset":0,"slot":"106","type":"t_mapping(t_bytes32,t_uint256)"},{"astId":4237,"contract":"contracts/MorpherOracle.sol:MorpherOracle","label":"priceAbove","offset":0,"slot":"107","type":"t_mapping(t_bytes32,t_uint256)"},{"astId":4241,"contract":"contracts/MorpherOracle.sol:MorpherOracle","label":"goodFrom","offset":0,"slot":"108","type":"t_mapping(t_bytes32,t_uint256)"},{"astId":4245,"contract":"contracts/MorpherOracle.sol:MorpherOracle","label":"goodUntil","offset":0,"slot":"109","type":"t_mapping(t_bytes32,t_uint256)"},{"astId":4249,"contract":"contracts/MorpherOracle.sol:MorpherOracle","label":"orderCancellationRequested","offset":0,"slot":"110","type":"t_mapping(t_bytes32,t_bool)"},{"astId":4289,"contract":"contracts/MorpherOracle.sol:MorpherOracle","label":"_nonces","offset":0,"slot":"111","type":"t_mapping(t_address,t_struct(Counter)59797_storage)"},{"astId":4332,"contract":"contracts/MorpherOracle.sol:MorpherOracle","label":"msgSenderOverride","offset":0,"slot":"112","type":"t_address"},{"astId":4337,"contract":"contracts/MorpherOracle.sol:MorpherOracle","label":"closeOrderIdSwapToToken","offset":0,"slot":"113","type":"t_mapping(t_bytes32,t_struct(TokenPermitEIP712Struct)4330_storage)"},{"astId":4342,"contract":"contracts/MorpherOracle.sol:MorpherOracle","label":"wMaticAddress","offset":0,"slot":"114","type":"t_address"},{"astId":6050,"contract":"contracts/MorpherOracle.sol:MorpherOracle","label":"delistMarketFromIx","offset":0,"slot":"115","type":"t_uint256"}],"types":{"t_address":{"encoding":"inplace","label":"address","numberOfBytes":"20"},"t_address_payable":{"encoding":"inplace","label":"address payable","numberOfBytes":"20"},"t_array(t_uint256)49_storage":{"encoding":"inplace","label":"uint256[49]","numberOfBytes":"1568","base":"t_uint256"},"t_array(t_uint256)50_storage":{"encoding":"inplace","label":"uint256[50]","numberOfBytes":"1600","base":"t_uint256"},"t_bool":{"encoding":"inplace","label":"bool","numberOfBytes":"1"},"t_bytes32":{"encoding":"inplace","label":"bytes32","numberOfBytes":"32"},"t_contract(MorpherState)8060":{"encoding":"inplace","label":"contract MorpherState","numberOfBytes":"20"},"t_mapping(t_address,t_bool)":{"encoding":"mapping","key":"t_address","label":"mapping(address => bool)","numberOfBytes":"32","value":"t_bool"},"t_mapping(t_address,t_struct(Counter)59797_storage)":{"encoding":"mapping","key":"t_address","label":"mapping(address => struct CountersUpgradeable.Counter)","numberOfBytes":"32","value":"t_struct(Counter)59797_storage"},"t_mapping(t_bytes32,t_bool)":{"encoding":"mapping","key":"t_bytes32","label":"mapping(bytes32 => bool)","numberOfBytes":"32","value":"t_bool"},"t_mapping(t_bytes32,t_struct(TokenPermitEIP712Struct)4330_storage)":{"encoding":"mapping","key":"t_bytes32","label":"mapping(bytes32 => struct MorpherOracle.TokenPermitEIP712Struct)","numberOfBytes":"32","value":"t_struct(TokenPermitEIP712Struct)4330_storage"},"t_mapping(t_bytes32,t_uint256)":{"encoding":"mapping","key":"t_bytes32","label":"mapping(bytes32 => uint256)","numberOfBytes":"32","value":"t_uint256"},"t_struct(Counter)59797_storage":{"encoding":"inplace","label":"struct CountersUpgradeable.Counter","numberOfBytes":"32","members":[{"astId":59796,"contract":"contracts/MorpherOracle.sol:MorpherOracle","label":"_value","offset":0,"slot":"0","type":"t_uint256"}]},"t_struct(TokenPermitEIP712Struct)4330_storage":{"encoding":"inplace","label":"struct MorpherOracle.TokenPermitEIP712Struct","numberOfBytes":"256","members":[{"astId":4315,"contract":"contracts/MorpherOracle.sol:MorpherOracle","label":"tokenAddress","offset":0,"slot":"0","type":"t_address"},{"astId":4317,"contract":"contracts/MorpherOracle.sol:MorpherOracle","label":"owner","offset":0,"slot":"1","type":"t_address"},{"astId":4319,"contract":"contracts/MorpherOracle.sol:MorpherOracle","label":"value","offset":0,"slot":"2","type":"t_uint256"},{"astId":4321,"contract":"contracts/MorpherOracle.sol:MorpherOracle","label":"minOutValue","offset":0,"slot":"3","type":"t_uint256"},{"astId":4323,"contract":"contracts/MorpherOracle.sol:MorpherOracle","label":"deadline","offset":0,"slot":"4","type":"t_uint256"},{"astId":4325,"contract":"contracts/MorpherOracle.sol:MorpherOracle","label":"v","offset":0,"slot":"5","type":"t_uint8"},{"astId":4327,"contract":"contracts/MorpherOracle.sol:MorpherOracle","label":"r","offset":0,"slot":"6","type":"t_bytes32"},{"astId":4329,"contract":"contracts/MorpherOracle.sol:MorpherOracle","label":"s","offset":0,"slot":"7","type":"t_bytes32"}]},"t_uint256":{"encoding":"inplace","label":"uint256","numberOfBytes":"32"},"t_uint8":{"encoding":"inplace","label":"uint8","numberOfBytes":"1"}}},"id":10}