{
  "abi": [
    {
      "inputs": [
        {
          "internalType": "address",
          "name": "_stateAddress",
          "type": "address"
        },
        {
          "internalType": "uint256",
          "name": "_mintingLimitPerUser",
          "type": "uint256"
        },
        {
          "internalType": "uint256",
          "name": "_mintingLimitDaily",
          "type": "uint256"
        },
        {
          "internalType": "uint256",
          "name": "_timeLockingPeriodInSeconds",
          "type": "uint256"
        }
      ],
      "stateMutability": "nonpayable",
      "type": "constructor"
    },
    {
      "anonymous": false,
      "inputs": [],
      "name": "DailyMintedTokensReset",
      "type": "event"
    },
    {
      "anonymous": false,
      "inputs": [
        {
          "indexed": false,
          "internalType": "address",
          "name": "_user",
          "type": "address"
        },
        {
          "indexed": false,
          "internalType": "uint256",
          "name": "_tokenAmount",
          "type": "uint256"
        }
      ],
      "name": "EscrowReleased",
      "type": "event"
    },
    {
      "anonymous": false,
      "inputs": [
        {
          "indexed": false,
          "internalType": "address",
          "name": "_user",
          "type": "address"
        },
        {
          "indexed": false,
          "internalType": "uint256",
          "name": "_tokenAmount",
          "type": "uint256"
        }
      ],
      "name": "MintingDenied",
      "type": "event"
    },
    {
      "anonymous": false,
      "inputs": [
        {
          "indexed": false,
          "internalType": "address",
          "name": "_user",
          "type": "address"
        },
        {
          "indexed": false,
          "internalType": "uint256",
          "name": "_tokenAmount",
          "type": "uint256"
        }
      ],
      "name": "MintingEscrowed",
      "type": "event"
    },
    {
      "anonymous": false,
      "inputs": [
        {
          "indexed": false,
          "internalType": "uint256",
          "name": "_mintingLimitOld",
          "type": "uint256"
        },
        {
          "indexed": false,
          "internalType": "uint256",
          "name": "_mintingLimitNew",
          "type": "uint256"
        }
      ],
      "name": "MintingLimitUpdatedDaily",
      "type": "event"
    },
    {
      "anonymous": false,
      "inputs": [
        {
          "indexed": false,
          "internalType": "uint256",
          "name": "_mintingLimitOld",
          "type": "uint256"
        },
        {
          "indexed": false,
          "internalType": "uint256",
          "name": "_mintingLimitNew",
          "type": "uint256"
        }
      ],
      "name": "MintingLimitUpdatedPerUser",
      "type": "event"
    },
    {
      "anonymous": false,
      "inputs": [
        {
          "indexed": false,
          "internalType": "uint256",
          "name": "_timeLockPeriodOld",
          "type": "uint256"
        },
        {
          "indexed": false,
          "internalType": "uint256",
          "name": "_timeLockPeriodNew",
          "type": "uint256"
        }
      ],
      "name": "TimeLockPeriodUpdated",
      "type": "event"
    },
    {
      "anonymous": false,
      "inputs": [
        {
          "indexed": false,
          "internalType": "address",
          "name": "_tradeEngineAddress",
          "type": "address"
        }
      ],
      "name": "TradeEngineAddressSet",
      "type": "event"
    },
    {
      "inputs": [],
      "name": "ADMINISTRATOR_ROLE",
      "outputs": [
        {
          "internalType": "bytes32",
          "name": "",
          "type": "bytes32"
        }
      ],
      "stateMutability": "view",
      "type": "function"
    },
    {
      "inputs": [
        {
          "internalType": "address",
          "name": "_user",
          "type": "address"
        },
        {
          "internalType": "uint256",
          "name": "_tokenAmount",
          "type": "uint256"
        }
      ],
      "name": "adminApprovedMint",
      "outputs": [],
      "stateMutability": "nonpayable",
      "type": "function"
    },
    {
      "inputs": [
        {
          "internalType": "address",
          "name": "_user",
          "type": "address"
        },
        {
          "internalType": "uint256",
          "name": "_tokenAmount",
          "type": "uint256"
        }
      ],
      "name": "adminDisapproveMint",
      "outputs": [],
      "stateMutability": "nonpayable",
      "type": "function"
    },
    {
      "inputs": [
        {
          "internalType": "uint256",
          "name": "",
          "type": "uint256"
        }
      ],
      "name": "dailyMintedTokens",
      "outputs": [
        {
          "internalType": "uint256",
          "name": "",
          "type": "uint256"
        }
      ],
      "stateMutability": "view",
      "type": "function"
    },
    {
      "inputs": [
        {
          "internalType": "address",
          "name": "_user",
          "type": "address"
        }
      ],
      "name": "delayedMint",
      "outputs": [],
      "stateMutability": "nonpayable",
      "type": "function"
    },
    {
      "inputs": [
        {
          "internalType": "address",
          "name": "",
          "type": "address"
        }
      ],
      "name": "escrowedTokens",
      "outputs": [
        {
          "internalType": "uint256",
          "name": "",
          "type": "uint256"
        }
      ],
      "stateMutability": "view",
      "type": "function"
    },
    {
      "inputs": [],
      "name": "getDailyMintedTokens",
      "outputs": [
        {
          "internalType": "uint256",
          "name": "",
          "type": "uint256"
        }
      ],
      "stateMutability": "view",
      "type": "function"
    },
    {
      "inputs": [
        {
          "internalType": "address",
          "name": "",
          "type": "address"
        }
      ],
      "name": "lockedUntil",
      "outputs": [
        {
          "internalType": "uint256",
          "name": "",
          "type": "uint256"
        }
      ],
      "stateMutability": "view",
      "type": "function"
    },
    {
      "inputs": [
        {
          "internalType": "address",
          "name": "_user",
          "type": "address"
        },
        {
          "internalType": "uint256",
          "name": "_tokenAmount",
          "type": "uint256"
        }
      ],
      "name": "mint",
      "outputs": [],
      "stateMutability": "nonpayable",
      "type": "function"
    },
    {
      "inputs": [],
      "name": "mintingLimitDaily",
      "outputs": [
        {
          "internalType": "uint256",
          "name": "",
          "type": "uint256"
        }
      ],
      "stateMutability": "view",
      "type": "function"
    },
    {
      "inputs": [],
      "name": "mintingLimitPerUser",
      "outputs": [
        {
          "internalType": "uint256",
          "name": "",
          "type": "uint256"
        }
      ],
      "stateMutability": "view",
      "type": "function"
    },
    {
      "inputs": [],
      "name": "resetDailyMintedTokens",
      "outputs": [],
      "stateMutability": "nonpayable",
      "type": "function"
    },
    {
      "inputs": [
        {
          "internalType": "uint256",
          "name": "_newMintingLimit",
          "type": "uint256"
        }
      ],
      "name": "setMintingLimitDaily",
      "outputs": [],
      "stateMutability": "nonpayable",
      "type": "function"
    },
    {
      "inputs": [
        {
          "internalType": "uint256",
          "name": "_newMintingLimit",
          "type": "uint256"
        }
      ],
      "name": "setMintingLimitPerUser",
      "outputs": [],
      "stateMutability": "nonpayable",
      "type": "function"
    },
    {
      "inputs": [
        {
          "internalType": "uint256",
          "name": "_newTimeLockingPeriodInSeconds",
          "type": "uint256"
        }
      ],
      "name": "setTimeLockingPeriod",
      "outputs": [],
      "stateMutability": "nonpayable",
      "type": "function"
    },
    {
      "inputs": [
        {
          "internalType": "address",
          "name": "_tradeEngineAddress",
          "type": "address"
        }
      ],
      "name": "setTradeEngineAddress",
      "outputs": [],
      "stateMutability": "nonpayable",
      "type": "function"
    },
    {
      "inputs": [],
      "name": "timeLockingPeriod",
      "outputs": [
        {
          "internalType": "uint256",
          "name": "",
          "type": "uint256"
        }
      ],
      "stateMutability": "view",
      "type": "function"
    }
  ],
  "bytecode": {
    "object": "0x608060405234801561001057600080fd5b506040516113c83803806113c883398101604081905261002f91610061565b600780546001600160a01b0319166001600160a01b0395909516949094179093556000919091556001556002556100ac565b6000806000806080858703121561007757600080fd5b84516001600160a01b038116811461008e57600080fd5b60208601516040870151606090970151919890975090945092505050565b61130d806100bb6000396000f3fe608060405234801561001057600080fd5b506004361061010b5760003560e01c80636c399cf8116100a2578063cbc18dd811610071578063cbc18dd814610206578063ce8eef9814610219578063d329e9211461022c578063f45edb5f14610234578063fb8241d11461024957600080fd5b80636c399cf8146101aa5780638028e879146101ca57806394737e41146101d35780639bc289f1146101e657600080fd5b80633feb0eaf116100de5780633feb0eaf1461017357806340c10f191461017c57806344efa4ae1461018f578063624be63c1461019757600080fd5b80630536c7df146101105780630bf78a7c1461012557806310cdccc0146101575780632b02d18914610160575b600080fd5b61012361011e366004611132565b61025c565b005b610145610133366004611132565b60056020526000908152604090205481565b60405190815260200160405180910390f35b61014560005481565b61012361016e366004611163565b6103b7565b61014560025481565b61012361018a366004611163565b610616565b61012361092d565b6101236101a5366004611132565b610a90565b6101456101b836600461118f565b60036020526000908152604090205481565b61014560015481565b6101236101e136600461118f565b610be2565b6101456101f436600461118f565b60046020526000908152604090205481565b610123610214366004611132565b610cc3565b610123610227366004611163565b610e15565b610145610f9d565b6101456000805160206112b883398151915281565b61012361025736600461118f565b610fc3565b600760009054906101000a90046001600160a01b03166001600160a01b03166328196ca06040518163ffffffff1660e01b8152600401602060405180830381865afa1580156102af573d6000803e3d6000fd5b505050506040513d601f19601f820116820180604052508101906102d391906111b3565b604051632474521560e21b81526000805160206112b883398151915260048201523360248201526001600160a01b0391909116906391d1485490604401602060405180830381865afa15801561032d573d6000803e3d6000fd5b505050506040513d601f19601f8201168201806040525081019061035191906111d0565b6103765760405162461bcd60e51b815260040161036d906111f2565b60405180910390fd5b60025460408051918252602082018390527f1fa8f052fedc11995fae60a7578ad2799decb2acff0cdd7f0f7f29653df25af7910160405180910390a1600255565b600760009054906101000a90046001600160a01b03166001600160a01b03166328196ca06040518163ffffffff1660e01b8152600401602060405180830381865afa15801561040a573d6000803e3d6000fd5b505050506040513d601f19601f8201168201806040525081019061042e91906111b3565b604051632474521560e21b81526000805160206112b883398151915260048201523360248201526001600160a01b0391909116906391d1485490604401602060405180830381865afa158015610488573d6000803e3d6000fd5b505050506040513d601f19601f820116820180604052508101906104ac91906111d0565b6104c85760405162461bcd60e51b815260040161036d906111f2565b6001600160a01b0382166000908152600360205260409020546104ec908290611266565b6001600160a01b03808416600090815260036020908152604091829020939093556007548151632192ab5d60e11b8152915192169263432556ba926004808401938290030181865afa158015610546573d6000803e3d6000fd5b505050506040513d601f19601f8201168201806040525081019061056a91906111b3565b6040516340c10f1960e01b81526001600160a01b0384811660048301526024820184905291909116906340c10f1990604401600060405180830381600087803b1580156105b657600080fd5b505af11580156105ca573d6000803e3d6000fd5b5050604080516001600160a01b0386168152602081018590527fe327b247066bdf32cf2493778e3fce4339b69c1e379a3b0dc780779bf67fe15593500190505b60405180910390a15050565b600760009054906101000a90046001600160a01b03166001600160a01b031663d37afa8d6040518163ffffffff1660e01b8152600401602060405180830381865afa158015610669573d6000803e3d6000fd5b505050506040513d601f19601f8201168201806040525081019061068d91906111b3565b6001600160a01b0316336001600160a01b0316146107255760405162461bcd60e51b815260206004820152604960248201527f4d6f72706865724d696e74696e674c696d697465723a204f6e6c79205472616460448201527f6520456e67696e6520697320616c6c6f77656420746f2063616c6c207468697360648201526810333ab731ba34b7b760b91b608482015260a40161036d565b6000610734620151804261127d565b905060015460001480610762575060015460008281526005602052604090205461075f90849061129f565b11155b801561077a5750600054158061077a57506000548211155b1561088857600760009054906101000a90046001600160a01b03166001600160a01b031663432556ba6040518163ffffffff1660e01b8152600401602060405180830381865afa1580156107d2573d6000803e3d6000fd5b505050506040513d601f19601f820116820180604052508101906107f691906111b3565b6040516340c10f1960e01b81526001600160a01b0385811660048301526024820185905291909116906340c10f1990604401600060405180830381600087803b15801561084257600080fd5b505af1158015610856573d6000803e3d6000fd5b5050506000828152600560205260409020546108749150839061129f565b600082815260056020526040902055505050565b6001600160a01b0383166000908152600360205260409020546108ac90839061129f565b6001600160a01b0384166000908152600360205260409020556002546108d2904261129f565b6001600160a01b0384166000818152600460209081526040918290209390935580519182529181018490527fa1e55e2c2b37828c5a2418e2ca0fee69cedb9199a22f6fb4943766ac0a8264d4910160405180910390a1505050565b600760009054906101000a90046001600160a01b03166001600160a01b03166328196ca06040518163ffffffff1660e01b8152600401602060405180830381865afa158015610980573d6000803e3d6000fd5b505050506040513d601f19601f820116820180604052508101906109a491906111b3565b604051632474521560e21b81526000805160206112b883398151915260048201523360248201526001600160a01b0391909116906391d1485490604401602060405180830381865afa1580156109fe573d6000803e3d6000fd5b505050506040513d601f19601f82011682018060405250810190610a2291906111d0565b610a3e5760405162461bcd60e51b815260040161036d906111f2565b6000600581610a50620151804261127d565b8152602001908152602001600020819055507fb296bcb584266e8161b2f29d7cbe8ac66d9165c1806e73f6d1c4ee874a60fb5060405160405180910390a1565b600760009054906101000a90046001600160a01b03166001600160a01b03166328196ca06040518163ffffffff1660e01b8152600401602060405180830381865afa158015610ae3573d6000803e3d6000fd5b505050506040513d601f19601f82011682018060405250810190610b0791906111b3565b604051632474521560e21b81526000805160206112b883398151915260048201523360248201526001600160a01b0391909116906391d1485490604401602060405180830381865afa158015610b61573d6000803e3d6000fd5b505050506040513d601f19601f82011682018060405250810190610b8591906111d0565b610ba15760405162461bcd60e51b815260040161036d906111f2565b60015460408051918252602082018390527fbcdc3ef7ab7e75d7d30c31647adbf76eda501e4c49e4a1d5d796124c6d12f3e8910160405180910390a1600155565b6001600160a01b038116600090815260046020526040902054421015610c655760405162461bcd60e51b815260206004820152603260248201527f4d6f72706865724d696e74696e674c696d697465723a2046756e647320617265604482015271081cdd1a5b1b081d1a5b59481b1bd8dad95960721b606482015260840161036d565b6001600160a01b03808216600090815260036020908152604080832080549390556007548151632192ab5d60e11b815291519394169263432556ba926004808401939192918290030181865afa158015610546573d6000803e3d6000fd5b600760009054906101000a90046001600160a01b03166001600160a01b03166328196ca06040518163ffffffff1660e01b8152600401602060405180830381865afa158015610d16573d6000803e3d6000fd5b505050506040513d601f19601f82011682018060405250810190610d3a91906111b3565b604051632474521560e21b81526000805160206112b883398151915260048201523360248201526001600160a01b0391909116906391d1485490604401602060405180830381865afa158015610d94573d6000803e3d6000fd5b505050506040513d601f19601f82011682018060405250810190610db891906111d0565b610dd45760405162461bcd60e51b815260040161036d906111f2565b60015460408051918252602082018390527f76205335ef0cf53588499b4595011f891bcf940abfb96a794a02155587556535910160405180910390a1600055565b600760009054906101000a90046001600160a01b03166001600160a01b03166328196ca06040518163ffffffff1660e01b8152600401602060405180830381865afa158015610e68573d6000803e3d6000fd5b505050506040513d601f19601f82011682018060405250810190610e8c91906111b3565b604051632474521560e21b81526000805160206112b883398151915260048201523360248201526001600160a01b0391909116906391d1485490604401602060405180830381865afa158015610ee6573d6000803e3d6000fd5b505050506040513d601f19601f82011682018060405250810190610f0a91906111d0565b610f265760405162461bcd60e51b815260040161036d906111f2565b6001600160a01b038216600090815260036020526040902054610f4a908290611266565b6001600160a01b0383166000818152600360209081526040918290209390935580519182529181018390527fb288f77e64ae7b7dd519b90668e90b1336fa44036bd4da5188e13caf8547259d910161060a565b6000600581610faf620151804261127d565b815260200190815260200160002054905090565b600760009054906101000a90046001600160a01b03166001600160a01b03166328196ca06040518163ffffffff1660e01b8152600401602060405180830381865afa158015611016573d6000803e3d6000fd5b505050506040513d601f19601f8201168201806040525081019061103a91906111b3565b604051632474521560e21b81526000805160206112b883398151915260048201523360248201526001600160a01b0391909116906391d1485490604401602060405180830381865afa158015611094573d6000803e3d6000fd5b505050506040513d601f19601f820116820180604052508101906110b891906111d0565b6110d45760405162461bcd60e51b815260040161036d906111f2565b6040516001600160a01b03821681527f5bc3cc8b83827fca0308e928f1749d39b7e3471012ae9d9c4ad7f07af4ed3c0f9060200160405180910390a1600680546001600160a01b0319166001600160a01b0392909216919091179055565b60006020828403121561114457600080fd5b5035919050565b6001600160a01b038116811461116057600080fd5b50565b6000806040838503121561117657600080fd5b82356111818161114b565b946020939093013593505050565b6000602082840312156111a157600080fd5b81356111ac8161114b565b9392505050565b6000602082840312156111c557600080fd5b81516111ac8161114b565b6000602082840312156111e257600080fd5b815180151581146111ac57600080fd5b602080825260409082018190527f4d6f72706865724d696e74696e674c696d697465723a204f6e6c792041646d69908201527f6e6973747261746f722063616e2063616c6c20746869732066756e6374696f6e606082015260800190565b634e487b7160e01b600052601160045260246000fd5b60008282101561127857611278611250565b500390565b60008261129a57634e487b7160e01b600052601260045260246000fd5b500490565b600082198211156112b2576112b2611250565b50019056fee5a0b4d50f56047f84728557fedbda92f956391bc9d5c762e8461996dd8e7ad7a264697066735822122087d9a9d05a29a4f4383b2204b8c37926e777c8de2bb42139db8736e27d307d5964736f6c634300080b0033",
    "linkReferences": {}
  },
  "methodIdentifiers": {
    "ADMINISTRATOR_ROLE()": "f45edb5f",
    "adminApprovedMint(address,uint256)": "2b02d189",
    "adminDisapproveMint(address,uint256)": "ce8eef98",
    "dailyMintedTokens(uint256)": "0bf78a7c",
    "delayedMint(address)": "94737e41",
    "escrowedTokens(address)": "6c399cf8",
    "getDailyMintedTokens()": "d329e921",
    "lockedUntil(address)": "9bc289f1",
    "mint(address,uint256)": "40c10f19",
    "mintingLimitDaily()": "8028e879",
    "mintingLimitPerUser()": "10cdccc0",
    "resetDailyMintedTokens()": "44efa4ae",
    "setMintingLimitDaily(uint256)": "624be63c",
    "setMintingLimitPerUser(uint256)": "cbc18dd8",
    "setTimeLockingPeriod(uint256)": "0536c7df",
    "setTradeEngineAddress(address)": "fb8241d1",
    "timeLockingPeriod()": "3feb0eaf"
  },
  "id": 10
}