{"abi":[{"type":"function","name":"getProof","inputs":[{"name":"data","type":"bytes32[]","internalType":"bytes32[]"},{"name":"node","type":"uint256","internalType":"uint256"}],"outputs":[{"name":"","type":"bytes32[]","internalType":"bytes32[]"}],"stateMutability":"pure"},{"type":"function","name":"getRoot","inputs":[{"name":"data","type":"bytes32[]","internalType":"bytes32[]"}],"outputs":[{"name":"","type":"bytes32","internalType":"bytes32"}],"stateMutability":"pure"},{"type":"function","name":"hashLeafPairs","inputs":[{"name":"left","type":"bytes32","internalType":"bytes32"},{"name":"right","type":"bytes32","internalType":"bytes32"}],"outputs":[{"name":"_hash","type":"bytes32","internalType":"bytes32"}],"stateMutability":"pure"},{"type":"function","name":"log2ceil_bitmagic","inputs":[{"name":"x","type":"uint256","internalType":"uint256"}],"outputs":[{"name":"","type":"uint256","internalType":"uint256"}],"stateMutability":"pure"},{"type":"function","name":"log2ceil_naive","inputs":[{"name":"x","type":"uint256","internalType":"uint256"}],"outputs":[{"name":"","type":"uint256","internalType":"uint256"}],"stateMutability":"pure"},{"type":"function","name":"verifyProof","inputs":[{"name":"root","type":"bytes32","internalType":"bytes32"},{"name":"proof","type":"bytes32[]","internalType":"bytes32[]"},{"name":"valueToProve","type":"bytes32","internalType":"bytes32"}],"outputs":[{"name":"","type":"bool","internalType":"bool"}],"stateMutability":"pure"}],"bytecode":{"object":"0x608060405234801561001057600080fd5b506108ed806100206000396000f3fe608060405234801561001057600080fd5b50600436106100625760003560e01c806308d7090a146100675780631e0ce39a1461008d5780632e08d602146100a057806358161a42146100b3578063b8616195146100d6578063dd1d2599146100f6575b600080fd5b61007a61007536600461067e565b610109565b6040519081526020015b60405180910390f35b61007a61009b36600461067e565b610134565b61007a6100ae366004610748565b610271565b6100c66100c1366004610785565b610311565b6040519015158152602001610084565b6100e96100e43660046107d5565b61035b565b604051610084919061081a565b61007a61010436600461085e565b6104e2565b6000808219600101831683145b831561012c57600193841c939190910190610116565b900392915050565b60006001821161014657506000919050565b600082600160801b811061016757608093841c936101649083610880565b91505b68010000000000000000841061018a57604093841c936101879083610880565b91505b64010000000084106101a957602093841c936101a69083610880565b91505b6201000084106101c657601093841c936101c39083610880565b91505b61010084106101e257600893841c936101df9083610880565b91505b601084106101fd57600493841c936101fa9083610880565b91505b6004841061021857600293841c936102159083610880565b91505b6002841061022e5761022b600183610880565b91505b60008161023d81196001610880565b169050818114801561024f5750600083115b1561025d5750909392505050565b610268836001610880565b95945050505050565b600060018251116102d55760405162461bcd60e51b815260206004820152602360248201527f776f6e27742067656e657261746520726f6f7420666f722073696e676c65206c60448201526232b0b360e91b60648201526084015b60405180910390fd5b6001825111156102ef576102e882610510565b91506102d5565b81600081518110610302576103026108a1565b60200260200101519050919050565b81516000908290825b8181101561034f5761034583878381518110610338576103386108a1565b60200260200101516104e2565b925060010161031a565b50509093149392505050565b606060018351116103ba5760405162461bcd60e51b8152602060048201526024808201527f776f6e27742067656e65726174652070726f6f6620666f722073696e676c65206044820152633632b0b360e11b60648201526084016102cc565b60006103c68451610109565b67ffffffffffffffff8111156103de576103de610697565b604051908082528060200260200182016040528015610407578160200160208202803683370190505b50905060005b6001855111156104d8578360011660010361046257846001850381518110610437576104376108a1565b6020026020010151828281518110610451576104516108a1565b6020026020010181815250506104bf565b84518460010103610483576000801b828281518110610451576104516108a1565b848460010181518110610498576104986108a1565b60200260200101518282815181106104b2576104b26108a1565b6020026020010181815250505b6001016002840493506104d185610510565b945061040d565b5090505b92915050565b600081831080156104fa578360005282602052610503565b82600052836020525b5050604060002092915050565b606080600083519050806001166001036105bf576002810460010167ffffffffffffffff81111561054357610543610697565b60405190808252806020026020018201604052801561056c578160200160208202803683370190505b509150610598846001830381518110610587576105876108a1565b60200260200101516000801b6104e2565b826001845103815181106105ae576105ae6108a1565b602002602001018181525050610608565b6002810467ffffffffffffffff8111156105db576105db610697565b604051908082528060200260200182016040528015610604578160200160208202803683370190505b5091505b6000805b600183038110156106745761064986828151811061062c5761062c6108a1565b6020026020010151878360010181518110610338576103386108a1565b84838151811061065b5761065b6108a1565b602090810291909101015260019091019060020161060c565b5091949350505050565b60006020828403121561069057600080fd5b5035919050565b634e487b7160e01b600052604160045260246000fd5b600082601f8301126106be57600080fd5b8135602067ffffffffffffffff808311156106db576106db610697565b8260051b604051601f19603f8301168101818110848211171561070057610700610697565b60405293845285810183019383810192508785111561071e57600080fd5b83870191505b8482101561073d57813583529183019190830190610724565b979650505050505050565b60006020828403121561075a57600080fd5b813567ffffffffffffffff81111561077157600080fd5b61077d848285016106ad565b949350505050565b60008060006060848603121561079a57600080fd5b83359250602084013567ffffffffffffffff8111156107b857600080fd5b6107c4868287016106ad565b925050604084013590509250925092565b600080604083850312156107e857600080fd5b823567ffffffffffffffff8111156107ff57600080fd5b61080b858286016106ad565b95602094909401359450505050565b6020808252825182820181905260009190848201906040850190845b8181101561085257835183529284019291840191600101610836565b50909695505050505050565b6000806040838503121561087157600080fd5b50508035926020909101359150565b808201808211156104dc57634e487b7160e01b600052601160045260246000fd5b634e487b7160e01b600052603260045260246000fdfea26469706673582212205f78681d27dfd3808f30d1eefb10ed367be582e1e27e7ee57780423728394f3a64736f6c63430008150033","linkReferences":{}},"methodIdentifiers":{"getProof(bytes32[],uint256)":"b8616195","getRoot(bytes32[])":"2e08d602","hashLeafPairs(bytes32,bytes32)":"dd1d2599","log2ceil_bitmagic(uint256)":"1e0ce39a","log2ceil_naive(uint256)":"08d7090a","verifyProof(bytes32,bytes32[],bytes32)":"58161a42"},"id":35}