{
  "abi": [
    {
      "inputs": [
        {
          "internalType": "bytes32[]",
          "name": "data",
          "type": "bytes32[]"
        },
        {
          "internalType": "uint256",
          "name": "node",
          "type": "uint256"
        }
      ],
      "name": "getProof",
      "outputs": [
        {
          "internalType": "bytes32[]",
          "name": "",
          "type": "bytes32[]"
        }
      ],
      "stateMutability": "pure",
      "type": "function"
    },
    {
      "inputs": [
        {
          "internalType": "bytes32[]",
          "name": "data",
          "type": "bytes32[]"
        }
      ],
      "name": "getRoot",
      "outputs": [
        {
          "internalType": "bytes32",
          "name": "",
          "type": "bytes32"
        }
      ],
      "stateMutability": "pure",
      "type": "function"
    },
    {
      "inputs": [
        {
          "internalType": "bytes32",
          "name": "left",
          "type": "bytes32"
        },
        {
          "internalType": "bytes32",
          "name": "right",
          "type": "bytes32"
        }
      ],
      "name": "hashLeafPairs",
      "outputs": [
        {
          "internalType": "bytes32",
          "name": "_hash",
          "type": "bytes32"
        }
      ],
      "stateMutability": "pure",
      "type": "function"
    },
    {
      "inputs": [
        {
          "internalType": "uint256",
          "name": "x",
          "type": "uint256"
        }
      ],
      "name": "log2ceil_bitmagic",
      "outputs": [
        {
          "internalType": "uint256",
          "name": "",
          "type": "uint256"
        }
      ],
      "stateMutability": "pure",
      "type": "function"
    },
    {
      "inputs": [
        {
          "internalType": "uint256",
          "name": "x",
          "type": "uint256"
        }
      ],
      "name": "log2ceil_naive",
      "outputs": [
        {
          "internalType": "uint256",
          "name": "",
          "type": "uint256"
        }
      ],
      "stateMutability": "pure",
      "type": "function"
    },
    {
      "inputs": [
        {
          "internalType": "bytes32",
          "name": "root",
          "type": "bytes32"
        },
        {
          "internalType": "bytes32[]",
          "name": "proof",
          "type": "bytes32[]"
        },
        {
          "internalType": "bytes32",
          "name": "valueToProve",
          "type": "bytes32"
        }
      ],
      "name": "verifyProof",
      "outputs": [
        {
          "internalType": "bool",
          "name": "",
          "type": "bool"
        }
      ],
      "stateMutability": "pure",
      "type": "function"
    }
  ],
  "bytecode": {
    "object": "0x608060405234801561001057600080fd5b506108f0806100206000396000f3fe608060405234801561001057600080fd5b50600436106100625760003560e01c806308d7090a146100675780631e0ce39a1461008d5780632e08d602146100a057806358161a42146100b3578063b8616195146100d6578063dd1d2599146100f6575b600080fd5b61007a61007536600461067c565b610109565b6040519081526020015b60405180910390f35b61007a61009b36600461067c565b610134565b61007a6100ae366004610746565b610271565b6100c66100c1366004610783565b610311565b6040519015158152602001610084565b6100e96100e43660046107d3565b61035b565b6040516100849190610818565b61007a61010436600461085c565b6104e2565b6000808219600101831683145b831561012c57600193841c939190910190610116565b900392915050565b60006001821161014657506000919050565b600082600160801b811061016757608093841c93610164908361087e565b91505b68010000000000000000841061018a57604093841c93610187908361087e565b91505b64010000000084106101a957602093841c936101a6908361087e565b91505b6201000084106101c657601093841c936101c3908361087e565b91505b61010084106101e257600893841c936101df908361087e565b91505b601084106101fd57600493841c936101fa908361087e565b91505b6004841061021857600293841c93610215908361087e565b91505b6002841061022e5761022b60018361087e565b91505b60008161023d8119600161087e565b169050818114801561024f5750600083115b1561025d5750909392505050565b61026883600161087e565b95945050505050565b600060018251116102d55760405162461bcd60e51b815260206004820152602360248201527f776f6e27742067656e657261746520726f6f7420666f722073696e676c65206c60448201526232b0b360e91b60648201526084015b60405180910390fd5b6001825111156102ef576102e882610510565b91506102d5565b81600081518110610302576103026108a4565b60200260200101519050919050565b81516000908290825b8181101561034f5761034583878381518110610338576103386108a4565b60200260200101516104e2565b925060010161031a565b50509093149392505050565b606060018351116103ba5760405162461bcd60e51b8152602060048201526024808201527f776f6e27742067656e65726174652070726f6f6620666f722073696e676c65206044820152633632b0b360e11b60648201526084016102cc565b60006103c68451610109565b67ffffffffffffffff8111156103de576103de610695565b604051908082528060200260200182016040528015610407578160200160208202803683370190505b50905060005b6001855111156104da57836001166001141561046357846001850381518110610438576104386108a4565b6020026020010151828281518110610452576104526108a4565b6020026020010181815250506104c1565b8451846001011415610485576000801b828281518110610452576104526108a4565b84846001018151811061049a5761049a6108a4565b60200260200101518282815181106104b4576104b46108a4565b6020026020010181815250505b6001016002840493506104d385610510565b945061040d565b509392505050565b600081831080156104fa578360005282602052610503565b82600052836020525b5050604060002092915050565b80516060908190600180821614156105bd576002810460010167ffffffffffffffff81111561054157610541610695565b60405190808252806020026020018201604052801561056a578160200160208202803683370190505b509150610596846001830381518110610585576105856108a4565b60200260200101516000801b6104e2565b826001845103815181106105ac576105ac6108a4565b602002602001018181525050610606565b6002810467ffffffffffffffff8111156105d9576105d9610695565b604051908082528060200260200182016040528015610602578160200160208202803683370190505b5091505b6000805b600183038110156106725761064786828151811061062a5761062a6108a4565b6020026020010151878360010181518110610338576103386108a4565b848381518110610659576106596108a4565b602090810291909101015260019091019060020161060a565b5091949350505050565b60006020828403121561068e57600080fd5b5035919050565b634e487b7160e01b600052604160045260246000fd5b600082601f8301126106bc57600080fd5b8135602067ffffffffffffffff808311156106d9576106d9610695565b8260051b604051601f19603f830116810181811084821117156106fe576106fe610695565b60405293845285810183019383810192508785111561071c57600080fd5b83870191505b8482101561073b57813583529183019190830190610722565b979650505050505050565b60006020828403121561075857600080fd5b813567ffffffffffffffff81111561076f57600080fd5b61077b848285016106ab565b949350505050565b60008060006060848603121561079857600080fd5b83359250602084013567ffffffffffffffff8111156107b657600080fd5b6107c2868287016106ab565b925050604084013590509250925092565b600080604083850312156107e657600080fd5b823567ffffffffffffffff8111156107fd57600080fd5b610809858286016106ab565b95602094909401359450505050565b6020808252825182820181905260009190848201906040850190845b8181101561085057835183529284019291840191600101610834565b50909695505050505050565b6000806040838503121561086f57600080fd5b50508035926020909101359150565b6000821982111561089f57634e487b7160e01b600052601160045260246000fd5b500190565b634e487b7160e01b600052603260045260246000fdfea2646970667358221220a0428ca7fb7444c81e6bca68f4919f3c2e6e7b41f726571ff41d6b6bae21649564736f6c634300080b0033",
    "linkReferences": {}
  },
  "methodIdentifiers": {
    "getProof(bytes32[],uint256)": "b8616195",
    "getRoot(bytes32[])": "2e08d602",
    "hashLeafPairs(bytes32,bytes32)": "dd1d2599",
    "log2ceil_bitmagic(uint256)": "1e0ce39a",
    "log2ceil_naive(uint256)": "08d7090a",
    "verifyProof(bytes32,bytes32[],bytes32)": "58161a42"
  },
  "id": 15
}