{"abi":[{"type":"function","name":"getProof","inputs":[{"name":"data","type":"bytes32[]","internalType":"bytes32[]"},{"name":"node","type":"uint256","internalType":"uint256"}],"outputs":[{"name":"","type":"bytes32[]","internalType":"bytes32[]"}],"stateMutability":"pure"},{"type":"function","name":"getRoot","inputs":[{"name":"data","type":"bytes32[]","internalType":"bytes32[]"}],"outputs":[{"name":"","type":"bytes32","internalType":"bytes32"}],"stateMutability":"pure"},{"type":"function","name":"hashLeafPairs","inputs":[{"name":"left","type":"bytes32","internalType":"bytes32"},{"name":"right","type":"bytes32","internalType":"bytes32"}],"outputs":[{"name":"_hash","type":"bytes32","internalType":"bytes32"}],"stateMutability":"pure"},{"type":"function","name":"log2ceil","inputs":[{"name":"x","type":"uint256","internalType":"uint256"}],"outputs":[{"name":"","type":"uint256","internalType":"uint256"}],"stateMutability":"pure"},{"type":"function","name":"log2ceilBitMagic","inputs":[{"name":"x","type":"uint256","internalType":"uint256"}],"outputs":[{"name":"","type":"uint256","internalType":"uint256"}],"stateMutability":"pure"},{"type":"function","name":"verifyProof","inputs":[{"name":"root","type":"bytes32","internalType":"bytes32"},{"name":"proof","type":"bytes32[]","internalType":"bytes32[]"},{"name":"valueToProve","type":"bytes32","internalType":"bytes32"}],"outputs":[{"name":"","type":"bool","internalType":"bool"}],"stateMutability":"pure"}],"bytecode":{"object":"0x6080604052348015600f57600080fd5b506108f18061001f6000396000f3fe608060405234801561001057600080fd5b50600436106100625760003560e01c80632e08d6021461006757806358161a421461008d578063b8616195146100b0578063cf06c7b7146100d0578063dd1d2599146100e3578063e27d5153146100f6575b600080fd5b61007a610075366004610733565b610109565b6040519081526020015b60405180910390f35b6100a061009b366004610770565b6101a9565b6040519015158152602001610084565b6100c36100be3660046107c1565b6101f3565b6040516100849190610806565b61007a6100de366004610849565b61037a565b61007a6100f1366004610862565b6104b7565b61007a610104366004610849565b6104e5565b6000600182511161016d5760405162461bcd60e51b815260206004820152602360248201527f776f6e27742067656e657261746520726f6f7420666f722073696e676c65206c60448201526232b0b360e91b60648201526084015b60405180910390fd5b6001825111156101875761018082610510565b915061016d565b8160008151811061019a5761019a610884565b60200260200101519050919050565b81516000908290825b818110156101e7576101dd838783815181106101d0576101d0610884565b60200260200101516104b7565b92506001016101b2565b50509093149392505050565b606060018351116102525760405162461bcd60e51b8152602060048201526024808201527f776f6e27742067656e65726174652070726f6f6620666f722073696e676c65206044820152633632b0b360e11b6064820152608401610164565b600061025e845161037a565b67ffffffffffffffff8111156102765761027661067e565b60405190808252806020026020018201604052801561029f578160200160208202803683370190505b50905060005b60018551111561037057836001166001036102fa578460018503815181106102cf576102cf610884565b60200260200101518282815181106102e9576102e9610884565b602002602001018181525050610357565b8451846001010361031b576000801b8282815181106102e9576102e9610884565b84846001018151811061033057610330610884565b602002602001015182828151811061034a5761034a610884565b6020026020010181815250505b60010160028404935061036985610510565b94506102a5565b5090505b92915050565b60006001821161038c57506000919050565b600082600160801b81106103ad57608093841c936103aa908361089a565b91505b6801000000000000000084106103d057604093841c936103cd908361089a565b91505b64010000000084106103ef57602093841c936103ec908361089a565b91505b62010000841061040c57601093841c93610409908361089a565b91505b610100841061042857600893841c93610425908361089a565b91505b6010841061044357600493841c93610440908361089a565b91505b6004841061045e57600293841c9361045b908361089a565b91505b600284106104745761047160018361089a565b91505b6000816104838119600161089a565b16905081811480156104955750600083115b156104a35750909392505050565b6104ae83600161089a565b95945050505050565b600081831080156104cf5783600052826020526104d8565b82600052836020525b5050604060002092915050565b6000808219600101831683145b831561050857600193841c9391909101906104f2565b900392915050565b606080600083519050806001166001036105bf576002810460010167ffffffffffffffff8111156105435761054361067e565b60405190808252806020026020018201604052801561056c578160200160208202803683370190505b50915061059884600183038151811061058757610587610884565b60200260200101516000801b6104b7565b826001845103815181106105ae576105ae610884565b602002602001018181525050610608565b6002810467ffffffffffffffff8111156105db576105db61067e565b604051908082528060200260200182016040528015610604578160200160208202803683370190505b5091505b6000805b600183038110156106745761064986828151811061062c5761062c610884565b60200260200101518783600101815181106101d0576101d0610884565b84838151811061065b5761065b610884565b602090810291909101015260019091019060020161060c565b5091949350505050565b634e487b7160e01b600052604160045260246000fd5b600082601f8301126106a557600080fd5b813567ffffffffffffffff8111156106bf576106bf61067e565b8060051b604051601f19603f830116810181811067ffffffffffffffff821117156106ec576106ec61067e565b60405291825260208185018101929081018684111561070a57600080fd5b6020860192505b83831015610729578235815260209283019201610711565b5095945050505050565b60006020828403121561074557600080fd5b813567ffffffffffffffff81111561075c57600080fd5b61076884828501610694565b949350505050565b60008060006060848603121561078557600080fd5b83359250602084013567ffffffffffffffff8111156107a357600080fd5b6107af86828701610694565b93969395505050506040919091013590565b600080604083850312156107d457600080fd5b823567ffffffffffffffff8111156107eb57600080fd5b6107f785828601610694565b95602094909401359450505050565b602080825282518282018190526000918401906040840190835b8181101561083e578351835260209384019390920191600101610820565b509095945050505050565b60006020828403121561085b57600080fd5b5035919050565b6000806040838503121561087557600080fd5b50508035926020909101359150565b634e487b7160e01b600052603260045260246000fd5b8082018082111561037457634e487b7160e01b600052601160045260246000fdfea264697066735822122050a5168e858aed2e8282fb646db92c3651d6126a28c5d33873958e733ef459e864736f6c634300081a0033","linkReferences":{}},"methodIdentifiers":{"getProof(bytes32[],uint256)":"b8616195","getRoot(bytes32[])":"2e08d602","hashLeafPairs(bytes32,bytes32)":"dd1d2599","log2ceil(uint256)":"e27d5153","log2ceilBitMagic(uint256)":"cf06c7b7","verifyProof(bytes32,bytes32[],bytes32)":"58161a42"},"storageLayout":{"storage":[],"types":{}},"id":53}