{"abi":[{"type":"function","name":"DEFAULT_ADMIN_ROLE","inputs":[],"outputs":[{"name":"","type":"bytes32","internalType":"bytes32"}],"stateMutability":"view"},{"type":"function","name":"getRoleAdmin","inputs":[{"name":"role","type":"bytes32","internalType":"bytes32"}],"outputs":[{"name":"","type":"bytes32","internalType":"bytes32"}],"stateMutability":"view"},{"type":"function","name":"getRoleMember","inputs":[{"name":"role","type":"bytes32","internalType":"bytes32"},{"name":"index","type":"uint256","internalType":"uint256"}],"outputs":[{"name":"","type":"address","internalType":"address"}],"stateMutability":"view"},{"type":"function","name":"getRoleMemberCount","inputs":[{"name":"role","type":"bytes32","internalType":"bytes32"}],"outputs":[{"name":"","type":"uint256","internalType":"uint256"}],"stateMutability":"view"},{"type":"function","name":"grantRole","inputs":[{"name":"role","type":"bytes32","internalType":"bytes32"},{"name":"account","type":"address","internalType":"address"}],"outputs":[],"stateMutability":"nonpayable"},{"type":"function","name":"hasRole","inputs":[{"name":"role","type":"bytes32","internalType":"bytes32"},{"name":"account","type":"address","internalType":"address"}],"outputs":[{"name":"","type":"bool","internalType":"bool"}],"stateMutability":"view"},{"type":"function","name":"initialize","inputs":[],"outputs":[],"stateMutability":"nonpayable"},{"type":"function","name":"renounceRole","inputs":[{"name":"role","type":"bytes32","internalType":"bytes32"},{"name":"account","type":"address","internalType":"address"}],"outputs":[],"stateMutability":"nonpayable"},{"type":"function","name":"revokeRole","inputs":[{"name":"role","type":"bytes32","internalType":"bytes32"},{"name":"account","type":"address","internalType":"address"}],"outputs":[],"stateMutability":"nonpayable"},{"type":"function","name":"supportsInterface","inputs":[{"name":"interfaceId","type":"bytes4","internalType":"bytes4"}],"outputs":[{"name":"","type":"bool","internalType":"bool"}],"stateMutability":"view"},{"type":"event","name":"Initialized","inputs":[{"name":"version","type":"uint8","indexed":false,"internalType":"uint8"}],"anonymous":false},{"type":"event","name":"RoleAdminChanged","inputs":[{"name":"role","type":"bytes32","indexed":true,"internalType":"bytes32"},{"name":"previousAdminRole","type":"bytes32","indexed":true,"internalType":"bytes32"},{"name":"newAdminRole","type":"bytes32","indexed":true,"internalType":"bytes32"}],"anonymous":false},{"type":"event","name":"RoleGranted","inputs":[{"name":"role","type":"bytes32","indexed":true,"internalType":"bytes32"},{"name":"account","type":"address","indexed":true,"internalType":"address"},{"name":"sender","type":"address","indexed":true,"internalType":"address"}],"anonymous":false},{"type":"event","name":"RoleRevoked","inputs":[{"name":"role","type":"bytes32","indexed":true,"internalType":"bytes32"},{"name":"account","type":"address","indexed":true,"internalType":"address"},{"name":"sender","type":"address","indexed":true,"internalType":"address"}],"anonymous":false}],"bytecode":{"object":"0x6080604052348015600f57600080fd5b50610bf18061001f6000396000f3fe608060405234801561001057600080fd5b506004361061009e5760003560e01c80639010d07c116100665780639010d07c1461012c57806391d1485414610157578063a217fddf1461016a578063ca15c87314610172578063d547741f1461018557600080fd5b806301ffc9a7146100a3578063248a9ca3146100cb5780632f2ff15d146100fc57806336568abe146101115780638129fc1c14610124575b600080fd5b6100b66100b13660046109a2565b610198565b60405190151581526020015b60405180910390f35b6100ee6100d93660046109cc565b60009081526065602052604090206001015490565b6040519081526020016100c2565b61010f61010a3660046109e5565b6101c3565b005b61010f61011f3660046109e5565b6101ed565b61010f610270565b61013f61013a366004610a21565b61038c565b6040516001600160a01b0390911681526020016100c2565b6100b66101653660046109e5565b6103ab565b6100ee600081565b6100ee6101803660046109cc565b6103d6565b61010f6101933660046109e5565b6103ed565b60006001600160e01b03198216635a05180f60e01b14806101bd57506101bd82610412565b92915050565b6000828152606560205260409020600101546101de81610447565b6101e88383610451565b505050565b6001600160a01b03811633146102625760405162461bcd60e51b815260206004820152602f60248201527f416363657373436f6e74726f6c3a2063616e206f6e6c792072656e6f756e636560448201526e103937b632b9903337b91039b2b63360891b60648201526084015b60405180910390fd5b61026c8282610473565b5050565b600054610100900460ff16158080156102905750600054600160ff909116105b806102aa5750303b1580156102aa575060005460ff166001145b61030d5760405162461bcd60e51b815260206004820152602e60248201527f496e697469616c697a61626c653a20636f6e747261637420697320616c72656160448201526d191e481a5b9a5d1a585b1a5e995960921b6064820152608401610259565b6000805460ff191660011790558015610330576000805461ff0019166101001790555b610338610495565b610343600033610451565b8015610389576000805461ff0019169055604051600181527f7f26b83ff96e1f2b6a682f133852f6798a09c465da95921460cefb38474024989060200160405180910390a15b50565b60008281526097602052604081206103a49083610502565b9392505050565b60009182526065602090815260408084206001600160a01b0393909316845291905290205460ff1690565b60008181526097602052604081206101bd9061050e565b60008281526065602052604090206001015461040881610447565b6101e88383610473565b60006001600160e01b03198216637965db0b60e01b14806101bd57506301ffc9a760e01b6001600160e01b03198316146101bd565b6103898133610518565b61045b8282610571565b60008281526097602052604090206101e890826105f7565b61047d828261060c565b60008281526097602052604090206101e89082610673565b600054610100900460ff166105005760405162461bcd60e51b815260206004820152602b60248201527f496e697469616c697a61626c653a20636f6e7472616374206973206e6f74206960448201526a6e697469616c697a696e6760a81b6064820152608401610259565b565b60006103a48383610688565b60006101bd825490565b61052282826103ab565b61026c5761052f816106b2565b61053a8360206106c4565b60405160200161054b929190610a67565b60408051601f198184030181529082905262461bcd60e51b825261025991600401610adc565b61057b82826103ab565b61026c5760008281526065602090815260408083206001600160a01b03851684529091529020805460ff191660011790556105b33390565b6001600160a01b0316816001600160a01b0316837f2f8788117e7eff1d82e926ec794901d17c78024a50270940304540a733656f0d60405160405180910390a45050565b60006103a4836001600160a01b038416610860565b61061682826103ab565b1561026c5760008281526065602090815260408083206001600160a01b0385168085529252808320805460ff1916905551339285917ff6391f5c32d9c69d2a47ea670b442974b53935d1edc7fd64eb21e047a839171b9190a45050565b60006103a4836001600160a01b0384166108af565b600082600001828154811061069f5761069f610b0f565b9060005260206000200154905092915050565b60606101bd6001600160a01b03831660145b606060006106d3836002610b3b565b6106de906002610b52565b67ffffffffffffffff8111156106f6576106f6610b65565b6040519080825280601f01601f191660200182016040528015610720576020820181803683370190505b509050600360fc1b8160008151811061073b5761073b610b0f565b60200101906001600160f81b031916908160001a905350600f60fb1b8160018151811061076a5761076a610b0f565b60200101906001600160f81b031916908160001a905350600061078e846002610b3b565b610799906001610b52565b90505b6001811115610811576f181899199a1a9b1b9c1cb0b131b232b360811b85600f16601081106107cd576107cd610b0f565b1a60f81b8282815181106107e3576107e3610b0f565b60200101906001600160f81b031916908160001a90535060049490941c9361080a81610b7b565b905061079c565b5083156103a45760405162461bcd60e51b815260206004820181905260248201527f537472696e67733a20686578206c656e67746820696e73756666696369656e746044820152606401610259565b60008181526001830160205260408120546108a7575081546001818101845560008481526020808220909301849055845484825282860190935260409020919091556101bd565b5060006101bd565b600081815260018301602052604081205480156109985760006108d3600183610b92565b85549091506000906108e790600190610b92565b905081811461094c57600086600001828154811061090757610907610b0f565b906000526020600020015490508087600001848154811061092a5761092a610b0f565b6000918252602080832090910192909255918252600188019052604090208390555b855486908061095d5761095d610ba5565b6001900381819060005260206000200160009055905585600101600086815260200190815260200160002060009055600193505050506101bd565b60009150506101bd565b6000602082840312156109b457600080fd5b81356001600160e01b0319811681146103a457600080fd5b6000602082840312156109de57600080fd5b5035919050565b600080604083850312156109f857600080fd5b8235915060208301356001600160a01b0381168114610a1657600080fd5b809150509250929050565b60008060408385031215610a3457600080fd5b50508035926020909101359150565b60005b83811015610a5e578181015183820152602001610a46565b50506000910152565b7f416363657373436f6e74726f6c3a206163636f756e7420000000000000000000815260008351610a9f816017850160208801610a43565b7001034b99036b4b9b9b4b733903937b6329607d1b6017918401918201528351610ad0816028840160208801610a43565b01602801949350505050565b6020815260008251806020840152610afb816040850160208701610a43565b601f01601f19169190910160400192915050565b634e487b7160e01b600052603260045260246000fd5b634e487b7160e01b600052601160045260246000fd5b80820281158282048414176101bd576101bd610b25565b808201808211156101bd576101bd610b25565b634e487b7160e01b600052604160045260246000fd5b600081610b8a57610b8a610b25565b506000190190565b818103818111156101bd576101bd610b25565b634e487b7160e01b600052603160045260246000fdfea2646970667358221220e2b5cb6bcbcf514d46794f2544bc82e2a087e140f57205a4bbb70502312fee0464736f6c634300081a0033","linkReferences":{}},"methodIdentifiers":{"DEFAULT_ADMIN_ROLE()":"a217fddf","getRoleAdmin(bytes32)":"248a9ca3","getRoleMember(bytes32,uint256)":"9010d07c","getRoleMemberCount(bytes32)":"ca15c873","grantRole(bytes32,address)":"2f2ff15d","hasRole(bytes32,address)":"91d14854","initialize()":"8129fc1c","renounceRole(bytes32,address)":"36568abe","revokeRole(bytes32,address)":"d547741f","supportsInterface(bytes4)":"01ffc9a7"},"storageLayout":{"storage":[{"astId":57448,"contract":"contracts/MorpherAccessControl.sol:MorpherAccessControl","label":"_initialized","offset":0,"slot":"0","type":"t_uint8"},{"astId":57451,"contract":"contracts/MorpherAccessControl.sol:MorpherAccessControl","label":"_initializing","offset":1,"slot":"0","type":"t_bool"},{"astId":59307,"contract":"contracts/MorpherAccessControl.sol:MorpherAccessControl","label":"__gap","offset":0,"slot":"1","type":"t_array(t_uint256)50_storage"},{"astId":60837,"contract":"contracts/MorpherAccessControl.sol:MorpherAccessControl","label":"__gap","offset":0,"slot":"51","type":"t_array(t_uint256)50_storage"},{"astId":57010,"contract":"contracts/MorpherAccessControl.sol:MorpherAccessControl","label":"_roles","offset":0,"slot":"101","type":"t_mapping(t_bytes32,t_struct(RoleData)57005_storage)"},{"astId":57317,"contract":"contracts/MorpherAccessControl.sol:MorpherAccessControl","label":"__gap","offset":0,"slot":"102","type":"t_array(t_uint256)49_storage"},{"astId":56858,"contract":"contracts/MorpherAccessControl.sol:MorpherAccessControl","label":"_roleMembers","offset":0,"slot":"151","type":"t_mapping(t_bytes32,t_struct(AddressSet)62147_storage)"},{"astId":56980,"contract":"contracts/MorpherAccessControl.sol:MorpherAccessControl","label":"__gap","offset":0,"slot":"152","type":"t_array(t_uint256)49_storage"}],"types":{"t_address":{"encoding":"inplace","label":"address","numberOfBytes":"20"},"t_array(t_bytes32)dyn_storage":{"encoding":"dynamic_array","label":"bytes32[]","numberOfBytes":"32","base":"t_bytes32"},"t_array(t_uint256)49_storage":{"encoding":"inplace","label":"uint256[49]","numberOfBytes":"1568","base":"t_uint256"},"t_array(t_uint256)50_storage":{"encoding":"inplace","label":"uint256[50]","numberOfBytes":"1600","base":"t_uint256"},"t_bool":{"encoding":"inplace","label":"bool","numberOfBytes":"1"},"t_bytes32":{"encoding":"inplace","label":"bytes32","numberOfBytes":"32"},"t_mapping(t_address,t_bool)":{"encoding":"mapping","key":"t_address","label":"mapping(address => bool)","numberOfBytes":"32","value":"t_bool"},"t_mapping(t_bytes32,t_struct(AddressSet)62147_storage)":{"encoding":"mapping","key":"t_bytes32","label":"mapping(bytes32 => struct EnumerableSetUpgradeable.AddressSet)","numberOfBytes":"32","value":"t_struct(AddressSet)62147_storage"},"t_mapping(t_bytes32,t_struct(RoleData)57005_storage)":{"encoding":"mapping","key":"t_bytes32","label":"mapping(bytes32 => struct AccessControlUpgradeable.RoleData)","numberOfBytes":"32","value":"t_struct(RoleData)57005_storage"},"t_mapping(t_bytes32,t_uint256)":{"encoding":"mapping","key":"t_bytes32","label":"mapping(bytes32 => uint256)","numberOfBytes":"32","value":"t_uint256"},"t_struct(AddressSet)62147_storage":{"encoding":"inplace","label":"struct EnumerableSetUpgradeable.AddressSet","numberOfBytes":"64","members":[{"astId":62146,"contract":"contracts/MorpherAccessControl.sol:MorpherAccessControl","label":"_inner","offset":0,"slot":"0","type":"t_struct(Set)61832_storage"}]},"t_struct(RoleData)57005_storage":{"encoding":"inplace","label":"struct AccessControlUpgradeable.RoleData","numberOfBytes":"64","members":[{"astId":57002,"contract":"contracts/MorpherAccessControl.sol:MorpherAccessControl","label":"members","offset":0,"slot":"0","type":"t_mapping(t_address,t_bool)"},{"astId":57004,"contract":"contracts/MorpherAccessControl.sol:MorpherAccessControl","label":"adminRole","offset":0,"slot":"1","type":"t_bytes32"}]},"t_struct(Set)61832_storage":{"encoding":"inplace","label":"struct EnumerableSetUpgradeable.Set","numberOfBytes":"64","members":[{"astId":61827,"contract":"contracts/MorpherAccessControl.sol:MorpherAccessControl","label":"_values","offset":0,"slot":"0","type":"t_array(t_bytes32)dyn_storage"},{"astId":61831,"contract":"contracts/MorpherAccessControl.sol:MorpherAccessControl","label":"_indexes","offset":0,"slot":"1","type":"t_mapping(t_bytes32,t_uint256)"}]},"t_uint256":{"encoding":"inplace","label":"uint256","numberOfBytes":"32"},"t_uint8":{"encoding":"inplace","label":"uint8","numberOfBytes":"1"}}},"id":1}