{"abi":[{"type":"constructor","inputs":[{"name":"_morpherAdministrator","type":"address","internalType":"address"},{"name":"_morpherStateAddress","type":"address","internalType":"address"}],"stateMutability":"nonpayable"},{"type":"fallback","stateMutability":"payable"},{"type":"receive","stateMutability":"payable"},{"type":"function","name":"bulkActivateMarkets","inputs":[{"name":"_marketHashes","type":"bytes32[]","internalType":"bytes32[]"}],"outputs":[],"stateMutability":"nonpayable"},{"type":"function","name":"morpherStateAddress","inputs":[],"outputs":[{"name":"","type":"address","internalType":"address"}],"stateMutability":"view"},{"type":"function","name":"owner","inputs":[],"outputs":[{"name":"","type":"address","internalType":"address"}],"stateMutability":"view"},{"type":"function","name":"renounceOwnership","inputs":[],"outputs":[],"stateMutability":"nonpayable"},{"type":"function","name":"transferOwnership","inputs":[{"name":"newOwner","type":"address","internalType":"address"}],"outputs":[],"stateMutability":"nonpayable"},{"type":"event","name":"OwnershipTransferred","inputs":[{"name":"previousOwner","type":"address","indexed":true,"internalType":"address"},{"name":"newOwner","type":"address","indexed":true,"internalType":"address"}],"anonymous":false},{"type":"error","name":"OwnableInvalidOwner","inputs":[{"name":"owner","type":"address","internalType":"address"}]},{"type":"error","name":"OwnableUnauthorizedAccount","inputs":[{"name":"account","type":"address","internalType":"address"}]}],"bytecode":{"object":"0x608060405234801561001057600080fd5b506040516107ad3803806107ad83398101604081905261002f91610168565b338061005657604051631e4fbdf760e01b8152600060048201526024015b60405180910390fd5b61005f8161008f565b50610069826100df565b600180546001600160a01b0319166001600160a01b03929092169190911790555061019b565b600080546001600160a01b038381166001600160a01b0319831681178455604051919092169283917f8be0079c531659141344cd1fd0a4f28419497f9722a3daafe3b4186f6b6457e09190a35050565b6100e761011d565b6001600160a01b03811661011157604051631e4fbdf760e01b81526000600482015260240161004d565b61011a8161008f565b50565b6000546001600160a01b0316331461014a5760405163118cdaa760e01b815233600482015260240161004d565b565b80516001600160a01b038116811461016357600080fd5b919050565b6000806040838503121561017b57600080fd5b6101848361014c565b91506101926020840161014c565b90509250929050565b610603806101aa6000396000f3fe60806040526004361061004e5760003560e01c8063715018a61461019f5780638da5cb5b146101b457806391e0d7c2146101ea578063a91c23e11461020a578063f2fde38b1461022a576100c6565b366100c65761005b61024a565b60405162461bcd60e51b815260206004820152603560248201527f4d6f727068657241646d696e6973747261746f7250726f78793a204e6f20455460448201527412081d1c985b9cd9995c9cc81cdd5c1c1bdc9d1959605a1b60648201526084015b60405180910390fd5b6100ce61024a565b6001546040516000916001600160a01b03169034906100f09084903690610465565b60006040518083038185875af1925050503d806000811461012d576040519150601f19603f3d011682016040523d82523d6000602084013e610132565b606091505b505090508061019d5760405162461bcd60e51b815260206004820152603160248201527f4d6f727068657241646d696e6973747261746f7250726f78793a204661696c6560448201527019081d1bc8199bdc9dd85c990818d85b1b607a1b60648201526084016100bd565b005b3480156101ab57600080fd5b5061019d610279565b3480156101c057600080fd5b506000546001600160a01b03165b6040516001600160a01b03909116815260200160405180910390f35b3480156101f657600080fd5b506001546101ce906001600160a01b031681565b34801561021657600080fd5b5061019d61022536600461048b565b61028b565b34801561023657600080fd5b5061019d610245366004610558565b6103d7565b6000546001600160a01b031633146102775760405163118cdaa760e01b81523360048201526024016100bd565b565b61028161024a565b6102776000610415565b61029361024a565b60005b81518110156103d35760008282815181106102b3576102b3610588565b60200260200101516040516024016102cd91815260200190565b60408051601f198184030181529181526020820180516001600160e01b031663564c0d8f60e11b17905260015490519192506000916001600160a01b039091169061031990849061059e565b6000604051808303816000865af19150503d8060008114610356576040519150601f19603f3d011682016040523d82523d6000602084013e61035b565b606091505b50509050806103c95760405162461bcd60e51b815260206004820152603460248201527f4d6f727068657241646d696e6973747261746f7250726f78793a204661696c6560448201527319081d1bc81858dd1a5d985d194813585c9ad95d60621b60648201526084016100bd565b5050600101610296565b5050565b6103df61024a565b6001600160a01b03811661040957604051631e4fbdf760e01b8152600060048201526024016100bd565b61041281610415565b50565b600080546001600160a01b038381166001600160a01b0319831681178455604051919092169283917f8be0079c531659141344cd1fd0a4f28419497f9722a3daafe3b4186f6b6457e09190a35050565b8183823760009101908152919050565b634e487b7160e01b600052604160045260246000fd5b60006020828403121561049d57600080fd5b813567ffffffffffffffff8111156104b457600080fd5b8201601f810184136104c557600080fd5b803567ffffffffffffffff8111156104df576104df610475565b8060051b604051601f19603f830116810181811067ffffffffffffffff8211171561050c5761050c610475565b60405291825260208184018101929081018784111561052a57600080fd5b6020850194505b8385101561054d57843580825260209586019590935001610531565b509695505050505050565b60006020828403121561056a57600080fd5b81356001600160a01b038116811461058157600080fd5b9392505050565b634e487b7160e01b600052603260045260246000fd5b6000825160005b818110156105bf57602081860181015185830152016105a5565b50600092019182525091905056fea264697066735822122059853b208d66a244d461af9e289b6dea81a04759ce77f34832fe4a416fac983064736f6c634300081a0033","linkReferences":{}},"methodIdentifiers":{"bulkActivateMarkets(bytes32[])":"a91c23e1","morpherStateAddress()":"91e0d7c2","owner()":"8da5cb5b","renounceOwnership()":"715018a6","transferOwnership(address)":"f2fde38b"},"storageLayout":{"storage":[{"astId":66571,"contract":"contracts/MorpherAdministratorProxy.sol:MorpherAdministratorProxy","label":"_owner","offset":0,"slot":"0","type":"t_address"},{"astId":922,"contract":"contracts/MorpherAdministratorProxy.sol:MorpherAdministratorProxy","label":"morpherStateAddress","offset":0,"slot":"1","type":"t_address"}],"types":{"t_address":{"encoding":"inplace","label":"address","numberOfBytes":"20"}}},"id":3}