{"abi":[{"type":"function","name":"ADMINISTRATOR_ROLE","inputs":[],"outputs":[{"name":"","type":"bytes32","internalType":"bytes32"}],"stateMutability":"view"},{"type":"function","name":"STAKINGADMIN_ROLE","inputs":[],"outputs":[{"name":"","type":"bytes32","internalType":"bytes32"}],"stateMutability":"view"},{"type":"function","name":"addInterestRate","inputs":[{"name":"_rate","type":"uint256","internalType":"uint256"},{"name":"_validFrom","type":"uint256","internalType":"uint256"}],"outputs":[],"stateMutability":"nonpayable"},{"type":"function","name":"changeInterestRateValidFrom","inputs":[{"name":"_numInterestRate","type":"uint256","internalType":"uint256"},{"name":"_validFrom","type":"uint256","internalType":"uint256"}],"outputs":[],"stateMutability":"nonpayable"},{"type":"function","name":"changeInterestRateValue","inputs":[{"name":"_numInterestRate","type":"uint256","internalType":"uint256"},{"name":"_rate","type":"uint256","internalType":"uint256"}],"outputs":[],"stateMutability":"nonpayable"},{"type":"function","name":"getInterestRate","inputs":[{"name":"_positionTimestamp","type":"uint256","internalType":"uint256"}],"outputs":[{"name":"","type":"uint256","internalType":"uint256"}],"stateMutability":"view"},{"type":"function","name":"getStake","inputs":[{"name":"_address","type":"address","internalType":"address"}],"outputs":[{"name":"_poolShares","type":"uint256","internalType":"uint256"}],"stateMutability":"view"},{"type":"function","name":"getStakeValue","inputs":[{"name":"_address","type":"address","internalType":"address"}],"outputs":[{"name":"_value","type":"uint256","internalType":"uint256"},{"name":"_lastUpdate","type":"uint256","internalType":"uint256"}],"stateMutability":"view"},{"type":"function","name":"getTotalPooledValue","inputs":[],"outputs":[{"name":"_totalPooled","type":"uint256","internalType":"uint256"}],"stateMutability":"view"},{"type":"function","name":"initialize","inputs":[{"name":"_morpherState","type":"address","internalType":"address"}],"outputs":[],"stateMutability":"nonpayable"},{"type":"function","name":"interestRate","inputs":[],"outputs":[{"name":"","type":"uint256","internalType":"uint256"}],"stateMutability":"view"},{"type":"function","name":"interestRates","inputs":[{"name":"","type":"uint256","internalType":"uint256"}],"outputs":[{"name":"validFrom","type":"uint256","internalType":"uint256"},{"name":"rate","type":"uint256","internalType":"uint256"}],"stateMutability":"view"},{"type":"function","name":"lastReward","inputs":[],"outputs":[{"name":"","type":"uint256","internalType":"uint256"}],"stateMutability":"view"},{"type":"function","name":"lockupPeriod","inputs":[],"outputs":[{"name":"","type":"uint256","internalType":"uint256"}],"stateMutability":"view"},{"type":"function","name":"marketIdStakingMPH","inputs":[],"outputs":[{"name":"","type":"bytes32","internalType":"bytes32"}],"stateMutability":"view"},{"type":"function","name":"minimumStake","inputs":[],"outputs":[{"name":"","type":"uint256","internalType":"uint256"}],"stateMutability":"view"},{"type":"function","name":"numInterestRates","inputs":[],"outputs":[{"name":"","type":"uint256","internalType":"uint256"}],"stateMutability":"view"},{"type":"function","name":"poolShareValue","inputs":[],"outputs":[{"name":"","type":"uint256","internalType":"uint256"}],"stateMutability":"view"},{"type":"function","name":"poolShares","inputs":[{"name":"","type":"address","internalType":"address"}],"outputs":[{"name":"numPoolShares","type":"uint256","internalType":"uint256"},{"name":"lockedUntil","type":"uint256","internalType":"uint256"}],"stateMutability":"view"},{"type":"function","name":"setInterestRate","inputs":[{"name":"_interestRate","type":"uint256","internalType":"uint256"}],"outputs":[],"stateMutability":"nonpayable"},{"type":"function","name":"setLockupPeriodRate","inputs":[{"name":"_lockupPeriod","type":"uint256","internalType":"uint256"}],"outputs":[],"stateMutability":"nonpayable"},{"type":"function","name":"setMinimumStake","inputs":[{"name":"_minimumStake","type":"uint256","internalType":"uint256"}],"outputs":[],"stateMutability":"nonpayable"},{"type":"function","name":"setMorpherStateAddress","inputs":[{"name":"_stateAddress","type":"address","internalType":"address"}],"outputs":[],"stateMutability":"nonpayable"},{"type":"function","name":"stake","inputs":[{"name":"_amount","type":"uint256","internalType":"uint256"}],"outputs":[{"name":"_poolShares","type":"uint256","internalType":"uint256"}],"stateMutability":"nonpayable"},{"type":"function","name":"stakingAddress","inputs":[],"outputs":[{"name":"","type":"address","internalType":"address"}],"stateMutability":"view"},{"type":"function","name":"totalShares","inputs":[],"outputs":[{"name":"","type":"uint256","internalType":"uint256"}],"stateMutability":"view"},{"type":"function","name":"unstake","inputs":[{"name":"_numOfShares","type":"uint256","internalType":"uint256"}],"outputs":[{"name":"_amount","type":"uint256","internalType":"uint256"}],"stateMutability":"nonpayable"},{"type":"function","name":"updatePoolShareValue","inputs":[],"outputs":[{"name":"_newPoolShareValue","type":"uint256","internalType":"uint256"}],"stateMutability":"nonpayable"},{"type":"event","name":"Initialized","inputs":[{"name":"version","type":"uint8","indexed":false,"internalType":"uint8"}],"anonymous":false},{"type":"event","name":"InterestRateAdded","inputs":[{"name":"interestRate","type":"uint256","indexed":false,"internalType":"uint256"},{"name":"validFromTimestamp","type":"uint256","indexed":false,"internalType":"uint256"}],"anonymous":false},{"type":"event","name":"InterestRateRateChanged","inputs":[{"name":"interstRateIndex","type":"uint256","indexed":false,"internalType":"uint256"},{"name":"oldvalue","type":"uint256","indexed":false,"internalType":"uint256"},{"name":"newValue","type":"uint256","indexed":false,"internalType":"uint256"}],"anonymous":false},{"type":"event","name":"InterestRateValidFromChanged","inputs":[{"name":"interstRateIndex","type":"uint256","indexed":false,"internalType":"uint256"},{"name":"oldvalue","type":"uint256","indexed":false,"internalType":"uint256"},{"name":"newValue","type":"uint256","indexed":false,"internalType":"uint256"}],"anonymous":false},{"type":"event","name":"LinkState","inputs":[{"name":"stateAddress","type":"address","indexed":false,"internalType":"address"}],"anonymous":false},{"type":"event","name":"PoolShareValueUpdated","inputs":[{"name":"lastReward","type":"uint256","indexed":true,"internalType":"uint256"},{"name":"poolShareValue","type":"uint256","indexed":false,"internalType":"uint256"}],"anonymous":false},{"type":"event","name":"SetInterestRate","inputs":[{"name":"newInterestRate","type":"uint256","indexed":false,"internalType":"uint256"}],"anonymous":false},{"type":"event","name":"SetLockupPeriod","inputs":[{"name":"newLockupPeriod","type":"uint256","indexed":false,"internalType":"uint256"}],"anonymous":false},{"type":"event","name":"SetMinimumStake","inputs":[{"name":"newMinimumStake","type":"uint256","indexed":false,"internalType":"uint256"}],"anonymous":false},{"type":"event","name":"Staked","inputs":[{"name":"userAddress","type":"address","indexed":true,"internalType":"address"},{"name":"amount","type":"uint256","indexed":true,"internalType":"uint256"},{"name":"poolShares","type":"uint256","indexed":false,"internalType":"uint256"},{"name":"lockedUntil","type":"uint256","indexed":false,"internalType":"uint256"}],"anonymous":false},{"type":"event","name":"StakingRewardsMinted","inputs":[{"name":"lastReward","type":"uint256","indexed":true,"internalType":"uint256"},{"name":"delta","type":"uint256","indexed":false,"internalType":"uint256"}],"anonymous":false},{"type":"event","name":"Unstaked","inputs":[{"name":"userAddress","type":"address","indexed":true,"internalType":"address"},{"name":"amount","type":"uint256","indexed":true,"internalType":"uint256"},{"name":"poolShares","type":"uint256","indexed":false,"internalType":"uint256"}],"anonymous":false}],"bytecode":{"object":"0x608060405234801561001057600080fd5b5061205c806100206000396000f3fe608060405234801561001057600080fd5b50600436106101c45760003560e01c80639a4d8ba1116100f9578063e71e7ec011610097578063ee947a7c11610071578063ee947a7c146103c1578063f45edb5f146103ca578063f48fedb0146103f1578063fc395c40146103f957600080fd5b8063e71e7ec01461039c578063e9ea0ddc146103a5578063ec5ffac2146103b857600080fd5b8063c4d66de8116100d3578063c4d66de814610340578063c9b1714914610353578063d7b4be241461035c578063e4c3bc331461038757600080fd5b80639a4d8ba1146102fd578063a4c2661e14610324578063a694fc3a1461032d57600080fd5b80632e17de78116101665780635f84f302116101405780635f84f302146102a65780637a766460146102b95780637c3a00fd146102e257806396802374146102ea57600080fd5b80632e17de78146102775780633a98ef391461028a578063597f859c1461029357600080fd5b80631176aeef116101a25780631176aeef14610233578063133840391461023c578063224f7e5814610251578063233e99031461026457600080fd5b80630645dcd7146101c95780630c196a74146101e45780630fb51f41146101f7575b600080fd5b6101d161040c565b6040519081526020015b60405180910390f35b6101d16101f2366004611e57565b610423565b61021e610205366004611e88565b603d602052600090815260409020805460019091015482565b604080519283526020830191909152016101db565b6101d160385481565b61024f61024a366004611eac565b6105b6565b005b61024f61025f366004611eac565b610809565b61024f610272366004611e57565b61098f565b6101d1610285366004611e57565b610ae1565b6101d160365481565b61024f6102a1366004611e57565b610e6b565b61024f6102b4366004611e57565b610fb5565b6101d16102c7366004611e88565b6001600160a01b03166000908152603d602052604090205490565b6101d16110d8565b61021e6102f8366004611e88565b61113c565b61021e61030b366004611e57565b6037602052600090815260409020805460019091015482565b6101d160345481565b6101d161033b366004611e57565b611177565b61024f61034e366004611e88565b61161a565b6101d160355481565b603b5461036f906001600160a01b031681565b6040516001600160a01b0390911681526020016101db565b6101d160008051602061200783398151915281565b6101d1603c5481565b61024f6103b3366004611e88565b61181e565b6101d1603a5481565b6101d160395481565b6101d17fe5a0b4d50f56047f84728557fedbda92f956391bc9d5c762e8461996dd8e7ad781565b6101d1611993565b61024f610407366004611eac565b611a4b565b600060365460345461041e9190611ee4565b905090565b60008080805b6038548110156105965760016038546104429190611f01565b81148061046e5750426037600061045a846001611f14565b815260200190815260200160002060000154115b156104d35760008181526037602052604090205461048c9042611f01565b6000828152603760205260409020600101546104a89190611ee4565b6104b29084611f14565b9250816000036104ce5760008181526037602052604090205491505b610596565b84603760006104e3846001611f14565b815260200190815260200160002060000154111561058457600081815260376020819052604082205491610518846001611f14565b8152602001908152602001600020600001546105349190611f01565b6000828152603760205260409020600101546105509190611ee4565b61055a9084611f14565b60008281526037602052604090205490935085106105845760008181526037602052604090205491505b8061058e81611f27565b915050610429565b5060006105a38242611f01565b6105ad9084611f40565b95945050505050565b60335460408051630140cb6560e51b81529051600080516020612007833981519152926001600160a01b0316916328196ca09160048083019260209291908290030181865afa15801561060d573d6000803e3d6000fd5b505050506040513d601f19601f820116820180604052508101906106319190611f62565b6001600160a01b03166391d1485482336040516001600160e01b031960e085901b16815260048101929092526001600160a01b03166024820152604401602060405180830381865afa15801561068b573d6000803e3d6000fd5b505050506040513d601f19601f820116820180604052508101906106af9190611f7f565b6106d45760405162461bcd60e51b81526004016106cb90611fa1565b60405180910390fd5b60385415806107065750816037600060016038546106f29190611f01565b815260200190815260200160002060000154105b61078e5760405162461bcd60e51b815260206004820152604d60248201527f4d6f72706865725374616b696e673a20496e746572657374205261746520566160448201527f6c69642046726f6d206d757374206265206c61746572207468616e206c61737460648201526c20696e7465726573745261746560981b608482015260a4016106cb565b610796611993565b5060388054600090815260376020526040808220859055825482528120600101859055815491906107c683611f27565b909155505060408051848152602081018490527f293620aa5866cd353b1989961237e94aece8c56f6b2b4b8514ee3a6f2dded5c3910160405180910390a1505050565b60335460408051630140cb6560e51b81529051600080516020612007833981519152926001600160a01b0316916328196ca09160048083019260209291908290030181865afa158015610860573d6000803e3d6000fd5b505050506040513d601f19601f820116820180604052508101906108849190611f62565b6001600160a01b03166391d1485482336040516001600160e01b031960e085901b16815260048101929092526001600160a01b03166024820152604401602060405180830381865afa1580156108de573d6000803e3d6000fd5b505050506040513d601f19601f820116820180604052508101906109029190611f7f565b61091e5760405162461bcd60e51b81526004016106cb90611fa1565b600083815260376020908152604091829020600101548251868152918201529081018390527ff27b67df57164becd752b9ec4283586534adc2dfb848ee602c500aa6e46b30299060600160405180910390a1610978611993565b505060009182526037602052604090912060010155565b60335460408051630140cb6560e51b81529051600080516020612007833981519152926001600160a01b0316916328196ca09160048083019260209291908290030181865afa1580156109e6573d6000803e3d6000fd5b505050506040513d601f19601f82011682018060405250810190610a0a9190611f62565b6001600160a01b03166391d1485482336040516001600160e01b031960e085901b16815260048101929092526001600160a01b03166024820152604401602060405180830381865afa158015610a64573d6000803e3d6000fd5b505050506040513d601f19601f82011682018060405250810190610a889190611f7f565b610aa45760405162461bcd60e51b81526004016106cb90611fa1565b603a8290556040518281527fcd49b0a32b631e59338de3903380e535f8738f7ff62fcb3953129b9607696739906020015b60405180910390a15050565b60335460408051631429c6eb60e21b815290516000926001600160a01b0316916350a71bac9160048083019260209291908290030181865afa158015610b2b573d6000803e3d6000fd5b505050506040513d601f19601f82011682018060405250810190610b4f9190611f62565b604051635612cd6760e11b81523360048201526001600160a01b03919091169063ac259ace90602401602060405180830381865afa158015610b95573d6000803e3d6000fd5b505050506040513d601f19601f82011682018060405250810190610bb99190611f7f565b15610c065760405162461bcd60e51b815260206004820152601f60248201527f4d6f72706865725374616b696e673a205573657220697320626c6f636b65640060448201526064016106cb565b336000908152603d602052604090205480831115610c775760405162461bcd60e51b815260206004820152602860248201527f4d6f72706865725374616b696e673a20696e73756666696369656e7420706f6f6044820152676c2073686172657360c01b60648201526084016106cb565b336000908152603d602052604090206001015442811115610d005760405162461bcd60e51b815260206004820152603760248201527f4d6f72706865725374616b696e673a2063616e6e6f7420756e7374616b65206260448201527f65666f7265206c6f636b75702065787069726174696f6e00000000000000000060648201526084016106cb565b610d08611993565b50336000908152603d6020526040902054610d24908590611f01565b336000908152603d6020526040902055603654610d42908590611f01565b603655603454610d529085611ee4565b9250603360009054906101000a90046001600160a01b03166001600160a01b031663432556ba6040518163ffffffff1660e01b8152600401602060405180830381865afa158015610da7573d6000803e3d6000fd5b505050506040513d601f19601f82011682018060405250810190610dcb9190611f62565b6040516340c10f1960e01b8152336004820152602481018590526001600160a01b0391909116906340c10f1990604401600060405180830381600087803b158015610e1557600080fd5b505af1158015610e29573d6000803e3d6000fd5b50506040518681528592503391507f7fc4727e062e336010f2c282598ef5f14facb3de68cf8195c2f23e1454b2b74e9060200160405180910390a35050919050565b60335460408051630140cb6560e51b81529051600080516020612007833981519152926001600160a01b0316916328196ca09160048083019260209291908290030181865afa158015610ec2573d6000803e3d6000fd5b505050506040513d601f19601f82011682018060405250810190610ee69190611f62565b6001600160a01b03166391d1485482336040516001600160e01b031960e085901b16815260048101929092526001600160a01b03166024820152604401602060405180830381865afa158015610f40573d6000803e3d6000fd5b505050506040513d601f19601f82011682018060405250810190610f649190611f7f565b610f805760405162461bcd60e51b81526004016106cb90611fa1565b60398290556040518281527ffd48bfbbcb5a287c0ba5513ca319e022d18f0f07bc4d4dea3ace362f6710898090602001610ad5565b60335460408051630140cb6560e51b81529051600080516020612007833981519152926001600160a01b0316916328196ca09160048083019260209291908290030181865afa15801561100c573d6000803e3d6000fd5b505050506040513d601f19601f820116820180604052508101906110309190611f62565b6001600160a01b03166391d1485482336040516001600160e01b031960e085901b16815260048101929092526001600160a01b03166024820152604401602060405180830381865afa15801561108a573d6000803e3d6000fd5b505050506040513d601f19601f820116820180604052508101906110ae9190611f7f565b6110ca5760405162461bcd60e51b81526004016106cb90611fa1565b6110d482426105b6565b5050565b60006038546000036110ea5750600090565b600060016038546110fb9190611f01565b90505b600081815260376020526040902054421061112a57600090815260376020526040902060010154919050565b8061113481611fd6565b9150506110fe565b600080603454611161846001600160a01b03166000908152603d602052604090205490565b61116b9190611ee4565b60355491509150915091565b60335460408051631429c6eb60e21b815290516000926001600160a01b0316916350a71bac9160048083019260209291908290030181865afa1580156111c1573d6000803e3d6000fd5b505050506040513d601f19601f820116820180604052508101906111e59190611f62565b604051635612cd6760e11b81523360048201526001600160a01b03919091169063ac259ace90602401602060405180830381865afa15801561122b573d6000803e3d6000fd5b505050506040513d601f19601f8201168201806040525081019061124f9190611f7f565b1561129c5760405162461bcd60e51b815260206004820152601f60248201527f4d6f72706865725374616b696e673a205573657220697320626c6f636b65640060448201526064016106cb565b60335460408051632192ab5d60e11b8152905184926001600160a01b03169163432556ba9160048083019260209291908290030181865afa1580156112e5573d6000803e3d6000fd5b505050506040513d601f19601f820116820180604052508101906113099190611f62565b6040516370a0823160e01b81523360048201526001600160a01b0391909116906370a0823190602401602060405180830381865afa15801561134f573d6000803e3d6000fd5b505050506040513d601f19601f820116820180604052508101906113739190611fed565b10156113d85760405162461bcd60e51b815260206004820152602e60248201527f4d6f72706865725374616b696e673a20696e73756666696369656e74204d504860448201526d20746f6b656e2062616c616e636560901b60648201526084016106cb565b6113e0611993565b506034546113ee9083611f40565b336000908152603d60205260409020546034549192509061140f9083611ee4565b6114199082611f14565b603a5411156114885760405162461bcd60e51b815260206004820152603560248201527f4d6f72706865725374616b696e673a207374616b6520616d6f756e74206c6f776044820152746572207468616e206d696e696d756d207374616b6560581b60648201526084016106cb565b603360009054906101000a90046001600160a01b03166001600160a01b031663432556ba6040518163ffffffff1660e01b8152600401602060405180830381865afa1580156114db573d6000803e3d6000fd5b505050506040513d601f19601f820116820180604052508101906114ff9190611f62565b6001600160a01b0316639dc29fac336034548561151c9190611ee4565b6040516001600160e01b031960e085901b1681526001600160a01b0390921660048301526024820152604401600060405180830381600087803b15801561156257600080fd5b505af1158015611576573d6000803e3d6000fd5b50505050816036546115889190611f14565b6036556115958282611f14565b336000908152603d60205260409020556039546115b29042611f14565b336000818152603d60205260409020600101919091556039548491907fb4caaf29adda3eefee3ad552a8e85058589bf834c7466cae4ee58787f70589ed9085906115fc9042611f14565b6040805192835260208301919091520160405180910390a350919050565b600054610100900460ff161580801561163a5750600054600160ff909116105b806116545750303b158015611654575060005460ff166001145b6116b75760405162461bcd60e51b815260206004820152602e60248201527f496e697469616c697a61626c653a20636f6e747261637420697320616c72656160448201526d191e481a5b9a5d1a585b1a5e995960921b60648201526084016106cb565b6000805460ff1916600117905580156116da576000805461ff0019166101001790555b6116e2611dea565b603380546001600160a01b0384166001600160a01b0319918216179091554260355562278d00603981905569152d02c7e14af6800000603a55603b8054909216732222222222222222222222222222222222222222179091557f9a31fdde7a3b1444b1befb10735dcc3b72cbd9dd604d2ff45144352bf0f359a6603c556305f5e1006034556040517ffd48bfbbcb5a287c0ba5513ca319e022d18f0f07bc4d4dea3ace362f67108980916117999190815260200190565b60405180910390a17fcd49b0a32b631e59338de3903380e535f8738f7ff62fcb3953129b9607696739603a546040516117d491815260200190565b60405180910390a180156110d4576000805461ff0019169055604051600181527f7f26b83ff96e1f2b6a682f133852f6798a09c465da95921460cefb384740249890602001610ad5565b60335460408051630140cb6560e51b815290517fe5a0b4d50f56047f84728557fedbda92f956391bc9d5c762e8461996dd8e7ad7926001600160a01b0316916328196ca09160048083019260209291908290030181865afa158015611887573d6000803e3d6000fd5b505050506040513d601f19601f820116820180604052508101906118ab9190611f62565b6001600160a01b03166391d1485482336040516001600160e01b031960e085901b16815260048101929092526001600160a01b03166024820152604401602060405180830381865afa158015611905573d6000803e3d6000fd5b505050506040513d601f19601f820116820180604052508101906119299190611f7f565b6119455760405162461bcd60e51b81526004016106cb90611fa1565b603380546001600160a01b0319166001600160a01b0384169081179091556040519081527f978c711532bae8c58f353b0f3c7f3a0dfe600d9ae9a81818f2ad2919b88e199090602001610ad5565b6000620151806035546119a69190611f14565b4210611a44576000620151806035546119bf9190611f40565b6119c99042611f01565b90506119d36110d8565b6119dd9082611ee4565b6034546119ea9190611f14565b6034556119fa6201518082611ee4565b603554611a079190611f14565b60358190556034546040519081527fd59b6c8b3190f59807a1cf0b6fb311ba03a32a91c1da71f75e24251a132cdc369060200160405180910390a2505b5060345490565b60335460408051630140cb6560e51b81529051600080516020612007833981519152926001600160a01b0316916328196ca09160048083019260209291908290030181865afa158015611aa2573d6000803e3d6000fd5b505050506040513d601f19601f82011682018060405250810190611ac69190611f62565b6001600160a01b03166391d1485482336040516001600160e01b031960e085901b16815260048101929092526001600160a01b03166024820152604401602060405180830381865afa158015611b20573d6000803e3d6000fd5b505050506040513d601f19601f82011682018060405250810190611b449190611f7f565b611b605760405162461bcd60e51b81526004016106cb90611fa1565b600083815260376020908152604091829020548251868152918201529081018390527f540bfd7b71faa6e96efd78eadf2100240526e583905c7fb4a63d545b20effd2e9060600160405180910390a18260385411611c165760405162461bcd60e51b815260206004820152602d60248201527f4d6f72706865725374616b696e673a20496e746572657374205261746520446f60448201526c6573206e6f742065786973742160981b60648201526084016106cb565b82158015611c32575060006001603854611c309190611f01565b115b8015611c5d57508160376000611c49866001611f14565b815260200190815260200160002060000154115b80611cab5750600083118015611c8057506001603854611c7d9190611f01565b83145b8015611cab57508160376000611c97600187611f01565b815260200190815260200160002060000154105b80611d245750600083118015611cce57506001603854611ccb9190611f01565b83105b8015611cf957508160376000611ce5600187611f01565b815260200190815260200160002060000154105b8015611d2457508160376000611d10866001611f14565b815260200190815260200160002060000154115b611dce5760405162461bcd60e51b815260206004820152606960248201527f4d6f72706865725374616b696e673a2076616c696446726f6d2063616e6e6f7460448201527f20626520736d616c6c6572207468616e2070726576696f757320496e7465726560648201527f73742052617465206f72206c6172676572207468616e206e65787420496e746560848201526872657374205261746560b81b60a482015260c4016106cb565b611dd6611993565b505060009182526037602052604090912055565b600054610100900460ff16611e555760405162461bcd60e51b815260206004820152602b60248201527f496e697469616c697a61626c653a20636f6e7472616374206973206e6f74206960448201526a6e697469616c697a696e6760a81b60648201526084016106cb565b565b600060208284031215611e6957600080fd5b5035919050565b6001600160a01b0381168114611e8557600080fd5b50565b600060208284031215611e9a57600080fd5b8135611ea581611e70565b9392505050565b60008060408385031215611ebf57600080fd5b50508035926020909101359150565b634e487b7160e01b600052601160045260246000fd5b8082028115828204841417611efb57611efb611ece565b92915050565b81810381811115611efb57611efb611ece565b80820180821115611efb57611efb611ece565b600060018201611f3957611f39611ece565b5060010190565b600082611f5d57634e487b7160e01b600052601260045260246000fd5b500490565b600060208284031215611f7457600080fd5b8151611ea581611e70565b600060208284031215611f9157600080fd5b81518015158114611ea557600080fd5b6020808252818101527f4d6f7270686572546f6b656e3a205065726d697373696f6e2064656e6965642e604082015260600190565b600081611fe557611fe5611ece565b506000190190565b600060208284031215611fff57600080fd5b505191905056fe63951dae8c67350a35b32da0155a4b45b6d7eb305049c51f4e0c5d1be838370aa26469706673582212206ef37c7be78b05fc6cb39b18ca39a8184f83006508e0b2f53de869a375034a8064736f6c63430008150033","linkReferences":{}},"methodIdentifiers":{"ADMINISTRATOR_ROLE()":"f45edb5f","STAKINGADMIN_ROLE()":"e4c3bc33","addInterestRate(uint256,uint256)":"13384039","changeInterestRateValidFrom(uint256,uint256)":"fc395c40","changeInterestRateValue(uint256,uint256)":"224f7e58","getInterestRate(uint256)":"0c196a74","getStake(address)":"7a766460","getStakeValue(address)":"96802374","getTotalPooledValue()":"0645dcd7","initialize(address)":"c4d66de8","interestRate()":"7c3a00fd","interestRates(uint256)":"9a4d8ba1","lastReward()":"c9b17149","lockupPeriod()":"ee947a7c","marketIdStakingMPH()":"e71e7ec0","minimumStake()":"ec5ffac2","numInterestRates()":"1176aeef","poolShareValue()":"a4c2661e","poolShares(address)":"0fb51f41","setInterestRate(uint256)":"5f84f302","setLockupPeriodRate(uint256)":"597f859c","setMinimumStake(uint256)":"233e9903","setMorpherStateAddress(address)":"e9ea0ddc","stake(uint256)":"a694fc3a","stakingAddress()":"d7b4be24","totalShares()":"3a98ef39","unstake(uint256)":"2e17de78","updatePoolShareValue()":"f48fedb0"},"id":12}