{
  "abi": [
    {
      "anonymous": false,
      "inputs": [
        {
          "indexed": false,
          "internalType": "uint8",
          "name": "version",
          "type": "uint8"
        }
      ],
      "name": "Initialized",
      "type": "event"
    },
    {
      "inputs": [],
      "name": "ADMINISTRATOR_ROLE",
      "outputs": [
        {
          "internalType": "bytes32",
          "name": "",
          "type": "bytes32"
        }
      ],
      "stateMutability": "view",
      "type": "function"
    },
    {
      "inputs": [],
      "name": "BURNER_ROLE",
      "outputs": [
        {
          "internalType": "bytes32",
          "name": "",
          "type": "bytes32"
        }
      ],
      "stateMutability": "view",
      "type": "function"
    },
    {
      "inputs": [],
      "name": "MINTER_ROLE",
      "outputs": [
        {
          "internalType": "bytes32",
          "name": "",
          "type": "bytes32"
        }
      ],
      "stateMutability": "view",
      "type": "function"
    },
    {
      "inputs": [
        {
          "internalType": "address",
          "name": "from",
          "type": "address"
        },
        {
          "internalType": "uint256",
          "name": "amount",
          "type": "uint256"
        }
      ],
      "name": "burn",
      "outputs": [],
      "stateMutability": "nonpayable",
      "type": "function"
    },
    {
      "inputs": [
        {
          "internalType": "address",
          "name": "_morpherState",
          "type": "address"
        }
      ],
      "name": "initialize",
      "outputs": [],
      "stateMutability": "nonpayable",
      "type": "function"
    },
    {
      "inputs": [
        {
          "internalType": "address",
          "name": "to",
          "type": "address"
        },
        {
          "internalType": "uint256",
          "name": "amount",
          "type": "uint256"
        }
      ],
      "name": "mint",
      "outputs": [],
      "stateMutability": "nonpayable",
      "type": "function"
    },
    {
      "inputs": [
        {
          "internalType": "address",
          "name": "to",
          "type": "address"
        },
        {
          "internalType": "uint256",
          "name": "amount",
          "type": "uint256"
        }
      ],
      "name": "transfer",
      "outputs": [
        {
          "internalType": "bool",
          "name": "",
          "type": "bool"
        }
      ],
      "stateMutability": "nonpayable",
      "type": "function"
    },
    {
      "inputs": [
        {
          "internalType": "address",
          "name": "oldStateAddress",
          "type": "address"
        }
      ],
      "name": "updateDeprecatedMorpherStateAddress",
      "outputs": [],
      "stateMutability": "nonpayable",
      "type": "function"
    }
  ],
  "bytecode": {
    "object": "0x608060405234801561001057600080fd5b5061091d806100206000396000f3fe608060405234801561001057600080fd5b50600436106100885760003560e01c8063a9059cbb1161005b578063a9059cbb14610102578063c4d66de814610125578063d539139314610138578063f45edb5f1461015f57600080fd5b8063107df5861461008d578063282c51f3146100a257806340c10f19146100dc5780639dc29fac146100ef575b600080fd5b6100a061009b3660046107c9565b610186565b005b6100c97f3c11d16cbaffd01df69ce1c404f6340ee057498f5f00246190ea54220576a84881565b6040519081526020015b60405180910390f35b6100a06100ea3660046107ed565b6102d9565b6100a06100fd3660046107ed565b61046c565b6101156101103660046107ed565b6105cc565b60405190151581526020016100d3565b6100a06101333660046107c9565b6106a0565b6100c97f9f2df0fed2c77648de5860a4cc508cd0818c85b8b8a1ab4ceeef8d981c8956a681565b6100c97fe5a0b4d50f56047f84728557fedbda92f956391bc9d5c762e8461996dd8e7ad781565b60335460408051630140cb6560e51b815290517fe5a0b4d50f56047f84728557fedbda92f956391bc9d5c762e8461996dd8e7ad7926001600160a01b0316916328196ca09160048083019260209291908290030181865afa1580156101ef573d6000803e3d6000fd5b505050506040513d601f19601f820116820180604052508101906102139190610819565b6001600160a01b03166391d1485482336040516001600160e01b031960e085901b16815260048101929092526001600160a01b03166024820152604401602060405180830381865afa15801561026d573d6000803e3d6000fd5b505050506040513d601f19601f820116820180604052508101906102919190610836565b6102b65760405162461bcd60e51b81526004016102ad90610858565b60405180910390fd5b50603480546001600160a01b0319166001600160a01b0392909216919091179055565b60335460408051630140cb6560e51b815290517f9f2df0fed2c77648de5860a4cc508cd0818c85b8b8a1ab4ceeef8d981c8956a6926001600160a01b0316916328196ca09160048083019260209291908290030181865afa158015610342573d6000803e3d6000fd5b505050506040513d601f19601f820116820180604052508101906103669190610819565b6001600160a01b03166391d1485482336040516001600160e01b031960e085901b16815260048101929092526001600160a01b03166024820152604401602060405180830381865afa1580156103c0573d6000803e3d6000fd5b505050506040513d601f19601f820116820180604052508101906103e49190610836565b6104005760405162461bcd60e51b81526004016102ad90610858565b6034546040516340c10f1960e01b81526001600160a01b03858116600483015260248201859052909116906340c10f19906044015b600060405180830381600087803b15801561044f57600080fd5b505af1158015610463573d6000803e3d6000fd5b50505050505050565b60335460408051630140cb6560e51b815290517f3c11d16cbaffd01df69ce1c404f6340ee057498f5f00246190ea54220576a848926001600160a01b0316916328196ca09160048083019260209291908290030181865afa1580156104d5573d6000803e3d6000fd5b505050506040513d601f19601f820116820180604052508101906104f99190610819565b6001600160a01b03166391d1485482336040516001600160e01b031960e085901b16815260048101929092526001600160a01b03166024820152604401602060405180830381865afa158015610553573d6000803e3d6000fd5b505050506040513d601f19601f820116820180604052508101906105779190610836565b6105935760405162461bcd60e51b81526004016102ad90610858565b603454604051632770a7eb60e21b81526001600160a01b0385811660048301526024820185905290911690639dc29fac90604401610435565b603454604051632770a7eb60e21b8152336004820152602481018390526000916001600160a01b031690639dc29fac90604401600060405180830381600087803b15801561061957600080fd5b505af115801561062d573d6000803e3d6000fd5b50506034546040516340c10f1960e01b81526001600160a01b0387811660048301526024820187905290911692506340c10f199150604401600060405180830381600087803b15801561067f57600080fd5b505af1158015610693573d6000803e3d6000fd5b5060019695505050505050565b60006106ac6001610729565b905080156106c4576000805461ff0019166101001790555b603380546001600160a01b0319166001600160a01b0384161790558015610725576000805461ff0019169055604051600181527f7f26b83ff96e1f2b6a682f133852f6798a09c465da95921460cefb38474024989060200160405180910390a15b5050565b60008054610100900460ff1615610770578160ff16600114801561074c5750303b155b6107685760405162461bcd60e51b81526004016102ad90610899565b506000919050565b60005460ff8084169116106107975760405162461bcd60e51b81526004016102ad90610899565b506000805460ff191660ff92909216919091179055600190565b6001600160a01b03811681146107c657600080fd5b50565b6000602082840312156107db57600080fd5b81356107e6816107b1565b9392505050565b6000806040838503121561080057600080fd5b823561080b816107b1565b946020939093013593505050565b60006020828403121561082b57600080fd5b81516107e6816107b1565b60006020828403121561084857600080fd5b815180151581146107e657600080fd5b60208082526021908201527f4d6f72706865724f7261636c653a205065726d697373696f6e2064656e6965646040820152601760f91b606082015260800190565b6020808252602e908201527f496e697469616c697a61626c653a20636f6e747261637420697320616c72656160408201526d191e481a5b9a5d1a585b1a5e995960921b60608201526080019056fea2646970667358221220455b2f2809e530b162f92715478d04647ff88102068dd074ad54b8e51398e7a964736f6c634300080b0033",
    "linkReferences": {}
  },
  "methodIdentifiers": {
    "ADMINISTRATOR_ROLE()": "f45edb5f",
    "BURNER_ROLE()": "282c51f3",
    "MINTER_ROLE()": "d5391393",
    "burn(address,uint256)": "9dc29fac",
    "initialize(address)": "c4d66de8",
    "mint(address,uint256)": "40c10f19",
    "transfer(address,uint256)": "a9059cbb",
    "updateDeprecatedMorpherStateAddress(address)": "107df586"
  },
  "id": 7
}