{"abi":[{"type":"function","name":"ADMINISTRATOR_ROLE","inputs":[],"outputs":[{"name":"","type":"bytes32","internalType":"bytes32"}],"stateMutability":"view"},{"type":"function","name":"ORACLE_ROLE","inputs":[],"outputs":[{"name":"","type":"bytes32","internalType":"bytes32"}],"stateMutability":"view"},{"type":"function","name":"POSITIONADMIN_ROLE","inputs":[],"outputs":[{"name":"","type":"bytes32","internalType":"bytes32"}],"stateMutability":"view"},{"type":"function","name":"calculateMarginInterest","inputs":[{"name":"_averagePrice","type":"uint256","internalType":"uint256"},{"name":"_averageLeverage","type":"uint256","internalType":"uint256"},{"name":"_positionTimeStampInMs","type":"uint256","internalType":"uint256"}],"outputs":[{"name":"","type":"uint256","internalType":"uint256"}],"stateMutability":"view"},{"type":"function","name":"cancelOrder","inputs":[{"name":"_orderId","type":"bytes32","internalType":"bytes32"},{"name":"_address","type":"address","internalType":"address"}],"outputs":[],"stateMutability":"nonpayable"},{"type":"function","name":"computeLiquidationPrice","inputs":[{"name":"_orderId","type":"bytes32","internalType":"bytes32"}],"outputs":[{"name":"_liquidationPrice","type":"uint256","internalType":"uint256"}],"stateMutability":"nonpayable"},{"type":"function","name":"deployedTimeStamp","inputs":[],"outputs":[{"name":"","type":"uint256","internalType":"uint256"}],"stateMutability":"view"},{"type":"function","name":"escrowOpenOrderEnabled","inputs":[],"outputs":[{"name":"","type":"bool","internalType":"bool"}],"stateMutability":"view"},{"type":"function","name":"exposureByMarket","inputs":[{"name":"","type":"bytes32","internalType":"bytes32"}],"outputs":[{"name":"maxMappingIndex","type":"uint256","internalType":"uint256"}],"stateMutability":"view"},{"type":"function","name":"getDeactivatedMarketPrice","inputs":[{"name":"_marketId","type":"bytes32","internalType":"bytes32"}],"outputs":[{"name":"","type":"uint256","internalType":"uint256"}],"stateMutability":"view"},{"type":"function","name":"getExposureMappingAddress","inputs":[{"name":"_marketId","type":"bytes32","internalType":"bytes32"},{"name":"_mappingIndex","type":"uint256","internalType":"uint256"}],"outputs":[{"name":"_address","type":"address","internalType":"address"}],"stateMutability":"view"},{"type":"function","name":"getExposureMappingIndex","inputs":[{"name":"_marketId","type":"bytes32","internalType":"bytes32"},{"name":"_address","type":"address","internalType":"address"}],"outputs":[{"name":"_mappingIndex","type":"uint256","internalType":"uint256"}],"stateMutability":"view"},{"type":"function","name":"getLiquidationPrice","inputs":[{"name":"_newMeanEntryPrice","type":"uint256","internalType":"uint256"},{"name":"_newMeanEntryLeverage","type":"uint256","internalType":"uint256"},{"name":"_long","type":"bool","internalType":"bool"},{"name":"_positionTimestampInMs","type":"uint256","internalType":"uint256"}],"outputs":[{"name":"","type":"uint256","internalType":"uint256"}],"stateMutability":"view"},{"type":"function","name":"getMaxMappingIndex","inputs":[{"name":"_marketId","type":"bytes32","internalType":"bytes32"}],"outputs":[{"name":"_maxMappingIndex","type":"uint256","internalType":"uint256"}],"stateMutability":"view"},{"type":"function","name":"getOrder","inputs":[{"name":"_orderId","type":"bytes32","internalType":"bytes32"}],"outputs":[{"name":"_userId","type":"address","internalType":"address"},{"name":"_marketId","type":"bytes32","internalType":"bytes32"},{"name":"_closeSharesAmount","type":"uint256","internalType":"uint256"},{"name":"_openMPHTokenAmount","type":"uint256","internalType":"uint256"},{"name":"_marketPrice","type":"uint256","internalType":"uint256"},{"name":"_marketSpread","type":"uint256","internalType":"uint256"},{"name":"_orderLeverage","type":"uint256","internalType":"uint256"}],"stateMutability":"view"},{"type":"function","name":"getPosition","inputs":[{"name":"_address","type":"address","internalType":"address"},{"name":"_marketId","type":"bytes32","internalType":"bytes32"}],"outputs":[{"name":"","type":"tuple","internalType":"struct MorpherTradeEngine.position","components":[{"name":"lastUpdated","type":"uint256","internalType":"uint256"},{"name":"longShares","type":"uint256","internalType":"uint256"},{"name":"shortShares","type":"uint256","internalType":"uint256"},{"name":"meanEntryPrice","type":"uint256","internalType":"uint256"},{"name":"meanEntrySpread","type":"uint256","internalType":"uint256"},{"name":"meanEntryLeverage","type":"uint256","internalType":"uint256"},{"name":"liquidationPrice","type":"uint256","internalType":"uint256"},{"name":"positionHash","type":"bytes32","internalType":"bytes32"}]}],"stateMutability":"view"},{"type":"function","name":"getPositionHash","inputs":[{"name":"_address","type":"address","internalType":"address"},{"name":"_marketId","type":"bytes32","internalType":"bytes32"},{"name":"_timeStamp","type":"uint256","internalType":"uint256"},{"name":"_longShares","type":"uint256","internalType":"uint256"},{"name":"_shortShares","type":"uint256","internalType":"uint256"},{"name":"_meanEntryPrice","type":"uint256","internalType":"uint256"},{"name":"_meanEntrySpread","type":"uint256","internalType":"uint256"},{"name":"_meanEntryLeverage","type":"uint256","internalType":"uint256"},{"name":"_liquidationPrice","type":"uint256","internalType":"uint256"}],"outputs":[{"name":"_hash","type":"bytes32","internalType":"bytes32"}],"stateMutability":"pure"},{"type":"function","name":"initialize","inputs":[{"name":"_stateAddress","type":"address","internalType":"address"},{"name":"_escrowOpenOrderEnabled","type":"bool","internalType":"bool"},{"name":"_deployedTimestampOverride","type":"uint256","internalType":"uint256"}],"outputs":[],"stateMutability":"nonpayable"},{"type":"function","name":"lastOrderId","inputs":[],"outputs":[{"name":"","type":"bytes32","internalType":"bytes32"}],"stateMutability":"view"},{"type":"function","name":"longShareValue","inputs":[{"name":"_positionAveragePrice","type":"uint256","internalType":"uint256"},{"name":"_positionAverageLeverage","type":"uint256","internalType":"uint256"},{"name":"_positionTimeStampInMs","type":"uint256","internalType":"uint256"},{"name":"_marketPrice","type":"uint256","internalType":"uint256"},{"name":"_marketSpread","type":"uint256","internalType":"uint256"},{"name":"_orderLeverage","type":"uint256","internalType":"uint256"},{"name":"_sell","type":"bool","internalType":"bool"}],"outputs":[{"name":"_shareValue","type":"uint256","internalType":"uint256"}],"stateMutability":"view"},{"type":"function","name":"morpherState","inputs":[],"outputs":[{"name":"","type":"address","internalType":"contract MorpherState"}],"stateMutability":"view"},{"type":"function","name":"orderNonce","inputs":[],"outputs":[{"name":"","type":"uint256","internalType":"uint256"}],"stateMutability":"view"},{"type":"function","name":"orders","inputs":[{"name":"","type":"bytes32","internalType":"bytes32"}],"outputs":[{"name":"userId","type":"address","internalType":"address"},{"name":"marketId","type":"bytes32","internalType":"bytes32"},{"name":"closeSharesAmount","type":"uint256","internalType":"uint256"},{"name":"openMPHTokenAmount","type":"uint256","internalType":"uint256"},{"name":"tradeDirection","type":"bool","internalType":"bool"},{"name":"liquidationTimestamp","type":"uint256","internalType":"uint256"},{"name":"marketPrice","type":"uint256","internalType":"uint256"},{"name":"marketSpread","type":"uint256","internalType":"uint256"},{"name":"orderLeverage","type":"uint256","internalType":"uint256"},{"name":"timeStamp","type":"uint256","internalType":"uint256"},{"name":"orderEscrowAmount","type":"uint256","internalType":"uint256"},{"name":"modifyPosition","type":"tuple","internalType":"struct MorpherTradeEngine.OrderModifier","components":[{"name":"longSharesOrder","type":"uint256","internalType":"uint256"},{"name":"shortSharesOrder","type":"uint256","internalType":"uint256"},{"name":"balanceDown","type":"uint256","internalType":"uint256"},{"name":"balanceUp","type":"uint256","internalType":"uint256"},{"name":"newLongShares","type":"uint256","internalType":"uint256"},{"name":"newShortShares","type":"uint256","internalType":"uint256"},{"name":"newMeanEntryPrice","type":"uint256","internalType":"uint256"},{"name":"newMeanEntrySpread","type":"uint256","internalType":"uint256"},{"name":"newMeanEntryLeverage","type":"uint256","internalType":"uint256"},{"name":"newLiquidationPrice","type":"uint256","internalType":"uint256"}]}],"stateMutability":"view"},{"type":"function","name":"portfolio","inputs":[{"name":"","type":"address","internalType":"address"},{"name":"","type":"bytes32","internalType":"bytes32"}],"outputs":[{"name":"lastUpdated","type":"uint256","internalType":"uint256"},{"name":"longShares","type":"uint256","internalType":"uint256"},{"name":"shortShares","type":"uint256","internalType":"uint256"},{"name":"meanEntryPrice","type":"uint256","internalType":"uint256"},{"name":"meanEntrySpread","type":"uint256","internalType":"uint256"},{"name":"meanEntryLeverage","type":"uint256","internalType":"uint256"},{"name":"liquidationPrice","type":"uint256","internalType":"uint256"},{"name":"positionHash","type":"bytes32","internalType":"bytes32"}],"stateMutability":"view"},{"type":"function","name":"priceLockDeactivatedMarket","inputs":[{"name":"","type":"bytes32","internalType":"bytes32"}],"outputs":[{"name":"lockedPrice","type":"uint256","internalType":"uint256"}],"stateMutability":"view"},{"type":"function","name":"processOrder","inputs":[{"name":"_orderId","type":"bytes32","internalType":"bytes32"},{"name":"_marketPrice","type":"uint256","internalType":"uint256"},{"name":"_marketSpread","type":"uint256","internalType":"uint256"},{"name":"_liquidationTimestamp","type":"uint256","internalType":"uint256"},{"name":"_timeStampInMS","type":"uint256","internalType":"uint256"}],"outputs":[{"name":"","type":"tuple","internalType":"struct MorpherTradeEngine.position","components":[{"name":"lastUpdated","type":"uint256","internalType":"uint256"},{"name":"longShares","type":"uint256","internalType":"uint256"},{"name":"shortShares","type":"uint256","internalType":"uint256"},{"name":"meanEntryPrice","type":"uint256","internalType":"uint256"},{"name":"meanEntrySpread","type":"uint256","internalType":"uint256"},{"name":"meanEntryLeverage","type":"uint256","internalType":"uint256"},{"name":"liquidationPrice","type":"uint256","internalType":"uint256"},{"name":"positionHash","type":"bytes32","internalType":"bytes32"}]}],"stateMutability":"nonpayable"},{"type":"function","name":"requestOrderId","inputs":[{"name":"_address","type":"address","internalType":"address"},{"name":"_marketId","type":"bytes32","internalType":"bytes32"},{"name":"_closeSharesAmount","type":"uint256","internalType":"uint256"},{"name":"_openMPHTokenAmount","type":"uint256","internalType":"uint256"},{"name":"_tradeDirection","type":"bool","internalType":"bool"},{"name":"_orderLeverage","type":"uint256","internalType":"uint256"}],"outputs":[{"name":"_orderId","type":"bytes32","internalType":"bytes32"}],"stateMutability":"nonpayable"},{"type":"function","name":"setDeactivatedMarketPrice","inputs":[{"name":"_marketId","type":"bytes32","internalType":"bytes32"},{"name":"_price","type":"uint256","internalType":"uint256"}],"outputs":[],"stateMutability":"nonpayable"},{"type":"function","name":"setEscrowOpenOrderEnabled","inputs":[{"name":"_isEnabled","type":"bool","internalType":"bool"}],"outputs":[],"stateMutability":"nonpayable"},{"type":"function","name":"setMorpherState","inputs":[{"name":"_stateAddress","type":"address","internalType":"address"}],"outputs":[],"stateMutability":"nonpayable"},{"type":"function","name":"setPosition","inputs":[{"name":"_address","type":"address","internalType":"address"},{"name":"_marketId","type":"bytes32","internalType":"bytes32"},{"name":"_timeStamp","type":"uint256","internalType":"uint256"},{"name":"_longShares","type":"uint256","internalType":"uint256"},{"name":"_shortShares","type":"uint256","internalType":"uint256"},{"name":"_meanEntryPrice","type":"uint256","internalType":"uint256"},{"name":"_meanEntrySpread","type":"uint256","internalType":"uint256"},{"name":"_meanEntryLeverage","type":"uint256","internalType":"uint256"},{"name":"_liquidationPrice","type":"uint256","internalType":"uint256"}],"outputs":[],"stateMutability":"nonpayable"},{"type":"function","name":"shortShareValue","inputs":[{"name":"_positionAveragePrice","type":"uint256","internalType":"uint256"},{"name":"_positionAverageLeverage","type":"uint256","internalType":"uint256"},{"name":"_positionTimeStampInMs","type":"uint256","internalType":"uint256"},{"name":"_marketPrice","type":"uint256","internalType":"uint256"},{"name":"_marketSpread","type":"uint256","internalType":"uint256"},{"name":"_orderLeverage","type":"uint256","internalType":"uint256"},{"name":"_sell","type":"bool","internalType":"bool"}],"outputs":[{"name":"_shareValue","type":"uint256","internalType":"uint256"}],"stateMutability":"view"},{"type":"event","name":"EscrowPaid","inputs":[{"name":"orderId","type":"bytes32","indexed":false,"internalType":"bytes32"},{"name":"user","type":"address","indexed":false,"internalType":"address"},{"name":"escrowAmount","type":"uint256","indexed":false,"internalType":"uint256"}],"anonymous":false},{"type":"event","name":"EscrowReturned","inputs":[{"name":"orderId","type":"bytes32","indexed":false,"internalType":"bytes32"},{"name":"user","type":"address","indexed":false,"internalType":"address"},{"name":"escrowAmount","type":"uint256","indexed":false,"internalType":"uint256"}],"anonymous":false},{"type":"event","name":"Initialized","inputs":[{"name":"version","type":"uint8","indexed":false,"internalType":"uint8"}],"anonymous":false},{"type":"event","name":"LinkState","inputs":[{"name":"_address","type":"address","indexed":false,"internalType":"address"}],"anonymous":false},{"type":"event","name":"LockedPriceForClosingPositions","inputs":[{"name":"_marketId","type":"bytes32","indexed":false,"internalType":"bytes32"},{"name":"_price","type":"uint256","indexed":false,"internalType":"uint256"}],"anonymous":false},{"type":"event","name":"OrderCancelled","inputs":[{"name":"_orderId","type":"bytes32","indexed":true,"internalType":"bytes32"},{"name":"_address","type":"address","indexed":true,"internalType":"address"}],"anonymous":false},{"type":"event","name":"OrderIdRequested","inputs":[{"name":"_orderId","type":"bytes32","indexed":false,"internalType":"bytes32"},{"name":"_address","type":"address","indexed":true,"internalType":"address"},{"name":"_marketId","type":"bytes32","indexed":true,"internalType":"bytes32"},{"name":"_closeSharesAmount","type":"uint256","indexed":false,"internalType":"uint256"},{"name":"_openMPHTokenAmount","type":"uint256","indexed":false,"internalType":"uint256"},{"name":"_tradeDirection","type":"bool","indexed":false,"internalType":"bool"},{"name":"_orderLeverage","type":"uint256","indexed":false,"internalType":"uint256"}],"anonymous":false},{"type":"event","name":"OrderProcessed","inputs":[{"name":"_orderId","type":"bytes32","indexed":false,"internalType":"bytes32"},{"name":"_marketPrice","type":"uint256","indexed":false,"internalType":"uint256"},{"name":"_marketSpread","type":"uint256","indexed":false,"internalType":"uint256"},{"name":"_liquidationTimestamp","type":"uint256","indexed":false,"internalType":"uint256"},{"name":"_timeStamp","type":"uint256","indexed":false,"internalType":"uint256"},{"name":"_newLongShares","type":"uint256","indexed":false,"internalType":"uint256"},{"name":"_newShortShares","type":"uint256","indexed":false,"internalType":"uint256"},{"name":"_newAverageEntry","type":"uint256","indexed":false,"internalType":"uint256"},{"name":"_newAverageSpread","type":"uint256","indexed":false,"internalType":"uint256"},{"name":"_newAverageLeverage","type":"uint256","indexed":false,"internalType":"uint256"},{"name":"_liquidationPrice","type":"uint256","indexed":false,"internalType":"uint256"}],"anonymous":false},{"type":"event","name":"PositionLiquidated","inputs":[{"name":"_address","type":"address","indexed":true,"internalType":"address"},{"name":"_marketId","type":"bytes32","indexed":true,"internalType":"bytes32"},{"name":"_longPosition","type":"bool","indexed":false,"internalType":"bool"},{"name":"_timeStamp","type":"uint256","indexed":false,"internalType":"uint256"},{"name":"_marketPrice","type":"uint256","indexed":false,"internalType":"uint256"},{"name":"_marketSpread","type":"uint256","indexed":false,"internalType":"uint256"}],"anonymous":false},{"type":"event","name":"PositionUpdated","inputs":[{"name":"_userId","type":"address","indexed":false,"internalType":"address"},{"name":"_marketId","type":"bytes32","indexed":false,"internalType":"bytes32"},{"name":"_timeStamp","type":"uint256","indexed":false,"internalType":"uint256"},{"name":"_newLongShares","type":"uint256","indexed":false,"internalType":"uint256"},{"name":"_newShortShares","type":"uint256","indexed":false,"internalType":"uint256"},{"name":"_newMeanEntryPrice","type":"uint256","indexed":false,"internalType":"uint256"},{"name":"_newMeanEntrySpread","type":"uint256","indexed":false,"internalType":"uint256"},{"name":"_newMeanEntryLeverage","type":"uint256","indexed":false,"internalType":"uint256"},{"name":"_newLiquidationPrice","type":"uint256","indexed":false,"internalType":"uint256"},{"name":"_mint","type":"uint256","indexed":false,"internalType":"uint256"},{"name":"_burn","type":"uint256","indexed":false,"internalType":"uint256"}],"anonymous":false},{"type":"event","name":"ResetTimestampInOrder","inputs":[{"name":"_orderId","type":"bytes32","indexed":false,"internalType":"bytes32"},{"name":"oldTimestamp","type":"uint256","indexed":false,"internalType":"uint256"},{"name":"newTimestamp","type":"uint256","indexed":false,"internalType":"uint256"}],"anonymous":false},{"type":"event","name":"SetPosition","inputs":[{"name":"positionHash","type":"bytes32","indexed":true,"internalType":"bytes32"},{"name":"sender","type":"address","indexed":true,"internalType":"address"},{"name":"marketId","type":"bytes32","indexed":true,"internalType":"bytes32"},{"name":"timeStamp","type":"uint256","indexed":false,"internalType":"uint256"},{"name":"longShares","type":"uint256","indexed":false,"internalType":"uint256"},{"name":"shortShares","type":"uint256","indexed":false,"internalType":"uint256"},{"name":"meanEntryPrice","type":"uint256","indexed":false,"internalType":"uint256"},{"name":"meanEntrySpread","type":"uint256","indexed":false,"internalType":"uint256"},{"name":"meanEntryLeverage","type":"uint256","indexed":false,"internalType":"uint256"},{"name":"liquidationPrice","type":"uint256","indexed":false,"internalType":"uint256"}],"anonymous":false}],"bytecode":{"object":"0x608060405234801561001057600080fd5b50614b9c806100206000396000f3fe608060405234801561001057600080fd5b50600436106101f05760003560e01c80637023b7831161010f578063ac9eee28116100a2578063ee309c2211610071578063ee309c2214610792578063ef92f831146107b9578063f40b7b32146107d9578063f45edb5f146107e257600080fd5b8063ac9eee2814610746578063be7e64b614610759578063d61aed7a1461076c578063e37ff29f1461077f57600080fd5b80639c3f1e90116100de5780639c3f1e90146105355780639c92e2b4146106f3578063a386fb5614610713578063ac8f6f7f1461073357600080fd5b80637023b783146104e75780637a687444146104fc5780637dffd0401461050f578063801046681461052257600080fd5b80633062bde4116101875780635662ecc7116101565780635662ecc7146104245780635778472a1461042d57806369c66c7b146104c15780636b4f7065146104d457600080fd5b80633062bde4146103cb5780633754c565146103eb5780634702513c146103fe578063480ee2071461041157600080fd5b806316194bac116101c357806316194bac1461035a57806316f77a5b1461037757806316f8de891461038a5780632d7b42c11461039357600080fd5b806307e2cea5146101f55780630e2e7ed31461021d5780630fa8f516146102485780631035b2f1146102bc575b600080fd5b61020a600080516020614b2783398151915281565b6040519081526020015b60405180910390f35b603354610230906001600160a01b031681565b6040516001600160a01b039091168152602001610214565b61025b610256366004614606565b6107f7565b6040516102149190600061010082019050825182526020830151602083015260408301516040830152606083015160608301526080830151608083015260a083015160a083015260c083015160c083015260e083015160e083015292915050565b61031f6102ca366004614606565b603a602052816000526040600020602052806000526040600020600091509150508060000154908060010154908060020154908060030154908060040154908060050154908060060154908060070154905088565b604080519889526020890197909752958701949094526060860192909252608085015260a084015260c083015260e082015261010001610214565b6037546103679060ff1681565b6040519015158152602001610214565b61025b610385366004614632565b610882565b61020a60345481565b6102306103a136600461466d565b6000918252603b60209081526040808420928452600290920190529020546001600160a01b031690565b61020a6103d936600461468f565b603b6020526000908152604090205481565b61020a6103f93660046146b6565b61119d565b61020a61040c36600461468f565b6112ba565b61020a61041f3660046146b6565b611381565b61020a60355481565b61048261043b36600461468f565b60009081526039602052604090208054600182015460028301546003840154600685015460078601546008909601546001600160a01b039095169693959294919390929190565b604080516001600160a01b0390981688526020880196909652948601939093526060850191909152608084015260a083015260c082015260e001610214565b61020a6104cf366004614716565b611408565b61020a6104e2366004614746565b611434565b6104fa6104f536600461466d565b6115cd565b005b61020a61050a366004614772565b611732565b61020a61051d3660046147da565b6117aa565b6104fa610530366004614819565b611858565b61061e61054336600461468f565b60396020908152600091825260409182902080546001820154600283015460038401546004850154600586015460068701546007880154600889015460098a0154600a8b01548d5161014081018f52600b8d01548152600c8d01549d81019d909d52600d8c01549d8d019d909d52600e8b015460608d0152600f8b015460808d015260108b015460a08d015260118b015460c08d015260128b015460e08d015260138b01546101008d01526014909a01546101208c01526001600160a01b039098169a96999598949760ff909416969295919490939290918c565b604080516001600160a01b03909d168d526020808e019c909c528c81019a909a526060808d01999099529615156080808d019190915260a0808d019790975260c0808d019690965260e0808d0195909552610100808d0194909452610120808d01939093526101408c019190915286516101608c0152988601516101808b0152968501516101a08a0152948401516101c0890152958301516101e0880152908201516102008701528101516102208601529283015161024085015282015161026084015201516102808201526102a001610214565b61020a61070136600461468f565b60386020526000908152604090205481565b61020a61072136600461468f565b60009081526038602052604090205490565b61020a61074136600461483d565b6119c3565b6104fa61075436600461489b565b611e42565b6104fa610767366004614772565b611f6b565b6104fa61077a366004614716565b6120af565b6104fa61078d3660046148b8565b6124d3565b61020a7fd7753d4b699289191763bde82d59e1de5c3c491e8ee2ca272786ed78707b323a81565b61020a6107c736600461468f565b6000908152603b602052604090205490565b61020a60365481565b61020a600080516020614b4783398151915281565b6107ff6145a9565b506001600160a01b0382166000908152603a60209081526040808320848452825291829020825161010081018452815481526001820154928101929092526002810154928201929092526003820154606082015260048201546080820152600582015460a0820152600682015460c082015260079091015460e082015292915050565b61088a6145a9565b60335460408051630140cb6560e51b81529051600080516020614b27833981519152926001600160a01b0316916328196ca09160048083019260209291908290030181865afa1580156108e1573d6000803e3d6000fd5b505050506040513d601f19601f8201168201806040525081019061090591906148f9565b6001600160a01b03166391d1485482336040516001600160e01b031960e085901b16815260048101929092526001600160a01b03166024820152604401602060405180830381865afa15801561095f573d6000803e3d6000fd5b505050506040513d601f19601f820116820180604052508101906109839190614916565b6109a85760405162461bcd60e51b815260040161099f90614933565b60405180910390fd5b6000878152603960205260409020546001600160a01b0316610a325760405162461bcd60e51b815260206004820152603e60248201527f4d6f72706865725472616465456e67696e653a20756e61626c6520746f20707260448201527f6f636573732c206f7264657220686173206265656e2064656c657465642e0000606482015260840161099f565b60008611610aba5760405162461bcd60e51b815260206004820152604960248201527f4d6f72706865725472616465456e67696e653a206d61726b657420707269636560448201527f64206174207a65726f2e20427579206f726465722063616e6e6f7420626520706064820152683937b1b2b9b9b2b21760b91b608482015260a40161099f565b84861015610b4e5760405162461bcd60e51b815260206004820152605560248201527f4d6f72706865725472616465456e67696e653a206d61726b657420707269636560448201527f206c6f776572207468656e206d61726b6574207370726561642e204f726465726064820152741031b0b73737ba10313290383937b1b2b9b9b2b21760591b608482015260a40161099f565b60008781526039602052604090819020600681018890556007810187905560098101859055600581018690556033546001909101549151634a4cce9760e01b815260048101929092526001600160a01b031690634a4cce9790602401602060405180830381865afa158015610bc7573d6000803e3d6000fd5b505050506040513d601f19601f82011682018060405250810190610beb9190614916565b610c2457610bf887612620565b6000878152603960208181526040808420600181015485526038835290842054938b9052919052600601555b600087815260396020908152604080832080546001600160a01b03168452603a83528184206001909101548452909152902054841115610c6c57610c6787612661565b610dc3565b603360009054906101000a90046001600160a01b03166001600160a01b03166350a71bac6040518163ffffffff1660e01b8152600401602060405180830381865afa158015610cbf573d6000803e3d6000fd5b505050506040513d601f19601f82011682018060405250810190610ce391906148f9565b60008881526039602052604090819020549051635612cd6760e11b81526001600160a01b03918216600482015291169063ac259ace90602401602060405180830381865afa158015610d39573d6000803e3d6000fd5b505050506040513d601f19601f82011682018060405250810190610d5d9190614916565b15610dc35760405162461bcd60e51b815260206004820152603060248201527f4d6f72706865725472616465456e67696e653a205573657220697320626c6f6360448201526f6b65642066726f6d2054726164696e6760801b606482015260840161099f565b610dcc87612881565b60008781526039602052604090206004015460ff1615610df457610def876129e4565b610dfd565b610dfd87612bc0565b60006039600089815260200190815260200160002060000160009054906101000a90046001600160a01b031690506000603960008a8152602001908152602001600020600101549050603960008a8152602001908152602001600020600080820160006101000a8154906001600160a01b0302191690556001820160009055600282016000905560038201600090556004820160006101000a81549060ff021916905560058201600090556006820160009055600782016000905560088201600090556009820160009055600a820160009055600b8201600080820160009055600182016000905560028201600090556003820160009055600482016000905560058201600090556006820160009055600782016000905560088201600090556009820160009055505050507f696a3d28d7b4bcfc9cbfef719a03218d7a502cda20d01f9ef8086249e81654928989898989603a6000896001600160a01b03166001600160a01b03168152602001908152602001600020600088815260200190815260200160002060010154603a60008a6001600160a01b03166001600160a01b03168152602001908152602001600020600089815260200190815260200160002060020154603a60008b6001600160a01b03166001600160a01b0316815260200190815260200160002060008a815260200190815260200160002060030154603a60008c6001600160a01b03166001600160a01b0316815260200190815260200160002060008b815260200190815260200160002060040154603a60008d6001600160a01b03166001600160a01b0316815260200190815260200160002060008c815260200190815260200160002060050154603a60008e6001600160a01b03166001600160a01b0316815260200190815260200160002060008d81526020019081526020016000206006015460405161110b9b9a999897969594939291909a8b5260208b019990995260408a01979097526060890195909552608088019390935260a087019190915260c086015260e08501526101008401526101208301526101408201526101600190565b60405180910390a16001600160a01b039091166000908152603a6020908152604080832093835292815290829020825161010081018452815481526001820154928101929092526002810154928201929092526003820154606082015260048201546080820152600582015460a0820152600682015460c082015260079091015460e082015291505095945050505050565b600087876305f5e1008110156111b457506305f5e1005b836111bf5750859050835b866111cd838360008c6117aa565b116111db57600092506112ad565b6305f5e1006111ea828261498f565b6111f490846149a7565b6111fe91906149c6565b92506305f5e10061120f82896149a7565b61121991906149c6565b61122390846149e8565b925060018415151415611287576305f5e10061123f82886149a7565b61124991906149c6565b61125390846149e8565b9250600061126283838b611434565b905083811161127c5761127581856149e8565b9350611281565b600093505b506112ad565b6305f5e10061129686886149a7565b6112a091906149c6565b6112aa908461498f565b92505b5050979650505050505050565b600081815260396020526040812060148101829055600f0154156113165760008281526039602052604090206011810154601382015460099092015461130392906001906117aa565b6000838152603960205260409020601401555b6000828152603960205260409020601001541561136b5760008281526039602052604081206011810154601382015460099092015461135893919291906117aa565b6000838152603960205260409020601401555b5060009081526039602052604090206014015490565b600087876305f5e10081101561139857506305f5e1005b836113a35750859050835b6113b0828260018b6117aa565b87116113bf57600092506112ad565b6305f5e1006113ce81836149e8565b6113d890846149a7565b6113e291906149c6565b9250826305f5e1006113f4838a6149a7565b6113fe91906149c6565b61122391906149e8565b6000828152603b602090815260408083206001600160a01b038516845260010190915290205492915050565b6000806036546103e88461144891906149c6565b1015611461576103e860365461145e91906149c6565b92505b6033546040805163e20569af60e01b815290516000926001600160a01b03169163e20569af9160048083019260209291908290030181865afa1580156114ab573d6000803e3d6000fd5b505050506040513d601f19601f820116820180604052508101906114cf91906148f9565b6001600160a01b0316630c196a746114e96103e8876149c6565b6040518263ffffffff1660e01b815260040161150791815260200190565b602060405180830381865afa158015611524573d6000803e3d6000fd5b505050506040513d601f19601f8201168201806040525081019061154891906149ff565b90506115586305f5e100866149e8565b61156290876149a7565b9150620151806115746103e8866149c6565b61157e90426149e8565b61158891906149c6565b61159290836149a7565b61159d90600161498f565b91506305f5e100806115af83856149a7565b6115b991906149c6565b6115c391906149c6565b9695505050505050565b60335460408051630140cb6560e51b81529051600080516020614b47833981519152926001600160a01b0316916328196ca09160048083019260209291908290030181865afa158015611624573d6000803e3d6000fd5b505050506040513d601f19601f8201168201806040525081019061164891906148f9565b6001600160a01b03166391d1485482336040516001600160e01b031960e085901b16815260048101929092526001600160a01b03166024820152604401602060405180830381865afa1580156116a2573d6000803e3d6000fd5b505050506040513d601f19601f820116820180604052508101906116c69190614916565b6116e25760405162461bcd60e51b815260040161099f90614933565b60008381526038602090815260409182902084905581518581529081018490527f3cf30f15febef0d3f8e86318070db2c80d03fd14e8406d326aab41cb043f1839910160405180910390a1505050565b6040805160609a909a1b6bffffffffffffffffffffffff19166020808c019190915260348b019990995260548a01979097526074890195909552609488019390935260b487019190915260d486015260f485015261011480850191909152815180850390910181526101349093019052815191012090565b60008060006117ba878786611434565b90506000866117cd6305f5e100846149a7565b6117d791906149c6565b90506001861515141561181a57866117f36305f5e100826149e8565b6117fd908a6149a7565b61180791906149c6565b9250611813818461498f565b925061184c565b866118296305f5e1008261498f565b611833908a6149a7565b61183d91906149c6565b925061184981846149e8565b92505b50909695505050505050565b60335460408051630140cb6560e51b81529051600080516020614b47833981519152926001600160a01b0316916328196ca09160048083019260209291908290030181865afa1580156118af573d6000803e3d6000fd5b505050506040513d601f19601f820116820180604052508101906118d391906148f9565b6001600160a01b03166391d1485482336040516001600160e01b031960e085901b16815260048101929092526001600160a01b03166024820152604401602060405180830381865afa15801561192d573d6000803e3d6000fd5b505050506040513d601f19601f820116820180604052508101906119519190614916565b61196d5760405162461bcd60e51b815260040161099f90614933565b603380546001600160a01b0319166001600160a01b0384169081179091556040519081527f978c711532bae8c58f353b0f3c7f3a0dfe600d9ae9a81818f2ad2919b88e1990906020015b60405180910390a15050565b6000600080516020614b27833981519152603360009054906101000a90046001600160a01b03166001600160a01b03166328196ca06040518163ffffffff1660e01b8152600401602060405180830381865afa158015611a27573d6000803e3d6000fd5b505050506040513d601f19601f82011682018060405250810190611a4b91906148f9565b6001600160a01b03166391d1485482336040516001600160e01b031960e085901b16815260048101929092526001600160a01b03166024820152604401602060405180830381865afa158015611aa5573d6000803e3d6000fd5b505050506040513d601f19601f82011682018060405250810190611ac99190614916565b611ae55760405162461bcd60e51b815260040161099f90614933565b6305f5e100831015611b695760405162461bcd60e51b815260206004820152604160248201527f4d6f72706865725472616465456e67696e653a206c6576657261676520746f6f60448201527f20736d616c6c2e204c6576657261676520707265636973696f6e2069732031656064820152600760fb1b608482015260a40161099f565b603360009054906101000a90046001600160a01b03166001600160a01b0316637c995e916040518163ffffffff1660e01b8152600401602060405180830381865afa158015611bbc573d6000803e3d6000fd5b505050506040513d601f19601f82011682018060405250810190611be091906149ff565b831115611c555760405162461bcd60e51b815260206004820152603e60248201527f4d6f72706865725472616465456e67696e653a206c657665726167652065786360448201527f65656473206d6178696d756d20616c6c6f776564206c657665726167652e0000606482015260840161099f565b611c628888888888612da1565b8415611cfd578315611cb8576001600160a01b0388166000908152603a602090815260408083208a84529091529020600201548614611cb35760405162461bcd60e51b815260040161099f90614a18565b611cfd565b6001600160a01b0388166000908152603a602090815260408083208a84529091529020600101548614611cfd5760405162461bcd60e51b815260040161099f90614a18565b60348054906000611d0d83614a9b565b9091555050603480546040516bffffffffffffffffffffffff1960608c901b166020820152439281019290925260548201899052607482018890526094820187905285151560f81b60b483015260b5820185905260d582015260f50160408051808303601f190181528282528051602091820120603581905560008181526039835283902080546001600160a01b0319166001600160a01b038e169081178255600182018d9055600282018c9055600382018b905560048201805460ff19168b151590811790915560089092018990558286529285018b905292840189905260608401929092526080830186905290935088917fd5dec9e768ba83c154ee9ecf7a0c145c8e7ee75e1cc4af2d271a1f9c93bb39469060a00160405180910390a3611e378286613051565b509695505050505050565b60335460408051630140cb6560e51b81529051600080516020614b47833981519152926001600160a01b0316916328196ca09160048083019260209291908290030181865afa158015611e99573d6000803e3d6000fd5b505050506040513d601f19601f82011682018060405250810190611ebd91906148f9565b6001600160a01b03166391d1485482336040516001600160e01b031960e085901b16815260048101929092526001600160a01b03166024820152604401602060405180830381865afa158015611f17573d6000803e3d6000fd5b505050506040513d601f19601f82011682018060405250810190611f3b9190614916565b611f575760405162461bcd60e51b815260040161099f90614933565b506037805460ff1916911515919091179055565b60335460408051630140cb6560e51b815290517fd7753d4b699289191763bde82d59e1de5c3c491e8ee2ca272786ed78707b323a926001600160a01b0316916328196ca09160048083019260209291908290030181865afa158015611fd4573d6000803e3d6000fd5b505050506040513d601f19601f82011682018060405250810190611ff891906148f9565b6001600160a01b03166391d1485482336040516001600160e01b031960e085901b16815260048101929092526001600160a01b03166024820152604401602060405180830381865afa158015612052573d6000803e3d6000fd5b505050506040513d601f19601f820116820180604052508101906120769190614916565b6120925760405162461bcd60e51b815260040161099f90614933565b6120a38a8a8a8a8a8a8a8a8a6131c7565b50505050505050505050565b60335460408051630140cb6560e51b81529051600080516020614b27833981519152926001600160a01b0316916328196ca09160048083019260209291908290030181865afa158015612106573d6000803e3d6000fd5b505050506040513d601f19601f8201168201806040525081019061212a91906148f9565b6001600160a01b03166391d1485482336040516001600160e01b031960e085901b16815260048101929092526001600160a01b03166024820152604401602060405180830381865afa158015612184573d6000803e3d6000fd5b505050506040513d601f19601f820116820180604052508101906121a89190614916565b6121c45760405162461bcd60e51b815260040161099f90614933565b6000838152603960205260409020546001600160a01b03838116911614806122de5750603360009054906101000a90046001600160a01b03166001600160a01b03166328196ca06040518163ffffffff1660e01b8152600401602060405180830381865afa15801561223a573d6000803e3d6000fd5b505050506040513d601f19601f8201168201806040525081019061225e91906148f9565b604051632474521560e21b8152600080516020614b4783398151915260048201526001600160a01b03848116602483015291909116906391d1485490604401602060405180830381865afa1580156122ba573d6000803e3d6000fd5b505050506040513d601f19601f820116820180604052508101906122de9190614916565b61235c5760405162461bcd60e51b815260206004820152604360248201527f4d6f72706865725472616465456e67696e653a206f6e6c792041646d696e697360448201527f747261746f72206f7220757365722063616e2063616e63656c20616e206f726460648201526232b91760e91b608482015260a40161099f565b6000838152603960205260409020546001600160a01b03166123e65760405162461bcd60e51b815260206004820152603c60248201527f4d6f72706865725472616465456e67696e653a20756e61626c6520746f20707260448201527f6f636573732c206f7264657220646f6573206e6f742065786973742e00000000606482015260840161099f565b6123ef83612881565b60008381526039602052604080822080546001600160a01b031916815560018101839055600281018390556003810183905560048101805460ff191690556005810183905560068101839055600781018390556008810183905560098101839055600a8101839055600b8101839055600c8101839055600d8101839055600e8101839055600f810183905560108101839055601181018390556012810183905560138101839055601401829055516001600160a01b0384169185917fa6eb7cdc219e1518ced964e9a34e61d68a94e4f1569db3e84256ba981ba527539190a3505050565b600054610100900460ff16158080156124f35750600054600160ff909116105b8061250d5750303b15801561250d575060005460ff166001145b6125705760405162461bcd60e51b815260206004820152602e60248201527f496e697469616c697a61626c653a20636f6e747261637420697320616c72656160448201526d191e481a5b9a5d1a585b1a5e995960921b606482015260840161099f565b6000805460ff191660011790558015612593576000805461ff0019166101001790555b61259b61330b565b603380546001600160a01b0319166001600160a01b0386161790556037805460ff1916841515179055816125cf57426125d1565b815b603655801561261a576000805461ff0019169055604051600181527f7f26b83ff96e1f2b6a682f133852f6798a09c465da95921460cefb38474024989060200160405180910390a15b50505050565b6000818152603960205260409020805460018201546002830154600384015460049094015461265e946001600160a01b03909416939060ff16612da1565b50565b6000818152603960209081526040808320805460018201546005909201546001600160a01b03909116808652603a8552838620838752909452919093205491929181111561261a576001600160a01b0383166000908152603a6020908152604080832085845290915290206001015415612797576000848152603960209081526040808320600901546001600160a01b0387168452603a8352818420868552909252822060020154612721928692869290919081806305f5e10081611f6b565b600084815260396020908152604091829020600981015460068201546007909201548451600181529384019190915292820152606081019190915282906001600160a01b038516907fe41babb55b71bb17aa9629797bcd2f80ff29c7c3fe5f8d20b8bf3b08d4e4f9459060800160405180910390a35b6001600160a01b0383166000908152603a602090815260408083208584529091529020600201541561261a576000848152603960209081526040808320600901546001600160a01b0387168452603a835281842086855290925282206001015461280e9286928692909180806305f5e10081611f6b565b60008481526039602090815260408083206009810154600682015460079092015483519586529385015290830152606082015282906001600160a01b038516907fe41babb55b71bb17aa9629797bcd2f80ff29c7c3fe5f8d20b8bf3b08d4e4f9459060800160405180910390a350505050565b6000818152603960205260409020600a01541561265e576000818152603960209081526040808320600a0180549390556033548151632192ab5d60e11b815291516001600160a01b039091169263432556ba92600480820193918290030181865afa1580156128f4573d6000803e3d6000fd5b505050506040513d601f19601f8201168201806040525081019061291891906148f9565b600083815260396020526040908190205490516340c10f1960e01b81526001600160a01b039182166004820152602481018490529116906340c10f1990604401600060405180830381600087803b15801561297257600080fd5b505af1158015612986573d6000803e3d6000fd5b5050506000838152603960209081526040918290205482518681526001600160a01b03909116918101919091529081018390527fbd3ba1f648c8894f4fca2dbf0a22719b08647d73e153e568d413c6dd6e6cb86191506060016119b7565b60008181526039602052604090206002015415612aa057600081815260396020818152604080842080546001600160a01b03168552603a83528185206001820154865283529084206002908101549486905292909152015411612a5f5760008181526039602052604090206002810154600c90910155612aa0565b600081815260396020818152604080842080546001600160a01b03168552603a83528185206001820154865283529084206002015493859052919052600c01555b600081815260396020818152604080842080546001600160a01b03168552603a83528185206001820154865283529084206002015493859052919052600c0154148015612afd575060008181526039602052604090206003015415155b15612b805760008181526039602052604090206006810154600890910154612b519190612b2c426103e86149a7565b6000858152603960205260408120600681015460078201546008909201549092611381565b600082815260396020526040902060030154612b6d91906149c6565b6000828152603960205260409020600b01555b6000818152603960205260409020600c015415612ba057612ba081613378565b6000818152603960205260409020600b01541561265e5761265e816134f4565b60008181526039602052604090206002015415612c7f57600081815260396020818152604080842080546001600160a01b03168552603a8352818520600180830154875290845291852090910154938590529190526002015411612c3c5760008181526039602052604090206002810154600b90910155612c7f565b600081815260396020818152604080842080546001600160a01b03168552603a835281852060018083015487529084529185209091015493859052919052600b01555b600081815260396020818152604080842080546001600160a01b03168552603a835281852060018083015487529084529185209091015493859052919052600b0154148015612cde575060008181526039602052604090206003015415155b15612d615760008181526039602052604090206006810154600890910154612d329190612d0d426103e86149a7565b600085815260396020526040812060068101546007820154600890920154909261119d565b600082815260396020526040902060030154612d4e91906149c6565b6000828152603960205260409020600c01555b6000818152603960205260409020600b015415612d8157612d8181613877565b6000818152603960205260409020600c01541561265e5761265e816139dd565b8115612ea157603354604051634a4cce9760e01b8152600481018690526001600160a01b0390911690634a4cce9790602401602060405180830381865afa158015612df0573d6000803e3d6000fd5b505050506040513d601f19601f82011682018060405250810190612e149190614916565b1515600114612e9c5760405162461bcd60e51b815260206004820152604860248201527f4d6f72706865725472616465456e67696e653a206d61726b657420756e6b6e6f60448201527f776e206f722063757272656e746c79206e6f7420656e61626c656420666f72206064820152673a3930b234b7339760c11b608482015260a40161099f565b61304a565b603354604051634a4cce9760e01b8152600481018690526001600160a01b0390911690634a4cce9790602401602060405180830381865afa158015612eea573d6000803e3d6000fd5b505050506040513d601f19601f82011682018060405250810190612f0e9190614916565b61304a5760008481526038602052604081205411612fba5760405162461bcd60e51b815260206004820152605a60248201527f4d6f72706865725472616465456e67696e653a2043616e277420636c6f73652060448201527f6120706f736974696f6e2c206d61726b6574206e6f742061637469766520616e60648201527f6420636c6f73696e67207072696365206e6f74206c6f636b6564000000000000608482015260a40161099f565b8015613005576001600160a01b0385166000908152603a602090815260408083208784529091529020600101548314612e9c5760405162461bcd60e51b815260040161099f90614ab6565b6001600160a01b0385166000908152603a60209081526040808320878452909152902060010154831461304a5760405162461bcd60e51b815260040161099f90614ab6565b5050505050565b60375460ff1680156130635750600081115b156131c357603360009054906101000a90046001600160a01b03166001600160a01b031663432556ba6040518163ffffffff1660e01b8152600401602060405180830381865afa1580156130bb573d6000803e3d6000fd5b505050506040513d601f19601f820116820180604052508101906130df91906148f9565b60008381526039602052604090819020549051632770a7eb60e21b81526001600160a01b03918216600482015260248101849052911690639dc29fac90604401600060405180830381600087803b15801561313957600080fd5b505af115801561314d573d6000803e3d6000fd5b5050506000838152603960209081526040918290205482518681526001600160a01b03909116918101919091529081018390527f558e795083bf3802836b1f3eef9c404a698512ee98b4193781cede9b89fc64d0915060600160405180910390a16000828152603960205260409020600a018190555b5050565b6001600160a01b0389166000908152603a602090815260408083208b845290915290208781556001810187905560028101869055600381018590556004810184905560058101839055600601819055613227898989898989898989611732565b6001600160a01b038a166000908152603a602090815260408083208c84529091529020600701558515158061325c5750600085115b156132705761326b888a613d58565b61327a565b61327a888a613da8565b6001600160a01b0389166000818152603a602090815260408083208c84528252918290206007015482518b81529182018a9052918101889052606081018790526080810186905260a0810185905260c081018490528a9291907f35ea872e77adbec19df83a66765d5bdc0adfe73d9ada9518cb384242ddb40d5d9060e00160405180910390a4505050505050505050565b600054610100900460ff166133765760405162461bcd60e51b815260206004820152602b60248201527f496e697469616c697a61626c653a20636f6e7472616374206973206e6f74206960448201526a6e697469616c697a696e6760a81b606482015260840161099f565b565b600081815260396020908152604080832080546001820154600c909201546001600160a01b03909116808652603a8552838620838752909452918420600201549293909290918291829182916133ce91906149e8565b905060006133db88613e46565b6001600160a01b0388166000908152603a602090815260408083208a84528252808320600201548c84526039909252909120600c0154919250141561342e5760009450600093506305f5e1009250613472565b6001600160a01b0387166000908152603a60209081526040808320898452909152902060038101546004820154600590920154909650909450925061347288613f4c565b6000888152603960208181526040808420600d8101859055600e810186905580546001600160a01b03168552603a8352818520600180830154875290845291852090910154938c9052919052600f8101919091556010810183905560118101869055601281018590556013018390556134ea88613fe8565b5050505050505050565b600081815260396020908152604080832080546001909101546001600160a01b03909116808552603a8452828520828652909352908320600501549192909181906305f5e10081101561354857506305f5e1005b6135566305f5e100826149e8565b6000878152603960209081526040808320600601546001600160a01b038a168452603a8352818420898552909252909120600301549192509061359990836149a7565b6135a391906149c6565b6001600160a01b0386166000908152603a6020908152604080832088845290915290206005015490915081101561360d576001600160a01b0385166000908152603a602090815260408083208784529091529020600501546136069082906149e8565b9050613611565b5060005b6001600160a01b0385166000908152603a602090815260408083208784529091528120600101546305f5e1009061364890846149a7565b61365291906149c6565b6001600160a01b0387166000908152603a602090815260408083208984529091529020600501549091506136879082906149a7565b6000888152603960205260409020600b8101546008909101549194506136ac916149a7565b6136b6908461498f565b6000888152603960205260409020600b01549093506136d5908261498f565b6136df90846149c6565b6001600160a01b0387166000908152603a6020908152604080832089845290915290206001810154600490910154919450613719916149a7565b6000888152603960205260409020600b81015460079091015491955061373e916149a7565b613748908561498f565b6000888152603960205260409020600b0154909450613767908261498f565b61377190856149c6565b600088815260396020526040902060088101546007820154600b909201549296506305f5e1009290916137a3916149a7565b6137ad91906149a7565b6137b791906149c6565b60008881526039602052604090206006810154600b909101546137da91906149a7565b6137e4919061498f565b6000888152603960205260408120600d810192909255600e820155600b015461380d908261498f565b6000888152603960208181526040808420600f8101959095556001600160a01b038b168452603a82528084208a85528252832060020154928b9052526010820155600681015460118201556012810185905560130183905561386e87613fe8565b50505050505050565b60008181526039602090815260408083208054600180830154600b909301546001600160a01b03909216808752603a8652848720848852909552928520909201549293909290916138c7916149e8565b905060006138d485613e46565b6001600160a01b0385166000908152603a6020908152604080832087845282528083206001015489845260399092528220600b0154929350909182918291141561392a5750600091508190506305f5e10061396c565b5050506001600160a01b0384166000908152603a6020908152604080832086845290915290206003810154600482015460059092015490919061396c88613f4c565b6000888152603960208181526040808420600d8101859055600e8101899055600f81018a90556001600160a01b038c168552603a83528185208b8652835290842060020154938c9052919052601081019190915560118101849055601281018390556013018190556134ea88613fe8565b600081815260396020908152604080832080546001909101546001600160a01b03909116808552603a8452828520828652909352908320600501549192909181906305f5e100811015613a3157506305f5e1005b613a3f6305f5e1008261498f565b6000878152603960209081526040808320600601546001600160a01b038a168452603a83528184208985529092529091206003015491925090613a8290836149a7565b613a8c91906149c6565b6001600160a01b0386166000908152603a60209081526040808320888452909152902060050154909150811115613af5576001600160a01b0385166000908152603a60209081526040808320878452909152902060050154613aee90826149e8565b9050613af9565b5060005b6001600160a01b0385166000908152603a602090815260408083208784529091528120600201546305f5e10090613b3090846149a7565b613b3a91906149c6565b6001600160a01b0387166000908152603a60209081526040808320898452909152902060050154909150613b6f9082906149a7565b6000888152603960205260409020600c810154600890910154919450613b94916149a7565b613b9e908461498f565b6000888152603960205260409020600c0154909350613bbd908261498f565b613bc790846149c6565b6001600160a01b0387166000908152603a6020908152604080832089845290915290206002810154600490910154919450613c01916149a7565b6000888152603960205260409020600c810154600790910154919550613c26916149a7565b613c30908561498f565b6000888152603960205260409020600c0154909450613c4f908261498f565b613c5990856149c6565b600088815260396020526040902060088101546007820154600c909201549296506305f5e100929091613c8b916149a7565b613c9591906149a7565b613c9f91906149c6565b60008881526039602052604090206006810154600c90910154613cc291906149a7565b613ccc919061498f565b6000888152603960208181526040808420600d810195909555600e85018490556001600160a01b038b168452603a82528084208a85528252832060010154928b905252600f820155600c0154613d22908261498f565b60008881526039602052604090206010810191909155600681015460118201556012810185905560130183905561386e87613fe8565b6000613d648383611408565b905080613da3576000838152603b6020526040812054613d8590600161498f565b6000858152603b60205260409020819055905061261a848483614530565b505050565b6000613db48383611408565b6000848152603b602090815260408083208054808552600290910190925290912054919250906001600160a01b0316821561304a5781831015613e0757613dfc858285614542565b613e0785828561457f565b613e1385600084614542565b613e1f8585600061457f565b811561304a5761304a85613e346001856149e8565b6000918252603b602052604090912055565b6000818152603960205260408120805460018201546004909201546001600160a01b039091169190839060ff16613eda576000858152603960209081526040808320600b8101546001600160a01b0388168552603a845282852087865290935292206003810154600582015491546006850154600790950154939850613ed3949193909190836001611381565b9050613f39565b6000858152603960209081526040808320600c8101546001600160a01b0388168552603a845282852087865290935292206003810154600582015491546006850154600790950154939850613f3694919390919083600161119d565b90505b613f4381856149a7565b95945050505050565b6000818152603960208181526040808420805460018201546001600160a01b03909116808752603a8552838720828852855283872054968890529484526009909101548251878152938401529082018490529192907f8c75318cfd6a0eae2329289b6827fd382e7324865986be09126ce67fc55bedc29060600160405180910390a1600093845260396020526040909320600901929092555050565b600081815260396020908152604091829020600d810154600e909101546033548451632192ab5d60e11b81529451929491936001600160a01b039091169263432556ba9260048082019392918290030181865afa15801561404d573d6000803e3d6000fd5b505050506040513d601f19601f8201168201806040525081019061407191906148f9565b600084815260396020526040908190205490516370a0823160e01b81526001600160a01b0391821660048201529116906370a0823190602401602060405180830381865afa1580156140c7573d6000803e3d6000fd5b505050506040513d601f19601f820116820180604052508101906140eb91906149ff565b6140f5919061498f565b10156141535760405162461bcd60e51b815260206004820152602760248201527f4d6f72706865725472616465456e67696e653a20696e73756666696369656e7460448201526610333ab732399760c91b606482015260840161099f565b61415c816112ba565b506000818152603960205260409020600d810154600e9091015411156141c1576000818152603960205260408120600d810154600e9091018054919290916141a59084906149e8565b90915550506000818152603960205260408120600d0155614202565b6000818152603960205260408120600e810154600d9091018054919290916141ea9084906149e8565b90915550506000818152603960205260408120600e01555b6000818152603960205260409020600e01541561430d57603360009054906101000a90046001600160a01b03166001600160a01b031663af6976c36040518163ffffffff1660e01b8152600401602060405180830381865afa15801561426c573d6000803e3d6000fd5b505050506040513d601f19601f8201168201806040525081019061429091906148f9565b600082815260396020526040908190208054600e9091015491516340c10f1960e01b81526001600160a01b039182166004820152602481019290925291909116906340c10f1990604401600060405180830381600087803b1580156142f457600080fd5b505af1158015614308573d6000803e3d6000fd5b505050505b6000818152603960205260409020600d01541561441857603360009054906101000a90046001600160a01b03166001600160a01b031663432556ba6040518163ffffffff1660e01b8152600401602060405180830381865afa158015614377573d6000803e3d6000fd5b505050506040513d601f19601f8201168201806040525081019061439b91906148f9565b600082815260396020526040908190208054600d909101549151632770a7eb60e21b81526001600160a01b03918216600482015260248101929092529190911690639dc29fac90604401600060405180830381600087803b1580156143ff57600080fd5b505af1158015614413573d6000803e3d6000fd5b505050505b6000818152603960205260409020805460018201546009830154600f8401546010850154601186015460128701546013880154601490980154614467986001600160a01b0390981697906131c7565b600081815260396020908152604091829020805460018201546009830154600f84015460108501546011860154601287015460138801546014890154600e8a0154600d909a01548c516001600160a01b03909a168a529a890197909752998701949094526060860192909252608085015260a084015260c083015260e08201949094526101008101939093526101208301526101408201527f39cf7e0047b8651259e011d0b3ed8fc2c3dc2e49ed041f1651f06429698c1c94906101600160405180910390a150565b61453b83838361457f565b613da38383835b6000928352603b602090815260408085209285526002909201905290912080546001600160a01b0319166001600160a01b03909216919091179055565b6000928352603b602090815260408085206001600160a01b03909416855260019093019052912055565b60405180610100016040528060008152602001600081526020016000815260200160008152602001600081526020016000815260200160008152602001600080191681525090565b6001600160a01b038116811461265e57600080fd5b6000806040838503121561461957600080fd5b8235614624816145f1565b946020939093013593505050565b600080600080600060a0868803121561464a57600080fd5b505083359560208501359550604085013594606081013594506080013592509050565b6000806040838503121561468057600080fd5b50508035926020909101359150565b6000602082840312156146a157600080fd5b5035919050565b801515811461265e57600080fd5b600080600080600080600060e0888a0312156146d157600080fd5b873596506020880135955060408801359450606088013593506080880135925060a0880135915060c0880135614706816146a8565b8091505092959891949750929550565b6000806040838503121561472957600080fd5b82359150602083013561473b816145f1565b809150509250929050565b60008060006060848603121561475b57600080fd5b505081359360208301359350604090920135919050565b60008060008060008060008060006101208a8c03121561479157600080fd5b893561479c816145f1565b9b60208b01359b5060408b01359a60608101359a506080810135995060a0810135985060c0810135975060e081013596506101000135945092505050565b600080600080608085870312156147f057600080fd5b84359350602085013592506040850135614809816146a8565b9396929550929360600135925050565b60006020828403121561482b57600080fd5b8135614836816145f1565b9392505050565b60008060008060008060c0878903121561485657600080fd5b8635614861816145f1565b95506020870135945060408701359350606087013592506080870135614886816146a8565b8092505060a087013590509295509295509295565b6000602082840312156148ad57600080fd5b8135614836816146a8565b6000806000606084860312156148cd57600080fd5b83356148d8816145f1565b925060208401356148e8816146a8565b929592945050506040919091013590565b60006020828403121561490b57600080fd5b8151614836816145f1565b60006020828403121561492857600080fd5b8151614836816146a8565b60208082526026908201527f4d6f72706865725472616465456e67696e653a205065726d697373696f6e206460408201526532b734b2b21760d11b606082015260800190565b634e487b7160e01b600052601160045260246000fd5b600082198211156149a2576149a2614979565b500190565b60008160001904831182151516156149c1576149c1614979565b500290565b6000826149e357634e487b7160e01b600052601260045260246000fd5b500490565b6000828210156149fa576149fa614979565b500390565b600060208284031215614a1157600080fd5b5051919050565b6020808252605f908201527f4d6f72706865725472616465456e67696e653a2043616e27742070617274696160408201527f6c6c7920636c6f7365206120706f736974696f6e20616e64206f70656e20616e60608201527f6f74686572206f6e6520696e206f70706f7369746520646972656374696f6e00608082015260a00190565b6000600019821415614aaf57614aaf614979565b5060010190565b6020808252604a908201527f4d6f72706865725472616465456e67696e653a2044656163746976617465642060408201527f6d61726b6574206f72646572206e6565647320616c6c2073686172657320746f6060820152690818994818db1bdcd95960b21b608082015260a0019056fe68e79a7bf1e0bc45d0a330c573bc367f9cf464fd326078812f301165fbda4ef1e5a0b4d50f56047f84728557fedbda92f956391bc9d5c762e8461996dd8e7ad7a26469706673582212208ce7157be07e54515f811a1b3a28ae66d11017d3686591c865feb97c2cc6c71a64736f6c634300080b0033","linkReferences":{}},"methodIdentifiers":{"ADMINISTRATOR_ROLE()":"f45edb5f","ORACLE_ROLE()":"07e2cea5","POSITIONADMIN_ROLE()":"ee309c22","calculateMarginInterest(uint256,uint256,uint256)":"6b4f7065","cancelOrder(bytes32,address)":"d61aed7a","computeLiquidationPrice(bytes32)":"4702513c","deployedTimeStamp()":"f40b7b32","escrowOpenOrderEnabled()":"16194bac","exposureByMarket(bytes32)":"3062bde4","getDeactivatedMarketPrice(bytes32)":"a386fb56","getExposureMappingAddress(bytes32,uint256)":"2d7b42c1","getExposureMappingIndex(bytes32,address)":"69c66c7b","getLiquidationPrice(uint256,uint256,bool,uint256)":"7dffd040","getMaxMappingIndex(bytes32)":"ef92f831","getOrder(bytes32)":"5778472a","getPosition(address,bytes32)":"0fa8f516","getPositionHash(address,bytes32,uint256,uint256,uint256,uint256,uint256,uint256,uint256)":"7a687444","initialize(address,bool,uint256)":"e37ff29f","lastOrderId()":"5662ecc7","longShareValue(uint256,uint256,uint256,uint256,uint256,uint256,bool)":"480ee207","morpherState()":"0e2e7ed3","orderNonce()":"16f8de89","orders(bytes32)":"9c3f1e90","portfolio(address,bytes32)":"1035b2f1","priceLockDeactivatedMarket(bytes32)":"9c92e2b4","processOrder(bytes32,uint256,uint256,uint256,uint256)":"16f77a5b","requestOrderId(address,bytes32,uint256,uint256,bool,uint256)":"ac8f6f7f","setDeactivatedMarketPrice(bytes32,uint256)":"7023b783","setEscrowOpenOrderEnabled(bool)":"ac9eee28","setMorpherState(address)":"80104668","setPosition(address,bytes32,uint256,uint256,uint256,uint256,uint256,uint256,uint256)":"be7e64b6","shortShareValue(uint256,uint256,uint256,uint256,uint256,uint256,bool)":"3754c565"},"storageLayout":{"storage":[{"astId":7090,"contract":"contracts/prev/contracts/MorpherTradeEngine.sol:MorpherTradeEngine","label":"_initialized","offset":0,"slot":"0","type":"t_uint8"},{"astId":7093,"contract":"contracts/prev/contracts/MorpherTradeEngine.sol:MorpherTradeEngine","label":"_initializing","offset":1,"slot":"0","type":"t_bool"},{"astId":8537,"contract":"contracts/prev/contracts/MorpherTradeEngine.sol:MorpherTradeEngine","label":"__gap","offset":0,"slot":"1","type":"t_array(t_uint256)50_storage"},{"astId":2439,"contract":"contracts/prev/contracts/MorpherTradeEngine.sol:MorpherTradeEngine","label":"morpherState","offset":0,"slot":"51","type":"t_contract(MorpherState)2029"},{"astId":2462,"contract":"contracts/prev/contracts/MorpherTradeEngine.sol:MorpherTradeEngine","label":"orderNonce","offset":0,"slot":"52","type":"t_uint256"},{"astId":2464,"contract":"contracts/prev/contracts/MorpherTradeEngine.sol:MorpherTradeEngine","label":"lastOrderId","offset":0,"slot":"53","type":"t_bytes32"},{"astId":2466,"contract":"contracts/prev/contracts/MorpherTradeEngine.sol:MorpherTradeEngine","label":"deployedTimeStamp","offset":0,"slot":"54","type":"t_uint256"},{"astId":2468,"contract":"contracts/prev/contracts/MorpherTradeEngine.sol:MorpherTradeEngine","label":"escrowOpenOrderEnabled","offset":0,"slot":"55","type":"t_bool"},{"astId":2476,"contract":"contracts/prev/contracts/MorpherTradeEngine.sol:MorpherTradeEngine","label":"priceLockDeactivatedMarket","offset":0,"slot":"56","type":"t_mapping(t_bytes32,t_struct(PriceLock)2471_storage)"},{"astId":2528,"contract":"contracts/prev/contracts/MorpherTradeEngine.sol:MorpherTradeEngine","label":"orders","offset":0,"slot":"57","type":"t_mapping(t_bytes32,t_struct(order)2502_storage)"},{"astId":2552,"contract":"contracts/prev/contracts/MorpherTradeEngine.sol:MorpherTradeEngine","label":"portfolio","offset":0,"slot":"58","type":"t_mapping(t_address,t_mapping(t_bytes32,t_struct(position)2545_storage))"},{"astId":2568,"contract":"contracts/prev/contracts/MorpherTradeEngine.sol:MorpherTradeEngine","label":"exposureByMarket","offset":0,"slot":"59","type":"t_mapping(t_bytes32,t_struct(hasExposure)2563_storage)"}],"types":{"t_address":{"encoding":"inplace","label":"address","numberOfBytes":"20"},"t_array(t_uint256)50_storage":{"encoding":"inplace","label":"uint256[50]","numberOfBytes":"1600","base":"t_uint256"},"t_bool":{"encoding":"inplace","label":"bool","numberOfBytes":"1"},"t_bytes32":{"encoding":"inplace","label":"bytes32","numberOfBytes":"32"},"t_contract(MorpherState)2029":{"encoding":"inplace","label":"contract MorpherState","numberOfBytes":"20"},"t_mapping(t_address,t_mapping(t_bytes32,t_struct(position)2545_storage))":{"encoding":"mapping","key":"t_address","label":"mapping(address => mapping(bytes32 => struct MorpherTradeEngine.position))","numberOfBytes":"32","value":"t_mapping(t_bytes32,t_struct(position)2545_storage)"},"t_mapping(t_address,t_uint256)":{"encoding":"mapping","key":"t_address","label":"mapping(address => uint256)","numberOfBytes":"32","value":"t_uint256"},"t_mapping(t_bytes32,t_struct(PriceLock)2471_storage)":{"encoding":"mapping","key":"t_bytes32","label":"mapping(bytes32 => struct MorpherTradeEngine.PriceLock)","numberOfBytes":"32","value":"t_struct(PriceLock)2471_storage"},"t_mapping(t_bytes32,t_struct(hasExposure)2563_storage)":{"encoding":"mapping","key":"t_bytes32","label":"mapping(bytes32 => struct MorpherTradeEngine.hasExposure)","numberOfBytes":"32","value":"t_struct(hasExposure)2563_storage"},"t_mapping(t_bytes32,t_struct(order)2502_storage)":{"encoding":"mapping","key":"t_bytes32","label":"mapping(bytes32 => struct MorpherTradeEngine.order)","numberOfBytes":"32","value":"t_struct(order)2502_storage"},"t_mapping(t_bytes32,t_struct(position)2545_storage)":{"encoding":"mapping","key":"t_bytes32","label":"mapping(bytes32 => struct MorpherTradeEngine.position)","numberOfBytes":"32","value":"t_struct(position)2545_storage"},"t_mapping(t_uint256,t_address)":{"encoding":"mapping","key":"t_uint256","label":"mapping(uint256 => address)","numberOfBytes":"32","value":"t_address"},"t_struct(OrderModifier)2523_storage":{"encoding":"inplace","label":"struct MorpherTradeEngine.OrderModifier","numberOfBytes":"320","members":[{"astId":2504,"contract":"contracts/prev/contracts/MorpherTradeEngine.sol:MorpherTradeEngine","label":"longSharesOrder","offset":0,"slot":"0","type":"t_uint256"},{"astId":2506,"contract":"contracts/prev/contracts/MorpherTradeEngine.sol:MorpherTradeEngine","label":"shortSharesOrder","offset":0,"slot":"1","type":"t_uint256"},{"astId":2508,"contract":"contracts/prev/contracts/MorpherTradeEngine.sol:MorpherTradeEngine","label":"balanceDown","offset":0,"slot":"2","type":"t_uint256"},{"astId":2510,"contract":"contracts/prev/contracts/MorpherTradeEngine.sol:MorpherTradeEngine","label":"balanceUp","offset":0,"slot":"3","type":"t_uint256"},{"astId":2512,"contract":"contracts/prev/contracts/MorpherTradeEngine.sol:MorpherTradeEngine","label":"newLongShares","offset":0,"slot":"4","type":"t_uint256"},{"astId":2514,"contract":"contracts/prev/contracts/MorpherTradeEngine.sol:MorpherTradeEngine","label":"newShortShares","offset":0,"slot":"5","type":"t_uint256"},{"astId":2516,"contract":"contracts/prev/contracts/MorpherTradeEngine.sol:MorpherTradeEngine","label":"newMeanEntryPrice","offset":0,"slot":"6","type":"t_uint256"},{"astId":2518,"contract":"contracts/prev/contracts/MorpherTradeEngine.sol:MorpherTradeEngine","label":"newMeanEntrySpread","offset":0,"slot":"7","type":"t_uint256"},{"astId":2520,"contract":"contracts/prev/contracts/MorpherTradeEngine.sol:MorpherTradeEngine","label":"newMeanEntryLeverage","offset":0,"slot":"8","type":"t_uint256"},{"astId":2522,"contract":"contracts/prev/contracts/MorpherTradeEngine.sol:MorpherTradeEngine","label":"newLiquidationPrice","offset":0,"slot":"9","type":"t_uint256"}]},"t_struct(PriceLock)2471_storage":{"encoding":"inplace","label":"struct MorpherTradeEngine.PriceLock","numberOfBytes":"32","members":[{"astId":2470,"contract":"contracts/prev/contracts/MorpherTradeEngine.sol:MorpherTradeEngine","label":"lockedPrice","offset":0,"slot":"0","type":"t_uint256"}]},"t_struct(hasExposure)2563_storage":{"encoding":"inplace","label":"struct MorpherTradeEngine.hasExposure","numberOfBytes":"96","members":[{"astId":2554,"contract":"contracts/prev/contracts/MorpherTradeEngine.sol:MorpherTradeEngine","label":"maxMappingIndex","offset":0,"slot":"0","type":"t_uint256"},{"astId":2558,"contract":"contracts/prev/contracts/MorpherTradeEngine.sol:MorpherTradeEngine","label":"index","offset":0,"slot":"1","type":"t_mapping(t_address,t_uint256)"},{"astId":2562,"contract":"contracts/prev/contracts/MorpherTradeEngine.sol:MorpherTradeEngine","label":"addy","offset":0,"slot":"2","type":"t_mapping(t_uint256,t_address)"}]},"t_struct(order)2502_storage":{"encoding":"inplace","label":"struct MorpherTradeEngine.order","numberOfBytes":"672","members":[{"astId":2478,"contract":"contracts/prev/contracts/MorpherTradeEngine.sol:MorpherTradeEngine","label":"userId","offset":0,"slot":"0","type":"t_address"},{"astId":2480,"contract":"contracts/prev/contracts/MorpherTradeEngine.sol:MorpherTradeEngine","label":"marketId","offset":0,"slot":"1","type":"t_bytes32"},{"astId":2482,"contract":"contracts/prev/contracts/MorpherTradeEngine.sol:MorpherTradeEngine","label":"closeSharesAmount","offset":0,"slot":"2","type":"t_uint256"},{"astId":2484,"contract":"contracts/prev/contracts/MorpherTradeEngine.sol:MorpherTradeEngine","label":"openMPHTokenAmount","offset":0,"slot":"3","type":"t_uint256"},{"astId":2486,"contract":"contracts/prev/contracts/MorpherTradeEngine.sol:MorpherTradeEngine","label":"tradeDirection","offset":0,"slot":"4","type":"t_bool"},{"astId":2488,"contract":"contracts/prev/contracts/MorpherTradeEngine.sol:MorpherTradeEngine","label":"liquidationTimestamp","offset":0,"slot":"5","type":"t_uint256"},{"astId":2490,"contract":"contracts/prev/contracts/MorpherTradeEngine.sol:MorpherTradeEngine","label":"marketPrice","offset":0,"slot":"6","type":"t_uint256"},{"astId":2492,"contract":"contracts/prev/contracts/MorpherTradeEngine.sol:MorpherTradeEngine","label":"marketSpread","offset":0,"slot":"7","type":"t_uint256"},{"astId":2494,"contract":"contracts/prev/contracts/MorpherTradeEngine.sol:MorpherTradeEngine","label":"orderLeverage","offset":0,"slot":"8","type":"t_uint256"},{"astId":2496,"contract":"contracts/prev/contracts/MorpherTradeEngine.sol:MorpherTradeEngine","label":"timeStamp","offset":0,"slot":"9","type":"t_uint256"},{"astId":2498,"contract":"contracts/prev/contracts/MorpherTradeEngine.sol:MorpherTradeEngine","label":"orderEscrowAmount","offset":0,"slot":"10","type":"t_uint256"},{"astId":2501,"contract":"contracts/prev/contracts/MorpherTradeEngine.sol:MorpherTradeEngine","label":"modifyPosition","offset":0,"slot":"11","type":"t_struct(OrderModifier)2523_storage"}]},"t_struct(position)2545_storage":{"encoding":"inplace","label":"struct MorpherTradeEngine.position","numberOfBytes":"256","members":[{"astId":2530,"contract":"contracts/prev/contracts/MorpherTradeEngine.sol:MorpherTradeEngine","label":"lastUpdated","offset":0,"slot":"0","type":"t_uint256"},{"astId":2532,"contract":"contracts/prev/contracts/MorpherTradeEngine.sol:MorpherTradeEngine","label":"longShares","offset":0,"slot":"1","type":"t_uint256"},{"astId":2534,"contract":"contracts/prev/contracts/MorpherTradeEngine.sol:MorpherTradeEngine","label":"shortShares","offset":0,"slot":"2","type":"t_uint256"},{"astId":2536,"contract":"contracts/prev/contracts/MorpherTradeEngine.sol:MorpherTradeEngine","label":"meanEntryPrice","offset":0,"slot":"3","type":"t_uint256"},{"astId":2538,"contract":"contracts/prev/contracts/MorpherTradeEngine.sol:MorpherTradeEngine","label":"meanEntrySpread","offset":0,"slot":"4","type":"t_uint256"},{"astId":2540,"contract":"contracts/prev/contracts/MorpherTradeEngine.sol:MorpherTradeEngine","label":"meanEntryLeverage","offset":0,"slot":"5","type":"t_uint256"},{"astId":2542,"contract":"contracts/prev/contracts/MorpherTradeEngine.sol:MorpherTradeEngine","label":"liquidationPrice","offset":0,"slot":"6","type":"t_uint256"},{"astId":2544,"contract":"contracts/prev/contracts/MorpherTradeEngine.sol:MorpherTradeEngine","label":"positionHash","offset":0,"slot":"7","type":"t_bytes32"}]},"t_uint256":{"encoding":"inplace","label":"uint256","numberOfBytes":"32"},"t_uint8":{"encoding":"inplace","label":"uint8","numberOfBytes":"1"}}},"id":5}