{
  "abi": [
    {
      "anonymous": false,
      "inputs": [
        {
          "indexed": true,
          "internalType": "address",
          "name": "from",
          "type": "address"
        },
        {
          "indexed": false,
          "internalType": "uint256",
          "name": "tokens",
          "type": "uint256"
        }
      ],
      "name": "ClaimFailedTransferToSidechain",
      "type": "event"
    },
    {
      "anonymous": false,
      "inputs": [
        {
          "indexed": false,
          "internalType": "uint8",
          "name": "version",
          "type": "uint8"
        }
      ],
      "name": "Initialized",
      "type": "event"
    },
    {
      "anonymous": false,
      "inputs": [
        {
          "indexed": false,
          "internalType": "address",
          "name": "_address",
          "type": "address"
        }
      ],
      "name": "LinkState",
      "type": "event"
    },
    {
      "anonymous": false,
      "inputs": [
        {
          "indexed": true,
          "internalType": "address",
          "name": "from",
          "type": "address"
        },
        {
          "indexed": false,
          "internalType": "uint256",
          "name": "tokens",
          "type": "uint256"
        },
        {
          "indexed": false,
          "internalType": "bytes32",
          "name": "sidechainTransactionHash",
          "type": "bytes32"
        }
      ],
      "name": "OperatorChainTransfer",
      "type": "event"
    },
    {
      "anonymous": false,
      "inputs": [
        {
          "indexed": true,
          "internalType": "address",
          "name": "from",
          "type": "address"
        },
        {
          "indexed": false,
          "internalType": "bytes32",
          "name": "positionHash",
          "type": "bytes32"
        }
      ],
      "name": "PositionRecoveryFromSideChain",
      "type": "event"
    },
    {
      "anonymous": false,
      "inputs": [
        {
          "indexed": false,
          "internalType": "bytes32",
          "name": "_rootHash",
          "type": "bytes32"
        }
      ],
      "name": "SideChainMerkleRootUpdated",
      "type": "event"
    },
    {
      "anonymous": false,
      "inputs": [
        {
          "indexed": true,
          "internalType": "address",
          "name": "from",
          "type": "address"
        },
        {
          "indexed": false,
          "internalType": "bytes32",
          "name": "positionHash",
          "type": "bytes32"
        }
      ],
      "name": "TokenRecoveryFromSideChain",
      "type": "event"
    },
    {
      "anonymous": false,
      "inputs": [
        {
          "indexed": true,
          "internalType": "address",
          "name": "from",
          "type": "address"
        },
        {
          "indexed": false,
          "internalType": "uint256",
          "name": "tokens",
          "type": "uint256"
        },
        {
          "indexed": false,
          "internalType": "uint256",
          "name": "totalTokenSent",
          "type": "uint256"
        },
        {
          "indexed": false,
          "internalType": "uint256",
          "name": "timeStamp",
          "type": "uint256"
        },
        {
          "indexed": false,
          "internalType": "uint256",
          "name": "transferNonce",
          "type": "uint256"
        },
        {
          "indexed": false,
          "internalType": "uint256",
          "name": "targetChainId",
          "type": "uint256"
        },
        {
          "indexed": true,
          "internalType": "bytes32",
          "name": "transferHash",
          "type": "bytes32"
        }
      ],
      "name": "TransferToLinkedChain",
      "type": "event"
    },
    {
      "anonymous": false,
      "inputs": [
        {
          "indexed": true,
          "internalType": "address",
          "name": "from",
          "type": "address"
        },
        {
          "indexed": false,
          "internalType": "uint256",
          "name": "tokens",
          "type": "uint256"
        },
        {
          "indexed": false,
          "internalType": "uint256",
          "name": "totalTokenSent",
          "type": "uint256"
        },
        {
          "indexed": false,
          "internalType": "uint256",
          "name": "timeStamp",
          "type": "uint256"
        },
        {
          "indexed": false,
          "internalType": "uint256",
          "name": "transferNonce",
          "type": "uint256"
        },
        {
          "indexed": false,
          "internalType": "uint256",
          "name": "targetChainId",
          "type": "uint256"
        },
        {
          "indexed": false,
          "internalType": "address",
          "name": "destinationAddress",
          "type": "address"
        },
        {
          "indexed": false,
          "internalType": "bytes",
          "name": "userSigature",
          "type": "bytes"
        },
        {
          "indexed": true,
          "internalType": "bytes32",
          "name": "transferHash",
          "type": "bytes32"
        }
      ],
      "name": "TransferToLinkedChainAndWithdrawTo",
      "type": "event"
    },
    {
      "anonymous": false,
      "inputs": [
        {
          "indexed": true,
          "internalType": "address",
          "name": "from",
          "type": "address"
        },
        {
          "indexed": false,
          "internalType": "uint256",
          "name": "tokens",
          "type": "uint256"
        }
      ],
      "name": "TrustlessWithdrawFromSideChain",
      "type": "event"
    },
    {
      "anonymous": false,
      "inputs": [
        {
          "indexed": false,
          "internalType": "uint256",
          "name": "_withdrawLimit",
          "type": "uint256"
        }
      ],
      "name": "WithdrawLimitChanged",
      "type": "event"
    },
    {
      "anonymous": false,
      "inputs": [
        {
          "indexed": false,
          "internalType": "uint256",
          "name": "_oldLimit",
          "type": "uint256"
        },
        {
          "indexed": false,
          "internalType": "uint256",
          "name": "_newLimit",
          "type": "uint256"
        }
      ],
      "name": "WithdrawLimitDailyGlobalChanged",
      "type": "event"
    },
    {
      "anonymous": false,
      "inputs": [
        {
          "indexed": false,
          "internalType": "uint256",
          "name": "_oldLimit",
          "type": "uint256"
        },
        {
          "indexed": false,
          "internalType": "uint256",
          "name": "_newLimit",
          "type": "uint256"
        }
      ],
      "name": "WithdrawLimitDailyPerUserChanged",
      "type": "event"
    },
    {
      "anonymous": false,
      "inputs": [
        {
          "indexed": false,
          "internalType": "uint256",
          "name": "_oldLimit",
          "type": "uint256"
        },
        {
          "indexed": false,
          "internalType": "uint256",
          "name": "_newLimit",
          "type": "uint256"
        }
      ],
      "name": "WithdrawLimitMonthlyGlobalChanged",
      "type": "event"
    },
    {
      "anonymous": false,
      "inputs": [
        {
          "indexed": false,
          "internalType": "uint256",
          "name": "_oldLimit",
          "type": "uint256"
        },
        {
          "indexed": false,
          "internalType": "uint256",
          "name": "_newLimit",
          "type": "uint256"
        }
      ],
      "name": "WithdrawLimitMonthlyPerUserChanged",
      "type": "event"
    },
    {
      "anonymous": false,
      "inputs": [],
      "name": "WithdrawLimitReset",
      "type": "event"
    },
    {
      "anonymous": false,
      "inputs": [
        {
          "indexed": false,
          "internalType": "uint256",
          "name": "_oldLimit",
          "type": "uint256"
        },
        {
          "indexed": false,
          "internalType": "uint256",
          "name": "_newLimit",
          "type": "uint256"
        }
      ],
      "name": "WithdrawLimitYearlyGlobalChanged",
      "type": "event"
    },
    {
      "anonymous": false,
      "inputs": [
        {
          "indexed": false,
          "internalType": "uint256",
          "name": "_oldLimit",
          "type": "uint256"
        },
        {
          "indexed": false,
          "internalType": "uint256",
          "name": "_newLimit",
          "type": "uint256"
        }
      ],
      "name": "WithdrawLimitYearlyPerUserChanged",
      "type": "event"
    },
    {
      "anonymous": false,
      "inputs": [
        {
          "indexed": false,
          "internalType": "address",
          "name": "_destination",
          "type": "address"
        },
        {
          "indexed": false,
          "internalType": "uint256",
          "name": "_amount",
          "type": "uint256"
        },
        {
          "indexed": false,
          "internalType": "bool",
          "name": "_convertedToGasToken",
          "type": "bool"
        }
      ],
      "name": "WithdrawalSuccess",
      "type": "event"
    },
    {
      "inputs": [],
      "name": "ADMINISTRATOR_ROLE",
      "outputs": [
        {
          "internalType": "bytes32",
          "name": "",
          "type": "bytes32"
        }
      ],
      "stateMutability": "view",
      "type": "function"
    },
    {
      "inputs": [],
      "name": "SIDECHAINOPERATOR_ROLE",
      "outputs": [
        {
          "internalType": "bytes32",
          "name": "",
          "type": "bytes32"
        }
      ],
      "stateMutability": "view",
      "type": "function"
    },
    {
      "inputs": [],
      "name": "bridgeNonce",
      "outputs": [
        {
          "internalType": "uint256",
          "name": "",
          "type": "uint256"
        }
      ],
      "stateMutability": "view",
      "type": "function"
    },
    {
      "inputs": [
        {
          "internalType": "uint256",
          "name": "_wrongSideChainBalance",
          "type": "uint256"
        },
        {
          "internalType": "bytes32[]",
          "name": "_proof",
          "type": "bytes32[]"
        },
        {
          "internalType": "uint256",
          "name": "_targetChainId",
          "type": "uint256"
        }
      ],
      "name": "claimFailedTransferToSidechain",
      "outputs": [],
      "stateMutability": "nonpayable",
      "type": "function"
    },
    {
      "inputs": [
        {
          "internalType": "bytes32",
          "name": "",
          "type": "bytes32"
        }
      ],
      "name": "claimFromInactivity",
      "outputs": [
        {
          "internalType": "bool",
          "name": "",
          "type": "bool"
        }
      ],
      "stateMutability": "view",
      "type": "function"
    },
    {
      "inputs": [
        {
          "internalType": "uint256",
          "name": "_numOfToken",
          "type": "uint256"
        },
        {
          "internalType": "uint256",
          "name": "_claimLimit",
          "type": "uint256"
        },
        {
          "internalType": "bytes32[]",
          "name": "_proof",
          "type": "bytes32[]"
        }
      ],
      "name": "claimStagedTokens",
      "outputs": [],
      "stateMutability": "nonpayable",
      "type": "function"
    },
    {
      "inputs": [
        {
          "internalType": "address",
          "name": "_usrAddr",
          "type": "address"
        },
        {
          "internalType": "uint256",
          "name": "_numOfToken",
          "type": "uint256"
        },
        {
          "internalType": "uint256",
          "name": "fee",
          "type": "uint256"
        },
        {
          "internalType": "address",
          "name": "feeRecipient",
          "type": "address"
        },
        {
          "internalType": "uint256",
          "name": "_claimLimit",
          "type": "uint256"
        },
        {
          "internalType": "bytes32[]",
          "name": "_proof",
          "type": "bytes32[]"
        },
        {
          "internalType": "address payable",
          "name": "_finalOutput",
          "type": "address"
        },
        {
          "internalType": "bytes32",
          "name": "_rootHash",
          "type": "bytes32"
        },
        {
          "internalType": "bytes",
          "name": "_userConfirmationSignature",
          "type": "bytes"
        }
      ],
      "name": "claimStagedTokensAndSendForUser",
      "outputs": [
        {
          "internalType": "uint256",
          "name": "",
          "type": "uint256"
        }
      ],
      "stateMutability": "nonpayable",
      "type": "function"
    },
    {
      "inputs": [
        {
          "internalType": "uint256",
          "name": "_numOfToken",
          "type": "uint256"
        },
        {
          "internalType": "uint256",
          "name": "_claimLimit",
          "type": "uint256"
        },
        {
          "internalType": "bytes32[]",
          "name": "_proof",
          "type": "bytes32[]"
        },
        {
          "internalType": "address payable",
          "name": "_finalOutput",
          "type": "address"
        }
      ],
      "name": "claimStagedTokensConvertAndSend",
      "outputs": [],
      "stateMutability": "nonpayable",
      "type": "function"
    },
    {
      "inputs": [
        {
          "internalType": "address",
          "name": "_usrAddr",
          "type": "address"
        },
        {
          "internalType": "uint256",
          "name": "_numOfToken",
          "type": "uint256"
        },
        {
          "internalType": "uint256",
          "name": "fee",
          "type": "uint256"
        },
        {
          "internalType": "address",
          "name": "feeRecipient",
          "type": "address"
        },
        {
          "internalType": "uint256",
          "name": "_claimLimit",
          "type": "uint256"
        },
        {
          "internalType": "bytes32[]",
          "name": "_proof",
          "type": "bytes32[]"
        },
        {
          "internalType": "address payable",
          "name": "_finalOutput",
          "type": "address"
        },
        {
          "internalType": "bytes32",
          "name": "_rootHash",
          "type": "bytes32"
        },
        {
          "internalType": "bytes",
          "name": "_userConfirmationSignature",
          "type": "bytes"
        }
      ],
      "name": "claimStagedTokensConvertAndSendForUser",
      "outputs": [
        {
          "internalType": "uint256",
          "name": "",
          "type": "uint256"
        }
      ],
      "stateMutability": "nonpayable",
      "type": "function"
    },
    {
      "inputs": [
        {
          "internalType": "address",
          "name": "_address",
          "type": "address"
        },
        {
          "internalType": "uint256",
          "name": "_balance",
          "type": "uint256"
        }
      ],
      "name": "getBalanceHash",
      "outputs": [
        {
          "internalType": "bytes32",
          "name": "_hash",
          "type": "bytes32"
        }
      ],
      "stateMutability": "pure",
      "type": "function"
    },
    {
      "inputs": [],
      "name": "getWethWmaticAddress",
      "outputs": [
        {
          "internalType": "address",
          "name": "",
          "type": "address"
        }
      ],
      "stateMutability": "view",
      "type": "function"
    },
    {
      "inputs": [],
      "name": "inactivityPeriod",
      "outputs": [
        {
          "internalType": "uint256",
          "name": "",
          "type": "uint256"
        }
      ],
      "stateMutability": "view",
      "type": "function"
    },
    {
      "inputs": [
        {
          "internalType": "address",
          "name": "_stateAddress",
          "type": "address"
        },
        {
          "internalType": "bool",
          "name": "_recoveryEnabled",
          "type": "bool"
        },
        {
          "internalType": "contract ISwapRouter",
          "name": "_swapRouter",
          "type": "address"
        }
      ],
      "name": "initialize",
      "outputs": [],
      "stateMutability": "nonpayable",
      "type": "function"
    },
    {
      "inputs": [
        {
          "internalType": "address",
          "name": "_usr",
          "type": "address"
        },
        {
          "internalType": "uint256",
          "name": "_amount",
          "type": "uint256"
        }
      ],
      "name": "isNotDailyLimitExceeding",
      "outputs": [
        {
          "internalType": "bool",
          "name": "",
          "type": "bool"
        }
      ],
      "stateMutability": "view",
      "type": "function"
    },
    {
      "inputs": [
        {
          "internalType": "address",
          "name": "_usr",
          "type": "address"
        },
        {
          "internalType": "uint256",
          "name": "_amount",
          "type": "uint256"
        }
      ],
      "name": "isNotMonthlyLimitExceeding",
      "outputs": [
        {
          "internalType": "bool",
          "name": "",
          "type": "bool"
        }
      ],
      "stateMutability": "view",
      "type": "function"
    },
    {
      "inputs": [
        {
          "internalType": "address",
          "name": "_usr",
          "type": "address"
        },
        {
          "internalType": "uint256",
          "name": "_amount",
          "type": "uint256"
        }
      ],
      "name": "isNotYearlyLimitExceeding",
      "outputs": [
        {
          "internalType": "bool",
          "name": "",
          "type": "bool"
        }
      ],
      "stateMutability": "view",
      "type": "function"
    },
    {
      "inputs": [
        {
          "internalType": "bytes32[]",
          "name": "_proof",
          "type": "bytes32[]"
        },
        {
          "internalType": "bytes32",
          "name": "_leaf",
          "type": "bytes32"
        }
      ],
      "name": "mProof",
      "outputs": [
        {
          "internalType": "bool",
          "name": "_isTrue",
          "type": "bool"
        }
      ],
      "stateMutability": "view",
      "type": "function"
    },
    {
      "inputs": [],
      "name": "poolFee",
      "outputs": [
        {
          "internalType": "uint24",
          "name": "",
          "type": "uint24"
        }
      ],
      "stateMutability": "view",
      "type": "function"
    },
    {
      "inputs": [
        {
          "internalType": "bytes32[]",
          "name": "_proof",
          "type": "bytes32[]"
        },
        {
          "internalType": "bytes32",
          "name": "_leaf",
          "type": "bytes32"
        },
        {
          "internalType": "bytes32",
          "name": "_marketId",
          "type": "bytes32"
        },
        {
          "internalType": "uint256",
          "name": "_timeStamp",
          "type": "uint256"
        },
        {
          "internalType": "uint256",
          "name": "_longShares",
          "type": "uint256"
        },
        {
          "internalType": "uint256",
          "name": "_shortShares",
          "type": "uint256"
        },
        {
          "internalType": "uint256",
          "name": "_meanEntryPrice",
          "type": "uint256"
        },
        {
          "internalType": "uint256",
          "name": "_meanEntrySpread",
          "type": "uint256"
        },
        {
          "internalType": "uint256",
          "name": "_meanEntryLeverage",
          "type": "uint256"
        },
        {
          "internalType": "uint256",
          "name": "_liquidationPrice",
          "type": "uint256"
        }
      ],
      "name": "recoverPositionFromInactivity",
      "outputs": [],
      "stateMutability": "nonpayable",
      "type": "function"
    },
    {
      "inputs": [
        {
          "internalType": "bytes32[]",
          "name": "_proof",
          "type": "bytes32[]"
        },
        {
          "internalType": "bytes32",
          "name": "_leaf",
          "type": "bytes32"
        },
        {
          "internalType": "uint256",
          "name": "_balance",
          "type": "uint256"
        }
      ],
      "name": "recoverTokenFromInactivity",
      "outputs": [],
      "stateMutability": "nonpayable",
      "type": "function"
    },
    {
      "inputs": [],
      "name": "recoveryEnabled",
      "outputs": [
        {
          "internalType": "bool",
          "name": "",
          "type": "bool"
        }
      ],
      "stateMutability": "view",
      "type": "function"
    },
    {
      "inputs": [
        {
          "internalType": "uint256",
          "name": "_periodInSeconds",
          "type": "uint256"
        }
      ],
      "name": "setInactivityPeriod",
      "outputs": [],
      "stateMutability": "nonpayable",
      "type": "function"
    },
    {
      "inputs": [
        {
          "internalType": "address",
          "name": "_stateAddress",
          "type": "address"
        }
      ],
      "name": "setMorpherState",
      "outputs": [],
      "stateMutability": "nonpayable",
      "type": "function"
    },
    {
      "inputs": [
        {
          "internalType": "uint256",
          "name": "_tokens",
          "type": "uint256"
        },
        {
          "internalType": "uint256",
          "name": "_targetChainId",
          "type": "uint256"
        }
      ],
      "name": "stageTokensForTransfer",
      "outputs": [],
      "stateMutability": "nonpayable",
      "type": "function"
    },
    {
      "inputs": [
        {
          "internalType": "uint256",
          "name": "_tokens",
          "type": "uint256"
        },
        {
          "internalType": "uint256",
          "name": "_targetChainId",
          "type": "uint256"
        },
        {
          "internalType": "address",
          "name": "_autoWithdrawalAddressTo",
          "type": "address"
        },
        {
          "internalType": "bytes",
          "name": "_signature",
          "type": "bytes"
        }
      ],
      "name": "stageTokensForTransfer",
      "outputs": [],
      "stateMutability": "nonpayable",
      "type": "function"
    },
    {
      "inputs": [],
      "name": "swapRouter",
      "outputs": [
        {
          "internalType": "contract ISwapRouter",
          "name": "",
          "type": "address"
        }
      ],
      "stateMutability": "view",
      "type": "function"
    },
    {
      "inputs": [
        {
          "internalType": "address",
          "name": "",
          "type": "address"
        }
      ],
      "name": "tokenClaimedOnThisChain",
      "outputs": [
        {
          "internalType": "uint256",
          "name": "amount",
          "type": "uint256"
        },
        {
          "internalType": "uint256",
          "name": "lastTransferAt",
          "type": "uint256"
        }
      ],
      "stateMutability": "view",
      "type": "function"
    },
    {
      "inputs": [
        {
          "internalType": "address",
          "name": "",
          "type": "address"
        },
        {
          "internalType": "uint256",
          "name": "",
          "type": "uint256"
        }
      ],
      "name": "tokenSentToLinkedChain",
      "outputs": [
        {
          "internalType": "uint256",
          "name": "amount",
          "type": "uint256"
        },
        {
          "internalType": "uint256",
          "name": "lastTransferAt",
          "type": "uint256"
        }
      ],
      "stateMutability": "view",
      "type": "function"
    },
    {
      "inputs": [
        {
          "internalType": "bytes32",
          "name": "_rootHash",
          "type": "bytes32"
        }
      ],
      "name": "updateSideChainMerkleRoot",
      "outputs": [],
      "stateMutability": "nonpayable",
      "type": "function"
    },
    {
      "inputs": [
        {
          "internalType": "contract ISwapRouter",
          "name": "_swapRouter",
          "type": "address"
        }
      ],
      "name": "updateSwapRouter",
      "outputs": [],
      "stateMutability": "nonpayable",
      "type": "function"
    },
    {
      "inputs": [
        {
          "internalType": "uint256",
          "name": "_withdrawLimit",
          "type": "uint256"
        }
      ],
      "name": "updateWithdrawLimitGlobalDaily",
      "outputs": [],
      "stateMutability": "nonpayable",
      "type": "function"
    },
    {
      "inputs": [
        {
          "internalType": "uint256",
          "name": "_withdrawLimit",
          "type": "uint256"
        }
      ],
      "name": "updateWithdrawLimitGlobalMonthly",
      "outputs": [],
      "stateMutability": "nonpayable",
      "type": "function"
    },
    {
      "inputs": [
        {
          "internalType": "uint256",
          "name": "_withdrawLimit",
          "type": "uint256"
        }
      ],
      "name": "updateWithdrawLimitGlobalYearly",
      "outputs": [],
      "stateMutability": "nonpayable",
      "type": "function"
    },
    {
      "inputs": [
        {
          "internalType": "uint256",
          "name": "_withdrawLimit",
          "type": "uint256"
        }
      ],
      "name": "updateWithdrawLimitPerUserDaily",
      "outputs": [],
      "stateMutability": "nonpayable",
      "type": "function"
    },
    {
      "inputs": [
        {
          "internalType": "uint256",
          "name": "_withdrawLimit",
          "type": "uint256"
        }
      ],
      "name": "updateWithdrawLimitPerUserMonthly",
      "outputs": [],
      "stateMutability": "nonpayable",
      "type": "function"
    },
    {
      "inputs": [
        {
          "internalType": "uint256",
          "name": "_withdrawLimit",
          "type": "uint256"
        }
      ],
      "name": "updateWithdrawLimitPerUserYearly",
      "outputs": [],
      "stateMutability": "nonpayable",
      "type": "function"
    },
    {
      "inputs": [
        {
          "internalType": "address",
          "name": "_usr",
          "type": "address"
        },
        {
          "internalType": "uint256",
          "name": "_amount",
          "type": "uint256"
        }
      ],
      "name": "verifyUpdateDailyLimit",
      "outputs": [],
      "stateMutability": "nonpayable",
      "type": "function"
    },
    {
      "inputs": [
        {
          "internalType": "address",
          "name": "_usr",
          "type": "address"
        },
        {
          "internalType": "uint256",
          "name": "_amount",
          "type": "uint256"
        }
      ],
      "name": "verifyUpdateMonthlyLimit",
      "outputs": [],
      "stateMutability": "nonpayable",
      "type": "function"
    },
    {
      "inputs": [
        {
          "internalType": "address",
          "name": "_usr",
          "type": "address"
        },
        {
          "internalType": "uint256",
          "name": "_amount",
          "type": "uint256"
        }
      ],
      "name": "verifyUpdateYearlyLimit",
      "outputs": [],
      "stateMutability": "nonpayable",
      "type": "function"
    },
    {
      "inputs": [],
      "name": "withdrawalData",
      "outputs": [
        {
          "internalType": "bytes32",
          "name": "merkleRoot",
          "type": "bytes32"
        },
        {
          "internalType": "uint256",
          "name": "lastUpdatedAt",
          "type": "uint256"
        }
      ],
      "stateMutability": "view",
      "type": "function"
    },
    {
      "inputs": [],
      "name": "withdrawalLimitGlobalDaily",
      "outputs": [
        {
          "internalType": "uint256",
          "name": "",
          "type": "uint256"
        }
      ],
      "stateMutability": "view",
      "type": "function"
    },
    {
      "inputs": [],
      "name": "withdrawalLimitGlobalMonthly",
      "outputs": [
        {
          "internalType": "uint256",
          "name": "",
          "type": "uint256"
        }
      ],
      "stateMutability": "view",
      "type": "function"
    },
    {
      "inputs": [],
      "name": "withdrawalLimitGlobalYearly",
      "outputs": [
        {
          "internalType": "uint256",
          "name": "",
          "type": "uint256"
        }
      ],
      "stateMutability": "view",
      "type": "function"
    },
    {
      "inputs": [],
      "name": "withdrawalLimitPerUserDaily",
      "outputs": [
        {
          "internalType": "uint256",
          "name": "",
          "type": "uint256"
        }
      ],
      "stateMutability": "view",
      "type": "function"
    },
    {
      "inputs": [],
      "name": "withdrawalLimitPerUserMonthly",
      "outputs": [
        {
          "internalType": "uint256",
          "name": "",
          "type": "uint256"
        }
      ],
      "stateMutability": "view",
      "type": "function"
    },
    {
      "inputs": [],
      "name": "withdrawalLimitPerUserYearly",
      "outputs": [
        {
          "internalType": "uint256",
          "name": "",
          "type": "uint256"
        }
      ],
      "stateMutability": "view",
      "type": "function"
    },
    {
      "inputs": [
        {
          "internalType": "address",
          "name": "",
          "type": "address"
        },
        {
          "internalType": "uint256",
          "name": "",
          "type": "uint256"
        }
      ],
      "name": "withdrawalPerUserPerDay",
      "outputs": [
        {
          "internalType": "uint256",
          "name": "",
          "type": "uint256"
        }
      ],
      "stateMutability": "view",
      "type": "function"
    },
    {
      "inputs": [
        {
          "internalType": "address",
          "name": "",
          "type": "address"
        },
        {
          "internalType": "uint256",
          "name": "",
          "type": "uint256"
        }
      ],
      "name": "withdrawalPerUserPerMonth",
      "outputs": [
        {
          "internalType": "uint256",
          "name": "",
          "type": "uint256"
        }
      ],
      "stateMutability": "view",
      "type": "function"
    },
    {
      "inputs": [
        {
          "internalType": "address",
          "name": "",
          "type": "address"
        },
        {
          "internalType": "uint256",
          "name": "",
          "type": "uint256"
        }
      ],
      "name": "withdrawalPerUserPerYear",
      "outputs": [
        {
          "internalType": "uint256",
          "name": "",
          "type": "uint256"
        }
      ],
      "stateMutability": "view",
      "type": "function"
    },
    {
      "inputs": [
        {
          "internalType": "uint256",
          "name": "",
          "type": "uint256"
        }
      ],
      "name": "withdrawalsGlobalDaily",
      "outputs": [
        {
          "internalType": "uint256",
          "name": "",
          "type": "uint256"
        }
      ],
      "stateMutability": "view",
      "type": "function"
    },
    {
      "inputs": [
        {
          "internalType": "uint256",
          "name": "",
          "type": "uint256"
        }
      ],
      "name": "withdrawalsGlobalMonthly",
      "outputs": [
        {
          "internalType": "uint256",
          "name": "",
          "type": "uint256"
        }
      ],
      "stateMutability": "view",
      "type": "function"
    },
    {
      "inputs": [
        {
          "internalType": "uint256",
          "name": "",
          "type": "uint256"
        }
      ],
      "name": "withdrawalsGlobalYearly",
      "outputs": [
        {
          "internalType": "uint256",
          "name": "",
          "type": "uint256"
        }
      ],
      "stateMutability": "view",
      "type": "function"
    },
    {
      "stateMutability": "payable",
      "type": "receive"
    }
  ],
  "bytecode": {
    "object": "0x608060405234801561001057600080fd5b506159b680620000216000396000f3fe6080604052600436106103035760003560e01c80638cd845d911610190578063d345a762116100dc578063e93f271d11610095578063f45edb5f1161006f578063f45edb5f146109c2578063f526dc2b146109e4578063fb16f5a914610a04578063feaf034314610a2657600080fd5b8063e93f271d14610962578063ec65d96c14610982578063f03c6fdc146109a257600080fd5b8063d345a762146108a9578063d362bd2b146108c9578063da9a6b35146108df578063de8a57461461090c578063e628eb5b14610922578063e7f34bb71461094257600080fd5b8063abc35a9111610149578063b98b677f11610123578063b98b677f1461081b578063c31c9c071461083b578063c4b907ad14610873578063cb1b92fb1461089357600080fd5b8063abc35a91146107c0578063af434a6d146107db578063b9154846146107fb57600080fd5b80638cd845d9146106a45780639291b7e2146106d157806392e7c76e146106f1578063a1949a0a14610711578063a2f1491f14610749578063a31c98b71461078857600080fd5b806349c016641161024f5780636b92c06e116102085780637ac15763116101e25780637ac1576314610616578063801046681461064e57806383ecd6121461066e578063857b0da01461068457600080fd5b80636b92c06e146105bc578063773cc3ff146105dc5780637946541e146105fc57600080fd5b806349c016641461050657806350456b30146105265780635300597b1461054657806354dddf431461056657806355069a811461058657806358b0e6b5146105a657600080fd5b806321bb10bb116102bc5780633b45c355116102965780633b45c355146104505780633c14e3521461047d57806345bc550c146104c65780634888a7d1146104e657600080fd5b806321bb10bb146103fa5780632e55e76e146104105780632f21278c1461043057600080fd5b8063015b3ab41461030f57806303d2304414610354578063089fe6aa146103765780630e357543146103a05780631c0ffbd0146103c05780631f87a250146103e457600080fd5b3661030a57005b600080fd5b34801561031b57600080fd5b5061033f61032a366004614dcf565b60456020526000908152604090205460ff1681565b60405190151581526020015b60405180910390f35b34801561036057600080fd5b5061037461036f366004614eaf565b610a3b565b005b34801561038257600080fd5b5061038c610bb881565b60405162ffffff909116815260200161034b565b3480156103ac57600080fd5b506103746103bb366004614f1d565b610d26565b3480156103cc57600080fd5b506103d6603a5481565b60405190815260200161034b565b3480156103f057600080fd5b506103d660495481565b34801561040657600080fd5b506103d660385481565b34801561041c57600080fd5b5061037461042b366004614dcf565b610e1e565b34801561043c57600080fd5b5061037461044b366004614dcf565b610f75565b34801561045c57600080fd5b506103d661046b366004614dcf565b60406020819052600091825290205481565b34801561048957600080fd5b506104b1610498366004614f49565b6048602052600090815260409020805460019091015482565b6040805192835260208301919091520161034b565b3480156104d257600080fd5b5061033f6104e1366004614f1d565b6110cc565b3480156104f257600080fd5b50610374610501366004614f74565b611154565b34801561051257600080fd5b50610374610521366004614dcf565b611263565b34801561053257600080fd5b50610374610541366004614fbf565b6113b9565b34801561055257600080fd5b5061033f610561366004614fe1565b6117c9565b34801561057257600080fd5b50610374610581366004615026565b6117db565b34801561059257600080fd5b506103746105a1366004614dcf565b611d1d565b3480156105b257600080fd5b506103d660355481565b3480156105c857600080fd5b5061033f6105d7366004614f1d565b611e74565b3480156105e857600080fd5b506103746105f7366004615089565b611ed9565b34801561060857600080fd5b5060445461033f9060ff1681565b34801561062257600080fd5b506103d6610631366004614f1d565b603c60209081526000928352604080842090915290825290205481565b34801561065a57600080fd5b50610374610669366004614f49565b6123ea565b34801561067a57600080fd5b506103d660375481565b34801561069057600080fd5b506103d661069f366004614f1d565b61254d565b3480156106b057600080fd5b506103d66106bf366004614dcf565b603f6020526000908152604090205481565b3480156106dd57600080fd5b506103d66106ec366004615149565b61258f565b3480156106fd57600080fd5b5061037461070c366004614dcf565b612df8565b34801561071d57600080fd5b506103d661072c366004614f1d565b603b60209081526000928352604080842090915290825290205481565b34801561075557600080fd5b506104b1610764366004614f1d565b60476020908152600092835260408084209091529082529020805460019091015482565b34801561079457600080fd5b506103d66107a3366004614f1d565b603d60209081526000928352604080842090915290825290205481565b3480156107cc57600080fd5b506041546042546104b1919082565b3480156107e757600080fd5b506103746107f6366004614dcf565b612f4f565b34801561080757600080fd5b50610374610816366004614f1d565b61306a565b34801561082757600080fd5b50610374610836366004614f49565b613139565b34801561084757600080fd5b5060465461085b906001600160a01b031681565b6040516001600160a01b03909116815260200161034b565b34801561087f57600080fd5b5061037461088e36600461520a565b613271565b34801561089f57600080fd5b506103d660395481565b3480156108b557600080fd5b506103746108c4366004614f1d565b613698565b3480156108d557600080fd5b506103d660435481565b3480156108eb57600080fd5b506103d66108fa366004614dcf565b603e6020526000908152604090205481565b34801561091857600080fd5b506103d660365481565b34801561092e57600080fd5b5061037461093d366004614dcf565b613769565b34801561094e57600080fd5b5061037461095d36600461526d565b6138c0565b34801561096e57600080fd5b5061033f61097d366004614f1d565b613d5b565b34801561098e57600080fd5b5061037461099d366004614dcf565b613dc2565b3480156109ae57600080fd5b506103746109bd3660046152f7565b613f19565b3480156109ce57600080fd5b506103d660008051602061596183398151915281565b3480156109f057600080fd5b506103d66109ff366004615149565b614114565b348015610a1057600080fd5b506103d660008051602061592183398151915281565b348015610a3257600080fd5b5061085b6146b8565b604254604354610a4b904261535d565b11610a715760405162461bcd60e51b8152600401610a6890615374565b60405180910390fd5b603360009054906101000a90046001600160a01b03166001600160a01b03166350a71bac6040518163ffffffff1660e01b8152600401602060405180830381865afa158015610ac4573d6000803e3d6000fd5b505050506040513d601f19601f82011682018060405250810190610ae891906153de565b6001600160a01b031663ac259ace336040516001600160e01b031960e084901b1681526001600160a01b039091166004820152602401602060405180830381865afa158015610b3b573d6000803e3d6000fd5b505050506040513d601f19601f82011682018060405250810190610b5f91906153fb565b15610b7c5760405162461bcd60e51b8152600401610a6890615418565b60445460ff16610b9e5760405162461bcd60e51b8152600401610a689061544f565b610ba8338261254d565b8214610bf65760405162461bcd60e51b815260206004820152601d60248201527f4d6f72706865724272696467653a2057726f6e672062616c616e63652e0000006044820152606401610a68565b60008281526045602052604090205460ff1615610c675760405162461bcd60e51b815260206004820152602960248201527f4d6f72706865724272696467653a20546f6b656e20616c7265616479207472616044820152683739b332b93932b21760b91b6064820152608401610a68565b610c7183836117c9565b1515600114610c925760405162461bcd60e51b8152600401610a68906154a0565b6000828152604560205260409020805460ff19166001179055610cbb610cb53390565b8261306a565b610cc6335b82613698565b610cd1335b82610d26565b33600081815260486020526040902054610cec91908361472b565b60405182815233907f0534719a5dcedfc13619bb4206e36ba0e42fb7d166c8b8a79320c8128fc3af549060200160405180910390a2505050565b610d308282613d5b565b610d9a5760405162461bcd60e51b815260206004820152603560248201527f4d6f72706865724272696467653a205769746864726177616c20416d6f756e7460448201527408195e18d959591cc81e59585c9b1e481b1a5b5a5d605a1b6064820152608401610a68565b6001600160a01b0382166000908152603d602052604081208291610dc26301e13380426154e3565b81526020019081526020016000206000828254610ddf9190615505565b9091555081905060406000610df86301e13380426154e3565b81526020019081526020016000206000828254610e159190615505565b90915550505050565b60335460408051630140cb6560e51b81529051600080516020615921833981519152926001600160a01b0316916328196ca09160048083019260209291908290030181865afa158015610e75573d6000803e3d6000fd5b505050506040513d601f19601f82011682018060405250810190610e9991906153de565b6001600160a01b03166391d1485482336040516001600160e01b031960e085901b16815260048101929092526001600160a01b03166024820152604401602060405180830381865afa158015610ef3573d6000803e3d6000fd5b505050506040513d601f19601f82011682018060405250810190610f1791906153fb565b610f335760405162461bcd60e51b8152600401610a689061551d565b60375460408051918252602082018490527f58876df72ecce56c44d758d22355bb689efaa4946003c9bf0d75a228d1c0612f910160405180910390a150603755565b60335460408051630140cb6560e51b81529051600080516020615921833981519152926001600160a01b0316916328196ca09160048083019260209291908290030181865afa158015610fcc573d6000803e3d6000fd5b505050506040513d601f19601f82011682018060405250810190610ff091906153de565b6001600160a01b03166391d1485482336040516001600160e01b031960e085901b16815260048101929092526001600160a01b03166024820152604401602060405180830381865afa15801561104a573d6000803e3d6000fd5b505050506040513d601f19601f8201168201806040525081019061106e91906153fb565b61108a5760405162461bcd60e51b8152600401610a689061551d565b60355460408051918252602082018490527f8a30f3401f82aa6b9ef6b22cd0efee6be3c06cc377d13e718a97bdb5eccb811a910160405180910390a150603555565b6035546001600160a01b0383166000908152603b602052604081209091908390836110fa62015180426154e3565b8152602001908152602001600020546111139190615505565b1115801561114d575060385482603e600061113162015180426154e3565b81526020019081526020016000205461114a9190615505565b11155b9392505050565b60006111606001614820565b90508015611178576000805461ff0019166101001790555b603380546001600160a01b038087166001600160a01b0319928316179092556044805486151560ff19909116179055692a5a058fc295ed00000060355569d3c21bcecceda10000006036556a0422ca8b0a00a4250000006037556a027b46536c66c8e30000006038556a084595161401484a0000006039556a295be96e64066972000000603a556203f4806043556046805492851692909116919091179055801561125d576000805461ff0019169055604051600181527f7f26b83ff96e1f2b6a682f133852f6798a09c465da95921460cefb38474024989060200160405180910390a15b50505050565b60335460408051630140cb6560e51b81529051600080516020615921833981519152926001600160a01b0316916328196ca09160048083019260209291908290030181865afa1580156112ba573d6000803e3d6000fd5b505050506040513d601f19601f820116820180604052508101906112de91906153de565b6001600160a01b03166391d1485482336040516001600160e01b031960e085901b16815260048101929092526001600160a01b03166024820152604401602060405180830381865afa158015611338573d6000803e3d6000fd5b505050506040513d601f19601f8201168201806040525081019061135c91906153fb565b6113785760405162461bcd60e51b8152600401610a689061551d565b6041829055426042556040518281527fce559c2f7d86d801cf61f2bfd589e7926036f75a2c58e06b35378f308637d504906020015b60405180910390a15050565b603360009054906101000a90046001600160a01b03166001600160a01b03166350a71bac6040518163ffffffff1660e01b8152600401602060405180830381865afa15801561140c573d6000803e3d6000fd5b505050506040513d601f19601f8201168201806040525081019061143091906153de565b6001600160a01b031663ac259ace336040516001600160e01b031960e084901b1681526001600160a01b039091166004820152602401602060405180830381865afa158015611483573d6000803e3d6000fd5b505050506040513d601f19601f820116820180604052508101906114a791906153fb565b156114c45760405162461bcd60e51b8152600401610a6890615418565b6114ce338361306a565b6114d83383613698565b6114e23383610d26565b60335460408051632192ab5d60e11b8152905168056bc75e2d63100000926001600160a01b03169163432556ba9160048083019260209291908290030181865afa158015611534573d6000803e3d6000fd5b505050506040513d601f19601f8201168201806040525081019061155891906153de565b6001600160a01b0316639dc29fac33836040518363ffffffff1660e01b815260040161158592919061555e565b600060405180830381600087803b15801561159f57600080fd5b505af11580156115b3573d6000803e3d6000fd5b50505050600081846115c5919061535d565b9050603360009054906101000a90046001600160a01b03166001600160a01b031663432556ba6040518163ffffffff1660e01b8152600401602060405180830381865afa15801561161a573d6000803e3d6000fd5b505050506040513d601f19601f8201168201806040525081019061163e91906153de565b6001600160a01b0316639dc29fac33836040518363ffffffff1660e01b815260040161166b92919061555e565b600060405180830381600087803b15801561168557600080fd5b505af1158015611699573d6000803e3d6000fd5b50505050600081604760006116ab3390565b6001600160a01b03168152602080820192909252604090810160009081208882529092529020546116dc9190615505565b905060006116e86148ad565b9050426000338585848a8760405160200161170896959493929190615577565b604051602081830303815290604052805190602001209050836047600061172c3390565b6001600160a01b03168152602080820192909252604090810160009081208b825283528181209390935533808452604783528184208b855283529281902042600190910155805188815291820187905281810185905260608201869052608082018a9052518392917f22d7abd4c58e0b77e5d1da401e0ed36ada87c92c62c0fade36d396d12bf5dc7d919081900360a00190a35050505050505050565b600061114d83604160000154846148cb565b603360009054906101000a90046001600160a01b03166001600160a01b03166350a71bac6040518163ffffffff1660e01b8152600401602060405180830381865afa15801561182e573d6000803e3d6000fd5b505050506040513d601f19601f8201168201806040525081019061185291906153de565b6001600160a01b031663ac259ace336040516001600160e01b031960e084901b1681526001600160a01b039091166004820152602401602060405180830381865afa1580156118a5573d6000803e3d6000fd5b505050506040513d601f19601f820116820180604052508101906118c991906153fb565b156118e65760405162461bcd60e51b8152600401610a6890615418565b60003384466040516020016118fd939291906155ae565b6040516020818303038152906040528051906020012090506000604860006119223390565b6001600160a01b03168152602081019190915260400160002054905061194884836117c9565b6119645760405162461bcd60e51b8152600401610a68906155d3565b8461196f8783615505565b111561198d5760405162461bcd60e51b8152600401610a6890615656565b611997338761306a565b6119a13387613698565b6119ab3387610d26565b6119b630828861472b565b60405186815233906000805160206159418339815191529060200160405180910390a260335460408051632192ab5d60e11b81529051611a5a926001600160a01b03169163432556ba9160048083019260209291908290030181865afa158015611a24573d6000803e3d6000fd5b505050506040513d601f19601f82011682018060405250810190611a4891906153de565b6046546001600160a01b0316886148e1565b604080516101008101808352603354632192ab5d60e11b909152915160009282916001600160a01b039091169063432556ba90610104808501916020918187030181865afa158015611ab0573d6000803e3d6000fd5b505050506040513d601f19601f82011682018060405250810190611ad491906153de565b6001600160a01b03168152602001604660009054906101000a90046001600160a01b03166001600160a01b0316634aa4a4fc6040518163ffffffff1660e01b8152600401602060405180830381865afa158015611b35573d6000803e3d6000fd5b505050506040513d601f19601f82011682018060405250810190611b5991906153de565b6001600160a01b039081168252610bb8602083015230604080840191909152426060840152608083018b9052600060a0840181905260c0909301839052604654905163414bf38960e01b8152939450919291169063414bf38990611bc19085906004016156be565b6020604051808303816000875af1158015611be0573d6000803e3d6000fd5b505050506040513d601f19601f82011682018060405250810190611c049190615727565b9050604660009054906101000a90046001600160a01b03166001600160a01b0316634aa4a4fc6040518163ffffffff1660e01b8152600401602060405180830381865afa158015611c59573d6000803e3d6000fd5b505050506040513d601f19601f82011682018060405250810190611c7d91906153de565b6001600160a01b0316632e1a7d4d826040518263ffffffff1660e01b8152600401611caa91815260200190565b600060405180830381600087803b158015611cc457600080fd5b505af1158015611cd8573d6000803e3d6000fd5b50506040516001600160a01b038816925083156108fc02915083906000818181858888f19350505050158015611d12573d6000803e3d6000fd5b505050505050505050565b60335460408051630140cb6560e51b81529051600080516020615921833981519152926001600160a01b0316916328196ca09160048083019260209291908290030181865afa158015611d74573d6000803e3d6000fd5b505050506040513d601f19601f82011682018060405250810190611d9891906153de565b6001600160a01b03166391d1485482336040516001600160e01b031960e085901b16815260048101929092526001600160a01b03166024820152604401602060405180830381865afa158015611df2573d6000803e3d6000fd5b505050506040513d601f19601f82011682018060405250810190611e1691906153fb565b611e325760405162461bcd60e51b8152600401610a689061551d565b60395460408051918252602082018490527f53e006bea65a38d4b925b9299178d9c25ae1236005e70c46dc1d1d6329e41ff2910160405180910390a150603955565b6036546001600160a01b0383166000908152603c60205260408120909190839083611ea262278d00426154e3565b815260200190815260200160002054611ebb9190615505565b1115801561114d575060395482603f600061113162278d00426154e3565b603360009054906101000a90046001600160a01b03166001600160a01b03166350a71bac6040518163ffffffff1660e01b8152600401602060405180830381865afa158015611f2c573d6000803e3d6000fd5b505050506040513d601f19601f82011682018060405250810190611f5091906153de565b6001600160a01b031663ac259ace336040516001600160e01b031960e084901b1681526001600160a01b039091166004820152602401602060405180830381865afa158015611fa3573d6000803e3d6000fd5b505050506040513d601f19601f82011682018060405250810190611fc791906153fb565b15611fe45760405162461bcd60e51b8152600401610a6890615418565b6040516001600160601b03193360601b166020820152603481018490526000906054016040516020818303038152906040528051906020012090506043546047600061202d3390565b6001600160a01b03166001600160a01b0316815260200190815260200160002060008481526020019081526020016000206001015461206c9190615505565b42116120f45760405162461bcd60e51b815260206004820152604b60248201527f4d6f72706865724272696467653a204661696c6564206465706f73697473206360448201527f616e206f6e6c7920626520636c61696d656420616674657220696e616374697660648201526a34ba3c903832b934b7b21760a91b608482015260a401610a68565b33600090815260476020908152604080832085845290915290205484106121985760405162461bcd60e51b815260206004820152604c60248201527f4d6f72706865724272696467653a204f7468657220636861696e20637265646960448201527f74206973206772656174657220657175616c20746f2077726f6e67536964654360648201526b3430b4b72130b630b731b29760a11b608482015260a401610a68565b6121a283826117c9565b61222e5760405162461bcd60e51b815260206004820152605160248201527f4d6f72706865724272696467653a204d65726b6c652050726f6f66206661696c60448201527f65642e20456e74657220746f74616c20616d6f756e74206f66206465706f73696064820152703a399037b71039b4b2329031b430b4b71760791b608482015260a401610a68565b33600090815260476020908152604080832085845290915281205461225490869061535d565b33600090815260476020908152604080832087845290915281208054929350839290919061228390849061535d565b90915550503360008181526047602090815260408083208784529091529020426001909101556122b290610cb5565b6122bb33610cc0565b6122c433610ccb565b603360009054906101000a90046001600160a01b03166001600160a01b031663432556ba6040518163ffffffff1660e01b8152600401602060405180830381865afa158015612317573d6000803e3d6000fd5b505050506040513d601f19601f8201168201806040525081019061233b91906153de565b6001600160a01b03166340c10f1933836040518363ffffffff1660e01b815260040161236892919061555e565b600060405180830381600087803b15801561238257600080fd5b505af1158015612396573d6000803e3d6000fd5b505050506123a13390565b6001600160a01b03167ff3d1bd7b5416206939e66c9b6ee92563caaf8499c21668173d17cacbaefdc700826040516123db91815260200190565b60405180910390a25050505050565b60335460408051630140cb6560e51b81529051600080516020615961833981519152926001600160a01b0316916328196ca09160048083019260209291908290030181865afa158015612441573d6000803e3d6000fd5b505050506040513d601f19601f8201168201806040525081019061246591906153de565b6001600160a01b03166391d1485482336040516001600160e01b031960e085901b16815260048101929092526001600160a01b03166024820152604401602060405180830381865afa1580156124bf573d6000803e3d6000fd5b505050506040513d601f19601f820116820180604052508101906124e391906153fb565b6124ff5760405162461bcd60e51b8152600401610a689061551d565b603380546001600160a01b0319166001600160a01b0384169081179091556040519081527f978c711532bae8c58f353b0f3c7f3a0dfe600d9ae9a81818f2ad2919b88e1990906020016113ad565b6040516001600160601b0319606084901b1660208201526034810182905260009060540160405160208183030381529060405280519060200120905092915050565b6000600080516020615921833981519152603360009054906101000a90046001600160a01b03166001600160a01b03166328196ca06040518163ffffffff1660e01b8152600401602060405180830381865afa1580156125f3573d6000803e3d6000fd5b505050506040513d601f19601f8201168201806040525081019061261791906153de565b6001600160a01b03166391d1485482336040516001600160e01b031960e085901b16815260048101929092526001600160a01b03166024820152604401602060405180830381865afa158015612671573d6000803e3d6000fd5b505050506040513d601f19601f8201168201806040525081019061269591906153fb565b6126b15760405162461bcd60e51b8152600401610a689061551d565b8a6001600160a01b031661275b846127558d89466040516020016126f59392919092835260609190911b6001600160601b0319166020830152603482015260540190565b60408051601f1981840301815282825280516020918201207f19457468657265756d205369676e6564204d6573736167653a0a33320000000084830152603c8085019190915282518085039091018152605c909301909152815191012090565b906149eb565b6001600160a01b0316146127815760405162461bcd60e51b8152600401610a6890615740565b61278a84611263565b60008b88466040516020016127a1939291906155ae565b60408051601f1981840301815291815281516020928301206001600160a01b038f16600090815260489093529120549091506127dd88836117c9565b6127f95760405162461bcd60e51b8152600401610a68906155d3565b886128048d83615505565b11156128225760405162461bcd60e51b8152600401610a6890615656565b61282c8d8d61306a565b6128368d8d613698565b6128408d8d610d26565b61284a8c82615505565b6001600160a01b03808f16600090815260486020908152604091829020938455426001909401939093556033548151632192ab5d60e11b8152915192169263432556ba926004808401938290030181865afa1580156128ad573d6000803e3d6000fd5b505050506040513d601f19601f820116820180604052508101906128d191906153de565b6001600160a01b03166340c10f19308e6040518363ffffffff1660e01b81526004016128fe92919061555e565b600060405180830381600087803b15801561291857600080fd5b505af115801561292c573d6000803e3d6000fd5b505050508c6001600160a01b03166000805160206159418339815191528d60405161295991815260200190565b60405180910390a2603360009054906101000a90046001600160a01b03166001600160a01b031663432556ba6040518163ffffffff1660e01b8152600401602060405180830381865afa1580156129b4573d6000803e3d6000fd5b505050506040513d601f19601f820116820180604052508101906129d891906153de565b6001600160a01b031663a9059cbb8b8d6040518363ffffffff1660e01b8152600401612a0592919061555e565b6020604051808303816000875af1158015612a24573d6000803e3d6000fd5b505050506040513d601f19601f82011682018060405250810190612a4891906153fb565b506000612a558c8e61535d565b9050612ae3603360009054906101000a90046001600160a01b03166001600160a01b031663432556ba6040518163ffffffff1660e01b8152600401602060405180830381865afa158015612aad573d6000803e3d6000fd5b505050506040513d601f19601f82011682018060405250810190612ad191906153de565b6046546001600160a01b0316836148e1565b604080516101008101808352603354632192ab5d60e11b909152915160009282916001600160a01b039091169063432556ba90610104808501916020918187030181865afa158015612b39573d6000803e3d6000fd5b505050506040513d601f19601f82011682018060405250810190612b5d91906153de565b6001600160a01b03168152602001604660009054906101000a90046001600160a01b03166001600160a01b0316634aa4a4fc6040518163ffffffff1660e01b8152600401602060405180830381865afa158015612bbe573d6000803e3d6000fd5b505050506040513d601f19601f82011682018060405250810190612be291906153de565b6001600160a01b039081168252610bb860208301523060408084019190915242606084015260808301869052600060a0840181905260c0909301839052604654905163414bf38960e01b8152939450919291169063414bf38990612c4a9085906004016156be565b6020604051808303816000875af1158015612c69573d6000803e3d6000fd5b505050506040513d601f19601f82011682018060405250810190612c8d9190615727565b9050604660009054906101000a90046001600160a01b03166001600160a01b0316634aa4a4fc6040518163ffffffff1660e01b8152600401602060405180830381865afa158015612ce2573d6000803e3d6000fd5b505050506040513d601f19601f82011682018060405250810190612d0691906153de565b6001600160a01b0316632e1a7d4d826040518263ffffffff1660e01b8152600401612d3391815260200190565b600060405180830381600087803b158015612d4d57600080fd5b505af1158015612d61573d6000803e3d6000fd5b50506040516001600160a01b038d16925083156108fc02915083906000818181858888f19350505050158015612d9b573d6000803e3d6000fd5b50604080516001600160a01b038c1681526020810183905260018183015290517f289e4a435008cc7d5b0aff39e319200f48d2172e15ee3744ba209b13670498509181900360600190a19f9e505050505050505050505050505050565b60335460408051630140cb6560e51b81529051600080516020615921833981519152926001600160a01b0316916328196ca09160048083019260209291908290030181865afa158015612e4f573d6000803e3d6000fd5b505050506040513d601f19601f82011682018060405250810190612e7391906153de565b6001600160a01b03166391d1485482336040516001600160e01b031960e085901b16815260048101929092526001600160a01b03166024820152604401602060405180830381865afa158015612ecd573d6000803e3d6000fd5b505050506040513d601f19601f82011682018060405250810190612ef191906153fb565b612f0d5760405162461bcd60e51b8152600401610a689061551d565b60385460408051918252602082018490527fff4f3e2a6b4cb9b7141b4a215d1ae67a9dd18a640499d1393c6c0d0f253006db910160405180910390a150603855565b60335460408051630140cb6560e51b81529051600080516020615961833981519152926001600160a01b0316916328196ca09160048083019260209291908290030181865afa158015612fa6573d6000803e3d6000fd5b505050506040513d601f19601f82011682018060405250810190612fca91906153de565b6001600160a01b03166391d1485482336040516001600160e01b031960e085901b16815260048101929092526001600160a01b03166024820152604401602060405180830381865afa158015613024573d6000803e3d6000fd5b505050506040513d601f19601f8201168201806040525081019061304891906153fb565b6130645760405162461bcd60e51b8152600401610a689061551d565b50604355565b61307482826110cc565b6130dd5760405162461bcd60e51b815260206004820152603460248201527f4d6f72706865724272696467653a205769746864726177616c20416d6f756e7460448201527308195e18d959591cc819185a5b1e481b1a5b5a5d60621b6064820152608401610a68565b6001600160a01b0382166000908152603b60205260408120829161310462015180426154e3565b815260200190815260200160002060008282546131219190615505565b90915550819050603e6000610df862015180426154e3565b60335460408051630140cb6560e51b81529051600080516020615961833981519152926001600160a01b0316916328196ca09160048083019260209291908290030181865afa158015613190573d6000803e3d6000fd5b505050506040513d601f19601f820116820180604052508101906131b491906153de565b6001600160a01b03166391d1485482336040516001600160e01b031960e085901b16815260048101929092526001600160a01b03166024820152604401602060405180830381865afa15801561320e573d6000803e3d6000fd5b505050506040513d601f19601f8201168201806040525081019061323291906153fb565b61324e5760405162461bcd60e51b8152600401610a689061551d565b50604680546001600160a01b0319166001600160a01b0392909216919091179055565b603360009054906101000a90046001600160a01b03166001600160a01b03166350a71bac6040518163ffffffff1660e01b8152600401602060405180830381865afa1580156132c4573d6000803e3d6000fd5b505050506040513d601f19601f820116820180604052508101906132e891906153de565b6001600160a01b031663ac259ace336040516001600160e01b031960e084901b1681526001600160a01b039091166004820152602401602060405180830381865afa15801561333b573d6000803e3d6000fd5b505050506040513d601f19601f8201168201806040525081019061335f91906153fb565b1561337c5760405162461bcd60e51b8152600401610a6890615418565b613386338561306a565b6133903385613698565b61339a3385610d26565b60335460408051632192ab5d60e11b8152905168056bc75e2d63100000926001600160a01b03169163432556ba9160048083019260209291908290030181865afa1580156133ec573d6000803e3d6000fd5b505050506040513d601f19601f8201168201806040525081019061341091906153de565b6001600160a01b0316639dc29fac33836040518363ffffffff1660e01b815260040161343d92919061555e565b600060405180830381600087803b15801561345757600080fd5b505af115801561346b573d6000803e3d6000fd5b505050506000818661347d919061535d565b9050603360009054906101000a90046001600160a01b03166001600160a01b031663432556ba6040518163ffffffff1660e01b8152600401602060405180830381865afa1580156134d2573d6000803e3d6000fd5b505050506040513d601f19601f820116820180604052508101906134f691906153de565b6001600160a01b0316639dc29fac33836040518363ffffffff1660e01b815260040161352392919061555e565b600060405180830381600087803b15801561353d57600080fd5b505af1158015613551573d6000803e3d6000fd5b50505050600081604760006135633390565b6001600160a01b03168152602080820192909252604090810160009081208a82529092529020546135949190615505565b905060006135a06148ad565b9050426000338585848c876040516020016135c096959493929190615577565b60405160208183030381529060405280519060200120905083604760006135e43390565b6001600160a01b03168152602080820192909252604090810160009081208d82529092528120919091554290604790336001600160a01b03168152602080820192909252604090810160009081208d825290925290206001015580336001600160a01b03167f5ece11db74b4a83792b00f8375343013bce17047b3ca83ff16ece331c9220a2f878786888f8f8f60405161368497969594939291906157bc565b60405180910390a350505050505050505050565b6136a28282611e74565b61370d5760405162461bcd60e51b815260206004820152603660248201527f4d6f72706865724272696467653a205769746864726177616c20416d6f756e7460448201527508195e18d959591cc81b5bdb9d1a1b1e481b1a5b5a5d60521b6064820152608401610a68565b6001600160a01b0382166000908152603c60205260408120829161373462278d00426154e3565b815260200190815260200160002060008282546137519190615505565b90915550819050603f6000610df862278d00426154e3565b60335460408051630140cb6560e51b81529051600080516020615921833981519152926001600160a01b0316916328196ca09160048083019260209291908290030181865afa1580156137c0573d6000803e3d6000fd5b505050506040513d601f19601f820116820180604052508101906137e491906153de565b6001600160a01b03166391d1485482336040516001600160e01b031960e085901b16815260048101929092526001600160a01b03166024820152604401602060405180830381865afa15801561383e573d6000803e3d6000fd5b505050506040513d601f19601f8201168201806040525081019061386291906153fb565b61387e5760405162461bcd60e51b8152600401610a689061551d565b603a5460408051918252602082018490527f5c3db7af464ea9d986519b99cb07faf52b14ed37cccd5d05bea914e2fd92a06b910160405180910390a150603a55565b6042546043546138d0904261535d565b116138ed5760405162461bcd60e51b8152600401610a6890615374565b603360009054906101000a90046001600160a01b03166001600160a01b03166350a71bac6040518163ffffffff1660e01b8152600401602060405180830381865afa158015613940573d6000803e3d6000fd5b505050506040513d601f19601f8201168201806040525081019061396491906153de565b6001600160a01b031663ac259ace336040516001600160e01b031960e084901b1681526001600160a01b039091166004820152602401602060405180830381865afa1580156139b7573d6000803e3d6000fd5b505050506040513d601f19601f820116820180604052508101906139db91906153fb565b156139f85760405162461bcd60e51b8152600401610a6890615418565b60445460ff16613a1a5760405162461bcd60e51b8152600401610a689061544f565b603360009054906101000a90046001600160a01b03166001600160a01b031663d37afa8d6040518163ffffffff1660e01b8152600401602060405180830381865afa158015613a6d573d6000803e3d6000fd5b505050506040513d601f19601f82011682018060405250810190613a9191906153de565b6001600160a01b0316637a687444338a8a8a8a8a8a8a8a6040518a63ffffffff1660e01b8152600401613acc99989796959493929190615825565b602060405180830381865afa158015613ae9573d6000803e3d6000fd5b505050506040513d601f19601f82011682018060405250810190613b0d9190615727565b8914613b755760405162461bcd60e51b815260206004820152603160248201527f4d6f72706865724272696467653a206c65616620646f6573206e6f742065717560448201527030b6103837b9b4ba34b7b7103430b9b41760791b6064820152608401610a68565b60008981526045602052604090205460ff1615613be95760405162461bcd60e51b815260206004820152602c60248201527f4d6f72706865724272696467653a20506f736974696f6e20616c72656164792060448201526b3a3930b739b332b93932b21760a11b6064820152608401610a68565b613bf38a8a6117c9565b1515600114613c145760405162461bcd60e51b8152600401610a68906154a0565b600089815260456020908152604091829020805460ff19166001179055603354825163d37afa8d60e01b815292516001600160a01b039091169263d37afa8d9260048083019391928290030181865afa158015613c75573d6000803e3d6000fd5b505050506040513d601f19601f82011682018060405250810190613c9991906153de565b6001600160a01b031663be7e64b6338a8a8a8a8a8a8a8a6040518a63ffffffff1660e01b8152600401613cd499989796959493929190615825565b600060405180830381600087803b158015613cee57600080fd5b505af1158015613d02573d6000803e3d6000fd5b50505050613d0d3390565b6001600160a01b03167f46de0525fb620932847e7db9be837e386fb61845ffb4ccc632241dfa56ce5d438a604051613d4791815260200190565b60405180910390a250505050505050505050565b6037546001600160a01b0383166000908152603d60205260408120909190839083613d8a6301e13380426154e3565b815260200190815260200160002054613da39190615505565b1115801561114d5750603a5482604060006111316301e13380426154e3565b60335460408051630140cb6560e51b81529051600080516020615921833981519152926001600160a01b0316916328196ca09160048083019260209291908290030181865afa158015613e19573d6000803e3d6000fd5b505050506040513d601f19601f82011682018060405250810190613e3d91906153de565b6001600160a01b03166391d1485482336040516001600160e01b031960e085901b16815260048101929092526001600160a01b03166024820152604401602060405180830381865afa158015613e97573d6000803e3d6000fd5b505050506040513d601f19601f82011682018060405250810190613ebb91906153fb565b613ed75760405162461bcd60e51b8152600401610a689061551d565b60365460408051918252602082018490527f15bbabad33cea99b6af1c5233603cb731748ed7b1cf3abd8de230338e7b4c97d910160405180910390a150603655565b603360009054906101000a90046001600160a01b03166001600160a01b03166350a71bac6040518163ffffffff1660e01b8152600401602060405180830381865afa158015613f6c573d6000803e3d6000fd5b505050506040513d601f19601f82011682018060405250810190613f9091906153de565b6001600160a01b031663ac259ace336040516001600160e01b031960e084901b1681526001600160a01b039091166004820152602401602060405180830381865afa158015613fe3573d6000803e3d6000fd5b505050506040513d601f19601f8201168201806040525081019061400791906153fb565b156140245760405162461bcd60e51b8152600401610a6890615418565b600033834660405160200161403b939291906155ae565b6040516020818303038152906040528051906020012090506000604860006140603390565b6001600160a01b03168152602081019190915260400160002054905061408683836117c9565b6140a25760405162461bcd60e51b8152600401610a68906155d3565b836140ad8683615505565b11156140cb5760405162461bcd60e51b8152600401610a6890615656565b6140d5338661306a565b6140df3386613698565b6140e93386610d26565b6140f433828761472b565b6040518581523390600080516020615941833981519152906020016123db565b6000600080516020615921833981519152603360009054906101000a90046001600160a01b03166001600160a01b03166328196ca06040518163ffffffff1660e01b8152600401602060405180830381865afa158015614178573d6000803e3d6000fd5b505050506040513d601f19601f8201168201806040525081019061419c91906153de565b6001600160a01b03166391d1485482336040516001600160e01b031960e085901b16815260048101929092526001600160a01b03166024820152604401602060405180830381865afa1580156141f6573d6000803e3d6000fd5b505050506040513d601f19601f8201168201806040525081019061421a91906153fb565b6142365760405162461bcd60e51b8152600401610a689061551d565b8a6001600160a01b031661427a846127558d89466040516020016126f59392919092835260609190911b6001600160601b0319166020830152603482015260540190565b6001600160a01b0316146142a05760405162461bcd60e51b8152600401610a6890615740565b6142a984611263565b60008b88466040516020016142c0939291906155ae565b60408051601f1981840301815291815281516020928301206001600160a01b038f16600090815260489093529120549091506142fc88836117c9565b6143185760405162461bcd60e51b8152600401610a68906155d3565b886143238d83615505565b11156143415760405162461bcd60e51b8152600401610a6890615656565b61434b8d8d61306a565b6143558d8d613698565b61435f8d8d610d26565b6143698c82615505565b6001600160a01b03808f16600090815260486020908152604091829020938455426001909401939093556033548151632192ab5d60e11b8152915192169263432556ba926004808401938290030181865afa1580156143cc573d6000803e3d6000fd5b505050506040513d601f19601f820116820180604052508101906143f091906153de565b6001600160a01b03166340c10f19308e6040518363ffffffff1660e01b815260040161441d92919061555e565b600060405180830381600087803b15801561443757600080fd5b505af115801561444b573d6000803e3d6000fd5b505050508c6001600160a01b03166000805160206159418339815191528d60405161447891815260200190565b60405180910390a2603360009054906101000a90046001600160a01b03166001600160a01b031663432556ba6040518163ffffffff1660e01b8152600401602060405180830381865afa1580156144d3573d6000803e3d6000fd5b505050506040513d601f19601f820116820180604052508101906144f791906153de565b6001600160a01b031663a9059cbb8b8d6040518363ffffffff1660e01b815260040161452492919061555e565b6020604051808303816000875af1158015614543573d6000803e3d6000fd5b505050506040513d601f19601f8201168201806040525081019061456791906153fb565b5060006145748c8e61535d565b9050603360009054906101000a90046001600160a01b03166001600160a01b031663432556ba6040518163ffffffff1660e01b8152600401602060405180830381865afa1580156145c9573d6000803e3d6000fd5b505050506040513d601f19601f820116820180604052508101906145ed91906153de565b6001600160a01b031663a9059cbb89836040518363ffffffff1660e01b815260040161461a92919061555e565b6020604051808303816000875af1158015614639573d6000803e3d6000fd5b505050506040513d601f19601f8201168201806040525081019061465d91906153fb565b50604080516001600160a01b038a1681526020810183905260008183015290517f289e4a435008cc7d5b0aff39e319200f48d2172e15ee3744ba209b13670498509181900360600190a19d9c50505050505050505050505050565b604654604080516312a9293f60e21b815290516000926001600160a01b031691634aa4a4fc9160048083019260209291908290030181865afa158015614702573d6000803e3d6000fd5b505050506040513d601f19601f8201168201806040525081019061472691906153de565b905090565b6147358183615505565b6001600160a01b03808516600090815260486020908152604091829020938455426001909401939093556033548151632192ab5d60e11b8152915192169263432556ba926004808401938290030181865afa158015614798573d6000803e3d6000fd5b505050506040513d601f19601f820116820180604052508101906147bc91906153de565b6001600160a01b03166340c10f1984836040518363ffffffff1660e01b81526004016147e992919061555e565b600060405180830381600087803b15801561480357600080fd5b505af1158015614817573d6000803e3d6000fd5b50505050505050565b60008054610100900460ff1615614867578160ff1660011480156148435750303b155b61485f5760405162461bcd60e51b8152600401610a689061586f565b506000919050565b60005460ff80841691161061488e5760405162461bcd60e51b8152600401610a689061586f565b506000805460ff191660ff92909216919091179055600190565b919050565b60498054600091826148be836158bd565b9190505550604954905090565b6000826148d88584614a0f565b14949350505050565b600080846001600160a01b031663095ea7b360e01b858560405160240161490992919061555e565b60408051601f198184030181529181526020820180516001600160e01b03166001600160e01b031990941693909317909252905161494791906158d8565b6000604051808303816000865af19150503d8060008114614984576040519150601f19603f3d011682016040523d82523d6000602084013e614989565b606091505b50915091508180156149b35750805115806149b35750808060200190518101906149b391906153fb565b6149e45760405162461bcd60e51b8152602060048201526002602482015261534160f01b6044820152606401610a68565b5050505050565b60008060006149fa8585614a7b565b91509150614a0781614aeb565b509392505050565b600081815b8451811015614a07576000858281518110614a3157614a316158f4565b60200260200101519050808311614a575760008381526020829052604090209250614a68565b600081815260208490526040902092505b5080614a73816158bd565b915050614a14565b600080825160411415614ab25760208301516040840151606085015160001a614aa687828585614ca9565b94509450505050614ae4565b825160401415614adc5760208301516040840151614ad1868383614d96565b935093505050614ae4565b506000905060025b9250929050565b6000816004811115614aff57614aff61590a565b1415614b085750565b6001816004811115614b1c57614b1c61590a565b1415614b6a5760405162461bcd60e51b815260206004820152601860248201527f45434453413a20696e76616c6964207369676e617475726500000000000000006044820152606401610a68565b6002816004811115614b7e57614b7e61590a565b1415614bcc5760405162461bcd60e51b815260206004820152601f60248201527f45434453413a20696e76616c6964207369676e6174757265206c656e677468006044820152606401610a68565b6003816004811115614be057614be061590a565b1415614c395760405162461bcd60e51b815260206004820152602260248201527f45434453413a20696e76616c6964207369676e6174757265202773272076616c604482015261756560f01b6064820152608401610a68565b6004816004811115614c4d57614c4d61590a565b1415614ca65760405162461bcd60e51b815260206004820152602260248201527f45434453413a20696e76616c6964207369676e6174757265202776272076616c604482015261756560f01b6064820152608401610a68565b50565b6000807f7fffffffffffffffffffffffffffffff5d576e7357a4501ddfe92f46681b20a0831115614ce05750600090506003614d8d565b8460ff16601b14158015614cf857508460ff16601c14155b15614d095750600090506004614d8d565b6040805160008082526020820180845289905260ff881692820192909252606081018690526080810185905260019060a0016020604051602081039080840390855afa158015614d5d573d6000803e3d6000fd5b5050604051601f1901519150506001600160a01b038116614d8657600060019250925050614d8d565b9150600090505b94509492505050565b6000806001600160ff1b03831681614db360ff86901c601b615505565b9050614dc187828885614ca9565b935093505050935093915050565b600060208284031215614de157600080fd5b5035919050565b634e487b7160e01b600052604160045260246000fd5b604051601f8201601f1916810167ffffffffffffffff81118282101715614e2757614e27614de8565b604052919050565b600082601f830112614e4057600080fd5b8135602067ffffffffffffffff821115614e5c57614e5c614de8565b8160051b614e6b828201614dfe565b9283528481018201928281019087851115614e8557600080fd5b83870192505b84831015614ea457823582529183019190830190614e8b565b979650505050505050565b600080600060608486031215614ec457600080fd5b833567ffffffffffffffff811115614edb57600080fd5b614ee786828701614e2f565b9660208601359650604090950135949350505050565b6001600160a01b0381168114614ca657600080fd5b80356148a881614efd565b60008060408385031215614f3057600080fd5b8235614f3b81614efd565b946020939093013593505050565b600060208284031215614f5b57600080fd5b813561114d81614efd565b8015158114614ca657600080fd5b600080600060608486031215614f8957600080fd5b8335614f9481614efd565b92506020840135614fa481614f66565b91506040840135614fb481614efd565b809150509250925092565b60008060408385031215614fd257600080fd5b50508035926020909101359150565b60008060408385031215614ff457600080fd5b823567ffffffffffffffff81111561500b57600080fd5b61501785828601614e2f565b95602094909401359450505050565b6000806000806080858703121561503c57600080fd5b8435935060208501359250604085013567ffffffffffffffff81111561506157600080fd5b61506d87828801614e2f565b925050606085013561507e81614efd565b939692955090935050565b60008060006060848603121561509e57600080fd5b83359250602084013567ffffffffffffffff8111156150bc57600080fd5b6150c886828701614e2f565b925050604084013590509250925092565b600082601f8301126150ea57600080fd5b813567ffffffffffffffff81111561510457615104614de8565b615117601f8201601f1916602001614dfe565b81815284602083860101111561512c57600080fd5b816020850160208301376000918101602001919091529392505050565b60008060008060008060008060006101208a8c03121561516857600080fd5b893561517381614efd565b985060208a0135975060408a0135965060608a013561519181614efd565b955060808a0135945060a08a013567ffffffffffffffff808211156151b557600080fd5b6151c18d838e01614e2f565b95506151cf60c08d01614f12565b945060e08c013593506101008c01359150808211156151ed57600080fd5b506151fa8c828d016150d9565b9150509295985092959850929598565b6000806000806080858703121561522057600080fd5b8435935060208501359250604085013561523981614efd565b9150606085013567ffffffffffffffff81111561525557600080fd5b615261878288016150d9565b91505092959194509250565b6000806000806000806000806000806101408b8d03121561528d57600080fd5b8a3567ffffffffffffffff8111156152a457600080fd5b6152b08d828e01614e2f565b9d60208d01359d5060408d01359c60608101359c5060808101359b5060a08101359a5060c0810135995060e081013598506101008101359750610120013595509350505050565b60008060006060848603121561530c57600080fd5b8335925060208401359150604084013567ffffffffffffffff81111561533157600080fd5b61533d86828701614e2f565b9150509250925092565b634e487b7160e01b600052601160045260246000fd5b60008282101561536f5761536f615347565b500390565b60208082526044908201527f4d6f72706865724272696467653a2046756e6374696f6e2063616e206f6e6c7960408201527f2062652063616c6c65642069662073696465636861696e20697320696e61637460608201526334bb329760e11b608082015260a00190565b6000602082840312156153f057600080fd5b815161114d81614efd565b60006020828403121561540d57600080fd5b815161114d81614f66565b6020808252601e908201527f4d6f72706865724272696467653a205573657220697320626c6f636b65640000604082015260600190565b60208082526031908201527f4d6f72706865724272696467653a205265636f766572792066756e6374696f6e6040820152701cc8185c99481b9bdd08195b98589b1959607a1b606082015260800190565b60208082526023908201527f4d6f72706865724272696467653a204d65726b6c652070726f6f66206661696c60408201526232b21760e91b606082015260800190565b60008261550057634e487b7160e01b600052601260045260246000fd5b500490565b6000821982111561551857615518615347565b500190565b60208082526021908201527f4d6f72706865724272696467653a205065726d697373696f6e2064656e6965646040820152601760f91b606082015260800190565b6001600160a01b03929092168252602082015260400190565b60609690961b6001600160601b03191686526014860194909452603485019290925260548401526074830152609482015260b40190565b60609390931b6001600160601b03191683526014830191909152603482015260540190565b60208082526059908201527f4d6f72706865724272696467653a204d65726b6c652050726f6f66206661696c60408201527f65642e20506c65617365206d616b65207375726520796f7520656e746572656460608201527f2074686520636f727265637420636c61696d206c696d69742e00000000000000608082015260a00190565b60208082526042908201527f4d6f72706865724272696467653a20546f6b656e20616d6f756e74206578636560408201527f65647320746f6b656e2064656c65746564206f6e206c696e6b65642063686169606082015261371760f11b608082015260a00190565b81516001600160a01b03908116825260208084015182169083015260408084015162ffffff16908301526060808401518216908301526080808401519083015260a0838101519083015260c0808401519083015260e09283015116918101919091526101000190565b60006020828403121561573957600080fd5b5051919050565b60208082526030908201527f4d6f72706865724272696467653a205573657273207369676e6174757265206460408201526f6f6573206e6f742076616c696461746560801b606082015260800190565b60005b838110156157ab578181015183820152602001615793565b8381111561125d5750506000910152565b87815286602082015285604082015284606082015283608082015260018060a01b03831660a082015260e060c0820152600082518060e08401526101006158098282860160208801615790565b80601f19601f8401168501019250505098975050505050505050565b6001600160a01b03999099168952602089019790975260408801959095526060870193909352608086019190915260a085015260c084015260e08301526101008201526101200190565b6020808252602e908201527f496e697469616c697a61626c653a20636f6e747261637420697320616c72656160408201526d191e481a5b9a5d1a585b1a5e995960921b606082015260800190565b60006000198214156158d1576158d1615347565b5060010190565b600082516158ea818460208701615790565b9190910192915050565b634e487b7160e01b600052603260045260246000fd5b634e487b7160e01b600052602160045260246000fdfec08f7188394b31596c538860a69934f466a85ebc66fc5d1d967ccfaef4a6bdab943c724b337822464f019ef425f7d5b1dd7ca039317dabe7446a630a6b8236d3e5a0b4d50f56047f84728557fedbda92f956391bc9d5c762e8461996dd8e7ad7a2646970667358221220f1c606d002f0878942e30a70388b8a31a95dcb1696dc508527d86f090c013d9964736f6c634300080b0033",
    "linkReferences": {}
  },
  "methodIdentifiers": {
    "ADMINISTRATOR_ROLE()": "f45edb5f",
    "SIDECHAINOPERATOR_ROLE()": "fb16f5a9",
    "bridgeNonce()": "1f87a250",
    "claimFailedTransferToSidechain(uint256,bytes32[],uint256)": "773cc3ff",
    "claimFromInactivity(bytes32)": "015b3ab4",
    "claimStagedTokens(uint256,uint256,bytes32[])": "f03c6fdc",
    "claimStagedTokensAndSendForUser(address,uint256,uint256,address,uint256,bytes32[],address,bytes32,bytes)": "f526dc2b",
    "claimStagedTokensConvertAndSend(uint256,uint256,bytes32[],address)": "54dddf43",
    "claimStagedTokensConvertAndSendForUser(address,uint256,uint256,address,uint256,bytes32[],address,bytes32,bytes)": "9291b7e2",
    "getBalanceHash(address,uint256)": "857b0da0",
    "getWethWmaticAddress()": "feaf0343",
    "inactivityPeriod()": "d362bd2b",
    "initialize(address,bool,address)": "4888a7d1",
    "isNotDailyLimitExceeding(address,uint256)": "45bc550c",
    "isNotMonthlyLimitExceeding(address,uint256)": "6b92c06e",
    "isNotYearlyLimitExceeding(address,uint256)": "e93f271d",
    "mProof(bytes32[],bytes32)": "5300597b",
    "poolFee()": "089fe6aa",
    "recoverPositionFromInactivity(bytes32[],bytes32,bytes32,uint256,uint256,uint256,uint256,uint256,uint256,uint256)": "e7f34bb7",
    "recoverTokenFromInactivity(bytes32[],bytes32,uint256)": "03d23044",
    "recoveryEnabled()": "7946541e",
    "setInactivityPeriod(uint256)": "af434a6d",
    "setMorpherState(address)": "80104668",
    "stageTokensForTransfer(uint256,uint256)": "50456b30",
    "stageTokensForTransfer(uint256,uint256,address,bytes)": "c4b907ad",
    "swapRouter()": "c31c9c07",
    "tokenClaimedOnThisChain(address)": "3c14e352",
    "tokenSentToLinkedChain(address,uint256)": "a2f1491f",
    "updateSideChainMerkleRoot(bytes32)": "49c01664",
    "updateSwapRouter(address)": "b98b677f",
    "updateWithdrawLimitGlobalDaily(uint256)": "92e7c76e",
    "updateWithdrawLimitGlobalMonthly(uint256)": "55069a81",
    "updateWithdrawLimitGlobalYearly(uint256)": "e628eb5b",
    "updateWithdrawLimitPerUserDaily(uint256)": "2f21278c",
    "updateWithdrawLimitPerUserMonthly(uint256)": "ec65d96c",
    "updateWithdrawLimitPerUserYearly(uint256)": "2e55e76e",
    "verifyUpdateDailyLimit(address,uint256)": "b9154846",
    "verifyUpdateMonthlyLimit(address,uint256)": "d345a762",
    "verifyUpdateYearlyLimit(address,uint256)": "0e357543",
    "withdrawalData()": "abc35a91",
    "withdrawalLimitGlobalDaily()": "21bb10bb",
    "withdrawalLimitGlobalMonthly()": "cb1b92fb",
    "withdrawalLimitGlobalYearly()": "1c0ffbd0",
    "withdrawalLimitPerUserDaily()": "58b0e6b5",
    "withdrawalLimitPerUserMonthly()": "de8a5746",
    "withdrawalLimitPerUserYearly()": "83ecd612",
    "withdrawalPerUserPerDay(address,uint256)": "a1949a0a",
    "withdrawalPerUserPerMonth(address,uint256)": "7ac15763",
    "withdrawalPerUserPerYear(address,uint256)": "a31c98b7",
    "withdrawalsGlobalDaily(uint256)": "da9a6b35",
    "withdrawalsGlobalMonthly(uint256)": "8cd845d9",
    "withdrawalsGlobalYearly(uint256)": "3b45c355"
  },
  "id": 3
}