{"abi":[{"type":"receive","stateMutability":"payable"},{"type":"function","name":"ADMINISTRATOR_ROLE","inputs":[],"outputs":[{"name":"","type":"bytes32","internalType":"bytes32"}],"stateMutability":"view"},{"type":"function","name":"SIDECHAINOPERATOR_ROLE","inputs":[],"outputs":[{"name":"","type":"bytes32","internalType":"bytes32"}],"stateMutability":"view"},{"type":"function","name":"bridgeNonce","inputs":[],"outputs":[{"name":"","type":"uint256","internalType":"uint256"}],"stateMutability":"view"},{"type":"function","name":"claimFailedTransferToSidechain","inputs":[{"name":"_wrongSideChainBalance","type":"uint256","internalType":"uint256"},{"name":"_proof","type":"bytes32[]","internalType":"bytes32[]"},{"name":"_targetChainId","type":"uint256","internalType":"uint256"}],"outputs":[],"stateMutability":"nonpayable"},{"type":"function","name":"claimFromInactivity","inputs":[{"name":"","type":"bytes32","internalType":"bytes32"}],"outputs":[{"name":"","type":"bool","internalType":"bool"}],"stateMutability":"view"},{"type":"function","name":"claimStagedTokens","inputs":[{"name":"_numOfToken","type":"uint256","internalType":"uint256"},{"name":"_claimLimit","type":"uint256","internalType":"uint256"},{"name":"_proof","type":"bytes32[]","internalType":"bytes32[]"}],"outputs":[],"stateMutability":"nonpayable"},{"type":"function","name":"claimStagedTokensAndSendForUser","inputs":[{"name":"_usrAddr","type":"address","internalType":"address"},{"name":"_numOfToken","type":"uint256","internalType":"uint256"},{"name":"fee","type":"uint256","internalType":"uint256"},{"name":"feeRecipient","type":"address","internalType":"address"},{"name":"_claimLimit","type":"uint256","internalType":"uint256"},{"name":"_proof","type":"bytes32[]","internalType":"bytes32[]"},{"name":"_finalOutput","type":"address","internalType":"address payable"},{"name":"_rootHash","type":"bytes32","internalType":"bytes32"},{"name":"_userConfirmationSignature","type":"bytes","internalType":"bytes"}],"outputs":[{"name":"","type":"uint256","internalType":"uint256"}],"stateMutability":"nonpayable"},{"type":"function","name":"claimStagedTokensConvertAndSend","inputs":[{"name":"_numOfToken","type":"uint256","internalType":"uint256"},{"name":"_claimLimit","type":"uint256","internalType":"uint256"},{"name":"_proof","type":"bytes32[]","internalType":"bytes32[]"},{"name":"_finalOutput","type":"address","internalType":"address payable"}],"outputs":[],"stateMutability":"nonpayable"},{"type":"function","name":"claimStagedTokensConvertAndSendForUser","inputs":[{"name":"_usrAddr","type":"address","internalType":"address"},{"name":"_numOfToken","type":"uint256","internalType":"uint256"},{"name":"fee","type":"uint256","internalType":"uint256"},{"name":"feeRecipient","type":"address","internalType":"address"},{"name":"_claimLimit","type":"uint256","internalType":"uint256"},{"name":"_proof","type":"bytes32[]","internalType":"bytes32[]"},{"name":"_finalOutput","type":"address","internalType":"address payable"},{"name":"_rootHash","type":"bytes32","internalType":"bytes32"},{"name":"_userConfirmationSignature","type":"bytes","internalType":"bytes"}],"outputs":[{"name":"","type":"uint256","internalType":"uint256"}],"stateMutability":"nonpayable"},{"type":"function","name":"getBalanceHash","inputs":[{"name":"_address","type":"address","internalType":"address"},{"name":"_balance","type":"uint256","internalType":"uint256"}],"outputs":[{"name":"_hash","type":"bytes32","internalType":"bytes32"}],"stateMutability":"pure"},{"type":"function","name":"getWethWmaticAddress","inputs":[],"outputs":[{"name":"","type":"address","internalType":"address"}],"stateMutability":"view"},{"type":"function","name":"inactivityPeriod","inputs":[],"outputs":[{"name":"","type":"uint256","internalType":"uint256"}],"stateMutability":"view"},{"type":"function","name":"initialize","inputs":[{"name":"_stateAddress","type":"address","internalType":"address"},{"name":"_recoveryEnabled","type":"bool","internalType":"bool"},{"name":"_swapRouter","type":"address","internalType":"contract ISwapRouter"}],"outputs":[],"stateMutability":"nonpayable"},{"type":"function","name":"isNotDailyLimitExceeding","inputs":[{"name":"_usr","type":"address","internalType":"address"},{"name":"_amount","type":"uint256","internalType":"uint256"}],"outputs":[{"name":"","type":"bool","internalType":"bool"}],"stateMutability":"view"},{"type":"function","name":"isNotMonthlyLimitExceeding","inputs":[{"name":"_usr","type":"address","internalType":"address"},{"name":"_amount","type":"uint256","internalType":"uint256"}],"outputs":[{"name":"","type":"bool","internalType":"bool"}],"stateMutability":"view"},{"type":"function","name":"isNotYearlyLimitExceeding","inputs":[{"name":"_usr","type":"address","internalType":"address"},{"name":"_amount","type":"uint256","internalType":"uint256"}],"outputs":[{"name":"","type":"bool","internalType":"bool"}],"stateMutability":"view"},{"type":"function","name":"mProof","inputs":[{"name":"_proof","type":"bytes32[]","internalType":"bytes32[]"},{"name":"_leaf","type":"bytes32","internalType":"bytes32"}],"outputs":[{"name":"_isTrue","type":"bool","internalType":"bool"}],"stateMutability":"view"},{"type":"function","name":"poolFee","inputs":[],"outputs":[{"name":"","type":"uint24","internalType":"uint24"}],"stateMutability":"view"},{"type":"function","name":"recoverPositionFromInactivity","inputs":[{"name":"_proof","type":"bytes32[]","internalType":"bytes32[]"},{"name":"_leaf","type":"bytes32","internalType":"bytes32"},{"name":"_marketId","type":"bytes32","internalType":"bytes32"},{"name":"_timeStamp","type":"uint256","internalType":"uint256"},{"name":"_longShares","type":"uint256","internalType":"uint256"},{"name":"_shortShares","type":"uint256","internalType":"uint256"},{"name":"_meanEntryPrice","type":"uint256","internalType":"uint256"},{"name":"_meanEntrySpread","type":"uint256","internalType":"uint256"},{"name":"_meanEntryLeverage","type":"uint256","internalType":"uint256"},{"name":"_liquidationPrice","type":"uint256","internalType":"uint256"}],"outputs":[],"stateMutability":"nonpayable"},{"type":"function","name":"recoverTokenFromInactivity","inputs":[{"name":"_proof","type":"bytes32[]","internalType":"bytes32[]"},{"name":"_leaf","type":"bytes32","internalType":"bytes32"},{"name":"_balance","type":"uint256","internalType":"uint256"}],"outputs":[],"stateMutability":"nonpayable"},{"type":"function","name":"recoveryEnabled","inputs":[],"outputs":[{"name":"","type":"bool","internalType":"bool"}],"stateMutability":"view"},{"type":"function","name":"setInactivityPeriod","inputs":[{"name":"_periodInSeconds","type":"uint256","internalType":"uint256"}],"outputs":[],"stateMutability":"nonpayable"},{"type":"function","name":"setMorpherState","inputs":[{"name":"_stateAddress","type":"address","internalType":"address"}],"outputs":[],"stateMutability":"nonpayable"},{"type":"function","name":"stageTokensForTransfer","inputs":[{"name":"_tokens","type":"uint256","internalType":"uint256"},{"name":"_targetChainId","type":"uint256","internalType":"uint256"}],"outputs":[],"stateMutability":"nonpayable"},{"type":"function","name":"stageTokensForTransfer","inputs":[{"name":"_tokens","type":"uint256","internalType":"uint256"},{"name":"_targetChainId","type":"uint256","internalType":"uint256"},{"name":"_autoWithdrawalAddressTo","type":"address","internalType":"address"},{"name":"_signature","type":"bytes","internalType":"bytes"}],"outputs":[],"stateMutability":"nonpayable"},{"type":"function","name":"swapRouter","inputs":[],"outputs":[{"name":"","type":"address","internalType":"contract ISwapRouter"}],"stateMutability":"view"},{"type":"function","name":"tokenClaimedOnThisChain","inputs":[{"name":"","type":"address","internalType":"address"}],"outputs":[{"name":"amount","type":"uint256","internalType":"uint256"},{"name":"lastTransferAt","type":"uint256","internalType":"uint256"}],"stateMutability":"view"},{"type":"function","name":"tokenSentToLinkedChain","inputs":[{"name":"","type":"address","internalType":"address"},{"name":"","type":"uint256","internalType":"uint256"}],"outputs":[{"name":"amount","type":"uint256","internalType":"uint256"},{"name":"lastTransferAt","type":"uint256","internalType":"uint256"}],"stateMutability":"view"},{"type":"function","name":"updateSideChainMerkleRoot","inputs":[{"name":"_rootHash","type":"bytes32","internalType":"bytes32"}],"outputs":[],"stateMutability":"nonpayable"},{"type":"function","name":"updateSwapRouter","inputs":[{"name":"_swapRouter","type":"address","internalType":"contract ISwapRouter"}],"outputs":[],"stateMutability":"nonpayable"},{"type":"function","name":"updateWithdrawLimitGlobalDaily","inputs":[{"name":"_withdrawLimit","type":"uint256","internalType":"uint256"}],"outputs":[],"stateMutability":"nonpayable"},{"type":"function","name":"updateWithdrawLimitGlobalMonthly","inputs":[{"name":"_withdrawLimit","type":"uint256","internalType":"uint256"}],"outputs":[],"stateMutability":"nonpayable"},{"type":"function","name":"updateWithdrawLimitGlobalYearly","inputs":[{"name":"_withdrawLimit","type":"uint256","internalType":"uint256"}],"outputs":[],"stateMutability":"nonpayable"},{"type":"function","name":"updateWithdrawLimitPerUserDaily","inputs":[{"name":"_withdrawLimit","type":"uint256","internalType":"uint256"}],"outputs":[],"stateMutability":"nonpayable"},{"type":"function","name":"updateWithdrawLimitPerUserMonthly","inputs":[{"name":"_withdrawLimit","type":"uint256","internalType":"uint256"}],"outputs":[],"stateMutability":"nonpayable"},{"type":"function","name":"updateWithdrawLimitPerUserYearly","inputs":[{"name":"_withdrawLimit","type":"uint256","internalType":"uint256"}],"outputs":[],"stateMutability":"nonpayable"},{"type":"function","name":"verifyUpdateDailyLimit","inputs":[{"name":"_usr","type":"address","internalType":"address"},{"name":"_amount","type":"uint256","internalType":"uint256"}],"outputs":[],"stateMutability":"nonpayable"},{"type":"function","name":"verifyUpdateMonthlyLimit","inputs":[{"name":"_usr","type":"address","internalType":"address"},{"name":"_amount","type":"uint256","internalType":"uint256"}],"outputs":[],"stateMutability":"nonpayable"},{"type":"function","name":"verifyUpdateYearlyLimit","inputs":[{"name":"_usr","type":"address","internalType":"address"},{"name":"_amount","type":"uint256","internalType":"uint256"}],"outputs":[],"stateMutability":"nonpayable"},{"type":"function","name":"withdrawalData","inputs":[],"outputs":[{"name":"merkleRoot","type":"bytes32","internalType":"bytes32"},{"name":"lastUpdatedAt","type":"uint256","internalType":"uint256"}],"stateMutability":"view"},{"type":"function","name":"withdrawalLimitGlobalDaily","inputs":[],"outputs":[{"name":"","type":"uint256","internalType":"uint256"}],"stateMutability":"view"},{"type":"function","name":"withdrawalLimitGlobalMonthly","inputs":[],"outputs":[{"name":"","type":"uint256","internalType":"uint256"}],"stateMutability":"view"},{"type":"function","name":"withdrawalLimitGlobalYearly","inputs":[],"outputs":[{"name":"","type":"uint256","internalType":"uint256"}],"stateMutability":"view"},{"type":"function","name":"withdrawalLimitPerUserDaily","inputs":[],"outputs":[{"name":"","type":"uint256","internalType":"uint256"}],"stateMutability":"view"},{"type":"function","name":"withdrawalLimitPerUserMonthly","inputs":[],"outputs":[{"name":"","type":"uint256","internalType":"uint256"}],"stateMutability":"view"},{"type":"function","name":"withdrawalLimitPerUserYearly","inputs":[],"outputs":[{"name":"","type":"uint256","internalType":"uint256"}],"stateMutability":"view"},{"type":"function","name":"withdrawalPerUserPerDay","inputs":[{"name":"","type":"address","internalType":"address"},{"name":"","type":"uint256","internalType":"uint256"}],"outputs":[{"name":"","type":"uint256","internalType":"uint256"}],"stateMutability":"view"},{"type":"function","name":"withdrawalPerUserPerMonth","inputs":[{"name":"","type":"address","internalType":"address"},{"name":"","type":"uint256","internalType":"uint256"}],"outputs":[{"name":"","type":"uint256","internalType":"uint256"}],"stateMutability":"view"},{"type":"function","name":"withdrawalPerUserPerYear","inputs":[{"name":"","type":"address","internalType":"address"},{"name":"","type":"uint256","internalType":"uint256"}],"outputs":[{"name":"","type":"uint256","internalType":"uint256"}],"stateMutability":"view"},{"type":"function","name":"withdrawalsGlobalDaily","inputs":[{"name":"","type":"uint256","internalType":"uint256"}],"outputs":[{"name":"","type":"uint256","internalType":"uint256"}],"stateMutability":"view"},{"type":"function","name":"withdrawalsGlobalMonthly","inputs":[{"name":"","type":"uint256","internalType":"uint256"}],"outputs":[{"name":"","type":"uint256","internalType":"uint256"}],"stateMutability":"view"},{"type":"function","name":"withdrawalsGlobalYearly","inputs":[{"name":"","type":"uint256","internalType":"uint256"}],"outputs":[{"name":"","type":"uint256","internalType":"uint256"}],"stateMutability":"view"},{"type":"event","name":"ClaimFailedTransferToSidechain","inputs":[{"name":"from","type":"address","indexed":true,"internalType":"address"},{"name":"tokens","type":"uint256","indexed":false,"internalType":"uint256"}],"anonymous":false},{"type":"event","name":"Initialized","inputs":[{"name":"version","type":"uint8","indexed":false,"internalType":"uint8"}],"anonymous":false},{"type":"event","name":"LinkState","inputs":[{"name":"_address","type":"address","indexed":false,"internalType":"address"}],"anonymous":false},{"type":"event","name":"OperatorChainTransfer","inputs":[{"name":"from","type":"address","indexed":true,"internalType":"address"},{"name":"tokens","type":"uint256","indexed":false,"internalType":"uint256"},{"name":"sidechainTransactionHash","type":"bytes32","indexed":false,"internalType":"bytes32"}],"anonymous":false},{"type":"event","name":"PositionRecoveryFromSideChain","inputs":[{"name":"from","type":"address","indexed":true,"internalType":"address"},{"name":"positionHash","type":"bytes32","indexed":false,"internalType":"bytes32"}],"anonymous":false},{"type":"event","name":"SideChainMerkleRootUpdated","inputs":[{"name":"_rootHash","type":"bytes32","indexed":false,"internalType":"bytes32"}],"anonymous":false},{"type":"event","name":"TokenRecoveryFromSideChain","inputs":[{"name":"from","type":"address","indexed":true,"internalType":"address"},{"name":"positionHash","type":"bytes32","indexed":false,"internalType":"bytes32"}],"anonymous":false},{"type":"event","name":"TransferToLinkedChain","inputs":[{"name":"from","type":"address","indexed":true,"internalType":"address"},{"name":"tokens","type":"uint256","indexed":false,"internalType":"uint256"},{"name":"totalTokenSent","type":"uint256","indexed":false,"internalType":"uint256"},{"name":"timeStamp","type":"uint256","indexed":false,"internalType":"uint256"},{"name":"transferNonce","type":"uint256","indexed":false,"internalType":"uint256"},{"name":"targetChainId","type":"uint256","indexed":false,"internalType":"uint256"},{"name":"transferHash","type":"bytes32","indexed":true,"internalType":"bytes32"}],"anonymous":false},{"type":"event","name":"TransferToLinkedChainAndWithdrawTo","inputs":[{"name":"from","type":"address","indexed":true,"internalType":"address"},{"name":"tokens","type":"uint256","indexed":false,"internalType":"uint256"},{"name":"totalTokenSent","type":"uint256","indexed":false,"internalType":"uint256"},{"name":"timeStamp","type":"uint256","indexed":false,"internalType":"uint256"},{"name":"transferNonce","type":"uint256","indexed":false,"internalType":"uint256"},{"name":"targetChainId","type":"uint256","indexed":false,"internalType":"uint256"},{"name":"destinationAddress","type":"address","indexed":false,"internalType":"address"},{"name":"userSigature","type":"bytes","indexed":false,"internalType":"bytes"},{"name":"transferHash","type":"bytes32","indexed":true,"internalType":"bytes32"}],"anonymous":false},{"type":"event","name":"TrustlessWithdrawFromSideChain","inputs":[{"name":"from","type":"address","indexed":true,"internalType":"address"},{"name":"tokens","type":"uint256","indexed":false,"internalType":"uint256"}],"anonymous":false},{"type":"event","name":"WithdrawLimitChanged","inputs":[{"name":"_withdrawLimit","type":"uint256","indexed":false,"internalType":"uint256"}],"anonymous":false},{"type":"event","name":"WithdrawLimitDailyGlobalChanged","inputs":[{"name":"_oldLimit","type":"uint256","indexed":false,"internalType":"uint256"},{"name":"_newLimit","type":"uint256","indexed":false,"internalType":"uint256"}],"anonymous":false},{"type":"event","name":"WithdrawLimitDailyPerUserChanged","inputs":[{"name":"_oldLimit","type":"uint256","indexed":false,"internalType":"uint256"},{"name":"_newLimit","type":"uint256","indexed":false,"internalType":"uint256"}],"anonymous":false},{"type":"event","name":"WithdrawLimitMonthlyGlobalChanged","inputs":[{"name":"_oldLimit","type":"uint256","indexed":false,"internalType":"uint256"},{"name":"_newLimit","type":"uint256","indexed":false,"internalType":"uint256"}],"anonymous":false},{"type":"event","name":"WithdrawLimitMonthlyPerUserChanged","inputs":[{"name":"_oldLimit","type":"uint256","indexed":false,"internalType":"uint256"},{"name":"_newLimit","type":"uint256","indexed":false,"internalType":"uint256"}],"anonymous":false},{"type":"event","name":"WithdrawLimitReset","inputs":[],"anonymous":false},{"type":"event","name":"WithdrawLimitYearlyGlobalChanged","inputs":[{"name":"_oldLimit","type":"uint256","indexed":false,"internalType":"uint256"},{"name":"_newLimit","type":"uint256","indexed":false,"internalType":"uint256"}],"anonymous":false},{"type":"event","name":"WithdrawLimitYearlyPerUserChanged","inputs":[{"name":"_oldLimit","type":"uint256","indexed":false,"internalType":"uint256"},{"name":"_newLimit","type":"uint256","indexed":false,"internalType":"uint256"}],"anonymous":false},{"type":"event","name":"WithdrawalSuccess","inputs":[{"name":"_destination","type":"address","indexed":false,"internalType":"address"},{"name":"_amount","type":"uint256","indexed":false,"internalType":"uint256"},{"name":"_convertedToGasToken","type":"bool","indexed":false,"internalType":"bool"}],"anonymous":false}],"bytecode":{"object":"0x6080604052348015600f57600080fd5b506158748061001f6000396000f3fe6080604052600436106103035760003560e01c80638cd845d911610190578063d345a762116100dc578063e93f271d11610095578063f45edb5f1161006f578063f45edb5f146109c2578063f526dc2b146109e4578063fb16f5a914610a04578063feaf034314610a2657600080fd5b8063e93f271d14610962578063ec65d96c14610982578063f03c6fdc146109a257600080fd5b8063d345a762146108a9578063d362bd2b146108c9578063da9a6b35146108df578063de8a57461461090c578063e628eb5b14610922578063e7f34bb71461094257600080fd5b8063abc35a9111610149578063b98b677f11610123578063b98b677f1461081b578063c31c9c071461083b578063c4b907ad14610873578063cb1b92fb1461089357600080fd5b8063abc35a91146107c0578063af434a6d146107db578063b9154846146107fb57600080fd5b80638cd845d9146106a45780639291b7e2146106d157806392e7c76e146106f1578063a1949a0a14610711578063a2f1491f14610749578063a31c98b71461078857600080fd5b806349c016641161024f5780636b92c06e116102085780637ac15763116101e25780637ac1576314610616578063801046681461064e57806383ecd6121461066e578063857b0da01461068457600080fd5b80636b92c06e146105bc578063773cc3ff146105dc5780637946541e146105fc57600080fd5b806349c016641461050657806350456b30146105265780635300597b1461054657806354dddf431461056657806355069a811461058657806358b0e6b5146105a657600080fd5b806321bb10bb116102bc5780633b45c355116102965780633b45c355146104505780633c14e3521461047d57806345bc550c146104c65780634888a7d1146104e657600080fd5b806321bb10bb146103fa5780632e55e76e146104105780632f21278c1461043057600080fd5b8063015b3ab41461030f57806303d2304414610354578063089fe6aa146103765780630e357543146103a05780631c0ffbd0146103c05780631f87a250146103e457600080fd5b3661030a57005b600080fd5b34801561031b57600080fd5b5061033f61032a366004614cc9565b60456020526000908152604090205460ff1681565b60405190151581526020015b60405180910390f35b34801561036057600080fd5b5061037461036f366004614dac565b610a3b565b005b34801561038257600080fd5b5061038c610bb881565b60405162ffffff909116815260200161034b565b3480156103ac57600080fd5b506103746103bb366004614e1f565b610d26565b3480156103cc57600080fd5b506103d6603a5481565b60405190815260200161034b565b3480156103f057600080fd5b506103d660495481565b34801561040657600080fd5b506103d660385481565b34801561041c57600080fd5b5061037461042b366004614cc9565b610e1e565b34801561043c57600080fd5b5061037461044b366004614cc9565b610f75565b34801561045c57600080fd5b506103d661046b366004614cc9565b60406020819052600091825290205481565b34801561048957600080fd5b506104b1610498366004614e4b565b6048602052600090815260409020805460019091015482565b6040805192835260208301919091520161034b565b3480156104d257600080fd5b5061033f6104e1366004614e1f565b6110cc565b3480156104f257600080fd5b50610374610501366004614e7d565b611156565b34801561051257600080fd5b50610374610521366004614cc9565b611301565b34801561053257600080fd5b50610374610541366004614ec8565b611457565b34801561055257600080fd5b5061033f610561366004614eea565b611867565b34801561057257600080fd5b50610374610581366004614f2f565b611879565b34801561059257600080fd5b506103746105a1366004614cc9565b611dbb565b3480156105b257600080fd5b506103d660355481565b3480156105c857600080fd5b5061033f6105d7366004614e1f565b611f12565b3480156105e857600080fd5b506103746105f7366004614f92565b611f77565b34801561060857600080fd5b5060445461033f9060ff1681565b34801561062257600080fd5b506103d6610631366004614e1f565b603c60209081526000928352604080842090915290825290205481565b34801561065a57600080fd5b50610374610669366004614e4b565b612488565b34801561067a57600080fd5b506103d660375481565b34801561069057600080fd5b506103d661069f366004614e1f565b6125eb565b3480156106b057600080fd5b506103d66106bf366004614cc9565b603f6020526000908152604090205481565b3480156106dd57600080fd5b506103d66106ec366004615053565b61262d565b3480156106fd57600080fd5b5061037461070c366004614cc9565b612e7f565b34801561071d57600080fd5b506103d661072c366004614e1f565b603b60209081526000928352604080842090915290825290205481565b34801561075557600080fd5b506104b1610764366004614e1f565b60476020908152600092835260408084209091529082529020805460019091015482565b34801561079457600080fd5b506103d66107a3366004614e1f565b603d60209081526000928352604080842090915290825290205481565b3480156107cc57600080fd5b506041546042546104b1919082565b3480156107e757600080fd5b506103746107f6366004614cc9565b612fd6565b34801561080757600080fd5b50610374610816366004614e1f565b6130f1565b34801561082757600080fd5b50610374610836366004614e4b565b6131c0565b34801561084757600080fd5b5060465461085b906001600160a01b031681565b6040516001600160a01b03909116815260200161034b565b34801561087f57600080fd5b5061037461088e366004615117565b6132f8565b34801561089f57600080fd5b506103d660395481565b3480156108b557600080fd5b506103746108c4366004614e1f565b61371f565b3480156108d557600080fd5b506103d660435481565b3480156108eb57600080fd5b506103d66108fa366004614cc9565b603e6020526000908152604090205481565b34801561091857600080fd5b506103d660365481565b34801561092e57600080fd5b5061037461093d366004614cc9565b6137f0565b34801561094e57600080fd5b5061037461095d36600461517a565b613947565b34801561096e57600080fd5b5061033f61097d366004614e1f565b613de2565b34801561098e57600080fd5b5061037461099d366004614cc9565b613e49565b3480156109ae57600080fd5b506103746109bd366004615204565b613fa0565b3480156109ce57600080fd5b506103d660008051602061581f83398151915281565b3480156109f057600080fd5b506103d66109ff366004615053565b61419b565b348015610a1057600080fd5b506103d66000805160206157df83398151915281565b348015610a3257600080fd5b5061085b61473f565b604254604354610a4b904261526a565b11610a715760405162461bcd60e51b8152600401610a689061527d565b60405180910390fd5b603360009054906101000a90046001600160a01b03166001600160a01b03166350a71bac6040518163ffffffff1660e01b8152600401602060405180830381865afa158015610ac4573d6000803e3d6000fd5b505050506040513d601f19601f82011682018060405250810190610ae891906152e7565b6001600160a01b031663ac259ace336040516001600160e01b031960e084901b1681526001600160a01b039091166004820152602401602060405180830381865afa158015610b3b573d6000803e3d6000fd5b505050506040513d601f19601f82011682018060405250810190610b5f9190615304565b15610b7c5760405162461bcd60e51b8152600401610a6890615321565b60445460ff16610b9e5760405162461bcd60e51b8152600401610a6890615358565b610ba833826125eb565b8214610bf65760405162461bcd60e51b815260206004820152601d60248201527f4d6f72706865724272696467653a2057726f6e672062616c616e63652e0000006044820152606401610a68565b60008281526045602052604090205460ff1615610c675760405162461bcd60e51b815260206004820152602960248201527f4d6f72706865724272696467653a20546f6b656e20616c7265616479207472616044820152683739b332b93932b21760b91b6064820152608401610a68565b610c718383611867565b1515600114610c925760405162461bcd60e51b8152600401610a68906153a9565b6000828152604560205260409020805460ff19166001179055610cbb610cb53390565b826130f1565b610cc6335b8261371f565b610cd1335b82610d26565b33600081815260486020526040902054610cec9190836147b2565b60405182815233907f0534719a5dcedfc13619bb4206e36ba0e42fb7d166c8b8a79320c8128fc3af549060200160405180910390a2505050565b610d308282613de2565b610d9a5760405162461bcd60e51b815260206004820152603560248201527f4d6f72706865724272696467653a205769746864726177616c20416d6f756e7460448201527408195e18d959591cc81e59585c9b1e481b1a5b5a5d605a1b6064820152608401610a68565b6001600160a01b0382166000908152603d602052604081208291610dc26301e13380426153ec565b81526020019081526020016000206000828254610ddf919061540e565b9091555081905060406000610df86301e13380426153ec565b81526020019081526020016000206000828254610e15919061540e565b90915550505050565b60335460408051630140cb6560e51b815290516000805160206157df833981519152926001600160a01b0316916328196ca09160048083019260209291908290030181865afa158015610e75573d6000803e3d6000fd5b505050506040513d601f19601f82011682018060405250810190610e9991906152e7565b6001600160a01b03166391d1485482336040516001600160e01b031960e085901b16815260048101929092526001600160a01b03166024820152604401602060405180830381865afa158015610ef3573d6000803e3d6000fd5b505050506040513d601f19601f82011682018060405250810190610f179190615304565b610f335760405162461bcd60e51b8152600401610a6890615421565b60375460408051918252602082018490527f58876df72ecce56c44d758d22355bb689efaa4946003c9bf0d75a228d1c0612f910160405180910390a150603755565b60335460408051630140cb6560e51b815290516000805160206157df833981519152926001600160a01b0316916328196ca09160048083019260209291908290030181865afa158015610fcc573d6000803e3d6000fd5b505050506040513d601f19601f82011682018060405250810190610ff091906152e7565b6001600160a01b03166391d1485482336040516001600160e01b031960e085901b16815260048101929092526001600160a01b03166024820152604401602060405180830381865afa15801561104a573d6000803e3d6000fd5b505050506040513d601f19601f8201168201806040525081019061106e9190615304565b61108a5760405162461bcd60e51b8152600401610a6890615421565b60355460408051918252602082018490527f8a30f3401f82aa6b9ef6b22cd0efee6be3c06cc377d13e718a97bdb5eccb811a910160405180910390a150603555565b6035546001600160a01b0383166000908152603b602052604081209091908390836110fa62015180426153ec565b815260200190815260200160002054611113919061540e565b1115801561114d575060385482603e600061113162015180426153ec565b81526020019081526020016000205461114a919061540e565b11155b90505b92915050565b600054610100900460ff16158080156111765750600054600160ff909116105b806111905750303b158015611190575060005460ff166001145b6111f35760405162461bcd60e51b815260206004820152602e60248201527f496e697469616c697a61626c653a20636f6e747261637420697320616c72656160448201526d191e481a5b9a5d1a585b1a5e995960921b6064820152608401610a68565b6000805460ff191660011790558015611216576000805461ff0019166101001790555b603380546001600160a01b038087166001600160a01b0319928316179092556044805486151560ff19909116179055692a5a058fc295ed00000060355569d3c21bcecceda10000006036556a0422ca8b0a00a4250000006037556a027b46536c66c8e30000006038556a084595161401484a0000006039556a295be96e64066972000000603a556203f480604355604680549285169290911691909117905580156112fb576000805461ff0019169055604051600181527f7f26b83ff96e1f2b6a682f133852f6798a09c465da95921460cefb38474024989060200160405180910390a15b50505050565b60335460408051630140cb6560e51b815290516000805160206157df833981519152926001600160a01b0316916328196ca09160048083019260209291908290030181865afa158015611358573d6000803e3d6000fd5b505050506040513d601f19601f8201168201806040525081019061137c91906152e7565b6001600160a01b03166391d1485482336040516001600160e01b031960e085901b16815260048101929092526001600160a01b03166024820152604401602060405180830381865afa1580156113d6573d6000803e3d6000fd5b505050506040513d601f19601f820116820180604052508101906113fa9190615304565b6114165760405162461bcd60e51b8152600401610a6890615421565b6041829055426042556040518281527fce559c2f7d86d801cf61f2bfd589e7926036f75a2c58e06b35378f308637d504906020015b60405180910390a15050565b603360009054906101000a90046001600160a01b03166001600160a01b03166350a71bac6040518163ffffffff1660e01b8152600401602060405180830381865afa1580156114aa573d6000803e3d6000fd5b505050506040513d601f19601f820116820180604052508101906114ce91906152e7565b6001600160a01b031663ac259ace336040516001600160e01b031960e084901b1681526001600160a01b039091166004820152602401602060405180830381865afa158015611521573d6000803e3d6000fd5b505050506040513d601f19601f820116820180604052508101906115459190615304565b156115625760405162461bcd60e51b8152600401610a6890615321565b61156c33836130f1565b611576338361371f565b6115803383610d26565b60335460408051632192ab5d60e11b8152905168056bc75e2d63100000926001600160a01b03169163432556ba9160048083019260209291908290030181865afa1580156115d2573d6000803e3d6000fd5b505050506040513d601f19601f820116820180604052508101906115f691906152e7565b6001600160a01b0316639dc29fac33836040518363ffffffff1660e01b8152600401611623929190615462565b600060405180830381600087803b15801561163d57600080fd5b505af1158015611651573d6000803e3d6000fd5b5050505060008184611663919061526a565b9050603360009054906101000a90046001600160a01b03166001600160a01b031663432556ba6040518163ffffffff1660e01b8152600401602060405180830381865afa1580156116b8573d6000803e3d6000fd5b505050506040513d601f19601f820116820180604052508101906116dc91906152e7565b6001600160a01b0316639dc29fac33836040518363ffffffff1660e01b8152600401611709929190615462565b600060405180830381600087803b15801561172357600080fd5b505af1158015611737573d6000803e3d6000fd5b50505050600081604760006117493390565b6001600160a01b031681526020808201929092526040908101600090812088825290925290205461177a919061540e565b905060006117866148a7565b9050426000338585848a876040516020016117a69695949392919061547b565b60405160208183030381529060405280519060200120905083604760006117ca3390565b6001600160a01b03168152602080820192909252604090810160009081208b825283528181209390935533808452604783528184208b855283529281902042600190910155805188815291820187905281810185905260608201869052608082018a9052518392917f22d7abd4c58e0b77e5d1da401e0ed36ada87c92c62c0fade36d396d12bf5dc7d919081900360a00190a35050505050505050565b600061114d83604160000154846148c5565b603360009054906101000a90046001600160a01b03166001600160a01b03166350a71bac6040518163ffffffff1660e01b8152600401602060405180830381865afa1580156118cc573d6000803e3d6000fd5b505050506040513d601f19601f820116820180604052508101906118f091906152e7565b6001600160a01b031663ac259ace336040516001600160e01b031960e084901b1681526001600160a01b039091166004820152602401602060405180830381865afa158015611943573d6000803e3d6000fd5b505050506040513d601f19601f820116820180604052508101906119679190615304565b156119845760405162461bcd60e51b8152600401610a6890615321565b600033844660405160200161199b939291906154b2565b6040516020818303038152906040528051906020012090506000604860006119c03390565b6001600160a01b0316815260208101919091526040016000205490506119e68483611867565b611a025760405162461bcd60e51b8152600401610a68906154d7565b84611a0d878361540e565b1115611a2b5760405162461bcd60e51b8152600401610a689061555a565b611a3533876130f1565b611a3f338761371f565b611a493387610d26565b611a543082886147b2565b60405186815233906000805160206157ff8339815191529060200160405180910390a260335460408051632192ab5d60e11b81529051611af8926001600160a01b03169163432556ba9160048083019260209291908290030181865afa158015611ac2573d6000803e3d6000fd5b505050506040513d601f19601f82011682018060405250810190611ae691906152e7565b6046546001600160a01b0316886148db565b604080516101008101808352603354632192ab5d60e11b909152915160009282916001600160a01b039091169063432556ba90610104808501916020918187030181865afa158015611b4e573d6000803e3d6000fd5b505050506040513d601f19601f82011682018060405250810190611b7291906152e7565b6001600160a01b03168152602001604660009054906101000a90046001600160a01b03166001600160a01b0316634aa4a4fc6040518163ffffffff1660e01b8152600401602060405180830381865afa158015611bd3573d6000803e3d6000fd5b505050506040513d601f19601f82011682018060405250810190611bf791906152e7565b6001600160a01b039081168252610bb8602083015230604080840191909152426060840152608083018b9052600060a0840181905260c0909301839052604654905163414bf38960e01b8152939450919291169063414bf38990611c5f9085906004016155c2565b6020604051808303816000875af1158015611c7e573d6000803e3d6000fd5b505050506040513d601f19601f82011682018060405250810190611ca2919061563f565b9050604660009054906101000a90046001600160a01b03166001600160a01b0316634aa4a4fc6040518163ffffffff1660e01b8152600401602060405180830381865afa158015611cf7573d6000803e3d6000fd5b505050506040513d601f19601f82011682018060405250810190611d1b91906152e7565b6001600160a01b0316632e1a7d4d826040518263ffffffff1660e01b8152600401611d4891815260200190565b600060405180830381600087803b158015611d6257600080fd5b505af1158015611d76573d6000803e3d6000fd5b50506040516001600160a01b038816925083156108fc02915083906000818181858888f19350505050158015611db0573d6000803e3d6000fd5b505050505050505050565b60335460408051630140cb6560e51b815290516000805160206157df833981519152926001600160a01b0316916328196ca09160048083019260209291908290030181865afa158015611e12573d6000803e3d6000fd5b505050506040513d601f19601f82011682018060405250810190611e3691906152e7565b6001600160a01b03166391d1485482336040516001600160e01b031960e085901b16815260048101929092526001600160a01b03166024820152604401602060405180830381865afa158015611e90573d6000803e3d6000fd5b505050506040513d601f19601f82011682018060405250810190611eb49190615304565b611ed05760405162461bcd60e51b8152600401610a6890615421565b60395460408051918252602082018490527f53e006bea65a38d4b925b9299178d9c25ae1236005e70c46dc1d1d6329e41ff2910160405180910390a150603955565b6036546001600160a01b0383166000908152603c60205260408120909190839083611f4062278d00426153ec565b815260200190815260200160002054611f59919061540e565b1115801561114d575060395482603f600061113162278d00426153ec565b603360009054906101000a90046001600160a01b03166001600160a01b03166350a71bac6040518163ffffffff1660e01b8152600401602060405180830381865afa158015611fca573d6000803e3d6000fd5b505050506040513d601f19601f82011682018060405250810190611fee91906152e7565b6001600160a01b031663ac259ace336040516001600160e01b031960e084901b1681526001600160a01b039091166004820152602401602060405180830381865afa158015612041573d6000803e3d6000fd5b505050506040513d601f19601f820116820180604052508101906120659190615304565b156120825760405162461bcd60e51b8152600401610a6890615321565b6040516001600160601b03193360601b16602082015260348101849052600090605401604051602081830303815290604052805190602001209050604354604760006120cb3390565b6001600160a01b03166001600160a01b0316815260200190815260200160002060008481526020019081526020016000206001015461210a919061540e565b42116121925760405162461bcd60e51b815260206004820152604b60248201527f4d6f72706865724272696467653a204661696c6564206465706f73697473206360448201527f616e206f6e6c7920626520636c61696d656420616674657220696e616374697660648201526a34ba3c903832b934b7b21760a91b608482015260a401610a68565b33600090815260476020908152604080832085845290915290205484106122365760405162461bcd60e51b815260206004820152604c60248201527f4d6f72706865724272696467653a204f7468657220636861696e20637265646960448201527f74206973206772656174657220657175616c20746f2077726f6e67536964654360648201526b3430b4b72130b630b731b29760a11b608482015260a401610a68565b6122408382611867565b6122cc5760405162461bcd60e51b815260206004820152605160248201527f4d6f72706865724272696467653a204d65726b6c652050726f6f66206661696c60448201527f65642e20456e74657220746f74616c20616d6f756e74206f66206465706f73696064820152703a399037b71039b4b2329031b430b4b71760791b608482015260a401610a68565b3360009081526047602090815260408083208584529091528120546122f290869061526a565b33600090815260476020908152604080832087845290915281208054929350839290919061232190849061526a565b909155505033600081815260476020908152604080832087845290915290204260019091015561235090610cb5565b61235933610cc0565b61236233610ccb565b603360009054906101000a90046001600160a01b03166001600160a01b031663432556ba6040518163ffffffff1660e01b8152600401602060405180830381865afa1580156123b5573d6000803e3d6000fd5b505050506040513d601f19601f820116820180604052508101906123d991906152e7565b6001600160a01b03166340c10f1933836040518363ffffffff1660e01b8152600401612406929190615462565b600060405180830381600087803b15801561242057600080fd5b505af1158015612434573d6000803e3d6000fd5b5050505061243f3390565b6001600160a01b03167ff3d1bd7b5416206939e66c9b6ee92563caaf8499c21668173d17cacbaefdc7008260405161247991815260200190565b60405180910390a25050505050565b60335460408051630140cb6560e51b8152905160008051602061581f833981519152926001600160a01b0316916328196ca09160048083019260209291908290030181865afa1580156124df573d6000803e3d6000fd5b505050506040513d601f19601f8201168201806040525081019061250391906152e7565b6001600160a01b03166391d1485482336040516001600160e01b031960e085901b16815260048101929092526001600160a01b03166024820152604401602060405180830381865afa15801561255d573d6000803e3d6000fd5b505050506040513d601f19601f820116820180604052508101906125819190615304565b61259d5760405162461bcd60e51b8152600401610a6890615421565b603380546001600160a01b0319166001600160a01b0384169081179091556040519081527f978c711532bae8c58f353b0f3c7f3a0dfe600d9ae9a81818f2ad2919b88e19909060200161144b565b6040516001600160601b0319606084901b1660208201526034810182905260009060540160405160208183030381529060405280519060200120905092915050565b60006000805160206157df833981519152603360009054906101000a90046001600160a01b03166001600160a01b03166328196ca06040518163ffffffff1660e01b8152600401602060405180830381865afa158015612691573d6000803e3d6000fd5b505050506040513d601f19601f820116820180604052508101906126b591906152e7565b6001600160a01b03166391d1485482336040516001600160e01b031960e085901b16815260048101929092526001600160a01b03166024820152604401602060405180830381865afa15801561270f573d6000803e3d6000fd5b505050506040513d601f19601f820116820180604052508101906127339190615304565b61274f5760405162461bcd60e51b8152600401610a6890615421565b8a6001600160a01b03166127e2846127dc8d89466040516020016127939392919092835260609190911b6001600160601b0319166020830152603482015260540190565b604051602081830303815290604052805190602001207f19457468657265756d205369676e6564204d6573736167653a0a3332000000006000908152601c91909152603c902090565b906149e5565b6001600160a01b0316146128085760405162461bcd60e51b8152600401610a6890615658565b61281184611301565b60008b8846604051602001612828939291906154b2565b60408051601f1981840301815291815281516020928301206001600160a01b038f16600090815260489093529120549091506128648883611867565b6128805760405162461bcd60e51b8152600401610a68906154d7565b8861288b8d8361540e565b11156128a95760405162461bcd60e51b8152600401610a689061555a565b6128b38d8d6130f1565b6128bd8d8d61371f565b6128c78d8d610d26565b6128d18c8261540e565b6001600160a01b03808f16600090815260486020908152604091829020938455426001909401939093556033548151632192ab5d60e11b8152915192169263432556ba926004808401938290030181865afa158015612934573d6000803e3d6000fd5b505050506040513d601f19601f8201168201806040525081019061295891906152e7565b6001600160a01b03166340c10f19308e6040518363ffffffff1660e01b8152600401612985929190615462565b600060405180830381600087803b15801561299f57600080fd5b505af11580156129b3573d6000803e3d6000fd5b505050508c6001600160a01b03166000805160206157ff8339815191528d6040516129e091815260200190565b60405180910390a2603360009054906101000a90046001600160a01b03166001600160a01b031663432556ba6040518163ffffffff1660e01b8152600401602060405180830381865afa158015612a3b573d6000803e3d6000fd5b505050506040513d601f19601f82011682018060405250810190612a5f91906152e7565b6001600160a01b031663a9059cbb8b8d6040518363ffffffff1660e01b8152600401612a8c929190615462565b6020604051808303816000875af1158015612aab573d6000803e3d6000fd5b505050506040513d601f19601f82011682018060405250810190612acf9190615304565b506000612adc8c8e61526a565b9050612b6a603360009054906101000a90046001600160a01b03166001600160a01b031663432556ba6040518163ffffffff1660e01b8152600401602060405180830381865afa158015612b34573d6000803e3d6000fd5b505050506040513d601f19601f82011682018060405250810190612b5891906152e7565b6046546001600160a01b0316836148db565b604080516101008101808352603354632192ab5d60e11b909152915160009282916001600160a01b039091169063432556ba90610104808501916020918187030181865afa158015612bc0573d6000803e3d6000fd5b505050506040513d601f19601f82011682018060405250810190612be491906152e7565b6001600160a01b03168152602001604660009054906101000a90046001600160a01b03166001600160a01b0316634aa4a4fc6040518163ffffffff1660e01b8152600401602060405180830381865afa158015612c45573d6000803e3d6000fd5b505050506040513d601f19601f82011682018060405250810190612c6991906152e7565b6001600160a01b039081168252610bb860208301523060408084019190915242606084015260808301869052600060a0840181905260c0909301839052604654905163414bf38960e01b8152939450919291169063414bf38990612cd19085906004016155c2565b6020604051808303816000875af1158015612cf0573d6000803e3d6000fd5b505050506040513d601f19601f82011682018060405250810190612d14919061563f565b9050604660009054906101000a90046001600160a01b03166001600160a01b0316634aa4a4fc6040518163ffffffff1660e01b8152600401602060405180830381865afa158015612d69573d6000803e3d6000fd5b505050506040513d601f19601f82011682018060405250810190612d8d91906152e7565b6001600160a01b0316632e1a7d4d826040518263ffffffff1660e01b8152600401612dba91815260200190565b600060405180830381600087803b158015612dd457600080fd5b505af1158015612de8573d6000803e3d6000fd5b50506040516001600160a01b038d16925083156108fc02915083906000818181858888f19350505050158015612e22573d6000803e3d6000fd5b50604080516001600160a01b038c1681526020810183905260018183015290517f289e4a435008cc7d5b0aff39e319200f48d2172e15ee3744ba209b13670498509181900360600190a19f9e505050505050505050505050505050565b60335460408051630140cb6560e51b815290516000805160206157df833981519152926001600160a01b0316916328196ca09160048083019260209291908290030181865afa158015612ed6573d6000803e3d6000fd5b505050506040513d601f19601f82011682018060405250810190612efa91906152e7565b6001600160a01b03166391d1485482336040516001600160e01b031960e085901b16815260048101929092526001600160a01b03166024820152604401602060405180830381865afa158015612f54573d6000803e3d6000fd5b505050506040513d601f19601f82011682018060405250810190612f789190615304565b612f945760405162461bcd60e51b8152600401610a6890615421565b60385460408051918252602082018490527fff4f3e2a6b4cb9b7141b4a215d1ae67a9dd18a640499d1393c6c0d0f253006db910160405180910390a150603855565b60335460408051630140cb6560e51b8152905160008051602061581f833981519152926001600160a01b0316916328196ca09160048083019260209291908290030181865afa15801561302d573d6000803e3d6000fd5b505050506040513d601f19601f8201168201806040525081019061305191906152e7565b6001600160a01b03166391d1485482336040516001600160e01b031960e085901b16815260048101929092526001600160a01b03166024820152604401602060405180830381865afa1580156130ab573d6000803e3d6000fd5b505050506040513d601f19601f820116820180604052508101906130cf9190615304565b6130eb5760405162461bcd60e51b8152600401610a6890615421565b50604355565b6130fb82826110cc565b6131645760405162461bcd60e51b815260206004820152603460248201527f4d6f72706865724272696467653a205769746864726177616c20416d6f756e7460448201527308195e18d959591cc819185a5b1e481b1a5b5a5d60621b6064820152608401610a68565b6001600160a01b0382166000908152603b60205260408120829161318b62015180426153ec565b815260200190815260200160002060008282546131a8919061540e565b90915550819050603e6000610df862015180426153ec565b60335460408051630140cb6560e51b8152905160008051602061581f833981519152926001600160a01b0316916328196ca09160048083019260209291908290030181865afa158015613217573d6000803e3d6000fd5b505050506040513d601f19601f8201168201806040525081019061323b91906152e7565b6001600160a01b03166391d1485482336040516001600160e01b031960e085901b16815260048101929092526001600160a01b03166024820152604401602060405180830381865afa158015613295573d6000803e3d6000fd5b505050506040513d601f19601f820116820180604052508101906132b99190615304565b6132d55760405162461bcd60e51b8152600401610a6890615421565b50604680546001600160a01b0319166001600160a01b0392909216919091179055565b603360009054906101000a90046001600160a01b03166001600160a01b03166350a71bac6040518163ffffffff1660e01b8152600401602060405180830381865afa15801561334b573d6000803e3d6000fd5b505050506040513d601f19601f8201168201806040525081019061336f91906152e7565b6001600160a01b031663ac259ace336040516001600160e01b031960e084901b1681526001600160a01b039091166004820152602401602060405180830381865afa1580156133c2573d6000803e3d6000fd5b505050506040513d601f19601f820116820180604052508101906133e69190615304565b156134035760405162461bcd60e51b8152600401610a6890615321565b61340d33856130f1565b613417338561371f565b6134213385610d26565b60335460408051632192ab5d60e11b8152905168056bc75e2d63100000926001600160a01b03169163432556ba9160048083019260209291908290030181865afa158015613473573d6000803e3d6000fd5b505050506040513d601f19601f8201168201806040525081019061349791906152e7565b6001600160a01b0316639dc29fac33836040518363ffffffff1660e01b81526004016134c4929190615462565b600060405180830381600087803b1580156134de57600080fd5b505af11580156134f2573d6000803e3d6000fd5b5050505060008186613504919061526a565b9050603360009054906101000a90046001600160a01b03166001600160a01b031663432556ba6040518163ffffffff1660e01b8152600401602060405180830381865afa158015613559573d6000803e3d6000fd5b505050506040513d601f19601f8201168201806040525081019061357d91906152e7565b6001600160a01b0316639dc29fac33836040518363ffffffff1660e01b81526004016135aa929190615462565b600060405180830381600087803b1580156135c457600080fd5b505af11580156135d8573d6000803e3d6000fd5b50505050600081604760006135ea3390565b6001600160a01b03168152602080820192909252604090810160009081208a825290925290205461361b919061540e565b905060006136276148a7565b9050426000338585848c876040516020016136479695949392919061547b565b604051602081830303815290604052805190602001209050836047600061366b3390565b6001600160a01b03168152602080820192909252604090810160009081208d82529092528120919091554290604790336001600160a01b03168152602080820192909252604090810160009081208d825290925290206001015580336001600160a01b03167f5ece11db74b4a83792b00f8375343013bce17047b3ca83ff16ece331c9220a2f878786888f8f8f60405161370b97969594939291906156cc565b60405180910390a350505050505050505050565b6137298282611f12565b6137945760405162461bcd60e51b815260206004820152603660248201527f4d6f72706865724272696467653a205769746864726177616c20416d6f756e7460448201527508195e18d959591cc81b5bdb9d1a1b1e481b1a5b5a5d60521b6064820152608401610a68565b6001600160a01b0382166000908152603c6020526040812082916137bb62278d00426153ec565b815260200190815260200160002060008282546137d8919061540e565b90915550819050603f6000610df862278d00426153ec565b60335460408051630140cb6560e51b815290516000805160206157df833981519152926001600160a01b0316916328196ca09160048083019260209291908290030181865afa158015613847573d6000803e3d6000fd5b505050506040513d601f19601f8201168201806040525081019061386b91906152e7565b6001600160a01b03166391d1485482336040516001600160e01b031960e085901b16815260048101929092526001600160a01b03166024820152604401602060405180830381865afa1580156138c5573d6000803e3d6000fd5b505050506040513d601f19601f820116820180604052508101906138e99190615304565b6139055760405162461bcd60e51b8152600401610a6890615421565b603a5460408051918252602082018490527f5c3db7af464ea9d986519b99cb07faf52b14ed37cccd5d05bea914e2fd92a06b910160405180910390a150603a55565b604254604354613957904261526a565b116139745760405162461bcd60e51b8152600401610a689061527d565b603360009054906101000a90046001600160a01b03166001600160a01b03166350a71bac6040518163ffffffff1660e01b8152600401602060405180830381865afa1580156139c7573d6000803e3d6000fd5b505050506040513d601f19601f820116820180604052508101906139eb91906152e7565b6001600160a01b031663ac259ace336040516001600160e01b031960e084901b1681526001600160a01b039091166004820152602401602060405180830381865afa158015613a3e573d6000803e3d6000fd5b505050506040513d601f19601f82011682018060405250810190613a629190615304565b15613a7f5760405162461bcd60e51b8152600401610a6890615321565b60445460ff16613aa15760405162461bcd60e51b8152600401610a6890615358565b603360009054906101000a90046001600160a01b03166001600160a01b031663d37afa8d6040518163ffffffff1660e01b8152600401602060405180830381865afa158015613af4573d6000803e3d6000fd5b505050506040513d601f19601f82011682018060405250810190613b1891906152e7565b6001600160a01b0316637a687444338a8a8a8a8a8a8a8a6040518a63ffffffff1660e01b8152600401613b5399989796959493929190615733565b602060405180830381865afa158015613b70573d6000803e3d6000fd5b505050506040513d601f19601f82011682018060405250810190613b94919061563f565b8914613bfc5760405162461bcd60e51b815260206004820152603160248201527f4d6f72706865724272696467653a206c65616620646f6573206e6f742065717560448201527030b6103837b9b4ba34b7b7103430b9b41760791b6064820152608401610a68565b60008981526045602052604090205460ff1615613c705760405162461bcd60e51b815260206004820152602c60248201527f4d6f72706865724272696467653a20506f736974696f6e20616c72656164792060448201526b3a3930b739b332b93932b21760a11b6064820152608401610a68565b613c7a8a8a611867565b1515600114613c9b5760405162461bcd60e51b8152600401610a68906153a9565b600089815260456020908152604091829020805460ff19166001179055603354825163d37afa8d60e01b815292516001600160a01b039091169263d37afa8d9260048083019391928290030181865afa158015613cfc573d6000803e3d6000fd5b505050506040513d601f19601f82011682018060405250810190613d2091906152e7565b6001600160a01b031663be7e64b6338a8a8a8a8a8a8a8a6040518a63ffffffff1660e01b8152600401613d5b99989796959493929190615733565b600060405180830381600087803b158015613d7557600080fd5b505af1158015613d89573d6000803e3d6000fd5b50505050613d943390565b6001600160a01b03167f46de0525fb620932847e7db9be837e386fb61845ffb4ccc632241dfa56ce5d438a604051613dce91815260200190565b60405180910390a250505050505050505050565b6037546001600160a01b0383166000908152603d60205260408120909190839083613e116301e13380426153ec565b815260200190815260200160002054613e2a919061540e565b1115801561114d5750603a5482604060006111316301e13380426153ec565b60335460408051630140cb6560e51b815290516000805160206157df833981519152926001600160a01b0316916328196ca09160048083019260209291908290030181865afa158015613ea0573d6000803e3d6000fd5b505050506040513d601f19601f82011682018060405250810190613ec491906152e7565b6001600160a01b03166391d1485482336040516001600160e01b031960e085901b16815260048101929092526001600160a01b03166024820152604401602060405180830381865afa158015613f1e573d6000803e3d6000fd5b505050506040513d601f19601f82011682018060405250810190613f429190615304565b613f5e5760405162461bcd60e51b8152600401610a6890615421565b60365460408051918252602082018490527f15bbabad33cea99b6af1c5233603cb731748ed7b1cf3abd8de230338e7b4c97d910160405180910390a150603655565b603360009054906101000a90046001600160a01b03166001600160a01b03166350a71bac6040518163ffffffff1660e01b8152600401602060405180830381865afa158015613ff3573d6000803e3d6000fd5b505050506040513d601f19601f8201168201806040525081019061401791906152e7565b6001600160a01b031663ac259ace336040516001600160e01b031960e084901b1681526001600160a01b039091166004820152602401602060405180830381865afa15801561406a573d6000803e3d6000fd5b505050506040513d601f19601f8201168201806040525081019061408e9190615304565b156140ab5760405162461bcd60e51b8152600401610a6890615321565b60003383466040516020016140c2939291906154b2565b6040516020818303038152906040528051906020012090506000604860006140e73390565b6001600160a01b03168152602081019190915260400160002054905061410d8383611867565b6141295760405162461bcd60e51b8152600401610a68906154d7565b83614134868361540e565b11156141525760405162461bcd60e51b8152600401610a689061555a565b61415c33866130f1565b614166338661371f565b6141703386610d26565b61417b3382876147b2565b60405185815233906000805160206157ff83398151915290602001612479565b60006000805160206157df833981519152603360009054906101000a90046001600160a01b03166001600160a01b03166328196ca06040518163ffffffff1660e01b8152600401602060405180830381865afa1580156141ff573d6000803e3d6000fd5b505050506040513d601f19601f8201168201806040525081019061422391906152e7565b6001600160a01b03166391d1485482336040516001600160e01b031960e085901b16815260048101929092526001600160a01b03166024820152604401602060405180830381865afa15801561427d573d6000803e3d6000fd5b505050506040513d601f19601f820116820180604052508101906142a19190615304565b6142bd5760405162461bcd60e51b8152600401610a6890615421565b8a6001600160a01b0316614301846127dc8d89466040516020016127939392919092835260609190911b6001600160601b0319166020830152603482015260540190565b6001600160a01b0316146143275760405162461bcd60e51b8152600401610a6890615658565b61433084611301565b60008b8846604051602001614347939291906154b2565b60408051601f1981840301815291815281516020928301206001600160a01b038f16600090815260489093529120549091506143838883611867565b61439f5760405162461bcd60e51b8152600401610a68906154d7565b886143aa8d8361540e565b11156143c85760405162461bcd60e51b8152600401610a689061555a565b6143d28d8d6130f1565b6143dc8d8d61371f565b6143e68d8d610d26565b6143f08c8261540e565b6001600160a01b03808f16600090815260486020908152604091829020938455426001909401939093556033548151632192ab5d60e11b8152915192169263432556ba926004808401938290030181865afa158015614453573d6000803e3d6000fd5b505050506040513d601f19601f8201168201806040525081019061447791906152e7565b6001600160a01b03166340c10f19308e6040518363ffffffff1660e01b81526004016144a4929190615462565b600060405180830381600087803b1580156144be57600080fd5b505af11580156144d2573d6000803e3d6000fd5b505050508c6001600160a01b03166000805160206157ff8339815191528d6040516144ff91815260200190565b60405180910390a2603360009054906101000a90046001600160a01b03166001600160a01b031663432556ba6040518163ffffffff1660e01b8152600401602060405180830381865afa15801561455a573d6000803e3d6000fd5b505050506040513d601f19601f8201168201806040525081019061457e91906152e7565b6001600160a01b031663a9059cbb8b8d6040518363ffffffff1660e01b81526004016145ab929190615462565b6020604051808303816000875af11580156145ca573d6000803e3d6000fd5b505050506040513d601f19601f820116820180604052508101906145ee9190615304565b5060006145fb8c8e61526a565b9050603360009054906101000a90046001600160a01b03166001600160a01b031663432556ba6040518163ffffffff1660e01b8152600401602060405180830381865afa158015614650573d6000803e3d6000fd5b505050506040513d601f19601f8201168201806040525081019061467491906152e7565b6001600160a01b031663a9059cbb89836040518363ffffffff1660e01b81526004016146a1929190615462565b6020604051808303816000875af11580156146c0573d6000803e3d6000fd5b505050506040513d601f19601f820116820180604052508101906146e49190615304565b50604080516001600160a01b038a1681526020810183905260008183015290517f289e4a435008cc7d5b0aff39e319200f48d2172e15ee3744ba209b13670498509181900360600190a19d9c50505050505050505050505050565b604654604080516312a9293f60e21b815290516000926001600160a01b031691634aa4a4fc9160048083019260209291908290030181865afa158015614789573d6000803e3d6000fd5b505050506040513d601f19601f820116820180604052508101906147ad91906152e7565b905090565b6147bc818361540e565b6001600160a01b03808516600090815260486020908152604091829020938455426001909401939093556033548151632192ab5d60e11b8152915192169263432556ba926004808401938290030181865afa15801561481f573d6000803e3d6000fd5b505050506040513d601f19601f8201168201806040525081019061484391906152e7565b6001600160a01b03166340c10f1984836040518363ffffffff1660e01b8152600401614870929190615462565b600060405180830381600087803b15801561488a57600080fd5b505af115801561489e573d6000803e3d6000fd5b50505050505050565b60498054600091826148b88361577d565b9190505550604954905090565b6000826148d28584614a09565b14949350505050565b600080846001600160a01b031663095ea7b360e01b8585604051602401614903929190615462565b60408051601f198184030181529181526020820180516001600160e01b03166001600160e01b03199094169390931790925290516149419190615796565b6000604051808303816000865af19150503d806000811461497e576040519150601f19603f3d011682016040523d82523d6000602084013e614983565b606091505b50915091508180156149ad5750805115806149ad5750808060200190518101906149ad9190615304565b6149de5760405162461bcd60e51b8152602060048201526002602482015261534160f01b6044820152606401610a68565b5050505050565b60008060006149f48585614a44565b91509150614a0181614a89565b509392505050565b600081815b8451811015614a0157614a3a82868381518110614a2d57614a2d6157b2565b6020026020010151614bd6565b9150600101614a0e565b6000808251604103614a7a5760208301516040840151606085015160001a614a6e87828585614c05565b94509450505050614a82565b506000905060025b9250929050565b6000816004811115614a9d57614a9d6157c8565b03614aa55750565b6001816004811115614ab957614ab96157c8565b03614b065760405162461bcd60e51b815260206004820152601860248201527f45434453413a20696e76616c6964207369676e617475726500000000000000006044820152606401610a68565b6002816004811115614b1a57614b1a6157c8565b03614b675760405162461bcd60e51b815260206004820152601f60248201527f45434453413a20696e76616c6964207369676e6174757265206c656e677468006044820152606401610a68565b6003816004811115614b7b57614b7b6157c8565b03614bd35760405162461bcd60e51b815260206004820152602260248201527f45434453413a20696e76616c6964207369676e6174757265202773272076616c604482015261756560f01b6064820152608401610a68565b50565b6000818310614bf257600082815260208490526040902061114d565b600083815260208390526040902061114d565b6000807f7fffffffffffffffffffffffffffffff5d576e7357a4501ddfe92f46681b20a0831115614c3c5750600090506003614cc0565b6040805160008082526020820180845289905260ff881692820192909252606081018690526080810185905260019060a0016020604051602081039080840390855afa158015614c90573d6000803e3d6000fd5b5050604051601f1901519150506001600160a01b038116614cb957600060019250925050614cc0565b9150600090505b94509492505050565b600060208284031215614cdb57600080fd5b5035919050565b634e487b7160e01b600052604160045260246000fd5b604051601f8201601f1916810167ffffffffffffffff81118282101715614d2157614d21614ce2565b604052919050565b600082601f830112614d3a57600080fd5b813567ffffffffffffffff811115614d5457614d54614ce2565b8060051b614d6460208201614cf8565b91825260208185018101929081019086841115614d8057600080fd5b6020860192505b83831015614da2578235825260209283019290910190614d87565b9695505050505050565b600080600060608486031215614dc157600080fd5b833567ffffffffffffffff811115614dd857600080fd5b614de486828701614d29565b9660208601359650604090950135949350505050565b6001600160a01b0381168114614bd357600080fd5b8035614e1a81614dfa565b919050565b60008060408385031215614e3257600080fd5b8235614e3d81614dfa565b946020939093013593505050565b600060208284031215614e5d57600080fd5b8135614e6881614dfa565b9392505050565b8015158114614bd357600080fd5b600080600060608486031215614e9257600080fd5b8335614e9d81614dfa565b92506020840135614ead81614e6f565b91506040840135614ebd81614dfa565b809150509250925092565b60008060408385031215614edb57600080fd5b50508035926020909101359150565b60008060408385031215614efd57600080fd5b823567ffffffffffffffff811115614f1457600080fd5b614f2085828601614d29565b95602094909401359450505050565b60008060008060808587031215614f4557600080fd5b8435935060208501359250604085013567ffffffffffffffff811115614f6a57600080fd5b614f7687828801614d29565b9250506060850135614f8781614dfa565b939692955090935050565b600080600060608486031215614fa757600080fd5b83359250602084013567ffffffffffffffff811115614fc557600080fd5b614fd186828701614d29565b93969395505050506040919091013590565b600082601f830112614ff457600080fd5b813567ffffffffffffffff81111561500e5761500e614ce2565b615021601f8201601f1916602001614cf8565b81815284602083860101111561503657600080fd5b816020850160208301376000918101602001919091529392505050565b60008060008060008060008060006101208a8c03121561507257600080fd5b893561507d81614dfa565b985060208a0135975060408a0135965061509960608b01614e0f565b955060808a0135945060a08a013567ffffffffffffffff8111156150bc57600080fd5b6150c88c828d01614d29565b9450506150d760c08b01614e0f565b925060e08a013591506101008a013567ffffffffffffffff8111156150fb57600080fd5b6151078c828d01614fe3565b9150509295985092959850929598565b6000806000806080858703121561512d57600080fd5b8435935060208501359250604085013561514681614dfa565b9150606085013567ffffffffffffffff81111561516257600080fd5b61516e87828801614fe3565b91505092959194509250565b6000806000806000806000806000806101408b8d03121561519a57600080fd5b8a3567ffffffffffffffff8111156151b157600080fd5b6151bd8d828e01614d29565b9d60208d01359d5060408d01359c60608101359c5060808101359b5060a08101359a5060c0810135995060e081013598506101008101359750610120013595509350505050565b60008060006060848603121561521957600080fd5b8335925060208401359150604084013567ffffffffffffffff81111561523e57600080fd5b61524a86828701614d29565b9150509250925092565b634e487b7160e01b600052601160045260246000fd5b8181038181111561115057611150615254565b60208082526044908201527f4d6f72706865724272696467653a2046756e6374696f6e2063616e206f6e6c7960408201527f2062652063616c6c65642069662073696465636861696e20697320696e61637460608201526334bb329760e11b608082015260a00190565b6000602082840312156152f957600080fd5b8151614e6881614dfa565b60006020828403121561531657600080fd5b8151614e6881614e6f565b6020808252601e908201527f4d6f72706865724272696467653a205573657220697320626c6f636b65640000604082015260600190565b60208082526031908201527f4d6f72706865724272696467653a205265636f766572792066756e6374696f6e6040820152701cc8185c99481b9bdd08195b98589b1959607a1b606082015260800190565b60208082526023908201527f4d6f72706865724272696467653a204d65726b6c652070726f6f66206661696c60408201526232b21760e91b606082015260800190565b60008261540957634e487b7160e01b600052601260045260246000fd5b500490565b8082018082111561115057611150615254565b60208082526021908201527f4d6f72706865724272696467653a205065726d697373696f6e2064656e6965646040820152601760f91b606082015260800190565b6001600160a01b03929092168252602082015260400190565b60609690961b6001600160601b03191686526014860194909452603485019290925260548401526074830152609482015260b40190565b60609390931b6001600160601b03191683526014830191909152603482015260540190565b60208082526059908201527f4d6f72706865724272696467653a204d65726b6c652050726f6f66206661696c60408201527f65642e20506c65617365206d616b65207375726520796f7520656e746572656460608201527f2074686520636f727265637420636c61696d206c696d69742e00000000000000608082015260a00190565b60208082526042908201527f4d6f72706865724272696467653a20546f6b656e20616d6f756e74206578636560408201527f65647320746f6b656e2064656c65746564206f6e206c696e6b65642063686169606082015261371760f11b608082015260a00190565b81516001600160a01b03908116825260208084015182169083015260408084015162ffffff169083015260608084015191821690830152610100820190506080830151608083015260a083015160a083015260c083015160c083015260e083015161563860e08401826001600160a01b03169052565b5092915050565b60006020828403121561565157600080fd5b5051919050565b60208082526030908201527f4d6f72706865724272696467653a205573657273207369676e6174757265206460408201526f6f6573206e6f742076616c696461746560801b606082015260800190565b60005b838110156156c35781810151838201526020016156ab565b50506000910152565b87815286602082015285604082015284606082015283608082015260018060a01b03831660a082015260e060c0820152600082518060e0840152615718816101008501602087016156a8565b601f01601f1916919091016101000198975050505050505050565b6001600160a01b03999099168952602089019790975260408801959095526060870193909352608086019190915260a085015260c084015260e08301526101008201526101200190565b60006001820161578f5761578f615254565b5060010190565b600082516157a88184602087016156a8565b9190910192915050565b634e487b7160e01b600052603260045260246000fd5b634e487b7160e01b600052602160045260246000fdfec08f7188394b31596c538860a69934f466a85ebc66fc5d1d967ccfaef4a6bdab943c724b337822464f019ef425f7d5b1dd7ca039317dabe7446a630a6b8236d3e5a0b4d50f56047f84728557fedbda92f956391bc9d5c762e8461996dd8e7ad7a2646970667358221220d96dfa9702e4dd08841e25e3bfa7a296abcc8811069fa67378173e55d5b696f364736f6c634300081a0033","linkReferences":{}},"methodIdentifiers":{"ADMINISTRATOR_ROLE()":"f45edb5f","SIDECHAINOPERATOR_ROLE()":"fb16f5a9","bridgeNonce()":"1f87a250","claimFailedTransferToSidechain(uint256,bytes32[],uint256)":"773cc3ff","claimFromInactivity(bytes32)":"015b3ab4","claimStagedTokens(uint256,uint256,bytes32[])":"f03c6fdc","claimStagedTokensAndSendForUser(address,uint256,uint256,address,uint256,bytes32[],address,bytes32,bytes)":"f526dc2b","claimStagedTokensConvertAndSend(uint256,uint256,bytes32[],address)":"54dddf43","claimStagedTokensConvertAndSendForUser(address,uint256,uint256,address,uint256,bytes32[],address,bytes32,bytes)":"9291b7e2","getBalanceHash(address,uint256)":"857b0da0","getWethWmaticAddress()":"feaf0343","inactivityPeriod()":"d362bd2b","initialize(address,bool,address)":"4888a7d1","isNotDailyLimitExceeding(address,uint256)":"45bc550c","isNotMonthlyLimitExceeding(address,uint256)":"6b92c06e","isNotYearlyLimitExceeding(address,uint256)":"e93f271d","mProof(bytes32[],bytes32)":"5300597b","poolFee()":"089fe6aa","recoverPositionFromInactivity(bytes32[],bytes32,bytes32,uint256,uint256,uint256,uint256,uint256,uint256,uint256)":"e7f34bb7","recoverTokenFromInactivity(bytes32[],bytes32,uint256)":"03d23044","recoveryEnabled()":"7946541e","setInactivityPeriod(uint256)":"af434a6d","setMorpherState(address)":"80104668","stageTokensForTransfer(uint256,uint256)":"50456b30","stageTokensForTransfer(uint256,uint256,address,bytes)":"c4b907ad","swapRouter()":"c31c9c07","tokenClaimedOnThisChain(address)":"3c14e352","tokenSentToLinkedChain(address,uint256)":"a2f1491f","updateSideChainMerkleRoot(bytes32)":"49c01664","updateSwapRouter(address)":"b98b677f","updateWithdrawLimitGlobalDaily(uint256)":"92e7c76e","updateWithdrawLimitGlobalMonthly(uint256)":"55069a81","updateWithdrawLimitGlobalYearly(uint256)":"e628eb5b","updateWithdrawLimitPerUserDaily(uint256)":"2f21278c","updateWithdrawLimitPerUserMonthly(uint256)":"ec65d96c","updateWithdrawLimitPerUserYearly(uint256)":"2e55e76e","verifyUpdateDailyLimit(address,uint256)":"b9154846","verifyUpdateMonthlyLimit(address,uint256)":"d345a762","verifyUpdateYearlyLimit(address,uint256)":"0e357543","withdrawalData()":"abc35a91","withdrawalLimitGlobalDaily()":"21bb10bb","withdrawalLimitGlobalMonthly()":"cb1b92fb","withdrawalLimitGlobalYearly()":"1c0ffbd0","withdrawalLimitPerUserDaily()":"58b0e6b5","withdrawalLimitPerUserMonthly()":"de8a5746","withdrawalLimitPerUserYearly()":"83ecd612","withdrawalPerUserPerDay(address,uint256)":"a1949a0a","withdrawalPerUserPerMonth(address,uint256)":"7ac15763","withdrawalPerUserPerYear(address,uint256)":"a31c98b7","withdrawalsGlobalDaily(uint256)":"da9a6b35","withdrawalsGlobalMonthly(uint256)":"8cd845d9","withdrawalsGlobalYearly(uint256)":"3b45c355"},"storageLayout":{"storage":[{"astId":57448,"contract":"contracts/MorpherBridge.sol:MorpherBridge","label":"_initialized","offset":0,"slot":"0","type":"t_uint8"},{"astId":57451,"contract":"contracts/MorpherBridge.sol:MorpherBridge","label":"_initializing","offset":1,"slot":"0","type":"t_bool"},{"astId":59307,"contract":"contracts/MorpherBridge.sol:MorpherBridge","label":"__gap","offset":0,"slot":"1","type":"t_array(t_uint256)50_storage"},{"astId":1397,"contract":"contracts/MorpherBridge.sol:MorpherBridge","label":"state","offset":0,"slot":"51","type":"t_contract(MorpherState)8056"},{"astId":1400,"contract":"contracts/MorpherBridge.sol:MorpherBridge","label":"previousBridge","offset":0,"slot":"52","type":"t_contract(MorpherBridge)3469"},{"astId":1402,"contract":"contracts/MorpherBridge.sol:MorpherBridge","label":"withdrawalLimitPerUserDaily","offset":0,"slot":"53","type":"t_uint256"},{"astId":1404,"contract":"contracts/MorpherBridge.sol:MorpherBridge","label":"withdrawalLimitPerUserMonthly","offset":0,"slot":"54","type":"t_uint256"},{"astId":1406,"contract":"contracts/MorpherBridge.sol:MorpherBridge","label":"withdrawalLimitPerUserYearly","offset":0,"slot":"55","type":"t_uint256"},{"astId":1408,"contract":"contracts/MorpherBridge.sol:MorpherBridge","label":"withdrawalLimitGlobalDaily","offset":0,"slot":"56","type":"t_uint256"},{"astId":1410,"contract":"contracts/MorpherBridge.sol:MorpherBridge","label":"withdrawalLimitGlobalMonthly","offset":0,"slot":"57","type":"t_uint256"},{"astId":1412,"contract":"contracts/MorpherBridge.sol:MorpherBridge","label":"withdrawalLimitGlobalYearly","offset":0,"slot":"58","type":"t_uint256"},{"astId":1418,"contract":"contracts/MorpherBridge.sol:MorpherBridge","label":"withdrawalPerUserPerDay","offset":0,"slot":"59","type":"t_mapping(t_address,t_mapping(t_uint256,t_uint256))"},{"astId":1424,"contract":"contracts/MorpherBridge.sol:MorpherBridge","label":"withdrawalPerUserPerMonth","offset":0,"slot":"60","type":"t_mapping(t_address,t_mapping(t_uint256,t_uint256))"},{"astId":1430,"contract":"contracts/MorpherBridge.sol:MorpherBridge","label":"withdrawalPerUserPerYear","offset":0,"slot":"61","type":"t_mapping(t_address,t_mapping(t_uint256,t_uint256))"},{"astId":1434,"contract":"contracts/MorpherBridge.sol:MorpherBridge","label":"withdrawalsGlobalDaily","offset":0,"slot":"62","type":"t_mapping(t_uint256,t_uint256)"},{"astId":1438,"contract":"contracts/MorpherBridge.sol:MorpherBridge","label":"withdrawalsGlobalMonthly","offset":0,"slot":"63","type":"t_mapping(t_uint256,t_uint256)"},{"astId":1442,"contract":"contracts/MorpherBridge.sol:MorpherBridge","label":"withdrawalsGlobalYearly","offset":0,"slot":"64","type":"t_mapping(t_uint256,t_uint256)"},{"astId":1460,"contract":"contracts/MorpherBridge.sol:MorpherBridge","label":"withdrawalData","offset":0,"slot":"65","type":"t_struct(WithdrawalDataStruct)1457_storage"},{"astId":1462,"contract":"contracts/MorpherBridge.sol:MorpherBridge","label":"inactivityPeriod","offset":0,"slot":"67","type":"t_uint256"},{"astId":1464,"contract":"contracts/MorpherBridge.sol:MorpherBridge","label":"recoveryEnabled","offset":0,"slot":"68","type":"t_bool"},{"astId":1468,"contract":"contracts/MorpherBridge.sol:MorpherBridge","label":"claimFromInactivity","offset":0,"slot":"69","type":"t_mapping(t_bytes32,t_bool)"},{"astId":1471,"contract":"contracts/MorpherBridge.sol:MorpherBridge","label":"swapRouter","offset":0,"slot":"70","type":"t_contract(ISwapRouter)71506"},{"astId":1486,"contract":"contracts/MorpherBridge.sol:MorpherBridge","label":"tokenSentToLinkedChain","offset":0,"slot":"71","type":"t_mapping(t_address,t_mapping(t_uint256,t_struct(TokensTransferredStruct)1479_storage))"},{"astId":1491,"contract":"contracts/MorpherBridge.sol:MorpherBridge","label":"tokenClaimedOnThisChain","offset":0,"slot":"72","type":"t_mapping(t_address,t_struct(TokensTransferredStruct)1479_storage)"},{"astId":1493,"contract":"contracts/MorpherBridge.sol:MorpherBridge","label":"bridgeNonce","offset":0,"slot":"73","type":"t_uint256"}],"types":{"t_address":{"encoding":"inplace","label":"address","numberOfBytes":"20"},"t_array(t_uint256)50_storage":{"encoding":"inplace","label":"uint256[50]","numberOfBytes":"1600","base":"t_uint256"},"t_bool":{"encoding":"inplace","label":"bool","numberOfBytes":"1"},"t_bytes32":{"encoding":"inplace","label":"bytes32","numberOfBytes":"32"},"t_contract(ISwapRouter)71506":{"encoding":"inplace","label":"contract ISwapRouter","numberOfBytes":"20"},"t_contract(MorpherBridge)3469":{"encoding":"inplace","label":"contract MorpherBridge","numberOfBytes":"20"},"t_contract(MorpherState)8056":{"encoding":"inplace","label":"contract MorpherState","numberOfBytes":"20"},"t_mapping(t_address,t_mapping(t_uint256,t_struct(TokensTransferredStruct)1479_storage))":{"encoding":"mapping","key":"t_address","label":"mapping(address => mapping(uint256 => struct MorpherBridge.TokensTransferredStruct))","numberOfBytes":"32","value":"t_mapping(t_uint256,t_struct(TokensTransferredStruct)1479_storage)"},"t_mapping(t_address,t_mapping(t_uint256,t_uint256))":{"encoding":"mapping","key":"t_address","label":"mapping(address => mapping(uint256 => uint256))","numberOfBytes":"32","value":"t_mapping(t_uint256,t_uint256)"},"t_mapping(t_address,t_struct(TokensTransferredStruct)1479_storage)":{"encoding":"mapping","key":"t_address","label":"mapping(address => struct MorpherBridge.TokensTransferredStruct)","numberOfBytes":"32","value":"t_struct(TokensTransferredStruct)1479_storage"},"t_mapping(t_bytes32,t_bool)":{"encoding":"mapping","key":"t_bytes32","label":"mapping(bytes32 => bool)","numberOfBytes":"32","value":"t_bool"},"t_mapping(t_uint256,t_struct(TokensTransferredStruct)1479_storage)":{"encoding":"mapping","key":"t_uint256","label":"mapping(uint256 => struct MorpherBridge.TokensTransferredStruct)","numberOfBytes":"32","value":"t_struct(TokensTransferredStruct)1479_storage"},"t_mapping(t_uint256,t_uint256)":{"encoding":"mapping","key":"t_uint256","label":"mapping(uint256 => uint256)","numberOfBytes":"32","value":"t_uint256"},"t_struct(TokensTransferredStruct)1479_storage":{"encoding":"inplace","label":"struct MorpherBridge.TokensTransferredStruct","numberOfBytes":"64","members":[{"astId":1476,"contract":"contracts/MorpherBridge.sol:MorpherBridge","label":"amount","offset":0,"slot":"0","type":"t_uint256"},{"astId":1478,"contract":"contracts/MorpherBridge.sol:MorpherBridge","label":"lastTransferAt","offset":0,"slot":"1","type":"t_uint256"}]},"t_struct(WithdrawalDataStruct)1457_storage":{"encoding":"inplace","label":"struct MorpherBridge.WithdrawalDataStruct","numberOfBytes":"64","members":[{"astId":1454,"contract":"contracts/MorpherBridge.sol:MorpherBridge","label":"merkleRoot","offset":0,"slot":"0","type":"t_bytes32"},{"astId":1456,"contract":"contracts/MorpherBridge.sol:MorpherBridge","label":"lastUpdatedAt","offset":0,"slot":"1","type":"t_uint256"}]},"t_uint256":{"encoding":"inplace","label":"uint256","numberOfBytes":"32"},"t_uint8":{"encoding":"inplace","label":"uint8","numberOfBytes":"1"}}},"id":5}