{"abi":[{"type":"constructor","inputs":[{"name":"_morpherToken","type":"address","internalType":"address payable"},{"name":"_coldStorageOwnerAddress","type":"address","internalType":"address"},{"name":"_fillUpAmount","type":"uint256","internalType":"uint256"}],"stateMutability":"nonpayable"},{"type":"fallback","stateMutability":"payable"},{"type":"receive","stateMutability":"payable"},{"type":"function","name":"fillUpAmount","inputs":[],"outputs":[{"name":"","type":"uint256","internalType":"uint256"}],"stateMutability":"view"},{"type":"function","name":"owner","inputs":[],"outputs":[{"name":"","type":"address","internalType":"address"}],"stateMutability":"view"},{"type":"function","name":"renounceOwnership","inputs":[],"outputs":[],"stateMutability":"nonpayable"},{"type":"function","name":"setFillUpAmount","inputs":[{"name":"_newFillUpAmount","type":"uint256","internalType":"uint256"}],"outputs":[],"stateMutability":"nonpayable"},{"type":"function","name":"setMorpherTokenAddress","inputs":[{"name":"_address","type":"address","internalType":"address payable"}],"outputs":[],"stateMutability":"nonpayable"},{"type":"function","name":"topUpToken","inputs":[],"outputs":[],"stateMutability":"nonpayable"},{"type":"function","name":"transferOwnership","inputs":[{"name":"newOwner","type":"address","internalType":"address"}],"outputs":[],"stateMutability":"nonpayable"},{"type":"event","name":"MorpherFaucetFillUpAmountChanged","inputs":[{"name":"_oldAmount","type":"uint256","indexed":false,"internalType":"uint256"},{"name":"_newAmount","type":"uint256","indexed":false,"internalType":"uint256"}],"anonymous":false},{"type":"event","name":"MorpherFaucetTopUp","inputs":[{"name":"_receiver","type":"address","indexed":true,"internalType":"address"},{"name":"_amount","type":"uint256","indexed":false,"internalType":"uint256"}],"anonymous":false},{"type":"event","name":"OwnershipTransferred","inputs":[{"name":"previousOwner","type":"address","indexed":true,"internalType":"address"},{"name":"newOwner","type":"address","indexed":true,"internalType":"address"}],"anonymous":false},{"type":"error","name":"OwnableInvalidOwner","inputs":[{"name":"owner","type":"address","internalType":"address"}]},{"type":"error","name":"OwnableUnauthorizedAccount","inputs":[{"name":"account","type":"address","internalType":"address"}]}],"bytecode":{"object":"0x608060405234801561001057600080fd5b5060405161085f38038061085f83398101604081905261002f916101b0565b338061005657604051631e4fbdf760e01b8152600060048201526024015b60405180910390fd5b61005f81610095565b50600180546001600160a01b0319166001600160a01b038516179055610084826100e5565b61008d81610123565b5050506101f3565b600080546001600160a01b038381166001600160a01b0319831681178455604051919092169283917f8be0079c531659141344cd1fd0a4f28419497f9722a3daafe3b4186f6b6457e09190a35050565b6100ed61016c565b6001600160a01b03811661011757604051631e4fbdf760e01b81526000600482015260240161004d565b61012081610095565b50565b61012b61016c565b60025460408051918252602082018390527fb3b4dfa21e50f1c76a055533babb800fc3268e95765d73354045d51a185251c3910160405180910390a1600255565b6000546001600160a01b031633146101995760405163118cdaa760e01b815233600482015260240161004d565b565b6001600160a01b038116811461012057600080fd5b6000806000606084860312156101c557600080fd5b83516101d08161019b565b60208501519093506101e18161019b565b80925050604084015190509250925092565b61065d806102026000396000f3fe6080604052600436106100745760003560e01c8063715018a61161004e578063715018a61461011d5780638da5cb5b14610132578063b0ed1da91461015a578063f2fde38b1461016f5761009a565b80633817f554146100b257806344135c9a146100d4578063533f8fd1146100fd5761009a565b3661009a5760405162461bcd60e51b815260040161009190610528565b60405180910390fd5b60405162461bcd60e51b815260040161009190610528565b3480156100be57600080fd5b506100d26100cd366004610588565b61018f565b005b3480156100e057600080fd5b506100ea60025481565b6040519081526020015b60405180910390f35b34801561010957600080fd5b506100d26101183660046105ac565b6101b9565b34801561012957600080fd5b506100d2610202565b34801561013e57600080fd5b506000546040516001600160a01b0390911681526020016100f4565b34801561016657600080fd5b506100d2610216565b34801561017b57600080fd5b506100d261018a366004610588565b61046d565b6101976104ab565b600180546001600160a01b0319166001600160a01b0392909216919091179055565b6101c16104ab565b60025460408051918252602082018390527fb3b4dfa21e50f1c76a055533babb800fc3268e95765d73354045d51a185251c3910160405180910390a1600255565b61020a6104ab565b61021460006104d8565b565b6002546001546040516370a0823160e01b81523360048201526001600160a01b03909116906370a0823190602401602060405180830381865afa158015610261573d6000803e3d6000fd5b505050506040513d601f19601f8201168201806040525081019061028591906105c5565b106102ca5760405162461bcd60e51b815260206004820152601560248201527411925313155417d05353d5539517d4915050d21151605a1b6044820152606401610091565b6001546040516370a0823160e01b815233600482018190526001600160a01b039092169163a9059cbb9183906370a0823190602401602060405180830381865afa15801561031c573d6000803e3d6000fd5b505050506040513d601f19601f8201168201806040525081019061034091906105c5565b60025461034d91906105de565b6040516001600160e01b031960e085901b1681526001600160a01b03909216600483015260248201526044016020604051808303816000875af1158015610398573d6000803e3d6000fd5b505050506040513d601f19601f820116820180604052508101906103bc9190610605565b506001546040516370a0823160e01b81523360048201819052917eec8d696ddf6a9225ecb395f69a85d8d7238ff10431c183801c27810f289104916001600160a01b03909116906370a0823190602401602060405180830381865afa158015610429573d6000803e3d6000fd5b505050506040513d601f19601f8201168201806040525081019061044d91906105c5565b60025461045a91906105de565b60405190815260200160405180910390a2565b6104756104ab565b6001600160a01b03811661049f57604051631e4fbdf760e01b815260006004820152602401610091565b6104a8816104d8565b50565b6000546001600160a01b031633146102145760405163118cdaa760e01b8152336004820152602401610091565b600080546001600160a01b038381166001600160a01b0319831681178455604051919092169283917f8be0079c531659141344cd1fd0a4f28419497f9722a3daafe3b4186f6b6457e09190a35050565b6020808252602b908201527f4d6f72706865724661756365743a20796f752063616e2774206465706f73697460408201526a204574686572206865726560a81b606082015260800190565b6001600160a01b03811681146104a857600080fd5b60006020828403121561059a57600080fd5b81356105a581610573565b9392505050565b6000602082840312156105be57600080fd5b5035919050565b6000602082840312156105d757600080fd5b5051919050565b818103818111156105ff57634e487b7160e01b600052601160045260246000fd5b92915050565b60006020828403121561061757600080fd5b815180151581146105a557600080fdfea26469706673582212207054d893e5f0494e8c7a5beebf624b0c0991009b02a3dd1b27606f5d9c6affb464736f6c634300081a0033","linkReferences":{}},"methodIdentifiers":{"fillUpAmount()":"44135c9a","owner()":"8da5cb5b","renounceOwnership()":"715018a6","setFillUpAmount(uint256)":"533f8fd1","setMorpherTokenAddress(address)":"3817f554","topUpToken()":"b0ed1da9","transferOwnership(address)":"f2fde38b"},"storageLayout":{"storage":[{"astId":66571,"contract":"contracts/MorpherFaucet.sol:MorpherFaucet","label":"_owner","offset":0,"slot":"0","type":"t_address"},{"astId":3625,"contract":"contracts/MorpherFaucet.sol:MorpherFaucet","label":"morpherToken","offset":0,"slot":"1","type":"t_contract(MorpherToken)8743"},{"astId":3627,"contract":"contracts/MorpherFaucet.sol:MorpherFaucet","label":"fillUpAmount","offset":0,"slot":"2","type":"t_uint256"}],"types":{"t_address":{"encoding":"inplace","label":"address","numberOfBytes":"20"},"t_contract(MorpherToken)8743":{"encoding":"inplace","label":"contract MorpherToken","numberOfBytes":"20"},"t_uint256":{"encoding":"inplace","label":"uint256","numberOfBytes":"32"}}},"id":7}