{"abi":[{"type":"constructor","inputs":[{"name":"_token","type":"address","internalType":"contract IERC20Metadata"},{"name":"_entryPoint","type":"address","internalType":"contract IEntryPoint"},{"name":"_wrappedNative","type":"address","internalType":"contract IERC20"},{"name":"_uniswap","type":"address","internalType":"contract ISwapRouter"},{"name":"_tokenPaymasterConfig","type":"tuple","internalType":"struct MorpherTokenPaymaster.TokenPaymasterConfig","components":[{"name":"priceMarkup","type":"uint256","internalType":"uint256"},{"name":"minEntryPointBalance","type":"uint128","internalType":"uint128"},{"name":"refundPostopCost","type":"uint48","internalType":"uint48"},{"name":"priceMaxAge","type":"uint48","internalType":"uint48"}]},{"name":"_oracleHelperConfig","type":"tuple","internalType":"struct OracleHelper.OracleHelperConfig","components":[{"name":"cacheTimeToLive","type":"uint48","internalType":"uint48"},{"name":"maxOracleRoundAge","type":"uint48","internalType":"uint48"},{"name":"tokenOracle","type":"address","internalType":"contract IOracle"},{"name":"nativeOracle","type":"address","internalType":"contract IOracle"},{"name":"tokenToNativeOracle","type":"bool","internalType":"bool"},{"name":"tokenOracleReverse","type":"bool","internalType":"bool"},{"name":"nativeOracleReverse","type":"bool","internalType":"bool"},{"name":"priceUpdateThreshold","type":"uint256","internalType":"uint256"}]},{"name":"_uniswapHelperConfig","type":"tuple","internalType":"struct UniswapHelper.UniswapHelperConfig","components":[{"name":"minSwapAmount","type":"uint256","internalType":"uint256"},{"name":"uniswapPoolFee","type":"uint24","internalType":"uint24"},{"name":"slippage","type":"uint8","internalType":"uint8"}]},{"name":"_owner","type":"address","internalType":"address"}],"stateMutability":"nonpayable"},{"type":"receive","stateMutability":"payable"},{"type":"function","name":"addStake","inputs":[{"name":"unstakeDelaySec","type":"uint32","internalType":"uint32"}],"outputs":[],"stateMutability":"payable"},{"type":"function","name":"cachedPrice","inputs":[],"outputs":[{"name":"","type":"uint256","internalType":"uint256"}],"stateMutability":"view"},{"type":"function","name":"cachedPriceTimestamp","inputs":[],"outputs":[{"name":"","type":"uint48","internalType":"uint48"}],"stateMutability":"view"},{"type":"function","name":"deposit","inputs":[],"outputs":[],"stateMutability":"payable"},{"type":"function","name":"entryPoint","inputs":[],"outputs":[{"name":"","type":"address","internalType":"contract IEntryPoint"}],"stateMutability":"view"},{"type":"function","name":"getDeposit","inputs":[],"outputs":[{"name":"","type":"uint256","internalType":"uint256"}],"stateMutability":"view"},{"type":"function","name":"owner","inputs":[],"outputs":[{"name":"","type":"address","internalType":"address"}],"stateMutability":"view"},{"type":"function","name":"postOp","inputs":[{"name":"mode","type":"uint8","internalType":"enum IPaymaster.PostOpMode"},{"name":"context","type":"bytes","internalType":"bytes"},{"name":"actualGasCost","type":"uint256","internalType":"uint256"}],"outputs":[],"stateMutability":"nonpayable"},{"type":"function","name":"renounceOwnership","inputs":[],"outputs":[],"stateMutability":"nonpayable"},{"type":"function","name":"setTokenPaymasterConfig","inputs":[{"name":"_tokenPaymasterConfig","type":"tuple","internalType":"struct MorpherTokenPaymaster.TokenPaymasterConfig","components":[{"name":"priceMarkup","type":"uint256","internalType":"uint256"},{"name":"minEntryPointBalance","type":"uint128","internalType":"uint128"},{"name":"refundPostopCost","type":"uint48","internalType":"uint48"},{"name":"priceMaxAge","type":"uint48","internalType":"uint48"}]}],"outputs":[],"stateMutability":"nonpayable"},{"type":"function","name":"setUniswapConfiguration","inputs":[{"name":"_uniswapHelperConfig","type":"tuple","internalType":"struct UniswapHelper.UniswapHelperConfig","components":[{"name":"minSwapAmount","type":"uint256","internalType":"uint256"},{"name":"uniswapPoolFee","type":"uint24","internalType":"uint24"},{"name":"slippage","type":"uint8","internalType":"uint8"}]}],"outputs":[],"stateMutability":"nonpayable"},{"type":"function","name":"token","inputs":[],"outputs":[{"name":"","type":"address","internalType":"contract IERC20"}],"stateMutability":"view"},{"type":"function","name":"tokenToWei","inputs":[{"name":"amount","type":"uint256","internalType":"uint256"},{"name":"price","type":"uint256","internalType":"uint256"}],"outputs":[{"name":"","type":"uint256","internalType":"uint256"}],"stateMutability":"pure"},{"type":"function","name":"transferOwnership","inputs":[{"name":"newOwner","type":"address","internalType":"address"}],"outputs":[],"stateMutability":"nonpayable"},{"type":"function","name":"uniswap","inputs":[],"outputs":[{"name":"","type":"address","internalType":"contract ISwapRouter"}],"stateMutability":"view"},{"type":"function","name":"unlockStake","inputs":[],"outputs":[],"stateMutability":"nonpayable"},{"type":"function","name":"updateCachedPrice","inputs":[{"name":"force","type":"bool","internalType":"bool"}],"outputs":[{"name":"","type":"uint256","internalType":"uint256"}],"stateMutability":"nonpayable"},{"type":"function","name":"validatePaymasterUserOp","inputs":[{"name":"userOp","type":"tuple","internalType":"struct UserOperation","components":[{"name":"sender","type":"address","internalType":"address"},{"name":"nonce","type":"uint256","internalType":"uint256"},{"name":"initCode","type":"bytes","internalType":"bytes"},{"name":"callData","type":"bytes","internalType":"bytes"},{"name":"callGasLimit","type":"uint256","internalType":"uint256"},{"name":"verificationGasLimit","type":"uint256","internalType":"uint256"},{"name":"preVerificationGas","type":"uint256","internalType":"uint256"},{"name":"maxFeePerGas","type":"uint256","internalType":"uint256"},{"name":"maxPriorityFeePerGas","type":"uint256","internalType":"uint256"},{"name":"paymasterAndData","type":"bytes","internalType":"bytes"},{"name":"signature","type":"bytes","internalType":"bytes"}]},{"name":"userOpHash","type":"bytes32","internalType":"bytes32"},{"name":"maxCost","type":"uint256","internalType":"uint256"}],"outputs":[{"name":"context","type":"bytes","internalType":"bytes"},{"name":"validationData","type":"uint256","internalType":"uint256"}],"stateMutability":"nonpayable"},{"type":"function","name":"weiToToken","inputs":[{"name":"amount","type":"uint256","internalType":"uint256"},{"name":"price","type":"uint256","internalType":"uint256"}],"outputs":[{"name":"","type":"uint256","internalType":"uint256"}],"stateMutability":"pure"},{"type":"function","name":"withdrawStake","inputs":[{"name":"withdrawAddress","type":"address","internalType":"address payable"}],"outputs":[],"stateMutability":"nonpayable"},{"type":"function","name":"withdrawTo","inputs":[{"name":"withdrawAddress","type":"address","internalType":"address payable"},{"name":"amount","type":"uint256","internalType":"uint256"}],"outputs":[],"stateMutability":"nonpayable"},{"type":"function","name":"withdrawToken","inputs":[{"name":"to","type":"address","internalType":"address"},{"name":"amount","type":"uint256","internalType":"uint256"}],"outputs":[],"stateMutability":"nonpayable"},{"type":"function","name":"wrappedNative","inputs":[],"outputs":[{"name":"","type":"address","internalType":"contract IERC20"}],"stateMutability":"view"},{"type":"event","name":"ConfigUpdated","inputs":[{"name":"tokenPaymasterConfig","type":"tuple","indexed":false,"internalType":"struct MorpherTokenPaymaster.TokenPaymasterConfig","components":[{"name":"priceMarkup","type":"uint256","internalType":"uint256"},{"name":"minEntryPointBalance","type":"uint128","internalType":"uint128"},{"name":"refundPostopCost","type":"uint48","internalType":"uint48"},{"name":"priceMaxAge","type":"uint48","internalType":"uint48"}]}],"anonymous":false},{"type":"event","name":"OwnershipTransferred","inputs":[{"name":"previousOwner","type":"address","indexed":true,"internalType":"address"},{"name":"newOwner","type":"address","indexed":true,"internalType":"address"}],"anonymous":false},{"type":"event","name":"Received","inputs":[{"name":"sender","type":"address","indexed":true,"internalType":"address"},{"name":"value","type":"uint256","indexed":false,"internalType":"uint256"}],"anonymous":false},{"type":"event","name":"TokenPriceUpdated","inputs":[{"name":"currentPrice","type":"uint256","indexed":false,"internalType":"uint256"},{"name":"previousPrice","type":"uint256","indexed":false,"internalType":"uint256"},{"name":"cachedPriceTimestamp","type":"uint256","indexed":false,"internalType":"uint256"}],"anonymous":false},{"type":"event","name":"UniswapReverted","inputs":[{"name":"tokenIn","type":"address","indexed":false,"internalType":"address"},{"name":"tokenOut","type":"address","indexed":false,"internalType":"address"},{"name":"amountIn","type":"uint256","indexed":false,"internalType":"uint256"},{"name":"amountOutMin","type":"uint256","indexed":false,"internalType":"uint256"}],"anonymous":false},{"type":"event","name":"UserOperationSponsored","inputs":[{"name":"user","type":"address","indexed":true,"internalType":"address"},{"name":"actualTokenCharge","type":"uint256","indexed":false,"internalType":"uint256"},{"name":"actualGasCost","type":"uint256","indexed":false,"internalType":"uint256"},{"name":"actualTokenPrice","type":"uint256","indexed":false,"internalType":"uint256"}],"anonymous":false}],"bytecode":{"object":"0x61010060405234801561001157600080fd5b50604051612de6380380612de6833981016040819052610030916108c7565b82888787858b61003f33610145565b6001600160a01b0390811660805260405163095ea7b360e01b8152838216600482015260001960248201529085169063095ea7b3906044016020604051808303816000875af1158015610096573d6000803e3d6000fd5b505050506040513d601f19601f820116820180604052508101906100ba91906109c6565b506001600160a01b0380851660c05283811660e052821660a05261011181805160015560208101516002805460409093015160ff1663010000000263ffffffff1990931662ffffff90921691909117919091179055565b505060001960035550610125905081610195565b5061012f8461048a565b6101388161060f565b5050505050505050610b28565b600080546001600160a01b038381166001600160a01b0319831681178455604051919092169283917f8be0079c531659141344cd1fd0a4f28419497f9722a3daafe3b4186f6b6457e09190a35050565b805160058054602084015160408501516001600160a01b039081166c01000000000000000000000000026001600160601b0365ffffffffffff9384166601000000000000026001600160601b031990951693909616929092179290921793909316929092179055606082015160068054608085015160a086015160c08701511515600160b01b0260ff60b01b19911515600160a81b029190911661ffff60a81b19921515600160a01b026001600160a81b0319909416959096169490941791909117169290921717905560e081015160078190556a52b7d2dcc80cd2e400000010156102c85760405162461bcd60e51b815260206004820152601e60248201527f54504d3a20757064617465207468726573686f6c6420746f6f2068696768000060448201526064015b60405180910390fd5b6005600001600c9054906101000a90046001600160a01b03166001600160a01b031663313ce5676040518163ffffffff1660e01b8152600401602060405180830381865afa15801561031e573d6000803e3d6000fd5b505050506040513d601f19601f8201168201806040525081019061034291906109e8565b61034d90600a610b02565b600880546001600160801b0319166001600160801b0392909216919091179055600654600160a01b900460ff16156103f0576006546001600160a01b0316156103d85760405162461bcd60e51b815260206004820152601f60248201527f54504d3a206e6174697665206f7261636c65206d757374206265207a65726f0060448201526064016102bf565b600880546001600160801b0316600160801b17905550565b6006546040805163313ce56760e01b815290516001600160a01b039092169163313ce567916004808201926020929091908290030181865afa15801561043a573d6000803e3d6000fd5b505050506040513d601f19601f8201168201806040525081019061045e91906109e8565b61046990600a610b02565b600880546001600160801b03928316600160801b0292169190911790555b50565b610492610685565b6104a86a52b7d2dcc80cd2e40000006002610b11565b815111156104f85760405162461bcd60e51b815260206004820152601a60248201527f54504d3a207072696365206d61726b757020746f6f206869676800000000000060448201526064016102bf565b80516a52b7d2dcc80cd2e400000011156105545760405162461bcd60e51b815260206004820152601960248201527f54504d3a207072696365206d61726b757020746f6f206c6f770000000000000060448201526064016102bf565b8051600981905560208083018051600a8054604080880180516060808b01805165ffffffffffff908116600160b01b0265ffffffffffff60b01b19948216600160801b026001600160b01b03199098166001600160801b039a8b161797909717939093169590951790955582519889529551909416958701959095529151831685850152905190911690830152517fcd938817f1c47094d43be3d07e8c67e11766db2e11a2b4376e7ee937b15793a29181900360800190a150565b610617610685565b6001600160a01b03811661067c5760405162461bcd60e51b815260206004820152602660248201527f4f776e61626c653a206e6577206f776e657220697320746865207a65726f206160448201526564647265737360d01b60648201526084016102bf565b61048781610145565b6000546001600160a01b031633146106df5760405162461bcd60e51b815260206004820181905260248201527f4f776e61626c653a2063616c6c6572206973206e6f7420746865206f776e657260448201526064016102bf565b565b6001600160a01b038116811461048757600080fd5b60405161010081016001600160401b038111828210171561072757634e487b7160e01b600052604160045260246000fd5b60405290565b604051608081016001600160401b038111828210171561072757634e487b7160e01b600052604160045260246000fd5b805165ffffffffffff8116811461077357600080fd5b919050565b8051610773816106e1565b8051801515811461077357600080fd5b600061010082840312156107a657600080fd5b6107ae6106f6565b90506107b98261075d565b81526107c76020830161075d565b602082015260408201516107da816106e1565b60408201526107eb60608301610778565b60608201526107fc60808301610783565b608082015261080d60a08301610783565b60a082015261081e60c08301610783565b60c082015260e09182015191810191909152919050565b805160ff8116811461077357600080fd5b60006060828403121561085857600080fd5b604051606081016001600160401b038111828210171561088857634e487b7160e01b600052604160045260246000fd5b604052825181526020830151909150819062ffffff811681146108aa57600080fd5b60208201526108bb60408401610835565b60408201525092915050565b600080600080600080600080888a036102808112156108e557600080fd5b89516108f0816106e1565b60208b0151909950610901816106e1565b60408b0151909850610912816106e1565b60608b0151909750610923816106e1565b95506080607f198201121561093757600080fd5b5061094061072d565b60808a0151815260a08a01516001600160801b038116811461096157600080fd5b602082015261097260c08b0161075d565b604082015261098360e08b0161075d565b606082015293506109988a6101008b01610793565b92506109a88a6102008b01610846565b91506109b76102608a01610778565b90509295985092959890939650565b6000602082840312156109d857600080fd5b6109e182610783565b9392505050565b6000602082840312156109fa57600080fd5b6109e182610835565b634e487b7160e01b600052601160045260246000fd5b6001815b6001841115610a5457808504811115610a3857610a38610a03565b6001841615610a4657908102905b60019390931c928002610a1d565b935093915050565b600082610a6b57506001610afc565b81610a7857506000610afc565b8160018114610a8e5760028114610a9857610ab4565b6001915050610afc565b60ff841115610aa957610aa9610a03565b50506001821b610afc565b5060208310610133831016604e8410600b8410161715610ad7575081810a610afc565b610ae46000198484610a19565b8060001904821115610af857610af8610a03565b0290505b92915050565b60006109e160ff841683610a5c565b8082028115828204841417610afc57610afc610a03565b60805160a05160c05160e051612200610be6600039600081816103da0152611807015260008181610492015281816107a6015281816110be015281816110f80152818161124a0152818161133b015281816113b301526116470152600081816101cc0152818161185a01526119b80152600081816102fe015281816104d60152818161056d0152818161083c015281816108d001528181610948015281816109d501528181610fcd015281816115b7015261168c01526122006000f3fe6080604052600436106101445760003560e01c8063bb9fe6bf116100b6578063eb6d3a111161006f578063eb6d3a11146103c8578063f14d64ed146103fc578063f2fde38b1461041c578063f465c77e1461043c578063f60fdcb31461046a578063fc0c546a1461048057600080fd5b8063bb9fe6bf14610320578063c23a5cea14610335578063c399ec8814610355578063d0e30db01461036a578063d7a23b3c14610372578063e1d8153c1461039257600080fd5b80637c986aac116101085780637c986aac1461024e5780638da5cb5b1461026e5780639e281a981461028c578063a0840fa7146102ac578063a9a23409146102cc578063b0d691fe146102ec57600080fd5b80630396cb6014610185578063205c28781461019a5780632681f7e4146101ba5780633ba9290f1461020b578063715018a61461023957600080fd5b366101805760405134815233907f88a5966d370b9919b20f3e2c13ff65706f196a4e32cc2c12bf57088f885258749060200160405180910390a2005b600080fd5b610198610193366004611b61565b6104b4565b005b3480156101a657600080fd5b506101986101b5366004611ba3565b61053f565b3480156101c657600080fd5b506101ee7f000000000000000000000000000000000000000000000000000000000000000081565b6040516001600160a01b0390911681526020015b60405180910390f35b34801561021757600080fd5b5061022b610226366004611bdd565b6105b1565b604051908152602001610202565b34801561024557600080fd5b5061019861075a565b34801561025a57600080fd5b5061022b610269366004611bfa565b61076e565b34801561027a57600080fd5b506000546001600160a01b03166101ee565b34801561029857600080fd5b506101986102a7366004611ba3565b610799565b3480156102b857600080fd5b506101986102c7366004611c1c565b6107d0565b3480156102d857600080fd5b506101986102e7366004611ca3565b610818565b3480156102f857600080fd5b506101ee7f000000000000000000000000000000000000000000000000000000000000000081565b34801561032c57600080fd5b50610198610832565b34801561034157600080fd5b50610198610350366004611d35565b6108a9565b34801561036157600080fd5b5061022b610930565b6101986109c0565b34801561037e57600080fd5b5061022b61038d366004611bfa565b610a22565b34801561039e57600080fd5b506004546103b19065ffffffffffff1681565b60405165ffffffffffff9091168152602001610202565b3480156103d457600080fd5b506101ee7f000000000000000000000000000000000000000000000000000000000000000081565b34801561040857600080fd5b50610198610417366004611d6d565b610a3a565b34801561042857600080fd5b50610198610437366004611d35565b610bc4565b34801561044857600080fd5b5061045c610457366004611e02565b610c3a565b604051610202929190611ea6565b34801561047657600080fd5b5061022b60035481565b34801561048c57600080fd5b506101ee7f000000000000000000000000000000000000000000000000000000000000000081565b6104bc610c5d565b604051621cb65b60e51b815263ffffffff821660048201527f00000000000000000000000000000000000000000000000000000000000000006001600160a01b031690630396cb609034906024016000604051808303818588803b15801561052357600080fd5b505af1158015610537573d6000803e3d6000fd5b505050505050565b610547610c5d565b60405163040b850f60e31b81526001600160a01b038381166004830152602482018390527f0000000000000000000000000000000000000000000000000000000000000000169063205c287890604401600060405180830381600087803b15801561052357600080fd5b60055460045460009165ffffffffffff9081169183916105d2911642611ede565b9050831580156105e25750818111155b156105f257505060035492915050565b600754600554600654600354600160601b9092046001600160a01b0390811692911690600061062084610cb7565b600654909150600190600160a01b900460ff166106435761064084610cb7565b90505b60065460009061066a908490849060ff600160a81b8204811691600160b01b900416610e45565b9050600084610684836a52b7d2dcc80cd2e4000000611ef1565b61068e9190611f1e565b905060008c806106b157506106ae896a52b7d2dcc80cd2e4000000611f40565b82115b806106cf57506106cc896a52b7d2dcc80cd2e4000000611ede565b82105b9050806106e75750939b9a5050505050505050505050565b60038390556004805465ffffffffffff19164265ffffffffffff169081179091556040805185815260208101899052908101919091527ed4fe314618b73a96886b87817a53a5ed51433b0234c85a5e9dafe2cb7b88429060600160405180910390a150909b9a5050505050505050505050565b610762610c5d565b61076c6000610f0a565b565b6000816107866a52b7d2dcc80cd2e400000085611ef1565b6107909190611f1e565b90505b92915050565b6107a1610c5d565b6107cc7f00000000000000000000000000000000000000000000000000000000000000008383610f5a565b5050565b6107d8610c5d565b61081581805160015560208101516002805460409093015160ff1663010000000263ffffffff1990931662ffffff90921691909117919091179055565b50565b610820610fc2565b61082c84848484611032565b50505050565b61083a610c5d565b7f00000000000000000000000000000000000000000000000000000000000000006001600160a01b031663bb9fe6bf6040518163ffffffff1660e01b8152600401600060405180830381600087803b15801561089557600080fd5b505af115801561082c573d6000803e3d6000fd5b6108b1610c5d565b60405163611d2e7560e11b81526001600160a01b0382811660048301527f0000000000000000000000000000000000000000000000000000000000000000169063c23a5cea906024015b600060405180830381600087803b15801561091557600080fd5b505af1158015610929573d6000803e3d6000fd5b5050505050565b6040516370a0823160e01b81523060048201526000907f00000000000000000000000000000000000000000000000000000000000000006001600160a01b0316906370a0823190602401602060405180830381865afa158015610997573d6000803e3d6000fd5b505050506040513d601f19601f820116820180604052508101906109bb9190611f53565b905090565b60405163b760faf960e01b81523060048201527f00000000000000000000000000000000000000000000000000000000000000006001600160a01b03169063b760faf99034906024016000604051808303818588803b15801561091557600080fd5b60006a52b7d2dcc80cd2e40000006107868385611ef1565b610a42610c5d565b610a586a52b7d2dcc80cd2e40000006002611ef1565b81511115610aad5760405162461bcd60e51b815260206004820152601a60248201527f54504d3a207072696365206d61726b757020746f6f206869676800000000000060448201526064015b60405180910390fd5b80516a52b7d2dcc80cd2e40000001115610b095760405162461bcd60e51b815260206004820152601960248201527f54504d3a207072696365206d61726b757020746f6f206c6f77000000000000006044820152606401610aa4565b8051600981905560208083018051600a8054604080880180516060808b01805165ffffffffffff908116600160b01b0265ffffffffffff60b01b19948216600160801b026001600160b01b03199098166001600160801b039a8b161797909717939093169590951790955582519889529551909416958701959095529151831685850152905190911690830152517fcd938817f1c47094d43be3d07e8c67e11766db2e11a2b4376e7ee937b15793a29181900360800190a150565b610bcc610c5d565b6001600160a01b038116610c315760405162461bcd60e51b815260206004820152602660248201527f4f776e61626c653a206e6577206f776e657220697320746865207a65726f206160448201526564647265737360d01b6064820152608401610aa4565b61081581610f0a565b60606000610c46610fc2565b610c51858585611186565b91509150935093915050565b6000546001600160a01b0316331461076c5760405162461bcd60e51b815260206004820181905260248201527f4f776e61626c653a2063616c6c6572206973206e6f7420746865206f776e65726044820152606401610aa4565b6000806000806000856001600160a01b031663feaf968c6040518163ffffffff1660e01b815260040160a060405180830381865afa158015610cfd573d6000803e3d6000fd5b505050506040513d601f19601f82011682018060405250810190610d219190611f86565b94509450509350935060008313610d7a5760405162461bcd60e51b815260206004820152601960248201527f54504d3a20436861696e6c696e6b207072696365203c3d2030000000000000006044820152606401610aa4565b600554610d99906601000000000000900465ffffffffffff1642611ede565b821015610de05760405162461bcd60e51b81526020600482015260156024820152741514134e88125b98dbdb5c1b195d19481c9bdd5b99605a1b6044820152606401610aa4565b8369ffffffffffffffffffff168169ffffffffffffffffffff161015610e3b5760405162461bcd60e51b815260206004820152601060248201526f54504d3a205374616c6520707269636560801b6044820152606401610aa4565b5090949350505050565b60008215610e81576008548590610e70906001600160801b03166a52b7d2dcc80cd2e4000000611ef1565b610e7a9190611f1e565b9450610eaf565b6008546001600160801b0316610ea2866a52b7d2dcc80cd2e4000000611ef1565b610eac9190611f1e565b94505b8115610ee357600854600160801b90046001600160801b0316610ed28686611ef1565b610edc9190611f1e565b9050610f02565b6008548490610ed290600160801b90046001600160801b031687611ef1565b949350505050565b600080546001600160a01b038381166001600160a01b0319831681178455604051919092169283917f8be0079c531659141344cd1fd0a4f28419497f9722a3daafe3b4186f6b6457e09190a35050565b6040516001600160a01b038316602482015260448101829052610fbd90849063a9059cbb60e01b906064015b60408051601f198184030181529190526020810180516001600160e01b03166001600160e01b03199093169290921790915261146f565b505050565b336001600160a01b037f0000000000000000000000000000000000000000000000000000000000000000161461076c5760405162461bcd60e51b815260206004820152601560248201527414d95b99195c881b9bdd08115b9d1c9e541bda5b9d605a1b6044820152606401610aa4565b600954600080808061104687890189611fd8565b9350935093509350600061105a8484611544565b9050600061106860006105b1565b90506000876a52b7d2dcc80cd2e400000083028161108857611088611f08565b600a549190049150600160801b900465ffffffffffff168302890160006110af828461076e565b9050808911156110eb576110e67f000000000000000000000000000000000000000000000000000000000000000087838c03610f5a565b611121565b80891015611121576111217f000000000000000000000000000000000000000000000000000000000000000087308c8503611567565b60408051828152602081018d90529081018590526001600160a01b038716907f46caa0511cf037f06f57a0bf273a2ff04229f5b12fb04675234a6cbe2e7f1a899060600160405180910390a26111768461159f565b5050505050505050505050505050565b6009546060906000908160146111a0610120890189612019565b600a5460045493909103935065ffffffffffff600160801b8204811660e08c0135028901936111e1935042600160b01b9093048216929092019116106105b1565b506000836a52b7d2dcc80cd2e4000000600354028161120257611202611f08565b0490506000611211838361076e565b905083156113ae5760006112296101208c018c612019565b61123891603891602491612067565b61124191612091565b60601c905060007f00000000000000000000000000000000000000000000000000000000000000006001600160a01b03165a60008e8061012001906112869190612019565b611294916014908290612067565b6040516112a29291906120de565b600060405180830381858888f193505050503d80600081146112e0576040519150601f19603f3d011682016040523d82523d6000602084013e6112e5565b606091505b50509050806113365760405162461bcd60e51b815260206004820152601d60248201527f4552433230205065726d6974206661696c65642e2041626f7274696e670000006044820152606401610aa4565b6113627f0000000000000000000000000000000000000000000000000000000000000000833086611567565b604080516020810185905260e08e0135918101919091526101008d013560608201526001600160a01b038316608082015260a00160405160208183030381529060405298505050611439565b6113e67f00000000000000000000000000000000000000000000000000000000000000006113df60208d018d611d35565b3084611567565b8060e08b01356101008c01356113ff60208e018e611d35565b60408051602081019590955284019290925260608301526001600160a01b0316608082015260a00160405160208183030381529060405296505b600a546004546114609160009165ffffffffffff908116600160b01b9092041601816116f7565b95505050505050935093915050565b60006114c4826040518060400160405280602081526020017f5361666545524332303a206c6f772d6c6576656c2063616c6c206661696c6564815250856001600160a01b031661172f9092919063ffffffff16565b90508051600014806114e55750808060200190518101906114e591906120ee565b610fbd5760405162461bcd60e51b815260206004820152602a60248201527f5361666545524332303a204552433230206f7065726174696f6e20646964206e6044820152691bdd081cdd58d8d9595960b21b6064820152608401610aa4565b6000818303611554575081610793565b610790836115624885611f40565b61173e565b6040516001600160a01b038085166024830152831660448201526064810182905261082c9085906323b872dd60e01b90608401610f86565b6040516370a0823160e01b81523060048201526000907f00000000000000000000000000000000000000000000000000000000000000006001600160a01b0316906370a0823190602401602060405180830381865afa158015611606573d6000803e3d6000fd5b505050506040513d601f19601f8201168201806040525081019061162a9190611f53565b600a549091506001600160801b03168110156107cc57600061166c7f000000000000000000000000000000000000000000000000000000000000000084611754565b90506116778161183e565b60405163b760faf960e01b81523060048201527f00000000000000000000000000000000000000000000000000000000000000006001600160a01b03169063b760faf99047906024016000604051808303818588803b1580156116d957600080fd5b505af11580156116ed573d6000803e3d6000fd5b5050505050505050565b600060d08265ffffffffffff16901b60a08465ffffffffffff16901b8561171f576000611722565b60015b60ff161717949350505050565b6060610f028484600085611891565b600081831061174d5781610790565b5090919050565b6040516370a0823160e01b815230600482015260009081906001600160a01b038516906370a0823190602401602060405180830381865afa15801561179d573d6000803e3d6000fd5b505050506040513d601f19601f820116820180604052508101906117c19190611f53565b905060006117e46117d28386610a22565b6002546301000000900460ff1661196c565b6001549091508110156117fc57600092505050610793565b6002546118359086907f0000000000000000000000000000000000000000000000000000000000000000908590859062ffffff1661198c565b95945050505050565b60405163125012df60e21b8152600481018290523060248201527f00000000000000000000000000000000000000000000000000000000000000006001600160a01b0316906349404b7c906044016108fb565b6060824710156118f25760405162461bcd60e51b815260206004820152602660248201527f416464726573733a20696e73756666696369656e742062616c616e636520666f6044820152651c8818d85b1b60d21b6064820152608401610aa4565b600080866001600160a01b0316858760405161190e919061210b565b60006040518083038185875af1925050503d806000811461194b576040519150601f19603f3d011682016040523d82523d6000602084013e611950565b606091505b509150915061196187838387611ac3565b979650505050505050565b60006103e861197e60ff841682612127565b6107869061ffff1685611ef1565b60408051610100810182526001600160a01b038088168252868116602083015262ffffff8416828401527f0000000000000000000000000000000000000000000000000000000000000000166060820181905242608083015260a0820186905260c08201859052600060e08301819052925163414bf38960e01b815263414bf38990611a1c908490600401612141565b6020604051808303816000875af1925050508015611a57575060408051601f3d908101601f19168201909252611a5491810190611f53565b60015b611ab657604080516001600160a01b03808a16825288166020820152908101869052606081018590527ff7edd4c6ec425decf715a8b8eaa3b65d3d86e31ad0ff750aa60fa834190f515f9060800160405180910390a160009150611ab9565b91505b5095945050505050565b60608315611b32578251600003611b2b576001600160a01b0385163b611b2b5760405162461bcd60e51b815260206004820152601d60248201527f416464726573733a2063616c6c20746f206e6f6e2d636f6e74726163740000006044820152606401610aa4565b5081610f02565b610f028383815115611b475781518083602001fd5b8060405162461bcd60e51b8152600401610aa491906121b7565b600060208284031215611b7357600080fd5b813563ffffffff81168114611b8757600080fd5b9392505050565b6001600160a01b038116811461081557600080fd5b60008060408385031215611bb657600080fd5b8235611bc181611b8e565b946020939093013593505050565b801515811461081557600080fd5b600060208284031215611bef57600080fd5b8135611b8781611bcf565b60008060408385031215611c0d57600080fd5b50508035926020909101359150565b60006060828403128015611c2f57600080fd5b506040516000906060810167ffffffffffffffff81118282101715611c6257634e487b7160e01b83526041600452602483fd5b60405283358152602084013562ffffff81168114611c7e578283fd5b6020820152604084013560ff81168114611c96578283fd5b6040820152949350505050565b60008060008060608587031215611cb957600080fd5b843560038110611cc857600080fd5b9350602085013567ffffffffffffffff811115611ce457600080fd5b8501601f81018713611cf557600080fd5b803567ffffffffffffffff811115611d0c57600080fd5b876020828401011115611d1e57600080fd5b949760209190910196509394604001359392505050565b600060208284031215611d4757600080fd5b8135611b8781611b8e565b803565ffffffffffff81168114611d6857600080fd5b919050565b60006080828403128015611d8057600080fd5b506040516000906080810167ffffffffffffffff81118282101715611db357634e487b7160e01b83526041600452602483fd5b6040528335815260208401356001600160801b0381168114611dd3578283fd5b6020820152611de460408501611d52565b6040820152611df560608501611d52565b6060820152949350505050565b600080600060608486031215611e1757600080fd5b833567ffffffffffffffff811115611e2e57600080fd5b84016101608187031215611e4157600080fd5b95602085013595506040909401359392505050565b60005b83811015611e71578181015183820152602001611e59565b50506000910152565b60008151808452611e92816020860160208601611e56565b601f01601f19169290920160200192915050565b604081526000611eb96040830185611e7a565b90508260208301529392505050565b634e487b7160e01b600052601160045260246000fd5b8181038181111561079357610793611ec8565b808202811582820484141761079357610793611ec8565b634e487b7160e01b600052601260045260246000fd5b600082611f3b57634e487b7160e01b600052601260045260246000fd5b500490565b8082018082111561079357610793611ec8565b600060208284031215611f6557600080fd5b5051919050565b805169ffffffffffffffffffff81168114611d6857600080fd5b600080600080600060a08688031215611f9e57600080fd5b611fa786611f6c565b60208701516040880151606089015192975090955093509150611fcc60808701611f6c565b90509295509295909350565b60008060008060808587031215611fee57600080fd5b843593506020850135925060408501359150606085013561200e81611b8e565b939692955090935050565b6000808335601e1984360301811261203057600080fd5b83018035915067ffffffffffffffff82111561204b57600080fd5b60200191503681900382131561206057600080fd5b9250929050565b6000808585111561207757600080fd5b8386111561208457600080fd5b5050820193919092039150565b80356bffffffffffffffffffffffff1981169060148410156120d7576bffffffffffffffffffffffff196bffffffffffffffffffffffff198560140360031b1b82161691505b5092915050565b8183823760009101908152919050565b60006020828403121561210057600080fd5b8151611b8781611bcf565b6000825161211d818460208701611e56565b9190910192915050565b61ffff828116828216039081111561079357610793611ec8565b81516001600160a01b03908116825260208084015182169083015260408084015162ffffff169083015260608084015191821690830152610100820190506080830151608083015260a083015160a083015260c083015160c083015260e08301516120d760e08401826001600160a01b03169052565b6020815260006107906020830184611e7a56fea264697066735822122071e36290ad8e83778a07191c753ef55bf7a24ecfbd738534593b5289f389fed864736f6c634300081a0033","linkReferences":{}},"methodIdentifiers":{"addStake(uint32)":"0396cb60","cachedPrice()":"f60fdcb3","cachedPriceTimestamp()":"e1d8153c","deposit()":"d0e30db0","entryPoint()":"b0d691fe","getDeposit()":"c399ec88","owner()":"8da5cb5b","postOp(uint8,bytes,uint256)":"a9a23409","renounceOwnership()":"715018a6","setTokenPaymasterConfig((uint256,uint128,uint48,uint48))":"f14d64ed","setUniswapConfiguration((uint256,uint24,uint8))":"a0840fa7","token()":"fc0c546a","tokenToWei(uint256,uint256)":"d7a23b3c","transferOwnership(address)":"f2fde38b","uniswap()":"2681f7e4","unlockStake()":"bb9fe6bf","updateCachedPrice(bool)":"3ba9290f","validatePaymasterUserOp((address,uint256,bytes,bytes,uint256,uint256,uint256,uint256,uint256,bytes,bytes),bytes32,uint256)":"f465c77e","weiToToken(uint256,uint256)":"7c986aac","withdrawStake(address)":"c23a5cea","withdrawTo(address,uint256)":"205c2878","withdrawToken(address,uint256)":"9e281a98","wrappedNative()":"eb6d3a11"},"storageLayout":{"storage":[{"astId":62442,"contract":"contracts/MorpherTokenPaymaster.sol:MorpherTokenPaymaster","label":"_owner","offset":0,"slot":"0","type":"t_address"},{"astId":18258,"contract":"contracts/MorpherTokenPaymaster.sol:MorpherTokenPaymaster","label":"uniswapHelperConfig","offset":0,"slot":"1","type":"t_struct(UniswapHelperConfig)18243_storage"},{"astId":17880,"contract":"contracts/MorpherTokenPaymaster.sol:MorpherTokenPaymaster","label":"cachedPrice","offset":0,"slot":"3","type":"t_uint256"},{"astId":17883,"contract":"contracts/MorpherTokenPaymaster.sol:MorpherTokenPaymaster","label":"cachedPriceTimestamp","offset":0,"slot":"4","type":"t_uint48"},{"astId":17886,"contract":"contracts/MorpherTokenPaymaster.sol:MorpherTokenPaymaster","label":"oracleHelperConfig","offset":0,"slot":"5","type":"t_struct(OracleHelperConfig)17877_storage"},{"astId":17889,"contract":"contracts/MorpherTokenPaymaster.sol:MorpherTokenPaymaster","label":"tokenOracleDecimalPower","offset":0,"slot":"8","type":"t_uint128"},{"astId":17892,"contract":"contracts/MorpherTokenPaymaster.sol:MorpherTokenPaymaster","label":"nativeOracleDecimalPower","offset":16,"slot":"8","type":"t_uint128"},{"astId":8816,"contract":"contracts/MorpherTokenPaymaster.sol:MorpherTokenPaymaster","label":"tokenPaymasterConfig","offset":0,"slot":"9","type":"t_struct(TokenPaymasterConfig)8769_storage"}],"types":{"t_address":{"encoding":"inplace","label":"address","numberOfBytes":"20"},"t_bool":{"encoding":"inplace","label":"bool","numberOfBytes":"1"},"t_contract(IOracle)17835":{"encoding":"inplace","label":"contract IOracle","numberOfBytes":"20"},"t_struct(OracleHelperConfig)17877_storage":{"encoding":"inplace","label":"struct OracleHelper.OracleHelperConfig","numberOfBytes":"96","members":[{"astId":17853,"contract":"contracts/MorpherTokenPaymaster.sol:MorpherTokenPaymaster","label":"cacheTimeToLive","offset":0,"slot":"0","type":"t_uint48"},{"astId":17856,"contract":"contracts/MorpherTokenPaymaster.sol:MorpherTokenPaymaster","label":"maxOracleRoundAge","offset":6,"slot":"0","type":"t_uint48"},{"astId":17860,"contract":"contracts/MorpherTokenPaymaster.sol:MorpherTokenPaymaster","label":"tokenOracle","offset":12,"slot":"0","type":"t_contract(IOracle)17835"},{"astId":17864,"contract":"contracts/MorpherTokenPaymaster.sol:MorpherTokenPaymaster","label":"nativeOracle","offset":0,"slot":"1","type":"t_contract(IOracle)17835"},{"astId":17867,"contract":"contracts/MorpherTokenPaymaster.sol:MorpherTokenPaymaster","label":"tokenToNativeOracle","offset":20,"slot":"1","type":"t_bool"},{"astId":17870,"contract":"contracts/MorpherTokenPaymaster.sol:MorpherTokenPaymaster","label":"tokenOracleReverse","offset":21,"slot":"1","type":"t_bool"},{"astId":17873,"contract":"contracts/MorpherTokenPaymaster.sol:MorpherTokenPaymaster","label":"nativeOracleReverse","offset":22,"slot":"1","type":"t_bool"},{"astId":17876,"contract":"contracts/MorpherTokenPaymaster.sol:MorpherTokenPaymaster","label":"priceUpdateThreshold","offset":0,"slot":"2","type":"t_uint256"}]},"t_struct(TokenPaymasterConfig)8769_storage":{"encoding":"inplace","label":"struct MorpherTokenPaymaster.TokenPaymasterConfig","numberOfBytes":"64","members":[{"astId":8759,"contract":"contracts/MorpherTokenPaymaster.sol:MorpherTokenPaymaster","label":"priceMarkup","offset":0,"slot":"0","type":"t_uint256"},{"astId":8762,"contract":"contracts/MorpherTokenPaymaster.sol:MorpherTokenPaymaster","label":"minEntryPointBalance","offset":0,"slot":"1","type":"t_uint128"},{"astId":8765,"contract":"contracts/MorpherTokenPaymaster.sol:MorpherTokenPaymaster","label":"refundPostopCost","offset":16,"slot":"1","type":"t_uint48"},{"astId":8768,"contract":"contracts/MorpherTokenPaymaster.sol:MorpherTokenPaymaster","label":"priceMaxAge","offset":22,"slot":"1","type":"t_uint48"}]},"t_struct(UniswapHelperConfig)18243_storage":{"encoding":"inplace","label":"struct UniswapHelper.UniswapHelperConfig","numberOfBytes":"64","members":[{"astId":18238,"contract":"contracts/MorpherTokenPaymaster.sol:MorpherTokenPaymaster","label":"minSwapAmount","offset":0,"slot":"0","type":"t_uint256"},{"astId":18240,"contract":"contracts/MorpherTokenPaymaster.sol:MorpherTokenPaymaster","label":"uniswapPoolFee","offset":0,"slot":"1","type":"t_uint24"},{"astId":18242,"contract":"contracts/MorpherTokenPaymaster.sol:MorpherTokenPaymaster","label":"slippage","offset":3,"slot":"1","type":"t_uint8"}]},"t_uint128":{"encoding":"inplace","label":"uint128","numberOfBytes":"16"},"t_uint24":{"encoding":"inplace","label":"uint24","numberOfBytes":"3"},"t_uint256":{"encoding":"inplace","label":"uint256","numberOfBytes":"32"},"t_uint48":{"encoding":"inplace","label":"uint48","numberOfBytes":"6"},"t_uint8":{"encoding":"inplace","label":"uint8","numberOfBytes":"1"}}},"id":15}