{"abi":[{"type":"function","name":"ADMINISTRATOR_ROLE","inputs":[],"outputs":[{"name":"","type":"bytes32","internalType":"bytes32"}],"stateMutability":"view"},{"type":"function","name":"DOMAIN_SEPARATOR","inputs":[],"outputs":[{"name":"","type":"bytes32","internalType":"bytes32"}],"stateMutability":"view"},{"type":"function","name":"DOMAIN_TYPE_HASH","inputs":[],"outputs":[{"name":"","type":"bytes32","internalType":"bytes32"}],"stateMutability":"view"},{"type":"function","name":"ORACLE_ROLE","inputs":[],"outputs":[{"name":"","type":"bytes32","internalType":"bytes32"}],"stateMutability":"view"},{"type":"function","name":"POSITIONADMIN_ROLE","inputs":[],"outputs":[{"name":"","type":"bytes32","internalType":"bytes32"}],"stateMutability":"view"},{"type":"function","name":"POSITION_TYPE_HASH","inputs":[],"outputs":[{"name":"","type":"bytes32","internalType":"bytes32"}],"stateMutability":"view"},{"type":"function","name":"_HASHED_NAME","inputs":[],"outputs":[{"name":"","type":"bytes32","internalType":"bytes32"}],"stateMutability":"view"},{"type":"function","name":"_HASHED_VERSION","inputs":[],"outputs":[{"name":"","type":"bytes32","internalType":"bytes32"}],"stateMutability":"view"},{"type":"function","name":"addInterestRate","inputs":[{"name":"_rate","type":"uint256","internalType":"uint256"},{"name":"_validFrom","type":"uint256","internalType":"uint256"}],"outputs":[],"stateMutability":"nonpayable"},{"type":"function","name":"calculateMarginInterest","inputs":[{"name":"_averagePrice","type":"uint256","internalType":"uint256"},{"name":"_averageLeverage","type":"uint256","internalType":"uint256"},{"name":"_positionTimeStampInMs","type":"uint256","internalType":"uint256"}],"outputs":[{"name":"","type":"uint256","internalType":"uint256"}],"stateMutability":"view"},{"type":"function","name":"cancelOrder","inputs":[{"name":"_orderId","type":"bytes32","internalType":"bytes32"},{"name":"_address","type":"address","internalType":"address"}],"outputs":[],"stateMutability":"nonpayable"},{"type":"function","name":"computeLiquidationPrice","inputs":[{"name":"_orderId","type":"bytes32","internalType":"bytes32"}],"outputs":[{"name":"_liquidationPrice","type":"uint256","internalType":"uint256"}],"stateMutability":"nonpayable"},{"type":"function","name":"deployedTimeStamp","inputs":[],"outputs":[{"name":"","type":"uint256","internalType":"uint256"}],"stateMutability":"view"},{"type":"function","name":"escrowOpenOrderEnabled","inputs":[],"outputs":[{"name":"","type":"bool","internalType":"bool"}],"stateMutability":"view"},{"type":"function","name":"exposureByMarket","inputs":[{"name":"","type":"bytes32","internalType":"bytes32"}],"outputs":[{"name":"maxMappingIndex","type":"uint256","internalType":"uint256"}],"stateMutability":"view"},{"type":"function","name":"getDeactivatedMarketPrice","inputs":[{"name":"_marketId","type":"bytes32","internalType":"bytes32"}],"outputs":[{"name":"","type":"uint256","internalType":"uint256"}],"stateMutability":"view"},{"type":"function","name":"getExposureMappingAddress","inputs":[{"name":"_marketId","type":"bytes32","internalType":"bytes32"},{"name":"_mappingIndex","type":"uint256","internalType":"uint256"}],"outputs":[{"name":"_address","type":"address","internalType":"address"}],"stateMutability":"view"},{"type":"function","name":"getExposureMappingIndex","inputs":[{"name":"_marketId","type":"bytes32","internalType":"bytes32"},{"name":"_address","type":"address","internalType":"address"}],"outputs":[{"name":"_mappingIndex","type":"uint256","internalType":"uint256"}],"stateMutability":"view"},{"type":"function","name":"getInterestRate","inputs":[{"name":"_positionTimestamp","type":"uint256","internalType":"uint256"}],"outputs":[{"name":"","type":"uint256","internalType":"uint256"}],"stateMutability":"view"},{"type":"function","name":"getLiquidationPrice","inputs":[{"name":"_newMeanEntryPrice","type":"uint256","internalType":"uint256"},{"name":"_newMeanEntryLeverage","type":"uint256","internalType":"uint256"},{"name":"_long","type":"bool","internalType":"bool"},{"name":"_positionTimestampInMs","type":"uint256","internalType":"uint256"}],"outputs":[{"name":"","type":"uint256","internalType":"uint256"}],"stateMutability":"view"},{"type":"function","name":"getMaxMappingIndex","inputs":[{"name":"_marketId","type":"bytes32","internalType":"bytes32"}],"outputs":[{"name":"_maxMappingIndex","type":"uint256","internalType":"uint256"}],"stateMutability":"view"},{"type":"function","name":"getOrder","inputs":[{"name":"_orderId","type":"bytes32","internalType":"bytes32"}],"outputs":[{"name":"_userId","type":"address","internalType":"address"},{"name":"_marketId","type":"bytes32","internalType":"bytes32"},{"name":"_closeSharesAmount","type":"uint256","internalType":"uint256"},{"name":"_openMPHTokenAmount","type":"uint256","internalType":"uint256"},{"name":"_marketPrice","type":"uint256","internalType":"uint256"},{"name":"_marketSpread","type":"uint256","internalType":"uint256"},{"name":"_orderLeverage","type":"uint256","internalType":"uint256"}],"stateMutability":"view"},{"type":"function","name":"getPosition","inputs":[{"name":"_address","type":"address","internalType":"address"},{"name":"_marketId","type":"bytes32","internalType":"bytes32"}],"outputs":[{"name":"","type":"tuple","internalType":"struct MorpherTradeEngine.position","components":[{"name":"lastUpdated","type":"uint256","internalType":"uint256"},{"name":"longShares","type":"uint256","internalType":"uint256"},{"name":"shortShares","type":"uint256","internalType":"uint256"},{"name":"meanEntryPrice","type":"uint256","internalType":"uint256"},{"name":"meanEntrySpread","type":"uint256","internalType":"uint256"},{"name":"meanEntryLeverage","type":"uint256","internalType":"uint256"},{"name":"liquidationPrice","type":"uint256","internalType":"uint256"},{"name":"positionHash","type":"bytes32","internalType":"bytes32"}]}],"stateMutability":"view"},{"type":"function","name":"getPositionHash","inputs":[{"name":"_address","type":"address","internalType":"address"},{"name":"_marketId","type":"bytes32","internalType":"bytes32"},{"name":"_timeStamp","type":"uint256","internalType":"uint256"},{"name":"_longShares","type":"uint256","internalType":"uint256"},{"name":"_shortShares","type":"uint256","internalType":"uint256"},{"name":"_meanEntryPrice","type":"uint256","internalType":"uint256"},{"name":"_meanEntrySpread","type":"uint256","internalType":"uint256"},{"name":"_meanEntryLeverage","type":"uint256","internalType":"uint256"},{"name":"_liquidationPrice","type":"uint256","internalType":"uint256"}],"outputs":[{"name":"_hash","type":"bytes32","internalType":"bytes32"}],"stateMutability":"pure"},{"type":"function","name":"initialize","inputs":[{"name":"_stateAddress","type":"address","internalType":"address"},{"name":"_escrowOpenOrderEnabled","type":"bool","internalType":"bool"},{"name":"_deployedTimestampOverride","type":"uint256","internalType":"uint256"}],"outputs":[],"stateMutability":"nonpayable"},{"type":"function","name":"interestRate","inputs":[],"outputs":[{"name":"","type":"uint256","internalType":"uint256"}],"stateMutability":"view"},{"type":"function","name":"interestRates","inputs":[{"name":"","type":"uint256","internalType":"uint256"}],"outputs":[{"name":"validFrom","type":"uint256","internalType":"uint256"},{"name":"rate","type":"uint256","internalType":"uint256"}],"stateMutability":"view"},{"type":"function","name":"lastOrderId","inputs":[],"outputs":[{"name":"","type":"bytes32","internalType":"bytes32"}],"stateMutability":"view"},{"type":"function","name":"longShareValue","inputs":[{"name":"_positionAveragePrice","type":"uint256","internalType":"uint256"},{"name":"_positionAverageLeverage","type":"uint256","internalType":"uint256"},{"name":"_positionTimeStampInMs","type":"uint256","internalType":"uint256"},{"name":"_marketPrice","type":"uint256","internalType":"uint256"},{"name":"_marketSpread","type":"uint256","internalType":"uint256"},{"name":"_orderLeverage","type":"uint256","internalType":"uint256"},{"name":"_sell","type":"bool","internalType":"bool"}],"outputs":[{"name":"_shareValue","type":"uint256","internalType":"uint256"}],"stateMutability":"view"},{"type":"function","name":"morpherState","inputs":[],"outputs":[{"name":"","type":"address","internalType":"contract MorpherState"}],"stateMutability":"view"},{"type":"function","name":"nonces","inputs":[{"name":"owner","type":"address","internalType":"address"}],"outputs":[{"name":"","type":"uint256","internalType":"uint256"}],"stateMutability":"view"},{"type":"function","name":"numInterestRates","inputs":[],"outputs":[{"name":"","type":"uint256","internalType":"uint256"}],"stateMutability":"view"},{"type":"function","name":"orderNonce","inputs":[],"outputs":[{"name":"","type":"uint256","internalType":"uint256"}],"stateMutability":"view"},{"type":"function","name":"orders","inputs":[{"name":"","type":"bytes32","internalType":"bytes32"}],"outputs":[{"name":"userId","type":"address","internalType":"address"},{"name":"marketId","type":"bytes32","internalType":"bytes32"},{"name":"closeSharesAmount","type":"uint256","internalType":"uint256"},{"name":"openMPHTokenAmount","type":"uint256","internalType":"uint256"},{"name":"tradeDirection","type":"bool","internalType":"bool"},{"name":"liquidationTimestamp","type":"uint256","internalType":"uint256"},{"name":"marketPrice","type":"uint256","internalType":"uint256"},{"name":"marketSpread","type":"uint256","internalType":"uint256"},{"name":"orderLeverage","type":"uint256","internalType":"uint256"},{"name":"timeStamp","type":"uint256","internalType":"uint256"},{"name":"orderEscrowAmount","type":"uint256","internalType":"uint256"},{"name":"modifyPosition","type":"tuple","internalType":"struct MorpherTradeEngine.OrderModifier","components":[{"name":"longSharesOrder","type":"uint256","internalType":"uint256"},{"name":"shortSharesOrder","type":"uint256","internalType":"uint256"},{"name":"balanceDown","type":"uint256","internalType":"uint256"},{"name":"balanceUp","type":"uint256","internalType":"uint256"},{"name":"newLongShares","type":"uint256","internalType":"uint256"},{"name":"newShortShares","type":"uint256","internalType":"uint256"},{"name":"newMeanEntryPrice","type":"uint256","internalType":"uint256"},{"name":"newMeanEntrySpread","type":"uint256","internalType":"uint256"},{"name":"newMeanEntryLeverage","type":"uint256","internalType":"uint256"},{"name":"newLiquidationPrice","type":"uint256","internalType":"uint256"}]}],"stateMutability":"view"},{"type":"function","name":"portfolio","inputs":[{"name":"","type":"address","internalType":"address"},{"name":"","type":"bytes32","internalType":"bytes32"}],"outputs":[{"name":"lastUpdated","type":"uint256","internalType":"uint256"},{"name":"longShares","type":"uint256","internalType":"uint256"},{"name":"shortShares","type":"uint256","internalType":"uint256"},{"name":"meanEntryPrice","type":"uint256","internalType":"uint256"},{"name":"meanEntrySpread","type":"uint256","internalType":"uint256"},{"name":"meanEntryLeverage","type":"uint256","internalType":"uint256"},{"name":"liquidationPrice","type":"uint256","internalType":"uint256"},{"name":"positionHash","type":"bytes32","internalType":"bytes32"}],"stateMutability":"view"},{"type":"function","name":"priceLockDeactivatedMarket","inputs":[{"name":"","type":"bytes32","internalType":"bytes32"}],"outputs":[{"name":"lockedPrice","type":"uint256","internalType":"uint256"}],"stateMutability":"view"},{"type":"function","name":"processOrder","inputs":[{"name":"_orderId","type":"bytes32","internalType":"bytes32"},{"name":"_marketPrice","type":"uint256","internalType":"uint256"},{"name":"_marketSpread","type":"uint256","internalType":"uint256"},{"name":"_liquidationTimestamp","type":"uint256","internalType":"uint256"},{"name":"_timeStampInMS","type":"uint256","internalType":"uint256"}],"outputs":[{"name":"","type":"tuple","internalType":"struct MorpherTradeEngine.position","components":[{"name":"lastUpdated","type":"uint256","internalType":"uint256"},{"name":"longShares","type":"uint256","internalType":"uint256"},{"name":"shortShares","type":"uint256","internalType":"uint256"},{"name":"meanEntryPrice","type":"uint256","internalType":"uint256"},{"name":"meanEntrySpread","type":"uint256","internalType":"uint256"},{"name":"meanEntryLeverage","type":"uint256","internalType":"uint256"},{"name":"liquidationPrice","type":"uint256","internalType":"uint256"},{"name":"positionHash","type":"bytes32","internalType":"bytes32"}]}],"stateMutability":"nonpayable"},{"type":"function","name":"requestOrderId","inputs":[{"name":"_address","type":"address","internalType":"address"},{"name":"_marketId","type":"bytes32","internalType":"bytes32"},{"name":"_closeSharesAmount","type":"uint256","internalType":"uint256"},{"name":"_openMPHTokenAmount","type":"uint256","internalType":"uint256"},{"name":"_tradeDirection","type":"bool","internalType":"bool"},{"name":"_orderLeverage","type":"uint256","internalType":"uint256"}],"outputs":[{"name":"_orderId","type":"bytes32","internalType":"bytes32"}],"stateMutability":"nonpayable"},{"type":"function","name":"setDeactivatedMarketPrice","inputs":[{"name":"_marketId","type":"bytes32","internalType":"bytes32"},{"name":"_price","type":"uint256","internalType":"uint256"}],"outputs":[],"stateMutability":"nonpayable"},{"type":"function","name":"setEscrowOpenOrderEnabled","inputs":[{"name":"_isEnabled","type":"bool","internalType":"bool"}],"outputs":[],"stateMutability":"nonpayable"},{"type":"function","name":"setLeverageInterestRate","inputs":[{"name":"_interestRate","type":"uint256","internalType":"uint256"}],"outputs":[],"stateMutability":"nonpayable"},{"type":"function","name":"setMorpherState","inputs":[{"name":"_stateAddress","type":"address","internalType":"address"}],"outputs":[],"stateMutability":"nonpayable"},{"type":"function","name":"setPosition","inputs":[{"name":"_address","type":"address","internalType":"address"},{"name":"_marketId","type":"bytes32","internalType":"bytes32"},{"name":"_timeStamp","type":"uint256","internalType":"uint256"},{"name":"_longShares","type":"uint256","internalType":"uint256"},{"name":"_shortShares","type":"uint256","internalType":"uint256"},{"name":"_meanEntryPrice","type":"uint256","internalType":"uint256"},{"name":"_meanEntrySpread","type":"uint256","internalType":"uint256"},{"name":"_meanEntryLeverage","type":"uint256","internalType":"uint256"},{"name":"_liquidationPrice","type":"uint256","internalType":"uint256"}],"outputs":[],"stateMutability":"nonpayable"},{"type":"function","name":"setPositionWithSignature","inputs":[{"name":"marketId","type":"bytes32","internalType":"bytes32"},{"name":"_position","type":"tuple","internalType":"struct MorpherTradeEngine.position","components":[{"name":"lastUpdated","type":"uint256","internalType":"uint256"},{"name":"longShares","type":"uint256","internalType":"uint256"},{"name":"shortShares","type":"uint256","internalType":"uint256"},{"name":"meanEntryPrice","type":"uint256","internalType":"uint256"},{"name":"meanEntrySpread","type":"uint256","internalType":"uint256"},{"name":"meanEntryLeverage","type":"uint256","internalType":"uint256"},{"name":"liquidationPrice","type":"uint256","internalType":"uint256"},{"name":"positionHash","type":"bytes32","internalType":"bytes32"}]},{"name":"ownerSignature","type":"tuple","internalType":"struct MorpherTradeEngine.EIP712Signature","components":[{"name":"r","type":"bytes32","internalType":"bytes32"},{"name":"s","type":"bytes32","internalType":"bytes32"},{"name":"v","type":"uint8","internalType":"uint8"},{"name":"deadline","type":"uint256","internalType":"uint256"},{"name":"signer","type":"address","internalType":"address"}]},{"name":"positionAdminSignature","type":"tuple","internalType":"struct MorpherTradeEngine.EIP712Signature","components":[{"name":"r","type":"bytes32","internalType":"bytes32"},{"name":"s","type":"bytes32","internalType":"bytes32"},{"name":"v","type":"uint8","internalType":"uint8"},{"name":"deadline","type":"uint256","internalType":"uint256"},{"name":"signer","type":"address","internalType":"address"}]}],"outputs":[],"stateMutability":"nonpayable"},{"type":"function","name":"shortShareValue","inputs":[{"name":"_positionAveragePrice","type":"uint256","internalType":"uint256"},{"name":"_positionAverageLeverage","type":"uint256","internalType":"uint256"},{"name":"_positionTimeStampInMs","type":"uint256","internalType":"uint256"},{"name":"_marketPrice","type":"uint256","internalType":"uint256"},{"name":"_marketSpread","type":"uint256","internalType":"uint256"},{"name":"_orderLeverage","type":"uint256","internalType":"uint256"},{"name":"_sell","type":"bool","internalType":"bool"}],"outputs":[{"name":"_shareValue","type":"uint256","internalType":"uint256"}],"stateMutability":"view"},{"type":"event","name":"EscrowPaid","inputs":[{"name":"orderId","type":"bytes32","indexed":false,"internalType":"bytes32"},{"name":"user","type":"address","indexed":false,"internalType":"address"},{"name":"escrowAmount","type":"uint256","indexed":false,"internalType":"uint256"}],"anonymous":false},{"type":"event","name":"EscrowReturned","inputs":[{"name":"orderId","type":"bytes32","indexed":false,"internalType":"bytes32"},{"name":"user","type":"address","indexed":false,"internalType":"address"},{"name":"escrowAmount","type":"uint256","indexed":false,"internalType":"uint256"}],"anonymous":false},{"type":"event","name":"Initialized","inputs":[{"name":"version","type":"uint8","indexed":false,"internalType":"uint8"}],"anonymous":false},{"type":"event","name":"LeverageInterestRateAdded","inputs":[{"name":"interestRate","type":"uint256","indexed":false,"internalType":"uint256"},{"name":"validFromTimestamp","type":"uint256","indexed":false,"internalType":"uint256"}],"anonymous":false},{"type":"event","name":"LinkState","inputs":[{"name":"_address","type":"address","indexed":false,"internalType":"address"}],"anonymous":false},{"type":"event","name":"LockedPriceForClosingPositions","inputs":[{"name":"_marketId","type":"bytes32","indexed":false,"internalType":"bytes32"},{"name":"_price","type":"uint256","indexed":false,"internalType":"uint256"}],"anonymous":false},{"type":"event","name":"OrderCancelled","inputs":[{"name":"_orderId","type":"bytes32","indexed":true,"internalType":"bytes32"},{"name":"_address","type":"address","indexed":true,"internalType":"address"}],"anonymous":false},{"type":"event","name":"OrderIdRequested","inputs":[{"name":"_orderId","type":"bytes32","indexed":false,"internalType":"bytes32"},{"name":"_address","type":"address","indexed":true,"internalType":"address"},{"name":"_marketId","type":"bytes32","indexed":true,"internalType":"bytes32"},{"name":"_closeSharesAmount","type":"uint256","indexed":false,"internalType":"uint256"},{"name":"_openMPHTokenAmount","type":"uint256","indexed":false,"internalType":"uint256"},{"name":"_tradeDirection","type":"bool","indexed":false,"internalType":"bool"},{"name":"_orderLeverage","type":"uint256","indexed":false,"internalType":"uint256"}],"anonymous":false},{"type":"event","name":"OrderProcessed","inputs":[{"name":"_orderId","type":"bytes32","indexed":false,"internalType":"bytes32"},{"name":"_marketPrice","type":"uint256","indexed":false,"internalType":"uint256"},{"name":"_marketSpread","type":"uint256","indexed":false,"internalType":"uint256"},{"name":"_liquidationTimestamp","type":"uint256","indexed":false,"internalType":"uint256"},{"name":"_timeStamp","type":"uint256","indexed":false,"internalType":"uint256"},{"name":"_newLongShares","type":"uint256","indexed":false,"internalType":"uint256"},{"name":"_newShortShares","type":"uint256","indexed":false,"internalType":"uint256"},{"name":"_newAverageEntry","type":"uint256","indexed":false,"internalType":"uint256"},{"name":"_newAverageSpread","type":"uint256","indexed":false,"internalType":"uint256"},{"name":"_newAverageLeverage","type":"uint256","indexed":false,"internalType":"uint256"},{"name":"_liquidationPrice","type":"uint256","indexed":false,"internalType":"uint256"}],"anonymous":false},{"type":"event","name":"PositionLiquidated","inputs":[{"name":"_address","type":"address","indexed":true,"internalType":"address"},{"name":"_marketId","type":"bytes32","indexed":true,"internalType":"bytes32"},{"name":"_longPosition","type":"bool","indexed":false,"internalType":"bool"},{"name":"_timeStamp","type":"uint256","indexed":false,"internalType":"uint256"},{"name":"_marketPrice","type":"uint256","indexed":false,"internalType":"uint256"},{"name":"_marketSpread","type":"uint256","indexed":false,"internalType":"uint256"}],"anonymous":false},{"type":"event","name":"PositionUpdated","inputs":[{"name":"_userId","type":"address","indexed":false,"internalType":"address"},{"name":"_marketId","type":"bytes32","indexed":false,"internalType":"bytes32"},{"name":"_timeStamp","type":"uint256","indexed":false,"internalType":"uint256"},{"name":"_newLongShares","type":"uint256","indexed":false,"internalType":"uint256"},{"name":"_newShortShares","type":"uint256","indexed":false,"internalType":"uint256"},{"name":"_newMeanEntryPrice","type":"uint256","indexed":false,"internalType":"uint256"},{"name":"_newMeanEntrySpread","type":"uint256","indexed":false,"internalType":"uint256"},{"name":"_newMeanEntryLeverage","type":"uint256","indexed":false,"internalType":"uint256"},{"name":"_newLiquidationPrice","type":"uint256","indexed":false,"internalType":"uint256"},{"name":"_mint","type":"uint256","indexed":false,"internalType":"uint256"},{"name":"_burn","type":"uint256","indexed":false,"internalType":"uint256"}],"anonymous":false},{"type":"event","name":"ResetTimestampInOrder","inputs":[{"name":"_orderId","type":"bytes32","indexed":false,"internalType":"bytes32"},{"name":"oldTimestamp","type":"uint256","indexed":false,"internalType":"uint256"},{"name":"newTimestamp","type":"uint256","indexed":false,"internalType":"uint256"}],"anonymous":false},{"type":"event","name":"SetLeverageInterestRate","inputs":[{"name":"newInterestRate","type":"uint256","indexed":false,"internalType":"uint256"}],"anonymous":false},{"type":"event","name":"SetPosition","inputs":[{"name":"positionHash","type":"bytes32","indexed":true,"internalType":"bytes32"},{"name":"sender","type":"address","indexed":true,"internalType":"address"},{"name":"marketId","type":"bytes32","indexed":true,"internalType":"bytes32"},{"name":"timeStamp","type":"uint256","indexed":false,"internalType":"uint256"},{"name":"longShares","type":"uint256","indexed":false,"internalType":"uint256"},{"name":"shortShares","type":"uint256","indexed":false,"internalType":"uint256"},{"name":"meanEntryPrice","type":"uint256","indexed":false,"internalType":"uint256"},{"name":"meanEntrySpread","type":"uint256","indexed":false,"internalType":"uint256"},{"name":"meanEntryLeverage","type":"uint256","indexed":false,"internalType":"uint256"},{"name":"liquidationPrice","type":"uint256","indexed":false,"internalType":"uint256"}],"anonymous":false}],"bytecode":{"object":"0x608060405234801561001057600080fd5b50615db380620000216000396000f3fe608060405234801561001057600080fd5b506004361061027f5760003560e01c8063712ac56d1161015c578063ac8f6f7f116100ce578063d61aed7a11610087578063d61aed7a1461094b578063e37ff29f1461095e578063ee309c2214610971578063ef92f83114610998578063f40b7b32146109b8578063f45edb5f146109c157600080fd5b8063ac8f6f7f146108b1578063ac9eee28146108c4578063be7e64b6146108d7578063c0993eea146108ea578063caac6c8214610911578063cb581ced1461093857600080fd5b80637f895a61116101205780637f895a611461063d57806380104668146106645780639a4d8ba1146106775780639c3f1e90146106b35780639c92e2b414610871578063a386fb561461089157600080fd5b8063712ac56d146105d55780637a687444146105fc5780637c3a00fd1461060f5780637dffd040146106175780637ecebe001461062a57600080fd5b80633062bde4116101f557806351b840cb116101b957806351b840cb146104ec5780635662ecc7146104ff5780635778472a1461050857806369c66c7b1461059c5780636b4f7065146105af5780637023b783146105c257600080fd5b80633062bde41461048b5780633644e515146104ab5780633754c565146104b35780634702513c146104c6578063480ee207146104d957600080fd5b80631176aeef116102475780631176aeef146103fc578063133840391461040557806316194bac1461041a57806316f77a5b1461043757806316f8de891461044a5780632d7b42c11461045357600080fd5b806307e2cea5146102845780630c196a74146102ac5780630e2e7ed3146102bf5780630fa8f516146102ea5780631035b2f11461035e575b600080fd5b610299600080516020615d3e83398151915281565b6040519081526020015b60405180910390f35b6102996102ba36600461561c565b6109d6565b6033546102d2906001600160a01b031681565b6040516001600160a01b0390911681526020016102a3565b6102fd6102f836600461564a565b610b69565b6040516102a39190600061010082019050825182526020830151602083015260408301516040830152606083015160608301526080830151608083015260a083015160a083015260c083015160c083015260e083015160e083015292915050565b6103c161036c36600461564a565b603a602052816000526040600020602052806000526040600020600091509150508060000154908060010154908060020154908060030154908060040154908060050154908060060154908060070154905088565b604080519889526020890197909752958701949094526060860192909252608085015260a084015260c083015260e0820152610100016102a3565b610299603d5481565b610418610413366004615676565b610bf5565b005b6037546104279060ff1681565b60405190151581526020016102a3565b6102fd610445366004615698565b610f59565b61029960345481565b6102d2610461366004615676565b6000918252603b60209081526040808420928452600290920190529020546001600160a01b031690565b61029961049936600461561c565b603b6020526000908152604090205481565b610299611870565b6102996104c13660046156e1565b61187f565b6102996104d436600461561c565b6119a0565b6102996104e73660046156e1565b611a67565b6104186104fa366004615810565b611af3565b61029960355481565b61055d61051636600461561c565b60009081526039602052604090208054600182015460028301546003840154600685015460078601546008909601546001600160a01b039095169693959294919390929190565b604080516001600160a01b0390981688526020880196909652948601939093526060850191909152608084015260a083015260c082015260e0016102a3565b6102996105aa3660046158c4565b611b3f565b6102996105bd3660046158f4565b611b6b565b6104186105d0366004615676565b611c20565b6102997fc89efdaa54c0f20c7adf612882df0950f5a951637e0307cdcb4c672f298b8bc681565b61029961060a366004615920565b611d7d565b610299611df5565b610299610625366004615988565b611e59565b6102996106383660046159c7565b611f06565b6102997fd36c17f27f2cf7d8c38d2624a2d151cda4ee2b61b2d9222812432b2f91d5912c81565b6104186106723660046159c7565b611f24565b61069e61068536600461561c565b603c602052600090815260409020805460019091015482565b604080519283526020830191909152016102a3565b61079c6106c136600461561c565b60396020908152600091825260409182902080546001820154600283015460038401546004850154600586015460068701546007880154600889015460098a0154600a8b01548d5161014081018f52600b8d01548152600c8d01549d81019d909d52600d8c01549d8d019d909d52600e8b015460608d0152600f8b015460808d015260108b015460a08d015260118b015460c08d015260128b015460e08d015260138b01546101008d01526014909a01546101208c01526001600160a01b039098169a96999598949760ff909416969295919490939290918c565b604080516001600160a01b03909d168d526020808e019c909c528c81019a909a526060808d01999099529615156080808d019190915260a0808d019790975260c0808d019690965260e0808d0195909552610100808d0194909452610120808d01939093526101408c019190915286516101608c0152988601516101808b0152968501516101a08a0152948401516101c0890152958301516101e0880152908201516102008701528101516102208601529283015161024085015282015161026084015201516102808201526102a0016102a3565b61029961087f36600461561c565b60386020526000908152604090205481565b61029961089f36600461561c565b60009081526038602052604090205490565b6102996108bf3660046159eb565b61208f565b6104186108d2366004615a49565b61250e565b6104186108e5366004615920565b612637565b6102997f8b73c3c69bb8fe3d512ecc4cf759cc79239f7b179b0ffacaa9a75d522b39400f81565b6102997f24f2dd2184b86a0b6d9c7400a2b7c44bfe317aa61d7f98ccca7be695d431902481565b61041861094636600461561c565b61277b565b6104186109593660046158c4565b61289e565b61041861096c366004615a66565b612cc2565b6102997fd7753d4b699289191763bde82d59e1de5c3c491e8ee2ca272786ed78707b323a81565b6102996109a636600461561c565b6000908152603b602052604090205490565b61029960365481565b610299600080516020615d5e83398151915281565b60008080805b603d54811015610b49576001603d546109f59190615abd565b811480610a21575042603c6000610a0d846001615ad0565b815260200190815260200160002060000154115b15610a86576000818152603c6020526040902054610a3f9042615abd565b6000828152603c6020526040902060010154610a5b9190615ae3565b610a659084615ad0565b925081600003610a81576000818152603c602052604090205491505b610b49565b84603c6000610a96846001615ad0565b8152602001908152602001600020600001541115610b37576000818152603c6020819052604082205491610acb846001615ad0565b815260200190815260200160002060000154610ae79190615abd565b6000828152603c6020526040902060010154610b039190615ae3565b610b0d9084615ad0565b6000828152603c60205260409020549093508510610b37576000818152603c602052604090205491505b80610b4181615afa565b9150506109dc565b506000610b568242615abd565b610b609084615b13565b95945050505050565b610b716155d4565b506001600160a01b0382166000908152603a60209081526040808320848452825291829020825161010081018452815481526001820154928101929092526002810154928201929092526003820154606082015260048201546080820152600582015460a0820152600682015460c082015260079091015460e08201525b92915050565b60335460408051630140cb6560e51b81529051600080516020615d5e833981519152926001600160a01b0316916328196ca09160048083019260209291908290030181865afa158015610c4c573d6000803e3d6000fd5b505050506040513d601f19601f82011682018060405250810190610c709190615b35565b6001600160a01b03166391d1485482336040516001600160e01b031960e085901b16815260048101929092526001600160a01b03166024820152604401602060405180830381865afa158015610cca573d6000803e3d6000fd5b505050506040513d601f19601f82011682018060405250810190610cee9190615b52565b610d135760405162461bcd60e51b8152600401610d0a90615b6f565b60405180910390fd5b603d541580610d45575081603c60006001603d54610d319190615abd565b815260200190815260200160002060000154105b610dd15760405162461bcd60e51b815260206004820152605160248201527f4d6f72706865725472616465456e67696e653a20496e7465726573742052617460448201527f652056616c69642046726f6d206d757374206265206c61746572207468616e206064820152706c61737420696e7465726573745261746560781b608482015260a401610d0a565b6305f5e100831115610e4b5760405162461bcd60e51b815260206004820152603c60248201527f4d6f72706865725472616465456e67696e653a20496e7465726573742052617460448201527f652063616e6e6f74206265206c6172676572207468616e2031303025000000006064820152608401610d0a565b42610e5a6301e1338084615abd565b1115610ee65760405162461bcd60e51b815260206004820152604f60248201527f4d6f72706865725472616465456e67696e653a20496e7465726573742052617460448201527f652063616e6e6f74207374617274206d6f7265207468616e203120796561722060648201526e696e746f207468652066757475726560881b608482015260a401610d0a565b603d80546000908152603c602052604080822085905582548252812060010185905581549190610f1583615afa565b909155505060408051848152602081018490527f93b9f7720ecbc1a525daad04dea2344903315e98916d6ca70319deddb02eb70b91015b60405180910390a1505050565b610f616155d4565b60335460408051630140cb6560e51b81529051600080516020615d3e833981519152926001600160a01b0316916328196ca09160048083019260209291908290030181865afa158015610fb8573d6000803e3d6000fd5b505050506040513d601f19601f82011682018060405250810190610fdc9190615b35565b6001600160a01b03166391d1485482336040516001600160e01b031960e085901b16815260048101929092526001600160a01b03166024820152604401602060405180830381865afa158015611036573d6000803e3d6000fd5b505050506040513d601f19601f8201168201806040525081019061105a9190615b52565b6110765760405162461bcd60e51b8152600401610d0a90615b6f565b6000878152603960205260409020546001600160a01b03166111005760405162461bcd60e51b815260206004820152603e60248201527f4d6f72706865725472616465456e67696e653a20756e61626c6520746f20707260448201527f6f636573732c206f7264657220686173206265656e2064656c657465642e00006064820152608401610d0a565b600086116111885760405162461bcd60e51b815260206004820152604960248201527f4d6f72706865725472616465456e67696e653a206d61726b657420707269636560448201527f64206174207a65726f2e20427579206f726465722063616e6e6f7420626520706064820152683937b1b2b9b9b2b21760b91b608482015260a401610d0a565b8486101561121c5760405162461bcd60e51b815260206004820152605560248201527f4d6f72706865725472616465456e67696e653a206d61726b657420707269636560448201527f206c6f776572207468656e206d61726b6574207370726561642e204f726465726064820152741031b0b73737ba10313290383937b1b2b9b9b2b21760591b608482015260a401610d0a565b60008781526039602052604090819020600681018890556007810187905560098101859055600581018690556033546001909101549151634a4cce9760e01b815260048101929092526001600160a01b031690634a4cce9790602401602060405180830381865afa158015611295573d6000803e3d6000fd5b505050506040513d601f19601f820116820180604052508101906112b99190615b52565b15156000036112f7576112cb87612e0e565b6000878152603960208181526040808420600181015485526038835290842054938b9052919052600601555b600087815260396020908152604080832080546001600160a01b03168452603a8352818420600190910154845290915290205484111561133f5761133a87612e4f565b611496565b603360009054906101000a90046001600160a01b03166001600160a01b03166350a71bac6040518163ffffffff1660e01b8152600401602060405180830381865afa158015611392573d6000803e3d6000fd5b505050506040513d601f19601f820116820180604052508101906113b69190615b35565b60008881526039602052604090819020549051635612cd6760e11b81526001600160a01b03918216600482015291169063ac259ace90602401602060405180830381865afa15801561140c573d6000803e3d6000fd5b505050506040513d601f19601f820116820180604052508101906114309190615b52565b156114965760405162461bcd60e51b815260206004820152603060248201527f4d6f72706865725472616465456e67696e653a205573657220697320626c6f6360448201526f6b65642066726f6d2054726164696e6760801b6064820152608401610d0a565b61149f8761306f565b60008781526039602052604090206004015460ff16156114c7576114c2876131d2565b6114d0565b6114d0876133ae565b60006039600089815260200190815260200160002060000160009054906101000a90046001600160a01b031690506000603960008a8152602001908152602001600020600101549050603960008a8152602001908152602001600020600080820160006101000a8154906001600160a01b0302191690556001820160009055600282016000905560038201600090556004820160006101000a81549060ff021916905560058201600090556006820160009055600782016000905560088201600090556009820160009055600a820160009055600b8201600080820160009055600182016000905560028201600090556003820160009055600482016000905560058201600090556006820160009055600782016000905560088201600090556009820160009055505050507f696a3d28d7b4bcfc9cbfef719a03218d7a502cda20d01f9ef8086249e81654928989898989603a6000896001600160a01b03166001600160a01b03168152602001908152602001600020600088815260200190815260200160002060010154603a60008a6001600160a01b03166001600160a01b03168152602001908152602001600020600089815260200190815260200160002060020154603a60008b6001600160a01b03166001600160a01b0316815260200190815260200160002060008a815260200190815260200160002060030154603a60008c6001600160a01b03166001600160a01b0316815260200190815260200160002060008b815260200190815260200160002060040154603a60008d6001600160a01b03166001600160a01b0316815260200190815260200160002060008c815260200190815260200160002060050154603a60008e6001600160a01b03166001600160a01b0316815260200190815260200160002060008d8152602001908152602001600020600601546040516117de9b9a999897969594939291909a8b5260208b019990995260408a01979097526060890195909552608088019390935260a087019190915260c086015260e08501526101008401526101208301526101408201526101600190565b60405180910390a16001600160a01b039091166000908152603a6020908152604080832093835292815290829020825161010081018452815481526001820154928101929092526002810154928201929092526003820154606082015260048201546080820152600582015460a0820152600682015460c082015260079091015460e082015291505095945050505050565b600061187a61358f565b905090565b600087876305f5e10081101561189657506305f5e1005b8315156000036118a65750859050835b866118b4838360008c611e59565b116118c25760009250611993565b6305f5e1006118d18282615ad0565b6118db9084615ae3565b6118e59190615b13565b92506305f5e1006118f68289615ae3565b6119009190615b13565b61190a9084615abd565b925083151560010361196d576305f5e1006119258288615ae3565b61192f9190615b13565b6119399084615abd565b9250600061194883838b611b6b565b90508381116119625761195b8185615abd565b9350611967565b600093505b50611993565b6305f5e10061197c8688615ae3565b6119869190615b13565b6119909084615ad0565b92505b5050979650505050505050565b600081815260396020526040812060148101829055600f0154156119fc576000828152603960205260409020601181015460138201546009909201546119e99290600190611e59565b6000838152603960205260409020601401555b60008281526039602052604090206010015415611a5157600082815260396020526040812060118101546013820154600990920154611a3e9391929190611e59565b6000838152603960205260409020601401555b5060009081526039602052604090206014015490565b600087876305f5e100811015611a7e57506305f5e1005b831515600003611a8e5750859050835b611a9b828260018b611e59565b8711611aaa5760009250611993565b6305f5e100611ab98183615abd565b611ac39084615ae3565b611acd9190615b13565b9250826305f5e100611adf838a615ae3565b611ae99190615b13565b61190a9190615abd565b611afd8382613632565b611b08848484613981565b611b39826080015185856000015186602001518760400151886060015189608001518a60a001518b60c00151613b6b565b50505050565b6000828152603b602090815260408083206001600160a01b038516845260010190915290205492915050565b6000806036546103e884611b7f9190615b13565b1015611b98576103e8603654611b959190615b13565b92505b611ba66305f5e10085615abd565b611bb09086615ae3565b905062015180611bc26103e885615b13565b611bcc9042615abd565b611bd69190615b13565b611be1906001615ad0565b611beb9082615ae3565b90506305f5e10080611c026102ba6103e887615b13565b611c0c9084615ae3565b611c169190615b13565b610b609190615b13565b60335460408051630140cb6560e51b81529051600080516020615d5e833981519152926001600160a01b0316916328196ca09160048083019260209291908290030181865afa158015611c77573d6000803e3d6000fd5b505050506040513d601f19601f82011682018060405250810190611c9b9190615b35565b6001600160a01b03166391d1485482336040516001600160e01b031960e085901b16815260048101929092526001600160a01b03166024820152604401602060405180830381865afa158015611cf5573d6000803e3d6000fd5b505050506040513d601f19601f82011682018060405250810190611d199190615b52565b611d355760405162461bcd60e51b8152600401610d0a90615b6f565b60008381526038602090815260409182902084905581518581529081018490527f3cf30f15febef0d3f8e86318070db2c80d03fd14e8406d326aab41cb043f18399101610f4c565b6040805160609a909a1b6bffffffffffffffffffffffff19166020808c019190915260348b019990995260548a01979097526074890195909552609488019390935260b487019190915260d486015260f485015261011480850191909152815180850390910181526101349093019052815191012090565b6000603d54600003611e075750600090565b60006001603d54611e189190615abd565b90505b6000818152603c60205260409020544210611e47576000908152603c6020526040902060010154919050565b80611e5181615bb5565b915050611e1b565b6000806000611e69878786611b6b565b9050600086611e7c6305f5e10084615ae3565b611e869190615b13565b9050851515600103611ec85786611ea16305f5e10082615abd565b611eab908a615ae3565b611eb59190615b13565b9250611ec18184615ad0565b9250611efa565b86611ed76305f5e10082615ad0565b611ee1908a615ae3565b611eeb9190615b13565b9250611ef78184615abd565b92505b50909695505050505050565b6001600160a01b0381166000908152603e6020526040812054610bef565b60335460408051630140cb6560e51b81529051600080516020615d5e833981519152926001600160a01b0316916328196ca09160048083019260209291908290030181865afa158015611f7b573d6000803e3d6000fd5b505050506040513d601f19601f82011682018060405250810190611f9f9190615b35565b6001600160a01b03166391d1485482336040516001600160e01b031960e085901b16815260048101929092526001600160a01b03166024820152604401602060405180830381865afa158015611ff9573d6000803e3d6000fd5b505050506040513d601f19601f8201168201806040525081019061201d9190615b52565b6120395760405162461bcd60e51b8152600401610d0a90615b6f565b603380546001600160a01b0319166001600160a01b0384169081179091556040519081527f978c711532bae8c58f353b0f3c7f3a0dfe600d9ae9a81818f2ad2919b88e1990906020015b60405180910390a15050565b6000600080516020615d3e833981519152603360009054906101000a90046001600160a01b03166001600160a01b03166328196ca06040518163ffffffff1660e01b8152600401602060405180830381865afa1580156120f3573d6000803e3d6000fd5b505050506040513d601f19601f820116820180604052508101906121179190615b35565b6001600160a01b03166391d1485482336040516001600160e01b031960e085901b16815260048101929092526001600160a01b03166024820152604401602060405180830381865afa158015612171573d6000803e3d6000fd5b505050506040513d601f19601f820116820180604052508101906121959190615b52565b6121b15760405162461bcd60e51b8152600401610d0a90615b6f565b6305f5e1008310156122355760405162461bcd60e51b815260206004820152604160248201527f4d6f72706865725472616465456e67696e653a206c6576657261676520746f6f60448201527f20736d616c6c2e204c6576657261676520707265636973696f6e2069732031656064820152600760fb1b608482015260a401610d0a565b603360009054906101000a90046001600160a01b03166001600160a01b0316637c995e916040518163ffffffff1660e01b8152600401602060405180830381865afa158015612288573d6000803e3d6000fd5b505050506040513d601f19601f820116820180604052508101906122ac9190615bcc565b8311156123215760405162461bcd60e51b815260206004820152603e60248201527f4d6f72706865725472616465456e67696e653a206c657665726167652065786360448201527f65656473206d6178696d756d20616c6c6f776564206c657665726167652e00006064820152608401610d0a565b61232e8888888888613caf565b84156123c9578315612384576001600160a01b0388166000908152603a602090815260408083208a8452909152902060020154861461237f5760405162461bcd60e51b8152600401610d0a90615be5565b6123c9565b6001600160a01b0388166000908152603a602090815260408083208a845290915290206001015486146123c95760405162461bcd60e51b8152600401610d0a90615be5565b603480549060006123d983615afa565b9091555050603480546040516bffffffffffffffffffffffff1960608c901b166020820152439281019290925260548201899052607482018890526094820187905285151560f81b60b483015260b5820185905260d582015260f50160408051808303601f190181528282528051602091820120603581905560008181526039835283902080546001600160a01b0319166001600160a01b038e169081178255600182018d9055600282018c9055600382018b905560048201805460ff19168b151590811790915560089092018990558286529285018b905292840189905260608401929092526080830186905290935088917fd5dec9e768ba83c154ee9ecf7a0c145c8e7ee75e1cc4af2d271a1f9c93bb39469060a00160405180910390a36125038286613f64565b509695505050505050565b60335460408051630140cb6560e51b81529051600080516020615d5e833981519152926001600160a01b0316916328196ca09160048083019260209291908290030181865afa158015612565573d6000803e3d6000fd5b505050506040513d601f19601f820116820180604052508101906125899190615b35565b6001600160a01b03166391d1485482336040516001600160e01b031960e085901b16815260048101929092526001600160a01b03166024820152604401602060405180830381865afa1580156125e3573d6000803e3d6000fd5b505050506040513d601f19601f820116820180604052508101906126079190615b52565b6126235760405162461bcd60e51b8152600401610d0a90615b6f565b506037805460ff1916911515919091179055565b60335460408051630140cb6560e51b815290517fd7753d4b699289191763bde82d59e1de5c3c491e8ee2ca272786ed78707b323a926001600160a01b0316916328196ca09160048083019260209291908290030181865afa1580156126a0573d6000803e3d6000fd5b505050506040513d601f19601f820116820180604052508101906126c49190615b35565b6001600160a01b03166391d1485482336040516001600160e01b031960e085901b16815260048101929092526001600160a01b03166024820152604401602060405180830381865afa15801561271e573d6000803e3d6000fd5b505050506040513d601f19601f820116820180604052508101906127429190615b52565b61275e5760405162461bcd60e51b8152600401610d0a90615b6f565b61276f8a8a8a8a8a8a8a8a8a613b6b565b50505050505050505050565b60335460408051630140cb6560e51b81529051600080516020615d5e833981519152926001600160a01b0316916328196ca09160048083019260209291908290030181865afa1580156127d2573d6000803e3d6000fd5b505050506040513d601f19601f820116820180604052508101906127f69190615b35565b6001600160a01b03166391d1485482336040516001600160e01b031960e085901b16815260048101929092526001600160a01b03166024820152604401602060405180830381865afa158015612850573d6000803e3d6000fd5b505050506040513d601f19601f820116820180604052508101906128749190615b52565b6128905760405162461bcd60e51b8152600401610d0a90615b6f565b61289a8242610bf5565b5050565b60335460408051630140cb6560e51b81529051600080516020615d3e833981519152926001600160a01b0316916328196ca09160048083019260209291908290030181865afa1580156128f5573d6000803e3d6000fd5b505050506040513d601f19601f820116820180604052508101906129199190615b35565b6001600160a01b03166391d1485482336040516001600160e01b031960e085901b16815260048101929092526001600160a01b03166024820152604401602060405180830381865afa158015612973573d6000803e3d6000fd5b505050506040513d601f19601f820116820180604052508101906129979190615b52565b6129b35760405162461bcd60e51b8152600401610d0a90615b6f565b6000838152603960205260409020546001600160a01b0383811691161480612acd5750603360009054906101000a90046001600160a01b03166001600160a01b03166328196ca06040518163ffffffff1660e01b8152600401602060405180830381865afa158015612a29573d6000803e3d6000fd5b505050506040513d601f19601f82011682018060405250810190612a4d9190615b35565b604051632474521560e21b8152600080516020615d5e83398151915260048201526001600160a01b03848116602483015291909116906391d1485490604401602060405180830381865afa158015612aa9573d6000803e3d6000fd5b505050506040513d601f19601f82011682018060405250810190612acd9190615b52565b612b4b5760405162461bcd60e51b815260206004820152604360248201527f4d6f72706865725472616465456e67696e653a206f6e6c792041646d696e697360448201527f747261746f72206f7220757365722063616e2063616e63656c20616e206f726460648201526232b91760e91b608482015260a401610d0a565b6000838152603960205260409020546001600160a01b0316612bd55760405162461bcd60e51b815260206004820152603c60248201527f4d6f72706865725472616465456e67696e653a20756e61626c6520746f20707260448201527f6f636573732c206f7264657220646f6573206e6f742065786973742e000000006064820152608401610d0a565b612bde8361306f565b60008381526039602052604080822080546001600160a01b031916815560018101839055600281018390556003810183905560048101805460ff191690556005810183905560068101839055600781018390556008810183905560098101839055600a8101839055600b8101839055600c8101839055600d8101839055600e8101839055600f810183905560108101839055601181018390556012810183905560138101839055601401829055516001600160a01b0384169185917fa6eb7cdc219e1518ced964e9a34e61d68a94e4f1569db3e84256ba981ba527539190a3505050565b600054610100900460ff1615808015612ce25750600054600160ff909116105b80612cfc5750303b158015612cfc575060005460ff166001145b612d5f5760405162461bcd60e51b815260206004820152602e60248201527f496e697469616c697a61626c653a20636f6e747261637420697320616c72656160448201526d191e481a5b9a5d1a585b1a5e995960921b6064820152608401610d0a565b6000805460ff191660011790558015612d82576000805461ff0019166101001790555b612d8a6140d6565b603380546001600160a01b0319166001600160a01b0386161790556037805460ff191684151517905581612dbe5742612dc0565b815b6036558015611b39576000805461ff0019169055604051600181527f7f26b83ff96e1f2b6a682f133852f6798a09c465da95921460cefb38474024989060200160405180910390a150505050565b60008181526039602052604090208054600182015460028301546003840154600490940154612e4c946001600160a01b03909416939060ff16613caf565b50565b6000818152603960209081526040808320805460018201546005909201546001600160a01b03909116808652603a85528386208387529094529190932054919291811115611b39576001600160a01b0383166000908152603a6020908152604080832085845290915290206001015415612f85576000848152603960209081526040808320600901546001600160a01b0387168452603a8352818420868552909252822060020154612f0f928692869290919081806305f5e10081613b6b565b600084815260396020908152604091829020600981015460068201546007909201548451600181529384019190915292820152606081019190915282906001600160a01b038516907fe41babb55b71bb17aa9629797bcd2f80ff29c7c3fe5f8d20b8bf3b08d4e4f9459060800160405180910390a35b6001600160a01b0383166000908152603a6020908152604080832085845290915290206002015415611b39576000848152603960209081526040808320600901546001600160a01b0387168452603a8352818420868552909252822060010154612ffc9286928692909180806305f5e10081613b6b565b60008481526039602090815260408083206009810154600682015460079092015483519586529385015290830152606082015282906001600160a01b038516907fe41babb55b71bb17aa9629797bcd2f80ff29c7c3fe5f8d20b8bf3b08d4e4f9459060800160405180910390a350505050565b6000818152603960205260409020600a015415612e4c576000818152603960209081526040808320600a0180549390556033548151632192ab5d60e11b815291516001600160a01b039091169263432556ba92600480820193918290030181865afa1580156130e2573d6000803e3d6000fd5b505050506040513d601f19601f820116820180604052508101906131069190615b35565b600083815260396020526040908190205490516340c10f1960e01b81526001600160a01b039182166004820152602481018490529116906340c10f1990604401600060405180830381600087803b15801561316057600080fd5b505af1158015613174573d6000803e3d6000fd5b5050506000838152603960209081526040918290205482518681526001600160a01b03909116918101919091529081018390527fbd3ba1f648c8894f4fca2dbf0a22719b08647d73e153e568d413c6dd6e6cb8619150606001612083565b6000818152603960205260409020600201541561328e57600081815260396020818152604080842080546001600160a01b03168552603a8352818520600182015486528352908420600290810154948690529290915201541161324d5760008181526039602052604090206002810154600c9091015561328e565b600081815260396020818152604080842080546001600160a01b03168552603a83528185206001820154865283529084206002015493859052919052600c01555b600081815260396020818152604080842080546001600160a01b03168552603a83528185206001820154865283529084206002015493859052919052600c01541480156132eb575060008181526039602052604090206003015415155b1561336e576000818152603960205260409020600681015460089091015461333f919061331a426103e8615ae3565b6000858152603960205260408120600681015460078201546008909201549092611a67565b60008281526039602052604090206003015461335b9190615b13565b6000828152603960205260409020600b01555b6000818152603960205260409020600c01541561338e5761338e81614143565b6000818152603960205260409020600b015415612e4c57612e4c816142bf565b6000818152603960205260409020600201541561346d57600081815260396020818152604080842080546001600160a01b03168552603a835281852060018083015487529084529185209091015493859052919052600201541161342a5760008181526039602052604090206002810154600b9091015561346d565b600081815260396020818152604080842080546001600160a01b03168552603a835281852060018083015487529084529185209091015493859052919052600b01555b600081815260396020818152604080842080546001600160a01b03168552603a835281852060018083015487529084529185209091015493859052919052600b01541480156134cc575060008181526039602052604090206003015415155b1561354f576000818152603960205260409020600681015460089091015461352091906134fb426103e8615ae3565b600085815260396020526040812060068101546007820154600890920154909261187f565b60008281526039602052604090206003015461353c9190615b13565b6000828152603960205260409020600c01555b6000818152603960205260409020600b01541561356f5761356f81614642565b6000818152603960205260409020600c015415612e4c57612e4c816147a7565b604080517f8b73c3c69bb8fe3d512ecc4cf759cc79239f7b179b0ffacaa9a75d522b39400f6020808301919091527f24f2dd2184b86a0b6d9c7400a2b7c44bfe317aa61d7f98ccca7be695d4319024828401527fc89efdaa54c0f20c7adf612882df0950f5a951637e0307cdcb4c672f298b8bc660608301524660808301523060a0808401919091528351808403909101815260c0909201909252805191012090565b80606001514211156136565760405162461bcd60e51b8152600401610d0a90615c68565b600061374a7fd36c17f27f2cf7d8c38d2624a2d151cda4ee2b61b2d9222812432b2f91d5912c846000015185602001518660400151876060015188608001518960a001518a60c001518a608001516136cf8c608001516001600160a01b03166000908152603e6020526040902080546001810190915590565b6060808e015160408051602081019d909d528c019a909a528a0197909752608089019590955260a088019390935260c087019190915260e08601526101008501526001600160a01b03166101208401526101408301526101608201526101800160405160208183030381529060405280519060200120614b22565b9050600061376682846040015185600001518660200151614b4f565b905082608001516001600160a01b0316816001600160a01b0316146137f35760405162461bcd60e51b815260206004820152603760248201527f4d6f72706865725472616465456e67696e653a20696e76616c6964207369676e60448201527f617475726520666f7220506f736974696f6e41646d696e0000000000000000006064820152608401610d0a565b603360009054906101000a90046001600160a01b03166001600160a01b03166328196ca06040518163ffffffff1660e01b8152600401602060405180830381865afa158015613846573d6000803e3d6000fd5b505050506040513d601f19601f8201168201806040525081019061386a9190615b35565b604051632474521560e21b81527fd7753d4b699289191763bde82d59e1de5c3c491e8ee2ca272786ed78707b323a60048201526001600160a01b03838116602483015291909116906391d1485490604401602060405180830381865afa1580156138d8573d6000803e3d6000fd5b505050506040513d601f19601f820116820180604052508101906138fc9190615b52565b611b395760405162461bcd60e51b815260206004820152604a60248201527f4d6f72706865725472616465456e67696e653a205065726d697373696f6e206460448201527f656e6965642c206e6f74206120706f736974696f6e2061646d696e20726f6c656064820152691030ba3a30b1b432b21760b11b608482015260a401610d0a565b80606001514211156139a55760405162461bcd60e51b8152600401610d0a90615c68565b6000613a1e7fd36c17f27f2cf7d8c38d2624a2d151cda4ee2b61b2d9222812432b2f91d5912c846000015185602001518660400151876060015188608001518960a001518a60c001518a608001516136cf8c608001516001600160a01b03166000908152603e6020526040902080546001810190915590565b90506000613a3a82846040015185600001518660200151614b4f565b905082608001516001600160a01b0316816001600160a01b031614613ab95760405162461bcd60e51b815260206004820152602f60248201527f4d6f72706865725472616465456e67696e653a20696e76616c6964207369676e60448201526e30ba3ab932903337b91027bbb732b960891b6064820152608401610d0a565b6000613ae882878760000151886020015189604001518a606001518b608001518c60a001518d60c00151611d7d565b90508460e001518114613b635760405162461bcd60e51b815260206004820152603960248201527f4d6f72706865725472616465456e67696e653a20506f736974696f6e2048617360448201527f68206e6f74206d61746368696e672c2061626f7274696e672e000000000000006064820152608401610d0a565b505050505050565b6001600160a01b0389166000908152603a602090815260408083208b845290915290208781556001810187905560028101869055600381018590556004810184905560058101839055600601819055613bcb898989898989898989611d7d565b6001600160a01b038a166000908152603a602090815260408083208c845290915290206007015585151580613c005750600085115b15613c1457613c0f888a614b77565b613c1e565b613c1e888a614bca565b6001600160a01b0389166000818152603a602090815260408083208c84528252918290206007015482518b81529182018a9052918101889052606081018790526080810186905260a0810185905260c081018490528a9291907f35ea872e77adbec19df83a66765d5bdc0adfe73d9ada9518cb384242ddb40d5d9060e00160405180910390a4505050505050505050565b8115613daf57603354604051634a4cce9760e01b8152600481018690526001600160a01b0390911690634a4cce9790602401602060405180830381865afa158015613cfe573d6000803e3d6000fd5b505050506040513d601f19601f82011682018060405250810190613d229190615b52565b1515600114613daa5760405162461bcd60e51b815260206004820152604860248201527f4d6f72706865725472616465456e67696e653a206d61726b657420756e6b6e6f60448201527f776e206f722063757272656e746c79206e6f7420656e61626c656420666f72206064820152673a3930b234b7339760c11b608482015260a401610d0a565b613f5d565b603354604051634a4cce9760e01b8152600481018690526001600160a01b0390911690634a4cce9790602401602060405180830381865afa158015613df8573d6000803e3d6000fd5b505050506040513d601f19601f82011682018060405250810190613e1c9190615b52565b1515600003613f5d5760008481526038602052604081205411613ecd5760405162461bcd60e51b815260206004820152605a60248201527f4d6f72706865725472616465456e67696e653a2043616e277420636c6f73652060448201527f6120706f736974696f6e2c206d61726b6574206e6f742061637469766520616e60648201527f6420636c6f73696e67207072696365206e6f74206c6f636b6564000000000000608482015260a401610d0a565b8015613f18576001600160a01b0385166000908152603a602090815260408083208784529091529020600101548314613daa5760405162461bcd60e51b8152600401610d0a90615cb7565b6001600160a01b0385166000908152603a602090815260408083208784529091529020600101548314613f5d5760405162461bcd60e51b8152600401610d0a90615cb7565b5050505050565b60375460ff168015613f765750600081115b1561289a57603360009054906101000a90046001600160a01b03166001600160a01b031663432556ba6040518163ffffffff1660e01b8152600401602060405180830381865afa158015613fce573d6000803e3d6000fd5b505050506040513d601f19601f82011682018060405250810190613ff29190615b35565b60008381526039602052604090819020549051632770a7eb60e21b81526001600160a01b03918216600482015260248101849052911690639dc29fac90604401600060405180830381600087803b15801561404c57600080fd5b505af1158015614060573d6000803e3d6000fd5b5050506000838152603960209081526040918290205482518681526001600160a01b03909116918101919091529081018390527f558e795083bf3802836b1f3eef9c404a698512ee98b4193781cede9b89fc64d0915060600160405180910390a1600091825260396020526040909120600a0155565b600054610100900460ff166141415760405162461bcd60e51b815260206004820152602b60248201527f496e697469616c697a61626c653a20636f6e7472616374206973206e6f74206960448201526a6e697469616c697a696e6760a81b6064820152608401610d0a565b565b600081815260396020908152604080832080546001820154600c909201546001600160a01b03909116808652603a8552838620838752909452918420600201549293909290918291829182916141999190615abd565b905060006141a688614c68565b6001600160a01b0388166000908152603a602090815260408083208a84528252808320600201548c84526039909252909120600c015491925090036141f95760009450600093506305f5e100925061423d565b6001600160a01b0387166000908152603a60209081526040808320898452909152902060038101546004820154600590920154909650909450925061423d88614d69565b6000888152603960208181526040808420600d8101859055600e810186905580546001600160a01b03168552603a8352818520600180830154875290845291852090910154938c9052919052600f8101919091556010810183905560118101869055601281018590556013018390556142b588614e05565b5050505050505050565b600081815260396020908152604080832080546001909101546001600160a01b03909116808552603a8452828520828652909352908320600501549192909181906305f5e10081101561431357506305f5e1005b6143216305f5e10082615abd565b6000878152603960209081526040808320600601546001600160a01b038a168452603a835281842089855290925290912060030154919250906143649083615ae3565b61436e9190615b13565b6001600160a01b0386166000908152603a602090815260408083208884529091529020600501549091508110156143d8576001600160a01b0385166000908152603a602090815260408083208784529091529020600501546143d1908290615abd565b90506143dc565b5060005b6001600160a01b0385166000908152603a602090815260408083208784529091528120600101546305f5e100906144139084615ae3565b61441d9190615b13565b6001600160a01b0387166000908152603a60209081526040808320898452909152902060050154909150614452908290615ae3565b6000888152603960205260409020600b81015460089091015491945061447791615ae3565b6144819084615ad0565b6000888152603960205260409020600b01549093506144a09082615ad0565b6144aa9084615b13565b6001600160a01b0387166000908152603a60209081526040808320898452909152902060018101546004909101549194506144e491615ae3565b6000888152603960205260409020600b81015460079091015491955061450991615ae3565b6145139085615ad0565b6000888152603960205260409020600b01549094506145329082615ad0565b61453c9085615b13565b600088815260396020526040902060088101546007820154600b909201549296506305f5e10092909161456e91615ae3565b6145789190615ae3565b6145829190615b13565b60008881526039602052604090206006810154600b909101546145a59190615ae3565b6145af9190615ad0565b6000888152603960205260408120600d810192909255600e820155600b01546145d89082615ad0565b6000888152603960208181526040808420600f8101959095556001600160a01b038b168452603a82528084208a85528252832060020154928b9052526010820155600681015460118201556012810185905560130183905561463987614e05565b50505050505050565b60008181526039602090815260408083208054600180830154600b909301546001600160a01b03909216808752603a86528487208488529095529285209092015492939092909161469291615abd565b9050600061469f85614c68565b6001600160a01b0385166000908152603a6020908152604080832087845282528083206001015489845260399092528220600b0154929350909182918291036146f45750600091508190506305f5e100614736565b5050506001600160a01b0384166000908152603a6020908152604080832086845290915290206003810154600482015460059092015490919061473688614d69565b6000888152603960208181526040808420600d8101859055600e8101899055600f81018a90556001600160a01b038c168552603a83528185208b8652835290842060020154938c9052919052601081019190915560118101849055601281018390556013018190556142b588614e05565b600081815260396020908152604080832080546001909101546001600160a01b03909116808552603a8452828520828652909352908320600501549192909181906305f5e1008110156147fb57506305f5e1005b6148096305f5e10082615ad0565b6000878152603960209081526040808320600601546001600160a01b038a168452603a8352818420898552909252909120600301549192509061484c9083615ae3565b6148569190615b13565b6001600160a01b0386166000908152603a602090815260408083208884529091529020600501549091508111156148bf576001600160a01b0385166000908152603a602090815260408083208784529091529020600501546148b89082615abd565b90506148c3565b5060005b6001600160a01b0385166000908152603a602090815260408083208784529091528120600201546305f5e100906148fa9084615ae3565b6149049190615b13565b6001600160a01b0387166000908152603a60209081526040808320898452909152902060050154909150614939908290615ae3565b6000888152603960205260409020600c81015460089091015491945061495e91615ae3565b6149689084615ad0565b6000888152603960205260409020600c01549093506149879082615ad0565b6149919084615b13565b6001600160a01b0387166000908152603a60209081526040808320898452909152902060028101546004909101549194506149cb91615ae3565b6000888152603960205260409020600c8101546007909101549195506149f091615ae3565b6149fa9085615ad0565b6000888152603960205260409020600c0154909450614a199082615ad0565b614a239085615b13565b600088815260396020526040902060088101546007820154600c909201549296506305f5e100929091614a5591615ae3565b614a5f9190615ae3565b614a699190615b13565b60008881526039602052604090206006810154600c90910154614a8c9190615ae3565b614a969190615ad0565b6000888152603960208181526040808420600d810195909555600e85018490556001600160a01b038b168452603a82528084208a85528252832060010154928b905252600f820155600c0154614aec9082615ad0565b60008881526039602052604090206010810191909155600681015460118201556012810185905560130183905561463987614e05565b6000610bef614b2f61358f565b8360405161190160f01b8152600281019290925260228201526042902090565b6000806000614b608787878761534d565b91509150614b6d81615411565b5095945050505050565b6000614b838383611b3f565b905080600003614bc5576000838152603b6020526040812054614ba7906001615ad0565b6000858152603b602052604090208190559050611b3984848361555b565b505050565b6000614bd68383611b3f565b6000848152603b602090815260408083208054808552600290910190925290912054919250906001600160a01b03168215613f5d5781831015614c2957614c1e85828561556d565b614c298582856155aa565b614c358560008461556d565b614c41858560006155aa565b8115613f5d57613f5d85614c56600185615abd565b6000918252603b602052604090912055565b6000818152603960205260408120805460018201546004909201546001600160a01b039091169190839060ff1615158103614d00576000858152603960209081526040808320600b8101546001600160a01b0388168552603a845282852087865290935292206003810154600582015491546006850154600790950154939850614cf9949193909190836001611a67565b9050614d5f565b6000858152603960209081526040808320600c8101546001600160a01b0388168552603a845282852087865290935292206003810154600582015491546006850154600790950154939850614d5c94919390919083600161187f565b90505b610b608185615ae3565b6000818152603960208181526040808420805460018201546001600160a01b03909116808752603a8552838720828852855283872054968890529484526009909101548251878152938401529082018490529192907f8c75318cfd6a0eae2329289b6827fd382e7324865986be09126ce67fc55bedc29060600160405180910390a1600093845260396020526040909320600901929092555050565b600081815260396020908152604091829020600d810154600e909101546033548451632192ab5d60e11b81529451929491936001600160a01b039091169263432556ba9260048082019392918290030181865afa158015614e6a573d6000803e3d6000fd5b505050506040513d601f19601f82011682018060405250810190614e8e9190615b35565b600084815260396020526040908190205490516370a0823160e01b81526001600160a01b0391821660048201529116906370a0823190602401602060405180830381865afa158015614ee4573d6000803e3d6000fd5b505050506040513d601f19601f82011682018060405250810190614f089190615bcc565b614f129190615ad0565b1015614f705760405162461bcd60e51b815260206004820152602760248201527f4d6f72706865725472616465456e67696e653a20696e73756666696369656e7460448201526610333ab732399760c91b6064820152608401610d0a565b614f79816119a0565b506000818152603960205260409020600d810154600e909101541115614fde576000818152603960205260408120600d810154600e909101805491929091614fc2908490615abd565b90915550506000818152603960205260408120600d015561501f565b6000818152603960205260408120600e810154600d909101805491929091615007908490615abd565b90915550506000818152603960205260408120600e01555b6000818152603960205260409020600e01541561512a57603360009054906101000a90046001600160a01b03166001600160a01b031663af6976c36040518163ffffffff1660e01b8152600401602060405180830381865afa158015615089573d6000803e3d6000fd5b505050506040513d601f19601f820116820180604052508101906150ad9190615b35565b600082815260396020526040908190208054600e9091015491516340c10f1960e01b81526001600160a01b039182166004820152602481019290925291909116906340c10f1990604401600060405180830381600087803b15801561511157600080fd5b505af1158015615125573d6000803e3d6000fd5b505050505b6000818152603960205260409020600d01541561523557603360009054906101000a90046001600160a01b03166001600160a01b031663432556ba6040518163ffffffff1660e01b8152600401602060405180830381865afa158015615194573d6000803e3d6000fd5b505050506040513d601f19601f820116820180604052508101906151b89190615b35565b600082815260396020526040908190208054600d909101549151632770a7eb60e21b81526001600160a01b03918216600482015260248101929092529190911690639dc29fac90604401600060405180830381600087803b15801561521c57600080fd5b505af1158015615230573d6000803e3d6000fd5b505050505b6000818152603960205260409020805460018201546009830154600f8401546010850154601186015460128701546013880154601490980154615284986001600160a01b039098169790613b6b565b600081815260396020908152604091829020805460018201546009830154600f84015460108501546011860154601287015460138801546014890154600e8a0154600d909a01548c516001600160a01b03909a168a529a890197909752998701949094526060860192909252608085015260a084015260c083015260e08201949094526101008101939093526101208301526101408201527f39cf7e0047b8651259e011d0b3ed8fc2c3dc2e49ed041f1651f06429698c1c94906101600160405180910390a150565b6000807f7fffffffffffffffffffffffffffffff5d576e7357a4501ddfe92f46681b20a08311156153845750600090506003615408565b6040805160008082526020820180845289905260ff881692820192909252606081018690526080810185905260019060a0016020604051602081039080840390855afa1580156153d8573d6000803e3d6000fd5b5050604051601f1901519150506001600160a01b03811661540157600060019250925050615408565b9150600090505b94509492505050565b600081600481111561542557615425615d27565b0361542d5750565b600181600481111561544157615441615d27565b0361548e5760405162461bcd60e51b815260206004820152601860248201527f45434453413a20696e76616c6964207369676e617475726500000000000000006044820152606401610d0a565b60028160048111156154a2576154a2615d27565b036154ef5760405162461bcd60e51b815260206004820152601f60248201527f45434453413a20696e76616c6964207369676e6174757265206c656e677468006044820152606401610d0a565b600381600481111561550357615503615d27565b03612e4c5760405162461bcd60e51b815260206004820152602260248201527f45434453413a20696e76616c6964207369676e6174757265202773272076616c604482015261756560f01b6064820152608401610d0a565b6155668383836155aa565b614bc58383835b6000928352603b602090815260408085209285526002909201905290912080546001600160a01b0319166001600160a01b03909216919091179055565b6000928352603b602090815260408085206001600160a01b03909416855260019093019052912055565b60405180610100016040528060008152602001600081526020016000815260200160008152602001600081526020016000815260200160008152602001600080191681525090565b60006020828403121561562e57600080fd5b5035919050565b6001600160a01b0381168114612e4c57600080fd5b6000806040838503121561565d57600080fd5b823561566881615635565b946020939093013593505050565b6000806040838503121561568957600080fd5b50508035926020909101359150565b600080600080600060a086880312156156b057600080fd5b505083359560208501359550604085013594606081013594506080013592509050565b8015158114612e4c57600080fd5b600080600080600080600060e0888a0312156156fc57600080fd5b873596506020880135955060408801359450606088013593506080880135925060a0880135915060c0880135615731816156d3565b8091505092959891949750929550565b604051610100810167ffffffffffffffff8111828210171561577357634e487b7160e01b600052604160045260246000fd5b60405290565b600060a0828403121561578b57600080fd5b60405160a0810181811067ffffffffffffffff821117156157bc57634e487b7160e01b600052604160045260246000fd5b80604052508091508235815260208301356020820152604083013560ff811681146157e657600080fd5b604082015260608381013590820152608083013561580381615635565b6080919091015292915050565b60008060008084860361026081121561582857600080fd5b8535945061010080601f198301121561584057600080fd5b615848615741565b91506020870135825260408701356020830152606087013560408301526080870135606083015260a0870135608083015260c087013560a083015260e087013560c08301528087013560e083015250809350506158a9866101208701615779565b91506158b9866101c08701615779565b905092959194509250565b600080604083850312156158d757600080fd5b8235915060208301356158e981615635565b809150509250929050565b60008060006060848603121561590957600080fd5b505081359360208301359350604090920135919050565b60008060008060008060008060006101208a8c03121561593f57600080fd5b893561594a81615635565b9b60208b01359b5060408b01359a60608101359a506080810135995060a0810135985060c0810135975060e081013596506101000135945092505050565b6000806000806080858703121561599e57600080fd5b843593506020850135925060408501356159b7816156d3565b9396929550929360600135925050565b6000602082840312156159d957600080fd5b81356159e481615635565b9392505050565b60008060008060008060c08789031215615a0457600080fd5b8635615a0f81615635565b95506020870135945060408701359350606087013592506080870135615a34816156d3565b8092505060a087013590509295509295509295565b600060208284031215615a5b57600080fd5b81356159e4816156d3565b600080600060608486031215615a7b57600080fd5b8335615a8681615635565b92506020840135615a96816156d3565b929592945050506040919091013590565b634e487b7160e01b600052601160045260246000fd5b81810381811115610bef57610bef615aa7565b80820180821115610bef57610bef615aa7565b8082028115828204841417610bef57610bef615aa7565b600060018201615b0c57615b0c615aa7565b5060010190565b600082615b3057634e487b7160e01b600052601260045260246000fd5b500490565b600060208284031215615b4757600080fd5b81516159e481615635565b600060208284031215615b6457600080fd5b81516159e4816156d3565b60208082526026908201527f4d6f72706865725472616465456e67696e653a205065726d697373696f6e206460408201526532b734b2b21760d11b606082015260800190565b600081615bc457615bc4615aa7565b506000190190565b600060208284031215615bde57600080fd5b5051919050565b6020808252605f908201527f4d6f72706865725472616465456e67696e653a2043616e27742070617274696160408201527f6c6c7920636c6f7365206120706f736974696f6e20616e64206f70656e20616e60608201527f6f74686572206f6e6520696e206f70706f7369746520646972656374696f6e00608082015260a00190565b6020808252602f908201527f4d6f72706865725472616465456e67696e653a2065787069726564206465616460408201526e3634b73290333937b69037bbb732b960891b606082015260800190565b6020808252604a908201527f4d6f72706865725472616465456e67696e653a2044656163746976617465642060408201527f6d61726b6574206f72646572206e6565647320616c6c2073686172657320746f6060820152690818994818db1bdcd95960b21b608082015260a00190565b634e487b7160e01b600052602160045260246000fdfe68e79a7bf1e0bc45d0a330c573bc367f9cf464fd326078812f301165fbda4ef1e5a0b4d50f56047f84728557fedbda92f956391bc9d5c762e8461996dd8e7ad7a2646970667358221220469b842b42d216b165723723dc37a730b52dd894581c3969004ff6a9d910266b64736f6c63430008150033","linkReferences":{}},"methodIdentifiers":{"ADMINISTRATOR_ROLE()":"f45edb5f","DOMAIN_SEPARATOR()":"3644e515","DOMAIN_TYPE_HASH()":"c0993eea","ORACLE_ROLE()":"07e2cea5","POSITIONADMIN_ROLE()":"ee309c22","POSITION_TYPE_HASH()":"7f895a61","_HASHED_NAME()":"caac6c82","_HASHED_VERSION()":"712ac56d","addInterestRate(uint256,uint256)":"13384039","calculateMarginInterest(uint256,uint256,uint256)":"6b4f7065","cancelOrder(bytes32,address)":"d61aed7a","computeLiquidationPrice(bytes32)":"4702513c","deployedTimeStamp()":"f40b7b32","escrowOpenOrderEnabled()":"16194bac","exposureByMarket(bytes32)":"3062bde4","getDeactivatedMarketPrice(bytes32)":"a386fb56","getExposureMappingAddress(bytes32,uint256)":"2d7b42c1","getExposureMappingIndex(bytes32,address)":"69c66c7b","getInterestRate(uint256)":"0c196a74","getLiquidationPrice(uint256,uint256,bool,uint256)":"7dffd040","getMaxMappingIndex(bytes32)":"ef92f831","getOrder(bytes32)":"5778472a","getPosition(address,bytes32)":"0fa8f516","getPositionHash(address,bytes32,uint256,uint256,uint256,uint256,uint256,uint256,uint256)":"7a687444","initialize(address,bool,uint256)":"e37ff29f","interestRate()":"7c3a00fd","interestRates(uint256)":"9a4d8ba1","lastOrderId()":"5662ecc7","longShareValue(uint256,uint256,uint256,uint256,uint256,uint256,bool)":"480ee207","morpherState()":"0e2e7ed3","nonces(address)":"7ecebe00","numInterestRates()":"1176aeef","orderNonce()":"16f8de89","orders(bytes32)":"9c3f1e90","portfolio(address,bytes32)":"1035b2f1","priceLockDeactivatedMarket(bytes32)":"9c92e2b4","processOrder(bytes32,uint256,uint256,uint256,uint256)":"16f77a5b","requestOrderId(address,bytes32,uint256,uint256,bool,uint256)":"ac8f6f7f","setDeactivatedMarketPrice(bytes32,uint256)":"7023b783","setEscrowOpenOrderEnabled(bool)":"ac9eee28","setLeverageInterestRate(uint256)":"cb581ced","setMorpherState(address)":"80104668","setPosition(address,bytes32,uint256,uint256,uint256,uint256,uint256,uint256,uint256)":"be7e64b6","setPositionWithSignature(bytes32,(uint256,uint256,uint256,uint256,uint256,uint256,uint256,bytes32),(bytes32,bytes32,uint8,uint256,address),(bytes32,bytes32,uint8,uint256,address))":"51b840cb","shortShareValue(uint256,uint256,uint256,uint256,uint256,uint256,bool)":"3754c565"},"id":16}