{
  "abi": [
    {
      "inputs": [
        {
          "internalType": "address",
          "name": "_stateAddress",
          "type": "address"
        }
      ],
      "stateMutability": "nonpayable",
      "type": "constructor"
    },
    {
      "anonymous": false,
      "inputs": [
        {
          "indexed": false,
          "internalType": "address",
          "name": "_owner",
          "type": "address"
        },
        {
          "indexed": false,
          "internalType": "bytes32",
          "name": "_oldMarketId",
          "type": "bytes32"
        },
        {
          "indexed": false,
          "internalType": "bytes32",
          "name": "_newMarketId",
          "type": "bytes32"
        }
      ],
      "name": "AddressPositionMigrationComplete",
      "type": "event"
    },
    {
      "anonymous": false,
      "inputs": [
        {
          "indexed": true,
          "internalType": "bytes32",
          "name": "_orderId",
          "type": "bytes32"
        },
        {
          "indexed": true,
          "internalType": "address",
          "name": "_address",
          "type": "address"
        },
        {
          "indexed": true,
          "internalType": "bytes32",
          "name": "_marketId",
          "type": "bytes32"
        },
        {
          "indexed": false,
          "internalType": "uint256",
          "name": "_closeSharesAmount",
          "type": "uint256"
        },
        {
          "indexed": false,
          "internalType": "uint256",
          "name": "_openMPHTokenAmount",
          "type": "uint256"
        },
        {
          "indexed": false,
          "internalType": "bool",
          "name": "_tradeDirection",
          "type": "bool"
        },
        {
          "indexed": false,
          "internalType": "uint256",
          "name": "_orderLeverage",
          "type": "uint256"
        }
      ],
      "name": "AdminLiquidationOrderCreated",
      "type": "event"
    },
    {
      "anonymous": false,
      "inputs": [
        {
          "indexed": false,
          "internalType": "bytes32",
          "name": "_oldMarketId",
          "type": "bytes32"
        },
        {
          "indexed": false,
          "internalType": "bytes32",
          "name": "_newMarketId",
          "type": "bytes32"
        },
        {
          "indexed": false,
          "internalType": "uint256",
          "name": "_maxIx",
          "type": "uint256"
        }
      ],
      "name": "AllPositionMigrationIncomplete",
      "type": "event"
    },
    {
      "anonymous": false,
      "inputs": [
        {
          "indexed": false,
          "internalType": "bytes32",
          "name": "_oldMarketId",
          "type": "bytes32"
        },
        {
          "indexed": false,
          "internalType": "bytes32",
          "name": "_newMarketId",
          "type": "bytes32"
        }
      ],
      "name": "AllPositionMigrationsComplete",
      "type": "event"
    },
    {
      "inputs": [
        {
          "internalType": "address",
          "name": "_address",
          "type": "address"
        },
        {
          "internalType": "bytes32",
          "name": "_marketId",
          "type": "bytes32"
        }
      ],
      "name": "adminLiquidationOrder",
      "outputs": [
        {
          "internalType": "bytes32",
          "name": "_orderId",
          "type": "bytes32"
        }
      ],
      "stateMutability": "nonpayable",
      "type": "function"
    },
    {
      "inputs": [
        {
          "internalType": "bytes32",
          "name": "_marketId",
          "type": "bytes32"
        },
        {
          "internalType": "uint256",
          "name": "_fromIx",
          "type": "uint256"
        },
        {
          "internalType": "uint256",
          "name": "_toIx",
          "type": "uint256"
        },
        {
          "internalType": "uint256",
          "name": "_rollUp",
          "type": "uint256"
        },
        {
          "internalType": "uint256",
          "name": "_rollDown",
          "type": "uint256"
        }
      ],
      "name": "contractRolls",
      "outputs": [],
      "stateMutability": "nonpayable",
      "type": "function"
    },
    {
      "inputs": [
        {
          "internalType": "bytes32",
          "name": "_marketId",
          "type": "bytes32"
        },
        {
          "internalType": "uint256",
          "name": "_fromIx",
          "type": "uint256"
        },
        {
          "internalType": "uint256",
          "name": "_toIx",
          "type": "uint256"
        }
      ],
      "name": "delistMarket",
      "outputs": [],
      "stateMutability": "nonpayable",
      "type": "function"
    },
    {
      "inputs": [
        {
          "internalType": "bytes32",
          "name": "_oldMarketId",
          "type": "bytes32"
        },
        {
          "internalType": "bytes32",
          "name": "_newMarketId",
          "type": "bytes32"
        }
      ],
      "name": "migratePositionsToNewMarket",
      "outputs": [],
      "stateMutability": "nonpayable",
      "type": "function"
    },
    {
      "inputs": [
        {
          "internalType": "address",
          "name": "_stateAddress",
          "type": "address"
        }
      ],
      "name": "setMorpherState",
      "outputs": [],
      "stateMutability": "nonpayable",
      "type": "function"
    },
    {
      "inputs": [
        {
          "internalType": "bytes32",
          "name": "_marketId",
          "type": "bytes32"
        },
        {
          "internalType": "uint256",
          "name": "_fromIx",
          "type": "uint256"
        },
        {
          "internalType": "uint256",
          "name": "_toIx",
          "type": "uint256"
        },
        {
          "internalType": "uint256",
          "name": "_nominator",
          "type": "uint256"
        },
        {
          "internalType": "uint256",
          "name": "_denominator",
          "type": "uint256"
        }
      ],
      "name": "stockSplits",
      "outputs": [],
      "stateMutability": "nonpayable",
      "type": "function"
    }
  ],
  "bytecode": {
    "object": "0x60806040523480156200001157600080fd5b50604051620026873803806200268783398101604081905262000034916200005a565b600080546001600160a01b0319166001600160a01b03929092169190911790556200008c565b6000602082840312156200006d57600080fd5b81516001600160a01b03811681146200008557600080fd5b9392505050565b6125eb806200009c6000396000f3fe608060405234801561001057600080fd5b50600436106100625760003560e01c806341b2a4b8146100675780637848d1df1461007c57806380104668146100a1578063aba5d3b1146100b4578063d86084e9146100c7578063d9d45000146100da575b600080fd5b61007a6100753660046121f4565b6100ed565b005b61008f61008a36600461222e565b61099f565b60405190815260200160405180910390f35b61007a6100af36600461225a565b610e8c565b61007a6100c236600461227e565b610fbd565b61007a6100d53660046122b9565b6115ac565b61007a6100e836600461227e565b6119ac565b60008054906101000a90046001600160a01b03166001600160a01b03166328196ca06040518163ffffffff1660e01b8152600401602060405180830381865afa15801561013e573d6000803e3d6000fd5b505050506040513d601f19601f8201168201806040525081019061016291906122e5565b604051632474521560e21b815260008051602061259683398151915260048201523360248201526001600160a01b0391909116906391d1485490604401602060405180830381865afa1580156101bc573d6000803e3d6000fd5b505050506040513d601f19601f820116820180604052508101906101e09190612302565b6102055760405162461bcd60e51b81526004016101fc90612324565b60405180910390fd5b600054604051634a4cce9760e01b8152600481018490526001600160a01b0390911690634a4cce9790602401602060405180830381865afa15801561024e573d6000803e3d6000fd5b505050506040513d601f19601f820116820180604052508101906102729190612302565b1561028f5760405162461bcd60e51b81526004016101fc90612375565b600054604051634a4cce9760e01b8152600481018390526001600160a01b0390911690634a4cce9790602401602060405180830381865afa1580156102d8573d6000803e3d6000fd5b505050506040513d601f19601f820116820180604052508101906102fc9190612302565b156103195760405162461bcd60e51b81526004016101fc90612375565b60008060009054906101000a90046001600160a01b03166001600160a01b031663d37afa8d6040518163ffffffff1660e01b8152600401602060405180830381865afa15801561036d573d6000803e3d6000fd5b505050506040513d601f19601f8201168201806040525081019061039191906122e5565b6001600160a01b031663ef92f831846040518263ffffffff1660e01b81526004016103be91815260200190565b602060405180830381865afa1580156103db573d6000803e3d6000fd5b505050506040513d601f19601f820116820180604052508101906103ff91906123c7565b905060008167ffffffffffffffff81111561041c5761041c6123e0565b604051908082528060200260200182016040528015610445578160200160208202803683370190505b50905060015b82811161057f5760008054906101000a90046001600160a01b03166001600160a01b031663d37afa8d6040518163ffffffff1660e01b8152600401602060405180830381865afa1580156104a3573d6000803e3d6000fd5b505050506040513d601f19601f820116820180604052508101906104c791906122e5565b604051632d7b42c160e01b815260048101879052602481018390526001600160a01b039190911690632d7b42c190604401602060405180830381865afa158015610515573d6000803e3d6000fd5b505050506040513d601f19601f8201168201806040525081019061053991906122e5565b8261054560018461240c565b8151811061055557610555612423565b6001600160a01b03909216602092830291909101909101528061057781612439565b91505061044b565b5060005b815181101561095f5760008282815181106105a0576105a0612423565b6020026020010151905060008060009054906101000a90046001600160a01b03166001600160a01b031663d37afa8d6040518163ffffffff1660e01b8152600401602060405180830381865afa1580156105fe573d6000803e3d6000fd5b505050506040513d601f19601f8201168201806040525081019061062291906122e5565b6040516307d47a8b60e11b81526001600160a01b038481166004830152602482018a90529190911690630fa8f5169060440161010060405180830381865afa158015610672573d6000803e3d6000fd5b505050506040513d601f19601f820116820180604052508101906106969190612454565b90506000816020015111806106af575060008160400151115b156108df5760008054906101000a90046001600160a01b03166001600160a01b031663d37afa8d6040518163ffffffff1660e01b8152600401602060405180830381865afa158015610705573d6000803e3d6000fd5b505050506040513d601f19601f8201168201806040525081019061072991906122e5565b6001600160a01b031663be7e64b683884285602001518660400151876060015188608001518960a001518a60c001516040518a63ffffffff1660e01b815260040161077c999897969594939291906124f2565b600060405180830381600087803b15801561079657600080fd5b505af11580156107aa573d6000803e3d6000fd5b5050505060008054906101000a90046001600160a01b03166001600160a01b031663d37afa8d6040518163ffffffff1660e01b8152600401602060405180830381865afa1580156107ff573d6000803e3d6000fd5b505050506040513d601f19601f8201168201806040525081019061082391906122e5565b6001600160a01b031663be7e64b68389426000806000806000806040518a63ffffffff1660e01b8152600401610861999897969594939291906124f2565b600060405180830381600087803b15801561087b57600080fd5b505af115801561088f573d6000803e3d6000fd5b5050604080516001600160a01b0386168152602081018b90529081018990527f39194ea174eda0bd2ddf918b1097e6cbd8e5edd7aa1742f797ba39fd185075239250606001905060405180910390a15b6207a1205a1080156108fb575083516108f984600161253c565b105b1561094a5760408051888152602081018890529081018490527f2d4a70151c093a45634061e3fef2ceb2c682319bb6db8865a7f794c12401f8649060600160405180910390a150505050505050565b5050808061095790612439565b915050610583565b5060408051858152602081018590527f35527c925af87c39083d1de190fa1962baaefa6bdd44f2ab944aca0234d7b24c910160405180910390a150505050565b60008060009054906101000a90046001600160a01b03166001600160a01b03166328196ca06040518163ffffffff1660e01b8152600401602060405180830381865afa1580156109f3573d6000803e3d6000fd5b505050506040513d601f19601f82011682018060405250810190610a1791906122e5565b604051632474521560e21b815260008051602061259683398151915260048201523360248201526001600160a01b0391909116906391d1485490604401602060405180830381865afa158015610a71573d6000803e3d6000fd5b505050506040513d601f19601f82011682018060405250810190610a959190612302565b610ab15760405162461bcd60e51b81526004016101fc90612324565b60008060009054906101000a90046001600160a01b03166001600160a01b031663d37afa8d6040518163ffffffff1660e01b8152600401602060405180830381865afa158015610b05573d6000803e3d6000fd5b505050506040513d601f19601f82011682018060405250810190610b2991906122e5565b6040516307d47a8b60e11b81526001600160a01b038681166004830152602482018690529190911690630fa8f5169060440161010060405180830381865afa158015610b79573d6000803e3d6000fd5b505050506040513d601f19601f82011682018060405250810190610b9d9190612454565b60208101516040820151919250908115610d175760008054906101000a90046001600160a01b03166001600160a01b031663d37afa8d6040518163ffffffff1660e01b8152600401602060405180830381865afa158015610c02573d6000803e3d6000fd5b505050506040513d601f19601f82011682018060405250810190610c2691906122e5565b60405163ac8f6f7f60e01b81526001600160a01b038881166004830152602482018890526044820185905260006064830181905260848301526305f5e10060a4830152919091169063ac8f6f7f9060c4016020604051808303816000875af1158015610c96573d6000803e3d6000fd5b505050506040513d601f19601f82011682018060405250810190610cba91906123c7565b60408051848152600060208201819052818301526305f5e1006060820152905191955086916001600160a01b0389169187917f68909f9be64c2fb9036bc6c47d8cff89160ee7f28d4e14082931cfcc8e980d779181900360800190a45b8015610e835760008054906101000a90046001600160a01b03166001600160a01b031663d37afa8d6040518163ffffffff1660e01b8152600401602060405180830381865afa158015610d6e573d6000803e3d6000fd5b505050506040513d601f19601f82011682018060405250810190610d9291906122e5565b60405163ac8f6f7f60e01b81526001600160a01b038881166004830152602482018890526044820184905260006064830152600160848301526305f5e10060a4830152919091169063ac8f6f7f9060c4016020604051808303816000875af1158015610e02573d6000803e3d6000fd5b505050506040513d601f19601f82011682018060405250810190610e2691906123c7565b60408051838152600060208201526001818301526305f5e1006060820152905191955086916001600160a01b0389169187917f68909f9be64c2fb9036bc6c47d8cff89160ee7f28d4e14082931cfcc8e980d779181900360800190a45b50505092915050565b60008054906101000a90046001600160a01b03166001600160a01b03166328196ca06040518163ffffffff1660e01b8152600401602060405180830381865afa158015610edd573d6000803e3d6000fd5b505050506040513d601f19601f82011682018060405250810190610f0191906122e5565b604051632474521560e21b815260008051602061259683398151915260048201523360248201526001600160a01b0391909116906391d1485490604401602060405180830381865afa158015610f5b573d6000803e3d6000fd5b505050506040513d601f19601f82011682018060405250810190610f7f9190612302565b610f9b5760405162461bcd60e51b81526004016101fc90612324565b600080546001600160a01b0319166001600160a01b0392909216919091179055565b60008054906101000a90046001600160a01b03166001600160a01b03166328196ca06040518163ffffffff1660e01b8152600401602060405180830381865afa15801561100e573d6000803e3d6000fd5b505050506040513d601f19601f8201168201806040525081019061103291906122e5565b604051632474521560e21b815260008051602061259683398151915260048201523360248201526001600160a01b0391909116906391d1485490604401602060405180830381865afa15801561108c573d6000803e3d6000fd5b505050506040513d601f19601f820116820180604052508101906110b09190612302565b6110cc5760405162461bcd60e51b81526004016101fc90612324565b600054604051634a4cce9760e01b8152600481018790526001600160a01b0390911690634a4cce9790602401602060405180830381865afa158015611115573d6000803e3d6000fd5b505050506040513d601f19601f820116820180604052508101906111399190612302565b156111965760405162461bcd60e51b815260206004820152602760248201527f4d61726b6574206d7573742062652070617573656420746f2070726f63657373604482015266103937b636399760c91b60648201526084016101fc565b836111a057600193505b8261128b5760008054906101000a90046001600160a01b03166001600160a01b031663d37afa8d6040518163ffffffff1660e01b8152600401602060405180830381865afa1580156111f6573d6000803e3d6000fd5b505050506040513d601f19601f8201168201806040525081019061121a91906122e5565b6001600160a01b031663ef92f831866040518263ffffffff1660e01b815260040161124791815260200190565b602060405180830381865afa158015611264573d6000803e3d6000fd5b505050506040513d601f19601f8201168201806040525081019061128891906123c7565b92505b6000845b8481116115a35760008054906101000a90046001600160a01b03166001600160a01b031663d37afa8d6040518163ffffffff1660e01b8152600401602060405180830381865afa1580156112e7573d6000803e3d6000fd5b505050506040513d601f19601f8201168201806040525081019061130b91906122e5565b604051632d7b42c160e01b815260048101899052602481018390526001600160a01b039190911690632d7b42c190604401602060405180830381865afa158015611359573d6000803e3d6000fd5b505050506040513d601f19601f8201168201806040525081019061137d91906122e5565b915060008060009054906101000a90046001600160a01b03166001600160a01b031663d37afa8d6040518163ffffffff1660e01b8152600401602060405180830381865afa1580156113d3573d6000803e3d6000fd5b505050506040513d601f19601f820116820180604052508101906113f791906122e5565b6040516307d47a8b60e11b81526001600160a01b038581166004830152602482018b90529190911690630fa8f5169060440161010060405180830381865afa158015611447573d6000803e3d6000fd5b505050506040513d601f19601f8201168201806040525081019061146b9190612454565b90508385826060015161147e919061253c565b611488919061240c565b60608201526114978389611ffc565b60c08201526000546040805163d37afa8d60e01b815290516001600160a01b039092169163d37afa8d916004808201926020929091908290030181865afa1580156114e6573d6000803e3d6000fd5b505050506040513d601f19601f8201168201806040525081019061150a91906122e5565b6001600160a01b031663be7e64b6848a4285602001518660400151876060015188608001518960a001518a60c001516040518a63ffffffff1660e01b815260040161155d999897969594939291906124f2565b600060405180830381600087803b15801561157757600080fd5b505af115801561158b573d6000803e3d6000fd5b5050505050808061159b90612439565b91505061128f565b50505050505050565b60008054906101000a90046001600160a01b03166001600160a01b03166328196ca06040518163ffffffff1660e01b8152600401602060405180830381865afa1580156115fd573d6000803e3d6000fd5b505050506040513d601f19601f8201168201806040525081019061162191906122e5565b604051632474521560e21b815260008051602061259683398151915260048201523360248201526001600160a01b0391909116906391d1485490604401602060405180830381865afa15801561167b573d6000803e3d6000fd5b505050506040513d601f19601f8201168201806040525081019061169f9190612302565b6116bb5760405162461bcd60e51b81526004016101fc90612324565b600054604051634a4cce9760e01b8152600481018590526001600160a01b0390911690634a4cce9790602401602060405180830381865afa158015611704573d6000803e3d6000fd5b505050506040513d601f19601f820116820180604052508101906117289190612302565b151560011461179f5760405162461bcd60e51b815260206004820152603760248201527f4d61726b6574206d7573742062652061637469766520746f2070726f6365737360448201527f20706f736974696f6e206c69717569646174696f6e732e00000000000000000060648201526084016101fc565b816117a957600191505b806118945760008054906101000a90046001600160a01b03166001600160a01b031663d37afa8d6040518163ffffffff1660e01b8152600401602060405180830381865afa1580156117ff573d6000803e3d6000fd5b505050506040513d601f19601f8201168201806040525081019061182391906122e5565b6001600160a01b031663ef92f831846040518263ffffffff1660e01b815260040161185091815260200190565b602060405180830381865afa15801561186d573d6000803e3d6000fd5b505050506040513d601f19601f8201168201806040525081019061189191906123c7565b90505b6000825b8281116119a55760008054906101000a90046001600160a01b03166001600160a01b031663d37afa8d6040518163ffffffff1660e01b8152600401602060405180830381865afa1580156118f0573d6000803e3d6000fd5b505050506040513d601f19601f8201168201806040525081019061191491906122e5565b604051632d7b42c160e01b815260048101879052602481018390526001600160a01b039190911690632d7b42c190604401602060405180830381865afa158015611962573d6000803e3d6000fd5b505050506040513d601f19601f8201168201806040525081019061198691906122e5565b9150611992828661099f565b508061199d81612439565b915050611898565b5050505050565b60008054906101000a90046001600160a01b03166001600160a01b03166328196ca06040518163ffffffff1660e01b8152600401602060405180830381865afa1580156119fd573d6000803e3d6000fd5b505050506040513d601f19601f82011682018060405250810190611a2191906122e5565b604051632474521560e21b815260008051602061259683398151915260048201523360248201526001600160a01b0391909116906391d1485490604401602060405180830381865afa158015611a7b573d6000803e3d6000fd5b505050506040513d601f19601f82011682018060405250810190611a9f9190612302565b611abb5760405162461bcd60e51b81526004016101fc90612324565b600054604051634a4cce9760e01b8152600481018790526001600160a01b0390911690634a4cce9790602401602060405180830381865afa158015611b04573d6000803e3d6000fd5b505050506040513d601f19601f82011682018060405250810190611b289190612302565b15611b8c5760405162461bcd60e51b815260206004820152602e60248201527f4d61726b6574206d7573742062652070617573656420746f2070726f6365737360448201526d1039ba37b1b59039b83634ba399760911b60648201526084016101fc565b83611b9657600193505b82611c815760008054906101000a90046001600160a01b03166001600160a01b031663d37afa8d6040518163ffffffff1660e01b8152600401602060405180830381865afa158015611bec573d6000803e3d6000fd5b505050506040513d601f19601f82011682018060405250810190611c1091906122e5565b6001600160a01b031663ef92f831866040518263ffffffff1660e01b8152600401611c3d91815260200190565b602060405180830381865afa158015611c5a573d6000803e3d6000fd5b505050506040513d601f19601f82011682018060405250810190611c7e91906123c7565b92505b6000845b8481116115a35760008054906101000a90046001600160a01b03166001600160a01b031663d37afa8d6040518163ffffffff1660e01b8152600401602060405180830381865afa158015611cdd573d6000803e3d6000fd5b505050506040513d601f19601f82011682018060405250810190611d0191906122e5565b604051632d7b42c160e01b815260048101899052602481018390526001600160a01b039190911690632d7b42c190604401602060405180830381865afa158015611d4f573d6000803e3d6000fd5b505050506040513d601f19601f82011682018060405250810190611d7391906122e5565b915060008060009054906101000a90046001600160a01b03166001600160a01b031663d37afa8d6040518163ffffffff1660e01b8152600401602060405180830381865afa158015611dc9573d6000803e3d6000fd5b505050506040513d601f19601f82011682018060405250810190611ded91906122e5565b6040516307d47a8b60e11b81526001600160a01b038581166004830152602482018b90529190911690630fa8f5169060440161010060405180830381865afa158015611e3d573d6000803e3d6000fd5b505050506040513d601f19601f82011682018060405250810190611e619190612454565b905084848260200151611e749190612554565b611e7e9190612573565b602082015260408101518590611e95908690612554565b611e9f9190612573565b604082015260608101518490611eb6908790612554565b611ec09190612573565b606082015260808101518490611ed7908790612554565b611ee19190612573565b6080820152611ef08389611ffc565b60c08201526000546040805163d37afa8d60e01b815290516001600160a01b039092169163d37afa8d916004808201926020929091908290030181865afa158015611f3f573d6000803e3d6000fd5b505050506040513d601f19601f82011682018060405250810190611f6391906122e5565b6001600160a01b031663be7e64b6848a4285602001518660400151876060015188608001518960a001518a60c001516040518a63ffffffff1660e01b8152600401611fb6999897969594939291906124f2565b600060405180830381600087803b158015611fd057600080fd5b505af1158015611fe4573d6000803e3d6000fd5b50505050508080611ff490612439565b915050611c85565b600080546040805163d37afa8d60e01b8152905183926001600160a01b03169163d37afa8d9160048083019260209291908290030181865afa158015612046573d6000803e3d6000fd5b505050506040513d601f19601f8201168201806040525081019061206a91906122e5565b6040516307d47a8b60e11b81526001600160a01b038681166004830152602482018690529190911690630fa8f5169060440161010060405180830381865afa1580156120ba573d6000803e3d6000fd5b505050506040513d601f19601f820116820180604052508101906120de9190612454565b905060008054906101000a90046001600160a01b03166001600160a01b031663d37afa8d6040518163ffffffff1660e01b8152600401602060405180830381865afa158015612131573d6000803e3d6000fd5b505050506040513d601f19601f8201168201806040525081019061215591906122e5565b606082015160a08301516040808501516020860151865192516301f7ff4160e61b815260048101959095526024850193909352909111604483015260648201526001600160a01b039190911690637dffd04090608401602060405180830381865afa1580156121c8573d6000803e3d6000fd5b505050506040513d601f19601f820116820180604052508101906121ec91906123c7565b949350505050565b6000806040838503121561220757600080fd5b50508035926020909101359150565b6001600160a01b038116811461222b57600080fd5b50565b6000806040838503121561224157600080fd5b823561224c81612216565b946020939093013593505050565b60006020828403121561226c57600080fd5b813561227781612216565b9392505050565b600080600080600060a0868803121561229657600080fd5b505083359560208501359550604085013594606081013594506080013592509050565b6000806000606084860312156122ce57600080fd5b505081359360208301359350604090920135919050565b6000602082840312156122f757600080fd5b815161227781612216565b60006020828403121561231457600080fd5b8151801515811461227757600080fd5b60208082526031908201527f46756e6374696f6e2063616e206f6e6c792062652063616c6c6564206279207460408201527034329020b236b4b734b9ba3930ba37b91760791b606082015260800190565b60208082526032908201527f4d61726b6574206d7573742062652070617573656420746f2070726f636573736040820152711036b0b935b2ba1036b4b3b930ba34b7b71760711b606082015260800190565b6000602082840312156123d957600080fd5b5051919050565b634e487b7160e01b600052604160045260246000fd5b634e487b7160e01b600052601160045260246000fd5b60008282101561241e5761241e6123f6565b500390565b634e487b7160e01b600052603260045260246000fd5b600060001982141561244d5761244d6123f6565b5060010190565b600061010080838503121561246857600080fd5b6040519081019067ffffffffffffffff8211818310171561249957634e487b7160e01b600052604160045260246000fd5b81604052835181526020840151602082015260408401516040820152606084015160608201526080840151608082015260a084015160a082015260c084015160c082015260e084015160e0820152809250505092915050565b6001600160a01b03999099168952602089019790975260408801959095526060870193909352608086019190915260a085015260c084015260e08301526101008201526101200190565b6000821982111561254f5761254f6123f6565b500190565b600081600019048311821515161561256e5761256e6123f6565b500290565b60008261259057634e487b7160e01b600052601260045260246000fd5b50049056fee5a0b4d50f56047f84728557fedbda92f956391bc9d5c762e8461996dd8e7ad7a2646970667358221220520092cb6e32c39cd197f5a2c474bce8b8e8f737d665075be1f8dd8fb49594db64736f6c634300080b0033",
    "linkReferences": {}
  },
  "methodIdentifiers": {
    "adminLiquidationOrder(address,bytes32)": "7848d1df",
    "contractRolls(bytes32,uint256,uint256,uint256,uint256)": "aba5d3b1",
    "delistMarket(bytes32,uint256,uint256)": "d86084e9",
    "migratePositionsToNewMarket(bytes32,bytes32)": "41b2a4b8",
    "setMorpherState(address)": "80104668",
    "stockSplits(bytes32,uint256,uint256,uint256,uint256)": "d9d45000"
  },
  "id": 1
}