{
  "contractName": "DataProviderCollateralStorage",
  "abi": [
    {
      "anonymous": false,
      "inputs": [
        {
          "indexed": false,
          "internalType": "address",
          "name": "dp",
          "type": "address"
        },
        {
          "indexed": false,
          "internalType": "uint256",
          "name": "amount",
          "type": "uint256"
        }
      ],
      "name": "DataProviderCollateralAdded",
      "type": "event"
    },
    {
      "anonymous": false,
      "inputs": [
        {
          "indexed": false,
          "internalType": "address",
          "name": "dp",
          "type": "address"
        },
        {
          "indexed": false,
          "internalType": "uint256",
          "name": "amount",
          "type": "uint256"
        },
        {
          "indexed": false,
          "internalType": "uint256",
          "name": "unlockForWithdrawalTimestamp",
          "type": "uint256"
        }
      ],
      "name": "DataProviderCollateralStagedForWithdrawal",
      "type": "event"
    },
    {
      "anonymous": false,
      "inputs": [
        {
          "indexed": false,
          "internalType": "address",
          "name": "dp",
          "type": "address"
        },
        {
          "indexed": false,
          "internalType": "uint256",
          "name": "amount",
          "type": "uint256"
        }
      ],
      "name": "DataProviderCollateralWithdrawn",
      "type": "event"
    },
    {
      "inputs": [
        {
          "internalType": "address",
          "name": "",
          "type": "address"
        }
      ],
      "name": "dataProviderTickPrice",
      "outputs": [
        {
          "internalType": "uint256",
          "name": "",
          "type": "uint256"
        }
      ],
      "stateMutability": "view",
      "type": "function"
    },
    {
      "inputs": [
        {
          "internalType": "uint256",
          "name": "",
          "type": "uint256"
        }
      ],
      "name": "dataProviders",
      "outputs": [
        {
          "internalType": "address",
          "name": "",
          "type": "address"
        }
      ],
      "stateMutability": "view",
      "type": "function"
    },
    {
      "inputs": [
        {
          "internalType": "address",
          "name": "",
          "type": "address"
        }
      ],
      "name": "dpCollateral",
      "outputs": [
        {
          "internalType": "uint256",
          "name": "timestamp",
          "type": "uint256"
        },
        {
          "internalType": "uint256",
          "name": "amount",
          "type": "uint256"
        }
      ],
      "stateMutability": "view",
      "type": "function"
    },
    {
      "inputs": [
        {
          "internalType": "address",
          "name": "",
          "type": "address"
        }
      ],
      "name": "stagedForWithdrawal",
      "outputs": [
        {
          "internalType": "uint256",
          "name": "timestamp",
          "type": "uint256"
        },
        {
          "internalType": "uint256",
          "name": "amount",
          "type": "uint256"
        }
      ],
      "stateMutability": "view",
      "type": "function"
    },
    {
      "inputs": [
        {
          "internalType": "uint256",
          "name": "price",
          "type": "uint256"
        }
      ],
      "name": "setTickPrice",
      "outputs": [],
      "stateMutability": "nonpayable",
      "type": "function"
    },
    {
      "inputs": [],
      "name": "depositCollateral",
      "outputs": [],
      "stateMutability": "payable",
      "type": "function"
    },
    {
      "inputs": [
        {
          "internalType": "uint256",
          "name": "amount",
          "type": "uint256"
        }
      ],
      "name": "stageColleteralForWithdrawal",
      "outputs": [],
      "stateMutability": "nonpayable",
      "type": "function"
    },
    {
      "inputs": [],
      "name": "withdrawStagedCollateral",
      "outputs": [],
      "stateMutability": "nonpayable",
      "type": "function"
    },
    {
      "inputs": [
        {
          "internalType": "address",
          "name": "dp",
          "type": "address"
        }
      ],
      "name": "dataProviderHasEnoughStake",
      "outputs": [
        {
          "internalType": "bool",
          "name": "",
          "type": "bool"
        }
      ],
      "stateMutability": "view",
      "type": "function"
    },
    {
      "inputs": [],
      "name": "getDataProviders",
      "outputs": [
        {
          "internalType": "address[]",
          "name": "",
          "type": "address[]"
        }
      ],
      "stateMutability": "view",
      "type": "function"
    }
  ],
  "bytecode": "0x608060405234801561001057600080fd5b50610960806100206000396000f3fe6080604052600436106100905760003560e01c80634d2388fa116100595780634d2388fa146101ac5780636f758140146101db578063b05d1c36146101e3578063de9eecdd14610203578063e0616c3f1461021857600080fd5b80624296fd14610095578063032a3b48146100d557806324b8a6e0146100f75780633434a54c1461012f578063478d0ba614610178575b600080fd5b3480156100a157600080fd5b506100c26100b0366004610814565b60026020526000908152604090205481565b6040519081526020015b60405180910390f35b3480156100e157600080fd5b506100ea610248565b6040516100cc9190610844565b34801561010357600080fd5b50610117610112366004610891565b6102aa565b6040516001600160a01b0390911681526020016100cc565b34801561013b57600080fd5b5061016361014a366004610814565b6001602081905260009182526040909120805491015482565b604080519283526020830191909152016100cc565b34801561018457600080fd5b50610163610193366004610814565b6000602081905290815260409020805460019091015482565b3480156101b857600080fd5b506101d96101c7366004610891565b33600090815260026020526040902055565b005b6101d96102d4565b3480156101ef57600080fd5b506101d96101fe366004610891565b61040d565b34801561020f57600080fd5b506101d96105c0565b34801561022457600080fd5b50610238610233366004610814565b6107ea565b60405190151581526020016100cc565b606060038054806020026020016040519081016040528092919081815260200182805480156102a057602002820191906000526020600020905b81546001600160a01b03168152600190910190602001808311610282575b5050505050905090565b600381815481106102ba57600080fd5b6000918252602090912001546001600160a01b0316905081565b33600090815260208190526040812042815560010180543492906102f99084906108c0565b909155506103089050336107ea565b801561038b57506040516366cb196760e11b81526003600482015233602482015273__Array_________________________________9063cd9632ce90604401602060405180830381865af4158015610365573d6000803e3d6000fd5b505050506040513d601f19601f8201168201806040525081019061038991906108d8565b155b156103d357600380546001810182556000919091527fc2575a0e9e593c00f959f8c92f12db2869c3395a3b0502d05e2516446f71f85b0180546001600160a01b031916331790555b604080513381523460208201527ffe372e7e9b207ec45838217ca7a9d87f337f4c7f910a0dcf1a4adb0f85ee7591910160405180910390a1565b3360009081526020819052604090206001015481111561048b5760405162461bcd60e51b815260206004820152602e60248201527f596f752068617665206e6f7420656e6f75676820636f6c6c61746572616c207360448201526d74616b656420746f20737461676560901b60648201526084015b60405180910390fd5b33600090815260016020819052604090912001541561051e5760405162461bcd60e51b815260206004820152604360248201527f466972737420776974686472617720796f75722073746167656420636f6c6c6160448201527f746572616c206265666f72652073746167696e67206e657720636f6c6c6174656064820152621c985b60ea1b608482015260a401610482565b61052b62093a80426108c0565b336000908152600160208181526040808420948555938201859055829052918120909101805483929061055f9084906108fa565b909155507f3aa477e451468e42c84415e1186396ac71239e56240be3f0a50f1297797549059050338261059562093a80426108c0565b604080516001600160a01b03909416845260208401929092529082015260600160405180910390a150565b336000908152600160205260409020544210156106375760405162461bcd60e51b815260206004820152602f60248201527f5769746864726177616c206e6f742079657420706f737369626c652c2073746160448201526e1ad9481cdd1a5b1b081b1bd8dad959608a1b6064820152608401610482565b336000818152600160208190526040822001805491905590610658906107ea565b1580156106da57506040516366cb196760e11b81526003600482015233602482015273__Array_________________________________9063cd9632ce90604401602060405180830381865af41580156106b6573d6000803e3d6000fd5b505050506040513d601f19601f820116820180604052508101906106da91906108d8565b156107b9576040516312ee5e2f60e21b815260036004820181905233602483015273__Array_________________________________91639140fc0991908390634bb978bc90604401602060405180830381865af4158015610740573d6000803e3d6000fd5b505050506040513d601f19601f820116820180604052508101906107649190610911565b6040516001600160e01b031960e085901b1681526004810192909252602482015260440160006040518083038186803b1580156107a057600080fd5b505af41580156107b4573d6000803e3d6000fd5b505050505b604051339082156108fc029083906000818181858888f193505050501580156107e6573d6000803e3d6000fd5b5050565b6001600160a01b0316600090815260208190526040902060010154683635c9adc5dea00000111590565b60006020828403121561082657600080fd5b81356001600160a01b038116811461083d57600080fd5b9392505050565b6020808252825182820181905260009190848201906040850190845b818110156108855783516001600160a01b031683529284019291840191600101610860565b50909695505050505050565b6000602082840312156108a357600080fd5b5035919050565b634e487b7160e01b600052601160045260246000fd5b600082198211156108d3576108d36108aa565b500190565b6000602082840312156108ea57600080fd5b8151801515811461083d57600080fd5b60008282101561090c5761090c6108aa565b500390565b60006020828403121561092357600080fd5b505191905056fea26469706673582212204ba4e418bb88d13f23a99c84c3de2b38036bde31f314fa5f0b9eb81ca14a3e6764736f6c634300080b0033",
  "immutableReferences": {},
  "source": "\n//SPDX-License-Identifier: MIT\n\npragma solidity 0.8.11;\n\nimport \"./library/Array.sol\";\n\ncontract DataProviderCollateralStorage {\n\n\n    using Array for address[];\n\n    uint256 constant WITHDRAW_DELAY = 7 * 24 * 60 * 60; // seconds (1 week)\n    uint256 constant MINIMUM_COLLATERAL = 1000 ether;\n\n    struct Collateral {\n        uint timestamp;\n        uint amount;\n    }\n\n    event DataProviderCollateralAdded(address dp, uint amount);\n    event DataProviderCollateralStagedForWithdrawal(address dp, uint amount, uint unlockForWithdrawalTimestamp);\n    event DataProviderCollateralWithdrawn(address dp, uint amount);\n\n    mapping(address => Collateral) public dpCollateral;\n    mapping(address => Collateral) public stagedForWithdrawal;\n    mapping(address => uint) public dataProviderTickPrice;\n    address[] public dataProviders;\n\n    function setTickPrice(uint price) public {\n        dataProviderTickPrice[msg.sender] = price;\n    }\n\n    function depositCollateral() public payable {\n        dpCollateral[msg.sender].timestamp = block.timestamp;\n        dpCollateral[msg.sender].amount += msg.value;\n        if(dataProviderHasEnoughStake(msg.sender) && !dataProviders.includes(msg.sender)) {\n            dataProviders.push(msg.sender);\n        }\n        emit DataProviderCollateralAdded(msg.sender, msg.value);\n    }\n\n    function stageColleteralForWithdrawal(uint amount) public {\n        require(dpCollateral[msg.sender].amount >= amount, \"You have not enough collateral staked to stage\");\n        require(stagedForWithdrawal[msg.sender].amount == 0, \"First withdraw your staged collateral before staging new collateral\");\n        stagedForWithdrawal[msg.sender].timestamp = block.timestamp + WITHDRAW_DELAY;\n        stagedForWithdrawal[msg.sender].amount = amount;\n        dpCollateral[msg.sender].amount -= amount;\n        emit DataProviderCollateralStagedForWithdrawal(msg.sender, amount, block.timestamp + WITHDRAW_DELAY);\n    }\n\n    function withdrawStagedCollateral() public {\n        require(stagedForWithdrawal[msg.sender].timestamp <= block.timestamp, \"Withdrawal not yet possible, stake still locked\");\n        uint amount = stagedForWithdrawal[msg.sender].amount;\n        stagedForWithdrawal[msg.sender].amount = 0;\n        if(!dataProviderHasEnoughStake(msg.sender) && dataProviders.includes(msg.sender)) {\n            dataProviders.remove(dataProviders.indexOf(msg.sender));\n        }\n        payable(msg.sender).transfer(amount);\n    }\n\n    function dataProviderHasEnoughStake(address dp) public view returns(bool) {\n        return dpCollateral[dp].amount >= MINIMUM_COLLATERAL;\n    }\n\n    function getDataProviders() public view returns(address[] memory) {\n        return dataProviders;\n    }\n}",
  "sourcePath": "/Users/thomas/Projects/Morpher/MorpherProtocol/contracts/DataProviderCollateralStorage.sol",
  "compiler": {
    "name": "solc",
    "version": "0.8.11+commit.d7f03943.Emscripten.clang"
  },
  "schemaVersion": "3.4.11",
  "updatedAt": "2023-07-28T07:56:02.245Z",
  "devdoc": {
    "kind": "dev",
    "methods": {},
    "version": 1
  },
  "userdoc": {
    "kind": "user",
    "methods": {},
    "version": 1
  }
}