{
  "contractName": "DataChainOracle",
  "abi": [
    {
      "anonymous": false,
      "inputs": [
        {
          "indexed": false,
          "internalType": "uint8",
          "name": "version",
          "type": "uint8"
        }
      ],
      "name": "Initialized",
      "type": "event"
    },
    {
      "anonymous": false,
      "inputs": [
        {
          "indexed": false,
          "internalType": "uint256",
          "name": "reqId",
          "type": "uint256"
        },
        {
          "indexed": false,
          "internalType": "bytes32",
          "name": "identifier",
          "type": "bytes32"
        }
      ],
      "name": "Oracle",
      "type": "event"
    },
    {
      "anonymous": false,
      "inputs": [
        {
          "indexed": false,
          "internalType": "address",
          "name": "account",
          "type": "address"
        }
      ],
      "name": "Paused",
      "type": "event"
    },
    {
      "anonymous": false,
      "inputs": [
        {
          "indexed": false,
          "internalType": "address",
          "name": "account",
          "type": "address"
        }
      ],
      "name": "Unpaused",
      "type": "event"
    },
    {
      "inputs": [],
      "name": "paused",
      "outputs": [
        {
          "internalType": "bool",
          "name": "",
          "type": "bool"
        }
      ],
      "stateMutability": "view",
      "type": "function"
    },
    {
      "inputs": [
        {
          "internalType": "address",
          "name": "",
          "type": "address"
        }
      ],
      "name": "tickPrice",
      "outputs": [
        {
          "internalType": "uint256",
          "name": "",
          "type": "uint256"
        }
      ],
      "stateMutability": "view",
      "type": "function"
    },
    {
      "inputs": [
        {
          "internalType": "uint256",
          "name": "price",
          "type": "uint256"
        }
      ],
      "name": "setTickPrice",
      "outputs": [],
      "stateMutability": "nonpayable",
      "type": "function"
    },
    {
      "inputs": [
        {
          "internalType": "address",
          "name": "provider",
          "type": "address"
        },
        {
          "internalType": "bytes32",
          "name": "salt",
          "type": "bytes32"
        },
        {
          "internalType": "uint8",
          "name": "_v",
          "type": "uint8"
        },
        {
          "internalType": "bytes32",
          "name": "_r",
          "type": "bytes32"
        },
        {
          "internalType": "bytes32",
          "name": "_s",
          "type": "bytes32"
        }
      ],
      "name": "checkProviderSignature",
      "outputs": [
        {
          "internalType": "bool",
          "name": "",
          "type": "bool"
        }
      ],
      "stateMutability": "view",
      "type": "function"
    },
    {
      "inputs": [
        {
          "internalType": "address[]",
          "name": "requestedProviders",
          "type": "address[]"
        }
      ],
      "name": "getTotalPriceForRequestedProviders",
      "outputs": [
        {
          "internalType": "uint256",
          "name": "",
          "type": "uint256"
        }
      ],
      "stateMutability": "view",
      "type": "function"
    },
    {
      "inputs": [
        {
          "internalType": "uint256",
          "name": "requestId",
          "type": "uint256"
        },
        {
          "internalType": "bytes32",
          "name": "identifier",
          "type": "bytes32"
        },
        {
          "internalType": "address[]",
          "name": "requestedProviders",
          "type": "address[]"
        }
      ],
      "name": "getOracleData",
      "outputs": [],
      "stateMutability": "payable",
      "type": "function"
    },
    {
      "inputs": [
        {
          "internalType": "uint256",
          "name": "oracleRequestId",
          "type": "uint256"
        },
        {
          "components": [
            {
              "internalType": "address",
              "name": "provider",
              "type": "address"
            },
            {
              "internalType": "uint64",
              "name": "timestamp",
              "type": "uint64"
            },
            {
              "internalType": "uint256",
              "name": "value",
              "type": "uint256"
            },
            {
              "components": [
                {
                  "internalType": "bytes32",
                  "name": "r",
                  "type": "bytes32"
                },
                {
                  "internalType": "bytes32",
                  "name": "s",
                  "type": "bytes32"
                },
                {
                  "internalType": "uint8",
                  "name": "v",
                  "type": "uint8"
                }
              ],
              "internalType": "struct DataChainOracle.Signature",
              "name": "signature",
              "type": "tuple"
            }
          ],
          "internalType": "struct DataChainOracle.OracleMessage[]",
          "name": "response",
          "type": "tuple[]"
        }
      ],
      "name": "callback",
      "outputs": [],
      "stateMutability": "nonpayable",
      "type": "function"
    }
  ],
  "bytecode": "0x6080604052606580546001600160a01b031916601117905534801561002357600080fd5b506115ef806100336000396000f3fe6080604052600436106100705760003560e01c80635ba545561161004e5780635ba54556146101145780635c975abb14610127578063873ea4a91461013f578063a48794da1461015f57600080fd5b806304b51cf914610075578063419852bc146100b55780634d2388fa146100e5575b600080fd5b34801561008157600080fd5b506100a2610090366004611070565b60696020526000908152604090205481565b6040519081526020015b60405180910390f35b3480156100c157600080fd5b506100d56100d03660046110aa565b61017f565b60405190151581526020016100ac565b3480156100f157600080fd5b506101126101003660046110fa565b33600090815260696020526040902055565b005b61011261012236600461123e565b610319565b34801561013357600080fd5b5060335460ff166100d5565b34801561014b57600080fd5b5061011261015a36600461128e565b61048d565b34801561016b57600080fd5b506100a261017a3660046113b9565b610563565b6000806040518060400160405280601a81526020017f194f7261636c65205369676e6564204d6573736167653a0a3634000000000000815250905060008188886040516020016101ed92919060609290921b6bffffffffffffffffffffffff19168252601482015260340190565b60408051601f198184030181529082905261020b9291602001611431565b60408051601f198184030181528282528051602091820120600080855291840180845281905260ff8a169284019290925260608301889052608083018790529092509060019060a0016020604051602081039080840390855afa158015610276573d6000803e3d6000fd5b505050602060405103519050886001600160a01b0316816001600160a01b031614801561030c575060655460405163e0616c3f60e01b81526001600160a01b0383811660048301529091169063e0616c3f90602401602060405180830381865afa1580156102e8573d6000803e3d6000fd5b505050506040513d601f19601f8201168201806040525081019061030c9190611446565b9998505050505050505050565b3461032382610563565b111561038b5760405162461bcd60e51b815260206004820152602c60248201527f4e6f7420656e6f7567682066756e64732073656e7420746f2070617920666f7260448201526b206f7261636c65206461746160a01b60648201526084015b60405180910390fd5b6000828152606860205260409020544314156103b3576103ae33848434856106c5565b505050565b6040805160a081018252338152602080820186815282840186815234606085019081526080850187815260675460009081526066865296909620855181546001600160a01b0319166001600160a01b039091161781559251600184015590516002830155516003820155925180519293926104349260048501920190610fc0565b505060675460408051918252602082018590527f5fefe0a122fc726ffa8134e899f2a1c62084a70a71b12526fa318da5f290a87e92500160405180910390a1606780549060006104838361147e565b9190505550505050565b6000828152606660209081526040808320815160a08101835281546001600160a01b031681526001820154818501526002820154818401526003820154606082015260048201805484518187028101870190955280855291949293608086019390929083018282801561052957602002820191906000526020600020905b81546001600160a01b0316815260019091019060200180831161050b575b5050505050815250509050610542828260400151610c25565b6103ae816000015182602001518360400151846060015185608001516106c5565b60008082516000141561065357606554604080516265476960e31b815290516000926001600160a01b03169163032a3b4891600480830192869291908290030181865afa1580156105b8573d6000803e3d6000fd5b505050506040513d6000823e601f3d908101601f191682016040526105e09190810190611499565b905060005b815181101561064c576069600083838151811061060457610604611533565b60200260200101516001600160a01b03166001600160a01b0316815260200190815260200160002054836106389190611549565b9250806106448161147e565b9150506105e5565b50506106bf565b60005b83518110156106bd576069600085838151811061067557610675611533565b60200260200101516001600160a01b03166001600160a01b0316815260200190815260200160002054826106a99190611549565b9150806106b58161147e565b915050610656565b505b92915050565b600080600083516000141561090e5760005b6000878152606860205260409020600101548110156109085760008781526068602052604081206001810180546002909201918391908590811061071d5761071d611533565b60009182526020808320909101546001600160a01b0316835282019290925260400190205411156108f657610753846001611549565b6000888152606860205260408120600181018054600290920192918590811061077e5761077e611533565b60009182526020808320909101546001600160a01b031683528201929092526040019020546107ad9190611561565b846107b9816001611549565b6107c39086611561565b6107cd9190611583565b6107d79190611549565b92506107e4600185611549565b600088815260686020526040812060010180549296506069928490811061080d5761080d611533565b60009182526020808320909101546001600160a01b0316835282019290925260400190205461083c9083611549565b60008881526068602052604090206001018054919350908290811061086357610863611533565b600091825260208083209091015489835260689091526040822060010180546001600160a01b03909216926108fc9260699290869081106108a6576108a6611533565b60009182526020808320909101546001600160a01b03168352820192909252604090810182205490518115909302929091818181858888f193505050501580156108f4573d6000803e3d6000fd5b505b806109008161147e565b9150506106d7565b50610b08565b60005b8451811015610b0657600060686000898152602001908152602001600020600201600087848151811061094657610946611533565b60200260200101516001600160a01b03166001600160a01b03168152602001908152602001600020541115610af457610980846001611549565b6068600089815260200190815260200160002060020160008784815181106109aa576109aa611533565b60200260200101516001600160a01b03166001600160a01b03168152602001908152602001600020546109dd9190611561565b846109e9816001611549565b6109f39086611561565b6109fd9190611583565b610a079190611549565b9250610a14600185611549565b935060696000868381518110610a2c57610a2c611533565b60200260200101516001600160a01b03166001600160a01b031681526020019081526020016000205482610a609190611549565b9150848181518110610a7457610a74611533565b60200260200101516001600160a01b03166108fc60696000888581518110610a9e57610a9e611533565b60200260200101516001600160a01b03166001600160a01b03168152602001908152602001600020549081150290604051600060405180830381858888f19350505050158015610af2573d6000803e3d6000fd5b505b80610afe8161147e565b915050610911565b505b84811115610b715760405162461bcd60e51b815260206004820152603060248201527f4e6f7420656e6f7567682076616c7565206c6f636b656420746f20706179206160448201526f6c6c207468652070726f76696465727360801b6064820152608401610382565b84811015610bba576001600160a01b0388166108fc610b9083886115a2565b6040518115909202916000818181858888f19350505050158015610bb8573d6000803e3d6000fd5b505b604051633102e5ab60e01b815260048101889052602481018390526001600160a01b03891690633102e5ab90604401600060405180830381600087803b158015610c0357600080fd5b505af1158015610c17573d6000803e3d6000fd5b505050505050505050505050565b6000818152606860205260408120438155610c4591600190910190611025565b60005b82518110156103ae57610c73838281518110610c6657610c66611533565b6020026020010151610d5e565b15610d4c5760686000838152602001908152602001600020600101838281518110610ca057610ca0611533565b6020908102919091018101515182546001810184556000938452919092200180546001600160a01b0319166001600160a01b039092169190911790558251839082908110610cf057610cf0611533565b602002602001015160400151606860008481526020019081526020016000206002016000858481518110610d2657610d26611533565b602090810291909101810151516001600160a01b03168252810191909152604001600020555b80610d568161147e565b915050610c48565b6000806040518060400160405280601a81526020017f194f7261636c65205369676e6564204d6573736167653a0a36300000000000008152509050600081846000015185602001518660400151604051602001610def9392919060609390931b6bffffffffffffffffffffffff1916835260c09190911b6001600160c01b0319166014830152601c820152603c0190565b60408051601f1981840301815290829052610e0d9291602001611431565b60408051808303601f19018152828252805160209182012060608881015180850151815191850151600080895295880180885285905260ff909116958701959095529085015260808401929092529092509060019060a0016020604051602081039080840390855afa158015610e87573d6000803e3d6000fd5b5050506020604051035190506000856020015167ffffffffffffffff16426103e8610eb29190611583565b11610ee157610ec3426103e8611583565b866020015167ffffffffffffffff16610edc91906115a2565b610f06565b602086015167ffffffffffffffff16610efc426103e8611583565b610f0691906115a2565b905085600001516001600160a01b0316826001600160a01b0316148015610f2e5750610bb881105b8015610fa3575060655460405163e0616c3f60e01b81526001600160a01b0384811660048301529091169063e0616c3f90602401602060405180830381865afa158015610f7f573d6000803e3d6000fd5b505050506040513d601f19601f82011682018060405250810190610fa39190611446565b15610fb45750600195945050505050565b50600095945050505050565b828054828255906000526020600020908101928215611015579160200282015b8281111561101557825182546001600160a01b0319166001600160a01b03909116178255602090920191600190910190610fe0565b50611021929150611046565b5090565b50805460008255906000526020600020908101906110439190611046565b50565b5b808211156110215760008155600101611047565b6001600160a01b038116811461104357600080fd5b60006020828403121561108257600080fd5b813561108d8161105b565b9392505050565b803560ff811681146110a557600080fd5b919050565b600080600080600060a086880312156110c257600080fd5b85356110cd8161105b565b9450602086013593506110e260408701611094565b94979396509394606081013594506080013592915050565b60006020828403121561110c57600080fd5b5035919050565b634e487b7160e01b600052604160045260246000fd5b6040516080810167ffffffffffffffff8111828210171561114c5761114c611113565b60405290565b6040516060810167ffffffffffffffff8111828210171561114c5761114c611113565b604051601f8201601f1916810167ffffffffffffffff8111828210171561119e5761119e611113565b604052919050565b600067ffffffffffffffff8211156111c0576111c0611113565b5060051b60200190565b600082601f8301126111db57600080fd5b813560206111f06111eb836111a6565b611175565b82815260059290921b8401810191818101908684111561120f57600080fd5b8286015b848110156112335780356112268161105b565b8352918301918301611213565b509695505050505050565b60008060006060848603121561125357600080fd5b8335925060208401359150604084013567ffffffffffffffff81111561127857600080fd5b611284868287016111ca565b9150509250925092565b60008060408084860312156112a257600080fd5b8335925060208085013567ffffffffffffffff808211156112c257600080fd5b818701915087601f8301126112d657600080fd5b81356112e46111eb826111a6565b81815260c0918202840185019185820191908b84111561130357600080fd5b948601945b838610156113a757858c03818112156113215760008081fd5b611329611129565b87356113348161105b565b81528789013587811681146113495760008081fd5b818a0152878a01358a8201526060605f1983018113156113695760008081fd5b611371611152565b925080890135835260808901358a84015261138e60a08a01611094565b838c015281019190915283529485019491860191611308565b50809750505050505050509250929050565b6000602082840312156113cb57600080fd5b813567ffffffffffffffff8111156113e257600080fd5b6113ee848285016111ca565b949350505050565b6000815160005b8181101561141757602081850181015186830152016113fd565b81811115611426576000828601525b509290920192915050565b60006113ee61144083866113f6565b846113f6565b60006020828403121561145857600080fd5b8151801515811461108d57600080fd5b634e487b7160e01b600052601160045260246000fd5b600060001982141561149257611492611468565b5060010190565b600060208083850312156114ac57600080fd5b825167ffffffffffffffff8111156114c357600080fd5b8301601f810185136114d457600080fd5b80516114e26111eb826111a6565b81815260059190911b8201830190838101908783111561150157600080fd5b928401925b828410156115285783516115198161105b565b82529284019290840190611506565b979650505050505050565b634e487b7160e01b600052603260045260246000fd5b6000821982111561155c5761155c611468565b500190565b60008261157e57634e487b7160e01b600052601260045260246000fd5b500490565b600081600019048311821515161561159d5761159d611468565b500290565b6000828210156115b4576115b4611468565b50039056fea2646970667358221220e3da6e327e9d987eedadb338e664f0fadd2a90b8f30dcc6af19dd3f26a69996864736f6c634300080b0033",
  "immutableReferences": {},
  "source": "//SPDX-License-Identifier: MIT\n\npragma solidity 0.8.11;\n\n\nimport \"./interfaces/CallbackableContract.sol\";\n\nimport \"@openzeppelin/contracts-upgradeable/security/PausableUpgradeable.sol\";\n\nimport \"./DataProviderCollateralStorage.sol\";\n\n\ncontract DataChainOracle is PausableUpgradeable {\n\n    DataProviderCollateralStorage collateralStorage = DataProviderCollateralStorage(address(0x11));\n\n    uint256 constant TIMESTAMP_DELAY_THRESHOLD = 3000; // milliseconds\n\n    event Oracle(uint256 reqId, bytes32 identifier);\n\n    struct Signature {\n        bytes32 r;\n        bytes32 s;\n        uint8 v;\n    }\n\n    struct OracleMessage {\n        address provider;\n        uint64 timestamp;\n        uint256 value;\n        Signature signature;\n    }\n\n    struct VerifiedOracleMessage {\n        bool verified;\n        OracleMessage message;\n    }\n\n\n    struct OracleRequest {\n        address requester;\n        uint256 requestId;\n        bytes32 identifier;\n        uint256 valueLocked;\n        address[] requestedProviders;\n    }\n\n    struct OracleCacheData {\n        uint256 blockNumber;\n        address[] providers;\n        mapping(address => uint) providerValue;\n    }\n\n\n    mapping(uint256 => OracleRequest) requests;\n    uint256 requestIds;\n\n    mapping(bytes32 => OracleCacheData) cache;\n    \n\n    mapping(address => uint) public tickPrice;\n\n\n\n    /**\n     * sets the price of the tick for a data provider\n     * \n     * Does intentionally leave out the check if enough staked, because its only valid for the msg.sender\n     */\n    function setTickPrice(uint price) public {\n        tickPrice[msg.sender] = price;\n    }\n\n    \n\n\n/**\n * TODO: Error handling for callbacks\n */\n\n    function checkProviderSignature(address provider, bytes32 salt, uint8 _v, bytes32 _r, bytes32 _s) external view returns (bool) {\n        bytes memory prefix = \"\\x19Oracle Signed Message:\\n64\";\n        bytes32 prefixedHashMessage = keccak256(abi.encodePacked(prefix, abi.encodePacked(provider, salt)));\n        address signer = ecrecover(prefixedHashMessage, _v, _r, _s);\n        return signer == provider && collateralStorage.dataProviderHasEnoughStake(signer);\n    }\n\n\n    function getTotalPriceForRequestedProviders(address[] memory requestedProviders) public view returns(uint) {\n        uint totalPrice;\n        if (requestedProviders.length == 0) {\n            address[] memory allProviders = collateralStorage.getDataProviders();\n            for(uint i = 0; i < allProviders.length; i++) {\n                totalPrice += tickPrice[allProviders[i]];\n            }\n        } else {\n            for(uint i = 0; i < requestedProviders.length; i++) {\n                totalPrice += tickPrice[requestedProviders[i]];\n            }\n        }\n        return totalPrice;\n    }\n\n    //we might want to check the price at the receiver side instead and throw an error if not enough funds\n    function getOracleData(uint256 requestId, bytes32 identifier, address[] memory requestedProviders) external payable {\n        require(getTotalPriceForRequestedProviders(requestedProviders) <= msg.value, \"Not enough funds sent to pay for oracle data\");\n        if (cache[identifier].blockNumber == block.number) {\n            respondToOracleRequest(msg.sender, requestId, identifier, msg.value, requestedProviders);\n        } else {\n            requests[requestIds] = OracleRequest(msg.sender, requestId, identifier, msg.value, requestedProviders);\n            emit Oracle(requestIds, identifier);\n            requestIds++;\n        }\n    }\n\n\n    function isValidProviderMessage(OracleMessage memory m) private view returns (bool) {\n        bytes memory prefix = \"\\x19Oracle Signed Message:\\n60\";\n        bytes32 prefixedHashMessage = keccak256(abi.encodePacked(prefix, abi.encodePacked(m.provider, m.timestamp, m.value)));\n        address signer = ecrecover(prefixedHashMessage, m.signature.v, m.signature.r, m.signature.s);\n        uint256 delay = block.timestamp * 1000 > m.timestamp ? block.timestamp * 1000 - m.timestamp : m.timestamp - block.timestamp * 1000;\n        if (signer == m.provider && delay < TIMESTAMP_DELAY_THRESHOLD && collateralStorage.dataProviderHasEnoughStake(signer)) {\n            return true;\n        }\n        return false;\n    }\n    function cacheReceipt(OracleMessage[] memory data, bytes32 identifier) private {\n        cache[identifier].blockNumber = block.number;\n        delete cache[identifier].providers;\n        for (uint256 i=0; i<data.length; i++) {\n            if (isValidProviderMessage(data[i])) {\n                cache[identifier].providers.push(data[i].provider);\n                cache[identifier].providerValue[data[i].provider] = data[i].value;\n            }\n        }\n    }\n\n    // TODO(mic) resolve attack: validator can choose not to send some providers' messages\n    function callback(uint256 oracleRequestId, OracleMessage[] memory response) external {\n        OracleRequest memory request = requests[oracleRequestId];\n        cacheReceipt(response, request.identifier);\n        respondToOracleRequest(request.requester, request.requestId, request.identifier, request.valueLocked, request.requestedProviders);\n    }\n\n    function respondToOracleRequest(address to, uint256 requestId, bytes32 identifier, uint256 valueLocked, address[] memory requestedProviders) private {\n        \n        uint256 validIndex = 0;\n        uint256 average = 0;\n        uint256 valueSpent = 0;\n        if (requestedProviders.length == 0) {\n            for (uint256 i = 0; i < cache[identifier].providers.length; i++) {\n                if (cache[identifier].providerValue[cache[identifier].providers[i]] > 0) {\n                    average = average / (validIndex + 1) * (validIndex) + cache[identifier].providerValue[cache[identifier].providers[i]] / (validIndex + 1);\n                    validIndex += 1;\n                    valueSpent += tickPrice[cache[identifier].providers[i]];\n                    payable(cache[identifier].providers[i]).transfer(tickPrice[cache[identifier].providers[i]]);\n                }\n            }\n        } else {\n            for (uint256 i=0; i<requestedProviders.length; i++) {\n                if (cache[identifier].providerValue[requestedProviders[i]] > 0) {\n                    average = average / (validIndex + 1) * (validIndex) + cache[identifier].providerValue[requestedProviders[i]] / (validIndex + 1);\n                    validIndex += 1;\n                    valueSpent += tickPrice[requestedProviders[i]];\n                    payable(requestedProviders[i]).transfer(tickPrice[requestedProviders[i]]);\n                }\n            }\n        }\n        // should never happen\n        require(valueSpent <= valueLocked, \"Not enough value locked to pay all the providers\");\n        if (valueSpent < valueLocked) {\n            payable(to).transfer(valueLocked - valueSpent);\n        }\n        CallbackableContract(to).__callback(requestId, average);\n    }\n}\n",
  "sourcePath": "/Users/thomas/Projects/Morpher/MorpherProtocol/contracts/DataChainOracle.sol",
  "compiler": {
    "name": "solc",
    "version": "0.8.11+commit.d7f03943.Emscripten.clang"
  },
  "schemaVersion": "3.4.11",
  "updatedAt": "2023-07-28T07:56:02.240Z",
  "devdoc": {
    "kind": "dev",
    "methods": {
      "paused()": {
        "details": "Returns true if the contract is paused, and false otherwise."
      }
    },
    "version": 1
  },
  "userdoc": {
    "kind": "user",
    "methods": {
      "checkProviderSignature(address,bytes32,uint8,bytes32,bytes32)": {
        "notice": "TODO: Error handling for callbacks"
      },
      "setTickPrice(uint256)": {
        "notice": "sets the price of the tick for a data provider  Does intentionally leave out the check if enough staked, because its only valid for the msg.sender"
      }
    },
    "version": 1
  }
}