{
  "contractName": "MorpherOracle",
  "abi": [
    {
      "anonymous": false,
      "inputs": [
        {
          "indexed": false,
          "internalType": "address",
          "name": "_address",
          "type": "address"
        }
      ],
      "name": "AddressBlackListed",
      "type": "event"
    },
    {
      "anonymous": false,
      "inputs": [
        {
          "indexed": false,
          "internalType": "address",
          "name": "_address",
          "type": "address"
        }
      ],
      "name": "AddressWhiteListed",
      "type": "event"
    },
    {
      "anonymous": false,
      "inputs": [
        {
          "indexed": true,
          "internalType": "bytes32",
          "name": "_orderId",
          "type": "bytes32"
        },
        {
          "indexed": true,
          "internalType": "address",
          "name": "_address",
          "type": "address"
        },
        {
          "indexed": true,
          "internalType": "bytes32",
          "name": "_marketId",
          "type": "bytes32"
        },
        {
          "indexed": false,
          "internalType": "uint256",
          "name": "_closeSharesAmount",
          "type": "uint256"
        },
        {
          "indexed": false,
          "internalType": "uint256",
          "name": "_openMPHTokenAmount",
          "type": "uint256"
        },
        {
          "indexed": false,
          "internalType": "bool",
          "name": "_tradeDirection",
          "type": "bool"
        },
        {
          "indexed": false,
          "internalType": "uint256",
          "name": "_orderLeverage",
          "type": "uint256"
        }
      ],
      "name": "AdminLiquidationOrderCreated",
      "type": "event"
    },
    {
      "anonymous": false,
      "inputs": [
        {
          "indexed": true,
          "internalType": "bytes32",
          "name": "_orderId",
          "type": "bytes32"
        },
        {
          "indexed": true,
          "internalType": "address",
          "name": "_sender",
          "type": "address"
        },
        {
          "indexed": true,
          "internalType": "address",
          "name": "_oracleAddress",
          "type": "address"
        }
      ],
      "name": "AdminOrderCancelled",
      "type": "event"
    },
    {
      "anonymous": false,
      "inputs": [
        {
          "indexed": false,
          "internalType": "address",
          "name": "_address",
          "type": "address"
        }
      ],
      "name": "CallBackCollectionAddressChange",
      "type": "event"
    },
    {
      "anonymous": false,
      "inputs": [
        {
          "indexed": true,
          "internalType": "address",
          "name": "_address",
          "type": "address"
        }
      ],
      "name": "CallbackAddressDisabled",
      "type": "event"
    },
    {
      "anonymous": false,
      "inputs": [
        {
          "indexed": true,
          "internalType": "address",
          "name": "_address",
          "type": "address"
        }
      ],
      "name": "CallbackAddressEnabled",
      "type": "event"
    },
    {
      "anonymous": false,
      "inputs": [
        {
          "indexed": false,
          "internalType": "bytes32",
          "name": "_marketId",
          "type": "bytes32"
        }
      ],
      "name": "DelistMarketComplete",
      "type": "event"
    },
    {
      "anonymous": false,
      "inputs": [
        {
          "indexed": false,
          "internalType": "bytes32",
          "name": "_marketId",
          "type": "bytes32"
        },
        {
          "indexed": false,
          "internalType": "uint256",
          "name": "_processedUntilIndex",
          "type": "uint256"
        }
      ],
      "name": "DelistMarketIncomplete",
      "type": "event"
    },
    {
      "anonymous": false,
      "inputs": [
        {
          "indexed": false,
          "internalType": "uint8",
          "name": "version",
          "type": "uint8"
        }
      ],
      "name": "Initialized",
      "type": "event"
    },
    {
      "anonymous": false,
      "inputs": [
        {
          "indexed": false,
          "internalType": "address",
          "name": "_address",
          "type": "address"
        }
      ],
      "name": "LinkMorpherState",
      "type": "event"
    },
    {
      "anonymous": false,
      "inputs": [
        {
          "indexed": false,
          "internalType": "address",
          "name": "_address",
          "type": "address"
        }
      ],
      "name": "LinkTradeEngine",
      "type": "event"
    },
    {
      "anonymous": false,
      "inputs": [
        {
          "indexed": true,
          "internalType": "bytes32",
          "name": "_orderId",
          "type": "bytes32"
        },
        {
          "indexed": false,
          "internalType": "address",
          "name": "_sender",
          "type": "address"
        },
        {
          "indexed": true,
          "internalType": "address",
          "name": "_address",
          "type": "address"
        },
        {
          "indexed": true,
          "internalType": "bytes32",
          "name": "_marketId",
          "type": "bytes32"
        }
      ],
      "name": "LiquidationOrderCreated",
      "type": "event"
    },
    {
      "anonymous": false,
      "inputs": [
        {
          "indexed": false,
          "internalType": "bytes32",
          "name": "_marketId",
          "type": "bytes32"
        },
        {
          "indexed": false,
          "internalType": "uint256",
          "name": "_price",
          "type": "uint256"
        }
      ],
      "name": "LockedPriceForClosingPositions",
      "type": "event"
    },
    {
      "anonymous": false,
      "inputs": [
        {
          "indexed": false,
          "internalType": "bool",
          "name": "_paused",
          "type": "bool"
        }
      ],
      "name": "OraclePaused",
      "type": "event"
    },
    {
      "anonymous": false,
      "inputs": [
        {
          "indexed": true,
          "internalType": "bytes32",
          "name": "_orderId",
          "type": "bytes32"
        },
        {
          "indexed": true,
          "internalType": "address",
          "name": "_sender",
          "type": "address"
        }
      ],
      "name": "OrderCancellationRequestedEvent",
      "type": "event"
    },
    {
      "anonymous": false,
      "inputs": [
        {
          "indexed": true,
          "internalType": "bytes32",
          "name": "_orderId",
          "type": "bytes32"
        },
        {
          "indexed": true,
          "internalType": "address",
          "name": "_sender",
          "type": "address"
        },
        {
          "indexed": true,
          "internalType": "address",
          "name": "_oracleAddress",
          "type": "address"
        }
      ],
      "name": "OrderCancelled",
      "type": "event"
    },
    {
      "anonymous": false,
      "inputs": [
        {
          "indexed": true,
          "internalType": "bytes32",
          "name": "_orderId",
          "type": "bytes32"
        },
        {
          "indexed": true,
          "internalType": "address",
          "name": "_address",
          "type": "address"
        },
        {
          "indexed": true,
          "internalType": "bytes32",
          "name": "_marketId",
          "type": "bytes32"
        },
        {
          "indexed": false,
          "internalType": "uint256",
          "name": "_closeSharesAmount",
          "type": "uint256"
        },
        {
          "indexed": false,
          "internalType": "uint256",
          "name": "_openMPHTokenAmount",
          "type": "uint256"
        },
        {
          "indexed": false,
          "internalType": "bool",
          "name": "_tradeDirection",
          "type": "bool"
        },
        {
          "indexed": false,
          "internalType": "uint256",
          "name": "_orderLeverage",
          "type": "uint256"
        },
        {
          "indexed": false,
          "internalType": "uint256",
          "name": "_onlyIfPriceBelow",
          "type": "uint256"
        },
        {
          "indexed": false,
          "internalType": "uint256",
          "name": "_onlyIfPriceAbove",
          "type": "uint256"
        },
        {
          "indexed": false,
          "internalType": "uint256",
          "name": "_goodFrom",
          "type": "uint256"
        },
        {
          "indexed": false,
          "internalType": "uint256",
          "name": "_goodUntil",
          "type": "uint256"
        }
      ],
      "name": "OrderCreated",
      "type": "event"
    },
    {
      "anonymous": false,
      "inputs": [
        {
          "indexed": true,
          "internalType": "bytes32",
          "name": "_orderId",
          "type": "bytes32"
        },
        {
          "indexed": true,
          "internalType": "address",
          "name": "_address",
          "type": "address"
        },
        {
          "indexed": true,
          "internalType": "bytes32",
          "name": "_marketId",
          "type": "bytes32"
        },
        {
          "indexed": false,
          "internalType": "uint256",
          "name": "_closeSharesAmount",
          "type": "uint256"
        },
        {
          "indexed": false,
          "internalType": "uint256",
          "name": "_openMPHTokenAmount",
          "type": "uint256"
        },
        {
          "indexed": false,
          "internalType": "bool",
          "name": "_tradeDirection",
          "type": "bool"
        },
        {
          "indexed": false,
          "internalType": "uint256",
          "name": "_orderLeverage",
          "type": "uint256"
        },
        {
          "indexed": false,
          "internalType": "uint256",
          "name": "_onlyIfPriceBelow",
          "type": "uint256"
        },
        {
          "indexed": false,
          "internalType": "uint256",
          "name": "_onlyIfPriceAbove",
          "type": "uint256"
        },
        {
          "indexed": false,
          "internalType": "uint256",
          "name": "_goodFrom",
          "type": "uint256"
        },
        {
          "indexed": false,
          "internalType": "uint256",
          "name": "_goodUntil",
          "type": "uint256"
        }
      ],
      "name": "OrderFailed",
      "type": "event"
    },
    {
      "anonymous": false,
      "inputs": [
        {
          "indexed": true,
          "internalType": "bytes32",
          "name": "_orderId",
          "type": "bytes32"
        },
        {
          "indexed": false,
          "internalType": "uint256",
          "name": "_price",
          "type": "uint256"
        },
        {
          "indexed": false,
          "internalType": "uint256",
          "name": "_unadjustedMarketPrice",
          "type": "uint256"
        },
        {
          "indexed": false,
          "internalType": "uint256",
          "name": "_spread",
          "type": "uint256"
        },
        {
          "indexed": false,
          "internalType": "uint256",
          "name": "_positionLiquidationTimestamp",
          "type": "uint256"
        },
        {
          "indexed": false,
          "internalType": "uint256",
          "name": "_timeStamp",
          "type": "uint256"
        },
        {
          "indexed": false,
          "internalType": "uint256",
          "name": "_newLongShares",
          "type": "uint256"
        },
        {
          "indexed": false,
          "internalType": "uint256",
          "name": "_newShortShares",
          "type": "uint256"
        },
        {
          "indexed": false,
          "internalType": "uint256",
          "name": "_newMeanEntry",
          "type": "uint256"
        },
        {
          "indexed": false,
          "internalType": "uint256",
          "name": "_newMeanSprad",
          "type": "uint256"
        },
        {
          "indexed": false,
          "internalType": "uint256",
          "name": "_newMeanLeverage",
          "type": "uint256"
        },
        {
          "indexed": false,
          "internalType": "uint256",
          "name": "_liquidationPrice",
          "type": "uint256"
        }
      ],
      "name": "OrderProcessed",
      "type": "event"
    },
    {
      "anonymous": false,
      "inputs": [
        {
          "indexed": false,
          "internalType": "address",
          "name": "account",
          "type": "address"
        }
      ],
      "name": "Paused",
      "type": "event"
    },
    {
      "anonymous": false,
      "inputs": [
        {
          "indexed": false,
          "internalType": "uint256",
          "name": "_gasForCallback",
          "type": "uint256"
        }
      ],
      "name": "SetGasForCallback",
      "type": "event"
    },
    {
      "anonymous": false,
      "inputs": [
        {
          "indexed": false,
          "internalType": "bool",
          "name": "_useWhiteList",
          "type": "bool"
        }
      ],
      "name": "SetUseWhiteList",
      "type": "event"
    },
    {
      "anonymous": false,
      "inputs": [
        {
          "indexed": false,
          "internalType": "address",
          "name": "account",
          "type": "address"
        }
      ],
      "name": "Unpaused",
      "type": "event"
    },
    {
      "inputs": [],
      "name": "ADMINISTRATOR_ROLE",
      "outputs": [
        {
          "internalType": "bytes32",
          "name": "",
          "type": "bytes32"
        }
      ],
      "stateMutability": "view",
      "type": "function"
    },
    {
      "inputs": [],
      "name": "ORACLEOPERATOR_ROLE",
      "outputs": [
        {
          "internalType": "bytes32",
          "name": "",
          "type": "bytes32"
        }
      ],
      "stateMutability": "view",
      "type": "function"
    },
    {
      "inputs": [],
      "name": "PAUSER_ROLE",
      "outputs": [
        {
          "internalType": "bytes32",
          "name": "",
          "type": "bytes32"
        }
      ],
      "stateMutability": "view",
      "type": "function"
    },
    {
      "inputs": [],
      "name": "_HASHED_NAME",
      "outputs": [
        {
          "internalType": "bytes32",
          "name": "",
          "type": "bytes32"
        }
      ],
      "stateMutability": "view",
      "type": "function"
    },
    {
      "inputs": [],
      "name": "_HASHED_VERSION",
      "outputs": [
        {
          "internalType": "bytes32",
          "name": "",
          "type": "bytes32"
        }
      ],
      "stateMutability": "view",
      "type": "function"
    },
    {
      "inputs": [],
      "name": "_PERMIT_TYPEHASH",
      "outputs": [
        {
          "internalType": "bytes32",
          "name": "",
          "type": "bytes32"
        }
      ],
      "stateMutability": "view",
      "type": "function"
    },
    {
      "inputs": [],
      "name": "_TYPE_HASH",
      "outputs": [
        {
          "internalType": "bytes32",
          "name": "",
          "type": "bytes32"
        }
      ],
      "stateMutability": "view",
      "type": "function"
    },
    {
      "inputs": [
        {
          "internalType": "address",
          "name": "",
          "type": "address"
        }
      ],
      "name": "callBackAddress",
      "outputs": [
        {
          "internalType": "bool",
          "name": "",
          "type": "bool"
        }
      ],
      "stateMutability": "view",
      "type": "function"
    },
    {
      "inputs": [],
      "name": "callBackCollectionAddress",
      "outputs": [
        {
          "internalType": "address payable",
          "name": "",
          "type": "address"
        }
      ],
      "stateMutability": "view",
      "type": "function"
    },
    {
      "inputs": [],
      "name": "gasForCallback",
      "outputs": [
        {
          "internalType": "uint256",
          "name": "",
          "type": "uint256"
        }
      ],
      "stateMutability": "view",
      "type": "function"
    },
    {
      "inputs": [
        {
          "internalType": "bytes32",
          "name": "",
          "type": "bytes32"
        }
      ],
      "name": "goodFrom",
      "outputs": [
        {
          "internalType": "uint256",
          "name": "",
          "type": "uint256"
        }
      ],
      "stateMutability": "view",
      "type": "function"
    },
    {
      "inputs": [
        {
          "internalType": "bytes32",
          "name": "",
          "type": "bytes32"
        }
      ],
      "name": "goodUntil",
      "outputs": [
        {
          "internalType": "uint256",
          "name": "",
          "type": "uint256"
        }
      ],
      "stateMutability": "view",
      "type": "function"
    },
    {
      "inputs": [
        {
          "internalType": "bytes32",
          "name": "",
          "type": "bytes32"
        }
      ],
      "name": "orderCancellationRequested",
      "outputs": [
        {
          "internalType": "bool",
          "name": "",
          "type": "bool"
        }
      ],
      "stateMutability": "view",
      "type": "function"
    },
    {
      "inputs": [],
      "name": "paused",
      "outputs": [
        {
          "internalType": "bool",
          "name": "",
          "type": "bool"
        }
      ],
      "stateMutability": "view",
      "type": "function"
    },
    {
      "inputs": [
        {
          "internalType": "bytes32",
          "name": "",
          "type": "bytes32"
        }
      ],
      "name": "priceAbove",
      "outputs": [
        {
          "internalType": "uint256",
          "name": "",
          "type": "uint256"
        }
      ],
      "stateMutability": "view",
      "type": "function"
    },
    {
      "inputs": [
        {
          "internalType": "bytes32",
          "name": "",
          "type": "bytes32"
        }
      ],
      "name": "priceBelow",
      "outputs": [
        {
          "internalType": "uint256",
          "name": "",
          "type": "uint256"
        }
      ],
      "stateMutability": "view",
      "type": "function"
    },
    {
      "inputs": [],
      "name": "useWhiteList",
      "outputs": [
        {
          "internalType": "bool",
          "name": "",
          "type": "bool"
        }
      ],
      "stateMutability": "view",
      "type": "function"
    },
    {
      "inputs": [
        {
          "internalType": "address",
          "name": "",
          "type": "address"
        }
      ],
      "name": "whiteList",
      "outputs": [
        {
          "internalType": "bool",
          "name": "",
          "type": "bool"
        }
      ],
      "stateMutability": "view",
      "type": "function"
    },
    {
      "inputs": [
        {
          "internalType": "address",
          "name": "_morpherState",
          "type": "address"
        },
        {
          "internalType": "address payable",
          "name": "_gasCollectionAddress",
          "type": "address"
        },
        {
          "internalType": "uint256",
          "name": "_gasForCallback",
          "type": "uint256"
        }
      ],
      "name": "initialize",
      "outputs": [],
      "stateMutability": "nonpayable",
      "type": "function"
    },
    {
      "inputs": [
        {
          "internalType": "address",
          "name": "_address",
          "type": "address"
        }
      ],
      "name": "setStateAddress",
      "outputs": [],
      "stateMutability": "nonpayable",
      "type": "function"
    },
    {
      "inputs": [
        {
          "internalType": "uint256",
          "name": "_gasForCallback",
          "type": "uint256"
        }
      ],
      "name": "overrideGasForCallback",
      "outputs": [],
      "stateMutability": "nonpayable",
      "type": "function"
    },
    {
      "inputs": [
        {
          "internalType": "address payable",
          "name": "_address",
          "type": "address"
        }
      ],
      "name": "setCallbackCollectionAddress",
      "outputs": [],
      "stateMutability": "nonpayable",
      "type": "function"
    },
    {
      "inputs": [
        {
          "internalType": "bytes32",
          "name": "_orderId",
          "type": "bytes32"
        },
        {
          "internalType": "address",
          "name": "_address",
          "type": "address"
        },
        {
          "internalType": "bytes32",
          "name": "_marketId",
          "type": "bytes32"
        },
        {
          "internalType": "uint256",
          "name": "_closeSharesAmount",
          "type": "uint256"
        },
        {
          "internalType": "uint256",
          "name": "_openMPHTokenAmount",
          "type": "uint256"
        },
        {
          "internalType": "bool",
          "name": "_tradeDirection",
          "type": "bool"
        },
        {
          "internalType": "uint256",
          "name": "_orderLeverage",
          "type": "uint256"
        },
        {
          "internalType": "uint256",
          "name": "_onlyIfPriceBelow",
          "type": "uint256"
        },
        {
          "internalType": "uint256",
          "name": "_onlyIfPriceAbove",
          "type": "uint256"
        },
        {
          "internalType": "uint256",
          "name": "_goodFrom",
          "type": "uint256"
        },
        {
          "internalType": "uint256",
          "name": "_goodUntil",
          "type": "uint256"
        }
      ],
      "name": "emitOrderFailed",
      "outputs": [],
      "stateMutability": "nonpayable",
      "type": "function"
    },
    {
      "inputs": [
        {
          "components": [
            {
              "internalType": "bytes32",
              "name": "_marketId",
              "type": "bytes32"
            },
            {
              "internalType": "uint256",
              "name": "_closeSharesAmount",
              "type": "uint256"
            },
            {
              "internalType": "uint256",
              "name": "_openMPHTokenAmount",
              "type": "uint256"
            },
            {
              "internalType": "bool",
              "name": "_tradeDirection",
              "type": "bool"
            },
            {
              "internalType": "uint256",
              "name": "_orderLeverage",
              "type": "uint256"
            },
            {
              "internalType": "uint256",
              "name": "_onlyIfPriceAbove",
              "type": "uint256"
            },
            {
              "internalType": "uint256",
              "name": "_onlyIfPriceBelow",
              "type": "uint256"
            },
            {
              "internalType": "uint256",
              "name": "_goodUntil",
              "type": "uint256"
            },
            {
              "internalType": "uint256",
              "name": "_goodFrom",
              "type": "uint256"
            }
          ],
          "internalType": "struct MorpherOracle.CreateOrderStruct",
          "name": "createOrderParams",
          "type": "tuple"
        }
      ],
      "name": "createOrder",
      "outputs": [
        {
          "internalType": "bytes32",
          "name": "_orderId",
          "type": "bytes32"
        }
      ],
      "stateMutability": "payable",
      "type": "function"
    },
    {
      "inputs": [
        {
          "internalType": "bytes32",
          "name": "_marketId",
          "type": "bytes32"
        },
        {
          "internalType": "uint256",
          "name": "_closeSharesAmount",
          "type": "uint256"
        },
        {
          "internalType": "uint256",
          "name": "_openMPHTokenAmount",
          "type": "uint256"
        },
        {
          "internalType": "bool",
          "name": "_tradeDirection",
          "type": "bool"
        },
        {
          "internalType": "uint256",
          "name": "_orderLeverage",
          "type": "uint256"
        },
        {
          "internalType": "uint256",
          "name": "_onlyIfPriceAbove",
          "type": "uint256"
        },
        {
          "internalType": "uint256",
          "name": "_onlyIfPriceBelow",
          "type": "uint256"
        },
        {
          "internalType": "uint256",
          "name": "_goodUntil",
          "type": "uint256"
        },
        {
          "internalType": "uint256",
          "name": "_goodFrom",
          "type": "uint256"
        }
      ],
      "name": "createOrder",
      "outputs": [
        {
          "internalType": "bytes32",
          "name": "_orderId",
          "type": "bytes32"
        }
      ],
      "stateMutability": "payable",
      "type": "function"
    },
    {
      "inputs": [
        {
          "components": [
            {
              "internalType": "bytes32",
              "name": "_marketId",
              "type": "bytes32"
            },
            {
              "internalType": "uint256",
              "name": "_closeSharesAmount",
              "type": "uint256"
            },
            {
              "internalType": "uint256",
              "name": "_openMPHTokenAmount",
              "type": "uint256"
            },
            {
              "internalType": "bool",
              "name": "_tradeDirection",
              "type": "bool"
            },
            {
              "internalType": "uint256",
              "name": "_orderLeverage",
              "type": "uint256"
            },
            {
              "internalType": "uint256",
              "name": "_onlyIfPriceAbove",
              "type": "uint256"
            },
            {
              "internalType": "uint256",
              "name": "_onlyIfPriceBelow",
              "type": "uint256"
            },
            {
              "internalType": "uint256",
              "name": "_goodUntil",
              "type": "uint256"
            },
            {
              "internalType": "uint256",
              "name": "_goodFrom",
              "type": "uint256"
            }
          ],
          "internalType": "struct MorpherOracle.CreateOrderStruct",
          "name": "createOrderParams",
          "type": "tuple"
        },
        {
          "internalType": "address",
          "name": "_addressPositionOwner",
          "type": "address"
        },
        {
          "internalType": "uint256",
          "name": "deadline",
          "type": "uint256"
        },
        {
          "internalType": "uint8",
          "name": "v",
          "type": "uint8"
        },
        {
          "internalType": "bytes32",
          "name": "r",
          "type": "bytes32"
        },
        {
          "internalType": "bytes32",
          "name": "s",
          "type": "bytes32"
        }
      ],
      "name": "createOrderPermittedBySignature",
      "outputs": [],
      "stateMutability": "nonpayable",
      "type": "function"
    },
    {
      "inputs": [
        {
          "internalType": "address",
          "name": "owner",
          "type": "address"
        }
      ],
      "name": "nonces",
      "outputs": [
        {
          "internalType": "uint256",
          "name": "",
          "type": "uint256"
        }
      ],
      "stateMutability": "view",
      "type": "function"
    },
    {
      "inputs": [],
      "name": "DOMAIN_SEPARATOR",
      "outputs": [
        {
          "internalType": "bytes32",
          "name": "",
          "type": "bytes32"
        }
      ],
      "stateMutability": "view",
      "type": "function"
    },
    {
      "inputs": [
        {
          "internalType": "bytes32",
          "name": "_orderId",
          "type": "bytes32"
        }
      ],
      "name": "initiateCancelOrder",
      "outputs": [],
      "stateMutability": "nonpayable",
      "type": "function"
    },
    {
      "inputs": [
        {
          "internalType": "bytes32",
          "name": "_orderId",
          "type": "bytes32"
        }
      ],
      "name": "cancelOrder",
      "outputs": [],
      "stateMutability": "nonpayable",
      "type": "function"
    },
    {
      "inputs": [
        {
          "internalType": "bytes32",
          "name": "_orderId",
          "type": "bytes32"
        }
      ],
      "name": "adminCancelOrder",
      "outputs": [],
      "stateMutability": "nonpayable",
      "type": "function"
    },
    {
      "inputs": [
        {
          "internalType": "bytes32",
          "name": "_orderId",
          "type": "bytes32"
        },
        {
          "internalType": "uint256",
          "name": "_price",
          "type": "uint256"
        }
      ],
      "name": "checkOrderConditions",
      "outputs": [
        {
          "internalType": "bool",
          "name": "_conditionsMet",
          "type": "bool"
        }
      ],
      "stateMutability": "view",
      "type": "function"
    },
    {
      "inputs": [],
      "name": "pause",
      "outputs": [],
      "stateMutability": "nonpayable",
      "type": "function"
    },
    {
      "inputs": [],
      "name": "unpause",
      "outputs": [],
      "stateMutability": "nonpayable",
      "type": "function"
    },
    {
      "inputs": [
        {
          "internalType": "address",
          "name": "_address",
          "type": "address"
        },
        {
          "internalType": "bytes32",
          "name": "_marketId",
          "type": "bytes32"
        }
      ],
      "name": "createLiquidationOrder",
      "outputs": [
        {
          "internalType": "bytes32",
          "name": "_orderId",
          "type": "bytes32"
        }
      ],
      "stateMutability": "payable",
      "type": "function"
    },
    {
      "inputs": [
        {
          "internalType": "bytes32",
          "name": "_orderId",
          "type": "bytes32"
        },
        {
          "internalType": "uint256",
          "name": "_price",
          "type": "uint256"
        },
        {
          "internalType": "uint256",
          "name": "_unadjustedMarketPrice",
          "type": "uint256"
        },
        {
          "internalType": "uint256",
          "name": "_spread",
          "type": "uint256"
        },
        {
          "internalType": "uint256",
          "name": "_liquidationTimestamp",
          "type": "uint256"
        },
        {
          "internalType": "uint256",
          "name": "_timeStamp",
          "type": "uint256"
        },
        {
          "internalType": "uint256",
          "name": "_gasForNextCallback",
          "type": "uint256"
        }
      ],
      "name": "__callback",
      "outputs": [
        {
          "components": [
            {
              "internalType": "uint256",
              "name": "lastUpdated",
              "type": "uint256"
            },
            {
              "internalType": "uint256",
              "name": "longShares",
              "type": "uint256"
            },
            {
              "internalType": "uint256",
              "name": "shortShares",
              "type": "uint256"
            },
            {
              "internalType": "uint256",
              "name": "meanEntryPrice",
              "type": "uint256"
            },
            {
              "internalType": "uint256",
              "name": "meanEntrySpread",
              "type": "uint256"
            },
            {
              "internalType": "uint256",
              "name": "meanEntryLeverage",
              "type": "uint256"
            },
            {
              "internalType": "uint256",
              "name": "liquidationPrice",
              "type": "uint256"
            },
            {
              "internalType": "bytes32",
              "name": "positionHash",
              "type": "bytes32"
            }
          ],
          "internalType": "struct MorpherTradeEngine.position",
          "name": "createdPosition",
          "type": "tuple"
        }
      ],
      "stateMutability": "nonpayable",
      "type": "function"
    },
    {
      "inputs": [
        {
          "internalType": "bytes32",
          "name": "_marketId",
          "type": "bytes32"
        },
        {
          "internalType": "bool",
          "name": "_startFromScratch",
          "type": "bool"
        }
      ],
      "name": "delistMarket",
      "outputs": [],
      "stateMutability": "nonpayable",
      "type": "function"
    },
    {
      "inputs": [
        {
          "internalType": "address",
          "name": "_address",
          "type": "address"
        },
        {
          "internalType": "bytes32",
          "name": "_marketId",
          "type": "bytes32"
        }
      ],
      "name": "adminLiquidationOrder",
      "outputs": [
        {
          "internalType": "bytes32",
          "name": "_orderId",
          "type": "bytes32"
        }
      ],
      "stateMutability": "nonpayable",
      "type": "function"
    },
    {
      "inputs": [
        {
          "internalType": "uint256",
          "name": "orderId",
          "type": "uint256"
        }
      ],
      "name": "getTradeEngineFromOrderId",
      "outputs": [
        {
          "internalType": "address",
          "name": "",
          "type": "address"
        }
      ],
      "stateMutability": "view",
      "type": "function"
    }
  ],
  "bytecode": "0x608060405234801561000f575f80fd5b506140ad8061001d5f395ff3fe608060405260043610610228575f3560e01c80637848d1df11610129578063aeb2cc33116100a8578063d99f86741161006d578063d99f867414610732578063e087e3ce14610752578063e63ab1e91461077d578063f45edb5f146107b0578063f51ff221146107d0575f80fd5b8063aeb2cc331461065f578063b95e437b1461068a578063c7f4532d146106a9578063caac6c82146106d4578063d204bc6c14610707575f80fd5b806385e75e72116100ee57806385e75e72146105ad57806388deab73146105cc5780638adbe72f146105eb578063982aaf6b1461061957806399614d181461064c575f80fd5b80637848d1df146104bd5780637dd63e1d146104dc5780637e031af21461055b5780637ecebe001461057a5780638456cb5914610599575f80fd5b80633f4ba83a116101b557806367aa1e0f1161017a57806367aa1e0f146103ff5780636b0ed36e1461041e578063712ac56d1461044c5780637489ec231461047f57806374d940241461049e575f80fd5b80633f4ba83a146103575780634c79fdf91461036b57806350a5fdef146103a25780635c975abb146103b55780635d2dab0b146103cc575f80fd5b80632ac21a48116101fb5780632ac21a48146102a75780633644e515146102c7578063372c12b1146102db57806338bd3ad1146103195780633a196bab14610338575f80fd5b806316afdfd31461022c5780631794bb3c146102545780631c4c7fd814610275578063290893c814610294575b5f80fd5b348015610237575f80fd5b5061024160665481565b6040519081526020015b60405180910390f35b34801561025f575f80fd5b5061027361026e366004613936565b6107ef565b005b348015610280575f80fd5b5061027361028f366004613974565b610899565b6102416102a2366004613a62565b610a0f565b3480156102b2575f80fd5b506102415f8051602061405883398151915281565b3480156102d2575f80fd5b5061024161103a565b3480156102e6575f80fd5b506103096102f5366004613974565b60696020525f908152604090205460ff1681565b604051901515815260200161024b565b348015610324575f80fd5b50610273610333366004613a7d565b611048565b348015610343575f80fd5b50610273610352366004613a94565b611321565b348015610362575f80fd5b506102736117a7565b348015610376575f80fd5b5061038a610385366004613a7d565b6118dc565b6040516001600160a01b03909116815260200161024b565b6102416103b0366004613ac2565b61194d565b3480156103c0575f80fd5b5060335460ff16610309565b3480156103d7575f80fd5b506102417f8b73c3c69bb8fe3d512ecc4cf759cc79239f7b179b0ffacaa9a75d522b39400f81565b34801561040a575f80fd5b5060675461038a906001600160a01b031681565b348015610429575f80fd5b50610309610438366004613a7d565b606e6020525f908152604090205460ff1681565b348015610457575f80fd5b506102417fc89efdaa54c0f20c7adf612882df0950f5a951637e0307cdcb4c672f298b8bc681565b34801561048a575f80fd5b50610273610499366004613a7d565b611c37565b3480156104a9575f80fd5b506102736104b8366004613a7d565b611f8f565b3480156104c8575f80fd5b506102416104d7366004613ac2565b6121c8565b3480156104e7575f80fd5b506104fb6104f6366004613aec565b61268d565b60405161024b91905f61010082019050825182526020830151602083015260408301516040830152606083015160608301526080830151608083015260a083015160a083015260c083015160c083015260e083015160e083015292915050565b348015610566575f80fd5b50610309610575366004613b33565b612a1f565b348015610585575f80fd5b50610241610594366004613974565b612b49565b3480156105a4575f80fd5b50610273612b66565b3480156105b8575f80fd5b506102736105c7366004613a7d565b612c98565b3480156105d7575f80fd5b506102736105e6366004613974565b612de4565b3480156105f6575f80fd5b50610309610605366004613974565b60686020525f908152604090205460ff1681565b348015610624575f80fd5b506102417f7fd20421357a1c20062b0fca45106216b1f0c9af8635225c603297387ba5269581565b61024161065a366004613b53565b612f49565b34801561066a575f80fd5b50610241610679366004613a7d565b606b6020525f908152604090205481565b348015610695575f80fd5b506102736106a4366004613bbc565b612fd0565b3480156106b4575f80fd5b506102416106c3366004613a7d565b606d6020525f908152604090205481565b3480156106df575f80fd5b506102417fca82a94b3c35be4fb8e06faa102ba96b016e9c5dd45f747224333f012bfd5e6a81565b348015610712575f80fd5b50610241610721366004613a7d565b606a6020525f908152604090205481565b34801561073d575f80fd5b5060655461030990600160a01b900460ff1681565b34801561075d575f80fd5b5061024161076c366004613a7d565b606c6020525f908152604090205481565b348015610788575f80fd5b506102417f65d7a28e3265b37a6474929f336521b332c1681b933f6cb9f3376673440d862a81565b3480156107bb575f80fd5b506102415f8051602061403883398151915281565b3480156107db575f80fd5b506102736107ea366004613c45565b61316a565b5f6107fa6001613312565b90508015610811575f805461ff0019166101001790555b610819613396565b6108216133be565b606580546001600160a01b0319166001600160a01b03861617905561084583612de4565b61084e826133ec565b8015610893575f805461ff0019169055604051600181527f7f26b83ff96e1f2b6a682f133852f6798a09c465da95921460cefb38474024989060200160405180910390a15b50505050565b60655460408051630140cb6560e51b815290515f80516020614038833981519152926001600160a01b0316916328196ca09160048083019260209291908290030181865afa1580156108ed573d5f803e3d5ffd5b505050506040513d601f19601f820116820180604052508101906109119190613cb0565b6001600160a01b03166391d1485482610928613427565b6040516001600160e01b031960e085901b16815260048101929092526001600160a01b03166024820152604401602060405180830381865afa158015610970573d5f803e3d5ffd5b505050506040513d601f19601f820116820180604052508101906109949190613ccb565b6109b95760405162461bcd60e51b81526004016109b090613ce6565b60405180910390fd5b606580546001600160a01b0319166001600160a01b0384169081179091556040519081527f9ceaf926f42b3faf9a5f7f52388397891ad1608576994e5c3b2d055a09bb225f906020015b60405180910390a15050565b5f610a1c60335460ff1690565b15610a395760405162461bcd60e51b81526004016109b090613d27565b60665415610a9b57606654341015610a635760405162461bcd60e51b81526004016109b090613d51565b6067546040516001600160a01b03909116903480156108fc02915f818181858888f19350505050158015610a99573d5f803e3d5ffd5b505b60655f9054906101000a90046001600160a01b03166001600160a01b031663d37afa8d6040518163ffffffff1660e01b8152600401602060405180830381865afa158015610aeb573d5f803e3d5ffd5b505050506040513d601f19601f82011682018060405250810190610b0f9190613cb0565b6001600160a01b031663ac8f6f7f610b25613427565b84516020860151604080880151606089015160808a015192516001600160e01b031960e089901b168152610b5f9695949390600401613dbb565b6020604051808303815f875af1158015610b7b573d5f803e3d5ffd5b505050506040513d601f19601f82011682018060405250810190610b9f9190613df0565b6065548351604051634a4cce9760e01b815260048101919091529192506001600160a01b031690634a4cce9790602401602060405180830381865afa158015610bea573d5f803e3d5ffd5b505050506040513d601f19601f82011682018060405250810190610c0e9190613ccb565b15155f03610f475760655f9054906101000a90046001600160a01b03166001600160a01b031663d37afa8d6040518163ffffffff1660e01b8152600401602060405180830381865afa158015610c66573d5f803e3d5ffd5b505050506040513d601f19601f82011682018060405250810190610c8a9190613cb0565b6001600160a01b03166316f77a5b8260655f9054906101000a90046001600160a01b03166001600160a01b031663d37afa8d6040518163ffffffff1660e01b8152600401602060405180830381865afa158015610ce9573d5f803e3d5ffd5b505050506040513d601f19601f82011682018060405250810190610d0d9190613cb0565b85516040516351c37dab60e11b81526001600160a01b03929092169163a386fb5691610d3f9160040190815260200190565b602060405180830381865afa158015610d5a573d5f803e3d5ffd5b505050506040513d601f19601f82011682018060405250810190610d7e9190613df0565b5f80610d8c426103e8613e1b565b6040516001600160e01b031960e088901b1681526004810195909552602485019390935260448401919091526064830152608482015260a401610100604051808303815f875af1158015610de2573d5f803e3d5ffd5b505050506040513d601f19601f82011682018060405250810190610e069190613e32565b50807ff45eeb03060db0baf36cec20acde5e8464f49340c9877c55029d6ffe0e5cdac160655f9054906101000a90046001600160a01b03166001600160a01b031663d37afa8d6040518163ffffffff1660e01b8152600401602060405180830381865afa158015610e79573d5f803e3d5ffd5b505050506040513d601f19601f82011682018060405250810190610e9d9190613cb0565b84516040516351c37dab60e11b81526001600160a01b03929092169163a386fb5691610ecf9160040190815260200190565b602060405180830381865afa158015610eea573d5f803e3d5ffd5b505050506040513d601f19601f82011682018060405250810190610f0e9190613df0565b5f8080610f1d426103e8613e1b565b5f805f805f80604051610f3a9b9a99989796959493929190613ecc565b60405180910390a2919050565b60a08201515f828152606b602090815260408083209390935560c0850151606a825283832055610100850151606c82528383205560e0850151606d909152919020558151610f93613427565b6001600160a01b0316827fc7392b9822094f2dca86d2a7a97945e80918a8aee61c04de90253f3683b5695085602001518660400151876060015188608001518960c001518a60a001518b61010001518c60e0015160405161102c989796959493929190978852602088019690965293151560408701526060860192909252608085015260a084015260c083015260e08201526101000190565b60405180910390a45b919050565b5f61104361344f565b905090565b60655460408051630140cb6560e51b815290515f80516020614058833981519152926001600160a01b0316916328196ca09160048083019260209291908290030181865afa15801561109c573d5f803e3d5ffd5b505050506040513d601f19601f820116820180604052508101906110c09190613cb0565b6001600160a01b03166391d14854826110d7613427565b6040516001600160e01b031960e085901b16815260048101929092526001600160a01b03166024820152604401602060405180830381865afa15801561111f573d5f803e3d5ffd5b505050506040513d601f19601f820116820180604052508101906111439190613ccb565b61115f5760405162461bcd60e51b81526004016109b090613ce6565b6065546040805163d37afa8d60e01b815290515f926001600160a01b03169163d37afa8d9160048083019260209291908290030181865afa1580156111a6573d5f803e3d5ffd5b505050506040513d601f19601f820116820180604052508101906111ca9190613cb0565b604051632bbc239560e11b8152600481018590529091505f906001600160a01b03831690635778472a9060240160e060405180830381865afa158015611212573d5f803e3d5ffd5b505050506040513d601f19601f820116820180604052508101906112369190613f1a565b5050604051636b0d76bd60e11b8152600481018a90526001600160a01b0380871660248301529596509487169463d61aed7a94506044019250611277915050565b5f604051808303815f87803b15801561128e575f80fd5b505af11580156112a0573d5f803e3d5ffd5b5050505f858152606b60209081526040808320839055606a8252808320839055606c8252808320839055606d909152812055506112db613427565b6001600160a01b0316816001600160a01b0316857fbda7bebff2a349d53ff61a2f625aba38b63add7de03f20f568c660aaf3c61f5160405160405180910390a450505050565b60655460408051630140cb6560e51b815290515f80516020614038833981519152926001600160a01b0316916328196ca09160048083019260209291908290030181865afa158015611375573d5f803e3d5ffd5b505050506040513d601f19601f820116820180604052508101906113999190613cb0565b6001600160a01b03166391d14854826113b0613427565b6040516001600160e01b031960e085901b16815260048101929092526001600160a01b03166024820152604401602060405180830381865afa1580156113f8573d5f803e3d5ffd5b505050506040513d601f19601f8201168201806040525081019061141c9190613ccb565b6114385760405162461bcd60e51b81526004016109b090613ce6565b606554604051634a4cce9760e01b8152600481018590526001600160a01b0390911690634a4cce9790602401602060405180830381865afa15801561147f573d5f803e3d5ffd5b505050506040513d601f19601f820116820180604052508101906114a39190613ccb565b151560011461151a5760405162461bcd60e51b815260206004820152603760248201527f4d61726b6574206d7573742062652061637469766520746f2070726f6365737360448201527f20706f736974696f6e206c69717569646174696f6e732e00000000000000000060648201526084016109b0565b8115611525575f6071555b6065546040805163d37afa8d60e01b815290515f926001600160a01b03169163d37afa8d9160048083019260209291908290030181865afa15801561156c573d5f803e3d5ffd5b505050506040513d601f19601f820116820180604052508101906115909190613cb0565b6001600160a01b031663ef92f831856040518263ffffffff1660e01b81526004016115bd91815260200190565b602060405180830381865afa1580156115d8573d5f803e3d5ffd5b505050506040513d601f19601f820116820180604052508101906115fc9190613df0565b6071549091505f905b82811161176c576203d0905a10801561161e5750828114155b1561166957607181905560408051878152602081018590527f6f7e2b4e250b68477086154afade591035c41aae27a60e044260f031e0f6a1ff910160405180910390a1505050505050565b60655f9054906101000a90046001600160a01b03166001600160a01b031663d37afa8d6040518163ffffffff1660e01b8152600401602060405180830381865afa1580156116b9573d5f803e3d5ffd5b505050506040513d601f19601f820116820180604052508101906116dd9190613cb0565b604051632d7b42c160e01b815260048101889052602481018390526001600160a01b039190911690632d7b42c190604401602060405180830381865afa158015611729573d5f803e3d5ffd5b505050506040513d601f19601f8201168201806040525081019061174d9190613cb0565b915061175982876121c8565b508061176481613f72565b915050611605565b506040518581527f89d629fd4446c04fb00ba5e14060971d7cc08049bb55786f1bb8d4294a5bb95c9060200160405180910390a15050505050565b60655460408051630140cb6560e51b815290517f65d7a28e3265b37a6474929f336521b332c1681b933f6cb9f3376673440d862a926001600160a01b0316916328196ca09160048083019260209291908290030181865afa15801561180e573d5f803e3d5ffd5b505050506040513d601f19601f820116820180604052508101906118329190613cb0565b6001600160a01b03166391d1485482611849613427565b6040516001600160e01b031960e085901b16815260048101929092526001600160a01b03166024820152604401602060405180830381865afa158015611891573d5f803e3d5ffd5b505050506040513d601f19601f820116820180604052508101906118b59190613ccb565b6118d15760405162461bcd60e51b81526004016109b090613ce6565b6118d96134f2565b50565b6065546040805163d37afa8d60e01b815290515f926001600160a01b03169163d37afa8d9160048083019260209291908290030181865afa158015611923573d5f803e3d5ffd5b505050506040513d601f19601f820116820180604052508101906119479190613cb0565b92915050565b5f61195a60335460ff1690565b156119775760405162461bcd60e51b81526004016109b090613d27565b60655460408051630140cb6560e51b815290515f80516020614058833981519152926001600160a01b0316916328196ca09160048083019260209291908290030181865afa1580156119cb573d5f803e3d5ffd5b505050506040513d601f19601f820116820180604052508101906119ef9190613cb0565b6001600160a01b03166391d1485482611a06613427565b6040516001600160e01b031960e085901b16815260048101929092526001600160a01b03166024820152604401602060405180830381865afa158015611a4e573d5f803e3d5ffd5b505050506040513d601f19601f82011682018060405250810190611a729190613ccb565b611a8e5760405162461bcd60e51b81526004016109b090613ce6565b60665415611af057606654341015611ab85760405162461bcd60e51b81526004016109b090613d51565b6067546040516001600160a01b03909116903480156108fc02915f818181858888f19350505050158015611aee573d5f803e3d5ffd5b505b60655f9054906101000a90046001600160a01b03166001600160a01b031663d37afa8d6040518163ffffffff1660e01b8152600401602060405180830381865afa158015611b40573d5f803e3d5ffd5b505050506040513d601f19601f82011682018060405250810190611b649190613cb0565b6001600160a01b031663ac8f6f7f85855f8060016305f5e1006040518763ffffffff1660e01b8152600401611b9e96959493929190613dbb565b6020604051808303815f875af1158015611bba573d5f803e3d5ffd5b505050506040513d601f19601f82011682018060405250810190611bde9190613df0565b915082846001600160a01b0316837f1e73a21af9c77a375ee7275ea920afd5c4b6170bc8e21c0cfeeae8139a3cea09611c15613427565b6040516001600160a01b03909116815260200160405180910390a45092915050565b60655460408051630140cb6560e51b815290515f80516020614058833981519152926001600160a01b0316916328196ca09160048083019260209291908290030181865afa158015611c8b573d5f803e3d5ffd5b505050506040513d601f19601f82011682018060405250810190611caf9190613cb0565b6001600160a01b03166391d1485482611cc6613427565b6040516001600160e01b031960e085901b16815260048101929092526001600160a01b03166024820152604401602060405180830381865afa158015611d0e573d5f803e3d5ffd5b505050506040513d601f19601f82011682018060405250810190611d329190613ccb565b611d4e5760405162461bcd60e51b81526004016109b090613ce6565b5f828152606e602052604090205460ff161515600114611dcd5760405162461bcd60e51b815260206004820152603460248201527f4d6f72706865724f7261636c653a204f726465722d43616e63656c6c6174696f60448201527337103bb0b9903737ba103932b8bab2b9ba32b21760611b60648201526084016109b0565b6065546040805163d37afa8d60e01b815290515f926001600160a01b03169163d37afa8d9160048083019260209291908290030181865afa158015611e14573d5f803e3d5ffd5b505050506040513d601f19601f82011682018060405250810190611e389190613cb0565b604051632bbc239560e11b8152600481018590529091505f906001600160a01b03831690635778472a9060240160e060405180830381865afa158015611e80573d5f803e3d5ffd5b505050506040513d601f19601f82011682018060405250810190611ea49190613f1a565b5050604051636b0d76bd60e11b8152600481018a90526001600160a01b0380871660248301529596509487169463d61aed7a94506044019250611ee5915050565b5f604051808303815f87803b158015611efc575f80fd5b505af1158015611f0e573d5f803e3d5ffd5b5050505f858152606b60209081526040808320839055606a8252808320839055606c8252808320839055606d90915281205550611f49613427565b6001600160a01b0316816001600160a01b0316857f6bacc01dbe442496068f7d234edd811f1a5f833243e0aec824f86ab861f3c90d60405160405180910390a450505050565b6065546040805163d37afa8d60e01b815290515f926001600160a01b03169163d37afa8d9160048083019260209291908290030181865afa158015611fd6573d5f803e3d5ffd5b505050506040513d601f19601f82011682018060405250810190611ffa9190613cb0565b5f838152606e602052604090205490915060ff161561206e5760405162461bcd60e51b815260206004820152602a60248201527f4d6f72706865724f7261636c653a204f726465722077617320616c72656164796044820152691031b0b731b2b632b21760b11b60648201526084016109b0565b604051632bbc239560e11b8152600481018390525f906001600160a01b03831690635778472a9060240160e060405180830381865afa1580156120b3573d5f803e3d5ffd5b505050506040513d601f19601f820116820180604052508101906120d79190613f1a565b50505050505090506120e7613427565b6001600160a01b0316816001600160a01b03161461216d5760405162461bcd60e51b815260206004820152603f60248201527f4d6f72706865724f7261636c653a204f6e6c792074686520757365722063616e60448201527f207265717565737420616e206f726465722063616e63656c6c6174696f6e2e0060648201526084016109b0565b5f838152606e60205260409020805460ff1916600117905561218d613427565b6001600160a01b0316837f02487731041c5966b7038b3e0d347a232658f9e76e79848ed5fa003ca5f2506360405160405180910390a3505050565b5f5f8051602061403883398151915260655f9054906101000a90046001600160a01b03166001600160a01b03166328196ca06040518163ffffffff1660e01b8152600401602060405180830381865afa158015612227573d5f803e3d5ffd5b505050506040513d601f19601f8201168201806040525081019061224b9190613cb0565b6001600160a01b03166391d1485482612262613427565b6040516001600160e01b031960e085901b16815260048101929092526001600160a01b03166024820152604401602060405180830381865afa1580156122aa573d5f803e3d5ffd5b505050506040513d601f19601f820116820180604052508101906122ce9190613ccb565b6122ea5760405162461bcd60e51b81526004016109b090613ce6565b6065546040805163d37afa8d60e01b815290515f926001600160a01b03169163d37afa8d9160048083019260209291908290030181865afa158015612331573d5f803e3d5ffd5b505050506040513d601f19601f820116820180604052508101906123559190613cb0565b6040516307d47a8b60e11b81526001600160a01b038781166004830152602482018790529190911690630fa8f5169060440161010060405180830381865afa1580156123a3573d5f803e3d5ffd5b505050506040513d601f19601f820116820180604052508101906123c79190613e32565b6020810151909150156125295760655f9054906101000a90046001600160a01b03166001600160a01b031663d37afa8d6040518163ffffffff1660e01b8152600401602060405180830381865afa158015612424573d5f803e3d5ffd5b505050506040513d601f19601f820116820180604052508101906124489190613cb0565b6001600160a01b031663ac8f6f7f868684602001515f806305f5e1006040518763ffffffff1660e01b815260040161248596959493929190613dbb565b6020604051808303815f875af11580156124a1573d5f803e3d5ffd5b505050506040513d601f19601f820116820180604052508101906124c59190613df0565b602080830151604080519182525f9282018390528101919091526305f5e100606082015290935084906001600160a01b0387169085907f68909f9be64c2fb9036bc6c47d8cff89160ee7f28d4e14082931cfcc8e980d779060800160405180910390a45b6040810151156126855760655f9054906101000a90046001600160a01b03166001600160a01b031663d37afa8d6040518163ffffffff1660e01b8152600401602060405180830381865afa158015612583573d5f803e3d5ffd5b505050506040513d601f19601f820116820180604052508101906125a79190613cb0565b6001600160a01b031663ac8f6f7f868684604001515f60016305f5e1006040518763ffffffff1660e01b81526004016125e596959493929190613dbb565b6020604051808303815f875af1158015612601573d5f803e3d5ffd5b505050506040513d601f19601f820116820180604052508101906126259190613df0565b60408281015181519081525f60208201526001818301526305f5e1006060820152905191945085916001600160a01b0388169186917f68909f9be64c2fb9036bc6c47d8cff89160ee7f28d4e14082931cfcc8e980d779181900360800190a45b505092915050565b6126d06040518061010001604052805f81526020015f81526020015f81526020015f81526020015f81526020015f81526020015f81526020015f80191681525090565b60655460408051630140cb6560e51b815290515f80516020614058833981519152926001600160a01b0316916328196ca09160048083019260209291908290030181865afa158015612724573d5f803e3d5ffd5b505050506040513d601f19601f820116820180604052508101906127489190613cb0565b6001600160a01b03166391d148548261275f613427565b6040516001600160e01b031960e085901b16815260048101929092526001600160a01b03166024820152604401602060405180830381865afa1580156127a7573d5f803e3d5ffd5b505050506040513d601f19601f820116820180604052508101906127cb9190613ccb565b6127e75760405162461bcd60e51b81526004016109b090613ce6565b60335460ff161561280a5760405162461bcd60e51b81526004016109b090613d27565b6128148989612a1f565b61287a5760405162461bcd60e51b815260206004820152603160248201527f4d6f72706865724f7261636c65204572726f723a204f7264657220436f6e64696044820152701d1a5bdb9cc8185c99481b9bdd081b595d607a1b60648201526084016109b0565b60655f9054906101000a90046001600160a01b03166001600160a01b031663d37afa8d6040518163ffffffff1660e01b8152600401602060405180830381865afa1580156128ca573d5f803e3d5ffd5b505050506040513d601f19601f820116820180604052508101906128ee9190613cb0565b6040516316f77a5b60e01b8152600481018b9052602481018a90526044810188905260648101879052608481018690526001600160a01b0391909116906316f77a5b9060a401610100604051808303815f875af1158015612951573d5f803e3d5ffd5b505050506040513d601f19601f820116820180604052508101906129759190613e32565b5f8a8152606b60209081526040808320839055606a8252808320839055606c8252808320839055606d9091528120559150887ff45eeb03060db0baf36cec20acde5e8464f49340c9877c55029d6ffe0e5cdac18989898989886020015189604001518a606001518b608001518c60a001518d60c00151604051612a029b9a99989796959493929190613ecc565b60405180910390a2612a13836133ec565b50979650505050505050565b5f828152606d602052604090205460019042118015612a4a57505f838152606d602052604090205415155b15612a5257505f5b5f838152606c602052604090205442108015612a7a57505f838152606c602052604090205415155b15612a8257505f5b5f838152606b602052604090205415801590612aaa57505f838152606a602052604090205415155b15612ae4575f838152606b602052604090205482108015612ad757505f838152606a602052604090205482115b15612adf57505f5b611947565b5f838152606b602052604090205482108015612b0c57505f838152606b602052604090205415155b15612b1457505f5b5f838152606a602052604090205482118015612b3c57505f838152606a602052604090205415155b1561194757505f92915050565b6001600160a01b0381165f908152606f6020526040812054611947565b60655460408051630140cb6560e51b815290517f65d7a28e3265b37a6474929f336521b332c1681b933f6cb9f3376673440d862a926001600160a01b0316916328196ca09160048083019260209291908290030181865afa158015612bcd573d5f803e3d5ffd5b505050506040513d601f19601f82011682018060405250810190612bf19190613cb0565b6001600160a01b03166391d1485482612c08613427565b6040516001600160e01b031960e085901b16815260048101929092526001600160a01b03166024820152604401602060405180830381865afa158015612c50573d5f803e3d5ffd5b505050506040513d601f19601f82011682018060405250810190612c749190613ccb565b612c905760405162461bcd60e51b81526004016109b090613ce6565b6118d961358b565b60655460408051630140cb6560e51b815290515f80516020614038833981519152926001600160a01b0316916328196ca09160048083019260209291908290030181865afa158015612cec573d5f803e3d5ffd5b505050506040513d601f19601f82011682018060405250810190612d109190613cb0565b6001600160a01b03166391d1485482612d27613427565b6040516001600160e01b031960e085901b16815260048101929092526001600160a01b03166024820152604401602060405180830381865afa158015612d6f573d5f803e3d5ffd5b505050506040513d601f19601f82011682018060405250810190612d939190613ccb565b612daf5760405162461bcd60e51b81526004016109b090613ce6565b60668290556040518281527f0a20b6289d596db2ac25c70c6c69f5e39361ed00454ab483397db8c744ec0b3190602001610a03565b60655460408051630140cb6560e51b815290515f80516020614038833981519152926001600160a01b0316916328196ca09160048083019260209291908290030181865afa158015612e38573d5f803e3d5ffd5b505050506040513d601f19601f82011682018060405250810190612e5c9190613cb0565b6001600160a01b03166391d1485482612e73613427565b6040516001600160e01b031960e085901b16815260048101929092526001600160a01b03166024820152604401602060405180830381865afa158015612ebb573d5f803e3d5ffd5b505050506040513d601f19601f82011682018060405250810190612edf9190613ccb565b612efb5760405162461bcd60e51b81526004016109b090613ce6565b606780546001600160a01b0319166001600160a01b0384169081179091556040519081527f1cd1802fd5b9e82a19a67f7a572c9be656c58ffe140184139d1708b2cfe3a8dc90602001610a03565b5f612f5660335460ff1690565b15612f735760405162461bcd60e51b81526004016109b090613d27565b5f6040518061012001604052808c81526020018b81526020018a81526020018915158152602001888152602001878152602001868152602001858152602001848152509050612fc181610a0f565b9b9a5050505050505050505050565b60655460408051630140cb6560e51b815290515f80516020614058833981519152926001600160a01b0316916328196ca09160048083019260209291908290030181865afa158015613024573d5f803e3d5ffd5b505050506040513d601f19601f820116820180604052508101906130489190613cb0565b6001600160a01b03166391d148548261305f613427565b6040516001600160e01b031960e085901b16815260048101929092526001600160a01b03166024820152604401602060405180830381865afa1580156130a7573d5f803e3d5ffd5b505050506040513d601f19601f820116820180604052508101906130cb9190613ccb565b6130e75760405162461bcd60e51b81526004016109b090613ce6565b604080518a8152602081018a905288151581830152606081018890526080810187905260a0810186905260c0810185905260e0810184905290518b916001600160a01b038e16918f917fe27c49d1eafe79b2bc5109b33b96343dba653822906061750c5b6f591b8c753191908190036101000190a4505050505050505050505050565b834211156131ba5760405162461bcd60e51b815260206004820152601f60248201527f4d6f72706865724f7261636c653a206578706972656420646561646c696e650060448201526064016109b0565b5f7f7fd20421357a1c20062b0fca45106216b1f0c9af8635225c603297387ba52695875f015188602001518960400151896132118b6001600160a01b03165f908152606f6020526040902080546001810190915590565b604080516020810197909752860194909452606085019290925260808401526001600160a01b031660a083015260c082015260e08101869052610100016040516020818303038152906040528051906020012090505f613270826135e4565b90505f61327f82878787613630565b9050876001600160a01b0316816001600160a01b0316146132e25760405162461bcd60e51b815260206004820181905260248201527f4d6f72706865724f7261636c653a20696e76616c6964207369676e617475726560448201526064016109b0565b607080546001600160a01b0319166001600160a01b038a1617905561330689610a0f565b50505050505050505050565b5f8054610100900460ff1615613357578160ff1660011480156133345750303b155b6133505760405162461bcd60e51b81526004016109b090613f8a565b505f919050565b5f5460ff80841691161061337d5760405162461bcd60e51b81526004016109b090613f8a565b505f805460ff191660ff92909216919091179055600190565b5f54610100900460ff166133bc5760405162461bcd60e51b81526004016109b090613fd8565b565b5f54610100900460ff166133e45760405162461bcd60e51b81526004016109b090613fd8565b6133bc613656565b60668190556040518181527f0a20b6289d596db2ac25c70c6c69f5e39361ed00454ab483397db8c744ec0b319060200160405180910390a150565b6070545f906001600160a01b03161561344a57506070546001600160a01b031690565b503390565b604080517f8b73c3c69bb8fe3d512ecc4cf759cc79239f7b179b0ffacaa9a75d522b39400f6020808301919091527fca82a94b3c35be4fb8e06faa102ba96b016e9c5dd45f747224333f012bfd5e6a828401527fc89efdaa54c0f20c7adf612882df0950f5a951637e0307cdcb4c672f298b8bc660608301524660808301523060a0808401919091528351808403909101815260c0909201909252805191012090565b60335460ff1661353b5760405162461bcd60e51b815260206004820152601460248201527314185d5cd8589b194e881b9bdd081c185d5cd95960621b60448201526064016109b0565b6033805460ff191690557f5db9ee0a495bf2e6ff9c91a7834c1ba4fdd244a5e8aa4e537bd38aeae4b073aa61356e613427565b6040516001600160a01b03909116815260200160405180910390a1565b60335460ff16156135ae5760405162461bcd60e51b81526004016109b090613d27565b6033805460ff191660011790557f62e78cea01bee320cd4e420270b5ea74000d11b0c9f74754ebdbfc544b05a25861356e613427565b5f6119476135f061344f565b8360405161190160f01b602082015260228101839052604281018290525f9060620160405160208183030381529060405280519060200120905092915050565b5f805f61363f87878787613688565b9150915061364c8161376d565b5095945050505050565b5f54610100900460ff1661367c5760405162461bcd60e51b81526004016109b090613fd8565b6033805460ff19169055565b5f807f7fffffffffffffffffffffffffffffff5d576e7357a4501ddfe92f46681b20a08311156136bd57505f90506003613764565b8460ff16601b141580156136d557508460ff16601c14155b156136e557505f90506004613764565b604080515f8082526020820180845289905260ff881692820192909252606081018690526080810185905260019060a0016020604051602081039080840390855afa158015613736573d5f803e3d5ffd5b5050604051601f1901519150506001600160a01b03811661375e575f60019250925050613764565b91505f90505b94509492505050565b5f81600481111561378057613780614023565b036137885750565b600181600481111561379c5761379c614023565b036137e95760405162461bcd60e51b815260206004820152601860248201527f45434453413a20696e76616c6964207369676e6174757265000000000000000060448201526064016109b0565b60028160048111156137fd576137fd614023565b0361384a5760405162461bcd60e51b815260206004820152601f60248201527f45434453413a20696e76616c6964207369676e6174757265206c656e6774680060448201526064016109b0565b600381600481111561385e5761385e614023565b036138b65760405162461bcd60e51b815260206004820152602260248201527f45434453413a20696e76616c6964207369676e6174757265202773272076616c604482015261756560f01b60648201526084016109b0565b60048160048111156138ca576138ca614023565b036118d95760405162461bcd60e51b815260206004820152602260248201527f45434453413a20696e76616c6964207369676e6174757265202776272076616c604482015261756560f01b60648201526084016109b0565b6001600160a01b03811681146118d9575f80fd5b5f805f60608486031215613948575f80fd5b833561395381613922565b9250602084013561396381613922565b929592945050506040919091013590565b5f60208284031215613984575f80fd5b813561398f81613922565b9392505050565b604051610120810167ffffffffffffffff811182821017156139c657634e487b7160e01b5f52604160045260245ffd5b60405290565b80151581146118d9575f80fd5b8035611035816139cc565b5f61012082840312156139f5575f80fd5b6139fd613996565b9050813581526020820135602082015260408201356040820152613a23606083016139d9565b60608201526080820135608082015260a082013560a082015260c082013560c082015260e082013560e082015261010080830135818301525092915050565b5f6101208284031215613a73575f80fd5b61398f83836139e4565b5f60208284031215613a8d575f80fd5b5035919050565b5f8060408385031215613aa5575f80fd5b823591506020830135613ab7816139cc565b809150509250929050565b5f8060408385031215613ad3575f80fd5b8235613ade81613922565b946020939093013593505050565b5f805f805f805f60e0888a031215613b02575f80fd5b505085359760208701359750604087013596606081013596506080810135955060a0810135945060c0013592509050565b5f8060408385031215613b44575f80fd5b50508035926020909101359150565b5f805f805f805f805f6101208a8c031215613b6c575f80fd5b8935985060208a0135975060408a0135965060608a0135613b8c816139cc565b989b979a50959860808101359760a0820135975060c0820135965060e08201359550610100909101359350915050565b5f805f805f805f805f805f6101608c8e031215613bd7575f80fd5b8b359a5060208c0135613be981613922565b995060408c0135985060608c0135975060808c0135965060a08c0135613c0e816139cc565b9a9d999c50979a9699959895975050505060c08401359360e081013593610100820135935061012082013592506101409091013590565b5f805f805f806101c08789031215613c5b575f80fd5b613c6588886139e4565b9550610120870135613c7681613922565b9450610140870135935061016087013560ff81168114613c94575f80fd5b95989497509295610180810135946101a0909101359350915050565b5f60208284031215613cc0575f80fd5b815161398f81613922565b5f60208284031215613cdb575f80fd5b815161398f816139cc565b60208082526021908201527f4d6f72706865724f7261636c653a205065726d697373696f6e2064656e6965646040820152601760f91b606082015260800190565b60208082526010908201526f14185d5cd8589b194e881c185d5cd95960821b604082015260600190565b60208082526044908201527f4d6f72706865724f7261636c653a204d757374207472616e736665722067617360408201527f20636f73747320666f72204f7261636c652043616c6c6261636b2066756e637460608201526334b7b71760e11b608082015260a00190565b6001600160a01b039690961686526020860194909452604085019290925260608401521515608083015260a082015260c00190565b5f60208284031215613e00575f80fd5b5051919050565b634e487b7160e01b5f52601160045260245ffd5b808202811582820484141761194757611947613e07565b5f610100808385031215613e44575f80fd5b6040519081019067ffffffffffffffff82118183101715613e7357634e487b7160e01b5f52604160045260245ffd5b81604052835181526020840151602082015260408401516040820152606084015160608201526080840151608082015260a084015160a082015260c084015160c082015260e084015160e0820152809250505092915050565b9a8b5260208b019990995260408a01979097526060890195909552608088019390935260a087019190915260c086015260e08501526101008401526101208301526101408201526101600190565b5f805f805f805f60e0888a031215613f30575f80fd5b8751613f3b81613922565b602089015160408a015160608b015160808c015160a08d015160c0909d0151949e939d50919b909a50909850965090945092505050565b5f60018201613f8357613f83613e07565b5060010190565b6020808252602e908201527f496e697469616c697a61626c653a20636f6e747261637420697320616c72656160408201526d191e481a5b9a5d1a585b1a5e995960921b606082015260800190565b6020808252602b908201527f496e697469616c697a61626c653a20636f6e7472616374206973206e6f74206960408201526a6e697469616c697a696e6760a81b606082015260800190565b634e487b7160e01b5f52602160045260245ffdfee5a0b4d50f56047f84728557fedbda92f956391bc9d5c762e8461996dd8e7ad7456e80d7f83ecad5376797c2562c7d48cc4873cf784699120b78efad9ba18ecca264697066735822122035860c22d8e855e43b57401d66660fffe94884bd242feca21a51d1afcd5870f764736f6c63430008140033",
  "immutableReferences": {},
  "source": "//SPDX-License-Identifier: GPLv3\r\npragma solidity ^0.8.11;\r\n\r\nimport \"./MorpherTradeEngine.sol\";\r\nimport \"./MorpherState.sol\";\r\nimport \"./MorpherAccessControl.sol\";\r\nimport \"@openzeppelin/contracts-upgradeable/utils/cryptography/MerkleProofUpgradeable.sol\";\r\nimport \"@openzeppelin/contracts-upgradeable/proxy/utils/Initializable.sol\";\r\nimport \"@openzeppelin/contracts-upgradeable/utils/ContextUpgradeable.sol\";\r\nimport \"@openzeppelin/contracts-upgradeable/security/PausableUpgradeable.sol\";\r\nimport \"@openzeppelin/contracts-upgradeable/utils/cryptography/draft-EIP712Upgradeable.sol\";\r\nimport \"@openzeppelin/contracts-upgradeable/utils/cryptography/ECDSAUpgradeable.sol\";\r\nimport \"@openzeppelin/contracts-upgradeable/utils/CountersUpgradeable.sol\";\r\n\r\n\r\n// ----------------------------------------------------------------------------------\r\n// Morpher Oracle contract v 2.0\r\n// The oracle initates a new trade by calling trade engine and requesting a new orderId.\r\n// An event is fired by the contract notifying the oracle operator to query a price/liquidation unchecked\r\n// for a market/user and return the information via the callback function. Since calling\r\n// the callback function requires gas, the user must send a fixed amount of Ether when\r\n// creating their order.\r\n// ----------------------------------------------------------------------------------\r\n\r\ncontract MorpherOracle is Initializable, ContextUpgradeable, PausableUpgradeable {\r\n\r\n    MorpherState state; // read only, Oracle doesn't need writing access to state\r\n\r\n    bool public useWhiteList; //always false at the moment\r\n\r\n    uint256 public gasForCallback;\r\n\r\n    address payable public callBackCollectionAddress;\r\n\r\n    mapping(address => bool) public callBackAddress;\r\n    mapping(address => bool) public whiteList;\r\n    \r\n    mapping(bytes32 => uint256) public priceBelow;\r\n    mapping(bytes32 => uint256) public priceAbove;\r\n    mapping(bytes32 => uint256) public goodFrom;\r\n    mapping(bytes32 => uint256) public goodUntil;\r\n\r\n    mapping(bytes32 => bool) public orderCancellationRequested;\r\n\r\n    /**\r\n     * ROLES KNOWN TO ORACLE\r\n     */\r\n    bytes32 constant public ADMINISTRATOR_ROLE = keccak256(\"ADMINISTRATOR_ROLE\");\r\n    bytes32 constant public ORACLEOPERATOR_ROLE = keccak256(\"ORACLEOPERATOR_ROLE\"); //used for callbacks from API\r\n    bytes32 constant public PAUSER_ROLE = keccak256(\"PAUSER_ROLE\"); //can pause oracle\r\n\r\n    /**\r\n\t * Permit functionality\r\n\t * Added after proxy was deployed, so manually adding functionality here\r\n\t */\r\n\tbytes32 constant public _HASHED_NAME = 0xca82a94b3c35be4fb8e06faa102ba96b016e9c5dd45f747224333f012bfd5e6a;\r\n\tbytes32 constant public _HASHED_VERSION = 0xc89efdaa54c0f20c7adf612882df0950f5a951637e0307cdcb4c672f298b8bc6;\r\n\tbytes32 constant public _TYPE_HASH =\r\n\t\tkeccak256(\"EIP712Domain(string name,string version,uint256 chainId,address verifyingContract)\");\r\n\tusing CountersUpgradeable for CountersUpgradeable.Counter;\r\n\r\n\tmapping(address => CountersUpgradeable.Counter) private _nonces;\r\n\r\n\t// solhint-disable-next-line var-name-mixedcase\r\n\tbytes32 constant public _PERMIT_TYPEHASH =\r\n\t\tkeccak256(\"CreateOrder(bytes32 _marketId,uint256 _closeSharesAmount,uint256 _openMPHTokenAmount,address _msgSender,uint256 nonce,uint256 deadline)\");\r\n    \r\n\r\n    struct CreateOrderStruct {\r\n        bytes32 _marketId;\r\n        uint256 _closeSharesAmount;\r\n        uint256 _openMPHTokenAmount;\r\n        bool _tradeDirection;\r\n        uint256 _orderLeverage;\r\n        uint256 _onlyIfPriceAbove;\r\n        uint256 _onlyIfPriceBelow;\r\n        uint256 _goodUntil;\r\n        uint256 _goodFrom;\r\n    }\r\n\r\n    \r\n    address private msgSenderOverride;\r\n\r\n    function _msgSender() internal view override returns (address) {\r\n        if(msgSenderOverride != address(0)) {\r\n            return msgSenderOverride;\r\n        }\r\n\r\n        return msg.sender;\r\n    }\r\n\r\n\r\n// ----------------------------------------------------------------------------------\r\n// Events\r\n// ----------------------------------------------------------------------------------\r\n    event OrderCreated(\r\n        bytes32 indexed _orderId,\r\n        address indexed _address,\r\n        bytes32 indexed _marketId,\r\n        uint256 _closeSharesAmount,\r\n        uint256 _openMPHTokenAmount,\r\n        bool _tradeDirection,\r\n        uint256 _orderLeverage,\r\n        uint256 _onlyIfPriceBelow,\r\n        uint256 _onlyIfPriceAbove,\r\n        uint256 _goodFrom,\r\n        uint256 _goodUntil\r\n        );\r\n\r\n    event LiquidationOrderCreated(\r\n        bytes32 indexed _orderId,\r\n        address _sender,\r\n        address indexed _address,\r\n        bytes32 indexed _marketId\r\n\r\n        );\r\n\r\n    event OrderProcessed(\r\n        bytes32 indexed _orderId,\r\n        uint256 _price,\r\n        uint256 _unadjustedMarketPrice,\r\n        uint256 _spread,\r\n        uint256 _positionLiquidationTimestamp,\r\n        uint256 _timeStamp,\r\n        uint256 _newLongShares,\r\n        uint256 _newShortShares,\r\n        uint256 _newMeanEntry,\r\n        uint256 _newMeanSprad,\r\n        uint256 _newMeanLeverage,\r\n        uint256 _liquidationPrice\r\n        );\r\n\r\n    event OrderFailed(\r\n        bytes32 indexed _orderId,\r\n        address indexed _address,\r\n        bytes32 indexed _marketId,\r\n        uint256 _closeSharesAmount,\r\n        uint256 _openMPHTokenAmount,\r\n        bool _tradeDirection,\r\n        uint256 _orderLeverage,\r\n        uint256 _onlyIfPriceBelow,\r\n        uint256 _onlyIfPriceAbove,\r\n        uint256 _goodFrom,\r\n        uint256 _goodUntil\r\n        );\r\n\r\n    event OrderCancelled(\r\n        bytes32 indexed _orderId,\r\n        address indexed _sender,\r\n        address indexed _oracleAddress\r\n        );\r\n    \r\n    event AdminOrderCancelled(\r\n        bytes32 indexed _orderId,\r\n        address indexed _sender,\r\n        address indexed _oracleAddress\r\n        );\r\n\r\n    event OrderCancellationRequestedEvent(\r\n        bytes32 indexed _orderId,\r\n        address indexed _sender\r\n        );\r\n\r\n    event CallbackAddressEnabled(\r\n        address indexed _address\r\n        );\r\n\r\n    event CallbackAddressDisabled(\r\n        address indexed _address\r\n        );\r\n\r\n    event OraclePaused(\r\n        bool _paused\r\n        );\r\n        \r\n    event CallBackCollectionAddressChange(\r\n        address _address\r\n        );\r\n\r\n    event SetGasForCallback(\r\n        uint256 _gasForCallback\r\n        );\r\n\r\n    event LinkTradeEngine(\r\n        address _address\r\n        );\r\n\r\n    event LinkMorpherState(\r\n        address _address\r\n        );\r\n\r\n    event SetUseWhiteList(\r\n        bool _useWhiteList\r\n        );\r\n\r\n    event AddressWhiteListed(\r\n        address _address\r\n        );\r\n\r\n    event AddressBlackListed(\r\n        address _address\r\n        );\r\n\r\n    event AdminLiquidationOrderCreated(\r\n        bytes32 indexed _orderId,\r\n        address indexed _address,\r\n        bytes32 indexed _marketId,\r\n        uint256 _closeSharesAmount,\r\n        uint256 _openMPHTokenAmount,\r\n        bool _tradeDirection,\r\n        uint256 _orderLeverage\r\n        );\r\n\r\n    /**\r\n     * Delisting markets is a function that stops when gas is running low\r\n     * if it reached all positions it will emit \"DelistMarketComplete\"\r\n     * otherwise it needs to be re-run.\r\n     */\r\n    event DelistMarketIncomplete(bytes32 _marketId, uint256 _processedUntilIndex);\r\n    event DelistMarketComplete(bytes32 _marketId);\r\n    event LockedPriceForClosingPositions(bytes32 _marketId, uint256 _price);\r\n\r\n\r\n    modifier onlyRole(bytes32 role) {\r\n        require(MorpherAccessControl(state.morpherAccessControlAddress()).hasRole(role, _msgSender()), \"MorpherOracle: Permission denied.\");\r\n        _;\r\n    }\r\n\r\n   function initialize(address _morpherState, address payable _gasCollectionAddress, uint256 _gasForCallback) public initializer{\r\n        ContextUpgradeable.__Context_init();\r\n        PausableUpgradeable.__Pausable_init();\r\n\r\n        state = MorpherState(_morpherState);\r\n        \r\n        setCallbackCollectionAddress(_gasCollectionAddress);\r\n        setGasForCallback(_gasForCallback);\r\n    }\r\n\r\n    \r\n\r\n// ----------------------------------------------------------------------------------\r\n// Setter/getter functions for trade engine address, oracle operator (callback) address,\r\n// and prepaid gas limit for callback function\r\n// ----------------------------------------------------------------------------------\r\n\r\n    function setStateAddress(address _address) public onlyRole(ADMINISTRATOR_ROLE) {\r\n        state = MorpherState(_address);\r\n        emit LinkMorpherState(_address);\r\n    }\r\n\r\n    function overrideGasForCallback(uint256 _gasForCallback) public onlyRole(ADMINISTRATOR_ROLE) {\r\n        gasForCallback = _gasForCallback;\r\n        emit SetGasForCallback(_gasForCallback);\r\n    }\r\n    \r\n    function setGasForCallback(uint256 _gasForCallback) private {\r\n        gasForCallback = _gasForCallback;\r\n        emit SetGasForCallback(_gasForCallback);\r\n    }\r\n\r\n    function setCallbackCollectionAddress(address payable _address) public onlyRole(ADMINISTRATOR_ROLE) {\r\n        callBackCollectionAddress = _address;\r\n        emit CallBackCollectionAddressChange(_address);\r\n    }\r\n\r\n// ----------------------------------------------------------------------------------\r\n// emitOrderFailed\r\n// Can be called by Oracle Operator to notifiy user of failed order\r\n// ----------------------------------------------------------------------------------\r\n    function emitOrderFailed(\r\n        bytes32 _orderId,\r\n        address _address,\r\n        bytes32 _marketId,\r\n        uint256 _closeSharesAmount,\r\n        uint256 _openMPHTokenAmount,\r\n        bool _tradeDirection,\r\n        uint256 _orderLeverage,\r\n        uint256 _onlyIfPriceBelow,\r\n        uint256 _onlyIfPriceAbove,\r\n        uint256 _goodFrom,\r\n        uint256 _goodUntil\r\n    ) public onlyRole(ORACLEOPERATOR_ROLE) {\r\n        emit OrderFailed(\r\n            _orderId,\r\n            _address,\r\n            _marketId,\r\n            _closeSharesAmount,\r\n            _openMPHTokenAmount,\r\n            _tradeDirection,\r\n            _orderLeverage,\r\n            _onlyIfPriceBelow,\r\n            _onlyIfPriceAbove,\r\n            _goodFrom,\r\n            _goodUntil);\r\n    }\r\n\r\n// ----------------------------------------------------------------------------------\r\n// createOrder(bytes32  _marketId, bool _tradeAmountGivenInShares, uint256 _tradeAmount, bool _tradeDirection, uint256 _orderLeverage)\r\n// Request a new orderId from trade engine and fires event for price/liquidation check request.\r\n// ----------------------------------------------------------------------------------\r\n    function createOrder(bytes32 _marketId, uint256 _closeSharesAmount, uint256 _openMPHTokenAmount, bool _tradeDirection, uint256 _orderLeverage, uint256 _onlyIfPriceAbove,uint256 _onlyIfPriceBelow,uint256 _goodUntil, uint256 _goodFrom) public payable whenNotPaused returns (bytes32 _orderId) {\r\n        CreateOrderStruct memory createOrderStruct = CreateOrderStruct(_marketId, _closeSharesAmount, _openMPHTokenAmount, _tradeDirection, _orderLeverage, _onlyIfPriceAbove, _onlyIfPriceBelow, _goodUntil, _goodFrom);\r\n        return createOrder(createOrderStruct);\r\n    }\r\n\r\n    function createOrder(\r\n        CreateOrderStruct memory createOrderParams\r\n        ) public payable whenNotPaused returns (bytes32 _orderId) {\r\n        if (gasForCallback > 0) {\r\n            require(msg.value >= gasForCallback, \"MorpherOracle: Must transfer gas costs for Oracle Callback function.\");\r\n            callBackCollectionAddress.transfer(msg.value);\r\n        }\r\n        _orderId = MorpherTradeEngine(state.morpherTradeEngineAddress()).requestOrderId(_msgSender(), createOrderParams._marketId, createOrderParams._closeSharesAmount, createOrderParams._openMPHTokenAmount, createOrderParams._tradeDirection, createOrderParams._orderLeverage);\r\n\r\n        //if the market was deactivated, and the trader didn't fail yet, then we got an orderId to close the position with a locked in price\r\n        if(state.getMarketActive(createOrderParams._marketId) == false) {\r\n\r\n            //price will come from the position where price is stored forever\r\n            MorpherTradeEngine(state.morpherTradeEngineAddress()).processOrder(_orderId, MorpherTradeEngine(state.morpherTradeEngineAddress()).getDeactivatedMarketPrice(createOrderParams._marketId), 0, 0, block.timestamp * (1000));\r\n            \r\n            emit OrderProcessed(\r\n                _orderId,\r\n                MorpherTradeEngine(state.morpherTradeEngineAddress()).getDeactivatedMarketPrice(createOrderParams._marketId),\r\n                0,\r\n                0,\r\n                0,\r\n                block.timestamp * (1000),\r\n                0,\r\n                0,\r\n                0,\r\n                0,\r\n                0,\r\n                0\r\n                );\r\n        } else {\r\n            priceAbove[_orderId] = createOrderParams._onlyIfPriceAbove;\r\n            priceBelow[_orderId] = createOrderParams._onlyIfPriceBelow;\r\n            goodFrom[_orderId]   = createOrderParams._goodFrom;\r\n            goodUntil[_orderId]  = createOrderParams._goodUntil;\r\n            emit OrderCreated(\r\n                _orderId,\r\n                _msgSender(),\r\n                createOrderParams._marketId,\r\n                createOrderParams._closeSharesAmount,\r\n                createOrderParams._openMPHTokenAmount,\r\n                createOrderParams._tradeDirection,\r\n                createOrderParams._orderLeverage,\r\n                createOrderParams._onlyIfPriceBelow,\r\n                createOrderParams._onlyIfPriceAbove,\r\n                createOrderParams._goodFrom,\r\n                createOrderParams._goodUntil\r\n                );\r\n        }\r\n\r\n        return _orderId;\r\n    }\r\n\r\n    function createOrderPermittedBySignature(\r\n        CreateOrderStruct memory createOrderParams,\r\n        address _addressPositionOwner,\r\n\t\tuint256 deadline,\r\n\t\tuint8 v,\r\n\t\tbytes32 r,\r\n\t\tbytes32 s\r\n        ) public {\r\n            require(block.timestamp <= deadline, \"MorpherOracle: expired deadline\");\r\n\r\n            bytes32 structHash = keccak256(abi.encode(_PERMIT_TYPEHASH, createOrderParams._marketId, createOrderParams._closeSharesAmount, createOrderParams._openMPHTokenAmount, _addressPositionOwner, _useNonce(_addressPositionOwner), deadline));\r\n\r\n            bytes32 hash = _hashTypedDataV4(structHash);\r\n\r\n            address signer = ECDSAUpgradeable.recover(hash, v, r, s);\r\n            require(signer == _addressPositionOwner, \"MorpherOracle: invalid signature\");\r\n            msgSenderOverride = _addressPositionOwner;\r\n            createOrder(createOrderParams);\r\n        }\r\n    \r\n    /**\r\n\t * @dev Returns the domain separator for the current chain.\r\n\t */\r\n\tfunction _domainSeparatorV4() internal view returns (bytes32) {\r\n\t\treturn _buildDomainSeparator(_TYPE_HASH, _EIP712NameHash(), _EIP712VersionHash());\r\n\t}\r\n\r\n\tfunction _buildDomainSeparator(\r\n\t\tbytes32 typeHash,\r\n\t\tbytes32 nameHash,\r\n\t\tbytes32 versionHash\r\n\t) private view returns (bytes32) {\r\n\t\treturn keccak256(abi.encode(typeHash, nameHash, versionHash, block.chainid, address(this)));\r\n\t}\r\n\r\n\t/**\r\n\t * @dev Given an already https://eips.ethereum.org/EIPS/eip-712#definition-of-hashstruct[hashed struct], this\r\n\t * function returns the hash of the fully encoded EIP712 message for this domain.\r\n\t *\r\n\t * This hash can be used together with {ECDSA-recover} to obtain the signer of a message. For example:\r\n\t *\r\n\t * ```solidity\r\n\t * bytes32 digest = _hashTypedDataV4(keccak256(abi.encode(\r\n\t *     keccak256(\"Mail(address to,string contents)\"),\r\n\t *     mailTo,\r\n\t *     keccak256(bytes(mailContents))\r\n\t * )));\r\n\t * address signer = ECDSA.recover(digest, signature);\r\n\t * ```\r\n\t */\r\n\tfunction _hashTypedDataV4(bytes32 structHash) internal view virtual returns (bytes32) {\r\n\t\treturn ECDSAUpgradeable.toTypedDataHash(_domainSeparatorV4(), structHash);\r\n\t}\r\n\r\n\t/**\r\n\t * @dev The hash of the name parameter for the EIP712 domain.\r\n\t *\r\n\t * NOTE: This function reads from storage by default, but can be redefined to return a constant value if gas costs\r\n\t * are a concern.\r\n\t */\r\n\tfunction _EIP712NameHash() internal view virtual returns (bytes32) {\r\n\t\treturn _HASHED_NAME;\r\n\t}\r\n\r\n\t/**\r\n\t * @dev The hash of the version parameter for the EIP712 domain.\r\n\t *\r\n\t * NOTE: This function reads from storage by default, but can be redefined to return a constant value if gas costs\r\n\t * are a concern.\r\n\t */\r\n\tfunction _EIP712VersionHash() internal view virtual returns (bytes32) {\r\n\t\treturn _HASHED_VERSION;\r\n\t}\r\n\t/**\r\n\t * @dev See {IERC20Permit-nonces}.\r\n\t */\r\n\tfunction nonces(address owner) public view virtual returns (uint256) {\r\n\t\treturn _nonces[owner].current();\r\n\t}\r\n\r\n\t/**\r\n\t * @dev See {IERC20Permit-DOMAIN_SEPARATOR}.\r\n\t */\r\n\t// solhint-disable-next-line func-name-mixedcase\r\n\tfunction DOMAIN_SEPARATOR() external view returns (bytes32) {\r\n\t\treturn _domainSeparatorV4();\r\n\t}\r\n\r\n\t/**\r\n\t * @dev \"Consume a nonce\": return the current value and increment.\r\n\t *\r\n\t * _Available since v4.1._\r\n\t */\r\n\tfunction _useNonce(address owner) internal virtual returns (uint256 current) {\r\n\t\tCountersUpgradeable.Counter storage nonce = _nonces[owner];\r\n\t\tcurrent = nonce.current();\r\n\t\tnonce.increment();\r\n\t}\r\n\r\n    function initiateCancelOrder(bytes32 _orderId) public {\r\n        MorpherTradeEngine _tradeEngine = MorpherTradeEngine(state.morpherTradeEngineAddress());\r\n        require(orderCancellationRequested[_orderId] == false, \"MorpherOracle: Order was already canceled.\");\r\n        (address userId, , , , , , ) = _tradeEngine.getOrder(_orderId);\r\n        require(userId == _msgSender(), \"MorpherOracle: Only the user can request an order cancellation.\");\r\n        orderCancellationRequested[_orderId] = true;\r\n        emit OrderCancellationRequestedEvent(_orderId, _msgSender());\r\n    }\r\n\r\n    // ----------------------------------------------------------------------------------\r\n    // cancelOrder(bytes32  _orderId)\r\n    // User or Administrator can cancel their own orders before the _callback has been executed\r\n    // ----------------------------------------------------------------------------------\r\n    function cancelOrder(bytes32 _orderId) public onlyRole(ORACLEOPERATOR_ROLE) {\r\n        require(orderCancellationRequested[_orderId] == true, \"MorpherOracle: Order-Cancellation was not requested.\");\r\n        MorpherTradeEngine _tradeEngine = MorpherTradeEngine(state.morpherTradeEngineAddress());\r\n        (address userId, , , , , , ) = _tradeEngine.getOrder(_orderId);\r\n        _tradeEngine.cancelOrder(_orderId, userId);\r\n        clearOrderConditions(_orderId);\r\n        emit OrderCancelled(\r\n            _orderId,\r\n            userId,\r\n            _msgSender()\r\n            );\r\n    }\r\n    \r\n    // ----------------------------------------------------------------------------------\r\n    // adminCancelOrder(bytes32  _orderId)\r\n    // Administrator can cancel before the _callback has been executed to provide an updateOrder functionality\r\n    // ----------------------------------------------------------------------------------\r\n    function adminCancelOrder(bytes32 _orderId) public onlyRole(ORACLEOPERATOR_ROLE) {\r\n        MorpherTradeEngine _tradeEngine = MorpherTradeEngine(state.morpherTradeEngineAddress());\r\n        (address userId, , , , , , ) = _tradeEngine.getOrder(_orderId);\r\n        _tradeEngine.cancelOrder(_orderId, userId);\r\n        clearOrderConditions(_orderId);\r\n        emit AdminOrderCancelled(\r\n            _orderId,\r\n            userId,\r\n            _msgSender()\r\n            );\r\n    }\r\n\r\n// ------------------------------------------------------------------------\r\n// checkOrderConditions(bytes32 _orderId, uint256 _price)\r\n// Checks if callback satisfies the order conditions\r\n// ------------------------------------------------------------------------\r\n    function checkOrderConditions(bytes32 _orderId, uint256 _price) public view returns (bool _conditionsMet) {\r\n        _conditionsMet = true;\r\n        if (block.timestamp > goodUntil[_orderId] && goodUntil[_orderId] > 0) {\r\n            _conditionsMet = false;\r\n        }\r\n        if (block.timestamp < goodFrom[_orderId] && goodFrom[_orderId] > 0) {\r\n            _conditionsMet = false;\r\n        }\r\n\r\n        if(priceAbove[_orderId] > 0 && priceBelow[_orderId] > 0) {\r\n            if(_price < priceAbove[_orderId] && _price > priceBelow[_orderId]) {\r\n                _conditionsMet = false;\r\n            }\r\n        } else {\r\n            if (_price < priceAbove[_orderId] && priceAbove[_orderId] > 0) {\r\n                _conditionsMet = false;\r\n            }\r\n            if (_price > priceBelow[_orderId] && priceBelow[_orderId] > 0) {\r\n                _conditionsMet = false;\r\n            }\r\n        }\r\n        \r\n        return _conditionsMet;\r\n    }\r\n\r\n// ----------------------------------------------------------------------------------\r\n// Deletes parameters of cancelled or processed orders\r\n// ----------------------------------------------------------------------------------\r\n    function clearOrderConditions(bytes32 _orderId) internal {\r\n        priceAbove[_orderId] = 0;\r\n        priceBelow[_orderId] = 0;\r\n        goodFrom[_orderId]   = 0;\r\n        goodUntil[_orderId]  = 0;\r\n    }\r\n\r\n    function pause() public virtual onlyRole(PAUSER_ROLE) {\r\n        _pause();\r\n    }\r\n\r\n    function unpause() public virtual onlyRole(PAUSER_ROLE) {\r\n        _unpause();\r\n    }\r\n\r\n// ----------------------------------------------------------------------------------\r\n// createLiquidationOrder(address _address, bytes32 _marketId)\r\n// Checks if position has been liquidated since last check. Requires gas for callback\r\n// function. Anyone can issue a liquidation order for any other address and market.\r\n// ----------------------------------------------------------------------------------\r\n    function createLiquidationOrder(\r\n        address _address,\r\n        bytes32 _marketId\r\n        ) public whenNotPaused onlyRole(ORACLEOPERATOR_ROLE) payable returns (bytes32 _orderId) {\r\n        if (gasForCallback > 0) {\r\n            require(msg.value >= gasForCallback, \"MorpherOracle: Must transfer gas costs for Oracle Callback function.\");\r\n            callBackCollectionAddress.transfer(msg.value);\r\n        }\r\n        _orderId = MorpherTradeEngine(state.morpherTradeEngineAddress()).requestOrderId(_address, _marketId, 0, 0, true, 10**8);\r\n        emit LiquidationOrderCreated(_orderId, _msgSender(), _address, _marketId);\r\n        return _orderId;\r\n    }\r\n\r\n// ----------------------------------------------------------------------------------\r\n// __callback(bytes32 _orderId, uint256 _price, uint256 _spread, uint256 _liquidationTimestamp, uint256 _timeStamp)\r\n// Called by the oracle operator. Writes price/spread/liquidiation check to the blockchain.\r\n// Trade engine processes the order and updates the portfolio in state if successful.\r\n// ----------------------------------------------------------------------------------\r\n    function __callback(\r\n        bytes32 _orderId,\r\n        uint256 _price,\r\n        uint256 _unadjustedMarketPrice,\r\n        uint256 _spread,\r\n        uint256 _liquidationTimestamp,\r\n        uint256 _timeStamp,\r\n        uint256 _gasForNextCallback\r\n        ) public onlyRole(ORACLEOPERATOR_ROLE) whenNotPaused returns (MorpherTradeEngine.position memory createdPosition)  {\r\n        \r\n        require(checkOrderConditions(_orderId, _price), 'MorpherOracle Error: Order Conditions are not met');\r\n       \r\n       createdPosition = MorpherTradeEngine(state.morpherTradeEngineAddress()).processOrder(_orderId, _price, _spread, _liquidationTimestamp, _timeStamp);\r\n        \r\n        clearOrderConditions(_orderId);\r\n        emit OrderProcessed(\r\n            _orderId,\r\n            _price,\r\n            _unadjustedMarketPrice,\r\n            _spread,\r\n            _liquidationTimestamp,\r\n            _timeStamp,\r\n            createdPosition.longShares,\r\n            createdPosition.shortShares,\r\n            createdPosition.meanEntryPrice,\r\n            createdPosition.meanEntrySpread,\r\n            createdPosition.meanEntryLeverage,\r\n            createdPosition.liquidationPrice\r\n            );\r\n        setGasForCallback(_gasForNextCallback);\r\n        return createdPosition;\r\n    }\r\n\r\n// ----------------------------------------------------------------------------------\r\n// delistMarket(bytes32 _marketId)\r\n// Administrator closes out all existing positions on _marketId market at current prices\r\n// ----------------------------------------------------------------------------------\r\n\r\n    uint delistMarketFromIx;\r\n    function delistMarket(bytes32 _marketId, bool _startFromScratch) public onlyRole(ADMINISTRATOR_ROLE) {\r\n        require(state.getMarketActive(_marketId) == true, \"Market must be active to process position liquidations.\");\r\n        // If no _fromIx and _toIx specified, do entire _list\r\n        if (_startFromScratch) {\r\n            delistMarketFromIx = 0;\r\n        }\r\n        \r\n        uint _toIx = MorpherTradeEngine(state.morpherTradeEngineAddress()).getMaxMappingIndex(_marketId);\r\n        \r\n        address _address;\r\n        for (uint256 i = delistMarketFromIx; i <= _toIx; i++) {\r\n             if(gasleft() < 250000 && i != _toIx) { //stop if there's not enough gas to write the next transaction\r\n                delistMarketFromIx = i;\r\n                emit DelistMarketIncomplete(_marketId, _toIx);\r\n                return;\r\n            } \r\n            \r\n            _address = MorpherTradeEngine(state.morpherTradeEngineAddress()).getExposureMappingAddress(_marketId, i);\r\n            adminLiquidationOrder(_address, _marketId);\r\n            \r\n        }\r\n        emit DelistMarketComplete(_marketId);\r\n    }\r\n\r\n\r\n// ----------------------------------------------------------------------------------\r\n// adminLiquidationOrder(address _address, bytes32 _marketId)\r\n// Administrator closes out an existing position of _address on _marketId market at current price\r\n// ----------------------------------------------------------------------------------\r\n    function adminLiquidationOrder(\r\n        address _address,\r\n        bytes32 _marketId\r\n        ) public onlyRole(ADMINISTRATOR_ROLE) returns (bytes32 _orderId) {\r\n            MorpherTradeEngine.position memory position = MorpherTradeEngine(state.morpherTradeEngineAddress()).getPosition(_address, _marketId);\r\n            \r\n            if (position.longShares > 0) {\r\n                _orderId = MorpherTradeEngine(state.morpherTradeEngineAddress()).requestOrderId(_address, _marketId, position.longShares, 0, false, 10**8);\r\n                emit AdminLiquidationOrderCreated(_orderId, _address, _marketId, position.longShares, 0, false, 10**8);\r\n            }\r\n            if (position.shortShares > 0) {\r\n                _orderId = MorpherTradeEngine(state.morpherTradeEngineAddress()).requestOrderId(_address, _marketId, position.shortShares, 0, true, 10**8);\r\n                emit AdminLiquidationOrderCreated(_orderId, _address, _marketId, position.shortShares, 0, true, 10**8);\r\n            }\r\n            return _orderId;\r\n    }\r\n\r\n    /**\r\n     * Deprecated function\r\n     */\r\n    function getTradeEngineFromOrderId(uint orderId) public view returns(address) {\r\n        orderId = orderId; //mute the warning\r\n        return state.morpherTradeEngineAddress();\r\n    }   \r\n\r\n}\r\n\r\n",
  "sourcePath": "/Users/thomas/Projects/Morpher/MorpherProtocol/contracts/MorpherOracle.sol",
  "compiler": {
    "name": "solc",
    "version": "0.8.20+commit.a1b79de6.Emscripten.clang"
  },
  "schemaVersion": "3.4.16",
  "updatedAt": "2024-01-16T11:09:31.203Z",
  "devdoc": {
    "events": {
      "Initialized(uint8)": {
        "details": "Triggered when the contract has been initialized or reinitialized."
      },
      "Paused(address)": {
        "details": "Emitted when the pause is triggered by `account`."
      },
      "Unpaused(address)": {
        "details": "Emitted when the pause is lifted by `account`."
      }
    },
    "kind": "dev",
    "methods": {
      "DOMAIN_SEPARATOR()": {
        "details": "See {IERC20Permit-DOMAIN_SEPARATOR}."
      },
      "nonces(address)": {
        "details": "See {IERC20Permit-nonces}."
      },
      "paused()": {
        "details": "Returns true if the contract is paused, and false otherwise."
      }
    },
    "version": 1
  },
  "userdoc": {
    "events": {
      "DelistMarketIncomplete(bytes32,uint256)": {
        "notice": "Delisting markets is a function that stops when gas is running low if it reached all positions it will emit \"DelistMarketComplete\" otherwise it needs to be re-run."
      }
    },
    "kind": "user",
    "methods": {
      "ADMINISTRATOR_ROLE()": {
        "notice": "ROLES KNOWN TO ORACLE"
      },
      "_HASHED_NAME()": {
        "notice": "Permit functionality Added after proxy was deployed, so manually adding functionality here"
      },
      "getTradeEngineFromOrderId(uint256)": {
        "notice": "Deprecated function"
      }
    },
    "version": 1
  }
}