{
  "contractName": "MorpherOracle",
  "abi": [
    {
      "inputs": [
        {
          "internalType": "address",
          "name": "_tradeEngineAddress",
          "type": "address"
        },
        {
          "internalType": "address",
          "name": "_morpherState",
          "type": "address"
        },
        {
          "internalType": "address",
          "name": "_callBackAddress",
          "type": "address"
        },
        {
          "internalType": "address payable",
          "name": "_gasCollectionAddress",
          "type": "address"
        },
        {
          "internalType": "uint256",
          "name": "_gasForCallback",
          "type": "uint256"
        },
        {
          "internalType": "address",
          "name": "_coldStorageOwnerAddress",
          "type": "address"
        },
        {
          "internalType": "address",
          "name": "_previousTradeEngineAddress",
          "type": "address"
        },
        {
          "internalType": "address",
          "name": "_previousOracleAddress",
          "type": "address"
        }
      ],
      "stateMutability": "nonpayable",
      "type": "constructor"
    },
    {
      "anonymous": false,
      "inputs": [
        {
          "indexed": false,
          "internalType": "address",
          "name": "_address",
          "type": "address"
        }
      ],
      "name": "AddressBlackListed",
      "type": "event"
    },
    {
      "anonymous": false,
      "inputs": [
        {
          "indexed": false,
          "internalType": "address",
          "name": "_address",
          "type": "address"
        }
      ],
      "name": "AddressWhiteListed",
      "type": "event"
    },
    {
      "anonymous": false,
      "inputs": [
        {
          "indexed": true,
          "internalType": "bytes32",
          "name": "_orderId",
          "type": "bytes32"
        },
        {
          "indexed": true,
          "internalType": "address",
          "name": "_address",
          "type": "address"
        },
        {
          "indexed": true,
          "internalType": "bytes32",
          "name": "_marketId",
          "type": "bytes32"
        },
        {
          "indexed": false,
          "internalType": "uint256",
          "name": "_closeSharesAmount",
          "type": "uint256"
        },
        {
          "indexed": false,
          "internalType": "uint256",
          "name": "_openMPHTokenAmount",
          "type": "uint256"
        },
        {
          "indexed": false,
          "internalType": "bool",
          "name": "_tradeDirection",
          "type": "bool"
        },
        {
          "indexed": false,
          "internalType": "uint256",
          "name": "_orderLeverage",
          "type": "uint256"
        }
      ],
      "name": "AdminLiquidationOrderCreated",
      "type": "event"
    },
    {
      "anonymous": false,
      "inputs": [
        {
          "indexed": true,
          "internalType": "bytes32",
          "name": "_orderId",
          "type": "bytes32"
        },
        {
          "indexed": true,
          "internalType": "address",
          "name": "_sender",
          "type": "address"
        },
        {
          "indexed": true,
          "internalType": "address",
          "name": "_oracleAddress",
          "type": "address"
        }
      ],
      "name": "AdminOrderCancelled",
      "type": "event"
    },
    {
      "anonymous": false,
      "inputs": [
        {
          "indexed": false,
          "internalType": "address",
          "name": "_address",
          "type": "address"
        }
      ],
      "name": "CallBackCollectionAddressChange",
      "type": "event"
    },
    {
      "anonymous": false,
      "inputs": [
        {
          "indexed": true,
          "internalType": "address",
          "name": "_address",
          "type": "address"
        }
      ],
      "name": "CallbackAddressDisabled",
      "type": "event"
    },
    {
      "anonymous": false,
      "inputs": [
        {
          "indexed": true,
          "internalType": "address",
          "name": "_address",
          "type": "address"
        }
      ],
      "name": "CallbackAddressEnabled",
      "type": "event"
    },
    {
      "anonymous": false,
      "inputs": [
        {
          "indexed": false,
          "internalType": "bytes32",
          "name": "_marketId",
          "type": "bytes32"
        }
      ],
      "name": "DelistMarketComplete",
      "type": "event"
    },
    {
      "anonymous": false,
      "inputs": [
        {
          "indexed": false,
          "internalType": "bytes32",
          "name": "_marketId",
          "type": "bytes32"
        },
        {
          "indexed": false,
          "internalType": "uint256",
          "name": "_processedUntilIndex",
          "type": "uint256"
        }
      ],
      "name": "DelistMarketIncomplete",
      "type": "event"
    },
    {
      "anonymous": false,
      "inputs": [
        {
          "indexed": false,
          "internalType": "address",
          "name": "_oldFallbackOracle",
          "type": "address"
        },
        {
          "indexed": false,
          "internalType": "address",
          "name": "_newFallbackOracle",
          "type": "address"
        }
      ],
      "name": "FallbackOracleUpdated",
      "type": "event"
    },
    {
      "anonymous": false,
      "inputs": [
        {
          "indexed": false,
          "internalType": "address",
          "name": "_oldFallbackTradeEngine",
          "type": "address"
        },
        {
          "indexed": false,
          "internalType": "address",
          "name": "_newFallbackTradeEngine",
          "type": "address"
        }
      ],
      "name": "FallbackTradeEngineUpdated",
      "type": "event"
    },
    {
      "anonymous": false,
      "inputs": [
        {
          "indexed": false,
          "internalType": "address",
          "name": "_address",
          "type": "address"
        }
      ],
      "name": "LinkMorpherState",
      "type": "event"
    },
    {
      "anonymous": false,
      "inputs": [
        {
          "indexed": false,
          "internalType": "address",
          "name": "_address",
          "type": "address"
        }
      ],
      "name": "LinkTradeEngine",
      "type": "event"
    },
    {
      "anonymous": false,
      "inputs": [
        {
          "indexed": true,
          "internalType": "bytes32",
          "name": "_orderId",
          "type": "bytes32"
        },
        {
          "indexed": false,
          "internalType": "address",
          "name": "_sender",
          "type": "address"
        },
        {
          "indexed": true,
          "internalType": "address",
          "name": "_address",
          "type": "address"
        },
        {
          "indexed": true,
          "internalType": "bytes32",
          "name": "_marketId",
          "type": "bytes32"
        }
      ],
      "name": "LiquidationOrderCreated",
      "type": "event"
    },
    {
      "anonymous": false,
      "inputs": [
        {
          "indexed": false,
          "internalType": "bytes32",
          "name": "_marketId",
          "type": "bytes32"
        },
        {
          "indexed": false,
          "internalType": "uint256",
          "name": "_price",
          "type": "uint256"
        }
      ],
      "name": "LockedPriceForClosingPositions",
      "type": "event"
    },
    {
      "anonymous": false,
      "inputs": [
        {
          "indexed": false,
          "internalType": "bool",
          "name": "_paused",
          "type": "bool"
        }
      ],
      "name": "OraclePaused",
      "type": "event"
    },
    {
      "anonymous": false,
      "inputs": [
        {
          "indexed": true,
          "internalType": "bytes32",
          "name": "_orderId",
          "type": "bytes32"
        },
        {
          "indexed": true,
          "internalType": "address",
          "name": "_sender",
          "type": "address"
        }
      ],
      "name": "OrderCancellationRequestedEvent",
      "type": "event"
    },
    {
      "anonymous": false,
      "inputs": [
        {
          "indexed": true,
          "internalType": "bytes32",
          "name": "_orderId",
          "type": "bytes32"
        },
        {
          "indexed": true,
          "internalType": "address",
          "name": "_sender",
          "type": "address"
        },
        {
          "indexed": true,
          "internalType": "address",
          "name": "_oracleAddress",
          "type": "address"
        }
      ],
      "name": "OrderCancelled",
      "type": "event"
    },
    {
      "anonymous": false,
      "inputs": [
        {
          "indexed": true,
          "internalType": "bytes32",
          "name": "_orderId",
          "type": "bytes32"
        },
        {
          "indexed": true,
          "internalType": "address",
          "name": "_address",
          "type": "address"
        },
        {
          "indexed": true,
          "internalType": "bytes32",
          "name": "_marketId",
          "type": "bytes32"
        },
        {
          "indexed": false,
          "internalType": "uint256",
          "name": "_closeSharesAmount",
          "type": "uint256"
        },
        {
          "indexed": false,
          "internalType": "uint256",
          "name": "_openMPHTokenAmount",
          "type": "uint256"
        },
        {
          "indexed": false,
          "internalType": "bool",
          "name": "_tradeDirection",
          "type": "bool"
        },
        {
          "indexed": false,
          "internalType": "uint256",
          "name": "_orderLeverage",
          "type": "uint256"
        },
        {
          "indexed": false,
          "internalType": "uint256",
          "name": "_onlyIfPriceBelow",
          "type": "uint256"
        },
        {
          "indexed": false,
          "internalType": "uint256",
          "name": "_onlyIfPriceAbove",
          "type": "uint256"
        },
        {
          "indexed": false,
          "internalType": "uint256",
          "name": "_goodFrom",
          "type": "uint256"
        },
        {
          "indexed": false,
          "internalType": "uint256",
          "name": "_goodUntil",
          "type": "uint256"
        }
      ],
      "name": "OrderCreated",
      "type": "event"
    },
    {
      "anonymous": false,
      "inputs": [
        {
          "indexed": true,
          "internalType": "bytes32",
          "name": "_orderId",
          "type": "bytes32"
        },
        {
          "indexed": true,
          "internalType": "address",
          "name": "_address",
          "type": "address"
        },
        {
          "indexed": true,
          "internalType": "bytes32",
          "name": "_marketId",
          "type": "bytes32"
        },
        {
          "indexed": false,
          "internalType": "uint256",
          "name": "_closeSharesAmount",
          "type": "uint256"
        },
        {
          "indexed": false,
          "internalType": "uint256",
          "name": "_openMPHTokenAmount",
          "type": "uint256"
        },
        {
          "indexed": false,
          "internalType": "bool",
          "name": "_tradeDirection",
          "type": "bool"
        },
        {
          "indexed": false,
          "internalType": "uint256",
          "name": "_orderLeverage",
          "type": "uint256"
        },
        {
          "indexed": false,
          "internalType": "uint256",
          "name": "_onlyIfPriceBelow",
          "type": "uint256"
        },
        {
          "indexed": false,
          "internalType": "uint256",
          "name": "_onlyIfPriceAbove",
          "type": "uint256"
        },
        {
          "indexed": false,
          "internalType": "uint256",
          "name": "_goodFrom",
          "type": "uint256"
        },
        {
          "indexed": false,
          "internalType": "uint256",
          "name": "_goodUntil",
          "type": "uint256"
        }
      ],
      "name": "OrderFailed",
      "type": "event"
    },
    {
      "anonymous": false,
      "inputs": [
        {
          "indexed": true,
          "internalType": "bytes32",
          "name": "_orderId",
          "type": "bytes32"
        },
        {
          "indexed": false,
          "internalType": "uint256",
          "name": "_price",
          "type": "uint256"
        },
        {
          "indexed": false,
          "internalType": "uint256",
          "name": "_unadjustedMarketPrice",
          "type": "uint256"
        },
        {
          "indexed": false,
          "internalType": "uint256",
          "name": "_spread",
          "type": "uint256"
        },
        {
          "indexed": false,
          "internalType": "uint256",
          "name": "_positionLiquidationTimestamp",
          "type": "uint256"
        },
        {
          "indexed": false,
          "internalType": "uint256",
          "name": "_timeStamp",
          "type": "uint256"
        },
        {
          "indexed": false,
          "internalType": "uint256",
          "name": "_newLongShares",
          "type": "uint256"
        },
        {
          "indexed": false,
          "internalType": "uint256",
          "name": "_newShortShares",
          "type": "uint256"
        },
        {
          "indexed": false,
          "internalType": "uint256",
          "name": "_newMeanEntry",
          "type": "uint256"
        },
        {
          "indexed": false,
          "internalType": "uint256",
          "name": "_newMeanSprad",
          "type": "uint256"
        },
        {
          "indexed": false,
          "internalType": "uint256",
          "name": "_newMeanLeverage",
          "type": "uint256"
        },
        {
          "indexed": false,
          "internalType": "uint256",
          "name": "_liquidationPrice",
          "type": "uint256"
        }
      ],
      "name": "OrderProcessed",
      "type": "event"
    },
    {
      "anonymous": false,
      "inputs": [
        {
          "indexed": true,
          "internalType": "address",
          "name": "previousOwner",
          "type": "address"
        },
        {
          "indexed": true,
          "internalType": "address",
          "name": "newOwner",
          "type": "address"
        }
      ],
      "name": "OwnershipTransferred",
      "type": "event"
    },
    {
      "anonymous": false,
      "inputs": [
        {
          "indexed": false,
          "internalType": "uint256",
          "name": "_gasForCallback",
          "type": "uint256"
        }
      ],
      "name": "SetGasForCallback",
      "type": "event"
    },
    {
      "anonymous": false,
      "inputs": [
        {
          "indexed": false,
          "internalType": "bool",
          "name": "_useWhiteList",
          "type": "bool"
        }
      ],
      "name": "SetUseWhiteList",
      "type": "event"
    },
    {
      "anonymous": false,
      "inputs": [
        {
          "indexed": false,
          "internalType": "address",
          "name": "_oldAddress",
          "type": "address"
        },
        {
          "indexed": false,
          "internalType": "address",
          "name": "_newAddress",
          "type": "address"
        }
      ],
      "name": "UpdateSkipPreviousTradeEngineAddress",
      "type": "event"
    },
    {
      "inputs": [
        {
          "internalType": "address",
          "name": "",
          "type": "address"
        }
      ],
      "name": "callBackAddress",
      "outputs": [
        {
          "internalType": "bool",
          "name": "",
          "type": "bool"
        }
      ],
      "stateMutability": "view",
      "type": "function"
    },
    {
      "inputs": [],
      "name": "callBackCollectionAddress",
      "outputs": [
        {
          "internalType": "address payable",
          "name": "",
          "type": "address"
        }
      ],
      "stateMutability": "view",
      "type": "function"
    },
    {
      "inputs": [],
      "name": "gasForCallback",
      "outputs": [
        {
          "internalType": "uint256",
          "name": "",
          "type": "uint256"
        }
      ],
      "stateMutability": "view",
      "type": "function"
    },
    {
      "inputs": [
        {
          "internalType": "bytes32",
          "name": "",
          "type": "bytes32"
        }
      ],
      "name": "goodFrom",
      "outputs": [
        {
          "internalType": "uint256",
          "name": "",
          "type": "uint256"
        }
      ],
      "stateMutability": "view",
      "type": "function"
    },
    {
      "inputs": [
        {
          "internalType": "bytes32",
          "name": "",
          "type": "bytes32"
        }
      ],
      "name": "goodUntil",
      "outputs": [
        {
          "internalType": "uint256",
          "name": "",
          "type": "uint256"
        }
      ],
      "stateMutability": "view",
      "type": "function"
    },
    {
      "inputs": [
        {
          "internalType": "bytes32",
          "name": "",
          "type": "bytes32"
        }
      ],
      "name": "orderCancellationRequested",
      "outputs": [
        {
          "internalType": "bool",
          "name": "",
          "type": "bool"
        }
      ],
      "stateMutability": "view",
      "type": "function"
    },
    {
      "inputs": [
        {
          "internalType": "bytes32",
          "name": "",
          "type": "bytes32"
        }
      ],
      "name": "orderIdTradeEngineAddress",
      "outputs": [
        {
          "internalType": "address",
          "name": "",
          "type": "address"
        }
      ],
      "stateMutability": "view",
      "type": "function"
    },
    {
      "inputs": [],
      "name": "owner",
      "outputs": [
        {
          "internalType": "address",
          "name": "",
          "type": "address"
        }
      ],
      "stateMutability": "view",
      "type": "function"
    },
    {
      "inputs": [],
      "name": "paused",
      "outputs": [
        {
          "internalType": "bool",
          "name": "",
          "type": "bool"
        }
      ],
      "stateMutability": "view",
      "type": "function"
    },
    {
      "inputs": [],
      "name": "previousOracleAddress",
      "outputs": [
        {
          "internalType": "address",
          "name": "",
          "type": "address"
        }
      ],
      "stateMutability": "view",
      "type": "function"
    },
    {
      "inputs": [],
      "name": "previousTradeEngineAddress",
      "outputs": [
        {
          "internalType": "address",
          "name": "",
          "type": "address"
        }
      ],
      "stateMutability": "view",
      "type": "function"
    },
    {
      "inputs": [
        {
          "internalType": "bytes32",
          "name": "",
          "type": "bytes32"
        }
      ],
      "name": "priceAbove",
      "outputs": [
        {
          "internalType": "uint256",
          "name": "",
          "type": "uint256"
        }
      ],
      "stateMutability": "view",
      "type": "function"
    },
    {
      "inputs": [
        {
          "internalType": "bytes32",
          "name": "",
          "type": "bytes32"
        }
      ],
      "name": "priceBelow",
      "outputs": [
        {
          "internalType": "uint256",
          "name": "",
          "type": "uint256"
        }
      ],
      "stateMutability": "view",
      "type": "function"
    },
    {
      "inputs": [],
      "name": "renounceOwnership",
      "outputs": [],
      "stateMutability": "nonpayable",
      "type": "function"
    },
    {
      "inputs": [],
      "name": "skipPreviousTradeEngineAddress",
      "outputs": [
        {
          "internalType": "address",
          "name": "",
          "type": "address"
        }
      ],
      "stateMutability": "view",
      "type": "function"
    },
    {
      "inputs": [
        {
          "internalType": "address",
          "name": "newOwner",
          "type": "address"
        }
      ],
      "name": "transferOwnership",
      "outputs": [],
      "stateMutability": "nonpayable",
      "type": "function"
    },
    {
      "inputs": [],
      "name": "useWhiteList",
      "outputs": [
        {
          "internalType": "bool",
          "name": "",
          "type": "bool"
        }
      ],
      "stateMutability": "view",
      "type": "function"
    },
    {
      "inputs": [
        {
          "internalType": "address",
          "name": "",
          "type": "address"
        }
      ],
      "name": "whiteList",
      "outputs": [
        {
          "internalType": "bool",
          "name": "",
          "type": "bool"
        }
      ],
      "stateMutability": "view",
      "type": "function"
    },
    {
      "inputs": [
        {
          "internalType": "address",
          "name": "_address",
          "type": "address"
        }
      ],
      "name": "setTradeEngineAddress",
      "outputs": [],
      "stateMutability": "nonpayable",
      "type": "function"
    },
    {
      "inputs": [
        {
          "internalType": "address",
          "name": "_address",
          "type": "address"
        }
      ],
      "name": "setStateAddress",
      "outputs": [],
      "stateMutability": "nonpayable",
      "type": "function"
    },
    {
      "inputs": [
        {
          "internalType": "uint256",
          "name": "_gasForCallback",
          "type": "uint256"
        }
      ],
      "name": "overrideGasForCallback",
      "outputs": [],
      "stateMutability": "nonpayable",
      "type": "function"
    },
    {
      "inputs": [
        {
          "internalType": "address",
          "name": "_address",
          "type": "address"
        }
      ],
      "name": "enableCallbackAddress",
      "outputs": [],
      "stateMutability": "nonpayable",
      "type": "function"
    },
    {
      "inputs": [
        {
          "internalType": "address",
          "name": "_address",
          "type": "address"
        }
      ],
      "name": "disableCallbackAddress",
      "outputs": [],
      "stateMutability": "nonpayable",
      "type": "function"
    },
    {
      "inputs": [
        {
          "internalType": "address",
          "name": "_address",
          "type": "address"
        }
      ],
      "name": "isCallbackAddress",
      "outputs": [
        {
          "internalType": "bool",
          "name": "_isCallBackAddress",
          "type": "bool"
        }
      ],
      "stateMutability": "view",
      "type": "function"
    },
    {
      "inputs": [
        {
          "internalType": "address payable",
          "name": "_address",
          "type": "address"
        }
      ],
      "name": "setCallbackCollectionAddress",
      "outputs": [],
      "stateMutability": "nonpayable",
      "type": "function"
    },
    {
      "inputs": [],
      "name": "getAdministrator",
      "outputs": [
        {
          "internalType": "address",
          "name": "_administrator",
          "type": "address"
        }
      ],
      "stateMutability": "view",
      "type": "function"
    },
    {
      "inputs": [
        {
          "internalType": "bool",
          "name": "_useWhiteList",
          "type": "bool"
        }
      ],
      "name": "setUseWhiteList",
      "outputs": [],
      "stateMutability": "nonpayable",
      "type": "function"
    },
    {
      "inputs": [
        {
          "internalType": "address",
          "name": "_whiteList",
          "type": "address"
        }
      ],
      "name": "setWhiteList",
      "outputs": [],
      "stateMutability": "nonpayable",
      "type": "function"
    },
    {
      "inputs": [
        {
          "internalType": "address",
          "name": "_blackList",
          "type": "address"
        }
      ],
      "name": "setBlackList",
      "outputs": [],
      "stateMutability": "nonpayable",
      "type": "function"
    },
    {
      "inputs": [
        {
          "internalType": "address",
          "name": "_address",
          "type": "address"
        }
      ],
      "name": "isWhiteListed",
      "outputs": [
        {
          "internalType": "bool",
          "name": "_whiteListed",
          "type": "bool"
        }
      ],
      "stateMutability": "view",
      "type": "function"
    },
    {
      "inputs": [
        {
          "internalType": "bytes32",
          "name": "_orderId",
          "type": "bytes32"
        },
        {
          "internalType": "address",
          "name": "_address",
          "type": "address"
        },
        {
          "internalType": "bytes32",
          "name": "_marketId",
          "type": "bytes32"
        },
        {
          "internalType": "uint256",
          "name": "_closeSharesAmount",
          "type": "uint256"
        },
        {
          "internalType": "uint256",
          "name": "_openMPHTokenAmount",
          "type": "uint256"
        },
        {
          "internalType": "bool",
          "name": "_tradeDirection",
          "type": "bool"
        },
        {
          "internalType": "uint256",
          "name": "_orderLeverage",
          "type": "uint256"
        },
        {
          "internalType": "uint256",
          "name": "_onlyIfPriceBelow",
          "type": "uint256"
        },
        {
          "internalType": "uint256",
          "name": "_onlyIfPriceAbove",
          "type": "uint256"
        },
        {
          "internalType": "uint256",
          "name": "_goodFrom",
          "type": "uint256"
        },
        {
          "internalType": "uint256",
          "name": "_goodUntil",
          "type": "uint256"
        }
      ],
      "name": "emitOrderFailed",
      "outputs": [],
      "stateMutability": "nonpayable",
      "type": "function"
    },
    {
      "inputs": [
        {
          "internalType": "bytes32",
          "name": "_marketId",
          "type": "bytes32"
        },
        {
          "internalType": "uint256",
          "name": "_closeSharesAmount",
          "type": "uint256"
        },
        {
          "internalType": "uint256",
          "name": "_openMPHTokenAmount",
          "type": "uint256"
        },
        {
          "internalType": "bool",
          "name": "_tradeDirection",
          "type": "bool"
        },
        {
          "internalType": "uint256",
          "name": "_orderLeverage",
          "type": "uint256"
        },
        {
          "internalType": "uint256",
          "name": "_onlyIfPriceAbove",
          "type": "uint256"
        },
        {
          "internalType": "uint256",
          "name": "_onlyIfPriceBelow",
          "type": "uint256"
        },
        {
          "internalType": "uint256",
          "name": "_goodUntil",
          "type": "uint256"
        },
        {
          "internalType": "uint256",
          "name": "_goodFrom",
          "type": "uint256"
        }
      ],
      "name": "createOrder",
      "outputs": [
        {
          "internalType": "bytes32",
          "name": "_orderId",
          "type": "bytes32"
        }
      ],
      "stateMutability": "payable",
      "type": "function"
    },
    {
      "inputs": [
        {
          "internalType": "bytes32",
          "name": "_orderId",
          "type": "bytes32"
        }
      ],
      "name": "getTradeEngineFromOrderId",
      "outputs": [
        {
          "internalType": "address",
          "name": "",
          "type": "address"
        }
      ],
      "stateMutability": "view",
      "type": "function"
    },
    {
      "inputs": [
        {
          "internalType": "address",
          "name": "_skipTradeEngineAddress",
          "type": "address"
        }
      ],
      "name": "updateSkipTradeEngineAddress",
      "outputs": [],
      "stateMutability": "nonpayable",
      "type": "function"
    },
    {
      "inputs": [
        {
          "internalType": "address",
          "name": "_tradeEngineFallbackAddress",
          "type": "address"
        }
      ],
      "name": "updateFallbackTradeEngineAddress",
      "outputs": [],
      "stateMutability": "nonpayable",
      "type": "function"
    },
    {
      "inputs": [
        {
          "internalType": "address",
          "name": "_oracleFallbackAddress",
          "type": "address"
        }
      ],
      "name": "updateFallbackOracleAddress",
      "outputs": [],
      "stateMutability": "nonpayable",
      "type": "function"
    },
    {
      "inputs": [
        {
          "internalType": "bytes32",
          "name": "_orderId",
          "type": "bytes32"
        }
      ],
      "name": "initiateCancelOrder",
      "outputs": [],
      "stateMutability": "nonpayable",
      "type": "function"
    },
    {
      "inputs": [
        {
          "internalType": "bytes32",
          "name": "_orderId",
          "type": "bytes32"
        }
      ],
      "name": "cancelOrder",
      "outputs": [],
      "stateMutability": "nonpayable",
      "type": "function"
    },
    {
      "inputs": [
        {
          "internalType": "bytes32",
          "name": "_orderId",
          "type": "bytes32"
        }
      ],
      "name": "adminCancelOrder",
      "outputs": [],
      "stateMutability": "nonpayable",
      "type": "function"
    },
    {
      "inputs": [
        {
          "internalType": "bytes32",
          "name": "_orderId",
          "type": "bytes32"
        }
      ],
      "name": "getGoodUntil",
      "outputs": [
        {
          "internalType": "uint256",
          "name": "",
          "type": "uint256"
        }
      ],
      "stateMutability": "view",
      "type": "function"
    },
    {
      "inputs": [
        {
          "internalType": "bytes32",
          "name": "_orderId",
          "type": "bytes32"
        }
      ],
      "name": "getGoodFrom",
      "outputs": [
        {
          "internalType": "uint256",
          "name": "",
          "type": "uint256"
        }
      ],
      "stateMutability": "view",
      "type": "function"
    },
    {
      "inputs": [
        {
          "internalType": "bytes32",
          "name": "_orderId",
          "type": "bytes32"
        }
      ],
      "name": "getPriceAbove",
      "outputs": [
        {
          "internalType": "uint256",
          "name": "",
          "type": "uint256"
        }
      ],
      "stateMutability": "view",
      "type": "function"
    },
    {
      "inputs": [
        {
          "internalType": "bytes32",
          "name": "_orderId",
          "type": "bytes32"
        }
      ],
      "name": "getPriceBelow",
      "outputs": [
        {
          "internalType": "uint256",
          "name": "",
          "type": "uint256"
        }
      ],
      "stateMutability": "view",
      "type": "function"
    },
    {
      "inputs": [
        {
          "internalType": "bytes32",
          "name": "_orderId",
          "type": "bytes32"
        },
        {
          "internalType": "uint256",
          "name": "_price",
          "type": "uint256"
        }
      ],
      "name": "checkOrderConditions",
      "outputs": [
        {
          "internalType": "bool",
          "name": "_conditionsMet",
          "type": "bool"
        }
      ],
      "stateMutability": "view",
      "type": "function"
    },
    {
      "inputs": [],
      "name": "pauseOracle",
      "outputs": [],
      "stateMutability": "nonpayable",
      "type": "function"
    },
    {
      "inputs": [],
      "name": "unpauseOracle",
      "outputs": [],
      "stateMutability": "nonpayable",
      "type": "function"
    },
    {
      "inputs": [
        {
          "internalType": "address",
          "name": "_address",
          "type": "address"
        },
        {
          "internalType": "bytes32",
          "name": "_marketId",
          "type": "bytes32"
        }
      ],
      "name": "createLiquidationOrder",
      "outputs": [
        {
          "internalType": "bytes32",
          "name": "_orderId",
          "type": "bytes32"
        }
      ],
      "stateMutability": "payable",
      "type": "function"
    },
    {
      "inputs": [
        {
          "internalType": "bytes32",
          "name": "_orderId",
          "type": "bytes32"
        },
        {
          "internalType": "uint256",
          "name": "_price",
          "type": "uint256"
        },
        {
          "internalType": "uint256",
          "name": "_unadjustedMarketPrice",
          "type": "uint256"
        },
        {
          "internalType": "uint256",
          "name": "_spread",
          "type": "uint256"
        },
        {
          "internalType": "uint256",
          "name": "_liquidationTimestamp",
          "type": "uint256"
        },
        {
          "internalType": "uint256",
          "name": "_timeStamp",
          "type": "uint256"
        },
        {
          "internalType": "uint256",
          "name": "_gasForNextCallback",
          "type": "uint256"
        }
      ],
      "name": "__callback",
      "outputs": [
        {
          "internalType": "uint256",
          "name": "_newLongShares",
          "type": "uint256"
        },
        {
          "internalType": "uint256",
          "name": "_newShortShares",
          "type": "uint256"
        },
        {
          "internalType": "uint256",
          "name": "_newMeanEntry",
          "type": "uint256"
        },
        {
          "internalType": "uint256",
          "name": "_newMeanSpread",
          "type": "uint256"
        },
        {
          "internalType": "uint256",
          "name": "_newMeanLeverage",
          "type": "uint256"
        },
        {
          "internalType": "uint256",
          "name": "_liquidationPrice",
          "type": "uint256"
        }
      ],
      "stateMutability": "nonpayable",
      "type": "function"
    },
    {
      "inputs": [
        {
          "internalType": "bytes32",
          "name": "_marketId",
          "type": "bytes32"
        },
        {
          "internalType": "bool",
          "name": "_startFromScratch",
          "type": "bool"
        }
      ],
      "name": "delistMarket",
      "outputs": [],
      "stateMutability": "nonpayable",
      "type": "function"
    },
    {
      "inputs": [
        {
          "internalType": "bytes32",
          "name": "_marketId",
          "type": "bytes32"
        },
        {
          "internalType": "uint256",
          "name": "_price",
          "type": "uint256"
        }
      ],
      "name": "setDeactivatedMarketPrice",
      "outputs": [],
      "stateMutability": "nonpayable",
      "type": "function"
    },
    {
      "inputs": [
        {
          "internalType": "address",
          "name": "_address",
          "type": "address"
        },
        {
          "internalType": "bytes32",
          "name": "_marketId",
          "type": "bytes32"
        }
      ],
      "name": "adminLiquidationOrder",
      "outputs": [
        {
          "internalType": "bytes32",
          "name": "_orderId",
          "type": "bytes32"
        }
      ],
      "stateMutability": "nonpayable",
      "type": "function"
    },
    {
      "inputs": [
        {
          "internalType": "string",
          "name": "_source",
          "type": "string"
        }
      ],
      "name": "stringToHash",
      "outputs": [
        {
          "internalType": "bytes32",
          "name": "_result",
          "type": "bytes32"
        }
      ],
      "stateMutability": "pure",
      "type": "function"
    }
  ],
  "bytecode": "0x608060405260006010553480156200001657600080fd5b5060405162003b2e38038062003b2e83398101604081905262000039916200048a565b6200004433620000bf565b6200004f886200010f565b6200005a87620001b3565b62000065866200024d565b6200007085620002e4565b6200007b846200037e565b6200008683620003b4565b600d80546001600160a01b039384166001600160a01b031991821617909155600f8054929093169116179055506200053f945050505050565b600080546001600160a01b038381166001600160a01b0319831681178455604051919092169283917f8be0079c531659141344cd1fd0a4f28419497f9722a3daafe3b4186f6b6457e09190a35050565b6000546001600160a01b031633146200015e5760405162461bcd60e51b8152602060048201819052602482015260008051602062003b0e83398151915260448201526064015b60405180910390fd5b600180546001600160a01b0319166001600160a01b0383169081179091556040519081527f31e8636ae4eb2213bca939acb2164159318122b7c3ee4eb268e2f9eadb034e88906020015b60405180910390a150565b6000546001600160a01b03163314620001fe5760405162461bcd60e51b8152602060048201819052602482015260008051602062003b0e833981519152604482015260640162000155565b600280546001600160a01b0319166001600160a01b0383169081179091556040519081527f9ceaf926f42b3faf9a5f7f52388397891ad1608576994e5c3b2d055a09bb225f90602001620001a8565b6000546001600160a01b03163314620002985760405162461bcd60e51b8152602060048201819052602482015260008051602062003b0e833981519152604482015260640162000155565b6001600160a01b038116600081815260056020526040808220805460ff19166001179055517f9933dc1068bdc12c5246aaa280dfcb05f26f07eabddea9f11be05cd89d21da099190a250565b6000546001600160a01b031633146200032f5760405162461bcd60e51b8152602060048201819052602482015260008051602062003b0e833981519152604482015260640162000155565b600480546001600160a01b0319166001600160a01b0383169081179091556040519081527f1cd1802fd5b9e82a19a67f7a572c9be656c58ffe140184139d1708b2cfe3a8dc90602001620001a8565b60038190556040518181527f0a20b6289d596db2ac25c70c6c69f5e39361ed00454ab483397db8c744ec0b3190602001620001a8565b6000546001600160a01b03163314620003ff5760405162461bcd60e51b8152602060048201819052602482015260008051602062003b0e833981519152604482015260640162000155565b6001600160a01b038116620004665760405162461bcd60e51b815260206004820152602660248201527f4f776e61626c653a206e6577206f776e657220697320746865207a65726f206160448201526564647265737360d01b606482015260840162000155565b6200047181620000bf565b50565b6001600160a01b03811681146200047157600080fd5b600080600080600080600080610100898b031215620004a857600080fd5b8851620004b58162000474565b60208a0151909850620004c88162000474565b60408a0151909750620004db8162000474565b60608a0151909650620004ee8162000474565b60808a015160a08b01519196509450620005088162000474565b60c08a01519093506200051b8162000474565b60e08a01519092506200052e8162000474565b809150509295985092959890939650565b6135bf806200054f6000396000f3fe6080604052600436106102ff5760003560e01c80637dd63e1d11610190578063b3332828116100dc578063e087e3ce11610095578063f0eaad0b1161006f578063f0eaad0b14610998578063f2fde38b146109b8578063fb8241d1146109d8578063fc2a4acc146109f857600080fd5b8063e087e3ce14610915578063e2e87d4c14610942578063e2eacc471461096257600080fd5b8063b33328281461083a578063b95e437b1461085a578063c1cef5be1461087a578063c7f4532d1461089a578063d204bc6c146108c7578063d99f8674146108f457600080fd5b80638adbe72f1161014957806399614d181161012357806399614d18146107ba5780639994415e146107cd5780639df2e887146107ed578063aeb2cc331461080d57600080fd5b80638adbe72f1461074c5780638da5cb5b1461077c5780639701ae821461079a57600080fd5b80637dd63e1d1461065f5780637e031af2146106ac57806384b92449146106cc57806384eea5b7146106ec57806385e75e721461070c57806388deab731461072c57600080fd5b806344fe40961161024f5780636f9170f61161020857806372700241116101e257806372700241146105df5780637489ec23146105ff57806374d940241461061f5780637848d1df1461063f57600080fd5b80636f9170f61461058a5780637023b783146105aa578063715018a6146105ca57600080fd5b806344fe4096146104c657806350a5fdef146104e657806352e1f344146104f95780635c975abb1461051957806367aa1e0f1461053a5780636b0ed36e1461055a57600080fd5b806316afdfd3116102bc578063372c12b111610296578063372c12b11461042657806338bd3ad11461046657806339e899ee146104865780633a196bab146104a657600080fd5b806316afdfd3146103db5780631c4c7fd8146103f1578063253ea9801461041157600080fd5b806301f4216b1461030457806302d8285d146103375780630b578d04146103575780630fab686514610377578063154a68331461038e57806316967407146103ae575b600080fd5b34801561031057600080fd5b5061032461031f366004612ee8565b610a18565b6040519081526020015b60405180910390f35b34801561034357600080fd5b50610324610352366004612ee8565b610acf565b34801561036357600080fd5b50610324610372366004612ee8565b610b3a565b34801561038357600080fd5b5061038c610ba5565b005b34801561039a57600080fd5b5061038c6103a9366004612f16565b610c1c565b3480156103ba57600080fd5b506103c3610d2c565b6040516001600160a01b03909116815260200161032e565b3480156103e757600080fd5b5061032460035481565b3480156103fd57600080fd5b5061038c61040c366004612f16565b610d9f565b34801561041d57600080fd5b5061038c610e1e565b34801561043257600080fd5b50610456610441366004612f16565b60066020526000908152604090205460ff1681565b604051901515815260200161032e565b34801561047257600080fd5b5061038c610481366004612ee8565b610e8c565b34801561049257600080fd5b5061038c6104a1366004612f16565b61100b565b3480156104b257600080fd5b5061038c6104c1366004612f41565b611084565b3480156104d257600080fd5b506103246104e1366004612f87565b6113c3565b6103246104f4366004613038565b6113f3565b34801561050557600080fd5b50610324610514366004612ee8565b61159d565b34801561052557600080fd5b5060025461045690600160a01b900460ff1681565b34801561054657600080fd5b506004546103c3906001600160a01b031681565b34801561056657600080fd5b50610456610575366004612ee8565b600b6020526000908152604090205460ff1681565b34801561059657600080fd5b506104566105a5366004612f16565b611608565b3480156105b657600080fd5b5061038c6105c5366004613064565b61164f565b3480156105d657600080fd5b5061038c611799565b3480156105eb57600080fd5b5061038c6105fa366004612f16565b6117cf565b34801561060b57600080fd5b5061038c61061a366004612ee8565b611845565b34801561062b57600080fd5b5061038c61063a366004612ee8565b611a44565b34801561064b57600080fd5b5061032461065a366004613038565b611c07565b34801561066b57600080fd5b5061067f61067a366004613086565b611f98565b604080519687526020870195909552938501929092526060840152608083015260a082015260c00161032e565b3480156106b857600080fd5b506104566106c7366004613064565b6121ad565b3480156106d857600080fd5b506104566106e7366004612f16565b6122a5565b3480156106f857600080fd5b50600f546103c3906001600160a01b031681565b34801561071857600080fd5b5061038c610727366004612ee8565b6122c3565b34801561073857600080fd5b5061038c610747366004612f16565b612322565b34801561075857600080fd5b50610456610767366004612f16565b60056020526000908152604090205460ff1681565b34801561078857600080fd5b506000546001600160a01b03166103c3565b3480156107a657600080fd5b5061038c6107b5366004612f16565b61239a565b6103246107c83660046130d2565b61240d565b3480156107d957600080fd5b5061038c6107e8366004612f16565b6128b5565b3480156107f957600080fd5b50600d546103c3906001600160a01b031681565b34801561081957600080fd5b50610324610828366004612ee8565b60086020526000908152604090205481565b34801561084657600080fd5b50600e546103c3906001600160a01b031681565b34801561086657600080fd5b5061038c610875366004613141565b61292b565b34801561088657600080fd5b5061038c6108953660046131d1565b6129d2565b3480156108a657600080fd5b506103246108b5366004612ee8565b600a6020526000908152604090205481565b3480156108d357600080fd5b506103246108e2366004612ee8565b60076020526000908152604090205481565b34801561090057600080fd5b5060025461045690600160a81b900460ff1681565b34801561092157600080fd5b50610324610930366004612ee8565b60096020526000908152604090205481565b34801561094e57600080fd5b5061038c61095d366004612f16565b612a76565b34801561096e57600080fd5b506103c361097d366004612ee8565b600c602052600090815260409020546001600160a01b031681565b3480156109a457600080fd5b5061038c6109b3366004612f16565b612b86565b3480156109c457600080fd5b5061038c6109d3366004612f16565b612c96565b3480156109e457600080fd5b5061038c6109f3366004612f16565b612d31565b348015610a0457600080fd5b506103c3610a13366004612ee8565b612da9565b60008181526007602052604081205415610a3f575060009081526007602052604090205490565b600f546001600160a01b031615610ac757600f546040516334812f1b60e21b8152600481018490526001600160a01b0390911690819063d204bc6c906024015b602060405180830381865afa158015610a9c573d6000803e3d6000fd5b505050506040513d601f19601f82011682018060405250810190610ac091906131ee565b9392505050565b506000919050565b60008181526009602052604081205415610af6575060009081526009602052604090205490565b600f546001600160a01b031615610ac757600f54604051637043f1e760e11b8152600481018490526001600160a01b0390911690819063e087e3ce90602401610a7f565b6000818152600a602052604081205415610b6157506000908152600a602052604090205490565b600f546001600160a01b031615610ac757600f5460405163c7f4532d60e01b8152600481018490526001600160a01b0390911690819063c7f4532d90602401610a7f565b6000546001600160a01b03163314610bd85760405162461bcd60e51b8152600401610bcf90613207565b60405180910390fd5b6002805460ff60a01b19169055604051600081527fdb9047c85b4067606acaf363870882a130fdfaafff5d6578aa0a69e7a2f3f8da906020015b60405180910390a1565b600260009054906101000a90046001600160a01b03166001600160a01b031663169674076040518163ffffffff1660e01b8152600401602060405180830381865afa158015610c6f573d6000803e3d6000fd5b505050506040513d601f19601f82011682018060405250810190610c93919061323c565b6001600160a01b0316336001600160a01b031614610cc35760405162461bcd60e51b8152600401610bcf90613259565b600f54604080516001600160a01b03928316815291831660208301527f010642ad4a4e48d6a0acc9eeb868e0265aeac46ce4211f127d6eab964444f7c8910160405180910390a1600f80546001600160a01b0319166001600160a01b0392909216919091179055565b60025460408051631696740760e01b815290516000926001600160a01b03169163169674079160048083019260209291908290030181865afa158015610d76573d6000803e3d6000fd5b505050506040513d601f19601f82011682018060405250810190610d9a919061323c565b905090565b6000546001600160a01b03163314610dc95760405162461bcd60e51b8152600401610bcf90613207565b600280546001600160a01b0319166001600160a01b0383169081179091556040519081527f9ceaf926f42b3faf9a5f7f52388397891ad1608576994e5c3b2d055a09bb225f906020015b60405180910390a150565b6000546001600160a01b03163314610e485760405162461bcd60e51b8152600401610bcf90613207565b6002805460ff60a01b1916600160a01b179055604051600181527fdb9047c85b4067606acaf363870882a130fdfaafff5d6578aa0a69e7a2f3f8da90602001610c12565b610e95336122a5565b610eb15760405162461bcd60e51b8152600401610bcf906132aa565b6000610ebc82612da9565b604051632bbc239560e11b8152600481018490529091506000906001600160a01b03831690635778472a9060240160e060405180830381865afa158015610f07573d6000803e3d6000fd5b505050506040513d601f19601f82011682018060405250810190610f2b9190613307565b5050604051636b0d76bd60e11b8152600481018990526001600160a01b0380871660248301529596509487169463d61aed7a94506044019250610f6c915050565b600060405180830381600087803b158015610f8657600080fd5b505af1158015610f9a573d6000803e3d6000fd5b50505060008481526008602090815260408083208390556007825280832083905560098252808320839055600a9091528120555060405133906001600160a01b0383169085907fbda7bebff2a349d53ff61a2f625aba38b63add7de03f20f568c660aaf3c61f5190600090a4505050565b611014336122a5565b6110305760405162461bcd60e51b8152600401610bcf906132aa565b6001600160a01b038116600081815260066020908152604091829020805460ff1916600117905590519182527f899dfda8e2842707b0e6431b5d8606f841049020fe311e5150d11a23a53ac9f19101610e13565b600260009054906101000a90046001600160a01b03166001600160a01b031663169674076040518163ffffffff1660e01b8152600401602060405180830381865afa1580156110d7573d6000803e3d6000fd5b505050506040513d601f19601f820116820180604052508101906110fb919061323c565b6001600160a01b0316336001600160a01b03161461112b5760405162461bcd60e51b8152600401610bcf90613259565b600254604051634a4cce9760e01b8152600481018490526001600160a01b0390911690634a4cce9790602401602060405180830381865afa158015611174573d6000803e3d6000fd5b505050506040513d601f19601f820116820180604052508101906111989190613364565b151560011461120f5760405162461bcd60e51b815260206004820152603760248201527f4d61726b6574206d7573742062652061637469766520746f2070726f6365737360448201527f20706f736974696f6e206c69717569646174696f6e732e0000000000000000006064820152608401610bcf565b801561121b5760006010555b60025460405163ef92f83160e01b8152600481018490526000916001600160a01b03169063ef92f83190602401602060405180830381865afa158015611265573d6000803e3d6000fd5b505050506040513d601f19601f8201168201806040525081019061128991906131ee565b6010549091506000905b828111611389576203d0905a1080156112ac5750828114155b156112f657601081905560408051868152602081018590527f6f7e2b4e250b68477086154afade591035c41aae27a60e044260f031e0f6a1ff910160405180910390a15050505050565b600254604051632d7b42c160e01b815260048101879052602481018390526001600160a01b0390911690632d7b42c190604401602060405180830381865afa158015611346573d6000803e3d6000fd5b505050506040513d601f19601f8201168201806040525081019061136a919061323c565b91506113768286611c07565b508061138181613397565b915050611293565b506040518481527f89d629fd4446c04fb00ba5e14060971d7cc08049bb55786f1bb8d4294a5bb95c9060200160405180910390a150505050565b6000816040516020016113d691906133b2565b604051602081830303815290604052805190602001209050919050565b600254600090600160a01b900460ff16156114205760405162461bcd60e51b8152600401610bcf906133ed565b611429336122a5565b6114455760405162461bcd60e51b8152600401610bcf906132aa565b600354156114aa5760035434101561146f5760405162461bcd60e51b8152600401610bcf90613433565b6004546040516001600160a01b03909116903480156108fc02916000818181858888f193505050501580156114a8573d6000803e3d6000fd5b505b6001805460405163ac8f6f7f60e01b81526001600160a01b039091169163ac8f6f7f916114e991879187916000918291906305f5e1009060040161349d565b6020604051808303816000875af1158015611508573d6000803e3d6000fd5b505050506040513d601f19601f8201168201806040525081019061152c91906131ee565b6001546000828152600c602090815260409182902080546001600160a01b0319166001600160a01b03948516179055905133815292935084929186169184917f1e73a21af9c77a375ee7275ea920afd5c4b6170bc8e21c0cfeeae8139a3cea09910160405180910390a45b92915050565b600081815260086020526040812054156115c4575060009081526008602052604090205490565b600f546001600160a01b031615610ac757600f5460405163aeb2cc3360e01b8152600481018490526001600160a01b0390911690819063aeb2cc3390602401610a7f565b600254600090600160a81b900460ff16158061164157506001600160a01b03821660009081526006602052604090205460ff1615156001145b1561164a575060015b919050565b600260009054906101000a90046001600160a01b03166001600160a01b031663169674076040518163ffffffff1660e01b8152600401602060405180830381865afa1580156116a2573d6000803e3d6000fd5b505050506040513d601f19601f820116820180604052508101906116c6919061323c565b6001600160a01b0316336001600160a01b0316146116f65760405162461bcd60e51b8152600401610bcf90613259565b600154604051637023b78360e01b815260048101849052602481018390526001600160a01b0390911690637023b78390604401600060405180830381600087803b15801561174357600080fd5b505af1158015611757573d6000803e3d6000fd5b505060408051858152602081018590527f3cf30f15febef0d3f8e86318070db2c80d03fd14e8406d326aab41cb043f1839935001905060405180910390a15050565b6000546001600160a01b031633146117c35760405162461bcd60e51b8152600401610bcf90613207565b6117cd6000612e98565b565b6117d8336122a5565b6117f45760405162461bcd60e51b8152600401610bcf906132aa565b6001600160a01b038116600081815260066020908152604091829020805460ff1916905590519182527f308f1b8482507c1b7d939a009b858d9264f4d02adac33b8198bb6fddb8531a7c9101610e13565b61184e336122a5565b61186a5760405162461bcd60e51b8152600401610bcf906132aa565b6000818152600b602052604090205460ff1615156001146118ea5760405162461bcd60e51b815260206004820152603460248201527f4d6f72706865724f7261636c653a204f726465722d43616e63656c6c6174696f60448201527337103bb0b9903737ba103932b8bab2b9ba32b21760611b6064820152608401610bcf565b60006118f582612da9565b604051632bbc239560e11b8152600481018490529091506000906001600160a01b03831690635778472a9060240160e060405180830381865afa158015611940573d6000803e3d6000fd5b505050506040513d601f19601f820116820180604052508101906119649190613307565b5050604051636b0d76bd60e11b8152600481018990526001600160a01b0380871660248301529596509487169463d61aed7a945060440192506119a5915050565b600060405180830381600087803b1580156119bf57600080fd5b505af11580156119d3573d6000803e3d6000fd5b50505060008481526008602090815260408083208390556007825280832083905560098252808320839055600a9091528120555060405133906001600160a01b0383169085907f6bacc01dbe442496068f7d234edd811f1a5f833243e0aec824f86ab861f3c90d90600090a4505050565b6000611a4f82612da9565b6000838152600b602052604090205490915060ff1615611ac45760405162461bcd60e51b815260206004820152602a60248201527f4d6f72706865724f7261636c653a204f726465722077617320616c72656164796044820152691031b0b731b2b632b21760b11b6064820152608401610bcf565b604051632bbc239560e11b8152600481018390526000906001600160a01b03831690635778472a9060240160e060405180830381865afa158015611b0c573d6000803e3d6000fd5b505050506040513d601f19601f82011682018060405250810190611b309190613307565b5050505050509050336001600160a01b0316816001600160a01b031614611bbf5760405162461bcd60e51b815260206004820152603f60248201527f4d6f72706865724f7261636c653a204f6e6c792074686520757365722063616e60448201527f207265717565737420616e206f726465722063616e63656c6c6174696f6e2e006064820152608401610bcf565b6000838152600b6020526040808220805460ff1916600117905551339185917f02487731041c5966b7038b3e0d347a232658f9e76e79848ed5fa003ca5f250639190a3505050565b60025460408051631696740760e01b815290516000926001600160a01b03169163169674079160048083019260209291908290030181865afa158015611c51573d6000803e3d6000fd5b505050506040513d601f19601f82011682018060405250810190611c75919061323c565b6001600160a01b0316336001600160a01b031614611ca55760405162461bcd60e51b8152600401610bcf90613259565b6002546040516377afd19160e11b81526001600160a01b03858116600483015260248201859052600092169063ef5fa32290604401602060405180830381865afa158015611cf7573d6000803e3d6000fd5b505050506040513d601f19601f82011682018060405250810190611d1b91906131ee565b6002546040516301864ba360e41b81526001600160a01b0387811660048301526024820187905292935060009290911690631864ba3090604401602060405180830381865afa158015611d72573d6000803e3d6000fd5b505050506040513d601f19601f82011682018060405250810190611d9691906131ee565b90508115611e7d5760015460405163ac8f6f7f60e01b81526001600160a01b039091169063ac8f6f7f90611ddd9088908890879060009081906305f5e1009060040161349d565b6020604051808303816000875af1158015611dfc573d6000803e3d6000fd5b505050506040513d601f19601f82011682018060405250810190611e2091906131ee565b60408051848152600060208201819052818301526305f5e1006060820152905191945085916001600160a01b0388169186917f68909f9be64c2fb9036bc6c47d8cff89160ee7f28d4e14082931cfcc8e980d779181900360800190a45b8015611f62576001805460405163ac8f6f7f60e01b81526001600160a01b039091169163ac8f6f7f91611ec291899189918791600091906305f5e1009060040161349d565b6020604051808303816000875af1158015611ee1573d6000803e3d6000fd5b505050506040513d601f19601f82011682018060405250810190611f0591906131ee565b60408051838152600060208201526001818301526305f5e1006060820152905191945085916001600160a01b0388169186917f68909f9be64c2fb9036bc6c47d8cff89160ee7f28d4e14082931cfcc8e980d779181900360800190a45b50506001546000828152600c6020526040902080546001600160a01b0319166001600160a01b0390921691909117905592915050565b600080600080600080611faa336122a5565b611fc65760405162461bcd60e51b8152600401610bcf906132aa565b600254600160a01b900460ff1615611ff05760405162461bcd60e51b8152600401610bcf906133ed565b611ffa8d8d6121ad565b6120605760405162461bcd60e51b815260206004820152603160248201527f4d6f72706865724f7261636c65204572726f723a204f7264657220436f6e64696044820152701d1a5bdb9cc8185c99481b9bdd081b595d607a1b6064820152608401610bcf565b600061206b8e612da9565b9050806001600160a01b03166316f77a5b8f8f8e8e8e6040518663ffffffff1660e01b81526004016120bf959493929190948552602085019390935260408401919091526060830152608082015260a00190565b60c0604051808303816000875af11580156120de573d6000803e3d6000fd5b505050506040513d601f19601f8201168201806040525081019061210291906134d2565b949b509299509097509550935091506121478e60009081526008602090815260408083208390556007825280832083905560098252808320839055600a909152812055565b8d7ff45eeb03060db0baf36cec20acde5e8464f49340c9877c55029d6ffe0e5cdac18e8e8e8e8e8d8d8d8d8d8d60405161218b9b9a9998979695949392919061351c565b60405180910390a261219c886122ed565b509750975097509750975097915050565b60016121b883610b3a565b421180156121ce575060006121cc84610b3a565b115b156121d7575060005b6121e083610acf565b421080156121f6575060006121f484610acf565b115b156121ff575060005b600061220a8461159d565b11801561221f5750600061221d84610a18565b115b156122505761222d8361159d565b82108015612242575061223f83610a18565b82115b1561224b575060005b611597565b6122598361159d565b8210801561226f5750600061226d8461159d565b115b15612278575060005b61228183610a18565b821180156122975750600061229584610a18565b115b156115975750600092915050565b6001600160a01b031660009081526005602052604090205460ff1690565b6000546001600160a01b031633146122ed5760405162461bcd60e51b8152600401610bcf90613207565b60038190556040518181527f0a20b6289d596db2ac25c70c6c69f5e39361ed00454ab483397db8c744ec0b3190602001610e13565b6000546001600160a01b0316331461234c5760405162461bcd60e51b8152600401610bcf90613207565b600480546001600160a01b0319166001600160a01b0383169081179091556040519081527f1cd1802fd5b9e82a19a67f7a572c9be656c58ffe140184139d1708b2cfe3a8dc90602001610e13565b6000546001600160a01b031633146123c45760405162461bcd60e51b8152600401610bcf90613207565b6001600160a01b038116600081815260056020526040808220805460ff19169055517f05d792a11cf245139c0bd36456a1fc2f4c4f8ac3490b6f53b5029bab1c3785519190a250565b600254600090600160a01b900460ff161561243a5760405162461bcd60e51b8152600401610bcf906133ed565b61244333611608565b6124b55760405162461bcd60e51b815260206004820152603760248201527f4d6f72706865724f7261636c653a2041646472657373206e6f7420656c69676960448201527f626c6520746f2063726561746520616e206f726465722e0000000000000000006064820152608401610bcf565b6003541561251a576003543410156124df5760405162461bcd60e51b8152600401610bcf90613433565b6004546040516001600160a01b03909116903480156108fc02916000818181858888f19350505050158015612518573d6000803e3d6000fd5b505b60015460405163ac8f6f7f60e01b81526001600160a01b039091169063ac8f6f7f906125549033908e908e908e908e908e9060040161349d565b6020604051808303816000875af1158015612573573d6000803e3d6000fd5b505050506040513d601f19601f8201168201806040525081019061259791906131ee565b6001546000828152600c60205260409081902080546001600160a01b0319166001600160a01b039384161790556002549051634a4cce9760e01b8152600481018e90529293501690634a4cce9790602401602060405180830381865afa158015612605573d6000803e3d6000fd5b505050506040513d601f19601f820116820180604052508101906126299190613364565b61280b576001546040516351c37dab60e11b8152600481018c90526001600160a01b03909116906316f77a5b908390839063a386fb5690602401602060405180830381865afa158015612680573d6000803e3d6000fd5b505050506040513d601f19601f820116820180604052508101906126a491906131ee565b6000806126b3426103e861356a565b6040516001600160e01b031960e088901b1681526004810195909552602485019390935260448401919091526064830152608482015260a40160c0604051808303816000875af115801561270b573d6000803e3d6000fd5b505050506040513d601f19601f8201168201806040525081019061272f91906134d2565b50506001546040516351c37dab60e11b81528695507ff45eeb03060db0baf36cec20acde5e8464f49340c9877c55029d6ffe0e5cdac194506001600160a01b03909116925063a386fb56915061278d908f9060040190815260200190565b602060405180830381865afa1580156127aa573d6000803e3d6000fd5b505050506040513d601f19601f820116820180604052508101906127ce91906131ee565b600080806127de426103e861356a565b6000806000806000806040516127fe9b9a9998979695949392919061351c565b60405180910390a26128a8565b60008181526008602090815260408083208890556007825280832087905560098252808320859055600a82529182902085905581518b81529081018a905288151581830152606081018890526080810186905260a0810187905260c0810184905260e0810185905290518b91339184917fc7392b9822094f2dca86d2a7a97945e80918a8aee61c04de90253f3683b5695091908190036101000190a45b9998505050505050505050565b6000546001600160a01b031633146128df5760405162461bcd60e51b8152600401610bcf90613207565b6001600160a01b038116600081815260056020526040808220805460ff19166001179055517f9933dc1068bdc12c5246aaa280dfcb05f26f07eabddea9f11be05cd89d21da099190a250565b612934336122a5565b6129505760405162461bcd60e51b8152600401610bcf906132aa565b604080518981526020810189905287151581830152606081018790526080810186905260a0810185905260c0810184905260e0810183905290518a916001600160a01b038d16918e917fe27c49d1eafe79b2bc5109b33b96343dba653822906061750c5b6f591b8c753191908190036101000190a45050505050505050505050565b6129db336122a5565b6129f75760405162461bcd60e51b8152600401610bcf906132aa565b60405162461bcd60e51b815260206004820152604860248201527f4d6f72706865724f7261636c653a2043616e6e6f74207573652074686973206660448201527f756e6374696f6e616c69747920696e20746865206f7261636c6520617420746860648201526719481b5bdb595b9d60c21b608482015260a401610bcf565b600260009054906101000a90046001600160a01b03166001600160a01b031663169674076040518163ffffffff1660e01b8152600401602060405180830381865afa158015612ac9573d6000803e3d6000fd5b505050506040513d601f19601f82011682018060405250810190612aed919061323c565b6001600160a01b0316336001600160a01b031614612b1d5760405162461bcd60e51b8152600401610bcf90613259565b600e54604080516001600160a01b03928316815291831660208301527f09b9b8c802040773d753f9ee49bac8d76a1726ec65f89bfef86a669c06c40a2b910160405180910390a1600e80546001600160a01b0319166001600160a01b0392909216919091179055565b600260009054906101000a90046001600160a01b03166001600160a01b031663169674076040518163ffffffff1660e01b8152600401602060405180830381865afa158015612bd9573d6000803e3d6000fd5b505050506040513d601f19601f82011682018060405250810190612bfd919061323c565b6001600160a01b0316336001600160a01b031614612c2d5760405162461bcd60e51b8152600401610bcf90613259565b600d54604080516001600160a01b03928316815291831660208301527fe6a2b07350361e989d0c34180c0793acb4eb48508b9fa8cb0abb716bc854e741910160405180910390a1600d80546001600160a01b0319166001600160a01b0392909216919091179055565b6000546001600160a01b03163314612cc05760405162461bcd60e51b8152600401610bcf90613207565b6001600160a01b038116612d255760405162461bcd60e51b815260206004820152602660248201527f4f776e61626c653a206e6577206f776e657220697320746865207a65726f206160448201526564647265737360d01b6064820152608401610bcf565b612d2e81612e98565b50565b6000546001600160a01b03163314612d5b5760405162461bcd60e51b8152600401610bcf90613207565b600180546001600160a01b0319166001600160a01b0383169081179091556040519081527f31e8636ae4eb2213bca939acb2164159318122b7c3ee4eb268e2f9eadb034e8890602001610e13565b6000818152600c60205260408120546001600160a01b031615612de257506000908152600c60205260409020546001600160a01b031690565b600f546001600160a01b031615612e8757600f54604051633f0a92b360e21b8152600481018490526001600160a01b0390911690600090829063fc2a4acc90602401602060405180830381865afa158015612e41573d6000803e3d6000fd5b505050506040513d601f19601f82011682018060405250810190612e65919061323c565b600e549091506001600160a01b03808316911614612e84579392505050565b50505b5050600d546001600160a01b031690565b600080546001600160a01b038381166001600160a01b0319831681178455604051919092169283917f8be0079c531659141344cd1fd0a4f28419497f9722a3daafe3b4186f6b6457e09190a35050565b600060208284031215612efa57600080fd5b5035919050565b6001600160a01b0381168114612d2e57600080fd5b600060208284031215612f2857600080fd5b8135610ac081612f01565b8015158114612d2e57600080fd5b60008060408385031215612f5457600080fd5b823591506020830135612f6681612f33565b809150509250929050565b634e487b7160e01b600052604160045260246000fd5b600060208284031215612f9957600080fd5b813567ffffffffffffffff80821115612fb157600080fd5b818401915084601f830112612fc557600080fd5b813581811115612fd757612fd7612f71565b604051601f8201601f19908116603f01168101908382118183101715612fff57612fff612f71565b8160405282815287602084870101111561301857600080fd5b826020860160208301376000928101602001929092525095945050505050565b6000806040838503121561304b57600080fd5b823561305681612f01565b946020939093013593505050565b6000806040838503121561307757600080fd5b50508035926020909101359150565b600080600080600080600060e0888a0312156130a157600080fd5b505085359760208701359750604087013596606081013596506080810135955060a0810135945060c0013592509050565b60008060008060008060008060006101208a8c0312156130f157600080fd5b8935985060208a0135975060408a0135965060608a013561311181612f33565b989b979a50959860808101359760a0820135975060c0820135965060e08201359550610100909101359350915050565b60008060008060008060008060008060006101608c8e03121561316357600080fd5b8b359a5060208c013561317581612f01565b995060408c0135985060608c0135975060808c0135965060a08c013561319a81612f33565b9a9d999c50979a9699959895975050505060c08401359360e081013593610100820135935061012082013592506101409091013590565b6000602082840312156131e357600080fd5b8135610ac081612f33565b60006020828403121561320057600080fd5b5051919050565b6020808252818101527f4f776e61626c653a2063616c6c6572206973206e6f7420746865206f776e6572604082015260600190565b60006020828403121561324e57600080fd5b8151610ac081612f01565b60208082526031908201527f46756e6374696f6e2063616e206f6e6c792062652063616c6c6564206279207460408201527034329020b236b4b734b9ba3930ba37b91760791b606082015260800190565b6020808252603f908201527f4d6f72706865724f7261636c653a204f6e6c7920746865206f7261636c65206f60408201527f70657261746f722063616e2063616c6c20746869732066756e6374696f6e2e00606082015260800190565b600080600080600080600060e0888a03121561332257600080fd5b875161332d81612f01565b602089015160408a015160608b015160808c015160a08d015160c0909d0151949e939d50919b909a50909850965090945092505050565b60006020828403121561337657600080fd5b8151610ac081612f33565b634e487b7160e01b600052601160045260246000fd5b60006000198214156133ab576133ab613381565b5060010190565b6000825160005b818110156133d357602081860181015185830152016133b9565b818111156133e2576000828501525b509190910192915050565b60208082526026908201527f4d6f72706865724f7261636c653a204f7261636c65207061757365642c2061626040820152656f7274696e6760d01b606082015260800190565b60208082526044908201527f4d6f72706865724f7261636c653a204d757374207472616e736665722067617360408201527f20636f73747320666f72204f7261636c652043616c6c6261636b2066756e637460608201526334b7b71760e11b608082015260a00190565b6001600160a01b039690961686526020860194909452604085019290925260608401521515608083015260a082015260c00190565b60008060008060008060c087890312156134eb57600080fd5b865195506020870151945060408701519350606087015192506080870151915060a087015190509295509295509295565b9a8b5260208b019990995260408a01979097526060890195909552608088019390935260a087019190915260c086015260e08501526101008401526101208301526101408201526101600190565b600081600019048311821515161561358457613584613381565b50029056fea264697066735822122065e401e30317672ed1e7d83ef6435cb2d6e1fb64534667b3ca2056499fd60e0a64736f6c634300080b00334f776e61626c653a2063616c6c6572206973206e6f7420746865206f776e6572",
  "immutableReferences": {},
  "source": "//SPDX-License-Identifier: GPLv3\r\npragma solidity 0.8.11;\r\nimport \"@openzeppelin/contracts/access/Ownable.sol\";\r\n\r\nimport \"./MorpherTradeEngine.sol\";\r\nimport \"./MorpherState.sol\";\r\n\r\n// ----------------------------------------------------------------------------------\r\n// Morpher Oracle contract v 2.0\r\n// The oracle initates a new trade by calling trade engine and requesting a new orderId.\r\n// An event is fired by the contract notifying the oracle operator to query a price/liquidation unchecked\r\n// for a market/user and return the information via the callback function. Since calling\r\n// the callback function requires gas, the user must send a fixed amount of Ether when\r\n// creating their order.\r\n// ----------------------------------------------------------------------------------\r\n\r\ncontract MorpherOracle is Ownable {\r\n\r\n    MorpherTradeEngine tradeEngine;\r\n    MorpherState state; // read only, Oracle doesn't need writing access to state\r\n\r\n    bool public paused;\r\n    bool public useWhiteList; //always false at the moment\r\n\r\n    uint256 public gasForCallback;\r\n\r\n    address payable public callBackCollectionAddress;\r\n\r\n    mapping(address => bool) public callBackAddress;\r\n    mapping(address => bool) public whiteList;\r\n    \r\n    mapping(bytes32 => uint256) public priceBelow;\r\n    mapping(bytes32 => uint256) public priceAbove;\r\n    mapping(bytes32 => uint256) public goodFrom;\r\n    mapping(bytes32 => uint256) public goodUntil;\r\n\r\n    mapping(bytes32 => bool) public orderCancellationRequested;\r\n\r\n    mapping(bytes32 => address) public orderIdTradeEngineAddress;\r\n    address public previousTradeEngineAddress;\r\n    address public skipPreviousTradeEngineAddress; //skips a trade engine address, e.g. typos\r\n    address public previousOracleAddress;\r\n\r\n// ----------------------------------------------------------------------------------\r\n// Events\r\n// ----------------------------------------------------------------------------------\r\n    event OrderCreated(\r\n        bytes32 indexed _orderId,\r\n        address indexed _address,\r\n        bytes32 indexed _marketId,\r\n        uint256 _closeSharesAmount,\r\n        uint256 _openMPHTokenAmount,\r\n        bool _tradeDirection,\r\n        uint256 _orderLeverage,\r\n        uint256 _onlyIfPriceBelow,\r\n        uint256 _onlyIfPriceAbove,\r\n        uint256 _goodFrom,\r\n        uint256 _goodUntil\r\n        );\r\n\r\n    event LiquidationOrderCreated(\r\n        bytes32 indexed _orderId,\r\n        address _sender,\r\n        address indexed _address,\r\n        bytes32 indexed _marketId\r\n\r\n        );\r\n\r\n    event OrderProcessed(\r\n        bytes32 indexed _orderId,\r\n        uint256 _price,\r\n        uint256 _unadjustedMarketPrice,\r\n        uint256 _spread,\r\n        uint256 _positionLiquidationTimestamp,\r\n        uint256 _timeStamp,\r\n        uint256 _newLongShares,\r\n        uint256 _newShortShares,\r\n        uint256 _newMeanEntry,\r\n        uint256 _newMeanSprad,\r\n        uint256 _newMeanLeverage,\r\n        uint256 _liquidationPrice\r\n        );\r\n\r\n    event OrderFailed(\r\n        bytes32 indexed _orderId,\r\n        address indexed _address,\r\n        bytes32 indexed _marketId,\r\n        uint256 _closeSharesAmount,\r\n        uint256 _openMPHTokenAmount,\r\n        bool _tradeDirection,\r\n        uint256 _orderLeverage,\r\n        uint256 _onlyIfPriceBelow,\r\n        uint256 _onlyIfPriceAbove,\r\n        uint256 _goodFrom,\r\n        uint256 _goodUntil\r\n        );\r\n\r\n    event OrderCancelled(\r\n        bytes32 indexed _orderId,\r\n        address indexed _sender,\r\n        address indexed _oracleAddress\r\n        );\r\n    \r\n    event AdminOrderCancelled(\r\n        bytes32 indexed _orderId,\r\n        address indexed _sender,\r\n        address indexed _oracleAddress\r\n        );\r\n\r\n    event OrderCancellationRequestedEvent(\r\n        bytes32 indexed _orderId,\r\n        address indexed _sender\r\n        );\r\n\r\n    event CallbackAddressEnabled(\r\n        address indexed _address\r\n        );\r\n\r\n    event CallbackAddressDisabled(\r\n        address indexed _address\r\n        );\r\n\r\n    event OraclePaused(\r\n        bool _paused\r\n        );\r\n        \r\n    event CallBackCollectionAddressChange(\r\n        address _address\r\n        );\r\n\r\n    event SetGasForCallback(\r\n        uint256 _gasForCallback\r\n        );\r\n\r\n    event LinkTradeEngine(\r\n        address _address\r\n        );\r\n\r\n    event LinkMorpherState(\r\n        address _address\r\n        );\r\n\r\n    event SetUseWhiteList(\r\n        bool _useWhiteList\r\n        );\r\n\r\n    event AddressWhiteListed(\r\n        address _address\r\n        );\r\n\r\n    event AddressBlackListed(\r\n        address _address\r\n        );\r\n\r\n    event AdminLiquidationOrderCreated(\r\n        bytes32 indexed _orderId,\r\n        address indexed _address,\r\n        bytes32 indexed _marketId,\r\n        uint256 _closeSharesAmount,\r\n        uint256 _openMPHTokenAmount,\r\n        bool _tradeDirection,\r\n        uint256 _orderLeverage\r\n        );\r\n\r\n    /**\r\n     * Delisting markets is a function that stops when gas is running low\r\n     * if it reached all positions it will emit \"DelistMarketComplete\"\r\n     * otherwise it needs to be re-run.\r\n     */\r\n    event DelistMarketIncomplete(bytes32 _marketId, uint256 _processedUntilIndex);\r\n    event DelistMarketComplete(bytes32 _marketId);\r\n    event LockedPriceForClosingPositions(bytes32 _marketId, uint256 _price);\r\n\r\n\r\n    event FallbackOracleUpdated(address _oldFallbackOracle, address _newFallbackOracle);\r\n    event FallbackTradeEngineUpdated(address _oldFallbackTradeEngine, address _newFallbackTradeEngine);\r\n    event UpdateSkipPreviousTradeEngineAddress(address _oldAddress, address _newAddress);\r\n\r\n    modifier onlyOracleOperator {\r\n        require(isCallbackAddress(msg.sender), \"MorpherOracle: Only the oracle operator can call this function.\");\r\n        _;\r\n    }\r\n\r\n    modifier onlyAdministrator {\r\n        require(msg.sender == state.getAdministrator(), \"Function can only be called by the Administrator.\");\r\n        _;\r\n    }\r\n\r\n    modifier notPaused {\r\n        require(paused == false, \"MorpherOracle: Oracle paused, aborting\");\r\n        _;\r\n    }\r\n\r\n   constructor(address _tradeEngineAddress, address _morpherState, address _callBackAddress, address payable _gasCollectionAddress, uint256 _gasForCallback, address _coldStorageOwnerAddress, address _previousTradeEngineAddress, address _previousOracleAddress) {\r\n        setTradeEngineAddress(_tradeEngineAddress);\r\n        setStateAddress(_morpherState);\r\n        enableCallbackAddress(_callBackAddress);\r\n        setCallbackCollectionAddress(_gasCollectionAddress);\r\n        setGasForCallback(_gasForCallback);\r\n        transferOwnership(_coldStorageOwnerAddress);\r\n        previousTradeEngineAddress = _previousTradeEngineAddress; //that is the address before updating the trade engine. Can set to 0x0000 if a completely new deployment happens. It is only valid when mid-term updating the tradeengine\r\n        previousOracleAddress = _previousOracleAddress; //if we are updating the oracle, then this is the previous oracle address. Can be set to 0x00 if a completely new deployment happens.\r\n    }\r\n\r\n// ----------------------------------------------------------------------------------\r\n// Setter/getter functions for trade engine address, oracle operator (callback) address,\r\n// and prepaid gas limit for callback function\r\n// ----------------------------------------------------------------------------------\r\n    function setTradeEngineAddress(address _address) public onlyOwner {\r\n        tradeEngine = MorpherTradeEngine(_address);\r\n        emit LinkTradeEngine(_address);\r\n    }\r\n\r\n    function setStateAddress(address _address) public onlyOwner {\r\n        state = MorpherState(_address);\r\n        emit LinkMorpherState(_address);\r\n    }\r\n\r\n    function overrideGasForCallback(uint256 _gasForCallback) public onlyOwner {\r\n        gasForCallback = _gasForCallback;\r\n        emit SetGasForCallback(_gasForCallback);\r\n    }\r\n    \r\n    function setGasForCallback(uint256 _gasForCallback) private {\r\n        gasForCallback = _gasForCallback;\r\n        emit SetGasForCallback(_gasForCallback);\r\n    }\r\n\r\n    function enableCallbackAddress(address _address) public onlyOwner {\r\n        callBackAddress[_address] = true;\r\n        emit CallbackAddressEnabled(_address);\r\n    }\r\n\r\n    function disableCallbackAddress(address _address) public onlyOwner {\r\n        callBackAddress[_address] = false;\r\n        emit CallbackAddressDisabled(_address);\r\n    }\r\n\r\n    function isCallbackAddress(address _address) public view returns (bool _isCallBackAddress) {\r\n        return callBackAddress[_address];\r\n    }\r\n\r\n    function setCallbackCollectionAddress(address payable _address) public onlyOwner {\r\n        callBackCollectionAddress = _address;\r\n        emit CallBackCollectionAddressChange(_address);\r\n    }\r\n\r\n    function getAdministrator() public view returns(address _administrator) {\r\n        return state.getAdministrator();\r\n    }\r\n\r\n// ----------------------------------------------------------------------------------\r\n// Oracle Owner can use a whitelist and authorize individual addresses\r\n// ----------------------------------------------------------------------------------\r\n    function setUseWhiteList(bool _useWhiteList) public onlyOracleOperator {\r\n        require(false, \"MorpherOracle: Cannot use this functionality in the oracle at the moment\");\r\n        useWhiteList = _useWhiteList;\r\n        emit SetUseWhiteList(_useWhiteList);\r\n    }\r\n\r\n    function setWhiteList(address _whiteList) public onlyOracleOperator {\r\n        whiteList[_whiteList] = true;\r\n        emit AddressWhiteListed(_whiteList);\r\n    }\r\n\r\n    function setBlackList(address _blackList) public onlyOracleOperator {\r\n        whiteList[_blackList] = false;\r\n        emit AddressBlackListed(_blackList);\r\n    }\r\n\r\n    function isWhiteListed(address _address) public view returns (bool _whiteListed) {\r\n        if (useWhiteList == false ||  whiteList[_address] == true) {\r\n            _whiteListed = true;\r\n        }\r\n        return(_whiteListed);\r\n    }\r\n\r\n// ----------------------------------------------------------------------------------\r\n// emitOrderFailed\r\n// Can be called by Oracle Operator to notifiy user of failed order\r\n// ----------------------------------------------------------------------------------\r\n    function emitOrderFailed(\r\n        bytes32 _orderId,\r\n        address _address,\r\n        bytes32 _marketId,\r\n        uint256 _closeSharesAmount,\r\n        uint256 _openMPHTokenAmount,\r\n        bool _tradeDirection,\r\n        uint256 _orderLeverage,\r\n        uint256 _onlyIfPriceBelow,\r\n        uint256 _onlyIfPriceAbove,\r\n        uint256 _goodFrom,\r\n        uint256 _goodUntil\r\n    ) public onlyOracleOperator {\r\n        emit OrderFailed(\r\n            _orderId,\r\n            _address,\r\n            _marketId,\r\n            _closeSharesAmount,\r\n            _openMPHTokenAmount,\r\n            _tradeDirection,\r\n            _orderLeverage,\r\n            _onlyIfPriceBelow,\r\n            _onlyIfPriceAbove,\r\n            _goodFrom,\r\n            _goodUntil);\r\n    }\r\n\r\n// ----------------------------------------------------------------------------------\r\n// createOrder(bytes32  _marketId, bool _tradeAmountGivenInShares, uint256 _tradeAmount, bool _tradeDirection, uint256 _orderLeverage)\r\n// Request a new orderId from trade engine and fires event for price/liquidation check request.\r\n// ----------------------------------------------------------------------------------\r\n    function createOrder(\r\n        bytes32 _marketId,\r\n        uint256 _closeSharesAmount,\r\n        uint256 _openMPHTokenAmount,\r\n        bool _tradeDirection,\r\n        uint256 _orderLeverage,\r\n        uint256 _onlyIfPriceAbove,\r\n        uint256 _onlyIfPriceBelow,\r\n        uint256 _goodUntil,\r\n        uint256 _goodFrom\r\n        ) public payable notPaused returns (bytes32 _orderId) {\r\n        require(isWhiteListed(msg.sender),\"MorpherOracle: Address not eligible to create an order.\");\r\n        if (gasForCallback > 0) {\r\n            require(msg.value >= gasForCallback, \"MorpherOracle: Must transfer gas costs for Oracle Callback function.\");\r\n            callBackCollectionAddress.transfer(msg.value);\r\n        }\r\n        _orderId = tradeEngine.requestOrderId(msg.sender, _marketId, _closeSharesAmount, _openMPHTokenAmount, _tradeDirection, _orderLeverage);\r\n        orderIdTradeEngineAddress[_orderId] = address(tradeEngine);\r\n\r\n        //if the market was deactivated, and the trader didn't fail yet, then we got an orderId to close the position with a locked in price\r\n        if(state.getMarketActive(_marketId) == false) {\r\n\r\n            //price will come from the position where price is stored forever\r\n            tradeEngine.processOrder(_orderId, tradeEngine.getDeactivatedMarketPrice(_marketId), 0, 0, block.timestamp * (1000));\r\n            \r\n            emit OrderProcessed(\r\n                _orderId,\r\n                tradeEngine.getDeactivatedMarketPrice(_marketId),\r\n                0,\r\n                0,\r\n                0,\r\n                block.timestamp * (1000),\r\n                0,\r\n                0,\r\n                0,\r\n                0,\r\n                0,\r\n                0\r\n                );\r\n        } else {\r\n            priceAbove[_orderId] = _onlyIfPriceAbove;\r\n            priceBelow[_orderId] = _onlyIfPriceBelow;\r\n            goodFrom[_orderId]   = _goodFrom;\r\n            goodUntil[_orderId]  = _goodUntil;\r\n            emit OrderCreated(\r\n                _orderId,\r\n                msg.sender,\r\n                _marketId,\r\n                _closeSharesAmount,\r\n                _openMPHTokenAmount,\r\n                _tradeDirection,\r\n                _orderLeverage,\r\n                _onlyIfPriceBelow,\r\n                _onlyIfPriceAbove,\r\n                _goodFrom,\r\n                _goodUntil\r\n                );\r\n        }\r\n\r\n        return _orderId;\r\n    }\r\n\r\n    function getTradeEngineFromOrderId(bytes32 _orderId) public view returns (address) {\r\n        //get the current trade engine\r\n        if(orderIdTradeEngineAddress[_orderId] != address(0)){\r\n            return orderIdTradeEngineAddress[_orderId];\r\n        }\r\n\r\n        if(previousOracleAddress != address(0)) {\r\n            MorpherOracle _oracle = MorpherOracle(previousOracleAddress);\r\n            address _previousTradeEngine = _oracle.getTradeEngineFromOrderId(_orderId);\r\n            if(_previousTradeEngine != skipPreviousTradeEngineAddress) { //fixing a typo\r\n                return _previousTradeEngine;\r\n            }\r\n        }\r\n\r\n        //nothing in there, take the previous tradeEngine then.\r\n        return previousTradeEngineAddress;\r\n    }\r\n\r\n    function updateSkipTradeEngineAddress(address _skipTradeEngineAddress) public onlyAdministrator {\r\n        emit UpdateSkipPreviousTradeEngineAddress(skipPreviousTradeEngineAddress, _skipTradeEngineAddress);\r\n        skipPreviousTradeEngineAddress = _skipTradeEngineAddress;\r\n    }\r\n\r\n\r\n    function updateFallbackTradeEngineAddress(address _tradeEngineFallbackAddress) public onlyAdministrator {\r\n        emit FallbackTradeEngineUpdated(previousTradeEngineAddress, _tradeEngineFallbackAddress);\r\n        previousTradeEngineAddress = _tradeEngineFallbackAddress;\r\n    }\r\n\r\n\r\n    function updateFallbackOracleAddress(address _oracleFallbackAddress) public onlyAdministrator {\r\n        emit FallbackOracleUpdated(previousOracleAddress, _oracleFallbackAddress);\r\n        previousOracleAddress = _oracleFallbackAddress;\r\n    }\r\n\r\n    function initiateCancelOrder(bytes32 _orderId) public {\r\n        MorpherTradeEngine _tradeEngine = MorpherTradeEngine(getTradeEngineFromOrderId(_orderId));\r\n        require(orderCancellationRequested[_orderId] == false, \"MorpherOracle: Order was already canceled.\");\r\n        (address userId, , , , , , ) = _tradeEngine.getOrder(_orderId);\r\n        require(userId == msg.sender, \"MorpherOracle: Only the user can request an order cancellation.\");\r\n        orderCancellationRequested[_orderId] = true;\r\n        emit OrderCancellationRequestedEvent(_orderId, msg.sender);\r\n\r\n    }\r\n    // ----------------------------------------------------------------------------------\r\n    // cancelOrder(bytes32  _orderId)\r\n    // User or Administrator can cancel their own orders before the _callback has been executed\r\n    // ----------------------------------------------------------------------------------\r\n    function cancelOrder(bytes32 _orderId) public onlyOracleOperator {\r\n        require(orderCancellationRequested[_orderId] == true, \"MorpherOracle: Order-Cancellation was not requested.\");\r\n        MorpherTradeEngine _tradeEngine = MorpherTradeEngine(getTradeEngineFromOrderId(_orderId));\r\n        (address userId, , , , , , ) = _tradeEngine.getOrder(_orderId);\r\n        _tradeEngine.cancelOrder(_orderId, userId);\r\n        clearOrderConditions(_orderId);\r\n        emit OrderCancelled(\r\n            _orderId,\r\n            userId,\r\n            msg.sender\r\n            );\r\n    }\r\n    \r\n    // ----------------------------------------------------------------------------------\r\n    // adminCancelOrder(bytes32  _orderId)\r\n    // Administrator can cancel before the _callback has been executed to provide an updateOrder functionality\r\n    // ----------------------------------------------------------------------------------\r\n    function adminCancelOrder(bytes32 _orderId) public onlyOracleOperator {\r\n        MorpherTradeEngine _tradeEngine = MorpherTradeEngine(getTradeEngineFromOrderId(_orderId));\r\n        (address userId, , , , , , ) = _tradeEngine.getOrder(_orderId);\r\n        _tradeEngine.cancelOrder(_orderId, userId);\r\n        clearOrderConditions(_orderId);\r\n        emit AdminOrderCancelled(\r\n            _orderId,\r\n            userId,\r\n            msg.sender\r\n            );\r\n    }\r\n\r\n    function getGoodUntil(bytes32 _orderId) public view returns(uint) {\r\n        if(goodUntil[_orderId] > 0) {\r\n            return goodUntil[_orderId];\r\n        }\r\n\r\n        //just return the old one\r\n        if(previousOracleAddress != address(0)) {\r\n            MorpherOracle _oldOracle = MorpherOracle(previousOracleAddress);\r\n            return _oldOracle.goodUntil(_orderId);\r\n        }\r\n\r\n        return 0;\r\n    }\r\n    function getGoodFrom(bytes32 _orderId) public view returns(uint) {\r\n        if(goodFrom[_orderId] > 0) {\r\n            return goodFrom[_orderId];\r\n        }\r\n\r\n        //just return the old one\r\n        if(previousOracleAddress != address(0)) {\r\n            MorpherOracle _oldOracle = MorpherOracle(previousOracleAddress);\r\n            return _oldOracle.goodFrom(_orderId);\r\n        }\r\n        return 0;\r\n    }\r\n    function getPriceAbove(bytes32 _orderId) public view returns(uint) {\r\n        if(priceAbove[_orderId] > 0) {\r\n            return priceAbove[_orderId];\r\n        }\r\n\r\n        //just return the old one\r\n        if(previousOracleAddress != address(0)) {\r\n            MorpherOracle _oldOracle = MorpherOracle(previousOracleAddress);\r\n            return _oldOracle.priceAbove(_orderId);\r\n        }\r\n        return 0;\r\n    }\r\n    function getPriceBelow(bytes32 _orderId) public view returns(uint) {\r\n        if(priceBelow[_orderId] > 0) {\r\n            return priceBelow[_orderId];\r\n        }\r\n\r\n        //just return the old one\r\n        if(previousOracleAddress != address(0)) {\r\n            MorpherOracle _oldOracle = MorpherOracle(previousOracleAddress);\r\n            return _oldOracle.priceBelow(_orderId);\r\n        }\r\n        return 0;\r\n    }\r\n\r\n// ------------------------------------------------------------------------\r\n// checkOrderConditions(bytes32 _orderId, uint256 _price)\r\n// Checks if callback satisfies the order conditions\r\n// ------------------------------------------------------------------------\r\n    function checkOrderConditions(bytes32 _orderId, uint256 _price) public view returns (bool _conditionsMet) {\r\n        _conditionsMet = true;\r\n        if (block.timestamp > getGoodUntil(_orderId) && getGoodUntil(_orderId) > 0) {\r\n            _conditionsMet = false;\r\n        }\r\n        if (block.timestamp < getGoodFrom(_orderId) && getGoodFrom(_orderId) > 0) {\r\n            _conditionsMet = false;\r\n        }\r\n\r\n        if(getPriceAbove(_orderId) > 0 && getPriceBelow(_orderId) > 0) {\r\n            if(_price < getPriceAbove(_orderId) && _price > getPriceBelow(_orderId)) {\r\n                _conditionsMet = false;\r\n            }\r\n        } else {\r\n            if (_price < getPriceAbove(_orderId) && getPriceAbove(_orderId) > 0) {\r\n                _conditionsMet = false;\r\n            }\r\n            if (_price > getPriceBelow(_orderId) && getPriceBelow(_orderId) > 0) {\r\n                _conditionsMet = false;\r\n            }\r\n        }\r\n        \r\n        return _conditionsMet;\r\n    }\r\n\r\n// ----------------------------------------------------------------------------------\r\n// Deletes parameters of cancelled or processed orders\r\n// ----------------------------------------------------------------------------------\r\n    function clearOrderConditions(bytes32 _orderId) internal {\r\n        priceAbove[_orderId] = 0;\r\n        priceBelow[_orderId] = 0;\r\n        goodFrom[_orderId]   = 0;\r\n        goodUntil[_orderId]  = 0;\r\n    }\r\n\r\n// ----------------------------------------------------------------------------------\r\n// Pausing/unpausing the Oracle contract\r\n// ----------------------------------------------------------------------------------\r\n    function pauseOracle() public onlyOwner {\r\n        paused = true;\r\n        emit OraclePaused(true);\r\n    }\r\n\r\n    function unpauseOracle() public onlyOwner {\r\n        paused = false;\r\n        emit OraclePaused(false);\r\n    }\r\n\r\n// ----------------------------------------------------------------------------------\r\n// createLiquidationOrder(address _address, bytes32 _marketId)\r\n// Checks if position has been liquidated since last check. Requires gas for callback\r\n// function. Anyone can issue a liquidation order for any other address and market.\r\n// ----------------------------------------------------------------------------------\r\n    function createLiquidationOrder(\r\n        address _address,\r\n        bytes32 _marketId\r\n        ) public notPaused onlyOracleOperator payable returns (bytes32 _orderId) {\r\n        if (gasForCallback > 0) {\r\n            require(msg.value >= gasForCallback, \"MorpherOracle: Must transfer gas costs for Oracle Callback function.\");\r\n            callBackCollectionAddress.transfer(msg.value);\r\n        }\r\n        _orderId = tradeEngine.requestOrderId(_address, _marketId, 0, 0, true, 10**8);\r\n        orderIdTradeEngineAddress[_orderId] = address(tradeEngine);\r\n        emit LiquidationOrderCreated(_orderId, msg.sender, _address, _marketId);\r\n        return _orderId;\r\n    }\r\n\r\n// ----------------------------------------------------------------------------------\r\n// __callback(bytes32 _orderId, uint256 _price, uint256 _spread, uint256 _liquidationTimestamp, uint256 _timeStamp)\r\n// Called by the oracle operator. Writes price/spread/liquidiation check to the blockchain.\r\n// Trade engine processes the order and updates the portfolio in state if successful.\r\n// ----------------------------------------------------------------------------------\r\n    function __callback(\r\n        bytes32 _orderId,\r\n        uint256 _price,\r\n        uint256 _unadjustedMarketPrice,\r\n        uint256 _spread,\r\n        uint256 _liquidationTimestamp,\r\n        uint256 _timeStamp,\r\n        uint256 _gasForNextCallback\r\n        ) public onlyOracleOperator notPaused returns (uint256 _newLongShares, uint256 _newShortShares, uint256 _newMeanEntry, uint256 _newMeanSpread, uint256 _newMeanLeverage, uint256 _liquidationPrice)  {\r\n        \r\n        require(checkOrderConditions(_orderId, _price), 'MorpherOracle Error: Order Conditions are not met');\r\n       \r\n       MorpherTradeEngine _tradeEngine = MorpherTradeEngine(getTradeEngineFromOrderId(_orderId));\r\n        (\r\n            _newLongShares,\r\n            _newShortShares,\r\n            _newMeanEntry,\r\n            _newMeanSpread,\r\n            _newMeanLeverage,\r\n            _liquidationPrice\r\n        ) = _tradeEngine.processOrder(_orderId, _price, _spread, _liquidationTimestamp, _timeStamp);\r\n        \r\n        clearOrderConditions(_orderId);\r\n        emit OrderProcessed(\r\n            _orderId,\r\n            _price,\r\n            _unadjustedMarketPrice,\r\n            _spread,\r\n            _liquidationTimestamp,\r\n            _timeStamp,\r\n            _newLongShares,\r\n            _newShortShares,\r\n            _newMeanEntry,\r\n            _newMeanSpread,\r\n            _newMeanLeverage,\r\n            _liquidationPrice\r\n            );\r\n        setGasForCallback(_gasForNextCallback);\r\n        return (_newLongShares, _newShortShares, _newMeanEntry, _newMeanSpread, _newMeanLeverage, _liquidationPrice);\r\n    }\r\n\r\n// ----------------------------------------------------------------------------------\r\n// delistMarket(bytes32 _marketId)\r\n// Administrator closes out all existing positions on _marketId market at current prices\r\n// ----------------------------------------------------------------------------------\r\n\r\n    uint delistMarketFromIx = 0;\r\n    function delistMarket(bytes32 _marketId, bool _startFromScratch) public onlyAdministrator {\r\n        require(state.getMarketActive(_marketId) == true, \"Market must be active to process position liquidations.\");\r\n        // If no _fromIx and _toIx specified, do entire _list\r\n        if (_startFromScratch) {\r\n            delistMarketFromIx = 0;\r\n        }\r\n        \r\n        uint _toIx = state.getMaxMappingIndex(_marketId);\r\n        \r\n        address _address;\r\n        for (uint256 i = delistMarketFromIx; i <= _toIx; i++) {\r\n             if(gasleft() < 250000 && i != _toIx) { //stop if there's not enough gas to write the next transaction\r\n                delistMarketFromIx = i;\r\n                emit DelistMarketIncomplete(_marketId, _toIx);\r\n                return;\r\n            } \r\n            \r\n            _address = state.getExposureMappingAddress(_marketId, i);\r\n            adminLiquidationOrder(_address, _marketId);\r\n            \r\n        }\r\n        emit DelistMarketComplete(_marketId);\r\n    }\r\n\r\n    /**\r\n     * Course of action would be:\r\n     * 1. de-activate market through state\r\n     * 2. set the Deactivated Market Price\r\n     * 3. let users still close their positions\r\n     */\r\n    function setDeactivatedMarketPrice(bytes32 _marketId, uint256 _price) public onlyAdministrator {\r\n        //todo updateable tradeEngine\r\n        tradeEngine.setDeactivatedMarketPrice(_marketId, _price);\r\n        emit LockedPriceForClosingPositions(_marketId, _price);\r\n\r\n    }\r\n\r\n// ----------------------------------------------------------------------------------\r\n// adminLiquidationOrder(address _address, bytes32 _marketId)\r\n// Administrator closes out an existing position of _address on _marketId market at current price\r\n// ----------------------------------------------------------------------------------\r\n    function adminLiquidationOrder(\r\n        address _address,\r\n        bytes32 _marketId\r\n        ) public onlyAdministrator returns (bytes32 _orderId) {\r\n            uint256 _positionLongShares = state.getLongShares(_address, _marketId);\r\n            uint256 _positionShortShares = state.getShortShares(_address, _marketId);\r\n            if (_positionLongShares > 0) {\r\n                _orderId = tradeEngine.requestOrderId(_address, _marketId, _positionLongShares, 0, false, 10**8);\r\n                emit AdminLiquidationOrderCreated(_orderId, _address, _marketId, _positionLongShares, 0, false, 10**8);\r\n            }\r\n            if (_positionShortShares > 0) {\r\n                _orderId = tradeEngine.requestOrderId(_address, _marketId, _positionShortShares, 0, true, 10**8);\r\n                emit AdminLiquidationOrderCreated(_orderId, _address, _marketId, _positionShortShares, 0, true, 10**8);\r\n            }\r\n            orderIdTradeEngineAddress[_orderId] = address(tradeEngine);\r\n            return _orderId;\r\n    }\r\n    \r\n// ----------------------------------------------------------------------------------\r\n// Auxiliary function to hash a string market name i.e.\r\n// \"CRYPTO_BTC\" => 0x0bc89e95f9fdaab7e8a11719155f2fd638cb0f665623f3d12aab71d1a125daf9;\r\n// ----------------------------------------------------------------------------------\r\n    function stringToHash(string memory _source) public pure returns (bytes32 _result) {\r\n        return keccak256(abi.encodePacked(_source));\r\n    }\r\n}\r\n\r\n",
  "sourcePath": "/home/thomas/MorpherProtocol/contracts/MorpherOracle.sol",
  "compiler": {
    "name": "solc",
    "version": "0.8.11+commit.d7f03943.Emscripten.clang"
  },
  "schemaVersion": "3.4.5",
  "updatedAt": "2022-03-03T15:03:23.648Z",
  "devdoc": {
    "kind": "dev",
    "methods": {
      "owner()": {
        "details": "Returns the address of the current owner."
      },
      "renounceOwnership()": {
        "details": "Leaves the contract without owner. It will not be possible to call `onlyOwner` functions anymore. Can only be called by the current owner. NOTE: Renouncing ownership will leave the contract without an owner, thereby removing any functionality that is only available to the owner."
      },
      "transferOwnership(address)": {
        "details": "Transfers ownership of the contract to a new account (`newOwner`). Can only be called by the current owner."
      }
    },
    "version": 1
  },
  "userdoc": {
    "events": {
      "DelistMarketIncomplete(bytes32,uint256)": {
        "notice": "Delisting markets is a function that stops when gas is running low if it reached all positions it will emit \"DelistMarketComplete\" otherwise it needs to be re-run."
      }
    },
    "kind": "user",
    "methods": {
      "setDeactivatedMarketPrice(bytes32,uint256)": {
        "notice": "Course of action would be: 1. de-activate market through state 2. set the Deactivated Market Price 3. let users still close their positions"
      }
    },
    "version": 1
  }
}