{
  "contractName": "MorpherFaucet",
  "abi": [
    {
      "inputs": [
        {
          "internalType": "address payable",
          "name": "_morpherToken",
          "type": "address"
        },
        {
          "internalType": "address",
          "name": "_coldStorageOwnerAddress",
          "type": "address"
        },
        {
          "internalType": "uint256",
          "name": "_fillUpAmount",
          "type": "uint256"
        }
      ],
      "stateMutability": "nonpayable",
      "type": "constructor"
    },
    {
      "anonymous": false,
      "inputs": [
        {
          "indexed": false,
          "internalType": "uint256",
          "name": "_oldAmount",
          "type": "uint256"
        },
        {
          "indexed": false,
          "internalType": "uint256",
          "name": "_newAmount",
          "type": "uint256"
        }
      ],
      "name": "MorpherFaucetFillUpAmountChanged",
      "type": "event"
    },
    {
      "anonymous": false,
      "inputs": [
        {
          "indexed": true,
          "internalType": "address",
          "name": "_receiver",
          "type": "address"
        },
        {
          "indexed": false,
          "internalType": "uint256",
          "name": "_amount",
          "type": "uint256"
        }
      ],
      "name": "MorpherFaucetTopUp",
      "type": "event"
    },
    {
      "anonymous": false,
      "inputs": [
        {
          "indexed": true,
          "internalType": "address",
          "name": "previousOwner",
          "type": "address"
        },
        {
          "indexed": true,
          "internalType": "address",
          "name": "newOwner",
          "type": "address"
        }
      ],
      "name": "OwnershipTransferred",
      "type": "event"
    },
    {
      "stateMutability": "payable",
      "type": "fallback"
    },
    {
      "inputs": [],
      "name": "fillUpAmount",
      "outputs": [
        {
          "internalType": "uint256",
          "name": "",
          "type": "uint256"
        }
      ],
      "stateMutability": "view",
      "type": "function"
    },
    {
      "inputs": [],
      "name": "owner",
      "outputs": [
        {
          "internalType": "address",
          "name": "",
          "type": "address"
        }
      ],
      "stateMutability": "view",
      "type": "function"
    },
    {
      "inputs": [],
      "name": "renounceOwnership",
      "outputs": [],
      "stateMutability": "nonpayable",
      "type": "function"
    },
    {
      "inputs": [
        {
          "internalType": "address",
          "name": "newOwner",
          "type": "address"
        }
      ],
      "name": "transferOwnership",
      "outputs": [],
      "stateMutability": "nonpayable",
      "type": "function"
    },
    {
      "stateMutability": "payable",
      "type": "receive"
    },
    {
      "inputs": [
        {
          "internalType": "address payable",
          "name": "_address",
          "type": "address"
        }
      ],
      "name": "setMorpherTokenAddress",
      "outputs": [],
      "stateMutability": "nonpayable",
      "type": "function"
    },
    {
      "inputs": [
        {
          "internalType": "uint256",
          "name": "_newFillUpAmount",
          "type": "uint256"
        }
      ],
      "name": "setFillUpAmount",
      "outputs": [],
      "stateMutability": "nonpayable",
      "type": "function"
    },
    {
      "inputs": [],
      "name": "topUpToken",
      "outputs": [],
      "stateMutability": "nonpayable",
      "type": "function"
    }
  ],
  "bytecode": "0x608060405234801561001057600080fd5b506040516109b13803806109b183398101604081905261002f91610219565b6100383361006d565b600180546001600160a01b0319166001600160a01b03851617905561005c826100bd565b6100658161017b565b50505061025c565b600080546001600160a01b038381166001600160a01b0319831681178455604051919092169283917f8be0079c531659141344cd1fd0a4f28419497f9722a3daafe3b4186f6b6457e09190a35050565b6000546001600160a01b0316331461010a5760405162461bcd60e51b8152602060048201819052602482015260008051602061099183398151915260448201526064015b60405180910390fd5b6001600160a01b03811661016f5760405162461bcd60e51b815260206004820152602660248201527f4f776e61626c653a206e6577206f776e657220697320746865207a65726f206160448201526564647265737360d01b6064820152608401610101565b6101788161006d565b50565b6000546001600160a01b031633146101c35760405162461bcd60e51b815260206004820181905260248201526000805160206109918339815191526044820152606401610101565b60025460408051918252602082018390527fb3b4dfa21e50f1c76a055533babb800fc3268e95765d73354045d51a185251c3910160405180910390a1600255565b6001600160a01b038116811461017857600080fd5b60008060006060848603121561022e57600080fd5b835161023981610204565b602085015190935061024a81610204565b80925050604084015190509250925092565b6107268061026b6000396000f3fe6080604052600436106100745760003560e01c8063715018a61161004e578063715018a61461011d5780638da5cb5b14610132578063b0ed1da91461015a578063f2fde38b1461016f5761009a565b80633817f554146100b257806344135c9a146100d4578063533f8fd1146100fd5761009a565b3661009a5760405162461bcd60e51b8152600401610091906105be565b60405180910390fd5b60405162461bcd60e51b8152600401610091906105be565b3480156100be57600080fd5b506100d26100cd36600461061e565b61018f565b005b3480156100e057600080fd5b506100ea60025481565b6040519081526020015b60405180910390f35b34801561010957600080fd5b506100d2610118366004610642565b6101db565b34801561012957600080fd5b506100d2610246565b34801561013e57600080fd5b506000546040516001600160a01b0390911681526020016100f4565b34801561016657600080fd5b506100d261027c565b34801561017b57600080fd5b506100d261018a36600461061e565b6104d3565b6000546001600160a01b031633146101b95760405162461bcd60e51b81526004016100919061065b565b600180546001600160a01b0319166001600160a01b0392909216919091179055565b6000546001600160a01b031633146102055760405162461bcd60e51b81526004016100919061065b565b60025460408051918252602082018390527fb3b4dfa21e50f1c76a055533babb800fc3268e95765d73354045d51a185251c3910160405180910390a1600255565b6000546001600160a01b031633146102705760405162461bcd60e51b81526004016100919061065b565b61027a600061056e565b565b6002546001546040516370a0823160e01b81523360048201526001600160a01b03909116906370a0823190602401602060405180830381865afa1580156102c7573d6000803e3d6000fd5b505050506040513d601f19601f820116820180604052508101906102eb9190610690565b106103305760405162461bcd60e51b815260206004820152601560248201527411925313155417d05353d5539517d4915050d21151605a1b6044820152606401610091565b6001546040516370a0823160e01b815233600482018190526001600160a01b039092169163a9059cbb9183906370a0823190602401602060405180830381865afa158015610382573d6000803e3d6000fd5b505050506040513d601f19601f820116820180604052508101906103a69190610690565b6002546103b391906106a9565b6040516001600160e01b031960e085901b1681526001600160a01b03909216600483015260248201526044016020604051808303816000875af11580156103fe573d6000803e3d6000fd5b505050506040513d601f19601f8201168201806040525081019061042291906106ce565b506001546040516370a0823160e01b81523360048201819052917eec8d696ddf6a9225ecb395f69a85d8d7238ff10431c183801c27810f289104916001600160a01b03909116906370a0823190602401602060405180830381865afa15801561048f573d6000803e3d6000fd5b505050506040513d601f19601f820116820180604052508101906104b39190610690565b6002546104c091906106a9565b60405190815260200160405180910390a2565b6000546001600160a01b031633146104fd5760405162461bcd60e51b81526004016100919061065b565b6001600160a01b0381166105625760405162461bcd60e51b815260206004820152602660248201527f4f776e61626c653a206e6577206f776e657220697320746865207a65726f206160448201526564647265737360d01b6064820152608401610091565b61056b8161056e565b50565b600080546001600160a01b038381166001600160a01b0319831681178455604051919092169283917f8be0079c531659141344cd1fd0a4f28419497f9722a3daafe3b4186f6b6457e09190a35050565b6020808252602b908201527f4d6f72706865724661756365743a20796f752063616e2774206465706f73697460408201526a204574686572206865726560a81b606082015260800190565b6001600160a01b038116811461056b57600080fd5b60006020828403121561063057600080fd5b813561063b81610609565b9392505050565b60006020828403121561065457600080fd5b5035919050565b6020808252818101527f4f776e61626c653a2063616c6c6572206973206e6f7420746865206f776e6572604082015260600190565b6000602082840312156106a257600080fd5b5051919050565b6000828210156106c957634e487b7160e01b600052601160045260246000fd5b500390565b6000602082840312156106e057600080fd5b8151801515811461063b57600080fdfea2646970667358221220e9a5b53a5c9e7827a6879e10445be2f7054dd96ba8d178a4b5daa9ade6cbbe3c64736f6c634300080b00334f776e61626c653a2063616c6c6572206973206e6f7420746865206f776e6572",
  "immutableReferences": {},
  "source": "//SPDX-License-Identifier: GPLv3\r\npragma solidity 0.8.11;\r\nimport \"@openzeppelin/contracts/access/Ownable.sol\";\r\n\r\nimport \"./MorpherToken.sol\";\r\n\r\n// ----------------------------------------------------------------------------------\r\n// Holds the Faucet Token balance on contract addressrdrop.\r\n// Users can topup to fillUpAmount\r\n// ----------------------------------------------------------------------------------\r\n\r\ncontract MorpherFaucet is Ownable {\r\n\r\n    MorpherToken morpherToken;\r\n\r\n    uint public fillUpAmount; //100 * 10**18; //fill up to 100 MPH.\r\n\r\n    event MorpherFaucetTopUp(address indexed _receiver, uint _amount);\r\n    event MorpherFaucetFillUpAmountChanged(uint _oldAmount, uint _newAmount);\r\n\r\n    constructor(address payable _morpherToken, address _coldStorageOwnerAddress, uint _fillUpAmount) {\r\n        morpherToken = MorpherToken(_morpherToken);\r\n        transferOwnership(_coldStorageOwnerAddress);\r\n        setFillUpAmount(_fillUpAmount);\r\n    }\r\n  \r\n    function setMorpherTokenAddress(address payable _address) public onlyOwner {\r\n        morpherToken = MorpherToken(_address);\r\n    }\r\n\r\n    function setFillUpAmount(uint _newFillUpAmount) public onlyOwner {\r\n        emit MorpherFaucetFillUpAmountChanged(fillUpAmount, _newFillUpAmount);\r\n        fillUpAmount = _newFillUpAmount;\r\n    }\r\n\r\n\r\n    /**\r\n     * Only important function: User can top-up to his max amount. Needs to have less than fillUpAmount, otherwise it will fail.\r\n     */\r\n    function topUpToken() public {\r\n        require(morpherToken.balanceOf(msg.sender) < fillUpAmount, \"FILLUP_AMOUNT_REACHED\");\r\n        morpherToken.transfer(msg.sender, fillUpAmount - morpherToken.balanceOf(msg.sender));\r\n        emit MorpherFaucetTopUp(msg.sender, fillUpAmount - morpherToken.balanceOf(msg.sender));\r\n    }\r\n\r\n    fallback() external payable {\r\n        revert(\"MorpherFaucet: you can't deposit Ether here\");\r\n    }\r\n    receive() external payable {\r\n        revert(\"MorpherFaucet: you can't deposit Ether here\");\r\n    }\r\n\r\n\r\n}\r\n",
  "sourcePath": "/home/thomas/MorpherProtocol/contracts/MorpherFaucet.sol",
  "compiler": {
    "name": "solc",
    "version": "0.8.11+commit.d7f03943.Emscripten.clang"
  },
  "schemaVersion": "3.4.5",
  "updatedAt": "2022-03-23T14:35:42.965Z",
  "devdoc": {
    "kind": "dev",
    "methods": {
      "owner()": {
        "details": "Returns the address of the current owner."
      },
      "renounceOwnership()": {
        "details": "Leaves the contract without owner. It will not be possible to call `onlyOwner` functions anymore. Can only be called by the current owner. NOTE: Renouncing ownership will leave the contract without an owner, thereby removing any functionality that is only available to the owner."
      },
      "transferOwnership(address)": {
        "details": "Transfers ownership of the contract to a new account (`newOwner`). Can only be called by the current owner."
      }
    },
    "version": 1
  },
  "userdoc": {
    "kind": "user",
    "methods": {
      "topUpToken()": {
        "notice": "Only important function: User can top-up to his max amount. Needs to have less than fillUpAmount, otherwise it will fail."
      }
    },
    "version": 1
  }
}