{
  "contractName": "MorpherUserBlocking",
  "abi": [
    {
      "anonymous": false,
      "inputs": [
        {
          "indexed": false,
          "internalType": "address",
          "name": "_user",
          "type": "address"
        },
        {
          "indexed": false,
          "internalType": "bool",
          "name": "_oldIsBlocked",
          "type": "bool"
        },
        {
          "indexed": false,
          "internalType": "bool",
          "name": "_newIsBlocked",
          "type": "bool"
        }
      ],
      "name": "ChangeUserBlocked",
      "type": "event"
    },
    {
      "anonymous": false,
      "inputs": [
        {
          "indexed": false,
          "internalType": "address",
          "name": "_oldAddress",
          "type": "address"
        },
        {
          "indexed": false,
          "internalType": "address",
          "name": "_newAddress",
          "type": "address"
        }
      ],
      "name": "ChangedAddressAllowedToAddBlockedUsersAddress",
      "type": "event"
    },
    {
      "inputs": [],
      "name": "allowedToAddBlockedUsersAddress",
      "outputs": [
        {
          "internalType": "address",
          "name": "",
          "type": "address"
        }
      ],
      "stateMutability": "view",
      "type": "function"
    },
    {
      "inputs": [
        {
          "internalType": "address",
          "name": "",
          "type": "address"
        }
      ],
      "name": "userIsBlocked",
      "outputs": [
        {
          "internalType": "bool",
          "name": "",
          "type": "bool"
        }
      ],
      "stateMutability": "view",
      "type": "function"
    },
    {
      "inputs": [
        {
          "internalType": "address",
          "name": "_state",
          "type": "address"
        },
        {
          "internalType": "address",
          "name": "_allowedToAddBlockedUsersAddress",
          "type": "address"
        }
      ],
      "name": "initialize",
      "outputs": [],
      "stateMutability": "nonpayable",
      "type": "function"
    },
    {
      "inputs": [
        {
          "internalType": "address",
          "name": "_newAddress",
          "type": "address"
        }
      ],
      "name": "setAllowedToAddBlockedUsersAddress",
      "outputs": [],
      "stateMutability": "nonpayable",
      "type": "function"
    },
    {
      "inputs": [
        {
          "internalType": "address",
          "name": "_user",
          "type": "address"
        },
        {
          "internalType": "bool",
          "name": "_isBlocked",
          "type": "bool"
        }
      ],
      "name": "setUserBlocked",
      "outputs": [],
      "stateMutability": "nonpayable",
      "type": "function"
    }
  ],
  "bytecode": "0x608060405234801561001057600080fd5b5061062b806100206000396000f3fe608060405234801561001057600080fd5b50600436106100575760003560e01c80631a328dfc1461005c5780632a8203c91461008c578063485cc955146100a1578063ac259ace146100b4578063c7957bfc146100e7575b600080fd5b60035461006f906001600160a01b031681565b6040516001600160a01b0390911681526020015b60405180910390f35b61009f61009a366004610548565b6100fa565b005b61009f6100af366004610586565b610299565b6100d76100c23660046105b4565b60016020526000908152604090205460ff1681565b6040519015158152602001610083565b61009f6100f53660046105b4565b6103ca565b600260009054906101000a90046001600160a01b03166001600160a01b031663169674076040518163ffffffff1660e01b8152600401602060405180830381865afa15801561014d573d6000803e3d6000fd5b505050506040513d601f19601f8201168201806040525081019061017191906105d8565b6001600160a01b0316336001600160a01b0316148061019a57506003546001600160a01b031633145b6102115760405162461bcd60e51b815260206004820152603c60248201527f55736572426c6f636b696e673a204f6e6c792057686974652d4c69737465642060448201527f55736572732063616e2063616c6c20746869732066756e6374696f6e0000000060648201526084015b60405180910390fd5b6001600160a01b03821660008181526001602090815260409182902054825193845260ff1615159083015282151582820152517f60642ac3e5c326cc9df8f7a56bc66480fa777b33774874ac42651853d9f43f3b9181900360600190a16001600160a01b03919091166000908152600160205260409020805460ff1916911515919091179055565b600054610100900460ff166102b45760005460ff16156102b8565b303b155b61031b5760405162461bcd60e51b815260206004820152602e60248201527f496e697469616c697a61626c653a20636f6e747261637420697320616c72656160448201526d191e481a5b9a5d1a585b1a5e995960921b6064820152608401610208565b600054610100900460ff1615801561033d576000805461ffff19166101011790555b600280546001600160a01b0319166001600160a01b0385811691909117909155604080516000815291841660208301527f67dd81134c795f2b4011a7388f33730c5e31663e533a57033234bd0da0d248ed910160405180910390a1600380546001600160a01b0319166001600160a01b03841617905580156103c5576000805461ff00191690555b505050565b600260009054906101000a90046001600160a01b03166001600160a01b031663169674076040518163ffffffff1660e01b8152600401602060405180830381865afa15801561041d573d6000803e3d6000fd5b505050506040513d601f19601f8201168201806040525081019061044191906105d8565b6001600160a01b0316336001600160a01b0316146104c75760405162461bcd60e51b815260206004820152603760248201527f55736572426c6f636b696e673a204f6e6c792041646d696e6973747261746f7260448201527f2063616e2063616c6c20746869732066756e6374696f6e0000000000000000006064820152608401610208565b600354604080516001600160a01b03928316815291831660208301527f67dd81134c795f2b4011a7388f33730c5e31663e533a57033234bd0da0d248ed910160405180910390a1600380546001600160a01b0319166001600160a01b0392909216919091179055565b6001600160a01b038116811461054557600080fd5b50565b6000806040838503121561055b57600080fd5b823561056681610530565b91506020830135801515811461057b57600080fd5b809150509250929050565b6000806040838503121561059957600080fd5b82356105a481610530565b9150602083013561057b81610530565b6000602082840312156105c657600080fd5b81356105d181610530565b9392505050565b6000602082840312156105ea57600080fd5b81516105d18161053056fea26469706673582212208c64b0564b44c32d1fdb2edf26f8348e96a7533e351b49227dc8384fac9083b864736f6c634300080b0033",
  "immutableReferences": {},
  "source": "//SPDX-License-Identifier: GPLv3\r\npragma solidity 0.8.11;\r\n\r\nimport \"@openzeppelin/contracts-upgradeable/proxy/utils/Initializable.sol\";\r\nimport \"./MorpherState.sol\";\r\n\r\n\r\ncontract MorpherUserBlocking is Initializable {\r\n\r\n    mapping(address => bool) public userIsBlocked;\r\n    MorpherState state;\r\n\r\n    address public allowedToAddBlockedUsersAddress;\r\n\r\n    event ChangeUserBlocked(address _user, bool _oldIsBlocked, bool _newIsBlocked);\r\n    event ChangedAddressAllowedToAddBlockedUsersAddress(address _oldAddress, address _newAddress);\r\n\r\n    function initialize(address _state, address _allowedToAddBlockedUsersAddress) public initializer {\r\n        state = MorpherState(_state);\r\n        emit ChangedAddressAllowedToAddBlockedUsersAddress(address(0), _allowedToAddBlockedUsersAddress);\r\n        allowedToAddBlockedUsersAddress = _allowedToAddBlockedUsersAddress;\r\n    }\r\n\r\n    modifier onlyAdministrator() {\r\n        require(msg.sender == state.getAdministrator(), \"UserBlocking: Only Administrator can call this function\");\r\n        _;\r\n    }\r\n\r\n    modifier onlyAllowedUsers() {\r\n        require(msg.sender == state.getAdministrator() || msg.sender == allowedToAddBlockedUsersAddress, \"UserBlocking: Only White-Listed Users can call this function\");\r\n        _;\r\n    }\r\n\r\n    function setAllowedToAddBlockedUsersAddress(address _newAddress) public onlyAdministrator {\r\n        emit ChangedAddressAllowedToAddBlockedUsersAddress(allowedToAddBlockedUsersAddress, _newAddress);\r\n        allowedToAddBlockedUsersAddress = _newAddress;\r\n    }\r\n\r\n    function setUserBlocked(address _user, bool _isBlocked) public onlyAllowedUsers {\r\n        emit ChangeUserBlocked(_user, userIsBlocked[_user], _isBlocked);\r\n        userIsBlocked[_user] = _isBlocked;\r\n    }\r\n}",
  "sourcePath": "/home/thomas/MorpherProtocol/contracts/MorpherUserBlocking.sol",
  "compiler": {
    "name": "solc",
    "version": "0.8.11+commit.d7f03943.Emscripten.clang"
  },
  "schemaVersion": "3.4.5",
  "updatedAt": "2022-03-09T13:35:33.852Z",
  "devdoc": {
    "kind": "dev",
    "methods": {},
    "version": 1
  },
  "userdoc": {
    "kind": "user",
    "methods": {},
    "version": 1
  }
}