{
  "contractName": "MorpherStaking",
  "abi": [
    {
      "anonymous": false,
      "inputs": [
        {
          "indexed": false,
          "internalType": "uint256",
          "name": "interestRate",
          "type": "uint256"
        },
        {
          "indexed": false,
          "internalType": "uint256",
          "name": "validFromTimestamp",
          "type": "uint256"
        }
      ],
      "name": "InterestRateAdded",
      "type": "event"
    },
    {
      "anonymous": false,
      "inputs": [
        {
          "indexed": false,
          "internalType": "uint256",
          "name": "interstRateIndex",
          "type": "uint256"
        },
        {
          "indexed": false,
          "internalType": "uint256",
          "name": "oldvalue",
          "type": "uint256"
        },
        {
          "indexed": false,
          "internalType": "uint256",
          "name": "newValue",
          "type": "uint256"
        }
      ],
      "name": "InterestRateRateChanged",
      "type": "event"
    },
    {
      "anonymous": false,
      "inputs": [
        {
          "indexed": false,
          "internalType": "uint256",
          "name": "interstRateIndex",
          "type": "uint256"
        },
        {
          "indexed": false,
          "internalType": "uint256",
          "name": "oldvalue",
          "type": "uint256"
        },
        {
          "indexed": false,
          "internalType": "uint256",
          "name": "newValue",
          "type": "uint256"
        }
      ],
      "name": "InterestRateValidFromChanged",
      "type": "event"
    },
    {
      "anonymous": false,
      "inputs": [
        {
          "indexed": false,
          "internalType": "address",
          "name": "stateAddress",
          "type": "address"
        }
      ],
      "name": "LinkState",
      "type": "event"
    },
    {
      "anonymous": false,
      "inputs": [
        {
          "indexed": true,
          "internalType": "address",
          "name": "previousOwner",
          "type": "address"
        },
        {
          "indexed": true,
          "internalType": "address",
          "name": "newOwner",
          "type": "address"
        }
      ],
      "name": "OwnershipTransferred",
      "type": "event"
    },
    {
      "anonymous": false,
      "inputs": [
        {
          "indexed": true,
          "internalType": "uint256",
          "name": "lastReward",
          "type": "uint256"
        },
        {
          "indexed": false,
          "internalType": "uint256",
          "name": "poolShareValue",
          "type": "uint256"
        }
      ],
      "name": "PoolShareValueUpdated",
      "type": "event"
    },
    {
      "anonymous": false,
      "inputs": [
        {
          "indexed": false,
          "internalType": "uint256",
          "name": "newInterestRate",
          "type": "uint256"
        }
      ],
      "name": "SetInterestRate",
      "type": "event"
    },
    {
      "anonymous": false,
      "inputs": [
        {
          "indexed": false,
          "internalType": "uint256",
          "name": "newLockupPeriod",
          "type": "uint256"
        }
      ],
      "name": "SetLockupPeriod",
      "type": "event"
    },
    {
      "anonymous": false,
      "inputs": [
        {
          "indexed": false,
          "internalType": "uint256",
          "name": "newMinimumStake",
          "type": "uint256"
        }
      ],
      "name": "SetMinimumStake",
      "type": "event"
    },
    {
      "anonymous": false,
      "inputs": [
        {
          "indexed": false,
          "internalType": "address",
          "name": "userBlockingAddress",
          "type": "address"
        }
      ],
      "name": "SetMorpherUserBlocking",
      "type": "event"
    },
    {
      "anonymous": false,
      "inputs": [
        {
          "indexed": false,
          "internalType": "address",
          "name": "stakingAdmin",
          "type": "address"
        }
      ],
      "name": "SetStakingAdmin",
      "type": "event"
    },
    {
      "anonymous": false,
      "inputs": [
        {
          "indexed": true,
          "internalType": "address",
          "name": "userAddress",
          "type": "address"
        },
        {
          "indexed": true,
          "internalType": "uint256",
          "name": "amount",
          "type": "uint256"
        },
        {
          "indexed": false,
          "internalType": "uint256",
          "name": "poolShares",
          "type": "uint256"
        },
        {
          "indexed": false,
          "internalType": "uint256",
          "name": "lockedUntil",
          "type": "uint256"
        }
      ],
      "name": "Staked",
      "type": "event"
    },
    {
      "anonymous": false,
      "inputs": [
        {
          "indexed": true,
          "internalType": "uint256",
          "name": "lastReward",
          "type": "uint256"
        },
        {
          "indexed": false,
          "internalType": "uint256",
          "name": "delta",
          "type": "uint256"
        }
      ],
      "name": "StakingRewardsMinted",
      "type": "event"
    },
    {
      "anonymous": false,
      "inputs": [
        {
          "indexed": true,
          "internalType": "address",
          "name": "userAddress",
          "type": "address"
        },
        {
          "indexed": true,
          "internalType": "uint256",
          "name": "amount",
          "type": "uint256"
        },
        {
          "indexed": false,
          "internalType": "uint256",
          "name": "poolShares",
          "type": "uint256"
        }
      ],
      "name": "Unstaked",
      "type": "event"
    },
    {
      "stateMutability": "payable",
      "type": "fallback"
    },
    {
      "inputs": [
        {
          "internalType": "uint256",
          "name": "",
          "type": "uint256"
        }
      ],
      "name": "interestRates",
      "outputs": [
        {
          "internalType": "uint256",
          "name": "validFrom",
          "type": "uint256"
        },
        {
          "internalType": "uint256",
          "name": "rate",
          "type": "uint256"
        }
      ],
      "stateMutability": "view",
      "type": "function"
    },
    {
      "inputs": [],
      "name": "lastReward",
      "outputs": [
        {
          "internalType": "uint256",
          "name": "",
          "type": "uint256"
        }
      ],
      "stateMutability": "view",
      "type": "function"
    },
    {
      "inputs": [],
      "name": "lockupPeriod",
      "outputs": [
        {
          "internalType": "uint256",
          "name": "",
          "type": "uint256"
        }
      ],
      "stateMutability": "view",
      "type": "function"
    },
    {
      "inputs": [],
      "name": "marketIdStakingMPH",
      "outputs": [
        {
          "internalType": "bytes32",
          "name": "",
          "type": "bytes32"
        }
      ],
      "stateMutability": "view",
      "type": "function"
    },
    {
      "inputs": [],
      "name": "minimumStake",
      "outputs": [
        {
          "internalType": "uint256",
          "name": "",
          "type": "uint256"
        }
      ],
      "stateMutability": "view",
      "type": "function"
    },
    {
      "inputs": [],
      "name": "numInterestRates",
      "outputs": [
        {
          "internalType": "uint256",
          "name": "",
          "type": "uint256"
        }
      ],
      "stateMutability": "view",
      "type": "function"
    },
    {
      "inputs": [],
      "name": "owner",
      "outputs": [
        {
          "internalType": "address",
          "name": "",
          "type": "address"
        }
      ],
      "stateMutability": "view",
      "type": "function"
    },
    {
      "inputs": [],
      "name": "poolShareValue",
      "outputs": [
        {
          "internalType": "uint256",
          "name": "",
          "type": "uint256"
        }
      ],
      "stateMutability": "view",
      "type": "function"
    },
    {
      "inputs": [
        {
          "internalType": "address",
          "name": "",
          "type": "address"
        }
      ],
      "name": "poolShares",
      "outputs": [
        {
          "internalType": "uint256",
          "name": "numPoolShares",
          "type": "uint256"
        },
        {
          "internalType": "uint256",
          "name": "lockedUntil",
          "type": "uint256"
        }
      ],
      "stateMutability": "view",
      "type": "function"
    },
    {
      "inputs": [],
      "name": "renounceOwnership",
      "outputs": [],
      "stateMutability": "nonpayable",
      "type": "function"
    },
    {
      "inputs": [],
      "name": "stakingAddress",
      "outputs": [
        {
          "internalType": "address",
          "name": "",
          "type": "address"
        }
      ],
      "stateMutability": "view",
      "type": "function"
    },
    {
      "inputs": [],
      "name": "stakingAdmin",
      "outputs": [
        {
          "internalType": "address",
          "name": "",
          "type": "address"
        }
      ],
      "stateMutability": "view",
      "type": "function"
    },
    {
      "inputs": [],
      "name": "totalShares",
      "outputs": [
        {
          "internalType": "uint256",
          "name": "",
          "type": "uint256"
        }
      ],
      "stateMutability": "view",
      "type": "function"
    },
    {
      "inputs": [
        {
          "internalType": "address",
          "name": "newOwner",
          "type": "address"
        }
      ],
      "name": "transferOwnership",
      "outputs": [],
      "stateMutability": "nonpayable",
      "type": "function"
    },
    {
      "stateMutability": "payable",
      "type": "receive"
    },
    {
      "inputs": [
        {
          "internalType": "address payable",
          "name": "_morpherState",
          "type": "address"
        },
        {
          "internalType": "address",
          "name": "_stakingAdmin",
          "type": "address"
        },
        {
          "internalType": "address payable",
          "name": "_userBlockingAddress",
          "type": "address"
        }
      ],
      "name": "initialize",
      "outputs": [],
      "stateMutability": "nonpayable",
      "type": "function"
    },
    {
      "inputs": [],
      "name": "updatePoolShareValue",
      "outputs": [
        {
          "internalType": "uint256",
          "name": "_newPoolShareValue",
          "type": "uint256"
        }
      ],
      "stateMutability": "nonpayable",
      "type": "function"
    },
    {
      "inputs": [
        {
          "internalType": "uint256",
          "name": "_amount",
          "type": "uint256"
        }
      ],
      "name": "stake",
      "outputs": [
        {
          "internalType": "uint256",
          "name": "_poolShares",
          "type": "uint256"
        }
      ],
      "stateMutability": "nonpayable",
      "type": "function"
    },
    {
      "inputs": [
        {
          "internalType": "uint256",
          "name": "_numOfShares",
          "type": "uint256"
        }
      ],
      "name": "unstake",
      "outputs": [
        {
          "internalType": "uint256",
          "name": "_amount",
          "type": "uint256"
        }
      ],
      "stateMutability": "nonpayable",
      "type": "function"
    },
    {
      "inputs": [
        {
          "internalType": "address",
          "name": "_address",
          "type": "address"
        }
      ],
      "name": "setStakingAdmin",
      "outputs": [],
      "stateMutability": "nonpayable",
      "type": "function"
    },
    {
      "inputs": [
        {
          "internalType": "address payable",
          "name": "_stateAddress",
          "type": "address"
        }
      ],
      "name": "setMorpherStateAddress",
      "outputs": [],
      "stateMutability": "nonpayable",
      "type": "function"
    },
    {
      "inputs": [
        {
          "internalType": "address payable",
          "name": "_userBlockingAddress",
          "type": "address"
        }
      ],
      "name": "setMorpherUserBlocking",
      "outputs": [],
      "stateMutability": "nonpayable",
      "type": "function"
    },
    {
      "inputs": [
        {
          "internalType": "uint256",
          "name": "_interestRate",
          "type": "uint256"
        }
      ],
      "name": "setInterestRate",
      "outputs": [],
      "stateMutability": "nonpayable",
      "type": "function"
    },
    {
      "inputs": [],
      "name": "interestRate",
      "outputs": [
        {
          "internalType": "uint256",
          "name": "",
          "type": "uint256"
        }
      ],
      "stateMutability": "view",
      "type": "function"
    },
    {
      "inputs": [
        {
          "internalType": "uint256",
          "name": "_rate",
          "type": "uint256"
        },
        {
          "internalType": "uint256",
          "name": "_validFrom",
          "type": "uint256"
        }
      ],
      "name": "addInterestRate",
      "outputs": [],
      "stateMutability": "nonpayable",
      "type": "function"
    },
    {
      "inputs": [
        {
          "internalType": "uint256",
          "name": "_numInterestRate",
          "type": "uint256"
        },
        {
          "internalType": "uint256",
          "name": "_rate",
          "type": "uint256"
        }
      ],
      "name": "changeInterestRateValue",
      "outputs": [],
      "stateMutability": "nonpayable",
      "type": "function"
    },
    {
      "inputs": [
        {
          "internalType": "uint256",
          "name": "_numInterestRate",
          "type": "uint256"
        },
        {
          "internalType": "uint256",
          "name": "_validFrom",
          "type": "uint256"
        }
      ],
      "name": "changeInterestRateValidFrom",
      "outputs": [],
      "stateMutability": "nonpayable",
      "type": "function"
    },
    {
      "inputs": [
        {
          "internalType": "uint256",
          "name": "_positionTimestamp",
          "type": "uint256"
        }
      ],
      "name": "getInterestRate",
      "outputs": [
        {
          "internalType": "uint256",
          "name": "",
          "type": "uint256"
        }
      ],
      "stateMutability": "view",
      "type": "function"
    },
    {
      "inputs": [
        {
          "internalType": "uint256",
          "name": "_lockupPeriod",
          "type": "uint256"
        }
      ],
      "name": "setLockupPeriodRate",
      "outputs": [],
      "stateMutability": "nonpayable",
      "type": "function"
    },
    {
      "inputs": [
        {
          "internalType": "uint256",
          "name": "_minimumStake",
          "type": "uint256"
        }
      ],
      "name": "setMinimumStake",
      "outputs": [],
      "stateMutability": "nonpayable",
      "type": "function"
    },
    {
      "inputs": [],
      "name": "getTotalPooledValue",
      "outputs": [
        {
          "internalType": "uint256",
          "name": "_totalPooled",
          "type": "uint256"
        }
      ],
      "stateMutability": "view",
      "type": "function"
    },
    {
      "inputs": [
        {
          "internalType": "address",
          "name": "_address",
          "type": "address"
        }
      ],
      "name": "getStake",
      "outputs": [
        {
          "internalType": "uint256",
          "name": "_poolShares",
          "type": "uint256"
        }
      ],
      "stateMutability": "view",
      "type": "function"
    },
    {
      "inputs": [
        {
          "internalType": "address",
          "name": "_address",
          "type": "address"
        }
      ],
      "name": "getStakeValue",
      "outputs": [
        {
          "internalType": "uint256",
          "name": "_value",
          "type": "uint256"
        },
        {
          "internalType": "uint256",
          "name": "_lastUpdate",
          "type": "uint256"
        }
      ],
      "stateMutability": "view",
      "type": "function"
    }
  ],
  "bytecode": "0x608060405234801561001057600080fd5b50611d5a806100206000396000f3fe6080604052600436106101e75760003560e01c80639680237411610102578063e71e7ec011610095578063f2fde38b11610064578063f2fde38b146105b8578063f48fedb0146105d8578063fc2ab77b146105ed578063fc395c401461060d5761020d565b8063e71e7ec014610556578063e9ea0ddc1461056c578063ec5ffac21461058c578063ee947a7c146105a25761020d565b8063a694fc3a116100d1578063a694fc3a146104e0578063c0c53b8b14610500578063c9b1714914610520578063d7b4be24146105365761020d565b806396802374146104565780639a4d8ba1146104765780639baafc5c146104aa578063a4c2661e146104ca5761020d565b80633181dfd71161017a578063715018a611610149578063715018a6146103c45780637a766460146103d95780637c3a00fd1461040f5780638da5cb5b146104245761020d565b80633181dfd71461034e5780633a98ef391461036e578063597f859c146103845780635f84f302146103a45761020d565b806313384039116101b657806313384039146102cc578063224f7e58146102ee578063233e99031461030e5780632e17de781461032e5761020d565b80630645dcd7146102255780630c196a741461024d5780630fb51f411461026d5780631176aeef146102b65761020d565b3661020d5760405162461bcd60e51b815260040161020490611a77565b60405180910390fd5b60405162461bcd60e51b815260040161020490611a77565b34801561023157600080fd5b5061023a61062d565b6040519081526020015b60405180910390f35b34801561025957600080fd5b5061023a610268366004611ac3565b610644565b34801561027957600080fd5b506102a1610288366004611af1565b6071602052600090815260409020805460019091015482565b60408051928352602083019190915201610244565b3480156102c257600080fd5b5061023a606b5481565b3480156102d857600080fd5b506102ec6102e7366004611b15565b6107d1565b005b3480156102fa57600080fd5b506102ec610309366004611b15565b61092f565b34801561031a57600080fd5b506102ec610329366004611ac3565b6109c9565b34801561033a57600080fd5b5061023a610349366004611ac3565b610a2f565b34801561035a57600080fd5b506102ec610369366004611af1565b610d4e565b34801561037a57600080fd5b5061023a60695481565b34801561039057600080fd5b506102ec61039f366004611ac3565b610dc6565b3480156103b057600080fd5b506102ec6103bf366004611ac3565b610e25565b3480156103d057600080fd5b506102ec610e5c565b3480156103e557600080fd5b5061023a6103f4366004611af1565b6001600160a01b031660009081526071602052604090205490565b34801561041b57600080fd5b5061023a610e92565b34801561043057600080fd5b506033546001600160a01b03165b6040516001600160a01b039091168152602001610244565b34801561046257600080fd5b506102a1610471366004611af1565b610ef7565b34801561048257600080fd5b506102a1610491366004611ac3565b606a602052600090815260409020805460019091015482565b3480156104b657600080fd5b506102ec6104c5366004611af1565b610f32565b3480156104d657600080fd5b5061023a60675481565b3480156104ec57600080fd5b5061023a6104fb366004611ac3565b610faa565b34801561050c57600080fd5b506102ec61051b366004611b37565b6113e2565b34801561052c57600080fd5b5061023a60685481565b34801561054257600080fd5b50606f5461043e906001600160a01b031681565b34801561056257600080fd5b5061023a60705481565b34801561057857600080fd5b506102ec610587366004611af1565b6115aa565b34801561059857600080fd5b5061023a606d5481565b3480156105ae57600080fd5b5061023a606c5481565b3480156105c457600080fd5b506102ec6105d3366004611af1565b611622565b3480156105e457600080fd5b5061023a6116ba565b3480156105f957600080fd5b50606e5461043e906001600160a01b031681565b34801561061957600080fd5b506102ec610628366004611b15565b611772565b600060695460675461063f9190611b98565b905090565b60008080805b606b548110156107b4576001606b546106639190611bb7565b81148061068f575042606a600061067b846001611bce565b815260200190815260200160002060000154115b156106f1576000818152606a60205260409020546106ad9042611bb7565b6000828152606a60205260409020600101546106c99190611b98565b6106d39084611bce565b9250816106ec576000818152606a602052604090205491505b6107b4565b84606a6000610701846001611bce565b81526020019081526020016000206000015411156107a2576000818152606a6020819052604082205491610736846001611bce565b8152602001908152602001600020600001546107529190611bb7565b6000828152606a602052604090206001015461076e9190611b98565b6107789084611bce565b6000828152606a602052604090205490935085106107a2576000818152606a602052604090205491505b806107ac81611be6565b91505061064a565b506107bf8142611bb7565b6107c99083611c01565b949350505050565b606e546001600160a01b031633146107fb5760405162461bcd60e51b815260040161020490611c23565b606b54158061082d575080606a60006001606b546108199190611bb7565b815260200190815260200160002060000154105b6108b55760405162461bcd60e51b815260206004820152604d60248201527f4d6f72706865725374616b696e673a20496e746572657374205261746520566160448201527f6c69642046726f6d206d757374206265206c61746572207468616e206c61737460648201526c20696e7465726573745261746560981b608482015260a401610204565b6108bd6116ba565b50606b80546000908152606a6020526040808220849055825482528120600101849055815491906108ed83611be6565b909155505060408051838152602081018390527f293620aa5866cd353b1989961237e94aece8c56f6b2b4b8514ee3a6f2dded5c3910160405180910390a15050565b606e546001600160a01b031633146109595760405162461bcd60e51b815260040161020490611c23565b6000828152606a6020908152604091829020600101548251858152918201529081018290527ff27b67df57164becd752b9ec4283586534adc2dfb848ee602c500aa6e46b30299060600160405180910390a16109b36116ba565b506000918252606a602052604090912060010155565b606e546001600160a01b031633146109f35760405162461bcd60e51b815260040161020490611c23565b606d8190556040518181527fcd49b0a32b631e59338de3903380e535f8738f7ff62fcb3953129b9607696739906020015b60405180910390a150565b606654604051635612cd6760e11b81523360048201526000916001600160a01b03169063ac259ace90602401602060405180830381865afa158015610a78573d6000803e3d6000fd5b505050506040513d601f19601f82011682018060405250810190610a9c9190611c80565b15610ae95760405162461bcd60e51b815260206004820152601f60248201527f4d6f72706865725374616b696e673a205573657220697320626c6f636b6564006044820152606401610204565b3360009081526071602052604090205480831115610b5a5760405162461bcd60e51b815260206004820152602860248201527f4d6f72706865725374616b696e673a20696e73756666696369656e7420706f6f6044820152676c2073686172657360c01b6064820152608401610204565b3360009081526071602052604090206001015442811115610be35760405162461bcd60e51b815260206004820152603760248201527f4d6f72706865725374616b696e673a2063616e6e6f7420756e7374616b65206260448201527f65666f7265206c6f636b75702065787069726174696f6e0000000000000000006064820152608401610204565b610beb6116ba565b5033600090815260716020526040902054610c07908590611bb7565b33600090815260716020526040902055606954610c25908590611bb7565b606955606754610c359085611b98565b9250606560009054906101000a90046001600160a01b03166001600160a01b031663432556ba6040518163ffffffff1660e01b8152600401602060405180830381865afa158015610c8a573d6000803e3d6000fd5b505050506040513d601f19601f82011682018060405250810190610cae9190611ca2565b6040516340c10f1960e01b8152336004820152602481018590526001600160a01b0391909116906340c10f1990604401600060405180830381600087803b158015610cf857600080fd5b505af1158015610d0c573d6000803e3d6000fd5b50506040518681528592503391507f7fc4727e062e336010f2c282598ef5f14facb3de68cf8195c2f23e1454b2b74e9060200160405180910390a35050919050565b6033546001600160a01b03163314610d785760405162461bcd60e51b815260040161020490611cbf565b606e80546001600160a01b0319166001600160a01b0383169081179091556040519081527f105518b3c988ba3d822d539675383b544a5143ee8f0fd22bf4bf8c338e103afd90602001610a24565b606e546001600160a01b03163314610df05760405162461bcd60e51b815260040161020490611c23565b606c8190556040518181527ffd48bfbbcb5a287c0ba5513ca319e022d18f0f07bc4d4dea3ace362f6710898090602001610a24565b606e546001600160a01b03163314610e4f5760405162461bcd60e51b815260040161020490611c23565b610e5981426107d1565b50565b6033546001600160a01b03163314610e865760405162461bcd60e51b815260040161020490611cbf565b610e906000611a25565b565b6000606b5460001415610ea55750600090565b60006001606b54610eb69190611bb7565b90505b6000818152606a60205260409020544210610ee5576000908152606a6020526040902060010154919050565b80610eef81611cf4565b915050610eb9565b600080606754610f1c846001600160a01b031660009081526071602052604090205490565b610f269190611b98565b60685491509150915091565b6033546001600160a01b03163314610f5c5760405162461bcd60e51b815260040161020490611cbf565b606680546001600160a01b0319166001600160a01b0383169081179091556040519081527f8212198b0ee29dae6ce39c35ce31d40ce02e263efeb619be6eeeff856f11865f90602001610a24565b606654604051635612cd6760e11b81523360048201526000916001600160a01b03169063ac259ace90602401602060405180830381865afa158015610ff3573d6000803e3d6000fd5b505050506040513d601f19601f820116820180604052508101906110179190611c80565b156110645760405162461bcd60e51b815260206004820152601f60248201527f4d6f72706865725374616b696e673a205573657220697320626c6f636b6564006044820152606401610204565b60655460408051632192ab5d60e11b8152905184926001600160a01b03169163432556ba9160048083019260209291908290030181865afa1580156110ad573d6000803e3d6000fd5b505050506040513d601f19601f820116820180604052508101906110d19190611ca2565b6040516370a0823160e01b81523360048201526001600160a01b0391909116906370a0823190602401602060405180830381865afa158015611117573d6000803e3d6000fd5b505050506040513d601f19601f8201168201806040525081019061113b9190611d0b565b10156111a05760405162461bcd60e51b815260206004820152602e60248201527f4d6f72706865725374616b696e673a20696e73756666696369656e74204d504860448201526d20746f6b656e2062616c616e636560901b6064820152608401610204565b6111a86116ba565b506067546111b69083611c01565b33600090815260716020526040902054606754919250906111d79083611b98565b6111e19082611bce565b606d5411156112505760405162461bcd60e51b815260206004820152603560248201527f4d6f72706865725374616b696e673a207374616b6520616d6f756e74206c6f776044820152746572207468616e206d696e696d756d207374616b6560581b6064820152608401610204565b606560009054906101000a90046001600160a01b03166001600160a01b031663432556ba6040518163ffffffff1660e01b8152600401602060405180830381865afa1580156112a3573d6000803e3d6000fd5b505050506040513d601f19601f820116820180604052508101906112c79190611ca2565b6001600160a01b0316639dc29fac33606754856112e49190611b98565b6040516001600160e01b031960e085901b1681526001600160a01b0390921660048301526024820152604401600060405180830381600087803b15801561132a57600080fd5b505af115801561133e573d6000803e3d6000fd5b50505050816069546113509190611bce565b60695561135d8282611bce565b33600090815260716020526040902055606c5461137a9042611bce565b33600081815260716020526040902060010191909155606c548491907fb4caaf29adda3eefee3ad552a8e85058589bf834c7466cae4ee58787f70589ed9085906113c49042611bce565b6040805192835260208301919091520160405180910390a350919050565b600054610100900460ff166113fd5760005460ff1615611401565b303b155b6114645760405162461bcd60e51b815260206004820152602e60248201527f496e697469616c697a61626c653a20636f6e747261637420697320616c72656160448201526d191e481a5b9a5d1a585b1a5e995960921b6064820152608401610204565b600054610100900460ff16158015611486576000805461ffff19166101011790555b61148f83610d4e565b611498846115aa565b7ffd48bfbbcb5a287c0ba5513ca319e022d18f0f07bc4d4dea3ace362f67108980606c546040516114cb91815260200190565b60405180910390a17fcd49b0a32b631e59338de3903380e535f8738f7ff62fcb3953129b9607696739606d5460405161150691815260200190565b60405180910390a161151782610f32565b611527613a98636062e8a36107d1565b4260685562278d00606c5569152d02c7e14af6800000606d55606f80546001600160a01b0319167322222222222222222222222222222222222222221790557f9a31fdde7a3b1444b1befb10735dcc3b72cbd9dd604d2ff45144352bf0f359a66070556305f5e10060675580156115a4576000805461ff00191690555b50505050565b6033546001600160a01b031633146115d45760405162461bcd60e51b815260040161020490611cbf565b606580546001600160a01b0319166001600160a01b0383169081179091556040519081527f978c711532bae8c58f353b0f3c7f3a0dfe600d9ae9a81818f2ad2919b88e199090602001610a24565b6033546001600160a01b0316331461164c5760405162461bcd60e51b815260040161020490611cbf565b6001600160a01b0381166116b15760405162461bcd60e51b815260206004820152602660248201527f4f776e61626c653a206e6577206f776e657220697320746865207a65726f206160448201526564647265737360d01b6064820152608401610204565b610e5981611a25565b6000620151806068546116cd9190611bce565b421061176b576000620151806068546116e69190611c01565b6116f09042611bb7565b90506116fa610e92565b6117049082611b98565b6067546117119190611bce565b6067556117216201518082611b98565b60685461172e9190611bce565b60688190556067546040519081527fd59b6c8b3190f59807a1cf0b6fb311ba03a32a91c1da71f75e24251a132cdc369060200160405180910390a2505b5060675490565b606e546001600160a01b0316331461179c5760405162461bcd60e51b815260040161020490611c23565b6000828152606a6020908152604091829020548251858152918201529081018290527f540bfd7b71faa6e96efd78eadf2100240526e583905c7fb4a63d545b20effd2e9060600160405180910390a181606b54116118525760405162461bcd60e51b815260206004820152602d60248201527f4d6f72706865725374616b696e673a20496e746572657374205261746520446f60448201526c6573206e6f742065786973742160981b6064820152608401610204565b8115801561186e575060006001606b5461186c9190611bb7565b115b8015611899575080606a6000611885856001611bce565b815260200190815260200160002060000154115b806118e757506000821180156118bc57506001606b546118b99190611bb7565b82145b80156118e7575080606a60006118d3600186611bb7565b815260200190815260200160002060000154105b80611960575060008211801561190a57506001606b546119079190611bb7565b82105b8015611935575080606a6000611921600186611bb7565b815260200190815260200160002060000154105b8015611960575080606a600061194c856001611bce565b815260200190815260200160002060000154115b611a0a5760405162461bcd60e51b815260206004820152606960248201527f4d6f72706865725374616b696e673a2076616c696446726f6d2063616e6e6f7460448201527f20626520736d616c6c6572207468616e2070726576696f757320496e7465726560648201527f73742052617465206f72206c6172676572207468616e206e65787420496e746560848201526872657374205261746560b81b60a482015260c401610204565b611a126116ba565b506000918252606a602052604090912055565b603380546001600160a01b038381166001600160a01b0319831681179093556040519116919082907f8be0079c531659141344cd1fd0a4f28419497f9722a3daafe3b4186f6b6457e090600090a35050565b6020808252602c908201527f4d6f72706865725374616b696e673a20796f752063616e2774206465706f736960408201526b74204574686572206865726560a01b606082015260800190565b600060208284031215611ad557600080fd5b5035919050565b6001600160a01b0381168114610e5957600080fd5b600060208284031215611b0357600080fd5b8135611b0e81611adc565b9392505050565b60008060408385031215611b2857600080fd5b50508035926020909101359150565b600080600060608486031215611b4c57600080fd5b8335611b5781611adc565b92506020840135611b6781611adc565b91506040840135611b7781611adc565b809150509250925092565b634e487b7160e01b600052601160045260246000fd5b6000816000190483118215151615611bb257611bb2611b82565b500290565b600082821015611bc957611bc9611b82565b500390565b60008219821115611be157611be1611b82565b500190565b6000600019821415611bfa57611bfa611b82565b5060010190565b600082611c1e57634e487b7160e01b600052601260045260246000fd5b500490565b6020808252603c908201527f4d6f72706865725374616b696e673a2063616e206f6e6c792062652063616c6c60408201527f6564206279205374616b696e672041646d696e6973747261746f722e00000000606082015260800190565b600060208284031215611c9257600080fd5b81518015158114611b0e57600080fd5b600060208284031215611cb457600080fd5b8151611b0e81611adc565b6020808252818101527f4f776e61626c653a2063616c6c6572206973206e6f7420746865206f776e6572604082015260600190565b600081611d0357611d03611b82565b506000190190565b600060208284031215611d1d57600080fd5b505191905056fea26469706673582212206777ed4a6f9a1f7bde584a35646b92ea7c06e0430c0bf3703553b2188881352964736f6c634300080b0033",
  "immutableReferences": {},
  "source": "//SPDX-License-Identifier: GPLv3\r\npragma solidity 0.8.11;\r\nimport \"@openzeppelin/contracts-upgradeable/access/OwnableUpgradeable.sol\";\r\nimport \"@openzeppelin/contracts-upgradeable/proxy/utils/Initializable.sol\";\r\n\r\nimport \"./MorpherState.sol\";\r\nimport \"./MorpherUserBlocking.sol\";\r\nimport \"./MorpherToken.sol\";\r\n\r\n// ----------------------------------------------------------------------------------\r\n// Staking Morpher Token generates interest\r\n// The interest is set to 0.015% a day or ~5.475% in the first year\r\n// Stakers will be able to vote on all ProtocolDecisions in MorpherGovernance (soon...)\r\n// There is a lockup after staking or topping up (30 days) and a minimum stake (100k MPH)\r\n// ----------------------------------------------------------------------------------\r\n\r\ncontract MorpherStaking is Initializable, OwnableUpgradeable {\r\n\r\n    MorpherState state;\r\n    \r\n    MorpherUserBlocking userBlocking;\r\n\r\n    uint256 constant PRECISION = 10**8;\r\n    uint256 constant INTERVAL  = 1 days;\r\n\r\n    //mapping(address => uint256) private poolShares;\r\n    //mapping(address => uint256) private lockup;\r\n\r\n    uint256 public poolShareValue;\r\n    uint256 public lastReward;\r\n    uint256 public totalShares;\r\n    //uint256 public interestRate = 15000; // 0.015% per day initially, diminishing returns over time\r\n    struct InterestRate {\r\n        uint256 validFrom;\r\n        uint256 rate;\r\n    }\r\n\r\n    mapping(uint256 => InterestRate) public interestRates;\r\n    uint256 public numInterestRates;\r\n\r\n    uint256 public lockupPeriod; // to prevent tactical staking and ensure smooth governance\r\n    uint256 public minimumStake; // 100k MPH minimum\r\n\r\n    address public stakingAdmin;\r\n\r\n    address public stakingAddress;\r\n    bytes32 public marketIdStakingMPH; //STAKING_MPH\r\n\r\n    struct PoolShares {\r\n        uint256 numPoolShares;\r\n        uint256 lockedUntil;\r\n    }\r\n    mapping(address => PoolShares) public poolShares;\r\n\r\n// ----------------------------------------------------------------------------\r\n// Events\r\n// ----------------------------------------------------------------------------\r\n    event SetInterestRate(uint256 newInterestRate);\r\n    event InterestRateAdded(uint256 interestRate, uint256 validFromTimestamp);\r\n    event InterestRateRateChanged(uint256 interstRateIndex, uint256 oldvalue, uint256 newValue);\r\n    event InterestRateValidFromChanged(uint256 interstRateIndex, uint256 oldvalue, uint256 newValue);\r\n    event SetLockupPeriod(uint256 newLockupPeriod);\r\n    event SetMinimumStake(uint256 newMinimumStake);\r\n    event LinkState(address stateAddress);\r\n    event SetStakingAdmin(address stakingAdmin);\r\n    event SetMorpherUserBlocking(address userBlockingAddress);\r\n    \r\n    event PoolShareValueUpdated(uint256 indexed lastReward, uint256 poolShareValue);\r\n    event StakingRewardsMinted(uint256 indexed lastReward, uint256 delta);\r\n    event Staked(address indexed userAddress, uint256 indexed amount, uint256 poolShares, uint256 lockedUntil);\r\n    event Unstaked(address indexed userAddress, uint256 indexed amount, uint256 poolShares);\r\n    \r\n    modifier onlyStakingAdmin {\r\n        require(msg.sender == stakingAdmin, \"MorpherStaking: can only be called by Staking Administrator.\");\r\n        _;\r\n    }\r\n\r\n    modifier userNotBlocked {\r\n        require(!userBlocking.userIsBlocked(msg.sender), \"MorpherStaking: User is blocked\");\r\n        _;\r\n    }\r\n    \r\n    function initialize(address payable _morpherState, address _stakingAdmin, address payable _userBlockingAddress) public initializer {\r\n        setStakingAdmin(_stakingAdmin);\r\n        setMorpherStateAddress(_morpherState);\r\n        emit SetLockupPeriod(lockupPeriod);\r\n        emit SetMinimumStake(minimumStake);\r\n        setMorpherUserBlocking(_userBlockingAddress);\r\n        addInterestRate(15000,1617094819); //setting the initial interest rate to the trade engine deployed timestamp\r\n        lastReward = block.timestamp;\r\n        lockupPeriod = 30 days; // to prevent tactical staking and ensure smooth governance\r\n        minimumStake = 10**23; // 100k MPH minimum\r\n        stakingAddress = 0x2222222222222222222222222222222222222222;\r\n        marketIdStakingMPH = 0x9a31fdde7a3b1444b1befb10735dcc3b72cbd9dd604d2ff45144352bf0f359a6; //STAKING_MPH\r\n        poolShareValue = PRECISION;\r\n        // missing: transferOwnership to Governance once deployed\r\n    }\r\n\r\n// ----------------------------------------------------------------------------\r\n// updatePoolShareValue\r\n// Updates the value of the Pool Shares and returns the new value.\r\n// Staking rewards are linear, there is no compound interest.\r\n// ----------------------------------------------------------------------------\r\n    \r\n    function updatePoolShareValue() public returns (uint256 _newPoolShareValue) {\r\n        if (block.timestamp >= lastReward + INTERVAL) {\r\n            uint256 _numOfIntervals = block.timestamp - lastReward / INTERVAL;\r\n            poolShareValue = poolShareValue + (_numOfIntervals * interestRate());\r\n            lastReward = lastReward + (_numOfIntervals * (INTERVAL));\r\n            emit PoolShareValueUpdated(lastReward, poolShareValue);\r\n        }\r\n        //mintStakingRewards(); //burning/minting does not influence this\r\n        return poolShareValue;        \r\n    }\r\n\r\n// ----------------------------------------------------------------------------\r\n// Staking rewards are minted if necessary\r\n// ----------------------------------------------------------------------------\r\n\r\n    // function mintStakingRewards() private {\r\n    //     uint256 _targetBalance = poolShareValue * (totalShares);\r\n    //     if (MorpherToken(state.morpherTokenAddress()).balanceOf(stakingAddress) < _targetBalance) {\r\n    //         // If there are not enough token held by the contract, mint them\r\n    //         uint256 _delta = _targetBalance - (MorpherToken(state.morpherTokenAddress()).balanceOf(stakingAddress));\r\n    //         MorpherToken(state.morpherTokenAddress()).mint(stakingAddress, _delta);\r\n    //         emit StakingRewardsMinted(lastReward, _delta);\r\n    //     }\r\n    // }\r\n\r\n// ----------------------------------------------------------------------------\r\n// stake(uint256 _amount)\r\n// User specifies an amount they intend to stake. Pool Shares are issued accordingly\r\n// and the _amount is transferred to the staking contract\r\n// ----------------------------------------------------------------------------\r\n\r\n    function stake(uint256 _amount) public userNotBlocked returns (uint256 _poolShares) {\r\n        require(MorpherToken(state.morpherTokenAddress()).balanceOf(msg.sender) >= _amount, \"MorpherStaking: insufficient MPH token balance\");\r\n        updatePoolShareValue();\r\n        _poolShares = _amount / (poolShareValue);\r\n        uint _numOfShares = poolShares[msg.sender].numPoolShares;\r\n        require(minimumStake <= _numOfShares + _poolShares * poolShareValue, \"MorpherStaking: stake amount lower than minimum stake\");\r\n        MorpherToken(state.morpherTokenAddress()).burn(msg.sender, _poolShares * (poolShareValue));\r\n        totalShares = totalShares + (_poolShares);\r\n        poolShares[msg.sender].numPoolShares = _numOfShares + _poolShares;\r\n        poolShares[msg.sender].lockedUntil = block.timestamp + lockupPeriod;\r\n        emit Staked(msg.sender, _amount, _poolShares, block.timestamp + (lockupPeriod));\r\n        return _poolShares;\r\n    }\r\n\r\n// ----------------------------------------------------------------------------\r\n// unstake(uint256 _amount)\r\n// User specifies number of Pool Shares they want to unstake. \r\n// Pool Shares get deleted and the user receives their MPH plus interest\r\n// ----------------------------------------------------------------------------\r\n\r\n    function unstake(uint256 _numOfShares) public userNotBlocked returns (uint256 _amount) {\r\n        uint256 _numOfExistingShares = poolShares[msg.sender].numPoolShares;\r\n        require(_numOfShares <= _numOfExistingShares, \"MorpherStaking: insufficient pool shares\");\r\n\r\n        uint256 lockedInUntil = poolShares[msg.sender].lockedUntil;\r\n        require(block.timestamp >= lockedInUntil, \"MorpherStaking: cannot unstake before lockup expiration\");\r\n        updatePoolShareValue();\r\n        poolShares[msg.sender].numPoolShares = poolShares[msg.sender].numPoolShares - _numOfShares;\r\n        totalShares = totalShares - _numOfShares;\r\n        _amount = _numOfShares * poolShareValue;\r\n        MorpherToken(state.morpherTokenAddress()).mint(msg.sender, _amount);\r\n        emit Unstaked(msg.sender, _amount, _numOfShares);\r\n        return _amount;\r\n    }\r\n\r\n// ----------------------------------------------------------------------------\r\n// Administrative functions\r\n// ----------------------------------------------------------------------------\r\n\r\n    function setStakingAdmin(address _address) public onlyOwner {\r\n        stakingAdmin = _address;\r\n        emit SetStakingAdmin(_address);\r\n    }\r\n\r\n    function setMorpherStateAddress(address payable _stateAddress) public onlyOwner {\r\n        state = MorpherState(_stateAddress);\r\n        emit LinkState(_stateAddress);\r\n    }\r\n\r\n    function setMorpherUserBlocking(address payable _userBlockingAddress) public onlyOwner {\r\n        userBlocking = MorpherUserBlocking(_userBlockingAddress);\r\n        emit SetMorpherUserBlocking(_userBlockingAddress);\r\n    }\r\n\r\n\r\n    /**\r\n    Interest rate\r\n     */\r\n    function setInterestRate(uint256 _interestRate) public onlyStakingAdmin {\r\n        addInterestRate(_interestRate, block.timestamp);\r\n    }\r\n\r\n/**\r\n    fallback function in case the old tradeengine asks for the current interest rate\r\n */\r\n    function interestRate() public view returns (uint256) {\r\n        //start with the last one, as its most likely the last active one, no need to run through the whole map\r\n        if(numInterestRates == 0) {\r\n            return 0;\r\n        }\r\n        for(uint256 i = numInterestRates - 1; i >= 0; i--) {\r\n            if(interestRates[i].validFrom <= block.timestamp) {\r\n                return interestRates[i].rate;\r\n            }\r\n        }\r\n        return 0;\r\n    }\r\n\r\n    function addInterestRate(uint _rate, uint _validFrom) public onlyStakingAdmin {\r\n        require(numInterestRates == 0 || interestRates[numInterestRates-1].validFrom < _validFrom, \"MorpherStaking: Interest Rate Valid From must be later than last interestRate\");\r\n        //omitting rate sanity checks here. It should always be smaller than 100% (100000000) but I'll leave that to the common sense of the admin.\r\n        updatePoolShareValue();\r\n        interestRates[numInterestRates].validFrom = _validFrom;\r\n        interestRates[numInterestRates].rate = _rate;\r\n        numInterestRates++;\r\n        emit InterestRateAdded(_rate, _validFrom);\r\n    }\r\n\r\n    function changeInterestRateValue(uint256 _numInterestRate, uint256 _rate) public onlyStakingAdmin {\r\n        emit InterestRateRateChanged(_numInterestRate, interestRates[_numInterestRate].rate, _rate);\r\n        updatePoolShareValue();\r\n        interestRates[_numInterestRate].rate = _rate;\r\n    }\r\n    function changeInterestRateValidFrom(uint256 _numInterestRate, uint256 _validFrom) public onlyStakingAdmin {\r\n        emit InterestRateValidFromChanged(_numInterestRate, interestRates[_numInterestRate].validFrom, _validFrom);\r\n        require(numInterestRates > _numInterestRate, \"MorpherStaking: Interest Rate Does not exist!\");\r\n        require(\r\n            (_numInterestRate == 0 && numInterestRates-1 > 0 && interestRates[_numInterestRate+1].validFrom > _validFrom) || //we change the first one and there exist more than one\r\n            (_numInterestRate > 0 && _numInterestRate == numInterestRates-1 && interestRates[_numInterestRate - 1].validFrom < _validFrom) || //we changed the last one\r\n            (_numInterestRate > 0 && _numInterestRate < numInterestRates-1 && interestRates[_numInterestRate - 1].validFrom < _validFrom && interestRates[_numInterestRate + 1].validFrom > _validFrom),\r\n            \"MorpherStaking: validFrom cannot be smaller than previous Interest Rate or larger than next Interest Rate\"\r\n            );\r\n        updatePoolShareValue();\r\n        interestRates[_numInterestRate].validFrom = _validFrom;\r\n    }\r\n\r\n     function getInterestRate(uint256 _positionTimestamp) public view returns(uint256) {\r\n        uint256 sumInterestRatesWeighted = 0;\r\n        uint256 startingTimestamp = 0;\r\n        \r\n        for(uint256 i = 0; i < numInterestRates; i++) {\r\n            if(i == numInterestRates-1 || interestRates[i+1].validFrom > block.timestamp) {\r\n                //reached last interest rate\r\n                sumInterestRatesWeighted = sumInterestRatesWeighted + (interestRates[i].rate * (block.timestamp - interestRates[i].validFrom));\r\n                if(startingTimestamp == 0) {\r\n                    startingTimestamp = interestRates[i].validFrom;\r\n                }\r\n                break; //in case there are more in the future\r\n            } else {\r\n                //only take interest rates after the position was created\r\n                if(interestRates[i+1].validFrom > _positionTimestamp) {\r\n                    sumInterestRatesWeighted = sumInterestRatesWeighted + (interestRates[i].rate * (interestRates[i+1].validFrom - interestRates[i].validFrom));\r\n                    if(interestRates[i].validFrom <= _positionTimestamp) {\r\n                        startingTimestamp = interestRates[i].validFrom;\r\n                    }\r\n                }\r\n            } \r\n        }\r\n        return sumInterestRatesWeighted / (block.timestamp - startingTimestamp);\r\n\r\n    }\r\n\r\n    function setLockupPeriodRate(uint256 _lockupPeriod) public onlyStakingAdmin {\r\n        lockupPeriod = _lockupPeriod;\r\n        emit SetLockupPeriod(_lockupPeriod);\r\n    }\r\n    \r\n    function setMinimumStake(uint256 _minimumStake) public onlyStakingAdmin {\r\n        minimumStake = _minimumStake;\r\n        emit SetMinimumStake(_minimumStake);\r\n    }\r\n\r\n// ----------------------------------------------------------------------------\r\n// Getter functions\r\n// ----------------------------------------------------------------------------\r\n\r\n    function getTotalPooledValue() public view returns (uint256 _totalPooled) {\r\n        // Only accurate if poolShareValue is up to date\r\n        return poolShareValue * (totalShares);\r\n    }\r\n\r\n    function getStake(address _address) public view returns (uint256 _poolShares) {\r\n        return poolShares[_address].numPoolShares;\r\n    }\r\n\r\n    function getStakeValue(address _address) public view returns(uint256 _value, uint256 _lastUpdate) {\r\n        // Only accurate if poolShareValue is up to date\r\n        return (getStake(_address) * (poolShareValue), lastReward);\r\n    }\r\n    \r\n// ------------------------------------------------------------------------\r\n// Don't accept ETH\r\n// ------------------------------------------------------------------------\r\n\r\n    fallback() external payable {\r\n        revert(\"MorpherStaking: you can't deposit Ether here\");\r\n    }\r\n    receive() external payable {\r\n        revert(\"MorpherStaking: you can't deposit Ether here\");\r\n    }\r\n}\r\n",
  "sourcePath": "/home/thomas/MorpherProtocol/contracts/MorpherStaking.sol",
  "compiler": {
    "name": "solc",
    "version": "0.8.11+commit.d7f03943.Emscripten.clang"
  },
  "schemaVersion": "3.4.5",
  "updatedAt": "2022-03-15T09:28:17.909Z",
  "devdoc": {
    "kind": "dev",
    "methods": {
      "owner()": {
        "details": "Returns the address of the current owner."
      },
      "renounceOwnership()": {
        "details": "Leaves the contract without owner. It will not be possible to call `onlyOwner` functions anymore. Can only be called by the current owner. NOTE: Renouncing ownership will leave the contract without an owner, thereby removing any functionality that is only available to the owner."
      },
      "transferOwnership(address)": {
        "details": "Transfers ownership of the contract to a new account (`newOwner`). Can only be called by the current owner."
      }
    },
    "version": 1
  },
  "userdoc": {
    "kind": "user",
    "methods": {
      "interestRate()": {
        "notice": "fallback function in case the old tradeengine asks for the current interest rate"
      },
      "setInterestRate(uint256)": {
        "notice": "Interest rate"
      }
    },
    "version": 1
  }
}