{
  "contractName": "MorpherBridge",
  "abi": [
    {
      "anonymous": false,
      "inputs": [
        {
          "indexed": true,
          "internalType": "address",
          "name": "from",
          "type": "address"
        },
        {
          "indexed": false,
          "internalType": "uint256",
          "name": "tokens",
          "type": "uint256"
        }
      ],
      "name": "ClaimFailedTransferToSidechain",
      "type": "event"
    },
    {
      "anonymous": false,
      "inputs": [
        {
          "indexed": false,
          "internalType": "address",
          "name": "_address",
          "type": "address"
        }
      ],
      "name": "LinkState",
      "type": "event"
    },
    {
      "anonymous": false,
      "inputs": [
        {
          "indexed": true,
          "internalType": "address",
          "name": "from",
          "type": "address"
        },
        {
          "indexed": false,
          "internalType": "uint256",
          "name": "tokens",
          "type": "uint256"
        },
        {
          "indexed": false,
          "internalType": "bytes32",
          "name": "sidechainTransactionHash",
          "type": "bytes32"
        }
      ],
      "name": "OperatorChainTransfer",
      "type": "event"
    },
    {
      "anonymous": false,
      "inputs": [
        {
          "indexed": true,
          "internalType": "address",
          "name": "from",
          "type": "address"
        },
        {
          "indexed": false,
          "internalType": "bytes32",
          "name": "positionHash",
          "type": "bytes32"
        }
      ],
      "name": "PositionRecoveryFromSideChain",
      "type": "event"
    },
    {
      "anonymous": false,
      "inputs": [
        {
          "indexed": false,
          "internalType": "bytes32",
          "name": "_rootHash",
          "type": "bytes32"
        }
      ],
      "name": "SideChainMerkleRootUpdated",
      "type": "event"
    },
    {
      "anonymous": false,
      "inputs": [
        {
          "indexed": true,
          "internalType": "address",
          "name": "from",
          "type": "address"
        },
        {
          "indexed": false,
          "internalType": "bytes32",
          "name": "positionHash",
          "type": "bytes32"
        }
      ],
      "name": "TokenRecoveryFromSideChain",
      "type": "event"
    },
    {
      "anonymous": false,
      "inputs": [
        {
          "indexed": true,
          "internalType": "address",
          "name": "from",
          "type": "address"
        },
        {
          "indexed": false,
          "internalType": "uint256",
          "name": "tokens",
          "type": "uint256"
        },
        {
          "indexed": false,
          "internalType": "uint256",
          "name": "totalTokenSent",
          "type": "uint256"
        },
        {
          "indexed": false,
          "internalType": "uint256",
          "name": "timeStamp",
          "type": "uint256"
        },
        {
          "indexed": false,
          "internalType": "uint256",
          "name": "transferNonce",
          "type": "uint256"
        },
        {
          "indexed": true,
          "internalType": "bytes32",
          "name": "transferHash",
          "type": "bytes32"
        }
      ],
      "name": "TransferToLinkedChain",
      "type": "event"
    },
    {
      "anonymous": false,
      "inputs": [
        {
          "indexed": true,
          "internalType": "address",
          "name": "from",
          "type": "address"
        },
        {
          "indexed": false,
          "internalType": "uint256",
          "name": "tokens",
          "type": "uint256"
        }
      ],
      "name": "TrustlessWithdrawFromSideChain",
      "type": "event"
    },
    {
      "anonymous": false,
      "inputs": [
        {
          "indexed": false,
          "internalType": "uint256",
          "name": "_withdrawLimit",
          "type": "uint256"
        }
      ],
      "name": "WithdrawLimitChanged",
      "type": "event"
    },
    {
      "anonymous": false,
      "inputs": [
        {
          "indexed": false,
          "internalType": "uint256",
          "name": "_oldLimit",
          "type": "uint256"
        },
        {
          "indexed": false,
          "internalType": "uint256",
          "name": "_newLimit",
          "type": "uint256"
        }
      ],
      "name": "WithdrawLimitDailyGlobalChanged",
      "type": "event"
    },
    {
      "anonymous": false,
      "inputs": [
        {
          "indexed": false,
          "internalType": "uint256",
          "name": "_oldLimit",
          "type": "uint256"
        },
        {
          "indexed": false,
          "internalType": "uint256",
          "name": "_newLimit",
          "type": "uint256"
        }
      ],
      "name": "WithdrawLimitDailyPerUserChanged",
      "type": "event"
    },
    {
      "anonymous": false,
      "inputs": [
        {
          "indexed": false,
          "internalType": "uint256",
          "name": "_oldLimit",
          "type": "uint256"
        },
        {
          "indexed": false,
          "internalType": "uint256",
          "name": "_newLimit",
          "type": "uint256"
        }
      ],
      "name": "WithdrawLimitMonthlyGlobalChanged",
      "type": "event"
    },
    {
      "anonymous": false,
      "inputs": [
        {
          "indexed": false,
          "internalType": "uint256",
          "name": "_oldLimit",
          "type": "uint256"
        },
        {
          "indexed": false,
          "internalType": "uint256",
          "name": "_newLimit",
          "type": "uint256"
        }
      ],
      "name": "WithdrawLimitMonthlyPerUserChanged",
      "type": "event"
    },
    {
      "anonymous": false,
      "inputs": [],
      "name": "WithdrawLimitReset",
      "type": "event"
    },
    {
      "anonymous": false,
      "inputs": [
        {
          "indexed": false,
          "internalType": "uint256",
          "name": "_oldLimit",
          "type": "uint256"
        },
        {
          "indexed": false,
          "internalType": "uint256",
          "name": "_newLimit",
          "type": "uint256"
        }
      ],
      "name": "WithdrawLimitYearlyGlobalChanged",
      "type": "event"
    },
    {
      "anonymous": false,
      "inputs": [
        {
          "indexed": false,
          "internalType": "uint256",
          "name": "_oldLimit",
          "type": "uint256"
        },
        {
          "indexed": false,
          "internalType": "uint256",
          "name": "_newLimit",
          "type": "uint256"
        }
      ],
      "name": "WithdrawLimitYearlyPerUserChanged",
      "type": "event"
    },
    {
      "inputs": [],
      "name": "ADMINISTRATOR_ROLE",
      "outputs": [
        {
          "internalType": "bytes32",
          "name": "",
          "type": "bytes32"
        }
      ],
      "stateMutability": "view",
      "type": "function"
    },
    {
      "inputs": [],
      "name": "SIDECHAINOPERATOR_ROLE",
      "outputs": [
        {
          "internalType": "bytes32",
          "name": "",
          "type": "bytes32"
        }
      ],
      "stateMutability": "view",
      "type": "function"
    },
    {
      "inputs": [],
      "name": "bridgeNonce",
      "outputs": [
        {
          "internalType": "uint256",
          "name": "",
          "type": "uint256"
        }
      ],
      "stateMutability": "view",
      "type": "function"
    },
    {
      "inputs": [
        {
          "internalType": "bytes32",
          "name": "",
          "type": "bytes32"
        }
      ],
      "name": "claimFromInactivity",
      "outputs": [
        {
          "internalType": "bool",
          "name": "",
          "type": "bool"
        }
      ],
      "stateMutability": "view",
      "type": "function"
    },
    {
      "inputs": [],
      "name": "inactivityPeriod",
      "outputs": [
        {
          "internalType": "uint256",
          "name": "",
          "type": "uint256"
        }
      ],
      "stateMutability": "view",
      "type": "function"
    },
    {
      "inputs": [],
      "name": "recoveryEnabled",
      "outputs": [
        {
          "internalType": "bool",
          "name": "",
          "type": "bool"
        }
      ],
      "stateMutability": "view",
      "type": "function"
    },
    {
      "inputs": [
        {
          "internalType": "address",
          "name": "",
          "type": "address"
        }
      ],
      "name": "tokenClaimedOnThisChain",
      "outputs": [
        {
          "internalType": "uint256",
          "name": "amount",
          "type": "uint256"
        },
        {
          "internalType": "uint256",
          "name": "lastTransferAt",
          "type": "uint256"
        }
      ],
      "stateMutability": "view",
      "type": "function"
    },
    {
      "inputs": [
        {
          "internalType": "address",
          "name": "",
          "type": "address"
        }
      ],
      "name": "tokenSentToLinkedChain",
      "outputs": [
        {
          "internalType": "uint256",
          "name": "amount",
          "type": "uint256"
        },
        {
          "internalType": "uint256",
          "name": "lastTransferAt",
          "type": "uint256"
        }
      ],
      "stateMutability": "view",
      "type": "function"
    },
    {
      "inputs": [],
      "name": "withdrawalData",
      "outputs": [
        {
          "internalType": "bytes32",
          "name": "merkleRoot",
          "type": "bytes32"
        },
        {
          "internalType": "uint256",
          "name": "lastUpdatedAt",
          "type": "uint256"
        }
      ],
      "stateMutability": "view",
      "type": "function"
    },
    {
      "inputs": [],
      "name": "withdrawalLimitGlobalDaily",
      "outputs": [
        {
          "internalType": "uint256",
          "name": "",
          "type": "uint256"
        }
      ],
      "stateMutability": "view",
      "type": "function"
    },
    {
      "inputs": [],
      "name": "withdrawalLimitGlobalMonthly",
      "outputs": [
        {
          "internalType": "uint256",
          "name": "",
          "type": "uint256"
        }
      ],
      "stateMutability": "view",
      "type": "function"
    },
    {
      "inputs": [],
      "name": "withdrawalLimitGlobalYearly",
      "outputs": [
        {
          "internalType": "uint256",
          "name": "",
          "type": "uint256"
        }
      ],
      "stateMutability": "view",
      "type": "function"
    },
    {
      "inputs": [],
      "name": "withdrawalLimitPerUserDaily",
      "outputs": [
        {
          "internalType": "uint256",
          "name": "",
          "type": "uint256"
        }
      ],
      "stateMutability": "view",
      "type": "function"
    },
    {
      "inputs": [],
      "name": "withdrawalLimitPerUserMonthly",
      "outputs": [
        {
          "internalType": "uint256",
          "name": "",
          "type": "uint256"
        }
      ],
      "stateMutability": "view",
      "type": "function"
    },
    {
      "inputs": [],
      "name": "withdrawalLimitPerUserYearly",
      "outputs": [
        {
          "internalType": "uint256",
          "name": "",
          "type": "uint256"
        }
      ],
      "stateMutability": "view",
      "type": "function"
    },
    {
      "inputs": [
        {
          "internalType": "address",
          "name": "",
          "type": "address"
        },
        {
          "internalType": "uint256",
          "name": "",
          "type": "uint256"
        }
      ],
      "name": "withdrawalPerUserPerDay",
      "outputs": [
        {
          "internalType": "uint256",
          "name": "",
          "type": "uint256"
        }
      ],
      "stateMutability": "view",
      "type": "function"
    },
    {
      "inputs": [
        {
          "internalType": "address",
          "name": "",
          "type": "address"
        },
        {
          "internalType": "uint256",
          "name": "",
          "type": "uint256"
        }
      ],
      "name": "withdrawalPerUserPerMonth",
      "outputs": [
        {
          "internalType": "uint256",
          "name": "",
          "type": "uint256"
        }
      ],
      "stateMutability": "view",
      "type": "function"
    },
    {
      "inputs": [
        {
          "internalType": "address",
          "name": "",
          "type": "address"
        },
        {
          "internalType": "uint256",
          "name": "",
          "type": "uint256"
        }
      ],
      "name": "withdrawalPerUserPerYear",
      "outputs": [
        {
          "internalType": "uint256",
          "name": "",
          "type": "uint256"
        }
      ],
      "stateMutability": "view",
      "type": "function"
    },
    {
      "inputs": [
        {
          "internalType": "uint256",
          "name": "",
          "type": "uint256"
        }
      ],
      "name": "withdrawalsGlobalDaily",
      "outputs": [
        {
          "internalType": "uint256",
          "name": "",
          "type": "uint256"
        }
      ],
      "stateMutability": "view",
      "type": "function"
    },
    {
      "inputs": [
        {
          "internalType": "uint256",
          "name": "",
          "type": "uint256"
        }
      ],
      "name": "withdrawalsGlobalMonthly",
      "outputs": [
        {
          "internalType": "uint256",
          "name": "",
          "type": "uint256"
        }
      ],
      "stateMutability": "view",
      "type": "function"
    },
    {
      "inputs": [
        {
          "internalType": "uint256",
          "name": "",
          "type": "uint256"
        }
      ],
      "name": "withdrawalsGlobalYearly",
      "outputs": [
        {
          "internalType": "uint256",
          "name": "",
          "type": "uint256"
        }
      ],
      "stateMutability": "view",
      "type": "function"
    },
    {
      "inputs": [
        {
          "internalType": "address",
          "name": "_stateAddress",
          "type": "address"
        },
        {
          "internalType": "bool",
          "name": "_recoveryEnabled",
          "type": "bool"
        }
      ],
      "name": "initialize",
      "outputs": [],
      "stateMutability": "nonpayable",
      "type": "function"
    },
    {
      "inputs": [
        {
          "internalType": "address",
          "name": "_stateAddress",
          "type": "address"
        }
      ],
      "name": "setMorpherState",
      "outputs": [],
      "stateMutability": "nonpayable",
      "type": "function"
    },
    {
      "inputs": [
        {
          "internalType": "uint256",
          "name": "_periodInSeconds",
          "type": "uint256"
        }
      ],
      "name": "setInactivityPeriod",
      "outputs": [],
      "stateMutability": "nonpayable",
      "type": "function"
    },
    {
      "inputs": [
        {
          "internalType": "bytes32",
          "name": "_rootHash",
          "type": "bytes32"
        }
      ],
      "name": "updateSideChainMerkleRoot",
      "outputs": [],
      "stateMutability": "nonpayable",
      "type": "function"
    },
    {
      "inputs": [
        {
          "internalType": "uint256",
          "name": "_withdrawLimit",
          "type": "uint256"
        }
      ],
      "name": "updateWithdrawLimitPerUserDaily",
      "outputs": [],
      "stateMutability": "nonpayable",
      "type": "function"
    },
    {
      "inputs": [
        {
          "internalType": "uint256",
          "name": "_withdrawLimit",
          "type": "uint256"
        }
      ],
      "name": "updateWithdrawLimitPerUserMonthly",
      "outputs": [],
      "stateMutability": "nonpayable",
      "type": "function"
    },
    {
      "inputs": [
        {
          "internalType": "uint256",
          "name": "_withdrawLimit",
          "type": "uint256"
        }
      ],
      "name": "updateWithdrawLimitPerUserYearly",
      "outputs": [],
      "stateMutability": "nonpayable",
      "type": "function"
    },
    {
      "inputs": [
        {
          "internalType": "uint256",
          "name": "_withdrawLimit",
          "type": "uint256"
        }
      ],
      "name": "updateWithdrawLimitGlobalDaily",
      "outputs": [],
      "stateMutability": "nonpayable",
      "type": "function"
    },
    {
      "inputs": [
        {
          "internalType": "uint256",
          "name": "_withdrawLimit",
          "type": "uint256"
        }
      ],
      "name": "updateWithdrawLimitGlobalMonthly",
      "outputs": [],
      "stateMutability": "nonpayable",
      "type": "function"
    },
    {
      "inputs": [
        {
          "internalType": "uint256",
          "name": "_withdrawLimit",
          "type": "uint256"
        }
      ],
      "name": "updateWithdrawLimitGlobalYearly",
      "outputs": [],
      "stateMutability": "nonpayable",
      "type": "function"
    },
    {
      "inputs": [
        {
          "internalType": "uint256",
          "name": "_amount",
          "type": "uint256"
        }
      ],
      "name": "isNotDailyLimitExceeding",
      "outputs": [
        {
          "internalType": "bool",
          "name": "",
          "type": "bool"
        }
      ],
      "stateMutability": "view",
      "type": "function"
    },
    {
      "inputs": [
        {
          "internalType": "uint256",
          "name": "_amount",
          "type": "uint256"
        }
      ],
      "name": "isNotMonthlyLimitExceeding",
      "outputs": [
        {
          "internalType": "bool",
          "name": "",
          "type": "bool"
        }
      ],
      "stateMutability": "view",
      "type": "function"
    },
    {
      "inputs": [
        {
          "internalType": "uint256",
          "name": "_amount",
          "type": "uint256"
        }
      ],
      "name": "isNotYearlyLimitExceeding",
      "outputs": [
        {
          "internalType": "bool",
          "name": "",
          "type": "bool"
        }
      ],
      "stateMutability": "view",
      "type": "function"
    },
    {
      "inputs": [
        {
          "internalType": "uint256",
          "name": "_amount",
          "type": "uint256"
        }
      ],
      "name": "verifyUpdateDailyLimit",
      "outputs": [],
      "stateMutability": "nonpayable",
      "type": "function"
    },
    {
      "inputs": [
        {
          "internalType": "uint256",
          "name": "_amount",
          "type": "uint256"
        }
      ],
      "name": "verifyUpdateMonthlyLimit",
      "outputs": [],
      "stateMutability": "nonpayable",
      "type": "function"
    },
    {
      "inputs": [
        {
          "internalType": "uint256",
          "name": "_amount",
          "type": "uint256"
        }
      ],
      "name": "verifyUpdateYearlyLimit",
      "outputs": [],
      "stateMutability": "nonpayable",
      "type": "function"
    },
    {
      "inputs": [
        {
          "internalType": "uint256",
          "name": "_tokens",
          "type": "uint256"
        }
      ],
      "name": "stageTokensForTransfer",
      "outputs": [],
      "stateMutability": "nonpayable",
      "type": "function"
    },
    {
      "inputs": [
        {
          "internalType": "uint256",
          "name": "_numOfToken",
          "type": "uint256"
        },
        {
          "internalType": "uint256",
          "name": "_claimLimit",
          "type": "uint256"
        },
        {
          "internalType": "bytes32[]",
          "name": "_proof",
          "type": "bytes32[]"
        }
      ],
      "name": "claimStagedTokens",
      "outputs": [],
      "stateMutability": "nonpayable",
      "type": "function"
    },
    {
      "inputs": [
        {
          "internalType": "uint256",
          "name": "_wrongSideChainBalance",
          "type": "uint256"
        },
        {
          "internalType": "bytes32[]",
          "name": "_proof",
          "type": "bytes32[]"
        }
      ],
      "name": "claimFailedTransferToSidechain",
      "outputs": [],
      "stateMutability": "nonpayable",
      "type": "function"
    },
    {
      "inputs": [
        {
          "internalType": "bytes32[]",
          "name": "_proof",
          "type": "bytes32[]"
        },
        {
          "internalType": "bytes32",
          "name": "_leaf",
          "type": "bytes32"
        },
        {
          "internalType": "bytes32",
          "name": "_marketId",
          "type": "bytes32"
        },
        {
          "internalType": "uint256",
          "name": "_timeStamp",
          "type": "uint256"
        },
        {
          "internalType": "uint256",
          "name": "_longShares",
          "type": "uint256"
        },
        {
          "internalType": "uint256",
          "name": "_shortShares",
          "type": "uint256"
        },
        {
          "internalType": "uint256",
          "name": "_meanEntryPrice",
          "type": "uint256"
        },
        {
          "internalType": "uint256",
          "name": "_meanEntrySpread",
          "type": "uint256"
        },
        {
          "internalType": "uint256",
          "name": "_meanEntryLeverage",
          "type": "uint256"
        },
        {
          "internalType": "uint256",
          "name": "_liquidationPrice",
          "type": "uint256"
        }
      ],
      "name": "recoverPositionFromInactivity",
      "outputs": [],
      "stateMutability": "nonpayable",
      "type": "function"
    },
    {
      "inputs": [
        {
          "internalType": "bytes32[]",
          "name": "_proof",
          "type": "bytes32[]"
        },
        {
          "internalType": "bytes32",
          "name": "_leaf",
          "type": "bytes32"
        },
        {
          "internalType": "uint256",
          "name": "_balance",
          "type": "uint256"
        }
      ],
      "name": "recoverTokenFromInactivity",
      "outputs": [],
      "stateMutability": "nonpayable",
      "type": "function"
    },
    {
      "inputs": [
        {
          "internalType": "bytes32[]",
          "name": "_proof",
          "type": "bytes32[]"
        },
        {
          "internalType": "bytes32",
          "name": "_leaf",
          "type": "bytes32"
        }
      ],
      "name": "mProof",
      "outputs": [
        {
          "internalType": "bool",
          "name": "_isTrue",
          "type": "bool"
        }
      ],
      "stateMutability": "view",
      "type": "function"
    },
    {
      "inputs": [
        {
          "internalType": "address",
          "name": "_address",
          "type": "address"
        },
        {
          "internalType": "uint256",
          "name": "_balance",
          "type": "uint256"
        }
      ],
      "name": "getBalanceHash",
      "outputs": [
        {
          "internalType": "bytes32",
          "name": "_hash",
          "type": "bytes32"
        }
      ],
      "stateMutability": "pure",
      "type": "function"
    }
  ],
  "bytecode": "0x608060405234801561001057600080fd5b506133a2806100206000396000f3fe608060405234801561001057600080fd5b50600436106102745760003560e01c806383ecd61211610151578063d362bd2b116100c3578063ec65d96c11610087578063ec65d96c146105d1578063eedc58ec146105e4578063f03c6fdc146105f7578063f45edb5f1461060a578063f572755114610631578063fb16f5a91461064457600080fd5b8063d362bd2b14610579578063da9a6b3514610582578063de8a5746146105a2578063e628eb5b146105ab578063e7f34bb7146105be57600080fd5b806398684b4e1161011557806398684b4e146104e6578063a1949a0a146104f9578063a31c98b714610524578063abc35a911461054f578063af434a6d1461055d578063cb1b92fb1461057057600080fd5b806383ecd61214610484578063857b0da01461048d5780638cd845d9146104a05780638e4b97ec146104c057806392e7c76e146104d357600080fd5b80632f21278c116101ea5780635300597b116101ae5780635300597b1461040a57806355069a811461041d57806358b0e6b5146104305780637946541e146104395780637ac1576314610446578063801046681461047157600080fd5b80632f21278c1461038a5780633b45c3551461039d5780633c14e352146103bd578063400ada75146103e457806349c01664146103f757600080fd5b80631fea82ad1161023c5780631fea82ad146102f957806321bb10bb1461033557806322f4c3f71461033e578063294f19b6146103515780632d1a752c146103645780632e55e76e1461037757600080fd5b8063015b3ab41461027957806303d23044146102b15780631c0ffbd0146102c65780631da420b9146102dd5780631f87a250146102f0575b600080fd5b61029c610287366004612d54565b60456020526000908152604090205460ff1681565b60405190151581526020015b60405180910390f35b6102c46102bf366004612e1e565b610659565b005b6102cf603a5481565b6040519081526020016102a8565b61029c6102eb366004612d54565b610939565b6102cf60485481565b610320610307366004612e84565b6046602052600090815260409020805460019091015482565b604080519283526020830191909152016102a8565b6102cf60385481565b61029c61034c366004612d54565b6109d6565b61029c61035f366004612d54565b610a4f565b6102c4610372366004612d54565b610ac8565b6102c4610385366004612d54565b610bb5565b6102c4610398366004612d54565b610d0c565b6102cf6103ab366004612d54565b60406020819052600091825290205481565b6103206103cb366004612e84565b6047602052600090815260409020805460019091015482565b6102c46103f2366004612eaf565b610e63565b6102c4610405366004612d54565b610f8b565b61029c610418366004612ee8565b6110e1565b6102c461042b366004612d54565b6110fa565b6102cf60355481565b60445461029c9060ff1681565b6102cf610454366004612f2d565b603c60209081526000928352604080842090915290825290205481565b6102c461047f366004612e84565b611251565b6102cf60375481565b6102cf61049b366004612f2d565b6113c6565b6102cf6104ae366004612d54565b603f6020526000908152604090205481565b6102c46104ce366004612d54565b6113f9565b6102c46104e1366004612d54565b611895565b6102c46104f4366004612d54565b6119ec565b6102cf610507366004612f2d565b603b60209081526000928352604080842090915290825290205481565b6102cf610532366004612f2d565b603d60209081526000928352604080842090915290825290205481565b604154604254610320919082565b6102c461056b366004612d54565b611ab3565b6102cf60395481565b6102cf60435481565b6102cf610590366004612d54565b603e6020526000908152604090205481565b6102cf60365481565b6102c46105b9366004612d54565b611be0565b6102c46105cc366004612f59565b611d37565b6102c46105df366004612d54565b6121d2565b6102c46105f2366004612fe3565b612329565b6102c461060536600461302a565b6127fe565b6102cf7fe5a0b4d50f56047f84728557fedbda92f956391bc9d5c762e8461996dd8e7ad781565b6102c461063f366004612d54565b612aed565b6102cf60008051602061334d83398151915281565b6042546043546106699042613090565b1161068f5760405162461bcd60e51b8152600401610686906130a7565b60405180910390fd5b603360009054906101000a90046001600160a01b03166001600160a01b03166350a71bac6040518163ffffffff1660e01b8152600401602060405180830381865afa1580156106e2573d6000803e3d6000fd5b505050506040513d601f19601f820116820180604052508101906107069190613111565b6001600160a01b031663ac259ace336040516001600160e01b031960e084901b1681526001600160a01b039091166004820152602401602060405180830381865afa158015610759573d6000803e3d6000fd5b505050506040513d601f19601f8201168201806040525081019061077d919061312e565b1561079a5760405162461bcd60e51b81526004016106869061314b565b60445460ff166107bc5760405162461bcd60e51b815260040161068690613182565b6107c633826113c6565b82146108145760405162461bcd60e51b815260206004820152601d60248201527f4d6f72706865724272696467653a2057726f6e672062616c616e63652e0000006044820152606401610686565b60008281526045602052604090205460ff16156108855760405162461bcd60e51b815260206004820152602960248201527f4d6f72706865724272696467653a20546f6b656e20616c7265616479207472616044820152683739b332b93932b21760b91b6064820152608401610686565b61088f83836110e1565b15156001146108b05760405162461bcd60e51b8152600401610686906131d3565b6000828152604560205260409020805460ff191660011790556108d281612aed565b6108db816119ec565b6108e481610ac8565b336000818152604760205260409020546108ff919083612bb2565b60405182815233907f0534719a5dcedfc13619bb4206e36ba0e42fb7d166c8b8a79320c8128fc3af549060200160405180910390a2505050565b600060375482603d600061094a3390565b6001600160a01b03166001600160a01b0316815260200190815260200160002060006301e133804261097c9190613216565b8152602001908152602001600020546109959190613238565b111580156109d05750603a5482604060006109b46301e1338042613216565b8152602001908152602001600020546109cd9190613238565b11155b92915050565b600060355482603b60006109e73390565b6001600160a01b03166001600160a01b0316815260200190815260200160002060006201518042610a189190613216565b815260200190815260200160002054610a319190613238565b111580156109d0575060385482603e60006109b46201518042613216565b600060365482603c6000610a603390565b6001600160a01b03166001600160a01b03168152602001908152602001600020600062278d0042610a919190613216565b815260200190815260200160002054610aaa9190613238565b111580156109d0575060395482603f60006109b462278d0042613216565b610ad181610939565b610b3b5760405162461bcd60e51b815260206004820152603560248201527f4d6f72706865724272696467653a205769746864726177616c20416d6f756e7460448201527408195e18d959591cc81e59585c9b1e481b1a5b5a5d605a1b6064820152608401610686565b336000908152603d602052604081208291610b5a6301e1338042613216565b81526020019081526020016000206000828254610b779190613238565b9091555081905060406000610b906301e1338042613216565b81526020019081526020016000206000828254610bad9190613238565b909155505050565b60335460408051630140cb6560e51b8152905160008051602061334d833981519152926001600160a01b0316916328196ca09160048083019260209291908290030181865afa158015610c0c573d6000803e3d6000fd5b505050506040513d601f19601f82011682018060405250810190610c309190613111565b6001600160a01b03166391d1485482336040516001600160e01b031960e085901b16815260048101929092526001600160a01b03166024820152604401602060405180830381865afa158015610c8a573d6000803e3d6000fd5b505050506040513d601f19601f82011682018060405250810190610cae919061312e565b610cca5760405162461bcd60e51b815260040161068690613250565b60375460408051918252602082018490527f58876df72ecce56c44d758d22355bb689efaa4946003c9bf0d75a228d1c0612f910160405180910390a150603755565b60335460408051630140cb6560e51b8152905160008051602061334d833981519152926001600160a01b0316916328196ca09160048083019260209291908290030181865afa158015610d63573d6000803e3d6000fd5b505050506040513d601f19601f82011682018060405250810190610d879190613111565b6001600160a01b03166391d1485482336040516001600160e01b031960e085901b16815260048101929092526001600160a01b03166024820152604401602060405180830381865afa158015610de1573d6000803e3d6000fd5b505050506040513d601f19601f82011682018060405250810190610e05919061312e565b610e215760405162461bcd60e51b815260040161068690613250565b60355460408051918252602082018490527f8a30f3401f82aa6b9ef6b22cd0efee6be3c06cc377d13e718a97bdb5eccb811a910160405180910390a150603555565b600054610100900460ff16610e7e5760005460ff1615610e82565b303b155b610ee55760405162461bcd60e51b815260206004820152602e60248201527f496e697469616c697a61626c653a20636f6e747261637420697320616c72656160448201526d191e481a5b9a5d1a585b1a5e995960921b6064820152608401610686565b600054610100900460ff16158015610f07576000805461ffff19166101011790555b603380546001600160a01b0319166001600160a01b0385161790556044805460ff1916831515179055692a5a058fc295ed000000603581905569d3c21bcecceda100000060368190556a0422ca8b0a00a4250000006037819055603892909255603955603a556203f4806043558015610f86576000805461ff00191690555b505050565b60335460408051630140cb6560e51b8152905160008051602061334d833981519152926001600160a01b0316916328196ca09160048083019260209291908290030181865afa158015610fe2573d6000803e3d6000fd5b505050506040513d601f19601f820116820180604052508101906110069190613111565b6001600160a01b03166391d1485482336040516001600160e01b031960e085901b16815260048101929092526001600160a01b03166024820152604401602060405180830381865afa158015611060573d6000803e3d6000fd5b505050506040513d601f19601f82011682018060405250810190611084919061312e565b6110a05760405162461bcd60e51b815260040161068690613250565b6041829055426042556040518281527fce559c2f7d86d801cf61f2bfd589e7926036f75a2c58e06b35378f308637d504906020015b60405180910390a15050565b60006110f38360416000015484612cac565b9392505050565b60335460408051630140cb6560e51b8152905160008051602061334d833981519152926001600160a01b0316916328196ca09160048083019260209291908290030181865afa158015611151573d6000803e3d6000fd5b505050506040513d601f19601f820116820180604052508101906111759190613111565b6001600160a01b03166391d1485482336040516001600160e01b031960e085901b16815260048101929092526001600160a01b03166024820152604401602060405180830381865afa1580156111cf573d6000803e3d6000fd5b505050506040513d601f19601f820116820180604052508101906111f3919061312e565b61120f5760405162461bcd60e51b815260040161068690613250565b60395460408051918252602082018490527f53e006bea65a38d4b925b9299178d9c25ae1236005e70c46dc1d1d6329e41ff2910160405180910390a150603955565b60335460408051630140cb6560e51b815290517fe5a0b4d50f56047f84728557fedbda92f956391bc9d5c762e8461996dd8e7ad7926001600160a01b0316916328196ca09160048083019260209291908290030181865afa1580156112ba573d6000803e3d6000fd5b505050506040513d601f19601f820116820180604052508101906112de9190613111565b6001600160a01b03166391d1485482336040516001600160e01b031960e085901b16815260048101929092526001600160a01b03166024820152604401602060405180830381865afa158015611338573d6000803e3d6000fd5b505050506040513d601f19601f8201168201806040525081019061135c919061312e565b6113785760405162461bcd60e51b815260040161068690613250565b603380546001600160a01b0319166001600160a01b0384169081179091556040519081527f978c711532bae8c58f353b0f3c7f3a0dfe600d9ae9a81818f2ad2919b88e1990906020016110d5565b600082826040516020016113db929190613296565b60405160208183030381529060405280519060200120905092915050565b603360009054906101000a90046001600160a01b03166001600160a01b03166350a71bac6040518163ffffffff1660e01b8152600401602060405180830381865afa15801561144c573d6000803e3d6000fd5b505050506040513d601f19601f820116820180604052508101906114709190613111565b6001600160a01b031663ac259ace336040516001600160e01b031960e084901b1681526001600160a01b039091166004820152602401602060405180830381865afa1580156114c3573d6000803e3d6000fd5b505050506040513d601f19601f820116820180604052508101906114e7919061312e565b156115045760405162461bcd60e51b81526004016106869061314b565b60335460408051632192ab5d60e11b8152905183926001600160a01b03169163432556ba9160048083019260209291908290030181865afa15801561154d573d6000803e3d6000fd5b505050506040513d601f19601f820116820180604052508101906115719190613111565b6001600160a01b03166370a08231336040516001600160e01b031960e084901b1681526001600160a01b039091166004820152602401602060405180830381865afa1580156115c4573d6000803e3d6000fd5b505050506040513d601f19601f820116820180604052508101906115e891906132b8565b10156116425760405162461bcd60e51b8152602060048201526024808201527f4d6f72706865724272696467653a20496e73756666696369656e742062616c616044820152633731b29760e11b6064820152608401610686565b61164b81612aed565b611654816119ec565b61165d81610ac8565b603360009054906101000a90046001600160a01b03166001600160a01b031663432556ba6040518163ffffffff1660e01b8152600401602060405180830381865afa1580156116b0573d6000803e3d6000fd5b505050506040513d601f19601f820116820180604052508101906116d49190613111565b6001600160a01b0316639dc29fac336040516001600160e01b031960e084901b1681526001600160a01b03909116600482015260248101849052604401600060405180830381600087803b15801561172b57600080fd5b505af115801561173f573d6000803e3d6000fd5b50505050600081604660006117513390565b6001600160a01b031681526020810191909152604001600020546117759190613238565b90506000611781612cc2565b90504260003360405160609190911b6bffffffffffffffffffffffff191660208201526034810186905260548101859052607481018390526094810184905260b40160405160208183030381529060405280519060200120905083604660006117e73390565b6001600160a01b03166001600160a01b0316815260200190815260200160002060000181905550426046600061181a3390565b6001600160a01b0316815260208101919091526040016000206001015580336040805188815260208101889052908101859052606081018690526001600160a01b0391909116907f76dc9d098b791a3e9065b4237432e820c38b43f850d924581b31d61a8b4bbc829060800160405180910390a35050505050565b60335460408051630140cb6560e51b8152905160008051602061334d833981519152926001600160a01b0316916328196ca09160048083019260209291908290030181865afa1580156118ec573d6000803e3d6000fd5b505050506040513d601f19601f820116820180604052508101906119109190613111565b6001600160a01b03166391d1485482336040516001600160e01b031960e085901b16815260048101929092526001600160a01b03166024820152604401602060405180830381865afa15801561196a573d6000803e3d6000fd5b505050506040513d601f19601f8201168201806040525081019061198e919061312e565b6119aa5760405162461bcd60e51b815260040161068690613250565b60385460408051918252602082018490527fff4f3e2a6b4cb9b7141b4a215d1ae67a9dd18a640499d1393c6c0d0f253006db910160405180910390a150603855565b6119f581610a4f565b611a605760405162461bcd60e51b815260206004820152603660248201527f4d6f72706865724272696467653a205769746864726177616c20416d6f756e7460448201527508195e18d959591cc81b5bdb9d1a1b1e481b1a5b5a5d60521b6064820152608401610686565b336000908152603c602052604081208291611a7e62278d0042613216565b81526020019081526020016000206000828254611a9b9190613238565b90915550819050603f6000610b9062278d0042613216565b60335460408051630140cb6560e51b815290517fe5a0b4d50f56047f84728557fedbda92f956391bc9d5c762e8461996dd8e7ad7926001600160a01b0316916328196ca09160048083019260209291908290030181865afa158015611b1c573d6000803e3d6000fd5b505050506040513d601f19601f82011682018060405250810190611b409190613111565b6001600160a01b03166391d1485482336040516001600160e01b031960e085901b16815260048101929092526001600160a01b03166024820152604401602060405180830381865afa158015611b9a573d6000803e3d6000fd5b505050506040513d601f19601f82011682018060405250810190611bbe919061312e565b611bda5760405162461bcd60e51b815260040161068690613250565b50604355565b60335460408051630140cb6560e51b8152905160008051602061334d833981519152926001600160a01b0316916328196ca09160048083019260209291908290030181865afa158015611c37573d6000803e3d6000fd5b505050506040513d601f19601f82011682018060405250810190611c5b9190613111565b6001600160a01b03166391d1485482336040516001600160e01b031960e085901b16815260048101929092526001600160a01b03166024820152604401602060405180830381865afa158015611cb5573d6000803e3d6000fd5b505050506040513d601f19601f82011682018060405250810190611cd9919061312e565b611cf55760405162461bcd60e51b815260040161068690613250565b603a5460408051918252602082018490527f5c3db7af464ea9d986519b99cb07faf52b14ed37cccd5d05bea914e2fd92a06b910160405180910390a150603a55565b604254604354611d479042613090565b11611d645760405162461bcd60e51b8152600401610686906130a7565b603360009054906101000a90046001600160a01b03166001600160a01b03166350a71bac6040518163ffffffff1660e01b8152600401602060405180830381865afa158015611db7573d6000803e3d6000fd5b505050506040513d601f19601f82011682018060405250810190611ddb9190613111565b6001600160a01b031663ac259ace336040516001600160e01b031960e084901b1681526001600160a01b039091166004820152602401602060405180830381865afa158015611e2e573d6000803e3d6000fd5b505050506040513d601f19601f82011682018060405250810190611e52919061312e565b15611e6f5760405162461bcd60e51b81526004016106869061314b565b60445460ff16611e915760405162461bcd60e51b815260040161068690613182565b603360009054906101000a90046001600160a01b03166001600160a01b031663d37afa8d6040518163ffffffff1660e01b8152600401602060405180830381865afa158015611ee4573d6000803e3d6000fd5b505050506040513d601f19601f82011682018060405250810190611f089190613111565b6001600160a01b0316637a687444338a8a8a8a8a8a8a8a6040518a63ffffffff1660e01b8152600401611f43999897969594939291906132d1565b602060405180830381865afa158015611f60573d6000803e3d6000fd5b505050506040513d601f19601f82011682018060405250810190611f8491906132b8565b8914611fec5760405162461bcd60e51b815260206004820152603160248201527f4d6f72706865724272696467653a206c65616620646f6573206e6f742065717560448201527030b6103837b9b4ba34b7b7103430b9b41760791b6064820152608401610686565b60008981526045602052604090205460ff16156120605760405162461bcd60e51b815260206004820152602c60248201527f4d6f72706865724272696467653a20506f736974696f6e20616c72656164792060448201526b3a3930b739b332b93932b21760a11b6064820152608401610686565b61206a8a8a6110e1565b151560011461208b5760405162461bcd60e51b8152600401610686906131d3565b600089815260456020908152604091829020805460ff19166001179055603354825163d37afa8d60e01b815292516001600160a01b039091169263d37afa8d9260048083019391928290030181865afa1580156120ec573d6000803e3d6000fd5b505050506040513d601f19601f820116820180604052508101906121109190613111565b6001600160a01b031663be7e64b6338a8a8a8a8a8a8a8a6040518a63ffffffff1660e01b815260040161214b999897969594939291906132d1565b600060405180830381600087803b15801561216557600080fd5b505af1158015612179573d6000803e3d6000fd5b505050506121843390565b6001600160a01b03167f46de0525fb620932847e7db9be837e386fb61845ffb4ccc632241dfa56ce5d438a6040516121be91815260200190565b60405180910390a250505050505050505050565b60335460408051630140cb6560e51b8152905160008051602061334d833981519152926001600160a01b0316916328196ca09160048083019260209291908290030181865afa158015612229573d6000803e3d6000fd5b505050506040513d601f19601f8201168201806040525081019061224d9190613111565b6001600160a01b03166391d1485482336040516001600160e01b031960e085901b16815260048101929092526001600160a01b03166024820152604401602060405180830381865afa1580156122a7573d6000803e3d6000fd5b505050506040513d601f19601f820116820180604052508101906122cb919061312e565b6122e75760405162461bcd60e51b815260040161068690613250565b60365460408051918252602082018490527f15bbabad33cea99b6af1c5233603cb731748ed7b1cf3abd8de230338e7b4c97d910160405180910390a150603655565b603360009054906101000a90046001600160a01b03166001600160a01b03166350a71bac6040518163ffffffff1660e01b8152600401602060405180830381865afa15801561237c573d6000803e3d6000fd5b505050506040513d601f19601f820116820180604052508101906123a09190613111565b6001600160a01b031663ac259ace336040516001600160e01b031960e084901b1681526001600160a01b039091166004820152602401602060405180830381865afa1580156123f3573d6000803e3d6000fd5b505050506040513d601f19601f82011682018060405250810190612417919061312e565b156124345760405162461bcd60e51b81526004016106869061314b565b60003383604051602001612449929190613296565b6040516020818303038152906040528051906020012090506043546046600061246f3390565b6001600160a01b03166001600160a01b031681526020019081526020016000206001015461249d9190613238565b42116125255760405162461bcd60e51b815260206004820152604b60248201527f4d6f72706865724272696467653a204661696c6564206465706f73697473206360448201527f616e206f6e6c7920626520636c61696d656420616674657220696e616374697660648201526a34ba3c903832b934b7b21760a91b608482015260a401610686565b3360009081526046602052604090205483106125be5760405162461bcd60e51b815260206004820152604c60248201527f4d6f72706865724272696467653a204f7468657220636861696e20637265646960448201527f74206973206772656174657220657175616c20746f2077726f6e67536964654360648201526b3430b4b72130b630b731b29760a11b608482015260a401610686565b6125c882826110e1565b6126545760405162461bcd60e51b815260206004820152605160248201527f4d6f72706865724272696467653a204d65726b6c652050726f6f66206661696c60448201527f65642e20456e74657220746f74616c20616d6f756e74206f66206465706f73696064820152703a399037b71039b4b2329031b430b4b71760791b608482015260a401610686565b3360009081526046602052604081205461266f908590613090565b33600090815260466020526040812080549293508392909190612693908490613090565b9091555050336000908152604660205260409020426001909101556126b781612aed565b6126c0816119ec565b6126c981610ac8565b603360009054906101000a90046001600160a01b03166001600160a01b031663432556ba6040518163ffffffff1660e01b8152600401602060405180830381865afa15801561271c573d6000803e3d6000fd5b505050506040513d601f19601f820116820180604052508101906127409190613111565b6001600160a01b03166340c10f19336040516001600160e01b031960e084901b1681526001600160a01b03909116600482015260248101849052604401600060405180830381600087803b15801561279757600080fd5b505af11580156127ab573d6000803e3d6000fd5b505050506127b63390565b6001600160a01b03167ff3d1bd7b5416206939e66c9b6ee92563caaf8499c21668173d17cacbaefdc700826040516127f091815260200190565b60405180910390a250505050565b603360009054906101000a90046001600160a01b03166001600160a01b03166350a71bac6040518163ffffffff1660e01b8152600401602060405180830381865afa158015612851573d6000803e3d6000fd5b505050506040513d601f19601f820116820180604052508101906128759190613111565b6001600160a01b031663ac259ace336040516001600160e01b031960e084901b1681526001600160a01b039091166004820152602401602060405180830381865afa1580156128c8573d6000803e3d6000fd5b505050506040513d601f19601f820116820180604052508101906128ec919061312e565b156129095760405162461bcd60e51b81526004016106869061314b565b6000338360405160200161291e929190613296565b6040516020818303038152906040528051906020012090506000604760006129433390565b6001600160a01b03168152602081019190915260400160002054905061296983836110e1565b612a015760405162461bcd60e51b815260206004820152605960248201527f4d6f72706865724272696467653a204d65726b6c652050726f6f66206661696c60448201527f65642e20506c65617365206d616b65207375726520796f7520656e746572656460648201527f2074686520636f727265637420636c61696d206c696d69742e00000000000000608482015260a401610686565b83612a0c8683613238565b1115612a8b5760405162461bcd60e51b815260206004820152604260248201527f4d6f72706865724272696467653a20546f6b656e20616d6f756e74206578636560448201527f65647320746f6b656e2064656c65746564206f6e206c696e6b65642063686169606482015261371760f11b608482015260a401610686565b612a9485612aed565b612a9d856119ec565b612aa685610ac8565b612ab1338287612bb2565b60405185815233907f943c724b337822464f019ef425f7d5b1dd7ca039317dabe7446a630a6b8236d39060200160405180910390a25050505050565b612af6816109d6565b612b5f5760405162461bcd60e51b815260206004820152603460248201527f4d6f72706865724272696467653a205769746864726177616c20416d6f756e7460448201527308195e18d959591cc819185a5b1e481b1a5b5a5d60621b6064820152608401610686565b336000908152603b602052604081208291612b7d6201518042613216565b81526020019081526020016000206000828254612b9a9190613238565b90915550819050603e6000610b906201518042613216565b612bbc8183613238565b6001600160a01b03808516600090815260476020908152604091829020938455426001909401939093556033548151632192ab5d60e11b8152915192169263432556ba926004808401938290030181865afa158015612c1f573d6000803e3d6000fd5b505050506040513d601f19601f82011682018060405250810190612c439190613111565b6040516340c10f1960e01b81526001600160a01b0385811660048301526024820184905291909116906340c10f1990604401600060405180830381600087803b158015612c8f57600080fd5b505af1158015612ca3573d6000803e3d6000fd5b50505050505050565b600082612cb98584612ce0565b14949350505050565b6048805460009182612cd38361331b565b9190505550604854905090565b600081815b8451811015612d4c576000858281518110612d0257612d02613336565b60200260200101519050808311612d285760008381526020829052604090209250612d39565b600081815260208490526040902092505b5080612d448161331b565b915050612ce5565b509392505050565b600060208284031215612d6657600080fd5b5035919050565b634e487b7160e01b600052604160045260246000fd5b600082601f830112612d9457600080fd5b8135602067ffffffffffffffff80831115612db157612db1612d6d565b8260051b604051601f19603f83011681018181108482111715612dd657612dd6612d6d565b604052938452858101830193838101925087851115612df457600080fd5b83870191505b84821015612e1357813583529183019190830190612dfa565b979650505050505050565b600080600060608486031215612e3357600080fd5b833567ffffffffffffffff811115612e4a57600080fd5b612e5686828701612d83565b9660208601359650604090950135949350505050565b6001600160a01b0381168114612e8157600080fd5b50565b600060208284031215612e9657600080fd5b81356110f381612e6c565b8015158114612e8157600080fd5b60008060408385031215612ec257600080fd5b8235612ecd81612e6c565b91506020830135612edd81612ea1565b809150509250929050565b60008060408385031215612efb57600080fd5b823567ffffffffffffffff811115612f1257600080fd5b612f1e85828601612d83565b95602094909401359450505050565b60008060408385031215612f4057600080fd5b8235612f4b81612e6c565b946020939093013593505050565b6000806000806000806000806000806101408b8d031215612f7957600080fd5b8a3567ffffffffffffffff811115612f9057600080fd5b612f9c8d828e01612d83565b9d60208d01359d5060408d01359c60608101359c5060808101359b5060a08101359a5060c0810135995060e081013598506101008101359750610120013595509350505050565b60008060408385031215612ff657600080fd5b82359150602083013567ffffffffffffffff81111561301457600080fd5b61302085828601612d83565b9150509250929050565b60008060006060848603121561303f57600080fd5b8335925060208401359150604084013567ffffffffffffffff81111561306457600080fd5b61307086828701612d83565b9150509250925092565b634e487b7160e01b600052601160045260246000fd5b6000828210156130a2576130a261307a565b500390565b60208082526044908201527f4d6f72706865724272696467653a2046756e6374696f6e2063616e206f6e6c7960408201527f2062652063616c6c65642069662073696465636861696e20697320696e61637460608201526334bb329760e11b608082015260a00190565b60006020828403121561312357600080fd5b81516110f381612e6c565b60006020828403121561314057600080fd5b81516110f381612ea1565b6020808252601e908201527f4d6f72706865724272696467653a205573657220697320626c6f636b65640000604082015260600190565b60208082526031908201527f4d6f72706865724272696467653a205265636f766572792066756e6374696f6e6040820152701cc8185c99481b9bdd08195b98589b1959607a1b606082015260800190565b60208082526023908201527f4d6f72706865724272696467653a204d65726b6c652070726f6f66206661696c60408201526232b21760e91b606082015260800190565b60008261323357634e487b7160e01b600052601260045260246000fd5b500490565b6000821982111561324b5761324b61307a565b500190565b60208082526026908201527f4d6f72706865725472616465456e67696e653a205065726d697373696f6e206460408201526532b734b2b21760d11b606082015260800190565b60609290921b6bffffffffffffffffffffffff19168252601482015260340190565b6000602082840312156132ca57600080fd5b5051919050565b6001600160a01b03999099168952602089019790975260408801959095526060870193909352608086019190915260a085015260c084015260e08301526101008201526101200190565b600060001982141561332f5761332f61307a565b5060010190565b634e487b7160e01b600052603260045260246000fdfec08f7188394b31596c538860a69934f466a85ebc66fc5d1d967ccfaef4a6bdaba26469706673582212202d7e55a04d8f62de5d3a22be0b6cebe4f286b820f50db383a5bf560cbc8a7f6564736f6c634300080b0033",
  "immutableReferences": {},
  "source": "// ------------------------------------------------------------------------\r\n// MorpherBridge\r\n// Handles deposit to and withdraws from the side chain, writing of the merkle\r\n// root to the main chain by the side chain operator, and enforces a rolling 24 hours\r\n// token withdraw limit from side chain to main chain.\r\n// If side chain operator doesn't write a merkle root hash to main chain for more than\r\n// 72 hours positions and balaces from side chain can be transferred to main chain.\r\n// ------------------------------------------------------------------------\r\n//SPDX-License-Identifier: GPLv3\r\npragma solidity 0.8.11;\r\n\r\nimport \"./MorpherState.sol\";\r\nimport \"./MorpherUserBlocking.sol\";\r\nimport \"./MorpherAccessControl.sol\";\r\nimport \"@openzeppelin/contracts-upgradeable/utils/cryptography/MerkleProofUpgradeable.sol\";\r\nimport \"@openzeppelin/contracts-upgradeable/proxy/utils/Initializable.sol\";\r\nimport \"@openzeppelin/contracts-upgradeable/utils/ContextUpgradeable.sol\";\r\nimport \"./MorpherTradeEngine.sol\";\r\n\r\ncontract MorpherBridge is Initializable, ContextUpgradeable {\r\n\r\n    MorpherState state;\r\n    MorpherBridge previousBridge;\r\n\r\n    uint256 public withdrawalLimitPerUserDaily; //200k MPH per day\r\n    uint256 public withdrawalLimitPerUserMonthly; //1M MPH per month\r\n    uint256 public withdrawalLimitPerUserYearly; //5M MPH per year\r\n\r\n    uint256 public withdrawalLimitGlobalDaily; \r\n    uint256 public withdrawalLimitGlobalMonthly;\r\n    uint256 public withdrawalLimitGlobalYearly;\r\n    \r\n    mapping(address => mapping(uint256 => uint256)) public withdrawalPerUserPerDay; //[address][day] = withdrawalAmount\r\n    mapping(address => mapping(uint256 => uint256)) public withdrawalPerUserPerMonth; //[address][month] = withdrawalAmount\r\n    mapping(address => mapping(uint256 => uint256)) public withdrawalPerUserPerYear; //[address][year] = withdrawalAmount\r\n\r\n    mapping(uint256 => uint256) public withdrawalsGlobalDaily;\r\n    mapping(uint256 => uint256) public withdrawalsGlobalMonthly;\r\n    mapping(uint256 => uint256) public withdrawalsGlobalYearly;\r\n\r\n    bytes32 public constant ADMINISTRATOR_ROLE = keccak256(\"ADMINISTRATOR_ROLE\");\r\n    bytes32 public constant SIDECHAINOPERATOR_ROLE = keccak256(\"SIDECHAINOPERATOR_ROLE\");\r\n\r\n    struct WithdrawalDataStruct {\r\n        bytes32 merkleRoot;\r\n        uint256 lastUpdatedAt;\r\n    }\r\n\r\n    WithdrawalDataStruct public withdrawalData;\r\n\r\n    uint256 public inactivityPeriod;\r\n    bool public recoveryEnabled;\r\n    mapping(bytes32 => bool) public claimFromInactivity;\r\n\r\n    struct TokensTransferredStruct {\r\n        uint256 amount;\r\n        uint256 lastTransferAt;\r\n    }\r\n    mapping(address => TokensTransferredStruct) public tokenSentToLinkedChain;\r\n    mapping(address => TokensTransferredStruct) public tokenClaimedOnThisChain;\r\n\r\n    uint256 public bridgeNonce;\r\n\r\n    event TransferToLinkedChain(\r\n        address indexed from,\r\n        uint256 tokens,\r\n        uint256 totalTokenSent,\r\n        uint256 timeStamp,\r\n        uint256 transferNonce,\r\n        bytes32 indexed transferHash\r\n    );\r\n    event TrustlessWithdrawFromSideChain(address indexed from, uint256 tokens);\r\n    event OperatorChainTransfer(address indexed from, uint256 tokens, bytes32 sidechainTransactionHash);\r\n    event ClaimFailedTransferToSidechain(address indexed from, uint256 tokens);\r\n    event PositionRecoveryFromSideChain(address indexed from, bytes32 positionHash);\r\n    event TokenRecoveryFromSideChain(address indexed from, bytes32 positionHash);\r\n    event SideChainMerkleRootUpdated(bytes32 _rootHash);\r\n    event WithdrawLimitReset();\r\n    event WithdrawLimitChanged(uint256 _withdrawLimit);\r\n    event WithdrawLimitDailyPerUserChanged(uint256 _oldLimit, uint256 _newLimit);\r\n    event WithdrawLimitMonthlyPerUserChanged(uint256 _oldLimit, uint256 _newLimit);\r\n    event WithdrawLimitYearlyPerUserChanged(uint256 _oldLimit, uint256 _newLimit);\r\n    event WithdrawLimitDailyGlobalChanged(uint256 _oldLimit, uint256 _newLimit);\r\n    event WithdrawLimitMonthlyGlobalChanged(uint256 _oldLimit, uint256 _newLimit);\r\n    event WithdrawLimitYearlyGlobalChanged(uint256 _oldLimit, uint256 _newLimit);\r\n    event LinkState(address _address);\r\n\r\n    function initialize(address _stateAddress, bool _recoveryEnabled) public initializer {\r\n        state = MorpherState(_stateAddress);\r\n        recoveryEnabled = _recoveryEnabled;\r\n        withdrawalLimitPerUserDaily = 200000 * (10**18); //200k MPH per day\r\n        withdrawalLimitPerUserMonthly = 1000000 * (10 ** 18); //1M MPH per month\r\n        withdrawalLimitPerUserYearly = 5000000 * (10 ** 18); //5M MPH per year\r\n\r\n        //TODO: Adjust limits globally\r\n        withdrawalLimitGlobalDaily = 200000 * (10**18); //200k MPH per day\r\n        withdrawalLimitGlobalMonthly = 1000000 * (10 ** 18); //1M MPH per month\r\n        withdrawalLimitGlobalYearly = 5000000 * (10 ** 18); //5M MPH per year\r\n        inactivityPeriod = 3 days;\r\n    }\r\n\r\n    modifier sideChainInactive {\r\n        require(block.timestamp - inactivityPeriod > withdrawalData.lastUpdatedAt, \"MorpherBridge: Function can only be called if sidechain is inactive.\");\r\n        _;\r\n    }\r\n\r\n    modifier onlyRecoveryEnabled() {\r\n        require(recoveryEnabled, \"MorpherBridge: Recovery functions are not enabled\");\r\n        _;\r\n    }\r\n\r\n    modifier userNotBlocked {\r\n        require(!MorpherUserBlocking(state.morpherUserBlockingAddress()).userIsBlocked(_msgSender()), \"MorpherBridge: User is blocked\");\r\n        _;\r\n    }\r\n\r\n    modifier onlyRole(bytes32 role) {\r\n        require(MorpherAccessControl(state.morpherAccessControlAddress()).hasRole(role, _msgSender()), \"MorpherTradeEngine: Permission denied.\");\r\n        _;\r\n    }\r\n    \r\n    // ------------------------------------------------------------------------\r\n    // Links Token Contract with State\r\n    // ------------------------------------------------------------------------\r\n    function setMorpherState(address _stateAddress) public onlyRole(ADMINISTRATOR_ROLE) {\r\n        state = MorpherState(_stateAddress);\r\n        emit LinkState(_stateAddress);\r\n    }\r\n\r\n\r\n    function setInactivityPeriod(uint256 _periodInSeconds) public onlyRole(ADMINISTRATOR_ROLE) {\r\n        inactivityPeriod = _periodInSeconds;\r\n    }\r\n\r\n    function updateSideChainMerkleRoot(bytes32 _rootHash) public onlyRole(SIDECHAINOPERATOR_ROLE) {\r\n        withdrawalData.merkleRoot = _rootHash;\r\n        withdrawalData.lastUpdatedAt = block.timestamp;\r\n        emit SideChainMerkleRootUpdated(_rootHash);\r\n    }\r\n\r\n    function updateWithdrawLimitPerUserDaily(uint256 _withdrawLimit) public onlyRole(SIDECHAINOPERATOR_ROLE) {\r\n        emit WithdrawLimitDailyPerUserChanged(withdrawalLimitPerUserDaily, _withdrawLimit);\r\n        withdrawalLimitPerUserDaily = _withdrawLimit;\r\n    }\r\n\r\n    function updateWithdrawLimitPerUserMonthly(uint256 _withdrawLimit) public onlyRole(SIDECHAINOPERATOR_ROLE) {\r\n        emit WithdrawLimitMonthlyPerUserChanged(withdrawalLimitPerUserMonthly, _withdrawLimit);\r\n        withdrawalLimitPerUserMonthly = _withdrawLimit;\r\n    }\r\n    function updateWithdrawLimitPerUserYearly(uint256 _withdrawLimit) public onlyRole(SIDECHAINOPERATOR_ROLE) {\r\n        emit WithdrawLimitYearlyPerUserChanged(withdrawalLimitPerUserYearly, _withdrawLimit);\r\n        withdrawalLimitPerUserYearly = _withdrawLimit;\r\n    }\r\n\r\n    function updateWithdrawLimitGlobalDaily(uint256 _withdrawLimit) public onlyRole(SIDECHAINOPERATOR_ROLE) {\r\n        emit WithdrawLimitDailyGlobalChanged(withdrawalLimitGlobalDaily, _withdrawLimit);\r\n        withdrawalLimitGlobalDaily = _withdrawLimit;\r\n    }\r\n\r\n    function updateWithdrawLimitGlobalMonthly(uint256 _withdrawLimit) public onlyRole(SIDECHAINOPERATOR_ROLE) {\r\n        emit WithdrawLimitMonthlyGlobalChanged(withdrawalLimitGlobalMonthly, _withdrawLimit);\r\n        withdrawalLimitGlobalMonthly = _withdrawLimit;\r\n    }\r\n    function updateWithdrawLimitGlobalYearly(uint256 _withdrawLimit) public onlyRole(SIDECHAINOPERATOR_ROLE) {\r\n        emit WithdrawLimitYearlyGlobalChanged(withdrawalLimitGlobalYearly, _withdrawLimit);\r\n        withdrawalLimitGlobalYearly = _withdrawLimit;\r\n    }\r\n\r\n\r\n    function isNotDailyLimitExceeding(uint256 _amount) public view returns(bool) {\r\n        return (\r\n            (withdrawalPerUserPerDay[_msgSender()][block.timestamp / 1 days] + _amount <= withdrawalLimitPerUserDaily) && \r\n            (withdrawalsGlobalDaily[block.timestamp / 1 days] + _amount <= withdrawalLimitGlobalDaily)\r\n        );\r\n    }\r\n    function isNotMonthlyLimitExceeding(uint256 _amount) public view returns(bool) {\r\n        return (\r\n            (withdrawalPerUserPerMonth[_msgSender()][block.timestamp / 30 days] + _amount <= withdrawalLimitPerUserMonthly) &&\r\n            (withdrawalsGlobalMonthly[block.timestamp / 30 days] + _amount <= withdrawalLimitGlobalMonthly)\r\n        );\r\n    }\r\n    function isNotYearlyLimitExceeding(uint256 _amount) public view returns(bool) {\r\n        return (\r\n            (withdrawalPerUserPerYear[_msgSender()][block.timestamp / 365 days] + _amount <= withdrawalLimitPerUserYearly) &&\r\n            (withdrawalsGlobalYearly[block.timestamp / 365 days] + _amount <= withdrawalLimitGlobalYearly)\r\n        );\r\n    }\r\n\r\n    function verifyUpdateDailyLimit(uint256 _amount) public {\r\n        require(isNotDailyLimitExceeding(_amount), \"MorpherBridge: Withdrawal Amount exceeds daily limit\");\r\n        withdrawalPerUserPerDay[_msgSender()][block.timestamp / 1 days] += _amount;\r\n        withdrawalsGlobalDaily[block.timestamp / 1 days] += _amount;\r\n    }\r\n\r\n    function verifyUpdateMonthlyLimit(uint256 _amount) public {\r\n        require(isNotMonthlyLimitExceeding(_amount), \"MorpherBridge: Withdrawal Amount exceeds monthly limit\");\r\n        withdrawalPerUserPerMonth[_msgSender()][block.timestamp / 30 days] += _amount;\r\n        withdrawalsGlobalMonthly[block.timestamp / 30 days] += _amount;\r\n    }\r\n\r\n    function verifyUpdateYearlyLimit(uint256 _amount) public {\r\n        require(isNotYearlyLimitExceeding(_amount), \"MorpherBridge: Withdrawal Amount exceeds yearly limit\");\r\n        withdrawalPerUserPerYear[_msgSender()][block.timestamp / 365 days] += _amount;\r\n        withdrawalsGlobalYearly[block.timestamp / 365 days] += _amount;\r\n    }\r\n\r\n    \r\n    /**\r\n    * stageTokensForTransfer [chain A] => claimTokens [chain B]\r\n    *     former: transferToSideChain(uint256 _tokens)\r\n    * \r\n    * Tokens are burned on chain A and then, after the merkle root is written, \r\n    * can be credited on chain B through claimStagedTokens(...) below\r\n    *\r\n    */\r\n    function stageTokensForTransfer(uint256 _tokens) public userNotBlocked {\r\n        require(_tokens >= 0, \"MorpherBridge: Amount of tokens must be positive.\");\r\n        require(MorpherToken(state.morpherTokenAddress()).balanceOf(_msgSender()) >= _tokens, \"MorpherBridge: Insufficient balance.\");\r\n        verifyUpdateDailyLimit(_tokens);\r\n        verifyUpdateMonthlyLimit(_tokens);\r\n        verifyUpdateYearlyLimit(_tokens);\r\n        MorpherToken(state.morpherTokenAddress()).burn(_msgSender(), _tokens);\r\n        uint256 _newTokenSentToLinkedChain = tokenSentToLinkedChain[_msgSender()].amount + _tokens;\r\n        uint256 _transferNonce = getAndIncreaseBridgeNonce();\r\n        uint256 _timeStamp = block.timestamp;\r\n        bytes32 _transferHash = keccak256(\r\n            abi.encodePacked(\r\n                _msgSender(),\r\n                _tokens,\r\n                _newTokenSentToLinkedChain,\r\n                _timeStamp,\r\n                _transferNonce\r\n            )\r\n        );\r\n        tokenSentToLinkedChain[_msgSender()].amount =  _newTokenSentToLinkedChain;\r\n        tokenSentToLinkedChain[_msgSender()].lastTransferAt = block.timestamp;\r\n        emit TransferToLinkedChain(_msgSender(), _tokens, _newTokenSentToLinkedChain, _timeStamp, _transferNonce, _transferHash);\r\n    }\r\n    \r\n    // ------------------------------------------------------------------------\r\n    // claimStagedTokens(...) former: trustlessTransferFromSideChain(uint256 _numOfToken, uint256 _claimLimit, bytes32[] memory _proof)\r\n    // Performs a merkle proof on the number of token that have been burned by the user on the side chain.\r\n    // If the number of token claimed on the main chain is less than the number of burned token on the side chain\r\n    // the difference (or less) can be claimed on the main chain.\r\n    // ------------------------------------------------------------------------\r\n    function claimStagedTokens(uint256 _numOfToken, uint256 _claimLimit, bytes32[] memory _proof) public userNotBlocked {\r\n        bytes32 leaf = keccak256(abi.encodePacked(_msgSender(), _claimLimit));\r\n        uint256 _tokenClaimed = tokenClaimedOnThisChain[_msgSender()].amount;  \r\n        require(mProof(_proof, leaf), \"MorpherBridge: Merkle Proof failed. Please make sure you entered the correct claim limit.\");\r\n        require(_tokenClaimed + _numOfToken <= _claimLimit, \"MorpherBridge: Token amount exceeds token deleted on linked chain.\"); \r\n\r\n        verifyUpdateDailyLimit(_numOfToken);\r\n        verifyUpdateMonthlyLimit(_numOfToken);\r\n        verifyUpdateYearlyLimit(_numOfToken);        \r\n\r\n        _chainTransfer(_msgSender(), _tokenClaimed, _numOfToken);   \r\n        emit TrustlessWithdrawFromSideChain(_msgSender(), _numOfToken);\r\n    }\r\n    \r\n    // ------------------------------------------------------------------------\r\n    // _chainTransfer(address _address, uint256 _tokenClaimed, uint256 _numOfToken)\r\n    // Creates token on the chain for the user after proving their distruction on the \r\n    // linked chain has been proven before \r\n    // ------------------------------------------------------------------------\r\n    function _chainTransfer(address _address, uint256 _tokenClaimed, uint256 _numOfToken) private {\r\n        tokenClaimedOnThisChain[_address].amount = _tokenClaimed + _numOfToken;\r\n        tokenClaimedOnThisChain[_address].lastTransferAt = block.timestamp;\r\n        MorpherToken(state.morpherTokenAddress()).mint(_address, _numOfToken);\r\n    }\r\n        \r\n    // ------------------------------------------------------------------------\r\n    // claimFailedTransferToSidechain(uint256 _wrongSideChainBalance, bytes32[] memory _proof)\r\n    // If token sent to side chain were not credited to the user on the side chain within inactivityPeriod\r\n    // they can reclaim the token on the main chain by submitting the proof that their\r\n    // side chain balance is less than the number of token sent from main chain.\r\n    // ------------------------------------------------------------------------\r\n    function claimFailedTransferToSidechain(uint256 _wrongSideChainBalance, bytes32[] memory _proof) public userNotBlocked {\r\n        bytes32 leaf = keccak256(abi.encodePacked(_msgSender(), _wrongSideChainBalance));\r\n        require(block.timestamp > tokenSentToLinkedChain[_msgSender()].lastTransferAt + inactivityPeriod, \"MorpherBridge: Failed deposits can only be claimed after inactivity period.\");\r\n        require(_wrongSideChainBalance < tokenSentToLinkedChain[_msgSender()].amount, \"MorpherBridge: Other chain credit is greater equal to wrongSideChainBalance.\");\r\n       \r\n        require(mProof(_proof, leaf), \"MorpherBridge: Merkle Proof failed. Enter total amount of deposits on side chain.\");\r\n \r\n        uint256 _claimAmount = tokenSentToLinkedChain[_msgSender()].amount - _wrongSideChainBalance;\r\n        tokenSentToLinkedChain[_msgSender()].amount -=  _claimAmount;\r\n        tokenSentToLinkedChain[_msgSender()].lastTransferAt = block.timestamp;\r\n        verifyUpdateDailyLimit(_claimAmount);\r\n        verifyUpdateMonthlyLimit(_claimAmount);\r\n        verifyUpdateYearlyLimit(_claimAmount);         \r\n        MorpherToken(state.morpherTokenAddress()).mint(_msgSender(), _claimAmount);\r\n        emit ClaimFailedTransferToSidechain(_msgSender(), _claimAmount);\r\n    }\r\n\r\n    // ------------------------------------------------------------------------\r\n    // recoverPositionFromInactivity former recoverPositionFromSideChain(bytes32[] memory _proof, bytes32 _leaf, bytes32 _marketId, uint256 _timeStamp, uint256 _longShares, uint256 _shortShares, uint256 _meanEntryPrice, uint256 _meanEntrySpread, uint256 _meanEntryLeverage)\r\n    // Failsafe against side chain operator becoming inactive or withholding Times (Time withhold attack).\r\n    // After 72 hours of no update of the side chain merkle root users can withdraw their last recorded\r\n    // positions from side chain to main chain. Overwrites eventually existing position on main chain.\r\n    // ------------------------------------------------------------------------\r\n    function recoverPositionFromInactivity(\r\n        bytes32[] memory _proof,\r\n        bytes32 _leaf,\r\n        bytes32 _marketId,\r\n        uint256 _timeStamp,\r\n        uint256 _longShares,\r\n        uint256 _shortShares,\r\n        uint256 _meanEntryPrice,\r\n        uint256 _meanEntrySpread,\r\n        uint256 _meanEntryLeverage,\r\n        uint256 _liquidationPrice\r\n        ) public sideChainInactive userNotBlocked onlyRecoveryEnabled {\r\n        require(_leaf == MorpherTradeEngine(state.morpherTradeEngineAddress()).getPositionHash(_msgSender(), _marketId, _timeStamp, _longShares, _shortShares, _meanEntryPrice, _meanEntrySpread, _meanEntryLeverage, _liquidationPrice), \"MorpherBridge: leaf does not equal position hash.\");\r\n        require(claimFromInactivity[_leaf] == false, \"MorpherBridge: Position already transferred.\");\r\n        require(mProof(_proof,_leaf) == true, \"MorpherBridge: Merkle proof failed.\");\r\n        claimFromInactivity[_leaf] = true;\r\n        //todo: double positions clashing? \r\n        MorpherTradeEngine(state.morpherTradeEngineAddress()).setPosition(_msgSender(), _marketId, _timeStamp, _longShares, _shortShares, _meanEntryPrice, _meanEntrySpread, _meanEntryLeverage, _liquidationPrice);\r\n        emit PositionRecoveryFromSideChain(_msgSender(), _leaf);\r\n        // Remark: After resuming operations side chain operator has 72 hours to sync and eliminate transferred positions on side chain to avoid double spend\r\n    }\r\n\r\n    // ------------------------------------------------------------------------\r\n    // recoverTokenFromInactivity - former recoverTokenFromSideChain(bytes32[] memory _proof, bytes32 _leaf, uint256 _balance)\r\n    // Failsafe against side chain operator becoming inactive or withholding times (time withhold attack).\r\n    // After 72 hours of no update of the side chain merkle root users can withdraw their last recorded\r\n    // token balance from side chain to main chain.\r\n    // ------------------------------------------------------------------------\r\n    function recoverTokenFromInactivity(bytes32[] memory _proof, bytes32 _leaf, uint256 _balance) public sideChainInactive userNotBlocked onlyRecoveryEnabled {\r\n        // Require side chain root hash not set on Mainchain for more than 72 hours (=3 days)\r\n        require(_leaf == getBalanceHash(_msgSender(), _balance), \"MorpherBridge: Wrong balance.\");\r\n        require(claimFromInactivity[_leaf] == false, \"MorpherBridge: Token already transferred.\");\r\n        require(mProof(_proof,_leaf) == true, \"MorpherBridge: Merkle proof failed.\");\r\n        claimFromInactivity[_leaf] = true;\r\n\r\n        verifyUpdateDailyLimit(_balance);\r\n        verifyUpdateMonthlyLimit(_balance);\r\n        verifyUpdateYearlyLimit(_balance); \r\n        \r\n        _chainTransfer(_msgSender(), tokenClaimedOnThisChain[_msgSender()].amount, _balance);\r\n        emit TokenRecoveryFromSideChain(_msgSender(), _leaf);\r\n        // Remark: Side chain operator must adjust side chain balances for token recoveries before restarting operations to avoid double spend\r\n    }\r\n\r\n    // ------------------------------------------------------------------------\r\n    // mProof(bytes32[] memory _proof, bytes32 _leaf)\r\n    // Computes merkle proof against the root hash of the sidechain stored in Morpher state\r\n    // ------------------------------------------------------------------------\r\n    function mProof(bytes32[] memory _proof, bytes32 _leaf) public view returns(bool _isTrue) {\r\n        return MerkleProofUpgradeable.verify(_proof, withdrawalData.merkleRoot, _leaf);\r\n    }\r\n\r\n    function getBalanceHash(address _address, uint256 _balance) public pure returns (bytes32 _hash) {\r\n        return keccak256(abi.encodePacked(_address, _balance));\r\n    }\r\n\r\n    function getAndIncreaseBridgeNonce() internal returns (uint256) {\r\n        bridgeNonce++;\r\n        return bridgeNonce;\r\n    }\r\n}\r\n",
  "sourcePath": "/home/thomas/MorpherProtocol/contracts/MorpherBridge.sol",
  "compiler": {
    "name": "solc",
    "version": "0.8.11+commit.d7f03943.Emscripten.clang"
  },
  "schemaVersion": "3.4.5",
  "updatedAt": "2022-03-16T15:42:19.407Z",
  "devdoc": {
    "kind": "dev",
    "methods": {},
    "version": 1
  },
  "userdoc": {
    "kind": "user",
    "methods": {
      "stageTokensForTransfer(uint256)": {
        "notice": "stageTokensForTransfer [chain A] => claimTokens [chain B]     former: transferToSideChain(uint256 _tokens)  Tokens are burned on chain A and then, after the merkle root is written,  can be credited on chain B through claimStagedTokens(...) below"
      }
    },
    "version": 1
  }
}