{
  "contractName": "MorpherToken",
  "abi": [
    {
      "anonymous": false,
      "inputs": [
        {
          "indexed": true,
          "internalType": "address",
          "name": "owner",
          "type": "address"
        },
        {
          "indexed": true,
          "internalType": "address",
          "name": "spender",
          "type": "address"
        },
        {
          "indexed": false,
          "internalType": "uint256",
          "name": "value",
          "type": "uint256"
        }
      ],
      "name": "Approval",
      "type": "event"
    },
    {
      "anonymous": false,
      "inputs": [
        {
          "indexed": false,
          "internalType": "address",
          "name": "account",
          "type": "address"
        }
      ],
      "name": "Paused",
      "type": "event"
    },
    {
      "anonymous": false,
      "inputs": [
        {
          "indexed": false,
          "internalType": "bool",
          "name": "_oldValue",
          "type": "bool"
        },
        {
          "indexed": false,
          "internalType": "bool",
          "name": "_newValue",
          "type": "bool"
        }
      ],
      "name": "SetRestrictTransfers",
      "type": "event"
    },
    {
      "anonymous": false,
      "inputs": [
        {
          "indexed": false,
          "internalType": "uint256",
          "name": "_oldValue",
          "type": "uint256"
        },
        {
          "indexed": false,
          "internalType": "uint256",
          "name": "_newValue",
          "type": "uint256"
        }
      ],
      "name": "SetTotalTokensInPositions",
      "type": "event"
    },
    {
      "anonymous": false,
      "inputs": [
        {
          "indexed": false,
          "internalType": "uint256",
          "name": "_oldValue",
          "type": "uint256"
        },
        {
          "indexed": false,
          "internalType": "uint256",
          "name": "_newValue",
          "type": "uint256"
        }
      ],
      "name": "SetTotalTokensOnOtherChain",
      "type": "event"
    },
    {
      "anonymous": false,
      "inputs": [
        {
          "indexed": true,
          "internalType": "address",
          "name": "from",
          "type": "address"
        },
        {
          "indexed": true,
          "internalType": "address",
          "name": "to",
          "type": "address"
        },
        {
          "indexed": false,
          "internalType": "uint256",
          "name": "value",
          "type": "uint256"
        }
      ],
      "name": "Transfer",
      "type": "event"
    },
    {
      "anonymous": false,
      "inputs": [
        {
          "indexed": false,
          "internalType": "address",
          "name": "account",
          "type": "address"
        }
      ],
      "name": "Unpaused",
      "type": "event"
    },
    {
      "inputs": [],
      "name": "ADMINISTRATOR_ROLE",
      "outputs": [
        {
          "internalType": "bytes32",
          "name": "",
          "type": "bytes32"
        }
      ],
      "stateMutability": "view",
      "type": "function"
    },
    {
      "inputs": [],
      "name": "BURNER_ROLE",
      "outputs": [
        {
          "internalType": "bytes32",
          "name": "",
          "type": "bytes32"
        }
      ],
      "stateMutability": "view",
      "type": "function"
    },
    {
      "inputs": [],
      "name": "MINTER_ROLE",
      "outputs": [
        {
          "internalType": "bytes32",
          "name": "",
          "type": "bytes32"
        }
      ],
      "stateMutability": "view",
      "type": "function"
    },
    {
      "inputs": [],
      "name": "PAUSER_ROLE",
      "outputs": [
        {
          "internalType": "bytes32",
          "name": "",
          "type": "bytes32"
        }
      ],
      "stateMutability": "view",
      "type": "function"
    },
    {
      "inputs": [],
      "name": "TRANSFER_ROLE",
      "outputs": [
        {
          "internalType": "bytes32",
          "name": "",
          "type": "bytes32"
        }
      ],
      "stateMutability": "view",
      "type": "function"
    },
    {
      "inputs": [
        {
          "internalType": "address",
          "name": "owner",
          "type": "address"
        },
        {
          "internalType": "address",
          "name": "spender",
          "type": "address"
        }
      ],
      "name": "allowance",
      "outputs": [
        {
          "internalType": "uint256",
          "name": "",
          "type": "uint256"
        }
      ],
      "stateMutability": "view",
      "type": "function"
    },
    {
      "inputs": [
        {
          "internalType": "address",
          "name": "spender",
          "type": "address"
        },
        {
          "internalType": "uint256",
          "name": "amount",
          "type": "uint256"
        }
      ],
      "name": "approve",
      "outputs": [
        {
          "internalType": "bool",
          "name": "",
          "type": "bool"
        }
      ],
      "stateMutability": "nonpayable",
      "type": "function"
    },
    {
      "inputs": [
        {
          "internalType": "address",
          "name": "account",
          "type": "address"
        }
      ],
      "name": "balanceOf",
      "outputs": [
        {
          "internalType": "uint256",
          "name": "",
          "type": "uint256"
        }
      ],
      "stateMutability": "view",
      "type": "function"
    },
    {
      "inputs": [],
      "name": "decimals",
      "outputs": [
        {
          "internalType": "uint8",
          "name": "",
          "type": "uint8"
        }
      ],
      "stateMutability": "view",
      "type": "function"
    },
    {
      "inputs": [
        {
          "internalType": "address",
          "name": "spender",
          "type": "address"
        },
        {
          "internalType": "uint256",
          "name": "subtractedValue",
          "type": "uint256"
        }
      ],
      "name": "decreaseAllowance",
      "outputs": [
        {
          "internalType": "bool",
          "name": "",
          "type": "bool"
        }
      ],
      "stateMutability": "nonpayable",
      "type": "function"
    },
    {
      "inputs": [
        {
          "internalType": "address",
          "name": "spender",
          "type": "address"
        },
        {
          "internalType": "uint256",
          "name": "addedValue",
          "type": "uint256"
        }
      ],
      "name": "increaseAllowance",
      "outputs": [
        {
          "internalType": "bool",
          "name": "",
          "type": "bool"
        }
      ],
      "stateMutability": "nonpayable",
      "type": "function"
    },
    {
      "inputs": [],
      "name": "morpherAccessControl",
      "outputs": [
        {
          "internalType": "contract MorpherAccessControl",
          "name": "",
          "type": "address"
        }
      ],
      "stateMutability": "view",
      "type": "function"
    },
    {
      "inputs": [],
      "name": "name",
      "outputs": [
        {
          "internalType": "string",
          "name": "",
          "type": "string"
        }
      ],
      "stateMutability": "view",
      "type": "function"
    },
    {
      "inputs": [],
      "name": "paused",
      "outputs": [
        {
          "internalType": "bool",
          "name": "",
          "type": "bool"
        }
      ],
      "stateMutability": "view",
      "type": "function"
    },
    {
      "inputs": [],
      "name": "symbol",
      "outputs": [
        {
          "internalType": "string",
          "name": "",
          "type": "string"
        }
      ],
      "stateMutability": "view",
      "type": "function"
    },
    {
      "inputs": [
        {
          "internalType": "address",
          "name": "to",
          "type": "address"
        },
        {
          "internalType": "uint256",
          "name": "amount",
          "type": "uint256"
        }
      ],
      "name": "transfer",
      "outputs": [
        {
          "internalType": "bool",
          "name": "",
          "type": "bool"
        }
      ],
      "stateMutability": "nonpayable",
      "type": "function"
    },
    {
      "inputs": [
        {
          "internalType": "address",
          "name": "from",
          "type": "address"
        },
        {
          "internalType": "address",
          "name": "to",
          "type": "address"
        },
        {
          "internalType": "uint256",
          "name": "amount",
          "type": "uint256"
        }
      ],
      "name": "transferFrom",
      "outputs": [
        {
          "internalType": "bool",
          "name": "",
          "type": "bool"
        }
      ],
      "stateMutability": "nonpayable",
      "type": "function"
    },
    {
      "inputs": [
        {
          "internalType": "address",
          "name": "_morpherAccessControl",
          "type": "address"
        }
      ],
      "name": "initialize",
      "outputs": [],
      "stateMutability": "nonpayable",
      "type": "function"
    },
    {
      "inputs": [
        {
          "internalType": "bool",
          "name": "restrictTransfers",
          "type": "bool"
        }
      ],
      "name": "setRestrictTransfers",
      "outputs": [],
      "stateMutability": "nonpayable",
      "type": "function"
    },
    {
      "inputs": [],
      "name": "getRestrictTransfers",
      "outputs": [
        {
          "internalType": "bool",
          "name": "",
          "type": "bool"
        }
      ],
      "stateMutability": "view",
      "type": "function"
    },
    {
      "inputs": [
        {
          "internalType": "uint256",
          "name": "totalOnOtherChain",
          "type": "uint256"
        }
      ],
      "name": "setTotalTokensOnOtherChain",
      "outputs": [],
      "stateMutability": "nonpayable",
      "type": "function"
    },
    {
      "inputs": [],
      "name": "getTotalTokensOnOtherChain",
      "outputs": [
        {
          "internalType": "uint256",
          "name": "",
          "type": "uint256"
        }
      ],
      "stateMutability": "view",
      "type": "function"
    },
    {
      "inputs": [
        {
          "internalType": "uint256",
          "name": "totalTokensInPositions",
          "type": "uint256"
        }
      ],
      "name": "setTotalInPositions",
      "outputs": [],
      "stateMutability": "nonpayable",
      "type": "function"
    },
    {
      "inputs": [],
      "name": "getTotalTokensInPositions",
      "outputs": [
        {
          "internalType": "uint256",
          "name": "",
          "type": "uint256"
        }
      ],
      "stateMutability": "view",
      "type": "function"
    },
    {
      "inputs": [],
      "name": "totalSupply",
      "outputs": [
        {
          "internalType": "uint256",
          "name": "",
          "type": "uint256"
        }
      ],
      "stateMutability": "view",
      "type": "function"
    },
    {
      "inputs": [
        {
          "internalType": "address",
          "name": "to",
          "type": "address"
        },
        {
          "internalType": "uint256",
          "name": "amount",
          "type": "uint256"
        }
      ],
      "name": "mint",
      "outputs": [],
      "stateMutability": "nonpayable",
      "type": "function"
    },
    {
      "inputs": [
        {
          "internalType": "address",
          "name": "from",
          "type": "address"
        },
        {
          "internalType": "uint256",
          "name": "amount",
          "type": "uint256"
        }
      ],
      "name": "burn",
      "outputs": [],
      "stateMutability": "nonpayable",
      "type": "function"
    },
    {
      "inputs": [],
      "name": "pause",
      "outputs": [],
      "stateMutability": "nonpayable",
      "type": "function"
    },
    {
      "inputs": [],
      "name": "unpause",
      "outputs": [],
      "stateMutability": "nonpayable",
      "type": "function"
    }
  ],
  "bytecode": "0x608060405234801561001057600080fd5b50611b70806100206000396000f3fe608060405234801561001057600080fd5b50600436106101cf5760003560e01c806385f993c611610104578063a9059cbb116100a2578063dd62ed3e11610071578063dd62ed3e146103ee578063e5160f8014610427578063e63ab1e91461043a578063f45edb5f1461046157600080fd5b8063a9059cbb1461038e578063c4d66de8146103a1578063cae6a37d146103b4578063d5391393146103c757600080fd5b806395d89b41116100de57806395d89b411461035857806397226ece146103605780639dc29fac14610368578063a457c2d71461037b57600080fd5b806385f993c6146103125780638ac203a71461031a57806395a5d2921461032d57600080fd5b8063395093511161017157806340c10f191161014b57806340c10f19146102c35780635c975abb146102d657806370a08231146102e15780638456cb591461030a57600080fd5b8063395093511461029b5780633ba2e566146102ae5780633f4ba83a146102b957600080fd5b8063206b60f9116101ad578063206b60f91461022b57806323b872dd14610252578063282c51f314610265578063313ce5671461028c57600080fd5b806306fdde03146101d4578063095ea7b3146101f257806318160ddd14610215575b600080fd5b6101dc610476565b6040516101e9919061188a565b60405180910390f35b6102056102003660046118fb565b610508565b60405190151581526020016101e9565b61021d610520565b6040519081526020016101e9565b61021d7f8502233096d909befbda0999bb8ea2f3a6be3c138b9fbf003752a4c8bce86f6c81565b610205610260366004611925565b61054a565b61021d7f3c11d16cbaffd01df69ce1c404f6340ee057498f5f00246190ea54220576a84881565b604051601281526020016101e9565b6102056102a93660046118fb565b61056e565b60cc5460ff16610205565b6102c16105ad565b005b6102c16102d13660046118fb565b6106c0565b60655460ff16610205565b61021d6102ef366004611961565b6001600160a01b031660009081526033602052604090205490565b6102c16107cf565b60cb5461021d565b6102c1610328366004611983565b6108d9565b60c954610340906001600160a01b031681565b6040516001600160a01b0390911681526020016101e9565b6101dc6109c8565b60ca5461021d565b6102c16103763660046118fb565b6109d7565b6102056103893660046118fb565b610ae2565b61020561039c3660046118fb565b610b74565b6102c16103af366004611961565b610b82565b6102c16103c23660046119ad565b610c9a565b61021d7f9f2df0fed2c77648de5860a4cc508cd0818c85b8b8a1ab4ceeef8d981c8956a681565b61021d6103fc3660046119ca565b6001600160a01b03918216600090815260346020908152604080832093909416825291909152205490565b6102c1610435366004611983565b610d9e565b61021d7f65d7a28e3265b37a6474929f336521b332c1681b933f6cb9f3376673440d862a81565b61021d600080516020611b1b83398151915281565b606060368054610485906119fd565b80601f01602080910402602001604051908101604052809291908181526020018280546104b1906119fd565b80156104fe5780601f106104d3576101008083540402835291602001916104fe565b820191906000526020600020905b8154815290600101906020018083116104e157829003601f168201915b5050505050905090565b600033610516818585610e8d565b5060019392505050565b600060cb5460ca5461053160355490565b61053b9190611a4e565b6105459190611a4e565b905090565b600033610558858285610fb2565b610563858585611044565b506001949350505050565b3360008181526034602090815260408083206001600160a01b038716845290915281205490919061051690829086906105a8908790611a4e565b610e8d565b60c9546001600160a01b03166391d148547f65d7a28e3265b37a6474929f336521b332c1681b933f6cb9f3376673440d862a336040516001600160e01b031960e085901b16815260048101929092526001600160a01b03166024820152604401602060405180830381865afa15801561062a573d6000803e3d6000fd5b505050506040513d601f19601f8201168201806040525081019061064e9190611a66565b6106b65760405162461bcd60e51b815260206004820152602e60248201527f4d6f7270686572546f6b656e3a206d757374206861766520706175736572207260448201526d6f6c6520746f20756e706175736560901b60648201526084015b60405180910390fd5b6106be61121d565b565b60c9546001600160a01b03166391d148547f9f2df0fed2c77648de5860a4cc508cd0818c85b8b8a1ab4ceeef8d981c8956a6336040516001600160e01b031960e085901b16815260048101929092526001600160a01b03166024820152604401602060405180830381865afa15801561073d573d6000803e3d6000fd5b505050506040513d601f19601f820116820180604052508101906107619190611a66565b6107c15760405162461bcd60e51b815260206004820152602b60248201527f4d6f7270686572546f6b656e3a206d7573742068617665206d696e746572207260448201526a1bdb19481d1bc81b5a5b9d60aa1b60648201526084016106ad565b6107cb82826112b0565b5050565b60c9546001600160a01b03166391d148547f65d7a28e3265b37a6474929f336521b332c1681b933f6cb9f3376673440d862a336040516001600160e01b031960e085901b16815260048101929092526001600160a01b03166024820152604401602060405180830381865afa15801561084c573d6000803e3d6000fd5b505050506040513d601f19601f820116820180604052508101906108709190611a66565b6108d15760405162461bcd60e51b815260206004820152602c60248201527f4d6f7270686572546f6b656e3a206d757374206861766520706175736572207260448201526b6f6c6520746f20706175736560a01b60648201526084016106ad565b6106be61139b565b60c954600080516020611b1b833981519152906001600160a01b03166391d1485482336040516001600160e01b031960e085901b16815260048101929092526001600160a01b03166024820152604401602060405180830381865afa158015610946573d6000803e3d6000fd5b505050506040513d601f19601f8201168201806040525081019061096a9190611a66565b6109865760405162461bcd60e51b81526004016106ad90611a83565b60cb5460408051918252602082018490527f403593c572c4e2016cd93550e0260e82ab507a5ce5c9604f7c1fe84192f7649d910160405180910390a15060ca55565b606060378054610485906119fd565b60c9546001600160a01b03166391d148547f3c11d16cbaffd01df69ce1c404f6340ee057498f5f00246190ea54220576a848336040516001600160e01b031960e085901b16815260048101929092526001600160a01b03166024820152604401602060405180830381865afa158015610a54573d6000803e3d6000fd5b505050506040513d601f19601f82011682018060405250810190610a789190611a66565b610ad85760405162461bcd60e51b815260206004820152602b60248201527f4d6f7270686572546f6b656e3a206d7573742068617665206275726e6572207260448201526a37b632903a3790313ab93760a91b60648201526084016106ad565b6107cb8282611416565b3360008181526034602090815260408083206001600160a01b038716845290915281205490919083811015610b675760405162461bcd60e51b815260206004820152602560248201527f45524332303a2064656372656173656420616c6c6f77616e63652062656c6f77604482015264207a65726f60d81b60648201526084016106ad565b6105638286868403610e8d565b600033610516818585611044565b600054610100900460ff16610b9d5760005460ff1615610ba1565b303b155b610c045760405162461bcd60e51b815260206004820152602e60248201527f496e697469616c697a61626c653a20636f6e747261637420697320616c72656160448201526d191e481a5b9a5d1a585b1a5e995960921b60648201526084016106ad565b600054610100900460ff16158015610c26576000805461ffff19166101011790555b610c6a6040518060400160405280600781526020016626b7b9383432b960c91b8152506040518060400160405280600381526020016209aa0960eb1b81525061156d565b60c980546001600160a01b0319166001600160a01b03841617905580156107cb576000805461ff00191690555050565b60c954600080516020611b1b833981519152906001600160a01b03166391d1485482336040516001600160e01b031960e085901b16815260048101929092526001600160a01b03166024820152604401602060405180830381865afa158015610d07573d6000803e3d6000fd5b505050506040513d601f19601f82011682018060405250810190610d2b9190611a66565b610d475760405162461bcd60e51b81526004016106ad90611a83565b60cc546040805160ff9092161515825283151560208301527f031b7076ea69cc7c069abb5b40b40971da5a280ca9d1c3bda1e25e69b2e72abb910160405180910390a15060cc805460ff1916911515919091179055565b60c954600080516020611b1b833981519152906001600160a01b03166391d1485482336040516001600160e01b031960e085901b16815260048101929092526001600160a01b03166024820152604401602060405180830381865afa158015610e0b573d6000803e3d6000fd5b505050506040513d601f19601f82011682018060405250810190610e2f9190611a66565b610e4b5760405162461bcd60e51b81526004016106ad90611a83565b60cb5460408051918252602082018490527f9be715265056d01e32a5a436e7cf9bd1e204862153232c5ccdd5bbb72f5ea944910160405180910390a15060cb55565b6001600160a01b038316610eef5760405162461bcd60e51b8152602060048201526024808201527f45524332303a20617070726f76652066726f6d20746865207a65726f206164646044820152637265737360e01b60648201526084016106ad565b6001600160a01b038216610f505760405162461bcd60e51b815260206004820152602260248201527f45524332303a20617070726f766520746f20746865207a65726f206164647265604482015261737360f01b60648201526084016106ad565b6001600160a01b0383811660008181526034602090815260408083209487168084529482529182902085905590518481527f8c5be1e5ebec7d5bd14f71427d1e84f3dd0314c0f7b2291e5b200ac8c7c3b92591015b60405180910390a3505050565b6001600160a01b03838116600090815260346020908152604080832093861683529290522054600019811461103e57818110156110315760405162461bcd60e51b815260206004820152601d60248201527f45524332303a20696e73756666696369656e7420616c6c6f77616e636500000060448201526064016106ad565b61103e8484848403610e8d565b50505050565b6001600160a01b0383166110a85760405162461bcd60e51b815260206004820152602560248201527f45524332303a207472616e736665722066726f6d20746865207a65726f206164604482015264647265737360d81b60648201526084016106ad565b6001600160a01b03821661110a5760405162461bcd60e51b815260206004820152602360248201527f45524332303a207472616e7366657220746f20746865207a65726f206164647260448201526265737360e81b60648201526084016106ad565b61111583838361159e565b6001600160a01b0383166000908152603360205260409020548181101561118d5760405162461bcd60e51b815260206004820152602660248201527f45524332303a207472616e7366657220616d6f756e7420657863656564732062604482015265616c616e636560d01b60648201526084016106ad565b6001600160a01b038085166000908152603360205260408082208585039055918516815290812080548492906111c4908490611a4e565b92505081905550826001600160a01b0316846001600160a01b03167fddf252ad1be2c89b69c2b068fc378daa952ba7f163c4a11628f55a4df523b3ef8460405161121091815260200190565b60405180910390a361103e565b60655460ff166112665760405162461bcd60e51b815260206004820152601460248201527314185d5cd8589b194e881b9bdd081c185d5cd95960621b60448201526064016106ad565b6065805460ff191690557f5db9ee0a495bf2e6ff9c91a7834c1ba4fdd244a5e8aa4e537bd38aeae4b073aa335b6040516001600160a01b03909116815260200160405180910390a1565b6001600160a01b0382166113065760405162461bcd60e51b815260206004820152601f60248201527f45524332303a206d696e7420746f20746865207a65726f20616464726573730060448201526064016106ad565b6113126000838361159e565b80603560008282546113249190611a4e565b90915550506001600160a01b03821660009081526033602052604081208054839290611351908490611a4e565b90915550506040518181526001600160a01b038316906000907fddf252ad1be2c89b69c2b068fc378daa952ba7f163c4a11628f55a4df523b3ef9060200160405180910390a35050565b60655460ff16156113e15760405162461bcd60e51b815260206004820152601060248201526f14185d5cd8589b194e881c185d5cd95960821b60448201526064016106ad565b6065805460ff191660011790557f62e78cea01bee320cd4e420270b5ea74000d11b0c9f74754ebdbfc544b05a2586112933390565b6001600160a01b0382166114765760405162461bcd60e51b815260206004820152602160248201527f45524332303a206275726e2066726f6d20746865207a65726f206164647265736044820152607360f81b60648201526084016106ad565b6114828260008361159e565b6001600160a01b038216600090815260336020526040902054818110156114f65760405162461bcd60e51b815260206004820152602260248201527f45524332303a206275726e20616d6f756e7420657863656564732062616c616e604482015261636560f01b60648201526084016106ad565b6001600160a01b0383166000908152603360205260408120838303905560358054849290611525908490611ab8565b90915550506040518281526000906001600160a01b038516907fddf252ad1be2c89b69c2b068fc378daa952ba7f163c4a11628f55a4df523b3ef90602001610fa5565b505050565b600054610100900460ff166115945760405162461bcd60e51b81526004016106ad90611acf565b6107cb828261173d565b60cc5460ff16158061164c575060c9546001600160a01b03166391d148547f8502233096d909befbda0999bb8ea2f3a6be3c138b9fbf003752a4c8bce86f6c336040516001600160e01b031960e085901b16815260048101929092526001600160a01b03166024820152604401602060405180830381865afa158015611628573d6000803e3d6000fd5b505050506040513d601f19601f8201168201806040525081019061164c9190611a66565b806116e6575060c954604051632474521560e21b81527f8502233096d909befbda0999bb8ea2f3a6be3c138b9fbf003752a4c8bce86f6c60048201526001600160a01b038581166024830152909116906391d1485490604401602060405180830381865afa1580156116c2573d6000803e3d6000fd5b505050506040513d601f19601f820116820180604052508101906116e69190611a66565b6117325760405162461bcd60e51b815260206004820152601d60248201527f4d6f7270686572546f6b656e3a205472616e736665722064656e69656400000060448201526064016106ad565b61156883838361178b565b600054610100900460ff166117645760405162461bcd60e51b81526004016106ad90611acf565b81516117779060369060208501906117f1565b5080516115689060379060208401906117f1565b60655460ff16156115685760405162461bcd60e51b815260206004820152602a60248201527f45524332305061757361626c653a20746f6b656e207472616e736665722077686044820152691a5b19481c185d5cd95960b21b60648201526084016106ad565b8280546117fd906119fd565b90600052602060002090601f01602090048101928261181f5760008555611865565b82601f1061183857805160ff1916838001178555611865565b82800160010185558215611865579182015b8281111561186557825182559160200191906001019061184a565b50611871929150611875565b5090565b5b808211156118715760008155600101611876565b600060208083528351808285015260005b818110156118b75785810183015185820160400152820161189b565b818111156118c9576000604083870101525b50601f01601f1916929092016040019392505050565b80356001600160a01b03811681146118f657600080fd5b919050565b6000806040838503121561190e57600080fd5b611917836118df565b946020939093013593505050565b60008060006060848603121561193a57600080fd5b611943846118df565b9250611951602085016118df565b9150604084013590509250925092565b60006020828403121561197357600080fd5b61197c826118df565b9392505050565b60006020828403121561199557600080fd5b5035919050565b80151581146119aa57600080fd5b50565b6000602082840312156119bf57600080fd5b813561197c8161199c565b600080604083850312156119dd57600080fd5b6119e6836118df565b91506119f4602084016118df565b90509250929050565b600181811c90821680611a1157607f821691505b60208210811415611a3257634e487b7160e01b600052602260045260246000fd5b50919050565b634e487b7160e01b600052601160045260246000fd5b60008219821115611a6157611a61611a38565b500190565b600060208284031215611a7857600080fd5b815161197c8161199c565b6020808252818101527f4d6f7270686572546f6b656e3a205065726d697373696f6e2064656e6965642e604082015260600190565b600082821015611aca57611aca611a38565b500390565b6020808252602b908201527f496e697469616c697a61626c653a20636f6e7472616374206973206e6f74206960408201526a6e697469616c697a696e6760a81b60608201526080019056fee5a0b4d50f56047f84728557fedbda92f956391bc9d5c762e8461996dd8e7ad7a2646970667358221220bc1fd5f2574ddab69ea0eaa2067c42e14f081111787b93a4d1dbb776e44bb49564736f6c634300080b0033",
  "immutableReferences": {},
  "source": "//SPDX-License-Identifier: GPLv3\npragma solidity 0.8.11;\n\nimport \"@openzeppelin/contracts-upgradeable/token/ERC20/ERC20Upgradeable.sol\";\nimport \"@openzeppelin/contracts-upgradeable/token/ERC20/extensions/ERC20PausableUpgradeable.sol\";\nimport \"./MorpherAccessControl.sol\";\n\ncontract MorpherToken is ERC20Upgradeable, ERC20PausableUpgradeable {\n\n    MorpherAccessControl public morpherAccessControl;\n    \n    bytes32 public constant MINTER_ROLE = keccak256(\"MINTER_ROLE\");\n    bytes32 public constant BURNER_ROLE = keccak256(\"BURNER_ROLE\");\n    bytes32 public constant PAUSER_ROLE = keccak256(\"PAUSER_ROLE\");\n    bytes32 public constant ADMINISTRATOR_ROLE = keccak256(\"ADMINISTRATOR_ROLE\");\n    bytes32 public constant TRANSFER_ROLE = keccak256(\"TRANSFER_ROLE\");\n\n    uint256 private _totalTokensOnOtherChain;\n    uint256 private _totalTokensInPositions;\n    bool private _restrictTransfers;\n\n    event SetTotalTokensOnOtherChain(uint256 _oldValue, uint256 _newValue);\n    event SetTotalTokensInPositions(uint256 _oldValue, uint256 _newValue);\n    event SetRestrictTransfers(bool _oldValue, bool _newValue);\n\n    function initialize(address _morpherAccessControl) public initializer {\n        ERC20Upgradeable.__ERC20_init(\"Morpher\", \"MPH\");\n        morpherAccessControl = MorpherAccessControl(_morpherAccessControl);\n    }\n\n    modifier onlyRole(bytes32 role) {\n        require(morpherAccessControl.hasRole(role, _msgSender()), \"MorpherToken: Permission denied.\");\n        _;\n    }\n\n    // function getMorpherAccessControl() public view returns(address) {\n    //     return address(morpherAccessControl);\n    // }\n\n    function setRestrictTransfers(bool restrictTransfers) public onlyRole(ADMINISTRATOR_ROLE) {\n        emit SetRestrictTransfers(_restrictTransfers, restrictTransfers);\n        _restrictTransfers = restrictTransfers;\n    }\n\n    function getRestrictTransfers() public view returns(bool) {\n        return _restrictTransfers;\n    }\n\n    function setTotalTokensOnOtherChain(uint256 totalOnOtherChain) public onlyRole(ADMINISTRATOR_ROLE) {\n        emit SetTotalTokensOnOtherChain(_totalTokensInPositions, totalOnOtherChain);\n        _totalTokensOnOtherChain = totalOnOtherChain;\n    }\n\n    function getTotalTokensOnOtherChain() public view returns(uint256) {\n        return _totalTokensOnOtherChain;\n    }\n\n    function setTotalInPositions(uint256 totalTokensInPositions) public onlyRole(ADMINISTRATOR_ROLE) {\n        emit SetTotalTokensInPositions(_totalTokensInPositions, totalTokensInPositions);\n        _totalTokensInPositions = totalTokensInPositions;\n    }\n\n    function getTotalTokensInPositions() public view returns(uint256) {\n        return _totalTokensInPositions;\n    }\n\n\n    \n    /**\n     * @dev See {IERC20-totalSupply}.\n     */\n    function totalSupply() public view virtual override returns (uint256) {\n        return super.totalSupply() + _totalTokensOnOtherChain + _totalTokensInPositions;\n    }\n\n\n    /**\n     * @dev Creates `amount` new tokens for `to`.\n     *\n     * See {ERC20-_mint}.\n     *\n     * Requirements:\n     *\n     * - the caller must have the `MINTER_ROLE`.\n     */\n    function mint(address to, uint256 amount) public virtual {\n        require(morpherAccessControl.hasRole(MINTER_ROLE, _msgSender()), \"MorpherToken: must have minter role to mint\");\n        _mint(to, amount);\n    }\n\n    /**\n     * @dev Burns `amount` of tokens for `from`.\n     *\n     * See {ERC20-_burn}.\n     *\n     * Requirements:\n     *\n     * - the caller must have the `BURNER_ROLE`.\n     */\n    function burn(address from, uint256 amount) public virtual {\n        require(morpherAccessControl.hasRole(BURNER_ROLE, _msgSender()), \"MorpherToken: must have burner role to burn\");\n        _burn(from, amount);\n    }\n\n    /**\n     * @dev Pauses all token transfers.\n     *\n     * See {ERC20Pausable} and {Pausable-_pause}.\n     *\n     * Requirements:\n     *\n     * - the caller must have the `PAUSER_ROLE`.\n     */\n    function pause() public virtual {\n        require(morpherAccessControl.hasRole(PAUSER_ROLE, _msgSender()), \"MorpherToken: must have pauser role to pause\");\n        _pause();\n    }\n\n    /**\n     * @dev Unpauses all token transfers.\n     *\n     * See {ERC20Pausable} and {Pausable-_unpause}.\n     *\n     * Requirements:\n     *\n     * - the caller must have the `PAUSER_ROLE`.\n     */\n    function unpause() public virtual {\n        require(morpherAccessControl.hasRole(PAUSER_ROLE, _msgSender()), \"MorpherToken: must have pauser role to unpause\");\n        _unpause();\n    }\n\n    function _beforeTokenTransfer(\n        address from,\n        address to,\n        uint256 amount\n    ) internal virtual override(ERC20Upgradeable, ERC20PausableUpgradeable) {\n        require(!_restrictTransfers || morpherAccessControl.hasRole(TRANSFER_ROLE, _msgSender()) || morpherAccessControl.hasRole(TRANSFER_ROLE, from), \"MorpherToken: Transfer denied\");\n        super._beforeTokenTransfer(from, to, amount);\n    }\n}\n\n",
  "sourcePath": "/home/thomas/MorpherProtocol/contracts/MorpherToken.sol",
  "compiler": {
    "name": "solc",
    "version": "0.8.11+commit.d7f03943.Emscripten.clang"
  },
  "schemaVersion": "3.4.5",
  "updatedAt": "2022-03-16T15:42:19.484Z",
  "devdoc": {
    "kind": "dev",
    "methods": {
      "allowance(address,address)": {
        "details": "See {IERC20-allowance}."
      },
      "approve(address,uint256)": {
        "details": "See {IERC20-approve}. NOTE: If `amount` is the maximum `uint256`, the allowance is not updated on `transferFrom`. This is semantically equivalent to an infinite approval. Requirements: - `spender` cannot be the zero address."
      },
      "balanceOf(address)": {
        "details": "See {IERC20-balanceOf}."
      },
      "burn(address,uint256)": {
        "details": "Burns `amount` of tokens for `from`. See {ERC20-_burn}. Requirements: - the caller must have the `BURNER_ROLE`."
      },
      "decimals()": {
        "details": "Returns the number of decimals used to get its user representation. For example, if `decimals` equals `2`, a balance of `505` tokens should be displayed to a user as `5.05` (`505 / 10 ** 2`). Tokens usually opt for a value of 18, imitating the relationship between Ether and Wei. This is the value {ERC20} uses, unless this function is overridden; NOTE: This information is only used for _display_ purposes: it in no way affects any of the arithmetic of the contract, including {IERC20-balanceOf} and {IERC20-transfer}."
      },
      "decreaseAllowance(address,uint256)": {
        "details": "Atomically decreases the allowance granted to `spender` by the caller. This is an alternative to {approve} that can be used as a mitigation for problems described in {IERC20-approve}. Emits an {Approval} event indicating the updated allowance. Requirements: - `spender` cannot be the zero address. - `spender` must have allowance for the caller of at least `subtractedValue`."
      },
      "increaseAllowance(address,uint256)": {
        "details": "Atomically increases the allowance granted to `spender` by the caller. This is an alternative to {approve} that can be used as a mitigation for problems described in {IERC20-approve}. Emits an {Approval} event indicating the updated allowance. Requirements: - `spender` cannot be the zero address."
      },
      "mint(address,uint256)": {
        "details": "Creates `amount` new tokens for `to`. See {ERC20-_mint}. Requirements: - the caller must have the `MINTER_ROLE`."
      },
      "name()": {
        "details": "Returns the name of the token."
      },
      "pause()": {
        "details": "Pauses all token transfers. See {ERC20Pausable} and {Pausable-_pause}. Requirements: - the caller must have the `PAUSER_ROLE`."
      },
      "paused()": {
        "details": "Returns true if the contract is paused, and false otherwise."
      },
      "symbol()": {
        "details": "Returns the symbol of the token, usually a shorter version of the name."
      },
      "totalSupply()": {
        "details": "See {IERC20-totalSupply}."
      },
      "transfer(address,uint256)": {
        "details": "See {IERC20-transfer}. Requirements: - `to` cannot be the zero address. - the caller must have a balance of at least `amount`."
      },
      "transferFrom(address,address,uint256)": {
        "details": "See {IERC20-transferFrom}. Emits an {Approval} event indicating the updated allowance. This is not required by the EIP. See the note at the beginning of {ERC20}. NOTE: Does not update the allowance if the current allowance is the maximum `uint256`. Requirements: - `from` and `to` cannot be the zero address. - `from` must have a balance of at least `amount`. - the caller must have allowance for ``from``'s tokens of at least `amount`."
      },
      "unpause()": {
        "details": "Unpauses all token transfers. See {ERC20Pausable} and {Pausable-_unpause}. Requirements: - the caller must have the `PAUSER_ROLE`."
      }
    },
    "version": 1
  },
  "userdoc": {
    "kind": "user",
    "methods": {},
    "version": 1
  }
}