{
  "contractName": "MorpherTradeEngine",
  "abi": [
    {
      "anonymous": false,
      "inputs": [
        {
          "indexed": false,
          "internalType": "bytes32",
          "name": "orderId",
          "type": "bytes32"
        },
        {
          "indexed": false,
          "internalType": "address",
          "name": "user",
          "type": "address"
        },
        {
          "indexed": false,
          "internalType": "uint256",
          "name": "escrowAmount",
          "type": "uint256"
        }
      ],
      "name": "EscrowPaid",
      "type": "event"
    },
    {
      "anonymous": false,
      "inputs": [
        {
          "indexed": false,
          "internalType": "bytes32",
          "name": "orderId",
          "type": "bytes32"
        },
        {
          "indexed": false,
          "internalType": "address",
          "name": "user",
          "type": "address"
        },
        {
          "indexed": false,
          "internalType": "uint256",
          "name": "escrowAmount",
          "type": "uint256"
        }
      ],
      "name": "EscrowReturned",
      "type": "event"
    },
    {
      "anonymous": false,
      "inputs": [
        {
          "indexed": false,
          "internalType": "uint8",
          "name": "version",
          "type": "uint8"
        }
      ],
      "name": "Initialized",
      "type": "event"
    },
    {
      "anonymous": false,
      "inputs": [
        {
          "indexed": false,
          "internalType": "uint256",
          "name": "interestRate",
          "type": "uint256"
        },
        {
          "indexed": false,
          "internalType": "uint256",
          "name": "validFromTimestamp",
          "type": "uint256"
        }
      ],
      "name": "LeverageInterestRateAdded",
      "type": "event"
    },
    {
      "anonymous": false,
      "inputs": [
        {
          "indexed": false,
          "internalType": "address",
          "name": "_address",
          "type": "address"
        }
      ],
      "name": "LinkState",
      "type": "event"
    },
    {
      "anonymous": false,
      "inputs": [
        {
          "indexed": false,
          "internalType": "bytes32",
          "name": "_marketId",
          "type": "bytes32"
        },
        {
          "indexed": false,
          "internalType": "uint256",
          "name": "_price",
          "type": "uint256"
        }
      ],
      "name": "LockedPriceForClosingPositions",
      "type": "event"
    },
    {
      "anonymous": false,
      "inputs": [
        {
          "indexed": true,
          "internalType": "bytes32",
          "name": "_orderId",
          "type": "bytes32"
        },
        {
          "indexed": true,
          "internalType": "address",
          "name": "_address",
          "type": "address"
        }
      ],
      "name": "OrderCancelled",
      "type": "event"
    },
    {
      "anonymous": false,
      "inputs": [
        {
          "indexed": false,
          "internalType": "bytes32",
          "name": "_orderId",
          "type": "bytes32"
        },
        {
          "indexed": true,
          "internalType": "address",
          "name": "_address",
          "type": "address"
        },
        {
          "indexed": true,
          "internalType": "bytes32",
          "name": "_marketId",
          "type": "bytes32"
        },
        {
          "indexed": false,
          "internalType": "uint256",
          "name": "_closeSharesAmount",
          "type": "uint256"
        },
        {
          "indexed": false,
          "internalType": "uint256",
          "name": "_openMPHTokenAmount",
          "type": "uint256"
        },
        {
          "indexed": false,
          "internalType": "bool",
          "name": "_tradeDirection",
          "type": "bool"
        },
        {
          "indexed": false,
          "internalType": "uint256",
          "name": "_orderLeverage",
          "type": "uint256"
        }
      ],
      "name": "OrderIdRequested",
      "type": "event"
    },
    {
      "anonymous": false,
      "inputs": [
        {
          "indexed": false,
          "internalType": "bytes32",
          "name": "_orderId",
          "type": "bytes32"
        },
        {
          "indexed": false,
          "internalType": "uint256",
          "name": "_marketPrice",
          "type": "uint256"
        },
        {
          "indexed": false,
          "internalType": "uint256",
          "name": "_marketSpread",
          "type": "uint256"
        },
        {
          "indexed": false,
          "internalType": "uint256",
          "name": "_liquidationTimestamp",
          "type": "uint256"
        },
        {
          "indexed": false,
          "internalType": "uint256",
          "name": "_timeStamp",
          "type": "uint256"
        },
        {
          "indexed": false,
          "internalType": "uint256",
          "name": "_newLongShares",
          "type": "uint256"
        },
        {
          "indexed": false,
          "internalType": "uint256",
          "name": "_newShortShares",
          "type": "uint256"
        },
        {
          "indexed": false,
          "internalType": "uint256",
          "name": "_newAverageEntry",
          "type": "uint256"
        },
        {
          "indexed": false,
          "internalType": "uint256",
          "name": "_newAverageSpread",
          "type": "uint256"
        },
        {
          "indexed": false,
          "internalType": "uint256",
          "name": "_newAverageLeverage",
          "type": "uint256"
        },
        {
          "indexed": false,
          "internalType": "uint256",
          "name": "_liquidationPrice",
          "type": "uint256"
        }
      ],
      "name": "OrderProcessed",
      "type": "event"
    },
    {
      "anonymous": false,
      "inputs": [
        {
          "indexed": true,
          "internalType": "address",
          "name": "_address",
          "type": "address"
        },
        {
          "indexed": true,
          "internalType": "bytes32",
          "name": "_marketId",
          "type": "bytes32"
        },
        {
          "indexed": false,
          "internalType": "bool",
          "name": "_longPosition",
          "type": "bool"
        },
        {
          "indexed": false,
          "internalType": "uint256",
          "name": "_timeStamp",
          "type": "uint256"
        },
        {
          "indexed": false,
          "internalType": "uint256",
          "name": "_marketPrice",
          "type": "uint256"
        },
        {
          "indexed": false,
          "internalType": "uint256",
          "name": "_marketSpread",
          "type": "uint256"
        }
      ],
      "name": "PositionLiquidated",
      "type": "event"
    },
    {
      "anonymous": false,
      "inputs": [
        {
          "indexed": false,
          "internalType": "address",
          "name": "_userId",
          "type": "address"
        },
        {
          "indexed": false,
          "internalType": "bytes32",
          "name": "_marketId",
          "type": "bytes32"
        },
        {
          "indexed": false,
          "internalType": "uint256",
          "name": "_timeStamp",
          "type": "uint256"
        },
        {
          "indexed": false,
          "internalType": "uint256",
          "name": "_newLongShares",
          "type": "uint256"
        },
        {
          "indexed": false,
          "internalType": "uint256",
          "name": "_newShortShares",
          "type": "uint256"
        },
        {
          "indexed": false,
          "internalType": "uint256",
          "name": "_newMeanEntryPrice",
          "type": "uint256"
        },
        {
          "indexed": false,
          "internalType": "uint256",
          "name": "_newMeanEntrySpread",
          "type": "uint256"
        },
        {
          "indexed": false,
          "internalType": "uint256",
          "name": "_newMeanEntryLeverage",
          "type": "uint256"
        },
        {
          "indexed": false,
          "internalType": "uint256",
          "name": "_newLiquidationPrice",
          "type": "uint256"
        },
        {
          "indexed": false,
          "internalType": "uint256",
          "name": "_mint",
          "type": "uint256"
        },
        {
          "indexed": false,
          "internalType": "uint256",
          "name": "_burn",
          "type": "uint256"
        }
      ],
      "name": "PositionUpdated",
      "type": "event"
    },
    {
      "anonymous": false,
      "inputs": [
        {
          "indexed": false,
          "internalType": "bytes32",
          "name": "_orderId",
          "type": "bytes32"
        },
        {
          "indexed": false,
          "internalType": "uint256",
          "name": "oldTimestamp",
          "type": "uint256"
        },
        {
          "indexed": false,
          "internalType": "uint256",
          "name": "newTimestamp",
          "type": "uint256"
        }
      ],
      "name": "ResetTimestampInOrder",
      "type": "event"
    },
    {
      "anonymous": false,
      "inputs": [
        {
          "indexed": false,
          "internalType": "uint256",
          "name": "newInterestRate",
          "type": "uint256"
        }
      ],
      "name": "SetLeverageInterestRate",
      "type": "event"
    },
    {
      "anonymous": false,
      "inputs": [
        {
          "indexed": true,
          "internalType": "bytes32",
          "name": "positionHash",
          "type": "bytes32"
        },
        {
          "indexed": true,
          "internalType": "address",
          "name": "sender",
          "type": "address"
        },
        {
          "indexed": true,
          "internalType": "bytes32",
          "name": "marketId",
          "type": "bytes32"
        },
        {
          "indexed": false,
          "internalType": "uint256",
          "name": "timeStamp",
          "type": "uint256"
        },
        {
          "indexed": false,
          "internalType": "uint256",
          "name": "longShares",
          "type": "uint256"
        },
        {
          "indexed": false,
          "internalType": "uint256",
          "name": "shortShares",
          "type": "uint256"
        },
        {
          "indexed": false,
          "internalType": "uint256",
          "name": "meanEntryPrice",
          "type": "uint256"
        },
        {
          "indexed": false,
          "internalType": "uint256",
          "name": "meanEntrySpread",
          "type": "uint256"
        },
        {
          "indexed": false,
          "internalType": "uint256",
          "name": "meanEntryLeverage",
          "type": "uint256"
        },
        {
          "indexed": false,
          "internalType": "uint256",
          "name": "liquidationPrice",
          "type": "uint256"
        }
      ],
      "name": "SetPosition",
      "type": "event"
    },
    {
      "inputs": [],
      "name": "ADMINISTRATOR_ROLE",
      "outputs": [
        {
          "internalType": "bytes32",
          "name": "",
          "type": "bytes32"
        }
      ],
      "stateMutability": "view",
      "type": "function",
      "constant": true
    },
    {
      "inputs": [],
      "name": "DOMAIN_TYPE_HASH",
      "outputs": [
        {
          "internalType": "bytes32",
          "name": "",
          "type": "bytes32"
        }
      ],
      "stateMutability": "view",
      "type": "function",
      "constant": true
    },
    {
      "inputs": [],
      "name": "ORACLE_ROLE",
      "outputs": [
        {
          "internalType": "bytes32",
          "name": "",
          "type": "bytes32"
        }
      ],
      "stateMutability": "view",
      "type": "function",
      "constant": true
    },
    {
      "inputs": [],
      "name": "POSITIONADMIN_ROLE",
      "outputs": [
        {
          "internalType": "bytes32",
          "name": "",
          "type": "bytes32"
        }
      ],
      "stateMutability": "view",
      "type": "function",
      "constant": true
    },
    {
      "inputs": [],
      "name": "POSITION_TYPE_HASH",
      "outputs": [
        {
          "internalType": "bytes32",
          "name": "",
          "type": "bytes32"
        }
      ],
      "stateMutability": "view",
      "type": "function",
      "constant": true
    },
    {
      "inputs": [],
      "name": "_HASHED_NAME",
      "outputs": [
        {
          "internalType": "bytes32",
          "name": "",
          "type": "bytes32"
        }
      ],
      "stateMutability": "view",
      "type": "function",
      "constant": true
    },
    {
      "inputs": [],
      "name": "_HASHED_VERSION",
      "outputs": [
        {
          "internalType": "bytes32",
          "name": "",
          "type": "bytes32"
        }
      ],
      "stateMutability": "view",
      "type": "function",
      "constant": true
    },
    {
      "inputs": [],
      "name": "deployedTimeStamp",
      "outputs": [
        {
          "internalType": "uint256",
          "name": "",
          "type": "uint256"
        }
      ],
      "stateMutability": "view",
      "type": "function",
      "constant": true
    },
    {
      "inputs": [],
      "name": "escrowOpenOrderEnabled",
      "outputs": [
        {
          "internalType": "bool",
          "name": "",
          "type": "bool"
        }
      ],
      "stateMutability": "view",
      "type": "function",
      "constant": true
    },
    {
      "inputs": [
        {
          "internalType": "bytes32",
          "name": "",
          "type": "bytes32"
        }
      ],
      "name": "exposureByMarket",
      "outputs": [
        {
          "internalType": "uint256",
          "name": "maxMappingIndex",
          "type": "uint256"
        }
      ],
      "stateMutability": "view",
      "type": "function",
      "constant": true
    },
    {
      "inputs": [
        {
          "internalType": "uint256",
          "name": "",
          "type": "uint256"
        }
      ],
      "name": "interestRates",
      "outputs": [
        {
          "internalType": "uint256",
          "name": "validFrom",
          "type": "uint256"
        },
        {
          "internalType": "uint256",
          "name": "rate",
          "type": "uint256"
        }
      ],
      "stateMutability": "view",
      "type": "function",
      "constant": true
    },
    {
      "inputs": [],
      "name": "lastOrderId",
      "outputs": [
        {
          "internalType": "bytes32",
          "name": "",
          "type": "bytes32"
        }
      ],
      "stateMutability": "view",
      "type": "function",
      "constant": true
    },
    {
      "inputs": [],
      "name": "morpherState",
      "outputs": [
        {
          "internalType": "contract MorpherState",
          "name": "",
          "type": "address"
        }
      ],
      "stateMutability": "view",
      "type": "function",
      "constant": true
    },
    {
      "inputs": [],
      "name": "numInterestRates",
      "outputs": [
        {
          "internalType": "uint256",
          "name": "",
          "type": "uint256"
        }
      ],
      "stateMutability": "view",
      "type": "function",
      "constant": true
    },
    {
      "inputs": [],
      "name": "orderNonce",
      "outputs": [
        {
          "internalType": "uint256",
          "name": "",
          "type": "uint256"
        }
      ],
      "stateMutability": "view",
      "type": "function",
      "constant": true
    },
    {
      "inputs": [
        {
          "internalType": "bytes32",
          "name": "",
          "type": "bytes32"
        }
      ],
      "name": "orders",
      "outputs": [
        {
          "internalType": "address",
          "name": "userId",
          "type": "address"
        },
        {
          "internalType": "bytes32",
          "name": "marketId",
          "type": "bytes32"
        },
        {
          "internalType": "uint256",
          "name": "closeSharesAmount",
          "type": "uint256"
        },
        {
          "internalType": "uint256",
          "name": "openMPHTokenAmount",
          "type": "uint256"
        },
        {
          "internalType": "bool",
          "name": "tradeDirection",
          "type": "bool"
        },
        {
          "internalType": "uint256",
          "name": "liquidationTimestamp",
          "type": "uint256"
        },
        {
          "internalType": "uint256",
          "name": "marketPrice",
          "type": "uint256"
        },
        {
          "internalType": "uint256",
          "name": "marketSpread",
          "type": "uint256"
        },
        {
          "internalType": "uint256",
          "name": "orderLeverage",
          "type": "uint256"
        },
        {
          "internalType": "uint256",
          "name": "timeStamp",
          "type": "uint256"
        },
        {
          "internalType": "uint256",
          "name": "orderEscrowAmount",
          "type": "uint256"
        },
        {
          "components": [
            {
              "internalType": "uint256",
              "name": "longSharesOrder",
              "type": "uint256"
            },
            {
              "internalType": "uint256",
              "name": "shortSharesOrder",
              "type": "uint256"
            },
            {
              "internalType": "uint256",
              "name": "balanceDown",
              "type": "uint256"
            },
            {
              "internalType": "uint256",
              "name": "balanceUp",
              "type": "uint256"
            },
            {
              "internalType": "uint256",
              "name": "newLongShares",
              "type": "uint256"
            },
            {
              "internalType": "uint256",
              "name": "newShortShares",
              "type": "uint256"
            },
            {
              "internalType": "uint256",
              "name": "newMeanEntryPrice",
              "type": "uint256"
            },
            {
              "internalType": "uint256",
              "name": "newMeanEntrySpread",
              "type": "uint256"
            },
            {
              "internalType": "uint256",
              "name": "newMeanEntryLeverage",
              "type": "uint256"
            },
            {
              "internalType": "uint256",
              "name": "newLiquidationPrice",
              "type": "uint256"
            }
          ],
          "internalType": "struct MorpherTradeEngine.OrderModifier",
          "name": "modifyPosition",
          "type": "tuple"
        }
      ],
      "stateMutability": "view",
      "type": "function",
      "constant": true
    },
    {
      "inputs": [
        {
          "internalType": "address",
          "name": "",
          "type": "address"
        },
        {
          "internalType": "bytes32",
          "name": "",
          "type": "bytes32"
        }
      ],
      "name": "portfolio",
      "outputs": [
        {
          "internalType": "uint256",
          "name": "lastUpdated",
          "type": "uint256"
        },
        {
          "internalType": "uint256",
          "name": "longShares",
          "type": "uint256"
        },
        {
          "internalType": "uint256",
          "name": "shortShares",
          "type": "uint256"
        },
        {
          "internalType": "uint256",
          "name": "meanEntryPrice",
          "type": "uint256"
        },
        {
          "internalType": "uint256",
          "name": "meanEntrySpread",
          "type": "uint256"
        },
        {
          "internalType": "uint256",
          "name": "meanEntryLeverage",
          "type": "uint256"
        },
        {
          "internalType": "uint256",
          "name": "liquidationPrice",
          "type": "uint256"
        },
        {
          "internalType": "bytes32",
          "name": "positionHash",
          "type": "bytes32"
        }
      ],
      "stateMutability": "view",
      "type": "function",
      "constant": true
    },
    {
      "inputs": [
        {
          "internalType": "bytes32",
          "name": "",
          "type": "bytes32"
        }
      ],
      "name": "priceLockDeactivatedMarket",
      "outputs": [
        {
          "internalType": "uint256",
          "name": "lockedPrice",
          "type": "uint256"
        }
      ],
      "stateMutability": "view",
      "type": "function",
      "constant": true
    },
    {
      "inputs": [
        {
          "internalType": "address",
          "name": "_stateAddress",
          "type": "address"
        },
        {
          "internalType": "bool",
          "name": "_escrowOpenOrderEnabled",
          "type": "bool"
        },
        {
          "internalType": "uint256",
          "name": "_deployedTimestampOverride",
          "type": "uint256"
        }
      ],
      "name": "initialize",
      "outputs": [],
      "stateMutability": "nonpayable",
      "type": "function"
    },
    {
      "inputs": [
        {
          "internalType": "address",
          "name": "_stateAddress",
          "type": "address"
        }
      ],
      "name": "setMorpherState",
      "outputs": [],
      "stateMutability": "nonpayable",
      "type": "function"
    },
    {
      "inputs": [
        {
          "internalType": "bool",
          "name": "_isEnabled",
          "type": "bool"
        }
      ],
      "name": "setEscrowOpenOrderEnabled",
      "outputs": [],
      "stateMutability": "nonpayable",
      "type": "function"
    },
    {
      "inputs": [
        {
          "internalType": "uint256",
          "name": "_interestRate",
          "type": "uint256"
        }
      ],
      "name": "setLeverageInterestRate",
      "outputs": [],
      "stateMutability": "nonpayable",
      "type": "function"
    },
    {
      "inputs": [],
      "name": "interestRate",
      "outputs": [
        {
          "internalType": "uint256",
          "name": "",
          "type": "uint256"
        }
      ],
      "stateMutability": "view",
      "type": "function",
      "constant": true
    },
    {
      "inputs": [
        {
          "internalType": "uint256",
          "name": "_rate",
          "type": "uint256"
        },
        {
          "internalType": "uint256",
          "name": "_validFrom",
          "type": "uint256"
        }
      ],
      "name": "addInterestRate",
      "outputs": [],
      "stateMutability": "nonpayable",
      "type": "function"
    },
    {
      "inputs": [
        {
          "internalType": "uint256",
          "name": "_positionTimestamp",
          "type": "uint256"
        }
      ],
      "name": "getInterestRate",
      "outputs": [
        {
          "internalType": "uint256",
          "name": "",
          "type": "uint256"
        }
      ],
      "stateMutability": "view",
      "type": "function",
      "constant": true
    },
    {
      "inputs": [
        {
          "internalType": "address",
          "name": "_address",
          "type": "address"
        },
        {
          "internalType": "bytes32",
          "name": "_marketId",
          "type": "bytes32"
        },
        {
          "internalType": "uint256",
          "name": "_closeSharesAmount",
          "type": "uint256"
        },
        {
          "internalType": "uint256",
          "name": "_openMPHTokenAmount",
          "type": "uint256"
        },
        {
          "internalType": "bool",
          "name": "_tradeDirection",
          "type": "bool"
        },
        {
          "internalType": "uint256",
          "name": "_orderLeverage",
          "type": "uint256"
        }
      ],
      "name": "requestOrderId",
      "outputs": [
        {
          "internalType": "bytes32",
          "name": "_orderId",
          "type": "bytes32"
        }
      ],
      "stateMutability": "nonpayable",
      "type": "function"
    },
    {
      "inputs": [
        {
          "internalType": "bytes32",
          "name": "_orderId",
          "type": "bytes32"
        }
      ],
      "name": "getOrder",
      "outputs": [
        {
          "internalType": "address",
          "name": "_userId",
          "type": "address"
        },
        {
          "internalType": "bytes32",
          "name": "_marketId",
          "type": "bytes32"
        },
        {
          "internalType": "uint256",
          "name": "_closeSharesAmount",
          "type": "uint256"
        },
        {
          "internalType": "uint256",
          "name": "_openMPHTokenAmount",
          "type": "uint256"
        },
        {
          "internalType": "uint256",
          "name": "_marketPrice",
          "type": "uint256"
        },
        {
          "internalType": "uint256",
          "name": "_marketSpread",
          "type": "uint256"
        },
        {
          "internalType": "uint256",
          "name": "_orderLeverage",
          "type": "uint256"
        }
      ],
      "stateMutability": "view",
      "type": "function",
      "constant": true
    },
    {
      "inputs": [
        {
          "internalType": "bytes32",
          "name": "_marketId",
          "type": "bytes32"
        },
        {
          "internalType": "uint256",
          "name": "_price",
          "type": "uint256"
        }
      ],
      "name": "setDeactivatedMarketPrice",
      "outputs": [],
      "stateMutability": "nonpayable",
      "type": "function"
    },
    {
      "inputs": [
        {
          "internalType": "bytes32",
          "name": "_marketId",
          "type": "bytes32"
        }
      ],
      "name": "getDeactivatedMarketPrice",
      "outputs": [
        {
          "internalType": "uint256",
          "name": "",
          "type": "uint256"
        }
      ],
      "stateMutability": "view",
      "type": "function",
      "constant": true
    },
    {
      "inputs": [
        {
          "internalType": "bytes32",
          "name": "_orderId",
          "type": "bytes32"
        },
        {
          "internalType": "uint256",
          "name": "_marketPrice",
          "type": "uint256"
        },
        {
          "internalType": "uint256",
          "name": "_marketSpread",
          "type": "uint256"
        },
        {
          "internalType": "uint256",
          "name": "_liquidationTimestamp",
          "type": "uint256"
        },
        {
          "internalType": "uint256",
          "name": "_timeStampInMS",
          "type": "uint256"
        }
      ],
      "name": "processOrder",
      "outputs": [
        {
          "components": [
            {
              "internalType": "uint256",
              "name": "lastUpdated",
              "type": "uint256"
            },
            {
              "internalType": "uint256",
              "name": "longShares",
              "type": "uint256"
            },
            {
              "internalType": "uint256",
              "name": "shortShares",
              "type": "uint256"
            },
            {
              "internalType": "uint256",
              "name": "meanEntryPrice",
              "type": "uint256"
            },
            {
              "internalType": "uint256",
              "name": "meanEntrySpread",
              "type": "uint256"
            },
            {
              "internalType": "uint256",
              "name": "meanEntryLeverage",
              "type": "uint256"
            },
            {
              "internalType": "uint256",
              "name": "liquidationPrice",
              "type": "uint256"
            },
            {
              "internalType": "bytes32",
              "name": "positionHash",
              "type": "bytes32"
            }
          ],
          "internalType": "struct MorpherTradeEngine.position",
          "name": "",
          "type": "tuple"
        }
      ],
      "stateMutability": "nonpayable",
      "type": "function"
    },
    {
      "inputs": [
        {
          "internalType": "bytes32",
          "name": "_orderId",
          "type": "bytes32"
        },
        {
          "internalType": "address",
          "name": "_address",
          "type": "address"
        }
      ],
      "name": "cancelOrder",
      "outputs": [],
      "stateMutability": "nonpayable",
      "type": "function"
    },
    {
      "inputs": [
        {
          "internalType": "uint256",
          "name": "_positionAveragePrice",
          "type": "uint256"
        },
        {
          "internalType": "uint256",
          "name": "_positionAverageLeverage",
          "type": "uint256"
        },
        {
          "internalType": "uint256",
          "name": "_positionTimeStampInMs",
          "type": "uint256"
        },
        {
          "internalType": "uint256",
          "name": "_marketPrice",
          "type": "uint256"
        },
        {
          "internalType": "uint256",
          "name": "_marketSpread",
          "type": "uint256"
        },
        {
          "internalType": "uint256",
          "name": "_orderLeverage",
          "type": "uint256"
        },
        {
          "internalType": "bool",
          "name": "_sell",
          "type": "bool"
        }
      ],
      "name": "shortShareValue",
      "outputs": [
        {
          "internalType": "uint256",
          "name": "_shareValue",
          "type": "uint256"
        }
      ],
      "stateMutability": "view",
      "type": "function",
      "constant": true
    },
    {
      "inputs": [
        {
          "internalType": "uint256",
          "name": "_positionAveragePrice",
          "type": "uint256"
        },
        {
          "internalType": "uint256",
          "name": "_positionAverageLeverage",
          "type": "uint256"
        },
        {
          "internalType": "uint256",
          "name": "_positionTimeStampInMs",
          "type": "uint256"
        },
        {
          "internalType": "uint256",
          "name": "_marketPrice",
          "type": "uint256"
        },
        {
          "internalType": "uint256",
          "name": "_marketSpread",
          "type": "uint256"
        },
        {
          "internalType": "uint256",
          "name": "_orderLeverage",
          "type": "uint256"
        },
        {
          "internalType": "bool",
          "name": "_sell",
          "type": "bool"
        }
      ],
      "name": "longShareValue",
      "outputs": [
        {
          "internalType": "uint256",
          "name": "_shareValue",
          "type": "uint256"
        }
      ],
      "stateMutability": "view",
      "type": "function",
      "constant": true
    },
    {
      "inputs": [
        {
          "internalType": "uint256",
          "name": "_averagePrice",
          "type": "uint256"
        },
        {
          "internalType": "uint256",
          "name": "_averageLeverage",
          "type": "uint256"
        },
        {
          "internalType": "uint256",
          "name": "_positionTimeStampInMs",
          "type": "uint256"
        }
      ],
      "name": "calculateMarginInterest",
      "outputs": [
        {
          "internalType": "uint256",
          "name": "",
          "type": "uint256"
        }
      ],
      "stateMutability": "view",
      "type": "function",
      "constant": true
    },
    {
      "inputs": [
        {
          "internalType": "bytes32",
          "name": "_orderId",
          "type": "bytes32"
        }
      ],
      "name": "computeLiquidationPrice",
      "outputs": [
        {
          "internalType": "uint256",
          "name": "_liquidationPrice",
          "type": "uint256"
        }
      ],
      "stateMutability": "nonpayable",
      "type": "function"
    },
    {
      "inputs": [
        {
          "internalType": "uint256",
          "name": "_newMeanEntryPrice",
          "type": "uint256"
        },
        {
          "internalType": "uint256",
          "name": "_newMeanEntryLeverage",
          "type": "uint256"
        },
        {
          "internalType": "bool",
          "name": "_long",
          "type": "bool"
        },
        {
          "internalType": "uint256",
          "name": "_positionTimestampInMs",
          "type": "uint256"
        }
      ],
      "name": "getLiquidationPrice",
      "outputs": [
        {
          "internalType": "uint256",
          "name": "",
          "type": "uint256"
        }
      ],
      "stateMutability": "view",
      "type": "function",
      "constant": true
    },
    {
      "inputs": [
        {
          "internalType": "bytes32",
          "name": "marketId",
          "type": "bytes32"
        },
        {
          "components": [
            {
              "internalType": "uint256",
              "name": "lastUpdated",
              "type": "uint256"
            },
            {
              "internalType": "uint256",
              "name": "longShares",
              "type": "uint256"
            },
            {
              "internalType": "uint256",
              "name": "shortShares",
              "type": "uint256"
            },
            {
              "internalType": "uint256",
              "name": "meanEntryPrice",
              "type": "uint256"
            },
            {
              "internalType": "uint256",
              "name": "meanEntrySpread",
              "type": "uint256"
            },
            {
              "internalType": "uint256",
              "name": "meanEntryLeverage",
              "type": "uint256"
            },
            {
              "internalType": "uint256",
              "name": "liquidationPrice",
              "type": "uint256"
            },
            {
              "internalType": "bytes32",
              "name": "positionHash",
              "type": "bytes32"
            }
          ],
          "internalType": "struct MorpherTradeEngine.position",
          "name": "_position",
          "type": "tuple"
        },
        {
          "components": [
            {
              "internalType": "bytes32",
              "name": "r",
              "type": "bytes32"
            },
            {
              "internalType": "bytes32",
              "name": "s",
              "type": "bytes32"
            },
            {
              "internalType": "uint8",
              "name": "v",
              "type": "uint8"
            },
            {
              "internalType": "uint256",
              "name": "deadline",
              "type": "uint256"
            },
            {
              "internalType": "address",
              "name": "signer",
              "type": "address"
            }
          ],
          "internalType": "struct MorpherTradeEngine.EIP712Signature",
          "name": "ownerSignature",
          "type": "tuple"
        },
        {
          "components": [
            {
              "internalType": "bytes32",
              "name": "r",
              "type": "bytes32"
            },
            {
              "internalType": "bytes32",
              "name": "s",
              "type": "bytes32"
            },
            {
              "internalType": "uint8",
              "name": "v",
              "type": "uint8"
            },
            {
              "internalType": "uint256",
              "name": "deadline",
              "type": "uint256"
            },
            {
              "internalType": "address",
              "name": "signer",
              "type": "address"
            }
          ],
          "internalType": "struct MorpherTradeEngine.EIP712Signature",
          "name": "positionAdminSignature",
          "type": "tuple"
        }
      ],
      "name": "setPositionWithSignature",
      "outputs": [],
      "stateMutability": "nonpayable",
      "type": "function"
    },
    {
      "inputs": [
        {
          "internalType": "address",
          "name": "owner",
          "type": "address"
        }
      ],
      "name": "nonces",
      "outputs": [
        {
          "internalType": "uint256",
          "name": "",
          "type": "uint256"
        }
      ],
      "stateMutability": "view",
      "type": "function",
      "constant": true
    },
    {
      "inputs": [],
      "name": "DOMAIN_SEPARATOR",
      "outputs": [
        {
          "internalType": "bytes32",
          "name": "",
          "type": "bytes32"
        }
      ],
      "stateMutability": "view",
      "type": "function",
      "constant": true
    },
    {
      "inputs": [
        {
          "internalType": "address",
          "name": "_address",
          "type": "address"
        },
        {
          "internalType": "bytes32",
          "name": "_marketId",
          "type": "bytes32"
        },
        {
          "internalType": "uint256",
          "name": "_timeStamp",
          "type": "uint256"
        },
        {
          "internalType": "uint256",
          "name": "_longShares",
          "type": "uint256"
        },
        {
          "internalType": "uint256",
          "name": "_shortShares",
          "type": "uint256"
        },
        {
          "internalType": "uint256",
          "name": "_meanEntryPrice",
          "type": "uint256"
        },
        {
          "internalType": "uint256",
          "name": "_meanEntrySpread",
          "type": "uint256"
        },
        {
          "internalType": "uint256",
          "name": "_meanEntryLeverage",
          "type": "uint256"
        },
        {
          "internalType": "uint256",
          "name": "_liquidationPrice",
          "type": "uint256"
        }
      ],
      "name": "setPosition",
      "outputs": [],
      "stateMutability": "nonpayable",
      "type": "function"
    },
    {
      "inputs": [
        {
          "internalType": "address",
          "name": "_address",
          "type": "address"
        },
        {
          "internalType": "bytes32",
          "name": "_marketId",
          "type": "bytes32"
        }
      ],
      "name": "getPosition",
      "outputs": [
        {
          "components": [
            {
              "internalType": "uint256",
              "name": "lastUpdated",
              "type": "uint256"
            },
            {
              "internalType": "uint256",
              "name": "longShares",
              "type": "uint256"
            },
            {
              "internalType": "uint256",
              "name": "shortShares",
              "type": "uint256"
            },
            {
              "internalType": "uint256",
              "name": "meanEntryPrice",
              "type": "uint256"
            },
            {
              "internalType": "uint256",
              "name": "meanEntrySpread",
              "type": "uint256"
            },
            {
              "internalType": "uint256",
              "name": "meanEntryLeverage",
              "type": "uint256"
            },
            {
              "internalType": "uint256",
              "name": "liquidationPrice",
              "type": "uint256"
            },
            {
              "internalType": "bytes32",
              "name": "positionHash",
              "type": "bytes32"
            }
          ],
          "internalType": "struct MorpherTradeEngine.position",
          "name": "",
          "type": "tuple"
        }
      ],
      "stateMutability": "view",
      "type": "function",
      "constant": true
    },
    {
      "inputs": [
        {
          "internalType": "address",
          "name": "_address",
          "type": "address"
        },
        {
          "internalType": "bytes32",
          "name": "_marketId",
          "type": "bytes32"
        },
        {
          "internalType": "uint256",
          "name": "_timeStamp",
          "type": "uint256"
        },
        {
          "internalType": "uint256",
          "name": "_longShares",
          "type": "uint256"
        },
        {
          "internalType": "uint256",
          "name": "_shortShares",
          "type": "uint256"
        },
        {
          "internalType": "uint256",
          "name": "_meanEntryPrice",
          "type": "uint256"
        },
        {
          "internalType": "uint256",
          "name": "_meanEntrySpread",
          "type": "uint256"
        },
        {
          "internalType": "uint256",
          "name": "_meanEntryLeverage",
          "type": "uint256"
        },
        {
          "internalType": "uint256",
          "name": "_liquidationPrice",
          "type": "uint256"
        }
      ],
      "name": "getPositionHash",
      "outputs": [
        {
          "internalType": "bytes32",
          "name": "_hash",
          "type": "bytes32"
        }
      ],
      "stateMutability": "pure",
      "type": "function",
      "constant": true
    },
    {
      "inputs": [
        {
          "internalType": "bytes32",
          "name": "_marketId",
          "type": "bytes32"
        }
      ],
      "name": "getMaxMappingIndex",
      "outputs": [
        {
          "internalType": "uint256",
          "name": "_maxMappingIndex",
          "type": "uint256"
        }
      ],
      "stateMutability": "view",
      "type": "function",
      "constant": true
    },
    {
      "inputs": [
        {
          "internalType": "bytes32",
          "name": "_marketId",
          "type": "bytes32"
        },
        {
          "internalType": "address",
          "name": "_address",
          "type": "address"
        }
      ],
      "name": "getExposureMappingIndex",
      "outputs": [
        {
          "internalType": "uint256",
          "name": "_mappingIndex",
          "type": "uint256"
        }
      ],
      "stateMutability": "view",
      "type": "function",
      "constant": true
    },
    {
      "inputs": [
        {
          "internalType": "bytes32",
          "name": "_marketId",
          "type": "bytes32"
        },
        {
          "internalType": "uint256",
          "name": "_mappingIndex",
          "type": "uint256"
        }
      ],
      "name": "getExposureMappingAddress",
      "outputs": [
        {
          "internalType": "address",
          "name": "_address",
          "type": "address"
        }
      ],
      "stateMutability": "view",
      "type": "function",
      "constant": true
    }
  ],
  "bytecode": "0x608060405234801561000f575f80fd5b50615cb7806200001e5f395ff3fe608060405234801561000f575f80fd5b5060043610610276575f3560e01c8063712ac56d11610156578063ac8f6f7f116100ca578063d61aed7a11610084578063d61aed7a14610932578063e37ff29f14610945578063ee309c2214610958578063ef92f8311461097f578063f40b7b321461099e578063f45edb5f146109a7575f80fd5b8063ac8f6f7f14610898578063ac9eee28146108ab578063be7e64b6146108be578063c0993eea146108d1578063caac6c82146108f8578063cb581ced1461091f575f80fd5b80637f895a611161011b5780637f895a6114610628578063801046681461064f5780639a4d8ba1146106625780639c3f1e901461069d5780639c92e2b41461085a578063a386fb5614610879575f80fd5b8063712ac56d146105c05780637a687444146105e75780637c3a00fd146105fa5780637dffd040146106025780637ecebe0014610615575f80fd5b80633062bde4116101ed57806351b840cb116101b257806351b840cb146104d85780635662ecc7146104eb5780635778472a146104f457806369c66c7b146105875780636b4f70651461059a5780637023b783146105ad575f80fd5b80633062bde4146104785780633644e515146104975780633754c5651461049f5780634702513c146104b2578063480ee207146104c5575f80fd5b80631176aeef1161023e5780631176aeef146103ea57806313384039146103f357806316194bac1461040857806316f77a5b1461042557806316f8de89146104385780632d7b42c114610441575f80fd5b806307e2cea51461027a5780630c196a74146102a15780630e2e7ed3146102b45780630fa8f516146102df5780631035b2f114610352575b5f80fd5b61028e5f80516020615c4283398151915281565b6040519081526020015b60405180910390f35b61028e6102af366004615517565b6109bb565b6033546102c7906001600160a01b031681565b6040516001600160a01b039091168152602001610298565b6102f26102ed366004615542565b610b3c565b60405161029891905f61010082019050825182526020830151602083015260408301516040830152606083015160608301526080830151608083015260a083015160a083015260c083015160c083015260e083015160e083015292915050565b6103af610360366004615542565b603a602052815f5260405f20602052805f5260405f205f9150915050805f0154908060010154908060020154908060030154908060040154908060050154908060060154908060070154905088565b604080519889526020890197909752958701949094526060860192909252608085015260a084015260c083015260e082015261010001610298565b61028e603d5481565b61040661040136600461556c565b610bc7565b005b6037546104159060ff1681565b6040519015158152602001610298565b6102f261043336600461558c565b610f22565b61028e60345481565b6102c761044f36600461556c565b5f918252603b60209081526040808420928452600290920190529020546001600160a01b031690565b61028e610486366004615517565b603b6020525f908152604090205481565b61028e6117eb565b61028e6104ad3660046155d0565b6117f9565b61028e6104c0366004615517565b611914565b61028e6104d33660046155d0565b6119d4565b6104066104e63660046156f3565b611a5d565b61028e60355481565b610548610502366004615517565b5f9081526039602052604090208054600182015460028301546003840154600685015460078601546008909601546001600160a01b039095169693959294919390929190565b604080516001600160a01b0390981688526020880196909652948601939093526060850191909152608084015260a083015260c082015260e001610298565b61028e6105953660046157a3565b611aa8565b61028e6105a83660046157d1565b611ad3565b6104066105bb36600461556c565b611b87565b61028e7fc89efdaa54c0f20c7adf612882df0950f5a951637e0307cdcb4c672f298b8bc681565b61028e6105f53660046157fa565b611cde565b61028e611d56565b61028e61061036600461585c565b611db4565b61028e610623366004615898565b611e5e565b61028e7fd36c17f27f2cf7d8c38d2624a2d151cda4ee2b61b2d9222812432b2f91d5912c81565b61040661065d366004615898565b611e7b565b610688610670366004615517565b603c6020525f90815260409020805460019091015482565b60408051928352602083019190915201610298565b6107856106ab366004615517565b603960209081525f91825260409182902080546001820154600283015460038401546004850154600586015460068701546007880154600889015460098a0154600a8b01548d5161014081018f52600b8d01548152600c8d01549d81019d909d52600d8c01549d8d019d909d52600e8b015460608d0152600f8b015460808d015260108b015460a08d015260118b015460c08d015260128b015460e08d015260138b01546101008d01526014909a01546101208c01526001600160a01b039098169a96999598949760ff909416969295919490939290918c565b604080516001600160a01b03909d168d526020808e019c909c528c81019a909a526060808d01999099529615156080808d019190915260a0808d019790975260c0808d019690965260e0808d0195909552610100808d0194909452610120808d01939093526101408c019190915286516101608c0152988601516101808b0152968501516101a08a0152948401516101c0890152958301516101e0880152908201516102008701528101516102208601529283015161024085015282015161026084015201516102808201526102a001610298565b61028e610868366004615517565b60386020525f908152604090205481565b61028e610887366004615517565b5f9081526038602052604090205490565b61028e6108a63660046158ba565b611fe1565b6104066108b9366004615914565b612452565b6104066108cc3660046157fa565b612576565b61028e7f8b73c3c69bb8fe3d512ecc4cf759cc79239f7b179b0ffacaa9a75d522b39400f81565b61028e7f24f2dd2184b86a0b6d9c7400a2b7c44bfe317aa61d7f98ccca7be695d431902481565b61040661092d366004615517565b6126b6565b6104066109403660046157a3565b6127d4565b61040661095336600461592f565b612bea565b61028e7fd7753d4b699289191763bde82d59e1de5c3c491e8ee2ca272786ed78707b323a81565b61028e61098d366004615517565b5f908152603b602052604090205490565b61028e60365481565b61028e5f80516020615c6283398151915281565b5f8080805b603d54811015610b1d576001603d546109d99190615981565b811480610a02575042603c5f6109f0846001615994565b81526020019081526020015f205f0154115b15610a63575f818152603c6020526040902054610a1f9042615981565b5f828152603c6020526040902060010154610a3a91906159a7565b610a449084615994565b9250815f03610a5e575f818152603c602052604090205491505b610b1d565b84603c5f610a72846001615994565b81526020019081526020015f205f01541115610b0b575f818152603c6020819052604082205491610aa4846001615994565b81526020019081526020015f205f0154610abe9190615981565b5f828152603c6020526040902060010154610ad991906159a7565b610ae39084615994565b5f828152603c60205260409020549093508510610b0b575f818152603c602052604090205491505b80610b15816159be565b9150506109c0565b505f610b298242615981565b610b3390846159d6565b95945050505050565b610b446154d7565b506001600160a01b0382165f908152603a60209081526040808320848452825291829020825161010081018452815481526001820154928101929092526002810154928201929092526003820154606082015260048201546080820152600582015460a0820152600682015460c082015260079091015460e08201525b92915050565b60335460408051630140cb6560e51b815290515f80516020615c62833981519152926001600160a01b0316916328196ca09160048083019260209291908290030181865afa158015610c1b573d5f803e3d5ffd5b505050506040513d601f19601f82011682018060405250810190610c3f91906159f5565b6001600160a01b03166391d1485482336040516001600160e01b031960e085901b16815260048101929092526001600160a01b03166024820152604401602060405180830381865afa158015610c97573d5f803e3d5ffd5b505050506040513d601f19601f82011682018060405250810190610cbb9190615a10565b610ce05760405162461bcd60e51b8152600401610cd790615a2b565b60405180910390fd5b603d541580610d0f575081603c5f6001603d54610cfd9190615981565b81526020019081526020015f205f0154105b610d9b5760405162461bcd60e51b815260206004820152605160248201527f4d6f72706865725472616465456e67696e653a20496e7465726573742052617460448201527f652056616c69642046726f6d206d757374206265206c61746572207468616e206064820152706c61737420696e7465726573745261746560781b608482015260a401610cd7565b6305f5e100831115610e155760405162461bcd60e51b815260206004820152603c60248201527f4d6f72706865725472616465456e67696e653a20496e7465726573742052617460448201527f652063616e6e6f74206265206c6172676572207468616e2031303025000000006064820152608401610cd7565b42610e246301e1338084615981565b1115610eb05760405162461bcd60e51b815260206004820152604f60248201527f4d6f72706865725472616465456e67696e653a20496e7465726573742052617460448201527f652063616e6e6f74207374617274206d6f7265207468616e203120796561722060648201526e696e746f207468652066757475726560881b608482015260a401610cd7565b603d80545f908152603c602052604080822085905582548252812060010185905581549190610ede836159be565b909155505060408051848152602081018490527f93b9f7720ecbc1a525daad04dea2344903315e98916d6ca70319deddb02eb70b91015b60405180910390a1505050565b610f2a6154d7565b60335460408051630140cb6560e51b815290515f80516020615c42833981519152926001600160a01b0316916328196ca09160048083019260209291908290030181865afa158015610f7e573d5f803e3d5ffd5b505050506040513d601f19601f82011682018060405250810190610fa291906159f5565b6001600160a01b03166391d1485482336040516001600160e01b031960e085901b16815260048101929092526001600160a01b03166024820152604401602060405180830381865afa158015610ffa573d5f803e3d5ffd5b505050506040513d601f19601f8201168201806040525081019061101e9190615a10565b61103a5760405162461bcd60e51b8152600401610cd790615a2b565b5f878152603960205260409020546001600160a01b03166110c35760405162461bcd60e51b815260206004820152603e60248201527f4d6f72706865725472616465456e67696e653a20756e61626c6520746f20707260448201527f6f636573732c206f7264657220686173206265656e2064656c657465642e00006064820152608401610cd7565b5f861161114a5760405162461bcd60e51b815260206004820152604960248201527f4d6f72706865725472616465456e67696e653a206d61726b657420707269636560448201527f64206174207a65726f2e20427579206f726465722063616e6e6f7420626520706064820152683937b1b2b9b9b2b21760b91b608482015260a401610cd7565b848610156111de5760405162461bcd60e51b815260206004820152605560248201527f4d6f72706865725472616465456e67696e653a206d61726b657420707269636560448201527f206c6f776572207468656e206d61726b6574207370726561642e204f726465726064820152741031b0b73737ba10313290383937b1b2b9b9b2b21760591b608482015260a401610cd7565b5f8781526039602052604090819020600681018890556007810187905560098101859055600581018690556033546001909101549151634a4cce9760e01b815260048101929092526001600160a01b031690634a4cce9790602401602060405180830381865afa158015611254573d5f803e3d5ffd5b505050506040513d601f19601f820116820180604052508101906112789190615a10565b15155f036112b45761128987612c97565b5f878152603960208181526040808420600181015485526038835290842054938b9052919052600601555b5f87815260396020908152604080832080546001600160a01b03168452603a835281842060019091015484529091529020548411156112fb576112f687612cd7565b61144c565b60335f9054906101000a90046001600160a01b03166001600160a01b03166350a71bac6040518163ffffffff1660e01b8152600401602060405180830381865afa15801561134b573d5f803e3d5ffd5b505050506040513d601f19601f8201168201806040525081019061136f91906159f5565b5f8881526039602052604090819020549051635612cd6760e11b81526001600160a01b03918216600482015291169063ac259ace90602401602060405180830381865afa1580156113c2573d5f803e3d5ffd5b505050506040513d601f19601f820116820180604052508101906113e69190615a10565b1561144c5760405162461bcd60e51b815260206004820152603060248201527f4d6f72706865725472616465456e67696e653a205573657220697320626c6f6360448201526f6b65642066726f6d2054726164696e6760801b6064820152608401610cd7565b61145587612ef0565b5f8781526039602052604090206004015460ff161561147c5761147787613048565b611485565b61148587613218565b5f60395f8981526020019081526020015f205f015f9054906101000a90046001600160a01b031690505f60395f8a81526020019081526020015f2060010154905060395f8a81526020019081526020015f205f8082015f6101000a8154906001600160a01b030219169055600182015f9055600282015f9055600382015f9055600482015f6101000a81549060ff0219169055600582015f9055600682015f9055600782015f9055600882015f9055600982015f9055600a82015f9055600b82015f8082015f9055600182015f9055600282015f9055600382015f9055600482015f9055600582015f9055600682015f9055600782015f9055600882015f9055600982015f9055505050507f696a3d28d7b4bcfc9cbfef719a03218d7a502cda20d01f9ef8086249e81654928989898989603a5f896001600160a01b03166001600160a01b031681526020019081526020015f205f8881526020019081526020015f2060010154603a5f8a6001600160a01b03166001600160a01b031681526020019081526020015f205f8981526020019081526020015f2060020154603a5f8b6001600160a01b03166001600160a01b031681526020019081526020015f205f8a81526020019081526020015f2060030154603a5f8c6001600160a01b03166001600160a01b031681526020019081526020015f205f8b81526020019081526020015f2060040154603a5f8d6001600160a01b03166001600160a01b031681526020019081526020015f205f8c81526020019081526020015f2060050154603a5f8e6001600160a01b03166001600160a01b031681526020019081526020015f205f8d81526020019081526020015f206006015460405161175a9b9a999897969594939291909a8b5260208b019990995260408a01979097526060890195909552608088019390935260a087019190915260c086015260e08501526101008401526101208301526101408201526101600190565b60405180910390a16001600160a01b039091165f908152603a6020908152604080832093835292815290829020825161010081018452815481526001820154928101929092526002810154928201929092526003820154606082015260048201546080820152600582015460a0820152600682015460c082015260079091015460e082015291505095945050505050565b5f6117f46133ed565b905090565b5f87876305f5e10081101561180f57506305f5e1005b8315155f0361181e5750859050835b8661182b83835f8c611db4565b11611838575f9250611907565b6305f5e1006118478282615994565b61185190846159a7565b61185b91906159d6565b92506305f5e10061186c82896159a7565b61187691906159d6565b6118809084615981565b92508315156001036118e1576305f5e10061189b82886159a7565b6118a591906159d6565b6118af9084615981565b92505f6118bd83838b611ad3565b90508381116118d7576118d08185615981565b93506118db565b5f93505b50611907565b6305f5e1006118f086886159a7565b6118fa91906159d6565b6119049084615994565b92505b5050979650505050505050565b5f81815260396020526040812060148101829055600f01541561196d575f8281526039602052604090206011810154601382015460099092015461195b9290600190611db4565b5f838152603960205260409020601401555b5f82815260396020526040902060100154156119bf575f828152603960205260408120601181015460138201546009909201546119ad9391929190611db4565b5f838152603960205260409020601401555b505f9081526039602052604090206014015490565b5f87876305f5e1008110156119ea57506305f5e1005b8315155f036119f95750859050835b611a06828260018b611db4565b8711611a14575f9250611907565b6305f5e100611a238183615981565b611a2d90846159a7565b611a3791906159d6565b9250826305f5e100611a49838a6159a7565b611a5391906159d6565b6118809190615981565b611a678382613490565b611a728484846137d5565b611aa2826080015185855f015186602001518760400151886060015189608001518a60a001518b60c001516139b8565b50505050565b5f828152603b602090815260408083206001600160a01b038516845260010190915290205492915050565b5f806036546103e884611ae691906159d6565b1015611aff576103e8603654611afc91906159d6565b92505b611b0d6305f5e10085615981565b611b1790866159a7565b905062015180611b296103e8856159d6565b611b339042615981565b611b3d91906159d6565b611b48906001615994565b611b5290826159a7565b90506305f5e10080611b696102af6103e8876159d6565b611b7390846159a7565b611b7d91906159d6565b610b3391906159d6565b60335460408051630140cb6560e51b815290515f80516020615c62833981519152926001600160a01b0316916328196ca09160048083019260209291908290030181865afa158015611bdb573d5f803e3d5ffd5b505050506040513d601f19601f82011682018060405250810190611bff91906159f5565b6001600160a01b03166391d1485482336040516001600160e01b031960e085901b16815260048101929092526001600160a01b03166024820152604401602060405180830381865afa158015611c57573d5f803e3d5ffd5b505050506040513d601f19601f82011682018060405250810190611c7b9190615a10565b611c975760405162461bcd60e51b8152600401610cd790615a2b565b5f8381526038602090815260409182902084905581518581529081018490527f3cf30f15febef0d3f8e86318070db2c80d03fd14e8406d326aab41cb043f18399101610f15565b6040805160609a909a1b6bffffffffffffffffffffffff19166020808c019190915260348b019990995260548a01979097526074890195909552609488019390935260b487019190915260d486015260f485015261011480850191909152815180850390910181526101349093019052815191012090565b5f603d545f03611d6557505f90565b5f6001603d54611d759190615981565b90505b5f818152603c60205260409020544210611da2575f908152603c6020526040902060010154919050565b80611dac81615a71565b915050611d78565b5f805f611dc2878786611ad3565b90505f86611dd46305f5e100846159a7565b611dde91906159d6565b9050851515600103611e205786611df96305f5e10082615981565b611e03908a6159a7565b611e0d91906159d6565b9250611e198184615994565b9250611e52565b86611e2f6305f5e10082615994565b611e39908a6159a7565b611e4391906159d6565b9250611e4f8184615981565b92505b50909695505050505050565b6001600160a01b0381165f908152603e6020526040812054610bc1565b60335460408051630140cb6560e51b815290515f80516020615c62833981519152926001600160a01b0316916328196ca09160048083019260209291908290030181865afa158015611ecf573d5f803e3d5ffd5b505050506040513d601f19601f82011682018060405250810190611ef391906159f5565b6001600160a01b03166391d1485482336040516001600160e01b031960e085901b16815260048101929092526001600160a01b03166024820152604401602060405180830381865afa158015611f4b573d5f803e3d5ffd5b505050506040513d601f19601f82011682018060405250810190611f6f9190615a10565b611f8b5760405162461bcd60e51b8152600401610cd790615a2b565b603380546001600160a01b0319166001600160a01b0384169081179091556040519081527f978c711532bae8c58f353b0f3c7f3a0dfe600d9ae9a81818f2ad2919b88e1990906020015b60405180910390a15050565b5f5f80516020615c4283398151915260335f9054906101000a90046001600160a01b03166001600160a01b03166328196ca06040518163ffffffff1660e01b8152600401602060405180830381865afa158015612040573d5f803e3d5ffd5b505050506040513d601f19601f8201168201806040525081019061206491906159f5565b6001600160a01b03166391d1485482336040516001600160e01b031960e085901b16815260048101929092526001600160a01b03166024820152604401602060405180830381865afa1580156120bc573d5f803e3d5ffd5b505050506040513d601f19601f820116820180604052508101906120e09190615a10565b6120fc5760405162461bcd60e51b8152600401610cd790615a2b565b6305f5e1008310156121805760405162461bcd60e51b815260206004820152604160248201527f4d6f72706865725472616465456e67696e653a206c6576657261676520746f6f60448201527f20736d616c6c2e204c6576657261676520707265636973696f6e2069732031656064820152600760fb1b608482015260a401610cd7565b60335f9054906101000a90046001600160a01b03166001600160a01b0316637c995e916040518163ffffffff1660e01b8152600401602060405180830381865afa1580156121d0573d5f803e3d5ffd5b505050506040513d601f19601f820116820180604052508101906121f49190615a86565b8311156122695760405162461bcd60e51b815260206004820152603e60248201527f4d6f72706865725472616465456e67696e653a206c657665726167652065786360448201527f65656473206d6178696d756d20616c6c6f776564206c657665726167652e00006064820152608401610cd7565b6122768888888888613af8565b841561230f5783156122cb576001600160a01b0388165f908152603a602090815260408083208a845290915290206002015486146122c65760405162461bcd60e51b8152600401610cd790615a9d565b61230f565b6001600160a01b0388165f908152603a602090815260408083208a8452909152902060010154861461230f5760405162461bcd60e51b8152600401610cd790615a9d565b60348054905f61231e836159be565b9091555050603480546040516bffffffffffffffffffffffff1960608c901b166020820152439281019290925260548201899052607482018890526094820187905285151560f81b60b483015260b5820185905260d582015260f50160408051808303601f19018152828252805160209182012060358190555f8181526039835283902080546001600160a01b0319166001600160a01b038e169081178255600182018d9055600282018c9055600382018b905560048201805460ff19168b151590811790915560089092018990558286529285018b905292840189905260608401929092526080830186905290935088917fd5dec9e768ba83c154ee9ecf7a0c145c8e7ee75e1cc4af2d271a1f9c93bb39469060a00160405180910390a36124478286613da5565b509695505050505050565b60335460408051630140cb6560e51b815290515f80516020615c62833981519152926001600160a01b0316916328196ca09160048083019260209291908290030181865afa1580156124a6573d5f803e3d5ffd5b505050506040513d601f19601f820116820180604052508101906124ca91906159f5565b6001600160a01b03166391d1485482336040516001600160e01b031960e085901b16815260048101929092526001600160a01b03166024820152604401602060405180830381865afa158015612522573d5f803e3d5ffd5b505050506040513d601f19601f820116820180604052508101906125469190615a10565b6125625760405162461bcd60e51b8152600401610cd790615a2b565b506037805460ff1916911515919091179055565b60335460408051630140cb6560e51b815290517fd7753d4b699289191763bde82d59e1de5c3c491e8ee2ca272786ed78707b323a926001600160a01b0316916328196ca09160048083019260209291908290030181865afa1580156125dd573d5f803e3d5ffd5b505050506040513d601f19601f8201168201806040525081019061260191906159f5565b6001600160a01b03166391d1485482336040516001600160e01b031960e085901b16815260048101929092526001600160a01b03166024820152604401602060405180830381865afa158015612659573d5f803e3d5ffd5b505050506040513d601f19601f8201168201806040525081019061267d9190615a10565b6126995760405162461bcd60e51b8152600401610cd790615a2b565b6126aa8a8a8a8a8a8a8a8a8a6139b8565b50505050505050505050565b60335460408051630140cb6560e51b815290515f80516020615c62833981519152926001600160a01b0316916328196ca09160048083019260209291908290030181865afa15801561270a573d5f803e3d5ffd5b505050506040513d601f19601f8201168201806040525081019061272e91906159f5565b6001600160a01b03166391d1485482336040516001600160e01b031960e085901b16815260048101929092526001600160a01b03166024820152604401602060405180830381865afa158015612786573d5f803e3d5ffd5b505050506040513d601f19601f820116820180604052508101906127aa9190615a10565b6127c65760405162461bcd60e51b8152600401610cd790615a2b565b6127d08242610bc7565b5050565b60335460408051630140cb6560e51b815290515f80516020615c42833981519152926001600160a01b0316916328196ca09160048083019260209291908290030181865afa158015612828573d5f803e3d5ffd5b505050506040513d601f19601f8201168201806040525081019061284c91906159f5565b6001600160a01b03166391d1485482336040516001600160e01b031960e085901b16815260048101929092526001600160a01b03166024820152604401602060405180830381865afa1580156128a4573d5f803e3d5ffd5b505050506040513d601f19601f820116820180604052508101906128c89190615a10565b6128e45760405162461bcd60e51b8152600401610cd790615a2b565b5f838152603960205260409020546001600160a01b03838116911614806129f7575060335f9054906101000a90046001600160a01b03166001600160a01b03166328196ca06040518163ffffffff1660e01b8152600401602060405180830381865afa158015612956573d5f803e3d5ffd5b505050506040513d601f19601f8201168201806040525081019061297a91906159f5565b604051632474521560e21b81525f80516020615c6283398151915260048201526001600160a01b03848116602483015291909116906391d1485490604401602060405180830381865afa1580156129d3573d5f803e3d5ffd5b505050506040513d601f19601f820116820180604052508101906129f79190615a10565b612a755760405162461bcd60e51b815260206004820152604360248201527f4d6f72706865725472616465456e67696e653a206f6e6c792041646d696e697360448201527f747261746f72206f7220757365722063616e2063616e63656c20616e206f726460648201526232b91760e91b608482015260a401610cd7565b5f838152603960205260409020546001600160a01b0316612afe5760405162461bcd60e51b815260206004820152603c60248201527f4d6f72706865725472616465456e67696e653a20756e61626c6520746f20707260448201527f6f636573732c206f7264657220646f6573206e6f742065786973742e000000006064820152608401610cd7565b612b0783612ef0565b5f8381526039602052604080822080546001600160a01b031916815560018101839055600281018390556003810183905560048101805460ff191690556005810183905560068101839055600781018390556008810183905560098101839055600a8101839055600b8101839055600c8101839055600d8101839055600e8101839055600f810183905560108101839055601181018390556012810183905560138101839055601401829055516001600160a01b0384169185917fa6eb7cdc219e1518ced964e9a34e61d68a94e4f1569db3e84256ba981ba527539190a3505050565b5f612bf56001613f0b565b90508015612c0c575f805461ff0019166101001790555b612c14613f8f565b603380546001600160a01b0319166001600160a01b0386161790556037805460ff191684151517905581612c485742612c4a565b815b6036558015611aa2575f805461ff0019169055604051600181527f7f26b83ff96e1f2b6a682f133852f6798a09c465da95921460cefb38474024989060200160405180910390a150505050565b5f8181526039602052604090208054600182015460028301546003840154600490940154612cd4946001600160a01b03909416939060ff16613af8565b50565b5f818152603960209081526040808320805460018201546005909201546001600160a01b03909116808652603a85528386208387529094529190932054919291811115611aa2576001600160a01b0383165f908152603a6020908152604080832085845290915290206001015415612e09575f848152603960209081526040808320600901546001600160a01b0387168452603a8352818420868552909252822060020154612d94928692869290919081806305f5e100816139b8565b5f84815260396020908152604091829020600981015460068201546007909201548451600181529384019190915292820152606081019190915282906001600160a01b038516907fe41babb55b71bb17aa9629797bcd2f80ff29c7c3fe5f8d20b8bf3b08d4e4f9459060800160405180910390a35b6001600160a01b0383165f908152603a6020908152604080832085845290915290206002015415611aa2575f848152603960209081526040808320600901546001600160a01b0387168452603a8352818420868552909252822060010154612e7e9286928692909180806305f5e100816139b8565b5f8481526039602090815260408083206009810154600682015460079092015483519586529385015290830152606082015282906001600160a01b038516907fe41babb55b71bb17aa9629797bcd2f80ff29c7c3fe5f8d20b8bf3b08d4e4f9459060800160405180910390a350505050565b5f818152603960205260409020600a015415612cd4575f818152603960209081526040808320600a0180549390556033548151632192ab5d60e11b815291516001600160a01b039091169263432556ba92600480820193918290030181865afa158015612f5f573d5f803e3d5ffd5b505050506040513d601f19601f82011682018060405250810190612f8391906159f5565b5f83815260396020526040908190205490516340c10f1960e01b81526001600160a01b039182166004820152602481018490529116906340c10f19906044015f604051808303815f87803b158015612fd9575f80fd5b505af1158015612feb573d5f803e3d5ffd5b5050505f838152603960209081526040918290205482518681526001600160a01b03909116918101919091529081018390527fbd3ba1f648c8894f4fca2dbf0a22719b08647d73e153e568d413c6dd6e6cb8619150606001611fd5565b5f8181526039602052604090206002015415613100575f81815260396020818152604080842080546001600160a01b03168552603a835281852060018201548652835290842060029081015494869052929091520154116130c0575f8181526039602052604090206002810154600c90910155613100565b5f81815260396020818152604080842080546001600160a01b03168552603a83528185206001820154865283529084206002015493859052919052600c01555b5f81815260396020818152604080842080546001600160a01b03168552603a83528185206001820154865283529084206002015493859052919052600c015414801561315b57505f8181526039602052604090206003015415155b156131da575f81815260396020526040902060068101546008909101546131ad9190613189426103e86159a7565b5f8581526039602052604081206006810154600782015460089092015490926119d4565b5f828152603960205260409020600301546131c891906159d6565b5f828152603960205260409020600b01555b5f818152603960205260409020600c0154156131f9576131f981613ffb565b5f818152603960205260409020600b015415612cd457612cd481614170565b5f81815260396020526040902060020154156132d3575f81815260396020818152604080842080546001600160a01b03168552603a8352818520600180830154875290845291852090910154938590529190526002015411613291575f8181526039602052604090206002810154600b909101556132d3565b5f81815260396020818152604080842080546001600160a01b03168552603a835281852060018083015487529084529185209091015493859052919052600b01555b5f81815260396020818152604080842080546001600160a01b03168552603a835281852060018083015487529084529185209091015493859052919052600b015414801561333057505f8181526039602052604090206003015415155b156133af575f8181526039602052604090206006810154600890910154613382919061335e426103e86159a7565b5f8581526039602052604081206006810154600782015460089092015490926117f9565b5f8281526039602052604090206003015461339d91906159d6565b5f828152603960205260409020600c01555b5f818152603960205260409020600b0154156133ce576133ce816144e3565b5f818152603960205260409020600c015415612cd457612cd481614642565b604080517f8b73c3c69bb8fe3d512ecc4cf759cc79239f7b179b0ffacaa9a75d522b39400f6020808301919091527f24f2dd2184b86a0b6d9c7400a2b7c44bfe317aa61d7f98ccca7be695d4319024828401527fc89efdaa54c0f20c7adf612882df0950f5a951637e0307cdcb4c672f298b8bc660608301524660808301523060a0808401919091528351808403909101815260c0909201909252805191012090565b80606001514211156134b45760405162461bcd60e51b8152600401610cd790615b20565b5f6135a57fd36c17f27f2cf7d8c38d2624a2d151cda4ee2b61b2d9222812432b2f91d5912c845f015185602001518660400151876060015188608001518960a001518a60c001518a6080015161352a8c608001516001600160a01b03165f908152603e6020526040902080546001810190915590565b6060808e015160408051602081019d909d528c019a909a528a0197909752608089019590955260a088019390935260c087019190915260e08601526101008501526001600160a01b031661012084015261014083015261016082015261018001604051602081830303815290604052805190602001206149ad565b90505f6135bf828460400151855f015186602001516149f9565b905082608001516001600160a01b0316816001600160a01b03161461364c5760405162461bcd60e51b815260206004820152603760248201527f4d6f72706865725472616465456e67696e653a20696e76616c6964207369676e60448201527f617475726520666f7220506f736974696f6e41646d696e0000000000000000006064820152608401610cd7565b60335f9054906101000a90046001600160a01b03166001600160a01b03166328196ca06040518163ffffffff1660e01b8152600401602060405180830381865afa15801561369c573d5f803e3d5ffd5b505050506040513d601f19601f820116820180604052508101906136c091906159f5565b604051632474521560e21b81527fd7753d4b699289191763bde82d59e1de5c3c491e8ee2ca272786ed78707b323a60048201526001600160a01b03838116602483015291909116906391d1485490604401602060405180830381865afa15801561372c573d5f803e3d5ffd5b505050506040513d601f19601f820116820180604052508101906137509190615a10565b611aa25760405162461bcd60e51b815260206004820152604a60248201527f4d6f72706865725472616465456e67696e653a205065726d697373696f6e206460448201527f656e6965642c206e6f74206120706f736974696f6e2061646d696e20726f6c656064820152691030ba3a30b1b432b21760b11b608482015260a401610cd7565b80606001514211156137f95760405162461bcd60e51b8152600401610cd790615b20565b5f61386f7fd36c17f27f2cf7d8c38d2624a2d151cda4ee2b61b2d9222812432b2f91d5912c845f015185602001518660400151876060015188608001518960a001518a60c001518a6080015161352a8c608001516001600160a01b03165f908152603e6020526040902080546001810190915590565b90505f613889828460400151855f015186602001516149f9565b905082608001516001600160a01b0316816001600160a01b0316146139085760405162461bcd60e51b815260206004820152602f60248201527f4d6f72706865725472616465456e67696e653a20696e76616c6964207369676e60448201526e30ba3ab932903337b91027bbb732b960891b6064820152608401610cd7565b5f6139358287875f0151886020015189604001518a606001518b608001518c60a001518d60c00151611cde565b90508460e0015181146139b05760405162461bcd60e51b815260206004820152603960248201527f4d6f72706865725472616465456e67696e653a20506f736974696f6e2048617360448201527f68206e6f74206d61746368696e672c2061626f7274696e672e000000000000006064820152608401610cd7565b505050505050565b6001600160a01b0389165f908152603a602090815260408083208b845290915290208781556001810187905560028101869055600381018590556004810184905560058101839055600601819055613a17898989898989898989611cde565b6001600160a01b038a165f908152603a602090815260408083208c845290915290206007015585151580613a4a57505f85115b15613a5e57613a59888a614a1f565b613a68565b613a68888a614a6e565b6001600160a01b0389165f818152603a602090815260408083208c84528252918290206007015482518b81529182018a9052918101889052606081018790526080810186905260a0810185905260c081018490528a9291907f35ea872e77adbec19df83a66765d5bdc0adfe73d9ada9518cb384242ddb40d5d9060e00160405180910390a4505050505050505050565b8115613bf657603354604051634a4cce9760e01b8152600481018690526001600160a01b0390911690634a4cce9790602401602060405180830381865afa158015613b45573d5f803e3d5ffd5b505050506040513d601f19601f82011682018060405250810190613b699190615a10565b1515600114613bf15760405162461bcd60e51b815260206004820152604860248201527f4d6f72706865725472616465456e67696e653a206d61726b657420756e6b6e6f60448201527f776e206f722063757272656e746c79206e6f7420656e61626c656420666f72206064820152673a3930b234b7339760c11b608482015260a401610cd7565b613d9e565b603354604051634a4cce9760e01b8152600481018690526001600160a01b0390911690634a4cce9790602401602060405180830381865afa158015613c3d573d5f803e3d5ffd5b505050506040513d601f19601f82011682018060405250810190613c619190615a10565b15155f03613d9e575f8481526038602052604081205411613d105760405162461bcd60e51b815260206004820152605a60248201527f4d6f72706865725472616465456e67696e653a2043616e277420636c6f73652060448201527f6120706f736974696f6e2c206d61726b6574206e6f742061637469766520616e60648201527f6420636c6f73696e67207072696365206e6f74206c6f636b6564000000000000608482015260a401610cd7565b8015613d5a576001600160a01b0385165f908152603a602090815260408083208784529091529020600101548314613bf15760405162461bcd60e51b8152600401610cd790615b6f565b6001600160a01b0385165f908152603a602090815260408083208784529091529020600101548314613d9e5760405162461bcd60e51b8152600401610cd790615b6f565b5050505050565b60375460ff168015613db657505f81115b156127d05760335f9054906101000a90046001600160a01b03166001600160a01b031663432556ba6040518163ffffffff1660e01b8152600401602060405180830381865afa158015613e0b573d5f803e3d5ffd5b505050506040513d601f19601f82011682018060405250810190613e2f91906159f5565b5f8381526039602052604090819020549051632770a7eb60e21b81526001600160a01b03918216600482015260248101849052911690639dc29fac906044015f604051808303815f87803b158015613e85575f80fd5b505af1158015613e97573d5f803e3d5ffd5b5050505f838152603960209081526040918290205482518681526001600160a01b03909116918101919091529081018390527f558e795083bf3802836b1f3eef9c404a698512ee98b4193781cede9b89fc64d0915060600160405180910390a15f91825260396020526040909120600a0155565b5f8054610100900460ff1615613f50578160ff166001148015613f2d5750303b155b613f495760405162461bcd60e51b8152600401610cd790615bdf565b505f919050565b5f5460ff808416911610613f765760405162461bcd60e51b8152600401610cd790615bdf565b505f805460ff191660ff92909216919091179055600190565b5f54610100900460ff16613ff95760405162461bcd60e51b815260206004820152602b60248201527f496e697469616c697a61626c653a20636f6e7472616374206973206e6f74206960448201526a6e697469616c697a696e6760a81b6064820152608401610cd7565b565b5f81815260396020908152604080832080546001820154600c909201546001600160a01b03909116808652603a8552838620838752909452918420600201549293909290918291829182916140509190615981565b90505f61405c88614b07565b6001600160a01b0388165f908152603a602090815260408083208a84528252808320600201548c84526039909252909120600c015491925090036140ac575f94505f93506305f5e10092506140ef565b6001600160a01b0387165f908152603a6020908152604080832089845290915290206003810154600482015460059092015490965090945092506140ef88614c05565b5f888152603960208181526040808420600d8101859055600e810186905580546001600160a01b03168552603a8352818520600180830154875290845291852090910154938c9052919052600f81019190915560108101839055601181018690556012810185905560130183905561416688614c9f565b5050505050505050565b5f81815260396020908152604080832080546001909101546001600160a01b03909116808552603a8452828520828652909352908320600501549192909181906305f5e1008110156141c357506305f5e1005b6141d16305f5e10082615981565b5f878152603960209081526040808320600601546001600160a01b038a168452603a8352818420898552909252909120600301549192509061421390836159a7565b61421d91906159d6565b6001600160a01b0386165f908152603a60209081526040808320888452909152902060050154909150811015614285576001600160a01b0385165f908152603a6020908152604080832087845290915290206005015461427e908290615981565b9050614288565b505f5b6001600160a01b0385165f908152603a602090815260408083208784529091528120600101546305f5e100906142be90846159a7565b6142c891906159d6565b6001600160a01b0387165f908152603a602090815260408083208984529091529020600501549091506142fc9082906159a7565b5f888152603960205260409020600b810154600890910154919450614320916159a7565b61432a9084615994565b5f888152603960205260409020600b01549093506143489082615994565b61435290846159d6565b6001600160a01b0387165f908152603a602090815260408083208984529091529020600181015460049091015491945061438b916159a7565b5f888152603960205260409020600b8101546007909101549195506143af916159a7565b6143b99085615994565b5f888152603960205260409020600b01549094506143d79082615994565b6143e190856159d6565b5f88815260396020526040902060088101546007820154600b909201549296506305f5e100929091614412916159a7565b61441c91906159a7565b61442691906159d6565b5f8881526039602052604090206006810154600b9091015461444891906159a7565b6144529190615994565b5f888152603960205260408120600d810192909255600e820155600b015461447a9082615994565b5f888152603960208181526040808420600f8101959095556001600160a01b038b168452603a82528084208a85528252832060020154928b905252601082015560068101546011820155601281018590556013018390556144da87614c9f565b50505050505050565b5f8181526039602090815260408083208054600180830154600b909301546001600160a01b03909216808752603a86528487208488529095529285209092015492939092909161453291615981565b90505f61453e85614b07565b6001600160a01b0385165f908152603a6020908152604080832087845282528083206001015489845260399092528220600b01549293509091829182910361459157505f91508190506305f5e1006145d2565b5050506001600160a01b0384165f908152603a602090815260408083208684529091529020600381015460048201546005909201549091906145d288614c05565b5f888152603960208181526040808420600d8101859055600e8101899055600f81018a90556001600160a01b038c168552603a83528185208b8652835290842060020154938c90529190526010810191909155601181018490556012810183905560130181905561416688614c9f565b5f81815260396020908152604080832080546001909101546001600160a01b03909116808552603a8452828520828652909352908320600501549192909181906305f5e10081101561469557506305f5e1005b6146a36305f5e10082615994565b5f878152603960209081526040808320600601546001600160a01b038a168452603a835281842089855290925290912060030154919250906146e590836159a7565b6146ef91906159d6565b6001600160a01b0386165f908152603a60209081526040808320888452909152902060050154909150811115614756576001600160a01b0385165f908152603a6020908152604080832087845290915290206005015461474f9082615981565b9050614759565b505f5b6001600160a01b0385165f908152603a602090815260408083208784529091528120600201546305f5e1009061478f90846159a7565b61479991906159d6565b6001600160a01b0387165f908152603a602090815260408083208984529091529020600501549091506147cd9082906159a7565b5f888152603960205260409020600c8101546008909101549194506147f1916159a7565b6147fb9084615994565b5f888152603960205260409020600c01549093506148199082615994565b61482390846159d6565b6001600160a01b0387165f908152603a602090815260408083208984529091529020600281015460049091015491945061485c916159a7565b5f888152603960205260409020600c810154600790910154919550614880916159a7565b61488a9085615994565b5f888152603960205260409020600c01549094506148a89082615994565b6148b290856159d6565b5f88815260396020526040902060088101546007820154600c909201549296506305f5e1009290916148e3916159a7565b6148ed91906159a7565b6148f791906159d6565b5f8881526039602052604090206006810154600c9091015461491991906159a7565b6149239190615994565b5f888152603960208181526040808420600d810195909555600e85018490556001600160a01b038b168452603a82528084208a85528252832060010154928b905252600f820155600c01546149789082615994565b5f888152603960205260409020601081019190915560068101546011820155601281018590556013018390556144da87614c9f565b5f610bc16149b96133ed565b8360405161190160f01b602082015260228101839052604281018290525f9060620160405160208183030381529060405280519060200120905092915050565b5f805f614a08878787876151c6565b91509150614a15816152ab565b5095945050505050565b5f614a2a8383611aa8565b9050805f03614a69575f838152603b6020526040812054614a4c906001615994565b5f858152603b602052604090208190559050611aa2848483615460565b505050565b5f614a798383611aa8565b5f848152603b602090815260408083208054808552600290910190925290912054919250906001600160a01b03168215613d9e5781831015614acb57614ac0858285615472565b614acb8582856154ae565b614ad6855f84615472565b614ae185855f6154ae565b8115613d9e57613d9e85614af6600185615981565b5f918252603b602052604090912055565b5f818152603960205260408120805460018201546004909201546001600160a01b039091169190839060ff1615158103614b9d575f858152603960209081526040808320600b8101546001600160a01b0388168552603a845282852087865290935292206003810154600582015491546006850154600790950154939850614b969491939091908360016119d4565b9050614bfb565b5f858152603960209081526040808320600c8101546001600160a01b0388168552603a845282852087865290935292206003810154600582015491546006850154600790950154939850614bf89491939091908360016117f9565b90505b610b3381856159a7565b5f818152603960208181526040808420805460018201546001600160a01b03909116808752603a8552838720828852855283872054968890529484526009909101548251878152938401529082018490529192907f8c75318cfd6a0eae2329289b6827fd382e7324865986be09126ce67fc55bedc29060600160405180910390a15f93845260396020526040909320600901929092555050565b5f81815260396020908152604091829020600d810154600e909101546033548451632192ab5d60e11b81529451929491936001600160a01b039091169263432556ba9260048082019392918290030181865afa158015614d01573d5f803e3d5ffd5b505050506040513d601f19601f82011682018060405250810190614d2591906159f5565b5f84815260396020526040908190205490516370a0823160e01b81526001600160a01b0391821660048201529116906370a0823190602401602060405180830381865afa158015614d78573d5f803e3d5ffd5b505050506040513d601f19601f82011682018060405250810190614d9c9190615a86565b614da69190615994565b1015614e045760405162461bcd60e51b815260206004820152602760248201527f4d6f72706865725472616465456e67696e653a20696e73756666696369656e7460448201526610333ab732399760c91b6064820152608401610cd7565b614e0d81611914565b505f818152603960205260409020600d810154600e909101541115614e6f575f818152603960205260408120600d810154600e909101805491929091614e54908490615981565b90915550505f818152603960205260408120600d0155614eae565b5f818152603960205260408120600e810154600d909101805491929091614e97908490615981565b90915550505f818152603960205260408120600e01555b5f818152603960205260409020600e015415614faf5760335f9054906101000a90046001600160a01b03166001600160a01b031663af6976c36040518163ffffffff1660e01b8152600401602060405180830381865afa158015614f14573d5f803e3d5ffd5b505050506040513d601f19601f82011682018060405250810190614f3891906159f5565b5f82815260396020526040908190208054600e9091015491516340c10f1960e01b81526001600160a01b039182166004820152602481019290925291909116906340c10f19906044015f604051808303815f87803b158015614f98575f80fd5b505af1158015614faa573d5f803e3d5ffd5b505050505b5f818152603960205260409020600d0154156150b05760335f9054906101000a90046001600160a01b03166001600160a01b031663432556ba6040518163ffffffff1660e01b8152600401602060405180830381865afa158015615015573d5f803e3d5ffd5b505050506040513d601f19601f8201168201806040525081019061503991906159f5565b5f82815260396020526040908190208054600d909101549151632770a7eb60e21b81526001600160a01b03918216600482015260248101929092529190911690639dc29fac906044015f604051808303815f87803b158015615099575f80fd5b505af11580156150ab573d5f803e3d5ffd5b505050505b5f818152603960205260409020805460018201546009830154600f84015460108501546011860154601287015460138801546014909801546150fe986001600160a01b0390981697906139b8565b5f81815260396020908152604091829020805460018201546009830154600f84015460108501546011860154601287015460138801546014890154600e8a0154600d909a01548c516001600160a01b03909a168a529a890197909752998701949094526060860192909252608085015260a084015260c083015260e08201949094526101008101939093526101208301526101408201527f39cf7e0047b8651259e011d0b3ed8fc2c3dc2e49ed041f1651f06429698c1c94906101600160405180910390a150565b5f807f7fffffffffffffffffffffffffffffff5d576e7357a4501ddfe92f46681b20a08311156151fb57505f905060036152a2565b8460ff16601b1415801561521357508460ff16601c14155b1561522357505f905060046152a2565b604080515f8082526020820180845289905260ff881692820192909252606081018690526080810185905260019060a0016020604051602081039080840390855afa158015615274573d5f803e3d5ffd5b5050604051601f1901519150506001600160a01b03811661529c575f600192509250506152a2565b91505f90505b94509492505050565b5f8160048111156152be576152be615c2d565b036152c65750565b60018160048111156152da576152da615c2d565b036153275760405162461bcd60e51b815260206004820152601860248201527f45434453413a20696e76616c6964207369676e617475726500000000000000006044820152606401610cd7565b600281600481111561533b5761533b615c2d565b036153885760405162461bcd60e51b815260206004820152601f60248201527f45434453413a20696e76616c6964207369676e6174757265206c656e677468006044820152606401610cd7565b600381600481111561539c5761539c615c2d565b036153f45760405162461bcd60e51b815260206004820152602260248201527f45434453413a20696e76616c6964207369676e6174757265202773272076616c604482015261756560f01b6064820152608401610cd7565b600481600481111561540857615408615c2d565b03612cd45760405162461bcd60e51b815260206004820152602260248201527f45434453413a20696e76616c6964207369676e6174757265202776272076616c604482015261756560f01b6064820152608401610cd7565b61546b8383836154ae565b614a698383835b5f928352603b602090815260408085209285526002909201905290912080546001600160a01b0319166001600160a01b03909216919091179055565b5f928352603b602090815260408085206001600160a01b03909416855260019093019052912055565b6040518061010001604052805f81526020015f81526020015f81526020015f81526020015f81526020015f81526020015f81526020015f80191681525090565b5f60208284031215615527575f80fd5b5035919050565b6001600160a01b0381168114612cd4575f80fd5b5f8060408385031215615553575f80fd5b823561555e8161552e565b946020939093013593505050565b5f806040838503121561557d575f80fd5b50508035926020909101359150565b5f805f805f60a086880312156155a0575f80fd5b505083359560208501359550604085013594606081013594506080013592509050565b8015158114612cd4575f80fd5b5f805f805f805f60e0888a0312156155e6575f80fd5b873596506020880135955060408801359450606088013593506080880135925060a0880135915060c088013561561b816155c3565b8091505092959891949750929550565b604051610100810167ffffffffffffffff8111828210171561565b57634e487b7160e01b5f52604160045260245ffd5b60405290565b5f60a08284031215615671575f80fd5b60405160a0810181811067ffffffffffffffff821117156156a057634e487b7160e01b5f52604160045260245ffd5b80604052508091508235815260208301356020820152604083013560ff811681146156c9575f80fd5b60408201526060838101359082015260808301356156e68161552e565b6080919091015292915050565b5f805f80848603610260811215615708575f80fd5b8535945061010080601f198301121561571f575f80fd5b61572761562b565b91506020870135825260408701356020830152606087013560408301526080870135606083015260a0870135608083015260c087013560a083015260e087013560c08301528087013560e08301525080935050615788866101208701615661565b9150615798866101c08701615661565b905092959194509250565b5f80604083850312156157b4575f80fd5b8235915060208301356157c68161552e565b809150509250929050565b5f805f606084860312156157e3575f80fd5b505081359360208301359350604090920135919050565b5f805f805f805f805f6101208a8c031215615813575f80fd5b893561581e8161552e565b9b60208b01359b5060408b01359a60608101359a506080810135995060a0810135985060c0810135975060e081013596506101000135945092505050565b5f805f806080858703121561586f575f80fd5b84359350602085013592506040850135615888816155c3565b9396929550929360600135925050565b5f602082840312156158a8575f80fd5b81356158b38161552e565b9392505050565b5f805f805f8060c087890312156158cf575f80fd5b86356158da8161552e565b955060208701359450604087013593506060870135925060808701356158ff816155c3565b8092505060a087013590509295509295509295565b5f60208284031215615924575f80fd5b81356158b3816155c3565b5f805f60608486031215615941575f80fd5b833561594c8161552e565b9250602084013561595c816155c3565b929592945050506040919091013590565b634e487b7160e01b5f52601160045260245ffd5b81810381811115610bc157610bc161596d565b80820180821115610bc157610bc161596d565b8082028115828204841417610bc157610bc161596d565b5f600182016159cf576159cf61596d565b5060010190565b5f826159f057634e487b7160e01b5f52601260045260245ffd5b500490565b5f60208284031215615a05575f80fd5b81516158b38161552e565b5f60208284031215615a20575f80fd5b81516158b3816155c3565b60208082526026908201527f4d6f72706865725472616465456e67696e653a205065726d697373696f6e206460408201526532b734b2b21760d11b606082015260800190565b5f81615a7f57615a7f61596d565b505f190190565b5f60208284031215615a96575f80fd5b5051919050565b6020808252605f908201527f4d6f72706865725472616465456e67696e653a2043616e27742070617274696160408201527f6c6c7920636c6f7365206120706f736974696f6e20616e64206f70656e20616e60608201527f6f74686572206f6e6520696e206f70706f7369746520646972656374696f6e00608082015260a00190565b6020808252602f908201527f4d6f72706865725472616465456e67696e653a2065787069726564206465616460408201526e3634b73290333937b69037bbb732b960891b606082015260800190565b6020808252604a908201527f4d6f72706865725472616465456e67696e653a2044656163746976617465642060408201527f6d61726b6574206f72646572206e6565647320616c6c2073686172657320746f6060820152690818994818db1bdcd95960b21b608082015260a00190565b6020808252602e908201527f496e697469616c697a61626c653a20636f6e747261637420697320616c72656160408201526d191e481a5b9a5d1a585b1a5e995960921b606082015260800190565b634e487b7160e01b5f52602160045260245ffdfe68e79a7bf1e0bc45d0a330c573bc367f9cf464fd326078812f301165fbda4ef1e5a0b4d50f56047f84728557fedbda92f956391bc9d5c762e8461996dd8e7ad7a2646970667358221220d21eec8cc8332a736b1991d0931c1e3820a10e73c337d32dedc3248d3950999364736f6c63430008140033",
  "immutableReferences": {},
  "source": "//SPDX-License-Identifier: GPLv3\r\npragma solidity ^0.8.11;\r\n\r\nimport \"@openzeppelin/contracts-upgradeable/proxy/utils/Initializable.sol\";\r\nimport \"@openzeppelin/contracts-upgradeable/utils/ContextUpgradeable.sol\";\r\n\r\nimport \"@openzeppelin/contracts-upgradeable/utils/cryptography/draft-EIP712Upgradeable.sol\";\r\nimport \"@openzeppelin/contracts-upgradeable/utils/cryptography/ECDSAUpgradeable.sol\";\r\nimport \"@openzeppelin/contracts-upgradeable/utils/CountersUpgradeable.sol\";\r\n\r\nimport \"./MorpherState.sol\";\r\nimport \"./MorpherToken.sol\";\r\nimport \"./MorpherStaking.sol\";\r\nimport \"./MorpherUserBlocking.sol\";\r\nimport \"./MorpherMintingLimiter.sol\";\r\nimport \"./MorpherAccessControl.sol\";\r\n\r\n// ----------------------------------------------------------------------------------\r\n// Tradeengine of the Morpher platform\r\n// Creates and processes orders, and computes the state change of portfolio.\r\n// Needs writing/reading access to/from Morpher State. Order objects are stored locally,\r\n// portfolios are stored in state.\r\n// ----------------------------------------------------------------------------------\r\n\r\ncontract MorpherTradeEngine is Initializable, ContextUpgradeable {\r\n\tMorpherState public morpherState;\r\n\r\n\t/**\r\n\t * Known Roles to Trade Engine\r\n\t */\r\n\r\n\tbytes32 public constant ADMINISTRATOR_ROLE = keccak256(\"ADMINISTRATOR_ROLE\");\r\n\tbytes32 public constant ORACLE_ROLE = keccak256(\"ORACLE_ROLE\");\r\n\tbytes32 public constant POSITIONADMIN_ROLE = keccak256(\"POSITIONADMIN_ROLE\"); //can set and modify positions\r\n\tbytes32 public constant _HASHED_NAME = keccak256(\"MorpherTradeEngine\");\r\n\tbytes32 public constant _HASHED_VERSION = keccak256(\"1\");\r\n\r\n\t// ----------------------------------------------------------------------------\r\n\t// Precision of prices and leverage\r\n\t// ----------------------------------------------------------------------------\r\n\tuint256 constant PRECISION = 10 ** 8;\r\n\tuint256 public orderNonce;\r\n\tbytes32 public lastOrderId;\r\n\tuint256 public deployedTimeStamp;\r\n\r\n\tbool public escrowOpenOrderEnabled;\r\n\r\n\tstruct InterestRate {\r\n\t\tuint256 validFrom;\r\n\t\tuint256 rate;\r\n\t}\r\n\r\n\tstruct PriceLock {\r\n\t\tuint lockedPrice;\r\n\t}\r\n\t//we're locking positions in for this price at a market marketId;\r\n\tmapping(bytes32 => PriceLock) public priceLockDeactivatedMarket;\r\n\r\n\t// ----------------------------------------------------------------------------\r\n\t// Order struct contains all order specific varibles. Variables are completed\r\n\t// during processing of trade. State changes are saved in the order struct as\r\n\t// well, since local variables would lead to stack to deep errors *sigh*.\r\n\t// ----------------------------------------------------------------------------\r\n\tstruct order {\r\n\t\taddress userId;\r\n\t\tbytes32 marketId;\r\n\t\tuint256 closeSharesAmount;\r\n\t\tuint256 openMPHTokenAmount;\r\n\t\tbool tradeDirection; // true = long, false = short\r\n\t\tuint256 liquidationTimestamp;\r\n\t\tuint256 marketPrice;\r\n\t\tuint256 marketSpread;\r\n\t\tuint256 orderLeverage;\r\n\t\tuint256 timeStamp;\r\n\t\tuint256 orderEscrowAmount;\r\n\t\tOrderModifier modifyPosition;\r\n\t}\r\n\r\n\tstruct OrderModifier {\r\n\t\tuint256 longSharesOrder;\r\n\t\tuint256 shortSharesOrder;\r\n\t\tuint256 balanceDown;\r\n\t\tuint256 balanceUp;\r\n\t\tuint256 newLongShares;\r\n\t\tuint256 newShortShares;\r\n\t\tuint256 newMeanEntryPrice;\r\n\t\tuint256 newMeanEntrySpread;\r\n\t\tuint256 newMeanEntryLeverage;\r\n\t\tuint256 newLiquidationPrice;\r\n\t}\r\n\r\n\tmapping(bytes32 => order) public orders;\r\n\r\n\t// ----------------------------------------------------------------------------\r\n\t// Position struct records virtual futures\r\n\t// ----------------------------------------------------------------------------\r\n\tstruct position {\r\n\t\tuint256 lastUpdated;\r\n\t\tuint256 longShares;\r\n\t\tuint256 shortShares;\r\n\t\tuint256 meanEntryPrice;\r\n\t\tuint256 meanEntrySpread;\r\n\t\tuint256 meanEntryLeverage;\r\n\t\tuint256 liquidationPrice;\r\n\t\tbytes32 positionHash;\r\n\t}\r\n\r\n\t// ----------------------------------------------------------------------------\r\n\t// A portfolio is an address specific collection of postions\r\n\t// ----------------------------------------------------------------------------\r\n\tmapping(address => mapping(bytes32 => position)) public portfolio;\r\n\r\n\t// ----------------------------------------------------------------------------\r\n\t// Record all addresses that hold a position of a market, needed for clean stock splits\r\n\t// ----------------------------------------------------------------------------\r\n\tstruct hasExposure {\r\n\t\tuint256 maxMappingIndex;\r\n\t\tmapping(address => uint256) index;\r\n\t\tmapping(uint256 => address) addy;\r\n\t}\r\n\r\n\tmapping(bytes32 => hasExposure) public exposureByMarket;\r\n\r\n\tmapping(uint256 => InterestRate) public interestRates;\r\n\tuint256 public numInterestRates;\r\n\r\n\tusing CountersUpgradeable for CountersUpgradeable.Counter;\r\n\r\n\tmapping(address => CountersUpgradeable.Counter) private _nonces;\r\n\r\n    bytes32 public constant DOMAIN_TYPE_HASH =\r\n\t\tkeccak256(\"EIP712Domain(string name,string version,uint256 chainId,address verifyingContract)\");\r\n\r\n\tbytes32 public constant POSITION_TYPE_HASH =\r\n\t\tkeccak256(\r\n\t\t\t\"Position(uint256 lastUpdated,uint256 longShares,uint256 shortShares,uint256 meanEntryPrice,uint256 meanEntrySpread,uint256 meanEntryLeverage,uint256 liquidationPrice,bytes32 positionHash)\"\r\n\t\t);\r\n\r\n\tstruct EIP712Signature {\r\n\t\tbytes32 r;\r\n\t\tbytes32 s;\r\n\t\tuint8 v;\r\n\t\tuint256 deadline;\r\n\t\taddress signer;\r\n\t}\r\n\r\n\t// ----------------------------------------------------------------------------\r\n\t// Events\r\n\t// Order created/processed events are fired by MorpherOracle.\r\n\t// ----------------------------------------------------------------------------\r\n\r\n\tevent PositionLiquidated(\r\n\t\taddress indexed _address,\r\n\t\tbytes32 indexed _marketId,\r\n\t\tbool _longPosition,\r\n\t\tuint256 _timeStamp,\r\n\t\tuint256 _marketPrice,\r\n\t\tuint256 _marketSpread\r\n\t);\r\n\r\n\tevent OrderCancelled(bytes32 indexed _orderId, address indexed _address);\r\n\r\n\tevent OrderIdRequested(\r\n\t\tbytes32 _orderId,\r\n\t\taddress indexed _address,\r\n\t\tbytes32 indexed _marketId,\r\n\t\tuint256 _closeSharesAmount,\r\n\t\tuint256 _openMPHTokenAmount,\r\n\t\tbool _tradeDirection,\r\n\t\tuint256 _orderLeverage\r\n\t);\r\n\r\n\tevent OrderProcessed(\r\n\t\tbytes32 _orderId,\r\n\t\tuint256 _marketPrice,\r\n\t\tuint256 _marketSpread,\r\n\t\tuint256 _liquidationTimestamp,\r\n\t\tuint256 _timeStamp,\r\n\t\tuint256 _newLongShares,\r\n\t\tuint256 _newShortShares,\r\n\t\tuint256 _newAverageEntry,\r\n\t\tuint256 _newAverageSpread,\r\n\t\tuint256 _newAverageLeverage,\r\n\t\tuint256 _liquidationPrice\r\n\t);\r\n\r\n\tevent PositionUpdated(\r\n\t\taddress _userId,\r\n\t\tbytes32 _marketId,\r\n\t\tuint256 _timeStamp,\r\n\t\tuint256 _newLongShares,\r\n\t\tuint256 _newShortShares,\r\n\t\tuint256 _newMeanEntryPrice,\r\n\t\tuint256 _newMeanEntrySpread,\r\n\t\tuint256 _newMeanEntryLeverage,\r\n\t\tuint256 _newLiquidationPrice,\r\n\t\tuint256 _mint,\r\n\t\tuint256 _burn\r\n\t);\r\n\r\n\tevent SetPosition(\r\n\t\tbytes32 indexed positionHash,\r\n\t\taddress indexed sender,\r\n\t\tbytes32 indexed marketId,\r\n\t\tuint256 timeStamp,\r\n\t\tuint256 longShares,\r\n\t\tuint256 shortShares,\r\n\t\tuint256 meanEntryPrice,\r\n\t\tuint256 meanEntrySpread,\r\n\t\tuint256 meanEntryLeverage,\r\n\t\tuint256 liquidationPrice\r\n\t);\r\n\r\n\tevent EscrowPaid(bytes32 orderId, address user, uint escrowAmount);\r\n\tevent EscrowReturned(bytes32 orderId, address user, uint escrowAmount);\r\n\r\n\tevent LinkState(address _address);\r\n\r\n\tevent LockedPriceForClosingPositions(bytes32 _marketId, uint256 _price);\r\n\r\n\tevent SetLeverageInterestRate(uint256 newInterestRate);\r\n\tevent LeverageInterestRateAdded(uint256 interestRate, uint256 validFromTimestamp);\r\n\r\n\tfunction initialize(\r\n\t\taddress _stateAddress,\r\n\t\tbool _escrowOpenOrderEnabled,\r\n\t\tuint256 _deployedTimestampOverride\r\n\t) public initializer {\r\n\t\tContextUpgradeable.__Context_init();\r\n\r\n\t\tmorpherState = MorpherState(_stateAddress);\r\n\t\tescrowOpenOrderEnabled = _escrowOpenOrderEnabled;\r\n\t\tdeployedTimeStamp = _deployedTimestampOverride > 0 ? _deployedTimestampOverride : block.timestamp;\r\n\t}\r\n\r\n\tmodifier onlyRole(bytes32 role) {\r\n\t\trequire(\r\n\t\t\tMorpherAccessControl(morpherState.morpherAccessControlAddress()).hasRole(role, _msgSender()),\r\n\t\t\t\"MorpherTradeEngine: Permission denied.\"\r\n\t\t);\r\n\t\t_;\r\n\t}\r\n\r\n\t// ----------------------------------------------------------------------------\r\n\t// Administrative functions\r\n\t// Set state address, get administrator address\r\n\t// ----------------------------------------------------------------------------\r\n\r\n\tfunction setMorpherState(address _stateAddress) public onlyRole(ADMINISTRATOR_ROLE) {\r\n\t\tmorpherState = MorpherState(_stateAddress);\r\n\t\temit LinkState(_stateAddress);\r\n\t}\r\n\r\n\tfunction setEscrowOpenOrderEnabled(bool _isEnabled) public onlyRole(ADMINISTRATOR_ROLE) {\r\n\t\tescrowOpenOrderEnabled = _isEnabled;\r\n\t}\r\n\r\n\t/**\r\n    Interest rate\r\n     */\r\n\tfunction setLeverageInterestRate(uint256 _interestRate) public onlyRole(ADMINISTRATOR_ROLE) {\r\n\t\taddInterestRate(_interestRate, block.timestamp);\r\n\t}\r\n\r\n\t/**\r\n        fallback function in case the old tradeengine asks for the current interest rate\r\n    */\r\n\tfunction interestRate() public view returns (uint256) {\r\n\t\t//start with the last one, as its most likely the last active one, no need to run through the whole map\r\n\t\tif (numInterestRates == 0) {\r\n\t\t\treturn 0;\r\n\t\t}\r\n\t\tfor (uint256 i = numInterestRates - 1; i >= 0; i--) {\r\n\t\t\tif (interestRates[i].validFrom <= block.timestamp) {\r\n\t\t\t\treturn interestRates[i].rate;\r\n\t\t\t}\r\n\t\t}\r\n\t\treturn 0;\r\n\t}\r\n\r\n\tfunction addInterestRate(uint _rate, uint _validFrom) public onlyRole(ADMINISTRATOR_ROLE) {\r\n\t\trequire(\r\n\t\t\tnumInterestRates == 0 || interestRates[numInterestRates - 1].validFrom < _validFrom,\r\n\t\t\t\"MorpherTradeEngine: Interest Rate Valid From must be later than last interestRate\"\r\n\t\t);\r\n\t\trequire(_rate <= 100000000, \"MorpherTradeEngine: Interest Rate cannot be larger than 100%\");\r\n\t\trequire(\r\n\t\t\t_validFrom - 365 days <= block.timestamp,\r\n\t\t\t\"MorpherTradeEngine: Interest Rate cannot start more than 1 year into the future\"\r\n\t\t);\r\n\t\t//omitting rate sanity checks here. It should always be smaller than 100% (100000000) but I'll leave that to the common sense of the admin.\r\n\t\tinterestRates[numInterestRates].validFrom = _validFrom;\r\n\t\tinterestRates[numInterestRates].rate = _rate;\r\n\t\tnumInterestRates++;\r\n\t\temit LeverageInterestRateAdded(_rate, _validFrom);\r\n\t}\r\n\r\n\tfunction getInterestRate(uint256 _positionTimestamp) public view returns (uint256) {\r\n\t\tuint256 sumInterestRatesWeighted = 0;\r\n\t\tuint256 startingTimestamp = 0;\r\n\r\n\t\tfor (uint256 i = 0; i < numInterestRates; i++) {\r\n\t\t\tif (i == numInterestRates - 1 || interestRates[i + 1].validFrom > block.timestamp) {\r\n\t\t\t\t//reached last interest rate\r\n\t\t\t\tsumInterestRatesWeighted =\r\n\t\t\t\t\tsumInterestRatesWeighted +\r\n\t\t\t\t\t(interestRates[i].rate * (block.timestamp - interestRates[i].validFrom));\r\n\t\t\t\tif (startingTimestamp == 0) {\r\n\t\t\t\t\tstartingTimestamp = interestRates[i].validFrom;\r\n\t\t\t\t}\r\n\t\t\t\tbreak; //in case there are more in the future\r\n\t\t\t} else {\r\n\t\t\t\t//only take interest rates after the position was created\r\n\t\t\t\tif (interestRates[i + 1].validFrom > _positionTimestamp) {\r\n\t\t\t\t\tsumInterestRatesWeighted =\r\n\t\t\t\t\t\tsumInterestRatesWeighted +\r\n\t\t\t\t\t\t(interestRates[i].rate * (interestRates[i + 1].validFrom - interestRates[i].validFrom));\r\n\t\t\t\t\tif (interestRates[i].validFrom <= _positionTimestamp) {\r\n\t\t\t\t\t\tstartingTimestamp = interestRates[i].validFrom;\r\n\t\t\t\t\t}\r\n\t\t\t\t}\r\n\t\t\t}\r\n\t\t}\r\n\t\tuint interestRateInternal = sumInterestRatesWeighted / (block.timestamp - startingTimestamp);\r\n\t\treturn interestRateInternal;\r\n\t}\r\n\r\n\tfunction paybackEscrow(bytes32 _orderId) private {\r\n\t\t//pay back the escrow to the user so he has it back on his balance/**\r\n\t\tif (orders[_orderId].orderEscrowAmount > 0) {\r\n\t\t\t//checks effects interaction\r\n\t\t\tuint256 paybackAmount = orders[_orderId].orderEscrowAmount;\r\n\t\t\torders[_orderId].orderEscrowAmount = 0;\r\n\t\t\tMorpherToken(morpherState.morpherTokenAddress()).mint(orders[_orderId].userId, paybackAmount);\r\n\t\t\temit EscrowReturned(_orderId, orders[_orderId].userId, paybackAmount);\r\n\t\t}\r\n\t}\r\n\r\n\tfunction buildupEscrow(bytes32 _orderId, uint256 _amountInMPH) private {\r\n\t\tif (escrowOpenOrderEnabled && _amountInMPH > 0) {\r\n\t\t\tMorpherToken(morpherState.morpherTokenAddress()).burn(orders[_orderId].userId, _amountInMPH);\r\n\t\t\temit EscrowPaid(_orderId, orders[_orderId].userId, _amountInMPH);\r\n\t\t\torders[_orderId].orderEscrowAmount = _amountInMPH;\r\n\t\t}\r\n\t}\r\n\r\n\tfunction validateClosedMarketOrderConditions(\r\n\t\taddress _address,\r\n\t\tbytes32 _marketId,\r\n\t\tuint256 _closeSharesAmount,\r\n\t\tuint256 _openMPHTokenAmount,\r\n\t\tbool _tradeDirection\r\n\t) internal view {\r\n\t\t//markets active? Still tradeable?\r\n\t\tif (_openMPHTokenAmount > 0) {\r\n\t\t\trequire(\r\n\t\t\t\tmorpherState.getMarketActive(_marketId) == true,\r\n\t\t\t\t\"MorpherTradeEngine: market unknown or currently not enabled for trading.\"\r\n\t\t\t);\r\n\t\t} else {\r\n\t\t\t//we're just closing a position, but it needs a forever price locked in if market is not active\r\n\t\t\t//the user needs to close his complete position\r\n\t\t\tif (morpherState.getMarketActive(_marketId) == false) {\r\n\t\t\t\trequire(\r\n\t\t\t\t\tgetDeactivatedMarketPrice(_marketId) > 0,\r\n\t\t\t\t\t\"MorpherTradeEngine: Can't close a position, market not active and closing price not locked\"\r\n\t\t\t\t);\r\n\t\t\t\tif (_tradeDirection) {\r\n\t\t\t\t\t//long\r\n\t\t\t\t\trequire(\r\n\t\t\t\t\t\t_closeSharesAmount == portfolio[_address][_marketId].longShares,\r\n\t\t\t\t\t\t\"MorpherTradeEngine: Deactivated market order needs all shares to be closed\"\r\n\t\t\t\t\t);\r\n\t\t\t\t} else {\r\n\t\t\t\t\t//short\r\n\t\t\t\t\trequire(\r\n\t\t\t\t\t\t_closeSharesAmount == portfolio[_address][_marketId].longShares,\r\n\t\t\t\t\t\t\"MorpherTradeEngine: Deactivated market order needs all shares to be closed\"\r\n\t\t\t\t\t);\r\n\t\t\t\t}\r\n\t\t\t}\r\n\t\t}\r\n\t}\r\n\r\n\t//wrapper for stack too deep errors\r\n\tfunction validateClosedMarketOrder(bytes32 _orderId) internal view {\r\n\t\tvalidateClosedMarketOrderConditions(\r\n\t\t\torders[_orderId].userId,\r\n\t\t\torders[_orderId].marketId,\r\n\t\t\torders[_orderId].closeSharesAmount,\r\n\t\t\torders[_orderId].openMPHTokenAmount,\r\n\t\t\torders[_orderId].tradeDirection\r\n\t\t);\r\n\t}\r\n\r\n\t// ----------------------------------------------------------------------------\r\n\t// requestOrderId(address _address, bytes32 _marketId, bool _closeSharesAmount, uint256 _openMPHTokenAmount, bool _tradeDirection, uint256 _orderLeverage)\r\n\t// Creates a new order object with unique orderId and assigns order information.\r\n\t// Must be called by MorpherOracle contract.\r\n\t// ----------------------------------------------------------------------------\r\n\r\n\tfunction requestOrderId(\r\n\t\taddress _address,\r\n\t\tbytes32 _marketId,\r\n\t\tuint256 _closeSharesAmount,\r\n\t\tuint256 _openMPHTokenAmount,\r\n\t\tbool _tradeDirection,\r\n\t\tuint256 _orderLeverage\r\n\t) public onlyRole(ORACLE_ROLE) returns (bytes32 _orderId) {\r\n\t\trequire(_orderLeverage >= PRECISION, \"MorpherTradeEngine: leverage too small. Leverage precision is 1e8\");\r\n\t\trequire(\r\n\t\t\t_orderLeverage <= morpherState.getMaximumLeverage(),\r\n\t\t\t\"MorpherTradeEngine: leverage exceeds maximum allowed leverage.\"\r\n\t\t);\r\n\r\n\t\tvalidateClosedMarketOrderConditions(\r\n\t\t\t_address,\r\n\t\t\t_marketId,\r\n\t\t\t_closeSharesAmount,\r\n\t\t\t_openMPHTokenAmount,\r\n\t\t\t_tradeDirection\r\n\t\t);\r\n\r\n\t\t//request limits\r\n\t\t//@todo: fix request limit: 3 requests per block\r\n\r\n\t\t/**\r\n\t\t * The user can't partially close a position and open another one with MPH\r\n\t\t */\r\n\t\tif (_openMPHTokenAmount > 0) {\r\n\t\t\tif (_tradeDirection) {\r\n\t\t\t\t//long\r\n\t\t\t\trequire(\r\n\t\t\t\t\t_closeSharesAmount == portfolio[_address][_marketId].shortShares,\r\n\t\t\t\t\t\"MorpherTradeEngine: Can't partially close a position and open another one in opposite direction\"\r\n\t\t\t\t);\r\n\t\t\t} else {\r\n\t\t\t\t//short\r\n\t\t\t\trequire(\r\n\t\t\t\t\t_closeSharesAmount == portfolio[_address][_marketId].longShares,\r\n\t\t\t\t\t\"MorpherTradeEngine: Can't partially close a position and open another one in opposite direction\"\r\n\t\t\t\t);\r\n\t\t\t}\r\n\t\t}\r\n\r\n\t\torderNonce++;\r\n\t\t_orderId = keccak256(\r\n\t\t\tabi.encodePacked(\r\n\t\t\t\t_address,\r\n\t\t\t\tblock.number,\r\n\t\t\t\t_marketId,\r\n\t\t\t\t_closeSharesAmount,\r\n\t\t\t\t_openMPHTokenAmount,\r\n\t\t\t\t_tradeDirection,\r\n\t\t\t\t_orderLeverage,\r\n\t\t\t\torderNonce\r\n\t\t\t)\r\n\t\t);\r\n\t\tlastOrderId = _orderId;\r\n\t\torders[_orderId].userId = _address;\r\n\t\torders[_orderId].marketId = _marketId;\r\n\t\torders[_orderId].closeSharesAmount = _closeSharesAmount;\r\n\t\torders[_orderId].openMPHTokenAmount = _openMPHTokenAmount;\r\n\t\torders[_orderId].tradeDirection = _tradeDirection;\r\n\t\torders[_orderId].orderLeverage = _orderLeverage;\r\n\t\temit OrderIdRequested(\r\n\t\t\t_orderId,\r\n\t\t\t_address,\r\n\t\t\t_marketId,\r\n\t\t\t_closeSharesAmount,\r\n\t\t\t_openMPHTokenAmount,\r\n\t\t\t_tradeDirection,\r\n\t\t\t_orderLeverage\r\n\t\t);\r\n\r\n\t\t/**\r\n\t\t * put the money in escrow here if given MPH to open an order\r\n\t\t * - also, can only close positions if in shares, so it will\r\n\t\t * definitely trigger a mint there.\r\n\t\t * The money must be put in escrow even though we have an existing position\r\n\t\t */\r\n\t\tbuildupEscrow(_orderId, _openMPHTokenAmount);\r\n\r\n\t\treturn _orderId;\r\n\t}\r\n\r\n\t// ----------------------------------------------------------------------------\r\n\t// Getter functions for orders, shares, and positions\r\n\t// ----------------------------------------------------------------------------\r\n\r\n\tfunction getOrder(\r\n\t\tbytes32 _orderId\r\n\t)\r\n\t\tpublic\r\n\t\tview\r\n\t\treturns (\r\n\t\t\taddress _userId,\r\n\t\t\tbytes32 _marketId,\r\n\t\t\tuint256 _closeSharesAmount,\r\n\t\t\tuint256 _openMPHTokenAmount,\r\n\t\t\tuint256 _marketPrice,\r\n\t\t\tuint256 _marketSpread,\r\n\t\t\tuint256 _orderLeverage\r\n\t\t)\r\n\t{\r\n\t\treturn (\r\n\t\t\torders[_orderId].userId,\r\n\t\t\torders[_orderId].marketId,\r\n\t\t\torders[_orderId].closeSharesAmount,\r\n\t\t\torders[_orderId].openMPHTokenAmount,\r\n\t\t\torders[_orderId].marketPrice,\r\n\t\t\torders[_orderId].marketSpread,\r\n\t\t\torders[_orderId].orderLeverage\r\n\t\t);\r\n\t}\r\n\r\n\tfunction setDeactivatedMarketPrice(bytes32 _marketId, uint256 _price) public onlyRole(ADMINISTRATOR_ROLE) {\r\n\t\tpriceLockDeactivatedMarket[_marketId].lockedPrice = _price;\r\n\t\temit LockedPriceForClosingPositions(_marketId, _price);\r\n\t}\r\n\r\n\tfunction getDeactivatedMarketPrice(bytes32 _marketId) public view returns (uint256) {\r\n\t\treturn priceLockDeactivatedMarket[_marketId].lockedPrice;\r\n\t}\r\n\r\n\t// ----------------------------------------------------------------------------\r\n\t// liquidate(bytes32 _orderId)\r\n\t// Checks for bankruptcy of position between its last update and now\r\n\t// Time check is necessary to avoid two consecutive / unorderded liquidations\r\n\t// ----------------------------------------------------------------------------\r\n\r\n\tfunction liquidate(bytes32 _orderId) private {\r\n\t\taddress _address = orders[_orderId].userId;\r\n\t\tbytes32 _marketId = orders[_orderId].marketId;\r\n\t\tuint256 _liquidationTimestamp = orders[_orderId].liquidationTimestamp;\r\n\t\tif (_liquidationTimestamp > portfolio[_address][_marketId].lastUpdated) {\r\n\t\t\tif (portfolio[_address][_marketId].longShares > 0) {\r\n\t\t\t\t_setPosition(\r\n\t\t\t\t\t_address,\r\n\t\t\t\t\t_marketId,\r\n\t\t\t\t\torders[_orderId].timeStamp,\r\n\t\t\t\t\t0,\r\n\t\t\t\t\tportfolio[_address][_marketId].shortShares,\r\n\t\t\t\t\t0,\r\n\t\t\t\t\t0,\r\n\t\t\t\t\tPRECISION,\r\n\t\t\t\t\t0\r\n\t\t\t\t);\r\n\t\t\t\temit PositionLiquidated(\r\n\t\t\t\t\t_address,\r\n\t\t\t\t\t_marketId,\r\n\t\t\t\t\ttrue,\r\n\t\t\t\t\torders[_orderId].timeStamp,\r\n\t\t\t\t\torders[_orderId].marketPrice,\r\n\t\t\t\t\torders[_orderId].marketSpread\r\n\t\t\t\t);\r\n\t\t\t}\r\n\t\t\tif (portfolio[_address][_marketId].shortShares > 0) {\r\n\t\t\t\t_setPosition(\r\n\t\t\t\t\t_address,\r\n\t\t\t\t\t_marketId,\r\n\t\t\t\t\torders[_orderId].timeStamp,\r\n\t\t\t\t\tportfolio[_address][_marketId].longShares,\r\n\t\t\t\t\t0,\r\n\t\t\t\t\t0,\r\n\t\t\t\t\t0,\r\n\t\t\t\t\tPRECISION,\r\n\t\t\t\t\t0\r\n\t\t\t\t);\r\n\t\t\t\temit PositionLiquidated(\r\n\t\t\t\t\t_address,\r\n\t\t\t\t\t_marketId,\r\n\t\t\t\t\tfalse,\r\n\t\t\t\t\torders[_orderId].timeStamp,\r\n\t\t\t\t\torders[_orderId].marketPrice,\r\n\t\t\t\t\torders[_orderId].marketSpread\r\n\t\t\t\t);\r\n\t\t\t}\r\n\t\t}\r\n\t}\r\n\r\n\t// ----------------------------------------------------------------------------\r\n\t// processOrder(bytes32 _orderId, uint256 _marketPrice, uint256 _marketSpread, uint256 _liquidationTimestamp, uint256 _timeStamp)\r\n\t// ProcessOrder receives the price/spread/liqidation information from the Oracle and\r\n\t// triggers the processing of the order. If successful, processOrder updates the portfolio state.\r\n\t// Liquidation time check is necessary to avoid two consecutive / unorderded liquidations\r\n\t// ----------------------------------------------------------------------------\r\n\r\n\tfunction processOrder(\r\n\t\tbytes32 _orderId,\r\n\t\tuint256 _marketPrice,\r\n\t\tuint256 _marketSpread,\r\n\t\tuint256 _liquidationTimestamp,\r\n\t\tuint256 _timeStampInMS\r\n\t) public onlyRole(ORACLE_ROLE) returns (position memory) {\r\n\t\trequire(\r\n\t\t\torders[_orderId].userId != address(0),\r\n\t\t\t\"MorpherTradeEngine: unable to process, order has been deleted.\"\r\n\t\t);\r\n\t\trequire(_marketPrice > 0, \"MorpherTradeEngine: market priced at zero. Buy order cannot be processed.\");\r\n\t\trequire(\r\n\t\t\t_marketPrice >= _marketSpread,\r\n\t\t\t\"MorpherTradeEngine: market price lower then market spread. Order cannot be processed.\"\r\n\t\t);\r\n\r\n\t\torders[_orderId].marketPrice = _marketPrice;\r\n\t\torders[_orderId].marketSpread = _marketSpread;\r\n\t\torders[_orderId].timeStamp = _timeStampInMS;\r\n\t\torders[_orderId].liquidationTimestamp = _liquidationTimestamp;\r\n\r\n\t\t/**\r\n\t\t * If the market is deactivated, then override the price with the locked in market price\r\n\t\t * if the price wasn't locked in: error out.\r\n\t\t */\r\n\t\tif (morpherState.getMarketActive(orders[_orderId].marketId) == false) {\r\n\t\t\tvalidateClosedMarketOrder(_orderId);\r\n\t\t\torders[_orderId].marketPrice = getDeactivatedMarketPrice(orders[_orderId].marketId);\r\n\t\t}\r\n\r\n\t\t// Check if previous position on that market was liquidated\r\n\t\tif (_liquidationTimestamp > portfolio[orders[_orderId].userId][orders[_orderId].marketId].lastUpdated) {\r\n\t\t\tliquidate(_orderId);\r\n\t\t} else {\r\n\t\t\trequire(\r\n\t\t\t\t!MorpherUserBlocking(morpherState.morpherUserBlockingAddress()).userIsBlocked(orders[_orderId].userId),\r\n\t\t\t\t\"MorpherTradeEngine: User is blocked from Trading\"\r\n\t\t\t);\r\n\t\t}\r\n\r\n\t\tpaybackEscrow(_orderId);\r\n\r\n\t\tif (orders[_orderId].tradeDirection) {\r\n\t\t\tprocessBuyOrder(_orderId);\r\n\t\t} else {\r\n\t\t\tprocessSellOrder(_orderId);\r\n\t\t}\r\n\r\n\t\taddress _address = orders[_orderId].userId;\r\n\t\tbytes32 _marketId = orders[_orderId].marketId;\r\n\t\tdelete orders[_orderId];\r\n\t\temit OrderProcessed(\r\n\t\t\t_orderId,\r\n\t\t\t_marketPrice,\r\n\t\t\t_marketSpread,\r\n\t\t\t_liquidationTimestamp,\r\n\t\t\t_timeStampInMS,\r\n\t\t\tportfolio[_address][_marketId].longShares,\r\n\t\t\tportfolio[_address][_marketId].shortShares,\r\n\t\t\tportfolio[_address][_marketId].meanEntryPrice,\r\n\t\t\tportfolio[_address][_marketId].meanEntrySpread,\r\n\t\t\tportfolio[_address][_marketId].meanEntryLeverage,\r\n\t\t\tportfolio[_address][_marketId].liquidationPrice\r\n\t\t);\r\n\r\n\t\treturn portfolio[_address][_marketId];\r\n\t}\r\n\r\n\t// ----------------------------------------------------------------------------\r\n\t// function cancelOrder(bytes32 _orderId, address _address)\r\n\t// Users or Administrator can delete pending orders before the callback went through\r\n\t// ----------------------------------------------------------------------------\r\n\tfunction cancelOrder(bytes32 _orderId, address _address) public onlyRole(ORACLE_ROLE) {\r\n\t\trequire(\r\n\t\t\t_address == orders[_orderId].userId ||\r\n\t\t\t\tMorpherAccessControl(morpherState.morpherAccessControlAddress()).hasRole(ADMINISTRATOR_ROLE, _address),\r\n\t\t\t\"MorpherTradeEngine: only Administrator or user can cancel an order.\"\r\n\t\t);\r\n\t\trequire(orders[_orderId].userId != address(0), \"MorpherTradeEngine: unable to process, order does not exist.\");\r\n\r\n\t\t/**\r\n\t\t * Pay back any escrow there\r\n\t\t */\r\n\t\tpaybackEscrow(_orderId);\r\n\r\n\t\tdelete orders[_orderId];\r\n\t\temit OrderCancelled(_orderId, _address);\r\n\t}\r\n\r\n\t// ----------------------------------------------------------------------------\r\n\t// shortShareValue / longShareValue compute the value of a virtual future\r\n\t// given current price/spread/leverage of the market and mean price/spread/leverage\r\n\t// at the beginning of the trade\r\n\t// ----------------------------------------------------------------------------\r\n\tfunction shortShareValue(\r\n\t\tuint256 _positionAveragePrice,\r\n\t\tuint256 _positionAverageLeverage,\r\n\t\tuint256 _positionTimeStampInMs,\r\n\t\tuint256 _marketPrice,\r\n\t\tuint256 _marketSpread,\r\n\t\tuint256 _orderLeverage,\r\n\t\tbool _sell\r\n\t) public view returns (uint256 _shareValue) {\r\n\t\tuint256 _averagePrice = _positionAveragePrice;\r\n\t\tuint256 _averageLeverage = _positionAverageLeverage;\r\n\r\n\t\tif (_positionAverageLeverage < PRECISION) {\r\n\t\t\t// Leverage can never be less than 1. Fail safe for empty positions, i.e. undefined _positionAverageLeverage\r\n\t\t\t_averageLeverage = PRECISION;\r\n\t\t}\r\n\t\tif (_sell == false) {\r\n\t\t\t// New short position\r\n\t\t\t// It costs marketPrice + marketSpread to build up a new short position\r\n\t\t\t_averagePrice = _marketPrice;\r\n\t\t\t// This is the average Leverage\r\n\t\t\t_averageLeverage = _orderLeverage;\r\n\t\t}\r\n\t\tif (getLiquidationPrice(_averagePrice, _averageLeverage, false, _positionTimeStampInMs) <= _marketPrice) {\r\n\t\t\t// Position is worthless\r\n\t\t\t_shareValue = 0;\r\n\t\t} else {\r\n\t\t\t// The regular share value is 2x the entry price minus the current price for short positions.\r\n\t\t\t_shareValue = (_averagePrice * (PRECISION + _averageLeverage)) / PRECISION;\r\n\t\t\t_shareValue = _shareValue - (_marketPrice * _averageLeverage) / PRECISION;\r\n\t\t\tif (_sell == true) {\r\n\t\t\t\t// We have to reduce the share value by the average spread (i.e. the average expense to build up the position)\r\n\t\t\t\t// and reduce the value further by the spread for selling.\r\n\t\t\t\t_shareValue = _shareValue - (_marketSpread * _averageLeverage) / PRECISION;\r\n\t\t\t\tuint256 _marginInterest = calculateMarginInterest(\r\n\t\t\t\t\t_averagePrice,\r\n\t\t\t\t\t_averageLeverage,\r\n\t\t\t\t\t_positionTimeStampInMs\r\n\t\t\t\t);\r\n\t\t\t\tif (_marginInterest <= _shareValue) {\r\n\t\t\t\t\t_shareValue = _shareValue - (_marginInterest);\r\n\t\t\t\t} else {\r\n\t\t\t\t\t_shareValue = 0;\r\n\t\t\t\t}\r\n\t\t\t} else {\r\n\t\t\t\t// If a new short position is built up each share costs value + spread\r\n\t\t\t\t_shareValue = _shareValue + ((_marketSpread * (_orderLeverage)) / (PRECISION));\r\n\t\t\t}\r\n\t\t}\r\n\r\n\t\treturn _shareValue;\r\n\t}\r\n\r\n\tfunction longShareValue(\r\n\t\tuint256 _positionAveragePrice,\r\n\t\tuint256 _positionAverageLeverage,\r\n\t\tuint256 _positionTimeStampInMs,\r\n\t\tuint256 _marketPrice,\r\n\t\tuint256 _marketSpread,\r\n\t\tuint256 _orderLeverage,\r\n\t\tbool _sell\r\n\t) public view returns (uint256 _shareValue) {\r\n\t\tuint256 _averagePrice = _positionAveragePrice;\r\n\t\tuint256 _averageLeverage = _positionAverageLeverage;\r\n\r\n\t\tif (_positionAverageLeverage < PRECISION) {\r\n\t\t\t// Leverage can never be less than 1. Fail safe for empty positions, i.e. undefined _positionAverageLeverage\r\n\t\t\t_averageLeverage = PRECISION;\r\n\t\t}\r\n\t\tif (_sell == false) {\r\n\t\t\t// New long position\r\n\t\t\t// It costs marketPrice + marketSpread to build up a new long position\r\n\t\t\t_averagePrice = _marketPrice;\r\n\t\t\t// This is the average Leverage\r\n\t\t\t_averageLeverage = _orderLeverage;\r\n\t\t}\r\n\t\tif (_marketPrice <= getLiquidationPrice(_averagePrice, _averageLeverage, true, _positionTimeStampInMs)) {\r\n\t\t\t// Position is worthless\r\n\t\t\t_shareValue = 0;\r\n\t\t} else {\r\n\t\t\t_shareValue = (_averagePrice * (_averageLeverage - PRECISION)) / (PRECISION);\r\n\t\t\t// The regular share value is market price times leverage minus entry price times entry leverage minus one.\r\n\t\t\t_shareValue = ((_marketPrice * _averageLeverage) / PRECISION) - _shareValue;\r\n\t\t\tif (_sell == true) {\r\n\t\t\t\t// We sell a long and have to correct the shareValue with the averageSpread and the currentSpread for selling.\r\n\t\t\t\t_shareValue = _shareValue - ((_marketSpread * _averageLeverage) / PRECISION);\r\n\r\n\t\t\t\tuint256 _marginInterest = calculateMarginInterest(\r\n\t\t\t\t\t_averagePrice,\r\n\t\t\t\t\t_averageLeverage,\r\n\t\t\t\t\t_positionTimeStampInMs\r\n\t\t\t\t);\r\n\t\t\t\tif (_marginInterest <= _shareValue) {\r\n\t\t\t\t\t_shareValue = _shareValue - (_marginInterest);\r\n\t\t\t\t} else {\r\n\t\t\t\t\t_shareValue = 0;\r\n\t\t\t\t}\r\n\t\t\t} else {\r\n\t\t\t\t// We buy a new long position and have to pay the spread\r\n\t\t\t\t_shareValue = _shareValue + ((_marketSpread * (_orderLeverage)) / (PRECISION));\r\n\t\t\t}\r\n\t\t}\r\n\t\treturn _shareValue;\r\n\t}\r\n\r\n\t// ----------------------------------------------------------------------------\r\n\t// calculateMarginInterest(uint256 _averagePrice, uint256 _averageLeverage, uint256 _positionTimeStamp)\r\n\t// Calculates the interest for leveraged positions\r\n\t// ----------------------------------------------------------------------------\r\n\r\n\tfunction calculateMarginInterest(\r\n\t\tuint256 _averagePrice,\r\n\t\tuint256 _averageLeverage,\r\n\t\tuint256 _positionTimeStampInMs\r\n\t) public view returns (uint256) {\r\n\t\tuint _marginInterest;\r\n\t\tif (_positionTimeStampInMs / 1000 < deployedTimeStamp) {\r\n\t\t\t_positionTimeStampInMs = deployedTimeStamp / 1000;\r\n\t\t}\r\n\t\t_marginInterest = _averagePrice * (_averageLeverage - PRECISION);\r\n\t\t_marginInterest = _marginInterest * (((block.timestamp - (_positionTimeStampInMs / 1000)) / 86400) + 1);\r\n\t\t_marginInterest = ((_marginInterest * getInterestRate(_positionTimeStampInMs / 1000)) / PRECISION) / PRECISION;\r\n\t\treturn _marginInterest;\r\n\t}\r\n\r\n\t// ----------------------------------------------------------------------------\r\n\t// processBuyOrder(bytes32 _orderId)\r\n\t// Converts orders specified in virtual shares to orders specified in Morpher token\r\n\t// and computes the number of short shares that are sold and long shares that are bought.\r\n\t// long shares are bought only if the order amount exceeds all open short positions\r\n\t// ----------------------------------------------------------------------------\r\n\r\n\tfunction processBuyOrder(bytes32 _orderId) private {\r\n\t\tif (orders[_orderId].closeSharesAmount > 0) {\r\n\t\t\t//calcualte the balanceUp/down first\r\n\t\t\t//then reopen the position with MPH amount\r\n\r\n\t\t\t// Investment was specified in shares\r\n\t\t\tif (\r\n\t\t\t\torders[_orderId].closeSharesAmount <=\r\n\t\t\t\tportfolio[orders[_orderId].userId][orders[_orderId].marketId].shortShares\r\n\t\t\t) {\r\n\t\t\t\t// Partial closing of short position\r\n\t\t\t\torders[_orderId].modifyPosition.shortSharesOrder = orders[_orderId].closeSharesAmount;\r\n\t\t\t} else {\r\n\t\t\t\t// Closing of entire short position\r\n\t\t\t\torders[_orderId].modifyPosition.shortSharesOrder = portfolio[orders[_orderId].userId][\r\n\t\t\t\t\torders[_orderId].marketId\r\n\t\t\t\t].shortShares;\r\n\t\t\t}\r\n\t\t}\r\n\r\n\t\t//calculate the long shares, but only if the old position is completely closed out (if none exist shortSharesOrder = 0)\r\n\t\tif (\r\n\t\t\torders[_orderId].modifyPosition.shortSharesOrder ==\r\n\t\t\tportfolio[orders[_orderId].userId][orders[_orderId].marketId].shortShares &&\r\n\t\t\torders[_orderId].openMPHTokenAmount > 0\r\n\t\t) {\r\n\t\t\torders[_orderId].modifyPosition.longSharesOrder =\r\n\t\t\t\torders[_orderId].openMPHTokenAmount /\r\n\t\t\t\t(\r\n\t\t\t\t\tlongShareValue(\r\n\t\t\t\t\t\torders[_orderId].marketPrice,\r\n\t\t\t\t\t\torders[_orderId].orderLeverage,\r\n\t\t\t\t\t\tblock.timestamp * (1000),\r\n\t\t\t\t\t\torders[_orderId].marketPrice,\r\n\t\t\t\t\t\torders[_orderId].marketSpread,\r\n\t\t\t\t\t\torders[_orderId].orderLeverage,\r\n\t\t\t\t\t\tfalse\r\n\t\t\t\t\t)\r\n\t\t\t\t);\r\n\t\t}\r\n\r\n\t\t// Investment equals number of shares now.\r\n\t\tif (orders[_orderId].modifyPosition.shortSharesOrder > 0) {\r\n\t\t\tcloseShort(_orderId);\r\n\t\t}\r\n\t\tif (orders[_orderId].modifyPosition.longSharesOrder > 0) {\r\n\t\t\topenLong(_orderId);\r\n\t\t}\r\n\t}\r\n\r\n\t// ----------------------------------------------------------------------------\r\n\t// processSellOrder(bytes32 _orderId)\r\n\t// Converts orders specified in virtual shares to orders specified in Morpher token\r\n\t// and computes the number of long shares that are sold and short shares that are bought.\r\n\t// short shares are bought only if the order amount exceeds all open long positions\r\n\t// ----------------------------------------------------------------------------\r\n\r\n\tfunction processSellOrder(bytes32 _orderId) private {\r\n\t\tif (orders[_orderId].closeSharesAmount > 0) {\r\n\t\t\t//calcualte the balanceUp/down first\r\n\t\t\t//then reopen the position with MPH amount\r\n\r\n\t\t\t// Investment was specified in shares\r\n\t\t\tif (\r\n\t\t\t\torders[_orderId].closeSharesAmount <=\r\n\t\t\t\tportfolio[orders[_orderId].userId][orders[_orderId].marketId].longShares\r\n\t\t\t) {\r\n\t\t\t\t// Partial closing of long position\r\n\t\t\t\torders[_orderId].modifyPosition.longSharesOrder = orders[_orderId].closeSharesAmount;\r\n\t\t\t} else {\r\n\t\t\t\t// Closing of entire long position\r\n\t\t\t\torders[_orderId].modifyPosition.longSharesOrder = portfolio[orders[_orderId].userId][\r\n\t\t\t\t\torders[_orderId].marketId\r\n\t\t\t\t].longShares;\r\n\t\t\t}\r\n\t\t}\r\n\r\n\t\tif (\r\n\t\t\torders[_orderId].modifyPosition.longSharesOrder ==\r\n\t\t\tportfolio[orders[_orderId].userId][orders[_orderId].marketId].longShares &&\r\n\t\t\torders[_orderId].openMPHTokenAmount > 0\r\n\t\t) {\r\n\t\t\torders[_orderId].modifyPosition.shortSharesOrder =\r\n\t\t\t\torders[_orderId].openMPHTokenAmount /\r\n\t\t\t\t(\r\n\t\t\t\t\tshortShareValue(\r\n\t\t\t\t\t\torders[_orderId].marketPrice,\r\n\t\t\t\t\t\torders[_orderId].orderLeverage,\r\n\t\t\t\t\t\tblock.timestamp * (1000),\r\n\t\t\t\t\t\torders[_orderId].marketPrice,\r\n\t\t\t\t\t\torders[_orderId].marketSpread,\r\n\t\t\t\t\t\torders[_orderId].orderLeverage,\r\n\t\t\t\t\t\tfalse\r\n\t\t\t\t\t)\r\n\t\t\t\t);\r\n\t\t}\r\n\t\t// Investment equals number of shares now.\r\n\t\tif (orders[_orderId].modifyPosition.longSharesOrder > 0) {\r\n\t\t\tcloseLong(_orderId);\r\n\t\t}\r\n\t\tif (orders[_orderId].modifyPosition.shortSharesOrder > 0) {\r\n\t\t\topenShort(_orderId);\r\n\t\t}\r\n\t}\r\n\r\n\t// ----------------------------------------------------------------------------\r\n\t// openLong(bytes32 _orderId)\r\n\t// Opens a new long position and computes the new resulting average entry price/spread/leverage.\r\n\t// Computation is broken down to several instructions for readability.\r\n\t// ----------------------------------------------------------------------------\r\n\tfunction openLong(bytes32 _orderId) private {\r\n\t\taddress _userId = orders[_orderId].userId;\r\n\t\tbytes32 _marketId = orders[_orderId].marketId;\r\n\r\n\t\tuint256 _newMeanSpread;\r\n\t\tuint256 _newMeanLeverage;\r\n\r\n\t\t// Existing position is virtually liquidated and reopened with current marketPrice\r\n\t\t// orders[_orderId].modifyPosition.newMeanEntryPrice = orders[_orderId].marketPrice;\r\n\t\t// _factorLongShares is a factor to adjust the existing longShares via virtual liqudiation and reopening at current market price\r\n\r\n\t\tuint256 _factorLongShares = portfolio[_userId][_marketId].meanEntryLeverage;\r\n\t\tif (_factorLongShares < PRECISION) {\r\n\t\t\t_factorLongShares = PRECISION;\r\n\t\t}\r\n\t\t_factorLongShares = _factorLongShares - (PRECISION);\r\n\t\t_factorLongShares =\r\n\t\t\t(_factorLongShares * (portfolio[_userId][_marketId].meanEntryPrice)) /\r\n\t\t\t(orders[_orderId].marketPrice);\r\n\t\tif (portfolio[_userId][_marketId].meanEntryLeverage > _factorLongShares) {\r\n\t\t\t_factorLongShares = portfolio[_userId][_marketId].meanEntryLeverage - (_factorLongShares);\r\n\t\t} else {\r\n\t\t\t_factorLongShares = 0;\r\n\t\t}\r\n\r\n\t\tuint256 _adjustedLongShares = (_factorLongShares * (portfolio[_userId][_marketId].longShares)) / (PRECISION);\r\n\r\n\t\t// _newMeanLeverage is the weighted leverage of the existing position and the new position\r\n\t\t_newMeanLeverage = portfolio[_userId][_marketId].meanEntryLeverage * (_adjustedLongShares);\r\n\t\t_newMeanLeverage =\r\n\t\t\t_newMeanLeverage +\r\n\t\t\t(orders[_orderId].orderLeverage * (orders[_orderId].modifyPosition.longSharesOrder));\r\n\t\t_newMeanLeverage = _newMeanLeverage / (_adjustedLongShares + (orders[_orderId].modifyPosition.longSharesOrder));\r\n\r\n\t\t// _newMeanSpread is the weighted spread of the existing position and the new position\r\n\t\t_newMeanSpread = portfolio[_userId][_marketId].meanEntrySpread * (portfolio[_userId][_marketId].longShares);\r\n\t\t_newMeanSpread =\r\n\t\t\t_newMeanSpread +\r\n\t\t\t(orders[_orderId].marketSpread * (orders[_orderId].modifyPosition.longSharesOrder));\r\n\t\t_newMeanSpread = _newMeanSpread / (_adjustedLongShares + (orders[_orderId].modifyPosition.longSharesOrder));\r\n\r\n\t\torders[_orderId].modifyPosition.balanceDown =\r\n\t\t\torders[_orderId].modifyPosition.longSharesOrder *\r\n\t\t\t(orders[_orderId].marketPrice) +\r\n\t\t\t((orders[_orderId].modifyPosition.longSharesOrder *\r\n\t\t\t\t(orders[_orderId].marketSpread) *\r\n\t\t\t\t(orders[_orderId].orderLeverage)) / (PRECISION));\r\n\t\torders[_orderId].modifyPosition.balanceUp = 0;\r\n\t\torders[_orderId].modifyPosition.newLongShares =\r\n\t\t\t_adjustedLongShares +\r\n\t\t\t(orders[_orderId].modifyPosition.longSharesOrder);\r\n\t\torders[_orderId].modifyPosition.newShortShares = portfolio[_userId][_marketId].shortShares;\r\n\t\torders[_orderId].modifyPosition.newMeanEntryPrice = orders[_orderId].marketPrice;\r\n\t\torders[_orderId].modifyPosition.newMeanEntrySpread = _newMeanSpread;\r\n\t\torders[_orderId].modifyPosition.newMeanEntryLeverage = _newMeanLeverage;\r\n\r\n\t\tsetPositionInState(_orderId);\r\n\t}\r\n\r\n\t// ----------------------------------------------------------------------------\r\n\t// closeLong(bytes32 _orderId)\r\n\t// Closes an existing long position. Average entry price/spread/leverage do not change.\r\n\t// ----------------------------------------------------------------------------\r\n\tfunction closeLong(bytes32 _orderId) private {\r\n\t\taddress _userId = orders[_orderId].userId;\r\n\t\tbytes32 _marketId = orders[_orderId].marketId;\r\n\t\tuint256 _newLongShares = portfolio[_userId][_marketId].longShares -\r\n\t\t\t(orders[_orderId].modifyPosition.longSharesOrder);\r\n\t\tuint256 _balanceUp = calculateBalanceUp(_orderId);\r\n\t\tuint256 _newMeanEntry;\r\n\t\tuint256 _newMeanSpread;\r\n\t\tuint256 _newMeanLeverage;\r\n\r\n\t\tif (orders[_orderId].modifyPosition.longSharesOrder == portfolio[_userId][_marketId].longShares) {\r\n\t\t\t_newMeanEntry = 0;\r\n\t\t\t_newMeanSpread = 0;\r\n\t\t\t_newMeanLeverage = PRECISION;\r\n\t\t} else {\r\n\t\t\t_newMeanEntry = portfolio[_userId][_marketId].meanEntryPrice;\r\n\t\t\t_newMeanSpread = portfolio[_userId][_marketId].meanEntrySpread;\r\n\t\t\t_newMeanLeverage = portfolio[_userId][_marketId].meanEntryLeverage;\r\n\t\t\tresetTimestampInOrderToLastUpdated(_orderId);\r\n\t\t}\r\n\r\n\t\torders[_orderId].modifyPosition.balanceDown = 0;\r\n\t\torders[_orderId].modifyPosition.balanceUp = _balanceUp;\r\n\t\torders[_orderId].modifyPosition.newLongShares = _newLongShares;\r\n\t\torders[_orderId].modifyPosition.newShortShares = portfolio[_userId][_marketId].shortShares;\r\n\t\torders[_orderId].modifyPosition.newMeanEntryPrice = _newMeanEntry;\r\n\t\torders[_orderId].modifyPosition.newMeanEntrySpread = _newMeanSpread;\r\n\t\torders[_orderId].modifyPosition.newMeanEntryLeverage = _newMeanLeverage;\r\n\r\n\t\tsetPositionInState(_orderId);\r\n\t}\r\n\r\n\tevent ResetTimestampInOrder(bytes32 _orderId, uint oldTimestamp, uint newTimestamp);\r\n\r\n\tfunction resetTimestampInOrderToLastUpdated(bytes32 _orderId) internal {\r\n\t\taddress userId = orders[_orderId].userId;\r\n\t\tbytes32 marketId = orders[_orderId].marketId;\r\n\t\tuint lastUpdated = portfolio[userId][marketId].lastUpdated;\r\n\t\temit ResetTimestampInOrder(_orderId, orders[_orderId].timeStamp, lastUpdated);\r\n\t\torders[_orderId].timeStamp = lastUpdated;\r\n\t}\r\n\r\n\t// ----------------------------------------------------------------------------\r\n\t// closeShort(bytes32 _orderId)\r\n\t// Closes an existing short position. Average entry price/spread/leverage do not change.\r\n\t// ----------------------------------------------------------------------------\r\n\tfunction calculateBalanceUp(bytes32 _orderId) private view returns (uint256 _balanceUp) {\r\n\t\taddress _userId = orders[_orderId].userId;\r\n\t\tbytes32 _marketId = orders[_orderId].marketId;\r\n\t\tuint256 _shareValue;\r\n\r\n\t\tif (orders[_orderId].tradeDirection == false) {\r\n\t\t\t//we are selling our long shares\r\n\t\t\t_balanceUp = orders[_orderId].modifyPosition.longSharesOrder;\r\n\t\t\t_shareValue = longShareValue(\r\n\t\t\t\tportfolio[_userId][_marketId].meanEntryPrice,\r\n\t\t\t\tportfolio[_userId][_marketId].meanEntryLeverage,\r\n\t\t\t\tportfolio[_userId][_marketId].lastUpdated,\r\n\t\t\t\torders[_orderId].marketPrice,\r\n\t\t\t\torders[_orderId].marketSpread,\r\n\t\t\t\tportfolio[_userId][_marketId].meanEntryLeverage,\r\n\t\t\t\ttrue\r\n\t\t\t);\r\n\t\t} else {\r\n\t\t\t//we are going long, we are selling our short shares\r\n\t\t\t_balanceUp = orders[_orderId].modifyPosition.shortSharesOrder;\r\n\t\t\t_shareValue = shortShareValue(\r\n\t\t\t\tportfolio[_userId][_marketId].meanEntryPrice,\r\n\t\t\t\tportfolio[_userId][_marketId].meanEntryLeverage,\r\n\t\t\t\tportfolio[_userId][_marketId].lastUpdated,\r\n\t\t\t\torders[_orderId].marketPrice,\r\n\t\t\t\torders[_orderId].marketSpread,\r\n\t\t\t\tportfolio[_userId][_marketId].meanEntryLeverage,\r\n\t\t\t\ttrue\r\n\t\t\t);\r\n\t\t}\r\n\t\treturn _balanceUp * (_shareValue);\r\n\t}\r\n\r\n\tfunction closeShort(bytes32 _orderId) private {\r\n\t\taddress _userId = orders[_orderId].userId;\r\n\t\tbytes32 _marketId = orders[_orderId].marketId;\r\n\t\tuint256 _newMeanEntry;\r\n\t\tuint256 _newMeanSpread;\r\n\t\tuint256 _newMeanLeverage;\r\n\t\tuint256 _newShortShares = portfolio[_userId][_marketId].shortShares -\r\n\t\t\t(orders[_orderId].modifyPosition.shortSharesOrder);\r\n\t\tuint256 _balanceUp = calculateBalanceUp(_orderId);\r\n\r\n\t\tif (orders[_orderId].modifyPosition.shortSharesOrder == portfolio[_userId][_marketId].shortShares) {\r\n\t\t\t_newMeanEntry = 0;\r\n\t\t\t_newMeanSpread = 0;\r\n\t\t\t_newMeanLeverage = PRECISION;\r\n\t\t} else {\r\n\t\t\t_newMeanEntry = portfolio[_userId][_marketId].meanEntryPrice;\r\n\t\t\t_newMeanSpread = portfolio[_userId][_marketId].meanEntrySpread;\r\n\t\t\t_newMeanLeverage = portfolio[_userId][_marketId].meanEntryLeverage;\r\n\r\n\t\t\t/**\r\n\t\t\t * we need the timestamp of the old order for partial closes, not the new one\r\n\t\t\t */\r\n\t\t\tresetTimestampInOrderToLastUpdated(_orderId);\r\n\t\t}\r\n\r\n\t\torders[_orderId].modifyPosition.balanceDown = 0;\r\n\t\torders[_orderId].modifyPosition.balanceUp = _balanceUp;\r\n\t\torders[_orderId].modifyPosition.newLongShares = portfolio[orders[_orderId].userId][orders[_orderId].marketId]\r\n\t\t\t.longShares;\r\n\t\torders[_orderId].modifyPosition.newShortShares = _newShortShares;\r\n\t\torders[_orderId].modifyPosition.newMeanEntryPrice = _newMeanEntry;\r\n\t\torders[_orderId].modifyPosition.newMeanEntrySpread = _newMeanSpread;\r\n\t\torders[_orderId].modifyPosition.newMeanEntryLeverage = _newMeanLeverage;\r\n\r\n\t\tsetPositionInState(_orderId);\r\n\t}\r\n\r\n\t// ----------------------------------------------------------------------------\r\n\t// openShort(bytes32 _orderId)\r\n\t// Opens a new short position and computes the new resulting average entry price/spread/leverage.\r\n\t// Computation is broken down to several instructions for readability.\r\n\t// ----------------------------------------------------------------------------\r\n\tfunction openShort(bytes32 _orderId) private {\r\n\t\taddress _userId = orders[_orderId].userId;\r\n\t\tbytes32 _marketId = orders[_orderId].marketId;\r\n\r\n\t\tuint256 _newMeanSpread;\r\n\t\tuint256 _newMeanLeverage;\r\n\t\t//\r\n\t\t// Existing position is virtually liquidated and reopened with current marketPrice\r\n\t\t// orders[_orderId].modifyPosition.newMeanEntryPrice = orders[_orderId].marketPrice;\r\n\t\t// _factorShortShares is a factor to adjust the existing shortShares via virtual liqudiation and reopening at current market price\r\n\r\n\t\tuint256 _factorShortShares = portfolio[_userId][_marketId].meanEntryLeverage;\r\n\t\tif (_factorShortShares < PRECISION) {\r\n\t\t\t_factorShortShares = PRECISION;\r\n\t\t}\r\n\t\t_factorShortShares = _factorShortShares + (PRECISION);\r\n\t\t_factorShortShares =\r\n\t\t\t(_factorShortShares * (portfolio[_userId][_marketId].meanEntryPrice)) /\r\n\t\t\t(orders[_orderId].marketPrice);\r\n\t\tif (portfolio[_userId][_marketId].meanEntryLeverage < _factorShortShares) {\r\n\t\t\t_factorShortShares = _factorShortShares - (portfolio[_userId][_marketId].meanEntryLeverage);\r\n\t\t} else {\r\n\t\t\t_factorShortShares = 0;\r\n\t\t}\r\n\r\n\t\tuint256 _adjustedShortShares = (_factorShortShares * (portfolio[_userId][_marketId].shortShares)) / (PRECISION);\r\n\r\n\t\t// _newMeanLeverage is the weighted leverage of the existing position and the new position\r\n\t\t_newMeanLeverage = portfolio[_userId][_marketId].meanEntryLeverage * (_adjustedShortShares);\r\n\t\t_newMeanLeverage =\r\n\t\t\t_newMeanLeverage +\r\n\t\t\t(orders[_orderId].orderLeverage * (orders[_orderId].modifyPosition.shortSharesOrder));\r\n\t\t_newMeanLeverage =\r\n\t\t\t_newMeanLeverage /\r\n\t\t\t(_adjustedShortShares + (orders[_orderId].modifyPosition.shortSharesOrder));\r\n\r\n\t\t// _newMeanSpread is the weighted spread of the existing position and the new position\r\n\t\t_newMeanSpread = portfolio[_userId][_marketId].meanEntrySpread * (portfolio[_userId][_marketId].shortShares);\r\n\t\t_newMeanSpread =\r\n\t\t\t_newMeanSpread +\r\n\t\t\t(orders[_orderId].marketSpread * (orders[_orderId].modifyPosition.shortSharesOrder));\r\n\t\t_newMeanSpread = _newMeanSpread / (_adjustedShortShares + (orders[_orderId].modifyPosition.shortSharesOrder));\r\n\r\n\t\torders[_orderId].modifyPosition.balanceDown =\r\n\t\t\torders[_orderId].modifyPosition.shortSharesOrder *\r\n\t\t\t(orders[_orderId].marketPrice) +\r\n\t\t\t((orders[_orderId].modifyPosition.shortSharesOrder *\r\n\t\t\t\t(orders[_orderId].marketSpread) *\r\n\t\t\t\t(orders[_orderId].orderLeverage)) / (PRECISION));\r\n\t\torders[_orderId].modifyPosition.balanceUp = 0;\r\n\t\torders[_orderId].modifyPosition.newLongShares = portfolio[_userId][_marketId].longShares;\r\n\t\torders[_orderId].modifyPosition.newShortShares =\r\n\t\t\t_adjustedShortShares +\r\n\t\t\t(orders[_orderId].modifyPosition.shortSharesOrder);\r\n\t\torders[_orderId].modifyPosition.newMeanEntryPrice = orders[_orderId].marketPrice;\r\n\t\torders[_orderId].modifyPosition.newMeanEntrySpread = _newMeanSpread;\r\n\t\torders[_orderId].modifyPosition.newMeanEntryLeverage = _newMeanLeverage;\r\n\r\n\t\tsetPositionInState(_orderId);\r\n\t}\r\n\r\n\tfunction computeLiquidationPrice(bytes32 _orderId) public returns (uint256 _liquidationPrice) {\r\n\t\torders[_orderId].modifyPosition.newLiquidationPrice = 0;\r\n\t\tif (orders[_orderId].modifyPosition.newLongShares > 0) {\r\n\t\t\torders[_orderId].modifyPosition.newLiquidationPrice = getLiquidationPrice(\r\n\t\t\t\torders[_orderId].modifyPosition.newMeanEntryPrice,\r\n\t\t\t\torders[_orderId].modifyPosition.newMeanEntryLeverage,\r\n\t\t\t\ttrue,\r\n\t\t\t\torders[_orderId].timeStamp\r\n\t\t\t);\r\n\t\t}\r\n\t\tif (orders[_orderId].modifyPosition.newShortShares > 0) {\r\n\t\t\torders[_orderId].modifyPosition.newLiquidationPrice = getLiquidationPrice(\r\n\t\t\t\torders[_orderId].modifyPosition.newMeanEntryPrice,\r\n\t\t\t\torders[_orderId].modifyPosition.newMeanEntryLeverage,\r\n\t\t\t\tfalse,\r\n\t\t\t\torders[_orderId].timeStamp\r\n\t\t\t);\r\n\t\t}\r\n\t\treturn orders[_orderId].modifyPosition.newLiquidationPrice;\r\n\t}\r\n\r\n\tfunction getLiquidationPrice(\r\n\t\tuint256 _newMeanEntryPrice,\r\n\t\tuint256 _newMeanEntryLeverage,\r\n\t\tbool _long,\r\n\t\tuint _positionTimestampInMs\r\n\t) public view returns (uint256) {\r\n\t\tuint _liquidationPrice;\r\n\t\tuint marginInterest = calculateMarginInterest(\r\n\t\t\t_newMeanEntryPrice,\r\n\t\t\t_newMeanEntryLeverage,\r\n\t\t\t_positionTimestampInMs\r\n\t\t);\r\n\t\tuint adjustedMarginInterest = (marginInterest * PRECISION) / _newMeanEntryLeverage;\r\n\t\tif (_long == true) {\r\n\t\t\t_liquidationPrice = (_newMeanEntryPrice * (_newMeanEntryLeverage - (PRECISION))) / (_newMeanEntryLeverage);\r\n\t\t\t_liquidationPrice += adjustedMarginInterest;\r\n\t\t} else {\r\n\t\t\t_liquidationPrice = (_newMeanEntryPrice * (_newMeanEntryLeverage + (PRECISION))) / (_newMeanEntryLeverage);\r\n\t\t\t_liquidationPrice -= adjustedMarginInterest;\r\n\t\t}\r\n\t\treturn _liquidationPrice;\r\n\t}\r\n\r\n\t// ----------------------------------------------------------------------------\r\n\t// setPositionInState(bytes32 _orderId)\r\n\t// Updates the portfolio in Morpher State. Called by closeLong/closeShort/openLong/openShort\r\n\t// ----------------------------------------------------------------------------\r\n\tfunction setPositionInState(bytes32 _orderId) private {\r\n\t\trequire(\r\n\t\t\tMorpherToken(morpherState.morpherTokenAddress()).balanceOf(orders[_orderId].userId) +\r\n\t\t\t\t(orders[_orderId].modifyPosition.balanceUp) >=\r\n\t\t\t\torders[_orderId].modifyPosition.balanceDown,\r\n\t\t\t\"MorpherTradeEngine: insufficient funds.\"\r\n\t\t);\r\n\t\tcomputeLiquidationPrice(_orderId);\r\n\t\t// Net balanceUp and balanceDown\r\n\t\tif (orders[_orderId].modifyPosition.balanceUp > orders[_orderId].modifyPosition.balanceDown) {\r\n\t\t\torders[_orderId].modifyPosition.balanceUp -= (orders[_orderId].modifyPosition.balanceDown);\r\n\t\t\torders[_orderId].modifyPosition.balanceDown = 0;\r\n\t\t} else {\r\n\t\t\torders[_orderId].modifyPosition.balanceDown -= (orders[_orderId].modifyPosition.balanceUp);\r\n\t\t\torders[_orderId].modifyPosition.balanceUp = 0;\r\n\t\t}\r\n\t\tif (orders[_orderId].modifyPosition.balanceUp > 0) {\r\n\t\t\tMorpherToken(morpherState.morpherMintingLimiterAddress()).mint(\r\n\t\t\t\torders[_orderId].userId,\r\n\t\t\t\torders[_orderId].modifyPosition.balanceUp\r\n\t\t\t);\r\n\t\t}\r\n\t\tif (orders[_orderId].modifyPosition.balanceDown > 0) {\r\n\t\t\tMorpherToken(morpherState.morpherTokenAddress()).burn(\r\n\t\t\t\torders[_orderId].userId,\r\n\t\t\t\torders[_orderId].modifyPosition.balanceDown\r\n\t\t\t);\r\n\t\t}\r\n\t\t_setPosition(\r\n\t\t\torders[_orderId].userId,\r\n\t\t\torders[_orderId].marketId,\r\n\t\t\torders[_orderId].timeStamp,\r\n\t\t\torders[_orderId].modifyPosition.newLongShares,\r\n\t\t\torders[_orderId].modifyPosition.newShortShares,\r\n\t\t\torders[_orderId].modifyPosition.newMeanEntryPrice,\r\n\t\t\torders[_orderId].modifyPosition.newMeanEntrySpread,\r\n\t\t\torders[_orderId].modifyPosition.newMeanEntryLeverage,\r\n\t\t\torders[_orderId].modifyPosition.newLiquidationPrice\r\n\t\t);\r\n\t\temit PositionUpdated(\r\n\t\t\torders[_orderId].userId,\r\n\t\t\torders[_orderId].marketId,\r\n\t\t\torders[_orderId].timeStamp,\r\n\t\t\torders[_orderId].modifyPosition.newLongShares,\r\n\t\t\torders[_orderId].modifyPosition.newShortShares,\r\n\t\t\torders[_orderId].modifyPosition.newMeanEntryPrice,\r\n\t\t\torders[_orderId].modifyPosition.newMeanEntrySpread,\r\n\t\t\torders[_orderId].modifyPosition.newMeanEntryLeverage,\r\n\t\t\torders[_orderId].modifyPosition.newLiquidationPrice,\r\n\t\t\torders[_orderId].modifyPosition.balanceUp,\r\n\t\t\torders[_orderId].modifyPosition.balanceDown\r\n\t\t);\r\n\t}\r\n\r\n\r\n\r\n    /**\r\n     * Non custodial way of setting a position\r\n     * Used to bring positions from one chain to another\r\n     * 1. The position migration gets signed by the owner\r\n     * 2. The position migration gets signed by the position Admin \r\n     * 3. The position gets removed on sidechain (setPosition)\r\n     * 4. The position gets re-created on polygon/mainchain\r\n     * 5. Database values should change accordingly\r\n     */\r\n\tfunction setPositionWithSignature(\r\n\t\tbytes32 marketId,\r\n\t\tposition memory _position,\r\n\t\tEIP712Signature memory ownerSignature,\r\n\t\tEIP712Signature memory positionAdminSignature\r\n\t) public {\r\n        _checkPositionAdminSignature(_position, positionAdminSignature);\r\n        _checkPositionOwnerSignature(marketId, _position, ownerSignature);\r\n\t\t_setPosition(\r\n\t\t\townerSignature.signer,\r\n\t\t\tmarketId,\r\n\t\t\t_position.lastUpdated,\r\n\t\t\t_position.longShares,\r\n\t\t\t_position.shortShares,\r\n\t\t\t_position.meanEntryPrice,\r\n\t\t\t_position.meanEntrySpread,\r\n\t\t\t_position.meanEntryLeverage,\r\n\t\t\t_position.liquidationPrice\r\n\t\t);\r\n\t}\r\n\r\n    function _checkPositionOwnerSignature(bytes32 marketId,\r\n\t\tposition memory _position,\r\n\t\tEIP712Signature memory ownerSignature) internal {\r\n        require(block.timestamp <= ownerSignature.deadline, \"MorpherTradeEngine: expired deadline from owner\");\r\n\t\t\r\n\t\t//check2: owner + marketid + position == position.positionHash (means the position was burned non-custodial)\r\n\t\tbytes32 hashPositionOwner = _hashTypedDataV4(\r\n\t\t\tkeccak256(\r\n\t\t\t\tabi.encode(\r\n\t\t\t\t\tPOSITION_TYPE_HASH,\r\n\t\t\t\t\t_position.lastUpdated,\r\n\t\t\t\t\t_position.longShares,\r\n\t\t\t\t\t_position.shortShares,\r\n\t\t\t\t\t_position.meanEntryPrice,\r\n\t\t\t\t\t_position.meanEntrySpread,\r\n\t\t\t\t\t_position.meanEntryLeverage,\r\n\t\t\t\t\t_position.liquidationPrice,\r\n\t\t\t\t\townerSignature.signer,\r\n\t\t\t\t\t_useNonce(ownerSignature.signer),\r\n\t\t\t\t\townerSignature.deadline\r\n\t\t\t\t)\r\n\t\t\t)\r\n\t\t);\r\n\t\taddress signerOwner = ECDSAUpgradeable.recover(\r\n\t\t\thashPositionOwner,\r\n\t\t\townerSignature.v,\r\n\t\t\townerSignature.r,\r\n\t\t\townerSignature.s\r\n\t\t);\r\n\t\trequire(signerOwner == ownerSignature.signer, \"MorpherTradeEngine: invalid signature for Owner\");\r\n\r\n\t\t//then add position (we got a new position, but with old parameters - especially the lastUpdated)\r\n\t\tbytes32 positionHash = getPositionHash(\r\n\t\t\tsignerOwner,\r\n\t\t\tmarketId,\r\n\t\t\t_position.lastUpdated,\r\n\t\t\t_position.longShares,\r\n\t\t\t_position.shortShares,\r\n\t\t\t_position.meanEntryPrice,\r\n\t\t\t_position.meanEntrySpread,\r\n\t\t\t_position.meanEntryLeverage,\r\n\t\t\t_position.liquidationPrice\r\n\t\t);\r\n\t\trequire(positionHash == _position.positionHash, \"MorpherTradeEngine: Position Hash not matching, aborting.\");\r\n\t\t\r\n    }\r\n\r\n    function _checkPositionAdminSignature(position memory _position, EIP712Signature memory positionAdminSignature) internal  {\r\n        require(block.timestamp <= positionAdminSignature.deadline, \"MorpherTradeEngine: expired deadline from owner\");\r\n\r\n\t\t//check1: positionAdminSignature == positionadmin (means notarized the position was correctly burned on other chain)\r\n\t\tbytes32 hashPositionAdmin = _hashTypedDataV4(\r\n\t\t\tkeccak256(\r\n\t\t\t\tabi.encode(\r\n\t\t\t\t\tPOSITION_TYPE_HASH,\r\n\t\t\t\t\t_position.lastUpdated,\r\n\t\t\t\t\t_position.longShares,\r\n\t\t\t\t\t_position.shortShares,\r\n\t\t\t\t\t_position.meanEntryPrice,\r\n\t\t\t\t\t_position.meanEntrySpread,\r\n\t\t\t\t\t_position.meanEntryLeverage,\r\n\t\t\t\t\t_position.liquidationPrice,\r\n\t\t\t\t\tpositionAdminSignature.signer,\r\n\t\t\t\t\t_useNonce(positionAdminSignature.signer),\r\n\t\t\t\t\tpositionAdminSignature.deadline\r\n\t\t\t\t)\r\n\t\t\t)\r\n\t\t);\r\n\r\n\t\t//the position admin will only sign if the position has been deleted on the other chain\r\n\t\taddress signerPositionAdmin = ECDSAUpgradeable.recover(\r\n\t\t\thashPositionAdmin,\r\n\t\t\tpositionAdminSignature.v,\r\n\t\t\tpositionAdminSignature.r,\r\n\t\t\tpositionAdminSignature.s\r\n\t\t);\r\n\t\trequire(\r\n\t\t\tsignerPositionAdmin == positionAdminSignature.signer,\r\n\t\t\t\"MorpherTradeEngine: invalid signature for PositionAdmin\"\r\n\t\t);\r\n\t\trequire(\r\n\t\t\tMorpherAccessControl(morpherState.morpherAccessControlAddress()).hasRole(\r\n\t\t\t\tPOSITIONADMIN_ROLE,\r\n\t\t\t\tsignerPositionAdmin\r\n\t\t\t),\r\n\t\t\t\"MorpherTradeEngine: Permission denied, not a position admin role attached.\"\r\n\t\t);\r\n\r\n    }\r\n\r\n\t/**\r\n\t * @dev Returns the domain separator for the current chain.\r\n\t */\r\n\tfunction _domainSeparatorV4() internal view returns (bytes32) {\r\n\t\treturn _buildDomainSeparator(DOMAIN_TYPE_HASH, _EIP712NameHash(), _EIP712VersionHash());\r\n\t}\r\n\r\n\tfunction _buildDomainSeparator(\r\n\t\tbytes32 typeHash,\r\n\t\tbytes32 nameHash,\r\n\t\tbytes32 versionHash\r\n\t) private view returns (bytes32) {\r\n\t\treturn keccak256(abi.encode(typeHash, nameHash, versionHash, block.chainid, address(this)));\r\n\t}\r\n\r\n\t/**\r\n\t * @dev Given an already https://eips.ethereum.org/EIPS/eip-712#definition-of-hashstruct[hashed struct], this\r\n\t * function returns the hash of the fully encoded EIP712 message for this domain.\r\n\t *\r\n\t * This hash can be used together with {ECDSA-recover} to obtain the signer of a message. For example:\r\n\t *\r\n\t * ```solidity\r\n\t * bytes32 digest = _hashTypedDataV4(keccak256(abi.encode(\r\n\t *     keccak256(\"Mail(address to,string contents)\"),\r\n\t *     mailTo,\r\n\t *     keccak256(bytes(mailContents))\r\n\t * )));\r\n\t * address signer = ECDSA.recover(digest, signature);\r\n\t * ```\r\n\t */\r\n\tfunction _hashTypedDataV4(bytes32 structHash) internal view virtual returns (bytes32) {\r\n\t\treturn ECDSAUpgradeable.toTypedDataHash(_domainSeparatorV4(), structHash);\r\n\t}\r\n\r\n\t/**\r\n\t * @dev The hash of the name parameter for the EIP712 domain.\r\n\t *\r\n\t * NOTE: This function reads from storage by default, but can be redefined to return a constant value if gas costs\r\n\t * are a concern.\r\n\t */\r\n\tfunction _EIP712NameHash() internal view virtual returns (bytes32) {\r\n\t\treturn _HASHED_NAME;\r\n\t}\r\n\r\n\t/**\r\n\t * @dev The hash of the version parameter for the EIP712 domain.\r\n\t *\r\n\t * NOTE: This function reads from storage by default, but can be redefined to return a constant value if gas costs\r\n\t * are a concern.\r\n\t */\r\n\tfunction _EIP712VersionHash() internal view virtual returns (bytes32) {\r\n\t\treturn _HASHED_VERSION;\r\n\t}\r\n\r\n\t/**\r\n\t * @dev See {IERC20Permit-nonces}.\r\n\t */\r\n\tfunction nonces(address owner) public view virtual returns (uint256) {\r\n\t\treturn _nonces[owner].current();\r\n\t}\r\n\r\n\t/**\r\n\t * @dev See {IERC20Permit-DOMAIN_SEPARATOR}.\r\n\t */\r\n\t// solhint-disable-next-line func-name-mixedcase\r\n\tfunction DOMAIN_SEPARATOR() external view returns (bytes32) {\r\n\t\treturn _domainSeparatorV4();\r\n\t}\r\n\r\n\t/**\r\n\t * @dev \"Consume a nonce\": return the current value and increment.\r\n\t *\r\n\t * _Available since v4.1._\r\n\t */\r\n\tfunction _useNonce(address owner) internal virtual returns (uint256 current) {\r\n\t\tCountersUpgradeable.Counter storage nonce = _nonces[owner];\r\n\t\tcurrent = nonce.current();\r\n\t\tnonce.increment();\r\n\t}\r\n\r\n\tfunction setPosition(\r\n\t\taddress _address,\r\n\t\tbytes32 _marketId,\r\n\t\tuint256 _timeStamp,\r\n\t\tuint256 _longShares,\r\n\t\tuint256 _shortShares,\r\n\t\tuint256 _meanEntryPrice,\r\n\t\tuint256 _meanEntrySpread,\r\n\t\tuint256 _meanEntryLeverage,\r\n\t\tuint256 _liquidationPrice\r\n\t) public onlyRole(POSITIONADMIN_ROLE) {\r\n\t\t_setPosition(\r\n\t\t\t_address,\r\n\t\t\t_marketId,\r\n\t\t\t_timeStamp,\r\n\t\t\t_longShares,\r\n\t\t\t_shortShares,\r\n\t\t\t_meanEntryPrice,\r\n\t\t\t_meanEntrySpread,\r\n\t\t\t_meanEntryLeverage,\r\n\t\t\t_liquidationPrice\r\n\t\t);\r\n\t}\r\n\r\n\tfunction _setPosition(\r\n\t\taddress _address,\r\n\t\tbytes32 _marketId,\r\n\t\tuint256 _timeStamp,\r\n\t\tuint256 _longShares,\r\n\t\tuint256 _shortShares,\r\n\t\tuint256 _meanEntryPrice,\r\n\t\tuint256 _meanEntrySpread,\r\n\t\tuint256 _meanEntryLeverage,\r\n\t\tuint256 _liquidationPrice\r\n\t) internal {\r\n\t\tportfolio[_address][_marketId].lastUpdated = _timeStamp;\r\n\t\tportfolio[_address][_marketId].longShares = _longShares;\r\n\t\tportfolio[_address][_marketId].shortShares = _shortShares;\r\n\t\tportfolio[_address][_marketId].meanEntryPrice = _meanEntryPrice;\r\n\t\tportfolio[_address][_marketId].meanEntrySpread = _meanEntrySpread;\r\n\t\tportfolio[_address][_marketId].meanEntryLeverage = _meanEntryLeverage;\r\n\t\tportfolio[_address][_marketId].liquidationPrice = _liquidationPrice;\r\n\t\tportfolio[_address][_marketId].positionHash = getPositionHash(\r\n\t\t\t_address,\r\n\t\t\t_marketId,\r\n\t\t\t_timeStamp,\r\n\t\t\t_longShares,\r\n\t\t\t_shortShares,\r\n\t\t\t_meanEntryPrice,\r\n\t\t\t_meanEntrySpread,\r\n\t\t\t_meanEntryLeverage,\r\n\t\t\t_liquidationPrice\r\n\t\t);\r\n\t\tif (_longShares > 0 || _shortShares > 0) {\r\n\t\t\taddExposureByMarket(_marketId, _address);\r\n\t\t} else {\r\n\t\t\tdeleteExposureByMarket(_marketId, _address);\r\n\t\t}\r\n\t\temit SetPosition(\r\n\t\t\tportfolio[_address][_marketId].positionHash,\r\n\t\t\t_address,\r\n\t\t\t_marketId,\r\n\t\t\t_timeStamp,\r\n\t\t\t_longShares,\r\n\t\t\t_shortShares,\r\n\t\t\t_meanEntryPrice,\r\n\t\t\t_meanEntrySpread,\r\n\t\t\t_meanEntryLeverage,\r\n\t\t\t_liquidationPrice\r\n\t\t);\r\n\t}\r\n\r\n\tfunction getPosition(address _address, bytes32 _marketId) public view returns (position memory) {\r\n\t\treturn portfolio[_address][_marketId];\r\n\t}\r\n\r\n\tfunction getPositionHash(\r\n\t\taddress _address,\r\n\t\tbytes32 _marketId,\r\n\t\tuint256 _timeStamp,\r\n\t\tuint256 _longShares,\r\n\t\tuint256 _shortShares,\r\n\t\tuint256 _meanEntryPrice,\r\n\t\tuint256 _meanEntrySpread,\r\n\t\tuint256 _meanEntryLeverage,\r\n\t\tuint256 _liquidationPrice\r\n\t) public pure returns (bytes32 _hash) {\r\n\t\treturn\r\n\t\t\tkeccak256(\r\n\t\t\t\tabi.encodePacked(\r\n\t\t\t\t\t_address,\r\n\t\t\t\t\t_marketId,\r\n\t\t\t\t\t_timeStamp,\r\n\t\t\t\t\t_longShares,\r\n\t\t\t\t\t_shortShares,\r\n\t\t\t\t\t_meanEntryPrice,\r\n\t\t\t\t\t_meanEntrySpread,\r\n\t\t\t\t\t_meanEntryLeverage,\r\n\t\t\t\t\t_liquidationPrice\r\n\t\t\t\t)\r\n\t\t\t);\r\n\t}\r\n\r\n\tfunction addExposureByMarket(bytes32 _symbol, address _address) private {\r\n\t\t// Address must not be already recored\r\n\t\tuint256 _myExposureIndex = getExposureMappingIndex(_symbol, _address);\r\n\t\tif (_myExposureIndex == 0) {\r\n\t\t\tuint256 _maxMappingIndex = getMaxMappingIndex(_symbol) + (1);\r\n\t\t\tsetMaxMappingIndex(_symbol, _maxMappingIndex);\r\n\t\t\tsetExposureMapping(_symbol, _address, _maxMappingIndex);\r\n\t\t}\r\n\t}\r\n\r\n\tfunction deleteExposureByMarket(bytes32 _symbol, address _address) private {\r\n\t\t// Get my index in mapping\r\n\t\tuint256 _myExposureIndex = getExposureMappingIndex(_symbol, _address);\r\n\t\t// Get last element of mapping\r\n\t\tuint256 _lastIndex = getMaxMappingIndex(_symbol);\r\n\t\taddress _lastAddress = getExposureMappingAddress(_symbol, _lastIndex);\r\n\t\t// If _myExposureIndex is greater than 0 (i.e. there is an exposure of that address on that market) delete it\r\n\t\tif (_myExposureIndex > 0) {\r\n\t\t\t// If _myExposureIndex is less than _lastIndex overwrite element at _myExposureIndex with element at _lastIndex in\r\n\t\t\t// deleted elements position.\r\n\t\t\tif (_myExposureIndex < _lastIndex) {\r\n\t\t\t\tsetExposureMappingAddress(_symbol, _lastAddress, _myExposureIndex);\r\n\t\t\t\tsetExposureMappingIndex(_symbol, _lastAddress, _myExposureIndex);\r\n\t\t\t}\r\n\t\t\t// Delete _lastIndex and _lastAddress element and reduce maxExposureIndex\r\n\t\t\tsetExposureMappingAddress(_symbol, address(0), _lastIndex);\r\n\t\t\tsetExposureMappingIndex(_symbol, _address, 0);\r\n\t\t\t// Shouldn't happen, but check that not empty\r\n\t\t\tif (_lastIndex > 0) {\r\n\t\t\t\tsetMaxMappingIndex(_symbol, _lastIndex - (1));\r\n\t\t\t}\r\n\t\t}\r\n\t}\r\n\r\n\tfunction getMaxMappingIndex(bytes32 _marketId) public view returns (uint256 _maxMappingIndex) {\r\n\t\treturn exposureByMarket[_marketId].maxMappingIndex;\r\n\t}\r\n\r\n\tfunction getExposureMappingIndex(bytes32 _marketId, address _address) public view returns (uint256 _mappingIndex) {\r\n\t\treturn exposureByMarket[_marketId].index[_address];\r\n\t}\r\n\r\n\tfunction getExposureMappingAddress(\r\n\t\tbytes32 _marketId,\r\n\t\tuint256 _mappingIndex\r\n\t) public view returns (address _address) {\r\n\t\treturn exposureByMarket[_marketId].addy[_mappingIndex];\r\n\t}\r\n\r\n\tfunction setMaxMappingIndex(bytes32 _marketId, uint256 _maxMappingIndex) private {\r\n\t\texposureByMarket[_marketId].maxMappingIndex = _maxMappingIndex;\r\n\t}\r\n\r\n\tfunction setExposureMapping(bytes32 _marketId, address _address, uint256 _index) private {\r\n\t\tsetExposureMappingIndex(_marketId, _address, _index);\r\n\t\tsetExposureMappingAddress(_marketId, _address, _index);\r\n\t}\r\n\r\n\tfunction setExposureMappingIndex(bytes32 _marketId, address _address, uint256 _index) private {\r\n\t\texposureByMarket[_marketId].index[_address] = _index;\r\n\t}\r\n\r\n\tfunction setExposureMappingAddress(bytes32 _marketId, address _address, uint256 _index) private {\r\n\t\texposureByMarket[_marketId].addy[_index] = _address;\r\n\t}\r\n}\r\n",
  "sourcePath": "/Users/thomas/Projects/Morpher/MorpherProtocol/contracts/MorpherTradeEngine.sol",
  "compiler": {
    "name": "solc",
    "version": "0.8.20+commit.a1b79de6.Emscripten.clang"
  },
  "schemaVersion": "3.4.16",
  "updatedAt": "2024-06-25T08:12:26.358Z",
  "networkType": "ethereum",
  "devdoc": {
    "events": {
      "Initialized(uint8)": {
        "details": "Triggered when the contract has been initialized or reinitialized."
      }
    },
    "kind": "dev",
    "methods": {
      "DOMAIN_SEPARATOR()": {
        "details": "See {IERC20Permit-DOMAIN_SEPARATOR}."
      },
      "nonces(address)": {
        "details": "See {IERC20Permit-nonces}."
      }
    },
    "version": 1
  },
  "userdoc": {
    "kind": "user",
    "methods": {
      "ADMINISTRATOR_ROLE()": {
        "notice": "Known Roles to Trade Engine"
      },
      "interestRate()": {
        "notice": "fallback function in case the old tradeengine asks for the current interest rate"
      },
      "setLeverageInterestRate(uint256)": {
        "notice": "Interest rate"
      },
      "setPositionWithSignature(bytes32,(uint256,uint256,uint256,uint256,uint256,uint256,uint256,bytes32),(bytes32,bytes32,uint8,uint256,address),(bytes32,bytes32,uint8,uint256,address))": {
        "notice": "Non custodial way of setting a position Used to bring positions from one chain to another 1. The position migration gets signed by the owner 2. The position migration gets signed by the position Admin  3. The position gets removed on sidechain (setPosition) 4. The position gets re-created on polygon/mainchain 5. Database values should change accordingly"
      }
    },
    "version": 1
  }
}