{
  "contractName": "MorpherGovernance",
  "abi": [
    {
      "inputs": [
        {
          "internalType": "address",
          "name": "_stateAddress",
          "type": "address"
        },
        {
          "internalType": "address",
          "name": "_coldStorageOwnerAddress",
          "type": "address"
        }
      ],
      "payable": false,
      "stateMutability": "nonpayable",
      "type": "constructor"
    },
    {
      "anonymous": false,
      "inputs": [
        {
          "indexed": true,
          "internalType": "address",
          "name": "_sender",
          "type": "address"
        },
        {
          "indexed": true,
          "internalType": "uint256",
          "name": "_myValidatorIndex",
          "type": "uint256"
        }
      ],
      "name": "BecomeValidator",
      "type": "event"
    },
    {
      "anonymous": false,
      "inputs": [
        {
          "indexed": true,
          "internalType": "address",
          "name": "_administratorAddress",
          "type": "address"
        },
        {
          "indexed": false,
          "internalType": "uint256",
          "name": "_votes",
          "type": "uint256"
        }
      ],
      "name": "ElectedAdministrator",
      "type": "event"
    },
    {
      "anonymous": false,
      "inputs": [
        {
          "indexed": true,
          "internalType": "address",
          "name": "_oracleAddress",
          "type": "address"
        },
        {
          "indexed": false,
          "internalType": "uint256",
          "name": "_votes",
          "type": "uint256"
        }
      ],
      "name": "ElectedOracle",
      "type": "event"
    },
    {
      "anonymous": false,
      "inputs": [
        {
          "indexed": true,
          "internalType": "address",
          "name": "previousOwner",
          "type": "address"
        },
        {
          "indexed": true,
          "internalType": "address",
          "name": "newOwner",
          "type": "address"
        }
      ],
      "name": "OwnershipTransferred",
      "type": "event"
    },
    {
      "anonymous": false,
      "inputs": [
        {
          "indexed": true,
          "internalType": "address",
          "name": "_sender",
          "type": "address"
        },
        {
          "indexed": true,
          "internalType": "uint256",
          "name": "_myValidatorIndex",
          "type": "uint256"
        }
      ],
      "name": "StepDownAsValidator",
      "type": "event"
    },
    {
      "constant": true,
      "inputs": [],
      "name": "MAXVALIDATORS",
      "outputs": [
        {
          "internalType": "uint256",
          "name": "",
          "type": "uint256"
        }
      ],
      "payable": false,
      "stateMutability": "view",
      "type": "function"
    },
    {
      "constant": true,
      "inputs": [],
      "name": "MINVALIDATORLOCKUP",
      "outputs": [
        {
          "internalType": "uint256",
          "name": "",
          "type": "uint256"
        }
      ],
      "payable": false,
      "stateMutability": "view",
      "type": "function"
    },
    {
      "constant": true,
      "inputs": [],
      "name": "VALIDATORWARMUPPERIOD",
      "outputs": [
        {
          "internalType": "uint256",
          "name": "",
          "type": "uint256"
        }
      ],
      "payable": false,
      "stateMutability": "view",
      "type": "function"
    },
    {
      "constant": true,
      "inputs": [],
      "name": "_owner",
      "outputs": [
        {
          "internalType": "address",
          "name": "",
          "type": "address"
        }
      ],
      "payable": false,
      "stateMutability": "view",
      "type": "function"
    },
    {
      "constant": true,
      "inputs": [],
      "name": "isOwner",
      "outputs": [
        {
          "internalType": "bool",
          "name": "",
          "type": "bool"
        }
      ],
      "payable": false,
      "stateMutability": "view",
      "type": "function"
    },
    {
      "constant": true,
      "inputs": [],
      "name": "lastValidatorJoined",
      "outputs": [
        {
          "internalType": "uint256",
          "name": "",
          "type": "uint256"
        }
      ],
      "payable": false,
      "stateMutability": "view",
      "type": "function"
    },
    {
      "constant": true,
      "inputs": [],
      "name": "morpherToken",
      "outputs": [
        {
          "internalType": "address",
          "name": "",
          "type": "address"
        }
      ],
      "payable": false,
      "stateMutability": "view",
      "type": "function"
    },
    {
      "constant": true,
      "inputs": [],
      "name": "numberOfValidators",
      "outputs": [
        {
          "internalType": "uint256",
          "name": "",
          "type": "uint256"
        }
      ],
      "payable": false,
      "stateMutability": "view",
      "type": "function"
    },
    {
      "constant": true,
      "inputs": [],
      "name": "owner",
      "outputs": [
        {
          "internalType": "address",
          "name": "",
          "type": "address"
        }
      ],
      "payable": false,
      "stateMutability": "view",
      "type": "function"
    },
    {
      "constant": false,
      "inputs": [],
      "name": "renounceOwnership",
      "outputs": [],
      "payable": false,
      "stateMutability": "nonpayable",
      "type": "function"
    },
    {
      "constant": true,
      "inputs": [],
      "name": "rewardBasisPoints",
      "outputs": [
        {
          "internalType": "uint256",
          "name": "",
          "type": "uint256"
        }
      ],
      "payable": false,
      "stateMutability": "view",
      "type": "function"
    },
    {
      "constant": false,
      "inputs": [
        {
          "internalType": "address",
          "name": "_tokenAddress",
          "type": "address"
        },
        {
          "internalType": "uint256",
          "name": "_tokens",
          "type": "uint256"
        }
      ],
      "name": "transferAnyERC20Token",
      "outputs": [
        {
          "internalType": "bool",
          "name": "_success",
          "type": "bool"
        }
      ],
      "payable": false,
      "stateMutability": "nonpayable",
      "type": "function"
    },
    {
      "constant": false,
      "inputs": [
        {
          "internalType": "address",
          "name": "newOwner",
          "type": "address"
        }
      ],
      "name": "transferOwnership",
      "outputs": [],
      "payable": false,
      "stateMutability": "nonpayable",
      "type": "function"
    },
    {
      "constant": false,
      "inputs": [
        {
          "internalType": "address",
          "name": "_address",
          "type": "address"
        }
      ],
      "name": "setMorpherTokenAddress",
      "outputs": [],
      "payable": false,
      "stateMutability": "nonpayable",
      "type": "function"
    },
    {
      "constant": true,
      "inputs": [
        {
          "internalType": "uint256",
          "name": "_index",
          "type": "uint256"
        }
      ],
      "name": "getValidatorAddress",
      "outputs": [
        {
          "internalType": "address",
          "name": "_address",
          "type": "address"
        }
      ],
      "payable": false,
      "stateMutability": "view",
      "type": "function"
    },
    {
      "constant": true,
      "inputs": [
        {
          "internalType": "address",
          "name": "_address",
          "type": "address"
        }
      ],
      "name": "getValidatorIndex",
      "outputs": [
        {
          "internalType": "uint256",
          "name": "_index",
          "type": "uint256"
        }
      ],
      "payable": false,
      "stateMutability": "view",
      "type": "function"
    },
    {
      "constant": true,
      "inputs": [
        {
          "internalType": "address",
          "name": "_address",
          "type": "address"
        }
      ],
      "name": "isValidator",
      "outputs": [
        {
          "internalType": "bool",
          "name": "",
          "type": "bool"
        }
      ],
      "payable": false,
      "stateMutability": "view",
      "type": "function"
    },
    {
      "constant": true,
      "inputs": [],
      "name": "getMorpherAdministrator",
      "outputs": [
        {
          "internalType": "address",
          "name": "_address",
          "type": "address"
        }
      ],
      "payable": false,
      "stateMutability": "view",
      "type": "function"
    },
    {
      "constant": true,
      "inputs": [],
      "name": "getMorpherOracle",
      "outputs": [
        {
          "internalType": "address",
          "name": "_address",
          "type": "address"
        }
      ],
      "payable": false,
      "stateMutability": "view",
      "type": "function"
    },
    {
      "constant": true,
      "inputs": [
        {
          "internalType": "address",
          "name": "_address",
          "type": "address"
        }
      ],
      "name": "getOracleVote",
      "outputs": [
        {
          "internalType": "address",
          "name": "_votedOracleAddress",
          "type": "address"
        }
      ],
      "payable": false,
      "stateMutability": "view",
      "type": "function"
    },
    {
      "constant": false,
      "inputs": [],
      "name": "becomeValidator",
      "outputs": [],
      "payable": false,
      "stateMutability": "nonpayable",
      "type": "function"
    },
    {
      "constant": false,
      "inputs": [],
      "name": "stepDownValidator",
      "outputs": [],
      "payable": false,
      "stateMutability": "nonpayable",
      "type": "function"
    },
    {
      "constant": false,
      "inputs": [
        {
          "internalType": "address",
          "name": "_oracleAddress",
          "type": "address"
        }
      ],
      "name": "voteOracle",
      "outputs": [],
      "payable": false,
      "stateMutability": "nonpayable",
      "type": "function"
    },
    {
      "constant": false,
      "inputs": [
        {
          "internalType": "address",
          "name": "_administratorAddress",
          "type": "address"
        }
      ],
      "name": "voteAdministrator",
      "outputs": [],
      "payable": false,
      "stateMutability": "nonpayable",
      "type": "function"
    },
    {
      "constant": false,
      "inputs": [],
      "name": "countOracleVote",
      "outputs": [
        {
          "internalType": "address",
          "name": "_votedOracleAddress",
          "type": "address"
        },
        {
          "internalType": "uint256",
          "name": "_votes",
          "type": "uint256"
        }
      ],
      "payable": false,
      "stateMutability": "nonpayable",
      "type": "function"
    },
    {
      "constant": false,
      "inputs": [],
      "name": "countAdministratorVote",
      "outputs": [
        {
          "internalType": "address",
          "name": "_appointedAdministrator",
          "type": "address"
        },
        {
          "internalType": "uint256",
          "name": "_votes",
          "type": "uint256"
        }
      ],
      "payable": false,
      "stateMutability": "nonpayable",
      "type": "function"
    }
  ],
  "bytecode": "0x60806040523480156200001157600080fd5b5060405162001c3338038062001c33833981810160405260408110156200003757600080fd5b508051602090910151600080546001600160a01b03191633178082556040516001600160a01b0391909116919060008051602062001c13833981519152908290a36200008c826001600160e01b03620000a816565b620000a0816001600160e01b03620000ca16565b5050620001e8565b600180546001600160a01b0319166001600160a01b0392909216919091179055565b620000dd6001600160e01b036200014616565b6200012f576040805162461bcd60e51b815260206004820181905260248201527f4f776e61626c653a2063616c6c65722073686f756c64206265206f776e65722e604482015290519081900360640190fd5b62000143816001600160e01b036200015716565b50565b6000546001600160a01b0316331490565b6001600160a01b0381166200019e5760405162461bcd60e51b815260040180806020018281038252602881526020018062001beb6028913960400191505060405180910390fd5b600080546040516001600160a01b038085169392169160008051602062001c1383398151915291a3600080546001600160a01b0319166001600160a01b0392909216919091179055565b6119f380620001f86000396000f3fe608060405234801561001057600080fd5b506004361061018e5760003560e01c80637d0ba883116100de578063c89b572211610097578063dc39d06d11610071578063dc39d06d14610355578063e927d9ba14610381578063f2fde38b14610389578063facd743b146103af5761018e565b8063c89b57221461031a578063cbb6ac8714610345578063d6832ea91461034d5761018e565b80637d0ba883146102b85780638da5cb5b146102de5780638f32d59b146102e6578063aae5349a14610302578063b2bdfa7b1461030a578063bb65b242146103125761018e565b806341df7ce01161014b5780636a0b0612116101255780636a0b061214610298578063706277da146102a0578063715018a6146102a857806379a5056c146102b05761018e565b806341df7ce014610244578063458fc8171461024c57806352af19b2146102725761018e565b806314242b3714610193578063142991cc146101cc5780631fcc449e146101d45780632ca7427d1461020c5780632e2c5164146102145780633817f5541461021c575b600080fd5b6101b0600480360360208110156101a957600080fd5b50356103d5565b604080516001600160a01b039092168252519081900360200190f35b6101b06103f0565b6101fa600480360360208110156101ea57600080fd5b50356001600160a01b0316610466565b60408051918252519081900360200190f35b6101fa610481565b6101b0610487565b6102426004803603602081101561023257600080fd5b50356001600160a01b03166104cc565b005b6101fa610535565b6101b06004803603602081101561026257600080fd5b50356001600160a01b0316610544565b6102426004803603602081101561028857600080fd5b50356001600160a01b0316610562565b6102426106d6565b6101b0610bd5565b610242610be4565b610242610c75565b610242600480360360208110156102ce57600080fd5b50356001600160a01b0316610edf565b6101b0611053565b6102ee611062565b604080519115158252519081900360200190f35b6101fa611073565b6101b061107a565b6101fa611089565b61032261108f565b604080516001600160a01b03909316835260208301919091528051918290030190f35b6101fa6111ae565b6101fa6111b3565b6102ee6004803603604081101561036b57600080fd5b506001600160a01b0381351690602001356111b9565b61032261129e565b6102426004803603602081101561039f57600080fd5b50356001600160a01b0316611364565b6102ee600480360360208110156103c557600080fd5b50356001600160a01b03166113b7565b6000908152600860205260409020546001600160a01b031690565b6001546040805163e3bbb56560e01b815290516000926001600160a01b03169163e3bbb565916004808301926020929190829003018186803b15801561043557600080fd5b505afa158015610449573d6000803e3d6000fd5b505050506040513d602081101561045f57600080fd5b5051905090565b6001600160a01b031660009081526006602052604090205490565b60035481565b60015460408051631696740760e01b815290516000926001600160a01b0316916316967407916004808301926020929190829003018186803b15801561043557600080fd5b6104d4611062565b610513576040805162461bcd60e51b81526020600482018190526024820152600080516020611959833981519152604482015290519081900360640190fd5b600580546001600160a01b0319166001600160a01b0392909216919091179055565b6a084595161401484a00000081565b6001600160a01b039081166000908152600960205260409020541690565b61056b336113b7565b6105a65760405162461bcd60e51b815260040180806020018281038252603c815260200180611800603c913960400191505060405180910390fd5b3360009081526007602052604090205442906105cb9062093a8063ffffffff6113d416565b106106075760405162461bcd60e51b81526004018080602001828103825260508152602001806118c16050913960600191505060405180910390fd5b600354429061061f9062093a8063ffffffff6113d416565b1061065b5760405162461bcd60e51b815260040180806020018281038252606a815260200180611766606a913960800191505060405180910390fd5b336000908152600a6020526040812080546001600160a01b0319166001600160a01b0384161790558061068c61129e565b91509150816001600160a01b03167f56eba5abf9c6bf4324675427414ed3824a53b7515bc561cdd25362d133a70ae8826040518082815260200191505060405180910390a2505050565b6106df336113b7565b61071a5760405162461bcd60e51b815260040180806020018281038252603c815260200180611800603c913960400191505060405180910390fd5b33600090815260066020526040902054600254610749906a084595161401484a0000009063ffffffff61143516565b600154604080516370a0823160e01b815230600482015290516001600160a01b03909216916370a0823191602480820192602092909190829003018186803b15801561079457600080fd5b505afa1580156107a8573d6000803e3d6000fd5b505050506040513d60208110156107be57600080fd5b505110156107fd5760405162461bcd60e51b81526004018080602001828103825260488152602001806119116048913960600191505060405180910390fd5b805b6002548110156109b657600180820160009081526008602081815260408084205486855281852080546001600160a01b0319166001600160a01b03928316178082558216865260068452918520879055945493869052919052549082169163beabacc89130911661089360636108876a084595161401484a000000606463ffffffff61148e16565b9063ffffffff61143516565b6040518463ffffffff1660e01b815260040180846001600160a01b03166001600160a01b03168152602001836001600160a01b03166001600160a01b031681526020018281526020019350505050600060405180830381600087803b1580156108fb57600080fd5b505af115801561090f573d6000803e3d6000fd5b50506001546001600160a01b03169150639dc29fac9050306109436a084595161401484a000000606463ffffffff61148e16565b6040518363ffffffff1660e01b815260040180836001600160a01b03166001600160a01b0316815260200182815260200192505050600060405180830381600087803b15801561099257600080fd5b505af11580156109a6573d6000803e3d6000fd5b5050600190920191506107ff9050565b5060028054600090815260086020908152604080832080546001600160a01b0319908116909155338452600683528184208490556007835281842084905560098352818420805482169055600a9092529091208054909116905554610a2290600163ffffffff6114d016565b600255610a2d61108f565b5050610a3761129e565b50506001546001600160a01b031663beabacc83033610a7d60636108876064610a716a084595161401484a0000008a63ffffffff61143516565b9063ffffffff61148e16565b6040518463ffffffff1660e01b815260040180846001600160a01b03166001600160a01b03168152602001836001600160a01b03166001600160a01b031681526020018281526020019350505050600060405180830381600087803b158015610ae557600080fd5b505af1158015610af9573d6000803e3d6000fd5b50506001546001600160a01b03169150639dc29fac905030610b316064610a716a084595161401484a0000008763ffffffff61143516565b6040518363ffffffff1660e01b815260040180836001600160a01b03166001600160a01b0316815260200182815260200192505050600060405180830381600087803b158015610b8057600080fd5b505af1158015610b94573d6000803e3d6000fd5b5050336000818152600660205260408082205490519094509192507fcd8aa545bb9ad3d801b90d3ca6949ad5d130bd763080a4382a6ce2babb25664691a350565b6005546001600160a01b031681565b610bec611062565b610c2b576040805162461bcd60e51b81526020600482018190526024820152600080516020611959833981519152604482015290519081900360640190fd5b600080546040516001600160a01b03909116907f8be0079c531659141344cd1fd0a4f28419497f9722a3daafe3b4186f6b6457e0908390a3600080546001600160a01b0319169055565b6000610ca8610c9060016002546113d490919063ffffffff16565b6a084595161401484a0000009063ffffffff61143516565b600154604080516370a0823160e01b8152336004820152905192935083926001600160a01b03909216916370a0823191602480820192602092909190829003018186803b158015610cf857600080fd5b505afa158015610d0c573d6000803e3d6000fd5b505050506040513d6020811015610d2257600080fd5b50511015610d615760405162461bcd60e51b815260040180806020018281038252603c815260200180611864603c913960400191505060405180910390fd5b610d6a336113b7565b15610da65760405162461bcd60e51b81526004018080602001828103825260308152602001806117d06030913960400191505060405180910390fd5b60156002541115610de85760405162461bcd60e51b81526004018080602001828103825260468152602001806119796046913960600191505060405180910390fd5b600154604080516317d5759960e31b81523360048201523060248201526044810184905290516001600160a01b039092169163beabacc89160648082019260009290919082900301818387803b158015610e4157600080fd5b505af1158015610e55573d6000803e3d6000fd5b5050600254610e6e92509050600163ffffffff6113d416565b600281815533600081815260066020908152604080832095909555600781528482204290819055600355835482526008905283812080546001600160a01b031916831790559154925190917ffa6ba977fa09668b5481d0df962807dfdc6e0c36246e2e53a8da51548736850291a350565b610ee8336113b7565b610f235760405162461bcd60e51b815260040180806020018281038252603c815260200180611800603c913960400191505060405180910390fd5b336000908152600760205260409020544290610f489062093a8063ffffffff6113d416565b10610f845760405162461bcd60e51b81526004018080602001828103825260508152602001806118c16050913960600191505060405180910390fd5b6003544290610f9c9062093a8063ffffffff6113d416565b10610fd85760405162461bcd60e51b815260040180806020018281038252606a815260200180611766606a913960800191505060405180910390fd5b33600090815260096020526040812080546001600160a01b0319166001600160a01b0384161790558061100961108f565b91509150816001600160a01b03167f12d3af2f240a8942e93bd4424f710f2769cfbe77ee2eab07662a4ae0b2ea436a826040518082815260200191505060405180910390a2505050565b6000546001600160a01b031690565b6000546001600160a01b0316331490565b62093a8081565b6000546001600160a01b031681565b60045481565b60008060015b600254811161113f57600081815260086020908152604080832080546001600160a01b03908116855260098085528386205482168652600b80865284872080546001019055925482168652845282852054168452909152902054821015611137576000818152600860209081526040808320546001600160a01b03908116808552600980855283862054909216808652600b8552928520549452909152935091505b600101611095565b50600280546111539163ffffffff61148e16565b8111156111635761116382611512565b60015b60025481116111a9576000818152600860209081526040808320546001600160a01b039081168452600a835281842054168352600b909152812055600101611166565b509091565b601581565b60025481565b60006111c3611062565b611202576040805162461bcd60e51b81526020600482018190526024820152600080516020611959833981519152604482015290519081900360640190fd5b826001600160a01b031663a9059cbb611219611053565b846040518363ffffffff1660e01b815260040180836001600160a01b03166001600160a01b0316815260200182815260200192505050602060405180830381600087803b15801561126957600080fd5b505af115801561127d573d6000803e3d6000fd5b505050506040513d602081101561129357600080fd5b505190505b92915050565b60008060015b600254811161134e57600081815260086020908152604080832080546001600160a01b039081168552600a8085528386205482168652600b80865284872080546001019055925482168652845282852054168452909152902054821015611346576000818152600860209081526040808320546001600160a01b03908116808552600a80855283862054909216808652600b8552928520549452909152935091505b6001016112a4565b506002805404811115611163576111638261157b565b61136c611062565b6113ab576040805162461bcd60e51b81526020600482018190526024820152600080516020611959833981519152604482015290519081900360640190fd5b6113b4816115c9565b50565b6001600160a01b0316600090815260066020526040902054151590565b60008282018381101561142e576040805162461bcd60e51b815260206004820152601b60248201527f536166654d6174683a206164646974696f6e206f766572666c6f770000000000604482015290519081900360640190fd5b9392505050565b60008261144457506000611298565b8282028284828161145157fe5b041461142e5760405162461bcd60e51b81526004018080602001828103825260218152602001806118a06021913960400191505060405180910390fd5b600061142e83836040518060400160405280601a81526020017f536166654d6174683a206469766973696f6e206279207a65726f000000000000815250611669565b600061142e83836040518060400160405280601e81526020017f536166654d6174683a207375627472616374696f6e206f766572666c6f77000081525061170b565b6001546040805163496ccd9b60e01b81526001600160a01b0384811660048301529151919092169163496ccd9b91602480830192600092919082900301818387803b15801561156057600080fd5b505af1158015611574573d6000803e3d6000fd5b5050505050565b6001546040805163df8089ef60e01b81526001600160a01b0384811660048301529151919092169163df8089ef91602480830192600092919082900301818387803b15801561156057600080fd5b6001600160a01b03811661160e5760405162461bcd60e51b815260040180806020018281038252602881526020018061183c6028913960400191505060405180910390fd5b600080546040516001600160a01b03808516939216917f8be0079c531659141344cd1fd0a4f28419497f9722a3daafe3b4186f6b6457e091a3600080546001600160a01b0319166001600160a01b0392909216919091179055565b600081836116f55760405162461bcd60e51b81526004018080602001828103825283818151815260200191508051906020019080838360005b838110156116ba5781810151838201526020016116a2565b50505050905090810190601f1680156116e75780820380516001836020036101000a031916815260200191505b509250505060405180910390fd5b50600083858161170157fe5b0495945050505050565b6000818484111561175d5760405162461bcd60e51b81526020600482018181528351602484015283519092839260449091019190850190808383600083156116ba5781810151838201526020016116a2565b50505090039056fe4d6f7270686572476f7665726e616e63653a204e65772076616c696461746f72206a6f696e65642074686520626f61726420726563656e746c792c20706c65617365207761697420666f722074686520656e64206f6620746865207761726d20757020706572696f642e4d6f7270686572476f7665726e616e63653a204164647265737320697320616c72656164792056616c696461746f722e4d6f7270686572476f7665726e616e63653a204f6e6c792056616c696461746f72732063616e20696e766f6b6520746861742066756e6374696f6e2e4f776e61626c653a207573652072656e6f756e6365206f776e65727368697020696e73746561642e4d6f7270686572476f7665726e616e63653a20496e73756666696369656e742062616c616e636520746f206265636f6d652056616c696461746f722e536166654d6174683a206d756c7469706c69636174696f6e206f766572666c6f774d6f7270686572476f7665726e616e63653a2056616c696461746f7220776173206a757374206170706f696e74656420616e64206973206e6f7420656c696769626c6520746f20766f7465207965742e4d6f7270686572476f7665726e616e63653a20457363726f7720646f6573206e6f74206861766520656e6f7567682066756e64732e2053686f756c64206e6f742068617070656e2e4f776e61626c653a2063616c6c65722073686f756c64206265206f776e65722e4d6f7270686572476f7665726e616e63653a206e756d626572206f662056616c696461746f72732063616e206e6f7420657863656564204d61782056616c696461746f72732ea265627a7a72315820142cf7159f08deaa9bb7498d5cfa0b801d90fc7b53a3b2c7885a81256e53a8a264736f6c634300051000324f776e61626c653a207573652072656e6f756e6365206f776e65727368697020696e73746561642e8be0079c531659141344cd1fd0a4f28419497f9722a3daafe3b4186f6b6457e0",
  "source": "pragma solidity 0.5.16;\n// ------------------------------------------------------------------------\n// Morpher Governance (MAIN CHAIN ONLY)\n//\n// Every user able and willig to lock up sufficient token can become a validator\n// of the Morpher protocol. Validators function similiar to a board of directors\n// and vote on the protocol Administrator and the Oracle contract.\n// The Administrator (=Protocol CEO) has the power to add/delete markets and to\n// pause the contracts to allow for updates.\n// The Oracle contract is the address of the contract allowed to fetch prices\n// from outside the smart contract.\n//\n// It becomes progressively harder to become a valdiator. Each new validator\n// has to lock up (numberOfValidators + 1) * 10m Morpher token. Upon stepping\n// down as validator only 99% of the locked up token are returned, the other 1%\n// are burned.\n//\n// Governance is expected to become more sophisticated in the future\n// ------------------------------------------------------------------------\n\nimport \"./Ownable.sol\";\nimport \"./SafeMath.sol\";\nimport \"./MorpherState.sol\";\n\ncontract MorpherGovernance is Ownable {\n\n    using SafeMath for uint256;\n    MorpherState state;\n    \n    event BecomeValidator(address indexed _sender, uint256 indexed _myValidatorIndex);\n    event StepDownAsValidator(address indexed _sender, uint256 indexed _myValidatorIndex);\n    event ElectedAdministrator(address indexed _administratorAddress, uint256 _votes);\n    event ElectedOracle(address indexed _oracleAddress, uint256 _votes);\n\n    uint256 public constant MINVALIDATORLOCKUP = 10**25;\n    uint256 public constant MAXVALIDATORS = 21;\n    uint256 public constant VALIDATORWARMUPPERIOD = 7 days;\n\n    uint256 public numberOfValidators;\n    uint256 public lastValidatorJoined;\n    uint256 public rewardBasisPoints;\n\n    address public morpherToken;\n\n    mapping(address => uint256) private validatorIndex;\n    mapping(address => uint256) private validatorJoinedAtTime;\n    mapping(uint256 => address) private validatorAddress;\n    mapping(address => address) private oracleVote;\n    mapping(address => address) private administratorVote;\n    mapping(address => uint256) private countVotes;\n\n    constructor(address _stateAddress, address _coldStorageOwnerAddress) public {\n        setMorpherState(_stateAddress);\n        transferOwnership(_coldStorageOwnerAddress);        \n    }\n    \n    modifier onlyValidator() {\n        require(isValidator(msg.sender), \"MorpherGovernance: Only Validators can invoke that function.\");\n        _;\n    }\n\n    function setMorpherState(address _stateAddress) private {\n        state = MorpherState(_stateAddress);\n    }\n\n    function setMorpherTokenAddress(address _address) public onlyOwner {\n        morpherToken = _address;\n    }\n\n    function getValidatorAddress(uint256 _index) public view returns (address _address) {\n        return validatorAddress[_index];\n    }\n\n    function getValidatorIndex(address _address) public view returns (uint256 _index) {\n        return validatorIndex[_address];\n    }\n\n    function isValidator(address _address) public view returns (bool) {\n        return validatorIndex[_address] > 0;\n    }\n\n    function setOracle(address  _oracleAddress) private {\n        state.setOracleContract(_oracleAddress);\n    }\n\n    function setAdministrator(address _administratorAddress) private {\n        state.setAdministrator(_administratorAddress);\n    }\n\n    function getMorpherAdministrator() public view returns (address _address) {\n        return state.getAdministrator();\n    }\n\n    function getMorpherOracle() public view returns (address _address)  {\n        return state.getOracleContract();\n    }\n\n    function getOracleVote(address _address) public view returns (address _votedOracleAddress) {\n        return oracleVote[_address];\n    }\n\n    function becomeValidator() public {\n        // To become a validator you have to lock up 10m * (number of validators + 1) Morpher Token in escrow\n        // After a warmup period of 7 days the new validator can vote on Oracle contract and protocol Administrator\n        uint256 _requiredAmount = MINVALIDATORLOCKUP.mul(numberOfValidators.add(1));\n        require(state.balanceOf(msg.sender) >= _requiredAmount, \"MorpherGovernance: Insufficient balance to become Validator.\");\n        require(isValidator(msg.sender) == false, \"MorpherGovernance: Address is already Validator.\");\n        require(numberOfValidators <= MAXVALIDATORS, \"MorpherGovernance: number of Validators can not exceed Max Validators.\");\n        state.transfer(msg.sender, address(this), _requiredAmount);\n        numberOfValidators = numberOfValidators.add(1);\n        validatorIndex[msg.sender] = numberOfValidators;\n        validatorJoinedAtTime[msg.sender] = now;\n        lastValidatorJoined = now;\n        validatorAddress[numberOfValidators] = msg.sender;\n        emit BecomeValidator(msg.sender, numberOfValidators);\n    }\n\n    function stepDownValidator() public onlyValidator {\n        // Stepping down as validator nullifies the validator's votes and releases his token\n        // from escrow. If the validator stepping down is not the validator that joined last,\n        // all validators who joined after the validator stepping down receive 10^7 * 0.99 token from\n        // escrow, and their validator ordinal number is reduced by one. E.g. if validator 3 of 5 steps down\n        // validator 4 becomes validator 3, and validator 5 becomes validator 4. Both receive 10^7 * 0.99 token\n        // from escrow, as their new position requires fewer token in lockup. 1% of the token released from escrow \n        // are burned for every validator receiving a payout. \n        // Burning prevents vote delay attacks: validators stepping down and re-joining could\n        // delay votes for VALIDATORWARMUPPERIOD.\n        uint256 _myValidatorIndex = validatorIndex[msg.sender];\n        require(state.balanceOf(address(this)) >= MINVALIDATORLOCKUP.mul(numberOfValidators), \"MorpherGovernance: Escrow does not have enough funds. Should not happen.\");\n        // Stepping down as validator potentially releases token to the other validatorAddresses\n        for (uint256 i = _myValidatorIndex; i < numberOfValidators; i++) {\n            validatorAddress[i] = validatorAddress[i+1];\n            validatorIndex[validatorAddress[i]] = i;\n            // Release 9.9m of token to every validator moving up, burn 0.1m token\n            state.transfer(address(this), validatorAddress[i], MINVALIDATORLOCKUP.div(100).mul(99));\n            state.burn(address(this), MINVALIDATORLOCKUP.div(100));\n        }\n        // Release 99% of escrow token of validator dropping out, burn 1%\n        validatorAddress[numberOfValidators] = address(0);\n        validatorIndex[msg.sender] = 0;\n        validatorJoinedAtTime[msg.sender] = 0;\n        oracleVote[msg.sender] = address(0);\n        administratorVote[msg.sender] = address(0);\n        numberOfValidators = numberOfValidators.sub(1);\n        countOracleVote();\n        countAdministratorVote();\n        state.transfer(address(this), msg.sender, MINVALIDATORLOCKUP.mul(_myValidatorIndex).div(100).mul(99));\n        state.burn(address(this), MINVALIDATORLOCKUP.mul(_myValidatorIndex).div(100));\n        emit StepDownAsValidator(msg.sender, validatorIndex[msg.sender]);\n    }\n\n    function voteOracle(address _oracleAddress) public onlyValidator {\n        require(validatorJoinedAtTime[msg.sender].add(VALIDATORWARMUPPERIOD) < now, \"MorpherGovernance: Validator was just appointed and is not eligible to vote yet.\");\n        require(lastValidatorJoined.add(VALIDATORWARMUPPERIOD) < now, \"MorpherGovernance: New validator joined the board recently, please wait for the end of the warm up period.\");\n        oracleVote[msg.sender] = _oracleAddress;\n        // Count Oracle Votes\n        (address _votedOracleAddress, uint256 _votes) = countOracleVote();\n        emit ElectedOracle(_votedOracleAddress, _votes);\n    }\n\n    function voteAdministrator(address _administratorAddress) public onlyValidator {\n        require(validatorJoinedAtTime[msg.sender].add(VALIDATORWARMUPPERIOD) < now, \"MorpherGovernance: Validator was just appointed and is not eligible to vote yet.\");\n        require(lastValidatorJoined.add(VALIDATORWARMUPPERIOD) < now, \"MorpherGovernance: New validator joined the board recently, please wait for the end of the warm up period.\");\n        administratorVote[msg.sender] = _administratorAddress;\n        // Count Administrator Votes\n        (address _appointedAdministrator, uint256 _votes) = countAdministratorVote();\n        emit ElectedAdministrator(_appointedAdministrator, _votes);\n    }\n\n    function countOracleVote() public returns (address _votedOracleAddress, uint256 _votes) {\n        // Count oracle votes\n        for (uint256 i = 1; i <= numberOfValidators; i++) {\n            countVotes[oracleVote[validatorAddress[i]]]++;\n            if (countVotes[oracleVote[validatorAddress[i]]] > _votes) {\n                _votes = countVotes[oracleVote[validatorAddress[i]]];\n                _votedOracleAddress = oracleVote[validatorAddress[i]];\n            }\n        }\n        // Evaluate: Simple majority of Validators resets oracleAddress\n        if (_votes > numberOfValidators.div(2)) {\n            setOracle(_votedOracleAddress);\n        }\n        for (uint256 i = 1; i <= numberOfValidators; i++) {\n            countVotes[administratorVote[validatorAddress[i]]] = 0;\n        }\n        return(_votedOracleAddress, _votes);\n    }\n\n    function countAdministratorVote() public returns (address _appointedAdministrator, uint256 _votes) {\n        // Count Administrator votes\n        for (uint256 i=1; i<=numberOfValidators; i++) {\n            countVotes[administratorVote[validatorAddress[i]]]++;\n            if (countVotes[administratorVote[validatorAddress[i]]] > _votes) {\n                _votes = countVotes[administratorVote[validatorAddress[i]]];\n                _appointedAdministrator = administratorVote[validatorAddress[i]];\n            }\n        }\n        // Evaluate: Simple majority of Validators resets administratorAddress\n        if (_votes > numberOfValidators / 2) {\n            setAdministrator(_appointedAdministrator);\n        }\n        for (uint256 i = 1; i <= numberOfValidators; i++) {\n            countVotes[administratorVote[validatorAddress[i]]] = 0;\n        }\n        return(_appointedAdministrator, _votes);\n    }\n}\n",
  "sourcePath": "/Users/thomas/Projects/Morpher/MorpherProtocol/contracts/MorpherGovernance.sol",
  "compiler": {
    "name": "solc",
    "version": "0.5.16+commit.9c3226ce.Emscripten.clang"
  },
  "schemaVersion": "3.4.16",
  "updatedAt": "2024-04-18T11:15:40.309Z",
  "devdoc": {
    "methods": {
      "isOwner()": {
        "return": "true if `msg.sender` is the owner of the contract."
      },
      "owner()": {
        "return": "the address of the owner."
      },
      "renounceOwnership()": {
        "details": "Allows the current owner to relinquish control of the contract. It will not be possible to call the functions with the `onlyOwner` modifier anymore."
      },
      "transferOwnership(address)": {
        "details": "Allows the current owner to transfer control of the contract to a newOwner.",
        "params": {
          "newOwner": "The address to transfer ownership to."
        }
      }
    }
  },
  "userdoc": {
    "methods": {
      "renounceOwnership()": {
        "notice": "Renouncing ownership will leave the contract without an owner, thereby removing any functionality that is only available to the owner."
      }
    }
  }
}