{
  "contractName": "MorpherBridge",
  "abi": [
    {
      "anonymous": false,
      "inputs": [
        {
          "indexed": true,
          "internalType": "address",
          "name": "from",
          "type": "address"
        },
        {
          "indexed": false,
          "internalType": "uint256",
          "name": "tokens",
          "type": "uint256"
        }
      ],
      "name": "ClaimFailedTransferToSidechain",
      "type": "event"
    },
    {
      "anonymous": false,
      "inputs": [
        {
          "indexed": false,
          "internalType": "uint8",
          "name": "version",
          "type": "uint8"
        }
      ],
      "name": "Initialized",
      "type": "event"
    },
    {
      "anonymous": false,
      "inputs": [
        {
          "indexed": false,
          "internalType": "address",
          "name": "_address",
          "type": "address"
        }
      ],
      "name": "LinkState",
      "type": "event"
    },
    {
      "anonymous": false,
      "inputs": [
        {
          "indexed": true,
          "internalType": "address",
          "name": "from",
          "type": "address"
        },
        {
          "indexed": false,
          "internalType": "uint256",
          "name": "tokens",
          "type": "uint256"
        },
        {
          "indexed": false,
          "internalType": "bytes32",
          "name": "sidechainTransactionHash",
          "type": "bytes32"
        }
      ],
      "name": "OperatorChainTransfer",
      "type": "event"
    },
    {
      "anonymous": false,
      "inputs": [
        {
          "indexed": true,
          "internalType": "address",
          "name": "from",
          "type": "address"
        },
        {
          "indexed": false,
          "internalType": "bytes32",
          "name": "positionHash",
          "type": "bytes32"
        }
      ],
      "name": "PositionRecoveryFromSideChain",
      "type": "event"
    },
    {
      "anonymous": false,
      "inputs": [
        {
          "indexed": false,
          "internalType": "bytes32",
          "name": "_rootHash",
          "type": "bytes32"
        }
      ],
      "name": "SideChainMerkleRootUpdated",
      "type": "event"
    },
    {
      "anonymous": false,
      "inputs": [
        {
          "indexed": true,
          "internalType": "address",
          "name": "from",
          "type": "address"
        },
        {
          "indexed": false,
          "internalType": "bytes32",
          "name": "positionHash",
          "type": "bytes32"
        }
      ],
      "name": "TokenRecoveryFromSideChain",
      "type": "event"
    },
    {
      "anonymous": false,
      "inputs": [
        {
          "indexed": true,
          "internalType": "address",
          "name": "from",
          "type": "address"
        },
        {
          "indexed": false,
          "internalType": "uint256",
          "name": "tokens",
          "type": "uint256"
        },
        {
          "indexed": false,
          "internalType": "uint256",
          "name": "totalTokenSent",
          "type": "uint256"
        },
        {
          "indexed": false,
          "internalType": "uint256",
          "name": "timeStamp",
          "type": "uint256"
        },
        {
          "indexed": false,
          "internalType": "uint256",
          "name": "transferNonce",
          "type": "uint256"
        },
        {
          "indexed": false,
          "internalType": "uint256",
          "name": "targetChainId",
          "type": "uint256"
        },
        {
          "indexed": true,
          "internalType": "bytes32",
          "name": "transferHash",
          "type": "bytes32"
        }
      ],
      "name": "TransferToLinkedChain",
      "type": "event"
    },
    {
      "anonymous": false,
      "inputs": [
        {
          "indexed": true,
          "internalType": "address",
          "name": "from",
          "type": "address"
        },
        {
          "indexed": false,
          "internalType": "uint256",
          "name": "tokens",
          "type": "uint256"
        },
        {
          "indexed": false,
          "internalType": "uint256",
          "name": "totalTokenSent",
          "type": "uint256"
        },
        {
          "indexed": false,
          "internalType": "uint256",
          "name": "timeStamp",
          "type": "uint256"
        },
        {
          "indexed": false,
          "internalType": "uint256",
          "name": "transferNonce",
          "type": "uint256"
        },
        {
          "indexed": false,
          "internalType": "uint256",
          "name": "targetChainId",
          "type": "uint256"
        },
        {
          "indexed": false,
          "internalType": "address",
          "name": "destinationAddress",
          "type": "address"
        },
        {
          "indexed": false,
          "internalType": "bytes",
          "name": "userSigature",
          "type": "bytes"
        },
        {
          "indexed": true,
          "internalType": "bytes32",
          "name": "transferHash",
          "type": "bytes32"
        }
      ],
      "name": "TransferToLinkedChainAndWithdrawTo",
      "type": "event"
    },
    {
      "anonymous": false,
      "inputs": [
        {
          "indexed": true,
          "internalType": "address",
          "name": "from",
          "type": "address"
        },
        {
          "indexed": false,
          "internalType": "uint256",
          "name": "tokens",
          "type": "uint256"
        }
      ],
      "name": "TrustlessWithdrawFromSideChain",
      "type": "event"
    },
    {
      "anonymous": false,
      "inputs": [
        {
          "indexed": false,
          "internalType": "uint256",
          "name": "_withdrawLimit",
          "type": "uint256"
        }
      ],
      "name": "WithdrawLimitChanged",
      "type": "event"
    },
    {
      "anonymous": false,
      "inputs": [
        {
          "indexed": false,
          "internalType": "uint256",
          "name": "_oldLimit",
          "type": "uint256"
        },
        {
          "indexed": false,
          "internalType": "uint256",
          "name": "_newLimit",
          "type": "uint256"
        }
      ],
      "name": "WithdrawLimitDailyGlobalChanged",
      "type": "event"
    },
    {
      "anonymous": false,
      "inputs": [
        {
          "indexed": false,
          "internalType": "uint256",
          "name": "_oldLimit",
          "type": "uint256"
        },
        {
          "indexed": false,
          "internalType": "uint256",
          "name": "_newLimit",
          "type": "uint256"
        }
      ],
      "name": "WithdrawLimitDailyPerUserChanged",
      "type": "event"
    },
    {
      "anonymous": false,
      "inputs": [
        {
          "indexed": false,
          "internalType": "uint256",
          "name": "_oldLimit",
          "type": "uint256"
        },
        {
          "indexed": false,
          "internalType": "uint256",
          "name": "_newLimit",
          "type": "uint256"
        }
      ],
      "name": "WithdrawLimitMonthlyGlobalChanged",
      "type": "event"
    },
    {
      "anonymous": false,
      "inputs": [
        {
          "indexed": false,
          "internalType": "uint256",
          "name": "_oldLimit",
          "type": "uint256"
        },
        {
          "indexed": false,
          "internalType": "uint256",
          "name": "_newLimit",
          "type": "uint256"
        }
      ],
      "name": "WithdrawLimitMonthlyPerUserChanged",
      "type": "event"
    },
    {
      "anonymous": false,
      "inputs": [],
      "name": "WithdrawLimitReset",
      "type": "event"
    },
    {
      "anonymous": false,
      "inputs": [
        {
          "indexed": false,
          "internalType": "uint256",
          "name": "_oldLimit",
          "type": "uint256"
        },
        {
          "indexed": false,
          "internalType": "uint256",
          "name": "_newLimit",
          "type": "uint256"
        }
      ],
      "name": "WithdrawLimitYearlyGlobalChanged",
      "type": "event"
    },
    {
      "anonymous": false,
      "inputs": [
        {
          "indexed": false,
          "internalType": "uint256",
          "name": "_oldLimit",
          "type": "uint256"
        },
        {
          "indexed": false,
          "internalType": "uint256",
          "name": "_newLimit",
          "type": "uint256"
        }
      ],
      "name": "WithdrawLimitYearlyPerUserChanged",
      "type": "event"
    },
    {
      "anonymous": false,
      "inputs": [
        {
          "indexed": false,
          "internalType": "address",
          "name": "_destination",
          "type": "address"
        },
        {
          "indexed": false,
          "internalType": "uint256",
          "name": "_amount",
          "type": "uint256"
        },
        {
          "indexed": false,
          "internalType": "bool",
          "name": "_convertedToGasToken",
          "type": "bool"
        }
      ],
      "name": "WithdrawalSuccess",
      "type": "event"
    },
    {
      "inputs": [],
      "name": "ADMINISTRATOR_ROLE",
      "outputs": [
        {
          "internalType": "bytes32",
          "name": "",
          "type": "bytes32"
        }
      ],
      "stateMutability": "view",
      "type": "function",
      "constant": true
    },
    {
      "inputs": [],
      "name": "SIDECHAINOPERATOR_ROLE",
      "outputs": [
        {
          "internalType": "bytes32",
          "name": "",
          "type": "bytes32"
        }
      ],
      "stateMutability": "view",
      "type": "function",
      "constant": true
    },
    {
      "inputs": [],
      "name": "bridgeNonce",
      "outputs": [
        {
          "internalType": "uint256",
          "name": "",
          "type": "uint256"
        }
      ],
      "stateMutability": "view",
      "type": "function",
      "constant": true
    },
    {
      "inputs": [
        {
          "internalType": "bytes32",
          "name": "",
          "type": "bytes32"
        }
      ],
      "name": "claimFromInactivity",
      "outputs": [
        {
          "internalType": "bool",
          "name": "",
          "type": "bool"
        }
      ],
      "stateMutability": "view",
      "type": "function",
      "constant": true
    },
    {
      "inputs": [],
      "name": "inactivityPeriod",
      "outputs": [
        {
          "internalType": "uint256",
          "name": "",
          "type": "uint256"
        }
      ],
      "stateMutability": "view",
      "type": "function",
      "constant": true
    },
    {
      "inputs": [],
      "name": "poolFee",
      "outputs": [
        {
          "internalType": "uint24",
          "name": "",
          "type": "uint24"
        }
      ],
      "stateMutability": "view",
      "type": "function",
      "constant": true
    },
    {
      "inputs": [],
      "name": "recoveryEnabled",
      "outputs": [
        {
          "internalType": "bool",
          "name": "",
          "type": "bool"
        }
      ],
      "stateMutability": "view",
      "type": "function",
      "constant": true
    },
    {
      "inputs": [],
      "name": "swapRouter",
      "outputs": [
        {
          "internalType": "contract ISwapRouter",
          "name": "",
          "type": "address"
        }
      ],
      "stateMutability": "view",
      "type": "function",
      "constant": true
    },
    {
      "inputs": [
        {
          "internalType": "address",
          "name": "",
          "type": "address"
        }
      ],
      "name": "tokenClaimedOnThisChain",
      "outputs": [
        {
          "internalType": "uint256",
          "name": "amount",
          "type": "uint256"
        },
        {
          "internalType": "uint256",
          "name": "lastTransferAt",
          "type": "uint256"
        }
      ],
      "stateMutability": "view",
      "type": "function",
      "constant": true
    },
    {
      "inputs": [
        {
          "internalType": "address",
          "name": "",
          "type": "address"
        },
        {
          "internalType": "uint256",
          "name": "",
          "type": "uint256"
        }
      ],
      "name": "tokenSentToLinkedChain",
      "outputs": [
        {
          "internalType": "uint256",
          "name": "amount",
          "type": "uint256"
        },
        {
          "internalType": "uint256",
          "name": "lastTransferAt",
          "type": "uint256"
        }
      ],
      "stateMutability": "view",
      "type": "function",
      "constant": true
    },
    {
      "inputs": [],
      "name": "withdrawalData",
      "outputs": [
        {
          "internalType": "bytes32",
          "name": "merkleRoot",
          "type": "bytes32"
        },
        {
          "internalType": "uint256",
          "name": "lastUpdatedAt",
          "type": "uint256"
        }
      ],
      "stateMutability": "view",
      "type": "function",
      "constant": true
    },
    {
      "inputs": [],
      "name": "withdrawalLimitGlobalDaily",
      "outputs": [
        {
          "internalType": "uint256",
          "name": "",
          "type": "uint256"
        }
      ],
      "stateMutability": "view",
      "type": "function",
      "constant": true
    },
    {
      "inputs": [],
      "name": "withdrawalLimitGlobalMonthly",
      "outputs": [
        {
          "internalType": "uint256",
          "name": "",
          "type": "uint256"
        }
      ],
      "stateMutability": "view",
      "type": "function",
      "constant": true
    },
    {
      "inputs": [],
      "name": "withdrawalLimitGlobalYearly",
      "outputs": [
        {
          "internalType": "uint256",
          "name": "",
          "type": "uint256"
        }
      ],
      "stateMutability": "view",
      "type": "function",
      "constant": true
    },
    {
      "inputs": [],
      "name": "withdrawalLimitPerUserDaily",
      "outputs": [
        {
          "internalType": "uint256",
          "name": "",
          "type": "uint256"
        }
      ],
      "stateMutability": "view",
      "type": "function",
      "constant": true
    },
    {
      "inputs": [],
      "name": "withdrawalLimitPerUserMonthly",
      "outputs": [
        {
          "internalType": "uint256",
          "name": "",
          "type": "uint256"
        }
      ],
      "stateMutability": "view",
      "type": "function",
      "constant": true
    },
    {
      "inputs": [],
      "name": "withdrawalLimitPerUserYearly",
      "outputs": [
        {
          "internalType": "uint256",
          "name": "",
          "type": "uint256"
        }
      ],
      "stateMutability": "view",
      "type": "function",
      "constant": true
    },
    {
      "inputs": [
        {
          "internalType": "address",
          "name": "",
          "type": "address"
        },
        {
          "internalType": "uint256",
          "name": "",
          "type": "uint256"
        }
      ],
      "name": "withdrawalPerUserPerDay",
      "outputs": [
        {
          "internalType": "uint256",
          "name": "",
          "type": "uint256"
        }
      ],
      "stateMutability": "view",
      "type": "function",
      "constant": true
    },
    {
      "inputs": [
        {
          "internalType": "address",
          "name": "",
          "type": "address"
        },
        {
          "internalType": "uint256",
          "name": "",
          "type": "uint256"
        }
      ],
      "name": "withdrawalPerUserPerMonth",
      "outputs": [
        {
          "internalType": "uint256",
          "name": "",
          "type": "uint256"
        }
      ],
      "stateMutability": "view",
      "type": "function",
      "constant": true
    },
    {
      "inputs": [
        {
          "internalType": "address",
          "name": "",
          "type": "address"
        },
        {
          "internalType": "uint256",
          "name": "",
          "type": "uint256"
        }
      ],
      "name": "withdrawalPerUserPerYear",
      "outputs": [
        {
          "internalType": "uint256",
          "name": "",
          "type": "uint256"
        }
      ],
      "stateMutability": "view",
      "type": "function",
      "constant": true
    },
    {
      "inputs": [
        {
          "internalType": "uint256",
          "name": "",
          "type": "uint256"
        }
      ],
      "name": "withdrawalsGlobalDaily",
      "outputs": [
        {
          "internalType": "uint256",
          "name": "",
          "type": "uint256"
        }
      ],
      "stateMutability": "view",
      "type": "function",
      "constant": true
    },
    {
      "inputs": [
        {
          "internalType": "uint256",
          "name": "",
          "type": "uint256"
        }
      ],
      "name": "withdrawalsGlobalMonthly",
      "outputs": [
        {
          "internalType": "uint256",
          "name": "",
          "type": "uint256"
        }
      ],
      "stateMutability": "view",
      "type": "function",
      "constant": true
    },
    {
      "inputs": [
        {
          "internalType": "uint256",
          "name": "",
          "type": "uint256"
        }
      ],
      "name": "withdrawalsGlobalYearly",
      "outputs": [
        {
          "internalType": "uint256",
          "name": "",
          "type": "uint256"
        }
      ],
      "stateMutability": "view",
      "type": "function",
      "constant": true
    },
    {
      "stateMutability": "payable",
      "type": "receive",
      "payable": true
    },
    {
      "inputs": [
        {
          "internalType": "address",
          "name": "_stateAddress",
          "type": "address"
        },
        {
          "internalType": "bool",
          "name": "_recoveryEnabled",
          "type": "bool"
        },
        {
          "internalType": "contract ISwapRouter",
          "name": "_swapRouter",
          "type": "address"
        }
      ],
      "name": "initialize",
      "outputs": [],
      "stateMutability": "nonpayable",
      "type": "function"
    },
    {
      "inputs": [
        {
          "internalType": "address",
          "name": "_stateAddress",
          "type": "address"
        }
      ],
      "name": "setMorpherState",
      "outputs": [],
      "stateMutability": "nonpayable",
      "type": "function"
    },
    {
      "inputs": [
        {
          "internalType": "contract ISwapRouter",
          "name": "_swapRouter",
          "type": "address"
        }
      ],
      "name": "updateSwapRouter",
      "outputs": [],
      "stateMutability": "nonpayable",
      "type": "function"
    },
    {
      "inputs": [
        {
          "internalType": "uint256",
          "name": "_periodInSeconds",
          "type": "uint256"
        }
      ],
      "name": "setInactivityPeriod",
      "outputs": [],
      "stateMutability": "nonpayable",
      "type": "function"
    },
    {
      "inputs": [
        {
          "internalType": "bytes32",
          "name": "_rootHash",
          "type": "bytes32"
        }
      ],
      "name": "updateSideChainMerkleRoot",
      "outputs": [],
      "stateMutability": "nonpayable",
      "type": "function"
    },
    {
      "inputs": [
        {
          "internalType": "uint256",
          "name": "_withdrawLimit",
          "type": "uint256"
        }
      ],
      "name": "updateWithdrawLimitPerUserDaily",
      "outputs": [],
      "stateMutability": "nonpayable",
      "type": "function"
    },
    {
      "inputs": [
        {
          "internalType": "uint256",
          "name": "_withdrawLimit",
          "type": "uint256"
        }
      ],
      "name": "updateWithdrawLimitPerUserMonthly",
      "outputs": [],
      "stateMutability": "nonpayable",
      "type": "function"
    },
    {
      "inputs": [
        {
          "internalType": "uint256",
          "name": "_withdrawLimit",
          "type": "uint256"
        }
      ],
      "name": "updateWithdrawLimitPerUserYearly",
      "outputs": [],
      "stateMutability": "nonpayable",
      "type": "function"
    },
    {
      "inputs": [
        {
          "internalType": "uint256",
          "name": "_withdrawLimit",
          "type": "uint256"
        }
      ],
      "name": "updateWithdrawLimitGlobalDaily",
      "outputs": [],
      "stateMutability": "nonpayable",
      "type": "function"
    },
    {
      "inputs": [
        {
          "internalType": "uint256",
          "name": "_withdrawLimit",
          "type": "uint256"
        }
      ],
      "name": "updateWithdrawLimitGlobalMonthly",
      "outputs": [],
      "stateMutability": "nonpayable",
      "type": "function"
    },
    {
      "inputs": [
        {
          "internalType": "uint256",
          "name": "_withdrawLimit",
          "type": "uint256"
        }
      ],
      "name": "updateWithdrawLimitGlobalYearly",
      "outputs": [],
      "stateMutability": "nonpayable",
      "type": "function"
    },
    {
      "inputs": [
        {
          "internalType": "address",
          "name": "_usr",
          "type": "address"
        },
        {
          "internalType": "uint256",
          "name": "_amount",
          "type": "uint256"
        }
      ],
      "name": "isNotDailyLimitExceeding",
      "outputs": [
        {
          "internalType": "bool",
          "name": "",
          "type": "bool"
        }
      ],
      "stateMutability": "view",
      "type": "function",
      "constant": true
    },
    {
      "inputs": [
        {
          "internalType": "address",
          "name": "_usr",
          "type": "address"
        },
        {
          "internalType": "uint256",
          "name": "_amount",
          "type": "uint256"
        }
      ],
      "name": "isNotMonthlyLimitExceeding",
      "outputs": [
        {
          "internalType": "bool",
          "name": "",
          "type": "bool"
        }
      ],
      "stateMutability": "view",
      "type": "function",
      "constant": true
    },
    {
      "inputs": [
        {
          "internalType": "address",
          "name": "_usr",
          "type": "address"
        },
        {
          "internalType": "uint256",
          "name": "_amount",
          "type": "uint256"
        }
      ],
      "name": "isNotYearlyLimitExceeding",
      "outputs": [
        {
          "internalType": "bool",
          "name": "",
          "type": "bool"
        }
      ],
      "stateMutability": "view",
      "type": "function",
      "constant": true
    },
    {
      "inputs": [
        {
          "internalType": "address",
          "name": "_usr",
          "type": "address"
        },
        {
          "internalType": "uint256",
          "name": "_amount",
          "type": "uint256"
        }
      ],
      "name": "verifyUpdateDailyLimit",
      "outputs": [],
      "stateMutability": "nonpayable",
      "type": "function"
    },
    {
      "inputs": [
        {
          "internalType": "address",
          "name": "_usr",
          "type": "address"
        },
        {
          "internalType": "uint256",
          "name": "_amount",
          "type": "uint256"
        }
      ],
      "name": "verifyUpdateMonthlyLimit",
      "outputs": [],
      "stateMutability": "nonpayable",
      "type": "function"
    },
    {
      "inputs": [
        {
          "internalType": "address",
          "name": "_usr",
          "type": "address"
        },
        {
          "internalType": "uint256",
          "name": "_amount",
          "type": "uint256"
        }
      ],
      "name": "verifyUpdateYearlyLimit",
      "outputs": [],
      "stateMutability": "nonpayable",
      "type": "function"
    },
    {
      "inputs": [
        {
          "internalType": "uint256",
          "name": "_tokens",
          "type": "uint256"
        },
        {
          "internalType": "uint256",
          "name": "_targetChainId",
          "type": "uint256"
        }
      ],
      "name": "stageTokensForTransfer",
      "outputs": [],
      "stateMutability": "nonpayable",
      "type": "function"
    },
    {
      "inputs": [
        {
          "internalType": "uint256",
          "name": "_tokens",
          "type": "uint256"
        },
        {
          "internalType": "uint256",
          "name": "_targetChainId",
          "type": "uint256"
        },
        {
          "internalType": "address",
          "name": "_autoWithdrawalAddressTo",
          "type": "address"
        },
        {
          "internalType": "bytes",
          "name": "_signature",
          "type": "bytes"
        }
      ],
      "name": "stageTokensForTransfer",
      "outputs": [],
      "stateMutability": "nonpayable",
      "type": "function"
    },
    {
      "inputs": [
        {
          "internalType": "uint256",
          "name": "_numOfToken",
          "type": "uint256"
        },
        {
          "internalType": "uint256",
          "name": "_claimLimit",
          "type": "uint256"
        },
        {
          "internalType": "bytes32[]",
          "name": "_proof",
          "type": "bytes32[]"
        }
      ],
      "name": "claimStagedTokens",
      "outputs": [],
      "stateMutability": "nonpayable",
      "type": "function"
    },
    {
      "inputs": [],
      "name": "getWethWmaticAddress",
      "outputs": [
        {
          "internalType": "address",
          "name": "",
          "type": "address"
        }
      ],
      "stateMutability": "view",
      "type": "function",
      "constant": true
    },
    {
      "inputs": [
        {
          "internalType": "address",
          "name": "_usrAddr",
          "type": "address"
        },
        {
          "internalType": "uint256",
          "name": "_numOfToken",
          "type": "uint256"
        },
        {
          "internalType": "uint256",
          "name": "fee",
          "type": "uint256"
        },
        {
          "internalType": "address",
          "name": "feeRecipient",
          "type": "address"
        },
        {
          "internalType": "uint256",
          "name": "_claimLimit",
          "type": "uint256"
        },
        {
          "internalType": "bytes32[]",
          "name": "_proof",
          "type": "bytes32[]"
        },
        {
          "internalType": "address payable",
          "name": "_finalOutput",
          "type": "address"
        },
        {
          "internalType": "bytes32",
          "name": "_rootHash",
          "type": "bytes32"
        },
        {
          "internalType": "bytes",
          "name": "_userConfirmationSignature",
          "type": "bytes"
        }
      ],
      "name": "claimStagedTokensAndSendForUser",
      "outputs": [
        {
          "internalType": "uint256",
          "name": "",
          "type": "uint256"
        }
      ],
      "stateMutability": "nonpayable",
      "type": "function"
    },
    {
      "inputs": [
        {
          "internalType": "uint256",
          "name": "_wrongSideChainBalance",
          "type": "uint256"
        },
        {
          "internalType": "bytes32[]",
          "name": "_proof",
          "type": "bytes32[]"
        },
        {
          "internalType": "uint256",
          "name": "_targetChainId",
          "type": "uint256"
        }
      ],
      "name": "claimFailedTransferToSidechain",
      "outputs": [],
      "stateMutability": "nonpayable",
      "type": "function"
    },
    {
      "inputs": [
        {
          "internalType": "bytes32[]",
          "name": "_proof",
          "type": "bytes32[]"
        },
        {
          "internalType": "bytes32",
          "name": "_leaf",
          "type": "bytes32"
        },
        {
          "internalType": "bytes32",
          "name": "_marketId",
          "type": "bytes32"
        },
        {
          "internalType": "uint256",
          "name": "_timeStamp",
          "type": "uint256"
        },
        {
          "internalType": "uint256",
          "name": "_longShares",
          "type": "uint256"
        },
        {
          "internalType": "uint256",
          "name": "_shortShares",
          "type": "uint256"
        },
        {
          "internalType": "uint256",
          "name": "_meanEntryPrice",
          "type": "uint256"
        },
        {
          "internalType": "uint256",
          "name": "_meanEntrySpread",
          "type": "uint256"
        },
        {
          "internalType": "uint256",
          "name": "_meanEntryLeverage",
          "type": "uint256"
        },
        {
          "internalType": "uint256",
          "name": "_liquidationPrice",
          "type": "uint256"
        }
      ],
      "name": "recoverPositionFromInactivity",
      "outputs": [],
      "stateMutability": "nonpayable",
      "type": "function"
    },
    {
      "inputs": [
        {
          "internalType": "bytes32[]",
          "name": "_proof",
          "type": "bytes32[]"
        },
        {
          "internalType": "bytes32",
          "name": "_leaf",
          "type": "bytes32"
        },
        {
          "internalType": "uint256",
          "name": "_balance",
          "type": "uint256"
        }
      ],
      "name": "recoverTokenFromInactivity",
      "outputs": [],
      "stateMutability": "nonpayable",
      "type": "function"
    },
    {
      "inputs": [
        {
          "internalType": "bytes32[]",
          "name": "_proof",
          "type": "bytes32[]"
        },
        {
          "internalType": "bytes32",
          "name": "_leaf",
          "type": "bytes32"
        }
      ],
      "name": "mProof",
      "outputs": [
        {
          "internalType": "bool",
          "name": "_isTrue",
          "type": "bool"
        }
      ],
      "stateMutability": "view",
      "type": "function",
      "constant": true
    },
    {
      "inputs": [
        {
          "internalType": "address",
          "name": "_address",
          "type": "address"
        },
        {
          "internalType": "uint256",
          "name": "_balance",
          "type": "uint256"
        }
      ],
      "name": "getBalanceHash",
      "outputs": [
        {
          "internalType": "bytes32",
          "name": "_hash",
          "type": "bytes32"
        }
      ],
      "stateMutability": "pure",
      "type": "function",
      "constant": true
    }
  ],
  "bytecode": "0x608060405234801561001057600080fd5b50614a47806100206000396000f3fe6080604052600436106102cd5760003560e01c80638cd845d911610175578063d345a762116100dc578063e93f271d11610095578063f45edb5f1161006f578063f45edb5f1461094c578063f526dc2b1461096e578063fb16f5a91461098e578063feaf0343146109b057600080fd5b8063e93f271d146108ec578063ec65d96c1461090c578063f03c6fdc1461092c57600080fd5b8063d345a76214610833578063d362bd2b14610853578063da9a6b3514610869578063de8a574614610896578063e628eb5b146108ac578063e7f34bb7146108cc57600080fd5b8063af434a6d1161012e578063af434a6d14610765578063b915484614610785578063b98b677f146107a5578063c31c9c07146107c5578063c4b907ad146107fd578063cb1b92fb1461081d57600080fd5b80638cd845d91461064e57806392e7c76e1461067b578063a1949a0a1461069b578063a2f1491f146106d3578063a31c98b714610712578063abc35a911461074a57600080fd5b80634888a7d1116102345780636b92c06e116101ed5780637ac15763116101c75780637ac15763146105c057806380104668146105f857806383ecd61214610618578063857b0da01461062e57600080fd5b80636b92c06e14610566578063773cc3ff146105865780637946541e146105a657600080fd5b80634888a7d1146104b057806349c01664146104d057806350456b30146104f05780635300597b1461051057806355069a811461053057806358b0e6b51461055057600080fd5b806321bb10bb1161028657806321bb10bb146103c45780632e55e76e146103da5780632f21278c146103fa5780633b45c3551461041a5780633c14e3521461044757806345bc550c1461049057600080fd5b8063015b3ab4146102d957806303d230441461031e578063089fe6aa146103405780630e3575431461036a5780631c0ffbd01461038a5780631f87a250146103ae57600080fd5b366102d457005b600080fd5b3480156102e557600080fd5b506103096102f4366004614000565b60456020526000908152604090205460ff1681565b60405190151581526020015b60405180910390f35b34801561032a57600080fd5b5061033e6103393660046140e0565b6109c5565b005b34801561034c57600080fd5b50610356610bb881565b60405162ffffff9091168152602001610315565b34801561037657600080fd5b5061033e61038536600461414e565b610cb0565b34801561039657600080fd5b506103a0603a5481565b604051908152602001610315565b3480156103ba57600080fd5b506103a060495481565b3480156103d057600080fd5b506103a060385481565b3480156103e657600080fd5b5061033e6103f5366004614000565b610da8565b34801561040657600080fd5b5061033e610415366004614000565b610eff565b34801561042657600080fd5b506103a0610435366004614000565b60406020819052600091825290205481565b34801561045357600080fd5b5061047b61046236600461417a565b6048602052600090815260409020805460019091015482565b60408051928352602083019190915201610315565b34801561049c57600080fd5b506103096104ab36600461414e565b611056565b3480156104bc57600080fd5b5061033e6104cb3660046141a5565b6110de565b3480156104dc57600080fd5b5061033e6104eb366004614000565b6111ed565b3480156104fc57600080fd5b5061033e61050b3660046141f0565b611343565b34801561051c57600080fd5b5061030961052b366004614212565b611773565b34801561053c57600080fd5b5061033e61054b366004614000565b611785565b34801561055c57600080fd5b506103a060355481565b34801561057257600080fd5b5061030961058136600461414e565b6118dc565b34801561059257600080fd5b5061033e6105a1366004614257565b611941565b3480156105b257600080fd5b506044546103099060ff1681565b3480156105cc57600080fd5b506103a06105db36600461414e565b603c60209081526000928352604080842090915290825290205481565b34801561060457600080fd5b5061033e61061336600461417a565b611e62565b34801561062457600080fd5b506103a060375481565b34801561063a57600080fd5b506103a061064936600461414e565b611fc5565b34801561065a57600080fd5b506103a0610669366004614000565b603f6020526000908152604090205481565b34801561068757600080fd5b5061033e610696366004614000565b612007565b3480156106a757600080fd5b506103a06106b636600461414e565b603b60209081526000928352604080842090915290825290205481565b3480156106df57600080fd5b5061047b6106ee36600461414e565b60476020908152600092835260408084209091529082529020805460019091015482565b34801561071e57600080fd5b506103a061072d36600461414e565b603d60209081526000928352604080842090915290825290205481565b34801561075657600080fd5b5060415460425461047b919082565b34801561077157600080fd5b5061033e610780366004614000565b61215e565b34801561079157600080fd5b5061033e6107a036600461414e565b612279565b3480156107b157600080fd5b5061033e6107c036600461417a565b612348565b3480156107d157600080fd5b506046546107e5906001600160a01b031681565b6040516001600160a01b039091168152602001610315565b34801561080957600080fd5b5061033e610818366004614317565b612480565b34801561082957600080fd5b506103a060395481565b34801561083f57600080fd5b5061033e61084e36600461414e565b6128c7565b34801561085f57600080fd5b506103a060435481565b34801561087557600080fd5b506103a0610884366004614000565b603e6020526000908152604090205481565b3480156108a257600080fd5b506103a060365481565b3480156108b857600080fd5b5061033e6108c7366004614000565b612998565b3480156108d857600080fd5b5061033e6108e736600461437a565b612aef565b3480156108f857600080fd5b5061030961090736600461414e565b612f8a565b34801561091857600080fd5b5061033e610927366004614000565b612ff1565b34801561093857600080fd5b5061033e610947366004614404565b613148565b34801561095857600080fd5b506103a06000805160206149f283398151915281565b34801561097a57600080fd5b506103a0610989366004614454565b613369565b34801561099a57600080fd5b506103a06000805160206149d283398151915281565b3480156109bc57600080fd5b506107e56139ee565b6042546043546109d5904261452b565b116109fb5760405162461bcd60e51b81526004016109f290614542565b60405180910390fd5b603360009054906101000a90046001600160a01b03166001600160a01b03166350a71bac6040518163ffffffff1660e01b8152600401602060405180830381865afa158015610a4e573d6000803e3d6000fd5b505050506040513d601f19601f82011682018060405250810190610a7291906145ac565b6001600160a01b031663ac259ace336040516001600160e01b031960e084901b1681526001600160a01b039091166004820152602401602060405180830381865afa158015610ac5573d6000803e3d6000fd5b505050506040513d601f19601f82011682018060405250810190610ae991906145c9565b15610b065760405162461bcd60e51b81526004016109f2906145e6565b60445460ff16610b285760405162461bcd60e51b81526004016109f29061461d565b610b323382611fc5565b8214610b805760405162461bcd60e51b815260206004820152601d60248201527f4d6f72706865724272696467653a2057726f6e672062616c616e63652e00000060448201526064016109f2565b60008281526045602052604090205460ff1615610bf15760405162461bcd60e51b815260206004820152602960248201527f4d6f72706865724272696467653a20546f6b656e20616c7265616479207472616044820152683739b332b93932b21760b91b60648201526084016109f2565b610bfb8383611773565b1515600114610c1c5760405162461bcd60e51b81526004016109f29061466e565b6000828152604560205260409020805460ff19166001179055610c45610c3f3390565b82612279565b610c50335b826128c7565b610c5b335b82610cb0565b33600081815260486020526040902054610c76919083613a61565b60405182815233907f0534719a5dcedfc13619bb4206e36ba0e42fb7d166c8b8a79320c8128fc3af549060200160405180910390a2505050565b610cba8282612f8a565b610d245760405162461bcd60e51b815260206004820152603560248201527f4d6f72706865724272696467653a205769746864726177616c20416d6f756e7460448201527408195e18d959591cc81e59585c9b1e481b1a5b5a5d605a1b60648201526084016109f2565b6001600160a01b0382166000908152603d602052604081208291610d4c6301e13380426146b1565b81526020019081526020016000206000828254610d6991906146d3565b9091555081905060406000610d826301e13380426146b1565b81526020019081526020016000206000828254610d9f91906146d3565b90915550505050565b60335460408051630140cb6560e51b815290516000805160206149d2833981519152926001600160a01b0316916328196ca09160048083019260209291908290030181865afa158015610dff573d6000803e3d6000fd5b505050506040513d601f19601f82011682018060405250810190610e2391906145ac565b6001600160a01b03166391d1485482336040516001600160e01b031960e085901b16815260048101929092526001600160a01b03166024820152604401602060405180830381865afa158015610e7d573d6000803e3d6000fd5b505050506040513d601f19601f82011682018060405250810190610ea191906145c9565b610ebd5760405162461bcd60e51b81526004016109f2906146eb565b60375460408051918252602082018490527f58876df72ecce56c44d758d22355bb689efaa4946003c9bf0d75a228d1c0612f910160405180910390a150603755565b60335460408051630140cb6560e51b815290516000805160206149d2833981519152926001600160a01b0316916328196ca09160048083019260209291908290030181865afa158015610f56573d6000803e3d6000fd5b505050506040513d601f19601f82011682018060405250810190610f7a91906145ac565b6001600160a01b03166391d1485482336040516001600160e01b031960e085901b16815260048101929092526001600160a01b03166024820152604401602060405180830381865afa158015610fd4573d6000803e3d6000fd5b505050506040513d601f19601f82011682018060405250810190610ff891906145c9565b6110145760405162461bcd60e51b81526004016109f2906146eb565b60355460408051918252602082018490527f8a30f3401f82aa6b9ef6b22cd0efee6be3c06cc377d13e718a97bdb5eccb811a910160405180910390a150603555565b6035546001600160a01b0383166000908152603b6020526040812090919083908361108462015180426146b1565b81526020019081526020016000205461109d91906146d3565b111580156110d7575060385482603e60006110bb62015180426146b1565b8152602001908152602001600020546110d491906146d3565b11155b9392505050565b60006110ea6001613b5b565b90508015611102576000805461ff0019166101001790555b603380546001600160a01b038087166001600160a01b0319928316179092556044805486151560ff19909116179055692a5a058fc295ed00000060355569d3c21bcecceda10000006036556a0422ca8b0a00a4250000006037556a027b46536c66c8e30000006038556a084595161401484a0000006039556a295be96e64066972000000603a556203f480604355604680549285169290911691909117905580156111e7576000805461ff0019169055604051600181527f7f26b83ff96e1f2b6a682f133852f6798a09c465da95921460cefb38474024989060200160405180910390a15b50505050565b60335460408051630140cb6560e51b815290516000805160206149d2833981519152926001600160a01b0316916328196ca09160048083019260209291908290030181865afa158015611244573d6000803e3d6000fd5b505050506040513d601f19601f8201168201806040525081019061126891906145ac565b6001600160a01b03166391d1485482336040516001600160e01b031960e085901b16815260048101929092526001600160a01b03166024820152604401602060405180830381865afa1580156112c2573d6000803e3d6000fd5b505050506040513d601f19601f820116820180604052508101906112e691906145c9565b6113025760405162461bcd60e51b81526004016109f2906146eb565b6041829055426042556040518281527fce559c2f7d86d801cf61f2bfd589e7926036f75a2c58e06b35378f308637d504906020015b60405180910390a15050565b603360009054906101000a90046001600160a01b03166001600160a01b03166350a71bac6040518163ffffffff1660e01b8152600401602060405180830381865afa158015611396573d6000803e3d6000fd5b505050506040513d601f19601f820116820180604052508101906113ba91906145ac565b6001600160a01b031663ac259ace336040516001600160e01b031960e084901b1681526001600160a01b039091166004820152602401602060405180830381865afa15801561140d573d6000803e3d6000fd5b505050506040513d601f19601f8201168201806040525081019061143191906145c9565b1561144e5760405162461bcd60e51b81526004016109f2906145e6565b6114583383612279565b61146233836128c7565b61146c3383610cb0565b60335460408051632192ab5d60e11b8152905168056bc75e2d63100000926001600160a01b03169163432556ba9160048083019260209291908290030181865afa1580156114be573d6000803e3d6000fd5b505050506040513d601f19601f820116820180604052508101906114e291906145ac565b6001600160a01b0316639dc29fac336040516001600160e01b031960e084901b1681526001600160a01b03909116600482015260248101849052604401600060405180830381600087803b15801561153957600080fd5b505af115801561154d573d6000803e3d6000fd5b505050506000818461155f919061452b565b9050603360009054906101000a90046001600160a01b03166001600160a01b031663432556ba6040518163ffffffff1660e01b8152600401602060405180830381865afa1580156115b4573d6000803e3d6000fd5b505050506040513d601f19601f820116820180604052508101906115d891906145ac565b6001600160a01b0316639dc29fac336040516001600160e01b031960e084901b1681526001600160a01b03909116600482015260248101849052604401600060405180830381600087803b15801561162f57600080fd5b505af1158015611643573d6000803e3d6000fd5b50505050600081604760006116553390565b6001600160a01b031681526020808201929092526040908101600090812088825290925290205461168691906146d3565b90506000611692613be8565b9050426000338585848a876040516020016116b29695949392919061472c565b60405160208183030381529060405280519060200120905083604760006116d63390565b6001600160a01b03168152602080820192909252604090810160009081208b825283528181209390935533808452604783528184208b855283529281902042600190910155805188815291820187905281810185905260608201869052608082018a9052518392917f22d7abd4c58e0b77e5d1da401e0ed36ada87c92c62c0fade36d396d12bf5dc7d919081900360a00190a35050505050505050565b60006110d78360416000015484613c06565b60335460408051630140cb6560e51b815290516000805160206149d2833981519152926001600160a01b0316916328196ca09160048083019260209291908290030181865afa1580156117dc573d6000803e3d6000fd5b505050506040513d601f19601f8201168201806040525081019061180091906145ac565b6001600160a01b03166391d1485482336040516001600160e01b031960e085901b16815260048101929092526001600160a01b03166024820152604401602060405180830381865afa15801561185a573d6000803e3d6000fd5b505050506040513d601f19601f8201168201806040525081019061187e91906145c9565b61189a5760405162461bcd60e51b81526004016109f2906146eb565b60395460408051918252602082018490527f53e006bea65a38d4b925b9299178d9c25ae1236005e70c46dc1d1d6329e41ff2910160405180910390a150603955565b6036546001600160a01b0383166000908152603c6020526040812090919083908361190a62278d00426146b1565b81526020019081526020016000205461192391906146d3565b111580156110d7575060395482603f60006110bb62278d00426146b1565b603360009054906101000a90046001600160a01b03166001600160a01b03166350a71bac6040518163ffffffff1660e01b8152600401602060405180830381865afa158015611994573d6000803e3d6000fd5b505050506040513d601f19601f820116820180604052508101906119b891906145ac565b6001600160a01b031663ac259ace336040516001600160e01b031960e084901b1681526001600160a01b039091166004820152602401602060405180830381865afa158015611a0b573d6000803e3d6000fd5b505050506040513d601f19601f82011682018060405250810190611a2f91906145c9565b15611a4c5760405162461bcd60e51b81526004016109f2906145e6565b6040516001600160601b03193360601b1660208201526034810184905260009060540160405160208183030381529060405280519060200120905060435460476000611a953390565b6001600160a01b03166001600160a01b03168152602001908152602001600020600084815260200190815260200160002060010154611ad491906146d3565b4211611b5c5760405162461bcd60e51b815260206004820152604b60248201527f4d6f72706865724272696467653a204661696c6564206465706f73697473206360448201527f616e206f6e6c7920626520636c61696d656420616674657220696e616374697660648201526a34ba3c903832b934b7b21760a91b608482015260a4016109f2565b3360009081526047602090815260408083208584529091529020548410611c005760405162461bcd60e51b815260206004820152604c60248201527f4d6f72706865724272696467653a204f7468657220636861696e20637265646960448201527f74206973206772656174657220657175616c20746f2077726f6e67536964654360648201526b3430b4b72130b630b731b29760a11b608482015260a4016109f2565b611c0a8382611773565b611c965760405162461bcd60e51b815260206004820152605160248201527f4d6f72706865724272696467653a204d65726b6c652050726f6f66206661696c60448201527f65642e20456e74657220746f74616c20616d6f756e74206f66206465706f73696064820152703a399037b71039b4b2329031b430b4b71760791b608482015260a4016109f2565b336000908152604760209081526040808320858452909152812054611cbc90869061452b565b336000908152604760209081526040808320878452909152812080549293508392909190611ceb90849061452b565b9091555050336000818152604760209081526040808320878452909152902042600190910155611d1a90610c3f565b611d2333610c4a565b611d2c33610c55565b603360009054906101000a90046001600160a01b03166001600160a01b031663432556ba6040518163ffffffff1660e01b8152600401602060405180830381865afa158015611d7f573d6000803e3d6000fd5b505050506040513d601f19601f82011682018060405250810190611da391906145ac565b6001600160a01b03166340c10f19336040516001600160e01b031960e084901b1681526001600160a01b03909116600482015260248101849052604401600060405180830381600087803b158015611dfa57600080fd5b505af1158015611e0e573d6000803e3d6000fd5b50505050611e193390565b6001600160a01b03167ff3d1bd7b5416206939e66c9b6ee92563caaf8499c21668173d17cacbaefdc70082604051611e5391815260200190565b60405180910390a25050505050565b60335460408051630140cb6560e51b815290516000805160206149f2833981519152926001600160a01b0316916328196ca09160048083019260209291908290030181865afa158015611eb9573d6000803e3d6000fd5b505050506040513d601f19601f82011682018060405250810190611edd91906145ac565b6001600160a01b03166391d1485482336040516001600160e01b031960e085901b16815260048101929092526001600160a01b03166024820152604401602060405180830381865afa158015611f37573d6000803e3d6000fd5b505050506040513d601f19601f82011682018060405250810190611f5b91906145c9565b611f775760405162461bcd60e51b81526004016109f2906146eb565b603380546001600160a01b0319166001600160a01b0384169081179091556040519081527f978c711532bae8c58f353b0f3c7f3a0dfe600d9ae9a81818f2ad2919b88e199090602001611337565b6040516001600160601b0319606084901b1660208201526034810182905260009060540160405160208183030381529060405280519060200120905092915050565b60335460408051630140cb6560e51b815290516000805160206149d2833981519152926001600160a01b0316916328196ca09160048083019260209291908290030181865afa15801561205e573d6000803e3d6000fd5b505050506040513d601f19601f8201168201806040525081019061208291906145ac565b6001600160a01b03166391d1485482336040516001600160e01b031960e085901b16815260048101929092526001600160a01b03166024820152604401602060405180830381865afa1580156120dc573d6000803e3d6000fd5b505050506040513d601f19601f8201168201806040525081019061210091906145c9565b61211c5760405162461bcd60e51b81526004016109f2906146eb565b60385460408051918252602082018490527fff4f3e2a6b4cb9b7141b4a215d1ae67a9dd18a640499d1393c6c0d0f253006db910160405180910390a150603855565b60335460408051630140cb6560e51b815290516000805160206149f2833981519152926001600160a01b0316916328196ca09160048083019260209291908290030181865afa1580156121b5573d6000803e3d6000fd5b505050506040513d601f19601f820116820180604052508101906121d991906145ac565b6001600160a01b03166391d1485482336040516001600160e01b031960e085901b16815260048101929092526001600160a01b03166024820152604401602060405180830381865afa158015612233573d6000803e3d6000fd5b505050506040513d601f19601f8201168201806040525081019061225791906145c9565b6122735760405162461bcd60e51b81526004016109f2906146eb565b50604355565b6122838282611056565b6122ec5760405162461bcd60e51b815260206004820152603460248201527f4d6f72706865724272696467653a205769746864726177616c20416d6f756e7460448201527308195e18d959591cc819185a5b1e481b1a5b5a5d60621b60648201526084016109f2565b6001600160a01b0382166000908152603b60205260408120829161231362015180426146b1565b8152602001908152602001600020600082825461233091906146d3565b90915550819050603e6000610d8262015180426146b1565b60335460408051630140cb6560e51b815290516000805160206149f2833981519152926001600160a01b0316916328196ca09160048083019260209291908290030181865afa15801561239f573d6000803e3d6000fd5b505050506040513d601f19601f820116820180604052508101906123c391906145ac565b6001600160a01b03166391d1485482336040516001600160e01b031960e085901b16815260048101929092526001600160a01b03166024820152604401602060405180830381865afa15801561241d573d6000803e3d6000fd5b505050506040513d601f19601f8201168201806040525081019061244191906145c9565b61245d5760405162461bcd60e51b81526004016109f2906146eb565b50604680546001600160a01b0319166001600160a01b0392909216919091179055565b603360009054906101000a90046001600160a01b03166001600160a01b03166350a71bac6040518163ffffffff1660e01b8152600401602060405180830381865afa1580156124d3573d6000803e3d6000fd5b505050506040513d601f19601f820116820180604052508101906124f791906145ac565b6001600160a01b031663ac259ace336040516001600160e01b031960e084901b1681526001600160a01b039091166004820152602401602060405180830381865afa15801561254a573d6000803e3d6000fd5b505050506040513d601f19601f8201168201806040525081019061256e91906145c9565b1561258b5760405162461bcd60e51b81526004016109f2906145e6565b6125953385612279565b61259f33856128c7565b6125a93385610cb0565b60335460408051632192ab5d60e11b8152905168056bc75e2d63100000926001600160a01b03169163432556ba9160048083019260209291908290030181865afa1580156125fb573d6000803e3d6000fd5b505050506040513d601f19601f8201168201806040525081019061261f91906145ac565b6001600160a01b0316639dc29fac336040516001600160e01b031960e084901b1681526001600160a01b03909116600482015260248101849052604401600060405180830381600087803b15801561267657600080fd5b505af115801561268a573d6000803e3d6000fd5b505050506000818661269c919061452b565b9050603360009054906101000a90046001600160a01b03166001600160a01b031663432556ba6040518163ffffffff1660e01b8152600401602060405180830381865afa1580156126f1573d6000803e3d6000fd5b505050506040513d601f19601f8201168201806040525081019061271591906145ac565b6001600160a01b0316639dc29fac336040516001600160e01b031960e084901b1681526001600160a01b03909116600482015260248101849052604401600060405180830381600087803b15801561276c57600080fd5b505af1158015612780573d6000803e3d6000fd5b50505050600081604760006127923390565b6001600160a01b03168152602080820192909252604090810160009081208a82529092529020546127c391906146d3565b905060006127cf613be8565b9050426000338585848c876040516020016127ef9695949392919061472c565b60405160208183030381529060405280519060200120905083604760006128133390565b6001600160a01b03168152602080820192909252604090810160009081208d82529092528120919091554290604790336001600160a01b03168152602080820192909252604090810160009081208d825290925290206001015580336001600160a01b03167f5ece11db74b4a83792b00f8375343013bce17047b3ca83ff16ece331c9220a2f878786888f8f8f6040516128b39796959493929190614763565b60405180910390a350505050505050505050565b6128d182826118dc565b61293c5760405162461bcd60e51b815260206004820152603660248201527f4d6f72706865724272696467653a205769746864726177616c20416d6f756e7460448201527508195e18d959591cc81b5bdb9d1a1b1e481b1a5b5a5d60521b60648201526084016109f2565b6001600160a01b0382166000908152603c60205260408120829161296362278d00426146b1565b8152602001908152602001600020600082825461298091906146d3565b90915550819050603f6000610d8262278d00426146b1565b60335460408051630140cb6560e51b815290516000805160206149d2833981519152926001600160a01b0316916328196ca09160048083019260209291908290030181865afa1580156129ef573d6000803e3d6000fd5b505050506040513d601f19601f82011682018060405250810190612a1391906145ac565b6001600160a01b03166391d1485482336040516001600160e01b031960e085901b16815260048101929092526001600160a01b03166024820152604401602060405180830381865afa158015612a6d573d6000803e3d6000fd5b505050506040513d601f19601f82011682018060405250810190612a9191906145c9565b612aad5760405162461bcd60e51b81526004016109f2906146eb565b603a5460408051918252602082018490527f5c3db7af464ea9d986519b99cb07faf52b14ed37cccd5d05bea914e2fd92a06b910160405180910390a150603a55565b604254604354612aff904261452b565b11612b1c5760405162461bcd60e51b81526004016109f290614542565b603360009054906101000a90046001600160a01b03166001600160a01b03166350a71bac6040518163ffffffff1660e01b8152600401602060405180830381865afa158015612b6f573d6000803e3d6000fd5b505050506040513d601f19601f82011682018060405250810190612b9391906145ac565b6001600160a01b031663ac259ace336040516001600160e01b031960e084901b1681526001600160a01b039091166004820152602401602060405180830381865afa158015612be6573d6000803e3d6000fd5b505050506040513d601f19601f82011682018060405250810190612c0a91906145c9565b15612c275760405162461bcd60e51b81526004016109f2906145e6565b60445460ff16612c495760405162461bcd60e51b81526004016109f29061461d565b603360009054906101000a90046001600160a01b03166001600160a01b031663d37afa8d6040518163ffffffff1660e01b8152600401602060405180830381865afa158015612c9c573d6000803e3d6000fd5b505050506040513d601f19601f82011682018060405250810190612cc091906145ac565b6001600160a01b0316637a687444338a8a8a8a8a8a8a8a6040518a63ffffffff1660e01b8152600401612cfb999897969594939291906147ee565b602060405180830381865afa158015612d18573d6000803e3d6000fd5b505050506040513d601f19601f82011682018060405250810190612d3c9190614838565b8914612da45760405162461bcd60e51b815260206004820152603160248201527f4d6f72706865724272696467653a206c65616620646f6573206e6f742065717560448201527030b6103837b9b4ba34b7b7103430b9b41760791b60648201526084016109f2565b60008981526045602052604090205460ff1615612e185760405162461bcd60e51b815260206004820152602c60248201527f4d6f72706865724272696467653a20506f736974696f6e20616c72656164792060448201526b3a3930b739b332b93932b21760a11b60648201526084016109f2565b612e228a8a611773565b1515600114612e435760405162461bcd60e51b81526004016109f29061466e565b600089815260456020908152604091829020805460ff19166001179055603354825163d37afa8d60e01b815292516001600160a01b039091169263d37afa8d9260048083019391928290030181865afa158015612ea4573d6000803e3d6000fd5b505050506040513d601f19601f82011682018060405250810190612ec891906145ac565b6001600160a01b031663be7e64b6338a8a8a8a8a8a8a8a6040518a63ffffffff1660e01b8152600401612f03999897969594939291906147ee565b600060405180830381600087803b158015612f1d57600080fd5b505af1158015612f31573d6000803e3d6000fd5b50505050612f3c3390565b6001600160a01b03167f46de0525fb620932847e7db9be837e386fb61845ffb4ccc632241dfa56ce5d438a604051612f7691815260200190565b60405180910390a250505050505050505050565b6037546001600160a01b0383166000908152603d60205260408120909190839083612fb96301e13380426146b1565b815260200190815260200160002054612fd291906146d3565b111580156110d75750603a5482604060006110bb6301e13380426146b1565b60335460408051630140cb6560e51b815290516000805160206149d2833981519152926001600160a01b0316916328196ca09160048083019260209291908290030181865afa158015613048573d6000803e3d6000fd5b505050506040513d601f19601f8201168201806040525081019061306c91906145ac565b6001600160a01b03166391d1485482336040516001600160e01b031960e085901b16815260048101929092526001600160a01b03166024820152604401602060405180830381865afa1580156130c6573d6000803e3d6000fd5b505050506040513d601f19601f820116820180604052508101906130ea91906145c9565b6131065760405162461bcd60e51b81526004016109f2906146eb565b60365460408051918252602082018490527f15bbabad33cea99b6af1c5233603cb731748ed7b1cf3abd8de230338e7b4c97d910160405180910390a150603655565b603360009054906101000a90046001600160a01b03166001600160a01b03166350a71bac6040518163ffffffff1660e01b8152600401602060405180830381865afa15801561319b573d6000803e3d6000fd5b505050506040513d601f19601f820116820180604052508101906131bf91906145ac565b6001600160a01b031663ac259ace336040516001600160e01b031960e084901b1681526001600160a01b039091166004820152602401602060405180830381865afa158015613212573d6000803e3d6000fd5b505050506040513d601f19601f8201168201806040525081019061323691906145c9565b156132535760405162461bcd60e51b81526004016109f2906145e6565b60003360405160609190911b6001600160601b0319166020820152603481018490524660548201526074016040516020818303038152906040528051906020012090506000604860006132a33390565b6001600160a01b0316815260208101919091526040016000205490506132c98383611773565b6132e55760405162461bcd60e51b81526004016109f290614851565b836132f086836146d3565b111561330e5760405162461bcd60e51b81526004016109f2906148d4565b6133183386612279565b61332233866128c7565b61332c3386610cb0565b613337338287613a61565b60405185815233907f943c724b337822464f019ef425f7d5b1dd7ca039317dabe7446a630a6b8236d390602001611e53565b60006000805160206149d2833981519152603360009054906101000a90046001600160a01b03166001600160a01b03166328196ca06040518163ffffffff1660e01b8152600401602060405180830381865afa1580156133cd573d6000803e3d6000fd5b505050506040513d601f19601f820116820180604052508101906133f191906145ac565b6001600160a01b03166391d1485482336040516001600160e01b031960e085901b16815260048101929092526001600160a01b03166024820152604401602060405180830381865afa15801561344b573d6000803e3d6000fd5b505050506040513d601f19601f8201168201806040525081019061346f91906145c9565b61348b5760405162461bcd60e51b81526004016109f2906146eb565b8a6001600160a01b03166135358461352f8d89466040516020016134cf9392919092835260609190911b6001600160601b0319166020830152603482015260540190565b60408051601f1981840301815282825280516020918201207f19457468657265756d205369676e6564204d6573736167653a0a33320000000084830152603c8085019190915282518085039091018152605c909301909152815191012090565b90613c1c565b6001600160a01b0316146135a45760405162461bcd60e51b815260206004820152603060248201527f4d6f72706865724272696467653a205573657273207369676e6174757265206460448201526f6f6573206e6f742076616c696461746560801b60648201526084016109f2565b6135ad846111ed565b6040516001600160601b031960608d901b1660208201526034810188905246605482015260009060740160408051601f1981840301815291815281516020928301206001600160a01b038f16600090815260489093529120549091506136138883611773565b61362f5760405162461bcd60e51b81526004016109f290614851565b8861363a8d836146d3565b11156136585760405162461bcd60e51b81526004016109f2906148d4565b6136628d8d612279565b61366c8d8d6128c7565b6136768d8d610cb0565b6136808c826146d3565b6001600160a01b03808f16600090815260486020908152604091829020938455426001909401939093556033548151632192ab5d60e11b8152915192169263432556ba926004808401938290030181865afa1580156136e3573d6000803e3d6000fd5b505050506040513d601f19601f8201168201806040525081019061370791906145ac565b6040516340c10f1960e01b8152306004820152602481018e90526001600160a01b0391909116906340c10f1990604401600060405180830381600087803b15801561375157600080fd5b505af1158015613765573d6000803e3d6000fd5b505050508c6001600160a01b03167f943c724b337822464f019ef425f7d5b1dd7ca039317dabe7446a630a6b8236d38d6040516137a491815260200190565b60405180910390a2603360009054906101000a90046001600160a01b03166001600160a01b031663432556ba6040518163ffffffff1660e01b8152600401602060405180830381865afa1580156137ff573d6000803e3d6000fd5b505050506040513d601f19601f8201168201806040525081019061382391906145ac565b60405163a9059cbb60e01b81526001600160a01b038c81166004830152602482018e9052919091169063a9059cbb906044016020604051808303816000875af1158015613874573d6000803e3d6000fd5b505050506040513d601f19601f8201168201806040525081019061389891906145c9565b5060006138a58c8e61452b565b9050603360009054906101000a90046001600160a01b03166001600160a01b031663432556ba6040518163ffffffff1660e01b8152600401602060405180830381865afa1580156138fa573d6000803e3d6000fd5b505050506040513d601f19601f8201168201806040525081019061391e91906145ac565b60405163a9059cbb60e01b81526001600160a01b038a8116600483015260248201849052919091169063a9059cbb906044016020604051808303816000875af115801561396f573d6000803e3d6000fd5b505050506040513d601f19601f8201168201806040525081019061399391906145c9565b50604080516001600160a01b038a1681526020810183905260008183015290517f289e4a435008cc7d5b0aff39e319200f48d2172e15ee3744ba209b13670498509181900360600190a19d9c50505050505050505050505050565b604654604080516312a9293f60e21b815290516000926001600160a01b031691634aa4a4fc9160048083019260209291908290030181865afa158015613a38573d6000803e3d6000fd5b505050506040513d601f19601f82011682018060405250810190613a5c91906145ac565b905090565b613a6b81836146d3565b6001600160a01b03808516600090815260486020908152604091829020938455426001909401939093556033548151632192ab5d60e11b8152915192169263432556ba926004808401938290030181865afa158015613ace573d6000803e3d6000fd5b505050506040513d601f19601f82011682018060405250810190613af291906145ac565b6040516340c10f1960e01b81526001600160a01b0385811660048301526024820184905291909116906340c10f1990604401600060405180830381600087803b158015613b3e57600080fd5b505af1158015613b52573d6000803e3d6000fd5b50505050505050565b60008054610100900460ff1615613ba2578160ff166001148015613b7e5750303b155b613b9a5760405162461bcd60e51b81526004016109f29061493c565b506000919050565b60005460ff808416911610613bc95760405162461bcd60e51b81526004016109f29061493c565b506000805460ff191660ff92909216919091179055600190565b919050565b6049805460009182613bf98361498a565b9190505550604954905090565b600082613c138584613c40565b14949350505050565b6000806000613c2b8585613cac565b91509150613c3881613d1c565b509392505050565b600081815b8451811015613c38576000858281518110613c6257613c626149a5565b60200260200101519050808311613c885760008381526020829052604090209250613c99565b600081815260208490526040902092505b5080613ca48161498a565b915050613c45565b600080825160411415613ce35760208301516040840151606085015160001a613cd787828585613eda565b94509450505050613d15565b825160401415613d0d5760208301516040840151613d02868383613fc7565b935093505050613d15565b506000905060025b9250929050565b6000816004811115613d3057613d306149bb565b1415613d395750565b6001816004811115613d4d57613d4d6149bb565b1415613d9b5760405162461bcd60e51b815260206004820152601860248201527f45434453413a20696e76616c6964207369676e6174757265000000000000000060448201526064016109f2565b6002816004811115613daf57613daf6149bb565b1415613dfd5760405162461bcd60e51b815260206004820152601f60248201527f45434453413a20696e76616c6964207369676e6174757265206c656e6774680060448201526064016109f2565b6003816004811115613e1157613e116149bb565b1415613e6a5760405162461bcd60e51b815260206004820152602260248201527f45434453413a20696e76616c6964207369676e6174757265202773272076616c604482015261756560f01b60648201526084016109f2565b6004816004811115613e7e57613e7e6149bb565b1415613ed75760405162461bcd60e51b815260206004820152602260248201527f45434453413a20696e76616c6964207369676e6174757265202776272076616c604482015261756560f01b60648201526084016109f2565b50565b6000807f7fffffffffffffffffffffffffffffff5d576e7357a4501ddfe92f46681b20a0831115613f115750600090506003613fbe565b8460ff16601b14158015613f2957508460ff16601c14155b15613f3a5750600090506004613fbe565b6040805160008082526020820180845289905260ff881692820192909252606081018690526080810185905260019060a0016020604051602081039080840390855afa158015613f8e573d6000803e3d6000fd5b5050604051601f1901519150506001600160a01b038116613fb757600060019250925050613fbe565b9150600090505b94509492505050565b6000806001600160ff1b03831681613fe460ff86901c601b6146d3565b9050613ff287828885613eda565b935093505050935093915050565b60006020828403121561401257600080fd5b5035919050565b634e487b7160e01b600052604160045260246000fd5b604051601f8201601f1916810167ffffffffffffffff8111828210171561405857614058614019565b604052919050565b600082601f83011261407157600080fd5b8135602067ffffffffffffffff82111561408d5761408d614019565b8160051b61409c82820161402f565b92835284810182019282810190878511156140b657600080fd5b83870192505b848310156140d5578235825291830191908301906140bc565b979650505050505050565b6000806000606084860312156140f557600080fd5b833567ffffffffffffffff81111561410c57600080fd5b61411886828701614060565b9660208601359650604090950135949350505050565b6001600160a01b0381168114613ed757600080fd5b8035613be38161412e565b6000806040838503121561416157600080fd5b823561416c8161412e565b946020939093013593505050565b60006020828403121561418c57600080fd5b81356110d78161412e565b8015158114613ed757600080fd5b6000806000606084860312156141ba57600080fd5b83356141c58161412e565b925060208401356141d581614197565b915060408401356141e58161412e565b809150509250925092565b6000806040838503121561420357600080fd5b50508035926020909101359150565b6000806040838503121561422557600080fd5b823567ffffffffffffffff81111561423c57600080fd5b61424885828601614060565b95602094909401359450505050565b60008060006060848603121561426c57600080fd5b83359250602084013567ffffffffffffffff81111561428a57600080fd5b61429686828701614060565b925050604084013590509250925092565b600082601f8301126142b857600080fd5b813567ffffffffffffffff8111156142d2576142d2614019565b6142e5601f8201601f191660200161402f565b8181528460208386010111156142fa57600080fd5b816020850160208301376000918101602001919091529392505050565b6000806000806080858703121561432d57600080fd5b843593506020850135925060408501356143468161412e565b9150606085013567ffffffffffffffff81111561436257600080fd5b61436e878288016142a7565b91505092959194509250565b6000806000806000806000806000806101408b8d03121561439a57600080fd5b8a3567ffffffffffffffff8111156143b157600080fd5b6143bd8d828e01614060565b9d60208d01359d5060408d01359c60608101359c5060808101359b5060a08101359a5060c0810135995060e081013598506101008101359750610120013595509350505050565b60008060006060848603121561441957600080fd5b8335925060208401359150604084013567ffffffffffffffff81111561443e57600080fd5b61444a86828701614060565b9150509250925092565b60008060008060008060008060006101208a8c03121561447357600080fd5b893561447e8161412e565b985060208a0135975060408a0135965060608a013561449c8161412e565b955060808a0135945060a08a013567ffffffffffffffff808211156144c057600080fd5b6144cc8d838e01614060565b95506144da60c08d01614143565b945060e08c013593506101008c01359150808211156144f857600080fd5b506145058c828d016142a7565b9150509295985092959850929598565b634e487b7160e01b600052601160045260246000fd5b60008282101561453d5761453d614515565b500390565b60208082526044908201527f4d6f72706865724272696467653a2046756e6374696f6e2063616e206f6e6c7960408201527f2062652063616c6c65642069662073696465636861696e20697320696e61637460608201526334bb329760e11b608082015260a00190565b6000602082840312156145be57600080fd5b81516110d78161412e565b6000602082840312156145db57600080fd5b81516110d781614197565b6020808252601e908201527f4d6f72706865724272696467653a205573657220697320626c6f636b65640000604082015260600190565b60208082526031908201527f4d6f72706865724272696467653a205265636f766572792066756e6374696f6e6040820152701cc8185c99481b9bdd08195b98589b1959607a1b606082015260800190565b60208082526023908201527f4d6f72706865724272696467653a204d65726b6c652070726f6f66206661696c60408201526232b21760e91b606082015260800190565b6000826146ce57634e487b7160e01b600052601260045260246000fd5b500490565b600082198211156146e6576146e6614515565b500190565b60208082526021908201527f4d6f72706865724272696467653a205065726d697373696f6e2064656e6965646040820152601760f91b606082015260800190565b60609690961b6001600160601b03191686526014860194909452603485019290925260548401526074830152609482015260b40190565b87815260006020888184015287604084015286606084015285608084015260018060a01b03851660a084015260e060c084015283518060e085015260005b818110156147be57858101830151858201610100015282016147a1565b818111156147d157600061010083870101525b50601f01601f191692909201610100019998505050505050505050565b6001600160a01b03999099168952602089019790975260408801959095526060870193909352608086019190915260a085015260c084015260e08301526101008201526101200190565b60006020828403121561484a57600080fd5b5051919050565b60208082526059908201527f4d6f72706865724272696467653a204d65726b6c652050726f6f66206661696c60408201527f65642e20506c65617365206d616b65207375726520796f7520656e746572656460608201527f2074686520636f727265637420636c61696d206c696d69742e00000000000000608082015260a00190565b60208082526042908201527f4d6f72706865724272696467653a20546f6b656e20616d6f756e74206578636560408201527f65647320746f6b656e2064656c65746564206f6e206c696e6b65642063686169606082015261371760f11b608082015260a00190565b6020808252602e908201527f496e697469616c697a61626c653a20636f6e747261637420697320616c72656160408201526d191e481a5b9a5d1a585b1a5e995960921b606082015260800190565b600060001982141561499e5761499e614515565b5060010190565b634e487b7160e01b600052603260045260246000fd5b634e487b7160e01b600052602160045260246000fdfec08f7188394b31596c538860a69934f466a85ebc66fc5d1d967ccfaef4a6bdabe5a0b4d50f56047f84728557fedbda92f956391bc9d5c762e8461996dd8e7ad7a2646970667358221220f6b7860ec258202c073d1513cc733c0029cbaa69f496caf2378a37f451c3ab5a64736f6c634300080b0033",
  "immutableReferences": {},
  "source": "// ------------------------------------------------------------------------\r\n// MorpherBridge\r\n// Handles deposit to and withdraws from the side chain, writing of the merkle\r\n// root to the main chain by the side chain operator, and enforces a rolling 24 hours\r\n// token withdraw limit from side chain to main chain.\r\n// If side chain operator doesn't write a merkle root hash to main chain for more than\r\n// 72 hours positions and balaces from side chain can be transferred to main chain.\r\n// ------------------------------------------------------------------------\r\n//SPDX-License-Identifier: GPLv3\r\npragma solidity 0.8.11;\r\n\r\nimport \"./MorpherState.sol\";\r\nimport \"./MorpherUserBlocking.sol\";\r\nimport \"./MorpherAccessControl.sol\";\r\nimport \"@openzeppelin/contracts-upgradeable/utils/cryptography/MerkleProofUpgradeable.sol\";\r\nimport \"@openzeppelin/contracts-upgradeable/proxy/utils/Initializable.sol\";\r\nimport \"@openzeppelin/contracts-upgradeable/utils/ContextUpgradeable.sol\";\r\nimport \"@openzeppelin/contracts-upgradeable/utils/cryptography/ECDSAUpgradeable.sol\";\r\nimport \"./MorpherTradeEngine.sol\";\r\n\r\nimport '@uniswap/v3-periphery/contracts/interfaces/ISwapRouter.sol';\r\nimport '@uniswap/v3-periphery/contracts/libraries/TransferHelper.sol';\r\nimport '@uniswap/v3-periphery/contracts/interfaces/IPeripheryImmutableState.sol';\r\n\r\ncontract MorpherBridge is Initializable, ContextUpgradeable {\r\n\r\n    using ECDSAUpgradeable for bytes32;\r\n\r\n\r\n    MorpherState state;\r\n    MorpherBridge previousBridge;\r\n\r\n    uint256 public withdrawalLimitPerUserDaily; //200k MPH per day\r\n    uint256 public withdrawalLimitPerUserMonthly; //1M MPH per month\r\n    uint256 public withdrawalLimitPerUserYearly; //5M MPH per year\r\n\r\n    uint256 public withdrawalLimitGlobalDaily; \r\n    uint256 public withdrawalLimitGlobalMonthly;\r\n    uint256 public withdrawalLimitGlobalYearly;\r\n    \r\n    mapping(address => mapping(uint256 => uint256)) public withdrawalPerUserPerDay; //[address][day] = withdrawalAmount\r\n    mapping(address => mapping(uint256 => uint256)) public withdrawalPerUserPerMonth; //[address][month] = withdrawalAmount\r\n    mapping(address => mapping(uint256 => uint256)) public withdrawalPerUserPerYear; //[address][year] = withdrawalAmount\r\n\r\n    mapping(uint256 => uint256) public withdrawalsGlobalDaily;\r\n    mapping(uint256 => uint256) public withdrawalsGlobalMonthly;\r\n    mapping(uint256 => uint256) public withdrawalsGlobalYearly;\r\n\r\n    bytes32 public constant ADMINISTRATOR_ROLE = keccak256(\"ADMINISTRATOR_ROLE\");\r\n    bytes32 public constant SIDECHAINOPERATOR_ROLE = keccak256(\"SIDECHAINOPERATOR_ROLE\");\r\n\r\n    struct WithdrawalDataStruct {\r\n        bytes32 merkleRoot;\r\n        uint256 lastUpdatedAt;\r\n    }\r\n\r\n    WithdrawalDataStruct public withdrawalData;\r\n\r\n    uint256 public inactivityPeriod;\r\n    bool public recoveryEnabled;\r\n    mapping(bytes32 => bool) public claimFromInactivity;\r\n\r\n    ISwapRouter public swapRouter;\r\n\r\n    // For this example, we will set the pool fee to 0.3%.\r\n    uint24 public constant poolFee = 3000;\r\n\r\n\r\n    struct TokensTransferredStruct {\r\n        uint256 amount;\r\n        uint256 lastTransferAt;\r\n    }\r\n    mapping(address => mapping(uint => TokensTransferredStruct)) public tokenSentToLinkedChain;\r\n    mapping(address => TokensTransferredStruct) public tokenClaimedOnThisChain;\r\n\r\n    uint256 public bridgeNonce;\r\n\r\n    event TransferToLinkedChain(\r\n        address indexed from,\r\n        uint256 tokens,\r\n        uint256 totalTokenSent,\r\n        uint256 timeStamp,\r\n        uint256 transferNonce,\r\n        uint256 targetChainId,\r\n        bytes32 indexed transferHash\r\n    );\r\n    event TransferToLinkedChainAndWithdrawTo(\r\n        address indexed from,\r\n        uint256 tokens,\r\n        uint256 totalTokenSent,\r\n        uint256 timeStamp,\r\n        uint256 transferNonce,\r\n        uint256 targetChainId,\r\n        address destinationAddress,\r\n        bytes userSigature,\r\n        bytes32 indexed transferHash\r\n    );\r\n    event TrustlessWithdrawFromSideChain(address indexed from, uint256 tokens);\r\n    event OperatorChainTransfer(address indexed from, uint256 tokens, bytes32 sidechainTransactionHash);\r\n    event ClaimFailedTransferToSidechain(address indexed from, uint256 tokens);\r\n    event PositionRecoveryFromSideChain(address indexed from, bytes32 positionHash);\r\n    event TokenRecoveryFromSideChain(address indexed from, bytes32 positionHash);\r\n    event SideChainMerkleRootUpdated(bytes32 _rootHash);\r\n    event WithdrawLimitReset();\r\n    event WithdrawLimitChanged(uint256 _withdrawLimit);\r\n    event WithdrawLimitDailyPerUserChanged(uint256 _oldLimit, uint256 _newLimit);\r\n    event WithdrawLimitMonthlyPerUserChanged(uint256 _oldLimit, uint256 _newLimit);\r\n    event WithdrawLimitYearlyPerUserChanged(uint256 _oldLimit, uint256 _newLimit);\r\n    event WithdrawLimitDailyGlobalChanged(uint256 _oldLimit, uint256 _newLimit);\r\n    event WithdrawLimitMonthlyGlobalChanged(uint256 _oldLimit, uint256 _newLimit);\r\n    event WithdrawLimitYearlyGlobalChanged(uint256 _oldLimit, uint256 _newLimit);\r\n    event LinkState(address _address);\r\n\r\n\r\n    /**\r\n     * emitted when the withdrawal was a success.\r\n     * @param _destination: the address that received the amount\r\n     * @param _amount: the amount of tokens\r\n     * @param _convertedToGasToken: if it was converted to ETH/MATIC native (=true) or sent as ERC20 token (=false)\r\n     */\r\n    event WithdrawalSuccess(address _destination, uint _amount, bool _convertedToGasToken);\r\n\r\n    function initialize(address _stateAddress, bool _recoveryEnabled, ISwapRouter _swapRouter) public initializer {\r\n        //as of June 14, Martin :\r\n        //User: daily 200k / monthly 1m / yearly 5m\r\n        //Global: daily 3m / monthly 10m / yearly 50m\r\n\r\n        state = MorpherState(_stateAddress);\r\n        recoveryEnabled = _recoveryEnabled;\r\n\r\n        withdrawalLimitPerUserDaily = 200000 ether; //200k MPH per day\r\n        withdrawalLimitPerUserMonthly = 1000000 ether; //1M MPH per month\r\n        withdrawalLimitPerUserYearly = 5000000 ether; //5M MPH per year\r\n\r\n        withdrawalLimitGlobalDaily = 3000000 ether; //3M MPH per day\r\n        withdrawalLimitGlobalMonthly = 10000000 ether; //10M MPH per month\r\n        withdrawalLimitGlobalYearly = 50000000 ether; //50M MPH per year\r\n\r\n        inactivityPeriod = 3 days;\r\n\r\n        swapRouter = _swapRouter;\r\n\r\n    }\r\n\r\n    modifier sideChainInactive {\r\n        require(block.timestamp - inactivityPeriod > withdrawalData.lastUpdatedAt, \"MorpherBridge: Function can only be called if sidechain is inactive.\");\r\n        _;\r\n    }\r\n\r\n    modifier onlyRecoveryEnabled() {\r\n        require(recoveryEnabled, \"MorpherBridge: Recovery functions are not enabled\");\r\n        _;\r\n    }\r\n\r\n    modifier userNotBlocked {\r\n        require(!MorpherUserBlocking(state.morpherUserBlockingAddress()).userIsBlocked(_msgSender()), \"MorpherBridge: User is blocked\");\r\n        _;\r\n    }\r\n\r\n    modifier onlyRole(bytes32 role) {\r\n        require(MorpherAccessControl(state.morpherAccessControlAddress()).hasRole(role, _msgSender()), \"MorpherBridge: Permission denied.\");\r\n        _;\r\n    }\r\n    \r\n    // ------------------------------------------------------------------------\r\n    // Links Token Contract with State\r\n    // ------------------------------------------------------------------------\r\n    function setMorpherState(address _stateAddress) public onlyRole(ADMINISTRATOR_ROLE) {\r\n        state = MorpherState(_stateAddress);\r\n        emit LinkState(_stateAddress);\r\n    }\r\n\r\n    function updateSwapRouter(ISwapRouter _swapRouter) public onlyRole(ADMINISTRATOR_ROLE) {\r\n        swapRouter = _swapRouter;\r\n    }\r\n\r\n\r\n    function setInactivityPeriod(uint256 _periodInSeconds) public onlyRole(ADMINISTRATOR_ROLE) {\r\n        inactivityPeriod = _periodInSeconds;\r\n    }\r\n\r\n    function updateSideChainMerkleRoot(bytes32 _rootHash) public onlyRole(SIDECHAINOPERATOR_ROLE) {\r\n        withdrawalData.merkleRoot = _rootHash;\r\n        withdrawalData.lastUpdatedAt = block.timestamp;\r\n        emit SideChainMerkleRootUpdated(_rootHash);\r\n    }\r\n\r\n    function updateWithdrawLimitPerUserDaily(uint256 _withdrawLimit) public onlyRole(SIDECHAINOPERATOR_ROLE) {\r\n        emit WithdrawLimitDailyPerUserChanged(withdrawalLimitPerUserDaily, _withdrawLimit);\r\n        withdrawalLimitPerUserDaily = _withdrawLimit;\r\n    }\r\n\r\n    function updateWithdrawLimitPerUserMonthly(uint256 _withdrawLimit) public onlyRole(SIDECHAINOPERATOR_ROLE) {\r\n        emit WithdrawLimitMonthlyPerUserChanged(withdrawalLimitPerUserMonthly, _withdrawLimit);\r\n        withdrawalLimitPerUserMonthly = _withdrawLimit;\r\n    }\r\n    function updateWithdrawLimitPerUserYearly(uint256 _withdrawLimit) public onlyRole(SIDECHAINOPERATOR_ROLE) {\r\n        emit WithdrawLimitYearlyPerUserChanged(withdrawalLimitPerUserYearly, _withdrawLimit);\r\n        withdrawalLimitPerUserYearly = _withdrawLimit;\r\n    }\r\n\r\n    function updateWithdrawLimitGlobalDaily(uint256 _withdrawLimit) public onlyRole(SIDECHAINOPERATOR_ROLE) {\r\n        emit WithdrawLimitDailyGlobalChanged(withdrawalLimitGlobalDaily, _withdrawLimit);\r\n        withdrawalLimitGlobalDaily = _withdrawLimit;\r\n    }\r\n\r\n    function updateWithdrawLimitGlobalMonthly(uint256 _withdrawLimit) public onlyRole(SIDECHAINOPERATOR_ROLE) {\r\n        emit WithdrawLimitMonthlyGlobalChanged(withdrawalLimitGlobalMonthly, _withdrawLimit);\r\n        withdrawalLimitGlobalMonthly = _withdrawLimit;\r\n    }\r\n    function updateWithdrawLimitGlobalYearly(uint256 _withdrawLimit) public onlyRole(SIDECHAINOPERATOR_ROLE) {\r\n        emit WithdrawLimitYearlyGlobalChanged(withdrawalLimitGlobalYearly, _withdrawLimit);\r\n        withdrawalLimitGlobalYearly = _withdrawLimit;\r\n    }\r\n\r\n\r\n    function isNotDailyLimitExceeding(address _usr, uint256 _amount) public view returns(bool) {\r\n        return (\r\n            (withdrawalPerUserPerDay[_usr][block.timestamp / 1 days] + _amount <= withdrawalLimitPerUserDaily) && \r\n            (withdrawalsGlobalDaily[block.timestamp / 1 days] + _amount <= withdrawalLimitGlobalDaily)\r\n        );\r\n    }\r\n    function isNotMonthlyLimitExceeding(address _usr, uint256 _amount) public view returns(bool) {\r\n        return (\r\n            (withdrawalPerUserPerMonth[_usr][block.timestamp / 30 days] + _amount <= withdrawalLimitPerUserMonthly) &&\r\n            (withdrawalsGlobalMonthly[block.timestamp / 30 days] + _amount <= withdrawalLimitGlobalMonthly)\r\n        );\r\n    }\r\n    function isNotYearlyLimitExceeding(address _usr, uint256 _amount) public view returns(bool) {\r\n        return (\r\n            (withdrawalPerUserPerYear[_usr][block.timestamp / 365 days] + _amount <= withdrawalLimitPerUserYearly) &&\r\n            (withdrawalsGlobalYearly[block.timestamp / 365 days] + _amount <= withdrawalLimitGlobalYearly)\r\n        );\r\n    }\r\n\r\n    function verifyUpdateDailyLimit(address _usr, uint256 _amount) public {\r\n        require(isNotDailyLimitExceeding(_usr, _amount), \"MorpherBridge: Withdrawal Amount exceeds daily limit\");\r\n        withdrawalPerUserPerDay[_usr][block.timestamp / 1 days] += _amount;\r\n        withdrawalsGlobalDaily[block.timestamp / 1 days] += _amount;\r\n    }\r\n\r\n    function verifyUpdateMonthlyLimit(address _usr, uint256 _amount) public {\r\n        require(isNotMonthlyLimitExceeding(_usr, _amount), \"MorpherBridge: Withdrawal Amount exceeds monthly limit\");\r\n        withdrawalPerUserPerMonth[_usr][block.timestamp / 30 days] += _amount;\r\n        withdrawalsGlobalMonthly[block.timestamp / 30 days] += _amount;\r\n    }\r\n\r\n    function verifyUpdateYearlyLimit(address _usr, uint256 _amount) public {\r\n        require(isNotYearlyLimitExceeding(_usr, _amount), \"MorpherBridge: Withdrawal Amount exceeds yearly limit\");\r\n        withdrawalPerUserPerYear[_usr][block.timestamp / 365 days] += _amount;\r\n        withdrawalsGlobalYearly[block.timestamp / 365 days] += _amount;\r\n    }\r\n\r\n    \r\n    /**\r\n    * stageTokensForTransfer [chain A] => claimTokens [chain B]\r\n    *     former: transferToSideChain(uint256 _tokens)\r\n    * \r\n    * Tokens are burned on chain A and then, after the merkle root is written, \r\n    * can be credited on chain B through claimStagedTokens(...) below\r\n    *\r\n    */\r\n    function stageTokensForTransfer(uint256 _tokens, uint _targetChainId) public userNotBlocked {\r\n        \r\n        verifyUpdateDailyLimit(_msgSender(), _tokens);\r\n        verifyUpdateMonthlyLimit(_msgSender(), _tokens);\r\n        verifyUpdateYearlyLimit(_msgSender(), _tokens);\r\n        uint withdrawalCost = 100 ether;\r\n        \r\n        MorpherToken(state.morpherTokenAddress()).burn(_msgSender(), withdrawalCost); //BURN 100 MPH as a Withdrawal Fee\r\n\r\n        uint tokensToWithdraw = _tokens - withdrawalCost;\r\n        MorpherToken(state.morpherTokenAddress()).burn(_msgSender(), tokensToWithdraw);\r\n\r\n\r\n        uint256 _newTokenSentToLinkedChain = tokenSentToLinkedChain[_msgSender()][_targetChainId].amount + tokensToWithdraw;\r\n        uint256 _transferNonce = getAndIncreaseBridgeNonce();\r\n        uint256 _timeStamp = block.timestamp;\r\n        bytes32 _transferHash = keccak256(\r\n            abi.encodePacked(\r\n                _msgSender(),\r\n                tokensToWithdraw,\r\n                _newTokenSentToLinkedChain,\r\n                _timeStamp,\r\n                _targetChainId,\r\n                _transferNonce\r\n            )\r\n        );\r\n        tokenSentToLinkedChain[_msgSender()][_targetChainId].amount =  _newTokenSentToLinkedChain;\r\n        tokenSentToLinkedChain[_msgSender()][_targetChainId].lastTransferAt = block.timestamp;\r\n        emit TransferToLinkedChain(_msgSender(), tokensToWithdraw, _newTokenSentToLinkedChain, _timeStamp, _transferNonce, _targetChainId, _transferHash);\r\n    }\r\n    \r\n    /**\r\n    * stageTokensForTransfer [chain A] => claimTokens [chain B]\r\n    *     former: transferToSideChain(uint256 _tokens)\r\n    * \r\n    * Tokens are burned on chain A and then, after the merkle root is written, \r\n    * can be credited on chain B through claimStagedTokens(...) below\r\n    *\r\n    */\r\n    function stageTokensForTransfer(uint256 _tokens, uint _targetChainId, address _autoWithdrawalAddressTo, bytes memory _signature) public userNotBlocked {\r\n        verifyUpdateDailyLimit(_msgSender(), _tokens);\r\n        verifyUpdateMonthlyLimit(_msgSender(), _tokens);\r\n        verifyUpdateYearlyLimit(_msgSender(), _tokens);\r\n        \r\n        uint withdrawalCost = 100 ether;\r\n        \r\n        MorpherToken(state.morpherTokenAddress()).burn(_msgSender(), withdrawalCost); //BURN 100 MPH as a Withdrawal Fee\r\n\r\n        uint tokensToWithdraw = _tokens - withdrawalCost;\r\n        MorpherToken(state.morpherTokenAddress()).burn(_msgSender(), tokensToWithdraw);\r\n        uint256 _newTokenSentToLinkedChain = tokenSentToLinkedChain[_msgSender()][_targetChainId].amount + tokensToWithdraw;\r\n        uint256 _transferNonce = getAndIncreaseBridgeNonce();\r\n        uint256 _timeStamp = block.timestamp;\r\n        bytes32 _transferHash = keccak256(\r\n            abi.encodePacked(\r\n                _msgSender(),\r\n                tokensToWithdraw,\r\n                _newTokenSentToLinkedChain,\r\n                _timeStamp,\r\n                _targetChainId,\r\n                _transferNonce\r\n            )\r\n        );\r\n        tokenSentToLinkedChain[_msgSender()][_targetChainId].amount =  _newTokenSentToLinkedChain;\r\n        tokenSentToLinkedChain[_msgSender()][_targetChainId].lastTransferAt = block.timestamp;\r\n        emit TransferToLinkedChainAndWithdrawTo(_msgSender(), tokensToWithdraw, _newTokenSentToLinkedChain, _timeStamp, _transferNonce, _targetChainId, _autoWithdrawalAddressTo, _signature, _transferHash);\r\n    }\r\n    \r\n    // ------------------------------------------------------------------------\r\n    // claimStagedTokens(...) former: trustlessTransferFromSideChain(uint256 _numOfToken, uint256 _claimLimit, bytes32[] memory _proof)\r\n    // Performs a merkle proof on the number of token that have been burned by the user on the side chain.\r\n    // If the number of token claimed on the main chain is less than the number of burned token on the side chain\r\n    // the difference (or less) can be claimed on the main chain.\r\n    // ------------------------------------------------------------------------\r\n    function claimStagedTokens(uint256 _numOfToken, uint256 _claimLimit, bytes32[] memory _proof) public userNotBlocked {\r\n        bytes32 leaf = keccak256(abi.encodePacked(_msgSender(), _claimLimit, block.chainid));\r\n        uint256 _tokenClaimed = tokenClaimedOnThisChain[_msgSender()].amount;  \r\n        require(mProof(_proof, leaf), \"MorpherBridge: Merkle Proof failed. Please make sure you entered the correct claim limit.\");\r\n        require(_tokenClaimed + _numOfToken <= _claimLimit, \"MorpherBridge: Token amount exceeds token deleted on linked chain.\"); \r\n\r\n        verifyUpdateDailyLimit(_msgSender(), _numOfToken);\r\n        verifyUpdateMonthlyLimit(_msgSender(), _numOfToken);\r\n        verifyUpdateYearlyLimit(_msgSender(), _numOfToken);        \r\n\r\n        _chainTransfer(_msgSender(), _tokenClaimed, _numOfToken);   \r\n        emit TrustlessWithdrawFromSideChain(_msgSender(), _numOfToken);\r\n    }\r\n\r\n    function getWethWmaticAddress() public view returns (address) {\r\n        return IPeripheryImmutableState(address(swapRouter)).WETH9();\r\n    }\r\n\r\n    // ------------------------------------------------------------------------\r\n    // claimStagedTokens(...) former: trustlessTransferFromSideChain(uint256 _numOfToken, uint256 _claimLimit, bytes32[] memory _proof)\r\n    // Performs a merkle proof on the number of token that have been burned by the user on the side chain.\r\n    // If the number of token claimed on the main chain is less than the number of burned token on the side chain\r\n    // the difference (or less) can be claimed on the main chain.\r\n    // ------------------------------------------------------------------------\r\n    function claimStagedTokensAndSendForUser(address _usrAddr, uint256 _numOfToken, uint256 fee, address feeRecipient, uint256 _claimLimit, bytes32[] memory _proof, address payable _finalOutput, bytes32 _rootHash, bytes memory _userConfirmationSignature) public onlyRole(SIDECHAINOPERATOR_ROLE) returns(uint) {\r\n        // msg.sender must approve this contract\r\n        require(keccak256(abi.encodePacked(_numOfToken,_finalOutput,block.chainid)).toEthSignedMessageHash().recover(_userConfirmationSignature) == _usrAddr, \"MorpherBridge: Users signature does not validate\");\r\n        updateSideChainMerkleRoot(_rootHash);\r\n        bytes32 leaf = keccak256(abi.encodePacked(_usrAddr, _claimLimit, block.chainid));\r\n        uint256 _tokenClaimed = tokenClaimedOnThisChain[_usrAddr].amount;  \r\n        require(mProof(_proof, leaf), \"MorpherBridge: Merkle Proof failed. Please make sure you entered the correct claim limit.\");\r\n        require(_tokenClaimed + _numOfToken <= _claimLimit, \"MorpherBridge: Token amount exceeds token deleted on linked chain.\"); \r\n\r\n        verifyUpdateDailyLimit(_usrAddr, _numOfToken); //for usrAddr\r\n        verifyUpdateMonthlyLimit(_usrAddr, _numOfToken);\r\n        verifyUpdateYearlyLimit(_usrAddr, _numOfToken);        \r\n\r\n        //mint the tokens\r\n        tokenClaimedOnThisChain[_usrAddr].amount = _tokenClaimed + _numOfToken;\r\n        tokenClaimedOnThisChain[_usrAddr].lastTransferAt = block.timestamp;\r\n        MorpherToken(state.morpherTokenAddress()).mint(address(this), _numOfToken);\r\n        emit TrustlessWithdrawFromSideChain(_usrAddr, _numOfToken);\r\n\r\n        /**\r\n         * Transfer the Fee away\r\n         */\r\n        MorpherToken(state.morpherTokenAddress()).transfer(feeRecipient, fee);\r\n        \r\n        \r\n        uint convertTokens = _numOfToken - fee;\r\n\r\n\r\n        // Transfer the specified amount\r\n        MorpherToken(state.morpherTokenAddress()).transfer( _finalOutput, convertTokens);\r\n        \r\n        emit WithdrawalSuccess(_finalOutput, convertTokens, false);\r\n        return convertTokens;\r\n    }\r\n    \r\n    // ------------------------------------------------------------------------\r\n    // _chainTransfer(address _address, uint256 _tokenClaimed, uint256 _numOfToken)\r\n    // Creates token on the chain for the user after proving their distruction on the \r\n    // linked chain has been proven before \r\n    // ------------------------------------------------------------------------\r\n    function _chainTransfer(address _address, uint256 _tokenClaimed, uint256 _numOfToken) private {\r\n        tokenClaimedOnThisChain[_address].amount = _tokenClaimed + _numOfToken;\r\n        tokenClaimedOnThisChain[_address].lastTransferAt = block.timestamp;\r\n        MorpherToken(state.morpherTokenAddress()).mint(_address, _numOfToken);\r\n    }\r\n        \r\n    // ------------------------------------------------------------------------\r\n    // claimFailedTransferToSidechain(uint256 _wrongSideChainBalance, bytes32[] memory _proof)\r\n    // If token sent to side chain were not credited to the user on the side chain within inactivityPeriod\r\n    // they can reclaim the token on the main chain by submitting the proof that their\r\n    // side chain balance is less than the number of token sent from main chain.\r\n    // ------------------------------------------------------------------------\r\n    function claimFailedTransferToSidechain(uint256 _wrongSideChainBalance, bytes32[] memory _proof, uint256 _targetChainId) public userNotBlocked {\r\n        bytes32 leaf = keccak256(abi.encodePacked(_msgSender(), _wrongSideChainBalance));\r\n        require(block.timestamp > tokenSentToLinkedChain[_msgSender()][_targetChainId].lastTransferAt + inactivityPeriod, \"MorpherBridge: Failed deposits can only be claimed after inactivity period.\");\r\n        require(_wrongSideChainBalance < tokenSentToLinkedChain[_msgSender()][_targetChainId].amount, \"MorpherBridge: Other chain credit is greater equal to wrongSideChainBalance.\");\r\n       \r\n        require(mProof(_proof, leaf), \"MorpherBridge: Merkle Proof failed. Enter total amount of deposits on side chain.\");\r\n \r\n        uint256 _claimAmount = tokenSentToLinkedChain[_msgSender()][_targetChainId].amount - _wrongSideChainBalance;\r\n        tokenSentToLinkedChain[_msgSender()][_targetChainId].amount -=  _claimAmount;\r\n        tokenSentToLinkedChain[_msgSender()][_targetChainId].lastTransferAt = block.timestamp;\r\n        verifyUpdateDailyLimit(_msgSender(), _claimAmount);\r\n        verifyUpdateMonthlyLimit(_msgSender(), _claimAmount);\r\n        verifyUpdateYearlyLimit(_msgSender(), _claimAmount);         \r\n        MorpherToken(state.morpherTokenAddress()).mint(_msgSender(), _claimAmount);\r\n        emit ClaimFailedTransferToSidechain(_msgSender(), _claimAmount);\r\n    }\r\n\r\n    // ------------------------------------------------------------------------\r\n    // recoverPositionFromInactivity former recoverPositionFromSideChain(bytes32[] memory _proof, bytes32 _leaf, bytes32 _marketId, uint256 _timeStamp, uint256 _longShares, uint256 _shortShares, uint256 _meanEntryPrice, uint256 _meanEntrySpread, uint256 _meanEntryLeverage)\r\n    // Failsafe against side chain operator becoming inactive or withholding Times (Time withhold attack).\r\n    // After 72 hours of no update of the side chain merkle root users can withdraw their last recorded\r\n    // positions from side chain to main chain. Overwrites eventually existing position on main chain.\r\n    // ------------------------------------------------------------------------\r\n    function recoverPositionFromInactivity(\r\n        bytes32[] memory _proof,\r\n        bytes32 _leaf,\r\n        bytes32 _marketId,\r\n        uint256 _timeStamp,\r\n        uint256 _longShares,\r\n        uint256 _shortShares,\r\n        uint256 _meanEntryPrice,\r\n        uint256 _meanEntrySpread,\r\n        uint256 _meanEntryLeverage,\r\n        uint256 _liquidationPrice\r\n        ) public sideChainInactive userNotBlocked onlyRecoveryEnabled {\r\n        require(_leaf == MorpherTradeEngine(state.morpherTradeEngineAddress()).getPositionHash(_msgSender(), _marketId, _timeStamp, _longShares, _shortShares, _meanEntryPrice, _meanEntrySpread, _meanEntryLeverage, _liquidationPrice), \"MorpherBridge: leaf does not equal position hash.\");\r\n        require(claimFromInactivity[_leaf] == false, \"MorpherBridge: Position already transferred.\");\r\n        require(mProof(_proof,_leaf) == true, \"MorpherBridge: Merkle proof failed.\");\r\n        claimFromInactivity[_leaf] = true;\r\n        //todo: double positions clashing? \r\n        MorpherTradeEngine(state.morpherTradeEngineAddress()).setPosition(_msgSender(), _marketId, _timeStamp, _longShares, _shortShares, _meanEntryPrice, _meanEntrySpread, _meanEntryLeverage, _liquidationPrice);\r\n        emit PositionRecoveryFromSideChain(_msgSender(), _leaf);\r\n        // Remark: After resuming operations side chain operator has 72 hours to sync and eliminate transferred positions on side chain to avoid double spend\r\n    }\r\n\r\n    // ------------------------------------------------------------------------\r\n    // recoverTokenFromInactivity - former recoverTokenFromSideChain(bytes32[] memory _proof, bytes32 _leaf, uint256 _balance)\r\n    // Failsafe against side chain operator becoming inactive or withholding times (time withhold attack).\r\n    // After 72 hours of no update of the side chain merkle root users can withdraw their last recorded\r\n    // token balance from side chain to main chain.\r\n    // ------------------------------------------------------------------------\r\n    function recoverTokenFromInactivity(bytes32[] memory _proof, bytes32 _leaf, uint256 _balance) public sideChainInactive userNotBlocked onlyRecoveryEnabled {\r\n        // Require side chain root hash not set on Mainchain for more than 72 hours (=3 days)\r\n        require(_leaf == getBalanceHash(_msgSender(), _balance), \"MorpherBridge: Wrong balance.\");\r\n        require(claimFromInactivity[_leaf] == false, \"MorpherBridge: Token already transferred.\");\r\n        require(mProof(_proof,_leaf) == true, \"MorpherBridge: Merkle proof failed.\");\r\n        claimFromInactivity[_leaf] = true;\r\n\r\n        verifyUpdateDailyLimit(_msgSender(), _balance);\r\n        verifyUpdateMonthlyLimit(_msgSender(), _balance);\r\n        verifyUpdateYearlyLimit(_msgSender(), _balance); \r\n        \r\n        _chainTransfer(_msgSender(), tokenClaimedOnThisChain[_msgSender()].amount, _balance);\r\n        emit TokenRecoveryFromSideChain(_msgSender(), _leaf);\r\n        // Remark: Side chain operator must adjust side chain balances for token recoveries before restarting operations to avoid double spend\r\n    }\r\n\r\n    // ------------------------------------------------------------------------\r\n    // mProof(bytes32[] memory _proof, bytes32 _leaf)\r\n    // Computes merkle proof against the root hash of the sidechain stored in Morpher state\r\n    // ------------------------------------------------------------------------\r\n    function mProof(bytes32[] memory _proof, bytes32 _leaf) public view returns(bool _isTrue) {\r\n        return MerkleProofUpgradeable.verify(_proof, withdrawalData.merkleRoot, _leaf);\r\n    }\r\n\r\n    function getBalanceHash(address _address, uint256 _balance) public pure returns (bytes32 _hash) {\r\n        return keccak256(abi.encodePacked(_address, _balance));\r\n    }\r\n\r\n    function getAndIncreaseBridgeNonce() internal returns (uint256) {\r\n        bridgeNonce++;\r\n        return bridgeNonce;\r\n    }\r\n\r\n    receive() external payable {\r\n        //needed to convert the weth to eth and send to user\r\n    }\r\n}\r\n",
  "sourcePath": "/home/michele/Work/MorpherProtocol/contracts/MorpherBridge.sol",
  "compiler": {
    "name": "solc",
    "version": "0.8.11+commit.d7f03943.Emscripten.clang"
  },
  "schemaVersion": "3.4.14",
  "updatedAt": "2023-07-21T09:48:17.277Z",
  "networkType": "ethereum",
  "devdoc": {
    "events": {
      "WithdrawalSuccess(address,uint256,bool)": {
        "params": {
          "_amount": ": the amount of tokens",
          "_convertedToGasToken": ": if it was converted to ETH/MATIC native (=true) or sent as ERC20 token (=false)",
          "_destination": ": the address that received the amount"
        }
      }
    },
    "kind": "dev",
    "methods": {},
    "version": 1
  },
  "userdoc": {
    "events": {
      "WithdrawalSuccess(address,uint256,bool)": {
        "notice": "emitted when the withdrawal was a success."
      }
    },
    "kind": "user",
    "methods": {
      "stageTokensForTransfer(uint256,uint256)": {
        "notice": "stageTokensForTransfer [chain A] => claimTokens [chain B]     former: transferToSideChain(uint256 _tokens)  Tokens are burned on chain A and then, after the merkle root is written,  can be credited on chain B through claimStagedTokens(...) below"
      },
      "stageTokensForTransfer(uint256,uint256,address,bytes)": {
        "notice": "stageTokensForTransfer [chain A] => claimTokens [chain B]     former: transferToSideChain(uint256 _tokens)  Tokens are burned on chain A and then, after the merkle root is written,  can be credited on chain B through claimStagedTokens(...) below"
      }
    },
    "version": 1
  }
}