{
  "contractName": "MorpherState",
  "abi": [
    {
      "anonymous": false,
      "inputs": [
        {
          "indexed": true,
          "internalType": "address",
          "name": "administratorAddress",
          "type": "address"
        }
      ],
      "name": "AdministratorChange",
      "type": "event"
    },
    {
      "anonymous": false,
      "inputs": [
        {
          "indexed": false,
          "internalType": "address",
          "name": "_bridgeAddress",
          "type": "address"
        }
      ],
      "name": "BridgeChange",
      "type": "event"
    },
    {
      "anonymous": false,
      "inputs": [
        {
          "indexed": true,
          "internalType": "address",
          "name": "recipient",
          "type": "address"
        },
        {
          "indexed": false,
          "internalType": "uint256",
          "name": "amount",
          "type": "uint256"
        },
        {
          "indexed": false,
          "internalType": "uint256",
          "name": "totalToken",
          "type": "uint256"
        }
      ],
      "name": "Burn",
      "type": "event"
    },
    {
      "anonymous": false,
      "inputs": [],
      "name": "FastWithdrawsDisabled",
      "type": "event"
    },
    {
      "anonymous": false,
      "inputs": [
        {
          "indexed": true,
          "internalType": "address",
          "name": "governanceAddress",
          "type": "address"
        }
      ],
      "name": "GovernanceChange",
      "type": "event"
    },
    {
      "anonymous": false,
      "inputs": [
        {
          "indexed": false,
          "internalType": "uint256",
          "name": "_periodLength",
          "type": "uint256"
        }
      ],
      "name": "InactivityPeriodUpdated",
      "type": "event"
    },
    {
      "anonymous": false,
      "inputs": [],
      "name": "Last24HoursAmountWithdrawnReset",
      "type": "event"
    },
    {
      "anonymous": false,
      "inputs": [
        {
          "indexed": true,
          "internalType": "uint256",
          "name": "rewardsTime",
          "type": "uint256"
        }
      ],
      "name": "LastRewardTime",
      "type": "event"
    },
    {
      "anonymous": false,
      "inputs": [],
      "name": "LastWithdrawAt",
      "type": "event"
    },
    {
      "anonymous": false,
      "inputs": [
        {
          "indexed": true,
          "internalType": "uint256",
          "name": "mainChainWithdrawLimit24",
          "type": "uint256"
        }
      ],
      "name": "MainChainWithdrawLimitUpdate",
      "type": "event"
    },
    {
      "anonymous": false,
      "inputs": [
        {
          "indexed": true,
          "internalType": "bytes32",
          "name": "activateMarket",
          "type": "bytes32"
        }
      ],
      "name": "MarketActivated",
      "type": "event"
    },
    {
      "anonymous": false,
      "inputs": [
        {
          "indexed": true,
          "internalType": "bytes32",
          "name": "deActivateMarket",
          "type": "bytes32"
        }
      ],
      "name": "MarketDeActivated",
      "type": "event"
    },
    {
      "anonymous": false,
      "inputs": [
        {
          "indexed": false,
          "internalType": "uint256",
          "name": "maxLeverage",
          "type": "uint256"
        }
      ],
      "name": "MaximumLeverageChange",
      "type": "event"
    },
    {
      "anonymous": false,
      "inputs": [
        {
          "indexed": true,
          "internalType": "address",
          "name": "recipient",
          "type": "address"
        },
        {
          "indexed": false,
          "internalType": "uint256",
          "name": "amount",
          "type": "uint256"
        },
        {
          "indexed": false,
          "internalType": "uint256",
          "name": "totalToken",
          "type": "uint256"
        }
      ],
      "name": "Mint",
      "type": "event"
    },
    {
      "anonymous": false,
      "inputs": [
        {
          "indexed": false,
          "internalType": "uint256",
          "name": "_transferNonce",
          "type": "uint256"
        }
      ],
      "name": "NewBridgeNonce",
      "type": "event"
    },
    {
      "anonymous": false,
      "inputs": [
        {
          "indexed": true,
          "internalType": "address",
          "name": "sideChainOperator",
          "type": "address"
        }
      ],
      "name": "NewSideChainOperator",
      "type": "event"
    },
    {
      "anonymous": false,
      "inputs": [
        {
          "indexed": false,
          "internalType": "uint256",
          "name": "newTotalOnOtherChain",
          "type": "uint256"
        }
      ],
      "name": "NewTotalInPositions",
      "type": "event"
    },
    {
      "anonymous": false,
      "inputs": [
        {
          "indexed": false,
          "internalType": "uint256",
          "name": "newTotalOnOtherChain",
          "type": "uint256"
        }
      ],
      "name": "NewTotalOnOtherChain",
      "type": "event"
    },
    {
      "anonymous": false,
      "inputs": [
        {
          "indexed": false,
          "internalType": "uint256",
          "name": "newTotalSupply",
          "type": "uint256"
        }
      ],
      "name": "NewTotalSupply",
      "type": "event"
    },
    {
      "anonymous": false,
      "inputs": [
        {
          "indexed": false,
          "internalType": "uint256",
          "name": "_numberOfRequests",
          "type": "uint256"
        }
      ],
      "name": "NumberOfRequestsLimitUpdate",
      "type": "event"
    },
    {
      "anonymous": false,
      "inputs": [
        {
          "indexed": true,
          "internalType": "address",
          "name": "recipient",
          "type": "address"
        },
        {
          "indexed": false,
          "internalType": "uint256",
          "name": "amount",
          "type": "uint256"
        }
      ],
      "name": "OperatingRewardMinted",
      "type": "event"
    },
    {
      "anonymous": false,
      "inputs": [
        {
          "indexed": true,
          "internalType": "address",
          "name": "oracleContract",
          "type": "address"
        }
      ],
      "name": "OracleChange",
      "type": "event"
    },
    {
      "anonymous": false,
      "inputs": [
        {
          "indexed": true,
          "internalType": "address",
          "name": "previousOwner",
          "type": "address"
        },
        {
          "indexed": true,
          "internalType": "address",
          "name": "newOwner",
          "type": "address"
        }
      ],
      "name": "OwnershipTransferred",
      "type": "event"
    },
    {
      "anonymous": false,
      "inputs": [
        {
          "indexed": true,
          "internalType": "address",
          "name": "rewardsAddress",
          "type": "address"
        },
        {
          "indexed": true,
          "internalType": "uint256",
          "name": "rewardsBasisPoints",
          "type": "uint256"
        }
      ],
      "name": "RewardsChange",
      "type": "event"
    },
    {
      "anonymous": false,
      "inputs": [
        {
          "indexed": false,
          "internalType": "uint256",
          "name": "_last24HoursAmountWithdrawn",
          "type": "uint256"
        },
        {
          "indexed": false,
          "internalType": "uint256",
          "name": "_lastWithdrawLimitReductionTime",
          "type": "uint256"
        }
      ],
      "name": "RollingWithdrawnAmountUpdated",
      "type": "event"
    },
    {
      "anonymous": false,
      "inputs": [
        {
          "indexed": true,
          "internalType": "address",
          "name": "sender",
          "type": "address"
        },
        {
          "indexed": true,
          "internalType": "address",
          "name": "spender",
          "type": "address"
        },
        {
          "indexed": false,
          "internalType": "uint256",
          "name": "tokens",
          "type": "uint256"
        }
      ],
      "name": "SetAllowance",
      "type": "event"
    },
    {
      "anonymous": false,
      "inputs": [
        {
          "indexed": true,
          "internalType": "address",
          "name": "account",
          "type": "address"
        },
        {
          "indexed": false,
          "internalType": "uint256",
          "name": "balance",
          "type": "uint256"
        },
        {
          "indexed": true,
          "internalType": "bytes32",
          "name": "balanceHash",
          "type": "bytes32"
        }
      ],
      "name": "SetBalance",
      "type": "event"
    },
    {
      "anonymous": false,
      "inputs": [
        {
          "indexed": true,
          "internalType": "bytes32",
          "name": "positionHash",
          "type": "bytes32"
        },
        {
          "indexed": true,
          "internalType": "address",
          "name": "sender",
          "type": "address"
        },
        {
          "indexed": true,
          "internalType": "bytes32",
          "name": "marketId",
          "type": "bytes32"
        },
        {
          "indexed": false,
          "internalType": "uint256",
          "name": "timeStamp",
          "type": "uint256"
        },
        {
          "indexed": false,
          "internalType": "uint256",
          "name": "longShares",
          "type": "uint256"
        },
        {
          "indexed": false,
          "internalType": "uint256",
          "name": "shortShares",
          "type": "uint256"
        },
        {
          "indexed": false,
          "internalType": "uint256",
          "name": "meanEntryPrice",
          "type": "uint256"
        },
        {
          "indexed": false,
          "internalType": "uint256",
          "name": "meanEntrySpread",
          "type": "uint256"
        },
        {
          "indexed": false,
          "internalType": "uint256",
          "name": "meanEntryLeverage",
          "type": "uint256"
        },
        {
          "indexed": false,
          "internalType": "uint256",
          "name": "liquidationPrice",
          "type": "uint256"
        }
      ],
      "name": "SetPosition",
      "type": "event"
    },
    {
      "anonymous": false,
      "inputs": [
        {
          "indexed": true,
          "internalType": "bytes32",
          "name": "sideChainMerkleRoot",
          "type": "bytes32"
        }
      ],
      "name": "SideChainMerkleRootUpdate",
      "type": "event"
    },
    {
      "anonymous": false,
      "inputs": [
        {
          "indexed": true,
          "internalType": "address",
          "name": "blackList",
          "type": "address"
        },
        {
          "indexed": true,
          "internalType": "uint256",
          "name": "blockNumber",
          "type": "uint256"
        }
      ],
      "name": "StateAccessDenied",
      "type": "event"
    },
    {
      "anonymous": false,
      "inputs": [
        {
          "indexed": true,
          "internalType": "address",
          "name": "whiteList",
          "type": "address"
        },
        {
          "indexed": true,
          "internalType": "uint256",
          "name": "blockNumber",
          "type": "uint256"
        }
      ],
      "name": "StateAccessGranted",
      "type": "event"
    },
    {
      "anonymous": false,
      "inputs": [
        {
          "indexed": false,
          "internalType": "address",
          "name": "administrator",
          "type": "address"
        },
        {
          "indexed": false,
          "internalType": "bool",
          "name": "_paused",
          "type": "bool"
        }
      ],
      "name": "StatePaused",
      "type": "event"
    },
    {
      "anonymous": false,
      "inputs": [
        {
          "indexed": true,
          "internalType": "address",
          "name": "tokenAddress",
          "type": "address"
        }
      ],
      "name": "TokenChange",
      "type": "event"
    },
    {
      "anonymous": false,
      "inputs": [
        {
          "indexed": false,
          "internalType": "address",
          "name": "_address",
          "type": "address"
        },
        {
          "indexed": false,
          "internalType": "uint256",
          "name": "_token",
          "type": "uint256"
        },
        {
          "indexed": false,
          "internalType": "uint256",
          "name": "_totalTokenSent",
          "type": "uint256"
        },
        {
          "indexed": true,
          "internalType": "bytes32",
          "name": "_tokenSentToLinkedChainHash",
          "type": "bytes32"
        }
      ],
      "name": "TokenSentToLinkedChain",
      "type": "event"
    },
    {
      "anonymous": false,
      "inputs": [
        {
          "indexed": true,
          "internalType": "address",
          "name": "account",
          "type": "address"
        },
        {
          "indexed": false,
          "internalType": "uint256",
          "name": "tokenTransferredToOtherChain",
          "type": "uint256"
        },
        {
          "indexed": true,
          "internalType": "bytes32",
          "name": "transferHash",
          "type": "bytes32"
        }
      ],
      "name": "TokenTransferredToOtherChain",
      "type": "event"
    },
    {
      "anonymous": false,
      "inputs": [
        {
          "indexed": true,
          "internalType": "address",
          "name": "sender",
          "type": "address"
        },
        {
          "indexed": true,
          "internalType": "address",
          "name": "recipient",
          "type": "address"
        },
        {
          "indexed": false,
          "internalType": "uint256",
          "name": "amount",
          "type": "uint256"
        }
      ],
      "name": "Transfer",
      "type": "event"
    },
    {
      "anonymous": false,
      "inputs": [
        {
          "indexed": false,
          "internalType": "address",
          "name": "_address",
          "type": "address"
        },
        {
          "indexed": false,
          "internalType": "uint256",
          "name": "_token",
          "type": "uint256"
        }
      ],
      "name": "TransferredTokenClaimed",
      "type": "event"
    },
    {
      "anonymous": false,
      "inputs": [
        {
          "indexed": true,
          "internalType": "address",
          "name": "blackList",
          "type": "address"
        }
      ],
      "name": "TransfersDisabled",
      "type": "event"
    },
    {
      "anonymous": false,
      "inputs": [
        {
          "indexed": true,
          "internalType": "address",
          "name": "whiteList",
          "type": "address"
        }
      ],
      "name": "TransfersEnabled",
      "type": "event"
    },
    {
      "anonymous": false,
      "inputs": [
        {
          "indexed": false,
          "internalType": "uint256",
          "name": "_amount",
          "type": "uint256"
        }
      ],
      "name": "WithdrawLimitUpdated",
      "type": "event"
    },
    {
      "inputs": [],
      "name": "DECIMALS",
      "outputs": [
        {
          "internalType": "uint256",
          "name": "",
          "type": "uint256"
        }
      ],
      "stateMutability": "view",
      "type": "function",
      "constant": true
    },
    {
      "inputs": [],
      "name": "PRECISION",
      "outputs": [
        {
          "internalType": "uint256",
          "name": "",
          "type": "uint256"
        }
      ],
      "stateMutability": "view",
      "type": "function",
      "constant": true
    },
    {
      "inputs": [],
      "name": "REWARDPERIOD",
      "outputs": [
        {
          "internalType": "uint256",
          "name": "",
          "type": "uint256"
        }
      ],
      "stateMutability": "view",
      "type": "function",
      "constant": true
    },
    {
      "inputs": [],
      "name": "administrator",
      "outputs": [
        {
          "internalType": "address",
          "name": "",
          "type": "address"
        }
      ],
      "stateMutability": "view",
      "type": "function",
      "constant": true
    },
    {
      "inputs": [],
      "name": "fastTransfersEnabled",
      "outputs": [
        {
          "internalType": "bool",
          "name": "",
          "type": "bool"
        }
      ],
      "stateMutability": "view",
      "type": "function",
      "constant": true
    },
    {
      "inputs": [],
      "name": "inactivityPeriod",
      "outputs": [
        {
          "internalType": "uint256",
          "name": "",
          "type": "uint256"
        }
      ],
      "stateMutability": "view",
      "type": "function",
      "constant": true
    },
    {
      "inputs": [],
      "name": "last24HoursAmountWithdrawn",
      "outputs": [
        {
          "internalType": "uint256",
          "name": "",
          "type": "uint256"
        }
      ],
      "stateMutability": "view",
      "type": "function",
      "constant": true
    },
    {
      "inputs": [],
      "name": "lastRewardTime",
      "outputs": [
        {
          "internalType": "uint256",
          "name": "",
          "type": "uint256"
        }
      ],
      "stateMutability": "view",
      "type": "function",
      "constant": true
    },
    {
      "inputs": [],
      "name": "lastWithdrawLimitReductionTime",
      "outputs": [
        {
          "internalType": "uint256",
          "name": "",
          "type": "uint256"
        }
      ],
      "stateMutability": "view",
      "type": "function",
      "constant": true
    },
    {
      "inputs": [],
      "name": "mainChain",
      "outputs": [
        {
          "internalType": "bool",
          "name": "",
          "type": "bool"
        }
      ],
      "stateMutability": "view",
      "type": "function",
      "constant": true
    },
    {
      "inputs": [],
      "name": "mainChainWithdrawLimit24",
      "outputs": [
        {
          "internalType": "uint256",
          "name": "",
          "type": "uint256"
        }
      ],
      "stateMutability": "view",
      "type": "function",
      "constant": true
    },
    {
      "inputs": [],
      "name": "maximumLeverage",
      "outputs": [
        {
          "internalType": "uint256",
          "name": "",
          "type": "uint256"
        }
      ],
      "stateMutability": "view",
      "type": "function",
      "constant": true
    },
    {
      "inputs": [],
      "name": "morpherBridge",
      "outputs": [
        {
          "internalType": "address",
          "name": "",
          "type": "address"
        }
      ],
      "stateMutability": "view",
      "type": "function",
      "constant": true
    },
    {
      "inputs": [],
      "name": "morpherGovernance",
      "outputs": [
        {
          "internalType": "address",
          "name": "",
          "type": "address"
        }
      ],
      "stateMutability": "view",
      "type": "function",
      "constant": true
    },
    {
      "inputs": [],
      "name": "morpherRewards",
      "outputs": [
        {
          "internalType": "address",
          "name": "",
          "type": "address"
        }
      ],
      "stateMutability": "view",
      "type": "function",
      "constant": true
    },
    {
      "inputs": [],
      "name": "morpherToken",
      "outputs": [
        {
          "internalType": "address payable",
          "name": "",
          "type": "address"
        }
      ],
      "stateMutability": "view",
      "type": "function",
      "constant": true
    },
    {
      "inputs": [],
      "name": "numberOfRequestsLimit",
      "outputs": [
        {
          "internalType": "uint256",
          "name": "",
          "type": "uint256"
        }
      ],
      "stateMutability": "view",
      "type": "function",
      "constant": true
    },
    {
      "inputs": [],
      "name": "oracleContract",
      "outputs": [
        {
          "internalType": "address",
          "name": "",
          "type": "address"
        }
      ],
      "stateMutability": "view",
      "type": "function",
      "constant": true
    },
    {
      "inputs": [],
      "name": "owner",
      "outputs": [
        {
          "internalType": "address",
          "name": "",
          "type": "address"
        }
      ],
      "stateMutability": "view",
      "type": "function",
      "constant": true
    },
    {
      "inputs": [],
      "name": "paused",
      "outputs": [
        {
          "internalType": "bool",
          "name": "",
          "type": "bool"
        }
      ],
      "stateMutability": "view",
      "type": "function",
      "constant": true
    },
    {
      "inputs": [],
      "name": "renounceOwnership",
      "outputs": [],
      "stateMutability": "nonpayable",
      "type": "function"
    },
    {
      "inputs": [],
      "name": "rewardBasisPoints",
      "outputs": [
        {
          "internalType": "uint256",
          "name": "",
          "type": "uint256"
        }
      ],
      "stateMutability": "view",
      "type": "function",
      "constant": true
    },
    {
      "inputs": [],
      "name": "sideChainMerkleRoot",
      "outputs": [
        {
          "internalType": "bytes32",
          "name": "",
          "type": "bytes32"
        }
      ],
      "stateMutability": "view",
      "type": "function",
      "constant": true
    },
    {
      "inputs": [],
      "name": "sideChainMerkleRootWrittenAtTime",
      "outputs": [
        {
          "internalType": "uint256",
          "name": "",
          "type": "uint256"
        }
      ],
      "stateMutability": "view",
      "type": "function",
      "constant": true
    },
    {
      "inputs": [],
      "name": "sideChainOperator",
      "outputs": [
        {
          "internalType": "address",
          "name": "",
          "type": "address"
        }
      ],
      "stateMutability": "view",
      "type": "function",
      "constant": true
    },
    {
      "inputs": [],
      "name": "totalInPositions",
      "outputs": [
        {
          "internalType": "uint256",
          "name": "",
          "type": "uint256"
        }
      ],
      "stateMutability": "view",
      "type": "function",
      "constant": true
    },
    {
      "inputs": [],
      "name": "totalOnOtherChain",
      "outputs": [
        {
          "internalType": "uint256",
          "name": "",
          "type": "uint256"
        }
      ],
      "stateMutability": "view",
      "type": "function",
      "constant": true
    },
    {
      "inputs": [],
      "name": "totalSupply",
      "outputs": [
        {
          "internalType": "uint256",
          "name": "",
          "type": "uint256"
        }
      ],
      "stateMutability": "view",
      "type": "function",
      "constant": true
    },
    {
      "inputs": [],
      "name": "totalToken",
      "outputs": [
        {
          "internalType": "uint256",
          "name": "",
          "type": "uint256"
        }
      ],
      "stateMutability": "view",
      "type": "function",
      "constant": true
    },
    {
      "inputs": [],
      "name": "transferNonce",
      "outputs": [
        {
          "internalType": "uint256",
          "name": "",
          "type": "uint256"
        }
      ],
      "stateMutability": "view",
      "type": "function",
      "constant": true
    },
    {
      "inputs": [
        {
          "internalType": "address",
          "name": "newOwner",
          "type": "address"
        }
      ],
      "name": "transferOwnership",
      "outputs": [],
      "stateMutability": "nonpayable",
      "type": "function"
    },
    {
      "inputs": [],
      "name": "withdrawLimit24Hours",
      "outputs": [
        {
          "internalType": "uint256",
          "name": "",
          "type": "uint256"
        }
      ],
      "stateMutability": "view",
      "type": "function",
      "constant": true
    },
    {
      "inputs": [
        {
          "internalType": "bool",
          "name": "_mainChain",
          "type": "bool"
        },
        {
          "internalType": "address",
          "name": "_sideChainOperator",
          "type": "address"
        },
        {
          "internalType": "address",
          "name": "_morpherTreasury",
          "type": "address"
        }
      ],
      "name": "initialize",
      "outputs": [],
      "stateMutability": "nonpayable",
      "type": "function"
    },
    {
      "inputs": [
        {
          "internalType": "bytes32",
          "name": "_marketId",
          "type": "bytes32"
        }
      ],
      "name": "getMaxMappingIndex",
      "outputs": [
        {
          "internalType": "uint256",
          "name": "_maxMappingIndex",
          "type": "uint256"
        }
      ],
      "stateMutability": "view",
      "type": "function",
      "constant": true
    },
    {
      "inputs": [
        {
          "internalType": "bytes32",
          "name": "_marketId",
          "type": "bytes32"
        },
        {
          "internalType": "address",
          "name": "_address",
          "type": "address"
        }
      ],
      "name": "getExposureMappingIndex",
      "outputs": [
        {
          "internalType": "uint256",
          "name": "_mappingIndex",
          "type": "uint256"
        }
      ],
      "stateMutability": "view",
      "type": "function",
      "constant": true
    },
    {
      "inputs": [
        {
          "internalType": "bytes32",
          "name": "_marketId",
          "type": "bytes32"
        },
        {
          "internalType": "uint256",
          "name": "_mappingIndex",
          "type": "uint256"
        }
      ],
      "name": "getExposureMappingAddress",
      "outputs": [
        {
          "internalType": "address",
          "name": "_address",
          "type": "address"
        }
      ],
      "stateMutability": "view",
      "type": "function",
      "constant": true
    },
    {
      "inputs": [
        {
          "internalType": "bytes32",
          "name": "_marketId",
          "type": "bytes32"
        },
        {
          "internalType": "uint256",
          "name": "_maxMappingIndex",
          "type": "uint256"
        }
      ],
      "name": "setMaxMappingIndex",
      "outputs": [],
      "stateMutability": "nonpayable",
      "type": "function"
    },
    {
      "inputs": [
        {
          "internalType": "bytes32",
          "name": "_marketId",
          "type": "bytes32"
        },
        {
          "internalType": "address",
          "name": "_address",
          "type": "address"
        },
        {
          "internalType": "uint256",
          "name": "_index",
          "type": "uint256"
        }
      ],
      "name": "setExposureMapping",
      "outputs": [],
      "stateMutability": "nonpayable",
      "type": "function"
    },
    {
      "inputs": [
        {
          "internalType": "bytes32",
          "name": "_marketId",
          "type": "bytes32"
        },
        {
          "internalType": "address",
          "name": "_address",
          "type": "address"
        },
        {
          "internalType": "uint256",
          "name": "_index",
          "type": "uint256"
        }
      ],
      "name": "setExposureMappingIndex",
      "outputs": [],
      "stateMutability": "nonpayable",
      "type": "function"
    },
    {
      "inputs": [
        {
          "internalType": "bytes32",
          "name": "_marketId",
          "type": "bytes32"
        },
        {
          "internalType": "address",
          "name": "_address",
          "type": "address"
        },
        {
          "internalType": "uint256",
          "name": "_index",
          "type": "uint256"
        }
      ],
      "name": "setExposureMappingAddress",
      "outputs": [],
      "stateMutability": "nonpayable",
      "type": "function"
    },
    {
      "inputs": [
        {
          "internalType": "address",
          "name": "_address",
          "type": "address"
        },
        {
          "internalType": "uint256",
          "name": "_token",
          "type": "uint256"
        }
      ],
      "name": "setTokenClaimedOnThisChain",
      "outputs": [],
      "stateMutability": "nonpayable",
      "type": "function"
    },
    {
      "inputs": [
        {
          "internalType": "address",
          "name": "_address",
          "type": "address"
        }
      ],
      "name": "getTokenClaimedOnThisChain",
      "outputs": [
        {
          "internalType": "uint256",
          "name": "_token",
          "type": "uint256"
        }
      ],
      "stateMutability": "view",
      "type": "function",
      "constant": true
    },
    {
      "inputs": [
        {
          "internalType": "address",
          "name": "_address",
          "type": "address"
        },
        {
          "internalType": "uint256",
          "name": "_token",
          "type": "uint256"
        }
      ],
      "name": "setTokenSentToLinkedChain",
      "outputs": [],
      "stateMutability": "nonpayable",
      "type": "function"
    },
    {
      "inputs": [
        {
          "internalType": "address",
          "name": "_address",
          "type": "address"
        }
      ],
      "name": "getTokenSentToLinkedChain",
      "outputs": [
        {
          "internalType": "uint256",
          "name": "_token",
          "type": "uint256"
        }
      ],
      "stateMutability": "view",
      "type": "function",
      "constant": true
    },
    {
      "inputs": [
        {
          "internalType": "address",
          "name": "_address",
          "type": "address"
        }
      ],
      "name": "getTokenSentToLinkedChainTime",
      "outputs": [
        {
          "internalType": "uint256",
          "name": "_timeStamp",
          "type": "uint256"
        }
      ],
      "stateMutability": "view",
      "type": "function",
      "constant": true
    },
    {
      "inputs": [
        {
          "internalType": "uint256",
          "name": "_amount",
          "type": "uint256"
        }
      ],
      "name": "add24HoursWithdrawn",
      "outputs": [],
      "stateMutability": "nonpayable",
      "type": "function"
    },
    {
      "inputs": [
        {
          "internalType": "uint256",
          "name": "_amount",
          "type": "uint256"
        }
      ],
      "name": "update24HoursWithdrawLimit",
      "outputs": [],
      "stateMutability": "nonpayable",
      "type": "function"
    },
    {
      "inputs": [
        {
          "internalType": "uint256",
          "name": "_limit",
          "type": "uint256"
        }
      ],
      "name": "set24HourWithdrawLimit",
      "outputs": [],
      "stateMutability": "nonpayable",
      "type": "function"
    },
    {
      "inputs": [],
      "name": "resetLast24HoursAmountWithdrawn",
      "outputs": [],
      "stateMutability": "nonpayable",
      "type": "function"
    },
    {
      "inputs": [
        {
          "internalType": "uint256",
          "name": "_periodLength",
          "type": "uint256"
        }
      ],
      "name": "setInactivityPeriod",
      "outputs": [],
      "stateMutability": "nonpayable",
      "type": "function"
    },
    {
      "inputs": [],
      "name": "getBridgeNonce",
      "outputs": [
        {
          "internalType": "uint256",
          "name": "_nonce",
          "type": "uint256"
        }
      ],
      "stateMutability": "nonpayable",
      "type": "function"
    },
    {
      "inputs": [],
      "name": "disableFastWithdraws",
      "outputs": [],
      "stateMutability": "nonpayable",
      "type": "function"
    },
    {
      "inputs": [
        {
          "internalType": "bytes32",
          "name": "_positionHash",
          "type": "bytes32"
        }
      ],
      "name": "setPositionClaimedOnMainChain",
      "outputs": [],
      "stateMutability": "nonpayable",
      "type": "function"
    },
    {
      "inputs": [
        {
          "internalType": "bytes32",
          "name": "_positionHash",
          "type": "bytes32"
        }
      ],
      "name": "getPositionClaimedOnMainChain",
      "outputs": [
        {
          "internalType": "bool",
          "name": "_alreadyClaimed",
          "type": "bool"
        }
      ],
      "stateMutability": "view",
      "type": "function",
      "constant": true
    },
    {
      "inputs": [
        {
          "internalType": "address",
          "name": "_address",
          "type": "address"
        }
      ],
      "name": "setLastRequestBlock",
      "outputs": [],
      "stateMutability": "nonpayable",
      "type": "function"
    },
    {
      "inputs": [
        {
          "internalType": "address",
          "name": "_address",
          "type": "address"
        }
      ],
      "name": "getLastRequestBlock",
      "outputs": [
        {
          "internalType": "uint256",
          "name": "_lastRequestBlock",
          "type": "uint256"
        }
      ],
      "stateMutability": "view",
      "type": "function",
      "constant": true
    },
    {
      "inputs": [
        {
          "internalType": "address",
          "name": "_address",
          "type": "address"
        },
        {
          "internalType": "uint256",
          "name": "_numberOfRequests",
          "type": "uint256"
        }
      ],
      "name": "setNumberOfRequests",
      "outputs": [],
      "stateMutability": "nonpayable",
      "type": "function"
    },
    {
      "inputs": [
        {
          "internalType": "address",
          "name": "_address",
          "type": "address"
        }
      ],
      "name": "increaseNumberOfRequests",
      "outputs": [],
      "stateMutability": "nonpayable",
      "type": "function"
    },
    {
      "inputs": [
        {
          "internalType": "address",
          "name": "_address",
          "type": "address"
        }
      ],
      "name": "getNumberOfRequests",
      "outputs": [
        {
          "internalType": "uint256",
          "name": "_numberOfRequests",
          "type": "uint256"
        }
      ],
      "stateMutability": "view",
      "type": "function",
      "constant": true
    },
    {
      "inputs": [
        {
          "internalType": "uint256",
          "name": "_numberOfRequestsLimit",
          "type": "uint256"
        }
      ],
      "name": "setNumberOfRequestsLimit",
      "outputs": [],
      "stateMutability": "nonpayable",
      "type": "function"
    },
    {
      "inputs": [],
      "name": "getNumberOfRequestsLimit",
      "outputs": [
        {
          "internalType": "uint256",
          "name": "_numberOfRequestsLimit",
          "type": "uint256"
        }
      ],
      "stateMutability": "view",
      "type": "function",
      "constant": true
    },
    {
      "inputs": [
        {
          "internalType": "uint256",
          "name": "_mainChainWithdrawLimit24",
          "type": "uint256"
        }
      ],
      "name": "setMainChainWithdrawLimit",
      "outputs": [],
      "stateMutability": "nonpayable",
      "type": "function"
    },
    {
      "inputs": [],
      "name": "getMainChainWithdrawLimit",
      "outputs": [
        {
          "internalType": "uint256",
          "name": "_mainChainWithdrawLimit24",
          "type": "uint256"
        }
      ],
      "stateMutability": "view",
      "type": "function",
      "constant": true
    },
    {
      "inputs": [
        {
          "internalType": "address",
          "name": "_address",
          "type": "address"
        }
      ],
      "name": "grantAccess",
      "outputs": [],
      "stateMutability": "nonpayable",
      "type": "function"
    },
    {
      "inputs": [
        {
          "internalType": "address",
          "name": "_address",
          "type": "address"
        }
      ],
      "name": "denyAccess",
      "outputs": [],
      "stateMutability": "nonpayable",
      "type": "function"
    },
    {
      "inputs": [
        {
          "internalType": "address",
          "name": "_address",
          "type": "address"
        }
      ],
      "name": "getStateAccess",
      "outputs": [
        {
          "internalType": "bool",
          "name": "_hasAccess",
          "type": "bool"
        }
      ],
      "stateMutability": "view",
      "type": "function",
      "constant": true
    },
    {
      "inputs": [
        {
          "internalType": "address",
          "name": "_newGovernanceContractAddress",
          "type": "address"
        }
      ],
      "name": "setGovernanceContract",
      "outputs": [],
      "stateMutability": "nonpayable",
      "type": "function"
    },
    {
      "inputs": [],
      "name": "getGovernance",
      "outputs": [
        {
          "internalType": "address",
          "name": "_governanceContract",
          "type": "address"
        }
      ],
      "stateMutability": "view",
      "type": "function",
      "constant": true
    },
    {
      "inputs": [
        {
          "internalType": "address",
          "name": "_newBridge",
          "type": "address"
        }
      ],
      "name": "setMorpherBridge",
      "outputs": [],
      "stateMutability": "nonpayable",
      "type": "function"
    },
    {
      "inputs": [],
      "name": "getMorpherBridge",
      "outputs": [
        {
          "internalType": "address",
          "name": "_currentBridge",
          "type": "address"
        }
      ],
      "stateMutability": "view",
      "type": "function",
      "constant": true
    },
    {
      "inputs": [
        {
          "internalType": "address",
          "name": "_newOracleContract",
          "type": "address"
        }
      ],
      "name": "setOracleContract",
      "outputs": [],
      "stateMutability": "nonpayable",
      "type": "function"
    },
    {
      "inputs": [],
      "name": "getOracleContract",
      "outputs": [
        {
          "internalType": "address",
          "name": "",
          "type": "address"
        }
      ],
      "stateMutability": "view",
      "type": "function",
      "constant": true
    },
    {
      "inputs": [
        {
          "internalType": "address payable",
          "name": "_newTokenContract",
          "type": "address"
        }
      ],
      "name": "setTokenContract",
      "outputs": [],
      "stateMutability": "nonpayable",
      "type": "function"
    },
    {
      "inputs": [],
      "name": "getTokenContractAddress",
      "outputs": [
        {
          "internalType": "address",
          "name": "",
          "type": "address"
        }
      ],
      "stateMutability": "view",
      "type": "function",
      "constant": true
    },
    {
      "inputs": [
        {
          "internalType": "address",
          "name": "_newAdministrator",
          "type": "address"
        }
      ],
      "name": "setAdministrator",
      "outputs": [],
      "stateMutability": "nonpayable",
      "type": "function"
    },
    {
      "inputs": [],
      "name": "getAdministrator",
      "outputs": [
        {
          "internalType": "address",
          "name": "",
          "type": "address"
        }
      ],
      "stateMutability": "view",
      "type": "function",
      "constant": true
    },
    {
      "inputs": [
        {
          "internalType": "address",
          "name": "_newRewardsAddress",
          "type": "address"
        }
      ],
      "name": "setRewardAddress",
      "outputs": [],
      "stateMutability": "nonpayable",
      "type": "function"
    },
    {
      "inputs": [
        {
          "internalType": "uint256",
          "name": "_newRewardBasisPoints",
          "type": "uint256"
        }
      ],
      "name": "setRewardBasisPoints",
      "outputs": [],
      "stateMutability": "nonpayable",
      "type": "function"
    },
    {
      "inputs": [
        {
          "internalType": "bytes32",
          "name": "_activateMarket",
          "type": "bytes32"
        }
      ],
      "name": "activateMarket",
      "outputs": [],
      "stateMutability": "nonpayable",
      "type": "function"
    },
    {
      "inputs": [
        {
          "internalType": "bytes32",
          "name": "_deActivateMarket",
          "type": "bytes32"
        }
      ],
      "name": "deActivateMarket",
      "outputs": [],
      "stateMutability": "nonpayable",
      "type": "function"
    },
    {
      "inputs": [
        {
          "internalType": "bytes32",
          "name": "_marketId",
          "type": "bytes32"
        }
      ],
      "name": "getMarketActive",
      "outputs": [
        {
          "internalType": "bool",
          "name": "_active",
          "type": "bool"
        }
      ],
      "stateMutability": "view",
      "type": "function",
      "constant": true
    },
    {
      "inputs": [
        {
          "internalType": "uint256",
          "name": "_newMaximumLeverage",
          "type": "uint256"
        }
      ],
      "name": "setMaximumLeverage",
      "outputs": [],
      "stateMutability": "nonpayable",
      "type": "function"
    },
    {
      "inputs": [],
      "name": "getMaximumLeverage",
      "outputs": [
        {
          "internalType": "uint256",
          "name": "_maxLeverage",
          "type": "uint256"
        }
      ],
      "stateMutability": "view",
      "type": "function",
      "constant": true
    },
    {
      "inputs": [],
      "name": "pauseState",
      "outputs": [],
      "stateMutability": "nonpayable",
      "type": "function"
    },
    {
      "inputs": [],
      "name": "unPauseState",
      "outputs": [],
      "stateMutability": "nonpayable",
      "type": "function"
    },
    {
      "inputs": [
        {
          "internalType": "bytes32",
          "name": "_sideChainMerkleRoot",
          "type": "bytes32"
        }
      ],
      "name": "setSideChainMerkleRoot",
      "outputs": [],
      "stateMutability": "nonpayable",
      "type": "function"
    },
    {
      "inputs": [],
      "name": "getSideChainMerkleRoot",
      "outputs": [
        {
          "internalType": "bytes32",
          "name": "_sideChainMerkleRoot",
          "type": "bytes32"
        }
      ],
      "stateMutability": "view",
      "type": "function",
      "constant": true
    },
    {
      "inputs": [
        {
          "internalType": "address",
          "name": "_address",
          "type": "address"
        }
      ],
      "name": "setSideChainOperator",
      "outputs": [],
      "stateMutability": "nonpayable",
      "type": "function"
    },
    {
      "inputs": [],
      "name": "getSideChainOperator",
      "outputs": [
        {
          "internalType": "address",
          "name": "_address",
          "type": "address"
        }
      ],
      "stateMutability": "view",
      "type": "function",
      "constant": true
    },
    {
      "inputs": [],
      "name": "getSideChainMerkleRootWrittenAtTime",
      "outputs": [
        {
          "internalType": "uint256",
          "name": "_sideChainMerkleRoot",
          "type": "uint256"
        }
      ],
      "stateMutability": "view",
      "type": "function",
      "constant": true
    },
    {
      "inputs": [
        {
          "internalType": "address",
          "name": "_address",
          "type": "address"
        },
        {
          "internalType": "bytes32",
          "name": "_marketId",
          "type": "bytes32"
        },
        {
          "internalType": "uint256",
          "name": "_timeStamp",
          "type": "uint256"
        },
        {
          "internalType": "uint256",
          "name": "_longShares",
          "type": "uint256"
        },
        {
          "internalType": "uint256",
          "name": "_shortShares",
          "type": "uint256"
        },
        {
          "internalType": "uint256",
          "name": "_meanEntryPrice",
          "type": "uint256"
        },
        {
          "internalType": "uint256",
          "name": "_meanEntrySpread",
          "type": "uint256"
        },
        {
          "internalType": "uint256",
          "name": "_meanEntryLeverage",
          "type": "uint256"
        },
        {
          "internalType": "uint256",
          "name": "_liquidationPrice",
          "type": "uint256"
        }
      ],
      "name": "setPosition",
      "outputs": [],
      "stateMutability": "nonpayable",
      "type": "function"
    },
    {
      "inputs": [
        {
          "internalType": "address",
          "name": "_address",
          "type": "address"
        },
        {
          "internalType": "bytes32",
          "name": "_marketId",
          "type": "bytes32"
        }
      ],
      "name": "getPosition",
      "outputs": [
        {
          "internalType": "uint256",
          "name": "_longShares",
          "type": "uint256"
        },
        {
          "internalType": "uint256",
          "name": "_shortShares",
          "type": "uint256"
        },
        {
          "internalType": "uint256",
          "name": "_meanEntryPrice",
          "type": "uint256"
        },
        {
          "internalType": "uint256",
          "name": "_meanEntrySpread",
          "type": "uint256"
        },
        {
          "internalType": "uint256",
          "name": "_meanEntryLeverage",
          "type": "uint256"
        },
        {
          "internalType": "uint256",
          "name": "_liquidationPrice",
          "type": "uint256"
        }
      ],
      "stateMutability": "view",
      "type": "function",
      "constant": true
    },
    {
      "inputs": [
        {
          "internalType": "address",
          "name": "_address",
          "type": "address"
        },
        {
          "internalType": "bytes32",
          "name": "_marketId",
          "type": "bytes32"
        },
        {
          "internalType": "uint256",
          "name": "_timeStamp",
          "type": "uint256"
        },
        {
          "internalType": "uint256",
          "name": "_longShares",
          "type": "uint256"
        },
        {
          "internalType": "uint256",
          "name": "_shortShares",
          "type": "uint256"
        },
        {
          "internalType": "uint256",
          "name": "_meanEntryPrice",
          "type": "uint256"
        },
        {
          "internalType": "uint256",
          "name": "_meanEntrySpread",
          "type": "uint256"
        },
        {
          "internalType": "uint256",
          "name": "_meanEntryLeverage",
          "type": "uint256"
        },
        {
          "internalType": "uint256",
          "name": "_liquidationPrice",
          "type": "uint256"
        }
      ],
      "name": "getPositionHash",
      "outputs": [
        {
          "internalType": "bytes32",
          "name": "_hash",
          "type": "bytes32"
        }
      ],
      "stateMutability": "pure",
      "type": "function",
      "constant": true
    },
    {
      "inputs": [
        {
          "internalType": "address",
          "name": "_address",
          "type": "address"
        },
        {
          "internalType": "uint256",
          "name": "_balance",
          "type": "uint256"
        }
      ],
      "name": "getBalanceHash",
      "outputs": [
        {
          "internalType": "bytes32",
          "name": "_hash",
          "type": "bytes32"
        }
      ],
      "stateMutability": "pure",
      "type": "function",
      "constant": true
    },
    {
      "inputs": [
        {
          "internalType": "address",
          "name": "_address",
          "type": "address"
        },
        {
          "internalType": "bytes32",
          "name": "_marketId",
          "type": "bytes32"
        }
      ],
      "name": "getLastUpdated",
      "outputs": [
        {
          "internalType": "uint256",
          "name": "_lastUpdated",
          "type": "uint256"
        }
      ],
      "stateMutability": "view",
      "type": "function",
      "constant": true
    },
    {
      "inputs": [
        {
          "internalType": "address",
          "name": "_address",
          "type": "address"
        },
        {
          "internalType": "bytes32",
          "name": "_marketId",
          "type": "bytes32"
        }
      ],
      "name": "getLongShares",
      "outputs": [
        {
          "internalType": "uint256",
          "name": "_longShares",
          "type": "uint256"
        }
      ],
      "stateMutability": "view",
      "type": "function",
      "constant": true
    },
    {
      "inputs": [
        {
          "internalType": "address",
          "name": "_address",
          "type": "address"
        },
        {
          "internalType": "bytes32",
          "name": "_marketId",
          "type": "bytes32"
        }
      ],
      "name": "getShortShares",
      "outputs": [
        {
          "internalType": "uint256",
          "name": "_shortShares",
          "type": "uint256"
        }
      ],
      "stateMutability": "view",
      "type": "function",
      "constant": true
    },
    {
      "inputs": [
        {
          "internalType": "address",
          "name": "_address",
          "type": "address"
        },
        {
          "internalType": "bytes32",
          "name": "_marketId",
          "type": "bytes32"
        }
      ],
      "name": "getMeanEntryPrice",
      "outputs": [
        {
          "internalType": "uint256",
          "name": "_meanEntryPrice",
          "type": "uint256"
        }
      ],
      "stateMutability": "view",
      "type": "function",
      "constant": true
    },
    {
      "inputs": [
        {
          "internalType": "address",
          "name": "_address",
          "type": "address"
        },
        {
          "internalType": "bytes32",
          "name": "_marketId",
          "type": "bytes32"
        }
      ],
      "name": "getMeanEntrySpread",
      "outputs": [
        {
          "internalType": "uint256",
          "name": "_meanEntrySpread",
          "type": "uint256"
        }
      ],
      "stateMutability": "view",
      "type": "function",
      "constant": true
    },
    {
      "inputs": [
        {
          "internalType": "address",
          "name": "_address",
          "type": "address"
        },
        {
          "internalType": "bytes32",
          "name": "_marketId",
          "type": "bytes32"
        }
      ],
      "name": "getMeanEntryLeverage",
      "outputs": [
        {
          "internalType": "uint256",
          "name": "_meanEntryLeverage",
          "type": "uint256"
        }
      ],
      "stateMutability": "view",
      "type": "function",
      "constant": true
    },
    {
      "inputs": [
        {
          "internalType": "address",
          "name": "_address",
          "type": "address"
        },
        {
          "internalType": "bytes32",
          "name": "_marketId",
          "type": "bytes32"
        }
      ],
      "name": "getLiquidationPrice",
      "outputs": [
        {
          "internalType": "uint256",
          "name": "_liquidationPrice",
          "type": "uint256"
        }
      ],
      "stateMutability": "view",
      "type": "function",
      "constant": true
    },
    {
      "inputs": [],
      "name": "payOperatingReward",
      "outputs": [],
      "stateMutability": "nonpayable",
      "type": "function"
    }
  ],
  "bytecode": "0x608060405234801561001057600080fd5b50612c19806100206000396000f3fe608060405234801561001057600080fd5b50600436106105d25760003560e01c80637a68744411610300578063bece7532116101a8578063e4974f8d116100f4578063f2fde38b116100ad578063faddee1411610087578063faddee1414610e4f578063fbfc50f614610e88578063fc89a4fc14610e91578063ff047c3814610ea457600080fd5b8063f2fde38b14610e16578063f53d0a8e14610e29578063f606a41a14610e3c57600080fd5b8063e4974f8d14610d40578063e4bd852214610d53578063ebd164fb14610d5b578063ef5fa32214610d84578063ef92f83114610dbd578063efeecb0414610ddd57600080fd5b8063d711835111610161578063df8089ef1161013b578063df8089ef14610cd0578063e254542214610ce3578063e291f13514610cf6578063e3bbb56514610d2f57600080fd5b8063d711835114610ca8578063d8d5470d14610cb0578063da4b0f4014610cbd57600080fd5b8063bece753214610c29578063bfde573014610c3c578063c209afac14610c50578063c5e1b59a14610c79578063d362bd2b14610c8c578063d69082c414610c9557600080fd5b8063a99d389f11610267578063af434a6d11610220578063bb65b242116101fa578063bb65b24214610be7578063bbcd5bbe14610bf0578063bcc3e34214610c03578063be7e64b614610c1657600080fd5b8063af434a6d14610bb8578063b6554c2c14610bcb578063b8ed12a414610bde57600080fd5b8063a99d389f14610b6b578063aa43ced814610b7e578063aa7bcd5d14610b87578063aaf5eb6814610b90578063ac981b1e14610b9b578063af2b48a714610bae57600080fd5b80639162298f116102b95780639162298f14610b0e5780639231cf7414610b215780639fe4e9d214610b2a578063a058088014610b3d578063a35ab9c814610b45578063a8c8afaa14610b5857600080fd5b80637a68744414610abd5780637b431ab114610ad05780637c995e9114610ad9578063857b0da014610ae15780638c4050b114610af45780638da5cb5b14610afd57600080fd5b80633383e8d81161047e5780635c975abb116103ca57806369cdcfb711610383578063706277da1161035d578063706277da14610a84578063715018a614610a9c57806373ed1fe214610aa4578063755ca87a14610ab557600080fd5b806369cdcfb714610a565780636c36a4ec14610a695780636d37e21814610a7c57600080fd5b80635c975abb146109ce5780635e00e679146109db57806361afd5ac146109ee578063626be56714610a01578063652f176314610a0a57806369c66c7b14610a4357600080fd5b8063496ccd9b1161043757806355b337411161041157806355b337411461098c578063592b6aab146109955780635996e2091461099d5780635c8b9334146109a557600080fd5b8063496ccd9b146109435780634a4cce97146109565780634da3c1991461097957600080fd5b80633383e8d814610892578063364ae26e146108a55780633d7f4f3c146108ce5780633eedf76a14610904578063422cc2e71461090d57806344ae029c1461092057600080fd5b8063169674071161053d5780632020e697116104f657806325fbf712116104d057806325fbf71214610839578063289b3c0d146108415780632d7b42c1146108525780632e0f26251461088a57600080fd5b80632020e697146107e757806321c02c8e146107fa57806322e455841461082357600080fd5b8063169674071461076f578063174c51dc1461078057806318160ddd146107935780631864ba301461079c5780631bdbae90146107d55780631cb11077146107de57600080fd5b80630b7c8e7f1161058f5780630b7c8e7f1461066b5780630f508e00146106745780630fa8f516146106855780631129753f1461070d578063147125121461072057806314ce70ef1461075c57600080fd5b806304371f48146105d757806306442d0a146105ec57806307a9100e146105ff57806309089f97146106125780630aa7cee21461062d5780630ae5e73914610658575b600080fd5b6105ea6105e53660046127c1565b610eac565b005b6105ea6105fa3660046127c1565b611035565b6105ea61060d3660046127ef565b61109f565b61061a6110ef565b6040519081526020015b60405180910390f35b606954610640906001600160a01b031681565b6040516001600160a01b039091168152602001610624565b6105ea6106663660046127ef565b61118a565b61061a606d5481565b6069546001600160a01b0316610640565b6106e0610693366004612813565b6001600160a01b03919091166000908152607b6020908152604080832093835292905220600181015460028201546003830154600484015460058501546006909501549395929491939092565b604080519687526020870195909552938501929092526060840152608083015260a082015260c001610624565b6105ea61071b3660046127ef565b611202565b61074c61072e3660046127ef565b6001600160a01b031660009081526076602052604090205460ff1690565b6040519015158152602001610624565b6105ea61076a3660046127ef565b611276565b6067546001600160a01b0316610640565b6105ea61078e36600461283f565b6112ea565b61061a606b5481565b61061a6107aa366004612813565b6001600160a01b03919091166000908152607b60209081526040808320938352929052206002015490565b61061a606e5481565b61061a60835481565b6105ea6107f5366004612877565b61135b565b61061a6108083660046127ef565b6001600160a01b03166000908152607d602052604090205490565b60705461010090046001600160a01b0316610640565b60735461061a565b6065546001600160a01b0316610640565b610640610860366004612877565b6000918252607c60209081526040808420928452600290920190529020546001600160a01b031690565b61061a601281565b6105ea6108a0366004612813565b6113a1565b61061a6108b33660046127ef565b6001600160a01b03166000908152607e602052604090205490565b61061a6108dc366004612813565b6001600160a01b03919091166000908152607b60209081526040808320938352929052205490565b61061a606f5481565b6105ea61091b366004612813565b611423565b61074c61092e3660046127c1565b60009081526080602052604090205460ff1690565b6105ea6109513660046127ef565b6114dc565b61074c6109643660046127c1565b6000908152607a602052604090205460ff1690565b6105ea6109873660046127c1565b611550565b61061a60755481565b6105ea6115b9565b6105ea611618565b61061a6109b33660046127ef565b6001600160a01b031660009081526088602052604090205490565b60705461074c9060ff1681565b6105ea6109e93660046127ef565b611688565b6105ea6109fc3660046127ef565b611702565b61061a606c5481565b61061a610a18366004612813565b6001600160a01b03919091166000908152607b60209081526040808320938352929052206006015490565b61061a610a51366004612899565b611777565b6105ea610a643660046127c1565b6117a3565b6105ea610a77366004612813565b611800565b6105ea611850565b6070546106409061010090046001600160a01b031681565b6105ea6119d5565b606a546001600160a01b0316610640565b60895461061a565b61061a610acb3660046128c9565b611a39565b61061a60745481565b606f5461061a565b61061a610aef366004612813565b611ab1565b61061a60895481565b6033546001600160a01b0316610640565b6105ea610b1c36600461283f565b611af8565b61061a60725481565b6105ea610b383660046127c1565b611b47565b6105ea611bb7565b6105ea610b533660046127c1565b611c11565b606554610640906001600160a01b031681565b6105ea610b7936600461283f565b611ca0565b61061a60815481565b61061a60825481565b61061a6305f5e10081565b6105ea610ba93660046127c1565b611cfe565b61061a6201518081565b6105ea610bc63660046127c1565b611d6b565b6105ea610bd93660046127c1565b611dca565b61061a60855481565b61061a60715481565b6105ea610bfe3660046127ef565b611e0f565b6105ea610c113660046127ef565b611e8b565b6105ea610c243660046128c9565b611eeb565b606854610640906001600160a01b031681565b606a5461074c90600160a01b900460ff1681565b61061a610c5e3660046127ef565b6001600160a01b031660009081526087602052604090205490565b6105ea610c873660046127ef565b612063565b61061a60845481565b6105ea610ca33660046127c1565b6120db565b6105ea612152565b60865461074c9060ff1681565b6105ea610ccb3660046127c1565b6121c3565b6105ea610cde3660046127ef565b612285565b6105ea610cf1366004612931565b6122f9565b61061a610d04366004612813565b6001600160a01b03919091166000908152607b60209081526040808320938352929052206003015490565b6068546001600160a01b0316610640565b606a54610640906001600160a01b031681565b60745461061a565b61061a610d693660046127ef565b6001600160a01b03166000908152607f602052604090205490565b61061a610d92366004612813565b6001600160a01b03919091166000908152607b60209081526040808320938352929052206001015490565b61061a610dcb3660046127c1565b6000908152607c602052604090205490565b61061a610deb366004612813565b6001600160a01b03919091166000908152607b60209081526040808320938352929052206004015490565b6105ea610e243660046127ef565b6124e1565b606754610640906001600160a01b031681565b606654610640906001600160a01b031681565b61061a610e5d366004612813565b6001600160a01b03919091166000908152607b60209081526040808320938352929052206005015490565b61061a60735481565b6105ea610e9f3660046127c1565b6125ac565b60755461061a565b6065546001600160a01b03163314610edf5760405162461bcd60e51b8152600401610ed690612981565b60405180910390fd5b606a54600160a01b900460ff16151560011415610f8157613a98811115610f7c5760405162461bcd60e51b8152602060048201526044602482018190527f4d6f727068657253746174653a2052657761726420626173697320706f696e74908201527f73206e65656420746f206265206c657373206f7220657175616c20746f2031356064820152631818181760e11b608482015260a401610ed6565b610ff5565b8015610ff55760405162461bcd60e51b815260206004820152603e60248201527f4d6f727068657253746174653a2052657761726420626173697320706f696e7460448201527f732063616e206f6e6c7920626520736574206f6e20457468657265756d2e00006064820152608401610ed6565b607181905560665460405182916001600160a01b0316907faa735ef3e20d6d58610022edb69ae0e7e8aaa0084dc5699a0b36a5683bc7a7c790600090a350565b6067546001600160a01b0316331461105f5760405162461bcd60e51b8152600401610ed6906129ec565b6000818152607a6020526040808220805460ff191690555182917f9cb9d54a58b209894faa9f115e54b1c61733c0764fe29ed01f97c7c425f2f24391a250565b3360009081526076602052604090205460ff1615156001146110d35760405162461bcd60e51b8152600401610ed690612a49565b6001600160a01b03166000908152608760205260409020439055565b6000611103606a546001600160a01b031690565b6001600160a01b0316336001600160a01b0316146111335760405162461bcd60e51b8152600401610ed690612aa6565b6085805490600061114383612b0d565b91905055507f86423ef8971dc4252acb273ac1099fb639020a7a2f5a64dad077d033ab2ae8e260855460405161117b91815260200190565b60405180910390a15060855490565b6067546001600160a01b031633146111b45760405162461bcd60e51b8152600401610ed6906129ec565b6001600160a01b038116600081815260766020526040808220805460ff19166001179055514392917f556646edb498605e1eaf0f4ab1619f3dbc4164f1cddc22ecae584e045838d13891a350565b6065546001600160a01b0316331461122c5760405162461bcd60e51b8152600401610ed690612981565b606580546001600160a01b0319166001600160a01b0383169081179091556040517f5ab1e8b2c0a96bffa69cb323894590e00556bdce76b87d529100949740e6a55a90600090a250565b6067546001600160a01b031633146112a05760405162461bcd60e51b8152600401610ed6906129ec565b606980546001600160a01b0319166001600160a01b0383169081179091556040517f07c5be40db03f5890f6ca87fc24a286cabbbd63a79791089701cb0b5eb71529890600090a250565b3360009081526076602052604090205460ff16151560011461131e5760405162461bcd60e51b8152600401610ed690612a49565b6000928352607c602090815260408085209285526002909201905290912080546001600160a01b0319166001600160a01b03909216919091179055565b3360009081526076602052604090205460ff16151560011461138f5760405162461bcd60e51b8152600401610ed690612a49565b6000918252607c602052604090912055565b606a546001600160a01b031633146113cb5760405162461bcd60e51b8152600401610ed690612aa6565b6001600160a01b0382166000818152607d6020908152604091829020849055815192835282018390527fb83fc1206022cf828cdd927bea92f3cfe9ae485bc4d4308b65413dfdd0ab6edb910160405180910390a15050565b606a546001600160a01b0316331461144d5760405162461bcd60e51b8152600401610ed690612aa6565b6001600160a01b0382166000908152607e60208181526040808420858155607f835293204290555254611481908390611ab1565b6001600160a01b0383166000818152607e602090815260409182902054825193845290830185905282820152517fa3579111956ed8ebf7836e375375f707ea762883fa60008df45a289d53090b659181900360600190a25050565b6065546001600160a01b031633146115065760405162461bcd60e51b8152600401610ed690612981565b606880546001600160a01b0319166001600160a01b0383169081179091556040517f127863dda9b4c03043886af0affd8e8ff8c0c65822d70f0b639eadce57271f0890600090a250565b606a546001600160a01b0316331461157a5760405162461bcd60e51b8152600401610ed690612aa6565b60738190554260745561158b611850565b60405181907f2fe11f024562cd0798f5b3975c7be128c3b86e0249f9a66ad1e74bfb52f9246490600090a250565b606a546001600160a01b031633146115e35760405162461bcd60e51b8152600401610ed690612aa6565b6086805460ff191690556040517ff6b2b9c63998bbfbe0a548dce3fa97702cb864dbfbdb42d4bcdb6f58c4209c3490600090a1565b6067546001600160a01b031633146116425760405162461bcd60e51b8152600401610ed6906129ec565b6070805460ff1916905560408051338152600060208201527f532bec1988bda028bb59aba6eb1db09c7209eac3ac08644acb899122b604d1c291015b60405180910390a1565b6065546001600160a01b031633146116b25760405162461bcd60e51b8152600401610ed690612981565b606680546001600160a01b0319166001600160a01b0383169081179091556071546040519091907faa735ef3e20d6d58610022edb69ae0e7e8aaa0084dc5699a0b36a5683bc7a7c790600090a350565b6067546001600160a01b0316331461172c5760405162461bcd60e51b8152600401610ed6906129ec565b6001600160a01b038116600081815260766020526040808220805460ff19169055514392917fa40f23a963aabba33c55679497d6dd6d9815feadbeb0b0ad39d1285beda16bdd91a350565b6000828152607c602090815260408083206001600160a01b038516845260010190915290205492915050565b6065546001600160a01b031633146117cd5760405162461bcd60e51b8152600401610ed690612981565b607581905560405181907f1177d9c2a77eb9dd45c02329c8e4924e44101d64dabf8024543b0ce26e622f3690600090a250565b3360009081526076602052604090205460ff1615156001146118345760405162461bcd60e51b8152600401610ed690612a49565b6001600160a01b03909116600090815260886020526040902055565b606a54600160a01b900460ff1615156001146118c55760405162461bcd60e51b815260206004820152602e60248201527f4d6f727068657253746174653a2043616e206f6e6c792062652063616c6c656460448201526d1037b71036b0b4b731b430b4b71760911b6064820152608401610ed6565b620151806072546118d69190612b28565b4211156119d35760006305f5e100607154606b546118f49190612b40565b6118fe9190612b5f565b9050611919620151806072546119149190612b28565b61260b565b60705461010090046001600160a01b03166066546040516340c10f1960e01b81526001600160a01b039182166004820152602481018490529116906340c10f1990604401600060405180830381600087803b15801561197757600080fd5b505af115801561198b573d6000803e3d6000fd5b50506066546040518481526001600160a01b0390911692507f38fec7f72e65a01ab4170fddd9ed4438b1b378e84bef08292112fb619abfc9a2915060200160405180910390a2505b565b6033546001600160a01b03163314611a2f5760405162461bcd60e51b815260206004820181905260248201527f4f776e61626c653a2063616c6c6572206973206e6f7420746865206f776e65726044820152606401610ed6565b6119d3600061263e565b6040805160609a909a1b6bffffffffffffffffffffffff19166020808c019190915260348b019990995260548a01979097526074890195909552609488019390935260b487019190915260d486015260f485015261011480850191909152815180850390910181526101349093019052815191012090565b6040516bffffffffffffffffffffffff19606084901b1660208201526034810182905260009060540160405160208183030381529060405280519060200120905092915050565b3360009081526076602052604090205460ff161515600114611b2c5760405162461bcd60e51b8152600401610ed690612a49565b611b37838383611ca0565b611b428383836112ea565b505050565b3360009081526076602052604090205460ff161515600114611b7b5760405162461bcd60e51b8152600401610ed690612a49565b60898190556040518181527f8347cc6d3a3b991db61121237578d3a133ddf434ee43936f1c48d2c815eb0ab3906020015b60405180910390a150565b606a546001600160a01b03163314611be15760405162461bcd60e51b8152600401610ed690612aa6565b600060828190556040517fcada5cc63a6cd5770ca818284aa0ee429013dfd689c4f9587022943b408a09b19190a1565b606a546001600160a01b03163314611c3b5760405162461bcd60e51b8152600401610ed690612aa6565b806082541115611c5b5780608254611c539190612b81565b608255611c61565b60006082555b4260818190556082546040517fa11a2bc3cadf4e1be663d8cd5705d0e1dfab645a6d258fa97b350610640d30a092611bac928252602082015260400190565b3360009081526076602052604090205460ff161515600114611cd45760405162461bcd60e51b8152600401610ed690612a49565b6000928352607c602090815260408085206001600160a01b03909416855260019093019052912055565b6067546001600160a01b03163314611d285760405162461bcd60e51b8152600401610ed6906129ec565b6000818152607a6020526040808220805460ff191660011790555182917f52ebf9d662e8bc70841a5b603c1711882a8e4b11a663af6b5709286fe7bd964591a250565b606a546001600160a01b03163314611d955760405162461bcd60e51b8152600401610ed690612aa6565b60848190556040518181527faf1ea5ac33bf092763f62a127ef50006ae56eef9cc122568bea97c7308d1737690602001611bac565b606a546001600160a01b03163314611df45760405162461bcd60e51b8152600401610ed690612aa6565b6000908152608060205260409020805460ff19166001179055565b6065546001600160a01b03163314611e395760405162461bcd60e51b8152600401610ed690612981565b60708054610100600160a81b0319166101006001600160a01b038416908102919091179091556040517f0e6436d2b3e53a8a3ec2fbdd1d22525f0cd81d796bcb4beeef7337031a7e5efa90600090a250565b3360009081526076602052604090205460ff161515600114611ebf5760405162461bcd60e51b8152600401610ed690612a49565b6001600160a01b0381166000908152608860205260408120805491611ee383612b0d565b919050555050565b3360009081526076602052604090205460ff161515600114611f1f5760405162461bcd60e51b8152600401610ed690612a49565b6001600160a01b0389166000908152607b602090815260408083208b845290915290208781556001810187905560028101869055600381018590556004810184905560058101839055600601819055611f7f898989898989898989611a39565b6001600160a01b038a166000908152607b602090815260408083208c845290915290206007015585151580611fb45750600085115b15611fc857611fc3888a612690565b611fd2565b611fd2888a6126d4565b6001600160a01b0389166000818152607b602090815260408083208c84528252918290206007015482518b81529182018a9052918101889052606081018790526080810186905260a0810185905260c081018490528a9291907f35ea872e77adbec19df83a66765d5bdc0adfe73d9ada9518cb384242ddb40d5d9060e00160405180910390a4505050505050505050565b6065546001600160a01b0316331461208d5760405162461bcd60e51b8152600401610ed690612981565b606a80546001600160a01b0319166001600160a01b0383169081179091556040519081527f631bdf9495e4e83ab921eecb28e1057d3598a3fa0fc5f40b06bafe3e7333bc5c90602001611bac565b606a546001600160a01b031633146121055760405162461bcd60e51b8152600401610ed690612aa6565b806082546121139190612b28565b60828190556081546040517fa11a2bc3cadf4e1be663d8cd5705d0e1dfab645a6d258fa97b350610640d30a092611bac92908252602082015260400190565b6067546001600160a01b0316331461217c5760405162461bcd60e51b8152600401610ed6906129ec565b6070805460ff191660019081179091556040805133815260208101929092527f532bec1988bda028bb59aba6eb1db09c7209eac3ac08644acb899122b604d1c2910161167e565b6067546001600160a01b031633146121ed5760405162461bcd60e51b8152600401610ed6906129ec565b6305f5e10081116122505760405162461bcd60e51b815260206004820152602760248201527f4d6f727068657253746174653a204c6576657261676520707265636973696f6e604482015266040d2e64062ca760cb1b6064820152608401610ed6565b606f8190556040518181527f258a1584bca0aad852538c9d396233520174feedba906a03d19b307d3bad5f3090602001611bac565b6065546001600160a01b031633146122af5760405162461bcd60e51b8152600401610ed690612981565b606780546001600160a01b0319166001600160a01b0383169081179091556040517f47c6cd80582c55aabfec5a8be39d30b380cf41ba92dd2d13ba626c48c96bf27690600090a250565b600054610100900460ff166123145760005460ff1615612318565b303b155b61237b5760405162461bcd60e51b815260206004820152602e60248201527f496e697469616c697a61626c653a20636f6e747261637420697320616c72656160448201526d191e481a5b9a5d1a585b1a5e995960921b6064820152608401610ed6565b600054610100900460ff1615801561239d576000805461ffff19166101011790555b6123a5612767565b606a805460ff60a01b1916600160a01b861515021790556123c54261260b565b603354606780546001600160a01b03199081166001600160a01b0390931692831790915560658054909116821790556123fd9061118a565b61241261076a6033546001600160a01b031690565b606a54600160a01b900460ff1661243c5761242d6000610eac565b6124376000611688565b612450565b612447613a98610eac565b61245082611688565b6086805460ff191660011790556124676003611b47565b6124796032606b54610a649190612b5f565b61248283611276565b6124976109fc6033546001600160a01b031690565b6124a66305f5e100600a612b40565b606f556070805460ff191690556a108b2a2c280290940000006075556203f48060845580156124db576000805461ff00191690555b50505050565b6033546001600160a01b0316331461253b5760405162461bcd60e51b815260206004820181905260248201527f4f776e61626c653a2063616c6c6572206973206e6f7420746865206f776e65726044820152606401610ed6565b6001600160a01b0381166125a05760405162461bcd60e51b815260206004820152602660248201527f4f776e61626c653a206e6577206f776e657220697320746865207a65726f206160448201526564647265737360d01b6064820152608401610ed6565b6125a98161263e565b50565b606a546001600160a01b031633146125d65760405162461bcd60e51b8152600401610ed690612aa6565b60838190556040518181527f0969f79b044617688492c7c9b226129947037ca88c450002a7561ed78aa549ac90602001611bac565b607281905560405181907fb11f7283fda904f54a0fc8af727d3bf56e40a6cbf7c8fbb177083f0a335152ed90600090a250565b603380546001600160a01b038381166001600160a01b0319831681179093556040519116919082907f8be0079c531659141344cd1fd0a4f28419497f9722a3daafe3b4186f6b6457e090600090a35050565b600061269c8383611777565b905080611b42576000838152607c60205260408120546126bd906001612b28565b90506126c9848261135b565b6124db848483611af8565b60006126e08383611777565b6000848152607c602090815260408083208054808552600290910190925290912054919250906001600160a01b031682156127605781831015612733576127288582856112ea565b612733858285611ca0565b61273f856000846112ea565b61274b85856000611ca0565b811561276057612760856107f5600185612b81565b5050505050565b600054610100900460ff1661278e5760405162461bcd60e51b8152600401610ed690612b98565b6119d3600054610100900460ff166127b85760405162461bcd60e51b8152600401610ed690612b98565b6119d33361263e565b6000602082840312156127d357600080fd5b5035919050565b6001600160a01b03811681146125a957600080fd5b60006020828403121561280157600080fd5b813561280c816127da565b9392505050565b6000806040838503121561282657600080fd5b8235612831816127da565b946020939093013593505050565b60008060006060848603121561285457600080fd5b833592506020840135612866816127da565b929592945050506040919091013590565b6000806040838503121561288a57600080fd5b50508035926020909101359150565b600080604083850312156128ac57600080fd5b8235915060208301356128be816127da565b809150509250929050565b60008060008060008060008060006101208a8c0312156128e857600080fd5b89356128f3816127da565b9b60208b01359b5060408b01359a60608101359a506080810135995060a0810135985060c0810135975060e081013596506101000135945092505050565b60008060006060848603121561294657600080fd5b8335801515811461295657600080fd5b92506020840135612966816127da565b91506040840135612976816127da565b809150509250925092565b60208082526045908201527f4d6f727068657253746174653a2043616c6c696e6720636f6e7472616374206e60408201527f6f742074686520476f7665726e616e636520436f6e74726163742e2041626f726060820152643a34b7339760d91b608082015260a00190565b60208082526038908201527f4d6f727068657253746174653a2043616c6c6572206973206e6f74207468652060408201527f41646d696e6973747261746f722e2041626f7274696e672e0000000000000000606082015260800190565b6020808252603c908201527f4d6f727068657253746174653a204f6e6c7920506c6174666f726d206973206160408201527f6c6c6f77656420746f2065786563757465206f7065726174696f6e2e00000000606082015260800190565b60208082526031908201527f4d6f727068657253746174653a2043616c6c6572206973206e6f742074686520604082015270213934b233b2971020b137b93a34b7339760791b606082015260800190565b634e487b7160e01b600052601160045260246000fd5b6000600019821415612b2157612b21612af7565b5060010190565b60008219821115612b3b57612b3b612af7565b500190565b6000816000190483118215151615612b5a57612b5a612af7565b500290565b600082612b7c57634e487b7160e01b600052601260045260246000fd5b500490565b600082821015612b9357612b93612af7565b500390565b6020808252602b908201527f496e697469616c697a61626c653a20636f6e7472616374206973206e6f74206960408201526a6e697469616c697a696e6760a81b60608201526080019056fea2646970667358221220fc426fa9377f76b0ef6f6d9a766b67e4759a252bc555c8ed9b2e345b384254cc64736f6c634300080b0033",
  "immutableReferences": {},
  "source": "//SPDX-License-Identifier: GPLv3\r\npragma solidity 0.8.11;\r\nimport \"@openzeppelin/contracts-upgradeable/access/OwnableUpgradeable.sol\";\r\nimport \"@openzeppelin/contracts-upgradeable/proxy/utils/Initializable.sol\";\r\nimport \"./MorpherToken.sol\";\r\n\r\n// ----------------------------------------------------------------------------------\r\n// Data and token balance storage of the Morpher platform\r\n// Writing access is only granted to platform contracts. The contract can be paused\r\n// by an elected platform administrator (see MorpherGovernance) to perform protocol updates.\r\n// ----------------------------------------------------------------------------------\r\n\r\ncontract MorpherState is Initializable, OwnableUpgradeable  {\r\n\r\n    address public morpherGovernance;\r\n    address public morpherRewards;\r\n    address public administrator;\r\n    address public oracleContract;\r\n    address public sideChainOperator;\r\n    address public morpherBridge;\r\n    bool public mainChain;\r\n    uint256 public totalSupply;\r\n    uint256 public totalToken;\r\n    uint256 public totalInPositions;\r\n    uint256 public totalOnOtherChain;\r\n    uint256 public maximumLeverage; // Leverage precision is 1e8, maximum leverage set to 10 initially\r\n    uint256 public constant PRECISION = 10**8;\r\n    uint256 public constant DECIMALS = 18;\r\n    uint256 public constant REWARDPERIOD = 1 days;\r\n    bool public paused;\r\n\r\n    \r\n    address payable public morpherToken;\r\n\r\n    uint256 public rewardBasisPoints;\r\n    uint256 public lastRewardTime;\r\n\r\n    bytes32 public sideChainMerkleRoot;\r\n    uint256 public sideChainMerkleRootWrittenAtTime;\r\n\r\n    // Set initial withdraw limit from sidechain to 20m token or 2% of initial supply\r\n    uint256 public mainChainWithdrawLimit24;\r\n\r\n    mapping(address => bool) private stateAccess;\r\n    mapping(address => bool) private transferAllowed;\r\n\r\n    mapping(address => uint256) private balances;\r\n    mapping(address => mapping(address => uint256)) private allowed;\r\n\r\n    mapping(bytes32 => bool) private marketActive;\r\n\r\n    // ----------------------------------------------------------------------------\r\n    // Position struct records virtual futures\r\n    // ----------------------------------------------------------------------------\r\n    struct position {\r\n        uint256 lastUpdated;\r\n        uint256 longShares;\r\n        uint256 shortShares;\r\n        uint256 meanEntryPrice;\r\n        uint256 meanEntrySpread;\r\n        uint256 meanEntryLeverage;\r\n        uint256 liquidationPrice;\r\n        bytes32 positionHash;\r\n    }\r\n\r\n    // ----------------------------------------------------------------------------\r\n    // A portfolio is an address specific collection of postions\r\n    // ----------------------------------------------------------------------------\r\n    mapping(address => mapping(bytes32 => position)) private portfolio;\r\n\r\n    // ----------------------------------------------------------------------------\r\n    // Record all addresses that hold a position of a market, needed for clean stock splits\r\n    // ----------------------------------------------------------------------------\r\n    struct hasExposure {\r\n        uint256 maxMappingIndex;\r\n        mapping(address => uint256) index;\r\n        mapping(uint256 => address) addy;\r\n    }\r\n\r\n    mapping(bytes32 => hasExposure) private exposureByMarket;\r\n\r\n    // ----------------------------------------------------------------------------\r\n    // Bridge Variables\r\n    // ----------------------------------------------------------------------------\r\n    mapping (address => uint256) private tokenClaimedOnThisChain;\r\n    mapping (address => uint256) private tokenSentToLinkedChain;\r\n    mapping (address => uint256) private tokenSentToLinkedChainTime;\r\n    mapping (bytes32 => bool) private positionClaimedOnMainChain;\r\n\r\n    uint256 public lastWithdrawLimitReductionTime;\r\n    uint256 public last24HoursAmountWithdrawn;\r\n    uint256 public withdrawLimit24Hours;\r\n    uint256 public inactivityPeriod;\r\n    uint256 public transferNonce;\r\n    bool public fastTransfersEnabled;\r\n\r\n    // ----------------------------------------------------------------------------\r\n    // Sidechain spam protection\r\n    // ----------------------------------------------------------------------------\r\n\r\n    mapping(address => uint256) private lastRequestBlock;\r\n    mapping(address => uint256) private numberOfRequests;\r\n    uint256 public numberOfRequestsLimit;\r\n\r\n    // ----------------------------------------------------------------------------\r\n    // Events\r\n    // ----------------------------------------------------------------------------\r\n    event StateAccessGranted(address indexed whiteList, uint256 indexed blockNumber);\r\n    event StateAccessDenied(address indexed blackList, uint256 indexed blockNumber);\r\n\r\n    event TransfersEnabled(address indexed whiteList);\r\n    event TransfersDisabled(address indexed blackList);\r\n\r\n    event Transfer(address indexed sender, address indexed recipient, uint256 amount);\r\n    event Mint(address indexed recipient, uint256 amount, uint256 totalToken);\r\n    event Burn(address indexed recipient, uint256 amount, uint256 totalToken);\r\n    event NewTotalSupply(uint256 newTotalSupply);\r\n    event NewTotalOnOtherChain(uint256 newTotalOnOtherChain);\r\n    event NewTotalInPositions(uint256 newTotalOnOtherChain);\r\n    event OperatingRewardMinted(address indexed recipient, uint256 amount);\r\n\r\n    event RewardsChange(address indexed rewardsAddress, uint256 indexed rewardsBasisPoints);\r\n    event LastRewardTime(uint256 indexed rewardsTime);\r\n    event GovernanceChange(address indexed governanceAddress);\r\n    event TokenChange(address indexed tokenAddress);\r\n    event AdministratorChange(address indexed administratorAddress);\r\n    event OracleChange(address indexed oracleContract);\r\n    event MaximumLeverageChange(uint256 maxLeverage);\r\n    event MarketActivated(bytes32 indexed activateMarket);\r\n    event MarketDeActivated(bytes32 indexed deActivateMarket);\r\n    event BridgeChange(address _bridgeAddress);\r\n    event SideChainMerkleRootUpdate(bytes32 indexed sideChainMerkleRoot);\r\n    event NewSideChainOperator(address indexed sideChainOperator);\r\n    event NumberOfRequestsLimitUpdate(uint256 _numberOfRequests);\r\n\r\n    event MainChainWithdrawLimitUpdate(uint256 indexed mainChainWithdrawLimit24);\r\n    event TokenSentToLinkedChain(address _address, uint256 _token, uint256 _totalTokenSent, bytes32 indexed _tokenSentToLinkedChainHash);\r\n    event TransferredTokenClaimed(address _address, uint256 _token);\r\n    event LastWithdrawAt();\r\n    event RollingWithdrawnAmountUpdated(uint256 _last24HoursAmountWithdrawn, uint256 _lastWithdrawLimitReductionTime);\r\n    event WithdrawLimitUpdated(uint256 _amount);\r\n    event InactivityPeriodUpdated(uint256 _periodLength);\r\n    event FastWithdrawsDisabled();\r\n    event NewBridgeNonce(uint256 _transferNonce);\r\n    event Last24HoursAmountWithdrawnReset();\r\n\r\n    event StatePaused(address administrator, bool _paused);\r\n\r\n    event SetAllowance(address indexed sender, address indexed spender, uint256 tokens);\r\n    event SetPosition(bytes32 indexed positionHash,\r\n        address indexed sender,\r\n        bytes32 indexed marketId,\r\n        uint256 timeStamp,\r\n        uint256 longShares,\r\n        uint256 shortShares,\r\n        uint256 meanEntryPrice,\r\n        uint256 meanEntrySpread,\r\n        uint256 meanEntryLeverage,\r\n        uint256 liquidationPrice\r\n    );\r\n    event SetBalance(address indexed account, uint256 balance, bytes32 indexed balanceHash);\r\n    event TokenTransferredToOtherChain(address indexed account, uint256 tokenTransferredToOtherChain, bytes32 indexed transferHash);\r\n\r\n    modifier notPaused {\r\n        require(paused == false, \"MorpherState: Contract paused, aborting\");\r\n        _;\r\n    }\r\n\r\n    modifier onlyPlatform {\r\n        require(stateAccess[msg.sender] == true, \"MorpherState: Only Platform is allowed to execute operation.\");\r\n        _;\r\n    }\r\n\r\n    modifier onlyGovernance {\r\n        require(msg.sender == getGovernance(), \"MorpherState: Calling contract not the Governance Contract. Aborting.\");\r\n        _;\r\n    }\r\n\r\n    modifier onlyAdministrator {\r\n        require(msg.sender == getAdministrator(), \"MorpherState: Caller is not the Administrator. Aborting.\");\r\n        _;\r\n    }\r\n\r\n    modifier onlySideChainOperator {\r\n        require(msg.sender == sideChainOperator, \"MorpherState: Caller is not the Sidechain Operator. Aborting.\");\r\n        _;\r\n    }\r\n\r\n    // modifier canTransfer {\r\n    //     require(getCanTransfer(msg.sender), \"MorpherState: Caller may not transfer token. Aborting.\");\r\n    //     _;\r\n    // }\r\n\r\n    modifier onlyBridge {\r\n        require(msg.sender == getMorpherBridge(), \"MorpherState: Caller is not the Bridge. Aborting.\");\r\n        _;\r\n    }\r\n\r\n    modifier onlyMainChain {\r\n        require(mainChain == true, \"MorpherState: Can only be called on mainchain.\");\r\n        _;\r\n    }\r\n\r\n    modifier onlySideChain {\r\n        require(mainChain == false, \"MorpherState: Can only be called on mainchain.\");\r\n        _;\r\n    }\r\n\r\n    function initialize(bool _mainChain, address _sideChainOperator, address _morpherTreasury) public initializer {\r\n        OwnableUpgradeable.__Ownable_init();\r\n        // @Deployer: Transfer State Ownership to cold storage address after deploying protocol\r\n        mainChain = _mainChain; // true for Ethereum, false for Morpher PoA sidechain\r\n        setLastRewardTime(block.timestamp);\r\n\r\n        administrator = owner(); //first set the owner as administrator\r\n        morpherGovernance = owner(); //first set the owner as governance\r\n        \r\n        grantAccess(owner());\r\n        setSideChainOperator(owner());\r\n        if (mainChain == false) { // Create token only on sidechain\r\n\r\n            setRewardBasisPoints(0); // Reward is minted on mainchain\r\n            setRewardAddress(address(0));\r\n        } else {\r\n            setRewardBasisPoints(15000); // 15000 / PRECISION = 0.00015\r\n            setRewardAddress(_morpherTreasury);\r\n        }\r\n        fastTransfersEnabled = true;\r\n        setNumberOfRequestsLimit(3);\r\n        setMainChainWithdrawLimit(totalSupply / 50);\r\n        setSideChainOperator(_sideChainOperator);\r\n        denyAccess(owner());\r\n\r\n        maximumLeverage = 10*PRECISION; // Leverage precision is 1e8, maximum leverage set to 10 initially\r\n        paused = false;\r\n        mainChainWithdrawLimit24 = 2 * 10**25;   \r\n        inactivityPeriod = 3 days;\r\n    }\r\n\r\n    // ----------------------------------------------------------------------------\r\n    // Setter/Getter functions for market wise exposure\r\n    // ----------------------------------------------------------------------------\r\n\r\n    function getMaxMappingIndex(bytes32 _marketId) public view returns(uint256 _maxMappingIndex) {\r\n        return exposureByMarket[_marketId].maxMappingIndex;\r\n    }\r\n\r\n    function getExposureMappingIndex(bytes32 _marketId, address _address) public view returns(uint256 _mappingIndex) {\r\n        return exposureByMarket[_marketId].index[_address];\r\n    }\r\n\r\n    function getExposureMappingAddress(bytes32 _marketId, uint256 _mappingIndex) public view returns(address _address) {\r\n        return exposureByMarket[_marketId].addy[_mappingIndex];\r\n    }\r\n\r\n    function setMaxMappingIndex(bytes32 _marketId, uint256 _maxMappingIndex) public onlyPlatform {\r\n        exposureByMarket[_marketId].maxMappingIndex = _maxMappingIndex;\r\n    }\r\n\r\n    function setExposureMapping(bytes32 _marketId, address _address, uint256 _index) public onlyPlatform  {\r\n        setExposureMappingIndex(_marketId, _address, _index);\r\n        setExposureMappingAddress(_marketId, _address, _index);\r\n    }\r\n\r\n    function setExposureMappingIndex(bytes32 _marketId, address _address, uint256 _index) public onlyPlatform {\r\n        exposureByMarket[_marketId].index[_address] = _index;\r\n    }\r\n\r\n    function setExposureMappingAddress(bytes32 _marketId, address _address, uint256 _index) public onlyPlatform {\r\n        exposureByMarket[_marketId].addy[_index] = _address;\r\n    }\r\n\r\n    // ----------------------------------------------------------------------------\r\n    // Setter/Getter functions for bridge variables\r\n    // ----------------------------------------------------------------------------\r\n    function setTokenClaimedOnThisChain(address _address, uint256 _token) public onlyBridge {\r\n        tokenClaimedOnThisChain[_address] = _token;\r\n        emit TransferredTokenClaimed(_address, _token);\r\n    }\r\n\r\n    function getTokenClaimedOnThisChain(address _address) public view returns (uint256 _token) {\r\n        return tokenClaimedOnThisChain[_address];\r\n    }\r\n\r\n    function setTokenSentToLinkedChain(address _address, uint256 _token) public onlyBridge {\r\n        tokenSentToLinkedChain[_address] = _token;\r\n        tokenSentToLinkedChainTime[_address] = block.timestamp;\r\n        emit TokenSentToLinkedChain(_address, _token, tokenSentToLinkedChain[_address], getBalanceHash(_address, tokenSentToLinkedChain[_address]));\r\n    }\r\n\r\n    function getTokenSentToLinkedChain(address _address) public view returns (uint256 _token) {\r\n        return tokenSentToLinkedChain[_address];\r\n    }\r\n\r\n    function getTokenSentToLinkedChainTime(address _address) public view returns (uint256 _timeStamp) {\r\n        return tokenSentToLinkedChainTime[_address];\r\n    }\r\n\r\n    function add24HoursWithdrawn(uint256 _amount) public onlyBridge {\r\n        last24HoursAmountWithdrawn = last24HoursAmountWithdrawn + (_amount);\r\n        emit RollingWithdrawnAmountUpdated(last24HoursAmountWithdrawn, lastWithdrawLimitReductionTime);\r\n    }\r\n\r\n    function update24HoursWithdrawLimit(uint256 _amount) public onlyBridge {\r\n        if (last24HoursAmountWithdrawn > _amount) {\r\n            last24HoursAmountWithdrawn = last24HoursAmountWithdrawn - (_amount);\r\n        } else {\r\n            last24HoursAmountWithdrawn = 0;\r\n        }\r\n        lastWithdrawLimitReductionTime = block.timestamp;\r\n        emit RollingWithdrawnAmountUpdated(last24HoursAmountWithdrawn, lastWithdrawLimitReductionTime);\r\n    }\r\n\r\n    function set24HourWithdrawLimit(uint256 _limit) public onlyBridge {\r\n        withdrawLimit24Hours = _limit;\r\n        emit WithdrawLimitUpdated(_limit);\r\n    }\r\n\r\n    function resetLast24HoursAmountWithdrawn() public onlyBridge {\r\n        last24HoursAmountWithdrawn = 0;\r\n        emit Last24HoursAmountWithdrawnReset();\r\n    }\r\n\r\n    function setInactivityPeriod(uint256 _periodLength) public onlyBridge {\r\n        inactivityPeriod = _periodLength;\r\n        emit InactivityPeriodUpdated(_periodLength);\r\n    }\r\n\r\n    function getBridgeNonce() public onlyBridge returns (uint256 _nonce) {\r\n        transferNonce++;\r\n        emit NewBridgeNonce(transferNonce);\r\n        return transferNonce;\r\n    }\r\n\r\n    function disableFastWithdraws() public onlyBridge {\r\n        fastTransfersEnabled = false;\r\n        emit FastWithdrawsDisabled();\r\n    }\r\n\r\n    function setPositionClaimedOnMainChain(bytes32 _positionHash) public onlyBridge {\r\n        positionClaimedOnMainChain[_positionHash] = true;\r\n    }\r\n\r\n    function getPositionClaimedOnMainChain(bytes32 _positionHash) public view returns (bool _alreadyClaimed) {\r\n        return positionClaimedOnMainChain[_positionHash];\r\n    }\r\n\r\n    // ----------------------------------------------------------------------------\r\n    // Setter/Getter functions for spam protection\r\n    // ----------------------------------------------------------------------------\r\n\r\n    function setLastRequestBlock(address _address) public onlyPlatform {\r\n        lastRequestBlock[_address] = block.number;\r\n    }\r\n\r\n    function getLastRequestBlock(address _address) public view returns(uint256 _lastRequestBlock) {\r\n        return lastRequestBlock[_address];\r\n    }\r\n\r\n    function setNumberOfRequests(address _address, uint256 _numberOfRequests) public onlyPlatform {\r\n        numberOfRequests[_address] = _numberOfRequests;\r\n    }\r\n\r\n    function increaseNumberOfRequests(address _address) public onlyPlatform{\r\n        numberOfRequests[_address]++;\r\n    }\r\n\r\n    function getNumberOfRequests(address _address) public view returns(uint256 _numberOfRequests) {\r\n        return numberOfRequests[_address];\r\n    }\r\n\r\n    function setNumberOfRequestsLimit(uint256 _numberOfRequestsLimit) public onlyPlatform {\r\n        numberOfRequestsLimit = _numberOfRequestsLimit;\r\n        emit NumberOfRequestsLimitUpdate(_numberOfRequestsLimit);\r\n    }\r\n\r\n    function getNumberOfRequestsLimit() public view returns (uint256 _numberOfRequestsLimit) {\r\n        return numberOfRequestsLimit;\r\n    }\r\n\r\n    function setMainChainWithdrawLimit(uint256 _mainChainWithdrawLimit24) public onlyGovernance {\r\n        mainChainWithdrawLimit24 = _mainChainWithdrawLimit24;\r\n        emit MainChainWithdrawLimitUpdate(_mainChainWithdrawLimit24);\r\n    }\r\n\r\n    function getMainChainWithdrawLimit() public view returns (uint256 _mainChainWithdrawLimit24) {\r\n        return mainChainWithdrawLimit24;\r\n    }\r\n\r\n    // ----------------------------------------------------------------------------\r\n    // Setter/Getter functions for state access\r\n    // ----------------------------------------------------------------------------\r\n\r\n    function grantAccess(address _address) public onlyAdministrator {\r\n        stateAccess[_address] = true;\r\n        emit StateAccessGranted(_address, block.number);\r\n    }\r\n\r\n    function denyAccess(address _address) public onlyAdministrator {\r\n        stateAccess[_address] = false;\r\n        emit StateAccessDenied(_address, block.number);\r\n    }\r\n\r\n    function getStateAccess(address _address) public view returns(bool _hasAccess) {\r\n        return stateAccess[_address];\r\n    }\r\n\r\n    // ----------------------------------------------------------------------------\r\n    // Setter/Getter functions for platform roles\r\n    // ----------------------------------------------------------------------------\r\n\r\n    function setGovernanceContract(address _newGovernanceContractAddress) public onlyGovernance {\r\n        morpherGovernance = _newGovernanceContractAddress;\r\n        emit GovernanceChange(_newGovernanceContractAddress);\r\n    }\r\n\r\n    function getGovernance() public view returns (address _governanceContract) {\r\n        return morpherGovernance;\r\n    }\r\n\r\n    function setMorpherBridge(address _newBridge) public onlyGovernance {\r\n        morpherBridge = _newBridge;\r\n        emit BridgeChange(_newBridge);\r\n    }\r\n\r\n    function getMorpherBridge() public view returns (address _currentBridge) {\r\n        return morpherBridge;\r\n    }\r\n\r\n    function setOracleContract(address _newOracleContract) public onlyGovernance {\r\n        oracleContract = _newOracleContract;\r\n        emit OracleChange(_newOracleContract);\r\n    }\r\n\r\n    function getOracleContract() public view returns(address) {\r\n        return oracleContract;\r\n    }\r\n\r\n    function setTokenContract(address payable _newTokenContract) public onlyGovernance {\r\n        morpherToken = _newTokenContract;\r\n        emit TokenChange(_newTokenContract);\r\n    }\r\n\r\n    function getTokenContractAddress() public view returns(address) {\r\n        return morpherToken;\r\n    }\r\n\r\n    function setAdministrator(address _newAdministrator) public onlyGovernance {\r\n        administrator = _newAdministrator;\r\n        emit AdministratorChange(_newAdministrator);\r\n    }\r\n\r\n    function getAdministrator() public view returns(address) {\r\n        return administrator;\r\n    }\r\n\r\n    // ----------------------------------------------------------------------------\r\n    // Setter/Getter functions for platform operating rewards\r\n    // ----------------------------------------------------------------------------\r\n\r\n    function setRewardAddress(address _newRewardsAddress) public onlyGovernance {\r\n        morpherRewards = _newRewardsAddress;\r\n        emit RewardsChange(_newRewardsAddress, rewardBasisPoints);\r\n    }\r\n\r\n    function setRewardBasisPoints(uint256 _newRewardBasisPoints) public onlyGovernance {\r\n        if (mainChain == true) {\r\n            require(_newRewardBasisPoints <= 15000, \"MorpherState: Reward basis points need to be less or equal to 15000.\");\r\n        } else {\r\n            require(_newRewardBasisPoints == 0, \"MorpherState: Reward basis points can only be set on Ethereum.\");\r\n        }\r\n        rewardBasisPoints = _newRewardBasisPoints;\r\n        emit RewardsChange(morpherRewards, _newRewardBasisPoints);\r\n    }\r\n\r\n    function setLastRewardTime(uint256 _lastRewardTime) private {\r\n        lastRewardTime = _lastRewardTime;\r\n        emit LastRewardTime(_lastRewardTime);\r\n    }\r\n\r\n    // ----------------------------------------------------------------------------\r\n    // Setter/Getter functions for platform administration\r\n    // ----------------------------------------------------------------------------\r\n\r\n    function activateMarket(bytes32 _activateMarket) public onlyAdministrator {\r\n        marketActive[_activateMarket] = true;\r\n        emit MarketActivated(_activateMarket);\r\n    }\r\n\r\n    function deActivateMarket(bytes32 _deActivateMarket) public onlyAdministrator {\r\n        marketActive[_deActivateMarket] = false;\r\n        emit MarketDeActivated(_deActivateMarket);\r\n    }\r\n\r\n    function getMarketActive(bytes32 _marketId) public view returns(bool _active) {\r\n        return marketActive[_marketId];\r\n    }\r\n\r\n    function setMaximumLeverage(uint256 _newMaximumLeverage) public onlyAdministrator {\r\n        require(_newMaximumLeverage > PRECISION, \"MorpherState: Leverage precision is 1e8\");\r\n        maximumLeverage = _newMaximumLeverage;\r\n        emit MaximumLeverageChange(_newMaximumLeverage);\r\n    }\r\n\r\n    function getMaximumLeverage() public view returns(uint256 _maxLeverage) {\r\n        return maximumLeverage;\r\n    }\r\n\r\n    function pauseState() public onlyAdministrator {\r\n        paused = true;\r\n        emit StatePaused(msg.sender, true);\r\n    }\r\n\r\n    function unPauseState() public onlyAdministrator {\r\n        paused = false;\r\n        emit StatePaused(msg.sender, false);\r\n    }\r\n\r\n    // ----------------------------------------------------------------------------\r\n    // Setter/Getter for side chain state\r\n    // ----------------------------------------------------------------------------\r\n\r\n    function setSideChainMerkleRoot(bytes32 _sideChainMerkleRoot) public onlyBridge {\r\n        sideChainMerkleRoot = _sideChainMerkleRoot;\r\n        sideChainMerkleRootWrittenAtTime = block.timestamp;\r\n        payOperatingReward();\r\n        emit SideChainMerkleRootUpdate(_sideChainMerkleRoot);\r\n    }\r\n\r\n    function getSideChainMerkleRoot() public view returns(bytes32 _sideChainMerkleRoot) {\r\n        return sideChainMerkleRoot;\r\n    }\r\n\r\n    function setSideChainOperator(address _address) public onlyAdministrator {\r\n        sideChainOperator = _address;\r\n        emit NewSideChainOperator(_address);\r\n    }\r\n\r\n    function getSideChainOperator() public view returns (address _address) {\r\n        return sideChainOperator;\r\n    }\r\n\r\n    function getSideChainMerkleRootWrittenAtTime() public view returns(uint256 _sideChainMerkleRoot) {\r\n        return sideChainMerkleRootWrittenAtTime;\r\n    }\r\n\r\n    // ----------------------------------------------------------------------------\r\n    // Setter/Getter functions for portfolio\r\n    // ----------------------------------------------------------------------------\r\n\r\n    function setPosition(\r\n        address _address,\r\n        bytes32 _marketId,\r\n        uint256 _timeStamp,\r\n        uint256 _longShares,\r\n        uint256 _shortShares,\r\n        uint256 _meanEntryPrice,\r\n        uint256 _meanEntrySpread,\r\n        uint256 _meanEntryLeverage,\r\n        uint256 _liquidationPrice\r\n    ) public onlyPlatform {\r\n        portfolio[_address][_marketId].lastUpdated = _timeStamp;\r\n        portfolio[_address][_marketId].longShares = _longShares;\r\n        portfolio[_address][_marketId].shortShares = _shortShares;\r\n        portfolio[_address][_marketId].meanEntryPrice = _meanEntryPrice;\r\n        portfolio[_address][_marketId].meanEntrySpread = _meanEntrySpread;\r\n        portfolio[_address][_marketId].meanEntryLeverage = _meanEntryLeverage;\r\n        portfolio[_address][_marketId].liquidationPrice = _liquidationPrice;\r\n        portfolio[_address][_marketId].positionHash = getPositionHash(\r\n            _address,\r\n            _marketId,\r\n            _timeStamp,\r\n            _longShares,\r\n            _shortShares,\r\n            _meanEntryPrice,\r\n            _meanEntrySpread,\r\n            _meanEntryLeverage,\r\n            _liquidationPrice\r\n        );\r\n        if (_longShares > 0 || _shortShares > 0) {\r\n            addExposureByMarket(_marketId, _address);\r\n        } else {\r\n            deleteExposureByMarket(_marketId, _address);\r\n        }\r\n        emit SetPosition(\r\n            portfolio[_address][_marketId].positionHash,\r\n            _address,\r\n            _marketId,\r\n            _timeStamp,\r\n            _longShares,\r\n            _shortShares,\r\n            _meanEntryPrice,\r\n            _meanEntrySpread,\r\n            _meanEntryLeverage,\r\n            _liquidationPrice\r\n        );\r\n    }\r\n\r\n    function getPosition(\r\n        address _address,\r\n        bytes32 _marketId\r\n    ) public view returns (\r\n        uint256 _longShares,\r\n        uint256 _shortShares,\r\n        uint256 _meanEntryPrice,\r\n        uint256 _meanEntrySpread,\r\n        uint256 _meanEntryLeverage,\r\n        uint256 _liquidationPrice\r\n    ) {\r\n        return(\r\n        portfolio[_address][_marketId].longShares,\r\n        portfolio[_address][_marketId].shortShares,\r\n        portfolio[_address][_marketId].meanEntryPrice,\r\n        portfolio[_address][_marketId].meanEntrySpread,\r\n        portfolio[_address][_marketId].meanEntryLeverage,\r\n        portfolio[_address][_marketId].liquidationPrice\r\n        );\r\n    }\r\n\r\n    function getPositionHash(\r\n        address _address,\r\n        bytes32 _marketId,\r\n        uint256 _timeStamp,\r\n        uint256 _longShares,\r\n        uint256 _shortShares,\r\n        uint256 _meanEntryPrice,\r\n        uint256 _meanEntrySpread,\r\n        uint256 _meanEntryLeverage,\r\n        uint256 _liquidationPrice\r\n    ) public pure returns (bytes32 _hash) {\r\n        return keccak256(\r\n            abi.encodePacked(\r\n                _address,\r\n                _marketId,\r\n                _timeStamp,\r\n                _longShares,\r\n                _shortShares,\r\n                _meanEntryPrice,\r\n                _meanEntrySpread,\r\n                _meanEntryLeverage,\r\n                _liquidationPrice\r\n            )\r\n        );\r\n    }\r\n\r\n    function getBalanceHash(address _address, uint256 _balance) public pure returns (bytes32 _hash) {\r\n        return keccak256(abi.encodePacked(_address, _balance));\r\n    }\r\n\r\n    function getLastUpdated(address _address, bytes32 _marketId) public view returns (uint256 _lastUpdated) {\r\n        return(portfolio[_address][_marketId].lastUpdated);\r\n    }\r\n\r\n    function getLongShares(address _address, bytes32 _marketId) public view returns (uint256 _longShares) {\r\n        return(portfolio[_address][_marketId].longShares);\r\n    }\r\n\r\n    function getShortShares(address _address, bytes32 _marketId) public view returns (uint256 _shortShares) {\r\n        return(portfolio[_address][_marketId].shortShares);\r\n    }\r\n\r\n    function getMeanEntryPrice(address _address, bytes32 _marketId) public view returns (uint256 _meanEntryPrice) {\r\n        return(portfolio[_address][_marketId].meanEntryPrice);\r\n    }\r\n\r\n    function getMeanEntrySpread(address _address, bytes32 _marketId) public view returns (uint256 _meanEntrySpread) {\r\n        return(portfolio[_address][_marketId].meanEntrySpread);\r\n    }\r\n\r\n    function getMeanEntryLeverage(address _address, bytes32 _marketId) public view returns (uint256 _meanEntryLeverage) {\r\n        return(portfolio[_address][_marketId].meanEntryLeverage);\r\n    }\r\n\r\n    function getLiquidationPrice(address _address, bytes32 _marketId) public view returns (uint256 _liquidationPrice) {\r\n        return(portfolio[_address][_marketId].liquidationPrice);\r\n    }\r\n\r\n    // ----------------------------------------------------------------------------\r\n    // Record positions by market by address. Needed for exposure aggregations\r\n    // and spits and dividends.\r\n    // ----------------------------------------------------------------------------\r\n    function addExposureByMarket(bytes32 _symbol, address _address) private {\r\n        // Address must not be already recored\r\n        uint256 _myExposureIndex = getExposureMappingIndex(_symbol, _address);\r\n        if (_myExposureIndex == 0) {\r\n            uint256 _maxMappingIndex = getMaxMappingIndex(_symbol) + (1);\r\n            setMaxMappingIndex(_symbol, _maxMappingIndex);\r\n            setExposureMapping(_symbol, _address, _maxMappingIndex);\r\n        }\r\n    }\r\n\r\n    function deleteExposureByMarket(bytes32 _symbol, address _address) private {\r\n        // Get my index in mapping\r\n        uint256 _myExposureIndex = getExposureMappingIndex(_symbol, _address);\r\n        // Get last element of mapping\r\n        uint256 _lastIndex = getMaxMappingIndex(_symbol);\r\n        address _lastAddress = getExposureMappingAddress(_symbol, _lastIndex);\r\n        // If _myExposureIndex is greater than 0 (i.e. there is an exposure of that address on that market) delete it\r\n        if (_myExposureIndex > 0) {\r\n            // If _myExposureIndex is less than _lastIndex overwrite element at _myExposureIndex with element at _lastIndex in\r\n            // deleted elements position.\r\n            if (_myExposureIndex < _lastIndex) {\r\n                setExposureMappingAddress(_symbol, _lastAddress, _myExposureIndex);\r\n                setExposureMappingIndex(_symbol, _lastAddress, _myExposureIndex);\r\n            }\r\n            // Delete _lastIndex and _lastAddress element and reduce maxExposureIndex\r\n            setExposureMappingAddress(_symbol, address(0), _lastIndex);\r\n            setExposureMappingIndex(_symbol, _address, 0);\r\n            // Shouldn't happen, but check that not empty\r\n            if (_lastIndex > 0) {\r\n                setMaxMappingIndex(_symbol, _lastIndex - (1));\r\n            }\r\n        }\r\n    }\r\n\r\n    // ----------------------------------------------------------------------------\r\n    // Calculate and send operating reward\r\n    // Every 24 hours the protocol mints rewardBasisPoints/(PRECISION) percent of the total\r\n    // supply as reward for the protocol operator. The amount can not exceed 0.015% per\r\n    // day.\r\n    // ----------------------------------------------------------------------------\r\n\r\n    function payOperatingReward() public onlyMainChain {\r\n        if (block.timestamp > lastRewardTime + (REWARDPERIOD)) {\r\n            uint256 _reward = totalSupply * (rewardBasisPoints) / (PRECISION);\r\n            setLastRewardTime(lastRewardTime + (REWARDPERIOD));\r\n            MorpherToken(getTokenContractAddress()).mint(morpherRewards, _reward);\r\n            emit OperatingRewardMinted(morpherRewards, _reward);\r\n        }\r\n    }\r\n}\r\n",
  "sourcePath": "/home/thomas/MorpherProtocol/contracts/MorpherState.sol",
  "compiler": {
    "name": "solc",
    "version": "0.8.11+commit.d7f03943.Emscripten.clang"
  },
  "schemaVersion": "3.4.5",
  "updatedAt": "2022-03-09T13:35:56.447Z",
  "networkType": "ethereum",
  "devdoc": {
    "kind": "dev",
    "methods": {
      "owner()": {
        "details": "Returns the address of the current owner."
      },
      "renounceOwnership()": {
        "details": "Leaves the contract without owner. It will not be possible to call `onlyOwner` functions anymore. Can only be called by the current owner. NOTE: Renouncing ownership will leave the contract without an owner, thereby removing any functionality that is only available to the owner."
      },
      "transferOwnership(address)": {
        "details": "Transfers ownership of the contract to a new account (`newOwner`). Can only be called by the current owner."
      }
    },
    "version": 1
  },
  "userdoc": {
    "kind": "user",
    "methods": {},
    "version": 1
  }
}