{
  "contractName": "MorpherToken",
  "abi": [
    {
      "anonymous": false,
      "inputs": [
        {
          "indexed": true,
          "internalType": "address",
          "name": "owner",
          "type": "address"
        },
        {
          "indexed": true,
          "internalType": "address",
          "name": "spender",
          "type": "address"
        },
        {
          "indexed": false,
          "internalType": "uint256",
          "name": "value",
          "type": "uint256"
        }
      ],
      "name": "Approval",
      "type": "event"
    },
    {
      "anonymous": false,
      "inputs": [
        {
          "indexed": false,
          "internalType": "uint8",
          "name": "version",
          "type": "uint8"
        }
      ],
      "name": "Initialized",
      "type": "event"
    },
    {
      "anonymous": false,
      "inputs": [
        {
          "indexed": false,
          "internalType": "address",
          "name": "account",
          "type": "address"
        }
      ],
      "name": "Paused",
      "type": "event"
    },
    {
      "anonymous": false,
      "inputs": [
        {
          "indexed": false,
          "internalType": "bool",
          "name": "_oldValue",
          "type": "bool"
        },
        {
          "indexed": false,
          "internalType": "bool",
          "name": "_newValue",
          "type": "bool"
        }
      ],
      "name": "SetRestrictTransfers",
      "type": "event"
    },
    {
      "anonymous": false,
      "inputs": [
        {
          "indexed": false,
          "internalType": "uint256",
          "name": "_oldValue",
          "type": "uint256"
        },
        {
          "indexed": false,
          "internalType": "uint256",
          "name": "_newValue",
          "type": "uint256"
        }
      ],
      "name": "SetTotalTokensInPositions",
      "type": "event"
    },
    {
      "anonymous": false,
      "inputs": [
        {
          "indexed": false,
          "internalType": "uint256",
          "name": "_oldValue",
          "type": "uint256"
        },
        {
          "indexed": false,
          "internalType": "uint256",
          "name": "_newValue",
          "type": "uint256"
        }
      ],
      "name": "SetTotalTokensOnOtherChain",
      "type": "event"
    },
    {
      "anonymous": false,
      "inputs": [
        {
          "indexed": true,
          "internalType": "address",
          "name": "from",
          "type": "address"
        },
        {
          "indexed": true,
          "internalType": "address",
          "name": "to",
          "type": "address"
        },
        {
          "indexed": false,
          "internalType": "uint256",
          "name": "value",
          "type": "uint256"
        }
      ],
      "name": "Transfer",
      "type": "event"
    },
    {
      "anonymous": false,
      "inputs": [
        {
          "indexed": false,
          "internalType": "address",
          "name": "account",
          "type": "address"
        }
      ],
      "name": "Unpaused",
      "type": "event"
    },
    {
      "inputs": [],
      "name": "ADMINISTRATOR_ROLE",
      "outputs": [
        {
          "internalType": "bytes32",
          "name": "",
          "type": "bytes32"
        }
      ],
      "stateMutability": "view",
      "type": "function",
      "constant": true
    },
    {
      "inputs": [],
      "name": "BURNER_ROLE",
      "outputs": [
        {
          "internalType": "bytes32",
          "name": "",
          "type": "bytes32"
        }
      ],
      "stateMutability": "view",
      "type": "function",
      "constant": true
    },
    {
      "inputs": [],
      "name": "MINTER_ROLE",
      "outputs": [
        {
          "internalType": "bytes32",
          "name": "",
          "type": "bytes32"
        }
      ],
      "stateMutability": "view",
      "type": "function",
      "constant": true
    },
    {
      "inputs": [],
      "name": "PAUSER_ROLE",
      "outputs": [
        {
          "internalType": "bytes32",
          "name": "",
          "type": "bytes32"
        }
      ],
      "stateMutability": "view",
      "type": "function",
      "constant": true
    },
    {
      "inputs": [],
      "name": "POLYGONMINTER_ROLE",
      "outputs": [
        {
          "internalType": "bytes32",
          "name": "",
          "type": "bytes32"
        }
      ],
      "stateMutability": "view",
      "type": "function",
      "constant": true
    },
    {
      "inputs": [],
      "name": "TOKENUPDATER_ROLE",
      "outputs": [
        {
          "internalType": "bytes32",
          "name": "",
          "type": "bytes32"
        }
      ],
      "stateMutability": "view",
      "type": "function",
      "constant": true
    },
    {
      "inputs": [],
      "name": "TRANSFERBLOCKED_ROLE",
      "outputs": [
        {
          "internalType": "bytes32",
          "name": "",
          "type": "bytes32"
        }
      ],
      "stateMutability": "view",
      "type": "function",
      "constant": true
    },
    {
      "inputs": [],
      "name": "TRANSFER_ROLE",
      "outputs": [
        {
          "internalType": "bytes32",
          "name": "",
          "type": "bytes32"
        }
      ],
      "stateMutability": "view",
      "type": "function",
      "constant": true
    },
    {
      "inputs": [
        {
          "internalType": "address",
          "name": "owner",
          "type": "address"
        },
        {
          "internalType": "address",
          "name": "spender",
          "type": "address"
        }
      ],
      "name": "allowance",
      "outputs": [
        {
          "internalType": "uint256",
          "name": "",
          "type": "uint256"
        }
      ],
      "stateMutability": "view",
      "type": "function",
      "constant": true
    },
    {
      "inputs": [
        {
          "internalType": "address",
          "name": "spender",
          "type": "address"
        },
        {
          "internalType": "uint256",
          "name": "amount",
          "type": "uint256"
        }
      ],
      "name": "approve",
      "outputs": [
        {
          "internalType": "bool",
          "name": "",
          "type": "bool"
        }
      ],
      "stateMutability": "nonpayable",
      "type": "function"
    },
    {
      "inputs": [
        {
          "internalType": "address",
          "name": "account",
          "type": "address"
        }
      ],
      "name": "balanceOf",
      "outputs": [
        {
          "internalType": "uint256",
          "name": "",
          "type": "uint256"
        }
      ],
      "stateMutability": "view",
      "type": "function",
      "constant": true
    },
    {
      "inputs": [],
      "name": "decimals",
      "outputs": [
        {
          "internalType": "uint8",
          "name": "",
          "type": "uint8"
        }
      ],
      "stateMutability": "view",
      "type": "function",
      "constant": true
    },
    {
      "inputs": [
        {
          "internalType": "address",
          "name": "spender",
          "type": "address"
        },
        {
          "internalType": "uint256",
          "name": "subtractedValue",
          "type": "uint256"
        }
      ],
      "name": "decreaseAllowance",
      "outputs": [
        {
          "internalType": "bool",
          "name": "",
          "type": "bool"
        }
      ],
      "stateMutability": "nonpayable",
      "type": "function"
    },
    {
      "inputs": [
        {
          "internalType": "address",
          "name": "spender",
          "type": "address"
        },
        {
          "internalType": "uint256",
          "name": "addedValue",
          "type": "uint256"
        }
      ],
      "name": "increaseAllowance",
      "outputs": [
        {
          "internalType": "bool",
          "name": "",
          "type": "bool"
        }
      ],
      "stateMutability": "nonpayable",
      "type": "function"
    },
    {
      "inputs": [],
      "name": "morpherAccessControl",
      "outputs": [
        {
          "internalType": "contract MorpherAccessControl",
          "name": "",
          "type": "address"
        }
      ],
      "stateMutability": "view",
      "type": "function",
      "constant": true
    },
    {
      "inputs": [],
      "name": "name",
      "outputs": [
        {
          "internalType": "string",
          "name": "",
          "type": "string"
        }
      ],
      "stateMutability": "view",
      "type": "function",
      "constant": true
    },
    {
      "inputs": [],
      "name": "paused",
      "outputs": [
        {
          "internalType": "bool",
          "name": "",
          "type": "bool"
        }
      ],
      "stateMutability": "view",
      "type": "function",
      "constant": true
    },
    {
      "inputs": [],
      "name": "symbol",
      "outputs": [
        {
          "internalType": "string",
          "name": "",
          "type": "string"
        }
      ],
      "stateMutability": "view",
      "type": "function",
      "constant": true
    },
    {
      "inputs": [
        {
          "internalType": "address",
          "name": "to",
          "type": "address"
        },
        {
          "internalType": "uint256",
          "name": "amount",
          "type": "uint256"
        }
      ],
      "name": "transfer",
      "outputs": [
        {
          "internalType": "bool",
          "name": "",
          "type": "bool"
        }
      ],
      "stateMutability": "nonpayable",
      "type": "function"
    },
    {
      "inputs": [
        {
          "internalType": "address",
          "name": "from",
          "type": "address"
        },
        {
          "internalType": "address",
          "name": "to",
          "type": "address"
        },
        {
          "internalType": "uint256",
          "name": "amount",
          "type": "uint256"
        }
      ],
      "name": "transferFrom",
      "outputs": [
        {
          "internalType": "bool",
          "name": "",
          "type": "bool"
        }
      ],
      "stateMutability": "nonpayable",
      "type": "function"
    },
    {
      "inputs": [
        {
          "internalType": "address",
          "name": "_morpherAccessControl",
          "type": "address"
        }
      ],
      "name": "initialize",
      "outputs": [],
      "stateMutability": "nonpayable",
      "type": "function"
    },
    {
      "inputs": [
        {
          "internalType": "string",
          "name": "_name",
          "type": "string"
        }
      ],
      "name": "setHashedName",
      "outputs": [],
      "stateMutability": "nonpayable",
      "type": "function"
    },
    {
      "inputs": [
        {
          "internalType": "string",
          "name": "_version",
          "type": "string"
        }
      ],
      "name": "setHashedVersion",
      "outputs": [],
      "stateMutability": "nonpayable",
      "type": "function"
    },
    {
      "inputs": [
        {
          "internalType": "bool",
          "name": "restrictTransfers",
          "type": "bool"
        }
      ],
      "name": "setRestrictTransfers",
      "outputs": [],
      "stateMutability": "nonpayable",
      "type": "function"
    },
    {
      "inputs": [],
      "name": "getRestrictTransfers",
      "outputs": [
        {
          "internalType": "bool",
          "name": "",
          "type": "bool"
        }
      ],
      "stateMutability": "view",
      "type": "function",
      "constant": true
    },
    {
      "inputs": [
        {
          "internalType": "uint256",
          "name": "totalOnOtherChain",
          "type": "uint256"
        }
      ],
      "name": "setTotalTokensOnOtherChain",
      "outputs": [],
      "stateMutability": "nonpayable",
      "type": "function"
    },
    {
      "inputs": [],
      "name": "getTotalTokensOnOtherChain",
      "outputs": [
        {
          "internalType": "uint256",
          "name": "",
          "type": "uint256"
        }
      ],
      "stateMutability": "view",
      "type": "function",
      "constant": true
    },
    {
      "inputs": [
        {
          "internalType": "uint256",
          "name": "totalTokensInPositions",
          "type": "uint256"
        }
      ],
      "name": "setTotalInPositions",
      "outputs": [],
      "stateMutability": "nonpayable",
      "type": "function"
    },
    {
      "inputs": [],
      "name": "getTotalTokensInPositions",
      "outputs": [
        {
          "internalType": "uint256",
          "name": "",
          "type": "uint256"
        }
      ],
      "stateMutability": "view",
      "type": "function",
      "constant": true
    },
    {
      "inputs": [],
      "name": "totalSupply",
      "outputs": [
        {
          "internalType": "uint256",
          "name": "",
          "type": "uint256"
        }
      ],
      "stateMutability": "view",
      "type": "function",
      "constant": true
    },
    {
      "inputs": [
        {
          "internalType": "address",
          "name": "user",
          "type": "address"
        },
        {
          "internalType": "bytes",
          "name": "depositData",
          "type": "bytes"
        }
      ],
      "name": "deposit",
      "outputs": [],
      "stateMutability": "nonpayable",
      "type": "function"
    },
    {
      "inputs": [
        {
          "internalType": "uint256",
          "name": "amount",
          "type": "uint256"
        }
      ],
      "name": "withdraw",
      "outputs": [],
      "stateMutability": "nonpayable",
      "type": "function"
    },
    {
      "inputs": [
        {
          "internalType": "address",
          "name": "to",
          "type": "address"
        },
        {
          "internalType": "uint256",
          "name": "amount",
          "type": "uint256"
        }
      ],
      "name": "mint",
      "outputs": [],
      "stateMutability": "nonpayable",
      "type": "function"
    },
    {
      "inputs": [
        {
          "internalType": "address",
          "name": "from",
          "type": "address"
        },
        {
          "internalType": "uint256",
          "name": "amount",
          "type": "uint256"
        }
      ],
      "name": "burn",
      "outputs": [],
      "stateMutability": "nonpayable",
      "type": "function"
    },
    {
      "inputs": [],
      "name": "pause",
      "outputs": [],
      "stateMutability": "nonpayable",
      "type": "function"
    },
    {
      "inputs": [],
      "name": "unpause",
      "outputs": [],
      "stateMutability": "nonpayable",
      "type": "function"
    },
    {
      "inputs": [
        {
          "internalType": "address",
          "name": "owner",
          "type": "address"
        },
        {
          "internalType": "address",
          "name": "spender",
          "type": "address"
        },
        {
          "internalType": "uint256",
          "name": "value",
          "type": "uint256"
        },
        {
          "internalType": "uint256",
          "name": "deadline",
          "type": "uint256"
        },
        {
          "internalType": "uint8",
          "name": "v",
          "type": "uint8"
        },
        {
          "internalType": "bytes32",
          "name": "r",
          "type": "bytes32"
        },
        {
          "internalType": "bytes32",
          "name": "s",
          "type": "bytes32"
        }
      ],
      "name": "permit",
      "outputs": [],
      "stateMutability": "nonpayable",
      "type": "function"
    },
    {
      "inputs": [
        {
          "internalType": "address",
          "name": "owner",
          "type": "address"
        }
      ],
      "name": "nonces",
      "outputs": [
        {
          "internalType": "uint256",
          "name": "",
          "type": "uint256"
        }
      ],
      "stateMutability": "view",
      "type": "function",
      "constant": true
    },
    {
      "inputs": [],
      "name": "DOMAIN_SEPARATOR",
      "outputs": [
        {
          "internalType": "bytes32",
          "name": "",
          "type": "bytes32"
        }
      ],
      "stateMutability": "view",
      "type": "function",
      "constant": true
    }
  ],
  "bytecode": "0x608060405234801561000f575f80fd5b506129f78061001d5f395ff3fe608060405234801561000f575f80fd5b5060043610610234575f3560e01c80638456cb5911610135578063c4d66de8116100b4578063d539139311610079578063d539139314610515578063dd62ed3e1461053c578063e5160f801461054f578063e63ab1e914610562578063f45edb5f14610589575f80fd5b8063c4d66de8146104a2578063c4f33a5e146104b5578063cae6a37d146104dc578063cf2c52cb146104ef578063d505accf14610502575f80fd5b806397226ece116100fa57806397226ece1461044e5780639895724b146104565780639dc29fac14610469578063a457c2d71461047c578063a9059cbb1461048f575f80fd5b80638456cb59146103f857806385f993c6146104005780638ac203a71461040857806395a5d2921461041b57806395d89b4114610446575f80fd5b80633644e515116101c15780635c975abb116101865780635c975abb146103785780636816a3b11461038357806370a08231146103965780637599a393146103be5780637ecebe00146103e5575f80fd5b80633644e51514610337578063395093511461033f5780633ba2e566146103525780633f4ba83a1461035d57806340c10f1914610365575f80fd5b8063206b60f911610207578063206b60f9146102b257806323b872dd146102d9578063282c51f3146102ec5780632e1a7d4d14610313578063313ce56714610328575f80fd5b80630529fec21461023857806306fdde0314610272578063095ea7b31461028757806318160ddd146102aa575b5f80fd5b61025f7f976f69c4d3b65478fca9223fe0ed1b2522bde010f2060b8733f0ed5e916f496481565b6040519081526020015b60405180910390f35b61027a61059d565b6040516102699190612435565b61029a610295366004612496565b61062d565b6040519015158152602001610269565b61025f610646565b61025f7f8502233096d909befbda0999bb8ea2f3a6be3c138b9fbf003752a4c8bce86f6c81565b61029a6102e73660046124be565b61066f565b61025f7f3c11d16cbaffd01df69ce1c404f6340ee057498f5f00246190ea54220576a84881565b6103266103213660046124f7565b610692565b005b60405160128152602001610269565b61025f610766565b61029a61034d366004612496565b61076f565b60cc5460ff1661029a565b610326610790565b610326610373366004612496565b61089c565b60655460ff1661029a565b610326610391366004612522565b6109a5565b61025f6103a43660046125cd565b6001600160a01b03165f9081526033602052604090205490565b61025f7f8f9b87baaf0dcf6097cd12d17d5a30d81dfb97be0fd6e19c2ba4376afd55a3a981565b61025f6103f33660046125cd565b610a5d565b610326610a7a565b60cb5461025f565b6103266104163660046124f7565b610b82565b60c95461042e906001600160a01b031681565b6040516001600160a01b039091168152602001610269565b61027a610c81565b60ca5461025f565b610326610464366004612522565b610c90565b610326610477366004612496565b610d48565b61029a61048a366004612496565b610e51565b61029a61049d366004612496565b610ecb565b6103266104b03660046125cd565b610ed8565b61025f7f22060b5f5e80cc25f73a2ae7f4b9389213d436da9a0db76b0bf57fa95eddf87d81565b6103266104ea3660046125fa565b611020565b6103266104fd366004612615565b611121565b610326610510366004612691565b6111fe565b61025f7f9f2df0fed2c77648de5860a4cc508cd0818c85b8b8a1ab4ceeef8d981c8956a681565b61025f61054a3660046126fe565b61135f565b61032661055d3660046124f7565b611389565b61025f7f65d7a28e3265b37a6474929f336521b332c1681b933f6cb9f3376673440d862a81565b61025f5f805160206129a283398151915281565b6060603680546105ac9061272f565b80601f01602080910402602001604051908101604052809291908181526020018280546105d89061272f565b80156106235780601f106105fa57610100808354040283529160200191610623565b820191905f5260205f20905b81548152906001019060200180831161060657829003601f168201915b5050505050905090565b5f3361063a818585611488565b60019150505b92915050565b5f60cb5460ca5461065660355490565b6106609190612775565b61066a9190612775565b905090565b5f3361067c8582856115ac565b610687858585611624565b506001949350505050565b60c9547f22060b5f5e80cc25f73a2ae7f4b9389213d436da9a0db76b0bf57fa95eddf87d906001600160a01b03166391d1485482336040516001600160e01b031960e085901b16815260048101929092526001600160a01b03166024820152604401602060405180830381865afa15801561070f573d5f803e3d5ffd5b505050506040513d601f19601f820116820180604052508101906107339190612788565b6107585760405162461bcd60e51b815260040161074f906127a3565b60405180910390fd5b61076233836117fb565b5050565b5f61066a61194e565b5f3361063a818585610781838361135f565b61078b9190612775565b611488565b60c9546001600160a01b03166391d148547f65d7a28e3265b37a6474929f336521b332c1681b933f6cb9f3376673440d862a336040516001600160e01b031960e085901b16815260048101929092526001600160a01b03166024820152604401602060405180830381865afa15801561080b573d5f803e3d5ffd5b505050506040513d601f19601f8201168201806040525081019061082f9190612788565b6108925760405162461bcd60e51b815260206004820152602e60248201527f4d6f7270686572546f6b656e3a206d757374206861766520706175736572207260448201526d6f6c6520746f20756e706175736560901b606482015260840161074f565b61089a6119c7565b565b60c9546001600160a01b03166391d148547f9f2df0fed2c77648de5860a4cc508cd0818c85b8b8a1ab4ceeef8d981c8956a6336040516001600160e01b031960e085901b16815260048101929092526001600160a01b03166024820152604401602060405180830381865afa158015610917573d5f803e3d5ffd5b505050506040513d601f19601f8201168201806040525081019061093b9190612788565b61099b5760405162461bcd60e51b815260206004820152602b60248201527f4d6f7270686572546f6b656e3a206d7573742068617665206d696e746572207260448201526a1bdb19481d1bc81b5a5b9d60aa1b606482015260840161074f565b6107628282611a5a565b60c9545f805160206129a2833981519152906001600160a01b03166391d1485482336040516001600160e01b031960e085901b16815260048101929092526001600160a01b03166024820152604401602060405180830381865afa158015610a0f573d5f803e3d5ffd5b505050506040513d601f19601f82011682018060405250810190610a339190612788565b610a4f5760405162461bcd60e51b815260040161074f906127a3565b50805160209091012060ce55565b6001600160a01b0381165f90815260cf6020526040812054610640565b60c9546001600160a01b03166391d148547f65d7a28e3265b37a6474929f336521b332c1681b933f6cb9f3376673440d862a336040516001600160e01b031960e085901b16815260048101929092526001600160a01b03166024820152604401602060405180830381865afa158015610af5573d5f803e3d5ffd5b505050506040513d601f19601f82011682018060405250810190610b199190612788565b610b7a5760405162461bcd60e51b815260206004820152602c60248201527f4d6f7270686572546f6b656e3a206d757374206861766520706175736572207260448201526b6f6c6520746f20706175736560a01b606482015260840161074f565b61089a611b41565b60c9547f8f9b87baaf0dcf6097cd12d17d5a30d81dfb97be0fd6e19c2ba4376afd55a3a9906001600160a01b03166391d1485482336040516001600160e01b031960e085901b16815260048101929092526001600160a01b03166024820152604401602060405180830381865afa158015610bff573d5f803e3d5ffd5b505050506040513d601f19601f82011682018060405250810190610c239190612788565b610c3f5760405162461bcd60e51b815260040161074f906127a3565b60cb5460408051918252602082018490527f403593c572c4e2016cd93550e0260e82ab507a5ce5c9604f7c1fe84192f7649d910160405180910390a15060ca55565b6060603780546105ac9061272f565b60c9545f805160206129a2833981519152906001600160a01b03166391d1485482336040516001600160e01b031960e085901b16815260048101929092526001600160a01b03166024820152604401602060405180830381865afa158015610cfa573d5f803e3d5ffd5b505050506040513d601f19601f82011682018060405250810190610d1e9190612788565b610d3a5760405162461bcd60e51b815260040161074f906127a3565b50805160209091012060cd55565b60c9546001600160a01b03166391d148547f3c11d16cbaffd01df69ce1c404f6340ee057498f5f00246190ea54220576a848336040516001600160e01b031960e085901b16815260048101929092526001600160a01b03166024820152604401602060405180830381865afa158015610dc3573d5f803e3d5ffd5b505050506040513d601f19601f82011682018060405250810190610de79190612788565b610e475760405162461bcd60e51b815260206004820152602b60248201527f4d6f7270686572546f6b656e3a206d7573742068617665206275726e6572207260448201526a37b632903a3790313ab93760a91b606482015260840161074f565b61076282826117fb565b5f3381610e5e828661135f565b905083811015610ebe5760405162461bcd60e51b815260206004820152602560248201527f45524332303a2064656372656173656420616c6c6f77616e63652062656c6f77604482015264207a65726f60d81b606482015260840161074f565b6106878286868403611488565b5f3361063a818585611624565b5f610ee36001611bbc565b90508015610efa575f805461ff0019166101001790555b610f3e6040518060400160405280600781526020016626b7b9383432b960c91b8152506040518060400160405280600381526020016209aa0960eb1b815250611c45565b60c980546001600160a01b0319166001600160a01b038416179055604080518082018252600c81526b26b7b9383432b92a37b5b2b760a11b6020918201527fd16acfd147da095d5ec75818c7421026214d7a249bdcafd234378a499e6ade2060cd55815180830190925260018252603160f81b9101527fc89efdaa54c0f20c7adf612882df0950f5a951637e0307cdcb4c672f298b8bc660ce558015610762575f805461ff0019169055604051600181527f7f26b83ff96e1f2b6a682f133852f6798a09c465da95921460cefb38474024989060200160405180910390a15050565b60c9545f805160206129a2833981519152906001600160a01b03166391d1485482336040516001600160e01b031960e085901b16815260048101929092526001600160a01b03166024820152604401602060405180830381865afa15801561108a573d5f803e3d5ffd5b505050506040513d601f19601f820116820180604052508101906110ae9190612788565b6110ca5760405162461bcd60e51b815260040161074f906127a3565b60cc546040805160ff9092161515825283151560208301527f031b7076ea69cc7c069abb5b40b40971da5a280ca9d1c3bda1e25e69b2e72abb910160405180910390a15060cc805460ff1916911515919091179055565b60c9547f22060b5f5e80cc25f73a2ae7f4b9389213d436da9a0db76b0bf57fa95eddf87d906001600160a01b03166391d1485482336040516001600160e01b031960e085901b16815260048101929092526001600160a01b03166024820152604401602060405180830381865afa15801561119e573d5f803e3d5ffd5b505050506040513d601f19601f820116820180604052508101906111c29190612788565b6111de5760405162461bcd60e51b815260040161074f906127a3565b5f6111eb838501856124f7565b90506111f78582611a5a565b5050505050565b8342111561124e5760405162461bcd60e51b815260206004820152601d60248201527f45524332305065726d69743a206578706972656420646561646c696e65000000604482015260640161074f565b5f7f6e71edae12b1b97f4d1f60370fef10105fa2faae0126114a169c64845d6126c988888861127c8c611c75565b6040805160208101969096526001600160a01b0394851690860152929091166060840152608083015260a082015260c0810186905260e0016040516020818303038152906040528051906020012090505f6112d682611c9c565b90505f6112e582878787611ce8565b9050896001600160a01b0316816001600160a01b0316146113485760405162461bcd60e51b815260206004820152601e60248201527f45524332305065726d69743a20696e76616c6964207369676e61747572650000604482015260640161074f565b6113538a8a8a611488565b50505050505050505050565b6001600160a01b039182165f90815260346020908152604080832093909416825291909152205490565b60c9547f8f9b87baaf0dcf6097cd12d17d5a30d81dfb97be0fd6e19c2ba4376afd55a3a9906001600160a01b03166391d1485482336040516001600160e01b031960e085901b16815260048101929092526001600160a01b03166024820152604401602060405180830381865afa158015611406573d5f803e3d5ffd5b505050506040513d601f19601f8201168201806040525081019061142a9190612788565b6114465760405162461bcd60e51b815260040161074f906127a3565b60cb5460408051918252602082018490527f9be715265056d01e32a5a436e7cf9bd1e204862153232c5ccdd5bbb72f5ea944910160405180910390a15060cb55565b6001600160a01b0383166114ea5760405162461bcd60e51b8152602060048201526024808201527f45524332303a20617070726f76652066726f6d20746865207a65726f206164646044820152637265737360e01b606482015260840161074f565b6001600160a01b03821661154b5760405162461bcd60e51b815260206004820152602260248201527f45524332303a20617070726f766520746f20746865207a65726f206164647265604482015261737360f01b606482015260840161074f565b6001600160a01b038381165f8181526034602090815260408083209487168084529482529182902085905590518481527f8c5be1e5ebec7d5bd14f71427d1e84f3dd0314c0f7b2291e5b200ac8c7c3b92591015b60405180910390a3505050565b5f6115b7848461135f565b90505f19811461161e57818110156116115760405162461bcd60e51b815260206004820152601d60248201527f45524332303a20696e73756666696369656e7420616c6c6f77616e6365000000604482015260640161074f565b61161e8484848403611488565b50505050565b6001600160a01b0383166116885760405162461bcd60e51b815260206004820152602560248201527f45524332303a207472616e736665722066726f6d20746865207a65726f206164604482015264647265737360d81b606482015260840161074f565b6001600160a01b0382166116ea5760405162461bcd60e51b815260206004820152602360248201527f45524332303a207472616e7366657220746f20746865207a65726f206164647260448201526265737360e81b606482015260840161074f565b6116f5838383611d0e565b6001600160a01b0383165f908152603360205260409020548181101561176c5760405162461bcd60e51b815260206004820152602660248201527f45524332303a207472616e7366657220616d6f756e7420657863656564732062604482015265616c616e636560d01b606482015260840161074f565b6001600160a01b038085165f908152603360205260408082208585039055918516815290812080548492906117a2908490612775565b92505081905550826001600160a01b0316846001600160a01b03167fddf252ad1be2c89b69c2b068fc378daa952ba7f163c4a11628f55a4df523b3ef846040516117ee91815260200190565b60405180910390a361161e565b6001600160a01b03821661185b5760405162461bcd60e51b815260206004820152602160248201527f45524332303a206275726e2066726f6d20746865207a65726f206164647265736044820152607360f81b606482015260840161074f565b611866825f83611d0e565b6001600160a01b0382165f90815260336020526040902054818110156118d95760405162461bcd60e51b815260206004820152602260248201527f45524332303a206275726e20616d6f756e7420657863656564732062616c616e604482015261636560f01b606482015260840161074f565b6001600160a01b0383165f9081526033602052604081208383039055603580548492906119079084906127d8565b90915550506040518281525f906001600160a01b038516907fddf252ad1be2c89b69c2b068fc378daa952ba7f163c4a11628f55a4df523b3ef9060200161159f565b505050565b5f61066a7f8b73c3c69bb8fe3d512ecc4cf759cc79239f7b179b0ffacaa9a75d522b39400f61197c60cd5490565b60ce546040805160208101859052908101839052606081018290524660808201523060a08201525f9060c0016040516020818303038152906040528051906020012090509392505050565b60655460ff16611a105760405162461bcd60e51b815260206004820152601460248201527314185d5cd8589b194e881b9bdd081c185d5cd95960621b604482015260640161074f565b6065805460ff191690557f5db9ee0a495bf2e6ff9c91a7834c1ba4fdd244a5e8aa4e537bd38aeae4b073aa335b6040516001600160a01b03909116815260200160405180910390a1565b6001600160a01b038216611ab05760405162461bcd60e51b815260206004820152601f60248201527f45524332303a206d696e7420746f20746865207a65726f206164647265737300604482015260640161074f565b611abb5f8383611d0e565b8060355f828254611acc9190612775565b90915550506001600160a01b0382165f9081526033602052604081208054839290611af8908490612775565b90915550506040518181526001600160a01b038316905f907fddf252ad1be2c89b69c2b068fc378daa952ba7f163c4a11628f55a4df523b3ef9060200160405180910390a35050565b60655460ff1615611b875760405162461bcd60e51b815260206004820152601060248201526f14185d5cd8589b194e881c185d5cd95960821b604482015260640161074f565b6065805460ff191660011790557f62e78cea01bee320cd4e420270b5ea74000d11b0c9f74754ebdbfc544b05a258611a3d3390565b5f8054610100900460ff1615611c01578160ff166001148015611bde5750303b155b611bfa5760405162461bcd60e51b815260040161074f906127eb565b505f919050565b5f5460ff808416911610611c275760405162461bcd60e51b815260040161074f906127eb565b505f805460ff191660ff92909216919091179055600190565b919050565b5f54610100900460ff16611c6b5760405162461bcd60e51b815260040161074f90612839565b61076282826120f3565b6001600160a01b0381165f90815260cf602052604090208054600181018255905b50919050565b5f610640611ca861194e565b8360405161190160f01b602082015260228101839052604281018290525f9060620160405160208183030381529060405280519060200120905092915050565b5f805f611cf787878787612132565b91509150611d0481612217565b5095945050505050565b60cc5460ff161580611dba575060c9546001600160a01b03166391d148547f8502233096d909befbda0999bb8ea2f3a6be3c138b9fbf003752a4c8bce86f6c336040516001600160e01b031960e085901b16815260048101929092526001600160a01b03166024820152604401602060405180830381865afa158015611d96573d5f803e3d5ffd5b505050506040513d601f19601f82011682018060405250810190611dba9190612788565b80611e5f575060c9546001600160a01b03166391d148547f9f2df0fed2c77648de5860a4cc508cd0818c85b8b8a1ab4ceeef8d981c8956a6336040516001600160e01b031960e085901b16815260048101929092526001600160a01b03166024820152604401602060405180830381865afa158015611e3b573d5f803e3d5ffd5b505050506040513d601f19601f82011682018060405250810190611e5f9190612788565b80611f04575060c9546001600160a01b03166391d148547f3c11d16cbaffd01df69ce1c404f6340ee057498f5f00246190ea54220576a848336040516001600160e01b031960e085901b16815260048101929092526001600160a01b03166024820152604401602060405180830381865afa158015611ee0573d5f803e3d5ffd5b505050506040513d601f19601f82011682018060405250810190611f049190612788565b80611f9c575060c954604051632474521560e21b81527f8502233096d909befbda0999bb8ea2f3a6be3c138b9fbf003752a4c8bce86f6c60048201526001600160a01b038581166024830152909116906391d1485490604401602060405180830381865afa158015611f78573d5f803e3d5ffd5b505050506040513d601f19601f82011682018060405250810190611f9c9190612788565b611fe85760405162461bcd60e51b815260206004820152601d60248201527f4d6f7270686572546f6b656e3a205472616e736665722064656e696564000000604482015260640161074f565b60c9546001600160a01b03166391d148547f976f69c4d3b65478fca9223fe0ed1b2522bde010f2060b8733f0ed5e916f4964336040516001600160e01b031960e085901b16815260048101929092526001600160a01b03166024820152604401602060405180830381865afa158015612063573d5f803e3d5ffd5b505050506040513d601f19601f820116820180604052508101906120879190612788565b156120e85760405162461bcd60e51b815260206004820152602b60248201527f4d6f7270686572546f6b656e3a205472616e7366657220666f7220557365722060448201526a34b990313637b1b5b2b21760a91b606482015260840161074f565b6119498383836123cf565b5f54610100900460ff166121195760405162461bcd60e51b815260040161074f90612839565b603661212583826128d1565b50603761194982826128d1565b5f807f7fffffffffffffffffffffffffffffff5d576e7357a4501ddfe92f46681b20a083111561216757505f9050600361220e565b8460ff16601b1415801561217f57508460ff16601c14155b1561218f57505f9050600461220e565b604080515f8082526020820180845289905260ff881692820192909252606081018690526080810185905260019060a0016020604051602081039080840390855afa1580156121e0573d5f803e3d5ffd5b5050604051601f1901519150506001600160a01b038116612208575f6001925092505061220e565b91505f90505b94509492505050565b5f81600481111561222a5761222a61298d565b036122325750565b60018160048111156122465761224661298d565b036122935760405162461bcd60e51b815260206004820152601860248201527f45434453413a20696e76616c6964207369676e61747572650000000000000000604482015260640161074f565b60028160048111156122a7576122a761298d565b036122f45760405162461bcd60e51b815260206004820152601f60248201527f45434453413a20696e76616c6964207369676e6174757265206c656e67746800604482015260640161074f565b60038160048111156123085761230861298d565b036123605760405162461bcd60e51b815260206004820152602260248201527f45434453413a20696e76616c6964207369676e6174757265202773272076616c604482015261756560f01b606482015260840161074f565b60048160048111156123745761237461298d565b036123cc5760405162461bcd60e51b815260206004820152602260248201527f45434453413a20696e76616c6964207369676e6174757265202776272076616c604482015261756560f01b606482015260840161074f565b50565b60655460ff16156119495760405162461bcd60e51b815260206004820152602a60248201527f45524332305061757361626c653a20746f6b656e207472616e736665722077686044820152691a5b19481c185d5cd95960b21b606482015260840161074f565b5f6020808352835180828501525f5b8181101561246057858101830151858201604001528201612444565b505f604082860101526040601f19601f8301168501019250505092915050565b80356001600160a01b0381168114611c40575f80fd5b5f80604083850312156124a7575f80fd5b6124b083612480565b946020939093013593505050565b5f805f606084860312156124d0575f80fd5b6124d984612480565b92506124e760208501612480565b9150604084013590509250925092565b5f60208284031215612507575f80fd5b5035919050565b634e487b7160e01b5f52604160045260245ffd5b5f60208284031215612532575f80fd5b813567ffffffffffffffff80821115612549575f80fd5b818401915084601f83011261255c575f80fd5b81358181111561256e5761256e61250e565b604051601f8201601f19908116603f011681019083821181831017156125965761259661250e565b816040528281528760208487010111156125ae575f80fd5b826020860160208301375f928101602001929092525095945050505050565b5f602082840312156125dd575f80fd5b6125e682612480565b9392505050565b80151581146123cc575f80fd5b5f6020828403121561260a575f80fd5b81356125e6816125ed565b5f805f60408486031215612627575f80fd5b61263084612480565b9250602084013567ffffffffffffffff8082111561264c575f80fd5b818601915086601f83011261265f575f80fd5b81358181111561266d575f80fd5b87602082850101111561267e575f80fd5b6020830194508093505050509250925092565b5f805f805f805f60e0888a0312156126a7575f80fd5b6126b088612480565b96506126be60208901612480565b95506040880135945060608801359350608088013560ff811681146126e1575f80fd5b9699959850939692959460a0840135945060c09093013592915050565b5f806040838503121561270f575f80fd5b61271883612480565b915061272660208401612480565b90509250929050565b600181811c9082168061274357607f821691505b602082108103611c9657634e487b7160e01b5f52602260045260245ffd5b634e487b7160e01b5f52601160045260245ffd5b8082018082111561064057610640612761565b5f60208284031215612798575f80fd5b81516125e6816125ed565b6020808252818101527f4d6f7270686572546f6b656e3a205065726d697373696f6e2064656e6965642e604082015260600190565b8181038181111561064057610640612761565b6020808252602e908201527f496e697469616c697a61626c653a20636f6e747261637420697320616c72656160408201526d191e481a5b9a5d1a585b1a5e995960921b606082015260800190565b6020808252602b908201527f496e697469616c697a61626c653a20636f6e7472616374206973206e6f74206960408201526a6e697469616c697a696e6760a81b606082015260800190565b601f821115611949575f81815260208120601f850160051c810160208610156128aa5750805b601f850160051c820191505b818110156128c9578281556001016128b6565b505050505050565b815167ffffffffffffffff8111156128eb576128eb61250e565b6128ff816128f9845461272f565b84612884565b602080601f831160018114612932575f841561291b5750858301515b5f19600386901b1c1916600185901b1785556128c9565b5f85815260208120601f198616915b8281101561296057888601518255948401946001909101908401612941565b508582101561297d57878501515f19600388901b60f8161c191681555b5050505050600190811b01905550565b634e487b7160e01b5f52602160045260245ffdfee5a0b4d50f56047f84728557fedbda92f956391bc9d5c762e8461996dd8e7ad7a264697066735822122097eb947e84e3e3d122d3525d5eeacb8fcd1566fbce11b0096367854ef92da63d64736f6c63430008140033",
  "immutableReferences": {},
  "source": "//SPDX-License-Identifier: GPLv3\npragma solidity ^0.8.11;\n\nimport \"@openzeppelin/contracts-upgradeable/token/ERC20/ERC20Upgradeable.sol\";\nimport \"@openzeppelin/contracts-upgradeable/token/ERC20/extensions/ERC20PausableUpgradeable.sol\";\nimport \"@openzeppelin/contracts-upgradeable/utils/cryptography/draft-EIP712Upgradeable.sol\";\nimport \"@openzeppelin/contracts-upgradeable/utils/cryptography/ECDSAUpgradeable.sol\";\nimport \"@openzeppelin/contracts-upgradeable/utils/CountersUpgradeable.sol\";\nimport \"./MorpherAccessControl.sol\";\n\ncontract MorpherToken is ERC20Upgradeable, ERC20PausableUpgradeable {\n\tMorpherAccessControl public morpherAccessControl;\n\n\tbytes32 public constant MINTER_ROLE = keccak256(\"MINTER_ROLE\");\n\tbytes32 public constant BURNER_ROLE = keccak256(\"BURNER_ROLE\");\n\tbytes32 public constant PAUSER_ROLE = keccak256(\"PAUSER_ROLE\");\n\tbytes32 public constant ADMINISTRATOR_ROLE = keccak256(\"ADMINISTRATOR_ROLE\");\n\tbytes32 public constant TRANSFER_ROLE = keccak256(\"TRANSFER_ROLE\");\n\tbytes32 public constant TRANSFERBLOCKED_ROLE = keccak256(\"TRANSFERBLOCKED_ROLE\");\n\tbytes32 public constant POLYGONMINTER_ROLE = keccak256(\"POLYGONMINTER_ROLE\");\n\tbytes32 public constant TOKENUPDATER_ROLE = keccak256(\"TOKENUPDATER_ROLE\");\n\n\tuint256 private _totalTokensOnOtherChain;\n\tuint256 private _totalTokensInPositions;\n\tbool private _restrictTransfers;\n\n\t/**\n\t * Permit functionality\n\t * Added after proxy was deployed, so manually adding functionality here\n\t */\n\tbytes32 private _HASHED_NAME; //todo: derive from the token name instad of a hardcoded value\n\tbytes32 private _HASHED_VERSION;\n\tbytes32 private constant _TYPE_HASH =\n\t\tkeccak256(\"EIP712Domain(string name,string version,uint256 chainId,address verifyingContract)\");\n\tusing CountersUpgradeable for CountersUpgradeable.Counter;\n\n\tmapping(address => CountersUpgradeable.Counter) private _nonces;\n\n\t// solhint-disable-next-line var-name-mixedcase\n\tbytes32 private constant _PERMIT_TYPEHASH =\n\t\tkeccak256(\"Permit(address owner,address spender,uint256 value,uint256 nonce,uint256 deadline)\");\n\t\n\tbytes32 private _PERMIT_TYPEHASH_DEPRECATED_SLOT;\n\n\tevent SetTotalTokensOnOtherChain(uint256 _oldValue, uint256 _newValue);\n\tevent SetTotalTokensInPositions(uint256 _oldValue, uint256 _newValue);\n\tevent SetRestrictTransfers(bool _oldValue, bool _newValue);\n\n\tfunction initialize(address _morpherAccessControl) public initializer {\n\t\tERC20Upgradeable.__ERC20_init(\"Morpher\", \"MPH\");\n\t\tmorpherAccessControl = MorpherAccessControl(_morpherAccessControl);\n\t\t_HASHED_NAME = keccak256(bytes(\"MorpherToken\"));\n\t\t_HASHED_VERSION = keccak256(bytes(\"1\"));\n\t}\n\n\tmodifier onlyRole(bytes32 role) {\n\t\trequire(morpherAccessControl.hasRole(role, _msgSender()), \"MorpherToken: Permission denied.\");\n\t\t_;\n\t}\n\n    function setHashedName(string memory _name) public onlyRole(ADMINISTRATOR_ROLE) {\n        _HASHED_NAME = keccak256(bytes(_name));\n    }\n    function setHashedVersion(string memory _version) public onlyRole(ADMINISTRATOR_ROLE) {\n        _HASHED_VERSION = keccak256(bytes(_version));\n    }\n\n\t// function getMorpherAccessControl() public view returns(address) {\n\t//     return address(morpherAccessControl);\n\t// }\n\n\tfunction setRestrictTransfers(bool restrictTransfers) public onlyRole(ADMINISTRATOR_ROLE) {\n\t\temit SetRestrictTransfers(_restrictTransfers, restrictTransfers);\n\t\t_restrictTransfers = restrictTransfers;\n\t}\n\n\tfunction getRestrictTransfers() public view returns (bool) {\n\t\treturn _restrictTransfers;\n\t}\n\n\tfunction setTotalTokensOnOtherChain(uint256 totalOnOtherChain) public onlyRole(TOKENUPDATER_ROLE) {\n\t\temit SetTotalTokensOnOtherChain(_totalTokensInPositions, totalOnOtherChain);\n\t\t_totalTokensOnOtherChain = totalOnOtherChain;\n\t}\n\n\tfunction getTotalTokensOnOtherChain() public view returns (uint256) {\n\t\treturn _totalTokensOnOtherChain;\n\t}\n\n\tfunction setTotalInPositions(uint256 totalTokensInPositions) public onlyRole(TOKENUPDATER_ROLE) {\n\t\temit SetTotalTokensInPositions(_totalTokensInPositions, totalTokensInPositions);\n\t\t_totalTokensInPositions = totalTokensInPositions;\n\t}\n\n\tfunction getTotalTokensInPositions() public view returns (uint256) {\n\t\treturn _totalTokensInPositions;\n\t}\n\n\t/**\n\t * @dev See {IERC20-totalSupply}.\n\t */\n\tfunction totalSupply() public view virtual override returns (uint256) {\n\t\treturn super.totalSupply() + _totalTokensOnOtherChain + _totalTokensInPositions;\n\t}\n\n\tfunction deposit(address user, bytes calldata depositData) external onlyRole(POLYGONMINTER_ROLE) {\n\t\tuint256 amount = abi.decode(depositData, (uint256));\n\t\t_mint(user, amount);\n\t}\n\n\tfunction withdraw(uint256 amount) external onlyRole(POLYGONMINTER_ROLE) {\n\t\t_burn(msg.sender, amount);\n\t}\n\n\t/**\n\t * @dev Creates `amount` new tokens for `to`.\n\t *\n\t * See {ERC20-_mint}.\n\t *\n\t * Requirements:\n\t *\n\t * - the caller must have the `MINTER_ROLE`.\n\t */\n\tfunction mint(address to, uint256 amount) public virtual {\n\t\trequire(morpherAccessControl.hasRole(MINTER_ROLE, _msgSender()), \"MorpherToken: must have minter role to mint\");\n\t\t_mint(to, amount);\n\t}\n\n\t/**\n\t * @dev Burns `amount` of tokens for `from`.\n\t *\n\t * See {ERC20-_burn}.\n\t *\n\t * Requirements:\n\t *\n\t * - the caller must have the `BURNER_ROLE`.\n\t */\n\tfunction burn(address from, uint256 amount) public virtual {\n\t\trequire(morpherAccessControl.hasRole(BURNER_ROLE, _msgSender()), \"MorpherToken: must have burner role to burn\");\n\t\t_burn(from, amount);\n\t}\n\n\t/**\n\t * @dev Pauses all token transfers.\n\t *\n\t * See {ERC20Pausable} and {Pausable-_pause}.\n\t *\n\t * Requirements:\n\t *\n\t * - the caller must have the `PAUSER_ROLE`.\n\t */\n\tfunction pause() public virtual {\n\t\trequire(\n\t\t\tmorpherAccessControl.hasRole(PAUSER_ROLE, _msgSender()),\n\t\t\t\"MorpherToken: must have pauser role to pause\"\n\t\t);\n\t\t_pause();\n\t}\n\n\t/**\n\t * @dev Unpauses all token transfers.\n\t *\n\t * See {ERC20Pausable} and {Pausable-_unpause}.\n\t *\n\t * Requirements:\n\t *\n\t * - the caller must have the `PAUSER_ROLE`.\n\t */\n\tfunction unpause() public virtual {\n\t\trequire(\n\t\t\tmorpherAccessControl.hasRole(PAUSER_ROLE, _msgSender()),\n\t\t\t\"MorpherToken: must have pauser role to unpause\"\n\t\t);\n\t\t_unpause();\n\t}\n\n\tfunction _beforeTokenTransfer(\n\t\taddress from,\n\t\taddress to,\n\t\tuint256 amount\n\t) internal virtual override(ERC20Upgradeable, ERC20PausableUpgradeable) {\n\t\trequire(\n\t\t\t!_restrictTransfers ||\n\t\t\t\tmorpherAccessControl.hasRole(TRANSFER_ROLE, _msgSender()) ||\n\t\t\t\tmorpherAccessControl.hasRole(MINTER_ROLE, _msgSender()) ||\n\t\t\t\tmorpherAccessControl.hasRole(BURNER_ROLE, _msgSender()) ||\n\t\t\t\tmorpherAccessControl.hasRole(TRANSFER_ROLE, from),\n\t\t\t\"MorpherToken: Transfer denied\"\n\t\t);\n\n\t\trequire(\n\t\t\t!morpherAccessControl.hasRole(TRANSFERBLOCKED_ROLE, _msgSender()),\n\t\t\t\"MorpherToken: Transfer for User is blocked.\"\n\t\t);\n\n\t\tsuper._beforeTokenTransfer(from, to, amount);\n\t}\n\n\t/**\n\t * @dev Returns the domain separator for the current chain.\n\t */\n\tfunction _domainSeparatorV4() internal view returns (bytes32) {\n\t\treturn _buildDomainSeparator(_TYPE_HASH, _EIP712NameHash(), _EIP712VersionHash());\n\t}\n\n\tfunction _buildDomainSeparator(\n\t\tbytes32 typeHash,\n\t\tbytes32 nameHash,\n\t\tbytes32 versionHash\n\t) private view returns (bytes32) {\n\t\treturn keccak256(abi.encode(typeHash, nameHash, versionHash, block.chainid, address(this)));\n\t}\n\n\t/**\n\t * @dev Given an already https://eips.ethereum.org/EIPS/eip-712#definition-of-hashstruct[hashed struct], this\n\t * function returns the hash of the fully encoded EIP712 message for this domain.\n\t *\n\t * This hash can be used together with {ECDSA-recover} to obtain the signer of a message. For example:\n\t *\n\t * ```solidity\n\t * bytes32 digest = _hashTypedDataV4(keccak256(abi.encode(\n\t *     keccak256(\"Mail(address to,string contents)\"),\n\t *     mailTo,\n\t *     keccak256(bytes(mailContents))\n\t * )));\n\t * address signer = ECDSA.recover(digest, signature);\n\t * ```\n\t */\n\tfunction _hashTypedDataV4(bytes32 structHash) internal view virtual returns (bytes32) {\n\t\treturn ECDSAUpgradeable.toTypedDataHash(_domainSeparatorV4(), structHash);\n\t}\n\n\t/**\n\t * @dev The hash of the name parameter for the EIP712 domain.\n\t *\n\t * NOTE: This function reads from storage by default, but can be redefined to return a constant value if gas costs\n\t * are a concern.\n\t */\n\tfunction _EIP712NameHash() internal view virtual returns (bytes32) {\n\t\treturn _HASHED_NAME;\n\t}\n\n\t/**\n\t * @dev The hash of the version parameter for the EIP712 domain.\n\t *\n\t * NOTE: This function reads from storage by default, but can be redefined to return a constant value if gas costs\n\t * are a concern.\n\t */\n\tfunction _EIP712VersionHash() internal view virtual returns (bytes32) {\n\t\treturn _HASHED_VERSION;\n\t}\n\n\t/**\n\t * @dev See {IERC20Permit-permit}.\n\t */\n\tfunction permit(\n\t\taddress owner,\n\t\taddress spender,\n\t\tuint256 value,\n\t\tuint256 deadline,\n\t\tuint8 v,\n\t\tbytes32 r,\n\t\tbytes32 s\n\t) public virtual {\n\t\trequire(block.timestamp <= deadline, \"ERC20Permit: expired deadline\");\n\n\t\tbytes32 structHash = keccak256(abi.encode(_PERMIT_TYPEHASH, owner, spender, value, _useNonce(owner), deadline));\n\n\t\tbytes32 hash = _hashTypedDataV4(structHash);\n\n\t\taddress signer = ECDSAUpgradeable.recover(hash, v, r, s);\n\t\trequire(signer == owner, \"ERC20Permit: invalid signature\");\n\n\t\t_approve(owner, spender, value);\n\t}\n\n\t/**\n\t * @dev See {IERC20Permit-nonces}.\n\t */\n\tfunction nonces(address owner) public view virtual returns (uint256) {\n\t\treturn _nonces[owner].current();\n\t}\n\n\t/**\n\t * @dev See {IERC20Permit-DOMAIN_SEPARATOR}.\n\t */\n\t// solhint-disable-next-line func-name-mixedcase\n\tfunction DOMAIN_SEPARATOR() external view returns (bytes32) {\n\t\treturn _domainSeparatorV4();\n\t}\n\n\t/**\n\t * @dev \"Consume a nonce\": return the current value and increment.\n\t *\n\t * _Available since v4.1._\n\t */\n\tfunction _useNonce(address owner) internal virtual returns (uint256 current) {\n\t\tCountersUpgradeable.Counter storage nonce = _nonces[owner];\n\t\tcurrent = nonce.current();\n\t\tnonce.increment();\n\t}\n}\n",
  "sourcePath": "/Users/thomas/Projects/Morpher/MorpherProtocol/contracts/MorpherToken.sol",
  "compiler": {
    "name": "solc",
    "version": "0.8.20+commit.a1b79de6.Emscripten.clang"
  },
  "schemaVersion": "3.4.16",
  "updatedAt": "2024-06-25T08:04:09.767Z",
  "networkType": "ethereum",
  "devdoc": {
    "events": {
      "Approval(address,address,uint256)": {
        "details": "Emitted when the allowance of a `spender` for an `owner` is set by a call to {approve}. `value` is the new allowance."
      },
      "Initialized(uint8)": {
        "details": "Triggered when the contract has been initialized or reinitialized."
      },
      "Paused(address)": {
        "details": "Emitted when the pause is triggered by `account`."
      },
      "Transfer(address,address,uint256)": {
        "details": "Emitted when `value` tokens are moved from one account (`from`) to another (`to`). Note that `value` may be zero."
      },
      "Unpaused(address)": {
        "details": "Emitted when the pause is lifted by `account`."
      }
    },
    "kind": "dev",
    "methods": {
      "DOMAIN_SEPARATOR()": {
        "details": "See {IERC20Permit-DOMAIN_SEPARATOR}."
      },
      "allowance(address,address)": {
        "details": "See {IERC20-allowance}."
      },
      "approve(address,uint256)": {
        "details": "See {IERC20-approve}. NOTE: If `amount` is the maximum `uint256`, the allowance is not updated on `transferFrom`. This is semantically equivalent to an infinite approval. Requirements: - `spender` cannot be the zero address."
      },
      "balanceOf(address)": {
        "details": "See {IERC20-balanceOf}."
      },
      "burn(address,uint256)": {
        "details": "Burns `amount` of tokens for `from`. See {ERC20-_burn}. Requirements: - the caller must have the `BURNER_ROLE`."
      },
      "decimals()": {
        "details": "Returns the number of decimals used to get its user representation. For example, if `decimals` equals `2`, a balance of `505` tokens should be displayed to a user as `5.05` (`505 / 10 ** 2`). Tokens usually opt for a value of 18, imitating the relationship between Ether and Wei. This is the value {ERC20} uses, unless this function is overridden; NOTE: This information is only used for _display_ purposes: it in no way affects any of the arithmetic of the contract, including {IERC20-balanceOf} and {IERC20-transfer}."
      },
      "decreaseAllowance(address,uint256)": {
        "details": "Atomically decreases the allowance granted to `spender` by the caller. This is an alternative to {approve} that can be used as a mitigation for problems described in {IERC20-approve}. Emits an {Approval} event indicating the updated allowance. Requirements: - `spender` cannot be the zero address. - `spender` must have allowance for the caller of at least `subtractedValue`."
      },
      "increaseAllowance(address,uint256)": {
        "details": "Atomically increases the allowance granted to `spender` by the caller. This is an alternative to {approve} that can be used as a mitigation for problems described in {IERC20-approve}. Emits an {Approval} event indicating the updated allowance. Requirements: - `spender` cannot be the zero address."
      },
      "mint(address,uint256)": {
        "details": "Creates `amount` new tokens for `to`. See {ERC20-_mint}. Requirements: - the caller must have the `MINTER_ROLE`."
      },
      "name()": {
        "details": "Returns the name of the token."
      },
      "nonces(address)": {
        "details": "See {IERC20Permit-nonces}."
      },
      "pause()": {
        "details": "Pauses all token transfers. See {ERC20Pausable} and {Pausable-_pause}. Requirements: - the caller must have the `PAUSER_ROLE`."
      },
      "paused()": {
        "details": "Returns true if the contract is paused, and false otherwise."
      },
      "permit(address,address,uint256,uint256,uint8,bytes32,bytes32)": {
        "details": "See {IERC20Permit-permit}."
      },
      "symbol()": {
        "details": "Returns the symbol of the token, usually a shorter version of the name."
      },
      "totalSupply()": {
        "details": "See {IERC20-totalSupply}."
      },
      "transfer(address,uint256)": {
        "details": "See {IERC20-transfer}. Requirements: - `to` cannot be the zero address. - the caller must have a balance of at least `amount`."
      },
      "transferFrom(address,address,uint256)": {
        "details": "See {IERC20-transferFrom}. Emits an {Approval} event indicating the updated allowance. This is not required by the EIP. See the note at the beginning of {ERC20}. NOTE: Does not update the allowance if the current allowance is the maximum `uint256`. Requirements: - `from` and `to` cannot be the zero address. - `from` must have a balance of at least `amount`. - the caller must have allowance for ``from``'s tokens of at least `amount`."
      },
      "unpause()": {
        "details": "Unpauses all token transfers. See {ERC20Pausable} and {Pausable-_unpause}. Requirements: - the caller must have the `PAUSER_ROLE`."
      }
    },
    "version": 1
  },
  "userdoc": {
    "kind": "user",
    "methods": {},
    "version": 1
  }
}