{
  "contractName": "MorpherStaking",
  "abi": [
    {
      "anonymous": false,
      "inputs": [
        {
          "indexed": false,
          "internalType": "uint256",
          "name": "interestRate",
          "type": "uint256"
        },
        {
          "indexed": false,
          "internalType": "uint256",
          "name": "validFromTimestamp",
          "type": "uint256"
        }
      ],
      "name": "InterestRateAdded",
      "type": "event"
    },
    {
      "anonymous": false,
      "inputs": [
        {
          "indexed": false,
          "internalType": "uint256",
          "name": "interstRateIndex",
          "type": "uint256"
        },
        {
          "indexed": false,
          "internalType": "uint256",
          "name": "oldvalue",
          "type": "uint256"
        },
        {
          "indexed": false,
          "internalType": "uint256",
          "name": "newValue",
          "type": "uint256"
        }
      ],
      "name": "InterestRateRateChanged",
      "type": "event"
    },
    {
      "anonymous": false,
      "inputs": [
        {
          "indexed": false,
          "internalType": "uint256",
          "name": "interstRateIndex",
          "type": "uint256"
        },
        {
          "indexed": false,
          "internalType": "uint256",
          "name": "oldvalue",
          "type": "uint256"
        },
        {
          "indexed": false,
          "internalType": "uint256",
          "name": "newValue",
          "type": "uint256"
        }
      ],
      "name": "InterestRateValidFromChanged",
      "type": "event"
    },
    {
      "anonymous": false,
      "inputs": [
        {
          "indexed": false,
          "internalType": "address",
          "name": "stateAddress",
          "type": "address"
        }
      ],
      "name": "LinkState",
      "type": "event"
    },
    {
      "anonymous": false,
      "inputs": [
        {
          "indexed": true,
          "internalType": "address",
          "name": "previousOwner",
          "type": "address"
        },
        {
          "indexed": true,
          "internalType": "address",
          "name": "newOwner",
          "type": "address"
        }
      ],
      "name": "OwnershipTransferred",
      "type": "event"
    },
    {
      "anonymous": false,
      "inputs": [
        {
          "indexed": true,
          "internalType": "uint256",
          "name": "lastReward",
          "type": "uint256"
        },
        {
          "indexed": false,
          "internalType": "uint256",
          "name": "poolShareValue",
          "type": "uint256"
        }
      ],
      "name": "PoolShareValueUpdated",
      "type": "event"
    },
    {
      "anonymous": false,
      "inputs": [
        {
          "indexed": false,
          "internalType": "uint256",
          "name": "newInterestRate",
          "type": "uint256"
        }
      ],
      "name": "SetInterestRate",
      "type": "event"
    },
    {
      "anonymous": false,
      "inputs": [
        {
          "indexed": false,
          "internalType": "uint256",
          "name": "newLockupPeriod",
          "type": "uint256"
        }
      ],
      "name": "SetLockupPeriod",
      "type": "event"
    },
    {
      "anonymous": false,
      "inputs": [
        {
          "indexed": false,
          "internalType": "uint256",
          "name": "newMinimumStake",
          "type": "uint256"
        }
      ],
      "name": "SetMinimumStake",
      "type": "event"
    },
    {
      "anonymous": false,
      "inputs": [
        {
          "indexed": false,
          "internalType": "address",
          "name": "userBlockingAddress",
          "type": "address"
        }
      ],
      "name": "SetMorpherUserBlocking",
      "type": "event"
    },
    {
      "anonymous": false,
      "inputs": [
        {
          "indexed": false,
          "internalType": "address",
          "name": "stakingAdmin",
          "type": "address"
        }
      ],
      "name": "SetStakingAdmin",
      "type": "event"
    },
    {
      "anonymous": false,
      "inputs": [
        {
          "indexed": true,
          "internalType": "address",
          "name": "userAddress",
          "type": "address"
        },
        {
          "indexed": true,
          "internalType": "uint256",
          "name": "amount",
          "type": "uint256"
        },
        {
          "indexed": false,
          "internalType": "uint256",
          "name": "poolShares",
          "type": "uint256"
        },
        {
          "indexed": false,
          "internalType": "uint256",
          "name": "lockedUntil",
          "type": "uint256"
        }
      ],
      "name": "Staked",
      "type": "event"
    },
    {
      "anonymous": false,
      "inputs": [
        {
          "indexed": true,
          "internalType": "uint256",
          "name": "lastReward",
          "type": "uint256"
        },
        {
          "indexed": false,
          "internalType": "uint256",
          "name": "delta",
          "type": "uint256"
        }
      ],
      "name": "StakingRewardsMinted",
      "type": "event"
    },
    {
      "anonymous": false,
      "inputs": [
        {
          "indexed": true,
          "internalType": "address",
          "name": "userAddress",
          "type": "address"
        },
        {
          "indexed": true,
          "internalType": "uint256",
          "name": "amount",
          "type": "uint256"
        },
        {
          "indexed": false,
          "internalType": "uint256",
          "name": "poolShares",
          "type": "uint256"
        }
      ],
      "name": "Unstaked",
      "type": "event"
    },
    {
      "stateMutability": "payable",
      "type": "fallback"
    },
    {
      "inputs": [
        {
          "internalType": "uint256",
          "name": "",
          "type": "uint256"
        }
      ],
      "name": "interestRates",
      "outputs": [
        {
          "internalType": "uint256",
          "name": "validFrom",
          "type": "uint256"
        },
        {
          "internalType": "uint256",
          "name": "rate",
          "type": "uint256"
        }
      ],
      "stateMutability": "view",
      "type": "function"
    },
    {
      "inputs": [],
      "name": "lastReward",
      "outputs": [
        {
          "internalType": "uint256",
          "name": "",
          "type": "uint256"
        }
      ],
      "stateMutability": "view",
      "type": "function"
    },
    {
      "inputs": [],
      "name": "lockupPeriod",
      "outputs": [
        {
          "internalType": "uint256",
          "name": "",
          "type": "uint256"
        }
      ],
      "stateMutability": "view",
      "type": "function"
    },
    {
      "inputs": [],
      "name": "marketIdStakingMPH",
      "outputs": [
        {
          "internalType": "bytes32",
          "name": "",
          "type": "bytes32"
        }
      ],
      "stateMutability": "view",
      "type": "function"
    },
    {
      "inputs": [],
      "name": "minimumStake",
      "outputs": [
        {
          "internalType": "uint256",
          "name": "",
          "type": "uint256"
        }
      ],
      "stateMutability": "view",
      "type": "function"
    },
    {
      "inputs": [],
      "name": "numInterestRates",
      "outputs": [
        {
          "internalType": "uint256",
          "name": "",
          "type": "uint256"
        }
      ],
      "stateMutability": "view",
      "type": "function"
    },
    {
      "inputs": [],
      "name": "owner",
      "outputs": [
        {
          "internalType": "address",
          "name": "",
          "type": "address"
        }
      ],
      "stateMutability": "view",
      "type": "function"
    },
    {
      "inputs": [],
      "name": "poolShareValue",
      "outputs": [
        {
          "internalType": "uint256",
          "name": "",
          "type": "uint256"
        }
      ],
      "stateMutability": "view",
      "type": "function"
    },
    {
      "inputs": [],
      "name": "renounceOwnership",
      "outputs": [],
      "stateMutability": "nonpayable",
      "type": "function"
    },
    {
      "inputs": [],
      "name": "stakingAddress",
      "outputs": [
        {
          "internalType": "address",
          "name": "",
          "type": "address"
        }
      ],
      "stateMutability": "view",
      "type": "function"
    },
    {
      "inputs": [],
      "name": "stakingAdmin",
      "outputs": [
        {
          "internalType": "address",
          "name": "",
          "type": "address"
        }
      ],
      "stateMutability": "view",
      "type": "function"
    },
    {
      "inputs": [],
      "name": "totalShares",
      "outputs": [
        {
          "internalType": "uint256",
          "name": "",
          "type": "uint256"
        }
      ],
      "stateMutability": "view",
      "type": "function"
    },
    {
      "inputs": [
        {
          "internalType": "address",
          "name": "newOwner",
          "type": "address"
        }
      ],
      "name": "transferOwnership",
      "outputs": [],
      "stateMutability": "nonpayable",
      "type": "function"
    },
    {
      "stateMutability": "payable",
      "type": "receive"
    },
    {
      "inputs": [
        {
          "internalType": "address payable",
          "name": "_morpherState",
          "type": "address"
        },
        {
          "internalType": "address",
          "name": "_stakingAdmin",
          "type": "address"
        },
        {
          "internalType": "address payable",
          "name": "_userBlockingAddress",
          "type": "address"
        }
      ],
      "name": "initialize",
      "outputs": [],
      "stateMutability": "nonpayable",
      "type": "function"
    },
    {
      "inputs": [],
      "name": "updatePoolShareValue",
      "outputs": [
        {
          "internalType": "uint256",
          "name": "_newPoolShareValue",
          "type": "uint256"
        }
      ],
      "stateMutability": "nonpayable",
      "type": "function"
    },
    {
      "inputs": [
        {
          "internalType": "uint256",
          "name": "_amount",
          "type": "uint256"
        }
      ],
      "name": "stake",
      "outputs": [
        {
          "internalType": "uint256",
          "name": "_poolShares",
          "type": "uint256"
        }
      ],
      "stateMutability": "nonpayable",
      "type": "function"
    },
    {
      "inputs": [
        {
          "internalType": "uint256",
          "name": "_numOfShares",
          "type": "uint256"
        }
      ],
      "name": "unstake",
      "outputs": [
        {
          "internalType": "uint256",
          "name": "_amount",
          "type": "uint256"
        }
      ],
      "stateMutability": "nonpayable",
      "type": "function"
    },
    {
      "inputs": [
        {
          "internalType": "address",
          "name": "_address",
          "type": "address"
        }
      ],
      "name": "setStakingAdmin",
      "outputs": [],
      "stateMutability": "nonpayable",
      "type": "function"
    },
    {
      "inputs": [
        {
          "internalType": "address payable",
          "name": "_stateAddress",
          "type": "address"
        }
      ],
      "name": "setMorpherStateAddress",
      "outputs": [],
      "stateMutability": "nonpayable",
      "type": "function"
    },
    {
      "inputs": [
        {
          "internalType": "address payable",
          "name": "_userBlockingAddress",
          "type": "address"
        }
      ],
      "name": "setMorpherUserBlocking",
      "outputs": [],
      "stateMutability": "nonpayable",
      "type": "function"
    },
    {
      "inputs": [
        {
          "internalType": "uint256",
          "name": "_interestRate",
          "type": "uint256"
        }
      ],
      "name": "setInterestRate",
      "outputs": [],
      "stateMutability": "nonpayable",
      "type": "function"
    },
    {
      "inputs": [],
      "name": "interestRate",
      "outputs": [
        {
          "internalType": "uint256",
          "name": "",
          "type": "uint256"
        }
      ],
      "stateMutability": "view",
      "type": "function"
    },
    {
      "inputs": [
        {
          "internalType": "uint256",
          "name": "_rate",
          "type": "uint256"
        },
        {
          "internalType": "uint256",
          "name": "_validFrom",
          "type": "uint256"
        }
      ],
      "name": "addInterestRate",
      "outputs": [],
      "stateMutability": "nonpayable",
      "type": "function"
    },
    {
      "inputs": [
        {
          "internalType": "uint256",
          "name": "_numInterestRate",
          "type": "uint256"
        },
        {
          "internalType": "uint256",
          "name": "_rate",
          "type": "uint256"
        }
      ],
      "name": "changeInterestRateValue",
      "outputs": [],
      "stateMutability": "nonpayable",
      "type": "function"
    },
    {
      "inputs": [
        {
          "internalType": "uint256",
          "name": "_numInterestRate",
          "type": "uint256"
        },
        {
          "internalType": "uint256",
          "name": "_validFrom",
          "type": "uint256"
        }
      ],
      "name": "changeInterestRateValidFrom",
      "outputs": [],
      "stateMutability": "nonpayable",
      "type": "function"
    },
    {
      "inputs": [
        {
          "internalType": "uint256",
          "name": "_positionTimestamp",
          "type": "uint256"
        }
      ],
      "name": "getInterestRate",
      "outputs": [
        {
          "internalType": "uint256",
          "name": "",
          "type": "uint256"
        }
      ],
      "stateMutability": "view",
      "type": "function"
    },
    {
      "inputs": [
        {
          "internalType": "uint256",
          "name": "_lockupPeriod",
          "type": "uint256"
        }
      ],
      "name": "setLockupPeriodRate",
      "outputs": [],
      "stateMutability": "nonpayable",
      "type": "function"
    },
    {
      "inputs": [
        {
          "internalType": "uint256",
          "name": "_minimumStake",
          "type": "uint256"
        }
      ],
      "name": "setMinimumStake",
      "outputs": [],
      "stateMutability": "nonpayable",
      "type": "function"
    },
    {
      "inputs": [],
      "name": "getTotalPooledValue",
      "outputs": [
        {
          "internalType": "uint256",
          "name": "_totalPooled",
          "type": "uint256"
        }
      ],
      "stateMutability": "view",
      "type": "function"
    },
    {
      "inputs": [
        {
          "internalType": "address",
          "name": "_address",
          "type": "address"
        }
      ],
      "name": "getStake",
      "outputs": [
        {
          "internalType": "uint256",
          "name": "_poolShares",
          "type": "uint256"
        }
      ],
      "stateMutability": "view",
      "type": "function"
    },
    {
      "inputs": [
        {
          "internalType": "address",
          "name": "_address",
          "type": "address"
        }
      ],
      "name": "getStakeValue",
      "outputs": [
        {
          "internalType": "uint256",
          "name": "_value",
          "type": "uint256"
        },
        {
          "internalType": "uint256",
          "name": "_lastUpdate",
          "type": "uint256"
        }
      ],
      "stateMutability": "view",
      "type": "function"
    }
  ],
  "bytecode": "0x608060405234801561001057600080fd5b50612080806100206000396000f3fe6080604052600436106101dc5760003560e01c80639680237411610102578063e71e7ec011610095578063f2fde38b11610064578063f2fde38b14610563578063f48fedb014610583578063fc2ab77b14610598578063fc395c40146105b857610202565b8063e71e7ec014610501578063e9ea0ddc14610517578063ec5ffac214610537578063ee947a7c1461054d57610202565b8063a694fc3a116100d1578063a694fc3a1461048b578063c0c53b8b146104ab578063c9b17149146104cb578063d7b4be24146104e157610202565b806396802374146103ec5780639a4d8ba1146104215780639baafc5c14610455578063a4c2661e1461047557610202565b80633181dfd71161017a578063715018a611610149578063715018a6146103705780637a766460146103855780637c3a00fd146103a55780638da5cb5b146103ba57610202565b80633181dfd7146102fa5780633a98ef391461031a578063597f859c146103305780635f84f3021461035057610202565b806313384039116101b65780631338403914610278578063224f7e581461029a578063233e9903146102ba5780632e17de78146102da57610202565b80630645dcd71461021a5780630c196a74146102425780631176aeef1461026257610202565b366102025760405162461bcd60e51b81526004016101f990611d09565b60405180910390fd5b60405162461bcd60e51b81526004016101f990611d09565b34801561022657600080fd5b5061022f6105d8565b6040519081526020015b60405180910390f35b34801561024e57600080fd5b5061022f61025d366004611d55565b6105ef565b34801561026e57600080fd5b5061022f606b5481565b34801561028457600080fd5b50610298610293366004611d6e565b61077c565b005b3480156102a657600080fd5b506102986102b5366004611d6e565b6108da565b3480156102c657600080fd5b506102986102d5366004611d55565b610974565b3480156102e657600080fd5b5061022f6102f5366004611d55565b6109da565b34801561030657600080fd5b50610298610315366004611da5565b610e27565b34801561032657600080fd5b5061022f60695481565b34801561033c57600080fd5b5061029861034b366004611d55565b610e9f565b34801561035c57600080fd5b5061029861036b366004611d55565b610efe565b34801561037c57600080fd5b50610298610f35565b34801561039157600080fd5b5061022f6103a0366004611da5565b610f6b565b3480156103b157600080fd5b5061022f610ff4565b3480156103c657600080fd5b506033546001600160a01b03165b6040516001600160a01b039091168152602001610239565b3480156103f857600080fd5b5061040c610407366004611da5565b611059565b60408051928352602083019190915201610239565b34801561042d57600080fd5b5061040c61043c366004611d55565b606a602052600090815260409020805460019091015482565b34801561046157600080fd5b50610298610470366004611da5565b6110fa565b34801561048157600080fd5b5061022f60675481565b34801561049757600080fd5b5061022f6104a6366004611d55565b611172565b3480156104b757600080fd5b506102986104c6366004611dc9565b611674565b3480156104d757600080fd5b5061022f60685481565b3480156104ed57600080fd5b50606f546103d4906001600160a01b031681565b34801561050d57600080fd5b5061022f60705481565b34801561052357600080fd5b50610298610532366004611da5565b61183c565b34801561054357600080fd5b5061022f606d5481565b34801561055957600080fd5b5061022f606c5481565b34801561056f57600080fd5b5061029861057e366004611da5565b6118b4565b34801561058f57600080fd5b5061022f61194c565b3480156105a457600080fd5b50606e546103d4906001600160a01b031681565b3480156105c457600080fd5b506102986105d3366004611d6e565b611a04565b60006069546067546105ea9190611e2a565b905090565b60008080805b606b5481101561075f576001606b5461060e9190611e49565b81148061063a575042606a6000610626846001611e60565b815260200190815260200160002060000154115b1561069c576000818152606a60205260409020546106589042611e49565b6000828152606a60205260409020600101546106749190611e2a565b61067e9084611e60565b925081610697576000818152606a602052604090205491505b61075f565b84606a60006106ac846001611e60565b815260200190815260200160002060000154111561074d576000818152606a60208190526040822054916106e1846001611e60565b8152602001908152602001600020600001546106fd9190611e49565b6000828152606a60205260409020600101546107199190611e2a565b6107239084611e60565b6000828152606a6020526040902054909350851061074d576000818152606a602052604090205491505b8061075781611e78565b9150506105f5565b5061076a8142611e49565b6107749083611e93565b949350505050565b606e546001600160a01b031633146107a65760405162461bcd60e51b81526004016101f990611eb5565b606b5415806107d8575080606a60006001606b546107c49190611e49565b815260200190815260200160002060000154105b6108605760405162461bcd60e51b815260206004820152604d60248201527f4d6f72706865725374616b696e673a20496e746572657374205261746520566160448201527f6c69642046726f6d206d757374206265206c61746572207468616e206c61737460648201526c20696e7465726573745261746560981b608482015260a4016101f9565b61086861194c565b50606b80546000908152606a60205260408082208490558254825281206001018490558154919061089883611e78565b909155505060408051838152602081018390527f293620aa5866cd353b1989961237e94aece8c56f6b2b4b8514ee3a6f2dded5c3910160405180910390a15050565b606e546001600160a01b031633146109045760405162461bcd60e51b81526004016101f990611eb5565b6000828152606a6020908152604091829020600101548251858152918201529081018290527ff27b67df57164becd752b9ec4283586534adc2dfb848ee602c500aa6e46b30299060600160405180910390a161095e61194c565b506000918252606a602052604090912060010155565b606e546001600160a01b0316331461099e5760405162461bcd60e51b81526004016101f990611eb5565b606d8190556040518181527fcd49b0a32b631e59338de3903380e535f8738f7ff62fcb3953129b9607696739906020015b60405180910390a150565b606654604051635612cd6760e11b81523360048201526000916001600160a01b03169063ac259ace90602401602060405180830381865afa158015610a23573d6000803e3d6000fd5b505050506040513d601f19601f82011682018060405250810190610a479190611f12565b15610a945760405162461bcd60e51b815260206004820152601f60248201527f4d6f72706865725374616b696e673a205573657220697320626c6f636b65640060448201526064016101f9565b6065546070546040516307d47a8b60e11b815233600482015260248101919091526000916001600160a01b031690630fa8f5169060440160c060405180830381865afa158015610ae8573d6000803e3d6000fd5b505050506040513d601f19601f82011682018060405250810190610b0c9190611f34565b5050505050905080831115610b745760405162461bcd60e51b815260206004820152602860248201527f4d6f72706865725374616b696e673a20696e73756666696369656e7420706f6f6044820152676c2073686172657360c01b60648201526084016101f9565b606554607054604051630f5fd3cf60e21b815233600482015260248101919091526000916001600160a01b031690633d7f4f3c90604401602060405180830381865afa158015610bc8573d6000803e3d6000fd5b505050506040513d601f19601f82011682018060405250810190610bec9190611f7e565b905080421015610c645760405162461bcd60e51b815260206004820152603760248201527f4d6f72706865725374616b696e673a2063616e6e6f7420756e7374616b65206260448201527f65666f7265206c6f636b75702065787069726174696f6e00000000000000000060648201526084016101f9565b610c6c61194c565b506065546070546001600160a01b039091169063be7e64b690339084610c928988611e49565b60008060008060006040518a63ffffffff1660e01b8152600401610cbe99989796959493929190611f97565b600060405180830381600087803b158015610cd857600080fd5b505af1158015610cec573d6000803e3d6000fd5b5050505083606954610cfe9190611e49565b606955606754610d0e9085611e2a565b9250606560009054906101000a90046001600160a01b03166001600160a01b03166322e455846040518163ffffffff1660e01b8152600401602060405180830381865afa158015610d63573d6000803e3d6000fd5b505050506040513d601f19601f82011682018060405250810190610d879190611fe1565b6040516340c10f1960e01b8152336004820152602481018590526001600160a01b0391909116906340c10f1990604401600060405180830381600087803b158015610dd157600080fd5b505af1158015610de5573d6000803e3d6000fd5b50506040518681528592503391507f7fc4727e062e336010f2c282598ef5f14facb3de68cf8195c2f23e1454b2b74e9060200160405180910390a35050919050565b6033546001600160a01b03163314610e515760405162461bcd60e51b81526004016101f990611ffe565b606e80546001600160a01b0319166001600160a01b0383169081179091556040519081527f105518b3c988ba3d822d539675383b544a5143ee8f0fd22bf4bf8c338e103afd906020016109cf565b606e546001600160a01b03163314610ec95760405162461bcd60e51b81526004016101f990611eb5565b606c8190556040518181527ffd48bfbbcb5a287c0ba5513ca319e022d18f0f07bc4d4dea3ace362f67108980906020016109cf565b606e546001600160a01b03163314610f285760405162461bcd60e51b81526004016101f990611eb5565b610f32814261077c565b50565b6033546001600160a01b03163314610f5f5760405162461bcd60e51b81526004016101f990611ffe565b610f696000611cb7565b565b6065546070546040516307d47a8b60e11b81526001600160a01b038481166004830152602482019290925260009283921690630fa8f5169060440160c060405180830381865afa158015610fc3573d6000803e3d6000fd5b505050506040513d601f19601f82011682018060405250810190610fe79190611f34565b5093979650505050505050565b6000606b54600014156110075750600090565b60006001606b546110189190611e49565b90505b6000818152606a60205260409020544210611047576000908152606a6020526040902060010154919050565b8061105181612033565b91505061101b565b6065546070546040516307d47a8b60e11b81526001600160a01b038481166004830152602482019290925260009283928392911690630fa8f5169060440160c060405180830381865afa1580156110b4573d6000803e3d6000fd5b505050506040513d601f19601f820116820180604052508101906110d89190611f34565b50505050509050606754816110ed9190611e2a565b6068549250925050915091565b6033546001600160a01b031633146111245760405162461bcd60e51b81526004016101f990611ffe565b606680546001600160a01b0319166001600160a01b0383169081179091556040519081527f8212198b0ee29dae6ce39c35ce31d40ce02e263efeb619be6eeeff856f11865f906020016109cf565b606654604051635612cd6760e11b81523360048201526000916001600160a01b03169063ac259ace90602401602060405180830381865afa1580156111bb573d6000803e3d6000fd5b505050506040513d601f19601f820116820180604052508101906111df9190611f12565b1561122c5760405162461bcd60e51b815260206004820152601f60248201527f4d6f72706865725374616b696e673a205573657220697320626c6f636b65640060448201526064016101f9565b606554604080516308b9156160e21b8152905184926001600160a01b0316916322e455849160048083019260209291908290030181865afa158015611275573d6000803e3d6000fd5b505050506040513d601f19601f820116820180604052508101906112999190611fe1565b6040516370a0823160e01b81523360048201526001600160a01b0391909116906370a0823190602401602060405180830381865afa1580156112df573d6000803e3d6000fd5b505050506040513d601f19601f820116820180604052508101906113039190611f7e565b10156113685760405162461bcd60e51b815260206004820152602e60248201527f4d6f72706865725374616b696e673a20696e73756666696369656e74204d504860448201526d20746f6b656e2062616c616e636560901b60648201526084016101f9565b61137061194c565b5060675461137e9083611e93565b6065546070546040516307d47a8b60e11b815233600482015260248101919091529192506000916001600160a01b0390911690630fa8f5169060440160c060405180830381865afa1580156113d7573d6000803e3d6000fd5b505050506040513d601f19601f820116820180604052508101906113fb9190611f34565b50505050509050606754826114109190611e2a565b61141a9082611e60565b606d5411156114895760405162461bcd60e51b815260206004820152603560248201527f4d6f72706865725374616b696e673a207374616b6520616d6f756e74206c6f776044820152746572207468616e206d696e696d756d207374616b6560581b60648201526084016101f9565b606560009054906101000a90046001600160a01b03166001600160a01b03166322e455846040518163ffffffff1660e01b8152600401602060405180830381865afa1580156114dc573d6000803e3d6000fd5b505050506040513d601f19601f820116820180604052508101906115009190611fe1565b6001600160a01b0316639dc29fac336067548561151d9190611e2a565b6040516001600160e01b031960e085901b1681526001600160a01b0390921660048301526024820152604401600060405180830381600087803b15801561156357600080fd5b505af1158015611577573d6000803e3d6000fd5b50505050816069546115899190611e60565b606955606554607054606c546001600160a01b039092169163be7e64b69133916115b39042611e60565b6115bd8787611e60565b60008060008060006040518a63ffffffff1660e01b81526004016115e999989796959493929190611f97565b600060405180830381600087803b15801561160357600080fd5b505af1158015611617573d6000803e3d6000fd5b5050505082336001600160a01b03167fb4caaf29adda3eefee3ad552a8e85058589bf834c7466cae4ee58787f70589ed84606c54426116569190611e60565b6040805192835260208301919091520160405180910390a350919050565b600054610100900460ff1661168f5760005460ff1615611693565b303b155b6116f65760405162461bcd60e51b815260206004820152602e60248201527f496e697469616c697a61626c653a20636f6e747261637420697320616c72656160448201526d191e481a5b9a5d1a585b1a5e995960921b60648201526084016101f9565b600054610100900460ff16158015611718576000805461ffff19166101011790555b61172183610e27565b61172a8461183c565b7ffd48bfbbcb5a287c0ba5513ca319e022d18f0f07bc4d4dea3ace362f67108980606c5460405161175d91815260200190565b60405180910390a17fcd49b0a32b631e59338de3903380e535f8738f7ff62fcb3953129b9607696739606d5460405161179891815260200190565b60405180910390a16117a9826110fa565b6117b9613a98636062e8a361077c565b4260685562278d00606c5569152d02c7e14af6800000606d55606f80546001600160a01b0319167322222222222222222222222222222222222222221790557f9a31fdde7a3b1444b1befb10735dcc3b72cbd9dd604d2ff45144352bf0f359a66070556305f5e1006067558015611836576000805461ff00191690555b50505050565b6033546001600160a01b031633146118665760405162461bcd60e51b81526004016101f990611ffe565b606580546001600160a01b0319166001600160a01b0383169081179091556040519081527f978c711532bae8c58f353b0f3c7f3a0dfe600d9ae9a81818f2ad2919b88e1990906020016109cf565b6033546001600160a01b031633146118de5760405162461bcd60e51b81526004016101f990611ffe565b6001600160a01b0381166119435760405162461bcd60e51b815260206004820152602660248201527f4f776e61626c653a206e6577206f776e657220697320746865207a65726f206160448201526564647265737360d01b60648201526084016101f9565b610f3281611cb7565b60006201518060685461195f9190611e60565b42106119fd576000620151806068546119789190611e93565b6119829042611e49565b905061198c610ff4565b6119969082611e2a565b6067546119a39190611e60565b6067556119b36201518082611e2a565b6068546119c09190611e60565b60688190556067546040519081527fd59b6c8b3190f59807a1cf0b6fb311ba03a32a91c1da71f75e24251a132cdc369060200160405180910390a2505b5060675490565b606e546001600160a01b03163314611a2e5760405162461bcd60e51b81526004016101f990611eb5565b6000828152606a6020908152604091829020548251858152918201529081018290527f540bfd7b71faa6e96efd78eadf2100240526e583905c7fb4a63d545b20effd2e9060600160405180910390a181606b5411611ae45760405162461bcd60e51b815260206004820152602d60248201527f4d6f72706865725374616b696e673a20496e746572657374205261746520446f60448201526c6573206e6f742065786973742160981b60648201526084016101f9565b81158015611b00575060006001606b54611afe9190611e49565b115b8015611b2b575080606a6000611b17856001611e60565b815260200190815260200160002060000154115b80611b795750600082118015611b4e57506001606b54611b4b9190611e49565b82145b8015611b79575080606a6000611b65600186611e49565b815260200190815260200160002060000154105b80611bf25750600082118015611b9c57506001606b54611b999190611e49565b82105b8015611bc7575080606a6000611bb3600186611e49565b815260200190815260200160002060000154105b8015611bf2575080606a6000611bde856001611e60565b815260200190815260200160002060000154115b611c9c5760405162461bcd60e51b815260206004820152606960248201527f4d6f72706865725374616b696e673a2076616c696446726f6d2063616e6e6f7460448201527f20626520736d616c6c6572207468616e2070726576696f757320496e7465726560648201527f73742052617465206f72206c6172676572207468616e206e65787420496e746560848201526872657374205261746560b81b60a482015260c4016101f9565b611ca461194c565b506000918252606a602052604090912055565b603380546001600160a01b038381166001600160a01b0319831681179093556040519116919082907f8be0079c531659141344cd1fd0a4f28419497f9722a3daafe3b4186f6b6457e090600090a35050565b6020808252602c908201527f4d6f72706865725374616b696e673a20796f752063616e2774206465706f736960408201526b74204574686572206865726560a01b606082015260800190565b600060208284031215611d6757600080fd5b5035919050565b60008060408385031215611d8157600080fd5b50508035926020909101359150565b6001600160a01b0381168114610f3257600080fd5b600060208284031215611db757600080fd5b8135611dc281611d90565b9392505050565b600080600060608486031215611dde57600080fd5b8335611de981611d90565b92506020840135611df981611d90565b91506040840135611e0981611d90565b809150509250925092565b634e487b7160e01b600052601160045260246000fd5b6000816000190483118215151615611e4457611e44611e14565b500290565b600082821015611e5b57611e5b611e14565b500390565b60008219821115611e7357611e73611e14565b500190565b6000600019821415611e8c57611e8c611e14565b5060010190565b600082611eb057634e487b7160e01b600052601260045260246000fd5b500490565b6020808252603c908201527f4d6f72706865725374616b696e673a2063616e206f6e6c792062652063616c6c60408201527f6564206279205374616b696e672041646d696e6973747261746f722e00000000606082015260800190565b600060208284031215611f2457600080fd5b81518015158114611dc257600080fd5b60008060008060008060c08789031215611f4d57600080fd5b865195506020870151945060408701519350606087015192506080870151915060a087015190509295509295509295565b600060208284031215611f9057600080fd5b5051919050565b6001600160a01b03999099168952602089019790975260408801959095526060870193909352608086019190915260a085015260c084015260e08301526101008201526101200190565b600060208284031215611ff357600080fd5b8151611dc281611d90565b6020808252818101527f4f776e61626c653a2063616c6c6572206973206e6f7420746865206f776e6572604082015260600190565b60008161204257612042611e14565b50600019019056fea264697066735822122085148e6bf62a2f15b077ae03b477fb0264d26fe110560d9c82a2353fd297137e64736f6c634300080b0033",
  "immutableReferences": {},
  "source": "//SPDX-License-Identifier: GPLv3\r\npragma solidity 0.8.11;\r\nimport \"@openzeppelin/contracts-upgradeable/access/OwnableUpgradeable.sol\";\r\nimport \"@openzeppelin/contracts-upgradeable/proxy/utils/Initializable.sol\";\r\n\r\nimport \"./MorpherState.sol\";\r\nimport \"./MorpherUserBlocking.sol\";\r\nimport \"./MorpherToken.sol\";\r\n\r\n// ----------------------------------------------------------------------------------\r\n// Staking Morpher Token generates interest\r\n// The interest is set to 0.015% a day or ~5.475% in the first year\r\n// Stakers will be able to vote on all ProtocolDecisions in MorpherGovernance (soon...)\r\n// There is a lockup after staking or topping up (30 days) and a minimum stake (100k MPH)\r\n// ----------------------------------------------------------------------------------\r\n\r\ncontract MorpherStaking is Initializable, OwnableUpgradeable {\r\n\r\n    MorpherState state;\r\n    \r\n    MorpherUserBlocking userBlocking;\r\n\r\n    uint256 constant PRECISION = 10**8;\r\n    uint256 constant INTERVAL  = 1 days;\r\n\r\n    //mapping(address => uint256) private poolShares;\r\n    //mapping(address => uint256) private lockup;\r\n\r\n    uint256 public poolShareValue;\r\n    uint256 public lastReward;\r\n    uint256 public totalShares;\r\n    //uint256 public interestRate = 15000; // 0.015% per day initially, diminishing returns over time\r\n    struct InterestRate {\r\n        uint256 validFrom;\r\n        uint256 rate;\r\n    }\r\n\r\n    mapping(uint256 => InterestRate) public interestRates;\r\n    uint256 public numInterestRates;\r\n\r\n    uint256 public lockupPeriod; // to prevent tactical staking and ensure smooth governance\r\n    uint256 public minimumStake; // 100k MPH minimum\r\n\r\n    address public stakingAdmin;\r\n\r\n    address public stakingAddress;\r\n    bytes32 public marketIdStakingMPH; //STAKING_MPH\r\n\r\n// ----------------------------------------------------------------------------\r\n// Events\r\n// ----------------------------------------------------------------------------\r\n    event SetInterestRate(uint256 newInterestRate);\r\n    event InterestRateAdded(uint256 interestRate, uint256 validFromTimestamp);\r\n    event InterestRateRateChanged(uint256 interstRateIndex, uint256 oldvalue, uint256 newValue);\r\n    event InterestRateValidFromChanged(uint256 interstRateIndex, uint256 oldvalue, uint256 newValue);\r\n    event SetLockupPeriod(uint256 newLockupPeriod);\r\n    event SetMinimumStake(uint256 newMinimumStake);\r\n    event LinkState(address stateAddress);\r\n    event SetStakingAdmin(address stakingAdmin);\r\n    event SetMorpherUserBlocking(address userBlockingAddress);\r\n    \r\n    event PoolShareValueUpdated(uint256 indexed lastReward, uint256 poolShareValue);\r\n    event StakingRewardsMinted(uint256 indexed lastReward, uint256 delta);\r\n    event Staked(address indexed userAddress, uint256 indexed amount, uint256 poolShares, uint256 lockedUntil);\r\n    event Unstaked(address indexed userAddress, uint256 indexed amount, uint256 poolShares);\r\n    \r\n    modifier onlyStakingAdmin {\r\n        require(msg.sender == stakingAdmin, \"MorpherStaking: can only be called by Staking Administrator.\");\r\n        _;\r\n    }\r\n\r\n    modifier userNotBlocked {\r\n        require(!userBlocking.userIsBlocked(msg.sender), \"MorpherStaking: User is blocked\");\r\n        _;\r\n    }\r\n    \r\n    function initialize(address payable _morpherState, address _stakingAdmin, address payable _userBlockingAddress) public initializer {\r\n        setStakingAdmin(_stakingAdmin);\r\n        setMorpherStateAddress(_morpherState);\r\n        emit SetLockupPeriod(lockupPeriod);\r\n        emit SetMinimumStake(minimumStake);\r\n        setMorpherUserBlocking(_userBlockingAddress);\r\n        addInterestRate(15000,1617094819); //setting the initial interest rate to the trade engine deployed timestamp\r\n        lastReward = block.timestamp;\r\n        lockupPeriod = 30 days; // to prevent tactical staking and ensure smooth governance\r\n        minimumStake = 10**23; // 100k MPH minimum\r\n        stakingAddress = 0x2222222222222222222222222222222222222222;\r\n        marketIdStakingMPH = 0x9a31fdde7a3b1444b1befb10735dcc3b72cbd9dd604d2ff45144352bf0f359a6; //STAKING_MPH\r\n        poolShareValue = PRECISION;\r\n        // missing: transferOwnership to Governance once deployed\r\n    }\r\n\r\n// ----------------------------------------------------------------------------\r\n// updatePoolShareValue\r\n// Updates the value of the Pool Shares and returns the new value.\r\n// Staking rewards are linear, there is no compound interest.\r\n// ----------------------------------------------------------------------------\r\n    \r\n    function updatePoolShareValue() public returns (uint256 _newPoolShareValue) {\r\n        if (block.timestamp >= lastReward + INTERVAL) {\r\n            uint256 _numOfIntervals = block.timestamp - lastReward / INTERVAL;\r\n            poolShareValue = poolShareValue + (_numOfIntervals * interestRate());\r\n            lastReward = lastReward + (_numOfIntervals * (INTERVAL));\r\n            emit PoolShareValueUpdated(lastReward, poolShareValue);\r\n        }\r\n        //mintStakingRewards(); //burning/minting does not influence this\r\n        return poolShareValue;        \r\n    }\r\n\r\n// ----------------------------------------------------------------------------\r\n// Staking rewards are minted if necessary\r\n// ----------------------------------------------------------------------------\r\n\r\n    function mintStakingRewards() private {\r\n        uint256 _targetBalance = poolShareValue * (totalShares);\r\n        if (MorpherToken(state.getTokenContractAddress()).balanceOf(stakingAddress) < _targetBalance) {\r\n            // If there are not enough token held by the contract, mint them\r\n            uint256 _delta = _targetBalance - (MorpherToken(state.getTokenContractAddress()).balanceOf(stakingAddress));\r\n            MorpherToken(state.getTokenContractAddress()).mint(stakingAddress, _delta);\r\n            emit StakingRewardsMinted(lastReward, _delta);\r\n        }\r\n    }\r\n\r\n// ----------------------------------------------------------------------------\r\n// stake(uint256 _amount)\r\n// User specifies an amount they intend to stake. Pool Shares are issued accordingly\r\n// and the _amount is transferred to the staking contract\r\n// ----------------------------------------------------------------------------\r\n\r\n    function stake(uint256 _amount) public userNotBlocked returns (uint256 _poolShares) {\r\n        require(MorpherToken(state.getTokenContractAddress()).balanceOf(msg.sender) >= _amount, \"MorpherStaking: insufficient MPH token balance\");\r\n        updatePoolShareValue();\r\n        _poolShares = _amount / (poolShareValue);\r\n        (uint256 _numOfShares, , , , , ) = state.getPosition(msg.sender, marketIdStakingMPH);\r\n        require(minimumStake <= _numOfShares + (_poolShares) * (poolShareValue), \"MorpherStaking: stake amount lower than minimum stake\");\r\n        MorpherToken(state.getTokenContractAddress()).burn(msg.sender, _poolShares * (poolShareValue));\r\n        totalShares = totalShares + (_poolShares);\r\n        state.setPosition(msg.sender, marketIdStakingMPH, block.timestamp + (lockupPeriod), _numOfShares + (_poolShares), 0, 0, 0, 0, 0);\r\n        emit Staked(msg.sender, _amount, _poolShares, block.timestamp + (lockupPeriod));\r\n        return _poolShares;\r\n    }\r\n\r\n// ----------------------------------------------------------------------------\r\n// unstake(uint256 _amount)\r\n// User specifies number of Pool Shares they want to unstake. \r\n// Pool Shares get deleted and the user receives their MPH plus interest\r\n// ----------------------------------------------------------------------------\r\n\r\n    function unstake(uint256 _numOfShares) public userNotBlocked returns (uint256 _amount) {\r\n        (uint256 _numOfExistingShares, , , , , ) = state.getPosition(msg.sender, marketIdStakingMPH);\r\n        require(_numOfShares <= _numOfExistingShares, \"MorpherStaking: insufficient pool shares\");\r\n\r\n        uint256 lockedInUntil = state.getLastUpdated(msg.sender, marketIdStakingMPH);\r\n        require(block.timestamp >= lockedInUntil, \"MorpherStaking: cannot unstake before lockup expiration\");\r\n        updatePoolShareValue();\r\n        state.setPosition(msg.sender, marketIdStakingMPH, lockedInUntil, _numOfExistingShares - (_numOfShares), 0, 0, 0, 0, 0);\r\n        totalShares = totalShares - (_numOfShares);\r\n        _amount = _numOfShares * (poolShareValue);\r\n        MorpherToken(state.getTokenContractAddress()).mint(msg.sender, _amount);\r\n        emit Unstaked(msg.sender, _amount, _numOfShares);\r\n        return _amount;\r\n    }\r\n\r\n// ----------------------------------------------------------------------------\r\n// Administrative functions\r\n// ----------------------------------------------------------------------------\r\n\r\n    function setStakingAdmin(address _address) public onlyOwner {\r\n        stakingAdmin = _address;\r\n        emit SetStakingAdmin(_address);\r\n    }\r\n\r\n    function setMorpherStateAddress(address payable _stateAddress) public onlyOwner {\r\n        state = MorpherState(_stateAddress);\r\n        emit LinkState(_stateAddress);\r\n    }\r\n\r\n    function setMorpherUserBlocking(address payable _userBlockingAddress) public onlyOwner {\r\n        userBlocking = MorpherUserBlocking(_userBlockingAddress);\r\n        emit SetMorpherUserBlocking(_userBlockingAddress);\r\n    }\r\n\r\n\r\n    /**\r\n    Interest rate\r\n     */\r\n    function setInterestRate(uint256 _interestRate) public onlyStakingAdmin {\r\n        addInterestRate(_interestRate, block.timestamp);\r\n    }\r\n\r\n/**\r\n    fallback function in case the old tradeengine asks for the current interest rate\r\n */\r\n    function interestRate() public view returns (uint256) {\r\n        //start with the last one, as its most likely the last active one, no need to run through the whole map\r\n        if(numInterestRates == 0) {\r\n            return 0;\r\n        }\r\n        for(uint256 i = numInterestRates - 1; i >= 0; i--) {\r\n            if(interestRates[i].validFrom <= block.timestamp) {\r\n                return interestRates[i].rate;\r\n            }\r\n        }\r\n        return 0;\r\n    }\r\n\r\n    function addInterestRate(uint _rate, uint _validFrom) public onlyStakingAdmin {\r\n        require(numInterestRates == 0 || interestRates[numInterestRates-1].validFrom < _validFrom, \"MorpherStaking: Interest Rate Valid From must be later than last interestRate\");\r\n        //omitting rate sanity checks here. It should always be smaller than 100% (100000000) but I'll leave that to the common sense of the admin.\r\n        updatePoolShareValue();\r\n        interestRates[numInterestRates].validFrom = _validFrom;\r\n        interestRates[numInterestRates].rate = _rate;\r\n        numInterestRates++;\r\n        emit InterestRateAdded(_rate, _validFrom);\r\n    }\r\n\r\n    function changeInterestRateValue(uint256 _numInterestRate, uint256 _rate) public onlyStakingAdmin {\r\n        emit InterestRateRateChanged(_numInterestRate, interestRates[_numInterestRate].rate, _rate);\r\n        updatePoolShareValue();\r\n        interestRates[_numInterestRate].rate = _rate;\r\n    }\r\n    function changeInterestRateValidFrom(uint256 _numInterestRate, uint256 _validFrom) public onlyStakingAdmin {\r\n        emit InterestRateValidFromChanged(_numInterestRate, interestRates[_numInterestRate].validFrom, _validFrom);\r\n        require(numInterestRates > _numInterestRate, \"MorpherStaking: Interest Rate Does not exist!\");\r\n        require(\r\n            (_numInterestRate == 0 && numInterestRates-1 > 0 && interestRates[_numInterestRate+1].validFrom > _validFrom) || //we change the first one and there exist more than one\r\n            (_numInterestRate > 0 && _numInterestRate == numInterestRates-1 && interestRates[_numInterestRate - 1].validFrom < _validFrom) || //we changed the last one\r\n            (_numInterestRate > 0 && _numInterestRate < numInterestRates-1 && interestRates[_numInterestRate - 1].validFrom < _validFrom && interestRates[_numInterestRate + 1].validFrom > _validFrom),\r\n            \"MorpherStaking: validFrom cannot be smaller than previous Interest Rate or larger than next Interest Rate\"\r\n            );\r\n        updatePoolShareValue();\r\n        interestRates[_numInterestRate].validFrom = _validFrom;\r\n    }\r\n\r\n     function getInterestRate(uint256 _positionTimestamp) public view returns(uint256) {\r\n        uint256 sumInterestRatesWeighted = 0;\r\n        uint256 startingTimestamp = 0;\r\n        \r\n        for(uint256 i = 0; i < numInterestRates; i++) {\r\n            if(i == numInterestRates-1 || interestRates[i+1].validFrom > block.timestamp) {\r\n                //reached last interest rate\r\n                sumInterestRatesWeighted = sumInterestRatesWeighted + (interestRates[i].rate * (block.timestamp - interestRates[i].validFrom));\r\n                if(startingTimestamp == 0) {\r\n                    startingTimestamp = interestRates[i].validFrom;\r\n                }\r\n                break; //in case there are more in the future\r\n            } else {\r\n                //only take interest rates after the position was created\r\n                if(interestRates[i+1].validFrom > _positionTimestamp) {\r\n                    sumInterestRatesWeighted = sumInterestRatesWeighted + (interestRates[i].rate * (interestRates[i+1].validFrom - interestRates[i].validFrom));\r\n                    if(interestRates[i].validFrom <= _positionTimestamp) {\r\n                        startingTimestamp = interestRates[i].validFrom;\r\n                    }\r\n                }\r\n            } \r\n        }\r\n        return sumInterestRatesWeighted / (block.timestamp - startingTimestamp);\r\n\r\n    }\r\n\r\n    function setLockupPeriodRate(uint256 _lockupPeriod) public onlyStakingAdmin {\r\n        lockupPeriod = _lockupPeriod;\r\n        emit SetLockupPeriod(_lockupPeriod);\r\n    }\r\n    \r\n    function setMinimumStake(uint256 _minimumStake) public onlyStakingAdmin {\r\n        minimumStake = _minimumStake;\r\n        emit SetMinimumStake(_minimumStake);\r\n    }\r\n\r\n// ----------------------------------------------------------------------------\r\n// Getter functions\r\n// ----------------------------------------------------------------------------\r\n\r\n    function getTotalPooledValue() public view returns (uint256 _totalPooled) {\r\n        // Only accurate if poolShareValue is up to date\r\n        return poolShareValue * (totalShares);\r\n    }\r\n\r\n    function getStake(address _address) public view returns (uint256 _poolShares) {\r\n        (uint256 _numOfShares, , , , , ) = state.getPosition(_address, marketIdStakingMPH);\r\n        return _numOfShares;\r\n    }\r\n\r\n    function getStakeValue(address _address) public view returns(uint256 _value, uint256 _lastUpdate) {\r\n        // Only accurate if poolShareValue is up to date\r\n        \r\n        (uint256 _numOfShares, , , , , ) = state.getPosition(_address, marketIdStakingMPH);\r\n\r\n        return (_numOfShares * (poolShareValue), lastReward);\r\n    }\r\n    \r\n// ------------------------------------------------------------------------\r\n// Don't accept ETH\r\n// ------------------------------------------------------------------------\r\n\r\n    fallback() external payable {\r\n        revert(\"MorpherStaking: you can't deposit Ether here\");\r\n    }\r\n    receive() external payable {\r\n        revert(\"MorpherStaking: you can't deposit Ether here\");\r\n    }\r\n}\r\n",
  "sourcePath": "/home/thomas/MorpherProtocol/contracts/MorpherStaking.sol",
  "compiler": {
    "name": "solc",
    "version": "0.8.11+commit.d7f03943.Emscripten.clang"
  },
  "schemaVersion": "3.4.5",
  "updatedAt": "2022-03-09T13:35:33.624Z",
  "devdoc": {
    "kind": "dev",
    "methods": {
      "owner()": {
        "details": "Returns the address of the current owner."
      },
      "renounceOwnership()": {
        "details": "Leaves the contract without owner. It will not be possible to call `onlyOwner` functions anymore. Can only be called by the current owner. NOTE: Renouncing ownership will leave the contract without an owner, thereby removing any functionality that is only available to the owner."
      },
      "transferOwnership(address)": {
        "details": "Transfers ownership of the contract to a new account (`newOwner`). Can only be called by the current owner."
      }
    },
    "version": 1
  },
  "userdoc": {
    "kind": "user",
    "methods": {
      "interestRate()": {
        "notice": "fallback function in case the old tradeengine asks for the current interest rate"
      },
      "setInterestRate(uint256)": {
        "notice": "Interest rate"
      }
    },
    "version": 1
  }
}