{
  "contractName": "MorpherState",
  "abi": [
    {
      "anonymous": false,
      "inputs": [
        {
          "indexed": true,
          "internalType": "uint256",
          "name": "rewardsTime",
          "type": "uint256"
        }
      ],
      "name": "LastRewardTime",
      "type": "event"
    },
    {
      "anonymous": false,
      "inputs": [
        {
          "indexed": true,
          "internalType": "bytes32",
          "name": "activateMarket",
          "type": "bytes32"
        }
      ],
      "name": "MarketActivated",
      "type": "event"
    },
    {
      "anonymous": false,
      "inputs": [
        {
          "indexed": true,
          "internalType": "bytes32",
          "name": "deActivateMarket",
          "type": "bytes32"
        }
      ],
      "name": "MarketDeActivated",
      "type": "event"
    },
    {
      "anonymous": false,
      "inputs": [
        {
          "indexed": false,
          "internalType": "uint256",
          "name": "maxLeverage",
          "type": "uint256"
        }
      ],
      "name": "MaximumLeverageChange",
      "type": "event"
    },
    {
      "anonymous": false,
      "inputs": [
        {
          "indexed": true,
          "internalType": "address",
          "name": "recipient",
          "type": "address"
        },
        {
          "indexed": false,
          "internalType": "uint256",
          "name": "amount",
          "type": "uint256"
        }
      ],
      "name": "OperatingRewardMinted",
      "type": "event"
    },
    {
      "anonymous": false,
      "inputs": [
        {
          "indexed": true,
          "internalType": "address",
          "name": "rewardsAddress",
          "type": "address"
        },
        {
          "indexed": true,
          "internalType": "uint256",
          "name": "rewardsBasisPoints",
          "type": "uint256"
        }
      ],
      "name": "RewardsChange",
      "type": "event"
    },
    {
      "anonymous": false,
      "inputs": [
        {
          "indexed": false,
          "internalType": "address",
          "name": "_oldAddress",
          "type": "address"
        },
        {
          "indexed": false,
          "internalType": "address",
          "name": "_newAddress",
          "type": "address"
        }
      ],
      "name": "SetMorpherAccessControlAddress",
      "type": "event"
    },
    {
      "anonymous": false,
      "inputs": [
        {
          "indexed": false,
          "internalType": "address",
          "name": "_oldAddress",
          "type": "address"
        },
        {
          "indexed": false,
          "internalType": "address",
          "name": "_newAddress",
          "type": "address"
        }
      ],
      "name": "SetMorpherAirdropAddress",
      "type": "event"
    },
    {
      "anonymous": false,
      "inputs": [
        {
          "indexed": false,
          "internalType": "address",
          "name": "_oldAddress",
          "type": "address"
        },
        {
          "indexed": false,
          "internalType": "address",
          "name": "_newAddress",
          "type": "address"
        }
      ],
      "name": "SetMorpherBridgeAddress",
      "type": "event"
    },
    {
      "anonymous": false,
      "inputs": [
        {
          "indexed": false,
          "internalType": "address",
          "name": "_oldAddress",
          "type": "address"
        },
        {
          "indexed": false,
          "internalType": "address",
          "name": "_newAddress",
          "type": "address"
        }
      ],
      "name": "SetMorpherFaucetAddress",
      "type": "event"
    },
    {
      "anonymous": false,
      "inputs": [
        {
          "indexed": false,
          "internalType": "address",
          "name": "_oldAddress",
          "type": "address"
        },
        {
          "indexed": false,
          "internalType": "address",
          "name": "_newAddress",
          "type": "address"
        }
      ],
      "name": "SetMorpherGovernanceAddress",
      "type": "event"
    },
    {
      "anonymous": false,
      "inputs": [
        {
          "indexed": false,
          "internalType": "address",
          "name": "_oldAddress",
          "type": "address"
        },
        {
          "indexed": false,
          "internalType": "address",
          "name": "_newAddress",
          "type": "address"
        }
      ],
      "name": "SetMorpherMintingLimiterAddress",
      "type": "event"
    },
    {
      "anonymous": false,
      "inputs": [
        {
          "indexed": false,
          "internalType": "address",
          "name": "_oldAddress",
          "type": "address"
        },
        {
          "indexed": false,
          "internalType": "address",
          "name": "_newAddress",
          "type": "address"
        }
      ],
      "name": "SetMorpherOracleAddress",
      "type": "event"
    },
    {
      "anonymous": false,
      "inputs": [
        {
          "indexed": false,
          "internalType": "address",
          "name": "_oldAddress",
          "type": "address"
        },
        {
          "indexed": false,
          "internalType": "address",
          "name": "_newAddress",
          "type": "address"
        }
      ],
      "name": "SetMorpherStakingAddress",
      "type": "event"
    },
    {
      "anonymous": false,
      "inputs": [
        {
          "indexed": false,
          "internalType": "address",
          "name": "_oldAddress",
          "type": "address"
        },
        {
          "indexed": false,
          "internalType": "address",
          "name": "_newAddress",
          "type": "address"
        }
      ],
      "name": "SetMorpherTokenAddress",
      "type": "event"
    },
    {
      "anonymous": false,
      "inputs": [
        {
          "indexed": false,
          "internalType": "address",
          "name": "_oldAddress",
          "type": "address"
        },
        {
          "indexed": false,
          "internalType": "address",
          "name": "_newAddress",
          "type": "address"
        }
      ],
      "name": "SetMorpherTradeEngineAddress",
      "type": "event"
    },
    {
      "anonymous": false,
      "inputs": [
        {
          "indexed": false,
          "internalType": "address",
          "name": "_oldAddress",
          "type": "address"
        },
        {
          "indexed": false,
          "internalType": "address",
          "name": "_newAddress",
          "type": "address"
        }
      ],
      "name": "SetMorpherUserBlockingAddress",
      "type": "event"
    },
    {
      "inputs": [],
      "name": "ADMINISTRATOR_ROLE",
      "outputs": [
        {
          "internalType": "bytes32",
          "name": "",
          "type": "bytes32"
        }
      ],
      "stateMutability": "view",
      "type": "function",
      "constant": true
    },
    {
      "inputs": [],
      "name": "DECIMALS",
      "outputs": [
        {
          "internalType": "uint256",
          "name": "",
          "type": "uint256"
        }
      ],
      "stateMutability": "view",
      "type": "function",
      "constant": true
    },
    {
      "inputs": [],
      "name": "GOVERNANCE_ROLE",
      "outputs": [
        {
          "internalType": "bytes32",
          "name": "",
          "type": "bytes32"
        }
      ],
      "stateMutability": "view",
      "type": "function",
      "constant": true
    },
    {
      "inputs": [],
      "name": "PLATFORM_ROLE",
      "outputs": [
        {
          "internalType": "bytes32",
          "name": "",
          "type": "bytes32"
        }
      ],
      "stateMutability": "view",
      "type": "function",
      "constant": true
    },
    {
      "inputs": [],
      "name": "PRECISION",
      "outputs": [
        {
          "internalType": "uint256",
          "name": "",
          "type": "uint256"
        }
      ],
      "stateMutability": "view",
      "type": "function",
      "constant": true
    },
    {
      "inputs": [],
      "name": "REWARDPERIOD",
      "outputs": [
        {
          "internalType": "uint256",
          "name": "",
          "type": "uint256"
        }
      ],
      "stateMutability": "view",
      "type": "function",
      "constant": true
    },
    {
      "inputs": [],
      "name": "lastRewardTime",
      "outputs": [
        {
          "internalType": "uint256",
          "name": "",
          "type": "uint256"
        }
      ],
      "stateMutability": "view",
      "type": "function",
      "constant": true
    },
    {
      "inputs": [],
      "name": "mainChainWithdrawLimit24",
      "outputs": [
        {
          "internalType": "uint256",
          "name": "",
          "type": "uint256"
        }
      ],
      "stateMutability": "view",
      "type": "function",
      "constant": true
    },
    {
      "inputs": [],
      "name": "maximumLeverage",
      "outputs": [
        {
          "internalType": "uint256",
          "name": "",
          "type": "uint256"
        }
      ],
      "stateMutability": "view",
      "type": "function",
      "constant": true
    },
    {
      "inputs": [],
      "name": "morpherAccessControlAddress",
      "outputs": [
        {
          "internalType": "address",
          "name": "",
          "type": "address"
        }
      ],
      "stateMutability": "view",
      "type": "function",
      "constant": true
    },
    {
      "inputs": [],
      "name": "morpherAirdropAddress",
      "outputs": [
        {
          "internalType": "address",
          "name": "",
          "type": "address"
        }
      ],
      "stateMutability": "view",
      "type": "function",
      "constant": true
    },
    {
      "inputs": [],
      "name": "morpherBridgeAddress",
      "outputs": [
        {
          "internalType": "address",
          "name": "",
          "type": "address"
        }
      ],
      "stateMutability": "view",
      "type": "function",
      "constant": true
    },
    {
      "inputs": [],
      "name": "morpherFaucetAddress",
      "outputs": [
        {
          "internalType": "address",
          "name": "",
          "type": "address"
        }
      ],
      "stateMutability": "view",
      "type": "function",
      "constant": true
    },
    {
      "inputs": [],
      "name": "morpherGovernanceAddress",
      "outputs": [
        {
          "internalType": "address",
          "name": "",
          "type": "address"
        }
      ],
      "stateMutability": "view",
      "type": "function",
      "constant": true
    },
    {
      "inputs": [],
      "name": "morpherMintingLimiterAddress",
      "outputs": [
        {
          "internalType": "address",
          "name": "",
          "type": "address"
        }
      ],
      "stateMutability": "view",
      "type": "function",
      "constant": true
    },
    {
      "inputs": [],
      "name": "morpherOracleAddress",
      "outputs": [
        {
          "internalType": "address",
          "name": "",
          "type": "address"
        }
      ],
      "stateMutability": "view",
      "type": "function",
      "constant": true
    },
    {
      "inputs": [],
      "name": "morpherRewards",
      "outputs": [
        {
          "internalType": "address",
          "name": "",
          "type": "address"
        }
      ],
      "stateMutability": "view",
      "type": "function",
      "constant": true
    },
    {
      "inputs": [],
      "name": "morpherStakingAddress",
      "outputs": [
        {
          "internalType": "address payable",
          "name": "",
          "type": "address"
        }
      ],
      "stateMutability": "view",
      "type": "function",
      "constant": true
    },
    {
      "inputs": [],
      "name": "morpherTokenAddress",
      "outputs": [
        {
          "internalType": "address",
          "name": "",
          "type": "address"
        }
      ],
      "stateMutability": "view",
      "type": "function",
      "constant": true
    },
    {
      "inputs": [],
      "name": "morpherTradeEngineAddress",
      "outputs": [
        {
          "internalType": "address",
          "name": "",
          "type": "address"
        }
      ],
      "stateMutability": "view",
      "type": "function",
      "constant": true
    },
    {
      "inputs": [],
      "name": "morpherUserBlockingAddress",
      "outputs": [
        {
          "internalType": "address",
          "name": "",
          "type": "address"
        }
      ],
      "stateMutability": "view",
      "type": "function",
      "constant": true
    },
    {
      "inputs": [],
      "name": "numberOfRequestsLimit",
      "outputs": [
        {
          "internalType": "uint256",
          "name": "",
          "type": "uint256"
        }
      ],
      "stateMutability": "view",
      "type": "function",
      "constant": true
    },
    {
      "inputs": [],
      "name": "rewardBasisPoints",
      "outputs": [
        {
          "internalType": "uint256",
          "name": "",
          "type": "uint256"
        }
      ],
      "stateMutability": "view",
      "type": "function",
      "constant": true
    },
    {
      "inputs": [],
      "name": "sideChainMerkleRoot",
      "outputs": [
        {
          "internalType": "bytes32",
          "name": "",
          "type": "bytes32"
        }
      ],
      "stateMutability": "view",
      "type": "function",
      "constant": true
    },
    {
      "inputs": [],
      "name": "sideChainMerkleRootWrittenAtTime",
      "outputs": [
        {
          "internalType": "uint256",
          "name": "",
          "type": "uint256"
        }
      ],
      "stateMutability": "view",
      "type": "function",
      "constant": true
    },
    {
      "inputs": [
        {
          "internalType": "bool",
          "name": "_mainChain",
          "type": "bool"
        },
        {
          "internalType": "address",
          "name": "_morpherTreasury",
          "type": "address"
        },
        {
          "internalType": "address",
          "name": "_morpherAccessControlAddress",
          "type": "address"
        }
      ],
      "name": "initialize",
      "outputs": [],
      "stateMutability": "nonpayable",
      "type": "function"
    },
    {
      "inputs": [
        {
          "internalType": "address",
          "name": "_morpherAccessControlAddress",
          "type": "address"
        }
      ],
      "name": "setMorpherAccessControl",
      "outputs": [],
      "stateMutability": "nonpayable",
      "type": "function"
    },
    {
      "inputs": [
        {
          "internalType": "address",
          "name": "_morpherAirdropAddress",
          "type": "address"
        }
      ],
      "name": "setMorpherAirdrop",
      "outputs": [],
      "stateMutability": "nonpayable",
      "type": "function"
    },
    {
      "inputs": [
        {
          "internalType": "address",
          "name": "_morpherBridgeAddress",
          "type": "address"
        }
      ],
      "name": "setMorpherBridge",
      "outputs": [],
      "stateMutability": "nonpayable",
      "type": "function"
    },
    {
      "inputs": [
        {
          "internalType": "address",
          "name": "_morpherFaucetAddress",
          "type": "address"
        }
      ],
      "name": "setMorpherFaucet",
      "outputs": [],
      "stateMutability": "nonpayable",
      "type": "function"
    },
    {
      "inputs": [
        {
          "internalType": "address",
          "name": "_morpherGovernanceAddress",
          "type": "address"
        }
      ],
      "name": "setMorpherGovernance",
      "outputs": [],
      "stateMutability": "nonpayable",
      "type": "function"
    },
    {
      "inputs": [
        {
          "internalType": "address",
          "name": "_morpherMintingLimiterAddress",
          "type": "address"
        }
      ],
      "name": "setMorpherMintingLimiter",
      "outputs": [],
      "stateMutability": "nonpayable",
      "type": "function"
    },
    {
      "inputs": [
        {
          "internalType": "address",
          "name": "_morpherOracleAddress",
          "type": "address"
        }
      ],
      "name": "setMorpherOracle",
      "outputs": [],
      "stateMutability": "nonpayable",
      "type": "function"
    },
    {
      "inputs": [
        {
          "internalType": "address payable",
          "name": "_morpherStakingAddress",
          "type": "address"
        }
      ],
      "name": "setMorpherStaking",
      "outputs": [],
      "stateMutability": "nonpayable",
      "type": "function"
    },
    {
      "inputs": [
        {
          "internalType": "address",
          "name": "_morpherTokenAddress",
          "type": "address"
        }
      ],
      "name": "setMorpherToken",
      "outputs": [],
      "stateMutability": "nonpayable",
      "type": "function"
    },
    {
      "inputs": [
        {
          "internalType": "address",
          "name": "_morpherTradeEngineAddress",
          "type": "address"
        }
      ],
      "name": "setMorpherTradeEngine",
      "outputs": [],
      "stateMutability": "nonpayable",
      "type": "function"
    },
    {
      "inputs": [
        {
          "internalType": "address",
          "name": "_morpherUserBlockingAddress",
          "type": "address"
        }
      ],
      "name": "setMorpherUserBlocking",
      "outputs": [],
      "stateMutability": "nonpayable",
      "type": "function"
    },
    {
      "inputs": [
        {
          "internalType": "address",
          "name": "_newRewardsAddress",
          "type": "address"
        }
      ],
      "name": "setRewardAddress",
      "outputs": [],
      "stateMutability": "nonpayable",
      "type": "function"
    },
    {
      "inputs": [
        {
          "internalType": "uint256",
          "name": "_newRewardBasisPoints",
          "type": "uint256"
        }
      ],
      "name": "setRewardBasisPoints",
      "outputs": [],
      "stateMutability": "nonpayable",
      "type": "function"
    },
    {
      "inputs": [
        {
          "internalType": "bytes32",
          "name": "_activateMarket",
          "type": "bytes32"
        }
      ],
      "name": "activateMarket",
      "outputs": [],
      "stateMutability": "nonpayable",
      "type": "function"
    },
    {
      "inputs": [
        {
          "internalType": "bytes32",
          "name": "_deActivateMarket",
          "type": "bytes32"
        }
      ],
      "name": "deActivateMarket",
      "outputs": [],
      "stateMutability": "nonpayable",
      "type": "function"
    },
    {
      "inputs": [
        {
          "internalType": "bytes32",
          "name": "_marketId",
          "type": "bytes32"
        }
      ],
      "name": "getMarketActive",
      "outputs": [
        {
          "internalType": "bool",
          "name": "_active",
          "type": "bool"
        }
      ],
      "stateMutability": "view",
      "type": "function",
      "constant": true
    },
    {
      "inputs": [
        {
          "internalType": "uint256",
          "name": "_newMaximumLeverage",
          "type": "uint256"
        }
      ],
      "name": "setMaximumLeverage",
      "outputs": [],
      "stateMutability": "nonpayable",
      "type": "function"
    },
    {
      "inputs": [],
      "name": "getMaximumLeverage",
      "outputs": [
        {
          "internalType": "uint256",
          "name": "_maxLeverage",
          "type": "uint256"
        }
      ],
      "stateMutability": "view",
      "type": "function",
      "constant": true
    },
    {
      "inputs": [],
      "name": "payOperatingReward",
      "outputs": [],
      "stateMutability": "nonpayable",
      "type": "function"
    }
  ],
  "bytecode": "0x608060405234801561001057600080fd5b50611de2806100206000396000f3fe608060405234801561001057600080fd5b506004361061027f5760003560e01c80639231cf741161015c578063da4b0f40116100ce578063f45edb5f11610087578063f45edb5f14610570578063f606a41a14610585578063f90f59b714610598578063fbfc50f6146105ab578063fc653833146105b4578063fe252852146105c757600080fd5b8063da4b0f40146104ea578063da8cac02146104fd578063daf9502714610510578063e20569af14610523578063e254542214610536578063f36c8f5c1461054957600080fd5b8063af2b48a711610120578063af2b48a71461048b578063af6976c314610495578063bb65b242146104a8578063bc5bea65146104b1578063c5e1b59a146104c4578063d37afa8d146104d757600080fd5b80639231cf741461043e5780639baafc5c14610447578063a13141bd1461045a578063aaf5eb681461046d578063ac981b1e1461047857600080fd5b806355b33741116101f55780637993a991116101b95780637993a991146103eb5780637b431ab1146103fe5780637c995e9114610407578063816708361461040f57806384778771146104225780638c4050b11461043557600080fd5b806355b337411461038d5780635e00e679146103965780636d37e218146103a95780636f319549146103b157806370824c5c146103c457600080fd5b80633716552d116102475780633716552d1461030557806339b1969a146103185780633eedf76a1461032b578063432556ba146103345780634a4cce971461034757806350a71bac1461037a57600080fd5b806304371f481461028457806306442d0a146102995780632082bb28146102ac57806328196ca0146102bf5780632e0f2625146102ef575b600080fd5b610297610292366004611bea565b6105da565b005b6102976102a7366004611bea565b6107f1565b6102976102ba366004611c1b565b6108df565b6033546102d2906001600160a01b031681565b6040516001600160a01b0390911681526020015b60405180910390f35b6102f7601281565b6040519081526020016102e6565b610297610313366004611c1b565b6109f6565b610297610326366004611c1b565b610b0d565b6102f7603f5481565b603b546102d2906001600160a01b031681565b61036a610355366004611bea565b60009081526045602052604090205460ff1690565b60405190151581526020016102e6565b603d546102d2906001600160a01b031681565b6102f760445481565b6102976103a4366004611c1b565b610c24565b610297610d34565b6035546102d2906001600160a01b031681565b6102f77f797343f8d6a29aafeb3aaf0910a8973e0081c60c2f6c1f775cd9f76ea348fc1e81565b6102976103f9366004611c1b565b610f18565b6102f760435481565b603f546102f7565b6037546102d2906001600160a01b031681565b6039546102d2906001600160a01b031681565b6102f760485481565b6102f760415481565b610297610455366004611c1b565b61102f565b610297610468366004611c1b565b611146565b6102f76305f5e10081565b610297610486366004611bea565b61125d565b6102f76201518081565b6038546102d2906001600160a01b031681565b6102f760405481565b6036546102d2906001600160a01b031681565b6102976104d2366004611c1b565b61134e565b603c546102d2906001600160a01b031681565b6102976104f8366004611bea565b611465565b61029761050b366004611c1b565b6115b1565b61029761051e366004611c1b565b6116c8565b603a546102d2906001600160a01b031681565b610297610544366004611c4d565b6117df565b6102f77f71840dc4906352362b0cdaf79870196c8e42acafade72d5d5a6d59291253ceb181565b6102f7600080516020611d8d83398151915281565b603e546102d2906001600160a01b031681565b6034546102d2906001600160a01b031681565b6102f760425481565b6102976105c2366004611c1b565b61191e565b6102976105d5366004611c1b565b611a35565b6033547f71840dc4906352362b0cdaf79870196c8e42acafade72d5d5a6d59291253ceb1906001600160a01b03166391d1485482336040516001600160e01b031960e085901b16815260048101929092526001600160a01b03166024820152604401602060405180830381865afa158015610659573d6000803e3d6000fd5b505050506040513d601f19601f8201168201806040525081019061067d9190611c98565b6106a25760405162461bcd60e51b815260040161069990611cb5565b60405180910390fd5b60495460ff1615156001141561073d57613a988211156107385760405162461bcd60e51b8152602060048201526044602482018190527f4d6f727068657253746174653a2052657761726420626173697320706f696e74908201527f73206e65656420746f206265206c657373206f7220657175616c20746f2031356064820152631818181760e11b608482015260a401610699565b6107b1565b81156107b15760405162461bcd60e51b815260206004820152603e60248201527f4d6f727068657253746174653a2052657761726420626173697320706f696e7460448201527f732063616e206f6e6c7920626520736574206f6e20457468657265756d2e00006064820152608401610699565b6040828155603e54905183916001600160a01b0316907faa735ef3e20d6d58610022edb69ae0e7e8aaa0084dc5699a0b36a5683bc7a7c790600090a35050565b603354600080516020611d8d833981519152906001600160a01b03166391d1485482336040516001600160e01b031960e085901b16815260048101929092526001600160a01b03166024820152604401602060405180830381865afa15801561085e573d6000803e3d6000fd5b505050506040513d601f19601f820116820180604052508101906108829190611c98565b61089e5760405162461bcd60e51b815260040161069990611cb5565b600082815260456020526040808220805460ff191690555183917f9cb9d54a58b209894faa9f115e54b1c61733c0764fe29ed01f97c7c425f2f24391a25050565b603354600080516020611d8d833981519152906001600160a01b03166391d1485482336040516001600160e01b031960e085901b16815260048101929092526001600160a01b03166024820152604401602060405180830381865afa15801561094c573d6000803e3d6000fd5b505050506040513d601f19601f820116820180604052508101906109709190611c98565b61098c5760405162461bcd60e51b815260040161069990611cb5565b603c546040517f258a1bec0e18e5de82e8b2d04d828a5c9634a1c2d13ac19bc17d418704b6076f916109cb916001600160a01b03909116908590611cea565b60405180910390a150603c80546001600160a01b0319166001600160a01b0392909216919091179055565b603354600080516020611d8d833981519152906001600160a01b03166391d1485482336040516001600160e01b031960e085901b16815260048101929092526001600160a01b03166024820152604401602060405180830381865afa158015610a63573d6000803e3d6000fd5b505050506040513d601f19601f82011682018060405250810190610a879190611c98565b610aa35760405162461bcd60e51b815260040161069990611cb5565b6037546040517fb5ae810821e1befb4ae4e5e1ad7e85d8bc5e9f43471fb7deca38e8c057cc44a491610ae2916001600160a01b03909116908590611cea565b60405180910390a150603780546001600160a01b0319166001600160a01b0392909216919091179055565b603354600080516020611d8d833981519152906001600160a01b03166391d1485482336040516001600160e01b031960e085901b16815260048101929092526001600160a01b03166024820152604401602060405180830381865afa158015610b7a573d6000803e3d6000fd5b505050506040513d601f19601f82011682018060405250810190610b9e9190611c98565b610bba5760405162461bcd60e51b815260040161069990611cb5565b6036546040517f7fa90270c0b88ee88c968fdff5b5e7dbff285ee37bfb88cf3e168d71aebb432291610bf9916001600160a01b03909116908590611cea565b60405180910390a150603680546001600160a01b0319166001600160a01b0392909216919091179055565b6033547f71840dc4906352362b0cdaf79870196c8e42acafade72d5d5a6d59291253ceb1906001600160a01b03166391d1485482336040516001600160e01b031960e085901b16815260048101929092526001600160a01b03166024820152604401602060405180830381865afa158015610ca3573d6000803e3d6000fd5b505050506040513d601f19601f82011682018060405250810190610cc79190611c98565b610ce35760405162461bcd60e51b815260040161069990611cb5565b603e80546001600160a01b0319166001600160a01b0384169081179091556040805490519091907faa735ef3e20d6d58610022edb69ae0e7e8aaa0084dc5699a0b36a5683bc7a7c790600090a35050565b60495460ff161515600114610da25760405162461bcd60e51b815260206004820152602e60248201527f4d6f727068657253746174653a2043616e206f6e6c792062652063616c6c656460448201526d1037b71036b0b4b731b430b4b71760911b6064820152608401610699565b62015180604154610db39190611d1a565b421115610f165760006305f5e100604054603b60009054906101000a90046001600160a01b03166001600160a01b03166318160ddd6040518163ffffffff1660e01b8152600401602060405180830381865afa158015610e17573d6000803e3d6000fd5b505050506040513d601f19601f82011682018060405250810190610e3b9190611d32565b610e459190611d4b565b610e4f9190611d6a565b9050610e6a62015180604154610e659190611d1a565b611b4c565b603b54603e546040516340c10f1960e01b81526001600160a01b039182166004820152602481018490529116906340c10f1990604401600060405180830381600087803b158015610eba57600080fd5b505af1158015610ece573d6000803e3d6000fd5b5050603e546040518481526001600160a01b0390911692507f38fec7f72e65a01ab4170fddd9ed4438b1b378e84bef08292112fb619abfc9a2915060200160405180910390a2505b565b603354600080516020611d8d833981519152906001600160a01b03166391d1485482336040516001600160e01b031960e085901b16815260048101929092526001600160a01b03166024820152604401602060405180830381865afa158015610f85573d6000803e3d6000fd5b505050506040513d601f19601f82011682018060405250810190610fa99190611c98565b610fc55760405162461bcd60e51b815260040161069990611cb5565b603a546040517fe42fe56fe8570b6afa53fb486f69a7b4039429bfed524bab39f5e40c3c30cf0691611004916001600160a01b03909116908590611cea565b60405180910390a150603a80546001600160a01b0319166001600160a01b0392909216919091179055565b603354600080516020611d8d833981519152906001600160a01b03166391d1485482336040516001600160e01b031960e085901b16815260048101929092526001600160a01b03166024820152604401602060405180830381865afa15801561109c573d6000803e3d6000fd5b505050506040513d601f19601f820116820180604052508101906110c09190611c98565b6110dc5760405162461bcd60e51b815260040161069990611cb5565b603d546040517f95269a6783e0a6580818e738f41864edc9da93b2b7dd3821b4e54ebf76cb3da29161111b916001600160a01b03909116908590611cea565b60405180910390a150603d80546001600160a01b0319166001600160a01b0392909216919091179055565b603354600080516020611d8d833981519152906001600160a01b03166391d1485482336040516001600160e01b031960e085901b16815260048101929092526001600160a01b03166024820152604401602060405180830381865afa1580156111b3573d6000803e3d6000fd5b505050506040513d601f19601f820116820180604052508101906111d79190611c98565b6111f35760405162461bcd60e51b815260040161069990611cb5565b6039546040517fc9a71a70f53329a4d37f06a753cb4867fc10a37bb83532a0194ae1ef438611f791611232916001600160a01b03909116908590611cea565b60405180910390a150603980546001600160a01b0319166001600160a01b0392909216919091179055565b603354600080516020611d8d833981519152906001600160a01b03166391d1485482336040516001600160e01b031960e085901b16815260048101929092526001600160a01b03166024820152604401602060405180830381865afa1580156112ca573d6000803e3d6000fd5b505050506040513d601f19601f820116820180604052508101906112ee9190611c98565b61130a5760405162461bcd60e51b815260040161069990611cb5565b600082815260456020526040808220805460ff191660011790555183917f52ebf9d662e8bc70841a5b603c1711882a8e4b11a663af6b5709286fe7bd964591a25050565b603354600080516020611d8d833981519152906001600160a01b03166391d1485482336040516001600160e01b031960e085901b16815260048101929092526001600160a01b03166024820152604401602060405180830381865afa1580156113bb573d6000803e3d6000fd5b505050506040513d601f19601f820116820180604052508101906113df9190611c98565b6113fb5760405162461bcd60e51b815260040161069990611cb5565b6035546040517f0143e43add49c04d6583ba258761acbb5ff6c4e04fe756828b55b6da764a27cb9161143a916001600160a01b03909116908590611cea565b60405180910390a150603580546001600160a01b0319166001600160a01b0392909216919091179055565b603354600080516020611d8d833981519152906001600160a01b03166391d1485482336040516001600160e01b031960e085901b16815260048101929092526001600160a01b03166024820152604401602060405180830381865afa1580156114d2573d6000803e3d6000fd5b505050506040513d601f19601f820116820180604052508101906114f69190611c98565b6115125760405162461bcd60e51b815260040161069990611cb5565b6305f5e10082116115755760405162461bcd60e51b815260206004820152602760248201527f4d6f727068657253746174653a204c6576657261676520707265636973696f6e604482015266040d2e64062ca760cb1b6064820152608401610699565b603f8290556040518281527f258a1584bca0aad852538c9d396233520174feedba906a03d19b307d3bad5f309060200160405180910390a15050565b603354600080516020611d8d833981519152906001600160a01b03166391d1485482336040516001600160e01b031960e085901b16815260048101929092526001600160a01b03166024820152604401602060405180830381865afa15801561161e573d6000803e3d6000fd5b505050506040513d601f19601f820116820180604052508101906116429190611c98565b61165e5760405162461bcd60e51b815260040161069990611cb5565b603b546040517fb79492f43466f55538db548bd2b1ce60c376f9541c7b0db11799828061d7a5f69161169d916001600160a01b03909116908590611cea565b60405180910390a150603b80546001600160a01b0319166001600160a01b0392909216919091179055565b603354600080516020611d8d833981519152906001600160a01b03166391d1485482336040516001600160e01b031960e085901b16815260048101929092526001600160a01b03166024820152604401602060405180830381865afa158015611735573d6000803e3d6000fd5b505050506040513d601f19601f820116820180604052508101906117599190611c98565b6117755760405162461bcd60e51b815260040161069990611cb5565b6038546040517f0128d789e17bfd1c3c0876d54f4667a81cb93280e8251bfc6dd7fcb6fa6063ef916117b4916001600160a01b03909116908590611cea565b60405180910390a150603880546001600160a01b0319166001600160a01b0392909216919091179055565b600054610100900460ff166117fa5760005460ff16156117fe565b303b155b6118615760405162461bcd60e51b815260206004820152602e60248201527f496e697469616c697a61626c653a20636f6e747261637420697320616c72656160448201526d191e481a5b9a5d1a585b1a5e995960921b6064820152608401610699565b600054610100900460ff16158015611883576000805461ffff19166101011790555b61188b611b7f565b603380546001600160a01b0319166001600160a01b0384161790556049805460ff19168515151790556118bd42611b4c565b60495460ff166118e0576118d160006105da565b6118db6000610c24565b6118f4565b6118eb613a986105da565b6118f483610c24565b6119036305f5e100600a611d4b565b603f558015611918576000805461ff00191690555b50505050565b603354600080516020611d8d833981519152906001600160a01b03166391d1485482336040516001600160e01b031960e085901b16815260048101929092526001600160a01b03166024820152604401602060405180830381865afa15801561198b573d6000803e3d6000fd5b505050506040513d601f19601f820116820180604052508101906119af9190611c98565b6119cb5760405162461bcd60e51b815260040161069990611cb5565b6033546040517f6a1edde11d2186fa21863eb6defd9c39b65ef651d33126a15ddd601186a7aaa291611a0a916001600160a01b03909116908590611cea565b60405180910390a150603380546001600160a01b0319166001600160a01b0392909216919091179055565b603354600080516020611d8d833981519152906001600160a01b03166391d1485482336040516001600160e01b031960e085901b16815260048101929092526001600160a01b03166024820152604401602060405180830381865afa158015611aa2573d6000803e3d6000fd5b505050506040513d601f19601f82011682018060405250810190611ac69190611c98565b611ae25760405162461bcd60e51b815260040161069990611cb5565b6034546040517fb51ac1f47ba9ff86631e80bbde5882438b4a51649022715da7635919b1d6815891611b21916001600160a01b03909116908590611cea565b60405180910390a150603480546001600160a01b0319166001600160a01b0392909216919091179055565b604181905560405181907fb11f7283fda904f54a0fc8af727d3bf56e40a6cbf7c8fbb177083f0a335152ed90600090a250565b600054610100900460ff16610f165760405162461bcd60e51b815260206004820152602b60248201527f496e697469616c697a61626c653a20636f6e7472616374206973206e6f74206960448201526a6e697469616c697a696e6760a81b6064820152608401610699565b600060208284031215611bfc57600080fd5b5035919050565b6001600160a01b0381168114611c1857600080fd5b50565b600060208284031215611c2d57600080fd5b8135611c3881611c03565b9392505050565b8015158114611c1857600080fd5b600080600060608486031215611c6257600080fd5b8335611c6d81611c3f565b92506020840135611c7d81611c03565b91506040840135611c8d81611c03565b809150509250925092565b600060208284031215611caa57600080fd5b8151611c3881611c3f565b6020808252818101527f4d6f727068657253746174653a205065726d697373696f6e2064656e6965642e604082015260600190565b6001600160a01b0392831681529116602082015260400190565b634e487b7160e01b600052601160045260246000fd5b60008219821115611d2d57611d2d611d04565b500190565b600060208284031215611d4457600080fd5b5051919050565b6000816000190483118215151615611d6557611d65611d04565b500290565b600082611d8757634e487b7160e01b600052601260045260246000fd5b50049056fee5a0b4d50f56047f84728557fedbda92f956391bc9d5c762e8461996dd8e7ad7a26469706673582212206954cce1fb22915594784a3863a43253dad710e53fae30bf61649e32adb1a64464736f6c634300080b0033",
  "immutableReferences": {},
  "source": "//SPDX-License-Identifier: GPLv3\r\npragma solidity 0.8.11;\r\nimport \"@openzeppelin/contracts-upgradeable/proxy/utils/Initializable.sol\";\r\nimport \"@openzeppelin/contracts-upgradeable/utils/ContextUpgradeable.sol\";\r\nimport \"./MorpherToken.sol\";\r\n\r\n// ----------------------------------------------------------------------------------\r\n// Data and token balance storage of the Morpher platform\r\n// Writing access is only granted to platform contracts. The contract can be paused\r\n// by an elected platform administrator (see MorpherGovernance) to perform protocol updates.\r\n// ----------------------------------------------------------------------------------\r\n\r\ncontract MorpherState is Initializable, ContextUpgradeable  {\r\n\r\n    address public morpherAccessControlAddress;\r\n    address public morpherAirdropAddress;\r\n    address public morpherBridgeAddress;\r\n    address public morpherFaucetAddress;\r\n    address public morpherGovernanceAddress;\r\n    address public morpherMintingLimiterAddress;\r\n    address public morpherOracleAddress;\r\n    address payable public morpherStakingAddress;\r\n    address public morpherTokenAddress;\r\n    address public morpherTradeEngineAddress;\r\n    address public morpherUserBlockingAddress;\r\n\r\n    /**\r\n     * Roles known to State\r\n     */\r\n    bytes32 public constant ADMINISTRATOR_ROLE = keccak256(\"ADMINISTRATOR_ROLE\");\r\n    bytes32 public constant GOVERNANCE_ROLE = keccak256(\"GOVERNANCE_ROLE\");\r\n    bytes32 public constant PLATFORM_ROLE = keccak256(\"PLATFORM_ROLE\");\r\n \r\n\r\n    address public morpherRewards;\r\n    uint256 public maximumLeverage; // Leverage precision is 1e8, maximum leverage set to 10 initially\r\n    uint256 public constant PRECISION = 10**8;\r\n    uint256 public constant DECIMALS = 18;\r\n    uint256 public constant REWARDPERIOD = 1 days;\r\n\r\n    uint256 public rewardBasisPoints;\r\n    uint256 public lastRewardTime;\r\n\r\n    bytes32 public sideChainMerkleRoot;\r\n    uint256 public sideChainMerkleRootWrittenAtTime;\r\n\r\n    // Set initial withdraw limit from sidechain to 20m token or 2% of initial supply\r\n    uint256 public mainChainWithdrawLimit24;\r\n\r\n    mapping(bytes32 => bool) private marketActive;\r\n\r\n    // ----------------------------------------------------------------------------\r\n    // Sidechain spam protection\r\n    // ----------------------------------------------------------------------------\r\n\r\n    mapping(address => uint256) private lastRequestBlock;\r\n    mapping(address => uint256) private numberOfRequests;\r\n    uint256 public numberOfRequestsLimit;\r\n\r\n    // ----------------------------------------------------------------------------\r\n    // Events\r\n    // ----------------------------------------------------------------------------\r\n    event OperatingRewardMinted(address indexed recipient, uint256 amount);\r\n\r\n    event RewardsChange(address indexed rewardsAddress, uint256 indexed rewardsBasisPoints);\r\n    event LastRewardTime(uint256 indexed rewardsTime);\r\n\r\n   \r\n    event MaximumLeverageChange(uint256 maxLeverage);\r\n    event MarketActivated(bytes32 indexed activateMarket);\r\n    event MarketDeActivated(bytes32 indexed deActivateMarket);\r\n\r\n\r\n    modifier onlyRole(bytes32 role) {\r\n        require(MorpherAccessControl(morpherAccessControlAddress).hasRole(role, _msgSender()), \"MorpherState: Permission denied.\");\r\n        _;\r\n    }\r\n\r\n\r\n\r\n    modifier onlyBridge {\r\n        require(msg.sender == morpherBridgeAddress, \"MorpherState: Caller is not the Bridge. Aborting.\");\r\n        _;\r\n    }\r\n\r\n    modifier onlyMainChain {\r\n        require(mainChain == true, \"MorpherState: Can only be called on mainchain.\");\r\n        _;\r\n    }\r\n\r\n    bool mainChain;\r\n\r\n    function initialize(bool _mainChain, address _morpherTreasury, address _morpherAccessControlAddress) public initializer {\r\n        ContextUpgradeable.__Context_init();\r\n        \r\n        morpherAccessControlAddress = _morpherAccessControlAddress;\r\n        mainChain = _mainChain;\r\n        \r\n        setLastRewardTime(block.timestamp);\r\n       \r\n        if (mainChain == false) { // Create token only on sidechain\r\n            setRewardBasisPoints(0); // Reward is minted on mainchain\r\n            setRewardAddress(address(0));\r\n        } else {\r\n            setRewardBasisPoints(15000); // 15000 / PRECISION = 0.00015\r\n            setRewardAddress(_morpherTreasury);\r\n        }\r\n\r\n        maximumLeverage = 10*PRECISION; // Leverage precision is 1e8, maximum leverage set to 10 initially\r\n    }\r\n\r\n    // ----------------------------------------------------------------------------\r\n    // Setter/Getter functions for platform roles\r\n    // ----------------------------------------------------------------------------\r\n\r\n    event SetMorpherAccessControlAddress(address _oldAddress, address _newAddress);\r\n    function setMorpherAccessControl(address _morpherAccessControlAddress) public onlyRole(ADMINISTRATOR_ROLE) {\r\n        emit SetMorpherAccessControlAddress(morpherAccessControlAddress, _morpherAccessControlAddress);\r\n        morpherAccessControlAddress = _morpherAccessControlAddress;\r\n    }\r\n\r\n    event SetMorpherAirdropAddress(address _oldAddress, address _newAddress);\r\n    function setMorpherAirdrop(address _morpherAirdropAddress) public onlyRole(ADMINISTRATOR_ROLE) {\r\n        emit SetMorpherAirdropAddress(morpherAirdropAddress, _morpherAirdropAddress);\r\n        morpherAirdropAddress = _morpherAirdropAddress;\r\n    }\r\n\r\n    event SetMorpherBridgeAddress(address _oldAddress, address _newAddress);\r\n    function setMorpherBridge(address _morpherBridgeAddress) public onlyRole(ADMINISTRATOR_ROLE) {\r\n        emit SetMorpherBridgeAddress(morpherBridgeAddress, _morpherBridgeAddress);\r\n        morpherBridgeAddress = _morpherBridgeAddress;\r\n    }\r\n\r\n    event SetMorpherFaucetAddress(address _oldAddress, address _newAddress);\r\n    function setMorpherFaucet(address _morpherFaucetAddress) public onlyRole(ADMINISTRATOR_ROLE) {\r\n        emit SetMorpherFaucetAddress(morpherFaucetAddress, _morpherFaucetAddress);\r\n        morpherFaucetAddress = _morpherFaucetAddress;\r\n    }\r\n\r\n    event SetMorpherGovernanceAddress(address _oldAddress, address _newAddress);\r\n    function setMorpherGovernance(address _morpherGovernanceAddress) public onlyRole(ADMINISTRATOR_ROLE) {\r\n        emit SetMorpherGovernanceAddress(morpherGovernanceAddress, _morpherGovernanceAddress);\r\n        morpherGovernanceAddress = _morpherGovernanceAddress;\r\n    }\r\n\r\n    event SetMorpherMintingLimiterAddress(address _oldAddress, address _newAddress);\r\n    function setMorpherMintingLimiter(address _morpherMintingLimiterAddress) public onlyRole(ADMINISTRATOR_ROLE) {\r\n        emit SetMorpherMintingLimiterAddress(morpherMintingLimiterAddress, _morpherMintingLimiterAddress);\r\n        morpherMintingLimiterAddress = _morpherMintingLimiterAddress;\r\n    }\r\n    event SetMorpherOracleAddress(address _oldAddress, address _newAddress);\r\n    function setMorpherOracle(address _morpherOracleAddress) public onlyRole(ADMINISTRATOR_ROLE) {\r\n        emit SetMorpherOracleAddress(morpherOracleAddress, _morpherOracleAddress);\r\n        morpherOracleAddress = _morpherOracleAddress;\r\n    }\r\n\r\n    event SetMorpherStakingAddress(address _oldAddress, address _newAddress);\r\n    function setMorpherStaking(address payable _morpherStakingAddress) public onlyRole(ADMINISTRATOR_ROLE) {\r\n        emit SetMorpherStakingAddress(morpherStakingAddress, _morpherStakingAddress);\r\n        morpherStakingAddress = _morpherStakingAddress;\r\n    }\r\n\r\n    event SetMorpherTokenAddress(address _oldAddress, address _newAddress);\r\n    function setMorpherToken(address _morpherTokenAddress) public onlyRole(ADMINISTRATOR_ROLE) {\r\n        emit SetMorpherTokenAddress(morpherTokenAddress, _morpherTokenAddress);\r\n        morpherTokenAddress = _morpherTokenAddress;\r\n    }\r\n\r\n    event SetMorpherTradeEngineAddress(address _oldAddress, address _newAddress);\r\n    function setMorpherTradeEngine(address _morpherTradeEngineAddress) public onlyRole(ADMINISTRATOR_ROLE) {\r\n        emit SetMorpherTradeEngineAddress(morpherTradeEngineAddress, _morpherTradeEngineAddress);\r\n        morpherTradeEngineAddress = _morpherTradeEngineAddress;\r\n    }\r\n\r\n    event SetMorpherUserBlockingAddress(address _oldAddress, address _newAddress);\r\n    function setMorpherUserBlocking(address _morpherUserBlockingAddress) public onlyRole(ADMINISTRATOR_ROLE) {\r\n        emit SetMorpherUserBlockingAddress(morpherUserBlockingAddress, _morpherUserBlockingAddress);\r\n        morpherUserBlockingAddress = _morpherUserBlockingAddress;\r\n    }\r\n\r\n    // ----------------------------------------------------------------------------\r\n    // Setter/Getter functions for platform operating rewards\r\n    // ----------------------------------------------------------------------------\r\n\r\n    function setRewardAddress(address _newRewardsAddress) public onlyRole(GOVERNANCE_ROLE) {\r\n        morpherRewards = _newRewardsAddress;\r\n        emit RewardsChange(_newRewardsAddress, rewardBasisPoints);\r\n    }\r\n\r\n    function setRewardBasisPoints(uint256 _newRewardBasisPoints) public onlyRole(GOVERNANCE_ROLE) {\r\n        if (mainChain == true) {\r\n            require(_newRewardBasisPoints <= 15000, \"MorpherState: Reward basis points need to be less or equal to 15000.\");\r\n        } else {\r\n            require(_newRewardBasisPoints == 0, \"MorpherState: Reward basis points can only be set on Ethereum.\");\r\n        }\r\n        rewardBasisPoints = _newRewardBasisPoints;\r\n        emit RewardsChange(morpherRewards, _newRewardBasisPoints);\r\n    }\r\n\r\n    function setLastRewardTime(uint256 _lastRewardTime) private {\r\n        lastRewardTime = _lastRewardTime;\r\n        emit LastRewardTime(_lastRewardTime);\r\n    }\r\n\r\n    // ----------------------------------------------------------------------------\r\n    // Setter/Getter functions for platform administration\r\n    // ----------------------------------------------------------------------------\r\n\r\n    function activateMarket(bytes32 _activateMarket) public onlyRole(ADMINISTRATOR_ROLE)  {\r\n        marketActive[_activateMarket] = true;\r\n        emit MarketActivated(_activateMarket);\r\n    }\r\n\r\n    function deActivateMarket(bytes32 _deActivateMarket) public onlyRole(ADMINISTRATOR_ROLE)  {\r\n        marketActive[_deActivateMarket] = false;\r\n        emit MarketDeActivated(_deActivateMarket);\r\n    }\r\n\r\n    function getMarketActive(bytes32 _marketId) public view returns(bool _active) {\r\n        return marketActive[_marketId];\r\n    }\r\n\r\n    function setMaximumLeverage(uint256 _newMaximumLeverage) public onlyRole(ADMINISTRATOR_ROLE)  {\r\n        require(_newMaximumLeverage > PRECISION, \"MorpherState: Leverage precision is 1e8\");\r\n        maximumLeverage = _newMaximumLeverage;\r\n        emit MaximumLeverageChange(_newMaximumLeverage);\r\n    }\r\n\r\n    function getMaximumLeverage() public view returns(uint256 _maxLeverage) {\r\n        return maximumLeverage;\r\n    }\r\n\r\n    \r\n    function payOperatingReward() public onlyMainChain {\r\n        if (block.timestamp > lastRewardTime + (REWARDPERIOD)) {\r\n            uint256 _reward = MorpherToken(morpherTokenAddress).totalSupply() * (rewardBasisPoints) / (PRECISION);\r\n            setLastRewardTime(lastRewardTime + (REWARDPERIOD));\r\n            MorpherToken(morpherTokenAddress).mint(morpherRewards, _reward);\r\n            emit OperatingRewardMinted(morpherRewards, _reward);\r\n        }\r\n    }\r\n}\r\n",
  "sourcePath": "/home/thomas/MorpherProtocol/contracts/MorpherState.sol",
  "compiler": {
    "name": "solc",
    "version": "0.8.11+commit.d7f03943.Emscripten.clang"
  },
  "schemaVersion": "3.4.5",
  "updatedAt": "2022-03-17T07:59:02.173Z",
  "networkType": "ethereum",
  "devdoc": {
    "kind": "dev",
    "methods": {},
    "version": 1
  },
  "userdoc": {
    "kind": "user",
    "methods": {
      "ADMINISTRATOR_ROLE()": {
        "notice": "Roles known to State"
      }
    },
    "version": 1
  }
}