{
  "contractName": "MorpherOracle",
  "abi": [
    {
      "anonymous": false,
      "inputs": [
        {
          "indexed": false,
          "internalType": "address",
          "name": "_address",
          "type": "address"
        }
      ],
      "name": "AddressBlackListed",
      "type": "event"
    },
    {
      "anonymous": false,
      "inputs": [
        {
          "indexed": false,
          "internalType": "address",
          "name": "_address",
          "type": "address"
        }
      ],
      "name": "AddressWhiteListed",
      "type": "event"
    },
    {
      "anonymous": false,
      "inputs": [
        {
          "indexed": true,
          "internalType": "bytes32",
          "name": "_orderId",
          "type": "bytes32"
        },
        {
          "indexed": true,
          "internalType": "address",
          "name": "_address",
          "type": "address"
        },
        {
          "indexed": true,
          "internalType": "bytes32",
          "name": "_marketId",
          "type": "bytes32"
        },
        {
          "indexed": false,
          "internalType": "uint256",
          "name": "_closeSharesAmount",
          "type": "uint256"
        },
        {
          "indexed": false,
          "internalType": "uint256",
          "name": "_openMPHTokenAmount",
          "type": "uint256"
        },
        {
          "indexed": false,
          "internalType": "bool",
          "name": "_tradeDirection",
          "type": "bool"
        },
        {
          "indexed": false,
          "internalType": "uint256",
          "name": "_orderLeverage",
          "type": "uint256"
        }
      ],
      "name": "AdminLiquidationOrderCreated",
      "type": "event"
    },
    {
      "anonymous": false,
      "inputs": [
        {
          "indexed": true,
          "internalType": "bytes32",
          "name": "_orderId",
          "type": "bytes32"
        },
        {
          "indexed": true,
          "internalType": "address",
          "name": "_sender",
          "type": "address"
        },
        {
          "indexed": true,
          "internalType": "address",
          "name": "_oracleAddress",
          "type": "address"
        }
      ],
      "name": "AdminOrderCancelled",
      "type": "event"
    },
    {
      "anonymous": false,
      "inputs": [
        {
          "indexed": false,
          "internalType": "address",
          "name": "_address",
          "type": "address"
        }
      ],
      "name": "CallBackCollectionAddressChange",
      "type": "event"
    },
    {
      "anonymous": false,
      "inputs": [
        {
          "indexed": true,
          "internalType": "address",
          "name": "_address",
          "type": "address"
        }
      ],
      "name": "CallbackAddressDisabled",
      "type": "event"
    },
    {
      "anonymous": false,
      "inputs": [
        {
          "indexed": true,
          "internalType": "address",
          "name": "_address",
          "type": "address"
        }
      ],
      "name": "CallbackAddressEnabled",
      "type": "event"
    },
    {
      "anonymous": false,
      "inputs": [
        {
          "indexed": false,
          "internalType": "bytes32",
          "name": "_marketId",
          "type": "bytes32"
        }
      ],
      "name": "DelistMarketComplete",
      "type": "event"
    },
    {
      "anonymous": false,
      "inputs": [
        {
          "indexed": false,
          "internalType": "bytes32",
          "name": "_marketId",
          "type": "bytes32"
        },
        {
          "indexed": false,
          "internalType": "uint256",
          "name": "_processedUntilIndex",
          "type": "uint256"
        }
      ],
      "name": "DelistMarketIncomplete",
      "type": "event"
    },
    {
      "anonymous": false,
      "inputs": [
        {
          "indexed": false,
          "internalType": "uint8",
          "name": "version",
          "type": "uint8"
        }
      ],
      "name": "Initialized",
      "type": "event"
    },
    {
      "anonymous": false,
      "inputs": [
        {
          "indexed": false,
          "internalType": "address",
          "name": "_address",
          "type": "address"
        }
      ],
      "name": "LinkMorpherState",
      "type": "event"
    },
    {
      "anonymous": false,
      "inputs": [
        {
          "indexed": false,
          "internalType": "address",
          "name": "_address",
          "type": "address"
        }
      ],
      "name": "LinkTradeEngine",
      "type": "event"
    },
    {
      "anonymous": false,
      "inputs": [
        {
          "indexed": true,
          "internalType": "bytes32",
          "name": "_orderId",
          "type": "bytes32"
        },
        {
          "indexed": false,
          "internalType": "address",
          "name": "_sender",
          "type": "address"
        },
        {
          "indexed": true,
          "internalType": "address",
          "name": "_address",
          "type": "address"
        },
        {
          "indexed": true,
          "internalType": "bytes32",
          "name": "_marketId",
          "type": "bytes32"
        }
      ],
      "name": "LiquidationOrderCreated",
      "type": "event"
    },
    {
      "anonymous": false,
      "inputs": [
        {
          "indexed": false,
          "internalType": "bytes32",
          "name": "_marketId",
          "type": "bytes32"
        },
        {
          "indexed": false,
          "internalType": "uint256",
          "name": "_price",
          "type": "uint256"
        }
      ],
      "name": "LockedPriceForClosingPositions",
      "type": "event"
    },
    {
      "anonymous": false,
      "inputs": [
        {
          "indexed": false,
          "internalType": "bool",
          "name": "_paused",
          "type": "bool"
        }
      ],
      "name": "OraclePaused",
      "type": "event"
    },
    {
      "anonymous": false,
      "inputs": [
        {
          "indexed": true,
          "internalType": "bytes32",
          "name": "_orderId",
          "type": "bytes32"
        },
        {
          "indexed": true,
          "internalType": "address",
          "name": "_sender",
          "type": "address"
        }
      ],
      "name": "OrderCancellationRequestedEvent",
      "type": "event"
    },
    {
      "anonymous": false,
      "inputs": [
        {
          "indexed": true,
          "internalType": "bytes32",
          "name": "_orderId",
          "type": "bytes32"
        },
        {
          "indexed": true,
          "internalType": "address",
          "name": "_sender",
          "type": "address"
        },
        {
          "indexed": true,
          "internalType": "address",
          "name": "_oracleAddress",
          "type": "address"
        }
      ],
      "name": "OrderCancelled",
      "type": "event"
    },
    {
      "anonymous": false,
      "inputs": [
        {
          "indexed": true,
          "internalType": "bytes32",
          "name": "_orderId",
          "type": "bytes32"
        },
        {
          "indexed": true,
          "internalType": "address",
          "name": "_address",
          "type": "address"
        },
        {
          "indexed": true,
          "internalType": "bytes32",
          "name": "_marketId",
          "type": "bytes32"
        },
        {
          "indexed": false,
          "internalType": "uint256",
          "name": "_closeSharesAmount",
          "type": "uint256"
        },
        {
          "indexed": false,
          "internalType": "uint256",
          "name": "_openMPHTokenAmount",
          "type": "uint256"
        },
        {
          "indexed": false,
          "internalType": "bool",
          "name": "_tradeDirection",
          "type": "bool"
        },
        {
          "indexed": false,
          "internalType": "uint256",
          "name": "_orderLeverage",
          "type": "uint256"
        },
        {
          "indexed": false,
          "internalType": "uint256",
          "name": "_onlyIfPriceBelow",
          "type": "uint256"
        },
        {
          "indexed": false,
          "internalType": "uint256",
          "name": "_onlyIfPriceAbove",
          "type": "uint256"
        },
        {
          "indexed": false,
          "internalType": "uint256",
          "name": "_goodFrom",
          "type": "uint256"
        },
        {
          "indexed": false,
          "internalType": "uint256",
          "name": "_goodUntil",
          "type": "uint256"
        }
      ],
      "name": "OrderCreated",
      "type": "event"
    },
    {
      "anonymous": false,
      "inputs": [
        {
          "indexed": true,
          "internalType": "bytes32",
          "name": "_orderId",
          "type": "bytes32"
        },
        {
          "indexed": true,
          "internalType": "address",
          "name": "_address",
          "type": "address"
        },
        {
          "indexed": true,
          "internalType": "bytes32",
          "name": "_marketId",
          "type": "bytes32"
        },
        {
          "indexed": false,
          "internalType": "uint256",
          "name": "_closeSharesAmount",
          "type": "uint256"
        },
        {
          "indexed": false,
          "internalType": "uint256",
          "name": "_openMPHTokenAmount",
          "type": "uint256"
        },
        {
          "indexed": false,
          "internalType": "bool",
          "name": "_tradeDirection",
          "type": "bool"
        },
        {
          "indexed": false,
          "internalType": "uint256",
          "name": "_orderLeverage",
          "type": "uint256"
        },
        {
          "indexed": false,
          "internalType": "uint256",
          "name": "_onlyIfPriceBelow",
          "type": "uint256"
        },
        {
          "indexed": false,
          "internalType": "uint256",
          "name": "_onlyIfPriceAbove",
          "type": "uint256"
        },
        {
          "indexed": false,
          "internalType": "uint256",
          "name": "_goodFrom",
          "type": "uint256"
        },
        {
          "indexed": false,
          "internalType": "uint256",
          "name": "_goodUntil",
          "type": "uint256"
        }
      ],
      "name": "OrderFailed",
      "type": "event"
    },
    {
      "anonymous": false,
      "inputs": [
        {
          "indexed": true,
          "internalType": "bytes32",
          "name": "_orderId",
          "type": "bytes32"
        },
        {
          "indexed": false,
          "internalType": "uint256",
          "name": "_price",
          "type": "uint256"
        },
        {
          "indexed": false,
          "internalType": "uint256",
          "name": "_unadjustedMarketPrice",
          "type": "uint256"
        },
        {
          "indexed": false,
          "internalType": "uint256",
          "name": "_spread",
          "type": "uint256"
        },
        {
          "indexed": false,
          "internalType": "uint256",
          "name": "_positionLiquidationTimestamp",
          "type": "uint256"
        },
        {
          "indexed": false,
          "internalType": "uint256",
          "name": "_timeStamp",
          "type": "uint256"
        },
        {
          "indexed": false,
          "internalType": "uint256",
          "name": "_newLongShares",
          "type": "uint256"
        },
        {
          "indexed": false,
          "internalType": "uint256",
          "name": "_newShortShares",
          "type": "uint256"
        },
        {
          "indexed": false,
          "internalType": "uint256",
          "name": "_newMeanEntry",
          "type": "uint256"
        },
        {
          "indexed": false,
          "internalType": "uint256",
          "name": "_newMeanSprad",
          "type": "uint256"
        },
        {
          "indexed": false,
          "internalType": "uint256",
          "name": "_newMeanLeverage",
          "type": "uint256"
        },
        {
          "indexed": false,
          "internalType": "uint256",
          "name": "_liquidationPrice",
          "type": "uint256"
        }
      ],
      "name": "OrderProcessed",
      "type": "event"
    },
    {
      "anonymous": false,
      "inputs": [
        {
          "indexed": false,
          "internalType": "address",
          "name": "account",
          "type": "address"
        }
      ],
      "name": "Paused",
      "type": "event"
    },
    {
      "anonymous": false,
      "inputs": [
        {
          "indexed": false,
          "internalType": "uint256",
          "name": "_gasForCallback",
          "type": "uint256"
        }
      ],
      "name": "SetGasForCallback",
      "type": "event"
    },
    {
      "anonymous": false,
      "inputs": [
        {
          "indexed": false,
          "internalType": "address[]",
          "name": "_providers",
          "type": "address[]"
        }
      ],
      "name": "SetProviders",
      "type": "event"
    },
    {
      "anonymous": false,
      "inputs": [
        {
          "indexed": false,
          "internalType": "bool",
          "name": "_useWhiteList",
          "type": "bool"
        }
      ],
      "name": "SetUseWhiteList",
      "type": "event"
    },
    {
      "anonymous": false,
      "inputs": [
        {
          "indexed": false,
          "internalType": "address",
          "name": "account",
          "type": "address"
        }
      ],
      "name": "Unpaused",
      "type": "event"
    },
    {
      "inputs": [],
      "name": "ADMINISTRATOR_ROLE",
      "outputs": [
        {
          "internalType": "bytes32",
          "name": "",
          "type": "bytes32"
        }
      ],
      "stateMutability": "view",
      "type": "function",
      "constant": true
    },
    {
      "inputs": [],
      "name": "ORACLEOPERATOR_ROLE",
      "outputs": [
        {
          "internalType": "bytes32",
          "name": "",
          "type": "bytes32"
        }
      ],
      "stateMutability": "view",
      "type": "function",
      "constant": true
    },
    {
      "inputs": [],
      "name": "PAUSER_ROLE",
      "outputs": [
        {
          "internalType": "bytes32",
          "name": "",
          "type": "bytes32"
        }
      ],
      "stateMutability": "view",
      "type": "function",
      "constant": true
    },
    {
      "inputs": [
        {
          "internalType": "address",
          "name": "",
          "type": "address"
        }
      ],
      "name": "callBackAddress",
      "outputs": [
        {
          "internalType": "bool",
          "name": "",
          "type": "bool"
        }
      ],
      "stateMutability": "view",
      "type": "function",
      "constant": true
    },
    {
      "inputs": [],
      "name": "callBackCollectionAddress",
      "outputs": [
        {
          "internalType": "address payable",
          "name": "",
          "type": "address"
        }
      ],
      "stateMutability": "view",
      "type": "function",
      "constant": true
    },
    {
      "inputs": [],
      "name": "gasForCallback",
      "outputs": [
        {
          "internalType": "uint256",
          "name": "",
          "type": "uint256"
        }
      ],
      "stateMutability": "view",
      "type": "function",
      "constant": true
    },
    {
      "inputs": [
        {
          "internalType": "bytes32",
          "name": "",
          "type": "bytes32"
        }
      ],
      "name": "goodFrom",
      "outputs": [
        {
          "internalType": "uint256",
          "name": "",
          "type": "uint256"
        }
      ],
      "stateMutability": "view",
      "type": "function",
      "constant": true
    },
    {
      "inputs": [
        {
          "internalType": "bytes32",
          "name": "",
          "type": "bytes32"
        }
      ],
      "name": "goodUntil",
      "outputs": [
        {
          "internalType": "uint256",
          "name": "",
          "type": "uint256"
        }
      ],
      "stateMutability": "view",
      "type": "function",
      "constant": true
    },
    {
      "inputs": [
        {
          "internalType": "bytes32",
          "name": "",
          "type": "bytes32"
        }
      ],
      "name": "orderCancellationRequested",
      "outputs": [
        {
          "internalType": "bool",
          "name": "",
          "type": "bool"
        }
      ],
      "stateMutability": "view",
      "type": "function",
      "constant": true
    },
    {
      "inputs": [],
      "name": "paused",
      "outputs": [
        {
          "internalType": "bool",
          "name": "",
          "type": "bool"
        }
      ],
      "stateMutability": "view",
      "type": "function",
      "constant": true
    },
    {
      "inputs": [
        {
          "internalType": "bytes32",
          "name": "",
          "type": "bytes32"
        }
      ],
      "name": "priceAbove",
      "outputs": [
        {
          "internalType": "uint256",
          "name": "",
          "type": "uint256"
        }
      ],
      "stateMutability": "view",
      "type": "function",
      "constant": true
    },
    {
      "inputs": [
        {
          "internalType": "bytes32",
          "name": "",
          "type": "bytes32"
        }
      ],
      "name": "priceBelow",
      "outputs": [
        {
          "internalType": "uint256",
          "name": "",
          "type": "uint256"
        }
      ],
      "stateMutability": "view",
      "type": "function",
      "constant": true
    },
    {
      "inputs": [],
      "name": "useWhiteList",
      "outputs": [
        {
          "internalType": "bool",
          "name": "",
          "type": "bool"
        }
      ],
      "stateMutability": "view",
      "type": "function",
      "constant": true
    },
    {
      "inputs": [
        {
          "internalType": "address",
          "name": "",
          "type": "address"
        }
      ],
      "name": "whiteList",
      "outputs": [
        {
          "internalType": "bool",
          "name": "",
          "type": "bool"
        }
      ],
      "stateMutability": "view",
      "type": "function",
      "constant": true
    },
    {
      "inputs": [
        {
          "internalType": "address",
          "name": "_morpherState",
          "type": "address"
        },
        {
          "internalType": "address payable",
          "name": "_gasCollectionAddress",
          "type": "address"
        },
        {
          "internalType": "uint256",
          "name": "_gasForCallback",
          "type": "uint256"
        },
        {
          "internalType": "address[]",
          "name": "_providers",
          "type": "address[]"
        }
      ],
      "name": "initialize",
      "outputs": [],
      "stateMutability": "nonpayable",
      "type": "function"
    },
    {
      "inputs": [
        {
          "internalType": "address",
          "name": "_address",
          "type": "address"
        }
      ],
      "name": "setStateAddress",
      "outputs": [],
      "stateMutability": "nonpayable",
      "type": "function"
    },
    {
      "inputs": [
        {
          "internalType": "uint256",
          "name": "_gasForCallback",
          "type": "uint256"
        }
      ],
      "name": "overrideGasForCallback",
      "outputs": [],
      "stateMutability": "nonpayable",
      "type": "function"
    },
    {
      "inputs": [
        {
          "internalType": "address payable",
          "name": "_address",
          "type": "address"
        }
      ],
      "name": "setCallbackCollectionAddress",
      "outputs": [],
      "stateMutability": "nonpayable",
      "type": "function"
    },
    {
      "inputs": [
        {
          "internalType": "bytes32",
          "name": "_orderId",
          "type": "bytes32"
        },
        {
          "internalType": "address",
          "name": "_address",
          "type": "address"
        },
        {
          "internalType": "bytes32",
          "name": "_marketId",
          "type": "bytes32"
        },
        {
          "internalType": "uint256",
          "name": "_closeSharesAmount",
          "type": "uint256"
        },
        {
          "internalType": "uint256",
          "name": "_openMPHTokenAmount",
          "type": "uint256"
        },
        {
          "internalType": "bool",
          "name": "_tradeDirection",
          "type": "bool"
        },
        {
          "internalType": "uint256",
          "name": "_orderLeverage",
          "type": "uint256"
        },
        {
          "internalType": "uint256",
          "name": "_onlyIfPriceBelow",
          "type": "uint256"
        },
        {
          "internalType": "uint256",
          "name": "_onlyIfPriceAbove",
          "type": "uint256"
        },
        {
          "internalType": "uint256",
          "name": "_goodFrom",
          "type": "uint256"
        },
        {
          "internalType": "uint256",
          "name": "_goodUntil",
          "type": "uint256"
        }
      ],
      "name": "emitOrderFailed",
      "outputs": [],
      "stateMutability": "nonpayable",
      "type": "function"
    },
    {
      "inputs": [
        {
          "internalType": "bytes32",
          "name": "_marketId",
          "type": "bytes32"
        },
        {
          "internalType": "uint256",
          "name": "_closeSharesAmount",
          "type": "uint256"
        },
        {
          "internalType": "uint256",
          "name": "_openMPHTokenAmount",
          "type": "uint256"
        },
        {
          "internalType": "bool",
          "name": "_tradeDirection",
          "type": "bool"
        },
        {
          "internalType": "uint256",
          "name": "_orderLeverage",
          "type": "uint256"
        },
        {
          "internalType": "uint256",
          "name": "_onlyIfPriceAbove",
          "type": "uint256"
        },
        {
          "internalType": "uint256",
          "name": "_onlyIfPriceBelow",
          "type": "uint256"
        },
        {
          "internalType": "uint256",
          "name": "_goodUntil",
          "type": "uint256"
        },
        {
          "internalType": "uint256",
          "name": "_goodFrom",
          "type": "uint256"
        }
      ],
      "name": "createOrder",
      "outputs": [
        {
          "internalType": "bytes32",
          "name": "_orderId",
          "type": "bytes32"
        }
      ],
      "stateMutability": "payable",
      "type": "function",
      "payable": true
    },
    {
      "inputs": [
        {
          "internalType": "bytes32",
          "name": "_orderId",
          "type": "bytes32"
        }
      ],
      "name": "initiateCancelOrder",
      "outputs": [],
      "stateMutability": "nonpayable",
      "type": "function"
    },
    {
      "inputs": [
        {
          "internalType": "bytes32",
          "name": "_orderId",
          "type": "bytes32"
        }
      ],
      "name": "cancelOrder",
      "outputs": [],
      "stateMutability": "nonpayable",
      "type": "function"
    },
    {
      "inputs": [
        {
          "internalType": "bytes32",
          "name": "_orderId",
          "type": "bytes32"
        }
      ],
      "name": "adminCancelOrder",
      "outputs": [],
      "stateMutability": "nonpayable",
      "type": "function"
    },
    {
      "inputs": [
        {
          "internalType": "bytes32",
          "name": "_orderId",
          "type": "bytes32"
        },
        {
          "internalType": "uint256",
          "name": "_price",
          "type": "uint256"
        }
      ],
      "name": "checkOrderConditions",
      "outputs": [
        {
          "internalType": "bool",
          "name": "_conditionsMet",
          "type": "bool"
        }
      ],
      "stateMutability": "view",
      "type": "function",
      "constant": true
    },
    {
      "inputs": [],
      "name": "pause",
      "outputs": [],
      "stateMutability": "nonpayable",
      "type": "function"
    },
    {
      "inputs": [],
      "name": "unpause",
      "outputs": [],
      "stateMutability": "nonpayable",
      "type": "function"
    },
    {
      "inputs": [
        {
          "internalType": "address",
          "name": "_address",
          "type": "address"
        },
        {
          "internalType": "bytes32",
          "name": "_marketId",
          "type": "bytes32"
        }
      ],
      "name": "createLiquidationOrder",
      "outputs": [
        {
          "internalType": "bytes32",
          "name": "_orderId",
          "type": "bytes32"
        }
      ],
      "stateMutability": "payable",
      "type": "function",
      "payable": true
    },
    {
      "inputs": [
        {
          "internalType": "uint256",
          "name": "_requestId",
          "type": "uint256"
        },
        {
          "internalType": "uint256",
          "name": "_price",
          "type": "uint256"
        }
      ],
      "name": "__callback",
      "outputs": [],
      "stateMutability": "nonpayable",
      "type": "function"
    },
    {
      "inputs": [
        {
          "internalType": "bytes32",
          "name": "_marketId",
          "type": "bytes32"
        },
        {
          "internalType": "bool",
          "name": "_startFromScratch",
          "type": "bool"
        }
      ],
      "name": "delistMarket",
      "outputs": [],
      "stateMutability": "nonpayable",
      "type": "function"
    },
    {
      "inputs": [
        {
          "internalType": "address",
          "name": "_address",
          "type": "address"
        },
        {
          "internalType": "bytes32",
          "name": "_marketId",
          "type": "bytes32"
        }
      ],
      "name": "adminLiquidationOrder",
      "outputs": [
        {
          "internalType": "bytes32",
          "name": "_orderId",
          "type": "bytes32"
        }
      ],
      "stateMutability": "nonpayable",
      "type": "function"
    },
    {
      "inputs": [
        {
          "internalType": "uint256",
          "name": "orderId",
          "type": "uint256"
        }
      ],
      "name": "getTradeEngineFromOrderId",
      "outputs": [
        {
          "internalType": "address",
          "name": "",
          "type": "address"
        }
      ],
      "stateMutability": "view",
      "type": "function",
      "constant": true
    }
  ],
  "bytecode": "0x608060405234801561001057600080fd5b506139f5806100206000396000f3fe6080604052600436106101d85760003560e01c806375d5755c11610102578063aeb2cc3311610095578063d99f867411610064578063d99f867414610591578063e087e3ce146105b2578063e63ab1e9146105df578063f45edb5f1461061357600080fd5b8063aeb2cc33146104ea578063b95e437b14610517578063c7f4532d14610537578063d204bc6c1461056457600080fd5b806385e75e72116100d157806385e75e721461046757806388deab73146104875780638adbe72f146104a757806399614d18146104d757600080fd5b806375d5755c146103f25780637848d1df146104125780637e031af2146104325780638456cb591461045257600080fd5b80633f4ba83a1161017a57806367aa1e0f1161014957806367aa1e0f146103625780636b0ed36e146103825780637489ec23146103b257806374d94024146103d257600080fd5b80633f4ba83a146102ea5780634c79fdf9146102ff57806350a5fdef146103375780635c975abb1461034a57600080fd5b80633102e5ab116101b65780633102e5ab1461024a578063372c12b11461026a57806338bd3ad1146102aa5780633a196bab146102ca57600080fd5b806316afdfd3146101dd5780631c4c7fd8146102065780632ac21a4814610228575b600080fd5b3480156101e957600080fd5b506101f360665481565b6040519081526020015b60405180910390f35b34801561021257600080fd5b50610226610221366004613292565b610635565b005b34801561023457600080fd5b506101f36000805160206139a083398151915281565b34801561025657600080fd5b506102266102653660046132b6565b6107a9565b34801561027657600080fd5b5061029a610285366004613292565b60696020526000908152604090205460ff1681565b60405190151581526020016101fd565b3480156102b657600080fd5b506102266102c53660046132d8565b61087c565b3480156102d657600080fd5b506102266102e53660046132ff565b610b4e565b3480156102f657600080fd5b50610226610fe1565b34801561030b57600080fd5b5061031f61031a3660046132d8565b611113565b6040516001600160a01b0390911681526020016101fd565b6101f361034536600461332f565b611187565b34801561035657600080fd5b5060335460ff1661029a565b34801561036e57600080fd5b5060675461031f906001600160a01b031681565b34801561038e57600080fd5b5061029a61039d3660046132d8565b606e6020526000908152604090205460ff1681565b3480156103be57600080fd5b506102266103cd3660046132d8565b611473565b3480156103de57600080fd5b506102266103ed3660046132d8565b6117c5565b3480156103fe57600080fd5b5061022661040d36600461335b565b611a04565b34801561041e57600080fd5b506101f361042d36600461332f565b611ab9565b34801561043e57600080fd5b5061029a61044d3660046132b6565b611f93565b34801561045e57600080fd5b506102266120ce565b34801561047357600080fd5b506102266104823660046132d8565b6121fd565b34801561049357600080fd5b506102266104a2366004613292565b612347565b3480156104b357600080fd5b5061029a6104c2366004613292565b60686020526000908152604090205460ff1681565b6101f36104e53660046133fd565b6124aa565b3480156104f657600080fd5b506101f36105053660046132d8565b606b6020526000908152604090205481565b34801561052357600080fd5b5061022661053236600461346c565b612b90565b34801561054357600080fd5b506101f36105523660046132d8565b606d6020526000908152604090205481565b34801561057057600080fd5b506101f361057f3660046132d8565b606a6020526000908152604090205481565b34801561059d57600080fd5b5060655461029a90600160a01b900460ff1681565b3480156105be57600080fd5b506101f36105cd3660046132d8565b606c6020526000908152604090205481565b3480156105eb57600080fd5b506101f37f65d7a28e3265b37a6474929f336521b332c1681b933f6cb9f3376673440d862a81565b34801561061f57600080fd5b506101f360008051602061398083398151915281565b60655460408051630140cb6560e51b81529051600080516020613980833981519152926001600160a01b0316916328196ca09160048083019260209291908290030181865afa15801561068c573d6000803e3d6000fd5b505050506040513d601f19601f820116820180604052508101906106b091906134fc565b6001600160a01b03166391d1485482336040516001600160e01b031960e085901b16815260048101929092526001600160a01b03166024820152604401602060405180830381865afa15801561070a573d6000803e3d6000fd5b505050506040513d601f19601f8201168201806040525081019061072e9190613519565b6107535760405162461bcd60e51b815260040161074a90613536565b60405180910390fd5b606580546001600160a01b0319166001600160a01b0384169081179091556040519081527f9ceaf926f42b3faf9a5f7f52388397891ad1608576994e5c3b2d055a09bb225f906020015b60405180910390a15050565b6010331461080a5760405162461bcd60e51b815260206004820152602860248201527f4f6e6c7920436861696e204f7261636c652063616e2063616c6c207468697320604482015267333ab731ba34b7b760c11b606482015260840161074a565b60335460ff161561082d5760405162461bcd60e51b815260040161074a90613577565b600061083e6402540be400836135b7565b9050600061084e6103e8836135b7565b90506108756071600086815260200190815260200160002054838484600042606654612d28565b5050505050565b60655460408051630140cb6560e51b815290516000805160206139a0833981519152926001600160a01b0316916328196ca09160048083019260209291908290030181865afa1580156108d3573d6000803e3d6000fd5b505050506040513d601f19601f820116820180604052508101906108f791906134fc565b6001600160a01b03166391d1485482336040516001600160e01b031960e085901b16815260048101929092526001600160a01b03166024820152604401602060405180830381865afa158015610951573d6000803e3d6000fd5b505050506040513d601f19601f820116820180604052508101906109759190613519565b6109915760405162461bcd60e51b815260040161074a90613536565b6065546040805163d37afa8d60e01b815290516000926001600160a01b03169163d37afa8d9160048083019260209291908290030181865afa1580156109db573d6000803e3d6000fd5b505050506040513d601f19601f820116820180604052508101906109ff91906134fc565b604051632bbc239560e11b8152600481018590529091506000906001600160a01b03831690635778472a9060240160e060405180830381865afa158015610a4a573d6000803e3d6000fd5b505050506040513d601f19601f82011682018060405250810190610a6e91906135d9565b5050604051636b0d76bd60e11b8152600481018a90526001600160a01b0380871660248301529596509487169463d61aed7a94506044019250610aaf915050565b600060405180830381600087803b158015610ac957600080fd5b505af1158015610add573d6000803e3d6000fd5b5050506000858152606b60209081526040808320839055606a8252808320839055606c8252808320839055606d909152808220829055513392506001600160a01b0384169187917fbda7bebff2a349d53ff61a2f625aba38b63add7de03f20f568c660aaf3c61f519190a450505050565b60655460408051630140cb6560e51b81529051600080516020613980833981519152926001600160a01b0316916328196ca09160048083019260209291908290030181865afa158015610ba5573d6000803e3d6000fd5b505050506040513d601f19601f82011682018060405250810190610bc991906134fc565b6001600160a01b03166391d1485482336040516001600160e01b031960e085901b16815260048101929092526001600160a01b03166024820152604401602060405180830381865afa158015610c23573d6000803e3d6000fd5b505050506040513d601f19601f82011682018060405250810190610c479190613519565b610c635760405162461bcd60e51b815260040161074a90613536565b606554604051634a4cce9760e01b8152600481018590526001600160a01b0390911690634a4cce9790602401602060405180830381865afa158015610cac573d6000803e3d6000fd5b505050506040513d601f19601f82011682018060405250810190610cd09190613519565b1515600114610d475760405162461bcd60e51b815260206004820152603760248201527f4d61726b6574206d7573742062652061637469766520746f2070726f6365737360448201527f20706f736974696f6e206c69717569646174696f6e732e000000000000000000606482015260840161074a565b8115610d535760006072555b6065546040805163d37afa8d60e01b815290516000926001600160a01b03169163d37afa8d9160048083019260209291908290030181865afa158015610d9d573d6000803e3d6000fd5b505050506040513d601f19601f82011682018060405250810190610dc191906134fc565b6001600160a01b031663ef92f831856040518263ffffffff1660e01b8152600401610dee91815260200190565b602060405180830381865afa158015610e0b573d6000803e3d6000fd5b505050506040513d601f19601f82011682018060405250810190610e2f9190613636565b6072549091506000905b828111610fa6576203d0905a108015610e525750828114155b15610e9e57607281905560408051878152602081018590527f6f7e2b4e250b68477086154afade591035c41aae27a60e044260f031e0f6a1ff91015b60405180910390a1505050505050565b606560009054906101000a90046001600160a01b03166001600160a01b031663d37afa8d6040518163ffffffff1660e01b8152600401602060405180830381865afa158015610ef1573d6000803e3d6000fd5b505050506040513d601f19601f82011682018060405250810190610f1591906134fc565b604051632d7b42c160e01b815260048101889052602481018390526001600160a01b039190911690632d7b42c190604401602060405180830381865afa158015610f63573d6000803e3d6000fd5b505050506040513d601f19601f82011682018060405250810190610f8791906134fc565b9150610f938287611ab9565b5080610f9e8161364f565b915050610e39565b506040518581527f89d629fd4446c04fb00ba5e14060971d7cc08049bb55786f1bb8d4294a5bb95c9060200160405180910390a15050505050565b60655460408051630140cb6560e51b815290517f65d7a28e3265b37a6474929f336521b332c1681b933f6cb9f3376673440d862a926001600160a01b0316916328196ca09160048083019260209291908290030181865afa15801561104a573d6000803e3d6000fd5b505050506040513d601f19601f8201168201806040525081019061106e91906134fc565b6001600160a01b03166391d1485482336040516001600160e01b031960e085901b16815260048101929092526001600160a01b03166024820152604401602060405180830381865afa1580156110c8573d6000803e3d6000fd5b505050506040513d601f19601f820116820180604052508101906110ec9190613519565b6111085760405162461bcd60e51b815260040161074a90613536565b611110612f8e565b50565b6065546040805163d37afa8d60e01b815290516000926001600160a01b03169163d37afa8d9160048083019260209291908290030181865afa15801561115d573d6000803e3d6000fd5b505050506040513d601f19601f8201168201806040525081019061118191906134fc565b92915050565b600061119560335460ff1690565b156111b25760405162461bcd60e51b815260040161074a90613577565b60655460408051630140cb6560e51b815290516000805160206139a0833981519152926001600160a01b0316916328196ca09160048083019260209291908290030181865afa158015611209573d6000803e3d6000fd5b505050506040513d601f19601f8201168201806040525081019061122d91906134fc565b6001600160a01b03166391d1485482336040516001600160e01b031960e085901b16815260048101929092526001600160a01b03166024820152604401602060405180830381865afa158015611287573d6000803e3d6000fd5b505050506040513d601f19601f820116820180604052508101906112ab9190613519565b6112c75760405162461bcd60e51b815260040161074a90613536565b6066541561132c576066543410156112f15760405162461bcd60e51b815260040161074a9061366a565b6067546040516001600160a01b03909116903480156108fc02916000818181858888f1935050505015801561132a573d6000803e3d6000fd5b505b606560009054906101000a90046001600160a01b03166001600160a01b031663d37afa8d6040518163ffffffff1660e01b8152600401602060405180830381865afa15801561137f573d6000803e3d6000fd5b505050506040513d601f19601f820116820180604052508101906113a391906134fc565b6001600160a01b031663ac8f6f7f858560008060016305f5e1006040518763ffffffff1660e01b81526004016113de969594939291906136d4565b6020604051808303816000875af11580156113fd573d6000803e3d6000fd5b505050506040513d601f19601f820116820180604052508101906114219190613636565b9150826001600160a01b038516837f1e73a21af9c77a375ee7275ea920afd5c4b6170bc8e21c0cfeeae8139a3cea09336040516001600160a01b03909116815260200160405180910390a45092915050565b60655460408051630140cb6560e51b815290516000805160206139a0833981519152926001600160a01b0316916328196ca09160048083019260209291908290030181865afa1580156114ca573d6000803e3d6000fd5b505050506040513d601f19601f820116820180604052508101906114ee91906134fc565b6001600160a01b03166391d1485482336040516001600160e01b031960e085901b16815260048101929092526001600160a01b03166024820152604401602060405180830381865afa158015611548573d6000803e3d6000fd5b505050506040513d601f19601f8201168201806040525081019061156c9190613519565b6115885760405162461bcd60e51b815260040161074a90613536565b6000828152606e602052604090205460ff1615156001146116085760405162461bcd60e51b815260206004820152603460248201527f4d6f72706865724f7261636c653a204f726465722d43616e63656c6c6174696f60448201527337103bb0b9903737ba103932b8bab2b9ba32b21760611b606482015260840161074a565b6065546040805163d37afa8d60e01b815290516000926001600160a01b03169163d37afa8d9160048083019260209291908290030181865afa158015611652573d6000803e3d6000fd5b505050506040513d601f19601f8201168201806040525081019061167691906134fc565b604051632bbc239560e11b8152600481018590529091506000906001600160a01b03831690635778472a9060240160e060405180830381865afa1580156116c1573d6000803e3d6000fd5b505050506040513d601f19601f820116820180604052508101906116e591906135d9565b5050604051636b0d76bd60e11b8152600481018a90526001600160a01b0380871660248301529596509487169463d61aed7a94506044019250611726915050565b600060405180830381600087803b15801561174057600080fd5b505af1158015611754573d6000803e3d6000fd5b5050506000858152606b60209081526040808320839055606a8252808320839055606c8252808320839055606d909152808220829055513392506001600160a01b0384169187917f6bacc01dbe442496068f7d234edd811f1a5f833243e0aec824f86ab861f3c90d9190a450505050565b6065546040805163d37afa8d60e01b815290516000926001600160a01b03169163d37afa8d9160048083019260209291908290030181865afa15801561180f573d6000803e3d6000fd5b505050506040513d601f19601f8201168201806040525081019061183391906134fc565b6000838152606e602052604090205490915060ff16156118a85760405162461bcd60e51b815260206004820152602a60248201527f4d6f72706865724f7261636c653a204f726465722077617320616c72656164796044820152691031b0b731b2b632b21760b11b606482015260840161074a565b604051632bbc239560e11b8152600481018390526000906001600160a01b03831690635778472a9060240160e060405180830381865afa1580156118f0573d6000803e3d6000fd5b505050506040513d601f19601f8201168201806040525081019061191491906135d9565b50505050505090506119233390565b6001600160a01b0316816001600160a01b0316146119a95760405162461bcd60e51b815260206004820152603f60248201527f4d6f72706865724f7261636c653a204f6e6c792074686520757365722063616e60448201527f207265717565737420616e206f726465722063616e63656c6c6174696f6e2e00606482015260840161074a565b6000838152606e60205260409020805460ff191660011790556119c93390565b6001600160a01b0316837f02487731041c5966b7038b3e0d347a232658f9e76e79848ed5fa003ca5f2506360405160405180910390a3505050565b6000611a106001613021565b90508015611a28576000805461ff0019166101001790555b611a306130a9565b611a386130d2565b606580546001600160a01b0319166001600160a01b038816179055611a5c85612347565b611a6584613101565b611a6f838361313c565b8015611ab1576000805461ff0019169055604051600181527f7f26b83ff96e1f2b6a682f133852f6798a09c465da95921460cefb384740249890602001610e8e565b505050505050565b6000600080516020613980833981519152606560009054906101000a90046001600160a01b03166001600160a01b03166328196ca06040518163ffffffff1660e01b8152600401602060405180830381865afa158015611b1d573d6000803e3d6000fd5b505050506040513d601f19601f82011682018060405250810190611b4191906134fc565b6001600160a01b03166391d1485482336040516001600160e01b031960e085901b16815260048101929092526001600160a01b03166024820152604401602060405180830381865afa158015611b9b573d6000803e3d6000fd5b505050506040513d601f19601f82011682018060405250810190611bbf9190613519565b611bdb5760405162461bcd60e51b815260040161074a90613536565b6065546040805163d37afa8d60e01b815290516000926001600160a01b03169163d37afa8d9160048083019260209291908290030181865afa158015611c25573d6000803e3d6000fd5b505050506040513d601f19601f82011682018060405250810190611c4991906134fc565b6040516307d47a8b60e11b81526001600160a01b038781166004830152602482018790529190911690630fa8f5169060440161010060405180830381865afa158015611c99573d6000803e3d6000fd5b505050506040513d601f19601f82011682018060405250810190611cbd9190613709565b602081015190915015611e2757606560009054906101000a90046001600160a01b03166001600160a01b031663d37afa8d6040518163ffffffff1660e01b8152600401602060405180830381865afa158015611d1d573d6000803e3d6000fd5b505050506040513d601f19601f82011682018060405250810190611d4191906134fc565b6001600160a01b031663ac8f6f7f868684602001516000806305f5e1006040518763ffffffff1660e01b8152600401611d7f969594939291906136d4565b6020604051808303816000875af1158015611d9e573d6000803e3d6000fd5b505050506040513d601f19601f82011682018060405250810190611dc29190613636565b6020808301516040805191825260009282018390528101919091526305f5e100606082015290935084906001600160a01b0387169085907f68909f9be64c2fb9036bc6c47d8cff89160ee7f28d4e14082931cfcc8e980d779060800160405180910390a45b604081015115611f8b57606560009054906101000a90046001600160a01b03166001600160a01b031663d37afa8d6040518163ffffffff1660e01b8152600401602060405180830381865afa158015611e84573d6000803e3d6000fd5b505050506040513d601f19601f82011682018060405250810190611ea891906134fc565b6001600160a01b031663ac8f6f7f86868460400151600060016305f5e1006040518763ffffffff1660e01b8152600401611ee7969594939291906136d4565b6020604051808303816000875af1158015611f06573d6000803e3d6000fd5b505050506040513d601f19601f82011682018060405250810190611f2a9190613636565b6040828101518151908152600060208201526001818301526305f5e1006060820152905191945085916001600160a01b0388169186917f68909f9be64c2fb9036bc6c47d8cff89160ee7f28d4e14082931cfcc8e980d779181900360800190a45b505092915050565b6000828152606d602052604090205460019042118015611fc057506000838152606d602052604090205415155b15611fc9575060005b6000838152606c602052604090205442108015611ff357506000838152606c602052604090205415155b15611ffc575060005b6000838152606b60205260409020541580159061202657506000838152606a602052604090205415155b15612063576000838152606b60205260409020548210801561205557506000838152606a602052604090205482115b1561205e575060005b611181565b6000838152606b60205260409020548210801561208d57506000838152606b602052604090205415155b15612096575060005b6000838152606a6020526040902054821180156120c057506000838152606a602052604090205415155b156111815750600092915050565b60655460408051630140cb6560e51b815290517f65d7a28e3265b37a6474929f336521b332c1681b933f6cb9f3376673440d862a926001600160a01b0316916328196ca09160048083019260209291908290030181865afa158015612137573d6000803e3d6000fd5b505050506040513d601f19601f8201168201806040525081019061215b91906134fc565b6001600160a01b03166391d1485482336040516001600160e01b031960e085901b16815260048101929092526001600160a01b03166024820152604401602060405180830381865afa1580156121b5573d6000803e3d6000fd5b505050506040513d601f19601f820116820180604052508101906121d99190613519565b6121f55760405162461bcd60e51b815260040161074a90613536565b61111061317a565b60655460408051630140cb6560e51b81529051600080516020613980833981519152926001600160a01b0316916328196ca09160048083019260209291908290030181865afa158015612254573d6000803e3d6000fd5b505050506040513d601f19601f8201168201806040525081019061227891906134fc565b6001600160a01b03166391d1485482336040516001600160e01b031960e085901b16815260048101929092526001600160a01b03166024820152604401602060405180830381865afa1580156122d2573d6000803e3d6000fd5b505050506040513d601f19601f820116820180604052508101906122f69190613519565b6123125760405162461bcd60e51b815260040161074a90613536565b60668290556040518281527f0a20b6289d596db2ac25c70c6c69f5e39361ed00454ab483397db8c744ec0b319060200161079d565b60655460408051630140cb6560e51b81529051600080516020613980833981519152926001600160a01b0316916328196ca09160048083019260209291908290030181865afa15801561239e573d6000803e3d6000fd5b505050506040513d601f19601f820116820180604052508101906123c291906134fc565b6001600160a01b03166391d1485482336040516001600160e01b031960e085901b16815260048101929092526001600160a01b03166024820152604401602060405180830381865afa15801561241c573d6000803e3d6000fd5b505050506040513d601f19601f820116820180604052508101906124409190613519565b61245c5760405162461bcd60e51b815260040161074a90613536565b606780546001600160a01b0319166001600160a01b0384169081179091556040519081527f1cd1802fd5b9e82a19a67f7a572c9be656c58ffe140184139d1708b2cfe3a8dc9060200161079d565b60006124b860335460ff1690565b156124d55760405162461bcd60e51b815260040161074a90613577565b6066541561253a576066543410156124ff5760405162461bcd60e51b815260040161074a9061366a565b6067546040516001600160a01b03909116903480156108fc02916000818181858888f19350505050158015612538573d6000803e3d6000fd5b505b606560009054906101000a90046001600160a01b03166001600160a01b031663d37afa8d6040518163ffffffff1660e01b8152600401602060405180830381865afa15801561258d573d6000803e3d6000fd5b505050506040513d601f19601f820116820180604052508101906125b191906134fc565b6001600160a01b031663ac8f6f7f338c8c8c8c8c6040518763ffffffff1660e01b81526004016125e6969594939291906136d4565b6020604051808303816000875af1158015612605573d6000803e3d6000fd5b505050506040513d601f19601f820116820180604052508101906126299190613636565b606554604051634a4cce9760e01b8152600481018d90529192506001600160a01b031690634a4cce9790602401602060405180830381865afa158015612673573d6000803e3d6000fd5b505050506040513d601f19601f820116820180604052508101906126979190613519565b6129d757606560009054906101000a90046001600160a01b03166001600160a01b031663d37afa8d6040518163ffffffff1660e01b8152600401602060405180830381865afa1580156126ee573d6000803e3d6000fd5b505050506040513d601f19601f8201168201806040525081019061271291906134fc565b6001600160a01b03166316f77a5b82606560009054906101000a90046001600160a01b03166001600160a01b031663d37afa8d6040518163ffffffff1660e01b8152600401602060405180830381865afa158015612774573d6000803e3d6000fd5b505050506040513d601f19601f8201168201806040525081019061279891906134fc565b6001600160a01b031663a386fb568e6040518263ffffffff1660e01b81526004016127c591815260200190565b602060405180830381865afa1580156127e2573d6000803e3d6000fd5b505050506040513d601f19601f820116820180604052508101906128069190613636565b600080612815426103e86137a7565b6040516001600160e01b031960e088901b1681526004810195909552602485019390935260448401919091526064830152608482015260a401610100604051808303816000875af115801561286e573d6000803e3d6000fd5b505050506040513d601f19601f820116820180604052508101906128929190613709565b50807ff45eeb03060db0baf36cec20acde5e8464f49340c9877c55029d6ffe0e5cdac1606560009054906101000a90046001600160a01b03166001600160a01b031663d37afa8d6040518163ffffffff1660e01b8152600401602060405180830381865afa158015612908573d6000803e3d6000fd5b505050506040513d601f19601f8201168201806040525081019061292c91906134fc565b6001600160a01b031663a386fb568d6040518263ffffffff1660e01b815260040161295991815260200190565b602060405180830381865afa158015612976573d6000803e3d6000fd5b505050506040513d601f19601f8201168201806040525081019061299a9190613636565b600080806129aa426103e86137a7565b6000806000806000806040516129ca9b9a999897969594939291906137c6565b60405180910390a2612b83565b6000818152606b60209081526040808320889055606a8252808320879055606c8252808320859055606d90915280822085905551635243ca6d60e11b815260109063a48794da90612a2d90606f9060040161385d565b602060405180830381865afa158015612a4a573d6000803e3d6000fd5b505050506040513d601f19601f82011682018060405250810190612a6e9190613636565b905080471015612af15760405162461bcd60e51b815260206004820152604260248201527f4e6f7420656e6f7567682066756e647320696e204d6f7270686572204f72616360448201527f6c6520636f6e747261637420746f2070617920666f72206f7261636c65206461606482015261746160f01b608482015260a40161074a565b60106001600160a01b0316635ba54556826070548e606f6040518563ffffffff1660e01b8152600401612b2693929190613870565b6000604051808303818588803b158015612b3f57600080fd5b505af1158015612b53573d6000803e3d6000fd5b5050607080546000908152607160205260408120879055815494509092509050612b7c8361364f565b9190505550505b9998505050505050505050565b60655460408051630140cb6560e51b815290516000805160206139a0833981519152926001600160a01b0316916328196ca09160048083019260209291908290030181865afa158015612be7573d6000803e3d6000fd5b505050506040513d601f19601f82011682018060405250810190612c0b91906134fc565b6001600160a01b03166391d1485482336040516001600160e01b031960e085901b16815260048101929092526001600160a01b03166024820152604401602060405180830381865afa158015612c65573d6000803e3d6000fd5b505050506040513d601f19601f82011682018060405250810190612c899190613519565b612ca55760405162461bcd60e51b815260040161074a90613536565b604080518a8152602081018a905288151581830152606081018890526080810187905260a0810186905260c0810185905260e0810184905290518b916001600160a01b038e16918f917fe27c49d1eafe79b2bc5109b33b96343dba653822906061750c5b6f591b8c753191908190036101000190a4505050505050505050505050565b612d7360405180610100016040528060008152602001600081526020016000815260200160008152602001600081526020016000815260200160008152602001600080191681525090565b612d7d8888611f93565b612de35760405162461bcd60e51b815260206004820152603160248201527f4d6f72706865724f7261636c65204572726f723a204f7264657220436f6e64696044820152701d1a5bdb9cc8185c99481b9bdd081b595d607a1b606482015260840161074a565b606560009054906101000a90046001600160a01b03166001600160a01b031663d37afa8d6040518163ffffffff1660e01b8152600401602060405180830381865afa158015612e36573d6000803e3d6000fd5b505050506040513d601f19601f82011682018060405250810190612e5a91906134fc565b6040516316f77a5b60e01b8152600481018a9052602481018990526044810187905260648101869052608481018590526001600160a01b0391909116906316f77a5b9060a401610100604051808303816000875af1158015612ec0573d6000803e3d6000fd5b505050506040513d601f19601f82011682018060405250810190612ee49190613709565b6000898152606b60209081526040808320839055606a8252808320839055606c8252808320839055606d9091528120559050877ff45eeb03060db0baf36cec20acde5e8464f49340c9877c55029d6ffe0e5cdac188888888888760200151886040015189606001518a608001518b60a001518c60c00151604051612f729b9a999897969594939291906137c6565b60405180910390a2612f8382613101565b979650505050505050565b60335460ff16612fd75760405162461bcd60e51b815260206004820152601460248201527314185d5cd8589b194e881b9bdd081c185d5cd95960621b604482015260640161074a565b6033805460ff191690557f5db9ee0a495bf2e6ff9c91a7834c1ba4fdd244a5e8aa4e537bd38aeae4b073aa335b6040516001600160a01b03909116815260200160405180910390a1565b60008054610100900460ff1615613068578160ff1660011480156130445750303b155b6130605760405162461bcd60e51b815260040161074a90613898565b506000919050565b60005460ff80841691161061308f5760405162461bcd60e51b815260040161074a90613898565b506000805460ff191660ff92909216919091179055600190565b600054610100900460ff166130d05760405162461bcd60e51b815260040161074a906138e6565b565b600054610100900460ff166130f95760405162461bcd60e51b815260040161074a906138e6565b6130d06131d2565b60668190556040518181527f0a20b6289d596db2ac25c70c6c69f5e39361ed00454ab483397db8c744ec0b319060200160405180910390a150565b613148606f8383613205565b507f888955b2c1ee0adba9ef76012828afc89f37819d69e4399e04e9acc1f9bd6384828260405161079d929190613931565b60335460ff161561319d5760405162461bcd60e51b815260040161074a90613577565b6033805460ff191660011790557f62e78cea01bee320cd4e420270b5ea74000d11b0c9f74754ebdbfc544b05a2586130043390565b600054610100900460ff166131f95760405162461bcd60e51b815260040161074a906138e6565b6033805460ff19169055565b828054828255906000526020600020908101928215613258579160200282015b828111156132585781546001600160a01b0319166001600160a01b03843516178255602090920191600190910190613225565b50613264929150613268565b5090565b5b808211156132645760008155600101613269565b6001600160a01b038116811461111057600080fd5b6000602082840312156132a457600080fd5b81356132af8161327d565b9392505050565b600080604083850312156132c957600080fd5b50508035926020909101359150565b6000602082840312156132ea57600080fd5b5035919050565b801515811461111057600080fd5b6000806040838503121561331257600080fd5b823591506020830135613324816132f1565b809150509250929050565b6000806040838503121561334257600080fd5b823561334d8161327d565b946020939093013593505050565b60008060008060006080868803121561337357600080fd5b853561337e8161327d565b9450602086013561338e8161327d565b935060408601359250606086013567ffffffffffffffff808211156133b257600080fd5b818801915088601f8301126133c657600080fd5b8135818111156133d557600080fd5b8960208260051b85010111156133ea57600080fd5b9699959850939650602001949392505050565b60008060008060008060008060006101208a8c03121561341c57600080fd5b8935985060208a0135975060408a0135965060608a013561343c816132f1565b989b979a50959860808101359760a0820135975060c0820135965060e08201359550610100909101359350915050565b60008060008060008060008060008060006101608c8e03121561348e57600080fd5b8b359a5060208c01356134a08161327d565b995060408c0135985060608c0135975060808c0135965060a08c01356134c5816132f1565b9a9d999c50979a9699959895975050505060c08401359360e081013593610100820135935061012082013592506101409091013590565b60006020828403121561350e57600080fd5b81516132af8161327d565b60006020828403121561352b57600080fd5b81516132af816132f1565b60208082526021908201527f4d6f72706865724f7261636c653a205065726d697373696f6e2064656e6965646040820152601760f91b606082015260800190565b60208082526010908201526f14185d5cd8589b194e881c185d5cd95960821b604082015260600190565b634e487b7160e01b600052601160045260246000fd5b6000826135d457634e487b7160e01b600052601260045260246000fd5b500490565b600080600080600080600060e0888a0312156135f457600080fd5b87516135ff8161327d565b602089015160408a015160608b015160808c015160a08d015160c0909d0151949e939d50919b909a50909850965090945092505050565b60006020828403121561364857600080fd5b5051919050565b6000600019821415613663576136636135a1565b5060010190565b60208082526044908201527f4d6f72706865724f7261636c653a204d757374207472616e736665722067617360408201527f20636f73747320666f72204f7261636c652043616c6c6261636b2066756e637460608201526334b7b71760e11b608082015260a00190565b6001600160a01b039690961686526020860194909452604085019290925260608401521515608083015260a082015260c00190565b600061010080838503121561371d57600080fd5b6040519081019067ffffffffffffffff8211818310171561374e57634e487b7160e01b600052604160045260246000fd5b81604052835181526020840151602082015260408401516040820152606084015160608201526080840151608082015260a084015160a082015260c084015160c082015260e084015160e0820152809250505092915050565b60008160001904831182151516156137c1576137c16135a1565b500290565b9a8b5260208b019990995260408a01979097526060890195909552608088019390935260a087019190915260c086015260e08501526101008401526101208301526101408201526101600190565b6000815480845260208085019450836000528060002060005b838110156138525781546001600160a01b03168752958201956001918201910161382d565b509495945050505050565b6020815260006132af6020830184613814565b83815282602082015260606040820152600061388f6060830184613814565b95945050505050565b6020808252602e908201527f496e697469616c697a61626c653a20636f6e747261637420697320616c72656160408201526d191e481a5b9a5d1a585b1a5e995960921b606082015260800190565b6020808252602b908201527f496e697469616c697a61626c653a20636f6e7472616374206973206e6f74206960408201526a6e697469616c697a696e6760a81b606082015260800190565b60208082528181018390526000908460408401835b868110156139745782356139598161327d565b6001600160a01b031682529183019190830190600101613946565b50969550505050505056fee5a0b4d50f56047f84728557fedbda92f956391bc9d5c762e8461996dd8e7ad7456e80d7f83ecad5376797c2562c7d48cc4873cf784699120b78efad9ba18ecca2646970667358221220c371ad2c450672d4e8dcd339a177c830f1af2d5b62913b35693f72e2f1048ad164736f6c634300080b0033",
  "immutableReferences": {},
  "source": "//SPDX-License-Identifier: GPLv3\r\npragma solidity 0.8.11;\r\n\r\nimport \"./MorpherTradeEngine.sol\";\r\nimport \"./MorpherState.sol\";\r\nimport \"./MorpherAccessControl.sol\";\r\nimport \"./interfaces/CallbackableContract.sol\";\r\nimport \"./DataChainOracle.sol\";\r\n\r\nimport \"@openzeppelin/contracts-upgradeable/utils/cryptography/MerkleProofUpgradeable.sol\";\r\nimport \"@openzeppelin/contracts-upgradeable/proxy/utils/Initializable.sol\";\r\nimport \"@openzeppelin/contracts-upgradeable/utils/ContextUpgradeable.sol\";\r\nimport \"@openzeppelin/contracts-upgradeable/security/PausableUpgradeable.sol\";\r\n\r\n\r\n// ----------------------------------------------------------------------------------\r\n// Morpher Oracle contract v 2.0\r\n// The oracle initates a new trade by calling trade engine and requesting a new orderId.\r\n// An event is fired by the contract notifying the oracle operator to query a price/liquidation unchecked\r\n// for a market/user and return the information via the callback function. Since calling\r\n// the callback function requires gas, the user must send a fixed amount of Ether when\r\n// creating their order.\r\n// ----------------------------------------------------------------------------------\r\n\r\ncontract MorpherOracle is Initializable, ContextUpgradeable, PausableUpgradeable, CallbackableContract {\r\n\r\n    MorpherState state; // read only, Oracle doesn't need writing access to state\r\n\r\n    bool public useWhiteList; //always false at the moment\r\n\r\n    uint256 public gasForCallback;\r\n\r\n    address payable public callBackCollectionAddress;\r\n\r\n    mapping(address => bool) public callBackAddress;\r\n    mapping(address => bool) public whiteList;\r\n    \r\n    mapping(bytes32 => uint256) public priceBelow;\r\n    mapping(bytes32 => uint256) public priceAbove;\r\n    mapping(bytes32 => uint256) public goodFrom;\r\n    mapping(bytes32 => uint256) public goodUntil;\r\n\r\n    mapping(bytes32 => bool) public orderCancellationRequested;\r\n\r\n    /**\r\n     * ROLES KNOWN TO ORACLE\r\n     */\r\n    bytes32 constant public ADMINISTRATOR_ROLE = keccak256(\"ADMINISTRATOR_ROLE\");\r\n    bytes32 constant public ORACLEOPERATOR_ROLE = keccak256(\"ORACLEOPERATOR_ROLE\"); //used for callbacks from API\r\n    bytes32 constant public PAUSER_ROLE = keccak256(\"PAUSER_ROLE\"); //can pause oracle\r\n\r\n    DataChainOracle constant oracle = DataChainOracle(address(0x10));\r\n    address[] providers;\r\n    uint256 requestIds;\r\n    mapping(uint256 => bytes32) requestOrder;\r\n\r\n// ----------------------------------------------------------------------------------\r\n// Events\r\n// ----------------------------------------------------------------------------------\r\n    event OrderCreated(\r\n        bytes32 indexed _orderId,\r\n        address indexed _address,\r\n        bytes32 indexed _marketId,\r\n        uint256 _closeSharesAmount,\r\n        uint256 _openMPHTokenAmount,\r\n        bool _tradeDirection,\r\n        uint256 _orderLeverage,\r\n        uint256 _onlyIfPriceBelow,\r\n        uint256 _onlyIfPriceAbove,\r\n        uint256 _goodFrom,\r\n        uint256 _goodUntil\r\n        );\r\n\r\n    event LiquidationOrderCreated(\r\n        bytes32 indexed _orderId,\r\n        address _sender,\r\n        address indexed _address,\r\n        bytes32 indexed _marketId\r\n\r\n        );\r\n\r\n    event OrderProcessed(\r\n        bytes32 indexed _orderId,\r\n        uint256 _price,\r\n        uint256 _unadjustedMarketPrice,\r\n        uint256 _spread,\r\n        uint256 _positionLiquidationTimestamp,\r\n        uint256 _timeStamp,\r\n        uint256 _newLongShares,\r\n        uint256 _newShortShares,\r\n        uint256 _newMeanEntry,\r\n        uint256 _newMeanSprad,\r\n        uint256 _newMeanLeverage,\r\n        uint256 _liquidationPrice\r\n        );\r\n\r\n    event OrderFailed(\r\n        bytes32 indexed _orderId,\r\n        address indexed _address,\r\n        bytes32 indexed _marketId,\r\n        uint256 _closeSharesAmount,\r\n        uint256 _openMPHTokenAmount,\r\n        bool _tradeDirection,\r\n        uint256 _orderLeverage,\r\n        uint256 _onlyIfPriceBelow,\r\n        uint256 _onlyIfPriceAbove,\r\n        uint256 _goodFrom,\r\n        uint256 _goodUntil\r\n        );\r\n\r\n    event OrderCancelled(\r\n        bytes32 indexed _orderId,\r\n        address indexed _sender,\r\n        address indexed _oracleAddress\r\n        );\r\n    \r\n    event AdminOrderCancelled(\r\n        bytes32 indexed _orderId,\r\n        address indexed _sender,\r\n        address indexed _oracleAddress\r\n        );\r\n\r\n    event OrderCancellationRequestedEvent(\r\n        bytes32 indexed _orderId,\r\n        address indexed _sender\r\n        );\r\n\r\n    event CallbackAddressEnabled(\r\n        address indexed _address\r\n        );\r\n\r\n    event CallbackAddressDisabled(\r\n        address indexed _address\r\n        );\r\n\r\n    event OraclePaused(\r\n        bool _paused\r\n        );\r\n        \r\n    event CallBackCollectionAddressChange(\r\n        address _address\r\n        );\r\n\r\n    event SetGasForCallback(\r\n        uint256 _gasForCallback\r\n        );\r\n\r\n    event SetProviders(\r\n        address[] _providers\r\n        );\r\n\r\n    event LinkTradeEngine(\r\n        address _address\r\n        );\r\n\r\n    event LinkMorpherState(\r\n        address _address\r\n        );\r\n\r\n    event SetUseWhiteList(\r\n        bool _useWhiteList\r\n        );\r\n\r\n    event AddressWhiteListed(\r\n        address _address\r\n        );\r\n\r\n    event AddressBlackListed(\r\n        address _address\r\n        );\r\n\r\n    event AdminLiquidationOrderCreated(\r\n        bytes32 indexed _orderId,\r\n        address indexed _address,\r\n        bytes32 indexed _marketId,\r\n        uint256 _closeSharesAmount,\r\n        uint256 _openMPHTokenAmount,\r\n        bool _tradeDirection,\r\n        uint256 _orderLeverage\r\n        );\r\n\r\n    /**\r\n     * Delisting markets is a function that stops when gas is running low\r\n     * if it reached all positions it will emit \"DelistMarketComplete\"\r\n     * otherwise it needs to be re-run.\r\n     */\r\n    event DelistMarketIncomplete(bytes32 _marketId, uint256 _processedUntilIndex);\r\n    event DelistMarketComplete(bytes32 _marketId);\r\n    event LockedPriceForClosingPositions(bytes32 _marketId, uint256 _price);\r\n\r\n    modifier onlyOracle {\r\n        require(address(oracle) == _msgSender(), \"Only Chain Oracle can call this function\");\r\n        _;\r\n    }\r\n\r\n    modifier onlyRole(bytes32 role) {\r\n        require(MorpherAccessControl(state.morpherAccessControlAddress()).hasRole(role, _msgSender()), \"MorpherOracle: Permission denied.\");\r\n        _;\r\n    }\r\n\r\n   function initialize(address _morpherState, address payable _gasCollectionAddress, uint256 _gasForCallback, address[] calldata _providers) public initializer{\r\n        ContextUpgradeable.__Context_init();\r\n        PausableUpgradeable.__Pausable_init();\r\n\r\n        state = MorpherState(_morpherState);\r\n        \r\n        setCallbackCollectionAddress(_gasCollectionAddress);\r\n        setGasForCallback(_gasForCallback);\r\n        setProviders(_providers);\r\n    }\r\n\r\n// ----------------------------------------------------------------------------------\r\n// Setter/getter functions for trade engine address, oracle operator (callback) address,\r\n// and prepaid gas limit for callback function\r\n// ----------------------------------------------------------------------------------\r\n\r\n    function setStateAddress(address _address) public onlyRole(ADMINISTRATOR_ROLE) {\r\n        state = MorpherState(_address);\r\n        emit LinkMorpherState(_address);\r\n    }\r\n\r\n    function overrideGasForCallback(uint256 _gasForCallback) public onlyRole(ADMINISTRATOR_ROLE) {\r\n        gasForCallback = _gasForCallback;\r\n        emit SetGasForCallback(_gasForCallback);\r\n    }\r\n    \r\n    function setGasForCallback(uint256 _gasForCallback) private {\r\n        gasForCallback = _gasForCallback;\r\n        emit SetGasForCallback(_gasForCallback);\r\n    }\r\n\r\n    function setCallbackCollectionAddress(address payable _address) public onlyRole(ADMINISTRATOR_ROLE) {\r\n        callBackCollectionAddress = _address;\r\n        emit CallBackCollectionAddressChange(_address);\r\n    }\r\n\r\n    function setProviders(address[] calldata _providers) private {\r\n        providers = _providers;\r\n        emit SetProviders(_providers);\r\n    }\r\n\r\n// ----------------------------------------------------------------------------------\r\n// emitOrderFailed\r\n// Can be called by Oracle Operator to notifiy user of failed order\r\n// ----------------------------------------------------------------------------------\r\n    function emitOrderFailed(\r\n        bytes32 _orderId,\r\n        address _address,\r\n        bytes32 _marketId,\r\n        uint256 _closeSharesAmount,\r\n        uint256 _openMPHTokenAmount,\r\n        bool _tradeDirection,\r\n        uint256 _orderLeverage,\r\n        uint256 _onlyIfPriceBelow,\r\n        uint256 _onlyIfPriceAbove,\r\n        uint256 _goodFrom,\r\n        uint256 _goodUntil\r\n    ) public onlyRole(ORACLEOPERATOR_ROLE) {\r\n        emit OrderFailed(\r\n            _orderId,\r\n            _address,\r\n            _marketId,\r\n            _closeSharesAmount,\r\n            _openMPHTokenAmount,\r\n            _tradeDirection,\r\n            _orderLeverage,\r\n            _onlyIfPriceBelow,\r\n            _onlyIfPriceAbove,\r\n            _goodFrom,\r\n            _goodUntil);\r\n    }\r\n\r\n// ----------------------------------------------------------------------------------\r\n// createOrder(bytes32  _marketId, bool _tradeAmountGivenInShares, uint256 _tradeAmount, bool _tradeDirection, uint256 _orderLeverage)\r\n// Request a new orderId from trade engine and fires event for price/liquidation check request.\r\n// ----------------------------------------------------------------------------------\r\n    function createOrder(\r\n        bytes32 _marketId,\r\n        uint256 _closeSharesAmount,\r\n        uint256 _openMPHTokenAmount,\r\n        bool _tradeDirection,\r\n        uint256 _orderLeverage,\r\n        uint256 _onlyIfPriceAbove,\r\n        uint256 _onlyIfPriceBelow,\r\n        uint256 _goodUntil,\r\n        uint256 _goodFrom\r\n        ) public payable whenNotPaused returns (bytes32 _orderId) {\r\n        if (gasForCallback > 0) {\r\n            require(msg.value >= gasForCallback, \"MorpherOracle: Must transfer gas costs for Oracle Callback function.\");\r\n            callBackCollectionAddress.transfer(msg.value);\r\n        }\r\n        _orderId = MorpherTradeEngine(state.morpherTradeEngineAddress()).requestOrderId(_msgSender(), _marketId, _closeSharesAmount, _openMPHTokenAmount, _tradeDirection, _orderLeverage);\r\n\r\n        //if the market was deactivated, and the trader didn't fail yet, then we got an orderId to close the position with a locked in price\r\n        if(state.getMarketActive(_marketId) == false) {\r\n\r\n            //price will come from the position where price is stored forever\r\n            MorpherTradeEngine(state.morpherTradeEngineAddress()).processOrder(_orderId, MorpherTradeEngine(state.morpherTradeEngineAddress()).getDeactivatedMarketPrice(_marketId), 0, 0, block.timestamp * (1000));\r\n            \r\n            emit OrderProcessed(\r\n                _orderId,\r\n                MorpherTradeEngine(state.morpherTradeEngineAddress()).getDeactivatedMarketPrice(_marketId),\r\n                0,\r\n                0,\r\n                0,\r\n                block.timestamp * (1000),\r\n                0,\r\n                0,\r\n                0,\r\n                0,\r\n                0,\r\n                0\r\n                );\r\n        } else {\r\n            priceAbove[_orderId] = _onlyIfPriceAbove;\r\n            priceBelow[_orderId] = _onlyIfPriceBelow;\r\n            goodFrom[_orderId]   = _goodFrom;\r\n            goodUntil[_orderId]  = _goodUntil;\r\n            uint256 requestPrice = oracle.getTotalPriceForRequestedProviders(providers);\r\n            require(address(this).balance >= requestPrice, \"Not enough funds in Morpher Oracle contract to pay for oracle data\");\r\n            oracle.getOracleData{value:requestPrice}(requestIds, _marketId, providers);\r\n            requestOrder[requestIds] = _orderId;\r\n            requestIds++;\r\n        }\r\n\r\n        return _orderId;\r\n    }\r\n\r\n    function initiateCancelOrder(bytes32 _orderId) public {\r\n        MorpherTradeEngine _tradeEngine = MorpherTradeEngine(state.morpherTradeEngineAddress());\r\n        require(orderCancellationRequested[_orderId] == false, \"MorpherOracle: Order was already canceled.\");\r\n        (address userId, , , , , , ) = _tradeEngine.getOrder(_orderId);\r\n        require(userId == _msgSender(), \"MorpherOracle: Only the user can request an order cancellation.\");\r\n        orderCancellationRequested[_orderId] = true;\r\n        emit OrderCancellationRequestedEvent(_orderId, _msgSender());\r\n    }\r\n\r\n    // ----------------------------------------------------------------------------------\r\n    // cancelOrder(bytes32  _orderId)\r\n    // User or Administrator can cancel their own orders before the _callback has been executed\r\n    // ----------------------------------------------------------------------------------\r\n    function cancelOrder(bytes32 _orderId) public onlyRole(ORACLEOPERATOR_ROLE) {\r\n        require(orderCancellationRequested[_orderId] == true, \"MorpherOracle: Order-Cancellation was not requested.\");\r\n        MorpherTradeEngine _tradeEngine = MorpherTradeEngine(state.morpherTradeEngineAddress());\r\n        (address userId, , , , , , ) = _tradeEngine.getOrder(_orderId);\r\n        _tradeEngine.cancelOrder(_orderId, userId);\r\n        clearOrderConditions(_orderId);\r\n        emit OrderCancelled(\r\n            _orderId,\r\n            userId,\r\n            _msgSender()\r\n            );\r\n    }\r\n    \r\n    // ----------------------------------------------------------------------------------\r\n    // adminCancelOrder(bytes32  _orderId)\r\n    // Administrator can cancel before the _callback has been executed to provide an updateOrder functionality\r\n    // ----------------------------------------------------------------------------------\r\n    function adminCancelOrder(bytes32 _orderId) public onlyRole(ORACLEOPERATOR_ROLE) {\r\n        MorpherTradeEngine _tradeEngine = MorpherTradeEngine(state.morpherTradeEngineAddress());\r\n        (address userId, , , , , , ) = _tradeEngine.getOrder(_orderId);\r\n        _tradeEngine.cancelOrder(_orderId, userId);\r\n        clearOrderConditions(_orderId);\r\n        emit AdminOrderCancelled(\r\n            _orderId,\r\n            userId,\r\n            _msgSender()\r\n            );\r\n    }\r\n\r\n// ------------------------------------------------------------------------\r\n// checkOrderConditions(bytes32 _orderId, uint256 _price)\r\n// Checks if callback satisfies the order conditions\r\n// ------------------------------------------------------------------------\r\n    function checkOrderConditions(bytes32 _orderId, uint256 _price) public view returns (bool _conditionsMet) {\r\n        _conditionsMet = true;\r\n        if (block.timestamp > goodUntil[_orderId] && goodUntil[_orderId] > 0) {\r\n            _conditionsMet = false;\r\n        }\r\n        if (block.timestamp < goodFrom[_orderId] && goodFrom[_orderId] > 0) {\r\n            _conditionsMet = false;\r\n        }\r\n\r\n        if(priceAbove[_orderId] > 0 && priceBelow[_orderId] > 0) {\r\n            if(_price < priceAbove[_orderId] && _price > priceBelow[_orderId]) {\r\n                _conditionsMet = false;\r\n            }\r\n        } else {\r\n            if (_price < priceAbove[_orderId] && priceAbove[_orderId] > 0) {\r\n                _conditionsMet = false;\r\n            }\r\n            if (_price > priceBelow[_orderId] && priceBelow[_orderId] > 0) {\r\n                _conditionsMet = false;\r\n            }\r\n        }\r\n        \r\n        return _conditionsMet;\r\n    }\r\n\r\n// ----------------------------------------------------------------------------------\r\n// Deletes parameters of cancelled or processed orders\r\n// ----------------------------------------------------------------------------------\r\n    function clearOrderConditions(bytes32 _orderId) internal {\r\n        priceAbove[_orderId] = 0;\r\n        priceBelow[_orderId] = 0;\r\n        goodFrom[_orderId]   = 0;\r\n        goodUntil[_orderId]  = 0;\r\n    }\r\n\r\n    function pause() public virtual onlyRole(PAUSER_ROLE) {\r\n        _pause();\r\n    }\r\n\r\n    function unpause() public virtual onlyRole(PAUSER_ROLE) {\r\n        _unpause();\r\n    }\r\n\r\n// ----------------------------------------------------------------------------------\r\n// createLiquidationOrder(address _address, bytes32 _marketId)\r\n// Checks if position has been liquidated since last check. Requires gas for callback\r\n// function. Anyone can issue a liquidation order for any other address and market.\r\n// ----------------------------------------------------------------------------------\r\n    function createLiquidationOrder(\r\n        address _address,\r\n        bytes32 _marketId\r\n        ) public whenNotPaused onlyRole(ORACLEOPERATOR_ROLE) payable returns (bytes32 _orderId) {\r\n        if (gasForCallback > 0) {\r\n            require(msg.value >= gasForCallback, \"MorpherOracle: Must transfer gas costs for Oracle Callback function.\");\r\n            callBackCollectionAddress.transfer(msg.value);\r\n        }\r\n        _orderId = MorpherTradeEngine(state.morpherTradeEngineAddress()).requestOrderId(_address, _marketId, 0, 0, true, 10**8);\r\n        emit LiquidationOrderCreated(_orderId, _msgSender(), _address, _marketId);\r\n        return _orderId;\r\n    }\r\n\r\n// ----------------------------------------------------------------------------------\r\n// runCallback(bytes32 _orderId, uint256 _price, uint256 _spread, uint256 _liquidationTimestamp, uint256 _timeStamp)\r\n// Called by the oracle operator. Writes price/spread/liquidiation check to the blockchain.\r\n// Trade engine processes the order and updates the portfolio in state if successful.\r\n// ----------------------------------------------------------------------------------\r\n    function __callback(uint256 _requestId, uint256 _price) external onlyOracle whenNotPaused {\r\n        // price from oracle is fixed point decimal 18, trade engine requires fpd 8\r\n        uint _priceForTE = _price / 10000000000;\r\n        uint _spread = _priceForTE / 1000;\r\n        runCallback(requestOrder[_requestId], _priceForTE, _priceForTE, _spread, 0, block.timestamp, gasForCallback);\r\n    }\r\n\r\n    function runCallback(\r\n        bytes32 _orderId,\r\n        uint256 _price,\r\n        uint256 _unadjustedMarketPrice,\r\n        uint256 _spread,\r\n        uint256 _liquidationTimestamp,\r\n        uint256 _timeStamp,\r\n        uint256 _gasForNextCallback\r\n        ) private returns (MorpherTradeEngine.position memory createdPosition)  {\r\n        \r\n        require(checkOrderConditions(_orderId, _price), 'MorpherOracle Error: Order Conditions are not met');\r\n       \r\n       createdPosition = MorpherTradeEngine(state.morpherTradeEngineAddress()).processOrder(_orderId, _price, _spread, _liquidationTimestamp, _timeStamp);\r\n        \r\n        clearOrderConditions(_orderId);\r\n        emit OrderProcessed(\r\n            _orderId,\r\n            _price,\r\n            _unadjustedMarketPrice,\r\n            _spread,\r\n            _liquidationTimestamp,\r\n            _timeStamp,\r\n            createdPosition.longShares,\r\n            createdPosition.shortShares,\r\n            createdPosition.meanEntryPrice,\r\n            createdPosition.meanEntrySpread,\r\n            createdPosition.meanEntryLeverage,\r\n            createdPosition.liquidationPrice\r\n            );\r\n        setGasForCallback(_gasForNextCallback);\r\n        return createdPosition;\r\n    }\r\n\r\n// ----------------------------------------------------------------------------------\r\n// delistMarket(bytes32 _marketId)\r\n// Administrator closes out all existing positions on _marketId market at current prices\r\n// ----------------------------------------------------------------------------------\r\n\r\n    uint delistMarketFromIx;\r\n    function delistMarket(bytes32 _marketId, bool _startFromScratch) public onlyRole(ADMINISTRATOR_ROLE) {\r\n        require(state.getMarketActive(_marketId) == true, \"Market must be active to process position liquidations.\");\r\n        // If no _fromIx and _toIx specified, do entire _list\r\n        if (_startFromScratch) {\r\n            delistMarketFromIx = 0;\r\n        }\r\n        \r\n        uint _toIx = MorpherTradeEngine(state.morpherTradeEngineAddress()).getMaxMappingIndex(_marketId);\r\n        \r\n        address _address;\r\n        for (uint256 i = delistMarketFromIx; i <= _toIx; i++) {\r\n             if(gasleft() < 250000 && i != _toIx) { //stop if there's not enough gas to write the next transaction\r\n                delistMarketFromIx = i;\r\n                emit DelistMarketIncomplete(_marketId, _toIx);\r\n                return;\r\n            } \r\n            \r\n            _address = MorpherTradeEngine(state.morpherTradeEngineAddress()).getExposureMappingAddress(_marketId, i);\r\n            adminLiquidationOrder(_address, _marketId);\r\n            \r\n        }\r\n        emit DelistMarketComplete(_marketId);\r\n    }\r\n\r\n\r\n// ----------------------------------------------------------------------------------\r\n// adminLiquidationOrder(address _address, bytes32 _marketId)\r\n// Administrator closes out an existing position of _address on _marketId market at current price\r\n// ----------------------------------------------------------------------------------\r\n    function adminLiquidationOrder(\r\n        address _address,\r\n        bytes32 _marketId\r\n        ) public onlyRole(ADMINISTRATOR_ROLE) returns (bytes32 _orderId) {\r\n            MorpherTradeEngine.position memory position = MorpherTradeEngine(state.morpherTradeEngineAddress()).getPosition(_address, _marketId);\r\n            \r\n            if (position.longShares > 0) {\r\n                _orderId = MorpherTradeEngine(state.morpherTradeEngineAddress()).requestOrderId(_address, _marketId, position.longShares, 0, false, 10**8);\r\n                emit AdminLiquidationOrderCreated(_orderId, _address, _marketId, position.longShares, 0, false, 10**8);\r\n            }\r\n            if (position.shortShares > 0) {\r\n                _orderId = MorpherTradeEngine(state.morpherTradeEngineAddress()).requestOrderId(_address, _marketId, position.shortShares, 0, true, 10**8);\r\n                emit AdminLiquidationOrderCreated(_orderId, _address, _marketId, position.shortShares, 0, true, 10**8);\r\n            }\r\n            return _orderId;\r\n    }\r\n\r\n    /**\r\n     * Deprecated function\r\n     */\r\n    function getTradeEngineFromOrderId(uint orderId) public view returns(address) {\r\n        orderId = orderId; //mute the warning\r\n        return state.morpherTradeEngineAddress();\r\n    }   \r\n\r\n}\r\n\r\n",
  "sourcePath": "/Users/thomas/Projects/Morpher/MorpherProtocol/contracts/MorpherOracle.sol",
  "compiler": {
    "name": "solc",
    "version": "0.8.11+commit.d7f03943.Emscripten.clang"
  },
  "schemaVersion": "3.4.11",
  "updatedAt": "2023-07-28T07:57:14.506Z",
  "networkType": "ethereum",
  "devdoc": {
    "kind": "dev",
    "methods": {
      "paused()": {
        "details": "Returns true if the contract is paused, and false otherwise."
      }
    },
    "version": 1
  },
  "userdoc": {
    "events": {
      "DelistMarketIncomplete(bytes32,uint256)": {
        "notice": "Delisting markets is a function that stops when gas is running low if it reached all positions it will emit \"DelistMarketComplete\" otherwise it needs to be re-run."
      }
    },
    "kind": "user",
    "methods": {
      "ADMINISTRATOR_ROLE()": {
        "notice": "ROLES KNOWN TO ORACLE"
      },
      "getTradeEngineFromOrderId(uint256)": {
        "notice": "Deprecated function"
      }
    },
    "version": 1
  }
}