{
  "contractName": "MorpherStaking",
  "abi": [
    {
      "inputs": [
        {
          "internalType": "address payable",
          "name": "_morpherState",
          "type": "address"
        },
        {
          "internalType": "address",
          "name": "_stakingAdmin",
          "type": "address"
        },
        {
          "internalType": "address payable",
          "name": "_userBlockingAddress",
          "type": "address"
        }
      ],
      "stateMutability": "nonpayable",
      "type": "constructor"
    },
    {
      "anonymous": false,
      "inputs": [
        {
          "indexed": false,
          "internalType": "uint256",
          "name": "interestRate",
          "type": "uint256"
        },
        {
          "indexed": false,
          "internalType": "uint256",
          "name": "validFromTimestamp",
          "type": "uint256"
        }
      ],
      "name": "InterestRateAdded",
      "type": "event"
    },
    {
      "anonymous": false,
      "inputs": [
        {
          "indexed": false,
          "internalType": "uint256",
          "name": "interstRateIndex",
          "type": "uint256"
        },
        {
          "indexed": false,
          "internalType": "uint256",
          "name": "oldvalue",
          "type": "uint256"
        },
        {
          "indexed": false,
          "internalType": "uint256",
          "name": "newValue",
          "type": "uint256"
        }
      ],
      "name": "InterestRateRateChanged",
      "type": "event"
    },
    {
      "anonymous": false,
      "inputs": [
        {
          "indexed": false,
          "internalType": "uint256",
          "name": "interstRateIndex",
          "type": "uint256"
        },
        {
          "indexed": false,
          "internalType": "uint256",
          "name": "oldvalue",
          "type": "uint256"
        },
        {
          "indexed": false,
          "internalType": "uint256",
          "name": "newValue",
          "type": "uint256"
        }
      ],
      "name": "InterestRateValidFromChanged",
      "type": "event"
    },
    {
      "anonymous": false,
      "inputs": [
        {
          "indexed": false,
          "internalType": "address",
          "name": "stateAddress",
          "type": "address"
        }
      ],
      "name": "LinkState",
      "type": "event"
    },
    {
      "anonymous": false,
      "inputs": [
        {
          "indexed": true,
          "internalType": "address",
          "name": "previousOwner",
          "type": "address"
        },
        {
          "indexed": true,
          "internalType": "address",
          "name": "newOwner",
          "type": "address"
        }
      ],
      "name": "OwnershipTransferred",
      "type": "event"
    },
    {
      "anonymous": false,
      "inputs": [
        {
          "indexed": true,
          "internalType": "uint256",
          "name": "lastReward",
          "type": "uint256"
        },
        {
          "indexed": false,
          "internalType": "uint256",
          "name": "poolShareValue",
          "type": "uint256"
        }
      ],
      "name": "PoolShareValueUpdated",
      "type": "event"
    },
    {
      "anonymous": false,
      "inputs": [
        {
          "indexed": false,
          "internalType": "uint256",
          "name": "newInterestRate",
          "type": "uint256"
        }
      ],
      "name": "SetInterestRate",
      "type": "event"
    },
    {
      "anonymous": false,
      "inputs": [
        {
          "indexed": false,
          "internalType": "uint256",
          "name": "newLockupPeriod",
          "type": "uint256"
        }
      ],
      "name": "SetLockupPeriod",
      "type": "event"
    },
    {
      "anonymous": false,
      "inputs": [
        {
          "indexed": false,
          "internalType": "uint256",
          "name": "newMinimumStake",
          "type": "uint256"
        }
      ],
      "name": "SetMinimumStake",
      "type": "event"
    },
    {
      "anonymous": false,
      "inputs": [
        {
          "indexed": false,
          "internalType": "address",
          "name": "userBlockingAddress",
          "type": "address"
        }
      ],
      "name": "SetMorpherUserBlocking",
      "type": "event"
    },
    {
      "anonymous": false,
      "inputs": [
        {
          "indexed": false,
          "internalType": "address",
          "name": "stakingAdmin",
          "type": "address"
        }
      ],
      "name": "SetStakingAdmin",
      "type": "event"
    },
    {
      "anonymous": false,
      "inputs": [
        {
          "indexed": true,
          "internalType": "address",
          "name": "userAddress",
          "type": "address"
        },
        {
          "indexed": true,
          "internalType": "uint256",
          "name": "amount",
          "type": "uint256"
        },
        {
          "indexed": false,
          "internalType": "uint256",
          "name": "poolShares",
          "type": "uint256"
        },
        {
          "indexed": false,
          "internalType": "uint256",
          "name": "lockedUntil",
          "type": "uint256"
        }
      ],
      "name": "Staked",
      "type": "event"
    },
    {
      "anonymous": false,
      "inputs": [
        {
          "indexed": true,
          "internalType": "uint256",
          "name": "lastReward",
          "type": "uint256"
        },
        {
          "indexed": false,
          "internalType": "uint256",
          "name": "delta",
          "type": "uint256"
        }
      ],
      "name": "StakingRewardsMinted",
      "type": "event"
    },
    {
      "anonymous": false,
      "inputs": [
        {
          "indexed": true,
          "internalType": "address",
          "name": "userAddress",
          "type": "address"
        },
        {
          "indexed": true,
          "internalType": "uint256",
          "name": "amount",
          "type": "uint256"
        },
        {
          "indexed": false,
          "internalType": "uint256",
          "name": "poolShares",
          "type": "uint256"
        }
      ],
      "name": "Unstaked",
      "type": "event"
    },
    {
      "stateMutability": "payable",
      "type": "fallback"
    },
    {
      "inputs": [
        {
          "internalType": "uint256",
          "name": "",
          "type": "uint256"
        }
      ],
      "name": "interestRates",
      "outputs": [
        {
          "internalType": "uint256",
          "name": "validFrom",
          "type": "uint256"
        },
        {
          "internalType": "uint256",
          "name": "rate",
          "type": "uint256"
        }
      ],
      "stateMutability": "view",
      "type": "function"
    },
    {
      "inputs": [],
      "name": "lastReward",
      "outputs": [
        {
          "internalType": "uint256",
          "name": "",
          "type": "uint256"
        }
      ],
      "stateMutability": "view",
      "type": "function"
    },
    {
      "inputs": [],
      "name": "lockupPeriod",
      "outputs": [
        {
          "internalType": "uint256",
          "name": "",
          "type": "uint256"
        }
      ],
      "stateMutability": "view",
      "type": "function"
    },
    {
      "inputs": [],
      "name": "marketIdStakingMPH",
      "outputs": [
        {
          "internalType": "bytes32",
          "name": "",
          "type": "bytes32"
        }
      ],
      "stateMutability": "view",
      "type": "function"
    },
    {
      "inputs": [],
      "name": "minimumStake",
      "outputs": [
        {
          "internalType": "uint256",
          "name": "",
          "type": "uint256"
        }
      ],
      "stateMutability": "view",
      "type": "function"
    },
    {
      "inputs": [],
      "name": "numInterestRates",
      "outputs": [
        {
          "internalType": "uint256",
          "name": "",
          "type": "uint256"
        }
      ],
      "stateMutability": "view",
      "type": "function"
    },
    {
      "inputs": [],
      "name": "owner",
      "outputs": [
        {
          "internalType": "address",
          "name": "",
          "type": "address"
        }
      ],
      "stateMutability": "view",
      "type": "function"
    },
    {
      "inputs": [],
      "name": "poolShareValue",
      "outputs": [
        {
          "internalType": "uint256",
          "name": "",
          "type": "uint256"
        }
      ],
      "stateMutability": "view",
      "type": "function"
    },
    {
      "inputs": [],
      "name": "renounceOwnership",
      "outputs": [],
      "stateMutability": "nonpayable",
      "type": "function"
    },
    {
      "inputs": [],
      "name": "stakingAddress",
      "outputs": [
        {
          "internalType": "address",
          "name": "",
          "type": "address"
        }
      ],
      "stateMutability": "view",
      "type": "function"
    },
    {
      "inputs": [],
      "name": "stakingAdmin",
      "outputs": [
        {
          "internalType": "address",
          "name": "",
          "type": "address"
        }
      ],
      "stateMutability": "view",
      "type": "function"
    },
    {
      "inputs": [],
      "name": "totalShares",
      "outputs": [
        {
          "internalType": "uint256",
          "name": "",
          "type": "uint256"
        }
      ],
      "stateMutability": "view",
      "type": "function"
    },
    {
      "inputs": [
        {
          "internalType": "address",
          "name": "newOwner",
          "type": "address"
        }
      ],
      "name": "transferOwnership",
      "outputs": [],
      "stateMutability": "nonpayable",
      "type": "function"
    },
    {
      "stateMutability": "payable",
      "type": "receive"
    },
    {
      "inputs": [],
      "name": "updatePoolShareValue",
      "outputs": [
        {
          "internalType": "uint256",
          "name": "_newPoolShareValue",
          "type": "uint256"
        }
      ],
      "stateMutability": "nonpayable",
      "type": "function"
    },
    {
      "inputs": [
        {
          "internalType": "uint256",
          "name": "_amount",
          "type": "uint256"
        }
      ],
      "name": "stake",
      "outputs": [
        {
          "internalType": "uint256",
          "name": "_poolShares",
          "type": "uint256"
        }
      ],
      "stateMutability": "nonpayable",
      "type": "function"
    },
    {
      "inputs": [
        {
          "internalType": "uint256",
          "name": "_numOfShares",
          "type": "uint256"
        }
      ],
      "name": "unstake",
      "outputs": [
        {
          "internalType": "uint256",
          "name": "_amount",
          "type": "uint256"
        }
      ],
      "stateMutability": "nonpayable",
      "type": "function"
    },
    {
      "inputs": [
        {
          "internalType": "address",
          "name": "_address",
          "type": "address"
        }
      ],
      "name": "setStakingAdmin",
      "outputs": [],
      "stateMutability": "nonpayable",
      "type": "function"
    },
    {
      "inputs": [
        {
          "internalType": "address payable",
          "name": "_stateAddress",
          "type": "address"
        }
      ],
      "name": "setMorpherStateAddress",
      "outputs": [],
      "stateMutability": "nonpayable",
      "type": "function"
    },
    {
      "inputs": [
        {
          "internalType": "address payable",
          "name": "_userBlockingAddress",
          "type": "address"
        }
      ],
      "name": "setMorpherUserBlocking",
      "outputs": [],
      "stateMutability": "nonpayable",
      "type": "function"
    },
    {
      "inputs": [
        {
          "internalType": "uint256",
          "name": "_interestRate",
          "type": "uint256"
        }
      ],
      "name": "setInterestRate",
      "outputs": [],
      "stateMutability": "nonpayable",
      "type": "function"
    },
    {
      "inputs": [],
      "name": "interestRate",
      "outputs": [
        {
          "internalType": "uint256",
          "name": "",
          "type": "uint256"
        }
      ],
      "stateMutability": "view",
      "type": "function"
    },
    {
      "inputs": [
        {
          "internalType": "uint256",
          "name": "_rate",
          "type": "uint256"
        },
        {
          "internalType": "uint256",
          "name": "_validFrom",
          "type": "uint256"
        }
      ],
      "name": "addInterestRate",
      "outputs": [],
      "stateMutability": "nonpayable",
      "type": "function"
    },
    {
      "inputs": [
        {
          "internalType": "uint256",
          "name": "_numInterestRate",
          "type": "uint256"
        },
        {
          "internalType": "uint256",
          "name": "_rate",
          "type": "uint256"
        }
      ],
      "name": "changeInterestRateValue",
      "outputs": [],
      "stateMutability": "nonpayable",
      "type": "function"
    },
    {
      "inputs": [
        {
          "internalType": "uint256",
          "name": "_numInterestRate",
          "type": "uint256"
        },
        {
          "internalType": "uint256",
          "name": "_validFrom",
          "type": "uint256"
        }
      ],
      "name": "changeInterestRateValidFrom",
      "outputs": [],
      "stateMutability": "nonpayable",
      "type": "function"
    },
    {
      "inputs": [
        {
          "internalType": "uint256",
          "name": "_positionTimestamp",
          "type": "uint256"
        }
      ],
      "name": "getInterestRate",
      "outputs": [
        {
          "internalType": "uint256",
          "name": "",
          "type": "uint256"
        }
      ],
      "stateMutability": "view",
      "type": "function"
    },
    {
      "inputs": [
        {
          "internalType": "uint256",
          "name": "_lockupPeriod",
          "type": "uint256"
        }
      ],
      "name": "setLockupPeriodRate",
      "outputs": [],
      "stateMutability": "nonpayable",
      "type": "function"
    },
    {
      "inputs": [
        {
          "internalType": "uint256",
          "name": "_minimumStake",
          "type": "uint256"
        }
      ],
      "name": "setMinimumStake",
      "outputs": [],
      "stateMutability": "nonpayable",
      "type": "function"
    },
    {
      "inputs": [],
      "name": "getTotalPooledValue",
      "outputs": [
        {
          "internalType": "uint256",
          "name": "_totalPooled",
          "type": "uint256"
        }
      ],
      "stateMutability": "view",
      "type": "function"
    },
    {
      "inputs": [
        {
          "internalType": "address",
          "name": "_address",
          "type": "address"
        }
      ],
      "name": "getStake",
      "outputs": [
        {
          "internalType": "uint256",
          "name": "_poolShares",
          "type": "uint256"
        }
      ],
      "stateMutability": "view",
      "type": "function"
    },
    {
      "inputs": [
        {
          "internalType": "address",
          "name": "_address",
          "type": "address"
        }
      ],
      "name": "getStakeValue",
      "outputs": [
        {
          "internalType": "uint256",
          "name": "_value",
          "type": "uint256"
        },
        {
          "internalType": "uint256",
          "name": "_lastUpdate",
          "type": "uint256"
        }
      ],
      "stateMutability": "view",
      "type": "function"
    }
  ],
  "bytecode": "0x60806040526305f5e10060035562278d0060085569152d02c7e14af6800000600955600b80546001600160a01b0319167322222222222222222222222222222222222222221790557f9a31fdde7a3b1444b1befb10735dcc3b72cbd9dd604d2ff45144352bf0f359a6600c553480156200007857600080fd5b506040516200286f3803806200286f8339810160408190526200009b916200085f565b620000a6336200015e565b620000b182620001ae565b620000bc8362000252565b7ffd48bfbbcb5a287c0ba5513ca319e022d18f0f07bc4d4dea3ace362f67108980600854604051620000f091815260200190565b60405180910390a17fcd49b0a32b631e59338de3903380e535f8738f7ff62fcb3953129b96076967396009546040516200012c91815260200190565b60405180910390a16200013f81620002ec565b62000151613a98636062e8a362000386565b5050426004555062000995565b600080546001600160a01b038381166001600160a01b0319831681178455604051919092169283917f8be0079c531659141344cd1fd0a4f28419497f9722a3daafe3b4186f6b6457e09190a35050565b6000546001600160a01b03163314620001fd5760405162461bcd60e51b815260206004820181905260248201526000805160206200284f83398151915260448201526064015b60405180910390fd5b600a80546001600160a01b0319166001600160a01b0383169081179091556040519081527f105518b3c988ba3d822d539675383b544a5143ee8f0fd22bf4bf8c338e103afd906020015b60405180910390a150565b6000546001600160a01b031633146200029d5760405162461bcd60e51b815260206004820181905260248201526000805160206200284f8339815191526044820152606401620001f4565b600180546001600160a01b0319166001600160a01b0383169081179091556040519081527f978c711532bae8c58f353b0f3c7f3a0dfe600d9ae9a81818f2ad2919b88e19909060200162000247565b6000546001600160a01b03163314620003375760405162461bcd60e51b815260206004820181905260248201526000805160206200284f8339815191526044820152606401620001f4565b600280546001600160a01b0319166001600160a01b0383169081179091556040519081527f8212198b0ee29dae6ce39c35ce31d40ce02e263efeb619be6eeeff856f11865f9060200162000247565b600a546001600160a01b03163314620004085760405162461bcd60e51b815260206004820152603c60248201527f4d6f72706865725374616b696e673a2063616e206f6e6c792062652063616c6c60448201527f6564206279205374616b696e672041646d696e6973747261746f722e000000006064820152608401620001f4565b60075415806200043d575080600660006001600754620004299190620008c9565b815260200190815260200160002060000154105b620004c75760405162461bcd60e51b815260206004820152604d60248201527f4d6f72706865725374616b696e673a20496e746572657374205261746520566160448201527f6c69642046726f6d206d757374206265206c61746572207468616e206c61737460648201526c20696e7465726573745261746560981b608482015260a401620001f4565b620004d162000545565b5060078054600090815260066020526040808220849055825482528120600101849055815491906200050383620008e3565b909155505060408051838152602081018390527f293620aa5866cd353b1989961237e94aece8c56f6b2b4b8514ee3a6f2dded5c3910160405180910390a15050565b6000620151806004546200055a919062000901565b421062000607576000620151806004546200057691906200091c565b620005829042620008c9565b90506200058e62000618565b6200059a90826200093f565b600354620005a9919062000901565b600355620005bb62015180826200093f565b600454620005ca919062000901565b60048190556003546040519081527fd59b6c8b3190f59807a1cf0b6fb311ba03a32a91c1da71f75e24251a132cdc369060200160405180910390a2505b6200061162000684565b5060035490565b6000600754600014156200062c5750600090565b600060016007546200063f9190620008c9565b90505b60008181526006602052604090205442106200066f57600090815260066020526040902060010154919050565b806200067b8162000961565b91505062000642565b60006005546003546200069891906200093f565b600154600b546040516370a0823160e01b81526001600160a01b03918216600482015292935083929116906370a0823190602401602060405180830381865afa158015620006ea573d6000803e3d6000fd5b505050506040513d601f19601f820116820180604052508101906200071091906200097b565b10156200084657600154600b546040516370a0823160e01b81526001600160a01b03918216600482015260009291909116906370a0823190602401602060405180830381865afa15801562000769573d6000803e3d6000fd5b505050506040513d601f19601f820116820180604052508101906200078f91906200097b565b6200079b9083620008c9565b600154600b546040516340c10f1960e01b81526001600160a01b0391821660048201526024810184905292935016906340c10f1990604401600060405180830381600087803b158015620007ee57600080fd5b505af115801562000803573d6000803e3d6000fd5b505050506004547f49515cfbb90751627e2852161b77cf8be48f82d26e181d9fa1770df3168299a3826040516200083c91815260200190565b60405180910390a2505b50565b6001600160a01b03811681146200084657600080fd5b6000806000606084860312156200087557600080fd5b8351620008828162000849565b6020850151909350620008958162000849565b6040850151909250620008a88162000849565b809150509250925092565b634e487b7160e01b600052601160045260246000fd5b600082821015620008de57620008de620008b3565b500390565b6000600019821415620008fa57620008fa620008b3565b5060010190565b60008219821115620009175762000917620008b3565b500190565b6000826200093a57634e487b7160e01b600052601260045260246000fd5b500490565b60008160001904831182151516156200095c576200095c620008b3565b500290565b600081620009735762000973620008b3565b506000190190565b6000602082840312156200098e57600080fd5b5051919050565b611eaa80620009a56000396000f3fe6080604052600436106101d15760003560e01c806396802374116100f7578063e71e7ec011610095578063f2fde38b11610064578063f2fde38b14610538578063f48fedb014610558578063fc2ab77b1461056d578063fc395c401461058d576101f7565b8063e71e7ec0146104d6578063e9ea0ddc146104ec578063ec5ffac21461050c578063ee947a7c14610522576101f7565b8063a4c2661e116100d1578063a4c2661e1461046a578063a694fc3a14610480578063c9b17149146104a0578063d7b4be24146104b6576101f7565b806396802374146103e15780639a4d8ba1146104165780639baafc5c1461044a576101f7565b80633181dfd71161016f578063715018a61161013e578063715018a6146103655780637a7664601461037a5780637c3a00fd1461039a5780638da5cb5b146103af576101f7565b80633181dfd7146102ef5780633a98ef391461030f578063597f859c146103255780635f84f30214610345576101f7565b806313384039116101ab578063133840391461026d578063224f7e581461028f578063233e9903146102af5780632e17de78146102cf576101f7565b80630645dcd71461020f5780630c196a74146102375780631176aeef14610257576101f7565b366101f75760405162461bcd60e51b81526004016101ee90611b9b565b60405180910390fd5b60405162461bcd60e51b81526004016101ee90611b9b565b34801561021b57600080fd5b506102246105ad565b6040519081526020015b60405180910390f35b34801561024357600080fd5b50610224610252366004611be7565b6105c4565b34801561026357600080fd5b5061022460075481565b34801561027957600080fd5b5061028d610288366004611c00565b610751565b005b34801561029b57600080fd5b5061028d6102aa366004611c00565b6108af565b3480156102bb57600080fd5b5061028d6102ca366004611be7565b610949565b3480156102db57600080fd5b506102246102ea366004611be7565b6109af565b3480156102fb57600080fd5b5061028d61030a366004611c37565b610d91565b34801561031b57600080fd5b5061022460055481565b34801561033157600080fd5b5061028d610340366004611be7565b610e09565b34801561035157600080fd5b5061028d610360366004611be7565b610e68565b34801561037157600080fd5b5061028d610e9f565b34801561038657600080fd5b50610224610395366004611c37565b610ed5565b3480156103a657600080fd5b50610224610f5e565b3480156103bb57600080fd5b506000546001600160a01b03165b6040516001600160a01b03909116815260200161022e565b3480156103ed57600080fd5b506104016103fc366004611c37565b610fc3565b6040805192835260208301919091520161022e565b34801561042257600080fd5b50610401610431366004611be7565b6006602052600090815260409020805460019091015482565b34801561045657600080fd5b5061028d610465366004611c37565b611064565b34801561047657600080fd5b5061022460035481565b34801561048c57600080fd5b5061022461049b366004611be7565b6110dc565b3480156104ac57600080fd5b5061022460045481565b3480156104c257600080fd5b50600b546103c9906001600160a01b031681565b3480156104e257600080fd5b50610224600c5481565b3480156104f857600080fd5b5061028d610507366004611c37565b611512565b34801561051857600080fd5b5061022460095481565b34801561052e57600080fd5b5061022460085481565b34801561054457600080fd5b5061028d610553366004611c37565b61158a565b34801561056457600080fd5b50610224611622565b34801561057957600080fd5b50600a546103c9906001600160a01b031681565b34801561059957600080fd5b5061028d6105a8366004611c00565b6116e2565b60006005546003546105bf9190611c71565b905090565b60008080805b6007548110156107345760016007546105e39190611c90565b81148061060f575042600660006105fb846001611ca7565b815260200190815260200160002060000154115b156106715760008181526006602052604090205461062d9042611c90565b6000828152600660205260409020600101546106499190611c71565b6106539084611ca7565b92508161066c5760008181526006602052604090205491505b610734565b8460066000610681846001611ca7565b8152602001908152602001600020600001541115610722576000818152600660208190526040822054916106b6846001611ca7565b8152602001908152602001600020600001546106d29190611c90565b6000828152600660205260409020600101546106ee9190611c71565b6106f89084611ca7565b60008281526006602052604090205490935085106107225760008181526006602052604090205491505b8061072c81611cbf565b9150506105ca565b5061073f8142611c90565b6107499083611cda565b949350505050565b600a546001600160a01b0316331461077b5760405162461bcd60e51b81526004016101ee90611cfc565b60075415806107ad5750806006600060016007546107999190611c90565b815260200190815260200160002060000154105b6108355760405162461bcd60e51b815260206004820152604d60248201527f4d6f72706865725374616b696e673a20496e746572657374205261746520566160448201527f6c69642046726f6d206d757374206265206c61746572207468616e206c61737460648201526c20696e7465726573745261746560981b608482015260a4016101ee565b61083d611622565b50600780546000908152600660205260408082208490558254825281206001018490558154919061086d83611cbf565b909155505060408051838152602081018390527f293620aa5866cd353b1989961237e94aece8c56f6b2b4b8514ee3a6f2dded5c3910160405180910390a15050565b600a546001600160a01b031633146108d95760405162461bcd60e51b81526004016101ee90611cfc565b600082815260066020908152604091829020600101548251858152918201529081018290527ff27b67df57164becd752b9ec4283586534adc2dfb848ee602c500aa6e46b30299060600160405180910390a1610933611622565b5060009182526006602052604090912060010155565b600a546001600160a01b031633146109735760405162461bcd60e51b81526004016101ee90611cfc565b60098190556040518181527fcd49b0a32b631e59338de3903380e535f8738f7ff62fcb3953129b9607696739906020015b60405180910390a150565b600254604051635612cd6760e11b81523360048201526000916001600160a01b03169063ac259ace90602401602060405180830381865afa1580156109f8573d6000803e3d6000fd5b505050506040513d601f19601f82011682018060405250810190610a1c9190611d59565b15610a695760405162461bcd60e51b815260206004820152601f60248201527f4d6f72706865725374616b696e673a205573657220697320626c6f636b65640060448201526064016101ee565b600154600c546040516307d47a8b60e11b815233600482015260248101919091526000916001600160a01b031690630fa8f5169060440160c060405180830381865afa158015610abd573d6000803e3d6000fd5b505050506040513d601f19601f82011682018060405250810190610ae19190611d7b565b5050505050905080831115610b495760405162461bcd60e51b815260206004820152602860248201527f4d6f72706865725374616b696e673a20696e73756666696369656e7420706f6f6044820152676c2073686172657360c01b60648201526084016101ee565b600154600c54604051630f5fd3cf60e21b815233600482015260248101919091526000916001600160a01b031690633d7f4f3c90604401602060405180830381865afa158015610b9d573d6000803e3d6000fd5b505050506040513d601f19601f82011682018060405250810190610bc19190611dc5565b905080421015610c395760405162461bcd60e51b815260206004820152603760248201527f4d6f72706865725374616b696e673a2063616e6e6f7420756e7374616b65206260448201527f65666f7265206c6f636b75702065787069726174696f6e00000000000000000060648201526084016101ee565b610c41611622565b50600154600c546001600160a01b039091169063be7e64b690339084610c678988611c90565b60008060008060006040518a63ffffffff1660e01b8152600401610c9399989796959493929190611dde565b600060405180830381600087803b158015610cad57600080fd5b505af1158015610cc1573d6000803e3d6000fd5b5050505083600554610cd39190611c90565b600555600354610ce39085611c71565b600154600b546040516317d5759960e31b81526001600160a01b03918216600482015233602482015260448101849052929550169063beabacc890606401600060405180830381600087803b158015610d3b57600080fd5b505af1158015610d4f573d6000803e3d6000fd5b50506040518681528592503391507f7fc4727e062e336010f2c282598ef5f14facb3de68cf8195c2f23e1454b2b74e9060200160405180910390a35050919050565b6000546001600160a01b03163314610dbb5760405162461bcd60e51b81526004016101ee90611e28565b600a80546001600160a01b0319166001600160a01b0383169081179091556040519081527f105518b3c988ba3d822d539675383b544a5143ee8f0fd22bf4bf8c338e103afd906020016109a4565b600a546001600160a01b03163314610e335760405162461bcd60e51b81526004016101ee90611cfc565b60088190556040518181527ffd48bfbbcb5a287c0ba5513ca319e022d18f0f07bc4d4dea3ace362f67108980906020016109a4565b600a546001600160a01b03163314610e925760405162461bcd60e51b81526004016101ee90611cfc565b610e9c8142610751565b50565b6000546001600160a01b03163314610ec95760405162461bcd60e51b81526004016101ee90611e28565b610ed36000611995565b565b600154600c546040516307d47a8b60e11b81526001600160a01b038481166004830152602482019290925260009283921690630fa8f5169060440160c060405180830381865afa158015610f2d573d6000803e3d6000fd5b505050506040513d601f19601f82011682018060405250810190610f519190611d7b565b5093979650505050505050565b600060075460001415610f715750600090565b60006001600754610f829190611c90565b90505b6000818152600660205260409020544210610fb157600090815260066020526040902060010154919050565b80610fbb81611e5d565b915050610f85565b600154600c546040516307d47a8b60e11b81526001600160a01b038481166004830152602482019290925260009283928392911690630fa8f5169060440160c060405180830381865afa15801561101e573d6000803e3d6000fd5b505050506040513d601f19601f820116820180604052508101906110429190611d7b565b50505050509050600354816110579190611c71565b6004549250925050915091565b6000546001600160a01b0316331461108e5760405162461bcd60e51b81526004016101ee90611e28565b600280546001600160a01b0319166001600160a01b0383169081179091556040519081527f8212198b0ee29dae6ce39c35ce31d40ce02e263efeb619be6eeeff856f11865f906020016109a4565b600254604051635612cd6760e11b81523360048201526000916001600160a01b03169063ac259ace90602401602060405180830381865afa158015611125573d6000803e3d6000fd5b505050506040513d601f19601f820116820180604052508101906111499190611d59565b156111965760405162461bcd60e51b815260206004820152601f60248201527f4d6f72706865725374616b696e673a205573657220697320626c6f636b65640060448201526064016101ee565b6001546040516370a0823160e01b815233600482015283916001600160a01b0316906370a0823190602401602060405180830381865afa1580156111de573d6000803e3d6000fd5b505050506040513d601f19601f820116820180604052508101906112029190611dc5565b10156112675760405162461bcd60e51b815260206004820152602e60248201527f4d6f72706865725374616b696e673a20696e73756666696369656e74204d504860448201526d20746f6b656e2062616c616e636560901b60648201526084016101ee565b61126f611622565b5060035461127d9083611cda565b600154600c546040516307d47a8b60e11b815233600482015260248101919091529192506000916001600160a01b0390911690630fa8f5169060440160c060405180830381865afa1580156112d6573d6000803e3d6000fd5b505050506040513d601f19601f820116820180604052508101906112fa9190611d7b565b505050505090506003548261130f9190611c71565b6113199082611ca7565b60095411156113885760405162461bcd60e51b815260206004820152603560248201527f4d6f72706865725374616b696e673a207374616b6520616d6f756e74206c6f776044820152746572207468616e206d696e696d756d207374616b6560581b60648201526084016101ee565b600154600b546003546001600160a01b039283169263beabacc89233929116906113b29087611c71565b6040516001600160e01b031960e086901b1681526001600160a01b0393841660048201529290911660248301526044820152606401600060405180830381600087803b15801561140157600080fd5b505af1158015611415573d6000803e3d6000fd5b50505050816005546114279190611ca7565b600555600154600c546008546001600160a01b039092169163be7e64b69133916114519042611ca7565b61145b8787611ca7565b60008060008060006040518a63ffffffff1660e01b815260040161148799989796959493929190611dde565b600060405180830381600087803b1580156114a157600080fd5b505af11580156114b5573d6000803e3d6000fd5b5050505082336001600160a01b03167fb4caaf29adda3eefee3ad552a8e85058589bf834c7466cae4ee58787f70589ed84600854426114f49190611ca7565b6040805192835260208301919091520160405180910390a350919050565b6000546001600160a01b0316331461153c5760405162461bcd60e51b81526004016101ee90611e28565b600180546001600160a01b0319166001600160a01b0383169081179091556040519081527f978c711532bae8c58f353b0f3c7f3a0dfe600d9ae9a81818f2ad2919b88e1990906020016109a4565b6000546001600160a01b031633146115b45760405162461bcd60e51b81526004016101ee90611e28565b6001600160a01b0381166116195760405162461bcd60e51b815260206004820152602660248201527f4f776e61626c653a206e6577206f776e657220697320746865207a65726f206160448201526564647265737360d01b60648201526084016101ee565b610e9c81611995565b6000620151806004546116359190611ca7565b42106116d35760006201518060045461164e9190611cda565b6116589042611c90565b9050611662610f5e565b61166c9082611c71565b6003546116799190611ca7565b6003556116896201518082611c71565b6004546116969190611ca7565b60048190556003546040519081527fd59b6c8b3190f59807a1cf0b6fb311ba03a32a91c1da71f75e24251a132cdc369060200160405180910390a2505b6116db6119e5565b5060035490565b600a546001600160a01b0316331461170c5760405162461bcd60e51b81526004016101ee90611cfc565b600082815260066020908152604091829020548251858152918201529081018290527f540bfd7b71faa6e96efd78eadf2100240526e583905c7fb4a63d545b20effd2e9060600160405180910390a181600754116117c25760405162461bcd60e51b815260206004820152602d60248201527f4d6f72706865725374616b696e673a20496e746572657374205261746520446f60448201526c6573206e6f742065786973742160981b60648201526084016101ee565b811580156117de5750600060016007546117dc9190611c90565b115b8015611809575080600660006117f5856001611ca7565b815260200190815260200160002060000154115b80611857575060008211801561182c575060016007546118299190611c90565b82145b801561185757508060066000611843600186611c90565b815260200190815260200160002060000154105b806118d0575060008211801561187a575060016007546118779190611c90565b82105b80156118a557508060066000611891600186611c90565b815260200190815260200160002060000154105b80156118d0575080600660006118bc856001611ca7565b815260200190815260200160002060000154115b61197a5760405162461bcd60e51b815260206004820152606960248201527f4d6f72706865725374616b696e673a2076616c696446726f6d2063616e6e6f7460448201527f20626520736d616c6c6572207468616e2070726576696f757320496e7465726560648201527f73742052617465206f72206c6172676572207468616e206e65787420496e746560848201526872657374205261746560b81b60a482015260c4016101ee565b611982611622565b5060009182526006602052604090912055565b600080546001600160a01b038381166001600160a01b0319831681178455604051919092169283917f8be0079c531659141344cd1fd0a4f28419497f9722a3daafe3b4186f6b6457e09190a35050565b60006005546003546119f79190611c71565b600154600b546040516370a0823160e01b81526001600160a01b03918216600482015292935083929116906370a0823190602401602060405180830381865afa158015611a48573d6000803e3d6000fd5b505050506040513d601f19601f82011682018060405250810190611a6c9190611dc5565b1015610e9c57600154600b546040516370a0823160e01b81526001600160a01b03918216600482015260009291909116906370a0823190602401602060405180830381865afa158015611ac3573d6000803e3d6000fd5b505050506040513d601f19601f82011682018060405250810190611ae79190611dc5565b611af19083611c90565b600154600b546040516340c10f1960e01b81526001600160a01b0391821660048201526024810184905292935016906340c10f1990604401600060405180830381600087803b158015611b4357600080fd5b505af1158015611b57573d6000803e3d6000fd5b505050506004547f49515cfbb90751627e2852161b77cf8be48f82d26e181d9fa1770df3168299a382604051611b8f91815260200190565b60405180910390a25050565b6020808252602c908201527f4d6f72706865725374616b696e673a20796f752063616e2774206465706f736960408201526b74204574686572206865726560a01b606082015260800190565b600060208284031215611bf957600080fd5b5035919050565b60008060408385031215611c1357600080fd5b50508035926020909101359150565b6001600160a01b0381168114610e9c57600080fd5b600060208284031215611c4957600080fd5b8135611c5481611c22565b9392505050565b634e487b7160e01b600052601160045260246000fd5b6000816000190483118215151615611c8b57611c8b611c5b565b500290565b600082821015611ca257611ca2611c5b565b500390565b60008219821115611cba57611cba611c5b565b500190565b6000600019821415611cd357611cd3611c5b565b5060010190565b600082611cf757634e487b7160e01b600052601260045260246000fd5b500490565b6020808252603c908201527f4d6f72706865725374616b696e673a2063616e206f6e6c792062652063616c6c60408201527f6564206279205374616b696e672041646d696e6973747261746f722e00000000606082015260800190565b600060208284031215611d6b57600080fd5b81518015158114611c5457600080fd5b60008060008060008060c08789031215611d9457600080fd5b865195506020870151945060408701519350606087015192506080870151915060a087015190509295509295509295565b600060208284031215611dd757600080fd5b5051919050565b6001600160a01b03999099168952602089019790975260408801959095526060870193909352608086019190915260a085015260c084015260e08301526101008201526101200190565b6020808252818101527f4f776e61626c653a2063616c6c6572206973206e6f7420746865206f776e6572604082015260600190565b600081611e6c57611e6c611c5b565b50600019019056fea26469706673582212207ca28c7d8e8f180f6ae4b8667584067dc523b0689ce310bcdd1f5d4b693af11a64736f6c634300080b00334f776e61626c653a2063616c6c6572206973206e6f7420746865206f776e6572",
  "immutableReferences": {},
  "source": "//SPDX-License-Identifier: GPLv3\r\npragma solidity 0.8.11;\r\nimport \"@openzeppelin/contracts/access/Ownable.sol\";\r\n\r\nimport \"./MorpherState.sol\";\r\nimport \"./MorpherUserBlocking.sol\";\r\n\r\n// ----------------------------------------------------------------------------------\r\n// Staking Morpher Token generates interest\r\n// The interest is set to 0.015% a day or ~5.475% in the first year\r\n// Stakers will be able to vote on all ProtocolDecisions in MorpherGovernance (soon...)\r\n// There is a lockup after staking or topping up (30 days) and a minimum stake (100k MPH)\r\n// ----------------------------------------------------------------------------------\r\n\r\ncontract MorpherStaking is Ownable {\r\n\r\n    MorpherState state;\r\n    \r\n    MorpherUserBlocking userBlocking;\r\n\r\n    uint256 constant PRECISION = 10**8;\r\n    uint256 constant INTERVAL  = 1 days;\r\n\r\n    //mapping(address => uint256) private poolShares;\r\n    //mapping(address => uint256) private lockup;\r\n\r\n    uint256 public poolShareValue = PRECISION;\r\n    uint256 public lastReward;\r\n    uint256 public totalShares;\r\n    //uint256 public interestRate = 15000; // 0.015% per day initially, diminishing returns over time\r\n    struct InterestRate {\r\n        uint256 validFrom;\r\n        uint256 rate;\r\n    }\r\n\r\n    mapping(uint256 => InterestRate) public interestRates;\r\n    uint256 public numInterestRates;\r\n\r\n    uint256 public lockupPeriod = 30 days; // to prevent tactical staking and ensure smooth governance\r\n    uint256 public minimumStake = 10**23; // 100k MPH minimum\r\n\r\n    address public stakingAdmin;\r\n\r\n    address public stakingAddress = 0x2222222222222222222222222222222222222222;\r\n    bytes32 public marketIdStakingMPH = 0x9a31fdde7a3b1444b1befb10735dcc3b72cbd9dd604d2ff45144352bf0f359a6; //STAKING_MPH\r\n\r\n// ----------------------------------------------------------------------------\r\n// Events\r\n// ----------------------------------------------------------------------------\r\n    event SetInterestRate(uint256 newInterestRate);\r\n    event InterestRateAdded(uint256 interestRate, uint256 validFromTimestamp);\r\n    event InterestRateRateChanged(uint256 interstRateIndex, uint256 oldvalue, uint256 newValue);\r\n    event InterestRateValidFromChanged(uint256 interstRateIndex, uint256 oldvalue, uint256 newValue);\r\n    event SetLockupPeriod(uint256 newLockupPeriod);\r\n    event SetMinimumStake(uint256 newMinimumStake);\r\n    event LinkState(address stateAddress);\r\n    event SetStakingAdmin(address stakingAdmin);\r\n    event SetMorpherUserBlocking(address userBlockingAddress);\r\n    \r\n    event PoolShareValueUpdated(uint256 indexed lastReward, uint256 poolShareValue);\r\n    event StakingRewardsMinted(uint256 indexed lastReward, uint256 delta);\r\n    event Staked(address indexed userAddress, uint256 indexed amount, uint256 poolShares, uint256 lockedUntil);\r\n    event Unstaked(address indexed userAddress, uint256 indexed amount, uint256 poolShares);\r\n    \r\n    modifier onlyStakingAdmin {\r\n        require(msg.sender == stakingAdmin, \"MorpherStaking: can only be called by Staking Administrator.\");\r\n        _;\r\n    }\r\n\r\n    modifier userNotBlocked {\r\n        require(!userBlocking.userIsBlocked(msg.sender), \"MorpherStaking: User is blocked\");\r\n        _;\r\n    }\r\n    \r\n    constructor(address payable _morpherState, address _stakingAdmin, address payable _userBlockingAddress) {\r\n        setStakingAdmin(_stakingAdmin);\r\n        setMorpherStateAddress(_morpherState);\r\n        emit SetLockupPeriod(lockupPeriod);\r\n        emit SetMinimumStake(minimumStake);\r\n        setMorpherUserBlocking(_userBlockingAddress);\r\n        addInterestRate(15000,1617094819); //setting the initial interest rate to the trade engine deployed timestamp\r\n        lastReward = block.timestamp;\r\n        // missing: transferOwnership to Governance once deployed\r\n    }\r\n\r\n// ----------------------------------------------------------------------------\r\n// updatePoolShareValue\r\n// Updates the value of the Pool Shares and returns the new value.\r\n// Staking rewards are linear, there is no compound interest.\r\n// ----------------------------------------------------------------------------\r\n    \r\n    function updatePoolShareValue() public returns (uint256 _newPoolShareValue) {\r\n        if (block.timestamp >= lastReward + INTERVAL) {\r\n            uint256 _numOfIntervals = block.timestamp - lastReward / INTERVAL;\r\n            poolShareValue = poolShareValue + (_numOfIntervals * interestRate());\r\n            lastReward = lastReward + (_numOfIntervals * (INTERVAL));\r\n            emit PoolShareValueUpdated(lastReward, poolShareValue);\r\n        }\r\n        mintStakingRewards();\r\n        return poolShareValue;        \r\n    }\r\n\r\n// ----------------------------------------------------------------------------\r\n// Staking rewards are minted if necessary\r\n// ----------------------------------------------------------------------------\r\n\r\n    function mintStakingRewards() private {\r\n        uint256 _targetBalance = poolShareValue * (totalShares);\r\n        if (state.balanceOf(stakingAddress) < _targetBalance) {\r\n            // If there are not enough token held by the contract, mint them\r\n            uint256 _delta = _targetBalance - (state.balanceOf(stakingAddress));\r\n            state.mint(stakingAddress, _delta);\r\n            emit StakingRewardsMinted(lastReward, _delta);\r\n        }\r\n    }\r\n\r\n// ----------------------------------------------------------------------------\r\n// stake(uint256 _amount)\r\n// User specifies an amount they intend to stake. Pool Shares are issued accordingly\r\n// and the _amount is transferred to the staking contract\r\n// ----------------------------------------------------------------------------\r\n\r\n    function stake(uint256 _amount) public userNotBlocked returns (uint256 _poolShares) {\r\n        require(state.balanceOf(msg.sender) >= _amount, \"MorpherStaking: insufficient MPH token balance\");\r\n        updatePoolShareValue();\r\n        _poolShares = _amount / (poolShareValue);\r\n        (uint256 _numOfShares, , , , , ) = state.getPosition(msg.sender, marketIdStakingMPH);\r\n        require(minimumStake <= _numOfShares + (_poolShares) * (poolShareValue), \"MorpherStaking: stake amount lower than minimum stake\");\r\n        state.transfer(msg.sender, stakingAddress, _poolShares * (poolShareValue));\r\n        totalShares = totalShares + (_poolShares);\r\n        state.setPosition(msg.sender, marketIdStakingMPH, block.timestamp + (lockupPeriod), _numOfShares + (_poolShares), 0, 0, 0, 0, 0);\r\n        emit Staked(msg.sender, _amount, _poolShares, block.timestamp + (lockupPeriod));\r\n        return _poolShares;\r\n    }\r\n\r\n// ----------------------------------------------------------------------------\r\n// unstake(uint256 _amount)\r\n// User specifies number of Pool Shares they want to unstake. \r\n// Pool Shares get deleted and the user receives their MPH plus interest\r\n// ----------------------------------------------------------------------------\r\n\r\n    function unstake(uint256 _numOfShares) public userNotBlocked returns (uint256 _amount) {\r\n        (uint256 _numOfExistingShares, , , , , ) = state.getPosition(msg.sender, marketIdStakingMPH);\r\n        require(_numOfShares <= _numOfExistingShares, \"MorpherStaking: insufficient pool shares\");\r\n\r\n        uint256 lockedInUntil = state.getLastUpdated(msg.sender, marketIdStakingMPH);\r\n        require(block.timestamp >= lockedInUntil, \"MorpherStaking: cannot unstake before lockup expiration\");\r\n        updatePoolShareValue();\r\n        state.setPosition(msg.sender, marketIdStakingMPH, lockedInUntil, _numOfExistingShares - (_numOfShares), 0, 0, 0, 0, 0);\r\n        totalShares = totalShares - (_numOfShares);\r\n        _amount = _numOfShares * (poolShareValue);\r\n        state.transfer(stakingAddress, msg.sender, _amount);\r\n        emit Unstaked(msg.sender, _amount, _numOfShares);\r\n        return _amount;\r\n    }\r\n\r\n// ----------------------------------------------------------------------------\r\n// Administrative functions\r\n// ----------------------------------------------------------------------------\r\n\r\n    function setStakingAdmin(address _address) public onlyOwner {\r\n        stakingAdmin = _address;\r\n        emit SetStakingAdmin(_address);\r\n    }\r\n\r\n    function setMorpherStateAddress(address payable _stateAddress) public onlyOwner {\r\n        state = MorpherState(_stateAddress);\r\n        emit LinkState(_stateAddress);\r\n    }\r\n\r\n    function setMorpherUserBlocking(address payable _userBlockingAddress) public onlyOwner {\r\n        userBlocking = MorpherUserBlocking(_userBlockingAddress);\r\n        emit SetMorpherUserBlocking(_userBlockingAddress);\r\n    }\r\n\r\n\r\n    /**\r\n    Interest rate\r\n     */\r\n    function setInterestRate(uint256 _interestRate) public onlyStakingAdmin {\r\n        addInterestRate(_interestRate, block.timestamp);\r\n    }\r\n\r\n/**\r\n    fallback function in case the old tradeengine asks for the current interest rate\r\n */\r\n    function interestRate() public view returns (uint256) {\r\n        //start with the last one, as its most likely the last active one, no need to run through the whole map\r\n        if(numInterestRates == 0) {\r\n            return 0;\r\n        }\r\n        for(uint256 i = numInterestRates - 1; i >= 0; i--) {\r\n            if(interestRates[i].validFrom <= block.timestamp) {\r\n                return interestRates[i].rate;\r\n            }\r\n        }\r\n        return 0;\r\n    }\r\n\r\n    function addInterestRate(uint _rate, uint _validFrom) public onlyStakingAdmin {\r\n        require(numInterestRates == 0 || interestRates[numInterestRates-1].validFrom < _validFrom, \"MorpherStaking: Interest Rate Valid From must be later than last interestRate\");\r\n        //omitting rate sanity checks here. It should always be smaller than 100% (100000000) but I'll leave that to the common sense of the admin.\r\n        updatePoolShareValue();\r\n        interestRates[numInterestRates].validFrom = _validFrom;\r\n        interestRates[numInterestRates].rate = _rate;\r\n        numInterestRates++;\r\n        emit InterestRateAdded(_rate, _validFrom);\r\n    }\r\n\r\n    function changeInterestRateValue(uint256 _numInterestRate, uint256 _rate) public onlyStakingAdmin {\r\n        emit InterestRateRateChanged(_numInterestRate, interestRates[_numInterestRate].rate, _rate);\r\n        updatePoolShareValue();\r\n        interestRates[_numInterestRate].rate = _rate;\r\n    }\r\n    function changeInterestRateValidFrom(uint256 _numInterestRate, uint256 _validFrom) public onlyStakingAdmin {\r\n        emit InterestRateValidFromChanged(_numInterestRate, interestRates[_numInterestRate].validFrom, _validFrom);\r\n        require(numInterestRates > _numInterestRate, \"MorpherStaking: Interest Rate Does not exist!\");\r\n        require(\r\n            (_numInterestRate == 0 && numInterestRates-1 > 0 && interestRates[_numInterestRate+1].validFrom > _validFrom) || //we change the first one and there exist more than one\r\n            (_numInterestRate > 0 && _numInterestRate == numInterestRates-1 && interestRates[_numInterestRate - 1].validFrom < _validFrom) || //we changed the last one\r\n            (_numInterestRate > 0 && _numInterestRate < numInterestRates-1 && interestRates[_numInterestRate - 1].validFrom < _validFrom && interestRates[_numInterestRate + 1].validFrom > _validFrom),\r\n            \"MorpherStaking: validFrom cannot be smaller than previous Interest Rate or larger than next Interest Rate\"\r\n            );\r\n        updatePoolShareValue();\r\n        interestRates[_numInterestRate].validFrom = _validFrom;\r\n    }\r\n\r\n     function getInterestRate(uint256 _positionTimestamp) public view returns(uint256) {\r\n        uint256 sumInterestRatesWeighted = 0;\r\n        uint256 startingTimestamp = 0;\r\n        \r\n        for(uint256 i = 0; i < numInterestRates; i++) {\r\n            if(i == numInterestRates-1 || interestRates[i+1].validFrom > block.timestamp) {\r\n                //reached last interest rate\r\n                sumInterestRatesWeighted = sumInterestRatesWeighted + (interestRates[i].rate * (block.timestamp - interestRates[i].validFrom));\r\n                if(startingTimestamp == 0) {\r\n                    startingTimestamp = interestRates[i].validFrom;\r\n                }\r\n                break; //in case there are more in the future\r\n            } else {\r\n                //only take interest rates after the position was created\r\n                if(interestRates[i+1].validFrom > _positionTimestamp) {\r\n                    sumInterestRatesWeighted = sumInterestRatesWeighted + (interestRates[i].rate * (interestRates[i+1].validFrom - interestRates[i].validFrom));\r\n                    if(interestRates[i].validFrom <= _positionTimestamp) {\r\n                        startingTimestamp = interestRates[i].validFrom;\r\n                    }\r\n                }\r\n            } \r\n        }\r\n        return sumInterestRatesWeighted / (block.timestamp - startingTimestamp);\r\n\r\n    }\r\n\r\n    function setLockupPeriodRate(uint256 _lockupPeriod) public onlyStakingAdmin {\r\n        lockupPeriod = _lockupPeriod;\r\n        emit SetLockupPeriod(_lockupPeriod);\r\n    }\r\n    \r\n    function setMinimumStake(uint256 _minimumStake) public onlyStakingAdmin {\r\n        minimumStake = _minimumStake;\r\n        emit SetMinimumStake(_minimumStake);\r\n    }\r\n\r\n// ----------------------------------------------------------------------------\r\n// Getter functions\r\n// ----------------------------------------------------------------------------\r\n\r\n    function getTotalPooledValue() public view returns (uint256 _totalPooled) {\r\n        // Only accurate if poolShareValue is up to date\r\n        return poolShareValue * (totalShares);\r\n    }\r\n\r\n    function getStake(address _address) public view returns (uint256 _poolShares) {\r\n        (uint256 _numOfShares, , , , , ) = state.getPosition(_address, marketIdStakingMPH);\r\n        return _numOfShares;\r\n    }\r\n\r\n    function getStakeValue(address _address) public view returns(uint256 _value, uint256 _lastUpdate) {\r\n        // Only accurate if poolShareValue is up to date\r\n        \r\n        (uint256 _numOfShares, , , , , ) = state.getPosition(_address, marketIdStakingMPH);\r\n\r\n        return (_numOfShares * (poolShareValue), lastReward);\r\n    }\r\n    \r\n// ------------------------------------------------------------------------\r\n// Don't accept ETH\r\n// ------------------------------------------------------------------------\r\n\r\n    fallback() external payable {\r\n        revert(\"MorpherStaking: you can't deposit Ether here\");\r\n    }\r\n    receive() external payable {\r\n        revert(\"MorpherStaking: you can't deposit Ether here\");\r\n    }\r\n}\r\n",
  "sourcePath": "/home/thomas/MorpherProtocol/contracts/MorpherStaking.sol",
  "compiler": {
    "name": "solc",
    "version": "0.8.11+commit.d7f03943.Emscripten.clang"
  },
  "schemaVersion": "3.4.5",
  "updatedAt": "2022-03-03T15:03:23.676Z",
  "devdoc": {
    "kind": "dev",
    "methods": {
      "owner()": {
        "details": "Returns the address of the current owner."
      },
      "renounceOwnership()": {
        "details": "Leaves the contract without owner. It will not be possible to call `onlyOwner` functions anymore. Can only be called by the current owner. NOTE: Renouncing ownership will leave the contract without an owner, thereby removing any functionality that is only available to the owner."
      },
      "transferOwnership(address)": {
        "details": "Transfers ownership of the contract to a new account (`newOwner`). Can only be called by the current owner."
      }
    },
    "version": 1
  },
  "userdoc": {
    "kind": "user",
    "methods": {
      "interestRate()": {
        "notice": "fallback function in case the old tradeengine asks for the current interest rate"
      },
      "setInterestRate(uint256)": {
        "notice": "Interest rate"
      }
    },
    "version": 1
  }
}