{
  "contractName": "MorpherBridge",
  "abi": [
    {
      "anonymous": false,
      "inputs": [
        {
          "indexed": true,
          "internalType": "address",
          "name": "from",
          "type": "address"
        },
        {
          "indexed": false,
          "internalType": "uint256",
          "name": "tokens",
          "type": "uint256"
        }
      ],
      "name": "ClaimFailedTransferToSidechain",
      "type": "event"
    },
    {
      "anonymous": false,
      "inputs": [
        {
          "indexed": false,
          "internalType": "address",
          "name": "_address",
          "type": "address"
        }
      ],
      "name": "LinkState",
      "type": "event"
    },
    {
      "anonymous": false,
      "inputs": [
        {
          "indexed": true,
          "internalType": "address",
          "name": "from",
          "type": "address"
        },
        {
          "indexed": false,
          "internalType": "uint256",
          "name": "tokens",
          "type": "uint256"
        },
        {
          "indexed": false,
          "internalType": "bytes32",
          "name": "sidechainTransactionHash",
          "type": "bytes32"
        }
      ],
      "name": "OperatorChainTransfer",
      "type": "event"
    },
    {
      "anonymous": false,
      "inputs": [
        {
          "indexed": true,
          "internalType": "address",
          "name": "from",
          "type": "address"
        },
        {
          "indexed": false,
          "internalType": "bytes32",
          "name": "positionHash",
          "type": "bytes32"
        }
      ],
      "name": "PositionRecoveryFromSideChain",
      "type": "event"
    },
    {
      "anonymous": false,
      "inputs": [
        {
          "indexed": false,
          "internalType": "bytes32",
          "name": "_rootHash",
          "type": "bytes32"
        }
      ],
      "name": "SideChainMerkleRootUpdated",
      "type": "event"
    },
    {
      "anonymous": false,
      "inputs": [
        {
          "indexed": true,
          "internalType": "address",
          "name": "from",
          "type": "address"
        },
        {
          "indexed": false,
          "internalType": "bytes32",
          "name": "positionHash",
          "type": "bytes32"
        }
      ],
      "name": "TokenRecoveryFromSideChain",
      "type": "event"
    },
    {
      "anonymous": false,
      "inputs": [
        {
          "indexed": true,
          "internalType": "address",
          "name": "from",
          "type": "address"
        },
        {
          "indexed": false,
          "internalType": "uint256",
          "name": "tokens",
          "type": "uint256"
        },
        {
          "indexed": false,
          "internalType": "uint256",
          "name": "totalTokenSent",
          "type": "uint256"
        },
        {
          "indexed": false,
          "internalType": "uint256",
          "name": "timeStamp",
          "type": "uint256"
        },
        {
          "indexed": false,
          "internalType": "uint256",
          "name": "transferNonce",
          "type": "uint256"
        },
        {
          "indexed": true,
          "internalType": "bytes32",
          "name": "transferHash",
          "type": "bytes32"
        }
      ],
      "name": "TransferToLinkedChain",
      "type": "event"
    },
    {
      "anonymous": false,
      "inputs": [
        {
          "indexed": true,
          "internalType": "address",
          "name": "from",
          "type": "address"
        },
        {
          "indexed": false,
          "internalType": "uint256",
          "name": "tokens",
          "type": "uint256"
        }
      ],
      "name": "TrustlessWithdrawFromSideChain",
      "type": "event"
    },
    {
      "anonymous": false,
      "inputs": [
        {
          "indexed": false,
          "internalType": "uint256",
          "name": "_withdrawLimit",
          "type": "uint256"
        }
      ],
      "name": "WithdrawLimitChanged",
      "type": "event"
    },
    {
      "anonymous": false,
      "inputs": [
        {
          "indexed": false,
          "internalType": "uint256",
          "name": "_oldLimit",
          "type": "uint256"
        },
        {
          "indexed": false,
          "internalType": "uint256",
          "name": "_newLimit",
          "type": "uint256"
        }
      ],
      "name": "WithdrawLimitDailyGlobalChanged",
      "type": "event"
    },
    {
      "anonymous": false,
      "inputs": [
        {
          "indexed": false,
          "internalType": "uint256",
          "name": "_oldLimit",
          "type": "uint256"
        },
        {
          "indexed": false,
          "internalType": "uint256",
          "name": "_newLimit",
          "type": "uint256"
        }
      ],
      "name": "WithdrawLimitDailyPerUserChanged",
      "type": "event"
    },
    {
      "anonymous": false,
      "inputs": [
        {
          "indexed": false,
          "internalType": "uint256",
          "name": "_oldLimit",
          "type": "uint256"
        },
        {
          "indexed": false,
          "internalType": "uint256",
          "name": "_newLimit",
          "type": "uint256"
        }
      ],
      "name": "WithdrawLimitMonthlyGlobalChanged",
      "type": "event"
    },
    {
      "anonymous": false,
      "inputs": [
        {
          "indexed": false,
          "internalType": "uint256",
          "name": "_oldLimit",
          "type": "uint256"
        },
        {
          "indexed": false,
          "internalType": "uint256",
          "name": "_newLimit",
          "type": "uint256"
        }
      ],
      "name": "WithdrawLimitMonthlyPerUserChanged",
      "type": "event"
    },
    {
      "anonymous": false,
      "inputs": [],
      "name": "WithdrawLimitReset",
      "type": "event"
    },
    {
      "anonymous": false,
      "inputs": [
        {
          "indexed": false,
          "internalType": "uint256",
          "name": "_oldLimit",
          "type": "uint256"
        },
        {
          "indexed": false,
          "internalType": "uint256",
          "name": "_newLimit",
          "type": "uint256"
        }
      ],
      "name": "WithdrawLimitYearlyGlobalChanged",
      "type": "event"
    },
    {
      "anonymous": false,
      "inputs": [
        {
          "indexed": false,
          "internalType": "uint256",
          "name": "_oldLimit",
          "type": "uint256"
        },
        {
          "indexed": false,
          "internalType": "uint256",
          "name": "_newLimit",
          "type": "uint256"
        }
      ],
      "name": "WithdrawLimitYearlyPerUserChanged",
      "type": "event"
    },
    {
      "inputs": [],
      "name": "ADMINISTRATOR_ROLE",
      "outputs": [
        {
          "internalType": "bytes32",
          "name": "",
          "type": "bytes32"
        }
      ],
      "stateMutability": "view",
      "type": "function"
    },
    {
      "inputs": [],
      "name": "SIDECHAINOPERATOR_ROLE",
      "outputs": [
        {
          "internalType": "bytes32",
          "name": "",
          "type": "bytes32"
        }
      ],
      "stateMutability": "view",
      "type": "function"
    },
    {
      "inputs": [],
      "name": "WETH9",
      "outputs": [
        {
          "internalType": "address",
          "name": "",
          "type": "address"
        }
      ],
      "stateMutability": "view",
      "type": "function"
    },
    {
      "inputs": [],
      "name": "bridgeNonce",
      "outputs": [
        {
          "internalType": "uint256",
          "name": "",
          "type": "uint256"
        }
      ],
      "stateMutability": "view",
      "type": "function"
    },
    {
      "inputs": [
        {
          "internalType": "bytes32",
          "name": "",
          "type": "bytes32"
        }
      ],
      "name": "claimFromInactivity",
      "outputs": [
        {
          "internalType": "bool",
          "name": "",
          "type": "bool"
        }
      ],
      "stateMutability": "view",
      "type": "function"
    },
    {
      "inputs": [],
      "name": "inactivityPeriod",
      "outputs": [
        {
          "internalType": "uint256",
          "name": "",
          "type": "uint256"
        }
      ],
      "stateMutability": "view",
      "type": "function"
    },
    {
      "inputs": [],
      "name": "poolFee",
      "outputs": [
        {
          "internalType": "uint24",
          "name": "",
          "type": "uint24"
        }
      ],
      "stateMutability": "view",
      "type": "function"
    },
    {
      "inputs": [],
      "name": "recoveryEnabled",
      "outputs": [
        {
          "internalType": "bool",
          "name": "",
          "type": "bool"
        }
      ],
      "stateMutability": "view",
      "type": "function"
    },
    {
      "inputs": [],
      "name": "swapRouter",
      "outputs": [
        {
          "internalType": "contract ISwapRouter",
          "name": "",
          "type": "address"
        }
      ],
      "stateMutability": "view",
      "type": "function"
    },
    {
      "inputs": [
        {
          "internalType": "address",
          "name": "",
          "type": "address"
        }
      ],
      "name": "tokenClaimedOnThisChain",
      "outputs": [
        {
          "internalType": "uint256",
          "name": "amount",
          "type": "uint256"
        },
        {
          "internalType": "uint256",
          "name": "lastTransferAt",
          "type": "uint256"
        }
      ],
      "stateMutability": "view",
      "type": "function"
    },
    {
      "inputs": [
        {
          "internalType": "address",
          "name": "",
          "type": "address"
        }
      ],
      "name": "tokenSentToLinkedChain",
      "outputs": [
        {
          "internalType": "uint256",
          "name": "amount",
          "type": "uint256"
        },
        {
          "internalType": "uint256",
          "name": "lastTransferAt",
          "type": "uint256"
        }
      ],
      "stateMutability": "view",
      "type": "function"
    },
    {
      "inputs": [],
      "name": "withdrawalData",
      "outputs": [
        {
          "internalType": "bytes32",
          "name": "merkleRoot",
          "type": "bytes32"
        },
        {
          "internalType": "uint256",
          "name": "lastUpdatedAt",
          "type": "uint256"
        }
      ],
      "stateMutability": "view",
      "type": "function"
    },
    {
      "inputs": [],
      "name": "withdrawalLimitGlobalDaily",
      "outputs": [
        {
          "internalType": "uint256",
          "name": "",
          "type": "uint256"
        }
      ],
      "stateMutability": "view",
      "type": "function"
    },
    {
      "inputs": [],
      "name": "withdrawalLimitGlobalMonthly",
      "outputs": [
        {
          "internalType": "uint256",
          "name": "",
          "type": "uint256"
        }
      ],
      "stateMutability": "view",
      "type": "function"
    },
    {
      "inputs": [],
      "name": "withdrawalLimitGlobalYearly",
      "outputs": [
        {
          "internalType": "uint256",
          "name": "",
          "type": "uint256"
        }
      ],
      "stateMutability": "view",
      "type": "function"
    },
    {
      "inputs": [],
      "name": "withdrawalLimitPerUserDaily",
      "outputs": [
        {
          "internalType": "uint256",
          "name": "",
          "type": "uint256"
        }
      ],
      "stateMutability": "view",
      "type": "function"
    },
    {
      "inputs": [],
      "name": "withdrawalLimitPerUserMonthly",
      "outputs": [
        {
          "internalType": "uint256",
          "name": "",
          "type": "uint256"
        }
      ],
      "stateMutability": "view",
      "type": "function"
    },
    {
      "inputs": [],
      "name": "withdrawalLimitPerUserYearly",
      "outputs": [
        {
          "internalType": "uint256",
          "name": "",
          "type": "uint256"
        }
      ],
      "stateMutability": "view",
      "type": "function"
    },
    {
      "inputs": [
        {
          "internalType": "address",
          "name": "",
          "type": "address"
        },
        {
          "internalType": "uint256",
          "name": "",
          "type": "uint256"
        }
      ],
      "name": "withdrawalPerUserPerDay",
      "outputs": [
        {
          "internalType": "uint256",
          "name": "",
          "type": "uint256"
        }
      ],
      "stateMutability": "view",
      "type": "function"
    },
    {
      "inputs": [
        {
          "internalType": "address",
          "name": "",
          "type": "address"
        },
        {
          "internalType": "uint256",
          "name": "",
          "type": "uint256"
        }
      ],
      "name": "withdrawalPerUserPerMonth",
      "outputs": [
        {
          "internalType": "uint256",
          "name": "",
          "type": "uint256"
        }
      ],
      "stateMutability": "view",
      "type": "function"
    },
    {
      "inputs": [
        {
          "internalType": "address",
          "name": "",
          "type": "address"
        },
        {
          "internalType": "uint256",
          "name": "",
          "type": "uint256"
        }
      ],
      "name": "withdrawalPerUserPerYear",
      "outputs": [
        {
          "internalType": "uint256",
          "name": "",
          "type": "uint256"
        }
      ],
      "stateMutability": "view",
      "type": "function"
    },
    {
      "inputs": [
        {
          "internalType": "uint256",
          "name": "",
          "type": "uint256"
        }
      ],
      "name": "withdrawalsGlobalDaily",
      "outputs": [
        {
          "internalType": "uint256",
          "name": "",
          "type": "uint256"
        }
      ],
      "stateMutability": "view",
      "type": "function"
    },
    {
      "inputs": [
        {
          "internalType": "uint256",
          "name": "",
          "type": "uint256"
        }
      ],
      "name": "withdrawalsGlobalMonthly",
      "outputs": [
        {
          "internalType": "uint256",
          "name": "",
          "type": "uint256"
        }
      ],
      "stateMutability": "view",
      "type": "function"
    },
    {
      "inputs": [
        {
          "internalType": "uint256",
          "name": "",
          "type": "uint256"
        }
      ],
      "name": "withdrawalsGlobalYearly",
      "outputs": [
        {
          "internalType": "uint256",
          "name": "",
          "type": "uint256"
        }
      ],
      "stateMutability": "view",
      "type": "function"
    },
    {
      "inputs": [
        {
          "internalType": "address",
          "name": "_stateAddress",
          "type": "address"
        },
        {
          "internalType": "bool",
          "name": "_recoveryEnabled",
          "type": "bool"
        },
        {
          "internalType": "contract ISwapRouter",
          "name": "_swapRouter",
          "type": "address"
        }
      ],
      "name": "initialize",
      "outputs": [],
      "stateMutability": "nonpayable",
      "type": "function"
    },
    {
      "inputs": [
        {
          "internalType": "address",
          "name": "_stateAddress",
          "type": "address"
        }
      ],
      "name": "setMorpherState",
      "outputs": [],
      "stateMutability": "nonpayable",
      "type": "function"
    },
    {
      "inputs": [
        {
          "internalType": "uint256",
          "name": "_periodInSeconds",
          "type": "uint256"
        }
      ],
      "name": "setInactivityPeriod",
      "outputs": [],
      "stateMutability": "nonpayable",
      "type": "function"
    },
    {
      "inputs": [
        {
          "internalType": "bytes32",
          "name": "_rootHash",
          "type": "bytes32"
        }
      ],
      "name": "updateSideChainMerkleRoot",
      "outputs": [],
      "stateMutability": "nonpayable",
      "type": "function"
    },
    {
      "inputs": [
        {
          "internalType": "uint256",
          "name": "_withdrawLimit",
          "type": "uint256"
        }
      ],
      "name": "updateWithdrawLimitPerUserDaily",
      "outputs": [],
      "stateMutability": "nonpayable",
      "type": "function"
    },
    {
      "inputs": [
        {
          "internalType": "uint256",
          "name": "_withdrawLimit",
          "type": "uint256"
        }
      ],
      "name": "updateWithdrawLimitPerUserMonthly",
      "outputs": [],
      "stateMutability": "nonpayable",
      "type": "function"
    },
    {
      "inputs": [
        {
          "internalType": "uint256",
          "name": "_withdrawLimit",
          "type": "uint256"
        }
      ],
      "name": "updateWithdrawLimitPerUserYearly",
      "outputs": [],
      "stateMutability": "nonpayable",
      "type": "function"
    },
    {
      "inputs": [
        {
          "internalType": "uint256",
          "name": "_withdrawLimit",
          "type": "uint256"
        }
      ],
      "name": "updateWithdrawLimitGlobalDaily",
      "outputs": [],
      "stateMutability": "nonpayable",
      "type": "function"
    },
    {
      "inputs": [
        {
          "internalType": "uint256",
          "name": "_withdrawLimit",
          "type": "uint256"
        }
      ],
      "name": "updateWithdrawLimitGlobalMonthly",
      "outputs": [],
      "stateMutability": "nonpayable",
      "type": "function"
    },
    {
      "inputs": [
        {
          "internalType": "uint256",
          "name": "_withdrawLimit",
          "type": "uint256"
        }
      ],
      "name": "updateWithdrawLimitGlobalYearly",
      "outputs": [],
      "stateMutability": "nonpayable",
      "type": "function"
    },
    {
      "inputs": [
        {
          "internalType": "uint256",
          "name": "_amount",
          "type": "uint256"
        }
      ],
      "name": "isNotDailyLimitExceeding",
      "outputs": [
        {
          "internalType": "bool",
          "name": "",
          "type": "bool"
        }
      ],
      "stateMutability": "view",
      "type": "function"
    },
    {
      "inputs": [
        {
          "internalType": "uint256",
          "name": "_amount",
          "type": "uint256"
        }
      ],
      "name": "isNotMonthlyLimitExceeding",
      "outputs": [
        {
          "internalType": "bool",
          "name": "",
          "type": "bool"
        }
      ],
      "stateMutability": "view",
      "type": "function"
    },
    {
      "inputs": [
        {
          "internalType": "uint256",
          "name": "_amount",
          "type": "uint256"
        }
      ],
      "name": "isNotYearlyLimitExceeding",
      "outputs": [
        {
          "internalType": "bool",
          "name": "",
          "type": "bool"
        }
      ],
      "stateMutability": "view",
      "type": "function"
    },
    {
      "inputs": [
        {
          "internalType": "uint256",
          "name": "_amount",
          "type": "uint256"
        }
      ],
      "name": "verifyUpdateDailyLimit",
      "outputs": [],
      "stateMutability": "nonpayable",
      "type": "function"
    },
    {
      "inputs": [
        {
          "internalType": "uint256",
          "name": "_amount",
          "type": "uint256"
        }
      ],
      "name": "verifyUpdateMonthlyLimit",
      "outputs": [],
      "stateMutability": "nonpayable",
      "type": "function"
    },
    {
      "inputs": [
        {
          "internalType": "uint256",
          "name": "_amount",
          "type": "uint256"
        }
      ],
      "name": "verifyUpdateYearlyLimit",
      "outputs": [],
      "stateMutability": "nonpayable",
      "type": "function"
    },
    {
      "inputs": [
        {
          "internalType": "uint256",
          "name": "_tokens",
          "type": "uint256"
        }
      ],
      "name": "stageTokensForTransfer",
      "outputs": [],
      "stateMutability": "nonpayable",
      "type": "function"
    },
    {
      "inputs": [
        {
          "internalType": "uint256",
          "name": "_numOfToken",
          "type": "uint256"
        },
        {
          "internalType": "uint256",
          "name": "_claimLimit",
          "type": "uint256"
        },
        {
          "internalType": "bytes32[]",
          "name": "_proof",
          "type": "bytes32[]"
        }
      ],
      "name": "claimStagedTokens",
      "outputs": [],
      "stateMutability": "nonpayable",
      "type": "function"
    },
    {
      "inputs": [
        {
          "internalType": "uint256",
          "name": "_numOfToken",
          "type": "uint256"
        },
        {
          "internalType": "uint256",
          "name": "_claimLimit",
          "type": "uint256"
        },
        {
          "internalType": "bytes32[]",
          "name": "_proof",
          "type": "bytes32[]"
        },
        {
          "internalType": "address",
          "name": "_finalOutput",
          "type": "address"
        }
      ],
      "name": "claimStagedTokensConvertAndSend",
      "outputs": [],
      "stateMutability": "nonpayable",
      "type": "function"
    },
    {
      "inputs": [
        {
          "internalType": "uint256",
          "name": "_wrongSideChainBalance",
          "type": "uint256"
        },
        {
          "internalType": "bytes32[]",
          "name": "_proof",
          "type": "bytes32[]"
        }
      ],
      "name": "claimFailedTransferToSidechain",
      "outputs": [],
      "stateMutability": "nonpayable",
      "type": "function"
    },
    {
      "inputs": [
        {
          "internalType": "bytes32[]",
          "name": "_proof",
          "type": "bytes32[]"
        },
        {
          "internalType": "bytes32",
          "name": "_leaf",
          "type": "bytes32"
        },
        {
          "internalType": "bytes32",
          "name": "_marketId",
          "type": "bytes32"
        },
        {
          "internalType": "uint256",
          "name": "_timeStamp",
          "type": "uint256"
        },
        {
          "internalType": "uint256",
          "name": "_longShares",
          "type": "uint256"
        },
        {
          "internalType": "uint256",
          "name": "_shortShares",
          "type": "uint256"
        },
        {
          "internalType": "uint256",
          "name": "_meanEntryPrice",
          "type": "uint256"
        },
        {
          "internalType": "uint256",
          "name": "_meanEntrySpread",
          "type": "uint256"
        },
        {
          "internalType": "uint256",
          "name": "_meanEntryLeverage",
          "type": "uint256"
        },
        {
          "internalType": "uint256",
          "name": "_liquidationPrice",
          "type": "uint256"
        }
      ],
      "name": "recoverPositionFromInactivity",
      "outputs": [],
      "stateMutability": "nonpayable",
      "type": "function"
    },
    {
      "inputs": [
        {
          "internalType": "bytes32[]",
          "name": "_proof",
          "type": "bytes32[]"
        },
        {
          "internalType": "bytes32",
          "name": "_leaf",
          "type": "bytes32"
        },
        {
          "internalType": "uint256",
          "name": "_balance",
          "type": "uint256"
        }
      ],
      "name": "recoverTokenFromInactivity",
      "outputs": [],
      "stateMutability": "nonpayable",
      "type": "function"
    },
    {
      "inputs": [
        {
          "internalType": "bytes32[]",
          "name": "_proof",
          "type": "bytes32[]"
        },
        {
          "internalType": "bytes32",
          "name": "_leaf",
          "type": "bytes32"
        }
      ],
      "name": "mProof",
      "outputs": [
        {
          "internalType": "bool",
          "name": "_isTrue",
          "type": "bool"
        }
      ],
      "stateMutability": "view",
      "type": "function"
    },
    {
      "inputs": [
        {
          "internalType": "address",
          "name": "_address",
          "type": "address"
        },
        {
          "internalType": "uint256",
          "name": "_balance",
          "type": "uint256"
        }
      ],
      "name": "getBalanceHash",
      "outputs": [
        {
          "internalType": "bytes32",
          "name": "_hash",
          "type": "bytes32"
        }
      ],
      "stateMutability": "pure",
      "type": "function"
    }
  ],
  "bytecode": "0x608060405234801561001057600080fd5b50613b65806100206000396000f3fe608060405234801561001057600080fd5b50600436106102a05760003560e01c80638010466811610167578063cb1b92fb116100ce578063ec65d96c11610087578063ec65d96c14610673578063eedc58ec14610686578063f03c6fdc14610699578063f45edb5f146106ac578063f5727551146106d3578063fb16f5a9146106e657600080fd5b8063cb1b92fb14610612578063d362bd2b1461061b578063da9a6b3514610624578063de8a574614610644578063e628eb5b1461064d578063e7f34bb71461066057600080fd5b806398684b4e1161012057806398684b4e14610575578063a1949a0a14610588578063a31c98b7146105b3578063abc35a91146105de578063af434a6d146105ec578063c31c9c07146105ff57600080fd5b8063801046681461050057806383ecd61214610513578063857b0da01461051c5780638cd845d91461052f5780638e4b97ec1461054f57806392e7c76e1461056257600080fd5b80632f21278c1161020b5780635300597b116101c45780635300597b1461048657806354dddf431461049957806355069a81146104ac57806358b0e6b5146104bf5780637946541e146104c85780637ac15763146104d557600080fd5b80632f21278c146103d35780633b45c355146103e65780633c14e352146104065780634888a7d11461042d57806349c01664146104405780634aa4a4fc1461045357600080fd5b80631fea82ad1161025d5780631fea82ad1461034257806321bb10bb1461037e57806322f4c3f714610387578063294f19b61461039a5780632d1a752c146103ad5780632e55e76e146103c057600080fd5b8063015b3ab4146102a557806303d23044146102dd578063089fe6aa146102f25780631c0ffbd01461030f5780631da420b9146103265780631f87a25014610339575b600080fd5b6102c86102b3366004613381565b60456020526000908152604090205460ff1681565b60405190151581526020015b60405180910390f35b6102f06102eb36600461344b565b6106fb565b005b6102fb610bb881565b60405162ffffff90911681526020016102d4565b610318603a5481565b6040519081526020016102d4565b6102c8610334366004613381565b6109db565b61031860495481565b6103696103503660046134b1565b6047602052600090815260409020805460019091015482565b604080519283526020830191909152016102d4565b61031860385481565b6102c8610395366004613381565b610a78565b6102c86103a8366004613381565b610af1565b6102f06103bb366004613381565b610b6a565b6102f06103ce366004613381565b610c57565b6102f06103e1366004613381565b610dae565b6103186103f4366004613381565b60406020819052600091825290205481565b6103696104143660046134b1565b6048602052600090815260409020805460019091015482565b6102f061043b3660046134dc565b610f05565b6102f061044e366004613381565b611045565b61046e73c02aaa39b223fe8d0a0e5c4f27ead9083c756cc281565b6040516001600160a01b0390911681526020016102d4565b6102c8610494366004613527565b61119b565b6102f06104a736600461356c565b6111b4565b6102f06104ba366004613381565b611704565b61031860355481565b6044546102c89060ff1681565b6103186104e33660046135cf565b603c60209081526000928352604080842090915290825290205481565b6102f061050e3660046134b1565b61185b565b61031860375481565b61031861052a3660046135cf565b6119d0565b61031861053d366004613381565b603f6020526000908152604090205481565b6102f061055d366004613381565b611a03565b6102f0610570366004613381565b611e9f565b6102f0610583366004613381565b611ff6565b6103186105963660046135cf565b603b60209081526000928352604080842090915290825290205481565b6103186105c13660046135cf565b603d60209081526000928352604080842090915290825290205481565b604154604254610369919082565b6102f06105fa366004613381565b6120bd565b60465461046e906001600160a01b031681565b61031860395481565b61031860435481565b610318610632366004613381565b603e6020526000908152604090205481565b61031860365481565b6102f061065b366004613381565b6121ea565b6102f061066e3660046135fb565b612341565b6102f0610681366004613381565b6127dc565b6102f0610694366004613685565b612933565b6102f06106a73660046136cc565b612e08565b6103187fe5a0b4d50f56047f84728557fedbda92f956391bc9d5c762e8461996dd8e7ad781565b6102f06106e1366004613381565b61301a565b610318600080516020613b1083398151915281565b60425460435461070b9042613732565b116107315760405162461bcd60e51b815260040161072890613749565b60405180910390fd5b603360009054906101000a90046001600160a01b03166001600160a01b03166350a71bac6040518163ffffffff1660e01b8152600401602060405180830381865afa158015610784573d6000803e3d6000fd5b505050506040513d601f19601f820116820180604052508101906107a891906137b3565b6001600160a01b031663ac259ace336040516001600160e01b031960e084901b1681526001600160a01b039091166004820152602401602060405180830381865afa1580156107fb573d6000803e3d6000fd5b505050506040513d601f19601f8201168201806040525081019061081f91906137d0565b1561083c5760405162461bcd60e51b8152600401610728906137ed565b60445460ff1661085e5760405162461bcd60e51b815260040161072890613824565b61086833826119d0565b82146108b65760405162461bcd60e51b815260206004820152601d60248201527f4d6f72706865724272696467653a2057726f6e672062616c616e63652e0000006044820152606401610728565b60008281526045602052604090205460ff16156109275760405162461bcd60e51b815260206004820152602960248201527f4d6f72706865724272696467653a20546f6b656e20616c7265616479207472616044820152683739b332b93932b21760b91b6064820152608401610728565b610931838361119b565b15156001146109525760405162461bcd60e51b815260040161072890613875565b6000828152604560205260409020805460ff191660011790556109748161301a565b61097d81611ff6565b61098681610b6a565b336000818152604860205260409020546109a19190836130df565b60405182815233907f0534719a5dcedfc13619bb4206e36ba0e42fb7d166c8b8a79320c8128fc3af549060200160405180910390a2505050565b600060375482603d60006109ec3390565b6001600160a01b03166001600160a01b0316815260200190815260200160002060006301e1338042610a1e91906138b8565b815260200190815260200160002054610a3791906138da565b11158015610a725750603a548260406000610a566301e13380426138b8565b815260200190815260200160002054610a6f91906138da565b11155b92915050565b600060355482603b6000610a893390565b6001600160a01b03166001600160a01b0316815260200190815260200160002060006201518042610aba91906138b8565b815260200190815260200160002054610ad391906138da565b11158015610a72575060385482603e6000610a5662015180426138b8565b600060365482603c6000610b023390565b6001600160a01b03166001600160a01b03168152602001908152602001600020600062278d0042610b3391906138b8565b815260200190815260200160002054610b4c91906138da565b11158015610a72575060395482603f6000610a5662278d00426138b8565b610b73816109db565b610bdd5760405162461bcd60e51b815260206004820152603560248201527f4d6f72706865724272696467653a205769746864726177616c20416d6f756e7460448201527408195e18d959591cc81e59585c9b1e481b1a5b5a5d605a1b6064820152608401610728565b336000908152603d602052604081208291610bfc6301e13380426138b8565b81526020019081526020016000206000828254610c1991906138da565b9091555081905060406000610c326301e13380426138b8565b81526020019081526020016000206000828254610c4f91906138da565b909155505050565b60335460408051630140cb6560e51b81529051600080516020613b10833981519152926001600160a01b0316916328196ca09160048083019260209291908290030181865afa158015610cae573d6000803e3d6000fd5b505050506040513d601f19601f82011682018060405250810190610cd291906137b3565b6001600160a01b03166391d1485482336040516001600160e01b031960e085901b16815260048101929092526001600160a01b03166024820152604401602060405180830381865afa158015610d2c573d6000803e3d6000fd5b505050506040513d601f19601f82011682018060405250810190610d5091906137d0565b610d6c5760405162461bcd60e51b8152600401610728906138f2565b60375460408051918252602082018490527f58876df72ecce56c44d758d22355bb689efaa4946003c9bf0d75a228d1c0612f910160405180910390a150603755565b60335460408051630140cb6560e51b81529051600080516020613b10833981519152926001600160a01b0316916328196ca09160048083019260209291908290030181865afa158015610e05573d6000803e3d6000fd5b505050506040513d601f19601f82011682018060405250810190610e2991906137b3565b6001600160a01b03166391d1485482336040516001600160e01b031960e085901b16815260048101929092526001600160a01b03166024820152604401602060405180830381865afa158015610e83573d6000803e3d6000fd5b505050506040513d601f19601f82011682018060405250810190610ea791906137d0565b610ec35760405162461bcd60e51b8152600401610728906138f2565b60355460408051918252602082018490527f8a30f3401f82aa6b9ef6b22cd0efee6be3c06cc377d13e718a97bdb5eccb811a910160405180910390a150603555565b600054610100900460ff16610f205760005460ff1615610f24565b303b155b610f875760405162461bcd60e51b815260206004820152602e60248201527f496e697469616c697a61626c653a20636f6e747261637420697320616c72656160448201526d191e481a5b9a5d1a585b1a5e995960921b6064820152608401610728565b600054610100900460ff16158015610fa9576000805461ffff19166101011790555b603380546001600160a01b038087166001600160a01b0319928316179092556044805486151560ff19909116179055692a5a058fc295ed000000603581905569d3c21bcecceda100000060368190556a0422ca8b0a00a4250000006037819055603892909255603955603a556203f4806043556046805492851692909116919091179055801561103f576000805461ff00191690555b50505050565b60335460408051630140cb6560e51b81529051600080516020613b10833981519152926001600160a01b0316916328196ca09160048083019260209291908290030181865afa15801561109c573d6000803e3d6000fd5b505050506040513d601f19601f820116820180604052508101906110c091906137b3565b6001600160a01b03166391d1485482336040516001600160e01b031960e085901b16815260048101929092526001600160a01b03166024820152604401602060405180830381865afa15801561111a573d6000803e3d6000fd5b505050506040513d601f19601f8201168201806040525081019061113e91906137d0565b61115a5760405162461bcd60e51b8152600401610728906138f2565b6041829055426042556040518281527fce559c2f7d86d801cf61f2bfd589e7926036f75a2c58e06b35378f308637d504906020015b60405180910390a15050565b60006111ad83604160000154846131d9565b9392505050565b60335460408051630140cb6560e51b81529051600080516020613b10833981519152926001600160a01b0316916328196ca09160048083019260209291908290030181865afa15801561120b573d6000803e3d6000fd5b505050506040513d601f19601f8201168201806040525081019061122f91906137b3565b6001600160a01b03166391d1485482336040516001600160e01b031960e085901b16815260048101929092526001600160a01b03166024820152604401602060405180830381865afa158015611289573d6000803e3d6000fd5b505050506040513d601f19601f820116820180604052508101906112ad91906137d0565b6112c95760405162461bcd60e51b8152600401610728906138f2565b603360009054906101000a90046001600160a01b03166001600160a01b03166350a71bac6040518163ffffffff1660e01b8152600401602060405180830381865afa15801561131c573d6000803e3d6000fd5b505050506040513d601f19601f8201168201806040525081019061134091906137b3565b6001600160a01b031663ac259ace336040516001600160e01b031960e084901b1681526001600160a01b039091166004820152602401602060405180830381865afa158015611393573d6000803e3d6000fd5b505050506040513d601f19601f820116820180604052508101906113b791906137d0565b156113d45760405162461bcd60e51b8152600401610728906137ed565b600033856040516020016113e9929190613933565b60405160208183030381529060405280519060200120905060006048600061140e3390565b6001600160a01b031681526020810191909152604001600020549050611434858361119b565b6114505760405162461bcd60e51b815260040161072890613955565b8561145b88836138da565b11156114795760405162461bcd60e51b8152600401610728906139d8565b6114828761301a565b61148b87611ff6565b61149487610b6a565b61149f3082896130df565b60405187815233907f943c724b337822464f019ef425f7d5b1dd7ca039317dabe7446a630a6b8236d39060200160405180910390a260335460408051632192ab5d60e11b81529051611555926001600160a01b03169163432556ba9160048083019260209291908290030181865afa15801561151f573d6000803e3d6000fd5b505050506040513d601f19601f8201168201806040525081019061154391906137b3565b6046546001600160a01b0316896131ef565b604080516101008101808352603354632192ab5d60e11b909152915160009282916001600160a01b039091169063432556ba90610104808501916020918187030181865afa1580156115ab573d6000803e3d6000fd5b505050506040513d601f19601f820116820180604052508101906115cf91906137b3565b6001600160a01b03908116825273c02aaa39b223fe8d0a0e5c4f27ead9083c756cc26020830152610bb860408084019190915230606084015242608084015260a083018c9052600060c0840181905260e0909301839052604654905163414bf38960e01b8152939450919291169063414bf389906116b590859060040181516001600160a01b03908116825260208084015182169083015260408084015162ffffff16908301526060808401518216908301526080808401519083015260a0838101519083015260c0808401519083015260e09283015116918101919091526101000190565b6020604051808303816000875af11580156116d4573d6000803e3d6000fd5b505050506040513d601f19601f820116820180604052508101906116f89190613a40565b50505050505050505050565b60335460408051630140cb6560e51b81529051600080516020613b10833981519152926001600160a01b0316916328196ca09160048083019260209291908290030181865afa15801561175b573d6000803e3d6000fd5b505050506040513d601f19601f8201168201806040525081019061177f91906137b3565b6001600160a01b03166391d1485482336040516001600160e01b031960e085901b16815260048101929092526001600160a01b03166024820152604401602060405180830381865afa1580156117d9573d6000803e3d6000fd5b505050506040513d601f19601f820116820180604052508101906117fd91906137d0565b6118195760405162461bcd60e51b8152600401610728906138f2565b60395460408051918252602082018490527f53e006bea65a38d4b925b9299178d9c25ae1236005e70c46dc1d1d6329e41ff2910160405180910390a150603955565b60335460408051630140cb6560e51b815290517fe5a0b4d50f56047f84728557fedbda92f956391bc9d5c762e8461996dd8e7ad7926001600160a01b0316916328196ca09160048083019260209291908290030181865afa1580156118c4573d6000803e3d6000fd5b505050506040513d601f19601f820116820180604052508101906118e891906137b3565b6001600160a01b03166391d1485482336040516001600160e01b031960e085901b16815260048101929092526001600160a01b03166024820152604401602060405180830381865afa158015611942573d6000803e3d6000fd5b505050506040513d601f19601f8201168201806040525081019061196691906137d0565b6119825760405162461bcd60e51b8152600401610728906138f2565b603380546001600160a01b0319166001600160a01b0384169081179091556040519081527f978c711532bae8c58f353b0f3c7f3a0dfe600d9ae9a81818f2ad2919b88e19909060200161118f565b600082826040516020016119e5929190613933565b60405160208183030381529060405280519060200120905092915050565b603360009054906101000a90046001600160a01b03166001600160a01b03166350a71bac6040518163ffffffff1660e01b8152600401602060405180830381865afa158015611a56573d6000803e3d6000fd5b505050506040513d601f19601f82011682018060405250810190611a7a91906137b3565b6001600160a01b031663ac259ace336040516001600160e01b031960e084901b1681526001600160a01b039091166004820152602401602060405180830381865afa158015611acd573d6000803e3d6000fd5b505050506040513d601f19601f82011682018060405250810190611af191906137d0565b15611b0e5760405162461bcd60e51b8152600401610728906137ed565b60335460408051632192ab5d60e11b8152905183926001600160a01b03169163432556ba9160048083019260209291908290030181865afa158015611b57573d6000803e3d6000fd5b505050506040513d601f19601f82011682018060405250810190611b7b91906137b3565b6001600160a01b03166370a08231336040516001600160e01b031960e084901b1681526001600160a01b039091166004820152602401602060405180830381865afa158015611bce573d6000803e3d6000fd5b505050506040513d601f19601f82011682018060405250810190611bf29190613a40565b1015611c4c5760405162461bcd60e51b8152602060048201526024808201527f4d6f72706865724272696467653a20496e73756666696369656e742062616c616044820152633731b29760e11b6064820152608401610728565b611c558161301a565b611c5e81611ff6565b611c6781610b6a565b603360009054906101000a90046001600160a01b03166001600160a01b031663432556ba6040518163ffffffff1660e01b8152600401602060405180830381865afa158015611cba573d6000803e3d6000fd5b505050506040513d601f19601f82011682018060405250810190611cde91906137b3565b6001600160a01b0316639dc29fac336040516001600160e01b031960e084901b1681526001600160a01b03909116600482015260248101849052604401600060405180830381600087803b158015611d3557600080fd5b505af1158015611d49573d6000803e3d6000fd5b5050505060008160476000611d5b3390565b6001600160a01b03168152602081019190915260400160002054611d7f91906138da565b90506000611d8b6132ef565b90504260003360405160609190911b6bffffffffffffffffffffffff191660208201526034810186905260548101859052607481018390526094810184905260b4016040516020818303038152906040528051906020012090508360476000611df13390565b6001600160a01b03166001600160a01b03168152602001908152602001600020600001819055504260476000611e243390565b6001600160a01b0316815260208101919091526040016000206001015580336040805188815260208101889052908101859052606081018690526001600160a01b0391909116907f76dc9d098b791a3e9065b4237432e820c38b43f850d924581b31d61a8b4bbc829060800160405180910390a35050505050565b60335460408051630140cb6560e51b81529051600080516020613b10833981519152926001600160a01b0316916328196ca09160048083019260209291908290030181865afa158015611ef6573d6000803e3d6000fd5b505050506040513d601f19601f82011682018060405250810190611f1a91906137b3565b6001600160a01b03166391d1485482336040516001600160e01b031960e085901b16815260048101929092526001600160a01b03166024820152604401602060405180830381865afa158015611f74573d6000803e3d6000fd5b505050506040513d601f19601f82011682018060405250810190611f9891906137d0565b611fb45760405162461bcd60e51b8152600401610728906138f2565b60385460408051918252602082018490527fff4f3e2a6b4cb9b7141b4a215d1ae67a9dd18a640499d1393c6c0d0f253006db910160405180910390a150603855565b611fff81610af1565b61206a5760405162461bcd60e51b815260206004820152603660248201527f4d6f72706865724272696467653a205769746864726177616c20416d6f756e7460448201527508195e18d959591cc81b5bdb9d1a1b1e481b1a5b5a5d60521b6064820152608401610728565b336000908152603c60205260408120829161208862278d00426138b8565b815260200190815260200160002060008282546120a591906138da565b90915550819050603f6000610c3262278d00426138b8565b60335460408051630140cb6560e51b815290517fe5a0b4d50f56047f84728557fedbda92f956391bc9d5c762e8461996dd8e7ad7926001600160a01b0316916328196ca09160048083019260209291908290030181865afa158015612126573d6000803e3d6000fd5b505050506040513d601f19601f8201168201806040525081019061214a91906137b3565b6001600160a01b03166391d1485482336040516001600160e01b031960e085901b16815260048101929092526001600160a01b03166024820152604401602060405180830381865afa1580156121a4573d6000803e3d6000fd5b505050506040513d601f19601f820116820180604052508101906121c891906137d0565b6121e45760405162461bcd60e51b8152600401610728906138f2565b50604355565b60335460408051630140cb6560e51b81529051600080516020613b10833981519152926001600160a01b0316916328196ca09160048083019260209291908290030181865afa158015612241573d6000803e3d6000fd5b505050506040513d601f19601f8201168201806040525081019061226591906137b3565b6001600160a01b03166391d1485482336040516001600160e01b031960e085901b16815260048101929092526001600160a01b03166024820152604401602060405180830381865afa1580156122bf573d6000803e3d6000fd5b505050506040513d601f19601f820116820180604052508101906122e391906137d0565b6122ff5760405162461bcd60e51b8152600401610728906138f2565b603a5460408051918252602082018490527f5c3db7af464ea9d986519b99cb07faf52b14ed37cccd5d05bea914e2fd92a06b910160405180910390a150603a55565b6042546043546123519042613732565b1161236e5760405162461bcd60e51b815260040161072890613749565b603360009054906101000a90046001600160a01b03166001600160a01b03166350a71bac6040518163ffffffff1660e01b8152600401602060405180830381865afa1580156123c1573d6000803e3d6000fd5b505050506040513d601f19601f820116820180604052508101906123e591906137b3565b6001600160a01b031663ac259ace336040516001600160e01b031960e084901b1681526001600160a01b039091166004820152602401602060405180830381865afa158015612438573d6000803e3d6000fd5b505050506040513d601f19601f8201168201806040525081019061245c91906137d0565b156124795760405162461bcd60e51b8152600401610728906137ed565b60445460ff1661249b5760405162461bcd60e51b815260040161072890613824565b603360009054906101000a90046001600160a01b03166001600160a01b031663d37afa8d6040518163ffffffff1660e01b8152600401602060405180830381865afa1580156124ee573d6000803e3d6000fd5b505050506040513d601f19601f8201168201806040525081019061251291906137b3565b6001600160a01b0316637a687444338a8a8a8a8a8a8a8a6040518a63ffffffff1660e01b815260040161254d99989796959493929190613a59565b602060405180830381865afa15801561256a573d6000803e3d6000fd5b505050506040513d601f19601f8201168201806040525081019061258e9190613a40565b89146125f65760405162461bcd60e51b815260206004820152603160248201527f4d6f72706865724272696467653a206c65616620646f6573206e6f742065717560448201527030b6103837b9b4ba34b7b7103430b9b41760791b6064820152608401610728565b60008981526045602052604090205460ff161561266a5760405162461bcd60e51b815260206004820152602c60248201527f4d6f72706865724272696467653a20506f736974696f6e20616c72656164792060448201526b3a3930b739b332b93932b21760a11b6064820152608401610728565b6126748a8a61119b565b15156001146126955760405162461bcd60e51b815260040161072890613875565b600089815260456020908152604091829020805460ff19166001179055603354825163d37afa8d60e01b815292516001600160a01b039091169263d37afa8d9260048083019391928290030181865afa1580156126f6573d6000803e3d6000fd5b505050506040513d601f19601f8201168201806040525081019061271a91906137b3565b6001600160a01b031663be7e64b6338a8a8a8a8a8a8a8a6040518a63ffffffff1660e01b815260040161275599989796959493929190613a59565b600060405180830381600087803b15801561276f57600080fd5b505af1158015612783573d6000803e3d6000fd5b5050505061278e3390565b6001600160a01b03167f46de0525fb620932847e7db9be837e386fb61845ffb4ccc632241dfa56ce5d438a6040516127c891815260200190565b60405180910390a250505050505050505050565b60335460408051630140cb6560e51b81529051600080516020613b10833981519152926001600160a01b0316916328196ca09160048083019260209291908290030181865afa158015612833573d6000803e3d6000fd5b505050506040513d601f19601f8201168201806040525081019061285791906137b3565b6001600160a01b03166391d1485482336040516001600160e01b031960e085901b16815260048101929092526001600160a01b03166024820152604401602060405180830381865afa1580156128b1573d6000803e3d6000fd5b505050506040513d601f19601f820116820180604052508101906128d591906137d0565b6128f15760405162461bcd60e51b8152600401610728906138f2565b60365460408051918252602082018490527f15bbabad33cea99b6af1c5233603cb731748ed7b1cf3abd8de230338e7b4c97d910160405180910390a150603655565b603360009054906101000a90046001600160a01b03166001600160a01b03166350a71bac6040518163ffffffff1660e01b8152600401602060405180830381865afa158015612986573d6000803e3d6000fd5b505050506040513d601f19601f820116820180604052508101906129aa91906137b3565b6001600160a01b031663ac259ace336040516001600160e01b031960e084901b1681526001600160a01b039091166004820152602401602060405180830381865afa1580156129fd573d6000803e3d6000fd5b505050506040513d601f19601f82011682018060405250810190612a2191906137d0565b15612a3e5760405162461bcd60e51b8152600401610728906137ed565b60003383604051602001612a53929190613933565b60405160208183030381529060405280519060200120905060435460476000612a793390565b6001600160a01b03166001600160a01b0316815260200190815260200160002060010154612aa791906138da565b4211612b2f5760405162461bcd60e51b815260206004820152604b60248201527f4d6f72706865724272696467653a204661696c6564206465706f73697473206360448201527f616e206f6e6c7920626520636c61696d656420616674657220696e616374697660648201526a34ba3c903832b934b7b21760a91b608482015260a401610728565b336000908152604760205260409020548310612bc85760405162461bcd60e51b815260206004820152604c60248201527f4d6f72706865724272696467653a204f7468657220636861696e20637265646960448201527f74206973206772656174657220657175616c20746f2077726f6e67536964654360648201526b3430b4b72130b630b731b29760a11b608482015260a401610728565b612bd2828261119b565b612c5e5760405162461bcd60e51b815260206004820152605160248201527f4d6f72706865724272696467653a204d65726b6c652050726f6f66206661696c60448201527f65642e20456e74657220746f74616c20616d6f756e74206f66206465706f73696064820152703a399037b71039b4b2329031b430b4b71760791b608482015260a401610728565b33600090815260476020526040812054612c79908590613732565b33600090815260476020526040812080549293508392909190612c9d908490613732565b909155505033600090815260476020526040902042600190910155612cc18161301a565b612cca81611ff6565b612cd381610b6a565b603360009054906101000a90046001600160a01b03166001600160a01b031663432556ba6040518163ffffffff1660e01b8152600401602060405180830381865afa158015612d26573d6000803e3d6000fd5b505050506040513d601f19601f82011682018060405250810190612d4a91906137b3565b6001600160a01b03166340c10f19336040516001600160e01b031960e084901b1681526001600160a01b03909116600482015260248101849052604401600060405180830381600087803b158015612da157600080fd5b505af1158015612db5573d6000803e3d6000fd5b50505050612dc03390565b6001600160a01b03167ff3d1bd7b5416206939e66c9b6ee92563caaf8499c21668173d17cacbaefdc70082604051612dfa91815260200190565b60405180910390a250505050565b603360009054906101000a90046001600160a01b03166001600160a01b03166350a71bac6040518163ffffffff1660e01b8152600401602060405180830381865afa158015612e5b573d6000803e3d6000fd5b505050506040513d601f19601f82011682018060405250810190612e7f91906137b3565b6001600160a01b031663ac259ace336040516001600160e01b031960e084901b1681526001600160a01b039091166004820152602401602060405180830381865afa158015612ed2573d6000803e3d6000fd5b505050506040513d601f19601f82011682018060405250810190612ef691906137d0565b15612f135760405162461bcd60e51b8152600401610728906137ed565b60003383604051602001612f28929190613933565b604051602081830303815290604052805190602001209050600060486000612f4d3390565b6001600160a01b031681526020810191909152604001600020549050612f73838361119b565b612f8f5760405162461bcd60e51b815260040161072890613955565b83612f9a86836138da565b1115612fb85760405162461bcd60e51b8152600401610728906139d8565b612fc18561301a565b612fca85611ff6565b612fd385610b6a565b612fde3382876130df565b60405185815233907f943c724b337822464f019ef425f7d5b1dd7ca039317dabe7446a630a6b8236d39060200160405180910390a25050505050565b61302381610a78565b61308c5760405162461bcd60e51b815260206004820152603460248201527f4d6f72706865724272696467653a205769746864726177616c20416d6f756e7460448201527308195e18d959591cc819185a5b1e481b1a5b5a5d60621b6064820152608401610728565b336000908152603b6020526040812082916130aa62015180426138b8565b815260200190815260200160002060008282546130c791906138da565b90915550819050603e6000610c3262015180426138b8565b6130e981836138da565b6001600160a01b03808516600090815260486020908152604091829020938455426001909401939093556033548151632192ab5d60e11b8152915192169263432556ba926004808401938290030181865afa15801561314c573d6000803e3d6000fd5b505050506040513d601f19601f8201168201806040525081019061317091906137b3565b6040516340c10f1960e01b81526001600160a01b0385811660048301526024820184905291909116906340c10f1990604401600060405180830381600087803b1580156131bc57600080fd5b505af11580156131d0573d6000803e3d6000fd5b50505050505050565b6000826131e6858461330d565b14949350505050565b604080516001600160a01b038481166024830152604480830185905283518084039091018152606490920183526020820180516001600160e01b031663095ea7b360e01b179052915160009283929087169161324b9190613aa3565b6000604051808303816000865af19150503d8060008114613288576040519150601f19603f3d011682016040523d82523d6000602084013e61328d565b606091505b50915091508180156132b75750805115806132b75750808060200190518101906132b791906137d0565b6132e85760405162461bcd60e51b8152602060048201526002602482015261534160f01b6044820152606401610728565b5050505050565b604980546000918261330083613ade565b9190505550604954905090565b600081815b845181101561337957600085828151811061332f5761332f613af9565b602002602001015190508083116133555760008381526020829052604090209250613366565b600081815260208490526040902092505b508061337181613ade565b915050613312565b509392505050565b60006020828403121561339357600080fd5b5035919050565b634e487b7160e01b600052604160045260246000fd5b600082601f8301126133c157600080fd5b8135602067ffffffffffffffff808311156133de576133de61339a565b8260051b604051601f19603f830116810181811084821117156134035761340361339a565b60405293845285810183019383810192508785111561342157600080fd5b83870191505b8482101561344057813583529183019190830190613427565b979650505050505050565b60008060006060848603121561346057600080fd5b833567ffffffffffffffff81111561347757600080fd5b613483868287016133b0565b9660208601359650604090950135949350505050565b6001600160a01b03811681146134ae57600080fd5b50565b6000602082840312156134c357600080fd5b81356111ad81613499565b80151581146134ae57600080fd5b6000806000606084860312156134f157600080fd5b83356134fc81613499565b9250602084013561350c816134ce565b9150604084013561351c81613499565b809150509250925092565b6000806040838503121561353a57600080fd5b823567ffffffffffffffff81111561355157600080fd5b61355d858286016133b0565b95602094909401359450505050565b6000806000806080858703121561358257600080fd5b8435935060208501359250604085013567ffffffffffffffff8111156135a757600080fd5b6135b3878288016133b0565b92505060608501356135c481613499565b939692955090935050565b600080604083850312156135e257600080fd5b82356135ed81613499565b946020939093013593505050565b6000806000806000806000806000806101408b8d03121561361b57600080fd5b8a3567ffffffffffffffff81111561363257600080fd5b61363e8d828e016133b0565b9d60208d01359d5060408d01359c60608101359c5060808101359b5060a08101359a5060c0810135995060e081013598506101008101359750610120013595509350505050565b6000806040838503121561369857600080fd5b82359150602083013567ffffffffffffffff8111156136b657600080fd5b6136c2858286016133b0565b9150509250929050565b6000806000606084860312156136e157600080fd5b8335925060208401359150604084013567ffffffffffffffff81111561370657600080fd5b613712868287016133b0565b9150509250925092565b634e487b7160e01b600052601160045260246000fd5b6000828210156137445761374461371c565b500390565b60208082526044908201527f4d6f72706865724272696467653a2046756e6374696f6e2063616e206f6e6c7960408201527f2062652063616c6c65642069662073696465636861696e20697320696e61637460608201526334bb329760e11b608082015260a00190565b6000602082840312156137c557600080fd5b81516111ad81613499565b6000602082840312156137e257600080fd5b81516111ad816134ce565b6020808252601e908201527f4d6f72706865724272696467653a205573657220697320626c6f636b65640000604082015260600190565b60208082526031908201527f4d6f72706865724272696467653a205265636f766572792066756e6374696f6e6040820152701cc8185c99481b9bdd08195b98589b1959607a1b606082015260800190565b60208082526023908201527f4d6f72706865724272696467653a204d65726b6c652070726f6f66206661696c60408201526232b21760e91b606082015260800190565b6000826138d557634e487b7160e01b600052601260045260246000fd5b500490565b600082198211156138ed576138ed61371c565b500190565b60208082526021908201527f4d6f72706865724272696467653a205065726d697373696f6e2064656e6965646040820152601760f91b606082015260800190565b60609290921b6bffffffffffffffffffffffff19168252601482015260340190565b60208082526059908201527f4d6f72706865724272696467653a204d65726b6c652050726f6f66206661696c60408201527f65642e20506c65617365206d616b65207375726520796f7520656e746572656460608201527f2074686520636f727265637420636c61696d206c696d69742e00000000000000608082015260a00190565b60208082526042908201527f4d6f72706865724272696467653a20546f6b656e20616d6f756e74206578636560408201527f65647320746f6b656e2064656c65746564206f6e206c696e6b65642063686169606082015261371760f11b608082015260a00190565b600060208284031215613a5257600080fd5b5051919050565b6001600160a01b03999099168952602089019790975260408801959095526060870193909352608086019190915260a085015260c084015260e08301526101008201526101200190565b6000825160005b81811015613ac45760208186018101518583015201613aaa565b81811115613ad3576000828501525b509190910192915050565b6000600019821415613af257613af261371c565b5060010190565b634e487b7160e01b600052603260045260246000fdfec08f7188394b31596c538860a69934f466a85ebc66fc5d1d967ccfaef4a6bdaba2646970667358221220de1590b449224986ae64fa8b6a19eeb0e55b96dfb49c1c75829591f12b60563564736f6c634300080b0033",
  "immutableReferences": {},
  "source": "// ------------------------------------------------------------------------\r\n// MorpherBridge\r\n// Handles deposit to and withdraws from the side chain, writing of the merkle\r\n// root to the main chain by the side chain operator, and enforces a rolling 24 hours\r\n// token withdraw limit from side chain to main chain.\r\n// If side chain operator doesn't write a merkle root hash to main chain for more than\r\n// 72 hours positions and balaces from side chain can be transferred to main chain.\r\n// ------------------------------------------------------------------------\r\n//SPDX-License-Identifier: GPLv3\r\npragma solidity 0.8.11;\r\n\r\nimport \"./MorpherState.sol\";\r\nimport \"./MorpherUserBlocking.sol\";\r\nimport \"./MorpherAccessControl.sol\";\r\nimport \"@openzeppelin/contracts-upgradeable/utils/cryptography/MerkleProofUpgradeable.sol\";\r\nimport \"@openzeppelin/contracts-upgradeable/proxy/utils/Initializable.sol\";\r\nimport \"@openzeppelin/contracts-upgradeable/utils/ContextUpgradeable.sol\";\r\nimport \"./MorpherTradeEngine.sol\";\r\n\r\nimport '@uniswap/v3-periphery/contracts/interfaces/ISwapRouter.sol';\r\nimport '@uniswap/v3-periphery/contracts/libraries/TransferHelper.sol';\r\n\r\ncontract MorpherBridge is Initializable, ContextUpgradeable {\r\n\r\n    MorpherState state;\r\n    MorpherBridge previousBridge;\r\n\r\n    uint256 public withdrawalLimitPerUserDaily; //200k MPH per day\r\n    uint256 public withdrawalLimitPerUserMonthly; //1M MPH per month\r\n    uint256 public withdrawalLimitPerUserYearly; //5M MPH per year\r\n\r\n    uint256 public withdrawalLimitGlobalDaily; \r\n    uint256 public withdrawalLimitGlobalMonthly;\r\n    uint256 public withdrawalLimitGlobalYearly;\r\n    \r\n    mapping(address => mapping(uint256 => uint256)) public withdrawalPerUserPerDay; //[address][day] = withdrawalAmount\r\n    mapping(address => mapping(uint256 => uint256)) public withdrawalPerUserPerMonth; //[address][month] = withdrawalAmount\r\n    mapping(address => mapping(uint256 => uint256)) public withdrawalPerUserPerYear; //[address][year] = withdrawalAmount\r\n\r\n    mapping(uint256 => uint256) public withdrawalsGlobalDaily;\r\n    mapping(uint256 => uint256) public withdrawalsGlobalMonthly;\r\n    mapping(uint256 => uint256) public withdrawalsGlobalYearly;\r\n\r\n    bytes32 public constant ADMINISTRATOR_ROLE = keccak256(\"ADMINISTRATOR_ROLE\");\r\n    bytes32 public constant SIDECHAINOPERATOR_ROLE = keccak256(\"SIDECHAINOPERATOR_ROLE\");\r\n\r\n    struct WithdrawalDataStruct {\r\n        bytes32 merkleRoot;\r\n        uint256 lastUpdatedAt;\r\n    }\r\n\r\n    WithdrawalDataStruct public withdrawalData;\r\n\r\n    uint256 public inactivityPeriod;\r\n    bool public recoveryEnabled;\r\n    mapping(bytes32 => bool) public claimFromInactivity;\r\n\r\n    ISwapRouter public swapRouter;\r\n\r\n    address public constant WETH9 = 0xC02aaA39b223FE8D0A0e5C4F27eAD9083C756Cc2;\r\n\r\n    // For this example, we will set the pool fee to 0.3%.\r\n    uint24 public constant poolFee = 3000;\r\n\r\n\r\n    struct TokensTransferredStruct {\r\n        uint256 amount;\r\n        uint256 lastTransferAt;\r\n    }\r\n    mapping(address => TokensTransferredStruct) public tokenSentToLinkedChain;\r\n    mapping(address => TokensTransferredStruct) public tokenClaimedOnThisChain;\r\n\r\n    uint256 public bridgeNonce;\r\n\r\n    event TransferToLinkedChain(\r\n        address indexed from,\r\n        uint256 tokens,\r\n        uint256 totalTokenSent,\r\n        uint256 timeStamp,\r\n        uint256 transferNonce,\r\n        bytes32 indexed transferHash\r\n    );\r\n    event TrustlessWithdrawFromSideChain(address indexed from, uint256 tokens);\r\n    event OperatorChainTransfer(address indexed from, uint256 tokens, bytes32 sidechainTransactionHash);\r\n    event ClaimFailedTransferToSidechain(address indexed from, uint256 tokens);\r\n    event PositionRecoveryFromSideChain(address indexed from, bytes32 positionHash);\r\n    event TokenRecoveryFromSideChain(address indexed from, bytes32 positionHash);\r\n    event SideChainMerkleRootUpdated(bytes32 _rootHash);\r\n    event WithdrawLimitReset();\r\n    event WithdrawLimitChanged(uint256 _withdrawLimit);\r\n    event WithdrawLimitDailyPerUserChanged(uint256 _oldLimit, uint256 _newLimit);\r\n    event WithdrawLimitMonthlyPerUserChanged(uint256 _oldLimit, uint256 _newLimit);\r\n    event WithdrawLimitYearlyPerUserChanged(uint256 _oldLimit, uint256 _newLimit);\r\n    event WithdrawLimitDailyGlobalChanged(uint256 _oldLimit, uint256 _newLimit);\r\n    event WithdrawLimitMonthlyGlobalChanged(uint256 _oldLimit, uint256 _newLimit);\r\n    event WithdrawLimitYearlyGlobalChanged(uint256 _oldLimit, uint256 _newLimit);\r\n    event LinkState(address _address);\r\n\r\n    function initialize(address _stateAddress, bool _recoveryEnabled, ISwapRouter _swapRouter) public initializer {\r\n        state = MorpherState(_stateAddress);\r\n        recoveryEnabled = _recoveryEnabled;\r\n        withdrawalLimitPerUserDaily = 200000 * (10**18); //200k MPH per day\r\n        withdrawalLimitPerUserMonthly = 1000000 * (10 ** 18); //1M MPH per month\r\n        withdrawalLimitPerUserYearly = 5000000 * (10 ** 18); //5M MPH per year\r\n\r\n        //TODO: Adjust limits globally\r\n        withdrawalLimitGlobalDaily = 200000 * (10**18); //200k MPH per day\r\n        withdrawalLimitGlobalMonthly = 1000000 * (10 ** 18); //1M MPH per month\r\n        withdrawalLimitGlobalYearly = 5000000 * (10 ** 18); //5M MPH per year\r\n        inactivityPeriod = 3 days;\r\n        swapRouter = _swapRouter;\r\n    }\r\n\r\n    modifier sideChainInactive {\r\n        require(block.timestamp - inactivityPeriod > withdrawalData.lastUpdatedAt, \"MorpherBridge: Function can only be called if sidechain is inactive.\");\r\n        _;\r\n    }\r\n\r\n    modifier onlyRecoveryEnabled() {\r\n        require(recoveryEnabled, \"MorpherBridge: Recovery functions are not enabled\");\r\n        _;\r\n    }\r\n\r\n    modifier userNotBlocked {\r\n        require(!MorpherUserBlocking(state.morpherUserBlockingAddress()).userIsBlocked(_msgSender()), \"MorpherBridge: User is blocked\");\r\n        _;\r\n    }\r\n\r\n    modifier onlyRole(bytes32 role) {\r\n        require(MorpherAccessControl(state.morpherAccessControlAddress()).hasRole(role, _msgSender()), \"MorpherBridge: Permission denied.\");\r\n        _;\r\n    }\r\n    \r\n    // ------------------------------------------------------------------------\r\n    // Links Token Contract with State\r\n    // ------------------------------------------------------------------------\r\n    function setMorpherState(address _stateAddress) public onlyRole(ADMINISTRATOR_ROLE) {\r\n        state = MorpherState(_stateAddress);\r\n        emit LinkState(_stateAddress);\r\n    }\r\n\r\n\r\n    function setInactivityPeriod(uint256 _periodInSeconds) public onlyRole(ADMINISTRATOR_ROLE) {\r\n        inactivityPeriod = _periodInSeconds;\r\n    }\r\n\r\n    function updateSideChainMerkleRoot(bytes32 _rootHash) public onlyRole(SIDECHAINOPERATOR_ROLE) {\r\n        withdrawalData.merkleRoot = _rootHash;\r\n        withdrawalData.lastUpdatedAt = block.timestamp;\r\n        emit SideChainMerkleRootUpdated(_rootHash);\r\n    }\r\n\r\n    function updateWithdrawLimitPerUserDaily(uint256 _withdrawLimit) public onlyRole(SIDECHAINOPERATOR_ROLE) {\r\n        emit WithdrawLimitDailyPerUserChanged(withdrawalLimitPerUserDaily, _withdrawLimit);\r\n        withdrawalLimitPerUserDaily = _withdrawLimit;\r\n    }\r\n\r\n    function updateWithdrawLimitPerUserMonthly(uint256 _withdrawLimit) public onlyRole(SIDECHAINOPERATOR_ROLE) {\r\n        emit WithdrawLimitMonthlyPerUserChanged(withdrawalLimitPerUserMonthly, _withdrawLimit);\r\n        withdrawalLimitPerUserMonthly = _withdrawLimit;\r\n    }\r\n    function updateWithdrawLimitPerUserYearly(uint256 _withdrawLimit) public onlyRole(SIDECHAINOPERATOR_ROLE) {\r\n        emit WithdrawLimitYearlyPerUserChanged(withdrawalLimitPerUserYearly, _withdrawLimit);\r\n        withdrawalLimitPerUserYearly = _withdrawLimit;\r\n    }\r\n\r\n    function updateWithdrawLimitGlobalDaily(uint256 _withdrawLimit) public onlyRole(SIDECHAINOPERATOR_ROLE) {\r\n        emit WithdrawLimitDailyGlobalChanged(withdrawalLimitGlobalDaily, _withdrawLimit);\r\n        withdrawalLimitGlobalDaily = _withdrawLimit;\r\n    }\r\n\r\n    function updateWithdrawLimitGlobalMonthly(uint256 _withdrawLimit) public onlyRole(SIDECHAINOPERATOR_ROLE) {\r\n        emit WithdrawLimitMonthlyGlobalChanged(withdrawalLimitGlobalMonthly, _withdrawLimit);\r\n        withdrawalLimitGlobalMonthly = _withdrawLimit;\r\n    }\r\n    function updateWithdrawLimitGlobalYearly(uint256 _withdrawLimit) public onlyRole(SIDECHAINOPERATOR_ROLE) {\r\n        emit WithdrawLimitYearlyGlobalChanged(withdrawalLimitGlobalYearly, _withdrawLimit);\r\n        withdrawalLimitGlobalYearly = _withdrawLimit;\r\n    }\r\n\r\n\r\n    function isNotDailyLimitExceeding(uint256 _amount) public view returns(bool) {\r\n        return (\r\n            (withdrawalPerUserPerDay[_msgSender()][block.timestamp / 1 days] + _amount <= withdrawalLimitPerUserDaily) && \r\n            (withdrawalsGlobalDaily[block.timestamp / 1 days] + _amount <= withdrawalLimitGlobalDaily)\r\n        );\r\n    }\r\n    function isNotMonthlyLimitExceeding(uint256 _amount) public view returns(bool) {\r\n        return (\r\n            (withdrawalPerUserPerMonth[_msgSender()][block.timestamp / 30 days] + _amount <= withdrawalLimitPerUserMonthly) &&\r\n            (withdrawalsGlobalMonthly[block.timestamp / 30 days] + _amount <= withdrawalLimitGlobalMonthly)\r\n        );\r\n    }\r\n    function isNotYearlyLimitExceeding(uint256 _amount) public view returns(bool) {\r\n        return (\r\n            (withdrawalPerUserPerYear[_msgSender()][block.timestamp / 365 days] + _amount <= withdrawalLimitPerUserYearly) &&\r\n            (withdrawalsGlobalYearly[block.timestamp / 365 days] + _amount <= withdrawalLimitGlobalYearly)\r\n        );\r\n    }\r\n\r\n    function verifyUpdateDailyLimit(uint256 _amount) public {\r\n        require(isNotDailyLimitExceeding(_amount), \"MorpherBridge: Withdrawal Amount exceeds daily limit\");\r\n        withdrawalPerUserPerDay[_msgSender()][block.timestamp / 1 days] += _amount;\r\n        withdrawalsGlobalDaily[block.timestamp / 1 days] += _amount;\r\n    }\r\n\r\n    function verifyUpdateMonthlyLimit(uint256 _amount) public {\r\n        require(isNotMonthlyLimitExceeding(_amount), \"MorpherBridge: Withdrawal Amount exceeds monthly limit\");\r\n        withdrawalPerUserPerMonth[_msgSender()][block.timestamp / 30 days] += _amount;\r\n        withdrawalsGlobalMonthly[block.timestamp / 30 days] += _amount;\r\n    }\r\n\r\n    function verifyUpdateYearlyLimit(uint256 _amount) public {\r\n        require(isNotYearlyLimitExceeding(_amount), \"MorpherBridge: Withdrawal Amount exceeds yearly limit\");\r\n        withdrawalPerUserPerYear[_msgSender()][block.timestamp / 365 days] += _amount;\r\n        withdrawalsGlobalYearly[block.timestamp / 365 days] += _amount;\r\n    }\r\n\r\n    \r\n    /**\r\n    * stageTokensForTransfer [chain A] => claimTokens [chain B]\r\n    *     former: transferToSideChain(uint256 _tokens)\r\n    * \r\n    * Tokens are burned on chain A and then, after the merkle root is written, \r\n    * can be credited on chain B through claimStagedTokens(...) below\r\n    *\r\n    */\r\n    function stageTokensForTransfer(uint256 _tokens) public userNotBlocked {\r\n        require(_tokens >= 0, \"MorpherBridge: Amount of tokens must be positive.\");\r\n        require(MorpherToken(state.morpherTokenAddress()).balanceOf(_msgSender()) >= _tokens, \"MorpherBridge: Insufficient balance.\");\r\n        verifyUpdateDailyLimit(_tokens);\r\n        verifyUpdateMonthlyLimit(_tokens);\r\n        verifyUpdateYearlyLimit(_tokens);\r\n        MorpherToken(state.morpherTokenAddress()).burn(_msgSender(), _tokens);\r\n        uint256 _newTokenSentToLinkedChain = tokenSentToLinkedChain[_msgSender()].amount + _tokens;\r\n        uint256 _transferNonce = getAndIncreaseBridgeNonce();\r\n        uint256 _timeStamp = block.timestamp;\r\n        bytes32 _transferHash = keccak256(\r\n            abi.encodePacked(\r\n                _msgSender(),\r\n                _tokens,\r\n                _newTokenSentToLinkedChain,\r\n                _timeStamp,\r\n                _transferNonce\r\n            )\r\n        );\r\n        tokenSentToLinkedChain[_msgSender()].amount =  _newTokenSentToLinkedChain;\r\n        tokenSentToLinkedChain[_msgSender()].lastTransferAt = block.timestamp;\r\n        emit TransferToLinkedChain(_msgSender(), _tokens, _newTokenSentToLinkedChain, _timeStamp, _transferNonce, _transferHash);\r\n    }\r\n    \r\n    // ------------------------------------------------------------------------\r\n    // claimStagedTokens(...) former: trustlessTransferFromSideChain(uint256 _numOfToken, uint256 _claimLimit, bytes32[] memory _proof)\r\n    // Performs a merkle proof on the number of token that have been burned by the user on the side chain.\r\n    // If the number of token claimed on the main chain is less than the number of burned token on the side chain\r\n    // the difference (or less) can be claimed on the main chain.\r\n    // ------------------------------------------------------------------------\r\n    function claimStagedTokens(uint256 _numOfToken, uint256 _claimLimit, bytes32[] memory _proof) public userNotBlocked {\r\n        bytes32 leaf = keccak256(abi.encodePacked(_msgSender(), _claimLimit));\r\n        uint256 _tokenClaimed = tokenClaimedOnThisChain[_msgSender()].amount;  \r\n        require(mProof(_proof, leaf), \"MorpherBridge: Merkle Proof failed. Please make sure you entered the correct claim limit.\");\r\n        require(_tokenClaimed + _numOfToken <= _claimLimit, \"MorpherBridge: Token amount exceeds token deleted on linked chain.\"); \r\n\r\n        verifyUpdateDailyLimit(_numOfToken);\r\n        verifyUpdateMonthlyLimit(_numOfToken);\r\n        verifyUpdateYearlyLimit(_numOfToken);        \r\n\r\n        _chainTransfer(_msgSender(), _tokenClaimed, _numOfToken);   \r\n        emit TrustlessWithdrawFromSideChain(_msgSender(), _numOfToken);\r\n    }\r\n    \r\n    // ------------------------------------------------------------------------\r\n    // claimStagedTokens(...) former: trustlessTransferFromSideChain(uint256 _numOfToken, uint256 _claimLimit, bytes32[] memory _proof)\r\n    // Performs a merkle proof on the number of token that have been burned by the user on the side chain.\r\n    // If the number of token claimed on the main chain is less than the number of burned token on the side chain\r\n    // the difference (or less) can be claimed on the main chain.\r\n    // ------------------------------------------------------------------------\r\n    function claimStagedTokensConvertAndSend(uint256 _numOfToken, uint256 _claimLimit, bytes32[] memory _proof, address _finalOutput) public onlyRole(SIDECHAINOPERATOR_ROLE) userNotBlocked {\r\n        // msg.sender must approve this contract\r\nbytes32 leaf = keccak256(abi.encodePacked(_msgSender(), _claimLimit));\r\n        uint256 _tokenClaimed = tokenClaimedOnThisChain[_msgSender()].amount;  \r\n        require(mProof(_proof, leaf), \"MorpherBridge: Merkle Proof failed. Please make sure you entered the correct claim limit.\");\r\n        require(_tokenClaimed + _numOfToken <= _claimLimit, \"MorpherBridge: Token amount exceeds token deleted on linked chain.\"); \r\n\r\n        verifyUpdateDailyLimit(_numOfToken);\r\n        verifyUpdateMonthlyLimit(_numOfToken);\r\n        verifyUpdateYearlyLimit(_numOfToken);        \r\n\r\n        _chainTransfer(address(this), _tokenClaimed, _numOfToken); //instead of transferring it to the user, transfer it to the bridge itself\r\n        emit TrustlessWithdrawFromSideChain(_msgSender(), _numOfToken);\r\n        // Transfer the specified amount of DAI to this contract.\r\n        // Approve the router to spend DAI.\r\n        TransferHelper.safeApprove(state.morpherTokenAddress(), address(swapRouter), _numOfToken);\r\n\r\n        // Naively set amountOutMinimum to 0. In production, use an oracle or other data source to choose a safer value for amountOutMinimum.\r\n        // We also set the sqrtPriceLimitx96 to be 0 to ensure we swap our exact input amount.\r\n        ISwapRouter.ExactInputSingleParams memory params =\r\n            ISwapRouter.ExactInputSingleParams({\r\n                tokenIn: state.morpherTokenAddress(),\r\n                tokenOut: WETH9,\r\n                fee: poolFee,\r\n                recipient: address(this),\r\n                deadline: block.timestamp,\r\n                amountIn: _numOfToken,\r\n                amountOutMinimum: 0,\r\n                sqrtPriceLimitX96: 0\r\n            });\r\n\r\n        // The call to `exactInputSingle` executes the swap.\r\n        uint amountOut = swapRouter.exactInputSingle(params);\r\n\r\n        //weth -> eth conversion\r\n        //send eth to _finalOutput (potentially minus a fee?)\r\n    }\r\n    \r\n    // ------------------------------------------------------------------------\r\n    // _chainTransfer(address _address, uint256 _tokenClaimed, uint256 _numOfToken)\r\n    // Creates token on the chain for the user after proving their distruction on the \r\n    // linked chain has been proven before \r\n    // ------------------------------------------------------------------------\r\n    function _chainTransfer(address _address, uint256 _tokenClaimed, uint256 _numOfToken) private {\r\n        tokenClaimedOnThisChain[_address].amount = _tokenClaimed + _numOfToken;\r\n        tokenClaimedOnThisChain[_address].lastTransferAt = block.timestamp;\r\n        MorpherToken(state.morpherTokenAddress()).mint(_address, _numOfToken);\r\n    }\r\n        \r\n    // ------------------------------------------------------------------------\r\n    // claimFailedTransferToSidechain(uint256 _wrongSideChainBalance, bytes32[] memory _proof)\r\n    // If token sent to side chain were not credited to the user on the side chain within inactivityPeriod\r\n    // they can reclaim the token on the main chain by submitting the proof that their\r\n    // side chain balance is less than the number of token sent from main chain.\r\n    // ------------------------------------------------------------------------\r\n    function claimFailedTransferToSidechain(uint256 _wrongSideChainBalance, bytes32[] memory _proof) public userNotBlocked {\r\n        bytes32 leaf = keccak256(abi.encodePacked(_msgSender(), _wrongSideChainBalance));\r\n        require(block.timestamp > tokenSentToLinkedChain[_msgSender()].lastTransferAt + inactivityPeriod, \"MorpherBridge: Failed deposits can only be claimed after inactivity period.\");\r\n        require(_wrongSideChainBalance < tokenSentToLinkedChain[_msgSender()].amount, \"MorpherBridge: Other chain credit is greater equal to wrongSideChainBalance.\");\r\n       \r\n        require(mProof(_proof, leaf), \"MorpherBridge: Merkle Proof failed. Enter total amount of deposits on side chain.\");\r\n \r\n        uint256 _claimAmount = tokenSentToLinkedChain[_msgSender()].amount - _wrongSideChainBalance;\r\n        tokenSentToLinkedChain[_msgSender()].amount -=  _claimAmount;\r\n        tokenSentToLinkedChain[_msgSender()].lastTransferAt = block.timestamp;\r\n        verifyUpdateDailyLimit(_claimAmount);\r\n        verifyUpdateMonthlyLimit(_claimAmount);\r\n        verifyUpdateYearlyLimit(_claimAmount);         \r\n        MorpherToken(state.morpherTokenAddress()).mint(_msgSender(), _claimAmount);\r\n        emit ClaimFailedTransferToSidechain(_msgSender(), _claimAmount);\r\n    }\r\n\r\n    // ------------------------------------------------------------------------\r\n    // recoverPositionFromInactivity former recoverPositionFromSideChain(bytes32[] memory _proof, bytes32 _leaf, bytes32 _marketId, uint256 _timeStamp, uint256 _longShares, uint256 _shortShares, uint256 _meanEntryPrice, uint256 _meanEntrySpread, uint256 _meanEntryLeverage)\r\n    // Failsafe against side chain operator becoming inactive or withholding Times (Time withhold attack).\r\n    // After 72 hours of no update of the side chain merkle root users can withdraw their last recorded\r\n    // positions from side chain to main chain. Overwrites eventually existing position on main chain.\r\n    // ------------------------------------------------------------------------\r\n    function recoverPositionFromInactivity(\r\n        bytes32[] memory _proof,\r\n        bytes32 _leaf,\r\n        bytes32 _marketId,\r\n        uint256 _timeStamp,\r\n        uint256 _longShares,\r\n        uint256 _shortShares,\r\n        uint256 _meanEntryPrice,\r\n        uint256 _meanEntrySpread,\r\n        uint256 _meanEntryLeverage,\r\n        uint256 _liquidationPrice\r\n        ) public sideChainInactive userNotBlocked onlyRecoveryEnabled {\r\n        require(_leaf == MorpherTradeEngine(state.morpherTradeEngineAddress()).getPositionHash(_msgSender(), _marketId, _timeStamp, _longShares, _shortShares, _meanEntryPrice, _meanEntrySpread, _meanEntryLeverage, _liquidationPrice), \"MorpherBridge: leaf does not equal position hash.\");\r\n        require(claimFromInactivity[_leaf] == false, \"MorpherBridge: Position already transferred.\");\r\n        require(mProof(_proof,_leaf) == true, \"MorpherBridge: Merkle proof failed.\");\r\n        claimFromInactivity[_leaf] = true;\r\n        //todo: double positions clashing? \r\n        MorpherTradeEngine(state.morpherTradeEngineAddress()).setPosition(_msgSender(), _marketId, _timeStamp, _longShares, _shortShares, _meanEntryPrice, _meanEntrySpread, _meanEntryLeverage, _liquidationPrice);\r\n        emit PositionRecoveryFromSideChain(_msgSender(), _leaf);\r\n        // Remark: After resuming operations side chain operator has 72 hours to sync and eliminate transferred positions on side chain to avoid double spend\r\n    }\r\n\r\n    // ------------------------------------------------------------------------\r\n    // recoverTokenFromInactivity - former recoverTokenFromSideChain(bytes32[] memory _proof, bytes32 _leaf, uint256 _balance)\r\n    // Failsafe against side chain operator becoming inactive or withholding times (time withhold attack).\r\n    // After 72 hours of no update of the side chain merkle root users can withdraw their last recorded\r\n    // token balance from side chain to main chain.\r\n    // ------------------------------------------------------------------------\r\n    function recoverTokenFromInactivity(bytes32[] memory _proof, bytes32 _leaf, uint256 _balance) public sideChainInactive userNotBlocked onlyRecoveryEnabled {\r\n        // Require side chain root hash not set on Mainchain for more than 72 hours (=3 days)\r\n        require(_leaf == getBalanceHash(_msgSender(), _balance), \"MorpherBridge: Wrong balance.\");\r\n        require(claimFromInactivity[_leaf] == false, \"MorpherBridge: Token already transferred.\");\r\n        require(mProof(_proof,_leaf) == true, \"MorpherBridge: Merkle proof failed.\");\r\n        claimFromInactivity[_leaf] = true;\r\n\r\n        verifyUpdateDailyLimit(_balance);\r\n        verifyUpdateMonthlyLimit(_balance);\r\n        verifyUpdateYearlyLimit(_balance); \r\n        \r\n        _chainTransfer(_msgSender(), tokenClaimedOnThisChain[_msgSender()].amount, _balance);\r\n        emit TokenRecoveryFromSideChain(_msgSender(), _leaf);\r\n        // Remark: Side chain operator must adjust side chain balances for token recoveries before restarting operations to avoid double spend\r\n    }\r\n\r\n    // ------------------------------------------------------------------------\r\n    // mProof(bytes32[] memory _proof, bytes32 _leaf)\r\n    // Computes merkle proof against the root hash of the sidechain stored in Morpher state\r\n    // ------------------------------------------------------------------------\r\n    function mProof(bytes32[] memory _proof, bytes32 _leaf) public view returns(bool _isTrue) {\r\n        return MerkleProofUpgradeable.verify(_proof, withdrawalData.merkleRoot, _leaf);\r\n    }\r\n\r\n    function getBalanceHash(address _address, uint256 _balance) public pure returns (bytes32 _hash) {\r\n        return keccak256(abi.encodePacked(_address, _balance));\r\n    }\r\n\r\n    function getAndIncreaseBridgeNonce() internal returns (uint256) {\r\n        bridgeNonce++;\r\n        return bridgeNonce;\r\n    }\r\n}\r\n",
  "sourcePath": "/home/thomas/MorpherProtocol/contracts/MorpherBridge.sol",
  "compiler": {
    "name": "solc",
    "version": "0.8.11+commit.d7f03943.Emscripten.clang"
  },
  "schemaVersion": "3.4.5",
  "updatedAt": "2022-03-17T14:17:10.943Z",
  "devdoc": {
    "kind": "dev",
    "methods": {},
    "version": 1
  },
  "userdoc": {
    "kind": "user",
    "methods": {
      "stageTokensForTransfer(uint256)": {
        "notice": "stageTokensForTransfer [chain A] => claimTokens [chain B]     former: transferToSideChain(uint256 _tokens)  Tokens are burned on chain A and then, after the merkle root is written,  can be credited on chain B through claimStagedTokens(...) below"
      }
    },
    "version": 1
  }
}