{
  "contractName": "MorpherBridge",
  "abi": [
    {
      "inputs": [
        {
          "internalType": "address",
          "name": "_stateAddress",
          "type": "address"
        },
        {
          "internalType": "address",
          "name": "_coldStorageOwnerAddress",
          "type": "address"
        },
        {
          "internalType": "address",
          "name": "_previousBridgeAddress",
          "type": "address"
        },
        {
          "internalType": "address",
          "name": "_userBlockingAddress",
          "type": "address"
        }
      ],
      "stateMutability": "nonpayable",
      "type": "constructor"
    },
    {
      "anonymous": false,
      "inputs": [
        {
          "indexed": true,
          "internalType": "address",
          "name": "from",
          "type": "address"
        },
        {
          "indexed": false,
          "internalType": "uint256",
          "name": "tokens",
          "type": "uint256"
        }
      ],
      "name": "ClaimFailedTransferToSidechain",
      "type": "event"
    },
    {
      "anonymous": false,
      "inputs": [
        {
          "indexed": false,
          "internalType": "address",
          "name": "_address",
          "type": "address"
        }
      ],
      "name": "LinkMorpherUserBlocking",
      "type": "event"
    },
    {
      "anonymous": false,
      "inputs": [
        {
          "indexed": false,
          "internalType": "address",
          "name": "_address",
          "type": "address"
        }
      ],
      "name": "LinkState",
      "type": "event"
    },
    {
      "anonymous": false,
      "inputs": [
        {
          "indexed": true,
          "internalType": "address",
          "name": "from",
          "type": "address"
        },
        {
          "indexed": false,
          "internalType": "uint256",
          "name": "tokens",
          "type": "uint256"
        },
        {
          "indexed": false,
          "internalType": "bytes32",
          "name": "sidechainTransactionHash",
          "type": "bytes32"
        }
      ],
      "name": "OperatorChainTransfer",
      "type": "event"
    },
    {
      "anonymous": false,
      "inputs": [
        {
          "indexed": true,
          "internalType": "address",
          "name": "previousOwner",
          "type": "address"
        },
        {
          "indexed": true,
          "internalType": "address",
          "name": "newOwner",
          "type": "address"
        }
      ],
      "name": "OwnershipTransferred",
      "type": "event"
    },
    {
      "anonymous": false,
      "inputs": [
        {
          "indexed": true,
          "internalType": "address",
          "name": "from",
          "type": "address"
        },
        {
          "indexed": false,
          "internalType": "bytes32",
          "name": "positionHash",
          "type": "bytes32"
        }
      ],
      "name": "PositionRecoveryFromSideChain",
      "type": "event"
    },
    {
      "anonymous": false,
      "inputs": [
        {
          "indexed": false,
          "internalType": "bytes32",
          "name": "_rootHash",
          "type": "bytes32"
        }
      ],
      "name": "SideChainMerkleRootUpdated",
      "type": "event"
    },
    {
      "anonymous": false,
      "inputs": [
        {
          "indexed": true,
          "internalType": "address",
          "name": "from",
          "type": "address"
        },
        {
          "indexed": false,
          "internalType": "bytes32",
          "name": "positionHash",
          "type": "bytes32"
        }
      ],
      "name": "TokenRecoveryFromSideChain",
      "type": "event"
    },
    {
      "anonymous": false,
      "inputs": [
        {
          "indexed": true,
          "internalType": "address",
          "name": "from",
          "type": "address"
        },
        {
          "indexed": false,
          "internalType": "uint256",
          "name": "tokens",
          "type": "uint256"
        },
        {
          "indexed": false,
          "internalType": "uint256",
          "name": "totalTokenSent",
          "type": "uint256"
        },
        {
          "indexed": false,
          "internalType": "uint256",
          "name": "timeStamp",
          "type": "uint256"
        },
        {
          "indexed": false,
          "internalType": "uint256",
          "name": "transferNonce",
          "type": "uint256"
        },
        {
          "indexed": true,
          "internalType": "bytes32",
          "name": "transferHash",
          "type": "bytes32"
        }
      ],
      "name": "TransferToLinkedChain",
      "type": "event"
    },
    {
      "anonymous": false,
      "inputs": [
        {
          "indexed": true,
          "internalType": "address",
          "name": "from",
          "type": "address"
        },
        {
          "indexed": false,
          "internalType": "uint256",
          "name": "tokens",
          "type": "uint256"
        }
      ],
      "name": "TrustlessWithdrawFromSideChain",
      "type": "event"
    },
    {
      "anonymous": false,
      "inputs": [
        {
          "indexed": false,
          "internalType": "uint256",
          "name": "_withdrawLimit",
          "type": "uint256"
        }
      ],
      "name": "WithdrawLimitChanged",
      "type": "event"
    },
    {
      "anonymous": false,
      "inputs": [
        {
          "indexed": false,
          "internalType": "uint256",
          "name": "_oldLimit",
          "type": "uint256"
        },
        {
          "indexed": false,
          "internalType": "uint256",
          "name": "_newLimit",
          "type": "uint256"
        }
      ],
      "name": "WithdrawLimitDailyChanged",
      "type": "event"
    },
    {
      "anonymous": false,
      "inputs": [
        {
          "indexed": false,
          "internalType": "uint256",
          "name": "_oldLimit",
          "type": "uint256"
        },
        {
          "indexed": false,
          "internalType": "uint256",
          "name": "_newLimit",
          "type": "uint256"
        }
      ],
      "name": "WithdrawLimitMonthlyChanged",
      "type": "event"
    },
    {
      "anonymous": false,
      "inputs": [],
      "name": "WithdrawLimitReset",
      "type": "event"
    },
    {
      "anonymous": false,
      "inputs": [
        {
          "indexed": false,
          "internalType": "uint256",
          "name": "_oldLimit",
          "type": "uint256"
        },
        {
          "indexed": false,
          "internalType": "uint256",
          "name": "_newLimit",
          "type": "uint256"
        }
      ],
      "name": "WithdrawLimitYearlyChanged",
      "type": "event"
    },
    {
      "inputs": [],
      "name": "owner",
      "outputs": [
        {
          "internalType": "address",
          "name": "",
          "type": "address"
        }
      ],
      "stateMutability": "view",
      "type": "function"
    },
    {
      "inputs": [],
      "name": "renounceOwnership",
      "outputs": [],
      "stateMutability": "nonpayable",
      "type": "function"
    },
    {
      "inputs": [
        {
          "internalType": "address",
          "name": "newOwner",
          "type": "address"
        }
      ],
      "name": "transferOwnership",
      "outputs": [],
      "stateMutability": "nonpayable",
      "type": "function"
    },
    {
      "inputs": [],
      "name": "withdrawalLimitDaily",
      "outputs": [
        {
          "internalType": "uint256",
          "name": "",
          "type": "uint256"
        }
      ],
      "stateMutability": "view",
      "type": "function"
    },
    {
      "inputs": [],
      "name": "withdrawalLimitMonthly",
      "outputs": [
        {
          "internalType": "uint256",
          "name": "",
          "type": "uint256"
        }
      ],
      "stateMutability": "view",
      "type": "function"
    },
    {
      "inputs": [],
      "name": "withdrawalLimitYearly",
      "outputs": [
        {
          "internalType": "uint256",
          "name": "",
          "type": "uint256"
        }
      ],
      "stateMutability": "view",
      "type": "function"
    },
    {
      "inputs": [
        {
          "internalType": "address",
          "name": "",
          "type": "address"
        },
        {
          "internalType": "uint256",
          "name": "",
          "type": "uint256"
        }
      ],
      "name": "withdrawalPerDay",
      "outputs": [
        {
          "internalType": "uint256",
          "name": "",
          "type": "uint256"
        }
      ],
      "stateMutability": "view",
      "type": "function"
    },
    {
      "inputs": [
        {
          "internalType": "address",
          "name": "",
          "type": "address"
        },
        {
          "internalType": "uint256",
          "name": "",
          "type": "uint256"
        }
      ],
      "name": "withdrawalPerMonth",
      "outputs": [
        {
          "internalType": "uint256",
          "name": "",
          "type": "uint256"
        }
      ],
      "stateMutability": "view",
      "type": "function"
    },
    {
      "inputs": [
        {
          "internalType": "address",
          "name": "",
          "type": "address"
        },
        {
          "internalType": "uint256",
          "name": "",
          "type": "uint256"
        }
      ],
      "name": "withdrawalPerYear",
      "outputs": [
        {
          "internalType": "uint256",
          "name": "",
          "type": "uint256"
        }
      ],
      "stateMutability": "view",
      "type": "function"
    },
    {
      "inputs": [
        {
          "internalType": "address",
          "name": "_stateAddress",
          "type": "address"
        }
      ],
      "name": "setMorpherState",
      "outputs": [],
      "stateMutability": "nonpayable",
      "type": "function"
    },
    {
      "inputs": [
        {
          "internalType": "address",
          "name": "_userBlockingAddress",
          "type": "address"
        }
      ],
      "name": "setUserBlockingAddress",
      "outputs": [],
      "stateMutability": "nonpayable",
      "type": "function"
    },
    {
      "inputs": [],
      "name": "disableFastTransfers",
      "outputs": [],
      "stateMutability": "nonpayable",
      "type": "function"
    },
    {
      "inputs": [
        {
          "internalType": "bytes32",
          "name": "_rootHash",
          "type": "bytes32"
        }
      ],
      "name": "updateSideChainMerkleRoot",
      "outputs": [],
      "stateMutability": "nonpayable",
      "type": "function"
    },
    {
      "inputs": [],
      "name": "resetLast24HoursAmountWithdrawn",
      "outputs": [],
      "stateMutability": "nonpayable",
      "type": "function"
    },
    {
      "inputs": [
        {
          "internalType": "uint256",
          "name": "_withdrawLimit",
          "type": "uint256"
        }
      ],
      "name": "set24HourWithdrawLimit",
      "outputs": [],
      "stateMutability": "nonpayable",
      "type": "function"
    },
    {
      "inputs": [
        {
          "internalType": "uint256",
          "name": "_withdrawLimit",
          "type": "uint256"
        }
      ],
      "name": "updateWithdrawLimitDaily",
      "outputs": [],
      "stateMutability": "nonpayable",
      "type": "function"
    },
    {
      "inputs": [
        {
          "internalType": "uint256",
          "name": "_withdrawLimit",
          "type": "uint256"
        }
      ],
      "name": "updateWithdrawLimitMonthly",
      "outputs": [],
      "stateMutability": "nonpayable",
      "type": "function"
    },
    {
      "inputs": [
        {
          "internalType": "uint256",
          "name": "_withdrawLimit",
          "type": "uint256"
        }
      ],
      "name": "updateWithdrawLimitYearly",
      "outputs": [],
      "stateMutability": "nonpayable",
      "type": "function"
    },
    {
      "inputs": [
        {
          "internalType": "address",
          "name": "_address",
          "type": "address"
        }
      ],
      "name": "getTokenSentToLinkedChain",
      "outputs": [
        {
          "internalType": "uint256",
          "name": "_token",
          "type": "uint256"
        }
      ],
      "stateMutability": "view",
      "type": "function"
    },
    {
      "inputs": [
        {
          "internalType": "address",
          "name": "_address",
          "type": "address"
        }
      ],
      "name": "getTokenClaimedOnThisChain",
      "outputs": [
        {
          "internalType": "uint256",
          "name": "_token",
          "type": "uint256"
        }
      ],
      "stateMutability": "view",
      "type": "function"
    },
    {
      "inputs": [
        {
          "internalType": "address",
          "name": "_address",
          "type": "address"
        }
      ],
      "name": "getTokenSentToLinkedChainTime",
      "outputs": [
        {
          "internalType": "uint256",
          "name": "_time",
          "type": "uint256"
        }
      ],
      "stateMutability": "view",
      "type": "function"
    },
    {
      "inputs": [
        {
          "internalType": "uint256",
          "name": "_amount",
          "type": "uint256"
        }
      ],
      "name": "verifyWithdrawOk",
      "outputs": [
        {
          "internalType": "bool",
          "name": "_authorized",
          "type": "bool"
        }
      ],
      "stateMutability": "nonpayable",
      "type": "function"
    },
    {
      "inputs": [
        {
          "internalType": "uint256",
          "name": "_amount",
          "type": "uint256"
        }
      ],
      "name": "isNotDailyLimitExceeding",
      "outputs": [
        {
          "internalType": "bool",
          "name": "",
          "type": "bool"
        }
      ],
      "stateMutability": "view",
      "type": "function"
    },
    {
      "inputs": [
        {
          "internalType": "uint256",
          "name": "_amount",
          "type": "uint256"
        }
      ],
      "name": "isNotMonthlyLimitExceeding",
      "outputs": [
        {
          "internalType": "bool",
          "name": "",
          "type": "bool"
        }
      ],
      "stateMutability": "view",
      "type": "function"
    },
    {
      "inputs": [
        {
          "internalType": "uint256",
          "name": "_amount",
          "type": "uint256"
        }
      ],
      "name": "isNotYearlyLimitExceeding",
      "outputs": [
        {
          "internalType": "bool",
          "name": "",
          "type": "bool"
        }
      ],
      "stateMutability": "view",
      "type": "function"
    },
    {
      "inputs": [
        {
          "internalType": "uint256",
          "name": "_amount",
          "type": "uint256"
        }
      ],
      "name": "verifyUpdateDailyLimit",
      "outputs": [],
      "stateMutability": "nonpayable",
      "type": "function"
    },
    {
      "inputs": [
        {
          "internalType": "uint256",
          "name": "_amount",
          "type": "uint256"
        }
      ],
      "name": "verifyUpdateMonthlyLimit",
      "outputs": [],
      "stateMutability": "nonpayable",
      "type": "function"
    },
    {
      "inputs": [
        {
          "internalType": "uint256",
          "name": "_amount",
          "type": "uint256"
        }
      ],
      "name": "verifyUpdateYearlyLimit",
      "outputs": [],
      "stateMutability": "nonpayable",
      "type": "function"
    },
    {
      "inputs": [
        {
          "internalType": "address",
          "name": "_user",
          "type": "address"
        }
      ],
      "name": "getWithdrawalPerDay",
      "outputs": [
        {
          "internalType": "uint256",
          "name": "",
          "type": "uint256"
        }
      ],
      "stateMutability": "view",
      "type": "function"
    },
    {
      "inputs": [
        {
          "internalType": "address",
          "name": "_user",
          "type": "address"
        }
      ],
      "name": "getWithdrawalPerMonth",
      "outputs": [
        {
          "internalType": "uint256",
          "name": "",
          "type": "uint256"
        }
      ],
      "stateMutability": "view",
      "type": "function"
    },
    {
      "inputs": [
        {
          "internalType": "address",
          "name": "_user",
          "type": "address"
        }
      ],
      "name": "getWithdrawalPerYear",
      "outputs": [
        {
          "internalType": "uint256",
          "name": "",
          "type": "uint256"
        }
      ],
      "stateMutability": "view",
      "type": "function"
    },
    {
      "inputs": [
        {
          "internalType": "uint256",
          "name": "_tokens",
          "type": "uint256"
        }
      ],
      "name": "transferToSideChain",
      "outputs": [],
      "stateMutability": "nonpayable",
      "type": "function"
    },
    {
      "inputs": [
        {
          "internalType": "address",
          "name": "_address",
          "type": "address"
        },
        {
          "internalType": "uint256",
          "name": "_numOfToken",
          "type": "uint256"
        },
        {
          "internalType": "uint256",
          "name": "_tokenBurnedOnLinkedChain",
          "type": "uint256"
        },
        {
          "internalType": "bytes32",
          "name": "_sidechainTransactionHash",
          "type": "bytes32"
        }
      ],
      "name": "fastTransferFromSideChain",
      "outputs": [],
      "stateMutability": "nonpayable",
      "type": "function"
    },
    {
      "inputs": [
        {
          "internalType": "uint256",
          "name": "_numOfToken",
          "type": "uint256"
        },
        {
          "internalType": "uint256",
          "name": "_claimLimit",
          "type": "uint256"
        },
        {
          "internalType": "bytes32[]",
          "name": "_proof",
          "type": "bytes32[]"
        }
      ],
      "name": "trustlessTransferFromLinkedChain",
      "outputs": [],
      "stateMutability": "nonpayable",
      "type": "function"
    },
    {
      "inputs": [
        {
          "internalType": "uint256",
          "name": "_wrongSideChainBalance",
          "type": "uint256"
        },
        {
          "internalType": "bytes32[]",
          "name": "_proof",
          "type": "bytes32[]"
        }
      ],
      "name": "claimFailedTransferToSidechain",
      "outputs": [],
      "stateMutability": "nonpayable",
      "type": "function"
    },
    {
      "inputs": [
        {
          "internalType": "bytes32[]",
          "name": "_proof",
          "type": "bytes32[]"
        },
        {
          "internalType": "bytes32",
          "name": "_leaf",
          "type": "bytes32"
        },
        {
          "internalType": "bytes32",
          "name": "_marketId",
          "type": "bytes32"
        },
        {
          "internalType": "uint256",
          "name": "_timeStamp",
          "type": "uint256"
        },
        {
          "internalType": "uint256",
          "name": "_longShares",
          "type": "uint256"
        },
        {
          "internalType": "uint256",
          "name": "_shortShares",
          "type": "uint256"
        },
        {
          "internalType": "uint256",
          "name": "_meanEntryPrice",
          "type": "uint256"
        },
        {
          "internalType": "uint256",
          "name": "_meanEntrySpread",
          "type": "uint256"
        },
        {
          "internalType": "uint256",
          "name": "_meanEntryLeverage",
          "type": "uint256"
        },
        {
          "internalType": "uint256",
          "name": "_liquidationPrice",
          "type": "uint256"
        }
      ],
      "name": "recoverPositionFromSideChain",
      "outputs": [],
      "stateMutability": "nonpayable",
      "type": "function"
    },
    {
      "inputs": [
        {
          "internalType": "bytes32[]",
          "name": "_proof",
          "type": "bytes32[]"
        },
        {
          "internalType": "bytes32",
          "name": "_leaf",
          "type": "bytes32"
        },
        {
          "internalType": "uint256",
          "name": "_balance",
          "type": "uint256"
        }
      ],
      "name": "recoverTokenFromSideChain",
      "outputs": [],
      "stateMutability": "nonpayable",
      "type": "function"
    },
    {
      "inputs": [
        {
          "internalType": "bytes32[]",
          "name": "_proof",
          "type": "bytes32[]"
        },
        {
          "internalType": "bytes32",
          "name": "_leaf",
          "type": "bytes32"
        }
      ],
      "name": "mProof",
      "outputs": [
        {
          "internalType": "bool",
          "name": "_isTrue",
          "type": "bool"
        }
      ],
      "stateMutability": "view",
      "type": "function"
    }
  ],
  "bytecode": "0x6080604052692a5a058fc295ed00000060075569d3c21bcecceda10000006008556a0422ca8b0a00a4250000006009553480156200003c57600080fd5b5060405162003b6738038062003b678339810160408190526200005f916200031b565b6200006a33620000b0565b620000758462000100565b600280546001600160a01b0319166001600160a01b0384161790556200009b81620001a4565b620000a6836200023e565b5050505062000378565b600080546001600160a01b038381166001600160a01b0319831681178455604051919092169283917f8be0079c531659141344cd1fd0a4f28419497f9722a3daafe3b4186f6b6457e09190a35050565b6000546001600160a01b031633146200014f5760405162461bcd60e51b8152602060048201819052602482015260008051602062003b4783398151915260448201526064015b60405180910390fd5b600180546001600160a01b0319166001600160a01b0383169081179091556040519081527f978c711532bae8c58f353b0f3c7f3a0dfe600d9ae9a81818f2ad2919b88e1990906020015b60405180910390a150565b6000546001600160a01b03163314620001ef5760405162461bcd60e51b8152602060048201819052602482015260008051602062003b47833981519152604482015260640162000146565b600380546001600160a01b0319166001600160a01b0383169081179091556040519081527f9e970a87638a501374cc0f1d452b8b6a474847260309fa390b2544e4070d9ed99060200162000199565b6000546001600160a01b03163314620002895760405162461bcd60e51b8152602060048201819052602482015260008051602062003b47833981519152604482015260640162000146565b6001600160a01b038116620002f05760405162461bcd60e51b815260206004820152602660248201527f4f776e61626c653a206e6577206f776e657220697320746865207a65726f206160448201526564647265737360d01b606482015260840162000146565b620002fb81620000b0565b50565b80516001600160a01b03811681146200031657600080fd5b919050565b600080600080608085870312156200033257600080fd5b6200033d85620002fe565b93506200034d60208601620002fe565b92506200035d60408601620002fe565b91506200036d60608601620002fe565b905092959194509250565b6137bf80620003886000396000f3fe608060405234801561001057600080fd5b50600436106102325760003560e01c8063791fecec11610130578063e36d740b116100b8578063f2fde38b1161007c578063f2fde38b146104e0578063f3b0b746146104f3578063f572755114610506578063f5c576cf14610519578063fc89a4fc1461052c57600080fd5b8063e36d740b1461045b578063ebd164fb14610486578063ed77743b14610499578063eedc58ec146104c4578063ef094f78146104d757600080fd5b80638da5cb5b116100ff5780638da5cb5b146103ff57806398684b4e1461041a5780639d6d9bb71461042d578063a058088014610440578063cb66ec531461044857600080fd5b8063791fecec146103b35780637a5ddab5146103c65780637cd32363146103d957806380104668146103ec57600080fd5b806339472e67116101be578063510855c411610182578063510855c41461037457806351dd0593146103875780635300597b14610390578063715018a6146103a357806376724f99146103ab57600080fd5b806339472e67146102fd57806349c01664146103105780634b7d521e146103235780634c95bea2146103365780634f7415bd1461034957600080fd5b806321c02c8e1161020557806321c02c8e1461029e57806322f4c3f7146102b1578063294f19b6146102c45780632d1a752c146102d7578063364ae26e146102ea57600080fd5b806306a8bb4f14610237578063125f31cd146102535780631526491c146102685780631da420b91461027b575b600080fd5b61024060085481565b6040519081526020015b60405180910390f35b610266610261366004613050565b61053f565b005b61024061027636600461307e565b610630565b61028e610289366004613050565b610758565b604051901515815260200161024a565b6102406102ac36600461307e565b610779565b61028e6102bf366004613050565b6107ac565b61028e6102d2366004613050565b6107bb565b6102666102e5366004613050565b6107ca565b6102406102f836600461307e565b610883565b61026661030b36600461307e565b6108b6565b61026661031e366004613050565b610935565b610266610331366004613050565b610a6b565b61024061034436600461307e565b610b53565b61024061035736600461309b565b600560209081526000928352604080842090915290825290205481565b61028e610382366004613050565b610bee565b61024060075481565b61028e61039e366004613178565b610e13565b610266610e9d565b610266610ed3565b6102666103c1366004613050565b610f67565b6102666103d43660046131bd565b6112d2565b6102406103e736600461307e565b61184c565b6102666103fa36600461307e565b6118e7565b6000546040516001600160a01b03909116815260200161024a565b610266610428366004613050565b61195f565b61026661043b36600461320b565b611a04565b610266611c8d565b610266610456366004613050565b611dc7565b61024061046936600461309b565b600460209081526000928352604080842090915290825290205481565b61024061049436600461307e565b611eaf565b6102406104a736600461309b565b600660209081526000928352604080842090915290825290205481565b6102666104d236600461325b565b611ee2565b61024060095481565b6102666104ee36600461307e565b6123f5565b6102666105013660046132a2565b612490565b610266610514366004613050565b6129ba565b61026661052736600461332c565b612a5d565b61026661053a366004613050565b612cfd565b600160009054906101000a90046001600160a01b03166001600160a01b0316630f508e006040518163ffffffff1660e01b8152600401602060405180830381865afa158015610592573d6000803e3d6000fd5b505050506040513d601f19601f820116820180604052508101906105b69190613367565b6001600160a01b0316336001600160a01b0316146105ef5760405162461bcd60e51b81526004016105e690613384565b60405180910390fd5b60075460408051918252602082018390527f0fc5c922cd03e4ac2e714e10dd8b3e4a5c642ea599101558f143f09958c6784a910160405180910390a1600755565b6002546000906001600160a01b03161580159061068257506001600160a01b03821660009081526006602052604081209061066f6301e1338042613401565b8152602001908152602001600020546000145b1561071b576002546001600160a01b031663ed77743b836106a76301e1338042613401565b6040516001600160e01b031960e085901b1681526001600160a01b03909216600483015260248201526044015b602060405180830381865afa1580156106f1573d6000803e3d6000fd5b505050506040513d601f19601f820116820180604052508101906107159190613423565b92915050565b6001600160a01b0382166000908152600660205260408120906107426301e1338042613401565b8152602001908152602001600020549050919050565b60006009548261076733610630565b610771919061343c565b111592915050565b6001546040516310e0164760e11b81526001600160a01b03838116600483015260009216906321c02c8e906024016106d4565b60006007548261076733610b53565b6000600854826107673361184c565b6107d381610758565b61083d5760405162461bcd60e51b815260206004820152603560248201527f4d6f72706865724272696467653a205769746864726177616c20416d6f756e7460448201527408195e18d959591cc81e59585c9b1e481b1a5b5a5d605a1b60648201526084016105e6565b8061084733610630565b610851919061343c565b3360009081526006602052604081209061086f6301e1338042613401565b815260208101919091526040016000205550565b600154604051631b25713760e11b81526001600160a01b038381166004830152600092169063364ae26e906024016106d4565b6000546001600160a01b031633146108e05760405162461bcd60e51b81526004016105e690613454565b600380546001600160a01b0319166001600160a01b0383169081179091556040519081527f9e970a87638a501374cc0f1d452b8b6a474847260309fa390b2544e4070d9ed9906020015b60405180910390a150565b600160009054906101000a90046001600160a01b03166001600160a01b0316630f508e006040518163ffffffff1660e01b8152600401602060405180830381865afa158015610988573d6000803e3d6000fd5b505050506040513d601f19601f820116820180604052508101906109ac9190613367565b6001600160a01b0316336001600160a01b0316146109dc5760405162461bcd60e51b81526004016105e690613384565b600154604051634da3c19960e01b8152600481018390526001600160a01b0390911690634da3c19990602401600060405180830381600087803b158015610a2257600080fd5b505af1158015610a36573d6000803e3d6000fd5b505050507fce559c2f7d86d801cf61f2bfd589e7926036f75a2c58e06b35378f308637d5048160405161092a91815260200190565b600160009054906101000a90046001600160a01b03166001600160a01b0316630f508e006040518163ffffffff1660e01b8152600401602060405180830381865afa158015610abe573d6000803e3d6000fd5b505050506040513d601f19601f82011682018060405250810190610ae29190613367565b6001600160a01b0316336001600160a01b031614610b125760405162461bcd60e51b81526004016105e690613384565b60085460408051918252602082018390527ff0f687298480b3bc8004684566e29cf275675b66a3f52e35084f2567514dc53c910160405180910390a1600855565b6002546000906001600160a01b031615801590610ba457506001600160a01b038216600090815260046020526040812090610b916201518042613401565b8152602001908152602001600020546000145b15610bc8576002546001600160a01b031663e36d740b836106a76201518042613401565b6001600160a01b0382166000908152600460205260408120906107426201518042613401565b600080600160009054906101000a90046001600160a01b03166001600160a01b031663aa43ced86040518163ffffffff1660e01b8152600401602060405180830381865afa158015610c44573d6000803e3d6000fd5b505050506040513d601f19601f82011682018060405250810190610c689190613423565b90506000600160009054906101000a90046001600160a01b03166001600160a01b0316631cb110776040518163ffffffff1660e01b8152600401602060405180830381865afa158015610cbf573d6000803e3d6000fd5b505050506040513d601f19601f82011682018060405250810190610ce39190613423565b905081421115610d77576000610cf98342613489565b6001549091506001600160a01b031663a35ab9c862015180610d1b85856134a0565b610d259190613401565b6040518263ffffffff1660e01b8152600401610d4391815260200190565b600060405180830381600087803b158015610d5d57600080fd5b505af1158015610d71573d6000803e3d6000fd5b50505050505b8084600160009054906101000a90046001600160a01b03166001600160a01b031663aa7bcd5d6040518163ffffffff1660e01b8152600401602060405180830381865afa158015610dcc573d6000803e3d6000fd5b505050506040513d601f19601f82011682018060405250810190610df09190613423565b610dfa919061343c565b11610e09575060019392505050565b5060009392505050565b6000610e9683600160009054906101000a90046001600160a01b03166001600160a01b03166325fbf7126040518163ffffffff1660e01b8152600401602060405180830381865afa158015610e6c573d6000803e3d6000fd5b505050506040513d601f19601f82011682018060405250810190610e909190613423565b84612e33565b9392505050565b6000546001600160a01b03163314610ec75760405162461bcd60e51b81526004016105e690613454565b610ed16000612e49565b565b6000546001600160a01b03163314610efd5760405162461bcd60e51b81526004016105e690613454565b600160009054906101000a90046001600160a01b03166001600160a01b031663592b6aab6040518163ffffffff1660e01b8152600401600060405180830381600087803b158015610f4d57600080fd5b505af1158015610f61573d6000803e3d6000fd5b50505050565b600354604051635612cd6760e11b81523360048201526001600160a01b039091169063ac259ace90602401602060405180830381865afa158015610faf573d6000803e3d6000fd5b505050506040513d601f19601f82011682018060405250810190610fd391906134bf565b15610ff05760405162461bcd60e51b81526004016105e6906134e1565b6001546040516370a0823160e01b815233600482015282916001600160a01b0316906370a0823190602401602060405180830381865afa158015611038573d6000803e3d6000fd5b505050506040513d601f19601f8201168201806040525081019061105c9190613423565b10156110b65760405162461bcd60e51b8152602060048201526024808201527f4d6f72706865724272696467653a20496e73756666696369656e742062616c616044820152633731b29760e11b60648201526084016105e6565b6110bf816129ba565b6110c88161195f565b6110d1816107ca565b600154604051632770a7eb60e21b8152336004820152602481018390526001600160a01b0390911690639dc29fac90604401600060405180830381600087803b15801561111d57600080fd5b505af1158015611131573d6000803e3d6000fd5b5050505060008161114133610883565b61114b919061343c565b90506000600160009054906101000a90046001600160a01b03166001600160a01b03166309089f976040518163ffffffff1660e01b81526004016020604051808303816000875af11580156111a4573d6000803e3d6000fd5b505050506040513d601f19601f820116820180604052508101906111c89190613423565b6040516001600160601b03193360601b166020820152603481018590526054810184905242607482018190526094820183905291925060009060b40160408051808303601f1901815290829052805160209091012060015463422cc2e760e01b8352336004840152602483018790529092506001600160a01b03169063422cc2e790604401600060405180830381600087803b15801561126757600080fd5b505af115801561127b573d6000803e3d6000fd5b50506040805188815260208101889052908101859052606081018690528392503391507f76dc9d098b791a3e9065b4237432e820c38b43f850d924581b31d61a8b4bbc829060800160405180910390a35050505050565b600160009054906101000a90046001600160a01b03166001600160a01b031663e4bd85226040518163ffffffff1660e01b8152600401602060405180830381865afa158015611325573d6000803e3d6000fd5b505050506040513d601f19601f820116820180604052508101906113499190613423565b600160009054906101000a90046001600160a01b03166001600160a01b031663d362bd2b6040518163ffffffff1660e01b8152600401602060405180830381865afa15801561139c573d6000803e3d6000fd5b505050506040513d601f19601f820116820180604052508101906113c09190613423565b6113ca9042613489565b116113e75760405162461bcd60e51b81526004016105e690613518565b600354604051635612cd6760e11b81523360048201526001600160a01b039091169063ac259ace90602401602060405180830381865afa15801561142f573d6000803e3d6000fd5b505050506040513d601f19601f8201168201806040525081019061145391906134bf565b156114705760405162461bcd60e51b81526004016105e6906134e1565b600160009054906101000a90046001600160a01b03166001600160a01b031663bfde57306040518163ffffffff1660e01b8152600401602060405180830381865afa1580156114c3573d6000803e3d6000fd5b505050506040513d601f19601f820116820180604052508101906114e791906134bf565b15156001146115085760405162461bcd60e51b81526004016105e690613582565b60015460405163042bd86d60e51b8152336004820152602481018390526001600160a01b039091169063857b0da090604401602060405180830381865afa158015611557573d6000803e3d6000fd5b505050506040513d601f19601f8201168201806040525081019061157b9190613423565b82146115c95760405162461bcd60e51b815260206004820152601d60248201527f4d6f72706865724272696467653a2057726f6e672062616c616e63652e00000060448201526064016105e6565b60015460405163112b80a760e21b8152600481018490526001600160a01b03909116906344ae029c90602401602060405180830381865afa158015611612573d6000803e3d6000fd5b505050506040513d601f19601f8201168201806040525081019061163691906134bf565b156116955760405162461bcd60e51b815260206004820152602960248201527f4d6f72706865724272696467653a20546f6b656e20616c7265616479207472616044820152683739b332b93932b21760b91b60648201526084016105e6565b61169f8383610e13565b15156001146116c05760405162461bcd60e51b81526004016105e6906135df565b6116c981610bee565b61173b5760405162461bcd60e51b815260206004820152603f60248201527f4d6f72706865724272696467653a20576974686472617720616d6f756e74206560448201527f786365656473207065726d697474656420323420686f7572206c696d69742e0060648201526084016105e6565b600154604051632d95530b60e21b8152600481018490526001600160a01b039091169063b6554c2c90602401600060405180830381600087803b15801561178157600080fd5b505af1158015611795573d6000803e3d6000fd5b50506001546040516310e0164760e11b81523360048201819052611812945092506001600160a01b03909116906321c02c8e90602401602060405180830381865afa1580156117e8573d6000803e3d6000fd5b505050506040513d601f19601f8201168201806040525081019061180c9190613423565b83612e99565b60405182815233907f0534719a5dcedfc13619bb4206e36ba0e42fb7d166c8b8a79320c8128fc3af549060200160405180910390a2505050565b6002546000906001600160a01b03161580159061189d57506001600160a01b03821660009081526005602052604081209061188a62278d0042613401565b8152602001908152602001600020546000145b156118c1576002546001600160a01b0316634f7415bd836106a762278d0042613401565b6001600160a01b03821660009081526005602052604081209061074262278d0042613401565b6000546001600160a01b031633146119115760405162461bcd60e51b81526004016105e690613454565b600180546001600160a01b0319166001600160a01b0383169081179091556040519081527f978c711532bae8c58f353b0f3c7f3a0dfe600d9ae9a81818f2ad2919b88e19909060200161092a565b611968816107bb565b6119d35760405162461bcd60e51b815260206004820152603660248201527f4d6f72706865724272696467653a205769746864726177616c20416d6f756e7460448201527508195e18d959591cc81b5bdb9d1a1b1e481b1a5b5a5d60521b60648201526084016105e6565b806119dd3361184c565b6119e7919061343c565b3360009081526005602052604081209061086f62278d0042613401565b600354604051635612cd6760e11b81523360048201526001600160a01b039091169063ac259ace90602401602060405180830381865afa158015611a4c573d6000803e3d6000fd5b505050506040513d601f19601f82011682018060405250810190611a7091906134bf565b15611a8d5760405162461bcd60e51b81526004016105e6906134e1565b6040516001600160601b03193360601b1660208201526034810183905260009060540160408051808303601f190181529082905280516020909101206001546310e0164760e11b83523360048401529092506000916001600160a01b03909116906321c02c8e90602401602060405180830381865afa158015611b14573d6000803e3d6000fd5b505050506040513d601f19601f82011682018060405250810190611b389190613423565b9050611b448383610e13565b611bdc5760405162461bcd60e51b815260206004820152605960248201527f4d6f72706865724272696467653a204d65726b6c652050726f6f66206661696c60448201527f65642e20506c65617365206d616b65207375726520796f7520656e746572656460648201527f2074686520636f727265637420636c61696d206c696d69742e00000000000000608482015260a4016105e6565b611be585610bee565b611c015760405162461bcd60e51b81526004016105e690613622565b611c0a856129ba565b611c138561195f565b611c1c856107ca565b83611c27868361343c565b1115611c455760405162461bcd60e51b81526004016105e6906136a6565b611c50338287612e99565b60405185815233907f943c724b337822464f019ef425f7d5b1dd7ca039317dabe7446a630a6b8236d3906020015b60405180910390a25050505050565b600160009054906101000a90046001600160a01b03166001600160a01b0316630f508e006040518163ffffffff1660e01b8152600401602060405180830381865afa158015611ce0573d6000803e3d6000fd5b505050506040513d601f19601f82011682018060405250810190611d049190613367565b6001600160a01b0316336001600160a01b031614611d345760405162461bcd60e51b81526004016105e690613384565b600160009054906101000a90046001600160a01b03166001600160a01b031663a05808806040518163ffffffff1660e01b8152600401600060405180830381600087803b158015611d8457600080fd5b505af1158015611d98573d6000803e3d6000fd5b50506040517fd14f25c95298a26f5b879184999a5d7a5ea86c43f3951812fbb4165e853b615e925060009150a1565b600160009054906101000a90046001600160a01b03166001600160a01b0316630f508e006040518163ffffffff1660e01b8152600401602060405180830381865afa158015611e1a573d6000803e3d6000fd5b505050506040513d601f19601f82011682018060405250810190611e3e9190613367565b6001600160a01b0316336001600160a01b031614611e6e5760405162461bcd60e51b81526004016105e690613384565b60095460408051918252602082018390527f7a8be6c72c32a1527fe0e158fd9577065e94dab55f143bb7e1d7cd24fd3c983e910160405180910390a1600955565b60015460405163ebd164fb60e01b81526001600160a01b038381166004830152600092169063ebd164fb906024016106d4565b600354604051635612cd6760e11b81523360048201526001600160a01b039091169063ac259ace90602401602060405180830381865afa158015611f2a573d6000803e3d6000fd5b505050506040513d601f19601f82011682018060405250810190611f4e91906134bf565b15611f6b5760405162461bcd60e51b81526004016105e6906134e1565b6040516001600160601b03193360601b166020820152603481018390526000906054016040516020818303038152906040528051906020012090506000611fb133610883565b90506000611fbe33611eaf565b90506000600160009054906101000a90046001600160a01b03166001600160a01b031663d362bd2b6040518163ffffffff1660e01b8152600401602060405180830381865afa158015612015573d6000803e3d6000fd5b505050506040513d601f19601f820116820180604052508101906120399190613423565b9050612045818361343c565b42116120cd5760405162461bcd60e51b815260206004820152604b60248201527f4d6f72706865724272696467653a204661696c6564206465706f73697473206360448201527f616e206f6e6c7920626520636c61696d656420616674657220696e616374697660648201526a34ba3c903832b934b7b21760a91b608482015260a4016105e6565b8286106121575760405162461bcd60e51b815260206004820152604c60248201527f4d6f72706865724272696467653a204f7468657220636861696e20637265646960448201527f74206973206772656174657220657175616c20746f2077726f6e67536964654360648201526b3430b4b72130b630b731b29760a11b608482015260a4016105e6565b6121646103828785613489565b6121d65760405162461bcd60e51b815260206004820152603c60248201527f4d6f72706865724272696467653a20436c61696d20616d6f756e74206578636560448201527f656473207065726d697474656420323420686f7572206c696d69742e0000000060648201526084016105e6565b6121e08585610e13565b61226c5760405162461bcd60e51b815260206004820152605160248201527f4d6f72706865724272696467653a204d65726b6c652050726f6f66206661696c60448201527f65642e20456e74657220746f74616c20616d6f756e74206f66206465706f73696064820152703a399037b71039b4b2329031b430b4b71760791b608482015260a4016105e6565b60006122788785613489565b6001549091506001600160a01b031663422cc2e7336122978488613489565b6040516001600160e01b031960e085901b1681526001600160a01b0390921660048301526024820152604401600060405180830381600087803b1580156122dd57600080fd5b505af11580156122f1573d6000803e3d6000fd5b50506001546040516335a420b160e21b8152600481018590526001600160a01b03909116925063d69082c49150602401600060405180830381600087803b15801561233b57600080fd5b505af115801561234f573d6000803e3d6000fd5b50506001546040516340c10f1960e01b8152336004820152602481018590526001600160a01b0390911692506340c10f199150604401600060405180830381600087803b15801561239f57600080fd5b505af11580156123b3573d6000803e3d6000fd5b50506040518381523392507ff3d1bd7b5416206939e66c9b6ee92563caaf8499c21668173d17cacbaefdc700915060200160405180910390a250505050505050565b6000546001600160a01b0316331461241f5760405162461bcd60e51b81526004016105e690613454565b6001600160a01b0381166124845760405162461bcd60e51b815260206004820152602660248201527f4f776e61626c653a206e6577206f776e657220697320746865207a65726f206160448201526564647265737360d01b60648201526084016105e6565b61248d81612e49565b50565b600160009054906101000a90046001600160a01b03166001600160a01b031663e4bd85226040518163ffffffff1660e01b8152600401602060405180830381865afa1580156124e3573d6000803e3d6000fd5b505050506040513d601f19601f820116820180604052508101906125079190613423565b600160009054906101000a90046001600160a01b03166001600160a01b031663d362bd2b6040518163ffffffff1660e01b8152600401602060405180830381865afa15801561255a573d6000803e3d6000fd5b505050506040513d601f19601f8201168201806040525081019061257e9190613423565b6125889042613489565b116125a55760405162461bcd60e51b81526004016105e690613518565b600354604051635612cd6760e11b81523360048201526001600160a01b039091169063ac259ace90602401602060405180830381865afa1580156125ed573d6000803e3d6000fd5b505050506040513d601f19601f8201168201806040525081019061261191906134bf565b1561262e5760405162461bcd60e51b81526004016105e6906134e1565b600160009054906101000a90046001600160a01b03166001600160a01b031663bfde57306040518163ffffffff1660e01b8152600401602060405180830381865afa158015612681573d6000803e3d6000fd5b505050506040513d601f19601f820116820180604052508101906126a591906134bf565b15156001146126c65760405162461bcd60e51b81526004016105e690613582565b600154604051631e9a1d1160e21b81526001600160a01b0390911690637a687444906127069033908c908c908c908c908c908c908c908c9060040161370e565b602060405180830381865afa158015612723573d6000803e3d6000fd5b505050506040513d601f19601f820116820180604052508101906127479190613423565b89146127af5760405162461bcd60e51b815260206004820152603160248201527f4d6f72706865724272696467653a206c65616620646f6573206e6f742065717560448201527030b6103837b9b4ba34b7b7103430b9b41760791b60648201526084016105e6565b60015460405163112b80a760e21b8152600481018b90526001600160a01b03909116906344ae029c90602401602060405180830381865afa1580156127f8573d6000803e3d6000fd5b505050506040513d601f19601f8201168201806040525081019061281c91906134bf565b1561287e5760405162461bcd60e51b815260206004820152602c60248201527f4d6f72706865724272696467653a20506f736974696f6e20616c72656164792060448201526b3a3930b739b332b93932b21760a11b60648201526084016105e6565b6128888a8a610e13565b15156001146128a95760405162461bcd60e51b81526004016105e6906135df565b600154604051632d95530b60e21b8152600481018b90526001600160a01b039091169063b6554c2c90602401600060405180830381600087803b1580156128ef57600080fd5b505af1158015612903573d6000803e3d6000fd5b5050600154604051635f3f325b60e11b81526001600160a01b03909116925063be7e64b691506129479033908c908c908c908c908c908c908c908c9060040161370e565b600060405180830381600087803b15801561296157600080fd5b505af1158015612975573d6000803e3d6000fd5b50506040518b81523392507f46de0525fb620932847e7db9be837e386fb61845ffb4ccc632241dfa56ce5d43915060200160405180910390a250505050505050505050565b6129c3816107ac565b612a2c5760405162461bcd60e51b815260206004820152603460248201527f4d6f72706865724272696467653a205769746864726177616c20416d6f756e7460448201527308195e18d959591cc819185a5b1e481b1a5b5a5d60621b60648201526084016105e6565b80612a3633610b53565b612a40919061343c565b3360009081526004602052604081209061086f6201518042613401565b600160009054906101000a90046001600160a01b03166001600160a01b0316630f508e006040518163ffffffff1660e01b8152600401602060405180830381865afa158015612ab0573d6000803e3d6000fd5b505050506040513d601f19601f82011682018060405250810190612ad49190613367565b6001600160a01b0316336001600160a01b031614612b045760405162461bcd60e51b81526004016105e690613384565b600160009054906101000a90046001600160a01b03166001600160a01b031663d8d5470d6040518163ffffffff1660e01b8152600401602060405180830381865afa158015612b57573d6000803e3d6000fd5b505050506040513d601f19601f82011682018060405250810190612b7b91906134bf565b1515600114612bf25760405162461bcd60e51b815260206004820152603d60248201527f4d6f72706865724272696467653a2046617374207472616e736665727320686160448201527f7665206265656e2064697361626c6564207065726d616e656e746c792e00000060648201526084016105e6565b6001546040516310e0164760e11b81526001600160a01b03868116600483015260009216906321c02c8e90602401602060405180830381865afa158015612c3d573d6000803e3d6000fd5b505050506040513d601f19601f82011682018060405250810190612c619190613423565b9050612c6c84610bee565b612c885760405162461bcd60e51b81526004016105e690613622565b82612c93858361343c565b1115612cb15760405162461bcd60e51b81526004016105e6906136a6565b612cbc858286612e99565b60408051858152602081018490526001600160a01b038716917f74a7ba315838b43b88c84bdbafcd2dc02f2fe2bc028ae2b25a715523e85ca7fb9101611c7e565b600160009054906101000a90046001600160a01b03166001600160a01b0316630f508e006040518163ffffffff1660e01b8152600401602060405180830381865afa158015612d50573d6000803e3d6000fd5b505050506040513d601f19601f82011682018060405250810190612d749190613367565b6001600160a01b0316336001600160a01b031614612da45760405162461bcd60e51b81526004016105e690613384565b600154604051633f22693f60e21b8152600481018390526001600160a01b039091169063fc89a4fc90602401600060405180830381600087803b158015612dea57600080fd5b505af1158015612dfe573d6000803e3d6000fd5b505050507fe8fb3c9788b8adcb093d9daec2f073f54553abbcc85943beac30467e6c585b3b8160405161092a91815260200190565b600082612e408584612fdc565b14949350505050565b600080546001600160a01b038381166001600160a01b0319831681178455604051919092169283917f8be0079c531659141344cd1fd0a4f28419497f9722a3daafe3b4186f6b6457e09190a35050565b6001546001600160a01b0316633383e8d884612eb5848661343c565b6040516001600160e01b031960e085901b1681526001600160a01b0390921660048301526024820152604401600060405180830381600087803b158015612efb57600080fd5b505af1158015612f0f573d6000803e3d6000fd5b50506001546040516335a420b160e21b8152600481018590526001600160a01b03909116925063d69082c49150602401600060405180830381600087803b158015612f5957600080fd5b505af1158015612f6d573d6000803e3d6000fd5b50506001546040516340c10f1960e01b81526001600160a01b0387811660048301526024820186905290911692506340c10f199150604401600060405180830381600087803b158015612fbf57600080fd5b505af1158015612fd3573d6000803e3d6000fd5b50505050505050565b600081815b8451811015613048576000858281518110612ffe57612ffe613758565b602002602001015190508083116130245760008381526020829052604090209250613035565b600081815260208490526040902092505b50806130408161376e565b915050612fe1565b509392505050565b60006020828403121561306257600080fd5b5035919050565b6001600160a01b038116811461248d57600080fd5b60006020828403121561309057600080fd5b8135610e9681613069565b600080604083850312156130ae57600080fd5b82356130b981613069565b946020939093013593505050565b634e487b7160e01b600052604160045260246000fd5b600082601f8301126130ee57600080fd5b8135602067ffffffffffffffff8083111561310b5761310b6130c7565b8260051b604051601f19603f83011681018181108482111715613130576131306130c7565b60405293845285810183019383810192508785111561314e57600080fd5b83870191505b8482101561316d57813583529183019190830190613154565b979650505050505050565b6000806040838503121561318b57600080fd5b823567ffffffffffffffff8111156131a257600080fd5b6131ae858286016130dd565b95602094909401359450505050565b6000806000606084860312156131d257600080fd5b833567ffffffffffffffff8111156131e957600080fd5b6131f5868287016130dd565b9660208601359650604090950135949350505050565b60008060006060848603121561322057600080fd5b8335925060208401359150604084013567ffffffffffffffff81111561324557600080fd5b613251868287016130dd565b9150509250925092565b6000806040838503121561326e57600080fd5b82359150602083013567ffffffffffffffff81111561328c57600080fd5b613298858286016130dd565b9150509250929050565b6000806000806000806000806000806101408b8d0312156132c257600080fd5b8a3567ffffffffffffffff8111156132d957600080fd5b6132e58d828e016130dd565b9d60208d01359d5060408d01359c60608101359c5060808101359b5060a08101359a5060c0810135995060e081013598506101008101359750610120013595509350505050565b6000806000806080858703121561334257600080fd5b843561334d81613069565b966020860135965060408601359560600135945092505050565b60006020828403121561337957600080fd5b8151610e9681613069565b60208082526041908201527f4d6f72706865724272696467653a2046756e6374696f6e2063616e206f6e6c7960408201527f2062652063616c6c65642062792053696465636861696e204f70657261746f726060820152601760f91b608082015260a00190565b634e487b7160e01b600052601160045260246000fd5b60008261341e57634e487b7160e01b600052601260045260246000fd5b500490565b60006020828403121561343557600080fd5b5051919050565b6000821982111561344f5761344f6133eb565b500190565b6020808252818101527f4f776e61626c653a2063616c6c6572206973206e6f7420746865206f776e6572604082015260600190565b60008282101561349b5761349b6133eb565b500390565b60008160001904831182151516156134ba576134ba6133eb565b500290565b6000602082840312156134d157600080fd5b81518015158114610e9657600080fd5b6020808252601e908201527f4d6f72706865724272696467653a205573657220697320626c6f636b65640000604082015260600190565b60208082526044908201527f4d6f72706865724272696467653a2046756e6374696f6e2063616e206f6e6c7960408201527f2062652063616c6c65642069662073696465636861696e20697320696e61637460608201526334bb329760e11b608082015260a00190565b60208082526039908201527f4d6f72706865724272696467653a2046756e6374696f6e2063616e206f6e6c7960408201527f206265206578656375746564206f6e20457468657265756d2e00000000000000606082015260800190565b60208082526023908201527f4d6f72706865724272696467653a204d65726b6c652070726f6f66206661696c60408201526232b21760e91b606082015260800190565b602080825260609082018190527f4d6f72706865724272696467653a20576974686472617720616d6f756e74206560408301527f786365656473207065726d697474656420323420686f7572206c696d69742e20908201527f506c656173652074727920616761696e20696e20612066657720686f7572732e608082015260a00190565b60208082526042908201527f4d6f72706865724272696467653a20546f6b656e20616d6f756e74206578636560408201527f65647320746f6b656e2064656c65746564206f6e206c696e6b65642063686169606082015261371760f11b608082015260a00190565b6001600160a01b03999099168952602089019790975260408801959095526060870193909352608086019190915260a085015260c084015260e08301526101008201526101200190565b634e487b7160e01b600052603260045260246000fd5b6000600019821415613782576137826133eb565b506001019056fea26469706673582212206924ce800b247752e01d6df0416c7bd12579e4e87f5c2e777f9504a1a5fa275564736f6c634300080b00334f776e61626c653a2063616c6c6572206973206e6f7420746865206f776e6572",
  "immutableReferences": {},
  "source": "// ------------------------------------------------------------------------\r\n// MorpherBridge\r\n// Handles deposit to and withdraws from the side chain, writing of the merkle\r\n// root to the main chain by the side chain operator, and enforces a rolling 24 hours\r\n// token withdraw limit from side chain to main chain.\r\n// If side chain operator doesn't write a merkle root hash to main chain for more than\r\n// 72 hours positions and balaces from side chain can be transferred to main chain.\r\n// ------------------------------------------------------------------------\r\n//SPDX-License-Identifier: GPLv3\r\npragma solidity 0.8.11;\r\n\r\nimport \"./MorpherState.sol\";\r\nimport \"./MorpherUserBlocking.sol\";\r\nimport \"@openzeppelin/contracts/access/Ownable.sol\";\r\nimport \"@openzeppelin/contracts/utils/cryptography/MerkleProof.sol\";\r\n\r\ncontract MorpherBridge is Ownable {\r\n\r\n    MorpherState state;\r\n    MorpherBridge previousBridge;\r\n    MorpherUserBlocking userBlocking;\r\n\r\n    mapping(address => mapping(uint256 => uint256)) public withdrawalPerDay; //[address][day] = withdrawalAmount\r\n    mapping(address => mapping(uint256 => uint256)) public withdrawalPerMonth; //[address][month] = withdrawalAmount\r\n    mapping(address => mapping(uint256 => uint256)) public withdrawalPerYear; //[address][year] = withdrawalAmount\r\n\r\n    uint256 public withdrawalLimitDaily = 200000 * (10**18); //200k MPH per day\r\n    uint256 public withdrawalLimitMonthly = 1000000 * (10 ** 18); //1M MPH per month\r\n    uint256 public withdrawalLimitYearly = 5000000 * (10 ** 18); //5M MPH per year\r\n\r\n    event TransferToLinkedChain(\r\n        address indexed from,\r\n        uint256 tokens,\r\n        uint256 totalTokenSent,\r\n        uint256 timeStamp,\r\n        uint256 transferNonce,\r\n        bytes32 indexed transferHash\r\n    );\r\n    event TrustlessWithdrawFromSideChain(address indexed from, uint256 tokens);\r\n    event OperatorChainTransfer(address indexed from, uint256 tokens, bytes32 sidechainTransactionHash);\r\n    event ClaimFailedTransferToSidechain(address indexed from, uint256 tokens);\r\n    event PositionRecoveryFromSideChain(address indexed from, bytes32 positionHash);\r\n    event TokenRecoveryFromSideChain(address indexed from, bytes32 positionHash);\r\n    event SideChainMerkleRootUpdated(bytes32 _rootHash);\r\n    event WithdrawLimitReset();\r\n    event WithdrawLimitChanged(uint256 _withdrawLimit);\r\n    event WithdrawLimitDailyChanged(uint256 _oldLimit, uint256 _newLimit);\r\n    event WithdrawLimitMonthlyChanged(uint256 _oldLimit, uint256 _newLimit);\r\n    event WithdrawLimitYearlyChanged(uint256 _oldLimit, uint256 _newLimit);\r\n    event LinkState(address _address);\r\n    event LinkMorpherUserBlocking(address _address);\r\n\r\n    constructor(address _stateAddress, address _coldStorageOwnerAddress, address _previousBridgeAddress, address _userBlockingAddress) {\r\n        setMorpherState(_stateAddress);\r\n        previousBridge = MorpherBridge(_previousBridgeAddress);\r\n        setUserBlockingAddress(_userBlockingAddress);\r\n        transferOwnership(_coldStorageOwnerAddress);\r\n    }\r\n\r\n    modifier onlySideChainOperator {\r\n        require(msg.sender == state.getSideChainOperator(), \"MorpherBridge: Function can only be called by Sidechain Operator.\");\r\n        _;\r\n    }\r\n\r\n    modifier sideChainInactive {\r\n        require(block.timestamp - state.inactivityPeriod() > state.getSideChainMerkleRootWrittenAtTime(), \"MorpherBridge: Function can only be called if sidechain is inactive.\");\r\n        _;\r\n    }\r\n    \r\n    modifier fastTransfers {\r\n        require(state.fastTransfersEnabled() == true, \"MorpherBridge: Fast transfers have been disabled permanently.\");\r\n        _;\r\n    }\r\n\r\n    modifier onlyMainchain {\r\n        require(state.mainChain() == true, \"MorpherBridge: Function can only be executed on Ethereum.\" );\r\n        _;\r\n    }\r\n\r\n    modifier userNotBlocked {\r\n        require(!userBlocking.userIsBlocked(msg.sender), \"MorpherBridge: User is blocked\");\r\n        _;\r\n    }\r\n    \r\n    // ------------------------------------------------------------------------\r\n    // Links Token Contract with State\r\n    // ------------------------------------------------------------------------\r\n    function setMorpherState(address _stateAddress) public onlyOwner {\r\n        state = MorpherState(_stateAddress);\r\n        emit LinkState(_stateAddress);\r\n    }\r\n\r\n    function setUserBlockingAddress(address _userBlockingAddress) public onlyOwner {\r\n        userBlocking = MorpherUserBlocking(_userBlockingAddress);\r\n        emit LinkMorpherUserBlocking(_userBlockingAddress);\r\n    }\r\n\r\n\r\n    function setInactivityPeriod(uint256 _periodInSeconds) private {\r\n        state.setInactivityPeriod(_periodInSeconds);\r\n    }\r\n\r\n    function disableFastTransfers() public onlyOwner  {\r\n        state.disableFastWithdraws();\r\n    }\r\n\r\n    function updateSideChainMerkleRoot(bytes32 _rootHash) public onlySideChainOperator {\r\n        state.setSideChainMerkleRoot(_rootHash);\r\n        emit SideChainMerkleRootUpdated(_rootHash);\r\n    }\r\n\r\n    function resetLast24HoursAmountWithdrawn() public onlySideChainOperator {\r\n        state.resetLast24HoursAmountWithdrawn();\r\n        emit WithdrawLimitReset();\r\n    }\r\n\r\n    function set24HourWithdrawLimit(uint256 _withdrawLimit) public onlySideChainOperator {\r\n        state.set24HourWithdrawLimit(_withdrawLimit);\r\n        emit WithdrawLimitChanged(_withdrawLimit);\r\n    }\r\n\r\n    function updateWithdrawLimitDaily(uint256 _withdrawLimit) public onlySideChainOperator {\r\n        emit WithdrawLimitDailyChanged(withdrawalLimitDaily, _withdrawLimit);\r\n        withdrawalLimitDaily = _withdrawLimit;\r\n    }\r\n\r\n    function updateWithdrawLimitMonthly(uint256 _withdrawLimit) public onlySideChainOperator {\r\n        emit WithdrawLimitMonthlyChanged(withdrawalLimitMonthly, _withdrawLimit);\r\n        withdrawalLimitMonthly = _withdrawLimit;\r\n    }\r\n    function updateWithdrawLimitYearly(uint256 _withdrawLimit) public onlySideChainOperator {\r\n        emit WithdrawLimitYearlyChanged(withdrawalLimitYearly, _withdrawLimit);\r\n        withdrawalLimitYearly = _withdrawLimit;\r\n    }\r\n\r\n    function getTokenSentToLinkedChain(address _address) public view returns (uint256 _token) {\r\n        return state.getTokenSentToLinkedChain(_address);\r\n    }\r\n\r\n    function getTokenClaimedOnThisChain(address _address) public view returns (uint256 _token)  {\r\n        return state.getTokenClaimedOnThisChain(_address);\r\n    }\r\n\r\n    function getTokenSentToLinkedChainTime(address _address) public view returns (uint256 _time)  {\r\n        return state.getTokenSentToLinkedChainTime(_address);\r\n    }\r\n\r\n    // ------------------------------------------------------------------------\r\n    // verifyWithdrawOk(uint256 _amount)\r\n    // Checks if creating _amount token on main chain does not violate the 24 hour transfer limit\r\n    // ------------------------------------------------------------------------\r\n    function verifyWithdrawOk(uint256 _amount) public returns (bool _authorized) {\r\n        uint256 _lastWithdrawLimitReductionTime = state.lastWithdrawLimitReductionTime();\r\n        uint256 _withdrawLimit24Hours = state.withdrawLimit24Hours();\r\n        \r\n        if (block.timestamp > _lastWithdrawLimitReductionTime) {\r\n            uint256 _timePassed = block.timestamp - _lastWithdrawLimitReductionTime;\r\n            state.update24HoursWithdrawLimit(_timePassed * _withdrawLimit24Hours / 1 days);\r\n        }\r\n        \r\n        if (state.last24HoursAmountWithdrawn() + _amount <= _withdrawLimit24Hours) {\r\n            return true;\r\n        } else {\r\n            return false;\r\n        }\r\n    }\r\n\r\n    function isNotDailyLimitExceeding(uint256 _amount) public view returns(bool) {\r\n        return (getWithdrawalPerDay(msg.sender) + _amount <= withdrawalLimitDaily);\r\n    }\r\n    function isNotMonthlyLimitExceeding(uint256 _amount) public view returns(bool) {\r\n        return (getWithdrawalPerMonth(msg.sender) + _amount <= withdrawalLimitMonthly);\r\n    }\r\n    function isNotYearlyLimitExceeding(uint256 _amount) public view returns(bool) {\r\n        return (getWithdrawalPerYear(msg.sender) + _amount <= withdrawalLimitYearly);\r\n    }\r\n\r\n    function verifyUpdateDailyLimit(uint256 _amount) public {\r\n        require(isNotDailyLimitExceeding(_amount), \"MorpherBridge: Withdrawal Amount exceeds daily limit\");\r\n        withdrawalPerDay[msg.sender][block.timestamp / 1 days] = getWithdrawalPerDay(msg.sender) + _amount;\r\n    }\r\n\r\n    function verifyUpdateMonthlyLimit(uint256 _amount) public {\r\n        require(isNotMonthlyLimitExceeding(_amount), \"MorpherBridge: Withdrawal Amount exceeds monthly limit\");\r\n        withdrawalPerMonth[msg.sender][block.timestamp / 30 days] = getWithdrawalPerMonth(msg.sender) + _amount;\r\n    }\r\n\r\n    function verifyUpdateYearlyLimit(uint256 _amount) public {\r\n        require(isNotYearlyLimitExceeding(_amount), \"MorpherBridge: Withdrawal Amount exceeds yearly limit\");\r\n        withdrawalPerYear[msg.sender][block.timestamp / 365 days] = getWithdrawalPerYear(msg.sender) + _amount;\r\n    }\r\n\r\n    function getWithdrawalPerDay(address _user) public view returns(uint) {\r\n         if(address(previousBridge) != address(0) && withdrawalPerDay[_user][block.timestamp / 1 days] == 0) {\r\n           return previousBridge.withdrawalPerDay(_user, block.timestamp / 1 days); //if bridge is re-deployed this needs to change to previousBridge.getWithdrawalPerDay\r\n        }\r\n        return withdrawalPerDay[_user][block.timestamp / 1 days];\r\n    }\r\n    function getWithdrawalPerMonth(address _user) public view returns(uint) {\r\n         if(address(previousBridge) != address(0) && withdrawalPerMonth[_user][block.timestamp / 30 days] == 0) {\r\n            return previousBridge.withdrawalPerMonth(_user, block.timestamp / 30 days); //if bridge is re-deployed this needs to change to previousBridge.getWithdrawalPerDay\r\n        }\r\n        return withdrawalPerMonth[_user][block.timestamp / 30 days];\r\n    }\r\n    function getWithdrawalPerYear(address _user) public view returns(uint) {\r\n         if(address(previousBridge) != address(0) && withdrawalPerYear[_user][block.timestamp / 365 days] == 0) {\r\n            return previousBridge.withdrawalPerYear(_user, block.timestamp / 365 days); //if bridge is re-deployed this needs to change to previousBridge.getWithdrawalPerDay\r\n        }\r\n        return withdrawalPerYear[_user][block.timestamp / 365 days];\r\n    }\r\n\r\n    // ------------------------------------------------------------------------\r\n    // transferToSideChain(uint256 _tokens)\r\n    // Transfer token to Morpher's side chain to trade without fees and near instant\r\n    // settlement.\r\n    // - Owner's account must have sufficient balance to transfer\r\n    // - 0 value transfers are not supported\r\n    // Token are burned on the main chain and are created and credited to msg.sender\r\n    //  on the side chain\r\n    // ------------------------------------------------------------------------\r\n    function transferToSideChain(uint256 _tokens) public userNotBlocked {\r\n        require(_tokens >= 0, \"MorpherBridge: Amount of tokens must be positive.\");\r\n        require(state.balanceOf(msg.sender) >= _tokens, \"MorpherBridge: Insufficient balance.\");\r\n        verifyUpdateDailyLimit(_tokens);\r\n        verifyUpdateMonthlyLimit(_tokens);\r\n        verifyUpdateYearlyLimit(_tokens);\r\n        state.burn(msg.sender, _tokens);\r\n        uint256 _newTokenSentToLinkedChain = getTokenSentToLinkedChain(msg.sender) + _tokens;\r\n        uint256 _transferNonce = state.getBridgeNonce();\r\n        uint256 _timeStamp = block.timestamp;\r\n        bytes32 _transferHash = keccak256(\r\n            abi.encodePacked(\r\n                msg.sender,\r\n                _tokens,\r\n                _newTokenSentToLinkedChain,\r\n                _timeStamp,\r\n                _transferNonce\r\n            )\r\n        );\r\n        state.setTokenSentToLinkedChain(msg.sender, _newTokenSentToLinkedChain);\r\n        emit TransferToLinkedChain(msg.sender, _tokens, _newTokenSentToLinkedChain, _timeStamp, _transferNonce, _transferHash);\r\n    }\r\n\r\n    // ------------------------------------------------------------------------\r\n    // fastTransferFromSideChain(uint256 _numOfToken, uint256 _tokenBurnedOnLinkedChain, bytes32[] memory _proof)\r\n    // The sidechain operator can credit users with token they burend on the sidechain. Transfers\r\n    // happen immediately. To be removed after Beta.\r\n    // ------------------------------------------------------------------------\r\n    function fastTransferFromSideChain(address _address, uint256 _numOfToken, uint256 _tokenBurnedOnLinkedChain, bytes32 _sidechainTransactionHash) public onlySideChainOperator fastTransfers {\r\n        uint256 _tokenClaimed = state.getTokenClaimedOnThisChain(_address);\r\n        require(verifyWithdrawOk(_numOfToken), \"MorpherBridge: Withdraw amount exceeds permitted 24 hour limit. Please try again in a few hours.\");\r\n        require(_tokenClaimed + _numOfToken <= _tokenBurnedOnLinkedChain, \"MorpherBridge: Token amount exceeds token deleted on linked chain.\");\r\n        _chainTransfer(_address, _tokenClaimed, _numOfToken);\r\n        emit OperatorChainTransfer(_address, _numOfToken, _sidechainTransactionHash);\r\n    }\r\n    \r\n    // ------------------------------------------------------------------------\r\n    // trustlessTransferFromSideChain(uint256 _numOfToken, uint256 _claimLimit, bytes32[] memory _proof)\r\n    // Performs a merkle proof on the number of token that have been burned by the user on the side chain.\r\n    // If the number of token claimed on the main chain is less than the number of burned token on the side chain\r\n    // the difference (or less) can be claimed on the main chain.\r\n    // ------------------------------------------------------------------------\r\n    function trustlessTransferFromLinkedChain(uint256 _numOfToken, uint256 _claimLimit, bytes32[] memory _proof) public userNotBlocked {\r\n        bytes32 leaf = keccak256(abi.encodePacked(msg.sender, _claimLimit));\r\n        uint256 _tokenClaimed = state.getTokenClaimedOnThisChain(msg.sender);        \r\n        require(mProof(_proof, leaf), \"MorpherBridge: Merkle Proof failed. Please make sure you entered the correct claim limit.\");\r\n        require(verifyWithdrawOk(_numOfToken), \"MorpherBridge: Withdraw amount exceeds permitted 24 hour limit. Please try again in a few hours.\");\r\n        verifyUpdateDailyLimit(_numOfToken);\r\n        verifyUpdateMonthlyLimit(_numOfToken);\r\n        verifyUpdateYearlyLimit(_numOfToken);\r\n        require(_tokenClaimed + _numOfToken <= _claimLimit, \"MorpherBridge: Token amount exceeds token deleted on linked chain.\");     \r\n        _chainTransfer(msg.sender, _tokenClaimed, _numOfToken);   \r\n        emit TrustlessWithdrawFromSideChain(msg.sender, _numOfToken);\r\n    }\r\n    \r\n    // ------------------------------------------------------------------------\r\n    // _chainTransfer(address _address, uint256 _tokenClaimed, uint256 _numOfToken)\r\n    // Creates token on the chain for the user after proving their distruction on the \r\n    // linked chain has been proven before \r\n    // ------------------------------------------------------------------------\r\n    function _chainTransfer(address _address, uint256 _tokenClaimed, uint256 _numOfToken) private {\r\n        state.setTokenClaimedOnThisChain(_address, _tokenClaimed + _numOfToken);\r\n        state.add24HoursWithdrawn(_numOfToken);\r\n        state.mint(_address, _numOfToken);\r\n    }\r\n        \r\n    // ------------------------------------------------------------------------\r\n    // claimFailedTransferToSidechain(uint256 _wrongSideChainBalance, bytes32[] memory _proof)\r\n    // If token sent to side chain were not credited to the user on the side chain within inactivityPeriod\r\n    // they can reclaim the token on the main chain by submitting the proof that their\r\n    // side chain balance is less than the number of token sent from main chain.\r\n    // ------------------------------------------------------------------------\r\n    function claimFailedTransferToSidechain(uint256 _wrongSideChainBalance, bytes32[] memory _proof) public userNotBlocked {\r\n        bytes32 leaf = keccak256(abi.encodePacked(msg.sender, _wrongSideChainBalance));\r\n        uint256 _tokenSentToLinkedChain = getTokenSentToLinkedChain(msg.sender);\r\n        uint256 _tokenSentToLinkedChainTime = getTokenSentToLinkedChainTime(msg.sender);\r\n        uint256 _inactivityPeriod = state.inactivityPeriod();\r\n        \r\n        require(block.timestamp > _tokenSentToLinkedChainTime + _inactivityPeriod, \"MorpherBridge: Failed deposits can only be claimed after inactivity period.\");\r\n        require(_wrongSideChainBalance < _tokenSentToLinkedChain, \"MorpherBridge: Other chain credit is greater equal to wrongSideChainBalance.\");\r\n        require(verifyWithdrawOk(_tokenSentToLinkedChain - _wrongSideChainBalance), \"MorpherBridge: Claim amount exceeds permitted 24 hour limit.\");\r\n        require(mProof(_proof, leaf), \"MorpherBridge: Merkle Proof failed. Enter total amount of deposits on side chain.\");\r\n        \r\n        uint256 _claimAmount = _tokenSentToLinkedChain - _wrongSideChainBalance;\r\n        state.setTokenSentToLinkedChain(msg.sender, _tokenSentToLinkedChain - _claimAmount);\r\n        state.add24HoursWithdrawn(_claimAmount);\r\n        state.mint(msg.sender, _claimAmount);\r\n        emit ClaimFailedTransferToSidechain(msg.sender, _claimAmount);\r\n    }\r\n\r\n    // ------------------------------------------------------------------------\r\n    // recoverPositionFromSideChain(bytes32[] memory _proof, bytes32 _leaf, bytes32 _marketId, uint256 _timeStamp, uint256 _longShares, uint256 _shortShares, uint256 _meanEntryPrice, uint256 _meanEntrySpread, uint256 _meanEntryLeverage)\r\n    // Failsafe against side chain operator becoming inactive or withholding Times (Time withhold attack).\r\n    // After 72 hours of no update of the side chain merkle root users can withdraw their last recorded\r\n    // positions from side chain to main chain. Overwrites eventually existing position on main chain.\r\n    // ------------------------------------------------------------------------\r\n    function recoverPositionFromSideChain(\r\n        bytes32[] memory _proof,\r\n        bytes32 _leaf,\r\n        bytes32 _marketId,\r\n        uint256 _timeStamp,\r\n        uint256 _longShares,\r\n        uint256 _shortShares,\r\n        uint256 _meanEntryPrice,\r\n        uint256 _meanEntrySpread,\r\n        uint256 _meanEntryLeverage,\r\n        uint256 _liquidationPrice\r\n        ) public sideChainInactive userNotBlocked onlyMainchain {\r\n        require(_leaf == state.getPositionHash(msg.sender, _marketId, _timeStamp, _longShares, _shortShares, _meanEntryPrice, _meanEntrySpread, _meanEntryLeverage, _liquidationPrice), \"MorpherBridge: leaf does not equal position hash.\");\r\n        require(state.getPositionClaimedOnMainChain(_leaf) == false, \"MorpherBridge: Position already transferred.\");\r\n        require(mProof(_proof,_leaf) == true, \"MorpherBridge: Merkle proof failed.\");\r\n        state.setPositionClaimedOnMainChain(_leaf);\r\n        state.setPosition(msg.sender, _marketId, _timeStamp, _longShares, _shortShares, _meanEntryPrice, _meanEntrySpread, _meanEntryLeverage, _liquidationPrice);\r\n        emit PositionRecoveryFromSideChain(msg.sender, _leaf);\r\n        // Remark: After resuming operations side chain operator has 72 hours to sync and eliminate transferred positions on side chain to avoid double spend\r\n    }\r\n\r\n    // ------------------------------------------------------------------------\r\n    // recoverTokenFromSideChain(bytes32[] memory _proof, bytes32 _leaf, bytes32 _marketId, uint256 _timeStamp, uint256 _longShares, uint256 _shortShares, uint256 _meanEntryPrice, uint256 _meanEntrySpread, uint256 _meanEntryLeverage)\r\n    // Failsafe against side chain operator becoming inactive or withholding times (time withhold attack).\r\n    // After 72 hours of no update of the side chain merkle root users can withdraw their last recorded\r\n    // token balance from side chain to main chain.\r\n    // ------------------------------------------------------------------------\r\n    function recoverTokenFromSideChain(bytes32[] memory _proof, bytes32 _leaf, uint256 _balance) public sideChainInactive userNotBlocked onlyMainchain {\r\n        // Require side chain root hash not set on Mainchain for more than 72 hours (=3 days)\r\n        require(_leaf == state.getBalanceHash(msg.sender, _balance), \"MorpherBridge: Wrong balance.\");\r\n        require(state.getPositionClaimedOnMainChain(_leaf) == false, \"MorpherBridge: Token already transferred.\");\r\n        require(mProof(_proof,_leaf) == true, \"MorpherBridge: Merkle proof failed.\");\r\n        require(verifyWithdrawOk(_balance), \"MorpherBridge: Withdraw amount exceeds permitted 24 hour limit.\");\r\n        state.setPositionClaimedOnMainChain(_leaf);\r\n        _chainTransfer(msg.sender, state.getTokenClaimedOnThisChain(msg.sender), _balance);\r\n        emit TokenRecoveryFromSideChain(msg.sender, _leaf);\r\n        // Remark: Side chain operator must adjust side chain balances for token recoveries before restarting operations to avoid double spend\r\n    }\r\n\r\n    // ------------------------------------------------------------------------\r\n    // mProof(bytes32[] memory _proof, bytes32 _leaf)\r\n    // Computes merkle proof against the root hash of the sidechain stored in Morpher state\r\n    // ------------------------------------------------------------------------\r\n    function mProof(bytes32[] memory _proof, bytes32 _leaf) public view returns(bool _isTrue) {\r\n        return MerkleProof.verify(_proof, state.getSideChainMerkleRoot(), _leaf);\r\n    }\r\n}\r\n",
  "sourcePath": "/home/thomas/MorpherProtocol/contracts/MorpherBridge.sol",
  "compiler": {
    "name": "solc",
    "version": "0.8.11+commit.d7f03943.Emscripten.clang"
  },
  "schemaVersion": "3.4.5",
  "updatedAt": "2022-03-03T15:03:23.581Z",
  "devdoc": {
    "kind": "dev",
    "methods": {
      "owner()": {
        "details": "Returns the address of the current owner."
      },
      "renounceOwnership()": {
        "details": "Leaves the contract without owner. It will not be possible to call `onlyOwner` functions anymore. Can only be called by the current owner. NOTE: Renouncing ownership will leave the contract without an owner, thereby removing any functionality that is only available to the owner."
      },
      "transferOwnership(address)": {
        "details": "Transfers ownership of the contract to a new account (`newOwner`). Can only be called by the current owner."
      }
    },
    "version": 1
  },
  "userdoc": {
    "kind": "user",
    "methods": {},
    "version": 1
  }
}