{
  "contractName": "MorpherToken",
  "abi": [
    {
      "inputs": [
        {
          "internalType": "address",
          "name": "_stateAddress",
          "type": "address"
        },
        {
          "internalType": "address",
          "name": "_coldStorageOwnerAddress",
          "type": "address"
        }
      ],
      "stateMutability": "nonpayable",
      "type": "constructor"
    },
    {
      "anonymous": false,
      "inputs": [
        {
          "indexed": true,
          "internalType": "address",
          "name": "owner",
          "type": "address"
        },
        {
          "indexed": true,
          "internalType": "address",
          "name": "spender",
          "type": "address"
        },
        {
          "indexed": false,
          "internalType": "uint256",
          "name": "value",
          "type": "uint256"
        }
      ],
      "name": "Approval",
      "type": "event"
    },
    {
      "anonymous": false,
      "inputs": [
        {
          "indexed": false,
          "internalType": "address",
          "name": "_address",
          "type": "address"
        }
      ],
      "name": "LinkState",
      "type": "event"
    },
    {
      "anonymous": false,
      "inputs": [
        {
          "indexed": true,
          "internalType": "address",
          "name": "previousOwner",
          "type": "address"
        },
        {
          "indexed": true,
          "internalType": "address",
          "name": "newOwner",
          "type": "address"
        }
      ],
      "name": "OwnershipTransferred",
      "type": "event"
    },
    {
      "anonymous": false,
      "inputs": [
        {
          "indexed": true,
          "internalType": "address",
          "name": "from",
          "type": "address"
        },
        {
          "indexed": true,
          "internalType": "address",
          "name": "to",
          "type": "address"
        },
        {
          "indexed": false,
          "internalType": "uint256",
          "name": "value",
          "type": "uint256"
        }
      ],
      "name": "Transfer",
      "type": "event"
    },
    {
      "stateMutability": "payable",
      "type": "fallback"
    },
    {
      "inputs": [],
      "name": "decimals",
      "outputs": [
        {
          "internalType": "uint8",
          "name": "",
          "type": "uint8"
        }
      ],
      "stateMutability": "view",
      "type": "function"
    },
    {
      "inputs": [],
      "name": "name",
      "outputs": [
        {
          "internalType": "string",
          "name": "",
          "type": "string"
        }
      ],
      "stateMutability": "view",
      "type": "function"
    },
    {
      "inputs": [],
      "name": "owner",
      "outputs": [
        {
          "internalType": "address",
          "name": "",
          "type": "address"
        }
      ],
      "stateMutability": "view",
      "type": "function"
    },
    {
      "inputs": [],
      "name": "renounceOwnership",
      "outputs": [],
      "stateMutability": "nonpayable",
      "type": "function"
    },
    {
      "inputs": [],
      "name": "symbol",
      "outputs": [
        {
          "internalType": "string",
          "name": "",
          "type": "string"
        }
      ],
      "stateMutability": "view",
      "type": "function"
    },
    {
      "inputs": [
        {
          "internalType": "address",
          "name": "newOwner",
          "type": "address"
        }
      ],
      "name": "transferOwnership",
      "outputs": [],
      "stateMutability": "nonpayable",
      "type": "function"
    },
    {
      "stateMutability": "payable",
      "type": "receive"
    },
    {
      "inputs": [
        {
          "internalType": "address",
          "name": "_stateAddress",
          "type": "address"
        }
      ],
      "name": "setMorpherState",
      "outputs": [],
      "stateMutability": "nonpayable",
      "type": "function"
    },
    {
      "inputs": [],
      "name": "totalSupply",
      "outputs": [
        {
          "internalType": "uint256",
          "name": "",
          "type": "uint256"
        }
      ],
      "stateMutability": "view",
      "type": "function"
    },
    {
      "inputs": [
        {
          "internalType": "address",
          "name": "_account",
          "type": "address"
        }
      ],
      "name": "balanceOf",
      "outputs": [
        {
          "internalType": "uint256",
          "name": "",
          "type": "uint256"
        }
      ],
      "stateMutability": "view",
      "type": "function"
    },
    {
      "inputs": [
        {
          "internalType": "address",
          "name": "_recipient",
          "type": "address"
        },
        {
          "internalType": "uint256",
          "name": "_amount",
          "type": "uint256"
        }
      ],
      "name": "transfer",
      "outputs": [
        {
          "internalType": "bool",
          "name": "",
          "type": "bool"
        }
      ],
      "stateMutability": "nonpayable",
      "type": "function"
    },
    {
      "inputs": [
        {
          "internalType": "address",
          "name": "_owner",
          "type": "address"
        },
        {
          "internalType": "address",
          "name": "_spender",
          "type": "address"
        }
      ],
      "name": "allowance",
      "outputs": [
        {
          "internalType": "uint256",
          "name": "",
          "type": "uint256"
        }
      ],
      "stateMutability": "view",
      "type": "function"
    },
    {
      "inputs": [
        {
          "internalType": "address",
          "name": "_spender",
          "type": "address"
        },
        {
          "internalType": "uint256",
          "name": "_amount",
          "type": "uint256"
        }
      ],
      "name": "approve",
      "outputs": [
        {
          "internalType": "bool",
          "name": "",
          "type": "bool"
        }
      ],
      "stateMutability": "nonpayable",
      "type": "function"
    },
    {
      "inputs": [
        {
          "internalType": "address",
          "name": "_sender",
          "type": "address"
        },
        {
          "internalType": "address",
          "name": "_recipient",
          "type": "address"
        },
        {
          "internalType": "uint256",
          "name": "amount",
          "type": "uint256"
        }
      ],
      "name": "transferFrom",
      "outputs": [
        {
          "internalType": "bool",
          "name": "",
          "type": "bool"
        }
      ],
      "stateMutability": "nonpayable",
      "type": "function"
    },
    {
      "inputs": [
        {
          "internalType": "address",
          "name": "_spender",
          "type": "address"
        },
        {
          "internalType": "uint256",
          "name": "_addedValue",
          "type": "uint256"
        }
      ],
      "name": "increaseAllowance",
      "outputs": [
        {
          "internalType": "bool",
          "name": "",
          "type": "bool"
        }
      ],
      "stateMutability": "nonpayable",
      "type": "function"
    },
    {
      "inputs": [
        {
          "internalType": "address",
          "name": "_spender",
          "type": "address"
        },
        {
          "internalType": "uint256",
          "name": "_subtractedValue",
          "type": "uint256"
        }
      ],
      "name": "decreaseAllowance",
      "outputs": [
        {
          "internalType": "bool",
          "name": "",
          "type": "bool"
        }
      ],
      "stateMutability": "nonpayable",
      "type": "function"
    },
    {
      "inputs": [
        {
          "internalType": "uint256",
          "name": "_amount",
          "type": "uint256"
        }
      ],
      "name": "burn",
      "outputs": [
        {
          "internalType": "bool",
          "name": "",
          "type": "bool"
        }
      ],
      "stateMutability": "nonpayable",
      "type": "function"
    },
    {
      "inputs": [
        {
          "internalType": "address",
          "name": "_from",
          "type": "address"
        },
        {
          "internalType": "address",
          "name": "_to",
          "type": "address"
        },
        {
          "internalType": "uint256",
          "name": "_amount",
          "type": "uint256"
        }
      ],
      "name": "emitTransfer",
      "outputs": [],
      "stateMutability": "nonpayable",
      "type": "function"
    }
  ],
  "bytecode": "0x60806040523480156200001157600080fd5b50604051620012c2380380620012c283398101604081905262000034916200022d565b6200003f336200005d565b6200004a82620000ad565b620000558162000150565b505062000265565b600080546001600160a01b038381166001600160a01b0319831681178455604051919092169283917f8be0079c531659141344cd1fd0a4f28419497f9722a3daafe3b4186f6b6457e09190a35050565b6000546001600160a01b03163314620000fc5760405162461bcd60e51b81526020600482018190526024820152600080516020620012a283398151915260448201526064015b60405180910390fd5b600180546001600160a01b0319166001600160a01b0383169081179091556040519081527f978c711532bae8c58f353b0f3c7f3a0dfe600d9ae9a81818f2ad2919b88e19909060200160405180910390a150565b6000546001600160a01b031633146200019b5760405162461bcd60e51b81526020600482018190526024820152600080516020620012a28339815191526044820152606401620000f3565b6001600160a01b038116620002025760405162461bcd60e51b815260206004820152602660248201527f4f776e61626c653a206e6577206f776e657220697320746865207a65726f206160448201526564647265737360d01b6064820152608401620000f3565b6200020d816200005d565b50565b80516001600160a01b03811681146200022857600080fd5b919050565b600080604083850312156200024157600080fd5b6200024c8362000210565b91506200025c6020840162000210565b90509250929050565b61102d80620002756000396000f3fe6080604052600436106101025760003560e01c806370a082311161009557806395d89b411161006457806395d89b4114610302578063a457c2d714610331578063a9059cbb14610351578063dd62ed3e14610371578063f2fde38b1461039157610128565b806370a0823114610285578063715018a6146102a557806380104668146102ba5780638da5cb5b146102da57610128565b806323de6651116100d157806323de6651146101fc578063313ce5671461021e578063395093511461024557806342966c681461026557610128565b806306fdde0314610140578063095ea7b31461018957806318160ddd146101b957806323b872dd146101dc57610128565b366101285760405162461bcd60e51b815260040161011f90610dc1565b60405180910390fd5b60405162461bcd60e51b815260040161011f90610dc1565b34801561014c57600080fd5b506101736040518060400160405280600781526020016626b7b9383432b960c91b81525081565b6040516101809190610e04565b60405180910390f35b34801561019557600080fd5b506101a96101a4366004610e75565b6103b1565b6040519015158152602001610180565b3480156101c557600080fd5b506101ce6103c7565b604051908152602001610180565b3480156101e857600080fd5b506101a96101f7366004610e9f565b61043a565b34801561020857600080fd5b5061021c610217366004610e9f565b6104e0565b005b34801561022a57600080fd5b50610233601281565b60405160ff9091168152602001610180565b34801561025157600080fd5b506101a9610260366004610e75565b6105a1565b34801561027157600080fd5b506101a9610280366004610edb565b61062a565b34801561029157600080fd5b506101ce6102a0366004610ef4565b610697565b3480156102b157600080fd5b5061021c61070c565b3480156102c657600080fd5b5061021c6102d5366004610ef4565b610742565b3480156102e657600080fd5b506000546040516001600160a01b039091168152602001610180565b34801561030e57600080fd5b506101736040518060400160405280600381526020016209aa0960eb1b81525081565b34801561033d57600080fd5b506101a961034c366004610e75565b6107c0565b34801561035d57600080fd5b506101a961036c366004610e75565b610803565b34801561037d57600080fd5b506101ce61038c366004610f0f565b610810565b34801561039d57600080fd5b5061021c6103ac366004610ef4565b61088e565b60006103be338484610929565b50600192915050565b600154604080516318160ddd60e01b815290516000926001600160a01b0316916318160ddd9160048083019260209291908290030181865afa158015610411573d6000803e3d6000fd5b505050506040513d601f19601f820116820180604052508101906104359190610f42565b905090565b6000610447848484610a9f565b600154604051630af4187d60e01b81526001600160a01b03808716600483015233602483018190526104d693889391928792911690630af4187d906044015b602060405180830381865afa1580156104a3573d6000803e3d6000fd5b505050506040513d601f19601f820116820180604052508101906104c79190610f42565b6104d19190610f71565b610929565b5060019392505050565b6001546001600160a01b0316331461054f5760405162461bcd60e51b815260206004820152602c60248201527f45524332303a2063616c6c6572206d757374206265204d6f727068657253746160448201526b3a329031b7b73a3930b1ba1760a11b606482015260840161011f565b816001600160a01b0316836001600160a01b03167fddf252ad1be2c89b69c2b068fc378daa952ba7f163c4a11628f55a4df523b3ef8360405161059491815260200190565b60405180910390a3505050565b600154604051630af4187d60e01b815233600482018190526001600160a01b0380861660248401526000936103be93879287921690630af4187d90604401602060405180830381865afa1580156105fc573d6000803e3d6000fd5b505050506040513d601f19601f820116820180604052508101906106209190610f42565b6104d19190610f88565b600154604051632770a7eb60e21b8152336004820152602481018390526000916001600160a01b031690639dc29fac90604401600060405180830381600087803b15801561067757600080fd5b505af115801561068b573d6000803e3d6000fd5b50600195945050505050565b6001546040516370a0823160e01b81526001600160a01b03838116600483015260009216906370a0823190602401602060405180830381865afa1580156106e2573d6000803e3d6000fd5b505050506040513d601f19601f820116820180604052508101906107069190610f42565b92915050565b6000546001600160a01b031633146107365760405162461bcd60e51b815260040161011f90610fa0565b6107406000610d71565b565b6000546001600160a01b0316331461076c5760405162461bcd60e51b815260040161011f90610fa0565b600180546001600160a01b0319166001600160a01b0383169081179091556040519081527f978c711532bae8c58f353b0f3c7f3a0dfe600d9ae9a81818f2ad2919b88e19909060200160405180910390a150565b600154604051630af4187d60e01b815233600482018190526001600160a01b0380861660248401526000936103be93879287921690630af4187d90604401610486565b60006103be338484610a9f565b600154604051630af4187d60e01b81526001600160a01b03848116600483015283811660248301526000921690630af4187d90604401602060405180830381865afa158015610863573d6000803e3d6000fd5b505050506040513d601f19601f820116820180604052508101906108879190610f42565b9392505050565b6000546001600160a01b031633146108b85760405162461bcd60e51b815260040161011f90610fa0565b6001600160a01b03811661091d5760405162461bcd60e51b815260206004820152602660248201527f4f776e61626c653a206e6577206f776e657220697320746865207a65726f206160448201526564647265737360d01b606482015260840161011f565b61092681610d71565b50565b6001600160a01b03831661098b5760405162461bcd60e51b8152602060048201526024808201527f45524332303a20617070726f76652066726f6d20746865207a65726f206164646044820152637265737360e01b606482015260840161011f565b6001600160a01b0382166109ec5760405162461bcd60e51b815260206004820152602260248201527f45524332303a20617070726f766520746f20746865207a65726f206164647265604482015261737360f01b606482015260840161011f565b600154604051633691826360e21b81526001600160a01b0385811660048301528481166024830152604482018490529091169063da46098c90606401600060405180830381600087803b158015610a4257600080fd5b505af1158015610a56573d6000803e3d6000fd5b50505050816001600160a01b0316836001600160a01b03167f8c5be1e5ebec7d5bd14f71427d1e84f3dd0314c0f7b2291e5b200ac8c7c3b9258360405161059491815260200190565b6001546040516303ae4cf760e21b81523360048201526001600160a01b0390911690630eb933dc90602401602060405180830381865afa158015610ae7573d6000803e3d6000fd5b505050506040513d601f19601f82011682018060405250810190610b0b9190610fd5565b610b6d5760405162461bcd60e51b815260206004820152602d60248201527f45524332303a20746f6b656e207472616e73666572732064697361626c65642060448201526c37b71039b4b232b1b430b4b71760991b606482015260840161011f565b6001600160a01b038316610bd15760405162461bcd60e51b815260206004820152602560248201527f45524332303a207472616e736665722066726f6d20746865207a65726f206164604482015264647265737360d81b606482015260840161011f565b6001600160a01b038216610c335760405162461bcd60e51b815260206004820152602360248201527f45524332303a207472616e7366657220746f20746865207a65726f206164647260448201526265737360e81b606482015260840161011f565b6001546040516370a0823160e01b81526001600160a01b038581166004830152839216906370a0823190602401602060405180830381865afa158015610c7d573d6000803e3d6000fd5b505050506040513d601f19601f82011682018060405250810190610ca19190610f42565b1015610cfe5760405162461bcd60e51b815260206004820152602660248201527f45524332303a207472616e7366657220616d6f756e7420657863656564732062604482015265616c616e636560d01b606482015260840161011f565b6001546040516317d5759960e31b81526001600160a01b0385811660048301528481166024830152604482018490529091169063beabacc890606401600060405180830381600087803b158015610d5457600080fd5b505af1158015610d68573d6000803e3d6000fd5b50505050505050565b600080546001600160a01b038381166001600160a01b0319831681178455604051919092169283917f8be0079c531659141344cd1fd0a4f28419497f9722a3daafe3b4186f6b6457e09190a35050565b60208082526023908201527f45524332303a20596f752063616e2774206465706f736974204574686572206860408201526265726560e81b606082015260800190565b600060208083528351808285015260005b81811015610e3157858101830151858201604001528201610e15565b81811115610e43576000604083870101525b50601f01601f1916929092016040019392505050565b80356001600160a01b0381168114610e7057600080fd5b919050565b60008060408385031215610e8857600080fd5b610e9183610e59565b946020939093013593505050565b600080600060608486031215610eb457600080fd5b610ebd84610e59565b9250610ecb60208501610e59565b9150604084013590509250925092565b600060208284031215610eed57600080fd5b5035919050565b600060208284031215610f0657600080fd5b61088782610e59565b60008060408385031215610f2257600080fd5b610f2b83610e59565b9150610f3960208401610e59565b90509250929050565b600060208284031215610f5457600080fd5b5051919050565b634e487b7160e01b600052601160045260246000fd5b600082821015610f8357610f83610f5b565b500390565b60008219821115610f9b57610f9b610f5b565b500190565b6020808252818101527f4f776e61626c653a2063616c6c6572206973206e6f7420746865206f776e6572604082015260600190565b600060208284031215610fe757600080fd5b8151801515811461088757600080fdfea264697066735822122023320a4ae0e2df61672afe05db72e4b6014d7d0ca5c078b813aa4d530fbb21a164736f6c634300080b00334f776e61626c653a2063616c6c6572206973206e6f7420746865206f776e6572",
  "immutableReferences": {},
  "source": "//SPDX-License-Identifier: GPLv3\r\npragma solidity 0.8.11;\r\nimport \"@openzeppelin/contracts/access/Ownable.sol\";\r\nimport \"@openzeppelin/contracts/token/ERC20/IERC20.sol\";\r\n\r\nimport \"./MorpherState.sol\";\r\n\r\n/**\r\n * @dev Implementation of the {IERC20} interface.\r\n *\r\n * This implementation is agnostic to the way tokens are created. This means\r\n * that a supply mechanism has to be added in a derived contract using {_mint}.\r\n * For a generic mechanism see {ERC20Mintable}.\r\n *\r\n * TIP: For a detailed writeup see our guide\r\n * https://forum.zeppelin.solutions/t/how-to-implement-erc20-supply-mechanisms/226[How\r\n * to implement supply mechanisms].\r\n *\r\n * We have followed general OpenZeppelin guidelines: functions revert instead\r\n * of returning `false` on failure. This behavior is nonetheless conventional\r\n * and does not conflict with the expectations of ERC20 applications.\r\n *\r\n * Additionally, an {Approval} event is emitted on calls to {transferFrom}.\r\n * This allows applications to reconstruct the allowance for all accounts just\r\n * by listening to said events. Other implementations of the EIP may not emit\r\n * these events, as it isn't required by the specification.\r\n *\r\n * Finally, the non-standard {decreaseAllowance} and {increaseAllowance}\r\n * functions have been added to mitigate the well-known issues around setting\r\n * allowances. See {IERC20-approve}.\r\n */\r\ncontract MorpherToken is IERC20, Ownable {\r\n\r\n    MorpherState state;\r\n\r\n    string public constant name     = \"Morpher\";\r\n    string public constant symbol   = \"MPH\";\r\n    uint8  public constant decimals = 18;\r\n    \r\n    modifier onlyState {\r\n        require(msg.sender == address(state), \"ERC20: caller must be MorpherState contract.\");\r\n        _;\r\n    }\r\n\r\n    modifier canTransfer {\r\n        require(state.getCanTransfer(msg.sender), \"ERC20: token transfers disabled on sidechain.\");\r\n        _;\r\n    }\r\n    \r\n    event LinkState(address _address);\r\n\r\n    // ------------------------------------------------------------------------\r\n    // Constructor\r\n    // ------------------------------------------------------------------------\r\n    constructor(address _stateAddress, address _coldStorageOwnerAddress) {\r\n        setMorpherState(_stateAddress);\r\n        transferOwnership(_coldStorageOwnerAddress);\r\n    }\r\n\r\n    // ------------------------------------------------------------------------\r\n    // Links Token Contract with State\r\n    // ------------------------------------------------------------------------\r\n    function setMorpherState(address _stateAddress) public onlyOwner {\r\n        state = MorpherState(_stateAddress);\r\n        emit LinkState(_stateAddress);\r\n    }\r\n\r\n    /**\r\n     * @dev See {IERC20-totalSupply}.\r\n     */\r\n    function totalSupply() public view returns (uint256) {\r\n        return state.totalSupply();\r\n    }\r\n\r\n    /**\r\n     * @dev See {IERC20-balanceOf}.\r\n     */\r\n    function balanceOf(address _account) public view returns (uint256) {\r\n        return state.balanceOf(_account);\r\n    }\r\n\r\n    /**\r\n     * @dev See {IERC20-transfer}.\r\n     *\r\n     * Requirements:\r\n     *\r\n     * - `recipient` cannot be the zero address.\r\n     * - the caller must have a balance of at least `amount`.\r\n     * \r\n     * Emits a {Transfer} event via emitTransfer called by MorpherState\r\n     */\r\n    function transfer(address _recipient, uint256 _amount) public returns (bool) {\r\n        _transfer(msg.sender, _recipient, _amount);\r\n        return true;\r\n    }\r\n\r\n   /**\r\n     * @dev See {IERC20-allowance}.\r\n     */\r\n    function allowance(address _owner, address _spender) public view returns (uint256) {\r\n        return state.getAllowance(_owner, _spender);\r\n    }\r\n\r\n    /**\r\n     * @dev See {IERC20-approve}.\r\n     *\r\n     * Requirements:\r\n     *\r\n     * - `spender` cannot be the zero address.\r\n     */\r\n    function approve(address _spender, uint256 _amount) public returns (bool) {\r\n        _approve(msg.sender, _spender, _amount);\r\n        return true;\r\n    }\r\n\r\n    /**\r\n     * @dev See {IERC20-transferFrom}.\r\n     *\r\n     * Emits an {Approval} event indicating the updated allowance. This is not\r\n     * required by the EIP. See the note at the beginning of {ERC20};\r\n     *\r\n     * Requirements:\r\n     * - `_sender` and `_recipient` cannot be the zero address.\r\n     * - `_sender` must have a balance of at least `amount`.\r\n     * - the caller must have allowance for `_sender`'s tokens of at least\r\n     * `amount`.\r\n     */\r\n    function transferFrom(address _sender, address _recipient, uint256 amount) public returns (bool) {\r\n        _transfer(_sender, _recipient, amount);\r\n        _approve(_sender, msg.sender, state.getAllowance(_sender, msg.sender) - (amount));\r\n        return true;\r\n    }\r\n\r\n    /**\r\n     * @dev Atomically increases the allowance granted to `spender` by the caller.\r\n     *\r\n     * This is an alternative to {approve} that can be used as a mitigation for\r\n     * problems described in {IERC20-approve}.\r\n     *\r\n     * Emits an {Approval} event indicating the updated allowance.\r\n     *\r\n     * Requirements:\r\n     *\r\n     * - `_spender` cannot be the zero address.\r\n     */\r\n    function increaseAllowance(address _spender, uint256 _addedValue) public returns (bool) {\r\n        _approve(msg.sender, _spender, state.getAllowance(msg.sender, _spender) + (_addedValue));\r\n        return true;\r\n    }\r\n\r\n    /**\r\n     * @dev Atomically decreases the allowance granted to `spender` by the caller.\r\n     *\r\n     * This is an alternative to {approve} that can be used as a mitigation for\r\n     * problems described in {IERC20-approve}.\r\n     *\r\n     * Emits an {Approval} event indicating the updated allowance.\r\n     *\r\n     * Requirements:\r\n     *\r\n     * - `spender` cannot be the zero address.\r\n     * - `spender` must have allowance for the caller of at least\r\n     * `subtractedValue`.\r\n     */\r\n    function decreaseAllowance(address _spender, uint256 _subtractedValue) public returns (bool) {\r\n        _approve(msg.sender, _spender,  state.getAllowance(msg.sender, _spender) - (_subtractedValue));\r\n        return true;\r\n    }\r\n\r\n    /**\r\n     * @dev Caller destroys `_amount` tokens permanently\r\n     *\r\n     * Emits a {Transfer} event to zero address called by MorpherState via emitTransfer.\r\n     *\r\n     * Requirements:\r\n     *\r\n     * - Caller must have token balance of at least `_amount`\r\n     * \r\n     */\r\n     function burn(uint256 _amount) public returns (bool) {\r\n        state.burn(msg.sender, _amount);\r\n        return true;\r\n    }\r\n\r\n    /**\r\n     * @dev Emits a {Transfer} event\r\n     *\r\n     * MorpherState emits a {Transfer} event.\r\n     *\r\n     * Requirements:\r\n     *\r\n     * - Caller must be MorpherState\r\n     * \r\n     */\r\n     function emitTransfer(address _from, address _to, uint256 _amount) public onlyState {\r\n        emit Transfer(_from, _to, _amount);\r\n    }\r\n\r\n     /**\r\n     * @dev Moves tokens `_amount` from `sender` to `_recipient`.\r\n     *\r\n     * This is internal function is equivalent to {transfer}, and can be used to\r\n     * e.g. implement automatic token fees, slashing mechanisms, etc.\r\n     *\r\n     * Emits a {Transfer} event via emitTransfer called by MorpherState\r\n     *\r\n     * Requirements:\r\n     *\r\n     * - `_sender` cannot be the zero address.\r\n     * - `_recipient` cannot be the zero address.\r\n     * - `_sender` must have a balance of at least `_amount`.\r\n     */\r\n    function _transfer(address _sender, address _recipient, uint256 _amount) canTransfer internal {\r\n        require(_sender != address(0), \"ERC20: transfer from the zero address\");\r\n        require(_recipient != address(0), \"ERC20: transfer to the zero address\");\r\n        require(state.balanceOf(_sender) >= _amount, \"ERC20: transfer amount exceeds balance\");\r\n        state.transfer(_sender, _recipient, _amount);\r\n    }\r\n\r\n    /**\r\n     * @dev Sets `_amount` as the allowance of `spender` over the `owner`s tokens.\r\n     *\r\n     * This is internal function is equivalent to `approve`, and can be used to\r\n     * e.g. set automatic allowances for certain subsystems, etc.\r\n     *\r\n     * Emits an {Approval} event.\r\n     *\r\n     * Requirements:\r\n     *\r\n     * - `owner` cannot be the zero address.\r\n     * - `spender` cannot be the zero address.\r\n     */\r\n    function _approve(address _owner, address _spender, uint256 _amount) internal {\r\n        require(_owner != address(0), \"ERC20: approve from the zero address\");\r\n        require(_spender != address(0), \"ERC20: approve to the zero address\");\r\n        state.setAllowance(_owner, _spender, _amount);\r\n        emit Approval(_owner, _spender, _amount);\r\n    }\r\n\r\n    // ------------------------------------------------------------------------\r\n    // Don't accept ETH\r\n    // ------------------------------------------------------------------------\r\n    fallback () external payable {\r\n        revert(\"ERC20: You can't deposit Ether here\");\r\n    }\r\n    receive () external payable {\r\n        revert(\"ERC20: You can't deposit Ether here\");\r\n    }\r\n}\r\n",
  "sourcePath": "/home/thomas/MorpherProtocol/contracts/MorpherToken.sol",
  "compiler": {
    "name": "solc",
    "version": "0.8.11+commit.d7f03943.Emscripten.clang"
  },
  "schemaVersion": "3.4.5",
  "updatedAt": "2022-03-03T15:03:23.783Z",
  "devdoc": {
    "details": "Implementation of the {IERC20} interface. This implementation is agnostic to the way tokens are created. This means that a supply mechanism has to be added in a derived contract using {_mint}. For a generic mechanism see {ERC20Mintable}. TIP: For a detailed writeup see our guide https://forum.zeppelin.solutions/t/how-to-implement-erc20-supply-mechanisms/226[How to implement supply mechanisms]. We have followed general OpenZeppelin guidelines: functions revert instead of returning `false` on failure. This behavior is nonetheless conventional and does not conflict with the expectations of ERC20 applications. Additionally, an {Approval} event is emitted on calls to {transferFrom}. This allows applications to reconstruct the allowance for all accounts just by listening to said events. Other implementations of the EIP may not emit these events, as it isn't required by the specification. Finally, the non-standard {decreaseAllowance} and {increaseAllowance} functions have been added to mitigate the well-known issues around setting allowances. See {IERC20-approve}.",
    "kind": "dev",
    "methods": {
      "allowance(address,address)": {
        "details": "See {IERC20-allowance}."
      },
      "approve(address,uint256)": {
        "details": "See {IERC20-approve}. Requirements: - `spender` cannot be the zero address."
      },
      "balanceOf(address)": {
        "details": "See {IERC20-balanceOf}."
      },
      "burn(uint256)": {
        "details": "Caller destroys `_amount` tokens permanently Emits a {Transfer} event to zero address called by MorpherState via emitTransfer. Requirements: - Caller must have token balance of at least `_amount` "
      },
      "decreaseAllowance(address,uint256)": {
        "details": "Atomically decreases the allowance granted to `spender` by the caller. This is an alternative to {approve} that can be used as a mitigation for problems described in {IERC20-approve}. Emits an {Approval} event indicating the updated allowance. Requirements: - `spender` cannot be the zero address. - `spender` must have allowance for the caller of at least `subtractedValue`."
      },
      "emitTransfer(address,address,uint256)": {
        "details": "Emits a {Transfer} event MorpherState emits a {Transfer} event. Requirements: - Caller must be MorpherState "
      },
      "increaseAllowance(address,uint256)": {
        "details": "Atomically increases the allowance granted to `spender` by the caller. This is an alternative to {approve} that can be used as a mitigation for problems described in {IERC20-approve}. Emits an {Approval} event indicating the updated allowance. Requirements: - `_spender` cannot be the zero address."
      },
      "owner()": {
        "details": "Returns the address of the current owner."
      },
      "renounceOwnership()": {
        "details": "Leaves the contract without owner. It will not be possible to call `onlyOwner` functions anymore. Can only be called by the current owner. NOTE: Renouncing ownership will leave the contract without an owner, thereby removing any functionality that is only available to the owner."
      },
      "totalSupply()": {
        "details": "See {IERC20-totalSupply}."
      },
      "transfer(address,uint256)": {
        "details": "See {IERC20-transfer}. Requirements: - `recipient` cannot be the zero address. - the caller must have a balance of at least `amount`.  Emits a {Transfer} event via emitTransfer called by MorpherState"
      },
      "transferFrom(address,address,uint256)": {
        "details": "See {IERC20-transferFrom}. Emits an {Approval} event indicating the updated allowance. This is not required by the EIP. See the note at the beginning of {ERC20}; Requirements: - `_sender` and `_recipient` cannot be the zero address. - `_sender` must have a balance of at least `amount`. - the caller must have allowance for `_sender`'s tokens of at least `amount`."
      },
      "transferOwnership(address)": {
        "details": "Transfers ownership of the contract to a new account (`newOwner`). Can only be called by the current owner."
      }
    },
    "version": 1
  },
  "userdoc": {
    "kind": "user",
    "methods": {},
    "version": 1
  }
}