{
  "contractName": "MorpherPriceOracle",
  "abi": [
    {
      "inputs": [
        {
          "internalType": "address",
          "name": "_mphToken",
          "type": "address"
        },
        {
          "internalType": "address",
          "name": "_wmatic",
          "type": "address"
        },
        {
          "internalType": "address",
          "name": "_uniswapQuoter",
          "type": "address"
        }
      ],
      "stateMutability": "nonpayable",
      "type": "constructor"
    },
    {
      "inputs": [],
      "name": "decimals",
      "outputs": [
        {
          "internalType": "uint8",
          "name": "",
          "type": "uint8"
        }
      ],
      "stateMutability": "view",
      "type": "function"
    },
    {
      "inputs": [],
      "name": "latestRoundData",
      "outputs": [
        {
          "internalType": "uint80",
          "name": "roundId",
          "type": "uint80"
        },
        {
          "internalType": "int256",
          "name": "answer",
          "type": "int256"
        },
        {
          "internalType": "uint256",
          "name": "startedAt",
          "type": "uint256"
        },
        {
          "internalType": "uint256",
          "name": "updatedAt",
          "type": "uint256"
        },
        {
          "internalType": "uint80",
          "name": "answeredInRound",
          "type": "uint80"
        }
      ],
      "stateMutability": "view",
      "type": "function"
    }
  ],
  "bytecode": "0x60806040525f80546001600160a01b031990811673322531297fab2e8feaf13070a7174a83117adad417909155600180548216739c3c9283d3e44854697cd22d3faa240cfb0328891790556002805490911673b27308f9f90d607463bb33ea1bebb41c27ce5ab6179055348015610074575f80fd5b5060405161065a38038061065a833981016040819052610093916100ef565b5f80546001600160a01b039485166001600160a01b03199182161790915560018054938516938216939093179092556002805491909316911617905561012f565b80516001600160a01b03811681146100ea575f80fd5b919050565b5f805f60608486031215610101575f80fd5b61010a846100d4565b9250610118602085016100d4565b9150610126604085016100d4565b90509250925092565b61051e8061013c5f395ff3fe608060405234801561000f575f80fd5b5060043610610034575f3560e01c8063313ce56714610038578063feaf968c14610057575b5f80fd5b610040610096565b60405160ff90911681526020015b60405180910390f35b61005f61010f565b6040805169ffffffffffffffffffff968716815260208101959095528401929092526060830152909116608082015260a00161004e565b5f805f9054906101000a90046001600160a01b03166001600160a01b031663313ce5676040518163ffffffff1660e01b8152600401602060405180830381865afa1580156100e6573d5f803e3d5ffd5b505050506040513d601f19601f8201168201806040525081019061010a91906103bd565b905090565b5f805460015482918291829182918291610138916001600160a01b039182169116610bb86101e3565b90505f816001600160a01b0316633850c7bd6040518163ffffffff1660e01b815260040160e060405180830381865afa158015610177573d5f803e3d5ffd5b505050506040513d601f19601f8201168201806040525081019061019b9190610401565b5050505050506001600160a01b031690505f60c082836101bb919061049d565b6101cd90670de0b6b3a764000061049d565b919991901c97505f965042955086945092505050565b6002546040805163c45a015560e01b815290515f926001600160a01b03169161026491839163c45a01559160048083019260209291908290030181865afa158015610230573d5f803e3d5ffd5b505050506040513d601f19601f8201168201806040525081019061025491906104c6565b61025f87878761026d565b6102d7565b95945050505050565b604080516060810182525f8082526020820181905291810191909152826001600160a01b0316846001600160a01b031611156102a7579192915b50604080516060810182526001600160a01b03948516815292909316602083015262ffffff169181019190915290565b5f81602001516001600160a01b0316825f01516001600160a01b0316106102fc575f80fd5b815160208084015160408086015181516001600160a01b0395861681860152949092168482015262ffffff90911660608085019190915281518085038201815260808501909252815191909201206001600160f81b031960a08401529085901b6bffffffffffffffffffffffff191660a183015260b58201527fe34f199b19b2b4f47f68442619d555527d244f78a3297ea89325f843f87b8b5460d582015260f50160408051601f1981840301815291905280516020909101209392505050565b5f602082840312156103cd575f80fd5b5051919050565b6001600160a01b03811681146103e8575f80fd5b50565b805161ffff811681146103fc575f80fd5b919050565b5f805f805f805f60e0888a031215610417575f80fd5b8751610422816103d4565b8097505060208801518060020b8114610439575f80fd5b9550610447604089016103eb565b9450610455606089016103eb565b9350610463608089016103eb565b925060a088015160ff81168114610478575f80fd5b60c0890151909250801515811461048d575f80fd5b8091505092959891949750929550565b80820281158282048414176104c057634e487b7160e01b5f52601160045260245ffd5b92915050565b5f602082840312156104d6575f80fd5b81516104e1816103d4565b939250505056fea26469706673582212207c7d6575251d52527e83ba55ccc95f02fec74544df6d7c2bbdf6b579fb4911ed64736f6c63430008140033",
  "immutableReferences": {},
  "source": "//SPDX-License-Identifier: MIT\npragma solidity ^0.8.11;\n\nimport \"@uniswap/v3-periphery/contracts/libraries/PoolAddress.sol\";\n\ninterface IOracle {\n    function decimals() external view returns (uint8);\n    function latestRoundData()\n    external\n    view\n    returns (uint80 roundId, int256 answer, uint256 startedAt, uint256 updatedAt, uint80 answeredInRound);\n}\n\ninterface IUniswapV3Pool {\n    function slot0(\n  ) external view returns (\n    uint160 sqrtPriceX96, \n    int24 tick, \n    uint16 observationIndex, \n    uint16 observationCardinality, \n    uint16 observationCardinalityNext, \n    uint8 feeProtocol, \n    bool unlocked\n  );\n}\n\ninterface UniswapQuoter {\n\n    function factory() external view returns(address);\n    function WETH9() external view returns(address);\n\n    \n\n    function quoteExactOutputSingle(\n        address tokenIn,\n        address tokenOut,\n        uint24 fee,\n        uint256 amountOut,\n        uint160 sqrtPriceLimitX96\n    ) external view returns (uint256 amountIn);\n\n     \n}\n\ninterface ERC20 {\n    function decimals() external view returns (uint);\n}\n\ncontract MorpherPriceOracle is IOracle {\n\n\n    address mphToken = 0x322531297FAb2e8FeAf13070a7174a83117ADAd4;\n    address wmatic = 0x9c3C9283D3e44854697Cd22D3Faa240Cfb032889;\n    address uniswapQuoterAddress = 0xb27308f9F90D607463bb33eA1BeBb41C27CE5AB6;\n\n    constructor(address _mphToken, address _wmatic, address _uniswapQuoter) {\n        mphToken = _mphToken;\n        wmatic = _wmatic;\n        uniswapQuoterAddress = _uniswapQuoter;\n    }\n     \n     function getPool(\n        address tokenA,\n        address tokenB,\n        uint24 fee\n    ) private view returns (IUniswapV3Pool) {\n        UniswapQuoter quoter = UniswapQuoter(uniswapQuoterAddress);\n        return IUniswapV3Pool(PoolAddress.computeAddress(quoter.factory(), PoolAddress.getPoolKey(tokenA, tokenB, fee)));\n    }\n\n    function decimals() external override view returns (uint8) {\n        return uint8(ERC20(mphToken).decimals());\n    }\n\n    function latestRoundData()\n    external\n    override\n    view\n    returns (uint80 roundId, int256 answer, uint256 startedAt, uint256 updatedAt, uint80 answeredInRound) {\n        IUniswapV3Pool pool = getPool(mphToken, wmatic, 3000);\n        (uint sqrtPriceX96,,,,,,) = pool.slot0();\n        return (0,int(uint(sqrtPriceX96) * uint(sqrtPriceX96)*(1e18) >> (96 * 2)),0,block.timestamp,0);\n    }\n} ",
  "sourcePath": "/Users/thomas/Projects/Morpher/MorpherProtocol/contracts/MorpherPriceOracle.sol",
  "compiler": {
    "name": "solc",
    "version": "0.8.20+commit.a1b79de6.Emscripten.clang"
  },
  "schemaVersion": "3.4.16",
  "updatedAt": "2024-01-16T11:09:31.214Z",
  "devdoc": {
    "kind": "dev",
    "methods": {},
    "version": 1
  },
  "userdoc": {
    "kind": "user",
    "methods": {},
    "version": 1
  }
}