{
  "contractName": "MorpherBridge",
  "abi": [
    {
      "anonymous": false,
      "inputs": [
        {
          "indexed": true,
          "internalType": "address",
          "name": "from",
          "type": "address"
        },
        {
          "indexed": false,
          "internalType": "uint256",
          "name": "tokens",
          "type": "uint256"
        }
      ],
      "name": "ClaimFailedTransferToSidechain",
      "type": "event"
    },
    {
      "anonymous": false,
      "inputs": [
        {
          "indexed": false,
          "internalType": "address",
          "name": "_address",
          "type": "address"
        }
      ],
      "name": "LinkState",
      "type": "event"
    },
    {
      "anonymous": false,
      "inputs": [
        {
          "indexed": true,
          "internalType": "address",
          "name": "from",
          "type": "address"
        },
        {
          "indexed": false,
          "internalType": "uint256",
          "name": "tokens",
          "type": "uint256"
        },
        {
          "indexed": false,
          "internalType": "bytes32",
          "name": "sidechainTransactionHash",
          "type": "bytes32"
        }
      ],
      "name": "OperatorChainTransfer",
      "type": "event"
    },
    {
      "anonymous": false,
      "inputs": [
        {
          "indexed": true,
          "internalType": "address",
          "name": "from",
          "type": "address"
        },
        {
          "indexed": false,
          "internalType": "bytes32",
          "name": "positionHash",
          "type": "bytes32"
        }
      ],
      "name": "PositionRecoveryFromSideChain",
      "type": "event"
    },
    {
      "anonymous": false,
      "inputs": [
        {
          "indexed": false,
          "internalType": "bytes32",
          "name": "_rootHash",
          "type": "bytes32"
        }
      ],
      "name": "SideChainMerkleRootUpdated",
      "type": "event"
    },
    {
      "anonymous": false,
      "inputs": [
        {
          "indexed": true,
          "internalType": "address",
          "name": "from",
          "type": "address"
        },
        {
          "indexed": false,
          "internalType": "bytes32",
          "name": "positionHash",
          "type": "bytes32"
        }
      ],
      "name": "TokenRecoveryFromSideChain",
      "type": "event"
    },
    {
      "anonymous": false,
      "inputs": [
        {
          "indexed": true,
          "internalType": "address",
          "name": "from",
          "type": "address"
        },
        {
          "indexed": false,
          "internalType": "uint256",
          "name": "tokens",
          "type": "uint256"
        },
        {
          "indexed": false,
          "internalType": "uint256",
          "name": "totalTokenSent",
          "type": "uint256"
        },
        {
          "indexed": false,
          "internalType": "uint256",
          "name": "timeStamp",
          "type": "uint256"
        },
        {
          "indexed": false,
          "internalType": "uint256",
          "name": "transferNonce",
          "type": "uint256"
        },
        {
          "indexed": false,
          "internalType": "uint256",
          "name": "targetChainId",
          "type": "uint256"
        },
        {
          "indexed": true,
          "internalType": "bytes32",
          "name": "transferHash",
          "type": "bytes32"
        }
      ],
      "name": "TransferToLinkedChain",
      "type": "event"
    },
    {
      "anonymous": false,
      "inputs": [
        {
          "indexed": true,
          "internalType": "address",
          "name": "from",
          "type": "address"
        },
        {
          "indexed": false,
          "internalType": "uint256",
          "name": "tokens",
          "type": "uint256"
        },
        {
          "indexed": false,
          "internalType": "uint256",
          "name": "totalTokenSent",
          "type": "uint256"
        },
        {
          "indexed": false,
          "internalType": "uint256",
          "name": "timeStamp",
          "type": "uint256"
        },
        {
          "indexed": false,
          "internalType": "uint256",
          "name": "transferNonce",
          "type": "uint256"
        },
        {
          "indexed": false,
          "internalType": "uint256",
          "name": "targetChainId",
          "type": "uint256"
        },
        {
          "indexed": false,
          "internalType": "address",
          "name": "destinationAddress",
          "type": "address"
        },
        {
          "indexed": false,
          "internalType": "bytes",
          "name": "userSigature",
          "type": "bytes"
        },
        {
          "indexed": true,
          "internalType": "bytes32",
          "name": "transferHash",
          "type": "bytes32"
        }
      ],
      "name": "TransferToLinkedChainAndWithdrawTo",
      "type": "event"
    },
    {
      "anonymous": false,
      "inputs": [
        {
          "indexed": true,
          "internalType": "address",
          "name": "from",
          "type": "address"
        },
        {
          "indexed": false,
          "internalType": "uint256",
          "name": "tokens",
          "type": "uint256"
        }
      ],
      "name": "TrustlessWithdrawFromSideChain",
      "type": "event"
    },
    {
      "anonymous": false,
      "inputs": [
        {
          "indexed": false,
          "internalType": "uint256",
          "name": "_withdrawLimit",
          "type": "uint256"
        }
      ],
      "name": "WithdrawLimitChanged",
      "type": "event"
    },
    {
      "anonymous": false,
      "inputs": [
        {
          "indexed": false,
          "internalType": "uint256",
          "name": "_oldLimit",
          "type": "uint256"
        },
        {
          "indexed": false,
          "internalType": "uint256",
          "name": "_newLimit",
          "type": "uint256"
        }
      ],
      "name": "WithdrawLimitDailyGlobalChanged",
      "type": "event"
    },
    {
      "anonymous": false,
      "inputs": [
        {
          "indexed": false,
          "internalType": "uint256",
          "name": "_oldLimit",
          "type": "uint256"
        },
        {
          "indexed": false,
          "internalType": "uint256",
          "name": "_newLimit",
          "type": "uint256"
        }
      ],
      "name": "WithdrawLimitDailyPerUserChanged",
      "type": "event"
    },
    {
      "anonymous": false,
      "inputs": [
        {
          "indexed": false,
          "internalType": "uint256",
          "name": "_oldLimit",
          "type": "uint256"
        },
        {
          "indexed": false,
          "internalType": "uint256",
          "name": "_newLimit",
          "type": "uint256"
        }
      ],
      "name": "WithdrawLimitMonthlyGlobalChanged",
      "type": "event"
    },
    {
      "anonymous": false,
      "inputs": [
        {
          "indexed": false,
          "internalType": "uint256",
          "name": "_oldLimit",
          "type": "uint256"
        },
        {
          "indexed": false,
          "internalType": "uint256",
          "name": "_newLimit",
          "type": "uint256"
        }
      ],
      "name": "WithdrawLimitMonthlyPerUserChanged",
      "type": "event"
    },
    {
      "anonymous": false,
      "inputs": [],
      "name": "WithdrawLimitReset",
      "type": "event"
    },
    {
      "anonymous": false,
      "inputs": [
        {
          "indexed": false,
          "internalType": "uint256",
          "name": "_oldLimit",
          "type": "uint256"
        },
        {
          "indexed": false,
          "internalType": "uint256",
          "name": "_newLimit",
          "type": "uint256"
        }
      ],
      "name": "WithdrawLimitYearlyGlobalChanged",
      "type": "event"
    },
    {
      "anonymous": false,
      "inputs": [
        {
          "indexed": false,
          "internalType": "uint256",
          "name": "_oldLimit",
          "type": "uint256"
        },
        {
          "indexed": false,
          "internalType": "uint256",
          "name": "_newLimit",
          "type": "uint256"
        }
      ],
      "name": "WithdrawLimitYearlyPerUserChanged",
      "type": "event"
    },
    {
      "inputs": [],
      "name": "ADMINISTRATOR_ROLE",
      "outputs": [
        {
          "internalType": "bytes32",
          "name": "",
          "type": "bytes32"
        }
      ],
      "stateMutability": "view",
      "type": "function",
      "constant": true
    },
    {
      "inputs": [],
      "name": "SIDECHAINOPERATOR_ROLE",
      "outputs": [
        {
          "internalType": "bytes32",
          "name": "",
          "type": "bytes32"
        }
      ],
      "stateMutability": "view",
      "type": "function",
      "constant": true
    },
    {
      "inputs": [],
      "name": "WETH9",
      "outputs": [
        {
          "internalType": "address",
          "name": "",
          "type": "address"
        }
      ],
      "stateMutability": "view",
      "type": "function",
      "constant": true
    },
    {
      "inputs": [],
      "name": "bridgeNonce",
      "outputs": [
        {
          "internalType": "uint256",
          "name": "",
          "type": "uint256"
        }
      ],
      "stateMutability": "view",
      "type": "function",
      "constant": true
    },
    {
      "inputs": [
        {
          "internalType": "bytes32",
          "name": "",
          "type": "bytes32"
        }
      ],
      "name": "claimFromInactivity",
      "outputs": [
        {
          "internalType": "bool",
          "name": "",
          "type": "bool"
        }
      ],
      "stateMutability": "view",
      "type": "function",
      "constant": true
    },
    {
      "inputs": [],
      "name": "inactivityPeriod",
      "outputs": [
        {
          "internalType": "uint256",
          "name": "",
          "type": "uint256"
        }
      ],
      "stateMutability": "view",
      "type": "function",
      "constant": true
    },
    {
      "inputs": [],
      "name": "poolFee",
      "outputs": [
        {
          "internalType": "uint24",
          "name": "",
          "type": "uint24"
        }
      ],
      "stateMutability": "view",
      "type": "function",
      "constant": true
    },
    {
      "inputs": [],
      "name": "recoveryEnabled",
      "outputs": [
        {
          "internalType": "bool",
          "name": "",
          "type": "bool"
        }
      ],
      "stateMutability": "view",
      "type": "function",
      "constant": true
    },
    {
      "inputs": [],
      "name": "swapRouter",
      "outputs": [
        {
          "internalType": "contract ISwapRouter",
          "name": "",
          "type": "address"
        }
      ],
      "stateMutability": "view",
      "type": "function",
      "constant": true
    },
    {
      "inputs": [
        {
          "internalType": "address",
          "name": "",
          "type": "address"
        }
      ],
      "name": "tokenClaimedOnThisChain",
      "outputs": [
        {
          "internalType": "uint256",
          "name": "amount",
          "type": "uint256"
        },
        {
          "internalType": "uint256",
          "name": "lastTransferAt",
          "type": "uint256"
        }
      ],
      "stateMutability": "view",
      "type": "function",
      "constant": true
    },
    {
      "inputs": [
        {
          "internalType": "address",
          "name": "",
          "type": "address"
        },
        {
          "internalType": "uint256",
          "name": "",
          "type": "uint256"
        }
      ],
      "name": "tokenSentToLinkedChain",
      "outputs": [
        {
          "internalType": "uint256",
          "name": "amount",
          "type": "uint256"
        },
        {
          "internalType": "uint256",
          "name": "lastTransferAt",
          "type": "uint256"
        }
      ],
      "stateMutability": "view",
      "type": "function",
      "constant": true
    },
    {
      "inputs": [],
      "name": "withdrawalData",
      "outputs": [
        {
          "internalType": "bytes32",
          "name": "merkleRoot",
          "type": "bytes32"
        },
        {
          "internalType": "uint256",
          "name": "lastUpdatedAt",
          "type": "uint256"
        }
      ],
      "stateMutability": "view",
      "type": "function",
      "constant": true
    },
    {
      "inputs": [],
      "name": "withdrawalLimitGlobalDaily",
      "outputs": [
        {
          "internalType": "uint256",
          "name": "",
          "type": "uint256"
        }
      ],
      "stateMutability": "view",
      "type": "function",
      "constant": true
    },
    {
      "inputs": [],
      "name": "withdrawalLimitGlobalMonthly",
      "outputs": [
        {
          "internalType": "uint256",
          "name": "",
          "type": "uint256"
        }
      ],
      "stateMutability": "view",
      "type": "function",
      "constant": true
    },
    {
      "inputs": [],
      "name": "withdrawalLimitGlobalYearly",
      "outputs": [
        {
          "internalType": "uint256",
          "name": "",
          "type": "uint256"
        }
      ],
      "stateMutability": "view",
      "type": "function",
      "constant": true
    },
    {
      "inputs": [],
      "name": "withdrawalLimitPerUserDaily",
      "outputs": [
        {
          "internalType": "uint256",
          "name": "",
          "type": "uint256"
        }
      ],
      "stateMutability": "view",
      "type": "function",
      "constant": true
    },
    {
      "inputs": [],
      "name": "withdrawalLimitPerUserMonthly",
      "outputs": [
        {
          "internalType": "uint256",
          "name": "",
          "type": "uint256"
        }
      ],
      "stateMutability": "view",
      "type": "function",
      "constant": true
    },
    {
      "inputs": [],
      "name": "withdrawalLimitPerUserYearly",
      "outputs": [
        {
          "internalType": "uint256",
          "name": "",
          "type": "uint256"
        }
      ],
      "stateMutability": "view",
      "type": "function",
      "constant": true
    },
    {
      "inputs": [
        {
          "internalType": "address",
          "name": "",
          "type": "address"
        },
        {
          "internalType": "uint256",
          "name": "",
          "type": "uint256"
        }
      ],
      "name": "withdrawalPerUserPerDay",
      "outputs": [
        {
          "internalType": "uint256",
          "name": "",
          "type": "uint256"
        }
      ],
      "stateMutability": "view",
      "type": "function",
      "constant": true
    },
    {
      "inputs": [
        {
          "internalType": "address",
          "name": "",
          "type": "address"
        },
        {
          "internalType": "uint256",
          "name": "",
          "type": "uint256"
        }
      ],
      "name": "withdrawalPerUserPerMonth",
      "outputs": [
        {
          "internalType": "uint256",
          "name": "",
          "type": "uint256"
        }
      ],
      "stateMutability": "view",
      "type": "function",
      "constant": true
    },
    {
      "inputs": [
        {
          "internalType": "address",
          "name": "",
          "type": "address"
        },
        {
          "internalType": "uint256",
          "name": "",
          "type": "uint256"
        }
      ],
      "name": "withdrawalPerUserPerYear",
      "outputs": [
        {
          "internalType": "uint256",
          "name": "",
          "type": "uint256"
        }
      ],
      "stateMutability": "view",
      "type": "function",
      "constant": true
    },
    {
      "inputs": [
        {
          "internalType": "uint256",
          "name": "",
          "type": "uint256"
        }
      ],
      "name": "withdrawalsGlobalDaily",
      "outputs": [
        {
          "internalType": "uint256",
          "name": "",
          "type": "uint256"
        }
      ],
      "stateMutability": "view",
      "type": "function",
      "constant": true
    },
    {
      "inputs": [
        {
          "internalType": "uint256",
          "name": "",
          "type": "uint256"
        }
      ],
      "name": "withdrawalsGlobalMonthly",
      "outputs": [
        {
          "internalType": "uint256",
          "name": "",
          "type": "uint256"
        }
      ],
      "stateMutability": "view",
      "type": "function",
      "constant": true
    },
    {
      "inputs": [
        {
          "internalType": "uint256",
          "name": "",
          "type": "uint256"
        }
      ],
      "name": "withdrawalsGlobalYearly",
      "outputs": [
        {
          "internalType": "uint256",
          "name": "",
          "type": "uint256"
        }
      ],
      "stateMutability": "view",
      "type": "function",
      "constant": true
    },
    {
      "inputs": [
        {
          "internalType": "address",
          "name": "_stateAddress",
          "type": "address"
        },
        {
          "internalType": "bool",
          "name": "_recoveryEnabled",
          "type": "bool"
        },
        {
          "internalType": "contract ISwapRouter",
          "name": "_swapRouter",
          "type": "address"
        }
      ],
      "name": "initialize",
      "outputs": [],
      "stateMutability": "nonpayable",
      "type": "function"
    },
    {
      "inputs": [
        {
          "internalType": "address",
          "name": "_stateAddress",
          "type": "address"
        }
      ],
      "name": "setMorpherState",
      "outputs": [],
      "stateMutability": "nonpayable",
      "type": "function"
    },
    {
      "inputs": [
        {
          "internalType": "uint256",
          "name": "_periodInSeconds",
          "type": "uint256"
        }
      ],
      "name": "setInactivityPeriod",
      "outputs": [],
      "stateMutability": "nonpayable",
      "type": "function"
    },
    {
      "inputs": [
        {
          "internalType": "bytes32",
          "name": "_rootHash",
          "type": "bytes32"
        }
      ],
      "name": "updateSideChainMerkleRoot",
      "outputs": [],
      "stateMutability": "nonpayable",
      "type": "function"
    },
    {
      "inputs": [
        {
          "internalType": "uint256",
          "name": "_withdrawLimit",
          "type": "uint256"
        }
      ],
      "name": "updateWithdrawLimitPerUserDaily",
      "outputs": [],
      "stateMutability": "nonpayable",
      "type": "function"
    },
    {
      "inputs": [
        {
          "internalType": "uint256",
          "name": "_withdrawLimit",
          "type": "uint256"
        }
      ],
      "name": "updateWithdrawLimitPerUserMonthly",
      "outputs": [],
      "stateMutability": "nonpayable",
      "type": "function"
    },
    {
      "inputs": [
        {
          "internalType": "uint256",
          "name": "_withdrawLimit",
          "type": "uint256"
        }
      ],
      "name": "updateWithdrawLimitPerUserYearly",
      "outputs": [],
      "stateMutability": "nonpayable",
      "type": "function"
    },
    {
      "inputs": [
        {
          "internalType": "uint256",
          "name": "_withdrawLimit",
          "type": "uint256"
        }
      ],
      "name": "updateWithdrawLimitGlobalDaily",
      "outputs": [],
      "stateMutability": "nonpayable",
      "type": "function"
    },
    {
      "inputs": [
        {
          "internalType": "uint256",
          "name": "_withdrawLimit",
          "type": "uint256"
        }
      ],
      "name": "updateWithdrawLimitGlobalMonthly",
      "outputs": [],
      "stateMutability": "nonpayable",
      "type": "function"
    },
    {
      "inputs": [
        {
          "internalType": "uint256",
          "name": "_withdrawLimit",
          "type": "uint256"
        }
      ],
      "name": "updateWithdrawLimitGlobalYearly",
      "outputs": [],
      "stateMutability": "nonpayable",
      "type": "function"
    },
    {
      "inputs": [
        {
          "internalType": "address",
          "name": "_usr",
          "type": "address"
        },
        {
          "internalType": "uint256",
          "name": "_amount",
          "type": "uint256"
        }
      ],
      "name": "isNotDailyLimitExceeding",
      "outputs": [
        {
          "internalType": "bool",
          "name": "",
          "type": "bool"
        }
      ],
      "stateMutability": "view",
      "type": "function",
      "constant": true
    },
    {
      "inputs": [
        {
          "internalType": "address",
          "name": "_usr",
          "type": "address"
        },
        {
          "internalType": "uint256",
          "name": "_amount",
          "type": "uint256"
        }
      ],
      "name": "isNotMonthlyLimitExceeding",
      "outputs": [
        {
          "internalType": "bool",
          "name": "",
          "type": "bool"
        }
      ],
      "stateMutability": "view",
      "type": "function",
      "constant": true
    },
    {
      "inputs": [
        {
          "internalType": "address",
          "name": "_usr",
          "type": "address"
        },
        {
          "internalType": "uint256",
          "name": "_amount",
          "type": "uint256"
        }
      ],
      "name": "isNotYearlyLimitExceeding",
      "outputs": [
        {
          "internalType": "bool",
          "name": "",
          "type": "bool"
        }
      ],
      "stateMutability": "view",
      "type": "function",
      "constant": true
    },
    {
      "inputs": [
        {
          "internalType": "address",
          "name": "_usr",
          "type": "address"
        },
        {
          "internalType": "uint256",
          "name": "_amount",
          "type": "uint256"
        }
      ],
      "name": "verifyUpdateDailyLimit",
      "outputs": [],
      "stateMutability": "nonpayable",
      "type": "function"
    },
    {
      "inputs": [
        {
          "internalType": "address",
          "name": "_usr",
          "type": "address"
        },
        {
          "internalType": "uint256",
          "name": "_amount",
          "type": "uint256"
        }
      ],
      "name": "verifyUpdateMonthlyLimit",
      "outputs": [],
      "stateMutability": "nonpayable",
      "type": "function"
    },
    {
      "inputs": [
        {
          "internalType": "address",
          "name": "_usr",
          "type": "address"
        },
        {
          "internalType": "uint256",
          "name": "_amount",
          "type": "uint256"
        }
      ],
      "name": "verifyUpdateYearlyLimit",
      "outputs": [],
      "stateMutability": "nonpayable",
      "type": "function"
    },
    {
      "inputs": [
        {
          "internalType": "uint256",
          "name": "_tokens",
          "type": "uint256"
        },
        {
          "internalType": "uint256",
          "name": "_targetChainId",
          "type": "uint256"
        }
      ],
      "name": "stageTokensForTransfer",
      "outputs": [],
      "stateMutability": "nonpayable",
      "type": "function"
    },
    {
      "inputs": [
        {
          "internalType": "uint256",
          "name": "_tokens",
          "type": "uint256"
        },
        {
          "internalType": "uint256",
          "name": "_targetChainId",
          "type": "uint256"
        },
        {
          "internalType": "address",
          "name": "_autoWithdrawalAddressTo",
          "type": "address"
        },
        {
          "internalType": "bytes",
          "name": "_signature",
          "type": "bytes"
        }
      ],
      "name": "stageTokensForTransfer",
      "outputs": [],
      "stateMutability": "nonpayable",
      "type": "function"
    },
    {
      "inputs": [
        {
          "internalType": "uint256",
          "name": "_numOfToken",
          "type": "uint256"
        },
        {
          "internalType": "uint256",
          "name": "_claimLimit",
          "type": "uint256"
        },
        {
          "internalType": "bytes32[]",
          "name": "_proof",
          "type": "bytes32[]"
        }
      ],
      "name": "claimStagedTokens",
      "outputs": [],
      "stateMutability": "nonpayable",
      "type": "function"
    },
    {
      "inputs": [
        {
          "internalType": "uint256",
          "name": "_numOfToken",
          "type": "uint256"
        },
        {
          "internalType": "uint256",
          "name": "_claimLimit",
          "type": "uint256"
        },
        {
          "internalType": "bytes32[]",
          "name": "_proof",
          "type": "bytes32[]"
        },
        {
          "internalType": "address payable",
          "name": "_finalOutput",
          "type": "address"
        }
      ],
      "name": "claimStagedTokensConvertAndSend",
      "outputs": [],
      "stateMutability": "nonpayable",
      "type": "function"
    },
    {
      "inputs": [
        {
          "internalType": "address",
          "name": "_usrAddr",
          "type": "address"
        },
        {
          "internalType": "uint256",
          "name": "_numOfToken",
          "type": "uint256"
        },
        {
          "internalType": "uint256",
          "name": "fee",
          "type": "uint256"
        },
        {
          "internalType": "address",
          "name": "feeRecipient",
          "type": "address"
        },
        {
          "internalType": "uint256",
          "name": "_claimLimit",
          "type": "uint256"
        },
        {
          "internalType": "bytes32[]",
          "name": "_proof",
          "type": "bytes32[]"
        },
        {
          "internalType": "address payable",
          "name": "_finalOutput",
          "type": "address"
        },
        {
          "internalType": "bytes32",
          "name": "_rootHash",
          "type": "bytes32"
        },
        {
          "internalType": "bytes",
          "name": "_userConfirmationSignature",
          "type": "bytes"
        }
      ],
      "name": "claimStagedTokensConvertAndSendForUser",
      "outputs": [],
      "stateMutability": "nonpayable",
      "type": "function"
    },
    {
      "inputs": [
        {
          "internalType": "uint256",
          "name": "_wrongSideChainBalance",
          "type": "uint256"
        },
        {
          "internalType": "bytes32[]",
          "name": "_proof",
          "type": "bytes32[]"
        },
        {
          "internalType": "uint256",
          "name": "_targetChainId",
          "type": "uint256"
        }
      ],
      "name": "claimFailedTransferToSidechain",
      "outputs": [],
      "stateMutability": "nonpayable",
      "type": "function"
    },
    {
      "inputs": [
        {
          "internalType": "bytes32[]",
          "name": "_proof",
          "type": "bytes32[]"
        },
        {
          "internalType": "bytes32",
          "name": "_leaf",
          "type": "bytes32"
        },
        {
          "internalType": "bytes32",
          "name": "_marketId",
          "type": "bytes32"
        },
        {
          "internalType": "uint256",
          "name": "_timeStamp",
          "type": "uint256"
        },
        {
          "internalType": "uint256",
          "name": "_longShares",
          "type": "uint256"
        },
        {
          "internalType": "uint256",
          "name": "_shortShares",
          "type": "uint256"
        },
        {
          "internalType": "uint256",
          "name": "_meanEntryPrice",
          "type": "uint256"
        },
        {
          "internalType": "uint256",
          "name": "_meanEntrySpread",
          "type": "uint256"
        },
        {
          "internalType": "uint256",
          "name": "_meanEntryLeverage",
          "type": "uint256"
        },
        {
          "internalType": "uint256",
          "name": "_liquidationPrice",
          "type": "uint256"
        }
      ],
      "name": "recoverPositionFromInactivity",
      "outputs": [],
      "stateMutability": "nonpayable",
      "type": "function"
    },
    {
      "inputs": [
        {
          "internalType": "bytes32[]",
          "name": "_proof",
          "type": "bytes32[]"
        },
        {
          "internalType": "bytes32",
          "name": "_leaf",
          "type": "bytes32"
        },
        {
          "internalType": "uint256",
          "name": "_balance",
          "type": "uint256"
        }
      ],
      "name": "recoverTokenFromInactivity",
      "outputs": [],
      "stateMutability": "nonpayable",
      "type": "function"
    },
    {
      "inputs": [
        {
          "internalType": "bytes32[]",
          "name": "_proof",
          "type": "bytes32[]"
        },
        {
          "internalType": "bytes32",
          "name": "_leaf",
          "type": "bytes32"
        }
      ],
      "name": "mProof",
      "outputs": [
        {
          "internalType": "bool",
          "name": "_isTrue",
          "type": "bool"
        }
      ],
      "stateMutability": "view",
      "type": "function",
      "constant": true
    },
    {
      "inputs": [
        {
          "internalType": "address",
          "name": "_address",
          "type": "address"
        },
        {
          "internalType": "uint256",
          "name": "_balance",
          "type": "uint256"
        }
      ],
      "name": "getBalanceHash",
      "outputs": [
        {
          "internalType": "bytes32",
          "name": "_hash",
          "type": "bytes32"
        }
      ],
      "stateMutability": "pure",
      "type": "function",
      "constant": true
    }
  ],
  "bytecode": "0x608060405234801561001057600080fd5b50614c6d806100206000396000f3fe608060405234801561001057600080fd5b50600436106102d65760003560e01c806383ecd61211610182578063c4b907ad116100e9578063e628eb5b116100a2578063ec65d96c1161007c578063ec65d96c14610700578063f03c6fdc14610713578063f45edb5f14610726578063fb16f5a91461074d57600080fd5b8063e628eb5b146106c7578063e7f34bb7146106da578063e93f271d146106ed57600080fd5b8063c4b907ad14610666578063cb1b92fb14610679578063d345a76214610682578063d362bd2b14610695578063da9a6b351461069e578063de8a5746146106be57600080fd5b8063a2f1491f1161013b578063a2f1491f146105c2578063a31c98b7146105f4578063abc35a911461061f578063af434a6d1461062d578063b915484614610640578063c31c9c071461065357600080fd5b806383ecd61214610535578063857b0da01461053e5780638cd845d9146105515780639291b7e21461057157806392e7c76e14610584578063a1949a0a1461059757600080fd5b80634888a7d11161024157806355069a81116101fa578063773cc3ff116101d4578063773cc3ff146104d75780637946541e146104ea5780637ac15763146104f7578063801046681461052257600080fd5b806355069a81146104a857806358b0e6b5146104bb5780636b92c06e146104c457600080fd5b80634888a7d11461041657806349c01664146104295780634aa4a4fc1461043c57806350456b301461046f5780635300597b1461048257806354dddf431461049557600080fd5b806321bb10bb1161029357806321bb10bb146103785780632e55e76e146103815780632f21278c146103945780633b45c355146103a75780633c14e352146103c757806345bc550c1461040357600080fd5b8063015b3ab4146102db57806303d2304414610313578063089fe6aa146103285780630e357543146103455780631c0ffbd0146103585780631f87a2501461036f575b600080fd5b6102fe6102e9366004614134565b60456020526000908152604090205460ff1681565b60405190151581526020015b60405180910390f35b610326610321366004614214565b610762565b005b610331610bb881565b60405162ffffff909116815260200161030a565b610326610353366004614287565b610a4d565b610361603a5481565b60405190815260200161030a565b61036160495481565b61036160385481565b61032661038f366004614134565b610b45565b6103266103a2366004614134565b610c9c565b6103616103b5366004614134565b60406020819052600091825290205481565b6103ee6103d53660046142b3565b6048602052600090815260409020805460019091015482565b6040805192835260208301919091520161030a565b6102fe610411366004614287565b610df3565b6103266104243660046142de565b610e7b565b610326610437366004614134565b610fbb565b61045773c02aaa39b223fe8d0a0e5c4f27ead9083c756cc281565b6040516001600160a01b03909116815260200161030a565b61032661047d366004614329565b611111565b6102fe61049036600461434b565b61154c565b6103266104a3366004614390565b61155e565b6103266104b6366004614134565b6119d7565b61036160355481565b6102fe6104d2366004614287565b611b2e565b6103266104e53660046143f3565b611b93565b6044546102fe9060ff1681565b610361610505366004614287565b603c60209081526000928352604080842090915290825290205481565b6103266105303660046142b3565b6120b4565b61036160375481565b61036161054c366004614287565b612229565b61036161055f366004614134565b603f6020526000908152604090205481565b61032661057f3660046144b3565b61226b565b610326610592366004614134565b61290b565b6103616105a5366004614287565b603b60209081526000928352604080842090915290825290205481565b6103ee6105d0366004614287565b60476020908152600092835260408084209091529082529020805460019091015482565b610361610602366004614287565b603d60209081526000928352604080842090915290825290205481565b6041546042546103ee919082565b61032661063b366004614134565b612a62565b61032661064e366004614287565b612b8f565b604654610457906001600160a01b031681565b610326610674366004614574565b612c5e565b61036160395481565b610326610690366004614287565b613094565b61036160435481565b6103616106ac366004614134565b603e6020526000908152604090205481565b61036160365481565b6103266106d5366004614134565b613165565b6103266106e83660046145d7565b6132bc565b6102fe6106fb366004614287565b613757565b61032661070e366004614134565b6137be565b610326610721366004614661565b613915565b6103617fe5a0b4d50f56047f84728557fedbda92f956391bc9d5c762e8461996dd8e7ad781565b610361600080516020614c1883398151915281565b60425460435461077290426146c7565b116107985760405162461bcd60e51b815260040161078f906146de565b60405180910390fd5b603360009054906101000a90046001600160a01b03166001600160a01b03166350a71bac6040518163ffffffff1660e01b8152600401602060405180830381865afa1580156107eb573d6000803e3d6000fd5b505050506040513d601f19601f8201168201806040525081019061080f9190614748565b6001600160a01b031663ac259ace336040516001600160e01b031960e084901b1681526001600160a01b039091166004820152602401602060405180830381865afa158015610862573d6000803e3d6000fd5b505050506040513d601f19601f820116820180604052508101906108869190614765565b156108a35760405162461bcd60e51b815260040161078f90614782565b60445460ff166108c55760405162461bcd60e51b815260040161078f906147b9565b6108cf3382612229565b821461091d5760405162461bcd60e51b815260206004820152601d60248201527f4d6f72706865724272696467653a2057726f6e672062616c616e63652e000000604482015260640161078f565b60008281526045602052604090205460ff161561098e5760405162461bcd60e51b815260206004820152602960248201527f4d6f72706865724272696467653a20546f6b656e20616c7265616479207472616044820152683739b332b93932b21760b91b606482015260840161078f565b610998838361154c565b15156001146109b95760405162461bcd60e51b815260040161078f9061480a565b6000828152604560205260409020805460ff191660011790556109e26109dc3390565b82612b8f565b6109ed335b82613094565b6109f8335b82610a4d565b33600081815260486020526040902054610a13919083613b22565b60405182815233907f0534719a5dcedfc13619bb4206e36ba0e42fb7d166c8b8a79320c8128fc3af549060200160405180910390a2505050565b610a578282613757565b610ac15760405162461bcd60e51b815260206004820152603560248201527f4d6f72706865724272696467653a205769746864726177616c20416d6f756e7460448201527408195e18d959591cc81e59585c9b1e481b1a5b5a5d605a1b606482015260840161078f565b6001600160a01b0382166000908152603d602052604081208291610ae96301e133804261484d565b81526020019081526020016000206000828254610b06919061486f565b9091555081905060406000610b1f6301e133804261484d565b81526020019081526020016000206000828254610b3c919061486f565b90915550505050565b60335460408051630140cb6560e51b81529051600080516020614c18833981519152926001600160a01b0316916328196ca09160048083019260209291908290030181865afa158015610b9c573d6000803e3d6000fd5b505050506040513d601f19601f82011682018060405250810190610bc09190614748565b6001600160a01b03166391d1485482336040516001600160e01b031960e085901b16815260048101929092526001600160a01b03166024820152604401602060405180830381865afa158015610c1a573d6000803e3d6000fd5b505050506040513d601f19601f82011682018060405250810190610c3e9190614765565b610c5a5760405162461bcd60e51b815260040161078f90614887565b60375460408051918252602082018490527f58876df72ecce56c44d758d22355bb689efaa4946003c9bf0d75a228d1c0612f910160405180910390a150603755565b60335460408051630140cb6560e51b81529051600080516020614c18833981519152926001600160a01b0316916328196ca09160048083019260209291908290030181865afa158015610cf3573d6000803e3d6000fd5b505050506040513d601f19601f82011682018060405250810190610d179190614748565b6001600160a01b03166391d1485482336040516001600160e01b031960e085901b16815260048101929092526001600160a01b03166024820152604401602060405180830381865afa158015610d71573d6000803e3d6000fd5b505050506040513d601f19601f82011682018060405250810190610d959190614765565b610db15760405162461bcd60e51b815260040161078f90614887565b60355460408051918252602082018490527f8a30f3401f82aa6b9ef6b22cd0efee6be3c06cc377d13e718a97bdb5eccb811a910160405180910390a150603555565b6035546001600160a01b0383166000908152603b60205260408120909190839083610e21620151804261484d565b815260200190815260200160002054610e3a919061486f565b11158015610e74575060385482603e6000610e58620151804261484d565b815260200190815260200160002054610e71919061486f565b11155b9392505050565b600054610100900460ff16610e965760005460ff1615610e9a565b303b155b610efd5760405162461bcd60e51b815260206004820152602e60248201527f496e697469616c697a61626c653a20636f6e747261637420697320616c72656160448201526d191e481a5b9a5d1a585b1a5e995960921b606482015260840161078f565b600054610100900460ff16158015610f1f576000805461ffff19166101011790555b603380546001600160a01b038087166001600160a01b0319928316179092556044805486151560ff19909116179055692a5a058fc295ed000000603581905569d3c21bcecceda100000060368190556a0422ca8b0a00a4250000006037819055603892909255603955603a556203f48060435560468054928516929091169190911790558015610fb5576000805461ff00191690555b50505050565b60335460408051630140cb6560e51b81529051600080516020614c18833981519152926001600160a01b0316916328196ca09160048083019260209291908290030181865afa158015611012573d6000803e3d6000fd5b505050506040513d601f19601f820116820180604052508101906110369190614748565b6001600160a01b03166391d1485482336040516001600160e01b031960e085901b16815260048101929092526001600160a01b03166024820152604401602060405180830381865afa158015611090573d6000803e3d6000fd5b505050506040513d601f19601f820116820180604052508101906110b49190614765565b6110d05760405162461bcd60e51b815260040161078f90614887565b6041829055426042556040518281527fce559c2f7d86d801cf61f2bfd589e7926036f75a2c58e06b35378f308637d504906020015b60405180910390a15050565b603360009054906101000a90046001600160a01b03166001600160a01b03166350a71bac6040518163ffffffff1660e01b8152600401602060405180830381865afa158015611164573d6000803e3d6000fd5b505050506040513d601f19601f820116820180604052508101906111889190614748565b6001600160a01b031663ac259ace336040516001600160e01b031960e084901b1681526001600160a01b039091166004820152602401602060405180830381865afa1580156111db573d6000803e3d6000fd5b505050506040513d601f19601f820116820180604052508101906111ff9190614765565b1561121c5760405162461bcd60e51b815260040161078f90614782565b60335460408051632192ab5d60e11b8152905184926001600160a01b03169163432556ba9160048083019260209291908290030181865afa158015611265573d6000803e3d6000fd5b505050506040513d601f19601f820116820180604052508101906112899190614748565b6001600160a01b03166370a08231336040516001600160e01b031960e084901b1681526001600160a01b039091166004820152602401602060405180830381865afa1580156112dc573d6000803e3d6000fd5b505050506040513d601f19601f8201168201806040525081019061130091906148c8565b101561131e5760405162461bcd60e51b815260040161078f906148e1565b6113283383612b8f565b6113323383613094565b61133c3383610a4d565b603360009054906101000a90046001600160a01b03166001600160a01b031663432556ba6040518163ffffffff1660e01b8152600401602060405180830381865afa15801561138f573d6000803e3d6000fd5b505050506040513d601f19601f820116820180604052508101906113b39190614748565b6001600160a01b0316639dc29fac336040516001600160e01b031960e084901b1681526001600160a01b03909116600482015260248101859052604401600060405180830381600087803b15801561140a57600080fd5b505af115801561141e573d6000803e3d6000fd5b50505050600082604760006114303390565b6001600160a01b0316815260208082019290925260409081016000908120868252909252902054611461919061486f565b9050600061146d613c1c565b905042600033868584888760405160200161148d96959493929190614925565b60405160208183030381529060405280519060200120905083604760006114b13390565b6001600160a01b031681526020808201929092526040908101600090812089825283528181209390935533808452604783528184208985528352928190204260019091015580518981529182018790528181018590526060820186905260808201889052518392917f22d7abd4c58e0b77e5d1da401e0ed36ada87c92c62c0fade36d396d12bf5dc7d919081900360a00190a3505050505050565b6000610e748360416000015484613c3a565b603360009054906101000a90046001600160a01b03166001600160a01b03166350a71bac6040518163ffffffff1660e01b8152600401602060405180830381865afa1580156115b1573d6000803e3d6000fd5b505050506040513d601f19601f820116820180604052508101906115d59190614748565b6001600160a01b031663ac259ace336040516001600160e01b031960e084901b1681526001600160a01b039091166004820152602401602060405180830381865afa158015611628573d6000803e3d6000fd5b505050506040513d601f19601f8201168201806040525081019061164c9190614765565b156116695760405162461bcd60e51b815260040161078f90614782565b60003384466040516020016116809392919061495c565b6040516020818303038152906040528051906020012090506000604860006116a53390565b6001600160a01b0316815260208101919091526040016000205490506116cb848361154c565b6116e75760405162461bcd60e51b815260040161078f90614981565b846116f2878361486f565b11156117105760405162461bcd60e51b815260040161078f90614a04565b61171a3387612b8f565b6117243387613094565b61172e3387610a4d565b611739308288613b22565b60405186815233907f943c724b337822464f019ef425f7d5b1dd7ca039317dabe7446a630a6b8236d39060200160405180910390a260335460408051632192ab5d60e11b815290516117ef926001600160a01b03169163432556ba9160048083019260209291908290030181865afa1580156117b9573d6000803e3d6000fd5b505050506040513d601f19601f820116820180604052508101906117dd9190614748565b6046546001600160a01b031688613c50565b604080516101008101808352603354632192ab5d60e11b909152915160009282916001600160a01b039091169063432556ba90610104808501916020918187030181865afa158015611845573d6000803e3d6000fd5b505050506040513d601f19601f820116820180604052508101906118699190614748565b6001600160a01b03908116825273c02aaa39b223fe8d0a0e5c4f27ead9083c756cc26020830152610bb860408084019190915230606084015242608084015260a083018b9052600060c0840181905260e0909301839052604654905163414bf38960e01b8152939450919291169063414bf389906118eb908590600401614a6c565b6020604051808303816000875af115801561190a573d6000803e3d6000fd5b505050506040513d601f19601f8201168201806040525081019061192e91906148c8565b604051632e1a7d4d60e01b81526004810182905290915073c02aaa39b223fe8d0a0e5c4f27ead9083c756cc290632e1a7d4d90602401600060405180830381600087803b15801561197e57600080fd5b505af1158015611992573d6000803e3d6000fd5b50506040516001600160a01b038816925083156108fc02915083906000818181858888f193505050501580156119cc573d6000803e3d6000fd5b505050505050505050565b60335460408051630140cb6560e51b81529051600080516020614c18833981519152926001600160a01b0316916328196ca09160048083019260209291908290030181865afa158015611a2e573d6000803e3d6000fd5b505050506040513d601f19601f82011682018060405250810190611a529190614748565b6001600160a01b03166391d1485482336040516001600160e01b031960e085901b16815260048101929092526001600160a01b03166024820152604401602060405180830381865afa158015611aac573d6000803e3d6000fd5b505050506040513d601f19601f82011682018060405250810190611ad09190614765565b611aec5760405162461bcd60e51b815260040161078f90614887565b60395460408051918252602082018490527f53e006bea65a38d4b925b9299178d9c25ae1236005e70c46dc1d1d6329e41ff2910160405180910390a150603955565b6036546001600160a01b0383166000908152603c60205260408120909190839083611b5c62278d004261484d565b815260200190815260200160002054611b75919061486f565b11158015610e74575060395482603f6000610e5862278d004261484d565b603360009054906101000a90046001600160a01b03166001600160a01b03166350a71bac6040518163ffffffff1660e01b8152600401602060405180830381865afa158015611be6573d6000803e3d6000fd5b505050506040513d601f19601f82011682018060405250810190611c0a9190614748565b6001600160a01b031663ac259ace336040516001600160e01b031960e084901b1681526001600160a01b039091166004820152602401602060405180830381865afa158015611c5d573d6000803e3d6000fd5b505050506040513d601f19601f82011682018060405250810190611c819190614765565b15611c9e5760405162461bcd60e51b815260040161078f90614782565b6040516001600160601b03193360601b1660208201526034810184905260009060540160405160208183030381529060405280519060200120905060435460476000611ce73390565b6001600160a01b03166001600160a01b03168152602001908152602001600020600084815260200190815260200160002060010154611d26919061486f565b4211611dae5760405162461bcd60e51b815260206004820152604b60248201527f4d6f72706865724272696467653a204661696c6564206465706f73697473206360448201527f616e206f6e6c7920626520636c61696d656420616674657220696e616374697660648201526a34ba3c903832b934b7b21760a91b608482015260a40161078f565b3360009081526047602090815260408083208584529091529020548410611e525760405162461bcd60e51b815260206004820152604c60248201527f4d6f72706865724272696467653a204f7468657220636861696e20637265646960448201527f74206973206772656174657220657175616c20746f2077726f6e67536964654360648201526b3430b4b72130b630b731b29760a11b608482015260a40161078f565b611e5c838261154c565b611ee85760405162461bcd60e51b815260206004820152605160248201527f4d6f72706865724272696467653a204d65726b6c652050726f6f66206661696c60448201527f65642e20456e74657220746f74616c20616d6f756e74206f66206465706f73696064820152703a399037b71039b4b2329031b430b4b71760791b608482015260a40161078f565b336000908152604760209081526040808320858452909152812054611f0e9086906146c7565b336000908152604760209081526040808320878452909152812080549293508392909190611f3d9084906146c7565b9091555050336000818152604760209081526040808320878452909152902042600190910155611f6c906109dc565b611f75336109e7565b611f7e336109f2565b603360009054906101000a90046001600160a01b03166001600160a01b031663432556ba6040518163ffffffff1660e01b8152600401602060405180830381865afa158015611fd1573d6000803e3d6000fd5b505050506040513d601f19601f82011682018060405250810190611ff59190614748565b6001600160a01b03166340c10f19336040516001600160e01b031960e084901b1681526001600160a01b03909116600482015260248101849052604401600060405180830381600087803b15801561204c57600080fd5b505af1158015612060573d6000803e3d6000fd5b5050505061206b3390565b6001600160a01b03167ff3d1bd7b5416206939e66c9b6ee92563caaf8499c21668173d17cacbaefdc700826040516120a591815260200190565b60405180910390a25050505050565b60335460408051630140cb6560e51b815290517fe5a0b4d50f56047f84728557fedbda92f956391bc9d5c762e8461996dd8e7ad7926001600160a01b0316916328196ca09160048083019260209291908290030181865afa15801561211d573d6000803e3d6000fd5b505050506040513d601f19601f820116820180604052508101906121419190614748565b6001600160a01b03166391d1485482336040516001600160e01b031960e085901b16815260048101929092526001600160a01b03166024820152604401602060405180830381865afa15801561219b573d6000803e3d6000fd5b505050506040513d601f19601f820116820180604052508101906121bf9190614765565b6121db5760405162461bcd60e51b815260040161078f90614887565b603380546001600160a01b0319166001600160a01b0384169081179091556040519081527f978c711532bae8c58f353b0f3c7f3a0dfe600d9ae9a81818f2ad2919b88e199090602001611105565b6040516001600160601b0319606084901b1660208201526034810182905260009060540160405160208183030381529060405280519060200120905092915050565b60335460408051630140cb6560e51b81529051600080516020614c18833981519152926001600160a01b0316916328196ca09160048083019260209291908290030181865afa1580156122c2573d6000803e3d6000fd5b505050506040513d601f19601f820116820180604052508101906122e69190614748565b6001600160a01b03166391d1485482336040516001600160e01b031960e085901b16815260048101929092526001600160a01b03166024820152604401602060405180830381865afa158015612340573d6000803e3d6000fd5b505050506040513d601f19601f820116820180604052508101906123649190614765565b6123805760405162461bcd60e51b815260040161078f90614887565b896001600160a01b03166123e5838b87466040516020016123c19392919092835260609190911b6001600160601b0319166020830152603482015260540190565b60405160208183030381529060405280519060200120613d5090919063ffffffff16565b6001600160a01b0316146124545760405162461bcd60e51b815260206004820152603060248201527f4d6f72706865724272696467653a205573657273207369676e6174757265206460448201526f6f6573206e6f742076616c696461746560801b606482015260840161078f565b61245d83610fbb565b60003387466040516020016124749392919061495c565b60408051601f1981840301815291815281516020928301206001600160a01b038e16600090815260489093529120549091506124b0878361154c565b6124cc5760405162461bcd60e51b815260040161078f90614981565b876124d78c8361486f565b11156124f55760405162461bcd60e51b815260040161078f90614a04565b6124ff8c8c612b8f565b6125098c8c613094565b6125138c8c610a4d565b61251e30828d613b22565b8b6001600160a01b03167f943c724b337822464f019ef425f7d5b1dd7ca039317dabe7446a630a6b8236d38c60405161255991815260200190565b60405180910390a2603360009054906101000a90046001600160a01b03166001600160a01b031663432556ba6040518163ffffffff1660e01b8152600401602060405180830381865afa1580156125b4573d6000803e3d6000fd5b505050506040513d601f19601f820116820180604052508101906125d89190614748565b6040516323b872dd60e01b81523060048201526001600160a01b038b81166024830152604482018d905291909116906323b872dd906064016020604051808303816000875af115801561262f573d6000803e3d6000fd5b505050506040513d601f19601f820116820180604052508101906126539190614765565b5061265e8a8c6146c7565b9a506126ec603360009054906101000a90046001600160a01b03166001600160a01b031663432556ba6040518163ffffffff1660e01b8152600401602060405180830381865afa1580156126b6573d6000803e3d6000fd5b505050506040513d601f19601f820116820180604052508101906126da9190614748565b6046546001600160a01b03168d613c50565b604080516101008101808352603354632192ab5d60e11b909152915160009282916001600160a01b039091169063432556ba90610104808501916020918187030181865afa158015612742573d6000803e3d6000fd5b505050506040513d601f19601f820116820180604052508101906127669190614748565b6001600160a01b0316815260200173c02aaa39b223fe8d0a0e5c4f27ead9083c756cc26001600160a01b03168152602001610bb862ffffff168152602001306001600160a01b031681526020014281526020018d81526020016000815260200160006001600160a01b031681525090506000604660009054906101000a90046001600160a01b03166001600160a01b031663414bf389836040518263ffffffff1660e01b81526004016128199190614a6c565b6020604051808303816000875af1158015612838573d6000803e3d6000fd5b505050506040513d601f19601f8201168201806040525081019061285c91906148c8565b604051632e1a7d4d60e01b81526004810182905290915073c02aaa39b223fe8d0a0e5c4f27ead9083c756cc290632e1a7d4d90602401600060405180830381600087803b1580156128ac57600080fd5b505af11580156128c0573d6000803e3d6000fd5b50506040516001600160a01b038b16925083156108fc02915083906000818181858888f193505050501580156128fa573d6000803e3d6000fd5b505050505050505050505050505050565b60335460408051630140cb6560e51b81529051600080516020614c18833981519152926001600160a01b0316916328196ca09160048083019260209291908290030181865afa158015612962573d6000803e3d6000fd5b505050506040513d601f19601f820116820180604052508101906129869190614748565b6001600160a01b03166391d1485482336040516001600160e01b031960e085901b16815260048101929092526001600160a01b03166024820152604401602060405180830381865afa1580156129e0573d6000803e3d6000fd5b505050506040513d601f19601f82011682018060405250810190612a049190614765565b612a205760405162461bcd60e51b815260040161078f90614887565b60385460408051918252602082018490527fff4f3e2a6b4cb9b7141b4a215d1ae67a9dd18a640499d1393c6c0d0f253006db910160405180910390a150603855565b60335460408051630140cb6560e51b815290517fe5a0b4d50f56047f84728557fedbda92f956391bc9d5c762e8461996dd8e7ad7926001600160a01b0316916328196ca09160048083019260209291908290030181865afa158015612acb573d6000803e3d6000fd5b505050506040513d601f19601f82011682018060405250810190612aef9190614748565b6001600160a01b03166391d1485482336040516001600160e01b031960e085901b16815260048101929092526001600160a01b03166024820152604401602060405180830381865afa158015612b49573d6000803e3d6000fd5b505050506040513d601f19601f82011682018060405250810190612b6d9190614765565b612b895760405162461bcd60e51b815260040161078f90614887565b50604355565b612b998282610df3565b612c025760405162461bcd60e51b815260206004820152603460248201527f4d6f72706865724272696467653a205769746864726177616c20416d6f756e7460448201527308195e18d959591cc819185a5b1e481b1a5b5a5d60621b606482015260840161078f565b6001600160a01b0382166000908152603b602052604081208291612c29620151804261484d565b81526020019081526020016000206000828254612c46919061486f565b90915550819050603e6000610b1f620151804261484d565b603360009054906101000a90046001600160a01b03166001600160a01b03166350a71bac6040518163ffffffff1660e01b8152600401602060405180830381865afa158015612cb1573d6000803e3d6000fd5b505050506040513d601f19601f82011682018060405250810190612cd59190614748565b6001600160a01b031663ac259ace336040516001600160e01b031960e084901b1681526001600160a01b039091166004820152602401602060405180830381865afa158015612d28573d6000803e3d6000fd5b505050506040513d601f19601f82011682018060405250810190612d4c9190614765565b15612d695760405162461bcd60e51b815260040161078f90614782565b60335460408051632192ab5d60e11b8152905186926001600160a01b03169163432556ba9160048083019260209291908290030181865afa158015612db2573d6000803e3d6000fd5b505050506040513d601f19601f82011682018060405250810190612dd69190614748565b6001600160a01b03166370a08231336040516001600160e01b031960e084901b1681526001600160a01b039091166004820152602401602060405180830381865afa158015612e29573d6000803e3d6000fd5b505050506040513d601f19601f82011682018060405250810190612e4d91906148c8565b1015612e6b5760405162461bcd60e51b815260040161078f906148e1565b612e753385612b8f565b612e7f3385613094565b612e893385610a4d565b603360009054906101000a90046001600160a01b03166001600160a01b031663432556ba6040518163ffffffff1660e01b8152600401602060405180830381865afa158015612edc573d6000803e3d6000fd5b505050506040513d601f19601f82011682018060405250810190612f009190614748565b6001600160a01b0316639dc29fac336040516001600160e01b031960e084901b1681526001600160a01b03909116600482015260248101879052604401600060405180830381600087803b158015612f5757600080fd5b505af1158015612f6b573d6000803e3d6000fd5b5050505060008460476000612f7d3390565b6001600160a01b0316815260208082019290925260409081016000908120888252909252902054612fae919061486f565b90506000612fba613c1c565b9050426000338885848a87604051602001612fda96959493929190614925565b6040516020818303038152906040528051906020012090508360476000612ffe3390565b6001600160a01b03168152602080820192909252604090810160009081208b825283528181209390935533808452604783528184208b8552909252918290204260019091015590518291907f5ece11db74b4a83792b00f8375343013bce17047b3ca83ff16ece331c9220a2f90613082908c90899088908a908f908f908f90614b01565b60405180910390a35050505050505050565b61309e8282611b2e565b6131095760405162461bcd60e51b815260206004820152603660248201527f4d6f72706865724272696467653a205769746864726177616c20416d6f756e7460448201527508195e18d959591cc81b5bdb9d1a1b1e481b1a5b5a5d60521b606482015260840161078f565b6001600160a01b0382166000908152603c60205260408120829161313062278d004261484d565b8152602001908152602001600020600082825461314d919061486f565b90915550819050603f6000610b1f62278d004261484d565b60335460408051630140cb6560e51b81529051600080516020614c18833981519152926001600160a01b0316916328196ca09160048083019260209291908290030181865afa1580156131bc573d6000803e3d6000fd5b505050506040513d601f19601f820116820180604052508101906131e09190614748565b6001600160a01b03166391d1485482336040516001600160e01b031960e085901b16815260048101929092526001600160a01b03166024820152604401602060405180830381865afa15801561323a573d6000803e3d6000fd5b505050506040513d601f19601f8201168201806040525081019061325e9190614765565b61327a5760405162461bcd60e51b815260040161078f90614887565b603a5460408051918252602082018490527f5c3db7af464ea9d986519b99cb07faf52b14ed37cccd5d05bea914e2fd92a06b910160405180910390a150603a55565b6042546043546132cc90426146c7565b116132e95760405162461bcd60e51b815260040161078f906146de565b603360009054906101000a90046001600160a01b03166001600160a01b03166350a71bac6040518163ffffffff1660e01b8152600401602060405180830381865afa15801561333c573d6000803e3d6000fd5b505050506040513d601f19601f820116820180604052508101906133609190614748565b6001600160a01b031663ac259ace336040516001600160e01b031960e084901b1681526001600160a01b039091166004820152602401602060405180830381865afa1580156133b3573d6000803e3d6000fd5b505050506040513d601f19601f820116820180604052508101906133d79190614765565b156133f45760405162461bcd60e51b815260040161078f90614782565b60445460ff166134165760405162461bcd60e51b815260040161078f906147b9565b603360009054906101000a90046001600160a01b03166001600160a01b031663d37afa8d6040518163ffffffff1660e01b8152600401602060405180830381865afa158015613469573d6000803e3d6000fd5b505050506040513d601f19601f8201168201806040525081019061348d9190614748565b6001600160a01b0316637a687444338a8a8a8a8a8a8a8a6040518a63ffffffff1660e01b81526004016134c899989796959493929190614b6a565b602060405180830381865afa1580156134e5573d6000803e3d6000fd5b505050506040513d601f19601f8201168201806040525081019061350991906148c8565b89146135715760405162461bcd60e51b815260206004820152603160248201527f4d6f72706865724272696467653a206c65616620646f6573206e6f742065717560448201527030b6103837b9b4ba34b7b7103430b9b41760791b606482015260840161078f565b60008981526045602052604090205460ff16156135e55760405162461bcd60e51b815260206004820152602c60248201527f4d6f72706865724272696467653a20506f736974696f6e20616c72656164792060448201526b3a3930b739b332b93932b21760a11b606482015260840161078f565b6135ef8a8a61154c565b15156001146136105760405162461bcd60e51b815260040161078f9061480a565b600089815260456020908152604091829020805460ff19166001179055603354825163d37afa8d60e01b815292516001600160a01b039091169263d37afa8d9260048083019391928290030181865afa158015613671573d6000803e3d6000fd5b505050506040513d601f19601f820116820180604052508101906136959190614748565b6001600160a01b031663be7e64b6338a8a8a8a8a8a8a8a6040518a63ffffffff1660e01b81526004016136d099989796959493929190614b6a565b600060405180830381600087803b1580156136ea57600080fd5b505af11580156136fe573d6000803e3d6000fd5b505050506137093390565b6001600160a01b03167f46de0525fb620932847e7db9be837e386fb61845ffb4ccc632241dfa56ce5d438a60405161374391815260200190565b60405180910390a250505050505050505050565b6037546001600160a01b0383166000908152603d602052604081209091908390836137866301e133804261484d565b81526020019081526020016000205461379f919061486f565b11158015610e745750603a548260406000610e586301e133804261484d565b60335460408051630140cb6560e51b81529051600080516020614c18833981519152926001600160a01b0316916328196ca09160048083019260209291908290030181865afa158015613815573d6000803e3d6000fd5b505050506040513d601f19601f820116820180604052508101906138399190614748565b6001600160a01b03166391d1485482336040516001600160e01b031960e085901b16815260048101929092526001600160a01b03166024820152604401602060405180830381865afa158015613893573d6000803e3d6000fd5b505050506040513d601f19601f820116820180604052508101906138b79190614765565b6138d35760405162461bcd60e51b815260040161078f90614887565b60365460408051918252602082018490527f15bbabad33cea99b6af1c5233603cb731748ed7b1cf3abd8de230338e7b4c97d910160405180910390a150603655565b603360009054906101000a90046001600160a01b03166001600160a01b03166350a71bac6040518163ffffffff1660e01b8152600401602060405180830381865afa158015613968573d6000803e3d6000fd5b505050506040513d601f19601f8201168201806040525081019061398c9190614748565b6001600160a01b031663ac259ace336040516001600160e01b031960e084901b1681526001600160a01b039091166004820152602401602060405180830381865afa1580156139df573d6000803e3d6000fd5b505050506040513d601f19601f82011682018060405250810190613a039190614765565b15613a205760405162461bcd60e51b815260040161078f90614782565b6000338346604051602001613a379392919061495c565b604051602081830303815290604052805190602001209050600060486000613a5c3390565b6001600160a01b031681526020810191909152604001600020549050613a82838361154c565b613a9e5760405162461bcd60e51b815260040161078f90614981565b83613aa9868361486f565b1115613ac75760405162461bcd60e51b815260040161078f90614a04565b613ad13386612b8f565b613adb3386613094565b613ae53386610a4d565b613af0338287613b22565b60405185815233907f943c724b337822464f019ef425f7d5b1dd7ca039317dabe7446a630a6b8236d3906020016120a5565b613b2c818361486f565b6001600160a01b03808516600090815260486020908152604091829020938455426001909401939093556033548151632192ab5d60e11b8152915192169263432556ba926004808401938290030181865afa158015613b8f573d6000803e3d6000fd5b505050506040513d601f19601f82011682018060405250810190613bb39190614748565b6040516340c10f1960e01b81526001600160a01b0385811660048301526024820184905291909116906340c10f1990604401600060405180830381600087803b158015613bff57600080fd5b505af1158015613c13573d6000803e3d6000fd5b50505050505050565b6049805460009182613c2d83614bb4565b9190505550604954905090565b600082613c478584613d74565b14949350505050565b604080516001600160a01b038481166024830152604480830185905283518084039091018152606490920183526020820180516001600160e01b031663095ea7b360e01b1790529151600092839290871691613cac9190614bcf565b6000604051808303816000865af19150503d8060008114613ce9576040519150601f19603f3d011682016040523d82523d6000602084013e613cee565b606091505b5091509150818015613d18575080511580613d18575080806020019051810190613d189190614765565b613d495760405162461bcd60e51b8152602060048201526002602482015261534160f01b604482015260640161078f565b5050505050565b6000806000613d5f8585613de0565b91509150613d6c81613e50565b509392505050565b600081815b8451811015613d6c576000858281518110613d9657613d96614beb565b60200260200101519050808311613dbc5760008381526020829052604090209250613dcd565b600081815260208490526040902092505b5080613dd881614bb4565b915050613d79565b600080825160411415613e175760208301516040840151606085015160001a613e0b8782858561400e565b94509450505050613e49565b825160401415613e415760208301516040840151613e368683836140fb565b935093505050613e49565b506000905060025b9250929050565b6000816004811115613e6457613e64614c01565b1415613e6d5750565b6001816004811115613e8157613e81614c01565b1415613ecf5760405162461bcd60e51b815260206004820152601860248201527f45434453413a20696e76616c6964207369676e61747572650000000000000000604482015260640161078f565b6002816004811115613ee357613ee3614c01565b1415613f315760405162461bcd60e51b815260206004820152601f60248201527f45434453413a20696e76616c6964207369676e6174757265206c656e67746800604482015260640161078f565b6003816004811115613f4557613f45614c01565b1415613f9e5760405162461bcd60e51b815260206004820152602260248201527f45434453413a20696e76616c6964207369676e6174757265202773272076616c604482015261756560f01b606482015260840161078f565b6004816004811115613fb257613fb2614c01565b141561400b5760405162461bcd60e51b815260206004820152602260248201527f45434453413a20696e76616c6964207369676e6174757265202776272076616c604482015261756560f01b606482015260840161078f565b50565b6000807f7fffffffffffffffffffffffffffffff5d576e7357a4501ddfe92f46681b20a083111561404557506000905060036140f2565b8460ff16601b1415801561405d57508460ff16601c14155b1561406e57506000905060046140f2565b6040805160008082526020820180845289905260ff881692820192909252606081018690526080810185905260019060a0016020604051602081039080840390855afa1580156140c2573d6000803e3d6000fd5b5050604051601f1901519150506001600160a01b0381166140eb576000600192509250506140f2565b9150600090505b94509492505050565b6000806001600160ff1b0383168161411860ff86901c601b61486f565b90506141268782888561400e565b935093505050935093915050565b60006020828403121561414657600080fd5b5035919050565b634e487b7160e01b600052604160045260246000fd5b604051601f8201601f1916810167ffffffffffffffff8111828210171561418c5761418c61414d565b604052919050565b600082601f8301126141a557600080fd5b8135602067ffffffffffffffff8211156141c1576141c161414d565b8160051b6141d0828201614163565b92835284810182019282810190878511156141ea57600080fd5b83870192505b84831015614209578235825291830191908301906141f0565b979650505050505050565b60008060006060848603121561422957600080fd5b833567ffffffffffffffff81111561424057600080fd5b61424c86828701614194565b9660208601359650604090950135949350505050565b6001600160a01b038116811461400b57600080fd5b803561428281614262565b919050565b6000806040838503121561429a57600080fd5b82356142a581614262565b946020939093013593505050565b6000602082840312156142c557600080fd5b8135610e7481614262565b801515811461400b57600080fd5b6000806000606084860312156142f357600080fd5b83356142fe81614262565b9250602084013561430e816142d0565b9150604084013561431e81614262565b809150509250925092565b6000806040838503121561433c57600080fd5b50508035926020909101359150565b6000806040838503121561435e57600080fd5b823567ffffffffffffffff81111561437557600080fd5b61438185828601614194565b95602094909401359450505050565b600080600080608085870312156143a657600080fd5b8435935060208501359250604085013567ffffffffffffffff8111156143cb57600080fd5b6143d787828801614194565b92505060608501356143e881614262565b939692955090935050565b60008060006060848603121561440857600080fd5b83359250602084013567ffffffffffffffff81111561442657600080fd5b61443286828701614194565b925050604084013590509250925092565b600082601f83011261445457600080fd5b813567ffffffffffffffff81111561446e5761446e61414d565b614481601f8201601f1916602001614163565b81815284602083860101111561449657600080fd5b816020850160208301376000918101602001919091529392505050565b60008060008060008060008060006101208a8c0312156144d257600080fd5b89356144dd81614262565b985060208a0135975060408a0135965060608a01356144fb81614262565b955060808a0135945060a08a013567ffffffffffffffff8082111561451f57600080fd5b61452b8d838e01614194565b955061453960c08d01614277565b945060e08c013593506101008c013591508082111561455757600080fd5b506145648c828d01614443565b9150509295985092959850929598565b6000806000806080858703121561458a57600080fd5b843593506020850135925060408501356145a381614262565b9150606085013567ffffffffffffffff8111156145bf57600080fd5b6145cb87828801614443565b91505092959194509250565b6000806000806000806000806000806101408b8d0312156145f757600080fd5b8a3567ffffffffffffffff81111561460e57600080fd5b61461a8d828e01614194565b9d60208d01359d5060408d01359c60608101359c5060808101359b5060a08101359a5060c0810135995060e081013598506101008101359750610120013595509350505050565b60008060006060848603121561467657600080fd5b8335925060208401359150604084013567ffffffffffffffff81111561469b57600080fd5b6146a786828701614194565b9150509250925092565b634e487b7160e01b600052601160045260246000fd5b6000828210156146d9576146d96146b1565b500390565b60208082526044908201527f4d6f72706865724272696467653a2046756e6374696f6e2063616e206f6e6c7960408201527f2062652063616c6c65642069662073696465636861696e20697320696e61637460608201526334bb329760e11b608082015260a00190565b60006020828403121561475a57600080fd5b8151610e7481614262565b60006020828403121561477757600080fd5b8151610e74816142d0565b6020808252601e908201527f4d6f72706865724272696467653a205573657220697320626c6f636b65640000604082015260600190565b60208082526031908201527f4d6f72706865724272696467653a205265636f766572792066756e6374696f6e6040820152701cc8185c99481b9bdd08195b98589b1959607a1b606082015260800190565b60208082526023908201527f4d6f72706865724272696467653a204d65726b6c652070726f6f66206661696c60408201526232b21760e91b606082015260800190565b60008261486a57634e487b7160e01b600052601260045260246000fd5b500490565b60008219821115614882576148826146b1565b500190565b60208082526021908201527f4d6f72706865724272696467653a205065726d697373696f6e2064656e6965646040820152601760f91b606082015260800190565b6000602082840312156148da57600080fd5b5051919050565b60208082526024908201527f4d6f72706865724272696467653a20496e73756666696369656e742062616c616040820152633731b29760e11b606082015260800190565b60609690961b6001600160601b03191686526014860194909452603485019290925260548401526074830152609482015260b40190565b60609390931b6001600160601b03191683526014830191909152603482015260540190565b60208082526059908201527f4d6f72706865724272696467653a204d65726b6c652050726f6f66206661696c60408201527f65642e20506c65617365206d616b65207375726520796f7520656e746572656460608201527f2074686520636f727265637420636c61696d206c696d69742e00000000000000608082015260a00190565b60208082526042908201527f4d6f72706865724272696467653a20546f6b656e20616d6f756e74206578636560408201527f65647320746f6b656e2064656c65746564206f6e206c696e6b65642063686169606082015261371760f11b608082015260a00190565b81516001600160a01b03908116825260208084015182169083015260408084015162ffffff16908301526060808401518216908301526080808401519083015260a0838101519083015260c0808401519083015260e09283015116918101919091526101000190565b60005b83811015614af0578181015183820152602001614ad8565b83811115610fb55750506000910152565b87815286602082015285604082015284606082015283608082015260018060a01b03831660a082015260e060c0820152600082518060e0840152610100614b4e8282860160208801614ad5565b80601f19601f8401168501019250505098975050505050505050565b6001600160a01b03999099168952602089019790975260408801959095526060870193909352608086019190915260a085015260c084015260e08301526101008201526101200190565b6000600019821415614bc857614bc86146b1565b5060010190565b60008251614be1818460208701614ad5565b9190910192915050565b634e487b7160e01b600052603260045260246000fd5b634e487b7160e01b600052602160045260246000fdfec08f7188394b31596c538860a69934f466a85ebc66fc5d1d967ccfaef4a6bdaba26469706673582212208f13436050171f053d2b1c4979c9bd8117e72aab95b418a90fd06d3b5efcef8964736f6c634300080b0033",
  "immutableReferences": {},
  "source": "// ------------------------------------------------------------------------\r\n// MorpherBridge\r\n// Handles deposit to and withdraws from the side chain, writing of the merkle\r\n// root to the main chain by the side chain operator, and enforces a rolling 24 hours\r\n// token withdraw limit from side chain to main chain.\r\n// If side chain operator doesn't write a merkle root hash to main chain for more than\r\n// 72 hours positions and balaces from side chain can be transferred to main chain.\r\n// ------------------------------------------------------------------------\r\n//SPDX-License-Identifier: GPLv3\r\npragma solidity 0.8.11;\r\n\r\nimport \"./MorpherState.sol\";\r\nimport \"./MorpherUserBlocking.sol\";\r\nimport \"./MorpherAccessControl.sol\";\r\nimport \"@openzeppelin/contracts-upgradeable/utils/cryptography/MerkleProofUpgradeable.sol\";\r\nimport \"@openzeppelin/contracts-upgradeable/proxy/utils/Initializable.sol\";\r\nimport \"@openzeppelin/contracts-upgradeable/utils/ContextUpgradeable.sol\";\r\nimport \"@openzeppelin/contracts-upgradeable/utils/cryptography/ECDSAUpgradeable.sol\";\r\nimport \"./MorpherTradeEngine.sol\";\r\n\r\nimport '@uniswap/v3-periphery/contracts/interfaces/ISwapRouter.sol';\r\nimport '@uniswap/v3-periphery/contracts/libraries/TransferHelper.sol';\r\nimport '@uniswap/v3-periphery/contracts/interfaces/external/IWETH9.sol';\r\n\r\ncontract MorpherBridge is Initializable, ContextUpgradeable {\r\n\r\n    using ECDSAUpgradeable for bytes32;\r\n\r\n\r\n    MorpherState state;\r\n    MorpherBridge previousBridge;\r\n\r\n    uint256 public withdrawalLimitPerUserDaily; //200k MPH per day\r\n    uint256 public withdrawalLimitPerUserMonthly; //1M MPH per month\r\n    uint256 public withdrawalLimitPerUserYearly; //5M MPH per year\r\n\r\n    uint256 public withdrawalLimitGlobalDaily; \r\n    uint256 public withdrawalLimitGlobalMonthly;\r\n    uint256 public withdrawalLimitGlobalYearly;\r\n    \r\n    mapping(address => mapping(uint256 => uint256)) public withdrawalPerUserPerDay; //[address][day] = withdrawalAmount\r\n    mapping(address => mapping(uint256 => uint256)) public withdrawalPerUserPerMonth; //[address][month] = withdrawalAmount\r\n    mapping(address => mapping(uint256 => uint256)) public withdrawalPerUserPerYear; //[address][year] = withdrawalAmount\r\n\r\n    mapping(uint256 => uint256) public withdrawalsGlobalDaily;\r\n    mapping(uint256 => uint256) public withdrawalsGlobalMonthly;\r\n    mapping(uint256 => uint256) public withdrawalsGlobalYearly;\r\n\r\n    bytes32 public constant ADMINISTRATOR_ROLE = keccak256(\"ADMINISTRATOR_ROLE\");\r\n    bytes32 public constant SIDECHAINOPERATOR_ROLE = keccak256(\"SIDECHAINOPERATOR_ROLE\");\r\n\r\n    struct WithdrawalDataStruct {\r\n        bytes32 merkleRoot;\r\n        uint256 lastUpdatedAt;\r\n    }\r\n\r\n    WithdrawalDataStruct public withdrawalData;\r\n\r\n    uint256 public inactivityPeriod;\r\n    bool public recoveryEnabled;\r\n    mapping(bytes32 => bool) public claimFromInactivity;\r\n\r\n    ISwapRouter public swapRouter;\r\n\r\n    address public constant WETH9 = 0xC02aaA39b223FE8D0A0e5C4F27eAD9083C756Cc2;\r\n\r\n    // For this example, we will set the pool fee to 0.3%.\r\n    uint24 public constant poolFee = 3000;\r\n\r\n\r\n    struct TokensTransferredStruct {\r\n        uint256 amount;\r\n        uint256 lastTransferAt;\r\n    }\r\n    mapping(address => mapping(uint => TokensTransferredStruct)) public tokenSentToLinkedChain;\r\n    mapping(address => TokensTransferredStruct) public tokenClaimedOnThisChain;\r\n\r\n    uint256 public bridgeNonce;\r\n\r\n    event TransferToLinkedChain(\r\n        address indexed from,\r\n        uint256 tokens,\r\n        uint256 totalTokenSent,\r\n        uint256 timeStamp,\r\n        uint256 transferNonce,\r\n        uint256 targetChainId,\r\n        bytes32 indexed transferHash\r\n    );\r\n    event TransferToLinkedChainAndWithdrawTo(\r\n        address indexed from,\r\n        uint256 tokens,\r\n        uint256 totalTokenSent,\r\n        uint256 timeStamp,\r\n        uint256 transferNonce,\r\n        uint256 targetChainId,\r\n        address destinationAddress,\r\n        bytes userSigature,\r\n        bytes32 indexed transferHash\r\n    );\r\n    event TrustlessWithdrawFromSideChain(address indexed from, uint256 tokens);\r\n    event OperatorChainTransfer(address indexed from, uint256 tokens, bytes32 sidechainTransactionHash);\r\n    event ClaimFailedTransferToSidechain(address indexed from, uint256 tokens);\r\n    event PositionRecoveryFromSideChain(address indexed from, bytes32 positionHash);\r\n    event TokenRecoveryFromSideChain(address indexed from, bytes32 positionHash);\r\n    event SideChainMerkleRootUpdated(bytes32 _rootHash);\r\n    event WithdrawLimitReset();\r\n    event WithdrawLimitChanged(uint256 _withdrawLimit);\r\n    event WithdrawLimitDailyPerUserChanged(uint256 _oldLimit, uint256 _newLimit);\r\n    event WithdrawLimitMonthlyPerUserChanged(uint256 _oldLimit, uint256 _newLimit);\r\n    event WithdrawLimitYearlyPerUserChanged(uint256 _oldLimit, uint256 _newLimit);\r\n    event WithdrawLimitDailyGlobalChanged(uint256 _oldLimit, uint256 _newLimit);\r\n    event WithdrawLimitMonthlyGlobalChanged(uint256 _oldLimit, uint256 _newLimit);\r\n    event WithdrawLimitYearlyGlobalChanged(uint256 _oldLimit, uint256 _newLimit);\r\n    event LinkState(address _address);\r\n\r\n    function initialize(address _stateAddress, bool _recoveryEnabled, ISwapRouter _swapRouter) public initializer {\r\n        state = MorpherState(_stateAddress);\r\n        recoveryEnabled = _recoveryEnabled;\r\n        withdrawalLimitPerUserDaily = 200000 * (10**18); //200k MPH per day\r\n        withdrawalLimitPerUserMonthly = 1000000 * (10 ** 18); //1M MPH per month\r\n        withdrawalLimitPerUserYearly = 5000000 * (10 ** 18); //5M MPH per year\r\n\r\n        //TODO: Adjust limits globally\r\n        withdrawalLimitGlobalDaily = 200000 * (10**18); //200k MPH per day\r\n        withdrawalLimitGlobalMonthly = 1000000 * (10 ** 18); //1M MPH per month\r\n        withdrawalLimitGlobalYearly = 5000000 * (10 ** 18); //5M MPH per year\r\n        inactivityPeriod = 3 days;\r\n        swapRouter = _swapRouter;\r\n    }\r\n\r\n    modifier sideChainInactive {\r\n        require(block.timestamp - inactivityPeriod > withdrawalData.lastUpdatedAt, \"MorpherBridge: Function can only be called if sidechain is inactive.\");\r\n        _;\r\n    }\r\n\r\n    modifier onlyRecoveryEnabled() {\r\n        require(recoveryEnabled, \"MorpherBridge: Recovery functions are not enabled\");\r\n        _;\r\n    }\r\n\r\n    modifier userNotBlocked {\r\n        require(!MorpherUserBlocking(state.morpherUserBlockingAddress()).userIsBlocked(_msgSender()), \"MorpherBridge: User is blocked\");\r\n        _;\r\n    }\r\n\r\n    modifier onlyRole(bytes32 role) {\r\n        require(MorpherAccessControl(state.morpherAccessControlAddress()).hasRole(role, _msgSender()), \"MorpherBridge: Permission denied.\");\r\n        _;\r\n    }\r\n    \r\n    // ------------------------------------------------------------------------\r\n    // Links Token Contract with State\r\n    // ------------------------------------------------------------------------\r\n    function setMorpherState(address _stateAddress) public onlyRole(ADMINISTRATOR_ROLE) {\r\n        state = MorpherState(_stateAddress);\r\n        emit LinkState(_stateAddress);\r\n    }\r\n\r\n\r\n    function setInactivityPeriod(uint256 _periodInSeconds) public onlyRole(ADMINISTRATOR_ROLE) {\r\n        inactivityPeriod = _periodInSeconds;\r\n    }\r\n\r\n    function updateSideChainMerkleRoot(bytes32 _rootHash) public onlyRole(SIDECHAINOPERATOR_ROLE) {\r\n        withdrawalData.merkleRoot = _rootHash;\r\n        withdrawalData.lastUpdatedAt = block.timestamp;\r\n        emit SideChainMerkleRootUpdated(_rootHash);\r\n    }\r\n\r\n    function updateWithdrawLimitPerUserDaily(uint256 _withdrawLimit) public onlyRole(SIDECHAINOPERATOR_ROLE) {\r\n        emit WithdrawLimitDailyPerUserChanged(withdrawalLimitPerUserDaily, _withdrawLimit);\r\n        withdrawalLimitPerUserDaily = _withdrawLimit;\r\n    }\r\n\r\n    function updateWithdrawLimitPerUserMonthly(uint256 _withdrawLimit) public onlyRole(SIDECHAINOPERATOR_ROLE) {\r\n        emit WithdrawLimitMonthlyPerUserChanged(withdrawalLimitPerUserMonthly, _withdrawLimit);\r\n        withdrawalLimitPerUserMonthly = _withdrawLimit;\r\n    }\r\n    function updateWithdrawLimitPerUserYearly(uint256 _withdrawLimit) public onlyRole(SIDECHAINOPERATOR_ROLE) {\r\n        emit WithdrawLimitYearlyPerUserChanged(withdrawalLimitPerUserYearly, _withdrawLimit);\r\n        withdrawalLimitPerUserYearly = _withdrawLimit;\r\n    }\r\n\r\n    function updateWithdrawLimitGlobalDaily(uint256 _withdrawLimit) public onlyRole(SIDECHAINOPERATOR_ROLE) {\r\n        emit WithdrawLimitDailyGlobalChanged(withdrawalLimitGlobalDaily, _withdrawLimit);\r\n        withdrawalLimitGlobalDaily = _withdrawLimit;\r\n    }\r\n\r\n    function updateWithdrawLimitGlobalMonthly(uint256 _withdrawLimit) public onlyRole(SIDECHAINOPERATOR_ROLE) {\r\n        emit WithdrawLimitMonthlyGlobalChanged(withdrawalLimitGlobalMonthly, _withdrawLimit);\r\n        withdrawalLimitGlobalMonthly = _withdrawLimit;\r\n    }\r\n    function updateWithdrawLimitGlobalYearly(uint256 _withdrawLimit) public onlyRole(SIDECHAINOPERATOR_ROLE) {\r\n        emit WithdrawLimitYearlyGlobalChanged(withdrawalLimitGlobalYearly, _withdrawLimit);\r\n        withdrawalLimitGlobalYearly = _withdrawLimit;\r\n    }\r\n\r\n\r\n    function isNotDailyLimitExceeding(address _usr, uint256 _amount) public view returns(bool) {\r\n        return (\r\n            (withdrawalPerUserPerDay[_usr][block.timestamp / 1 days] + _amount <= withdrawalLimitPerUserDaily) && \r\n            (withdrawalsGlobalDaily[block.timestamp / 1 days] + _amount <= withdrawalLimitGlobalDaily)\r\n        );\r\n    }\r\n    function isNotMonthlyLimitExceeding(address _usr, uint256 _amount) public view returns(bool) {\r\n        return (\r\n            (withdrawalPerUserPerMonth[_usr][block.timestamp / 30 days] + _amount <= withdrawalLimitPerUserMonthly) &&\r\n            (withdrawalsGlobalMonthly[block.timestamp / 30 days] + _amount <= withdrawalLimitGlobalMonthly)\r\n        );\r\n    }\r\n    function isNotYearlyLimitExceeding(address _usr, uint256 _amount) public view returns(bool) {\r\n        return (\r\n            (withdrawalPerUserPerYear[_usr][block.timestamp / 365 days] + _amount <= withdrawalLimitPerUserYearly) &&\r\n            (withdrawalsGlobalYearly[block.timestamp / 365 days] + _amount <= withdrawalLimitGlobalYearly)\r\n        );\r\n    }\r\n\r\n    function verifyUpdateDailyLimit(address _usr, uint256 _amount) public {\r\n        require(isNotDailyLimitExceeding(_usr, _amount), \"MorpherBridge: Withdrawal Amount exceeds daily limit\");\r\n        withdrawalPerUserPerDay[_usr][block.timestamp / 1 days] += _amount;\r\n        withdrawalsGlobalDaily[block.timestamp / 1 days] += _amount;\r\n    }\r\n\r\n    function verifyUpdateMonthlyLimit(address _usr, uint256 _amount) public {\r\n        require(isNotMonthlyLimitExceeding(_usr, _amount), \"MorpherBridge: Withdrawal Amount exceeds monthly limit\");\r\n        withdrawalPerUserPerMonth[_usr][block.timestamp / 30 days] += _amount;\r\n        withdrawalsGlobalMonthly[block.timestamp / 30 days] += _amount;\r\n    }\r\n\r\n    function verifyUpdateYearlyLimit(address _usr, uint256 _amount) public {\r\n        require(isNotYearlyLimitExceeding(_usr, _amount), \"MorpherBridge: Withdrawal Amount exceeds yearly limit\");\r\n        withdrawalPerUserPerYear[_usr][block.timestamp / 365 days] += _amount;\r\n        withdrawalsGlobalYearly[block.timestamp / 365 days] += _amount;\r\n    }\r\n\r\n    \r\n    /**\r\n    * stageTokensForTransfer [chain A] => claimTokens [chain B]\r\n    *     former: transferToSideChain(uint256 _tokens)\r\n    * \r\n    * Tokens are burned on chain A and then, after the merkle root is written, \r\n    * can be credited on chain B through claimStagedTokens(...) below\r\n    *\r\n    */\r\n    function stageTokensForTransfer(uint256 _tokens, uint _targetChainId) public userNotBlocked {\r\n        require(_tokens >= 0, \"MorpherBridge: Amount of tokens must be positive.\");\r\n        require(MorpherToken(state.morpherTokenAddress()).balanceOf(_msgSender()) >= _tokens, \"MorpherBridge: Insufficient balance.\");\r\n        verifyUpdateDailyLimit(_msgSender(), _tokens);\r\n        verifyUpdateMonthlyLimit(_msgSender(), _tokens);\r\n        verifyUpdateYearlyLimit(_msgSender(), _tokens);\r\n        MorpherToken(state.morpherTokenAddress()).burn(_msgSender(), _tokens);\r\n        uint256 _newTokenSentToLinkedChain = tokenSentToLinkedChain[_msgSender()][_targetChainId].amount + _tokens;\r\n        uint256 _transferNonce = getAndIncreaseBridgeNonce();\r\n        uint256 _timeStamp = block.timestamp;\r\n        bytes32 _transferHash = keccak256(\r\n            abi.encodePacked(\r\n                _msgSender(),\r\n                _tokens,\r\n                _newTokenSentToLinkedChain,\r\n                _timeStamp,\r\n                _targetChainId,\r\n                _transferNonce\r\n            )\r\n        );\r\n        tokenSentToLinkedChain[_msgSender()][_targetChainId].amount =  _newTokenSentToLinkedChain;\r\n        tokenSentToLinkedChain[_msgSender()][_targetChainId].lastTransferAt = block.timestamp;\r\n        emit TransferToLinkedChain(_msgSender(), _tokens, _newTokenSentToLinkedChain, _timeStamp, _transferNonce, _targetChainId, _transferHash);\r\n    }\r\n    \r\n    /**\r\n    * stageTokensForTransfer [chain A] => claimTokens [chain B]\r\n    *     former: transferToSideChain(uint256 _tokens)\r\n    * \r\n    * Tokens are burned on chain A and then, after the merkle root is written, \r\n    * can be credited on chain B through claimStagedTokens(...) below\r\n    *\r\n    */\r\n    function stageTokensForTransfer(uint256 _tokens, uint _targetChainId, address _autoWithdrawalAddressTo, bytes memory _signature) public userNotBlocked {\r\n        require(_tokens >= 0, \"MorpherBridge: Amount of tokens must be positive.\");\r\n        require(MorpherToken(state.morpherTokenAddress()).balanceOf(_msgSender()) >= _tokens, \"MorpherBridge: Insufficient balance.\");\r\n        verifyUpdateDailyLimit(_msgSender(), _tokens);\r\n        verifyUpdateMonthlyLimit(_msgSender(), _tokens);\r\n        verifyUpdateYearlyLimit(_msgSender(), _tokens);\r\n        MorpherToken(state.morpherTokenAddress()).burn(_msgSender(), _tokens);\r\n        uint256 _newTokenSentToLinkedChain = tokenSentToLinkedChain[_msgSender()][_targetChainId].amount + _tokens;\r\n        uint256 _transferNonce = getAndIncreaseBridgeNonce();\r\n        uint256 _timeStamp = block.timestamp;\r\n        bytes32 _transferHash = keccak256(\r\n            abi.encodePacked(\r\n                _msgSender(),\r\n                _tokens,\r\n                _newTokenSentToLinkedChain,\r\n                _timeStamp,\r\n                _targetChainId,\r\n                _transferNonce\r\n            )\r\n        );\r\n        tokenSentToLinkedChain[_msgSender()][_targetChainId].amount =  _newTokenSentToLinkedChain;\r\n        tokenSentToLinkedChain[_msgSender()][_targetChainId].lastTransferAt = block.timestamp;\r\n        emit TransferToLinkedChainAndWithdrawTo(_msgSender(), _tokens, _newTokenSentToLinkedChain, _timeStamp, _transferNonce, _targetChainId, _autoWithdrawalAddressTo, _signature, _transferHash);\r\n    }\r\n    \r\n    // ------------------------------------------------------------------------\r\n    // claimStagedTokens(...) former: trustlessTransferFromSideChain(uint256 _numOfToken, uint256 _claimLimit, bytes32[] memory _proof)\r\n    // Performs a merkle proof on the number of token that have been burned by the user on the side chain.\r\n    // If the number of token claimed on the main chain is less than the number of burned token on the side chain\r\n    // the difference (or less) can be claimed on the main chain.\r\n    // ------------------------------------------------------------------------\r\n    function claimStagedTokens(uint256 _numOfToken, uint256 _claimLimit, bytes32[] memory _proof) public userNotBlocked {\r\n        bytes32 leaf = keccak256(abi.encodePacked(_msgSender(), _claimLimit, block.chainid));\r\n        uint256 _tokenClaimed = tokenClaimedOnThisChain[_msgSender()].amount;  \r\n        require(mProof(_proof, leaf), \"MorpherBridge: Merkle Proof failed. Please make sure you entered the correct claim limit.\");\r\n        require(_tokenClaimed + _numOfToken <= _claimLimit, \"MorpherBridge: Token amount exceeds token deleted on linked chain.\"); \r\n\r\n        verifyUpdateDailyLimit(_msgSender(), _numOfToken);\r\n        verifyUpdateMonthlyLimit(_msgSender(), _numOfToken);\r\n        verifyUpdateYearlyLimit(_msgSender(), _numOfToken);        \r\n\r\n        _chainTransfer(_msgSender(), _tokenClaimed, _numOfToken);   \r\n        emit TrustlessWithdrawFromSideChain(_msgSender(), _numOfToken);\r\n    }\r\n    \r\n    // ------------------------------------------------------------------------\r\n    // claimStagedTokens(...) former: trustlessTransferFromSideChain(uint256 _numOfToken, uint256 _claimLimit, bytes32[] memory _proof)\r\n    // Performs a merkle proof on the number of token that have been burned by the user on the side chain.\r\n    // If the number of token claimed on the main chain is less than the number of burned token on the side chain\r\n    // the difference (or less) can be claimed on the main chain.\r\n    // ------------------------------------------------------------------------\r\n    function claimStagedTokensConvertAndSend(uint256 _numOfToken, uint256 _claimLimit, bytes32[] memory _proof, address payable _finalOutput) public userNotBlocked {\r\n        // msg.sender must approve this contract\r\n        \r\n        bytes32 leaf = keccak256(abi.encodePacked(_msgSender(), _claimLimit, block.chainid));\r\n        uint256 _tokenClaimed = tokenClaimedOnThisChain[_msgSender()].amount;  \r\n        require(mProof(_proof, leaf), \"MorpherBridge: Merkle Proof failed. Please make sure you entered the correct claim limit.\");\r\n        require(_tokenClaimed + _numOfToken <= _claimLimit, \"MorpherBridge: Token amount exceeds token deleted on linked chain.\"); \r\n\r\n        verifyUpdateDailyLimit(_msgSender(), _numOfToken);\r\n        verifyUpdateMonthlyLimit(_msgSender(), _numOfToken);\r\n        verifyUpdateYearlyLimit(_msgSender(), _numOfToken);        \r\n\r\n        _chainTransfer(address(this), _tokenClaimed, _numOfToken); //instead of transferring it to the user, transfer it to the bridge itself\r\n        emit TrustlessWithdrawFromSideChain(_msgSender(), _numOfToken);\r\n        // Transfer the specified amount of DAI to this contract.\r\n        // Approve the router to spend DAI.\r\n        TransferHelper.safeApprove(state.morpherTokenAddress(), address(swapRouter), _numOfToken);\r\n\r\n        // Naively set amountOutMinimum to 0. In production, use an oracle or other data source to choose a safer value for amountOutMinimum.\r\n        // We also set the sqrtPriceLimitx96 to be 0 to ensure we swap our exact input amount.\r\n        ISwapRouter.ExactInputSingleParams memory params =\r\n            ISwapRouter.ExactInputSingleParams({\r\n                tokenIn: state.morpherTokenAddress(),\r\n                tokenOut: WETH9,\r\n                fee: poolFee,\r\n                recipient: address(this),\r\n                deadline: block.timestamp,\r\n                amountIn: _numOfToken,\r\n                amountOutMinimum: 0,\r\n                sqrtPriceLimitX96: 0\r\n            });\r\n\r\n        // The call to `exactInputSingle` executes the swap.\r\n        uint amountOut = swapRouter.exactInputSingle(params);\r\n        //weth -> eth conversion\r\n        IWETH9(WETH9).withdraw(amountOut);\r\n        _finalOutput.transfer(amountOut);\r\n    }\r\n    // ------------------------------------------------------------------------\r\n    // claimStagedTokens(...) former: trustlessTransferFromSideChain(uint256 _numOfToken, uint256 _claimLimit, bytes32[] memory _proof)\r\n    // Performs a merkle proof on the number of token that have been burned by the user on the side chain.\r\n    // If the number of token claimed on the main chain is less than the number of burned token on the side chain\r\n    // the difference (or less) can be claimed on the main chain.\r\n    // ------------------------------------------------------------------------\r\n    function claimStagedTokensConvertAndSendForUser(address _usrAddr, uint256 _numOfToken, uint256 fee, address feeRecipient, uint256 _claimLimit, bytes32[] memory _proof, address payable _finalOutput, bytes32 _rootHash, bytes memory _userConfirmationSignature) public onlyRole(SIDECHAINOPERATOR_ROLE) {\r\n        // msg.sender must approve this contract\r\n        require(keccak256(abi.encodePacked(_numOfToken,_finalOutput,block.chainid)).recover(_userConfirmationSignature) == _usrAddr, \"MorpherBridge: Users signature does not validate\");\r\n        updateSideChainMerkleRoot(_rootHash);\r\n        bytes32 leaf = keccak256(abi.encodePacked(_msgSender(), _claimLimit, block.chainid));\r\n        uint256 _tokenClaimed = tokenClaimedOnThisChain[_usrAddr].amount;  \r\n        require(mProof(_proof, leaf), \"MorpherBridge: Merkle Proof failed. Please make sure you entered the correct claim limit.\");\r\n        require(_tokenClaimed + _numOfToken <= _claimLimit, \"MorpherBridge: Token amount exceeds token deleted on linked chain.\"); \r\n\r\n        verifyUpdateDailyLimit(_usrAddr, _numOfToken); //for usrAddr\r\n        verifyUpdateMonthlyLimit(_usrAddr, _numOfToken);\r\n        verifyUpdateYearlyLimit(_usrAddr, _numOfToken);        \r\n\r\n        _chainTransfer(address(this), _tokenClaimed, _numOfToken); //instead of transferring it to the user, transfer it to the bridge itself\r\n        emit TrustlessWithdrawFromSideChain(_usrAddr, _numOfToken);\r\n\r\n        /**\r\n         * Transfer the Fee away\r\n         */\r\n        MorpherToken(state.morpherTokenAddress()).transferFrom(address(this),feeRecipient, fee);\r\n        _numOfToken -= fee;\r\n\r\n\r\n        // Transfer the specified amount of DAI to this contract.\r\n        // Approve the router to spend DAI.\r\n        TransferHelper.safeApprove(state.morpherTokenAddress(), address(swapRouter), _numOfToken);\r\n\r\n        // Naively set amountOutMinimum to 0. In production, use an oracle or other data source to choose a safer value for amountOutMinimum.\r\n        // We also set the sqrtPriceLimitx96 to be 0 to ensure we swap our exact input amount.\r\n        ISwapRouter.ExactInputSingleParams memory params =\r\n            ISwapRouter.ExactInputSingleParams({\r\n                tokenIn: state.morpherTokenAddress(),\r\n                tokenOut: WETH9,\r\n                fee: poolFee,\r\n                recipient: address(this),\r\n                deadline: block.timestamp,\r\n                amountIn: _numOfToken,\r\n                amountOutMinimum: 0,\r\n                sqrtPriceLimitX96: 0\r\n            });\r\n\r\n        // The call to `exactInputSingle` executes the swap.\r\n        uint amountOut = swapRouter.exactInputSingle(params);\r\n\r\n        //weth -> eth conversion\r\n        IWETH9(WETH9).withdraw(amountOut);\r\n        _finalOutput.transfer(amountOut);\r\n    }\r\n    \r\n    // ------------------------------------------------------------------------\r\n    // _chainTransfer(address _address, uint256 _tokenClaimed, uint256 _numOfToken)\r\n    // Creates token on the chain for the user after proving their distruction on the \r\n    // linked chain has been proven before \r\n    // ------------------------------------------------------------------------\r\n    function _chainTransfer(address _address, uint256 _tokenClaimed, uint256 _numOfToken) private {\r\n        tokenClaimedOnThisChain[_address].amount = _tokenClaimed + _numOfToken;\r\n        tokenClaimedOnThisChain[_address].lastTransferAt = block.timestamp;\r\n        MorpherToken(state.morpherTokenAddress()).mint(_address, _numOfToken);\r\n    }\r\n        \r\n    // ------------------------------------------------------------------------\r\n    // claimFailedTransferToSidechain(uint256 _wrongSideChainBalance, bytes32[] memory _proof)\r\n    // If token sent to side chain were not credited to the user on the side chain within inactivityPeriod\r\n    // they can reclaim the token on the main chain by submitting the proof that their\r\n    // side chain balance is less than the number of token sent from main chain.\r\n    // ------------------------------------------------------------------------\r\n    function claimFailedTransferToSidechain(uint256 _wrongSideChainBalance, bytes32[] memory _proof, uint256 _targetChainId) public userNotBlocked {\r\n        bytes32 leaf = keccak256(abi.encodePacked(_msgSender(), _wrongSideChainBalance));\r\n        require(block.timestamp > tokenSentToLinkedChain[_msgSender()][_targetChainId].lastTransferAt + inactivityPeriod, \"MorpherBridge: Failed deposits can only be claimed after inactivity period.\");\r\n        require(_wrongSideChainBalance < tokenSentToLinkedChain[_msgSender()][_targetChainId].amount, \"MorpherBridge: Other chain credit is greater equal to wrongSideChainBalance.\");\r\n       \r\n        require(mProof(_proof, leaf), \"MorpherBridge: Merkle Proof failed. Enter total amount of deposits on side chain.\");\r\n \r\n        uint256 _claimAmount = tokenSentToLinkedChain[_msgSender()][_targetChainId].amount - _wrongSideChainBalance;\r\n        tokenSentToLinkedChain[_msgSender()][_targetChainId].amount -=  _claimAmount;\r\n        tokenSentToLinkedChain[_msgSender()][_targetChainId].lastTransferAt = block.timestamp;\r\n        verifyUpdateDailyLimit(_msgSender(), _claimAmount);\r\n        verifyUpdateMonthlyLimit(_msgSender(), _claimAmount);\r\n        verifyUpdateYearlyLimit(_msgSender(), _claimAmount);         \r\n        MorpherToken(state.morpherTokenAddress()).mint(_msgSender(), _claimAmount);\r\n        emit ClaimFailedTransferToSidechain(_msgSender(), _claimAmount);\r\n    }\r\n\r\n    // ------------------------------------------------------------------------\r\n    // recoverPositionFromInactivity former recoverPositionFromSideChain(bytes32[] memory _proof, bytes32 _leaf, bytes32 _marketId, uint256 _timeStamp, uint256 _longShares, uint256 _shortShares, uint256 _meanEntryPrice, uint256 _meanEntrySpread, uint256 _meanEntryLeverage)\r\n    // Failsafe against side chain operator becoming inactive or withholding Times (Time withhold attack).\r\n    // After 72 hours of no update of the side chain merkle root users can withdraw their last recorded\r\n    // positions from side chain to main chain. Overwrites eventually existing position on main chain.\r\n    // ------------------------------------------------------------------------\r\n    function recoverPositionFromInactivity(\r\n        bytes32[] memory _proof,\r\n        bytes32 _leaf,\r\n        bytes32 _marketId,\r\n        uint256 _timeStamp,\r\n        uint256 _longShares,\r\n        uint256 _shortShares,\r\n        uint256 _meanEntryPrice,\r\n        uint256 _meanEntrySpread,\r\n        uint256 _meanEntryLeverage,\r\n        uint256 _liquidationPrice\r\n        ) public sideChainInactive userNotBlocked onlyRecoveryEnabled {\r\n        require(_leaf == MorpherTradeEngine(state.morpherTradeEngineAddress()).getPositionHash(_msgSender(), _marketId, _timeStamp, _longShares, _shortShares, _meanEntryPrice, _meanEntrySpread, _meanEntryLeverage, _liquidationPrice), \"MorpherBridge: leaf does not equal position hash.\");\r\n        require(claimFromInactivity[_leaf] == false, \"MorpherBridge: Position already transferred.\");\r\n        require(mProof(_proof,_leaf) == true, \"MorpherBridge: Merkle proof failed.\");\r\n        claimFromInactivity[_leaf] = true;\r\n        //todo: double positions clashing? \r\n        MorpherTradeEngine(state.morpherTradeEngineAddress()).setPosition(_msgSender(), _marketId, _timeStamp, _longShares, _shortShares, _meanEntryPrice, _meanEntrySpread, _meanEntryLeverage, _liquidationPrice);\r\n        emit PositionRecoveryFromSideChain(_msgSender(), _leaf);\r\n        // Remark: After resuming operations side chain operator has 72 hours to sync and eliminate transferred positions on side chain to avoid double spend\r\n    }\r\n\r\n    // ------------------------------------------------------------------------\r\n    // recoverTokenFromInactivity - former recoverTokenFromSideChain(bytes32[] memory _proof, bytes32 _leaf, uint256 _balance)\r\n    // Failsafe against side chain operator becoming inactive or withholding times (time withhold attack).\r\n    // After 72 hours of no update of the side chain merkle root users can withdraw their last recorded\r\n    // token balance from side chain to main chain.\r\n    // ------------------------------------------------------------------------\r\n    function recoverTokenFromInactivity(bytes32[] memory _proof, bytes32 _leaf, uint256 _balance) public sideChainInactive userNotBlocked onlyRecoveryEnabled {\r\n        // Require side chain root hash not set on Mainchain for more than 72 hours (=3 days)\r\n        require(_leaf == getBalanceHash(_msgSender(), _balance), \"MorpherBridge: Wrong balance.\");\r\n        require(claimFromInactivity[_leaf] == false, \"MorpherBridge: Token already transferred.\");\r\n        require(mProof(_proof,_leaf) == true, \"MorpherBridge: Merkle proof failed.\");\r\n        claimFromInactivity[_leaf] = true;\r\n\r\n        verifyUpdateDailyLimit(_msgSender(), _balance);\r\n        verifyUpdateMonthlyLimit(_msgSender(), _balance);\r\n        verifyUpdateYearlyLimit(_msgSender(), _balance); \r\n        \r\n        _chainTransfer(_msgSender(), tokenClaimedOnThisChain[_msgSender()].amount, _balance);\r\n        emit TokenRecoveryFromSideChain(_msgSender(), _leaf);\r\n        // Remark: Side chain operator must adjust side chain balances for token recoveries before restarting operations to avoid double spend\r\n    }\r\n\r\n    // ------------------------------------------------------------------------\r\n    // mProof(bytes32[] memory _proof, bytes32 _leaf)\r\n    // Computes merkle proof against the root hash of the sidechain stored in Morpher state\r\n    // ------------------------------------------------------------------------\r\n    function mProof(bytes32[] memory _proof, bytes32 _leaf) public view returns(bool _isTrue) {\r\n        return MerkleProofUpgradeable.verify(_proof, withdrawalData.merkleRoot, _leaf);\r\n    }\r\n\r\n    function getBalanceHash(address _address, uint256 _balance) public pure returns (bytes32 _hash) {\r\n        return keccak256(abi.encodePacked(_address, _balance));\r\n    }\r\n\r\n    function getAndIncreaseBridgeNonce() internal returns (uint256) {\r\n        bridgeNonce++;\r\n        return bridgeNonce;\r\n    }\r\n}\r\n",
  "sourcePath": "/home/thomas/MorpherProtocol/contracts/MorpherBridge.sol",
  "compiler": {
    "name": "solc",
    "version": "0.8.11+commit.d7f03943.Emscripten.clang"
  },
  "schemaVersion": "3.4.5",
  "updatedAt": "2022-03-22T14:55:31.977Z",
  "networkType": "ethereum",
  "devdoc": {
    "kind": "dev",
    "methods": {},
    "version": 1
  },
  "userdoc": {
    "kind": "user",
    "methods": {
      "stageTokensForTransfer(uint256,uint256)": {
        "notice": "stageTokensForTransfer [chain A] => claimTokens [chain B]     former: transferToSideChain(uint256 _tokens)  Tokens are burned on chain A and then, after the merkle root is written,  can be credited on chain B through claimStagedTokens(...) below"
      },
      "stageTokensForTransfer(uint256,uint256,address,bytes)": {
        "notice": "stageTokensForTransfer [chain A] => claimTokens [chain B]     former: transferToSideChain(uint256 _tokens)  Tokens are burned on chain A and then, after the merkle root is written,  can be credited on chain B through claimStagedTokens(...) below"
      }
    },
    "version": 1
  }
}