{
  "contractName": "MorpherBridge",
  "abi": [
    {
      "anonymous": false,
      "inputs": [
        {
          "indexed": true,
          "internalType": "address",
          "name": "from",
          "type": "address"
        },
        {
          "indexed": false,
          "internalType": "uint256",
          "name": "tokens",
          "type": "uint256"
        }
      ],
      "name": "ClaimFailedTransferToSidechain",
      "type": "event"
    },
    {
      "anonymous": false,
      "inputs": [
        {
          "indexed": false,
          "internalType": "address",
          "name": "_address",
          "type": "address"
        }
      ],
      "name": "LinkMorpherUserBlocking",
      "type": "event"
    },
    {
      "anonymous": false,
      "inputs": [
        {
          "indexed": false,
          "internalType": "address",
          "name": "_address",
          "type": "address"
        }
      ],
      "name": "LinkState",
      "type": "event"
    },
    {
      "anonymous": false,
      "inputs": [
        {
          "indexed": true,
          "internalType": "address",
          "name": "from",
          "type": "address"
        },
        {
          "indexed": false,
          "internalType": "uint256",
          "name": "tokens",
          "type": "uint256"
        },
        {
          "indexed": false,
          "internalType": "bytes32",
          "name": "sidechainTransactionHash",
          "type": "bytes32"
        }
      ],
      "name": "OperatorChainTransfer",
      "type": "event"
    },
    {
      "anonymous": false,
      "inputs": [
        {
          "indexed": true,
          "internalType": "address",
          "name": "from",
          "type": "address"
        },
        {
          "indexed": false,
          "internalType": "bytes32",
          "name": "positionHash",
          "type": "bytes32"
        }
      ],
      "name": "PositionRecoveryFromSideChain",
      "type": "event"
    },
    {
      "anonymous": false,
      "inputs": [
        {
          "indexed": false,
          "internalType": "bytes32",
          "name": "_rootHash",
          "type": "bytes32"
        }
      ],
      "name": "SideChainMerkleRootUpdated",
      "type": "event"
    },
    {
      "anonymous": false,
      "inputs": [
        {
          "indexed": true,
          "internalType": "address",
          "name": "from",
          "type": "address"
        },
        {
          "indexed": false,
          "internalType": "bytes32",
          "name": "positionHash",
          "type": "bytes32"
        }
      ],
      "name": "TokenRecoveryFromSideChain",
      "type": "event"
    },
    {
      "anonymous": false,
      "inputs": [
        {
          "indexed": true,
          "internalType": "address",
          "name": "from",
          "type": "address"
        },
        {
          "indexed": false,
          "internalType": "uint256",
          "name": "tokens",
          "type": "uint256"
        },
        {
          "indexed": false,
          "internalType": "uint256",
          "name": "totalTokenSent",
          "type": "uint256"
        },
        {
          "indexed": false,
          "internalType": "uint256",
          "name": "timeStamp",
          "type": "uint256"
        },
        {
          "indexed": false,
          "internalType": "uint256",
          "name": "transferNonce",
          "type": "uint256"
        },
        {
          "indexed": true,
          "internalType": "bytes32",
          "name": "transferHash",
          "type": "bytes32"
        }
      ],
      "name": "TransferToLinkedChain",
      "type": "event"
    },
    {
      "anonymous": false,
      "inputs": [
        {
          "indexed": true,
          "internalType": "address",
          "name": "from",
          "type": "address"
        },
        {
          "indexed": false,
          "internalType": "uint256",
          "name": "tokens",
          "type": "uint256"
        }
      ],
      "name": "TrustlessWithdrawFromSideChain",
      "type": "event"
    },
    {
      "anonymous": false,
      "inputs": [
        {
          "indexed": false,
          "internalType": "uint256",
          "name": "_withdrawLimit",
          "type": "uint256"
        }
      ],
      "name": "WithdrawLimitChanged",
      "type": "event"
    },
    {
      "anonymous": false,
      "inputs": [
        {
          "indexed": false,
          "internalType": "uint256",
          "name": "_oldLimit",
          "type": "uint256"
        },
        {
          "indexed": false,
          "internalType": "uint256",
          "name": "_newLimit",
          "type": "uint256"
        }
      ],
      "name": "WithdrawLimitDailyChanged",
      "type": "event"
    },
    {
      "anonymous": false,
      "inputs": [
        {
          "indexed": false,
          "internalType": "uint256",
          "name": "_oldLimit",
          "type": "uint256"
        },
        {
          "indexed": false,
          "internalType": "uint256",
          "name": "_newLimit",
          "type": "uint256"
        }
      ],
      "name": "WithdrawLimitMonthlyChanged",
      "type": "event"
    },
    {
      "anonymous": false,
      "inputs": [],
      "name": "WithdrawLimitReset",
      "type": "event"
    },
    {
      "anonymous": false,
      "inputs": [
        {
          "indexed": false,
          "internalType": "uint256",
          "name": "_oldLimit",
          "type": "uint256"
        },
        {
          "indexed": false,
          "internalType": "uint256",
          "name": "_newLimit",
          "type": "uint256"
        }
      ],
      "name": "WithdrawLimitYearlyChanged",
      "type": "event"
    },
    {
      "inputs": [],
      "name": "ADMINISTRATOR_ROLE",
      "outputs": [
        {
          "internalType": "bytes32",
          "name": "",
          "type": "bytes32"
        }
      ],
      "stateMutability": "view",
      "type": "function"
    },
    {
      "inputs": [],
      "name": "SIDECHAINOPERATOR_ROLE",
      "outputs": [
        {
          "internalType": "bytes32",
          "name": "",
          "type": "bytes32"
        }
      ],
      "stateMutability": "view",
      "type": "function"
    },
    {
      "inputs": [],
      "name": "recoveryEnabled",
      "outputs": [
        {
          "internalType": "bool",
          "name": "",
          "type": "bool"
        }
      ],
      "stateMutability": "view",
      "type": "function"
    },
    {
      "inputs": [],
      "name": "withdrawalLimitDaily",
      "outputs": [
        {
          "internalType": "uint256",
          "name": "",
          "type": "uint256"
        }
      ],
      "stateMutability": "view",
      "type": "function"
    },
    {
      "inputs": [],
      "name": "withdrawalLimitMonthly",
      "outputs": [
        {
          "internalType": "uint256",
          "name": "",
          "type": "uint256"
        }
      ],
      "stateMutability": "view",
      "type": "function"
    },
    {
      "inputs": [],
      "name": "withdrawalLimitYearly",
      "outputs": [
        {
          "internalType": "uint256",
          "name": "",
          "type": "uint256"
        }
      ],
      "stateMutability": "view",
      "type": "function"
    },
    {
      "inputs": [
        {
          "internalType": "address",
          "name": "",
          "type": "address"
        },
        {
          "internalType": "uint256",
          "name": "",
          "type": "uint256"
        }
      ],
      "name": "withdrawalPerDay",
      "outputs": [
        {
          "internalType": "uint256",
          "name": "",
          "type": "uint256"
        }
      ],
      "stateMutability": "view",
      "type": "function"
    },
    {
      "inputs": [
        {
          "internalType": "address",
          "name": "",
          "type": "address"
        },
        {
          "internalType": "uint256",
          "name": "",
          "type": "uint256"
        }
      ],
      "name": "withdrawalPerMonth",
      "outputs": [
        {
          "internalType": "uint256",
          "name": "",
          "type": "uint256"
        }
      ],
      "stateMutability": "view",
      "type": "function"
    },
    {
      "inputs": [
        {
          "internalType": "address",
          "name": "",
          "type": "address"
        },
        {
          "internalType": "uint256",
          "name": "",
          "type": "uint256"
        }
      ],
      "name": "withdrawalPerYear",
      "outputs": [
        {
          "internalType": "uint256",
          "name": "",
          "type": "uint256"
        }
      ],
      "stateMutability": "view",
      "type": "function"
    },
    {
      "inputs": [
        {
          "internalType": "address",
          "name": "_stateAddress",
          "type": "address"
        },
        {
          "internalType": "bool",
          "name": "_recoveryEnabled",
          "type": "bool"
        }
      ],
      "name": "initialize",
      "outputs": [],
      "stateMutability": "nonpayable",
      "type": "function"
    },
    {
      "inputs": [
        {
          "internalType": "address",
          "name": "_stateAddress",
          "type": "address"
        }
      ],
      "name": "setMorpherState",
      "outputs": [],
      "stateMutability": "nonpayable",
      "type": "function"
    },
    {
      "inputs": [],
      "name": "disableFastTransfers",
      "outputs": [],
      "stateMutability": "nonpayable",
      "type": "function"
    },
    {
      "inputs": [
        {
          "internalType": "bytes32",
          "name": "_rootHash",
          "type": "bytes32"
        }
      ],
      "name": "updateSideChainMerkleRoot",
      "outputs": [],
      "stateMutability": "nonpayable",
      "type": "function"
    },
    {
      "inputs": [],
      "name": "resetLast24HoursAmountWithdrawn",
      "outputs": [],
      "stateMutability": "nonpayable",
      "type": "function"
    },
    {
      "inputs": [
        {
          "internalType": "uint256",
          "name": "_withdrawLimit",
          "type": "uint256"
        }
      ],
      "name": "set24HourWithdrawLimit",
      "outputs": [],
      "stateMutability": "nonpayable",
      "type": "function"
    },
    {
      "inputs": [
        {
          "internalType": "uint256",
          "name": "_withdrawLimit",
          "type": "uint256"
        }
      ],
      "name": "updateWithdrawLimitDaily",
      "outputs": [],
      "stateMutability": "nonpayable",
      "type": "function"
    },
    {
      "inputs": [
        {
          "internalType": "uint256",
          "name": "_withdrawLimit",
          "type": "uint256"
        }
      ],
      "name": "updateWithdrawLimitMonthly",
      "outputs": [],
      "stateMutability": "nonpayable",
      "type": "function"
    },
    {
      "inputs": [
        {
          "internalType": "uint256",
          "name": "_withdrawLimit",
          "type": "uint256"
        }
      ],
      "name": "updateWithdrawLimitYearly",
      "outputs": [],
      "stateMutability": "nonpayable",
      "type": "function"
    },
    {
      "inputs": [
        {
          "internalType": "address",
          "name": "_address",
          "type": "address"
        }
      ],
      "name": "getTokenSentToLinkedChain",
      "outputs": [
        {
          "internalType": "uint256",
          "name": "_token",
          "type": "uint256"
        }
      ],
      "stateMutability": "view",
      "type": "function"
    },
    {
      "inputs": [
        {
          "internalType": "address",
          "name": "_address",
          "type": "address"
        }
      ],
      "name": "getTokenClaimedOnThisChain",
      "outputs": [
        {
          "internalType": "uint256",
          "name": "_token",
          "type": "uint256"
        }
      ],
      "stateMutability": "view",
      "type": "function"
    },
    {
      "inputs": [
        {
          "internalType": "address",
          "name": "_address",
          "type": "address"
        }
      ],
      "name": "getTokenSentToLinkedChainTime",
      "outputs": [
        {
          "internalType": "uint256",
          "name": "_time",
          "type": "uint256"
        }
      ],
      "stateMutability": "view",
      "type": "function"
    },
    {
      "inputs": [
        {
          "internalType": "uint256",
          "name": "_amount",
          "type": "uint256"
        }
      ],
      "name": "verifyWithdrawOk",
      "outputs": [
        {
          "internalType": "bool",
          "name": "_authorized",
          "type": "bool"
        }
      ],
      "stateMutability": "nonpayable",
      "type": "function"
    },
    {
      "inputs": [
        {
          "internalType": "uint256",
          "name": "_amount",
          "type": "uint256"
        }
      ],
      "name": "isNotDailyLimitExceeding",
      "outputs": [
        {
          "internalType": "bool",
          "name": "",
          "type": "bool"
        }
      ],
      "stateMutability": "view",
      "type": "function"
    },
    {
      "inputs": [
        {
          "internalType": "uint256",
          "name": "_amount",
          "type": "uint256"
        }
      ],
      "name": "isNotMonthlyLimitExceeding",
      "outputs": [
        {
          "internalType": "bool",
          "name": "",
          "type": "bool"
        }
      ],
      "stateMutability": "view",
      "type": "function"
    },
    {
      "inputs": [
        {
          "internalType": "uint256",
          "name": "_amount",
          "type": "uint256"
        }
      ],
      "name": "isNotYearlyLimitExceeding",
      "outputs": [
        {
          "internalType": "bool",
          "name": "",
          "type": "bool"
        }
      ],
      "stateMutability": "view",
      "type": "function"
    },
    {
      "inputs": [
        {
          "internalType": "uint256",
          "name": "_amount",
          "type": "uint256"
        }
      ],
      "name": "verifyUpdateDailyLimit",
      "outputs": [],
      "stateMutability": "nonpayable",
      "type": "function"
    },
    {
      "inputs": [
        {
          "internalType": "uint256",
          "name": "_amount",
          "type": "uint256"
        }
      ],
      "name": "verifyUpdateMonthlyLimit",
      "outputs": [],
      "stateMutability": "nonpayable",
      "type": "function"
    },
    {
      "inputs": [
        {
          "internalType": "uint256",
          "name": "_amount",
          "type": "uint256"
        }
      ],
      "name": "verifyUpdateYearlyLimit",
      "outputs": [],
      "stateMutability": "nonpayable",
      "type": "function"
    },
    {
      "inputs": [
        {
          "internalType": "address",
          "name": "_user",
          "type": "address"
        }
      ],
      "name": "getWithdrawalPerDay",
      "outputs": [
        {
          "internalType": "uint256",
          "name": "",
          "type": "uint256"
        }
      ],
      "stateMutability": "view",
      "type": "function"
    },
    {
      "inputs": [
        {
          "internalType": "address",
          "name": "_user",
          "type": "address"
        }
      ],
      "name": "getWithdrawalPerMonth",
      "outputs": [
        {
          "internalType": "uint256",
          "name": "",
          "type": "uint256"
        }
      ],
      "stateMutability": "view",
      "type": "function"
    },
    {
      "inputs": [
        {
          "internalType": "address",
          "name": "_user",
          "type": "address"
        }
      ],
      "name": "getWithdrawalPerYear",
      "outputs": [
        {
          "internalType": "uint256",
          "name": "",
          "type": "uint256"
        }
      ],
      "stateMutability": "view",
      "type": "function"
    },
    {
      "inputs": [
        {
          "internalType": "uint256",
          "name": "_tokens",
          "type": "uint256"
        }
      ],
      "name": "transferToSideChain",
      "outputs": [],
      "stateMutability": "nonpayable",
      "type": "function"
    },
    {
      "inputs": [
        {
          "internalType": "address",
          "name": "_address",
          "type": "address"
        },
        {
          "internalType": "uint256",
          "name": "_numOfToken",
          "type": "uint256"
        },
        {
          "internalType": "uint256",
          "name": "_tokenBurnedOnLinkedChain",
          "type": "uint256"
        },
        {
          "internalType": "bytes32",
          "name": "_sidechainTransactionHash",
          "type": "bytes32"
        }
      ],
      "name": "fastTransferFromSideChain",
      "outputs": [],
      "stateMutability": "nonpayable",
      "type": "function"
    },
    {
      "inputs": [
        {
          "internalType": "uint256",
          "name": "_numOfToken",
          "type": "uint256"
        },
        {
          "internalType": "uint256",
          "name": "_claimLimit",
          "type": "uint256"
        },
        {
          "internalType": "bytes32[]",
          "name": "_proof",
          "type": "bytes32[]"
        }
      ],
      "name": "trustlessTransferFromLinkedChain",
      "outputs": [],
      "stateMutability": "nonpayable",
      "type": "function"
    },
    {
      "inputs": [
        {
          "internalType": "uint256",
          "name": "_wrongSideChainBalance",
          "type": "uint256"
        },
        {
          "internalType": "bytes32[]",
          "name": "_proof",
          "type": "bytes32[]"
        }
      ],
      "name": "claimFailedTransferToSidechain",
      "outputs": [],
      "stateMutability": "nonpayable",
      "type": "function"
    },
    {
      "inputs": [
        {
          "internalType": "bytes32[]",
          "name": "_proof",
          "type": "bytes32[]"
        },
        {
          "internalType": "bytes32",
          "name": "_leaf",
          "type": "bytes32"
        },
        {
          "internalType": "bytes32",
          "name": "_marketId",
          "type": "bytes32"
        },
        {
          "internalType": "uint256",
          "name": "_timeStamp",
          "type": "uint256"
        },
        {
          "internalType": "uint256",
          "name": "_longShares",
          "type": "uint256"
        },
        {
          "internalType": "uint256",
          "name": "_shortShares",
          "type": "uint256"
        },
        {
          "internalType": "uint256",
          "name": "_meanEntryPrice",
          "type": "uint256"
        },
        {
          "internalType": "uint256",
          "name": "_meanEntrySpread",
          "type": "uint256"
        },
        {
          "internalType": "uint256",
          "name": "_meanEntryLeverage",
          "type": "uint256"
        },
        {
          "internalType": "uint256",
          "name": "_liquidationPrice",
          "type": "uint256"
        }
      ],
      "name": "recoverPositionFromSideChain",
      "outputs": [],
      "stateMutability": "nonpayable",
      "type": "function"
    },
    {
      "inputs": [
        {
          "internalType": "bytes32[]",
          "name": "_proof",
          "type": "bytes32[]"
        },
        {
          "internalType": "bytes32",
          "name": "_leaf",
          "type": "bytes32"
        },
        {
          "internalType": "uint256",
          "name": "_balance",
          "type": "uint256"
        }
      ],
      "name": "recoverTokenFromSideChain",
      "outputs": [],
      "stateMutability": "nonpayable",
      "type": "function"
    },
    {
      "inputs": [
        {
          "internalType": "bytes32[]",
          "name": "_proof",
          "type": "bytes32[]"
        },
        {
          "internalType": "bytes32",
          "name": "_leaf",
          "type": "bytes32"
        }
      ],
      "name": "mProof",
      "outputs": [
        {
          "internalType": "bool",
          "name": "_isTrue",
          "type": "bool"
        }
      ],
      "stateMutability": "view",
      "type": "function"
    }
  ],
  "bytecode": "0x6080604052692a5a058fc295ed00000060385569d3c21bcecceda10000006039556a0422ca8b0a00a425000000603a5534801561003b57600080fd5b506140ed8061004b6000396000f3fe608060405234801561001057600080fd5b50600436106102325760003560e01c80637946541e11610130578063ebd164fb116100b8578063f45edb5f1161007c578063f45edb5f146104dd578063f572755114610504578063f5c576cf14610517578063fb16f5a91461052a578063fc89a4fc1461053f57600080fd5b8063ebd164fb14610470578063ed77743b14610483578063eedc58ec146104ae578063ef094f78146104c1578063f3b0b746146104ca57600080fd5b806398684b4e116100ff57806398684b4e146104045780639d6d9bb714610417578063a05808801461042a578063cb66ec5314610432578063e36d740b1461044557600080fd5b80637946541e146103be5780637a5ddab5146103cb5780637cd32363146103de57806380104668146103f157600080fd5b8063400ada75116101be578063510855c411610182578063510855c41461037457806351dd0593146103875780635300597b1461039057806376724f99146103a3578063791fecec146103ab57600080fd5b8063400ada75146102fd57806349c01664146103105780634b7d521e146103235780634c95bea2146103365780634f7415bd1461034957600080fd5b806321c02c8e1161020557806321c02c8e1461029e57806322f4c3f7146102b1578063294f19b6146102c45780632d1a752c146102d7578063364ae26e146102ea57600080fd5b806306a8bb4f14610237578063125f31cd146102535780631526491c146102685780631da420b91461027b575b600080fd5b61024060395481565b6040519081526020015b60405180910390f35b61026661026136600461397b565b610552565b005b6102406102763660046139ac565b6106b2565b61028e61028936600461397b565b6107da565b604051901515815260200161024a565b6102406102ac3660046139ac565b6107fc565b61028e6102bf36600461397b565b61082f565b61028e6102d236600461397b565b61083f565b6102666102e536600461397b565b61084f565b6102406102f83660046139ac565b610908565b61026661030b3660046139d7565b61093b565b61026661031e36600461397b565b610a1f565b61026661033136600461397b565b610bcf565b6102406103443660046139ac565b610d26565b610240610357366004613a10565b603660209081526000928352604080842090915290825290205481565b61028e61038236600461397b565b610dc1565b61024060385481565b61028e61039e366004613aed565b610fe6565b610266611070565b6102666103b936600461397b565b611202565b603b5461028e9060ff1681565b6102666103d9366004613b32565b611701565b6102406103ec3660046139ac565b611c98565b6102666103ff3660046139ac565b611d33565b61026661041236600461397b565b611ea8565b610266610425366004613b80565b611f4d565b610266612259565b61026661044036600461397b565b612402565b610240610453366004613a10565b603560209081526000928352604080842090915290825290205481565b61024061047e3660046139ac565b612559565b610240610491366004613a10565b603760209081526000928352604080842090915290825290205481565b6102666104bc366004613bd0565b61258c565b610240603a5481565b6102666104d8366004613c17565b612bab565b6102407fe5a0b4d50f56047f84728557fedbda92f956391bc9d5c762e8461996dd8e7ad781565b61026661051236600461397b565b6131d9565b610266610525366004613ca1565b61327c565b61024060008051602061409883398151915281565b61026661054d36600461397b565b613595565b60335460408051630140cb6560e51b81529051600080516020614098833981519152926001600160a01b0316916328196ca09160048083019260209291908290030181865afa1580156105a9573d6000803e3d6000fd5b505050506040513d601f19601f820116820180604052508101906105cd9190613cdc565b6001600160a01b03166391d1485482336040516001600160e01b031960e085901b16815260048101929092526001600160a01b03166024820152604401602060405180830381865afa158015610627573d6000803e3d6000fd5b505050506040513d601f19601f8201168201806040525081019061064b9190613cf9565b6106705760405162461bcd60e51b815260040161066790613d16565b60405180910390fd5b60385460408051918252602082018490527f0fc5c922cd03e4ac2e714e10dd8b3e4a5c642ea599101558f143f09958c6784a910160405180910390a150603855565b6034546000906001600160a01b03161580159061070457506001600160a01b0382166000908152603760205260408120906106f16301e1338042613d72565b8152602001908152602001600020546000145b1561079d576034546001600160a01b031663ed77743b836107296301e1338042613d72565b6040516001600160e01b031960e085901b1681526001600160a01b03909216600483015260248201526044015b602060405180830381865afa158015610773573d6000803e3d6000fd5b505050506040513d601f19601f820116820180604052508101906107979190613d94565b92915050565b6001600160a01b0382166000908152603760205260408120906107c46301e1338042613d72565b8152602001908152602001600020549050919050565b6000603a54826107ea6102763390565b6107f49190613dad565b111592915050565b6033546040516310e0164760e11b81526001600160a01b03838116600483015260009216906321c02c8e90602401610756565b6000603854826107ea6103443390565b6000603954826107ea6103ec3390565b610858816107da565b6108c25760405162461bcd60e51b815260206004820152603560248201527f4d6f72706865724272696467653a205769746864726177616c20416d6f756e7460448201527408195e18d959591cc81e59585c9b1e481b1a5b5a5d605a1b6064820152608401610667565b806108cc336106b2565b6108d69190613dad565b336000908152603760205260408120906108f46301e1338042613d72565b815260208101919091526040016000205550565b603354604051631b25713760e11b81526001600160a01b038381166004830152600092169063364ae26e90602401610756565b600054610100900460ff166109565760005460ff161561095a565b303b155b6109bd5760405162461bcd60e51b815260206004820152602e60248201527f496e697469616c697a61626c653a20636f6e747261637420697320616c72656160448201526d191e481a5b9a5d1a585b1a5e995960921b6064820152608401610667565b600054610100900460ff161580156109df576000805461ffff19166101011790555b603380546001600160a01b0319166001600160a01b038516179055603b805460ff19168315151790558015610a1a576000805461ff00191690555b505050565b60335460408051630140cb6560e51b81529051600080516020614098833981519152926001600160a01b0316916328196ca09160048083019260209291908290030181865afa158015610a76573d6000803e3d6000fd5b505050506040513d601f19601f82011682018060405250810190610a9a9190613cdc565b6001600160a01b03166391d1485482336040516001600160e01b031960e085901b16815260048101929092526001600160a01b03166024820152604401602060405180830381865afa158015610af4573d6000803e3d6000fd5b505050506040513d601f19601f82011682018060405250810190610b189190613cf9565b610b345760405162461bcd60e51b815260040161066790613d16565b603354604051634da3c19960e01b8152600481018490526001600160a01b0390911690634da3c19990602401600060405180830381600087803b158015610b7a57600080fd5b505af1158015610b8e573d6000803e3d6000fd5b505050507fce559c2f7d86d801cf61f2bfd589e7926036f75a2c58e06b35378f308637d50482604051610bc391815260200190565b60405180910390a15050565b60335460408051630140cb6560e51b81529051600080516020614098833981519152926001600160a01b0316916328196ca09160048083019260209291908290030181865afa158015610c26573d6000803e3d6000fd5b505050506040513d601f19601f82011682018060405250810190610c4a9190613cdc565b6001600160a01b03166391d1485482336040516001600160e01b031960e085901b16815260048101929092526001600160a01b03166024820152604401602060405180830381865afa158015610ca4573d6000803e3d6000fd5b505050506040513d601f19601f82011682018060405250810190610cc89190613cf9565b610ce45760405162461bcd60e51b815260040161066790613d16565b60395460408051918252602082018490527ff0f687298480b3bc8004684566e29cf275675b66a3f52e35084f2567514dc53c910160405180910390a150603955565b6034546000906001600160a01b031615801590610d7757506001600160a01b038216600090815260356020526040812090610d646201518042613d72565b8152602001908152602001600020546000145b15610d9b576034546001600160a01b031663e36d740b836107296201518042613d72565b6001600160a01b0382166000908152603560205260408120906107c46201518042613d72565b600080603360009054906101000a90046001600160a01b03166001600160a01b031663aa43ced86040518163ffffffff1660e01b8152600401602060405180830381865afa158015610e17573d6000803e3d6000fd5b505050506040513d601f19601f82011682018060405250810190610e3b9190613d94565b90506000603360009054906101000a90046001600160a01b03166001600160a01b0316631cb110776040518163ffffffff1660e01b8152600401602060405180830381865afa158015610e92573d6000803e3d6000fd5b505050506040513d601f19601f82011682018060405250810190610eb69190613d94565b905081421115610f4a576000610ecc8342613dc5565b6033549091506001600160a01b031663a35ab9c862015180610eee8585613ddc565b610ef89190613d72565b6040518263ffffffff1660e01b8152600401610f1691815260200190565b600060405180830381600087803b158015610f3057600080fd5b505af1158015610f44573d6000803e3d6000fd5b50505050505b8084603360009054906101000a90046001600160a01b03166001600160a01b031663aa7bcd5d6040518163ffffffff1660e01b8152600401602060405180830381865afa158015610f9f573d6000803e3d6000fd5b505050506040513d601f19601f82011682018060405250810190610fc39190613d94565b610fcd9190613dad565b11610fdc575060019392505050565b5060009392505050565b600061106983603360009054906101000a90046001600160a01b03166001600160a01b03166325fbf7126040518163ffffffff1660e01b8152600401602060405180830381865afa15801561103f573d6000803e3d6000fd5b505050506040513d601f19601f820116820180604052508101906110639190613d94565b84613739565b9392505050565b60335460408051630140cb6560e51b815290517fe5a0b4d50f56047f84728557fedbda92f956391bc9d5c762e8461996dd8e7ad7926001600160a01b0316916328196ca09160048083019260209291908290030181865afa1580156110d9573d6000803e3d6000fd5b505050506040513d601f19601f820116820180604052508101906110fd9190613cdc565b6001600160a01b03166391d1485482336040516001600160e01b031960e085901b16815260048101929092526001600160a01b03166024820152604401602060405180830381865afa158015611157573d6000803e3d6000fd5b505050506040513d601f19601f8201168201806040525081019061117b9190613cf9565b6111975760405162461bcd60e51b815260040161066790613d16565b603360009054906101000a90046001600160a01b03166001600160a01b031663592b6aab6040518163ffffffff1660e01b8152600401600060405180830381600087803b1580156111e757600080fd5b505af11580156111fb573d6000803e3d6000fd5b5050505050565b603360009054906101000a90046001600160a01b03166001600160a01b03166350a71bac6040518163ffffffff1660e01b8152600401602060405180830381865afa158015611255573d6000803e3d6000fd5b505050506040513d601f19601f820116820180604052508101906112799190613cdc565b6001600160a01b031663ac259ace336040516001600160e01b031960e084901b1681526001600160a01b039091166004820152602401602060405180830381865afa1580156112cc573d6000803e3d6000fd5b505050506040513d601f19601f820116820180604052508101906112f09190613cf9565b1561130d5760405162461bcd60e51b815260040161066790613dfb565b60335460408051632192ab5d60e11b8152905183926001600160a01b03169163432556ba9160048083019260209291908290030181865afa158015611356573d6000803e3d6000fd5b505050506040513d601f19601f8201168201806040525081019061137a9190613cdc565b6001600160a01b03166370a08231336040516001600160e01b031960e084901b1681526001600160a01b039091166004820152602401602060405180830381865afa1580156113cd573d6000803e3d6000fd5b505050506040513d601f19601f820116820180604052508101906113f19190613d94565b101561144b5760405162461bcd60e51b8152602060048201526024808201527f4d6f72706865724272696467653a20496e73756666696369656e742062616c616044820152633731b29760e11b6064820152608401610667565b611454816131d9565b61145d81611ea8565b6114668161084f565b603360009054906101000a90046001600160a01b03166001600160a01b031663432556ba6040518163ffffffff1660e01b8152600401602060405180830381865afa1580156114b9573d6000803e3d6000fd5b505050506040513d601f19601f820116820180604052508101906114dd9190613cdc565b604051632770a7eb60e21b8152336004820152602481018390526001600160a01b039190911690639dc29fac90604401600060405180830381600087803b15801561152757600080fd5b505af115801561153b573d6000803e3d6000fd5b5050505060008161154c6102f83390565b6115569190613dad565b90506000603360009054906101000a90046001600160a01b03166001600160a01b03166309089f976040518163ffffffff1660e01b81526004016020604051808303816000875af11580156115af573d6000803e3d6000fd5b505050506040513d601f19601f820116820180604052508101906115d39190613d94565b90504260003360405160609190911b6001600160601b03191660208201526034810186905260548101859052607481018390526094810184905260b40160408051808303601f1901815291905280516020909101206033549091506001600160a01b031663422cc2e7336040516001600160e01b031960e084901b1681526001600160a01b03909116600482015260248101879052604401600060405180830381600087803b15801561168557600080fd5b505af1158015611699573d6000803e3d6000fd5b50505050806116a53390565b6040805188815260208101889052908101859052606081018690526001600160a01b0391909116907f76dc9d098b791a3e9065b4237432e820c38b43f850d924581b31d61a8b4bbc829060800160405180910390a35050505050565b603360009054906101000a90046001600160a01b03166001600160a01b031663e4bd85226040518163ffffffff1660e01b8152600401602060405180830381865afa158015611754573d6000803e3d6000fd5b505050506040513d601f19601f820116820180604052508101906117789190613d94565b603360009054906101000a90046001600160a01b03166001600160a01b031663d362bd2b6040518163ffffffff1660e01b8152600401602060405180830381865afa1580156117cb573d6000803e3d6000fd5b505050506040513d601f19601f820116820180604052508101906117ef9190613d94565b6117f99042613dc5565b116118165760405162461bcd60e51b815260040161066790613e32565b603360009054906101000a90046001600160a01b03166001600160a01b03166350a71bac6040518163ffffffff1660e01b8152600401602060405180830381865afa158015611869573d6000803e3d6000fd5b505050506040513d601f19601f8201168201806040525081019061188d9190613cdc565b6001600160a01b031663ac259ace336040516001600160e01b031960e084901b1681526001600160a01b039091166004820152602401602060405180830381865afa1580156118e0573d6000803e3d6000fd5b505050506040513d601f19601f820116820180604052508101906119049190613cf9565b156119215760405162461bcd60e51b815260040161066790613dfb565b603b5460ff166119435760405162461bcd60e51b815260040161066790613e9c565b60335460405163042bd86d60e51b8152336004820152602481018390526001600160a01b039091169063857b0da090604401602060405180830381865afa158015611992573d6000803e3d6000fd5b505050506040513d601f19601f820116820180604052508101906119b69190613d94565b8214611a045760405162461bcd60e51b815260206004820152601d60248201527f4d6f72706865724272696467653a2057726f6e672062616c616e63652e0000006044820152606401610667565b60335460405163112b80a760e21b8152600481018490526001600160a01b03909116906344ae029c90602401602060405180830381865afa158015611a4d573d6000803e3d6000fd5b505050506040513d601f19601f82011682018060405250810190611a719190613cf9565b15611ad05760405162461bcd60e51b815260206004820152602960248201527f4d6f72706865724272696467653a20546f6b656e20616c7265616479207472616044820152683739b332b93932b21760b91b6064820152608401610667565b611ada8383610fe6565b1515600114611afb5760405162461bcd60e51b815260040161066790613eed565b611b0481610dc1565b611b765760405162461bcd60e51b815260206004820152603f60248201527f4d6f72706865724272696467653a20576974686472617720616d6f756e74206560448201527f786365656473207065726d697474656420323420686f7572206c696d69742e006064820152608401610667565b603354604051632d95530b60e21b8152600481018490526001600160a01b039091169063b6554c2c90602401600060405180830381600087803b158015611bbc57600080fd5b505af1158015611bd0573d6000803e3d6000fd5b50505050611c5e611bde3390565b6033546001600160a01b03166321c02c8e336040516001600160e01b031960e084901b1681526001600160a01b039091166004820152602401602060405180830381865afa158015611c34573d6000803e3d6000fd5b505050506040513d601f19601f82011682018060405250810190611c589190613d94565b8361374f565b60405182815233907f0534719a5dcedfc13619bb4206e36ba0e42fb7d166c8b8a79320c8128fc3af549060200160405180910390a2505050565b6034546000906001600160a01b031615801590611ce957506001600160a01b038216600090815260366020526040812090611cd662278d0042613d72565b8152602001908152602001600020546000145b15611d0d576034546001600160a01b0316634f7415bd8361072962278d0042613d72565b6001600160a01b0382166000908152603660205260408120906107c462278d0042613d72565b60335460408051630140cb6560e51b815290517fe5a0b4d50f56047f84728557fedbda92f956391bc9d5c762e8461996dd8e7ad7926001600160a01b0316916328196ca09160048083019260209291908290030181865afa158015611d9c573d6000803e3d6000fd5b505050506040513d601f19601f82011682018060405250810190611dc09190613cdc565b6001600160a01b03166391d1485482336040516001600160e01b031960e085901b16815260048101929092526001600160a01b03166024820152604401602060405180830381865afa158015611e1a573d6000803e3d6000fd5b505050506040513d601f19601f82011682018060405250810190611e3e9190613cf9565b611e5a5760405162461bcd60e51b815260040161066790613d16565b603380546001600160a01b0319166001600160a01b0384169081179091556040519081527f978c711532bae8c58f353b0f3c7f3a0dfe600d9ae9a81818f2ad2919b88e199090602001610bc3565b611eb18161083f565b611f1c5760405162461bcd60e51b815260206004820152603660248201527f4d6f72706865724272696467653a205769746864726177616c20416d6f756e7460448201527508195e18d959591cc81b5bdb9d1a1b1e481b1a5b5a5d60521b6064820152608401610667565b80611f2633611c98565b611f309190613dad565b336000908152603660205260408120906108f462278d0042613d72565b603360009054906101000a90046001600160a01b03166001600160a01b03166350a71bac6040518163ffffffff1660e01b8152600401602060405180830381865afa158015611fa0573d6000803e3d6000fd5b505050506040513d601f19601f82011682018060405250810190611fc49190613cdc565b6001600160a01b031663ac259ace336040516001600160e01b031960e084901b1681526001600160a01b039091166004820152602401602060405180830381865afa158015612017573d6000803e3d6000fd5b505050506040513d601f19601f8201168201806040525081019061203b9190613cf9565b156120585760405162461bcd60e51b815260040161066790613dfb565b6040516001600160601b03193360601b1660208201526034810183905260009060540160408051601f1981840301815282825280516020918201206033546310e0164760e11b855233600486015292519094506000936001600160a01b03909316926321c02c8e9260248083019391928290030181865afa1580156120e1573d6000803e3d6000fd5b505050506040513d601f19601f820116820180604052508101906121059190613d94565b90506121118383610fe6565b6121a95760405162461bcd60e51b815260206004820152605960248201527f4d6f72706865724272696467653a204d65726b6c652050726f6f66206661696c60448201527f65642e20506c65617365206d616b65207375726520796f7520656e746572656460648201527f2074686520636f727265637420636c61696d206c696d69742e00000000000000608482015260a401610667565b6121b285610dc1565b6121ce5760405162461bcd60e51b815260040161066790613f30565b6121d7856131d9565b6121e085611ea8565b6121e98561084f565b836121f48683613dad565b11156122125760405162461bcd60e51b815260040161066790613fb4565b61221d33828761374f565b60405185815233907f943c724b337822464f019ef425f7d5b1dd7ca039317dabe7446a630a6b8236d39060200160405180910390a25050505050565b60335460408051630140cb6560e51b81529051600080516020614098833981519152926001600160a01b0316916328196ca09160048083019260209291908290030181865afa1580156122b0573d6000803e3d6000fd5b505050506040513d601f19601f820116820180604052508101906122d49190613cdc565b6001600160a01b03166391d1485482336040516001600160e01b031960e085901b16815260048101929092526001600160a01b03166024820152604401602060405180830381865afa15801561232e573d6000803e3d6000fd5b505050506040513d601f19601f820116820180604052508101906123529190613cf9565b61236e5760405162461bcd60e51b815260040161066790613d16565b603360009054906101000a90046001600160a01b03166001600160a01b031663a05808806040518163ffffffff1660e01b8152600401600060405180830381600087803b1580156123be57600080fd5b505af11580156123d2573d6000803e3d6000fd5b50506040517fd14f25c95298a26f5b879184999a5d7a5ea86c43f3951812fbb4165e853b615e925060009150a150565b60335460408051630140cb6560e51b81529051600080516020614098833981519152926001600160a01b0316916328196ca09160048083019260209291908290030181865afa158015612459573d6000803e3d6000fd5b505050506040513d601f19601f8201168201806040525081019061247d9190613cdc565b6001600160a01b03166391d1485482336040516001600160e01b031960e085901b16815260048101929092526001600160a01b03166024820152604401602060405180830381865afa1580156124d7573d6000803e3d6000fd5b505050506040513d601f19601f820116820180604052508101906124fb9190613cf9565b6125175760405162461bcd60e51b815260040161066790613d16565b603a5460408051918252602082018490527f7a8be6c72c32a1527fe0e158fd9577065e94dab55f143bb7e1d7cd24fd3c983e910160405180910390a150603a55565b60335460405163ebd164fb60e01b81526001600160a01b038381166004830152600092169063ebd164fb90602401610756565b603360009054906101000a90046001600160a01b03166001600160a01b03166350a71bac6040518163ffffffff1660e01b8152600401602060405180830381865afa1580156125df573d6000803e3d6000fd5b505050506040513d601f19601f820116820180604052508101906126039190613cdc565b6001600160a01b031663ac259ace336040516001600160e01b031960e084901b1681526001600160a01b039091166004820152602401602060405180830381865afa158015612656573d6000803e3d6000fd5b505050506040513d601f19601f8201168201806040525081019061267a9190613cf9565b156126975760405162461bcd60e51b815260040161066790613dfb565b6040516001600160601b03193360601b1660208201526034810183905260009060540160405160208183030381529060405280519060200120905060006126de6102f83390565b905060006126eb33612559565b90506000603360009054906101000a90046001600160a01b03166001600160a01b031663d362bd2b6040518163ffffffff1660e01b8152600401602060405180830381865afa158015612742573d6000803e3d6000fd5b505050506040513d601f19601f820116820180604052508101906127669190613d94565b90506127728183613dad565b42116127fa5760405162461bcd60e51b815260206004820152604b60248201527f4d6f72706865724272696467653a204661696c6564206465706f73697473206360448201527f616e206f6e6c7920626520636c61696d656420616674657220696e616374697660648201526a34ba3c903832b934b7b21760a91b608482015260a401610667565b8286106128845760405162461bcd60e51b815260206004820152604c60248201527f4d6f72706865724272696467653a204f7468657220636861696e20637265646960448201527f74206973206772656174657220657175616c20746f2077726f6e67536964654360648201526b3430b4b72130b630b731b29760a11b608482015260a401610667565b6128916103828785613dc5565b6129035760405162461bcd60e51b815260206004820152603c60248201527f4d6f72706865724272696467653a20436c61696d20616d6f756e74206578636560448201527f656473207065726d697474656420323420686f7572206c696d69742e000000006064820152608401610667565b61290d8585610fe6565b6129995760405162461bcd60e51b815260206004820152605160248201527f4d6f72706865724272696467653a204d65726b6c652050726f6f66206661696c60448201527f65642e20456e74657220746f74616c20616d6f756e74206f66206465706f73696064820152703a399037b71039b4b2329031b430b4b71760791b608482015260a401610667565b60006129a58785613dc5565b6033549091506001600160a01b031663422cc2e7336129c48488613dc5565b6040516001600160e01b031960e085901b1681526001600160a01b0390921660048301526024820152604401600060405180830381600087803b158015612a0a57600080fd5b505af1158015612a1e573d6000803e3d6000fd5b50506033546040516335a420b160e21b8152600481018590526001600160a01b03909116925063d69082c49150602401600060405180830381600087803b158015612a6857600080fd5b505af1158015612a7c573d6000803e3d6000fd5b50505050603360009054906101000a90046001600160a01b03166001600160a01b031663432556ba6040518163ffffffff1660e01b8152600401602060405180830381865afa158015612ad3573d6000803e3d6000fd5b505050506040513d601f19601f82011682018060405250810190612af79190613cdc565b6040516340c10f1960e01b8152336004820152602481018390526001600160a01b0391909116906340c10f1990604401600060405180830381600087803b158015612b4157600080fd5b505af1158015612b55573d6000803e3d6000fd5b50505050612b603390565b6001600160a01b03167ff3d1bd7b5416206939e66c9b6ee92563caaf8499c21668173d17cacbaefdc70082604051612b9a91815260200190565b60405180910390a250505050505050565b603360009054906101000a90046001600160a01b03166001600160a01b031663e4bd85226040518163ffffffff1660e01b8152600401602060405180830381865afa158015612bfe573d6000803e3d6000fd5b505050506040513d601f19601f82011682018060405250810190612c229190613d94565b603360009054906101000a90046001600160a01b03166001600160a01b031663d362bd2b6040518163ffffffff1660e01b8152600401602060405180830381865afa158015612c75573d6000803e3d6000fd5b505050506040513d601f19601f82011682018060405250810190612c999190613d94565b612ca39042613dc5565b11612cc05760405162461bcd60e51b815260040161066790613e32565b603360009054906101000a90046001600160a01b03166001600160a01b03166350a71bac6040518163ffffffff1660e01b8152600401602060405180830381865afa158015612d13573d6000803e3d6000fd5b505050506040513d601f19601f82011682018060405250810190612d379190613cdc565b6001600160a01b031663ac259ace336040516001600160e01b031960e084901b1681526001600160a01b039091166004820152602401602060405180830381865afa158015612d8a573d6000803e3d6000fd5b505050506040513d601f19601f82011682018060405250810190612dae9190613cf9565b15612dcb5760405162461bcd60e51b815260040161066790613dfb565b603b5460ff16612ded5760405162461bcd60e51b815260040161066790613e9c565b603360009054906101000a90046001600160a01b03166001600160a01b031663d37afa8d6040518163ffffffff1660e01b8152600401602060405180830381865afa158015612e40573d6000803e3d6000fd5b505050506040513d601f19601f82011682018060405250810190612e649190613cdc565b6001600160a01b0316637a687444338a8a8a8a8a8a8a8a6040518a63ffffffff1660e01b8152600401612e9f9998979695949392919061401c565b602060405180830381865afa158015612ebc573d6000803e3d6000fd5b505050506040513d601f19601f82011682018060405250810190612ee09190613d94565b8914612f485760405162461bcd60e51b815260206004820152603160248201527f4d6f72706865724272696467653a206c65616620646f6573206e6f742065717560448201527030b6103837b9b4ba34b7b7103430b9b41760791b6064820152608401610667565b60335460405163112b80a760e21b8152600481018b90526001600160a01b03909116906344ae029c90602401602060405180830381865afa158015612f91573d6000803e3d6000fd5b505050506040513d601f19601f82011682018060405250810190612fb59190613cf9565b156130175760405162461bcd60e51b815260206004820152602c60248201527f4d6f72706865724272696467653a20506f736974696f6e20616c72656164792060448201526b3a3930b739b332b93932b21760a11b6064820152608401610667565b6130218a8a610fe6565b15156001146130425760405162461bcd60e51b815260040161066790613eed565b603354604051632d95530b60e21b8152600481018b90526001600160a01b039091169063b6554c2c90602401600060405180830381600087803b15801561308857600080fd5b505af115801561309c573d6000803e3d6000fd5b50505050603360009054906101000a90046001600160a01b03166001600160a01b031663d37afa8d6040518163ffffffff1660e01b8152600401602060405180830381865afa1580156130f3573d6000803e3d6000fd5b505050506040513d601f19601f820116820180604052508101906131179190613cdc565b6001600160a01b031663be7e64b6338a8a8a8a8a8a8a8a6040518a63ffffffff1660e01b81526004016131529998979695949392919061401c565b600060405180830381600087803b15801561316c57600080fd5b505af1158015613180573d6000803e3d6000fd5b5050505061318b3390565b6001600160a01b03167f46de0525fb620932847e7db9be837e386fb61845ffb4ccc632241dfa56ce5d438a6040516131c591815260200190565b60405180910390a250505050505050505050565b6131e28161082f565b61324b5760405162461bcd60e51b815260206004820152603460248201527f4d6f72706865724272696467653a205769746864726177616c20416d6f756e7460448201527308195e18d959591cc819185a5b1e481b1a5b5a5d60621b6064820152608401610667565b8061325533610d26565b61325f9190613dad565b336000908152603560205260408120906108f46201518042613d72565b60335460408051630140cb6560e51b81529051600080516020614098833981519152926001600160a01b0316916328196ca09160048083019260209291908290030181865afa1580156132d3573d6000803e3d6000fd5b505050506040513d601f19601f820116820180604052508101906132f79190613cdc565b6001600160a01b03166391d1485482336040516001600160e01b031960e085901b16815260048101929092526001600160a01b03166024820152604401602060405180830381865afa158015613351573d6000803e3d6000fd5b505050506040513d601f19601f820116820180604052508101906133759190613cf9565b6133915760405162461bcd60e51b815260040161066790613d16565b603360009054906101000a90046001600160a01b03166001600160a01b031663d8d5470d6040518163ffffffff1660e01b8152600401602060405180830381865afa1580156133e4573d6000803e3d6000fd5b505050506040513d601f19601f820116820180604052508101906134089190613cf9565b151560011461347f5760405162461bcd60e51b815260206004820152603d60248201527f4d6f72706865724272696467653a2046617374207472616e736665727320686160448201527f7665206265656e2064697361626c6564207065726d616e656e746c792e0000006064820152608401610667565b6033546040516310e0164760e11b81526001600160a01b03878116600483015260009216906321c02c8e90602401602060405180830381865afa1580156134ca573d6000803e3d6000fd5b505050506040513d601f19601f820116820180604052508101906134ee9190613d94565b90506134f985610dc1565b6135155760405162461bcd60e51b815260040161066790613f30565b836135208683613dad565b111561353e5760405162461bcd60e51b815260040161066790613fb4565b61354986828761374f565b60408051868152602081018590526001600160a01b038816917f74a7ba315838b43b88c84bdbafcd2dc02f2fe2bc028ae2b25a715523e85ca7fb910160405180910390a2505050505050565b60335460408051630140cb6560e51b81529051600080516020614098833981519152926001600160a01b0316916328196ca09160048083019260209291908290030181865afa1580156135ec573d6000803e3d6000fd5b505050506040513d601f19601f820116820180604052508101906136109190613cdc565b6001600160a01b03166391d1485482336040516001600160e01b031960e085901b16815260048101929092526001600160a01b03166024820152604401602060405180830381865afa15801561366a573d6000803e3d6000fd5b505050506040513d601f19601f8201168201806040525081019061368e9190613cf9565b6136aa5760405162461bcd60e51b815260040161066790613d16565b603354604051633f22693f60e21b8152600481018490526001600160a01b039091169063fc89a4fc90602401600060405180830381600087803b1580156136f057600080fd5b505af1158015613704573d6000803e3d6000fd5b505050507fe8fb3c9788b8adcb093d9daec2f073f54553abbcc85943beac30467e6c585b3b82604051610bc391815260200190565b6000826137468584613907565b14949350505050565b6033546001600160a01b0316633383e8d88461376b8486613dad565b6040516001600160e01b031960e085901b1681526001600160a01b0390921660048301526024820152604401600060405180830381600087803b1580156137b157600080fd5b505af11580156137c5573d6000803e3d6000fd5b50506033546040516335a420b160e21b8152600481018590526001600160a01b03909116925063d69082c49150602401600060405180830381600087803b15801561380f57600080fd5b505af1158015613823573d6000803e3d6000fd5b50505050603360009054906101000a90046001600160a01b03166001600160a01b031663432556ba6040518163ffffffff1660e01b8152600401602060405180830381865afa15801561387a573d6000803e3d6000fd5b505050506040513d601f19601f8201168201806040525081019061389e9190613cdc565b6040516340c10f1960e01b81526001600160a01b0385811660048301526024820184905291909116906340c10f1990604401600060405180830381600087803b1580156138ea57600080fd5b505af11580156138fe573d6000803e3d6000fd5b50505050505050565b600081815b845181101561397357600085828151811061392957613929614066565b6020026020010151905080831161394f5760008381526020829052604090209250613960565b600081815260208490526040902092505b508061396b8161407c565b91505061390c565b509392505050565b60006020828403121561398d57600080fd5b5035919050565b6001600160a01b03811681146139a957600080fd5b50565b6000602082840312156139be57600080fd5b813561106981613994565b80151581146139a957600080fd5b600080604083850312156139ea57600080fd5b82356139f581613994565b91506020830135613a05816139c9565b809150509250929050565b60008060408385031215613a2357600080fd5b8235613a2e81613994565b946020939093013593505050565b634e487b7160e01b600052604160045260246000fd5b600082601f830112613a6357600080fd5b8135602067ffffffffffffffff80831115613a8057613a80613a3c565b8260051b604051601f19603f83011681018181108482111715613aa557613aa5613a3c565b604052938452858101830193838101925087851115613ac357600080fd5b83870191505b84821015613ae257813583529183019190830190613ac9565b979650505050505050565b60008060408385031215613b0057600080fd5b823567ffffffffffffffff811115613b1757600080fd5b613b2385828601613a52565b95602094909401359450505050565b600080600060608486031215613b4757600080fd5b833567ffffffffffffffff811115613b5e57600080fd5b613b6a86828701613a52565b9660208601359650604090950135949350505050565b600080600060608486031215613b9557600080fd5b8335925060208401359150604084013567ffffffffffffffff811115613bba57600080fd5b613bc686828701613a52565b9150509250925092565b60008060408385031215613be357600080fd5b82359150602083013567ffffffffffffffff811115613c0157600080fd5b613c0d85828601613a52565b9150509250929050565b6000806000806000806000806000806101408b8d031215613c3757600080fd5b8a3567ffffffffffffffff811115613c4e57600080fd5b613c5a8d828e01613a52565b9d60208d01359d5060408d01359c60608101359c5060808101359b5060a08101359a5060c0810135995060e081013598506101008101359750610120013595509350505050565b60008060008060808587031215613cb757600080fd5b8435613cc281613994565b966020860135965060408601359560600135945092505050565b600060208284031215613cee57600080fd5b815161106981613994565b600060208284031215613d0b57600080fd5b8151611069816139c9565b60208082526026908201527f4d6f72706865725472616465456e67696e653a205065726d697373696f6e206460408201526532b734b2b21760d11b606082015260800190565b634e487b7160e01b600052601160045260246000fd5b600082613d8f57634e487b7160e01b600052601260045260246000fd5b500490565b600060208284031215613da657600080fd5b5051919050565b60008219821115613dc057613dc0613d5c565b500190565b600082821015613dd757613dd7613d5c565b500390565b6000816000190483118215151615613df657613df6613d5c565b500290565b6020808252601e908201527f4d6f72706865724272696467653a205573657220697320626c6f636b65640000604082015260600190565b60208082526044908201527f4d6f72706865724272696467653a2046756e6374696f6e2063616e206f6e6c7960408201527f2062652063616c6c65642069662073696465636861696e20697320696e61637460608201526334bb329760e11b608082015260a00190565b60208082526031908201527f4d6f72706865724272696467653a205265636f766572792066756e6374696f6e6040820152701cc8185c99481b9bdd08195b98589b1959607a1b606082015260800190565b60208082526023908201527f4d6f72706865724272696467653a204d65726b6c652070726f6f66206661696c60408201526232b21760e91b606082015260800190565b602080825260609082018190527f4d6f72706865724272696467653a20576974686472617720616d6f756e74206560408301527f786365656473207065726d697474656420323420686f7572206c696d69742e20908201527f506c656173652074727920616761696e20696e20612066657720686f7572732e608082015260a00190565b60208082526042908201527f4d6f72706865724272696467653a20546f6b656e20616d6f756e74206578636560408201527f65647320746f6b656e2064656c65746564206f6e206c696e6b65642063686169606082015261371760f11b608082015260a00190565b6001600160a01b03999099168952602089019790975260408801959095526060870193909352608086019190915260a085015260c084015260e08301526101008201526101200190565b634e487b7160e01b600052603260045260246000fd5b600060001982141561409057614090613d5c565b506001019056fec08f7188394b31596c538860a69934f466a85ebc66fc5d1d967ccfaef4a6bdaba2646970667358221220698a603053693b149f4d3491d069dc2a6d73fb77dafe44625568606205ba504c64736f6c634300080b0033",
  "immutableReferences": {},
  "source": "// ------------------------------------------------------------------------\r\n// MorpherBridge\r\n// Handles deposit to and withdraws from the side chain, writing of the merkle\r\n// root to the main chain by the side chain operator, and enforces a rolling 24 hours\r\n// token withdraw limit from side chain to main chain.\r\n// If side chain operator doesn't write a merkle root hash to main chain for more than\r\n// 72 hours positions and balaces from side chain can be transferred to main chain.\r\n// ------------------------------------------------------------------------\r\n//SPDX-License-Identifier: GPLv3\r\npragma solidity 0.8.11;\r\n\r\nimport \"./MorpherState.sol\";\r\nimport \"./MorpherUserBlocking.sol\";\r\nimport \"./MorpherAccessControl.sol\";\r\nimport \"@openzeppelin/contracts-upgradeable/utils/cryptography/MerkleProofUpgradeable.sol\";\r\nimport \"@openzeppelin/contracts-upgradeable/proxy/utils/Initializable.sol\";\r\nimport \"@openzeppelin/contracts-upgradeable/utils/ContextUpgradeable.sol\";\r\nimport \"./MorpherTradeEngine.sol\";\r\n\r\ncontract MorpherBridge is Initializable, ContextUpgradeable {\r\n\r\n    MorpherState state;\r\n    MorpherBridge previousBridge;\r\n\r\n    mapping(address => mapping(uint256 => uint256)) public withdrawalPerDay; //[address][day] = withdrawalAmount\r\n    mapping(address => mapping(uint256 => uint256)) public withdrawalPerMonth; //[address][month] = withdrawalAmount\r\n    mapping(address => mapping(uint256 => uint256)) public withdrawalPerYear; //[address][year] = withdrawalAmount\r\n\r\n    uint256 public withdrawalLimitDaily = 200000 * (10**18); //200k MPH per day\r\n    uint256 public withdrawalLimitMonthly = 1000000 * (10 ** 18); //1M MPH per month\r\n    uint256 public withdrawalLimitYearly = 5000000 * (10 ** 18); //5M MPH per year\r\n\r\n    bytes32 public constant ADMINISTRATOR_ROLE = keccak256(\"ADMINISTRATOR_ROLE\");\r\n    bytes32 public constant SIDECHAINOPERATOR_ROLE = keccak256(\"SIDECHAINOPERATOR_ROLE\");\r\n\r\n\r\n    bool public recoveryEnabled;\r\n\r\n    event TransferToLinkedChain(\r\n        address indexed from,\r\n        uint256 tokens,\r\n        uint256 totalTokenSent,\r\n        uint256 timeStamp,\r\n        uint256 transferNonce,\r\n        bytes32 indexed transferHash\r\n    );\r\n    event TrustlessWithdrawFromSideChain(address indexed from, uint256 tokens);\r\n    event OperatorChainTransfer(address indexed from, uint256 tokens, bytes32 sidechainTransactionHash);\r\n    event ClaimFailedTransferToSidechain(address indexed from, uint256 tokens);\r\n    event PositionRecoveryFromSideChain(address indexed from, bytes32 positionHash);\r\n    event TokenRecoveryFromSideChain(address indexed from, bytes32 positionHash);\r\n    event SideChainMerkleRootUpdated(bytes32 _rootHash);\r\n    event WithdrawLimitReset();\r\n    event WithdrawLimitChanged(uint256 _withdrawLimit);\r\n    event WithdrawLimitDailyChanged(uint256 _oldLimit, uint256 _newLimit);\r\n    event WithdrawLimitMonthlyChanged(uint256 _oldLimit, uint256 _newLimit);\r\n    event WithdrawLimitYearlyChanged(uint256 _oldLimit, uint256 _newLimit);\r\n    event LinkState(address _address);\r\n    event LinkMorpherUserBlocking(address _address);\r\n\r\n    function initialize(address _stateAddress, bool _recoveryEnabled) public initializer {\r\n        state = MorpherState(_stateAddress);\r\n        recoveryEnabled = _recoveryEnabled;\r\n\r\n    }\r\n\r\n    modifier onlySideChainOperator {\r\n        require(_msgSender() == state.getSideChainOperator(), \"MorpherBridge: Function can only be called by Sidechain Operator.\");\r\n        _;\r\n    }\r\n\r\n    modifier sideChainInactive {\r\n        require(block.timestamp - state.inactivityPeriod() > state.getSideChainMerkleRootWrittenAtTime(), \"MorpherBridge: Function can only be called if sidechain is inactive.\");\r\n        _;\r\n    }\r\n    \r\n    modifier fastTransfers {\r\n        require(state.fastTransfersEnabled() == true, \"MorpherBridge: Fast transfers have been disabled permanently.\");\r\n        _;\r\n    }\r\n\r\n    modifier onlyRecoveryEnabled() {\r\n        require(recoveryEnabled, \"MorpherBridge: Recovery functions are not enabled\");\r\n        _;\r\n    }\r\n\r\n    modifier userNotBlocked {\r\n        require(!MorpherUserBlocking(state.morpherUserBlockingAddress()).userIsBlocked(_msgSender()), \"MorpherBridge: User is blocked\");\r\n        _;\r\n    }\r\n\r\n    modifier onlyRole(bytes32 role) {\r\n        require(MorpherAccessControl(state.morpherAccessControlAddress()).hasRole(role, _msgSender()), \"MorpherTradeEngine: Permission denied.\");\r\n        _;\r\n    }\r\n    \r\n    // ------------------------------------------------------------------------\r\n    // Links Token Contract with State\r\n    // ------------------------------------------------------------------------\r\n    function setMorpherState(address _stateAddress) public onlyRole(ADMINISTRATOR_ROLE) {\r\n        state = MorpherState(_stateAddress);\r\n        emit LinkState(_stateAddress);\r\n    }\r\n\r\n\r\n    function setInactivityPeriod(uint256 _periodInSeconds) private {\r\n        state.setInactivityPeriod(_periodInSeconds);\r\n    }\r\n\r\n    function disableFastTransfers() public onlyRole(ADMINISTRATOR_ROLE)  {\r\n        state.disableFastWithdraws();\r\n    }\r\n\r\n    function updateSideChainMerkleRoot(bytes32 _rootHash) public onlyRole(SIDECHAINOPERATOR_ROLE) {\r\n        state.setSideChainMerkleRoot(_rootHash);\r\n        emit SideChainMerkleRootUpdated(_rootHash);\r\n    }\r\n\r\n    function resetLast24HoursAmountWithdrawn() public onlyRole(SIDECHAINOPERATOR_ROLE) {\r\n        state.resetLast24HoursAmountWithdrawn();\r\n        emit WithdrawLimitReset();\r\n    }\r\n\r\n    function set24HourWithdrawLimit(uint256 _withdrawLimit) public onlyRole(SIDECHAINOPERATOR_ROLE) {\r\n        state.set24HourWithdrawLimit(_withdrawLimit);\r\n        emit WithdrawLimitChanged(_withdrawLimit);\r\n    }\r\n\r\n    function updateWithdrawLimitDaily(uint256 _withdrawLimit) public onlyRole(SIDECHAINOPERATOR_ROLE) {\r\n        emit WithdrawLimitDailyChanged(withdrawalLimitDaily, _withdrawLimit);\r\n        withdrawalLimitDaily = _withdrawLimit;\r\n    }\r\n\r\n    function updateWithdrawLimitMonthly(uint256 _withdrawLimit) public onlyRole(SIDECHAINOPERATOR_ROLE) {\r\n        emit WithdrawLimitMonthlyChanged(withdrawalLimitMonthly, _withdrawLimit);\r\n        withdrawalLimitMonthly = _withdrawLimit;\r\n    }\r\n    function updateWithdrawLimitYearly(uint256 _withdrawLimit) public onlyRole(SIDECHAINOPERATOR_ROLE) {\r\n        emit WithdrawLimitYearlyChanged(withdrawalLimitYearly, _withdrawLimit);\r\n        withdrawalLimitYearly = _withdrawLimit;\r\n    }\r\n\r\n    function getTokenSentToLinkedChain(address _address) public view returns (uint256 _token) {\r\n        return state.getTokenSentToLinkedChain(_address);\r\n    }\r\n\r\n    function getTokenClaimedOnThisChain(address _address) public view returns (uint256 _token)  {\r\n        return state.getTokenClaimedOnThisChain(_address);\r\n    }\r\n\r\n    function getTokenSentToLinkedChainTime(address _address) public view returns (uint256 _time)  {\r\n        return state.getTokenSentToLinkedChainTime(_address);\r\n    }\r\n\r\n    // ------------------------------------------------------------------------\r\n    // verifyWithdrawOk(uint256 _amount)\r\n    // Checks if creating _amount token on main chain does not violate the 24 hour transfer limit\r\n    // ------------------------------------------------------------------------\r\n    function verifyWithdrawOk(uint256 _amount) public returns (bool _authorized) {\r\n        uint256 _lastWithdrawLimitReductionTime = state.lastWithdrawLimitReductionTime();\r\n        uint256 _withdrawLimit24Hours = state.withdrawLimit24Hours();\r\n        \r\n        if (block.timestamp > _lastWithdrawLimitReductionTime) {\r\n            uint256 _timePassed = block.timestamp - _lastWithdrawLimitReductionTime;\r\n            state.update24HoursWithdrawLimit(_timePassed * _withdrawLimit24Hours / 1 days);\r\n        }\r\n        \r\n        if (state.last24HoursAmountWithdrawn() + _amount <= _withdrawLimit24Hours) {\r\n            return true;\r\n        } else {\r\n            return false;\r\n        }\r\n    }\r\n\r\n    function isNotDailyLimitExceeding(uint256 _amount) public view returns(bool) {\r\n        return (getWithdrawalPerDay(_msgSender()) + _amount <= withdrawalLimitDaily);\r\n    }\r\n    function isNotMonthlyLimitExceeding(uint256 _amount) public view returns(bool) {\r\n        return (getWithdrawalPerMonth(_msgSender()) + _amount <= withdrawalLimitMonthly);\r\n    }\r\n    function isNotYearlyLimitExceeding(uint256 _amount) public view returns(bool) {\r\n        return (getWithdrawalPerYear(_msgSender()) + _amount <= withdrawalLimitYearly);\r\n    }\r\n\r\n    function verifyUpdateDailyLimit(uint256 _amount) public {\r\n        require(isNotDailyLimitExceeding(_amount), \"MorpherBridge: Withdrawal Amount exceeds daily limit\");\r\n        withdrawalPerDay[_msgSender()][block.timestamp / 1 days] = getWithdrawalPerDay(_msgSender()) + _amount;\r\n    }\r\n\r\n    function verifyUpdateMonthlyLimit(uint256 _amount) public {\r\n        require(isNotMonthlyLimitExceeding(_amount), \"MorpherBridge: Withdrawal Amount exceeds monthly limit\");\r\n        withdrawalPerMonth[_msgSender()][block.timestamp / 30 days] = getWithdrawalPerMonth(_msgSender()) + _amount;\r\n    }\r\n\r\n    function verifyUpdateYearlyLimit(uint256 _amount) public {\r\n        require(isNotYearlyLimitExceeding(_amount), \"MorpherBridge: Withdrawal Amount exceeds yearly limit\");\r\n        withdrawalPerYear[_msgSender()][block.timestamp / 365 days] = getWithdrawalPerYear(_msgSender()) + _amount;\r\n    }\r\n\r\n    function getWithdrawalPerDay(address _user) public view returns(uint) {\r\n         if(address(previousBridge) != address(0) && withdrawalPerDay[_user][block.timestamp / 1 days] == 0) {\r\n           return previousBridge.withdrawalPerDay(_user, block.timestamp / 1 days); //if bridge is re-deployed this needs to change to previousBridge.getWithdrawalPerDay\r\n        }\r\n        return withdrawalPerDay[_user][block.timestamp / 1 days];\r\n    }\r\n    function getWithdrawalPerMonth(address _user) public view returns(uint) {\r\n         if(address(previousBridge) != address(0) && withdrawalPerMonth[_user][block.timestamp / 30 days] == 0) {\r\n            return previousBridge.withdrawalPerMonth(_user, block.timestamp / 30 days); //if bridge is re-deployed this needs to change to previousBridge.getWithdrawalPerDay\r\n        }\r\n        return withdrawalPerMonth[_user][block.timestamp / 30 days];\r\n    }\r\n    function getWithdrawalPerYear(address _user) public view returns(uint) {\r\n         if(address(previousBridge) != address(0) && withdrawalPerYear[_user][block.timestamp / 365 days] == 0) {\r\n            return previousBridge.withdrawalPerYear(_user, block.timestamp / 365 days); //if bridge is re-deployed this needs to change to previousBridge.getWithdrawalPerDay\r\n        }\r\n        return withdrawalPerYear[_user][block.timestamp / 365 days];\r\n    }\r\n\r\n    // ------------------------------------------------------------------------\r\n    // transferToSideChain(uint256 _tokens)\r\n    // Transfer token to Morpher's side chain to trade without fees and near instant\r\n    // settlement.\r\n    // - Owner's account must have sufficient balance to transfer\r\n    // - 0 value transfers are not supported\r\n    // Token are burned on the main chain and are created and credited to msg.sender\r\n    //  on the side chain\r\n    // ------------------------------------------------------------------------\r\n    function transferToSideChain(uint256 _tokens) public userNotBlocked {\r\n        require(_tokens >= 0, \"MorpherBridge: Amount of tokens must be positive.\");\r\n        require(MorpherToken(state.morpherTokenAddress()).balanceOf(_msgSender()) >= _tokens, \"MorpherBridge: Insufficient balance.\");\r\n        verifyUpdateDailyLimit(_tokens);\r\n        verifyUpdateMonthlyLimit(_tokens);\r\n        verifyUpdateYearlyLimit(_tokens);\r\n        MorpherToken(state.morpherTokenAddress()).burn(_msgSender(), _tokens);\r\n        uint256 _newTokenSentToLinkedChain = getTokenSentToLinkedChain(_msgSender()) + _tokens;\r\n        uint256 _transferNonce = state.getBridgeNonce();\r\n        uint256 _timeStamp = block.timestamp;\r\n        bytes32 _transferHash = keccak256(\r\n            abi.encodePacked(\r\n                _msgSender(),\r\n                _tokens,\r\n                _newTokenSentToLinkedChain,\r\n                _timeStamp,\r\n                _transferNonce\r\n            )\r\n        );\r\n        state.setTokenSentToLinkedChain(_msgSender(), _newTokenSentToLinkedChain);\r\n        emit TransferToLinkedChain(_msgSender(), _tokens, _newTokenSentToLinkedChain, _timeStamp, _transferNonce, _transferHash);\r\n    }\r\n\r\n    // ------------------------------------------------------------------------\r\n    // fastTransferFromSideChain(uint256 _numOfToken, uint256 _tokenBurnedOnLinkedChain, bytes32[] memory _proof)\r\n    // The sidechain operator can credit users with token they burend on the sidechain. Transfers\r\n    // happen immediately. To be removed after Beta.\r\n    // ------------------------------------------------------------------------\r\n    function fastTransferFromSideChain(address _address, uint256 _numOfToken, uint256 _tokenBurnedOnLinkedChain, bytes32 _sidechainTransactionHash) public onlyRole(SIDECHAINOPERATOR_ROLE) fastTransfers {\r\n        uint256 _tokenClaimed = state.getTokenClaimedOnThisChain(_address);\r\n        require(verifyWithdrawOk(_numOfToken), \"MorpherBridge: Withdraw amount exceeds permitted 24 hour limit. Please try again in a few hours.\");\r\n        require(_tokenClaimed + _numOfToken <= _tokenBurnedOnLinkedChain, \"MorpherBridge: Token amount exceeds token deleted on linked chain.\");\r\n        _chainTransfer(_address, _tokenClaimed, _numOfToken);\r\n        emit OperatorChainTransfer(_address, _numOfToken, _sidechainTransactionHash);\r\n    }\r\n    \r\n    // ------------------------------------------------------------------------\r\n    // trustlessTransferFromSideChain(uint256 _numOfToken, uint256 _claimLimit, bytes32[] memory _proof)\r\n    // Performs a merkle proof on the number of token that have been burned by the user on the side chain.\r\n    // If the number of token claimed on the main chain is less than the number of burned token on the side chain\r\n    // the difference (or less) can be claimed on the main chain.\r\n    // ------------------------------------------------------------------------\r\n    function trustlessTransferFromLinkedChain(uint256 _numOfToken, uint256 _claimLimit, bytes32[] memory _proof) public userNotBlocked {\r\n        bytes32 leaf = keccak256(abi.encodePacked(_msgSender(), _claimLimit));\r\n        uint256 _tokenClaimed = state.getTokenClaimedOnThisChain(_msgSender());        \r\n        require(mProof(_proof, leaf), \"MorpherBridge: Merkle Proof failed. Please make sure you entered the correct claim limit.\");\r\n        require(verifyWithdrawOk(_numOfToken), \"MorpherBridge: Withdraw amount exceeds permitted 24 hour limit. Please try again in a few hours.\");\r\n        verifyUpdateDailyLimit(_numOfToken);\r\n        verifyUpdateMonthlyLimit(_numOfToken);\r\n        verifyUpdateYearlyLimit(_numOfToken);\r\n        require(_tokenClaimed + _numOfToken <= _claimLimit, \"MorpherBridge: Token amount exceeds token deleted on linked chain.\");     \r\n        _chainTransfer(_msgSender(), _tokenClaimed, _numOfToken);   \r\n        emit TrustlessWithdrawFromSideChain(_msgSender(), _numOfToken);\r\n    }\r\n    \r\n    // ------------------------------------------------------------------------\r\n    // _chainTransfer(address _address, uint256 _tokenClaimed, uint256 _numOfToken)\r\n    // Creates token on the chain for the user after proving their distruction on the \r\n    // linked chain has been proven before \r\n    // ------------------------------------------------------------------------\r\n    function _chainTransfer(address _address, uint256 _tokenClaimed, uint256 _numOfToken) private {\r\n        state.setTokenClaimedOnThisChain(_address, _tokenClaimed + _numOfToken);\r\n        state.add24HoursWithdrawn(_numOfToken);\r\n        MorpherToken(state.morpherTokenAddress()).mint(_address, _numOfToken);\r\n    }\r\n        \r\n    // ------------------------------------------------------------------------\r\n    // claimFailedTransferToSidechain(uint256 _wrongSideChainBalance, bytes32[] memory _proof)\r\n    // If token sent to side chain were not credited to the user on the side chain within inactivityPeriod\r\n    // they can reclaim the token on the main chain by submitting the proof that their\r\n    // side chain balance is less than the number of token sent from main chain.\r\n    // ------------------------------------------------------------------------\r\n    function claimFailedTransferToSidechain(uint256 _wrongSideChainBalance, bytes32[] memory _proof) public userNotBlocked {\r\n        bytes32 leaf = keccak256(abi.encodePacked(_msgSender(), _wrongSideChainBalance));\r\n        uint256 _tokenSentToLinkedChain = getTokenSentToLinkedChain(_msgSender());\r\n        uint256 _tokenSentToLinkedChainTime = getTokenSentToLinkedChainTime(_msgSender());\r\n        uint256 _inactivityPeriod = state.inactivityPeriod();\r\n        \r\n        require(block.timestamp > _tokenSentToLinkedChainTime + _inactivityPeriod, \"MorpherBridge: Failed deposits can only be claimed after inactivity period.\");\r\n        require(_wrongSideChainBalance < _tokenSentToLinkedChain, \"MorpherBridge: Other chain credit is greater equal to wrongSideChainBalance.\");\r\n        require(verifyWithdrawOk(_tokenSentToLinkedChain - _wrongSideChainBalance), \"MorpherBridge: Claim amount exceeds permitted 24 hour limit.\");\r\n        require(mProof(_proof, leaf), \"MorpherBridge: Merkle Proof failed. Enter total amount of deposits on side chain.\");\r\n        \r\n        uint256 _claimAmount = _tokenSentToLinkedChain - _wrongSideChainBalance;\r\n        state.setTokenSentToLinkedChain(_msgSender(), _tokenSentToLinkedChain - _claimAmount);\r\n        state.add24HoursWithdrawn(_claimAmount);\r\n        MorpherToken(state.morpherTokenAddress()).mint(_msgSender(), _claimAmount);\r\n        emit ClaimFailedTransferToSidechain(_msgSender(), _claimAmount);\r\n    }\r\n\r\n    // ------------------------------------------------------------------------\r\n    // recoverPositionFromSideChain(bytes32[] memory _proof, bytes32 _leaf, bytes32 _marketId, uint256 _timeStamp, uint256 _longShares, uint256 _shortShares, uint256 _meanEntryPrice, uint256 _meanEntrySpread, uint256 _meanEntryLeverage)\r\n    // Failsafe against side chain operator becoming inactive or withholding Times (Time withhold attack).\r\n    // After 72 hours of no update of the side chain merkle root users can withdraw their last recorded\r\n    // positions from side chain to main chain. Overwrites eventually existing position on main chain.\r\n    // ------------------------------------------------------------------------\r\n    function recoverPositionFromSideChain(\r\n        bytes32[] memory _proof,\r\n        bytes32 _leaf,\r\n        bytes32 _marketId,\r\n        uint256 _timeStamp,\r\n        uint256 _longShares,\r\n        uint256 _shortShares,\r\n        uint256 _meanEntryPrice,\r\n        uint256 _meanEntrySpread,\r\n        uint256 _meanEntryLeverage,\r\n        uint256 _liquidationPrice\r\n        ) public sideChainInactive userNotBlocked onlyRecoveryEnabled {\r\n        require(_leaf == MorpherTradeEngine(state.morpherTradeEngineAddress()).getPositionHash(_msgSender(), _marketId, _timeStamp, _longShares, _shortShares, _meanEntryPrice, _meanEntrySpread, _meanEntryLeverage, _liquidationPrice), \"MorpherBridge: leaf does not equal position hash.\");\r\n        require(state.getPositionClaimedOnMainChain(_leaf) == false, \"MorpherBridge: Position already transferred.\");\r\n        require(mProof(_proof,_leaf) == true, \"MorpherBridge: Merkle proof failed.\");\r\n        state.setPositionClaimedOnMainChain(_leaf);\r\n        MorpherTradeEngine(state.morpherTradeEngineAddress()).setPosition(_msgSender(), _marketId, _timeStamp, _longShares, _shortShares, _meanEntryPrice, _meanEntrySpread, _meanEntryLeverage, _liquidationPrice);\r\n        emit PositionRecoveryFromSideChain(_msgSender(), _leaf);\r\n        // Remark: After resuming operations side chain operator has 72 hours to sync and eliminate transferred positions on side chain to avoid double spend\r\n    }\r\n\r\n    // ------------------------------------------------------------------------\r\n    // recoverTokenFromSideChain(bytes32[] memory _proof, bytes32 _leaf, bytes32 _marketId, uint256 _timeStamp, uint256 _longShares, uint256 _shortShares, uint256 _meanEntryPrice, uint256 _meanEntrySpread, uint256 _meanEntryLeverage)\r\n    // Failsafe against side chain operator becoming inactive or withholding times (time withhold attack).\r\n    // After 72 hours of no update of the side chain merkle root users can withdraw their last recorded\r\n    // token balance from side chain to main chain.\r\n    // ------------------------------------------------------------------------\r\n    function recoverTokenFromSideChain(bytes32[] memory _proof, bytes32 _leaf, uint256 _balance) public sideChainInactive userNotBlocked onlyRecoveryEnabled {\r\n        // Require side chain root hash not set on Mainchain for more than 72 hours (=3 days)\r\n        require(_leaf == state.getBalanceHash(_msgSender(), _balance), \"MorpherBridge: Wrong balance.\");\r\n        require(state.getPositionClaimedOnMainChain(_leaf) == false, \"MorpherBridge: Token already transferred.\");\r\n        require(mProof(_proof,_leaf) == true, \"MorpherBridge: Merkle proof failed.\");\r\n        require(verifyWithdrawOk(_balance), \"MorpherBridge: Withdraw amount exceeds permitted 24 hour limit.\");\r\n        state.setPositionClaimedOnMainChain(_leaf);\r\n        _chainTransfer(_msgSender(), state.getTokenClaimedOnThisChain(_msgSender()), _balance);\r\n        emit TokenRecoveryFromSideChain(_msgSender(), _leaf);\r\n        // Remark: Side chain operator must adjust side chain balances for token recoveries before restarting operations to avoid double spend\r\n    }\r\n\r\n    // ------------------------------------------------------------------------\r\n    // mProof(bytes32[] memory _proof, bytes32 _leaf)\r\n    // Computes merkle proof against the root hash of the sidechain stored in Morpher state\r\n    // ------------------------------------------------------------------------\r\n    function mProof(bytes32[] memory _proof, bytes32 _leaf) public view returns(bool _isTrue) {\r\n        return MerkleProofUpgradeable.verify(_proof, state.getSideChainMerkleRoot(), _leaf);\r\n    }\r\n}\r\n",
  "sourcePath": "/home/thomas/MorpherProtocol/contracts/MorpherBridge.sol",
  "compiler": {
    "name": "solc",
    "version": "0.8.11+commit.d7f03943.Emscripten.clang"
  },
  "schemaVersion": "3.4.5",
  "updatedAt": "2022-03-15T09:28:17.848Z",
  "devdoc": {
    "kind": "dev",
    "methods": {},
    "version": 1
  },
  "userdoc": {
    "kind": "user",
    "methods": {},
    "version": 1
  }
}