{
  "contractName": "MorpherAccountMigration",
  "abi": [
    {
      "inputs": [
        {
          "internalType": "address",
          "name": "_morpherStateAddress",
          "type": "address"
        }
      ],
      "payable": false,
      "stateMutability": "nonpayable",
      "type": "constructor"
    },
    {
      "anonymous": false,
      "inputs": [
        {
          "indexed": false,
          "internalType": "bytes32",
          "name": "_marketId",
          "type": "bytes32"
        },
        {
          "indexed": false,
          "internalType": "address",
          "name": "_from",
          "type": "address"
        },
        {
          "indexed": false,
          "internalType": "address",
          "name": "_to",
          "type": "address"
        },
        {
          "indexed": false,
          "internalType": "uint256",
          "name": "_timestamp",
          "type": "uint256"
        }
      ],
      "name": "MarketMigrationComplete",
      "type": "event"
    },
    {
      "anonymous": false,
      "inputs": [
        {
          "indexed": false,
          "internalType": "address",
          "name": "_from",
          "type": "address"
        },
        {
          "indexed": false,
          "internalType": "address",
          "name": "_to",
          "type": "address"
        },
        {
          "indexed": false,
          "internalType": "uint256",
          "name": "_timestamp",
          "type": "uint256"
        }
      ],
      "name": "MigrationComplete",
      "type": "event"
    },
    {
      "anonymous": false,
      "inputs": [
        {
          "indexed": false,
          "internalType": "address",
          "name": "_from",
          "type": "address"
        },
        {
          "indexed": false,
          "internalType": "address",
          "name": "_to",
          "type": "address"
        },
        {
          "indexed": false,
          "internalType": "uint256",
          "name": "_timestamp",
          "type": "uint256"
        }
      ],
      "name": "MigrationIncomplete",
      "type": "event"
    },
    {
      "anonymous": false,
      "inputs": [
        {
          "indexed": false,
          "internalType": "address",
          "name": "_from",
          "type": "address"
        },
        {
          "indexed": false,
          "internalType": "address",
          "name": "_to",
          "type": "address"
        },
        {
          "indexed": false,
          "internalType": "uint256",
          "name": "_timestamp",
          "type": "uint256"
        }
      ],
      "name": "MigrationPermissionGiven",
      "type": "event"
    },
    {
      "anonymous": false,
      "inputs": [
        {
          "indexed": true,
          "internalType": "address",
          "name": "previousOwner",
          "type": "address"
        },
        {
          "indexed": true,
          "internalType": "address",
          "name": "newOwner",
          "type": "address"
        }
      ],
      "name": "OwnershipTransferred",
      "type": "event"
    },
    {
      "anonymous": false,
      "inputs": [
        {
          "indexed": false,
          "internalType": "address",
          "name": "_from",
          "type": "address"
        },
        {
          "indexed": false,
          "internalType": "address",
          "name": "_to",
          "type": "address"
        },
        {
          "indexed": false,
          "internalType": "uint256",
          "name": "_amount",
          "type": "uint256"
        },
        {
          "indexed": false,
          "internalType": "uint256",
          "name": "_timestamp",
          "type": "uint256"
        }
      ],
      "name": "TokenMigrationComplete",
      "type": "event"
    },
    {
      "constant": true,
      "inputs": [],
      "name": "_owner",
      "outputs": [
        {
          "internalType": "address",
          "name": "",
          "type": "address"
        }
      ],
      "payable": false,
      "stateMutability": "view",
      "type": "function"
    },
    {
      "constant": true,
      "inputs": [
        {
          "internalType": "address",
          "name": "",
          "type": "address"
        }
      ],
      "name": "destinationAddressAllowsOverwriting",
      "outputs": [
        {
          "internalType": "address",
          "name": "",
          "type": "address"
        }
      ],
      "payable": false,
      "stateMutability": "view",
      "type": "function"
    },
    {
      "constant": true,
      "inputs": [],
      "name": "isOwner",
      "outputs": [
        {
          "internalType": "bool",
          "name": "",
          "type": "bool"
        }
      ],
      "payable": false,
      "stateMutability": "view",
      "type": "function"
    },
    {
      "constant": true,
      "inputs": [],
      "name": "owner",
      "outputs": [
        {
          "internalType": "address",
          "name": "",
          "type": "address"
        }
      ],
      "payable": false,
      "stateMutability": "view",
      "type": "function"
    },
    {
      "constant": true,
      "inputs": [
        {
          "internalType": "address",
          "name": "",
          "type": "address"
        }
      ],
      "name": "ownerSetMigrationAllowance",
      "outputs": [
        {
          "internalType": "address",
          "name": "",
          "type": "address"
        }
      ],
      "payable": false,
      "stateMutability": "view",
      "type": "function"
    },
    {
      "constant": false,
      "inputs": [],
      "name": "renounceOwnership",
      "outputs": [],
      "payable": false,
      "stateMutability": "nonpayable",
      "type": "function"
    },
    {
      "constant": true,
      "inputs": [
        {
          "internalType": "address",
          "name": "",
          "type": "address"
        }
      ],
      "name": "sourceAddressAllowedToOverwriteTo",
      "outputs": [
        {
          "internalType": "address",
          "name": "",
          "type": "address"
        }
      ],
      "payable": false,
      "stateMutability": "view",
      "type": "function"
    },
    {
      "constant": true,
      "inputs": [
        {
          "internalType": "address",
          "name": "",
          "type": "address"
        }
      ],
      "name": "sourceAddressMigrationFinished",
      "outputs": [
        {
          "internalType": "bool",
          "name": "",
          "type": "bool"
        }
      ],
      "payable": false,
      "stateMutability": "view",
      "type": "function"
    },
    {
      "constant": true,
      "inputs": [
        {
          "internalType": "address",
          "name": "",
          "type": "address"
        }
      ],
      "name": "sourceAddressMigrationStarted",
      "outputs": [
        {
          "internalType": "bool",
          "name": "",
          "type": "bool"
        }
      ],
      "payable": false,
      "stateMutability": "view",
      "type": "function"
    },
    {
      "constant": true,
      "inputs": [],
      "name": "stateAddress",
      "outputs": [
        {
          "internalType": "address",
          "name": "",
          "type": "address"
        }
      ],
      "payable": false,
      "stateMutability": "view",
      "type": "function"
    },
    {
      "constant": false,
      "inputs": [
        {
          "internalType": "address",
          "name": "_tokenAddress",
          "type": "address"
        },
        {
          "internalType": "uint256",
          "name": "_tokens",
          "type": "uint256"
        }
      ],
      "name": "transferAnyERC20Token",
      "outputs": [
        {
          "internalType": "bool",
          "name": "_success",
          "type": "bool"
        }
      ],
      "payable": false,
      "stateMutability": "nonpayable",
      "type": "function"
    },
    {
      "constant": false,
      "inputs": [
        {
          "internalType": "address",
          "name": "newOwner",
          "type": "address"
        }
      ],
      "name": "transferOwnership",
      "outputs": [],
      "payable": false,
      "stateMutability": "nonpayable",
      "type": "function"
    },
    {
      "constant": false,
      "inputs": [
        {
          "internalType": "bytes32[]",
          "name": "_marketHashes",
          "type": "bytes32[]"
        }
      ],
      "name": "addMarketHashes",
      "outputs": [],
      "payable": false,
      "stateMutability": "nonpayable",
      "type": "function"
    },
    {
      "constant": false,
      "inputs": [
        {
          "internalType": "address",
          "name": "_from",
          "type": "address"
        }
      ],
      "name": "allowMigrationFrom",
      "outputs": [],
      "payable": false,
      "stateMutability": "nonpayable",
      "type": "function"
    },
    {
      "constant": false,
      "inputs": [
        {
          "internalType": "address",
          "name": "_from",
          "type": "address"
        },
        {
          "internalType": "address",
          "name": "_to",
          "type": "address"
        }
      ],
      "name": "ownerConfirmMigrationAddresses",
      "outputs": [],
      "payable": false,
      "stateMutability": "nonpayable",
      "type": "function"
    },
    {
      "constant": false,
      "inputs": [
        {
          "internalType": "address",
          "name": "_to",
          "type": "address"
        }
      ],
      "name": "startMigrate",
      "outputs": [],
      "payable": false,
      "stateMutability": "nonpayable",
      "type": "function"
    }
  ],
  "bytecode": "0x608060405234801561001057600080fd5b506040516112d93803806112d98339818101604052602081101561003357600080fd5b5051600080546001600160a01b03191633178082556040516001600160a01b039190911691907f8be0079c531659141344cd1fd0a4f28419497f9722a3daafe3b4186f6b6457e0908290a3600180546001600160a01b0319166001600160a01b039290921691909117905561122c806100ad6000396000f3fe608060405234801561001057600080fd5b50600436106100ff5760003560e01c80638f32d59b11610097578063c836ee0d11610066578063c836ee0d146102e5578063dc39d06d14610313578063e76cf98c1461033f578063f2fde38b14610365576100ff565b80638f32d59b1461028957806396bfe8a2146102915780639fd8162d146102b7578063b2bdfa7b146102dd576100ff565b80635cf7d3ea116100d35780635cf7d3ea146101b0578063715018a6146102535780637454d2df1461025b5780638da5cb5b14610281576100ff565b8062179c5914610104578063215cdbb11461012c5780632ab6d17e14610166578063437b2473146101a8575b600080fd5b61012a6004803603602081101561011a57600080fd5b50356001600160a01b031661038b565b005b6101526004803603602081101561014257600080fd5b50356001600160a01b031661047a565b604080519115158252519081900360200190f35b61018c6004803603602081101561017c57600080fd5b50356001600160a01b031661048f565b604080516001600160a01b039092168252519081900360200190f35b61018c6104aa565b61012a600480360360208110156101c657600080fd5b8101906020810181356401000000008111156101e157600080fd5b8201836020820111156101f357600080fd5b8035906020019184602083028401116401000000008311171561021557600080fd5b9190808060200260200160405190810160405280939291908181526020018383602002808284376000920191909152509295506104b9945050505050565b61012a6105ab565b61012a6004803603602081101561027157600080fd5b50356001600160a01b031661063c565b61018c6107d9565b6101526107e8565b61018c600480360360208110156102a757600080fd5b50356001600160a01b03166107f9565b61018c600480360360208110156102cd57600080fd5b50356001600160a01b0316610814565b61018c61082f565b61012a600480360360408110156102fb57600080fd5b506001600160a01b038135811691602001351661083e565b6101526004803603604081101561032957600080fd5b506001600160a01b0381351690602001356108b3565b6101526004803603602081101561035557600080fd5b50356001600160a01b0316610996565b61012a6004803603602081101561037b57600080fd5b50356001600160a01b03166109ab565b336000908152600360205260409020546001600160a01b0316156103f6576040805162461bcd60e51b815260206004820152601e60248201527f63616e6e6f742073706c69742061646472657373206d6967726174696f6e0000604482015290519081900360640190fd5b6001600160a01b038116600081815260026020908152604080832080546001600160a01b0319908116339081179092558185526003845293829020805490941685179093558051938452908301919091524282820152517f9b8d2921e1a477742770dd8ea3a11a3d6e39766c4d0955229cfcd0cadc0918489181900360600190a150565b60096020526000908152604090205460ff1681565b6003602052600090815260409020546001600160a01b031681565b6001546001600160a01b031681565b6104c16107e8565b610500576040805162461bcd60e51b815260206004820181905260248201526000805160206111d8833981519152604482015290519081900360640190fd5b60005b81518110156105a757600a600083838151811061051c57fe5b60200260200101518152602001908152602001600020546000141561059f57600b82828151811061054957fe5b6020908102919091018101518254600181018455600093845291832090910155600b54835160001990910191600a9185908590811061058457fe5b60200260200101518152602001908152602001600020819055505b600101610503565b5050565b6105b36107e8565b6105f2576040805162461bcd60e51b815260206004820181905260248201526000805160206111d8833981519152604482015290519081900360640190fd5b600080546040516001600160a01b03909116907f8be0079c531659141344cd1fd0a4f28419497f9722a3daafe3b4186f6b6457e0908390a3600080546001600160a01b0319169055565b3360009081526002602052604090205481906001600160a01b038083169116146106975760405162461bcd60e51b81526004018080602001828103825260338152602001806111a56033913960400191505060405180910390fd5b336000908152600460205260409020546001600160a01b038281169116146106f05760405162461bcd60e51b81526004018080602001828103825260258152602001806111806025913960400191505060405180910390fd5b336000908152600860205260409020805460ff19166001179055610713826109fe565b600061071e83610c27565b9050801561078c5733600081815260096020908152604091829020805460ff1916600117905581519283526001600160a01b038616908301524282820152517f0f5ce8a151155b1a2acc7863a356cd5a75b755993f1474787d5bc0c1ebde2eb49181900360600190a16107d4565b604080513381526001600160a01b0385166020820152428183015290517fa5d593de18cdd3871aa3a73308d3692485f6170d7281dc10e0f63b44ca3392c99181900360600190a15b505050565b6000546001600160a01b031690565b6000546001600160a01b0316331490565b6002602052600090815260409020546001600160a01b031681565b6004602052600090815260409020546001600160a01b031681565b6000546001600160a01b031681565b6108466107e8565b610885576040805162461bcd60e51b815260206004820181905260248201526000805160206111d8833981519152604482015290519081900360640190fd5b6001600160a01b03918216600090815260046020526040902080546001600160a01b03191691909216179055565b60006108bd6107e8565b6108fc576040805162461bcd60e51b815260206004820181905260248201526000805160206111d8833981519152604482015290519081900360640190fd5b826001600160a01b031663a9059cbb6109136107d9565b846040518363ffffffff1660e01b815260040180836001600160a01b03166001600160a01b0316815260200182815260200192505050602060405180830381600087803b15801561096357600080fd5b505af1158015610977573d6000803e3d6000fd5b505050506040513d602081101561098d57600080fd5b50519392505050565b60086020526000908152604090205460ff1681565b6109b36107e8565b6109f2576040805162461bcd60e51b815260206004820181905260248201526000805160206111d8833981519152604482015290519081900360640190fd5b6109fb816110b7565b50565b3360009081526002602052604090205481906001600160a01b03808316911614610a595760405162461bcd60e51b81526004018080602001828103825260338152602001806111a56033913960400191505060405180910390fd5b336000908152600460205260409020546001600160a01b03828116911614610ab25760405162461bcd60e51b81526004018080602001828103825260258152602001806111806025913960400191505060405180910390fd5b3360009081526006602052604090205460ff166105a757600154604080516370a0823160e01b815233600482015290516001600160a01b039092169160009183916370a0823191602480820192602092909190829003018186803b158015610b1957600080fd5b505afa158015610b2d573d6000803e3d6000fd5b505050506040513d6020811015610b4357600080fd5b5051604080516317d5759960e31b81523360048201526001600160a01b0387811660248301526044820184905291519293509084169163beabacc89160648082019260009290919082900301818387803b158015610ba057600080fd5b505af1158015610bb4573d6000803e3d6000fd5b505033600081815260066020908152604091829020805460ff1916600117905581519283526001600160a01b03891690830152818101859052426060830152517fadc975ad78f162570b196449ab6b6bcf4ac0b0927da1f68cfbdbe5d791677fef9350908190036080019150a150505050565b3360009081526002602052604081205482906001600160a01b03808316911614610c825760405162461bcd60e51b81526004018080602001828103825260338152602001806111a56033913960400191505060405180910390fd5b336000908152600460205260409020546001600160a01b03828116911614610cdb5760405162461bcd60e51b81526004018080602001828103825260258152602001806111806025913960400191505060405180910390fd5b600154336000908152600760205260409020546001600160a01b03909116905b600b548110156110aa576207a1205a1015610d2c573360009081526007602052604081209190915592506110b19050565b600080600080600080876001600160a01b0316630fa8f51633600b8a81548110610d5257fe5b90600052602060002001546040518363ffffffff1660e01b815260040180836001600160a01b03166001600160a01b031681526020018281526020019250505060c06040518083038186803b158015610daa57600080fd5b505afa158015610dbe573d6000803e3d6000fd5b505050506040513d60c0811015610dd457600080fd5b508051602082015160408301516060840151608085015160a090950151939a5091985096509450909250905085151580610e0e5750600085115b1561109857876001600160a01b031663be7e64b68c600b8a81548110610e3057fe5b90600052602060002001548b6001600160a01b0316633d7f4f3c33600b8e81548110610e5857fe5b90600052602060002001546040518363ffffffff1660e01b815260040180836001600160a01b03166001600160a01b031681526020018281526020019250505060206040518083038186803b158015610eb057600080fd5b505afa158015610ec4573d6000803e3d6000fd5b505050506040513d6020811015610eda57600080fd5b5051604080516001600160e01b031960e087901b1681526001600160a01b03909416600485015260248401929092526044830152606482018a90526084820189905260a4820188905260c4820187905260e4820186905261010482018590525161012480830192600092919082900301818387803b158015610f5b57600080fd5b505af1158015610f6f573d6000803e3d6000fd5b50505050876001600160a01b031663be7e64b633600b8a81548110610f9057fe5b6000918252602082200154604080516001600160e01b031960e087901b1681526001600160a01b0390941660048501526024840191909152426044840152606483018290526084830182905260a4830182905260c4830182905260e483018290526101048301829052516101248084019382900301818387803b15801561101657600080fd5b505af115801561102a573d6000803e3d6000fd5b505050507f2bad39753bcc96493937632a5abb948ce9967d2e92be4b485aacaa4faf97863d600b888154811061105c57fe5b600091825260209182902001546040805191825233928201929092526001600160a01b038e168183015242606082015290519081900360800190a15b505060019094019350610cfb92505050565b5060019250505b50919050565b6001600160a01b0381166110fc5760405162461bcd60e51b81526004018080602001828103825260288152602001806111586028913960400191505060405180910390fd5b600080546040516001600160a01b03808516939216917f8be0079c531659141344cd1fd0a4f28419497f9722a3daafe3b4186f6b6457e091a3600080546001600160a01b0319166001600160a01b039290921691909117905556fe4f776e61626c653a207573652072656e6f756e6365206f776e65727368697020696e73746561642e41646472657373206973206e6f742077686974656c6973746564206279206261636b656e6441646472657373206973206e6f7420616c6c6f77656420746f206d69677261746520746f2074617267657420616464726573734f776e61626c653a2063616c6c65722073686f756c64206265206f776e65722ea265627a7a723158200d3a19bf94082f6aa174c4afe1091284d4a4399b63daee519307b8d84b7b661a64736f6c63430005100032",
  "source": "// SPDX-License-Identifier: GPL-3.0-or-later\npragma solidity 0.5.16;\n\nimport \"./IERC20.sol\";\nimport \"./IMorpherState.sol\";\nimport \"./Ownable.sol\";\n\n/**\n * @title Account Migration Smart Contract\n * @author Thomas Wiesner \n * @notice This Contract allows the migration of the tokens and positions from one address to another\n * @dev This smart contract needs platform rights to do its job\n */\ncontract MorpherAccountMigration is Ownable {\n\n    address public stateAddress;\n\n    constructor(address _morpherStateAddress) public {\n        stateAddress = _morpherStateAddress;\n    }\n    \n    //this holds a source->target address, so that only the old source can overwrite a new target address\n    mapping(address => address) public sourceAddressAllowedToOverwriteTo;\n    //this one is to check if the morpherWallet address has started a migration process. UX wise it should be impossible to do anything until it's completed\n    mapping(address => address) public destinationAddressAllowsOverwriting;\n\n    //this mapping is set by the admin. It is here to let the backend do another sanity check that the user is really the user (formatic from => zerowallet to)\n    mapping(address => address) public ownerSetMigrationAllowance;\n\n\n    //this holds a boolean if the market is already migrated or not for a specific address\n    mapping(bytes32 => mapping(address => bool)) marketMigrated;\n\n    //this holds a boolean for successful token migration from an address away (source address bound)\n    mapping(address => bool) tokensMigratedFrom;\n\n    //this is the index for running through the market hashes array. So when a migration is incomplete that at the next time it calls \"startMigrate\" the for-loop won't start from scratch\n    mapping(address => uint) indexMarketHash;\n\n    //this mapping tells you if the migration process has started\n    mapping(address => bool) public sourceAddressMigrationStarted;\n    mapping(address => bool) public sourceAddressMigrationFinished;\n\n    event TokenMigrationComplete(address _from, address _to, uint _amount, uint _timestamp);\n    event MarketMigrationComplete(bytes32 _marketId, address _from, address _to, uint _timestamp);\n\n    event MigrationIncomplete(address _from, address _to, uint _timestamp);\n    event MigrationComplete(address _from, address _to, uint _timestamp);\n\n    event MigrationPermissionGiven(address _from, address _to, uint _timestamp);\n\n    mapping(bytes32 => uint) marketHashId;\n    bytes32[] marketHashes;\n\n\n    function addMarketHashes(bytes32[] memory _marketHashes) public onlyOwner {\n        for(uint i = 0; i < _marketHashes.length; i++) {\n            if(marketHashId[_marketHashes[i]] == 0) {\n                marketHashes.push(_marketHashes[i]);\n                marketHashId[_marketHashes[i]] = marketHashes.length - 1;\n            }\n        }\n    }\n\n    /**\n     * @notice This function will allow migration to a target address from a _from-source address\n    */\n    function allowMigrationFrom(address _from) public {\n        require(destinationAddressAllowsOverwriting[msg.sender] == address(0), \"cannot split address migration\");\n        sourceAddressAllowedToOverwriteTo[_from] = msg.sender;\n        destinationAddressAllowsOverwriting[msg.sender] = _from;\n        emit MigrationPermissionGiven(_from, msg.sender, block.timestamp);\n    }\n\n    /**\n    * @notice This modifier and the function below are for the backend to set a source and destination address. The user needs to be a registered user in our signup/login flow.\n    */\n   function ownerConfirmMigrationAddresses(address _from, address _to) public onlyOwner {\n        ownerSetMigrationAllowance[_from] = _to;\n    }\n\n    /**\n     * @notice the modifier checks if an target-address allows migration\n     */\n    modifier isAllowedToMigrateTo(address _to) {\n        require(sourceAddressAllowedToOverwriteTo[msg.sender] == _to, \"Address is not allowed to migrate to target address\");\n        require(ownerSetMigrationAllowance[msg.sender] == _to, \"Address is not whitelisted by backend\");\n        _;\n    }\n\n    function startMigrate(address _to) public isAllowedToMigrateTo(_to) {\n        sourceAddressMigrationStarted[msg.sender] = true;\n        migrateTokens(_to);\n        bool migrationComplete = migratePositions(_to);\n        if(migrationComplete) {\n            sourceAddressMigrationFinished[msg.sender] = true;\n            emit MigrationComplete(msg.sender, _to, block.timestamp);\n        } else {\n            emit MigrationIncomplete(msg.sender, _to, block.timestamp);\n        }\n    }\n\n    /**\n     * @notice To migrate the tokens we send it from the msg.sender address to _to and emit an event that TokenMigrationComplete\n     * @dev the \"if\" is intentional, so that we can re-call the function as many times as we want, but it will only execute one time only\n     */\n    function migrateTokens(address _to) internal isAllowedToMigrateTo(_to) {\n        if(tokensMigratedFrom[msg.sender] == false) {\n            IMorpherState state = IMorpherState(stateAddress);\n            uint balance = state.balanceOf(msg.sender);\n            state.transfer(msg.sender, _to, balance);\n            tokensMigratedFrom[msg.sender] = true;\n            emit TokenMigrationComplete(msg.sender, _to, balance, block.timestamp);\n        }\n    }\n\n    function migratePositions(address _to) internal isAllowedToMigrateTo(_to) returns (bool) {\n        IMorpherState state = IMorpherState(stateAddress);\n\n        for(uint i = indexMarketHash[msg.sender]; i < marketHashes.length; i++) {\n            //if(marketMigrated[marketHashes[i]][_to] == false) {\n                if(gasleft() < 500000) { //stop if there's not enough gas to write the next transaction\n                    indexMarketHash[msg.sender] = i;\n                    return false;\n                }\n            \n                (uint longShares, uint shortShares, uint meanEntryPrice, uint meanEntrySpread, uint meanEntryLeverage, uint liquidationPrice) = state.getPosition(msg.sender, marketHashes[i]);\n                if(longShares > 0 || shortShares > 0) {\n                    // state.setPosition(_to, marketHashes[i], block.timestamp, longShares, shortShares, meanEntryPrice, meanEntrySpread, meanEntryLeverage, liquidationPrice); //create a new position for the \"to\" address with the same parameters\n                    state.setPosition(_to, marketHashes[i], state.getLastUpdated(msg.sender, marketHashes[i]), longShares, shortShares, meanEntryPrice, meanEntrySpread, meanEntryLeverage, liquidationPrice); //create a new position for the \"to\" address with the same parameters\n                    state.setPosition(msg.sender, marketHashes[i], block.timestamp, 0,0,0,0,0,0); //delete the current position   \n                    emit MarketMigrationComplete(marketHashes[i], msg.sender, _to, block.timestamp);  \n                }\n            //    marketMigrated[marketHashes[i]][_to] = true; //avoid\n            //}    \n        }\n        return true;\n    }\n\n}",
  "sourcePath": "/Users/thomas/Projects/Morpher/MorpherProtocol/contracts/MorpherAccountMigration.sol",
  "compiler": {
    "name": "solc",
    "version": "0.5.16+commit.9c3226ce.Emscripten.clang"
  },
  "schemaVersion": "3.4.11",
  "updatedAt": "2023-04-17T14:01:52.932Z",
  "networkType": "ethereum",
  "devdoc": {
    "author": "Thomas Wiesner ",
    "details": "This smart contract needs platform rights to do its job",
    "methods": {
      "isOwner()": {
        "return": "true if `msg.sender` is the owner of the contract."
      },
      "owner()": {
        "return": "the address of the owner."
      },
      "renounceOwnership()": {
        "details": "Allows the current owner to relinquish control of the contract. It will not be possible to call the functions with the `onlyOwner` modifier anymore."
      },
      "transferOwnership(address)": {
        "details": "Allows the current owner to transfer control of the contract to a newOwner.",
        "params": {
          "newOwner": "The address to transfer ownership to."
        }
      }
    },
    "title": "Account Migration Smart Contract"
  },
  "userdoc": {
    "methods": {
      "allowMigrationFrom(address)": {
        "notice": "This function will allow migration to a target address from a _from-source address"
      },
      "ownerConfirmMigrationAddresses(address,address)": {
        "notice": "This modifier and the function below are for the backend to set a source and destination address. The user needs to be a registered user in our signup/login flow."
      },
      "renounceOwnership()": {
        "notice": "Renouncing ownership will leave the contract without an owner, thereby removing any functionality that is only available to the owner."
      }
    },
    "notice": "This Contract allows the migration of the tokens and positions from one address to another"
  }
}