{
  "contractName": "MorpherGovernance",
  "abi": [
    {
      "inputs": [
        {
          "internalType": "address",
          "name": "_stateAddress",
          "type": "address"
        },
        {
          "internalType": "address",
          "name": "_coldStorageOwnerAddress",
          "type": "address"
        }
      ],
      "stateMutability": "nonpayable",
      "type": "constructor"
    },
    {
      "anonymous": false,
      "inputs": [
        {
          "indexed": true,
          "internalType": "address",
          "name": "_sender",
          "type": "address"
        },
        {
          "indexed": true,
          "internalType": "uint256",
          "name": "_myValidatorIndex",
          "type": "uint256"
        }
      ],
      "name": "BecomeValidator",
      "type": "event"
    },
    {
      "anonymous": false,
      "inputs": [
        {
          "indexed": true,
          "internalType": "address",
          "name": "_administratorAddress",
          "type": "address"
        },
        {
          "indexed": false,
          "internalType": "uint256",
          "name": "_votes",
          "type": "uint256"
        }
      ],
      "name": "ElectedAdministrator",
      "type": "event"
    },
    {
      "anonymous": false,
      "inputs": [
        {
          "indexed": true,
          "internalType": "address",
          "name": "_oracleAddress",
          "type": "address"
        },
        {
          "indexed": false,
          "internalType": "uint256",
          "name": "_votes",
          "type": "uint256"
        }
      ],
      "name": "ElectedOracle",
      "type": "event"
    },
    {
      "anonymous": false,
      "inputs": [
        {
          "indexed": true,
          "internalType": "address",
          "name": "previousOwner",
          "type": "address"
        },
        {
          "indexed": true,
          "internalType": "address",
          "name": "newOwner",
          "type": "address"
        }
      ],
      "name": "OwnershipTransferred",
      "type": "event"
    },
    {
      "anonymous": false,
      "inputs": [
        {
          "indexed": true,
          "internalType": "address",
          "name": "_sender",
          "type": "address"
        },
        {
          "indexed": true,
          "internalType": "uint256",
          "name": "_myValidatorIndex",
          "type": "uint256"
        }
      ],
      "name": "StepDownAsValidator",
      "type": "event"
    },
    {
      "inputs": [],
      "name": "MAXVALIDATORS",
      "outputs": [
        {
          "internalType": "uint256",
          "name": "",
          "type": "uint256"
        }
      ],
      "stateMutability": "view",
      "type": "function"
    },
    {
      "inputs": [],
      "name": "MINVALIDATORLOCKUP",
      "outputs": [
        {
          "internalType": "uint256",
          "name": "",
          "type": "uint256"
        }
      ],
      "stateMutability": "view",
      "type": "function"
    },
    {
      "inputs": [],
      "name": "VALIDATORWARMUPPERIOD",
      "outputs": [
        {
          "internalType": "uint256",
          "name": "",
          "type": "uint256"
        }
      ],
      "stateMutability": "view",
      "type": "function"
    },
    {
      "inputs": [],
      "name": "lastValidatorJoined",
      "outputs": [
        {
          "internalType": "uint256",
          "name": "",
          "type": "uint256"
        }
      ],
      "stateMutability": "view",
      "type": "function"
    },
    {
      "inputs": [],
      "name": "morpherToken",
      "outputs": [
        {
          "internalType": "address",
          "name": "",
          "type": "address"
        }
      ],
      "stateMutability": "view",
      "type": "function"
    },
    {
      "inputs": [],
      "name": "numberOfValidators",
      "outputs": [
        {
          "internalType": "uint256",
          "name": "",
          "type": "uint256"
        }
      ],
      "stateMutability": "view",
      "type": "function"
    },
    {
      "inputs": [],
      "name": "owner",
      "outputs": [
        {
          "internalType": "address",
          "name": "",
          "type": "address"
        }
      ],
      "stateMutability": "view",
      "type": "function"
    },
    {
      "inputs": [],
      "name": "renounceOwnership",
      "outputs": [],
      "stateMutability": "nonpayable",
      "type": "function"
    },
    {
      "inputs": [],
      "name": "rewardBasisPoints",
      "outputs": [
        {
          "internalType": "uint256",
          "name": "",
          "type": "uint256"
        }
      ],
      "stateMutability": "view",
      "type": "function"
    },
    {
      "inputs": [
        {
          "internalType": "address",
          "name": "newOwner",
          "type": "address"
        }
      ],
      "name": "transferOwnership",
      "outputs": [],
      "stateMutability": "nonpayable",
      "type": "function"
    },
    {
      "inputs": [
        {
          "internalType": "address",
          "name": "_address",
          "type": "address"
        }
      ],
      "name": "setMorpherTokenAddress",
      "outputs": [],
      "stateMutability": "nonpayable",
      "type": "function"
    },
    {
      "inputs": [
        {
          "internalType": "uint256",
          "name": "_index",
          "type": "uint256"
        }
      ],
      "name": "getValidatorAddress",
      "outputs": [
        {
          "internalType": "address",
          "name": "_address",
          "type": "address"
        }
      ],
      "stateMutability": "view",
      "type": "function"
    },
    {
      "inputs": [
        {
          "internalType": "address",
          "name": "_address",
          "type": "address"
        }
      ],
      "name": "getValidatorIndex",
      "outputs": [
        {
          "internalType": "uint256",
          "name": "_index",
          "type": "uint256"
        }
      ],
      "stateMutability": "view",
      "type": "function"
    },
    {
      "inputs": [
        {
          "internalType": "address",
          "name": "_address",
          "type": "address"
        }
      ],
      "name": "isValidator",
      "outputs": [
        {
          "internalType": "bool",
          "name": "",
          "type": "bool"
        }
      ],
      "stateMutability": "view",
      "type": "function"
    },
    {
      "inputs": [],
      "name": "getMorpherAdministrator",
      "outputs": [
        {
          "internalType": "address",
          "name": "_address",
          "type": "address"
        }
      ],
      "stateMutability": "view",
      "type": "function"
    },
    {
      "inputs": [],
      "name": "getMorpherOracle",
      "outputs": [
        {
          "internalType": "address",
          "name": "_address",
          "type": "address"
        }
      ],
      "stateMutability": "view",
      "type": "function"
    },
    {
      "inputs": [
        {
          "internalType": "address",
          "name": "_address",
          "type": "address"
        }
      ],
      "name": "getOracleVote",
      "outputs": [
        {
          "internalType": "address",
          "name": "_votedOracleAddress",
          "type": "address"
        }
      ],
      "stateMutability": "view",
      "type": "function"
    },
    {
      "inputs": [],
      "name": "becomeValidator",
      "outputs": [],
      "stateMutability": "nonpayable",
      "type": "function"
    },
    {
      "inputs": [],
      "name": "stepDownValidator",
      "outputs": [],
      "stateMutability": "nonpayable",
      "type": "function"
    },
    {
      "inputs": [
        {
          "internalType": "address",
          "name": "_oracleAddress",
          "type": "address"
        }
      ],
      "name": "voteOracle",
      "outputs": [],
      "stateMutability": "nonpayable",
      "type": "function"
    },
    {
      "inputs": [
        {
          "internalType": "address",
          "name": "_administratorAddress",
          "type": "address"
        }
      ],
      "name": "voteAdministrator",
      "outputs": [],
      "stateMutability": "nonpayable",
      "type": "function"
    },
    {
      "inputs": [],
      "name": "countOracleVote",
      "outputs": [
        {
          "internalType": "address",
          "name": "_votedOracleAddress",
          "type": "address"
        },
        {
          "internalType": "uint256",
          "name": "_votes",
          "type": "uint256"
        }
      ],
      "stateMutability": "nonpayable",
      "type": "function"
    },
    {
      "inputs": [],
      "name": "countAdministratorVote",
      "outputs": [
        {
          "internalType": "address",
          "name": "_appointedAdministrator",
          "type": "address"
        },
        {
          "internalType": "uint256",
          "name": "_votes",
          "type": "uint256"
        }
      ],
      "stateMutability": "nonpayable",
      "type": "function"
    }
  ],
  "bytecode": "0x60806040523480156200001157600080fd5b5060405162001780380380620017808339810160408190526200003491620001af565b6200003f336200006d565b600180546001600160a01b0319166001600160a01b0384161790556200006581620000bd565b5050620001e7565b600080546001600160a01b038381166001600160a01b0319831681178455604051919092169283917f8be0079c531659141344cd1fd0a4f28419497f9722a3daafe3b4186f6b6457e09190a35050565b6000546001600160a01b031633146200011d5760405162461bcd60e51b815260206004820181905260248201527f4f776e61626c653a2063616c6c6572206973206e6f7420746865206f776e657260448201526064015b60405180910390fd5b6001600160a01b038116620001845760405162461bcd60e51b815260206004820152602660248201527f4f776e61626c653a206e6577206f776e657220697320746865207a65726f206160448201526564647265737360d01b606482015260840162000114565b6200018f816200006d565b50565b80516001600160a01b0381168114620001aa57600080fd5b919050565b60008060408385031215620001c357600080fd5b620001ce8362000192565b9150620001de6020840162000192565b90509250929050565b61158980620001f76000396000f3fe608060405234801561001057600080fd5b506004361061014d5760003560e01c8063715018a6116100c3578063c89b57221161007c578063c89b5722146102b0578063cbb6ac87146102d7578063d6832ea9146102df578063e927d9ba146102e8578063f2fde38b146102f0578063facd743b1461030357600080fd5b8063715018a61461026957806379a5056c146102715780637d0ba883146102795780638da5cb5b1461028c578063aae5349a1461029d578063bb65b242146102a757600080fd5b80633817f554116101155780633817f554146101e857806341df7ce0146101fd578063458fc8171461020f57806352af19b21461023b5780636a0b06121461024e578063706277da1461025657600080fd5b806314242b3714610152578063142991cc146101985780631fcc449e146101a05780632ca7427d146101d75780632e2c5164146101e0575b600080fd5b61017b61016036600461128c565b6000908152600860205260409020546001600160a01b031690565b6040516001600160a01b0390911681526020015b60405180910390f35b61017b61033e565b6101c96101ae3660046112ba565b6001600160a01b031660009081526006602052604090205490565b60405190815260200161018f565b6101c960035481565b61017b6103b1565b6101fb6101f63660046112ba565b6103fb565b005b6101c96a084595161401484a00000081565b61017b61021d3660046112ba565b6001600160a01b039081166000908152600960205260409020541690565b6101fb6102493660046112ba565b610450565b6101fb610565565b60055461017b906001600160a01b031681565b6101fb610a3e565b6101fb610a74565b6101fb6102873660046112ba565b610d67565b6000546001600160a01b031661017b565b6101c962093a8081565b6101c960045481565b6102b8610e6f565b604080516001600160a01b03909316835260208301919091520161018f565b6101c9601581565b6101c960025481565b6102b8610fc0565b6101fb6102fe3660046112ba565b61110c565b61032e6103113660046112ba565b6001600160a01b0316600090815260066020526040902054151590565b604051901515815260200161018f565b6001546040805163e3bbb56560e01b815290516000926001600160a01b03169163e3bbb5659160048083019260209291908290030181865afa158015610388573d6000803e3d6000fd5b505050506040513d601f19601f820116820180604052508101906103ac91906112de565b905090565b60015460408051631696740760e01b815290516000926001600160a01b03169163169674079160048083019260209291908290030181865afa158015610388573d6000803e3d6000fd5b6000546001600160a01b0316331461042e5760405162461bcd60e51b8152600401610425906112fb565b60405180910390fd5b600580546001600160a01b0319166001600160a01b0392909216919091179055565b3360009081526006602052604090205461047c5760405162461bcd60e51b815260040161042590611330565b33600090815260076020526040902054429061049c9062093a80906113a3565b106104b95760405162461bcd60e51b8152600401610425906113bb565b4262093a806003546104cb91906113a3565b106104e85760405162461bcd60e51b815260040161042590611431565b336000908152600a6020526040812080546001600160a01b0319166001600160a01b03841617905580610519610fc0565b91509150816001600160a01b03167f56eba5abf9c6bf4324675427414ed3824a53b7515bc561cdd25362d133a70ae88260405161055891815260200190565b60405180910390a2505050565b336000908152600660205260409020546105915760405162461bcd60e51b815260040161042590611330565b336000908152600660205260409020546002546105b9906a084595161401484a0000006114c7565b6001546040516370a0823160e01b81523060048201526001600160a01b03909116906370a0823190602401602060405180830381865afa158015610601573d6000803e3d6000fd5b505050506040513d601f19601f8201168201806040525081019061062591906114e6565b10156106aa5760405162461bcd60e51b815260206004820152604860248201527f4d6f7270686572476f7665726e616e63653a20457363726f7720646f6573206e60448201527f6f74206861766520656e6f7567682066756e64732e2053686f756c64206e6f74606482015267103430b83832b71760c11b608482015260a401610425565b805b60025481101561084a57600860006106c58360016113a3565b81526020808201929092526040908101600090812054848252600880855283832080546001600160a01b0319166001600160a01b0393841690811782558452600686529383208690556001549286905290935290549082169163beabacc89130911661073d60646a084595161401484a0000006114ff565b6107489060636114c7565b6040516001600160e01b031960e086901b1681526001600160a01b0393841660048201529290911660248301526044820152606401600060405180830381600087803b15801561079757600080fd5b505af11580156107ab573d6000803e3d6000fd5b50506001546001600160a01b03169150639dc29fac9050306107d960646a084595161401484a0000006114ff565b6040516001600160e01b031960e085901b1681526001600160a01b0390921660048301526024820152604401600060405180830381600087803b15801561081f57600080fd5b505af1158015610833573d6000803e3d6000fd5b50505050808061084290611521565b9150506106ac565b5060028054600090815260086020908152604080832080546001600160a01b0319908116909155338452600683528184208490556007835281842084905560098352818420805482169055600a90925290912080549091169055546108b19060019061153c565b6002556108bc610e6f565b50506108c6610fc0565b50506001546001600160a01b031663beabacc8303360646108f2866a084595161401484a0000006114c7565b6108fc91906114ff565b6109079060636114c7565b6040516001600160e01b031960e086901b1681526001600160a01b0393841660048201529290911660248301526044820152606401600060405180830381600087803b15801561095657600080fd5b505af115801561096a573d6000803e3d6000fd5b50506001546001600160a01b03169150639dc29fac9050306064610999856a084595161401484a0000006114c7565b6109a391906114ff565b6040516001600160e01b031960e085901b1681526001600160a01b0390921660048301526024820152604401600060405180830381600087803b1580156109e957600080fd5b505af11580156109fd573d6000803e3d6000fd5b5050336000818152600660205260408082205490519094509192507fcd8aa545bb9ad3d801b90d3ca6949ad5d130bd763080a4382a6ce2babb25664691a350565b6000546001600160a01b03163314610a685760405162461bcd60e51b8152600401610425906112fb565b610a7260006111a7565b565b60006002546001610a8591906113a3565b610a9a906a084595161401484a0000006114c7565b6001546040516370a0823160e01b815233600482015291925082916001600160a01b03909116906370a0823190602401602060405180830381865afa158015610ae7573d6000803e3d6000fd5b505050506040513d601f19601f82011682018060405250810190610b0b91906114e6565b1015610b7f5760405162461bcd60e51b815260206004820152603c60248201527f4d6f7270686572476f7665726e616e63653a20496e73756666696369656e742060448201527f62616c616e636520746f206265636f6d652056616c696461746f722e000000006064820152608401610425565b3360009081526006602052604090205415610bf55760405162461bcd60e51b815260206004820152603060248201527f4d6f7270686572476f7665726e616e63653a204164647265737320697320616c60448201526f3932b0b23c902b30b634b230ba37b91760811b6064820152608401610425565b60156002541115610c7d5760405162461bcd60e51b815260206004820152604660248201527f4d6f7270686572476f7665726e616e63653a206e756d626572206f662056616c60448201527f696461746f72732063616e206e6f7420657863656564204d61782056616c696460648201526530ba37b9399760d11b608482015260a401610425565b6001546040516317d5759960e31b8152336004820152306024820152604481018390526001600160a01b039091169063beabacc890606401600060405180830381600087803b158015610ccf57600080fd5b505af1158015610ce3573d6000803e3d6000fd5b505050506002546001610cf691906113a3565b600281815533600081815260066020908152604080832095909555600781528482204290819055600355835482526008905283812080546001600160a01b031916831790559154925190917ffa6ba977fa09668b5481d0df962807dfdc6e0c36246e2e53a8da51548736850291a350565b33600090815260066020526040902054610d935760405162461bcd60e51b815260040161042590611330565b336000908152600760205260409020544290610db39062093a80906113a3565b10610dd05760405162461bcd60e51b8152600401610425906113bb565b4262093a80600354610de291906113a3565b10610dff5760405162461bcd60e51b815260040161042590611431565b33600090815260096020526040812080546001600160a01b0319166001600160a01b03841617905580610e30610e6f565b91509150816001600160a01b03167f12d3af2f240a8942e93bd4424f710f2769cfbe77ee2eab07662a4ae0b2ea436a8260405161055891815260200190565b60008060015b6002548111610f4c576000818152600860209081526040808320546001600160a01b0390811684526009835281842054168352600b9091528120805491610ebb83611521565b90915550506000818152600860209081526040808320546001600160a01b0390811684526009835281842054168352600b909152902054821015610f3a576000818152600860209081526040808320546001600160a01b03908116808552600980855283862054909216808652600b8552928520549452909152935091505b80610f4481611521565b915050610e75565b5060028054610f5b91906114ff565b811115610f6b57610f6b826111f7565b60015b6002548111610fbb576000818152600860209081526040808320546001600160a01b039081168452600a835281842054168352600b90915281205580610fb381611521565b915050610f6e565b509091565b60008060015b600254811161109d576000818152600860209081526040808320546001600160a01b039081168452600a835281842054168352600b909152812080549161100c83611521565b90915550506000818152600860209081526040808320546001600160a01b039081168452600a835281842054168352600b90915290205482101561108b576000818152600860209081526040808320546001600160a01b03908116808552600a80855283862054909216808652600b8552928520549452909152935091505b8061109581611521565b915050610fc6565b50600280546110ac91906114ff565b8111156110bc576110bc8261125a565b60015b6002548111610fbb576000818152600860209081526040808320546001600160a01b039081168452600a835281842054168352600b9091528120558061110481611521565b9150506110bf565b6000546001600160a01b031633146111365760405162461bcd60e51b8152600401610425906112fb565b6001600160a01b03811661119b5760405162461bcd60e51b815260206004820152602660248201527f4f776e61626c653a206e6577206f776e657220697320746865207a65726f206160448201526564647265737360d01b6064820152608401610425565b6111a4816111a7565b50565b600080546001600160a01b038381166001600160a01b0319831681178455604051919092169283917f8be0079c531659141344cd1fd0a4f28419497f9722a3daafe3b4186f6b6457e09190a35050565b60015460405163496ccd9b60e01b81526001600160a01b0383811660048301529091169063496ccd9b906024015b600060405180830381600087803b15801561123f57600080fd5b505af1158015611253573d6000803e3d6000fd5b5050505050565b60015460405163df8089ef60e01b81526001600160a01b0383811660048301529091169063df8089ef90602401611225565b60006020828403121561129e57600080fd5b5035919050565b6001600160a01b03811681146111a457600080fd5b6000602082840312156112cc57600080fd5b81356112d7816112a5565b9392505050565b6000602082840312156112f057600080fd5b81516112d7816112a5565b6020808252818101527f4f776e61626c653a2063616c6c6572206973206e6f7420746865206f776e6572604082015260600190565b6020808252603c908201527f4d6f7270686572476f7665726e616e63653a204f6e6c792056616c696461746f60408201527f72732063616e20696e766f6b6520746861742066756e6374696f6e2e00000000606082015260800190565b634e487b7160e01b600052601160045260246000fd5b600082198211156113b6576113b661138d565b500190565b60208082526050908201527f4d6f7270686572476f7665726e616e63653a2056616c696461746f722077617360408201527f206a757374206170706f696e74656420616e64206973206e6f7420656c69676960608201526f313632903a37903b37ba32903cb2ba1760811b608082015260a00190565b6020808252606a908201527f4d6f7270686572476f7665726e616e63653a204e65772076616c696461746f7260408201527f206a6f696e65642074686520626f61726420726563656e746c792c20706c656160608201527f7365207761697420666f722074686520656e64206f6620746865207761726d206080820152693ab8103832b934b7b21760b11b60a082015260c00190565b60008160001904831182151516156114e1576114e161138d565b500290565b6000602082840312156114f857600080fd5b5051919050565b60008261151c57634e487b7160e01b600052601260045260246000fd5b500490565b60006000198214156115355761153561138d565b5060010190565b60008282101561154e5761154e61138d565b50039056fea26469706673582212201b1a1cda4f561d477a418c52ce18d92bc2413c9553c3665c41922572ec766faf64736f6c634300080b0033",
  "immutableReferences": {},
  "source": "//SPDX-License-Identifier: GPLv3\r\npragma solidity 0.8.11;\r\nimport \"@openzeppelin/contracts/access/Ownable.sol\";\r\n// ------------------------------------------------------------------------\r\n// Morpher Governance (MAIN CHAIN ONLY)\r\n//\r\n// Every user able and willig to lock up sufficient token can become a validator\r\n// of the Morpher protocol. Validators function similiar to a board of directors\r\n// and vote on the protocol Administrator and the Oracle contract.\r\n// The Administrator (=Protocol CEO) has the power to add/delete markets and to\r\n// pause the contracts to allow for updates.\r\n// The Oracle contract is the address of the contract allowed to fetch prices\r\n// from outside the smart contract.\r\n//\r\n// It becomes progressively harder to become a valdiator. Each new validator\r\n// has to lock up (numberOfValidators + 1) * 10m Morpher token. Upon stepping\r\n// down as validator only 99% of the locked up token are returned, the other 1%\r\n// are burned.\r\n//\r\n// Governance is expected to become more sophisticated in the future\r\n// ------------------------------------------------------------------------\r\n\r\nimport \"./MorpherState.sol\";\r\n\r\ncontract MorpherGovernance is Ownable {\r\n\r\n    MorpherState state;\r\n    \r\n    event BecomeValidator(address indexed _sender, uint256 indexed _myValidatorIndex);\r\n    event StepDownAsValidator(address indexed _sender, uint256 indexed _myValidatorIndex);\r\n    event ElectedAdministrator(address indexed _administratorAddress, uint256 _votes);\r\n    event ElectedOracle(address indexed _oracleAddress, uint256 _votes);\r\n\r\n    uint256 public constant MINVALIDATORLOCKUP = 10**25;\r\n    uint256 public constant MAXVALIDATORS = 21;\r\n    uint256 public constant VALIDATORWARMUPPERIOD = 7 days;\r\n\r\n    uint256 public numberOfValidators;\r\n    uint256 public lastValidatorJoined;\r\n    uint256 public rewardBasisPoints;\r\n\r\n    address public morpherToken;\r\n\r\n    mapping(address => uint256) private validatorIndex;\r\n    mapping(address => uint256) private validatorJoinedAtTime;\r\n    mapping(uint256 => address) private validatorAddress;\r\n    mapping(address => address) private oracleVote;\r\n    mapping(address => address) private administratorVote;\r\n    mapping(address => uint256) private countVotes;\r\n\r\n    constructor(address _stateAddress, address _coldStorageOwnerAddress) {\r\n        setMorpherState(_stateAddress);\r\n        transferOwnership(_coldStorageOwnerAddress);        \r\n    }\r\n    \r\n    modifier onlyValidator() {\r\n        require(isValidator(msg.sender), \"MorpherGovernance: Only Validators can invoke that function.\");\r\n        _;\r\n    }\r\n\r\n    function setMorpherState(address _stateAddress) private {\r\n        state = MorpherState(_stateAddress);\r\n    }\r\n\r\n    function setMorpherTokenAddress(address _address) public onlyOwner {\r\n        morpherToken = _address;\r\n    }\r\n\r\n    function getValidatorAddress(uint256 _index) public view returns (address _address) {\r\n        return validatorAddress[_index];\r\n    }\r\n\r\n    function getValidatorIndex(address _address) public view returns (uint256 _index) {\r\n        return validatorIndex[_address];\r\n    }\r\n\r\n    function isValidator(address _address) public view returns (bool) {\r\n        return validatorIndex[_address] > 0;\r\n    }\r\n\r\n    function setOracle(address  _oracleAddress) private {\r\n        state.setOracleContract(_oracleAddress);\r\n    }\r\n\r\n    function setAdministrator(address _administratorAddress) private {\r\n        state.setAdministrator(_administratorAddress);\r\n    }\r\n\r\n    function getMorpherAdministrator() public view returns (address _address) {\r\n        return state.getAdministrator();\r\n    }\r\n\r\n    function getMorpherOracle() public view returns (address _address)  {\r\n        return state.getOracleContract();\r\n    }\r\n\r\n    function getOracleVote(address _address) public view returns (address _votedOracleAddress) {\r\n        return oracleVote[_address];\r\n    }\r\n\r\n    function becomeValidator() public {\r\n        // To become a validator you have to lock up 10m * (number of validators + 1) Morpher Token in escrow\r\n        // After a warmup period of 7 days the new validator can vote on Oracle contract and protocol Administrator\r\n        uint256 _requiredAmount = MINVALIDATORLOCKUP * (numberOfValidators + 1);\r\n        require(state.balanceOf(msg.sender) >= _requiredAmount, \"MorpherGovernance: Insufficient balance to become Validator.\");\r\n        require(isValidator(msg.sender) == false, \"MorpherGovernance: Address is already Validator.\");\r\n        require(numberOfValidators <= MAXVALIDATORS, \"MorpherGovernance: number of Validators can not exceed Max Validators.\");\r\n        state.transfer(msg.sender, address(this), _requiredAmount);\r\n        numberOfValidators = numberOfValidators + 1;\r\n        validatorIndex[msg.sender] = numberOfValidators;\r\n        validatorJoinedAtTime[msg.sender] = block.timestamp;\r\n        lastValidatorJoined = block.timestamp;\r\n        validatorAddress[numberOfValidators] = msg.sender;\r\n        emit BecomeValidator(msg.sender, numberOfValidators);\r\n    }\r\n\r\n    function stepDownValidator() public onlyValidator {\r\n        // Stepping down as validator nullifies the validator's votes and releases his token\r\n        // from escrow. If the validator stepping down is not the validator that joined last,\r\n        // all validators who joined after the validator stepping down receive 10^7 * 0.99 token from\r\n        // escrow, and their validator ordinal number is reduced by one. E.g. if validator 3 of 5 steps down\r\n        // validator 4 becomes validator 3, and validator 5 becomes validator 4. Both receive 10^7 * 0.99 token\r\n        // from escrow, as their new position requires fewer token in lockup. 1% of the token released from escrow \r\n        // are burned for every validator receiving a payout. \r\n        // Burning prevents vote delay attacks: validators stepping down and re-joining could\r\n        // delay votes for VALIDATORWARMUPPERIOD.\r\n        uint256 _myValidatorIndex = validatorIndex[msg.sender];\r\n        require(state.balanceOf(address(this)) >= MINVALIDATORLOCKUP * (numberOfValidators), \"MorpherGovernance: Escrow does not have enough funds. Should not happen.\");\r\n        // Stepping down as validator potentially releases token to the other validatorAddresses\r\n        for (uint256 i = _myValidatorIndex; i < numberOfValidators; i++) {\r\n            validatorAddress[i] = validatorAddress[i+1];\r\n            validatorIndex[validatorAddress[i]] = i;\r\n            // Release 9.9m of token to every validator moving up, burn 0.1m token\r\n            state.transfer(address(this), validatorAddress[i], MINVALIDATORLOCKUP / 100 * (99));\r\n            state.burn(address(this), MINVALIDATORLOCKUP / 100);\r\n        }\r\n        // Release 99% of escrow token of validator dropping out, burn 1%\r\n        validatorAddress[numberOfValidators] = address(0);\r\n        validatorIndex[msg.sender] = 0;\r\n        validatorJoinedAtTime[msg.sender] = 0;\r\n        oracleVote[msg.sender] = address(0);\r\n        administratorVote[msg.sender] = address(0);\r\n        numberOfValidators = numberOfValidators - 1;\r\n        countOracleVote();\r\n        countAdministratorVote();\r\n        state.transfer(address(this), msg.sender, MINVALIDATORLOCKUP * (_myValidatorIndex) / 100 * (99));\r\n        state.burn(address(this), MINVALIDATORLOCKUP * (_myValidatorIndex) / 100);\r\n        emit StepDownAsValidator(msg.sender, validatorIndex[msg.sender]);\r\n    }\r\n\r\n    function voteOracle(address _oracleAddress) public onlyValidator {\r\n        require(validatorJoinedAtTime[msg.sender] + VALIDATORWARMUPPERIOD < block.timestamp, \"MorpherGovernance: Validator was just appointed and is not eligible to vote yet.\");\r\n        require(lastValidatorJoined + VALIDATORWARMUPPERIOD < block.timestamp, \"MorpherGovernance: New validator joined the board recently, please wait for the end of the warm up period.\");\r\n        oracleVote[msg.sender] = _oracleAddress;\r\n        // Count Oracle Votes\r\n        (address _votedOracleAddress, uint256 _votes) = countOracleVote();\r\n        emit ElectedOracle(_votedOracleAddress, _votes);\r\n    }\r\n\r\n    function voteAdministrator(address _administratorAddress) public onlyValidator {\r\n        require(validatorJoinedAtTime[msg.sender] + VALIDATORWARMUPPERIOD < block.timestamp, \"MorpherGovernance: Validator was just appointed and is not eligible to vote yet.\");\r\n        require(lastValidatorJoined + VALIDATORWARMUPPERIOD < block.timestamp, \"MorpherGovernance: New validator joined the board recently, please wait for the end of the warm up period.\");\r\n        administratorVote[msg.sender] = _administratorAddress;\r\n        // Count Administrator Votes\r\n        (address _appointedAdministrator, uint256 _votes) = countAdministratorVote();\r\n        emit ElectedAdministrator(_appointedAdministrator, _votes);\r\n    }\r\n\r\n    function countOracleVote() public returns (address _votedOracleAddress, uint256 _votes) {\r\n        // Count oracle votes\r\n        for (uint256 i = 1; i <= numberOfValidators; i++) {\r\n            countVotes[oracleVote[validatorAddress[i]]]++;\r\n            if (countVotes[oracleVote[validatorAddress[i]]] > _votes) {\r\n                _votes = countVotes[oracleVote[validatorAddress[i]]];\r\n                _votedOracleAddress = oracleVote[validatorAddress[i]];\r\n            }\r\n        }\r\n        // Evaluate: Simple majority of Validators resets oracleAddress\r\n        if (_votes > numberOfValidators / 2) {\r\n            setOracle(_votedOracleAddress);\r\n        }\r\n        for (uint256 i = 1; i <= numberOfValidators; i++) {\r\n            countVotes[administratorVote[validatorAddress[i]]] = 0;\r\n        }\r\n        return(_votedOracleAddress, _votes);\r\n    }\r\n\r\n    function countAdministratorVote() public returns (address _appointedAdministrator, uint256 _votes) {\r\n        // Count Administrator votes\r\n        for (uint256 i=1; i<=numberOfValidators; i++) {\r\n            countVotes[administratorVote[validatorAddress[i]]]++;\r\n            if (countVotes[administratorVote[validatorAddress[i]]] > _votes) {\r\n                _votes = countVotes[administratorVote[validatorAddress[i]]];\r\n                _appointedAdministrator = administratorVote[validatorAddress[i]];\r\n            }\r\n        }\r\n        // Evaluate: Simple majority of Validators resets administratorAddress\r\n        if (_votes > numberOfValidators / 2) {\r\n            setAdministrator(_appointedAdministrator);\r\n        }\r\n        for (uint256 i = 1; i <= numberOfValidators; i++) {\r\n            countVotes[administratorVote[validatorAddress[i]]] = 0;\r\n        }\r\n        return(_appointedAdministrator, _votes);\r\n    }\r\n}\r\n",
  "sourcePath": "/home/thomas/MorpherProtocol/contracts/MorpherGovernance.sol",
  "compiler": {
    "name": "solc",
    "version": "0.8.11+commit.d7f03943.Emscripten.clang"
  },
  "schemaVersion": "3.4.5",
  "updatedAt": "2022-03-03T15:03:23.616Z",
  "devdoc": {
    "kind": "dev",
    "methods": {
      "owner()": {
        "details": "Returns the address of the current owner."
      },
      "renounceOwnership()": {
        "details": "Leaves the contract without owner. It will not be possible to call `onlyOwner` functions anymore. Can only be called by the current owner. NOTE: Renouncing ownership will leave the contract without an owner, thereby removing any functionality that is only available to the owner."
      },
      "transferOwnership(address)": {
        "details": "Transfers ownership of the contract to a new account (`newOwner`). Can only be called by the current owner."
      }
    },
    "version": 1
  },
  "userdoc": {
    "kind": "user",
    "methods": {},
    "version": 1
  }
}