{
  "contractName": "MorpherAccessControl",
  "abi": [
    {
      "anonymous": false,
      "inputs": [
        {
          "indexed": false,
          "internalType": "uint8",
          "name": "version",
          "type": "uint8"
        }
      ],
      "name": "Initialized",
      "type": "event"
    },
    {
      "anonymous": false,
      "inputs": [
        {
          "indexed": true,
          "internalType": "bytes32",
          "name": "role",
          "type": "bytes32"
        },
        {
          "indexed": true,
          "internalType": "bytes32",
          "name": "previousAdminRole",
          "type": "bytes32"
        },
        {
          "indexed": true,
          "internalType": "bytes32",
          "name": "newAdminRole",
          "type": "bytes32"
        }
      ],
      "name": "RoleAdminChanged",
      "type": "event"
    },
    {
      "anonymous": false,
      "inputs": [
        {
          "indexed": true,
          "internalType": "bytes32",
          "name": "role",
          "type": "bytes32"
        },
        {
          "indexed": true,
          "internalType": "address",
          "name": "account",
          "type": "address"
        },
        {
          "indexed": true,
          "internalType": "address",
          "name": "sender",
          "type": "address"
        }
      ],
      "name": "RoleGranted",
      "type": "event"
    },
    {
      "anonymous": false,
      "inputs": [
        {
          "indexed": true,
          "internalType": "bytes32",
          "name": "role",
          "type": "bytes32"
        },
        {
          "indexed": true,
          "internalType": "address",
          "name": "account",
          "type": "address"
        },
        {
          "indexed": true,
          "internalType": "address",
          "name": "sender",
          "type": "address"
        }
      ],
      "name": "RoleRevoked",
      "type": "event"
    },
    {
      "inputs": [],
      "name": "DEFAULT_ADMIN_ROLE",
      "outputs": [
        {
          "internalType": "bytes32",
          "name": "",
          "type": "bytes32"
        }
      ],
      "stateMutability": "view",
      "type": "function",
      "constant": true
    },
    {
      "inputs": [
        {
          "internalType": "bytes32",
          "name": "role",
          "type": "bytes32"
        }
      ],
      "name": "getRoleAdmin",
      "outputs": [
        {
          "internalType": "bytes32",
          "name": "",
          "type": "bytes32"
        }
      ],
      "stateMutability": "view",
      "type": "function",
      "constant": true
    },
    {
      "inputs": [
        {
          "internalType": "bytes32",
          "name": "role",
          "type": "bytes32"
        },
        {
          "internalType": "uint256",
          "name": "index",
          "type": "uint256"
        }
      ],
      "name": "getRoleMember",
      "outputs": [
        {
          "internalType": "address",
          "name": "",
          "type": "address"
        }
      ],
      "stateMutability": "view",
      "type": "function",
      "constant": true
    },
    {
      "inputs": [
        {
          "internalType": "bytes32",
          "name": "role",
          "type": "bytes32"
        }
      ],
      "name": "getRoleMemberCount",
      "outputs": [
        {
          "internalType": "uint256",
          "name": "",
          "type": "uint256"
        }
      ],
      "stateMutability": "view",
      "type": "function",
      "constant": true
    },
    {
      "inputs": [
        {
          "internalType": "bytes32",
          "name": "role",
          "type": "bytes32"
        },
        {
          "internalType": "address",
          "name": "account",
          "type": "address"
        }
      ],
      "name": "grantRole",
      "outputs": [],
      "stateMutability": "nonpayable",
      "type": "function"
    },
    {
      "inputs": [
        {
          "internalType": "bytes32",
          "name": "role",
          "type": "bytes32"
        },
        {
          "internalType": "address",
          "name": "account",
          "type": "address"
        }
      ],
      "name": "hasRole",
      "outputs": [
        {
          "internalType": "bool",
          "name": "",
          "type": "bool"
        }
      ],
      "stateMutability": "view",
      "type": "function",
      "constant": true
    },
    {
      "inputs": [
        {
          "internalType": "bytes32",
          "name": "role",
          "type": "bytes32"
        },
        {
          "internalType": "address",
          "name": "account",
          "type": "address"
        }
      ],
      "name": "renounceRole",
      "outputs": [],
      "stateMutability": "nonpayable",
      "type": "function"
    },
    {
      "inputs": [
        {
          "internalType": "bytes32",
          "name": "role",
          "type": "bytes32"
        },
        {
          "internalType": "address",
          "name": "account",
          "type": "address"
        }
      ],
      "name": "revokeRole",
      "outputs": [],
      "stateMutability": "nonpayable",
      "type": "function"
    },
    {
      "inputs": [
        {
          "internalType": "bytes4",
          "name": "interfaceId",
          "type": "bytes4"
        }
      ],
      "name": "supportsInterface",
      "outputs": [
        {
          "internalType": "bool",
          "name": "",
          "type": "bool"
        }
      ],
      "stateMutability": "view",
      "type": "function",
      "constant": true
    },
    {
      "inputs": [],
      "name": "initialize",
      "outputs": [],
      "stateMutability": "nonpayable",
      "type": "function"
    }
  ],
  "bytecode": "0x608060405234801561000f575f80fd5b50610bd18061001d5f395ff3fe608060405234801561000f575f80fd5b506004361061009b575f3560e01c80639010d07c116100635780639010d07c1461012757806391d1485414610152578063a217fddf14610165578063ca15c8731461016c578063d547741f1461017f575f80fd5b806301ffc9a71461009f578063248a9ca3146100c75780632f2ff15d146100f757806336568abe1461010c5780638129fc1c1461011f575b5f80fd5b6100b26100ad36600461094c565b610192565b60405190151581526020015b60405180910390f35b6100e96100d5366004610973565b5f9081526065602052604090206001015490565b6040519081526020016100be565b61010a61010536600461098a565b6101bc565b005b61010a61011a36600461098a565b6101e5565b61010a610268565b61013a6101353660046109c3565b6102e4565b6040516001600160a01b0390911681526020016100be565b6100b261016036600461098a565b610302565b6100e95f81565b6100e961017a366004610973565b61032c565b61010a61018d36600461098a565b610342565b5f6001600160e01b03198216635a05180f60e01b14806101b657506101b682610366565b92915050565b5f828152606560205260409020600101546101d68161039a565b6101e083836103a4565b505050565b6001600160a01b038116331461025a5760405162461bcd60e51b815260206004820152602f60248201527f416363657373436f6e74726f6c3a2063616e206f6e6c792072656e6f756e636560448201526e103937b632b9903337b91039b2b63360891b60648201526084015b60405180910390fd5b61026482826103c5565b5050565b5f61027360016103e6565b9050801561028a575f805461ff0019166101001790555b61029261046a565b61029c5f336103a4565b80156102e1575f805461ff0019169055604051600181527f7f26b83ff96e1f2b6a682f133852f6798a09c465da95921460cefb38474024989060200160405180910390a15b50565b5f8281526097602052604081206102fb90836104d6565b9392505050565b5f9182526065602090815260408084206001600160a01b0393909316845291905290205460ff1690565b5f8181526097602052604081206101b6906104e1565b5f8281526065602052604090206001015461035c8161039a565b6101e083836103c5565b5f6001600160e01b03198216637965db0b60e01b14806101b657506301ffc9a760e01b6001600160e01b03198316146101b6565b6102e181336104ea565b6103ae828261054e565b5f8281526097602052604090206101e090826105d3565b6103cf82826105e7565b5f8281526097602052604090206101e0908261064d565b5f8054610100900460ff161561042b578160ff1660011480156104085750303b155b6104245760405162461bcd60e51b8152600401610251906109e3565b505f919050565b5f5460ff8084169116106104515760405162461bcd60e51b8152600401610251906109e3565b505f805460ff191660ff92909216919091179055600190565b5f54610100900460ff166104d45760405162461bcd60e51b815260206004820152602b60248201527f496e697469616c697a61626c653a20636f6e7472616374206973206e6f74206960448201526a6e697469616c697a696e6760a81b6064820152608401610251565b565b5f6102fb8383610661565b5f6101b6825490565b6104f48282610302565b6102645761050c816001600160a01b03166014610687565b610517836020610687565b604051602001610528929190610a53565b60408051601f198184030181529082905262461bcd60e51b825261025191600401610ac7565b6105588282610302565b610264575f8281526065602090815260408083206001600160a01b03851684529091529020805460ff1916600117905561058f3390565b6001600160a01b0316816001600160a01b0316837f2f8788117e7eff1d82e926ec794901d17c78024a50270940304540a733656f0d60405160405180910390a45050565b5f6102fb836001600160a01b03841661081d565b6105f18282610302565b15610264575f8281526065602090815260408083206001600160a01b0385168085529252808320805460ff1916905551339285917ff6391f5c32d9c69d2a47ea670b442974b53935d1edc7fd64eb21e047a839171b9190a45050565b5f6102fb836001600160a01b038416610869565b5f825f01828154811061067657610676610af9565b905f5260205f200154905092915050565b60605f610695836002610b21565b6106a0906002610b38565b67ffffffffffffffff8111156106b8576106b8610b4b565b6040519080825280601f01601f1916602001820160405280156106e2576020820181803683370190505b509050600360fc1b815f815181106106fc576106fc610af9565b60200101906001600160f81b03191690815f1a905350600f60fb1b8160018151811061072a5761072a610af9565b60200101906001600160f81b03191690815f1a9053505f61074c846002610b21565b610757906001610b38565b90505b60018111156107ce576f181899199a1a9b1b9c1cb0b131b232b360811b85600f166010811061078b5761078b610af9565b1a60f81b8282815181106107a1576107a1610af9565b60200101906001600160f81b03191690815f1a90535060049490941c936107c781610b5f565b905061075a565b5083156102fb5760405162461bcd60e51b815260206004820181905260248201527f537472696e67733a20686578206c656e67746820696e73756666696369656e746044820152606401610251565b5f81815260018301602052604081205461086257508154600181810184555f8481526020808220909301849055845484825282860190935260409020919091556101b6565b505f6101b6565b5f8181526001830160205260408120548015610943575f61088b600183610b74565b85549091505f9061089e90600190610b74565b90508181146108fd575f865f0182815481106108bc576108bc610af9565b905f5260205f200154905080875f0184815481106108dc576108dc610af9565b5f918252602080832090910192909255918252600188019052604090208390555b855486908061090e5761090e610b87565b600190038181905f5260205f20015f90559055856001015f8681526020019081526020015f205f9055600193505050506101b6565b5f9150506101b6565b5f6020828403121561095c575f80fd5b81356001600160e01b0319811681146102fb575f80fd5b5f60208284031215610983575f80fd5b5035919050565b5f806040838503121561099b575f80fd5b8235915060208301356001600160a01b03811681146109b8575f80fd5b809150509250929050565b5f80604083850312156109d4575f80fd5b50508035926020909101359150565b6020808252602e908201527f496e697469616c697a61626c653a20636f6e747261637420697320616c72656160408201526d191e481a5b9a5d1a585b1a5e995960921b606082015260800190565b5f5b83811015610a4b578181015183820152602001610a33565b50505f910152565b7f416363657373436f6e74726f6c3a206163636f756e742000000000000000000081525f8351610a8a816017850160208801610a31565b7001034b99036b4b9b9b4b733903937b6329607d1b6017918401918201528351610abb816028840160208801610a31565b01602801949350505050565b602081525f8251806020840152610ae5816040850160208701610a31565b601f01601f19169190910160400192915050565b634e487b7160e01b5f52603260045260245ffd5b634e487b7160e01b5f52601160045260245ffd5b80820281158282048414176101b6576101b6610b0d565b808201808211156101b6576101b6610b0d565b634e487b7160e01b5f52604160045260245ffd5b5f81610b6d57610b6d610b0d565b505f190190565b818103818111156101b6576101b6610b0d565b634e487b7160e01b5f52603160045260245ffdfea26469706673582212205739f0ca34ae611531e2e011c12d204a0057eac127107e5cd1b056218cb930f964736f6c63430008140033",
  "immutableReferences": {},
  "source": "//SPDX-License-Identifier: GPLv3\npragma solidity ^0.8.11;\n\nimport \"@openzeppelin/contracts-upgradeable/access/AccessControlEnumerableUpgradeable.sol\";\n\ncontract MorpherAccessControl is AccessControlEnumerableUpgradeable {\n\n    function initialize() public initializer {\n        AccessControlEnumerableUpgradeable.__AccessControlEnumerable_init();\n        _grantRole(DEFAULT_ADMIN_ROLE, _msgSender());\n    }\n\n}\n",
  "sourcePath": "/Users/thomas/Projects/Morpher/MorpherProtocol/contracts/MorpherAccessControl.sol",
  "compiler": {
    "name": "solc",
    "version": "0.8.20+commit.a1b79de6.Emscripten.clang"
  },
  "schemaVersion": "3.4.16",
  "updatedAt": "2024-01-12T14:12:11.706Z",
  "networkType": "ethereum",
  "devdoc": {
    "events": {
      "Initialized(uint8)": {
        "details": "Triggered when the contract has been initialized or reinitialized."
      },
      "RoleAdminChanged(bytes32,bytes32,bytes32)": {
        "details": "Emitted when `newAdminRole` is set as ``role``'s admin role, replacing `previousAdminRole` `DEFAULT_ADMIN_ROLE` is the starting admin for all roles, despite {RoleAdminChanged} not being emitted signaling this. _Available since v3.1._"
      },
      "RoleGranted(bytes32,address,address)": {
        "details": "Emitted when `account` is granted `role`. `sender` is the account that originated the contract call, an admin role bearer except when using {AccessControl-_setupRole}."
      },
      "RoleRevoked(bytes32,address,address)": {
        "details": "Emitted when `account` is revoked `role`. `sender` is the account that originated the contract call:   - if using `revokeRole`, it is the admin role bearer   - if using `renounceRole`, it is the role bearer (i.e. `account`)"
      }
    },
    "kind": "dev",
    "methods": {
      "getRoleAdmin(bytes32)": {
        "details": "Returns the admin role that controls `role`. See {grantRole} and {revokeRole}. To change a role's admin, use {_setRoleAdmin}."
      },
      "getRoleMember(bytes32,uint256)": {
        "details": "Returns one of the accounts that have `role`. `index` must be a value between 0 and {getRoleMemberCount}, non-inclusive. Role bearers are not sorted in any particular way, and their ordering may change at any point. WARNING: When using {getRoleMember} and {getRoleMemberCount}, make sure you perform all queries on the same block. See the following https://forum.openzeppelin.com/t/iterating-over-elements-on-enumerableset-in-openzeppelin-contracts/2296[forum post] for more information."
      },
      "getRoleMemberCount(bytes32)": {
        "details": "Returns the number of accounts that have `role`. Can be used together with {getRoleMember} to enumerate all bearers of a role."
      },
      "grantRole(bytes32,address)": {
        "details": "Grants `role` to `account`. If `account` had not been already granted `role`, emits a {RoleGranted} event. Requirements: - the caller must have ``role``'s admin role."
      },
      "hasRole(bytes32,address)": {
        "details": "Returns `true` if `account` has been granted `role`."
      },
      "renounceRole(bytes32,address)": {
        "details": "Revokes `role` from the calling account. Roles are often managed via {grantRole} and {revokeRole}: this function's purpose is to provide a mechanism for accounts to lose their privileges if they are compromised (such as when a trusted device is misplaced). If the calling account had been revoked `role`, emits a {RoleRevoked} event. Requirements: - the caller must be `account`."
      },
      "revokeRole(bytes32,address)": {
        "details": "Revokes `role` from `account`. If `account` had been granted `role`, emits a {RoleRevoked} event. Requirements: - the caller must have ``role``'s admin role."
      },
      "supportsInterface(bytes4)": {
        "details": "See {IERC165-supportsInterface}."
      }
    },
    "version": 1
  },
  "userdoc": {
    "kind": "user",
    "methods": {},
    "version": 1
  }
}