{
  "contractName": "MorpherEscrow",
  "abi": [
    {
      "inputs": [
        {
          "internalType": "address",
          "name": "_recipientAddress",
          "type": "address"
        },
        {
          "internalType": "address",
          "name": "_morpherToken",
          "type": "address"
        },
        {
          "internalType": "address",
          "name": "_coldStorageOwnerAddress",
          "type": "address"
        }
      ],
      "stateMutability": "nonpayable",
      "type": "constructor"
    },
    {
      "anonymous": false,
      "inputs": [
        {
          "indexed": false,
          "internalType": "uint256",
          "name": "_released",
          "type": "uint256"
        },
        {
          "indexed": false,
          "internalType": "uint256",
          "name": "_leftInEscrow",
          "type": "uint256"
        }
      ],
      "name": "EscrowReleased",
      "type": "event"
    },
    {
      "anonymous": false,
      "inputs": [
        {
          "indexed": true,
          "internalType": "address",
          "name": "previousOwner",
          "type": "address"
        },
        {
          "indexed": true,
          "internalType": "address",
          "name": "newOwner",
          "type": "address"
        }
      ],
      "name": "OwnershipTransferred",
      "type": "event"
    },
    {
      "inputs": [],
      "name": "RELEASEAMOUNT",
      "outputs": [
        {
          "internalType": "uint256",
          "name": "",
          "type": "uint256"
        }
      ],
      "stateMutability": "view",
      "type": "function"
    },
    {
      "inputs": [],
      "name": "RELEASEPERIOD",
      "outputs": [
        {
          "internalType": "uint256",
          "name": "",
          "type": "uint256"
        }
      ],
      "stateMutability": "view",
      "type": "function"
    },
    {
      "inputs": [],
      "name": "lastEscrowTransferTime",
      "outputs": [
        {
          "internalType": "uint256",
          "name": "",
          "type": "uint256"
        }
      ],
      "stateMutability": "view",
      "type": "function"
    },
    {
      "inputs": [],
      "name": "morpherToken",
      "outputs": [
        {
          "internalType": "address",
          "name": "",
          "type": "address"
        }
      ],
      "stateMutability": "view",
      "type": "function"
    },
    {
      "inputs": [],
      "name": "owner",
      "outputs": [
        {
          "internalType": "address",
          "name": "",
          "type": "address"
        }
      ],
      "stateMutability": "view",
      "type": "function"
    },
    {
      "inputs": [],
      "name": "recipient",
      "outputs": [
        {
          "internalType": "address",
          "name": "",
          "type": "address"
        }
      ],
      "stateMutability": "view",
      "type": "function"
    },
    {
      "inputs": [],
      "name": "renounceOwnership",
      "outputs": [],
      "stateMutability": "nonpayable",
      "type": "function"
    },
    {
      "inputs": [
        {
          "internalType": "address",
          "name": "newOwner",
          "type": "address"
        }
      ],
      "name": "transferOwnership",
      "outputs": [],
      "stateMutability": "nonpayable",
      "type": "function"
    },
    {
      "inputs": [
        {
          "internalType": "address",
          "name": "_recipientAddress",
          "type": "address"
        }
      ],
      "name": "setRecipientAddress",
      "outputs": [],
      "stateMutability": "nonpayable",
      "type": "function"
    },
    {
      "inputs": [
        {
          "internalType": "address",
          "name": "_address",
          "type": "address"
        }
      ],
      "name": "setMorpherTokenAddress",
      "outputs": [],
      "stateMutability": "nonpayable",
      "type": "function"
    },
    {
      "inputs": [],
      "name": "releaseFromEscrow",
      "outputs": [],
      "stateMutability": "nonpayable",
      "type": "function"
    }
  ],
  "bytecode": "0x608060405234801561001057600080fd5b50604051610a12380380610a1283398101604081905261002f9161025d565b6100383361005f565b610041836100af565b61004a8261011e565b4260015561005781610188565b5050506102a0565b600080546001600160a01b038381166001600160a01b0319831681178455604051919092169283917f8be0079c531659141344cd1fd0a4f28419497f9722a3daafe3b4186f6b6457e09190a35050565b6000546001600160a01b031633146100fc5760405162461bcd60e51b815260206004820181905260248201526000805160206109f283398151915260448201526064015b60405180910390fd5b600280546001600160a01b0319166001600160a01b0392909216919091179055565b6000546001600160a01b031633146101665760405162461bcd60e51b815260206004820181905260248201526000805160206109f283398151915260448201526064016100f3565b600380546001600160a01b0319166001600160a01b0392909216919091179055565b6000546001600160a01b031633146101d05760405162461bcd60e51b815260206004820181905260248201526000805160206109f283398151915260448201526064016100f3565b6001600160a01b0381166102355760405162461bcd60e51b815260206004820152602660248201527f4f776e61626c653a206e6577206f776e657220697320746865207a65726f206160448201526564647265737360d01b60648201526084016100f3565b61023e8161005f565b50565b80516001600160a01b038116811461025857600080fd5b919050565b60008060006060848603121561027257600080fd5b61027b84610241565b925061028960208501610241565b915061029760408501610241565b90509250925092565b610743806102af6000396000f3fe608060405234801561001057600080fd5b50600436106100a95760003560e01c8063703760f711610071578063703760f714610125578063706277da1461012f578063715018a6146101425780638da5cb5b1461014a578063bda7ed2c1461015b578063f2fde38b1461016d57600080fd5b806336bfc264146100ae5780633817f554146100c35780633e214e31146100d6578063400a4e3e146100de57806366d003ac146100fa575b600080fd5b6100c16100bc366004610647565b610180565b005b6100c16100d1366004610647565b6101d5565b6100c1610221565b6100e760015481565b6040519081526020015b60405180910390f35b60025461010d906001600160a01b031681565b6040516001600160a01b0390911681526020016100f1565b6100e762278d0081565b60035461010d906001600160a01b031681565b6100c161052d565b6000546001600160a01b031661010d565b6100e76a084595161401484a00000081565b6100c161017b366004610647565b610563565b6000546001600160a01b031633146101b35760405162461bcd60e51b81526004016101aa90610677565b60405180910390fd5b600280546001600160a01b0319166001600160a01b0392909216919091179055565b6000546001600160a01b031633146101ff5760405162461bcd60e51b81526004016101aa90610677565b600380546001600160a01b0319166001600160a01b0392909216919091179055565b6003546040516370a0823160e01b81523060048201526000916001600160a01b0316906370a0823190602401602060405180830381865afa15801561026a573d6000803e3d6000fd5b505050506040513d601f19601f8201168201806040525081019061028e91906106ac565b116102db5760405162461bcd60e51b815260206004820152601860248201527f4e6f2066756e6473206c65667420696e20657363726f772e000000000000000060448201526064016101aa565b600062278d006001546102ee91906106c5565b42111561052a576003546040516370a0823160e01b81523060048201526a084595161401484a000000916001600160a01b0316906370a0823190602401602060405180830381865afa158015610348573d6000803e3d6000fd5b505050506040513d601f19601f8201168201806040525081019061036c91906106ac565b111561038457506a084595161401484a0000006103f3565b6003546040516370a0823160e01b81523060048201526001600160a01b03909116906370a0823190602401602060405180830381865afa1580156103cc573d6000803e3d6000fd5b505050506040513d601f19601f820116820180604052508101906103f091906106ac565b90505b60035460025460405163a9059cbb60e01b81526001600160a01b0391821660048201526024810184905291169063a9059cbb906044016020604051808303816000875af1158015610448573d6000803e3d6000fd5b505050506040513d601f19601f8201168201806040525081019061046c91906106eb565b5062278d0060015461047e91906106c5565b6001556003546040516370a0823160e01b81523060048201527f10ce17ae7e78eb775b13182ea618b201c2c81afc8fee55c287291f8686f17eac9183916001600160a01b03909116906370a0823190602401602060405180830381865afa1580156104ed573d6000803e3d6000fd5b505050506040513d601f19601f8201168201806040525081019061051191906106ac565b6040805192835260208301919091520160405180910390a15b50565b6000546001600160a01b031633146105575760405162461bcd60e51b81526004016101aa90610677565b61056160006105f7565b565b6000546001600160a01b0316331461058d5760405162461bcd60e51b81526004016101aa90610677565b6001600160a01b0381166105f25760405162461bcd60e51b815260206004820152602660248201527f4f776e61626c653a206e6577206f776e657220697320746865207a65726f206160448201526564647265737360d01b60648201526084016101aa565b61052a815b600080546001600160a01b038381166001600160a01b0319831681178455604051919092169283917f8be0079c531659141344cd1fd0a4f28419497f9722a3daafe3b4186f6b6457e09190a35050565b60006020828403121561065957600080fd5b81356001600160a01b038116811461067057600080fd5b9392505050565b6020808252818101527f4f776e61626c653a2063616c6c6572206973206e6f7420746865206f776e6572604082015260600190565b6000602082840312156106be57600080fd5b5051919050565b600082198211156106e657634e487b7160e01b600052601160045260246000fd5b500190565b6000602082840312156106fd57600080fd5b8151801515811461067057600080fdfea26469706673582212208bc580e2c228d0feacaa1b0ad7a409d58282c8a62c8de4b2aa65a253c9b7ce9d64736f6c634300080b00334f776e61626c653a2063616c6c6572206973206e6f7420746865206f776e6572",
  "immutableReferences": {},
  "source": "//SPDX-License-Identifier: GPLv3\r\npragma solidity 0.8.11;\r\n\r\nimport \"@openzeppelin/contracts/access/Ownable.sol\";\r\nimport \"@openzeppelin/contracts/token/ERC20/IERC20.sol\";\r\n\r\n// ----------------------------------------------------------------------------------\r\n// Escrow contract to safely store and release the token allocated to Morpher at\r\n// protocol inception\r\n// ----------------------------------------------------------------------------------\r\n\r\n\r\ncontract MorpherEscrow is Ownable{\r\n\r\n    uint256 public lastEscrowTransferTime;\r\n    address public recipient;\r\n    address public morpherToken;\r\n\r\n    uint256 public constant RELEASEAMOUNT = 10**25;\r\n    uint256 public constant RELEASEPERIOD = 30 days;\r\n\r\n    event EscrowReleased(uint256 _released, uint256 _leftInEscrow);\r\n\r\n    constructor(address _recipientAddress, address _morpherToken, address _coldStorageOwnerAddress) {\r\n        setRecipientAddress(_recipientAddress);\r\n        setMorpherTokenAddress(_morpherToken);\r\n        lastEscrowTransferTime = block.timestamp;\r\n        transferOwnership(_coldStorageOwnerAddress);\r\n    }\r\n\r\n    // ----------------------------------------------------------------------------------\r\n    // Owner can modify recipient address and update morpherToken adddress\r\n    // ----------------------------------------------------------------------------------\r\n    function setRecipientAddress(address _recipientAddress) public onlyOwner {\r\n        recipient = _recipientAddress;\r\n    }\r\n\r\n    function setMorpherTokenAddress(address _address) public onlyOwner {\r\n        morpherToken = _address;\r\n    }\r\n\r\n    // ----------------------------------------------------------------------------------\r\n    // Anyone can release funds from escrow if enough time has elapsed\r\n    // Every 30 days 1% of the total initial supply or 10m token are released to Morpher\r\n    // ----------------------------------------------------------------------------------\r\n    function releaseFromEscrow() public {\r\n        require(IERC20(morpherToken).balanceOf(address(this)) > 0, \"No funds left in escrow.\");\r\n        uint256 _releasedAmount;\r\n        if (block.timestamp > lastEscrowTransferTime + (RELEASEPERIOD)) {\r\n            if (IERC20(morpherToken).balanceOf(address(this)) > RELEASEAMOUNT) {\r\n                _releasedAmount = RELEASEAMOUNT;\r\n            } else {\r\n                _releasedAmount = IERC20(morpherToken).balanceOf(address(this));\r\n            }\r\n            IERC20(morpherToken).transfer(recipient, _releasedAmount);\r\n            lastEscrowTransferTime = lastEscrowTransferTime + (RELEASEPERIOD);\r\n            emit EscrowReleased(_releasedAmount, IERC20(morpherToken).balanceOf(address(this)));\r\n        }\r\n    }\r\n}\r\n",
  "sourcePath": "/home/thomas/MorpherProtocol/contracts/MorpherEscrow.sol",
  "compiler": {
    "name": "solc",
    "version": "0.8.11+commit.d7f03943.Emscripten.clang"
  },
  "schemaVersion": "3.4.5",
  "updatedAt": "2022-03-09T13:35:33.543Z",
  "devdoc": {
    "kind": "dev",
    "methods": {
      "owner()": {
        "details": "Returns the address of the current owner."
      },
      "renounceOwnership()": {
        "details": "Leaves the contract without owner. It will not be possible to call `onlyOwner` functions anymore. Can only be called by the current owner. NOTE: Renouncing ownership will leave the contract without an owner, thereby removing any functionality that is only available to the owner."
      },
      "transferOwnership(address)": {
        "details": "Transfers ownership of the contract to a new account (`newOwner`). Can only be called by the current owner."
      }
    },
    "version": 1
  },
  "userdoc": {
    "kind": "user",
    "methods": {},
    "version": 1
  }
}