{
  "contractName": "MorpherState",
  "abi": [
    {
      "anonymous": false,
      "inputs": [
        {
          "indexed": false,
          "internalType": "address",
          "name": "_bridgeAddress",
          "type": "address"
        }
      ],
      "name": "BridgeChange",
      "type": "event"
    },
    {
      "anonymous": false,
      "inputs": [],
      "name": "FastWithdrawsDisabled",
      "type": "event"
    },
    {
      "anonymous": false,
      "inputs": [
        {
          "indexed": true,
          "internalType": "address",
          "name": "governanceAddress",
          "type": "address"
        }
      ],
      "name": "GovernanceChange",
      "type": "event"
    },
    {
      "anonymous": false,
      "inputs": [
        {
          "indexed": false,
          "internalType": "uint256",
          "name": "_periodLength",
          "type": "uint256"
        }
      ],
      "name": "InactivityPeriodUpdated",
      "type": "event"
    },
    {
      "anonymous": false,
      "inputs": [],
      "name": "Last24HoursAmountWithdrawnReset",
      "type": "event"
    },
    {
      "anonymous": false,
      "inputs": [
        {
          "indexed": true,
          "internalType": "uint256",
          "name": "rewardsTime",
          "type": "uint256"
        }
      ],
      "name": "LastRewardTime",
      "type": "event"
    },
    {
      "anonymous": false,
      "inputs": [],
      "name": "LastWithdrawAt",
      "type": "event"
    },
    {
      "anonymous": false,
      "inputs": [
        {
          "indexed": true,
          "internalType": "uint256",
          "name": "mainChainWithdrawLimit24",
          "type": "uint256"
        }
      ],
      "name": "MainChainWithdrawLimitUpdate",
      "type": "event"
    },
    {
      "anonymous": false,
      "inputs": [
        {
          "indexed": true,
          "internalType": "bytes32",
          "name": "activateMarket",
          "type": "bytes32"
        }
      ],
      "name": "MarketActivated",
      "type": "event"
    },
    {
      "anonymous": false,
      "inputs": [
        {
          "indexed": true,
          "internalType": "bytes32",
          "name": "deActivateMarket",
          "type": "bytes32"
        }
      ],
      "name": "MarketDeActivated",
      "type": "event"
    },
    {
      "anonymous": false,
      "inputs": [
        {
          "indexed": false,
          "internalType": "uint256",
          "name": "maxLeverage",
          "type": "uint256"
        }
      ],
      "name": "MaximumLeverageChange",
      "type": "event"
    },
    {
      "anonymous": false,
      "inputs": [
        {
          "indexed": false,
          "internalType": "uint256",
          "name": "_transferNonce",
          "type": "uint256"
        }
      ],
      "name": "NewBridgeNonce",
      "type": "event"
    },
    {
      "anonymous": false,
      "inputs": [
        {
          "indexed": true,
          "internalType": "address",
          "name": "sideChainOperator",
          "type": "address"
        }
      ],
      "name": "NewSideChainOperator",
      "type": "event"
    },
    {
      "anonymous": false,
      "inputs": [
        {
          "indexed": false,
          "internalType": "uint256",
          "name": "_numberOfRequests",
          "type": "uint256"
        }
      ],
      "name": "NumberOfRequestsLimitUpdate",
      "type": "event"
    },
    {
      "anonymous": false,
      "inputs": [
        {
          "indexed": true,
          "internalType": "address",
          "name": "recipient",
          "type": "address"
        },
        {
          "indexed": false,
          "internalType": "uint256",
          "name": "amount",
          "type": "uint256"
        }
      ],
      "name": "OperatingRewardMinted",
      "type": "event"
    },
    {
      "anonymous": false,
      "inputs": [
        {
          "indexed": true,
          "internalType": "address",
          "name": "rewardsAddress",
          "type": "address"
        },
        {
          "indexed": true,
          "internalType": "uint256",
          "name": "rewardsBasisPoints",
          "type": "uint256"
        }
      ],
      "name": "RewardsChange",
      "type": "event"
    },
    {
      "anonymous": false,
      "inputs": [
        {
          "indexed": false,
          "internalType": "uint256",
          "name": "_last24HoursAmountWithdrawn",
          "type": "uint256"
        },
        {
          "indexed": false,
          "internalType": "uint256",
          "name": "_lastWithdrawLimitReductionTime",
          "type": "uint256"
        }
      ],
      "name": "RollingWithdrawnAmountUpdated",
      "type": "event"
    },
    {
      "anonymous": false,
      "inputs": [
        {
          "indexed": true,
          "internalType": "address",
          "name": "sender",
          "type": "address"
        },
        {
          "indexed": true,
          "internalType": "address",
          "name": "spender",
          "type": "address"
        },
        {
          "indexed": false,
          "internalType": "uint256",
          "name": "tokens",
          "type": "uint256"
        }
      ],
      "name": "SetAllowance",
      "type": "event"
    },
    {
      "anonymous": false,
      "inputs": [
        {
          "indexed": true,
          "internalType": "address",
          "name": "account",
          "type": "address"
        },
        {
          "indexed": false,
          "internalType": "uint256",
          "name": "balance",
          "type": "uint256"
        },
        {
          "indexed": true,
          "internalType": "bytes32",
          "name": "balanceHash",
          "type": "bytes32"
        }
      ],
      "name": "SetBalance",
      "type": "event"
    },
    {
      "anonymous": false,
      "inputs": [
        {
          "indexed": false,
          "internalType": "address",
          "name": "_oldAddress",
          "type": "address"
        },
        {
          "indexed": false,
          "internalType": "address",
          "name": "_newAddress",
          "type": "address"
        }
      ],
      "name": "SetMorpherAccessControlAddress",
      "type": "event"
    },
    {
      "anonymous": false,
      "inputs": [
        {
          "indexed": false,
          "internalType": "address",
          "name": "_oldAddress",
          "type": "address"
        },
        {
          "indexed": false,
          "internalType": "address",
          "name": "_newAddress",
          "type": "address"
        }
      ],
      "name": "SetMorpherAirdropAddress",
      "type": "event"
    },
    {
      "anonymous": false,
      "inputs": [
        {
          "indexed": false,
          "internalType": "address",
          "name": "_oldAddress",
          "type": "address"
        },
        {
          "indexed": false,
          "internalType": "address",
          "name": "_newAddress",
          "type": "address"
        }
      ],
      "name": "SetMorpherBridgeAddress",
      "type": "event"
    },
    {
      "anonymous": false,
      "inputs": [
        {
          "indexed": false,
          "internalType": "address",
          "name": "_oldAddress",
          "type": "address"
        },
        {
          "indexed": false,
          "internalType": "address",
          "name": "_newAddress",
          "type": "address"
        }
      ],
      "name": "SetMorpherFaucetAddress",
      "type": "event"
    },
    {
      "anonymous": false,
      "inputs": [
        {
          "indexed": false,
          "internalType": "address",
          "name": "_oldAddress",
          "type": "address"
        },
        {
          "indexed": false,
          "internalType": "address",
          "name": "_newAddress",
          "type": "address"
        }
      ],
      "name": "SetMorpherGovernanceAddress",
      "type": "event"
    },
    {
      "anonymous": false,
      "inputs": [
        {
          "indexed": false,
          "internalType": "address",
          "name": "_oldAddress",
          "type": "address"
        },
        {
          "indexed": false,
          "internalType": "address",
          "name": "_newAddress",
          "type": "address"
        }
      ],
      "name": "SetMorpherMintingLimiterAddress",
      "type": "event"
    },
    {
      "anonymous": false,
      "inputs": [
        {
          "indexed": false,
          "internalType": "address",
          "name": "_oldAddress",
          "type": "address"
        },
        {
          "indexed": false,
          "internalType": "address",
          "name": "_newAddress",
          "type": "address"
        }
      ],
      "name": "SetMorpherOracleAddress",
      "type": "event"
    },
    {
      "anonymous": false,
      "inputs": [
        {
          "indexed": false,
          "internalType": "address",
          "name": "_oldAddress",
          "type": "address"
        },
        {
          "indexed": false,
          "internalType": "address",
          "name": "_newAddress",
          "type": "address"
        }
      ],
      "name": "SetMorpherStakingAddress",
      "type": "event"
    },
    {
      "anonymous": false,
      "inputs": [
        {
          "indexed": false,
          "internalType": "address",
          "name": "_oldAddress",
          "type": "address"
        },
        {
          "indexed": false,
          "internalType": "address",
          "name": "_newAddress",
          "type": "address"
        }
      ],
      "name": "SetMorpherTokenAddress",
      "type": "event"
    },
    {
      "anonymous": false,
      "inputs": [
        {
          "indexed": false,
          "internalType": "address",
          "name": "_oldAddress",
          "type": "address"
        },
        {
          "indexed": false,
          "internalType": "address",
          "name": "_newAddress",
          "type": "address"
        }
      ],
      "name": "SetMorpherTradeEngineAddress",
      "type": "event"
    },
    {
      "anonymous": false,
      "inputs": [
        {
          "indexed": false,
          "internalType": "address",
          "name": "_oldAddress",
          "type": "address"
        },
        {
          "indexed": false,
          "internalType": "address",
          "name": "_newAddress",
          "type": "address"
        }
      ],
      "name": "SetMorpherUserBlockingAddress",
      "type": "event"
    },
    {
      "anonymous": false,
      "inputs": [
        {
          "indexed": true,
          "internalType": "bytes32",
          "name": "sideChainMerkleRoot",
          "type": "bytes32"
        }
      ],
      "name": "SideChainMerkleRootUpdate",
      "type": "event"
    },
    {
      "anonymous": false,
      "inputs": [
        {
          "indexed": false,
          "internalType": "address",
          "name": "administrator",
          "type": "address"
        },
        {
          "indexed": false,
          "internalType": "bool",
          "name": "_paused",
          "type": "bool"
        }
      ],
      "name": "StatePaused",
      "type": "event"
    },
    {
      "anonymous": false,
      "inputs": [
        {
          "indexed": true,
          "internalType": "address",
          "name": "tokenAddress",
          "type": "address"
        }
      ],
      "name": "TokenChange",
      "type": "event"
    },
    {
      "anonymous": false,
      "inputs": [
        {
          "indexed": false,
          "internalType": "address",
          "name": "_address",
          "type": "address"
        },
        {
          "indexed": false,
          "internalType": "uint256",
          "name": "_token",
          "type": "uint256"
        },
        {
          "indexed": false,
          "internalType": "uint256",
          "name": "_totalTokenSent",
          "type": "uint256"
        },
        {
          "indexed": true,
          "internalType": "bytes32",
          "name": "_tokenSentToLinkedChainHash",
          "type": "bytes32"
        }
      ],
      "name": "TokenSentToLinkedChain",
      "type": "event"
    },
    {
      "anonymous": false,
      "inputs": [
        {
          "indexed": true,
          "internalType": "address",
          "name": "account",
          "type": "address"
        },
        {
          "indexed": false,
          "internalType": "uint256",
          "name": "tokenTransferredToOtherChain",
          "type": "uint256"
        },
        {
          "indexed": true,
          "internalType": "bytes32",
          "name": "transferHash",
          "type": "bytes32"
        }
      ],
      "name": "TokenTransferredToOtherChain",
      "type": "event"
    },
    {
      "anonymous": false,
      "inputs": [
        {
          "indexed": false,
          "internalType": "address",
          "name": "_address",
          "type": "address"
        },
        {
          "indexed": false,
          "internalType": "uint256",
          "name": "_token",
          "type": "uint256"
        }
      ],
      "name": "TransferredTokenClaimed",
      "type": "event"
    },
    {
      "anonymous": false,
      "inputs": [
        {
          "indexed": false,
          "internalType": "uint256",
          "name": "_amount",
          "type": "uint256"
        }
      ],
      "name": "WithdrawLimitUpdated",
      "type": "event"
    },
    {
      "inputs": [],
      "name": "ADMINISTRATOR_ROLE",
      "outputs": [
        {
          "internalType": "bytes32",
          "name": "",
          "type": "bytes32"
        }
      ],
      "stateMutability": "view",
      "type": "function"
    },
    {
      "inputs": [],
      "name": "DECIMALS",
      "outputs": [
        {
          "internalType": "uint256",
          "name": "",
          "type": "uint256"
        }
      ],
      "stateMutability": "view",
      "type": "function"
    },
    {
      "inputs": [],
      "name": "GOVERNANCE_ROLE",
      "outputs": [
        {
          "internalType": "bytes32",
          "name": "",
          "type": "bytes32"
        }
      ],
      "stateMutability": "view",
      "type": "function"
    },
    {
      "inputs": [],
      "name": "PLATFORM_ROLE",
      "outputs": [
        {
          "internalType": "bytes32",
          "name": "",
          "type": "bytes32"
        }
      ],
      "stateMutability": "view",
      "type": "function"
    },
    {
      "inputs": [],
      "name": "PRECISION",
      "outputs": [
        {
          "internalType": "uint256",
          "name": "",
          "type": "uint256"
        }
      ],
      "stateMutability": "view",
      "type": "function"
    },
    {
      "inputs": [],
      "name": "REWARDPERIOD",
      "outputs": [
        {
          "internalType": "uint256",
          "name": "",
          "type": "uint256"
        }
      ],
      "stateMutability": "view",
      "type": "function"
    },
    {
      "inputs": [],
      "name": "fastTransfersEnabled",
      "outputs": [
        {
          "internalType": "bool",
          "name": "",
          "type": "bool"
        }
      ],
      "stateMutability": "view",
      "type": "function"
    },
    {
      "inputs": [],
      "name": "inactivityPeriod",
      "outputs": [
        {
          "internalType": "uint256",
          "name": "",
          "type": "uint256"
        }
      ],
      "stateMutability": "view",
      "type": "function"
    },
    {
      "inputs": [],
      "name": "last24HoursAmountWithdrawn",
      "outputs": [
        {
          "internalType": "uint256",
          "name": "",
          "type": "uint256"
        }
      ],
      "stateMutability": "view",
      "type": "function"
    },
    {
      "inputs": [],
      "name": "lastRewardTime",
      "outputs": [
        {
          "internalType": "uint256",
          "name": "",
          "type": "uint256"
        }
      ],
      "stateMutability": "view",
      "type": "function"
    },
    {
      "inputs": [],
      "name": "lastWithdrawLimitReductionTime",
      "outputs": [
        {
          "internalType": "uint256",
          "name": "",
          "type": "uint256"
        }
      ],
      "stateMutability": "view",
      "type": "function"
    },
    {
      "inputs": [],
      "name": "mainChainWithdrawLimit24",
      "outputs": [
        {
          "internalType": "uint256",
          "name": "",
          "type": "uint256"
        }
      ],
      "stateMutability": "view",
      "type": "function"
    },
    {
      "inputs": [],
      "name": "maximumLeverage",
      "outputs": [
        {
          "internalType": "uint256",
          "name": "",
          "type": "uint256"
        }
      ],
      "stateMutability": "view",
      "type": "function"
    },
    {
      "inputs": [],
      "name": "morpherAccessControlAddress",
      "outputs": [
        {
          "internalType": "address",
          "name": "",
          "type": "address"
        }
      ],
      "stateMutability": "view",
      "type": "function"
    },
    {
      "inputs": [],
      "name": "morpherAirdropAddress",
      "outputs": [
        {
          "internalType": "address",
          "name": "",
          "type": "address"
        }
      ],
      "stateMutability": "view",
      "type": "function"
    },
    {
      "inputs": [],
      "name": "morpherBridgeAddress",
      "outputs": [
        {
          "internalType": "address",
          "name": "",
          "type": "address"
        }
      ],
      "stateMutability": "view",
      "type": "function"
    },
    {
      "inputs": [],
      "name": "morpherFaucetAddress",
      "outputs": [
        {
          "internalType": "address",
          "name": "",
          "type": "address"
        }
      ],
      "stateMutability": "view",
      "type": "function"
    },
    {
      "inputs": [],
      "name": "morpherGovernanceAddress",
      "outputs": [
        {
          "internalType": "address",
          "name": "",
          "type": "address"
        }
      ],
      "stateMutability": "view",
      "type": "function"
    },
    {
      "inputs": [],
      "name": "morpherMintingLimiterAddress",
      "outputs": [
        {
          "internalType": "address",
          "name": "",
          "type": "address"
        }
      ],
      "stateMutability": "view",
      "type": "function"
    },
    {
      "inputs": [],
      "name": "morpherOracleAddress",
      "outputs": [
        {
          "internalType": "address",
          "name": "",
          "type": "address"
        }
      ],
      "stateMutability": "view",
      "type": "function"
    },
    {
      "inputs": [],
      "name": "morpherRewards",
      "outputs": [
        {
          "internalType": "address",
          "name": "",
          "type": "address"
        }
      ],
      "stateMutability": "view",
      "type": "function"
    },
    {
      "inputs": [],
      "name": "morpherStakingAddress",
      "outputs": [
        {
          "internalType": "address payable",
          "name": "",
          "type": "address"
        }
      ],
      "stateMutability": "view",
      "type": "function"
    },
    {
      "inputs": [],
      "name": "morpherTokenAddress",
      "outputs": [
        {
          "internalType": "address",
          "name": "",
          "type": "address"
        }
      ],
      "stateMutability": "view",
      "type": "function"
    },
    {
      "inputs": [],
      "name": "morpherTradeEngineAddress",
      "outputs": [
        {
          "internalType": "address",
          "name": "",
          "type": "address"
        }
      ],
      "stateMutability": "view",
      "type": "function"
    },
    {
      "inputs": [],
      "name": "morpherUserBlockingAddress",
      "outputs": [
        {
          "internalType": "address",
          "name": "",
          "type": "address"
        }
      ],
      "stateMutability": "view",
      "type": "function"
    },
    {
      "inputs": [],
      "name": "numberOfRequestsLimit",
      "outputs": [
        {
          "internalType": "uint256",
          "name": "",
          "type": "uint256"
        }
      ],
      "stateMutability": "view",
      "type": "function"
    },
    {
      "inputs": [],
      "name": "rewardBasisPoints",
      "outputs": [
        {
          "internalType": "uint256",
          "name": "",
          "type": "uint256"
        }
      ],
      "stateMutability": "view",
      "type": "function"
    },
    {
      "inputs": [],
      "name": "sideChainMerkleRoot",
      "outputs": [
        {
          "internalType": "bytes32",
          "name": "",
          "type": "bytes32"
        }
      ],
      "stateMutability": "view",
      "type": "function"
    },
    {
      "inputs": [],
      "name": "sideChainMerkleRootWrittenAtTime",
      "outputs": [
        {
          "internalType": "uint256",
          "name": "",
          "type": "uint256"
        }
      ],
      "stateMutability": "view",
      "type": "function"
    },
    {
      "inputs": [],
      "name": "sideChainOperator",
      "outputs": [
        {
          "internalType": "address",
          "name": "",
          "type": "address"
        }
      ],
      "stateMutability": "view",
      "type": "function"
    },
    {
      "inputs": [],
      "name": "transferNonce",
      "outputs": [
        {
          "internalType": "uint256",
          "name": "",
          "type": "uint256"
        }
      ],
      "stateMutability": "view",
      "type": "function"
    },
    {
      "inputs": [],
      "name": "withdrawLimit24Hours",
      "outputs": [
        {
          "internalType": "uint256",
          "name": "",
          "type": "uint256"
        }
      ],
      "stateMutability": "view",
      "type": "function"
    },
    {
      "inputs": [
        {
          "internalType": "bool",
          "name": "_mainChain",
          "type": "bool"
        },
        {
          "internalType": "address",
          "name": "_sideChainOperator",
          "type": "address"
        },
        {
          "internalType": "address",
          "name": "_morpherTreasury",
          "type": "address"
        },
        {
          "internalType": "address",
          "name": "_morpherAccessControlAddress",
          "type": "address"
        }
      ],
      "name": "initialize",
      "outputs": [],
      "stateMutability": "nonpayable",
      "type": "function"
    },
    {
      "inputs": [
        {
          "internalType": "address",
          "name": "_address",
          "type": "address"
        },
        {
          "internalType": "uint256",
          "name": "_token",
          "type": "uint256"
        }
      ],
      "name": "setTokenClaimedOnThisChain",
      "outputs": [],
      "stateMutability": "nonpayable",
      "type": "function"
    },
    {
      "inputs": [
        {
          "internalType": "address",
          "name": "_address",
          "type": "address"
        }
      ],
      "name": "getTokenClaimedOnThisChain",
      "outputs": [
        {
          "internalType": "uint256",
          "name": "_token",
          "type": "uint256"
        }
      ],
      "stateMutability": "view",
      "type": "function"
    },
    {
      "inputs": [
        {
          "internalType": "address",
          "name": "_address",
          "type": "address"
        },
        {
          "internalType": "uint256",
          "name": "_token",
          "type": "uint256"
        }
      ],
      "name": "setTokenSentToLinkedChain",
      "outputs": [],
      "stateMutability": "nonpayable",
      "type": "function"
    },
    {
      "inputs": [
        {
          "internalType": "address",
          "name": "_address",
          "type": "address"
        }
      ],
      "name": "getTokenSentToLinkedChain",
      "outputs": [
        {
          "internalType": "uint256",
          "name": "_token",
          "type": "uint256"
        }
      ],
      "stateMutability": "view",
      "type": "function"
    },
    {
      "inputs": [
        {
          "internalType": "address",
          "name": "_address",
          "type": "address"
        }
      ],
      "name": "getTokenSentToLinkedChainTime",
      "outputs": [
        {
          "internalType": "uint256",
          "name": "_timeStamp",
          "type": "uint256"
        }
      ],
      "stateMutability": "view",
      "type": "function"
    },
    {
      "inputs": [
        {
          "internalType": "uint256",
          "name": "_amount",
          "type": "uint256"
        }
      ],
      "name": "add24HoursWithdrawn",
      "outputs": [],
      "stateMutability": "nonpayable",
      "type": "function"
    },
    {
      "inputs": [
        {
          "internalType": "uint256",
          "name": "_amount",
          "type": "uint256"
        }
      ],
      "name": "update24HoursWithdrawLimit",
      "outputs": [],
      "stateMutability": "nonpayable",
      "type": "function"
    },
    {
      "inputs": [
        {
          "internalType": "uint256",
          "name": "_limit",
          "type": "uint256"
        }
      ],
      "name": "set24HourWithdrawLimit",
      "outputs": [],
      "stateMutability": "nonpayable",
      "type": "function"
    },
    {
      "inputs": [],
      "name": "resetLast24HoursAmountWithdrawn",
      "outputs": [],
      "stateMutability": "nonpayable",
      "type": "function"
    },
    {
      "inputs": [
        {
          "internalType": "uint256",
          "name": "_periodLength",
          "type": "uint256"
        }
      ],
      "name": "setInactivityPeriod",
      "outputs": [],
      "stateMutability": "nonpayable",
      "type": "function"
    },
    {
      "inputs": [],
      "name": "getBridgeNonce",
      "outputs": [
        {
          "internalType": "uint256",
          "name": "_nonce",
          "type": "uint256"
        }
      ],
      "stateMutability": "nonpayable",
      "type": "function"
    },
    {
      "inputs": [],
      "name": "disableFastWithdraws",
      "outputs": [],
      "stateMutability": "nonpayable",
      "type": "function"
    },
    {
      "inputs": [
        {
          "internalType": "bytes32",
          "name": "_positionHash",
          "type": "bytes32"
        }
      ],
      "name": "setPositionClaimedOnMainChain",
      "outputs": [],
      "stateMutability": "nonpayable",
      "type": "function"
    },
    {
      "inputs": [
        {
          "internalType": "bytes32",
          "name": "_positionHash",
          "type": "bytes32"
        }
      ],
      "name": "getPositionClaimedOnMainChain",
      "outputs": [
        {
          "internalType": "bool",
          "name": "_alreadyClaimed",
          "type": "bool"
        }
      ],
      "stateMutability": "view",
      "type": "function"
    },
    {
      "inputs": [
        {
          "internalType": "address",
          "name": "_address",
          "type": "address"
        },
        {
          "internalType": "uint256",
          "name": "_balance",
          "type": "uint256"
        }
      ],
      "name": "getBalanceHash",
      "outputs": [
        {
          "internalType": "bytes32",
          "name": "_hash",
          "type": "bytes32"
        }
      ],
      "stateMutability": "pure",
      "type": "function"
    },
    {
      "inputs": [
        {
          "internalType": "uint256",
          "name": "_mainChainWithdrawLimit24",
          "type": "uint256"
        }
      ],
      "name": "setMainChainWithdrawLimit",
      "outputs": [],
      "stateMutability": "nonpayable",
      "type": "function"
    },
    {
      "inputs": [],
      "name": "getMainChainWithdrawLimit",
      "outputs": [
        {
          "internalType": "uint256",
          "name": "_mainChainWithdrawLimit24",
          "type": "uint256"
        }
      ],
      "stateMutability": "view",
      "type": "function"
    },
    {
      "inputs": [
        {
          "internalType": "address",
          "name": "_morpherAccessControlAddress",
          "type": "address"
        }
      ],
      "name": "setMorpherAccessControl",
      "outputs": [],
      "stateMutability": "nonpayable",
      "type": "function"
    },
    {
      "inputs": [
        {
          "internalType": "address",
          "name": "_morpherAirdropAddress",
          "type": "address"
        }
      ],
      "name": "setMorpherAirdrop",
      "outputs": [],
      "stateMutability": "nonpayable",
      "type": "function"
    },
    {
      "inputs": [
        {
          "internalType": "address",
          "name": "_morpherBridgeAddress",
          "type": "address"
        }
      ],
      "name": "setMorpherBridge",
      "outputs": [],
      "stateMutability": "nonpayable",
      "type": "function"
    },
    {
      "inputs": [
        {
          "internalType": "address",
          "name": "_morpherFaucetAddress",
          "type": "address"
        }
      ],
      "name": "setMorpherFaucet",
      "outputs": [],
      "stateMutability": "nonpayable",
      "type": "function"
    },
    {
      "inputs": [
        {
          "internalType": "address",
          "name": "_morpherGovernanceAddress",
          "type": "address"
        }
      ],
      "name": "setMorpherGovernance",
      "outputs": [],
      "stateMutability": "nonpayable",
      "type": "function"
    },
    {
      "inputs": [
        {
          "internalType": "address",
          "name": "_morpherMintingLimiterAddress",
          "type": "address"
        }
      ],
      "name": "setMorpherMintingLimiter",
      "outputs": [],
      "stateMutability": "nonpayable",
      "type": "function"
    },
    {
      "inputs": [
        {
          "internalType": "address",
          "name": "_morpherOracleAddress",
          "type": "address"
        }
      ],
      "name": "setMorpherOracle",
      "outputs": [],
      "stateMutability": "nonpayable",
      "type": "function"
    },
    {
      "inputs": [
        {
          "internalType": "address payable",
          "name": "_morpherStakingAddress",
          "type": "address"
        }
      ],
      "name": "setMorpherStaking",
      "outputs": [],
      "stateMutability": "nonpayable",
      "type": "function"
    },
    {
      "inputs": [
        {
          "internalType": "address",
          "name": "_morpherTokenAddress",
          "type": "address"
        }
      ],
      "name": "setMorpherToken",
      "outputs": [],
      "stateMutability": "nonpayable",
      "type": "function"
    },
    {
      "inputs": [
        {
          "internalType": "address",
          "name": "_morpherTradeEngineAddress",
          "type": "address"
        }
      ],
      "name": "setMorpherTradeEngine",
      "outputs": [],
      "stateMutability": "nonpayable",
      "type": "function"
    },
    {
      "inputs": [
        {
          "internalType": "address",
          "name": "_morpherUserBlockingAddress",
          "type": "address"
        }
      ],
      "name": "setMorpherUserBlocking",
      "outputs": [],
      "stateMutability": "nonpayable",
      "type": "function"
    },
    {
      "inputs": [
        {
          "internalType": "address",
          "name": "_newRewardsAddress",
          "type": "address"
        }
      ],
      "name": "setRewardAddress",
      "outputs": [],
      "stateMutability": "nonpayable",
      "type": "function"
    },
    {
      "inputs": [
        {
          "internalType": "uint256",
          "name": "_newRewardBasisPoints",
          "type": "uint256"
        }
      ],
      "name": "setRewardBasisPoints",
      "outputs": [],
      "stateMutability": "nonpayable",
      "type": "function"
    },
    {
      "inputs": [
        {
          "internalType": "bytes32",
          "name": "_activateMarket",
          "type": "bytes32"
        }
      ],
      "name": "activateMarket",
      "outputs": [],
      "stateMutability": "nonpayable",
      "type": "function"
    },
    {
      "inputs": [
        {
          "internalType": "bytes32",
          "name": "_deActivateMarket",
          "type": "bytes32"
        }
      ],
      "name": "deActivateMarket",
      "outputs": [],
      "stateMutability": "nonpayable",
      "type": "function"
    },
    {
      "inputs": [
        {
          "internalType": "bytes32",
          "name": "_marketId",
          "type": "bytes32"
        }
      ],
      "name": "getMarketActive",
      "outputs": [
        {
          "internalType": "bool",
          "name": "_active",
          "type": "bool"
        }
      ],
      "stateMutability": "view",
      "type": "function"
    },
    {
      "inputs": [
        {
          "internalType": "uint256",
          "name": "_newMaximumLeverage",
          "type": "uint256"
        }
      ],
      "name": "setMaximumLeverage",
      "outputs": [],
      "stateMutability": "nonpayable",
      "type": "function"
    },
    {
      "inputs": [],
      "name": "getMaximumLeverage",
      "outputs": [
        {
          "internalType": "uint256",
          "name": "_maxLeverage",
          "type": "uint256"
        }
      ],
      "stateMutability": "view",
      "type": "function"
    },
    {
      "inputs": [
        {
          "internalType": "bytes32",
          "name": "_sideChainMerkleRoot",
          "type": "bytes32"
        }
      ],
      "name": "setSideChainMerkleRoot",
      "outputs": [],
      "stateMutability": "nonpayable",
      "type": "function"
    },
    {
      "inputs": [],
      "name": "getSideChainMerkleRoot",
      "outputs": [
        {
          "internalType": "bytes32",
          "name": "_sideChainMerkleRoot",
          "type": "bytes32"
        }
      ],
      "stateMutability": "view",
      "type": "function"
    },
    {
      "inputs": [
        {
          "internalType": "address",
          "name": "_address",
          "type": "address"
        }
      ],
      "name": "setSideChainOperator",
      "outputs": [],
      "stateMutability": "nonpayable",
      "type": "function"
    },
    {
      "inputs": [],
      "name": "getSideChainOperator",
      "outputs": [
        {
          "internalType": "address",
          "name": "_address",
          "type": "address"
        }
      ],
      "stateMutability": "view",
      "type": "function"
    },
    {
      "inputs": [],
      "name": "getSideChainMerkleRootWrittenAtTime",
      "outputs": [
        {
          "internalType": "uint256",
          "name": "_sideChainMerkleRoot",
          "type": "uint256"
        }
      ],
      "stateMutability": "view",
      "type": "function"
    },
    {
      "inputs": [],
      "name": "payOperatingReward",
      "outputs": [],
      "stateMutability": "nonpayable",
      "type": "function"
    }
  ],
  "bytecode": "0x608060405234801561001057600080fd5b50612896806100206000396000f3fe608060405234801561001057600080fd5b506004361061043e5760003560e01c80639231cf7411610236578063d37afa8d1161013b578063ebd164fb116100c3578063fbfc50f611610087578063fbfc50f61461093a578063fc65383314610943578063fc89a4fc14610956578063fe25285214610969578063ff047c381461097c57600080fd5b8063ebd164fb146108c1578063f36c8f5c146108ea578063f45edb5f146108ff578063f606a41a14610914578063f90f59b71461092757600080fd5b8063da8cac021161010a578063da8cac021461086d578063daf9502714610880578063dd45bc9e14610893578063e20569af146108a6578063e4bd8522146108b957600080fd5b8063d37afa8d14610827578063d69082c41461083a578063d8d5470d1461084d578063da4b0f401461085a57600080fd5b8063af2b48a7116101be578063b8ed12a41161018d578063b8ed12a4146107e6578063bb65b242146107ef578063bc5bea65146107f8578063c5e1b59a1461080b578063d362bd2b1461081e57600080fd5b8063af2b48a7146107a3578063af434a6d146107ad578063af6976c3146107c0578063b6554c2c146107d357600080fd5b8063a35ab9c811610205578063a35ab9c814610760578063aa43ced814610773578063aa7bcd5d1461077c578063aaf5eb6814610785578063ac981b1e1461079057600080fd5b80639231cf74146107295780639baafc5c14610732578063a058088014610745578063a13141bd1461074d57600080fd5b8063432556ba116103475780636d37e218116102cf5780637c995e91116102935780637c995e91146106df57806381670836146106e757806384778771146106fa578063857b0da01461070d5780638c4050b11461072057600080fd5b80636d37e218146106815780636f3195491461068957806370824c5c1461069c5780637993a991146106c35780637b431ab1146106d657600080fd5b806350a71bac1161031657806350a71bac1461063757806355b337411461064a578063592b6aab146106535780635e00e6791461065b57806369cdcfb71461066e57600080fd5b8063432556ba146105bb57806344ae029c146105ce5780634a4cce97146106015780634da3c1991461062457600080fd5b806325fbf712116103ca578063364ae26e11610399578063364ae26e146105505780633716552d1461057957806339b1969a1461058c5780633eedf76a1461059f578063422cc2e7146105a857600080fd5b806325fbf7121461051a57806328196ca0146105225780632e0f2625146105355780633383e8d81461053d57600080fd5b80630f508e00116104115780630f508e00146104b157806314ce70ef146104c25780631cb11077146104d55780632082bb28146104de57806321c02c8e146104f157600080fd5b806304371f481461044357806306442d0a1461045857806309089f971461046b5780630aa7cee214610486575b600080fd5b610456610451366004612596565b610984565b005b610456610466366004612596565b610b7a565b610473610c58565b6040519081526020015b60405180910390f35b603f54610499906001600160a01b031681565b6040516001600160a01b03909116815260200161047d565b603f546001600160a01b0316610499565b6104566104d03660046125c7565b610cdc565b610473604d5481565b6104566104ec3660046125c7565b610dc4565b6104736104ff3660046125c7565b6001600160a01b031660009081526047602052604090205490565b604354610473565b603354610499906001600160a01b031681565b610473601281565b61045661054b3660046125eb565b610ecb565b61047361055e3660046125c7565b6001600160a01b031660009081526048602052604090205490565b6104566105873660046125c7565b610f4e565b61045661059a3660046125c7565b611055565b61047360405481565b6104566105b63660046125eb565b61115c565b603b54610499906001600160a01b031681565b6105f16105dc366004612596565b6000908152604a602052604090205460ff1690565b604051901515815260200161047d565b6105f161060f366004612596565b60009081526046602052604090205460ff1690565b610456610632366004612596565b611215565b603d54610499906001600160a01b031681565b61047360455481565b61045661127e565b6104566106693660046125c7565b6112dd565b61045661067c366004612596565b6113cb565b61045661149c565b603554610499906001600160a01b031681565b6104737f797343f8d6a29aafeb3aaf0910a8973e0081c60c2f6c1f775cd9f76ea348fc1e81565b6104566106d13660046125c7565b611680565b61047360445481565b604054610473565b603754610499906001600160a01b031681565b603954610499906001600160a01b031681565b61047361071b3660046125eb565b611787565b61047360535481565b61047360425481565b6104566107403660046125c7565b6117ce565b6104566118d5565b61045661075b3660046125c7565b61192f565b61045661076e366004612596565b611a36565b610473604b5481565b610473604c5481565b6104736305f5e10081565b61045661079e366004612596565b611ad0565b6104736201518081565b6104566107bb366004612596565b611bb1565b603854610499906001600160a01b031681565b6104566107e1366004612596565b611c10565b610473604f5481565b61047360415481565b603654610499906001600160a01b031681565b6104566108193660046125c7565b611c55565b610473604e5481565b603c54610499906001600160a01b031681565b610456610848366004612596565b611d5c565b6050546105f19060ff1681565b610456610868366004612596565b611dd3565b61045661087b3660046125c7565b611f06565b61045661088e3660046125c7565b61200d565b6104566108a1366004612625565b612114565b603a54610499906001600160a01b031681565b604454610473565b6104736108cf3660046125c7565b6001600160a01b031660009081526049602052604090205490565b61047360008051602061282183398151915281565b61047360008051602061284183398151915281565b603e54610499906001600160a01b031681565b603454610499906001600160a01b031681565b61047360435481565b6104566109513660046125c7565b61228b565b610456610964366004612596565b612392565b6104566109773660046125c7565b6123f1565b604554610473565b603354604051632474521560e21b8152600080516020612821833981519152916001600160a01b0316906391d14854906109c49084903390600401612681565b602060405180830381865afa1580156109e1573d6000803e3d6000fd5b505050506040513d601f19601f82011682018060405250810190610a059190612698565b610a2a5760405162461bcd60e51b8152600401610a21906126b5565b60405180910390fd5b60545460ff16151560011415610ac557613a98821115610ac05760405162461bcd60e51b8152602060048201526044602482018190527f4d6f727068657253746174653a2052657761726420626173697320706f696e74908201527f73206e65656420746f206265206c657373206f7220657175616c20746f2031356064820152631818181760e11b608482015260a401610a21565b610b39565b8115610b395760405162461bcd60e51b815260206004820152603e60248201527f4d6f727068657253746174653a2052657761726420626173697320706f696e7460448201527f732063616e206f6e6c7920626520736574206f6e20457468657265756d2e00006064820152608401610a21565b6041829055603e5460405183916001600160a01b0316907faa735ef3e20d6d58610022edb69ae0e7e8aaa0084dc5699a0b36a5683bc7a7c790600090a35050565b603354604051632474521560e21b8152600080516020612841833981519152916001600160a01b0316906391d1485490610bba9084903390600401612681565b602060405180830381865afa158015610bd7573d6000803e3d6000fd5b505050506040513d601f19601f82011682018060405250810190610bfb9190612698565b610c175760405162461bcd60e51b8152600401610a21906126b5565b600082815260466020526040808220805460ff191690555183917f9cb9d54a58b209894faa9f115e54b1c61733c0764fe29ed01f97c7c425f2f24391a25050565b6035546000906001600160a01b03163314610c855760405162461bcd60e51b8152600401610a21906126fb565b604f8054906000610c9583612762565b91905055507f86423ef8971dc4252acb273ac1099fb639020a7a2f5a64dad077d033ab2ae8e2604f54604051610ccd91815260200190565b60405180910390a150604f5490565b603354604051632474521560e21b8152600080516020612841833981519152916001600160a01b0316906391d1485490610d1c9084903390600401612681565b602060405180830381865afa158015610d39573d6000803e3d6000fd5b505050506040513d601f19601f82011682018060405250810190610d5d9190612698565b610d795760405162461bcd60e51b8152600401610a21906126b5565b603f80546001600160a01b0319166001600160a01b0384169081179091556040517f07c5be40db03f5890f6ca87fc24a286cabbbd63a79791089701cb0b5eb71529890600090a25050565b603354604051632474521560e21b8152600080516020612841833981519152916001600160a01b0316906391d1485490610e049084903390600401612681565b602060405180830381865afa158015610e21573d6000803e3d6000fd5b505050506040513d601f19601f82011682018060405250810190610e459190612698565b610e615760405162461bcd60e51b8152600401610a21906126b5565b603c546040517f258a1bec0e18e5de82e8b2d04d828a5c9634a1c2d13ac19bc17d418704b6076f91610ea0916001600160a01b0390911690859061277d565b60405180910390a150603c80546001600160a01b0319166001600160a01b0392909216919091179055565b6035546001600160a01b03163314610ef55760405162461bcd60e51b8152600401610a21906126fb565b6001600160a01b038216600081815260476020908152604091829020849055815192835282018390527fb83fc1206022cf828cdd927bea92f3cfe9ae485bc4d4308b65413dfdd0ab6edb91015b60405180910390a15050565b603354604051632474521560e21b8152600080516020612841833981519152916001600160a01b0316906391d1485490610f8e9084903390600401612681565b602060405180830381865afa158015610fab573d6000803e3d6000fd5b505050506040513d601f19601f82011682018060405250810190610fcf9190612698565b610feb5760405162461bcd60e51b8152600401610a21906126b5565b6037546040517fb5ae810821e1befb4ae4e5e1ad7e85d8bc5e9f43471fb7deca38e8c057cc44a49161102a916001600160a01b0390911690859061277d565b60405180910390a150603780546001600160a01b0319166001600160a01b0392909216919091179055565b603354604051632474521560e21b8152600080516020612841833981519152916001600160a01b0316906391d14854906110959084903390600401612681565b602060405180830381865afa1580156110b2573d6000803e3d6000fd5b505050506040513d601f19601f820116820180604052508101906110d69190612698565b6110f25760405162461bcd60e51b8152600401610a21906126b5565b6036546040517f7fa90270c0b88ee88c968fdff5b5e7dbff285ee37bfb88cf3e168d71aebb432291611131916001600160a01b0390911690859061277d565b60405180910390a150603680546001600160a01b0319166001600160a01b0392909216919091179055565b6035546001600160a01b031633146111865760405162461bcd60e51b8152600401610a21906126fb565b6001600160a01b038216600090815260486020818152604080842085815560498352932042905552546111ba908390611787565b6001600160a01b03831660008181526048602090815260409182902054825193845290830185905282820152517fa3579111956ed8ebf7836e375375f707ea762883fa60008df45a289d53090b659181900360600190a25050565b6035546001600160a01b0316331461123f5760405162461bcd60e51b8152600401610a21906126fb565b60438190554260445561125061149c565b60405181907f2fe11f024562cd0798f5b3975c7be128c3b86e0249f9a66ad1e74bfb52f9246490600090a250565b6035546001600160a01b031633146112a85760405162461bcd60e51b8152600401610a21906126fb565b6050805460ff191690556040517ff6b2b9c63998bbfbe0a548dce3fa97702cb864dbfbdb42d4bcdb6f58c4209c3490600090a1565b603354604051632474521560e21b8152600080516020612821833981519152916001600160a01b0316906391d148549061131d9084903390600401612681565b602060405180830381865afa15801561133a573d6000803e3d6000fd5b505050506040513d601f19601f8201168201806040525081019061135e9190612698565b61137a5760405162461bcd60e51b8152600401610a21906126b5565b603e80546001600160a01b0319166001600160a01b0384169081179091556041546040519091907faa735ef3e20d6d58610022edb69ae0e7e8aaa0084dc5699a0b36a5683bc7a7c790600090a35050565b603354604051632474521560e21b8152600080516020612821833981519152916001600160a01b0316906391d148549061140b9084903390600401612681565b602060405180830381865afa158015611428573d6000803e3d6000fd5b505050506040513d601f19601f8201168201806040525081019061144c9190612698565b6114685760405162461bcd60e51b8152600401610a21906126b5565b604582905560405182907f1177d9c2a77eb9dd45c02329c8e4924e44101d64dabf8024543b0ce26e622f3690600090a25050565b60545460ff16151560011461150a5760405162461bcd60e51b815260206004820152602e60248201527f4d6f727068657253746174653a2043616e206f6e6c792062652063616c6c656460448201526d1037b71036b0b4b731b430b4b71760911b6064820152608401610a21565b6201518060425461151b9190612797565b42111561167e5760006305f5e100604154603b60009054906101000a90046001600160a01b03166001600160a01b03166318160ddd6040518163ffffffff1660e01b8152600401602060405180830381865afa15801561157f573d6000803e3d6000fd5b505050506040513d601f19601f820116820180604052508101906115a391906127af565b6115ad91906127c8565b6115b791906127e7565b90506115d2620151806042546115cd9190612797565b6124f8565b603b54603e546040516340c10f1960e01b81526001600160a01b039182166004820152602481018490529116906340c10f1990604401600060405180830381600087803b15801561162257600080fd5b505af1158015611636573d6000803e3d6000fd5b5050603e546040518481526001600160a01b0390911692507f38fec7f72e65a01ab4170fddd9ed4438b1b378e84bef08292112fb619abfc9a2915060200160405180910390a2505b565b603354604051632474521560e21b8152600080516020612841833981519152916001600160a01b0316906391d14854906116c09084903390600401612681565b602060405180830381865afa1580156116dd573d6000803e3d6000fd5b505050506040513d601f19601f820116820180604052508101906117019190612698565b61171d5760405162461bcd60e51b8152600401610a21906126b5565b603a546040517fe42fe56fe8570b6afa53fb486f69a7b4039429bfed524bab39f5e40c3c30cf069161175c916001600160a01b0390911690859061277d565b60405180910390a150603a80546001600160a01b0319166001600160a01b0392909216919091179055565b6040516bffffffffffffffffffffffff19606084901b1660208201526034810182905260009060540160405160208183030381529060405280519060200120905092915050565b603354604051632474521560e21b8152600080516020612841833981519152916001600160a01b0316906391d148549061180e9084903390600401612681565b602060405180830381865afa15801561182b573d6000803e3d6000fd5b505050506040513d601f19601f8201168201806040525081019061184f9190612698565b61186b5760405162461bcd60e51b8152600401610a21906126b5565b603d546040517f95269a6783e0a6580818e738f41864edc9da93b2b7dd3821b4e54ebf76cb3da2916118aa916001600160a01b0390911690859061277d565b60405180910390a150603d80546001600160a01b0319166001600160a01b0392909216919091179055565b6035546001600160a01b031633146118ff5760405162461bcd60e51b8152600401610a21906126fb565b6000604c8190556040517fcada5cc63a6cd5770ca818284aa0ee429013dfd689c4f9587022943b408a09b19190a1565b603354604051632474521560e21b8152600080516020612841833981519152916001600160a01b0316906391d148549061196f9084903390600401612681565b602060405180830381865afa15801561198c573d6000803e3d6000fd5b505050506040513d601f19601f820116820180604052508101906119b09190612698565b6119cc5760405162461bcd60e51b8152600401610a21906126b5565b6039546040517fc9a71a70f53329a4d37f06a753cb4867fc10a37bb83532a0194ae1ef438611f791611a0b916001600160a01b0390911690859061277d565b60405180910390a150603980546001600160a01b0319166001600160a01b0392909216919091179055565b6035546001600160a01b03163314611a605760405162461bcd60e51b8152600401610a21906126fb565b80604c541115611a805780604c54611a789190612809565b604c55611a86565b6000604c555b42604b819055604c546040517fa11a2bc3cadf4e1be663d8cd5705d0e1dfab645a6d258fa97b350610640d30a092611ac5928252602082015260400190565b60405180910390a150565b603354604051632474521560e21b8152600080516020612841833981519152916001600160a01b0316906391d1485490611b109084903390600401612681565b602060405180830381865afa158015611b2d573d6000803e3d6000fd5b505050506040513d601f19601f82011682018060405250810190611b519190612698565b611b6d5760405162461bcd60e51b8152600401610a21906126b5565b600082815260466020526040808220805460ff191660011790555183917f52ebf9d662e8bc70841a5b603c1711882a8e4b11a663af6b5709286fe7bd964591a25050565b6035546001600160a01b03163314611bdb5760405162461bcd60e51b8152600401610a21906126fb565b604e8190556040518181527faf1ea5ac33bf092763f62a127ef50006ae56eef9cc122568bea97c7308d1737690602001611ac5565b6035546001600160a01b03163314611c3a5760405162461bcd60e51b8152600401610a21906126fb565b6000908152604a60205260409020805460ff19166001179055565b603354604051632474521560e21b8152600080516020612841833981519152916001600160a01b0316906391d1485490611c959084903390600401612681565b602060405180830381865afa158015611cb2573d6000803e3d6000fd5b505050506040513d601f19601f82011682018060405250810190611cd69190612698565b611cf25760405162461bcd60e51b8152600401610a21906126b5565b6035546040517f0143e43add49c04d6583ba258761acbb5ff6c4e04fe756828b55b6da764a27cb91611d31916001600160a01b0390911690859061277d565b60405180910390a150603580546001600160a01b0319166001600160a01b0392909216919091179055565b6035546001600160a01b03163314611d865760405162461bcd60e51b8152600401610a21906126fb565b80604c54611d949190612797565b604c819055604b546040517fa11a2bc3cadf4e1be663d8cd5705d0e1dfab645a6d258fa97b350610640d30a092611ac592908252602082015260400190565b603354604051632474521560e21b8152600080516020612841833981519152916001600160a01b0316906391d1485490611e139084903390600401612681565b602060405180830381865afa158015611e30573d6000803e3d6000fd5b505050506040513d601f19601f82011682018060405250810190611e549190612698565b611e705760405162461bcd60e51b8152600401610a21906126b5565b6305f5e1008211611ed35760405162461bcd60e51b815260206004820152602760248201527f4d6f727068657253746174653a204c6576657261676520707265636973696f6e604482015266040d2e64062ca760cb1b6064820152608401610a21565b6040828155518281527f258a1584bca0aad852538c9d396233520174feedba906a03d19b307d3bad5f3090602001610f42565b603354604051632474521560e21b8152600080516020612841833981519152916001600160a01b0316906391d1485490611f469084903390600401612681565b602060405180830381865afa158015611f63573d6000803e3d6000fd5b505050506040513d601f19601f82011682018060405250810190611f879190612698565b611fa35760405162461bcd60e51b8152600401610a21906126b5565b603b546040517fb79492f43466f55538db548bd2b1ce60c376f9541c7b0db11799828061d7a5f691611fe2916001600160a01b0390911690859061277d565b60405180910390a150603b80546001600160a01b0319166001600160a01b0392909216919091179055565b603354604051632474521560e21b8152600080516020612841833981519152916001600160a01b0316906391d148549061204d9084903390600401612681565b602060405180830381865afa15801561206a573d6000803e3d6000fd5b505050506040513d601f19601f8201168201806040525081019061208e9190612698565b6120aa5760405162461bcd60e51b8152600401610a21906126b5565b6038546040517f0128d789e17bfd1c3c0876d54f4667a81cb93280e8251bfc6dd7fcb6fa6063ef916120e9916001600160a01b0390911690859061277d565b60405180910390a150603880546001600160a01b0319166001600160a01b0392909216919091179055565b600054610100900460ff1661212f5760005460ff1615612133565b303b155b6121965760405162461bcd60e51b815260206004820152602e60248201527f496e697469616c697a61626c653a20636f6e747261637420697320616c72656160448201526d191e481a5b9a5d1a585b1a5e995960921b6064820152608401610a21565b600054610100900460ff161580156121b8576000805461ffff19166101011790555b6121c061252b565b603380546001600160a01b0319166001600160a01b0384161790556054805460ff19168615151790556121f2426124f8565b6121fb33610cdc565b60545460ff1661221e5761220f6000610984565b61221960006112dd565b612234565b61222b6305f5e100610984565b612234836112dd565b6050805460ff1916600117905561224a84610cdc565b6122596305f5e100600a6127c8565b6040556a108b2a2c280290940000006045556203f480604e558015612284576000805461ff00191690555b5050505050565b603354604051632474521560e21b8152600080516020612841833981519152916001600160a01b0316906391d14854906122cb9084903390600401612681565b602060405180830381865afa1580156122e8573d6000803e3d6000fd5b505050506040513d601f19601f8201168201806040525081019061230c9190612698565b6123285760405162461bcd60e51b8152600401610a21906126b5565b6033546040517f6a1edde11d2186fa21863eb6defd9c39b65ef651d33126a15ddd601186a7aaa291612367916001600160a01b0390911690859061277d565b60405180910390a150603380546001600160a01b0319166001600160a01b0392909216919091179055565b6035546001600160a01b031633146123bc5760405162461bcd60e51b8152600401610a21906126fb565b604d8190556040518181527f0969f79b044617688492c7c9b226129947037ca88c450002a7561ed78aa549ac90602001611ac5565b603354604051632474521560e21b8152600080516020612841833981519152916001600160a01b0316906391d14854906124319084903390600401612681565b602060405180830381865afa15801561244e573d6000803e3d6000fd5b505050506040513d601f19601f820116820180604052508101906124729190612698565b61248e5760405162461bcd60e51b8152600401610a21906126b5565b6034546040517fb51ac1f47ba9ff86631e80bbde5882438b4a51649022715da7635919b1d68158916124cd916001600160a01b0390911690859061277d565b60405180910390a150603480546001600160a01b0319166001600160a01b0392909216919091179055565b604281905560405181907fb11f7283fda904f54a0fc8af727d3bf56e40a6cbf7c8fbb177083f0a335152ed90600090a250565b600054610100900460ff1661167e5760405162461bcd60e51b815260206004820152602b60248201527f496e697469616c697a61626c653a20636f6e7472616374206973206e6f74206960448201526a6e697469616c697a696e6760a81b6064820152608401610a21565b6000602082840312156125a857600080fd5b5035919050565b6001600160a01b03811681146125c457600080fd5b50565b6000602082840312156125d957600080fd5b81356125e4816125af565b9392505050565b600080604083850312156125fe57600080fd5b8235612609816125af565b946020939093013593505050565b80151581146125c457600080fd5b6000806000806080858703121561263b57600080fd5b843561264681612617565b93506020850135612656816125af565b92506040850135612666816125af565b91506060850135612676816125af565b939692955090935050565b9182526001600160a01b0316602082015260400190565b6000602082840312156126aa57600080fd5b81516125e481612617565b60208082526026908201527f4d6f72706865725472616465456e67696e653a205065726d697373696f6e206460408201526532b734b2b21760d11b606082015260800190565b60208082526031908201527f4d6f727068657253746174653a2043616c6c6572206973206e6f742074686520604082015270213934b233b2971020b137b93a34b7339760791b606082015260800190565b634e487b7160e01b600052601160045260246000fd5b60006000198214156127765761277661274c565b5060010190565b6001600160a01b0392831681529116602082015260400190565b600082198211156127aa576127aa61274c565b500190565b6000602082840312156127c157600080fd5b5051919050565b60008160001904831182151516156127e2576127e261274c565b500290565b60008261280457634e487b7160e01b600052601260045260246000fd5b500490565b60008282101561281b5761281b61274c565b50039056fe71840dc4906352362b0cdaf79870196c8e42acafade72d5d5a6d59291253ceb1e5a0b4d50f56047f84728557fedbda92f956391bc9d5c762e8461996dd8e7ad7a26469706673582212209a7c8e5c65907555079d9e382499c57538e30ca05434d045d5330ca1fce33a7f64736f6c634300080b0033",
  "immutableReferences": {},
  "source": "//SPDX-License-Identifier: GPLv3\r\npragma solidity 0.8.11;\r\nimport \"@openzeppelin/contracts-upgradeable/proxy/utils/Initializable.sol\";\r\nimport \"@openzeppelin/contracts-upgradeable/utils/ContextUpgradeable.sol\";\r\nimport \"./MorpherToken.sol\";\r\n\r\n// ----------------------------------------------------------------------------------\r\n// Data and token balance storage of the Morpher platform\r\n// Writing access is only granted to platform contracts. The contract can be paused\r\n// by an elected platform administrator (see MorpherGovernance) to perform protocol updates.\r\n// ----------------------------------------------------------------------------------\r\n\r\ncontract MorpherState is Initializable, ContextUpgradeable  {\r\n\r\n    address public morpherAccessControlAddress;\r\n    address public morpherAirdropAddress;\r\n    address public morpherBridgeAddress;\r\n    address public morpherFaucetAddress;\r\n    address public morpherGovernanceAddress;\r\n    address public morpherMintingLimiterAddress;\r\n    address public morpherOracleAddress;\r\n    address payable public morpherStakingAddress;\r\n    address public morpherTokenAddress;\r\n    address public morpherTradeEngineAddress;\r\n    address public morpherUserBlockingAddress;\r\n\r\n    /**\r\n     * Roles known to State\r\n     */\r\n    bytes32 public constant ADMINISTRATOR_ROLE = keccak256(\"ADMINISTRATOR_ROLE\");\r\n    bytes32 public constant GOVERNANCE_ROLE = keccak256(\"GOVERNANCE_ROLE\");\r\n    bytes32 public constant PLATFORM_ROLE = keccak256(\"PLATFORM_ROLE\");\r\n \r\n\r\n    address public morpherRewards;\r\n    address public sideChainOperator;\r\n    uint256 public maximumLeverage; // Leverage precision is 1e8, maximum leverage set to 10 initially\r\n    uint256 public constant PRECISION = 10**8;\r\n    uint256 public constant DECIMALS = 18;\r\n    uint256 public constant REWARDPERIOD = 1 days;\r\n\r\n    uint256 public rewardBasisPoints;\r\n    uint256 public lastRewardTime;\r\n\r\n    bytes32 public sideChainMerkleRoot;\r\n    uint256 public sideChainMerkleRootWrittenAtTime;\r\n\r\n    // Set initial withdraw limit from sidechain to 20m token or 2% of initial supply\r\n    uint256 public mainChainWithdrawLimit24;\r\n\r\n    mapping(bytes32 => bool) private marketActive;\r\n\r\n   \r\n\r\n    // ----------------------------------------------------------------------------\r\n    // Bridge Variables\r\n    // ----------------------------------------------------------------------------\r\n    mapping (address => uint256) private tokenClaimedOnThisChain;\r\n    mapping (address => uint256) private tokenSentToLinkedChain;\r\n    mapping (address => uint256) private tokenSentToLinkedChainTime;\r\n    mapping (bytes32 => bool) private positionClaimedOnMainChain;\r\n\r\n    uint256 public lastWithdrawLimitReductionTime;\r\n    uint256 public last24HoursAmountWithdrawn;\r\n    uint256 public withdrawLimit24Hours;\r\n    uint256 public inactivityPeriod;\r\n    uint256 public transferNonce;\r\n    bool public fastTransfersEnabled;\r\n\r\n    // ----------------------------------------------------------------------------\r\n    // Sidechain spam protection\r\n    // ----------------------------------------------------------------------------\r\n\r\n    mapping(address => uint256) private lastRequestBlock;\r\n    mapping(address => uint256) private numberOfRequests;\r\n    uint256 public numberOfRequestsLimit;\r\n\r\n    // ----------------------------------------------------------------------------\r\n    // Events\r\n    // ----------------------------------------------------------------------------\r\n    event OperatingRewardMinted(address indexed recipient, uint256 amount);\r\n\r\n    event RewardsChange(address indexed rewardsAddress, uint256 indexed rewardsBasisPoints);\r\n    event LastRewardTime(uint256 indexed rewardsTime);\r\n    event GovernanceChange(address indexed governanceAddress);\r\n    event TokenChange(address indexed tokenAddress);\r\n   \r\n    event MaximumLeverageChange(uint256 maxLeverage);\r\n    event MarketActivated(bytes32 indexed activateMarket);\r\n    event MarketDeActivated(bytes32 indexed deActivateMarket);\r\n    event BridgeChange(address _bridgeAddress);\r\n    event SideChainMerkleRootUpdate(bytes32 indexed sideChainMerkleRoot);\r\n    event NewSideChainOperator(address indexed sideChainOperator);\r\n    event NumberOfRequestsLimitUpdate(uint256 _numberOfRequests);\r\n\r\n    event MainChainWithdrawLimitUpdate(uint256 indexed mainChainWithdrawLimit24);\r\n    event TokenSentToLinkedChain(address _address, uint256 _token, uint256 _totalTokenSent, bytes32 indexed _tokenSentToLinkedChainHash);\r\n    event TransferredTokenClaimed(address _address, uint256 _token);\r\n    event LastWithdrawAt();\r\n    event RollingWithdrawnAmountUpdated(uint256 _last24HoursAmountWithdrawn, uint256 _lastWithdrawLimitReductionTime);\r\n    event WithdrawLimitUpdated(uint256 _amount);\r\n    event InactivityPeriodUpdated(uint256 _periodLength);\r\n    event FastWithdrawsDisabled();\r\n    event NewBridgeNonce(uint256 _transferNonce);\r\n    event Last24HoursAmountWithdrawnReset();\r\n\r\n    event StatePaused(address administrator, bool _paused);\r\n\r\n    event SetAllowance(address indexed sender, address indexed spender, uint256 tokens);\r\n    \r\n    event SetBalance(address indexed account, uint256 balance, bytes32 indexed balanceHash);\r\n    event TokenTransferredToOtherChain(address indexed account, uint256 tokenTransferredToOtherChain, bytes32 indexed transferHash);\r\n\r\n    // modifier onlyPlatform {\r\n    //     require(stateAccess[msg.sender] == true, \"MorpherState: Only Platform is allowed to execute operation.\");\r\n    //     _;\r\n    // }\r\n\r\n    modifier onlyRole(bytes32 role) {\r\n        require(MorpherAccessControl(morpherAccessControlAddress).hasRole(role, _msgSender()), \"MorpherTradeEngine: Permission denied.\");\r\n        _;\r\n    }\r\n\r\n    // modifier onlyGovernance {\r\n    //     require(msg.sender == getGovernance(), \"MorpherState: Calling contract not the Governance Contract. Aborting.\");\r\n    //     _;\r\n    // }\r\n\r\n\r\n    // // modifier canTransfer {\r\n    // //     require(getCanTransfer(msg.sender), \"MorpherState: Caller may not transfer token. Aborting.\");\r\n    // //     _;\r\n    // // }\r\n\r\n    modifier onlyBridge {\r\n        require(msg.sender == morpherBridgeAddress, \"MorpherState: Caller is not the Bridge. Aborting.\");\r\n        _;\r\n    }\r\n\r\n    modifier onlyMainChain {\r\n        require(mainChain == true, \"MorpherState: Can only be called on mainchain.\");\r\n        _;\r\n    }\r\n\r\n    // modifier onlySideChain {\r\n    //     require(mainChain == false, \"MorpherState: Can only be called on mainchain.\");\r\n    //     _;\r\n    // }\r\n\r\n    bool mainChain;\r\n\r\n    function initialize(bool _mainChain, address _sideChainOperator, address _morpherTreasury, address _morpherAccessControlAddress) public initializer {\r\n        ContextUpgradeable.__Context_init();\r\n        \r\n        morpherAccessControlAddress = _morpherAccessControlAddress;\r\n        mainChain = _mainChain;\r\n        \r\n        setLastRewardTime(block.timestamp);\r\n       \r\n        setSideChainOperator(_msgSender());\r\n        if (mainChain == false) { // Create token only on sidechain\r\n            setRewardBasisPoints(0); // Reward is minted on mainchain\r\n            setRewardAddress(address(0));\r\n        } else {\r\n            setRewardBasisPoints(PRECISION); // 15000 / PRECISION = 0.00015\r\n            setRewardAddress(_morpherTreasury);\r\n        }\r\n        fastTransfersEnabled = true;\r\n        //setMainChainWithdrawLimit(totalSupply / 50); @todo: transfer to Token\r\n        setSideChainOperator(_sideChainOperator);\r\n\r\n        maximumLeverage = 10*PRECISION; // Leverage precision is 1e8, maximum leverage set to 10 initially\r\n        mainChainWithdrawLimit24 = 2 * 10**25;   \r\n        inactivityPeriod = 3 days;\r\n    }\r\n\r\n    // ----------------------------------------------------------------------------\r\n    // Setter/Getter functions for market wise exposure\r\n    // ----------------------------------------------------------------------------\r\n\r\n    // ----------------------------------------------------------------------------\r\n    // Setter/Getter functions for bridge variables\r\n    // ----------------------------------------------------------------------------\r\n    function setTokenClaimedOnThisChain(address _address, uint256 _token) public onlyBridge {\r\n        tokenClaimedOnThisChain[_address] = _token;\r\n        emit TransferredTokenClaimed(_address, _token);\r\n    }\r\n\r\n    function getTokenClaimedOnThisChain(address _address) public view returns (uint256 _token) {\r\n        return tokenClaimedOnThisChain[_address];\r\n    }\r\n\r\n    function setTokenSentToLinkedChain(address _address, uint256 _token) public onlyBridge {\r\n        tokenSentToLinkedChain[_address] = _token;\r\n        tokenSentToLinkedChainTime[_address] = block.timestamp;\r\n        emit TokenSentToLinkedChain(_address, _token, tokenSentToLinkedChain[_address], getBalanceHash(_address, tokenSentToLinkedChain[_address]));\r\n    }\r\n\r\n    function getTokenSentToLinkedChain(address _address) public view returns (uint256 _token) {\r\n        return tokenSentToLinkedChain[_address];\r\n    }\r\n\r\n    function getTokenSentToLinkedChainTime(address _address) public view returns (uint256 _timeStamp) {\r\n        return tokenSentToLinkedChainTime[_address];\r\n    }\r\n\r\n    function add24HoursWithdrawn(uint256 _amount) public onlyBridge {\r\n        last24HoursAmountWithdrawn = last24HoursAmountWithdrawn + (_amount);\r\n        emit RollingWithdrawnAmountUpdated(last24HoursAmountWithdrawn, lastWithdrawLimitReductionTime);\r\n    }\r\n\r\n    function update24HoursWithdrawLimit(uint256 _amount) public onlyBridge {\r\n        if (last24HoursAmountWithdrawn > _amount) {\r\n            last24HoursAmountWithdrawn = last24HoursAmountWithdrawn - (_amount);\r\n        } else {\r\n            last24HoursAmountWithdrawn = 0;\r\n        }\r\n        lastWithdrawLimitReductionTime = block.timestamp;\r\n        emit RollingWithdrawnAmountUpdated(last24HoursAmountWithdrawn, lastWithdrawLimitReductionTime);\r\n    }\r\n\r\n    function set24HourWithdrawLimit(uint256 _limit) public onlyBridge {\r\n        withdrawLimit24Hours = _limit;\r\n        emit WithdrawLimitUpdated(_limit);\r\n    }\r\n\r\n    function resetLast24HoursAmountWithdrawn() public onlyBridge {\r\n        last24HoursAmountWithdrawn = 0;\r\n        emit Last24HoursAmountWithdrawnReset();\r\n    }\r\n\r\n    function setInactivityPeriod(uint256 _periodLength) public onlyBridge {\r\n        inactivityPeriod = _periodLength;\r\n        emit InactivityPeriodUpdated(_periodLength);\r\n    }\r\n\r\n    function getBridgeNonce() public onlyBridge returns (uint256 _nonce) {\r\n        transferNonce++;\r\n        emit NewBridgeNonce(transferNonce);\r\n        return transferNonce;\r\n    }\r\n\r\n    function disableFastWithdraws() public onlyBridge {\r\n        fastTransfersEnabled = false;\r\n        emit FastWithdrawsDisabled();\r\n    }\r\n\r\n    function setPositionClaimedOnMainChain(bytes32 _positionHash) public onlyBridge {\r\n        positionClaimedOnMainChain[_positionHash] = true;\r\n    }\r\n\r\n    function getPositionClaimedOnMainChain(bytes32 _positionHash) public view returns (bool _alreadyClaimed) {\r\n        return positionClaimedOnMainChain[_positionHash];\r\n    }\r\n    \r\n    function getBalanceHash(address _address, uint256 _balance) public pure returns (bytes32 _hash) {\r\n        return keccak256(abi.encodePacked(_address, _balance));\r\n    }\r\n\r\n    // ----------------------------------------------------------------------------\r\n    // Setter/Getter functions for spam protection\r\n    // ----------------------------------------------------------------------------\r\n\r\n\r\n    function setMainChainWithdrawLimit(uint256 _mainChainWithdrawLimit24) public onlyRole(GOVERNANCE_ROLE)  {\r\n        mainChainWithdrawLimit24 = _mainChainWithdrawLimit24;\r\n        emit MainChainWithdrawLimitUpdate(_mainChainWithdrawLimit24);\r\n    }\r\n\r\n    function getMainChainWithdrawLimit() public view returns (uint256 _mainChainWithdrawLimit24) {\r\n        return mainChainWithdrawLimit24;\r\n    }\r\n\r\n    // ----------------------------------------------------------------------------\r\n    // Setter/Getter functions for platform roles\r\n    // ----------------------------------------------------------------------------\r\n\r\n    event SetMorpherAccessControlAddress(address _oldAddress, address _newAddress);\r\n    function setMorpherAccessControl(address _morpherAccessControlAddress) public onlyRole(ADMINISTRATOR_ROLE) {\r\n        emit SetMorpherAccessControlAddress(morpherAccessControlAddress, _morpherAccessControlAddress);\r\n        morpherAccessControlAddress = _morpherAccessControlAddress;\r\n    }\r\n\r\n    event SetMorpherAirdropAddress(address _oldAddress, address _newAddress);\r\n    function setMorpherAirdrop(address _morpherAirdropAddress) public onlyRole(ADMINISTRATOR_ROLE) {\r\n        emit SetMorpherAirdropAddress(morpherAirdropAddress, _morpherAirdropAddress);\r\n        morpherAirdropAddress = _morpherAirdropAddress;\r\n    }\r\n\r\n    event SetMorpherBridgeAddress(address _oldAddress, address _newAddress);\r\n    function setMorpherBridge(address _morpherBridgeAddress) public onlyRole(ADMINISTRATOR_ROLE) {\r\n        emit SetMorpherBridgeAddress(morpherBridgeAddress, _morpherBridgeAddress);\r\n        morpherBridgeAddress = _morpherBridgeAddress;\r\n    }\r\n\r\n    event SetMorpherFaucetAddress(address _oldAddress, address _newAddress);\r\n    function setMorpherFaucet(address _morpherFaucetAddress) public onlyRole(ADMINISTRATOR_ROLE) {\r\n        emit SetMorpherFaucetAddress(morpherFaucetAddress, _morpherFaucetAddress);\r\n        morpherFaucetAddress = _morpherFaucetAddress;\r\n    }\r\n\r\n    event SetMorpherGovernanceAddress(address _oldAddress, address _newAddress);\r\n    function setMorpherGovernance(address _morpherGovernanceAddress) public onlyRole(ADMINISTRATOR_ROLE) {\r\n        emit SetMorpherGovernanceAddress(morpherGovernanceAddress, _morpherGovernanceAddress);\r\n        morpherGovernanceAddress = _morpherGovernanceAddress;\r\n    }\r\n\r\n    event SetMorpherMintingLimiterAddress(address _oldAddress, address _newAddress);\r\n    function setMorpherMintingLimiter(address _morpherMintingLimiterAddress) public onlyRole(ADMINISTRATOR_ROLE) {\r\n        emit SetMorpherMintingLimiterAddress(morpherMintingLimiterAddress, _morpherMintingLimiterAddress);\r\n        morpherMintingLimiterAddress = _morpherMintingLimiterAddress;\r\n    }\r\n    event SetMorpherOracleAddress(address _oldAddress, address _newAddress);\r\n    function setMorpherOracle(address _morpherOracleAddress) public onlyRole(ADMINISTRATOR_ROLE) {\r\n        emit SetMorpherOracleAddress(morpherOracleAddress, _morpherOracleAddress);\r\n        morpherOracleAddress = _morpherOracleAddress;\r\n    }\r\n\r\n    event SetMorpherStakingAddress(address _oldAddress, address _newAddress);\r\n    function setMorpherStaking(address payable _morpherStakingAddress) public onlyRole(ADMINISTRATOR_ROLE) {\r\n        emit SetMorpherStakingAddress(morpherStakingAddress, _morpherStakingAddress);\r\n        morpherStakingAddress = _morpherStakingAddress;\r\n    }\r\n\r\n    event SetMorpherTokenAddress(address _oldAddress, address _newAddress);\r\n    function setMorpherToken(address _morpherTokenAddress) public onlyRole(ADMINISTRATOR_ROLE) {\r\n        emit SetMorpherTokenAddress(morpherTokenAddress, _morpherTokenAddress);\r\n        morpherTokenAddress = _morpherTokenAddress;\r\n    }\r\n\r\n    event SetMorpherTradeEngineAddress(address _oldAddress, address _newAddress);\r\n    function setMorpherTradeEngine(address _morpherTradeEngineAddress) public onlyRole(ADMINISTRATOR_ROLE) {\r\n        emit SetMorpherTradeEngineAddress(morpherTradeEngineAddress, _morpherTradeEngineAddress);\r\n        morpherTradeEngineAddress = _morpherTradeEngineAddress;\r\n    }\r\n\r\n    event SetMorpherUserBlockingAddress(address _oldAddress, address _newAddress);\r\n    function setMorpherUserBlocking(address _morpherUserBlockingAddress) public onlyRole(ADMINISTRATOR_ROLE) {\r\n        emit SetMorpherUserBlockingAddress(morpherUserBlockingAddress, _morpherUserBlockingAddress);\r\n        morpherUserBlockingAddress = _morpherUserBlockingAddress;\r\n    }\r\n\r\n    // ----------------------------------------------------------------------------\r\n    // Setter/Getter functions for platform operating rewards\r\n    // ----------------------------------------------------------------------------\r\n\r\n    function setRewardAddress(address _newRewardsAddress) public onlyRole(GOVERNANCE_ROLE) {\r\n        morpherRewards = _newRewardsAddress;\r\n        emit RewardsChange(_newRewardsAddress, rewardBasisPoints);\r\n    }\r\n\r\n    function setRewardBasisPoints(uint256 _newRewardBasisPoints) public onlyRole(GOVERNANCE_ROLE) {\r\n        if (mainChain == true) {\r\n            require(_newRewardBasisPoints <= 15000, \"MorpherState: Reward basis points need to be less or equal to 15000.\");\r\n        } else {\r\n            require(_newRewardBasisPoints == 0, \"MorpherState: Reward basis points can only be set on Ethereum.\");\r\n        }\r\n        rewardBasisPoints = _newRewardBasisPoints;\r\n        emit RewardsChange(morpherRewards, _newRewardBasisPoints);\r\n    }\r\n\r\n    function setLastRewardTime(uint256 _lastRewardTime) private {\r\n        lastRewardTime = _lastRewardTime;\r\n        emit LastRewardTime(_lastRewardTime);\r\n    }\r\n\r\n    // ----------------------------------------------------------------------------\r\n    // Setter/Getter functions for platform administration\r\n    // ----------------------------------------------------------------------------\r\n\r\n    function activateMarket(bytes32 _activateMarket) public onlyRole(ADMINISTRATOR_ROLE)  {\r\n        marketActive[_activateMarket] = true;\r\n        emit MarketActivated(_activateMarket);\r\n    }\r\n\r\n    function deActivateMarket(bytes32 _deActivateMarket) public onlyRole(ADMINISTRATOR_ROLE)  {\r\n        marketActive[_deActivateMarket] = false;\r\n        emit MarketDeActivated(_deActivateMarket);\r\n    }\r\n\r\n    function getMarketActive(bytes32 _marketId) public view returns(bool _active) {\r\n        return marketActive[_marketId];\r\n    }\r\n\r\n    function setMaximumLeverage(uint256 _newMaximumLeverage) public onlyRole(ADMINISTRATOR_ROLE)  {\r\n        require(_newMaximumLeverage > PRECISION, \"MorpherState: Leverage precision is 1e8\");\r\n        maximumLeverage = _newMaximumLeverage;\r\n        emit MaximumLeverageChange(_newMaximumLeverage);\r\n    }\r\n\r\n    function getMaximumLeverage() public view returns(uint256 _maxLeverage) {\r\n        return maximumLeverage;\r\n    }\r\n\r\n    // ----------------------------------------------------------------------------\r\n    // Setter/Getter for side chain state\r\n    // ----------------------------------------------------------------------------\r\n\r\n    function setSideChainMerkleRoot(bytes32 _sideChainMerkleRoot) public onlyBridge {\r\n        sideChainMerkleRoot = _sideChainMerkleRoot;\r\n        sideChainMerkleRootWrittenAtTime = block.timestamp;\r\n        payOperatingReward();\r\n        emit SideChainMerkleRootUpdate(_sideChainMerkleRoot);\r\n    }\r\n\r\n    function getSideChainMerkleRoot() public view returns(bytes32 _sideChainMerkleRoot) {\r\n        return sideChainMerkleRoot;\r\n    }\r\n\r\n    function setSideChainOperator(address _address) public onlyRole(ADMINISTRATOR_ROLE)  {\r\n        sideChainOperator = _address;\r\n        emit NewSideChainOperator(_address);\r\n    }\r\n\r\n    function getSideChainOperator() public view returns (address _address) {\r\n        return sideChainOperator;\r\n    }\r\n\r\n    function getSideChainMerkleRootWrittenAtTime() public view returns(uint256 _sideChainMerkleRoot) {\r\n        return sideChainMerkleRootWrittenAtTime;\r\n    }\r\n\r\n    // ----------------------------------------------------------------------------\r\n    // Setter/Getter functions for portfolio\r\n    // ----------------------------------------------------------------------------\r\n\r\n   \r\n    // ----------------------------------------------------------------------------\r\n    // Record positions by market by address. Needed for exposure aggregations\r\n    // and spits and dividends.\r\n    // ----------------------------------------------------------------------------\r\n    \r\n    // ----------------------------------------------------------------------------\r\n    // Calculate and send operating reward\r\n    // Every 24 hours the protocol mints rewardBasisPoints/(PRECISION) percent of the total\r\n    // supply as reward for the protocol operator. The amount can not exceed 0.015% per\r\n    // day.\r\n    // ----------------------------------------------------------------------------\r\n\r\n    function payOperatingReward() public onlyMainChain {\r\n        if (block.timestamp > lastRewardTime + (REWARDPERIOD)) {\r\n            uint256 _reward = MorpherToken(morpherTokenAddress).totalSupply() * (rewardBasisPoints) / (PRECISION);\r\n            setLastRewardTime(lastRewardTime + (REWARDPERIOD));\r\n            MorpherToken(morpherTokenAddress).mint(morpherRewards, _reward);\r\n            emit OperatingRewardMinted(morpherRewards, _reward);\r\n        }\r\n    }\r\n}\r\n",
  "sourcePath": "/home/thomas/MorpherProtocol/contracts/MorpherState.sol",
  "compiler": {
    "name": "solc",
    "version": "0.8.11+commit.d7f03943.Emscripten.clang"
  },
  "schemaVersion": "3.4.5",
  "updatedAt": "2022-03-15T09:28:17.928Z",
  "devdoc": {
    "kind": "dev",
    "methods": {},
    "version": 1
  },
  "userdoc": {
    "kind": "user",
    "methods": {
      "ADMINISTRATOR_ROLE()": {
        "notice": "Roles known to State"
      }
    },
    "version": 1
  }
}