{
  "contractName": "MorpherUserBlocking",
  "abi": [
    {
      "anonymous": false,
      "inputs": [
        {
          "indexed": false,
          "internalType": "address",
          "name": "_user",
          "type": "address"
        },
        {
          "indexed": false,
          "internalType": "bool",
          "name": "_oldIsBlocked",
          "type": "bool"
        },
        {
          "indexed": false,
          "internalType": "bool",
          "name": "_newIsBlocked",
          "type": "bool"
        }
      ],
      "name": "ChangeUserBlocked",
      "type": "event"
    },
    {
      "anonymous": false,
      "inputs": [
        {
          "indexed": false,
          "internalType": "address",
          "name": "_oldAddress",
          "type": "address"
        },
        {
          "indexed": false,
          "internalType": "address",
          "name": "_newAddress",
          "type": "address"
        }
      ],
      "name": "ChangedAddressAllowedToAddBlockedUsersAddress",
      "type": "event"
    },
    {
      "anonymous": false,
      "inputs": [
        {
          "indexed": false,
          "internalType": "uint8",
          "name": "version",
          "type": "uint8"
        }
      ],
      "name": "Initialized",
      "type": "event"
    },
    {
      "inputs": [],
      "name": "ADMINISTRATOR_ROLE",
      "outputs": [
        {
          "internalType": "bytes32",
          "name": "",
          "type": "bytes32"
        }
      ],
      "stateMutability": "view",
      "type": "function"
    },
    {
      "inputs": [],
      "name": "USERBLOCKINGADMIN_ROLE",
      "outputs": [
        {
          "internalType": "bytes32",
          "name": "",
          "type": "bytes32"
        }
      ],
      "stateMutability": "view",
      "type": "function"
    },
    {
      "inputs": [
        {
          "internalType": "address",
          "name": "",
          "type": "address"
        }
      ],
      "name": "userIsBlocked",
      "outputs": [
        {
          "internalType": "bool",
          "name": "",
          "type": "bool"
        }
      ],
      "stateMutability": "view",
      "type": "function"
    },
    {
      "inputs": [
        {
          "internalType": "address",
          "name": "_state",
          "type": "address"
        }
      ],
      "name": "initialize",
      "outputs": [],
      "stateMutability": "nonpayable",
      "type": "function"
    },
    {
      "inputs": [
        {
          "internalType": "address",
          "name": "_user",
          "type": "address"
        },
        {
          "internalType": "bool",
          "name": "_isBlocked",
          "type": "bool"
        }
      ],
      "name": "setUserBlocked",
      "outputs": [],
      "stateMutability": "nonpayable",
      "type": "function"
    }
  ],
  "bytecode": "0x608060405234801561001057600080fd5b5061067d806100206000396000f3fe608060405234801561001057600080fd5b50600436106100575760003560e01c80632a8203c91461005c5780632b7b85d014610071578063ac259ace146100ab578063c4d66de8146100de578063f45edb5f146100f1575b600080fd5b61006f61006a366004610562565b610118565b005b6100987fa73c102128934e8eaa2613b7bc1e9877200dc379bd41a3f6100be689fb00ec3481565b6040519081526020015b60405180910390f35b6100ce6100b936600461059b565b60016020526000908152604090205460ff1681565b60405190151581526020016100a2565b61006f6100ec36600461059b565b61042b565b6100987fe5a0b4d50f56047f84728557fedbda92f956391bc9d5c762e8461996dd8e7ad781565b600260009054906101000a90046001600160a01b03166001600160a01b03166328196ca06040518163ffffffff1660e01b8152600401602060405180830381865afa15801561016b573d6000803e3d6000fd5b505050506040513d601f19601f8201168201806040525081019061018f91906105bf565b604051632474521560e21b81527fe5a0b4d50f56047f84728557fedbda92f956391bc9d5c762e8461996dd8e7ad760048201523360248201526001600160a01b0391909116906391d1485490604401602060405180830381865afa1580156101fb573d6000803e3d6000fd5b505050506040513d601f19601f8201168201806040525081019061021f91906105dc565b8061032c5750600260009054906101000a90046001600160a01b03166001600160a01b03166328196ca06040518163ffffffff1660e01b8152600401602060405180830381865afa158015610278573d6000803e3d6000fd5b505050506040513d601f19601f8201168201806040525081019061029c91906105bf565b604051632474521560e21b81527fa73c102128934e8eaa2613b7bc1e9877200dc379bd41a3f6100be689fb00ec3460048201523360248201526001600160a01b0391909116906391d1485490604401602060405180830381865afa158015610308573d6000803e3d6000fd5b505050506040513d601f19601f8201168201806040525081019061032c91906105dc565b6103a35760405162461bcd60e51b815260206004820152603c60248201527f55736572426c6f636b696e673a204f6e6c792057686974652d4c69737465642060448201527f55736572732063616e2063616c6c20746869732066756e6374696f6e0000000060648201526084015b60405180910390fd5b6001600160a01b03821660008181526001602090815260409182902054825193845260ff1615159083015282151582820152517f60642ac3e5c326cc9df8f7a56bc66480fa777b33774874ac42651853d9f43f3b9181900360600190a16001600160a01b03919091166000908152600160205260409020805460ff1916911515919091179055565b600061043760016104b4565b9050801561044f576000805461ff0019166101001790555b600280546001600160a01b0319166001600160a01b03841617905580156104b0576000805461ff0019169055604051600181527f7f26b83ff96e1f2b6a682f133852f6798a09c465da95921460cefb38474024989060200160405180910390a15b5050565b60008054610100900460ff16156104fb578160ff1660011480156104d75750303b155b6104f35760405162461bcd60e51b815260040161039a906105f9565b506000919050565b60005460ff8084169116106105225760405162461bcd60e51b815260040161039a906105f9565b506000805460ff191660ff92909216919091179055600190565b6001600160a01b038116811461055157600080fd5b50565b801515811461055157600080fd5b6000806040838503121561057557600080fd5b82356105808161053c565b9150602083013561059081610554565b809150509250929050565b6000602082840312156105ad57600080fd5b81356105b88161053c565b9392505050565b6000602082840312156105d157600080fd5b81516105b88161053c565b6000602082840312156105ee57600080fd5b81516105b881610554565b6020808252602e908201527f496e697469616c697a61626c653a20636f6e747261637420697320616c72656160408201526d191e481a5b9a5d1a585b1a5e995960921b60608201526080019056fea264697066735822122074b79617a7137fecff9fb252dfb8be4c6f540c5bf2796f71acfce1d4b7d2219e64736f6c634300080b0033",
  "immutableReferences": {},
  "source": "//SPDX-License-Identifier: GPLv3\npragma solidity 0.8.11;\n\nimport \"@openzeppelin/contracts-upgradeable/proxy/utils/Initializable.sol\";\nimport \"./MorpherAccessControl.sol\";\nimport \"./MorpherState.sol\";\n\n\ncontract MorpherUserBlocking is Initializable {\n\n    mapping(address => bool) public userIsBlocked;\n    MorpherState state;\n\n    bytes32 public constant ADMINISTRATOR_ROLE = keccak256(\"ADMINISTRATOR_ROLE\");\n    bytes32 public constant USERBLOCKINGADMIN_ROLE = keccak256(\"USERBLOCKINGADMIN_ROLE\");\n\n    event ChangeUserBlocked(address _user, bool _oldIsBlocked, bool _newIsBlocked);\n    event ChangedAddressAllowedToAddBlockedUsersAddress(address _oldAddress, address _newAddress);\n\n    function initialize(address _state) public initializer {\n        state = MorpherState(_state);\n    }\n\n    modifier onlyAdministrator() {\n        require(MorpherAccessControl(state.morpherAccessControlAddress()).hasRole(ADMINISTRATOR_ROLE, msg.sender), \"UserBlocking: Only Administrator can call this function\");\n        _;\n    }\n\n    modifier onlyAllowedUsers() {\n        require(MorpherAccessControl(state.morpherAccessControlAddress()).hasRole(ADMINISTRATOR_ROLE, msg.sender) || MorpherAccessControl(state.morpherAccessControlAddress()).hasRole(USERBLOCKINGADMIN_ROLE, msg.sender), \"UserBlocking: Only White-Listed Users can call this function\");\n        _;\n    }\n\n    function setUserBlocked(address _user, bool _isBlocked) public onlyAllowedUsers {\n        emit ChangeUserBlocked(_user, userIsBlocked[_user], _isBlocked);\n        userIsBlocked[_user] = _isBlocked;\n    }\n}",
  "sourcePath": "/Users/thomas/Projects/Morpher/MorpherProtocol/contracts/MorpherUserBlocking.sol",
  "compiler": {
    "name": "solc",
    "version": "0.8.11+commit.d7f03943.Emscripten.clang"
  },
  "schemaVersion": "3.4.11",
  "updatedAt": "2023-07-28T07:56:02.334Z",
  "devdoc": {
    "kind": "dev",
    "methods": {},
    "version": 1
  },
  "userdoc": {
    "kind": "user",
    "methods": {},
    "version": 1
  }
}