{
  "contractName": "MorpherState",
  "abi": [
    {
      "anonymous": false,
      "inputs": [
        {
          "indexed": true,
          "internalType": "address",
          "name": "administratorAddress",
          "type": "address"
        }
      ],
      "name": "AdministratorChange",
      "type": "event"
    },
    {
      "anonymous": false,
      "inputs": [
        {
          "indexed": false,
          "internalType": "address",
          "name": "_bridgeAddress",
          "type": "address"
        }
      ],
      "name": "BridgeChange",
      "type": "event"
    },
    {
      "anonymous": false,
      "inputs": [
        {
          "indexed": true,
          "internalType": "address",
          "name": "recipient",
          "type": "address"
        },
        {
          "indexed": false,
          "internalType": "uint256",
          "name": "amount",
          "type": "uint256"
        },
        {
          "indexed": false,
          "internalType": "uint256",
          "name": "totalToken",
          "type": "uint256"
        }
      ],
      "name": "Burn",
      "type": "event"
    },
    {
      "anonymous": false,
      "inputs": [],
      "name": "FastWithdrawsDisabled",
      "type": "event"
    },
    {
      "anonymous": false,
      "inputs": [
        {
          "indexed": true,
          "internalType": "address",
          "name": "governanceAddress",
          "type": "address"
        }
      ],
      "name": "GovernanceChange",
      "type": "event"
    },
    {
      "anonymous": false,
      "inputs": [
        {
          "indexed": false,
          "internalType": "uint256",
          "name": "_periodLength",
          "type": "uint256"
        }
      ],
      "name": "InactivityPeriodUpdated",
      "type": "event"
    },
    {
      "anonymous": false,
      "inputs": [],
      "name": "Last24HoursAmountWithdrawnReset",
      "type": "event"
    },
    {
      "anonymous": false,
      "inputs": [
        {
          "indexed": true,
          "internalType": "uint256",
          "name": "rewardsTime",
          "type": "uint256"
        }
      ],
      "name": "LastRewardTime",
      "type": "event"
    },
    {
      "anonymous": false,
      "inputs": [],
      "name": "LastWithdrawAt",
      "type": "event"
    },
    {
      "anonymous": false,
      "inputs": [
        {
          "indexed": true,
          "internalType": "uint256",
          "name": "mainChainWithdrawLimit24",
          "type": "uint256"
        }
      ],
      "name": "MainChainWithdrawLimitUpdate",
      "type": "event"
    },
    {
      "anonymous": false,
      "inputs": [
        {
          "indexed": true,
          "internalType": "bytes32",
          "name": "activateMarket",
          "type": "bytes32"
        }
      ],
      "name": "MarketActivated",
      "type": "event"
    },
    {
      "anonymous": false,
      "inputs": [
        {
          "indexed": true,
          "internalType": "bytes32",
          "name": "deActivateMarket",
          "type": "bytes32"
        }
      ],
      "name": "MarketDeActivated",
      "type": "event"
    },
    {
      "anonymous": false,
      "inputs": [
        {
          "indexed": false,
          "internalType": "uint256",
          "name": "maxLeverage",
          "type": "uint256"
        }
      ],
      "name": "MaximumLeverageChange",
      "type": "event"
    },
    {
      "anonymous": false,
      "inputs": [
        {
          "indexed": true,
          "internalType": "address",
          "name": "recipient",
          "type": "address"
        },
        {
          "indexed": false,
          "internalType": "uint256",
          "name": "amount",
          "type": "uint256"
        },
        {
          "indexed": false,
          "internalType": "uint256",
          "name": "totalToken",
          "type": "uint256"
        }
      ],
      "name": "Mint",
      "type": "event"
    },
    {
      "anonymous": false,
      "inputs": [
        {
          "indexed": false,
          "internalType": "uint256",
          "name": "_transferNonce",
          "type": "uint256"
        }
      ],
      "name": "NewBridgeNonce",
      "type": "event"
    },
    {
      "anonymous": false,
      "inputs": [
        {
          "indexed": true,
          "internalType": "address",
          "name": "sideChainOperator",
          "type": "address"
        }
      ],
      "name": "NewSideChainOperator",
      "type": "event"
    },
    {
      "anonymous": false,
      "inputs": [
        {
          "indexed": false,
          "internalType": "uint256",
          "name": "newTotalOnOtherChain",
          "type": "uint256"
        }
      ],
      "name": "NewTotalInPositions",
      "type": "event"
    },
    {
      "anonymous": false,
      "inputs": [
        {
          "indexed": false,
          "internalType": "uint256",
          "name": "newTotalOnOtherChain",
          "type": "uint256"
        }
      ],
      "name": "NewTotalOnOtherChain",
      "type": "event"
    },
    {
      "anonymous": false,
      "inputs": [
        {
          "indexed": false,
          "internalType": "uint256",
          "name": "newTotalSupply",
          "type": "uint256"
        }
      ],
      "name": "NewTotalSupply",
      "type": "event"
    },
    {
      "anonymous": false,
      "inputs": [
        {
          "indexed": false,
          "internalType": "uint256",
          "name": "_numberOfRequests",
          "type": "uint256"
        }
      ],
      "name": "NumberOfRequestsLimitUpdate",
      "type": "event"
    },
    {
      "anonymous": false,
      "inputs": [
        {
          "indexed": true,
          "internalType": "address",
          "name": "recipient",
          "type": "address"
        },
        {
          "indexed": false,
          "internalType": "uint256",
          "name": "amount",
          "type": "uint256"
        }
      ],
      "name": "OperatingRewardMinted",
      "type": "event"
    },
    {
      "anonymous": false,
      "inputs": [
        {
          "indexed": true,
          "internalType": "address",
          "name": "oracleContract",
          "type": "address"
        }
      ],
      "name": "OracleChange",
      "type": "event"
    },
    {
      "anonymous": false,
      "inputs": [
        {
          "indexed": true,
          "internalType": "address",
          "name": "previousOwner",
          "type": "address"
        },
        {
          "indexed": true,
          "internalType": "address",
          "name": "newOwner",
          "type": "address"
        }
      ],
      "name": "OwnershipTransferred",
      "type": "event"
    },
    {
      "anonymous": false,
      "inputs": [
        {
          "indexed": true,
          "internalType": "address",
          "name": "rewardsAddress",
          "type": "address"
        },
        {
          "indexed": true,
          "internalType": "uint256",
          "name": "rewardsBasisPoints",
          "type": "uint256"
        }
      ],
      "name": "RewardsChange",
      "type": "event"
    },
    {
      "anonymous": false,
      "inputs": [
        {
          "indexed": false,
          "internalType": "uint256",
          "name": "_last24HoursAmountWithdrawn",
          "type": "uint256"
        },
        {
          "indexed": false,
          "internalType": "uint256",
          "name": "_lastWithdrawLimitReductionTime",
          "type": "uint256"
        }
      ],
      "name": "RollingWithdrawnAmountUpdated",
      "type": "event"
    },
    {
      "anonymous": false,
      "inputs": [
        {
          "indexed": true,
          "internalType": "address",
          "name": "sender",
          "type": "address"
        },
        {
          "indexed": true,
          "internalType": "address",
          "name": "spender",
          "type": "address"
        },
        {
          "indexed": false,
          "internalType": "uint256",
          "name": "tokens",
          "type": "uint256"
        }
      ],
      "name": "SetAllowance",
      "type": "event"
    },
    {
      "anonymous": false,
      "inputs": [
        {
          "indexed": true,
          "internalType": "address",
          "name": "account",
          "type": "address"
        },
        {
          "indexed": false,
          "internalType": "uint256",
          "name": "balance",
          "type": "uint256"
        },
        {
          "indexed": true,
          "internalType": "bytes32",
          "name": "balanceHash",
          "type": "bytes32"
        }
      ],
      "name": "SetBalance",
      "type": "event"
    },
    {
      "anonymous": false,
      "inputs": [
        {
          "indexed": true,
          "internalType": "bytes32",
          "name": "positionHash",
          "type": "bytes32"
        },
        {
          "indexed": true,
          "internalType": "address",
          "name": "sender",
          "type": "address"
        },
        {
          "indexed": true,
          "internalType": "bytes32",
          "name": "marketId",
          "type": "bytes32"
        },
        {
          "indexed": false,
          "internalType": "uint256",
          "name": "timeStamp",
          "type": "uint256"
        },
        {
          "indexed": false,
          "internalType": "uint256",
          "name": "longShares",
          "type": "uint256"
        },
        {
          "indexed": false,
          "internalType": "uint256",
          "name": "shortShares",
          "type": "uint256"
        },
        {
          "indexed": false,
          "internalType": "uint256",
          "name": "meanEntryPrice",
          "type": "uint256"
        },
        {
          "indexed": false,
          "internalType": "uint256",
          "name": "meanEntrySpread",
          "type": "uint256"
        },
        {
          "indexed": false,
          "internalType": "uint256",
          "name": "meanEntryLeverage",
          "type": "uint256"
        },
        {
          "indexed": false,
          "internalType": "uint256",
          "name": "liquidationPrice",
          "type": "uint256"
        }
      ],
      "name": "SetPosition",
      "type": "event"
    },
    {
      "anonymous": false,
      "inputs": [
        {
          "indexed": true,
          "internalType": "bytes32",
          "name": "sideChainMerkleRoot",
          "type": "bytes32"
        }
      ],
      "name": "SideChainMerkleRootUpdate",
      "type": "event"
    },
    {
      "anonymous": false,
      "inputs": [
        {
          "indexed": true,
          "internalType": "address",
          "name": "blackList",
          "type": "address"
        },
        {
          "indexed": true,
          "internalType": "uint256",
          "name": "blockNumber",
          "type": "uint256"
        }
      ],
      "name": "StateAccessDenied",
      "type": "event"
    },
    {
      "anonymous": false,
      "inputs": [
        {
          "indexed": true,
          "internalType": "address",
          "name": "whiteList",
          "type": "address"
        },
        {
          "indexed": true,
          "internalType": "uint256",
          "name": "blockNumber",
          "type": "uint256"
        }
      ],
      "name": "StateAccessGranted",
      "type": "event"
    },
    {
      "anonymous": false,
      "inputs": [
        {
          "indexed": false,
          "internalType": "address",
          "name": "administrator",
          "type": "address"
        },
        {
          "indexed": false,
          "internalType": "bool",
          "name": "_paused",
          "type": "bool"
        }
      ],
      "name": "StatePaused",
      "type": "event"
    },
    {
      "anonymous": false,
      "inputs": [
        {
          "indexed": true,
          "internalType": "address",
          "name": "tokenAddress",
          "type": "address"
        }
      ],
      "name": "TokenChange",
      "type": "event"
    },
    {
      "anonymous": false,
      "inputs": [
        {
          "indexed": false,
          "internalType": "address",
          "name": "_address",
          "type": "address"
        },
        {
          "indexed": false,
          "internalType": "uint256",
          "name": "_token",
          "type": "uint256"
        },
        {
          "indexed": false,
          "internalType": "uint256",
          "name": "_totalTokenSent",
          "type": "uint256"
        },
        {
          "indexed": true,
          "internalType": "bytes32",
          "name": "_tokenSentToLinkedChainHash",
          "type": "bytes32"
        }
      ],
      "name": "TokenSentToLinkedChain",
      "type": "event"
    },
    {
      "anonymous": false,
      "inputs": [
        {
          "indexed": true,
          "internalType": "address",
          "name": "account",
          "type": "address"
        },
        {
          "indexed": false,
          "internalType": "uint256",
          "name": "tokenTransferredToOtherChain",
          "type": "uint256"
        },
        {
          "indexed": true,
          "internalType": "bytes32",
          "name": "transferHash",
          "type": "bytes32"
        }
      ],
      "name": "TokenTransferredToOtherChain",
      "type": "event"
    },
    {
      "anonymous": false,
      "inputs": [
        {
          "indexed": true,
          "internalType": "address",
          "name": "sender",
          "type": "address"
        },
        {
          "indexed": true,
          "internalType": "address",
          "name": "recipient",
          "type": "address"
        },
        {
          "indexed": false,
          "internalType": "uint256",
          "name": "amount",
          "type": "uint256"
        }
      ],
      "name": "Transfer",
      "type": "event"
    },
    {
      "anonymous": false,
      "inputs": [
        {
          "indexed": false,
          "internalType": "address",
          "name": "_address",
          "type": "address"
        },
        {
          "indexed": false,
          "internalType": "uint256",
          "name": "_token",
          "type": "uint256"
        }
      ],
      "name": "TransferredTokenClaimed",
      "type": "event"
    },
    {
      "anonymous": false,
      "inputs": [
        {
          "indexed": true,
          "internalType": "address",
          "name": "blackList",
          "type": "address"
        }
      ],
      "name": "TransfersDisabled",
      "type": "event"
    },
    {
      "anonymous": false,
      "inputs": [
        {
          "indexed": true,
          "internalType": "address",
          "name": "whiteList",
          "type": "address"
        }
      ],
      "name": "TransfersEnabled",
      "type": "event"
    },
    {
      "anonymous": false,
      "inputs": [
        {
          "indexed": false,
          "internalType": "uint256",
          "name": "_amount",
          "type": "uint256"
        }
      ],
      "name": "WithdrawLimitUpdated",
      "type": "event"
    },
    {
      "inputs": [],
      "name": "DECIMALS",
      "outputs": [
        {
          "internalType": "uint256",
          "name": "",
          "type": "uint256"
        }
      ],
      "stateMutability": "view",
      "type": "function",
      "constant": true
    },
    {
      "inputs": [],
      "name": "PRECISION",
      "outputs": [
        {
          "internalType": "uint256",
          "name": "",
          "type": "uint256"
        }
      ],
      "stateMutability": "view",
      "type": "function",
      "constant": true
    },
    {
      "inputs": [],
      "name": "REWARDPERIOD",
      "outputs": [
        {
          "internalType": "uint256",
          "name": "",
          "type": "uint256"
        }
      ],
      "stateMutability": "view",
      "type": "function",
      "constant": true
    },
    {
      "inputs": [],
      "name": "administrator",
      "outputs": [
        {
          "internalType": "address",
          "name": "",
          "type": "address"
        }
      ],
      "stateMutability": "view",
      "type": "function",
      "constant": true
    },
    {
      "inputs": [],
      "name": "fastTransfersEnabled",
      "outputs": [
        {
          "internalType": "bool",
          "name": "",
          "type": "bool"
        }
      ],
      "stateMutability": "view",
      "type": "function",
      "constant": true
    },
    {
      "inputs": [],
      "name": "inactivityPeriod",
      "outputs": [
        {
          "internalType": "uint256",
          "name": "",
          "type": "uint256"
        }
      ],
      "stateMutability": "view",
      "type": "function",
      "constant": true
    },
    {
      "inputs": [],
      "name": "last24HoursAmountWithdrawn",
      "outputs": [
        {
          "internalType": "uint256",
          "name": "",
          "type": "uint256"
        }
      ],
      "stateMutability": "view",
      "type": "function",
      "constant": true
    },
    {
      "inputs": [],
      "name": "lastRewardTime",
      "outputs": [
        {
          "internalType": "uint256",
          "name": "",
          "type": "uint256"
        }
      ],
      "stateMutability": "view",
      "type": "function",
      "constant": true
    },
    {
      "inputs": [],
      "name": "lastWithdrawLimitReductionTime",
      "outputs": [
        {
          "internalType": "uint256",
          "name": "",
          "type": "uint256"
        }
      ],
      "stateMutability": "view",
      "type": "function",
      "constant": true
    },
    {
      "inputs": [],
      "name": "mainChain",
      "outputs": [
        {
          "internalType": "bool",
          "name": "",
          "type": "bool"
        }
      ],
      "stateMutability": "view",
      "type": "function",
      "constant": true
    },
    {
      "inputs": [],
      "name": "mainChainWithdrawLimit24",
      "outputs": [
        {
          "internalType": "uint256",
          "name": "",
          "type": "uint256"
        }
      ],
      "stateMutability": "view",
      "type": "function",
      "constant": true
    },
    {
      "inputs": [],
      "name": "maximumLeverage",
      "outputs": [
        {
          "internalType": "uint256",
          "name": "",
          "type": "uint256"
        }
      ],
      "stateMutability": "view",
      "type": "function",
      "constant": true
    },
    {
      "inputs": [],
      "name": "morpherBridge",
      "outputs": [
        {
          "internalType": "address",
          "name": "",
          "type": "address"
        }
      ],
      "stateMutability": "view",
      "type": "function",
      "constant": true
    },
    {
      "inputs": [],
      "name": "morpherGovernance",
      "outputs": [
        {
          "internalType": "address",
          "name": "",
          "type": "address"
        }
      ],
      "stateMutability": "view",
      "type": "function",
      "constant": true
    },
    {
      "inputs": [],
      "name": "morpherRewards",
      "outputs": [
        {
          "internalType": "address",
          "name": "",
          "type": "address"
        }
      ],
      "stateMutability": "view",
      "type": "function",
      "constant": true
    },
    {
      "inputs": [],
      "name": "morpherToken",
      "outputs": [
        {
          "internalType": "address payable",
          "name": "",
          "type": "address"
        }
      ],
      "stateMutability": "view",
      "type": "function",
      "constant": true
    },
    {
      "inputs": [],
      "name": "numberOfRequestsLimit",
      "outputs": [
        {
          "internalType": "uint256",
          "name": "",
          "type": "uint256"
        }
      ],
      "stateMutability": "view",
      "type": "function",
      "constant": true
    },
    {
      "inputs": [],
      "name": "oracleContract",
      "outputs": [
        {
          "internalType": "address",
          "name": "",
          "type": "address"
        }
      ],
      "stateMutability": "view",
      "type": "function",
      "constant": true
    },
    {
      "inputs": [],
      "name": "owner",
      "outputs": [
        {
          "internalType": "address",
          "name": "",
          "type": "address"
        }
      ],
      "stateMutability": "view",
      "type": "function",
      "constant": true
    },
    {
      "inputs": [],
      "name": "paused",
      "outputs": [
        {
          "internalType": "bool",
          "name": "",
          "type": "bool"
        }
      ],
      "stateMutability": "view",
      "type": "function",
      "constant": true
    },
    {
      "inputs": [],
      "name": "renounceOwnership",
      "outputs": [],
      "stateMutability": "nonpayable",
      "type": "function"
    },
    {
      "inputs": [],
      "name": "rewardBasisPoints",
      "outputs": [
        {
          "internalType": "uint256",
          "name": "",
          "type": "uint256"
        }
      ],
      "stateMutability": "view",
      "type": "function",
      "constant": true
    },
    {
      "inputs": [],
      "name": "sideChainMerkleRoot",
      "outputs": [
        {
          "internalType": "bytes32",
          "name": "",
          "type": "bytes32"
        }
      ],
      "stateMutability": "view",
      "type": "function",
      "constant": true
    },
    {
      "inputs": [],
      "name": "sideChainMerkleRootWrittenAtTime",
      "outputs": [
        {
          "internalType": "uint256",
          "name": "",
          "type": "uint256"
        }
      ],
      "stateMutability": "view",
      "type": "function",
      "constant": true
    },
    {
      "inputs": [],
      "name": "sideChainOperator",
      "outputs": [
        {
          "internalType": "address",
          "name": "",
          "type": "address"
        }
      ],
      "stateMutability": "view",
      "type": "function",
      "constant": true
    },
    {
      "inputs": [],
      "name": "totalInPositions",
      "outputs": [
        {
          "internalType": "uint256",
          "name": "",
          "type": "uint256"
        }
      ],
      "stateMutability": "view",
      "type": "function",
      "constant": true
    },
    {
      "inputs": [],
      "name": "totalOnOtherChain",
      "outputs": [
        {
          "internalType": "uint256",
          "name": "",
          "type": "uint256"
        }
      ],
      "stateMutability": "view",
      "type": "function",
      "constant": true
    },
    {
      "inputs": [],
      "name": "totalSupply",
      "outputs": [
        {
          "internalType": "uint256",
          "name": "",
          "type": "uint256"
        }
      ],
      "stateMutability": "view",
      "type": "function",
      "constant": true
    },
    {
      "inputs": [],
      "name": "totalToken",
      "outputs": [
        {
          "internalType": "uint256",
          "name": "",
          "type": "uint256"
        }
      ],
      "stateMutability": "view",
      "type": "function",
      "constant": true
    },
    {
      "inputs": [],
      "name": "transferNonce",
      "outputs": [
        {
          "internalType": "uint256",
          "name": "",
          "type": "uint256"
        }
      ],
      "stateMutability": "view",
      "type": "function",
      "constant": true
    },
    {
      "inputs": [
        {
          "internalType": "address",
          "name": "newOwner",
          "type": "address"
        }
      ],
      "name": "transferOwnership",
      "outputs": [],
      "stateMutability": "nonpayable",
      "type": "function"
    },
    {
      "inputs": [],
      "name": "withdrawLimit24Hours",
      "outputs": [
        {
          "internalType": "uint256",
          "name": "",
          "type": "uint256"
        }
      ],
      "stateMutability": "view",
      "type": "function",
      "constant": true
    },
    {
      "inputs": [
        {
          "internalType": "bool",
          "name": "_mainChain",
          "type": "bool"
        },
        {
          "internalType": "address",
          "name": "_sideChainOperator",
          "type": "address"
        },
        {
          "internalType": "address",
          "name": "_morpherTreasury",
          "type": "address"
        }
      ],
      "name": "initialize",
      "outputs": [],
      "stateMutability": "nonpayable",
      "type": "function"
    },
    {
      "inputs": [],
      "name": "someNewFunction",
      "outputs": [
        {
          "internalType": "string",
          "name": "",
          "type": "string"
        }
      ],
      "stateMutability": "view",
      "type": "function",
      "constant": true
    },
    {
      "inputs": [
        {
          "internalType": "bytes32",
          "name": "_marketId",
          "type": "bytes32"
        }
      ],
      "name": "getMaxMappingIndex",
      "outputs": [
        {
          "internalType": "uint256",
          "name": "_maxMappingIndex",
          "type": "uint256"
        }
      ],
      "stateMutability": "view",
      "type": "function",
      "constant": true
    },
    {
      "inputs": [
        {
          "internalType": "bytes32",
          "name": "_marketId",
          "type": "bytes32"
        },
        {
          "internalType": "address",
          "name": "_address",
          "type": "address"
        }
      ],
      "name": "getExposureMappingIndex",
      "outputs": [
        {
          "internalType": "uint256",
          "name": "_mappingIndex",
          "type": "uint256"
        }
      ],
      "stateMutability": "view",
      "type": "function",
      "constant": true
    },
    {
      "inputs": [
        {
          "internalType": "bytes32",
          "name": "_marketId",
          "type": "bytes32"
        },
        {
          "internalType": "uint256",
          "name": "_mappingIndex",
          "type": "uint256"
        }
      ],
      "name": "getExposureMappingAddress",
      "outputs": [
        {
          "internalType": "address",
          "name": "_address",
          "type": "address"
        }
      ],
      "stateMutability": "view",
      "type": "function",
      "constant": true
    },
    {
      "inputs": [
        {
          "internalType": "bytes32",
          "name": "_marketId",
          "type": "bytes32"
        },
        {
          "internalType": "uint256",
          "name": "_maxMappingIndex",
          "type": "uint256"
        }
      ],
      "name": "setMaxMappingIndex",
      "outputs": [],
      "stateMutability": "nonpayable",
      "type": "function"
    },
    {
      "inputs": [
        {
          "internalType": "bytes32",
          "name": "_marketId",
          "type": "bytes32"
        },
        {
          "internalType": "address",
          "name": "_address",
          "type": "address"
        },
        {
          "internalType": "uint256",
          "name": "_index",
          "type": "uint256"
        }
      ],
      "name": "setExposureMapping",
      "outputs": [],
      "stateMutability": "nonpayable",
      "type": "function"
    },
    {
      "inputs": [
        {
          "internalType": "bytes32",
          "name": "_marketId",
          "type": "bytes32"
        },
        {
          "internalType": "address",
          "name": "_address",
          "type": "address"
        },
        {
          "internalType": "uint256",
          "name": "_index",
          "type": "uint256"
        }
      ],
      "name": "setExposureMappingIndex",
      "outputs": [],
      "stateMutability": "nonpayable",
      "type": "function"
    },
    {
      "inputs": [
        {
          "internalType": "bytes32",
          "name": "_marketId",
          "type": "bytes32"
        },
        {
          "internalType": "address",
          "name": "_address",
          "type": "address"
        },
        {
          "internalType": "uint256",
          "name": "_index",
          "type": "uint256"
        }
      ],
      "name": "setExposureMappingAddress",
      "outputs": [],
      "stateMutability": "nonpayable",
      "type": "function"
    },
    {
      "inputs": [
        {
          "internalType": "address",
          "name": "_address",
          "type": "address"
        },
        {
          "internalType": "uint256",
          "name": "_token",
          "type": "uint256"
        }
      ],
      "name": "setTokenClaimedOnThisChain",
      "outputs": [],
      "stateMutability": "nonpayable",
      "type": "function"
    },
    {
      "inputs": [
        {
          "internalType": "address",
          "name": "_address",
          "type": "address"
        }
      ],
      "name": "getTokenClaimedOnThisChain",
      "outputs": [
        {
          "internalType": "uint256",
          "name": "_token",
          "type": "uint256"
        }
      ],
      "stateMutability": "view",
      "type": "function",
      "constant": true
    },
    {
      "inputs": [
        {
          "internalType": "address",
          "name": "_address",
          "type": "address"
        },
        {
          "internalType": "uint256",
          "name": "_token",
          "type": "uint256"
        }
      ],
      "name": "setTokenSentToLinkedChain",
      "outputs": [],
      "stateMutability": "nonpayable",
      "type": "function"
    },
    {
      "inputs": [
        {
          "internalType": "address",
          "name": "_address",
          "type": "address"
        }
      ],
      "name": "getTokenSentToLinkedChain",
      "outputs": [
        {
          "internalType": "uint256",
          "name": "_token",
          "type": "uint256"
        }
      ],
      "stateMutability": "view",
      "type": "function",
      "constant": true
    },
    {
      "inputs": [
        {
          "internalType": "address",
          "name": "_address",
          "type": "address"
        }
      ],
      "name": "getTokenSentToLinkedChainTime",
      "outputs": [
        {
          "internalType": "uint256",
          "name": "_timeStamp",
          "type": "uint256"
        }
      ],
      "stateMutability": "view",
      "type": "function",
      "constant": true
    },
    {
      "inputs": [
        {
          "internalType": "uint256",
          "name": "_amount",
          "type": "uint256"
        }
      ],
      "name": "add24HoursWithdrawn",
      "outputs": [],
      "stateMutability": "nonpayable",
      "type": "function"
    },
    {
      "inputs": [
        {
          "internalType": "uint256",
          "name": "_amount",
          "type": "uint256"
        }
      ],
      "name": "update24HoursWithdrawLimit",
      "outputs": [],
      "stateMutability": "nonpayable",
      "type": "function"
    },
    {
      "inputs": [
        {
          "internalType": "uint256",
          "name": "_limit",
          "type": "uint256"
        }
      ],
      "name": "set24HourWithdrawLimit",
      "outputs": [],
      "stateMutability": "nonpayable",
      "type": "function"
    },
    {
      "inputs": [],
      "name": "resetLast24HoursAmountWithdrawn",
      "outputs": [],
      "stateMutability": "nonpayable",
      "type": "function"
    },
    {
      "inputs": [
        {
          "internalType": "uint256",
          "name": "_periodLength",
          "type": "uint256"
        }
      ],
      "name": "setInactivityPeriod",
      "outputs": [],
      "stateMutability": "nonpayable",
      "type": "function"
    },
    {
      "inputs": [],
      "name": "getBridgeNonce",
      "outputs": [
        {
          "internalType": "uint256",
          "name": "_nonce",
          "type": "uint256"
        }
      ],
      "stateMutability": "nonpayable",
      "type": "function"
    },
    {
      "inputs": [],
      "name": "disableFastWithdraws",
      "outputs": [],
      "stateMutability": "nonpayable",
      "type": "function"
    },
    {
      "inputs": [
        {
          "internalType": "bytes32",
          "name": "_positionHash",
          "type": "bytes32"
        }
      ],
      "name": "setPositionClaimedOnMainChain",
      "outputs": [],
      "stateMutability": "nonpayable",
      "type": "function"
    },
    {
      "inputs": [
        {
          "internalType": "bytes32",
          "name": "_positionHash",
          "type": "bytes32"
        }
      ],
      "name": "getPositionClaimedOnMainChain",
      "outputs": [
        {
          "internalType": "bool",
          "name": "_alreadyClaimed",
          "type": "bool"
        }
      ],
      "stateMutability": "view",
      "type": "function",
      "constant": true
    },
    {
      "inputs": [
        {
          "internalType": "address",
          "name": "_address",
          "type": "address"
        }
      ],
      "name": "setLastRequestBlock",
      "outputs": [],
      "stateMutability": "nonpayable",
      "type": "function"
    },
    {
      "inputs": [
        {
          "internalType": "address",
          "name": "_address",
          "type": "address"
        }
      ],
      "name": "getLastRequestBlock",
      "outputs": [
        {
          "internalType": "uint256",
          "name": "_lastRequestBlock",
          "type": "uint256"
        }
      ],
      "stateMutability": "view",
      "type": "function",
      "constant": true
    },
    {
      "inputs": [
        {
          "internalType": "address",
          "name": "_address",
          "type": "address"
        },
        {
          "internalType": "uint256",
          "name": "_numberOfRequests",
          "type": "uint256"
        }
      ],
      "name": "setNumberOfRequests",
      "outputs": [],
      "stateMutability": "nonpayable",
      "type": "function"
    },
    {
      "inputs": [
        {
          "internalType": "address",
          "name": "_address",
          "type": "address"
        }
      ],
      "name": "increaseNumberOfRequests",
      "outputs": [],
      "stateMutability": "nonpayable",
      "type": "function"
    },
    {
      "inputs": [
        {
          "internalType": "address",
          "name": "_address",
          "type": "address"
        }
      ],
      "name": "getNumberOfRequests",
      "outputs": [
        {
          "internalType": "uint256",
          "name": "_numberOfRequests",
          "type": "uint256"
        }
      ],
      "stateMutability": "view",
      "type": "function",
      "constant": true
    },
    {
      "inputs": [
        {
          "internalType": "uint256",
          "name": "_numberOfRequestsLimit",
          "type": "uint256"
        }
      ],
      "name": "setNumberOfRequestsLimit",
      "outputs": [],
      "stateMutability": "nonpayable",
      "type": "function"
    },
    {
      "inputs": [],
      "name": "getNumberOfRequestsLimit",
      "outputs": [
        {
          "internalType": "uint256",
          "name": "_numberOfRequestsLimit",
          "type": "uint256"
        }
      ],
      "stateMutability": "view",
      "type": "function",
      "constant": true
    },
    {
      "inputs": [
        {
          "internalType": "uint256",
          "name": "_mainChainWithdrawLimit24",
          "type": "uint256"
        }
      ],
      "name": "setMainChainWithdrawLimit",
      "outputs": [],
      "stateMutability": "nonpayable",
      "type": "function"
    },
    {
      "inputs": [],
      "name": "getMainChainWithdrawLimit",
      "outputs": [
        {
          "internalType": "uint256",
          "name": "_mainChainWithdrawLimit24",
          "type": "uint256"
        }
      ],
      "stateMutability": "view",
      "type": "function",
      "constant": true
    },
    {
      "inputs": [
        {
          "internalType": "address",
          "name": "_address",
          "type": "address"
        }
      ],
      "name": "grantAccess",
      "outputs": [],
      "stateMutability": "nonpayable",
      "type": "function"
    },
    {
      "inputs": [
        {
          "internalType": "address",
          "name": "_address",
          "type": "address"
        }
      ],
      "name": "denyAccess",
      "outputs": [],
      "stateMutability": "nonpayable",
      "type": "function"
    },
    {
      "inputs": [
        {
          "internalType": "address",
          "name": "_address",
          "type": "address"
        }
      ],
      "name": "getStateAccess",
      "outputs": [
        {
          "internalType": "bool",
          "name": "_hasAccess",
          "type": "bool"
        }
      ],
      "stateMutability": "view",
      "type": "function",
      "constant": true
    },
    {
      "inputs": [
        {
          "internalType": "address",
          "name": "_address",
          "type": "address"
        }
      ],
      "name": "enableTransfers",
      "outputs": [],
      "stateMutability": "nonpayable",
      "type": "function"
    },
    {
      "inputs": [
        {
          "internalType": "address",
          "name": "_address",
          "type": "address"
        }
      ],
      "name": "disableTransfers",
      "outputs": [],
      "stateMutability": "nonpayable",
      "type": "function"
    },
    {
      "inputs": [
        {
          "internalType": "address",
          "name": "_address",
          "type": "address"
        }
      ],
      "name": "getCanTransfer",
      "outputs": [
        {
          "internalType": "bool",
          "name": "_hasAccess",
          "type": "bool"
        }
      ],
      "stateMutability": "view",
      "type": "function",
      "constant": true
    },
    {
      "inputs": [
        {
          "internalType": "address",
          "name": "_from",
          "type": "address"
        },
        {
          "internalType": "address",
          "name": "_to",
          "type": "address"
        },
        {
          "internalType": "uint256",
          "name": "_token",
          "type": "uint256"
        }
      ],
      "name": "transfer",
      "outputs": [],
      "stateMutability": "nonpayable",
      "type": "function"
    },
    {
      "inputs": [
        {
          "internalType": "address",
          "name": "_address",
          "type": "address"
        },
        {
          "internalType": "uint256",
          "name": "_token",
          "type": "uint256"
        }
      ],
      "name": "mint",
      "outputs": [],
      "stateMutability": "nonpayable",
      "type": "function"
    },
    {
      "inputs": [
        {
          "internalType": "address",
          "name": "_address",
          "type": "address"
        },
        {
          "internalType": "uint256",
          "name": "_token",
          "type": "uint256"
        }
      ],
      "name": "burn",
      "outputs": [],
      "stateMutability": "nonpayable",
      "type": "function"
    },
    {
      "inputs": [
        {
          "internalType": "uint256",
          "name": "_totalInPositions",
          "type": "uint256"
        }
      ],
      "name": "setTotalInPositions",
      "outputs": [],
      "stateMutability": "nonpayable",
      "type": "function"
    },
    {
      "inputs": [
        {
          "internalType": "uint256",
          "name": "_newTotalOnOtherChain",
          "type": "uint256"
        }
      ],
      "name": "setTotalOnOtherChain",
      "outputs": [],
      "stateMutability": "nonpayable",
      "type": "function"
    },
    {
      "inputs": [
        {
          "internalType": "address",
          "name": "_tokenOwner",
          "type": "address"
        }
      ],
      "name": "balanceOf",
      "outputs": [
        {
          "internalType": "uint256",
          "name": "balance",
          "type": "uint256"
        }
      ],
      "stateMutability": "view",
      "type": "function",
      "constant": true
    },
    {
      "inputs": [
        {
          "internalType": "address",
          "name": "_from",
          "type": "address"
        },
        {
          "internalType": "address",
          "name": "_spender",
          "type": "address"
        },
        {
          "internalType": "uint256",
          "name": "_tokens",
          "type": "uint256"
        }
      ],
      "name": "setAllowance",
      "outputs": [],
      "stateMutability": "nonpayable",
      "type": "function"
    },
    {
      "inputs": [
        {
          "internalType": "address",
          "name": "_tokenOwner",
          "type": "address"
        },
        {
          "internalType": "address",
          "name": "spender",
          "type": "address"
        }
      ],
      "name": "getAllowance",
      "outputs": [
        {
          "internalType": "uint256",
          "name": "remaining",
          "type": "uint256"
        }
      ],
      "stateMutability": "view",
      "type": "function",
      "constant": true
    },
    {
      "inputs": [
        {
          "internalType": "address",
          "name": "_newGovernanceContractAddress",
          "type": "address"
        }
      ],
      "name": "setGovernanceContract",
      "outputs": [],
      "stateMutability": "nonpayable",
      "type": "function"
    },
    {
      "inputs": [],
      "name": "getGovernance",
      "outputs": [
        {
          "internalType": "address",
          "name": "_governanceContract",
          "type": "address"
        }
      ],
      "stateMutability": "view",
      "type": "function",
      "constant": true
    },
    {
      "inputs": [
        {
          "internalType": "address",
          "name": "_newBridge",
          "type": "address"
        }
      ],
      "name": "setMorpherBridge",
      "outputs": [],
      "stateMutability": "nonpayable",
      "type": "function"
    },
    {
      "inputs": [],
      "name": "getMorpherBridge",
      "outputs": [
        {
          "internalType": "address",
          "name": "_currentBridge",
          "type": "address"
        }
      ],
      "stateMutability": "view",
      "type": "function",
      "constant": true
    },
    {
      "inputs": [
        {
          "internalType": "address",
          "name": "_newOracleContract",
          "type": "address"
        }
      ],
      "name": "setOracleContract",
      "outputs": [],
      "stateMutability": "nonpayable",
      "type": "function"
    },
    {
      "inputs": [],
      "name": "getOracleContract",
      "outputs": [
        {
          "internalType": "address",
          "name": "",
          "type": "address"
        }
      ],
      "stateMutability": "view",
      "type": "function",
      "constant": true
    },
    {
      "inputs": [
        {
          "internalType": "address payable",
          "name": "_newTokenContract",
          "type": "address"
        }
      ],
      "name": "setTokenContract",
      "outputs": [],
      "stateMutability": "nonpayable",
      "type": "function"
    },
    {
      "inputs": [],
      "name": "getTokenContract",
      "outputs": [
        {
          "internalType": "address",
          "name": "",
          "type": "address"
        }
      ],
      "stateMutability": "view",
      "type": "function",
      "constant": true
    },
    {
      "inputs": [
        {
          "internalType": "address",
          "name": "_newAdministrator",
          "type": "address"
        }
      ],
      "name": "setAdministrator",
      "outputs": [],
      "stateMutability": "nonpayable",
      "type": "function"
    },
    {
      "inputs": [],
      "name": "getAdministrator",
      "outputs": [
        {
          "internalType": "address",
          "name": "",
          "type": "address"
        }
      ],
      "stateMutability": "view",
      "type": "function",
      "constant": true
    },
    {
      "inputs": [
        {
          "internalType": "address",
          "name": "_newRewardsAddress",
          "type": "address"
        }
      ],
      "name": "setRewardAddress",
      "outputs": [],
      "stateMutability": "nonpayable",
      "type": "function"
    },
    {
      "inputs": [
        {
          "internalType": "uint256",
          "name": "_newRewardBasisPoints",
          "type": "uint256"
        }
      ],
      "name": "setRewardBasisPoints",
      "outputs": [],
      "stateMutability": "nonpayable",
      "type": "function"
    },
    {
      "inputs": [
        {
          "internalType": "bytes32",
          "name": "_activateMarket",
          "type": "bytes32"
        }
      ],
      "name": "activateMarket",
      "outputs": [],
      "stateMutability": "nonpayable",
      "type": "function"
    },
    {
      "inputs": [
        {
          "internalType": "bytes32",
          "name": "_deActivateMarket",
          "type": "bytes32"
        }
      ],
      "name": "deActivateMarket",
      "outputs": [],
      "stateMutability": "nonpayable",
      "type": "function"
    },
    {
      "inputs": [
        {
          "internalType": "bytes32",
          "name": "_marketId",
          "type": "bytes32"
        }
      ],
      "name": "getMarketActive",
      "outputs": [
        {
          "internalType": "bool",
          "name": "_active",
          "type": "bool"
        }
      ],
      "stateMutability": "view",
      "type": "function",
      "constant": true
    },
    {
      "inputs": [
        {
          "internalType": "uint256",
          "name": "_newMaximumLeverage",
          "type": "uint256"
        }
      ],
      "name": "setMaximumLeverage",
      "outputs": [],
      "stateMutability": "nonpayable",
      "type": "function"
    },
    {
      "inputs": [],
      "name": "getMaximumLeverage",
      "outputs": [
        {
          "internalType": "uint256",
          "name": "_maxLeverage",
          "type": "uint256"
        }
      ],
      "stateMutability": "view",
      "type": "function",
      "constant": true
    },
    {
      "inputs": [],
      "name": "pauseState",
      "outputs": [],
      "stateMutability": "nonpayable",
      "type": "function"
    },
    {
      "inputs": [],
      "name": "unPauseState",
      "outputs": [],
      "stateMutability": "nonpayable",
      "type": "function"
    },
    {
      "inputs": [
        {
          "internalType": "bytes32",
          "name": "_sideChainMerkleRoot",
          "type": "bytes32"
        }
      ],
      "name": "setSideChainMerkleRoot",
      "outputs": [],
      "stateMutability": "nonpayable",
      "type": "function"
    },
    {
      "inputs": [],
      "name": "getSideChainMerkleRoot",
      "outputs": [
        {
          "internalType": "bytes32",
          "name": "_sideChainMerkleRoot",
          "type": "bytes32"
        }
      ],
      "stateMutability": "view",
      "type": "function",
      "constant": true
    },
    {
      "inputs": [
        {
          "internalType": "address",
          "name": "_address",
          "type": "address"
        }
      ],
      "name": "setSideChainOperator",
      "outputs": [],
      "stateMutability": "nonpayable",
      "type": "function"
    },
    {
      "inputs": [],
      "name": "getSideChainOperator",
      "outputs": [
        {
          "internalType": "address",
          "name": "_address",
          "type": "address"
        }
      ],
      "stateMutability": "view",
      "type": "function",
      "constant": true
    },
    {
      "inputs": [],
      "name": "getSideChainMerkleRootWrittenAtTime",
      "outputs": [
        {
          "internalType": "uint256",
          "name": "_sideChainMerkleRoot",
          "type": "uint256"
        }
      ],
      "stateMutability": "view",
      "type": "function",
      "constant": true
    },
    {
      "inputs": [
        {
          "internalType": "address",
          "name": "_address",
          "type": "address"
        },
        {
          "internalType": "bytes32",
          "name": "_marketId",
          "type": "bytes32"
        },
        {
          "internalType": "uint256",
          "name": "_timeStamp",
          "type": "uint256"
        },
        {
          "internalType": "uint256",
          "name": "_longShares",
          "type": "uint256"
        },
        {
          "internalType": "uint256",
          "name": "_shortShares",
          "type": "uint256"
        },
        {
          "internalType": "uint256",
          "name": "_meanEntryPrice",
          "type": "uint256"
        },
        {
          "internalType": "uint256",
          "name": "_meanEntrySpread",
          "type": "uint256"
        },
        {
          "internalType": "uint256",
          "name": "_meanEntryLeverage",
          "type": "uint256"
        },
        {
          "internalType": "uint256",
          "name": "_liquidationPrice",
          "type": "uint256"
        }
      ],
      "name": "setPosition",
      "outputs": [],
      "stateMutability": "nonpayable",
      "type": "function"
    },
    {
      "inputs": [
        {
          "internalType": "address",
          "name": "_address",
          "type": "address"
        },
        {
          "internalType": "bytes32",
          "name": "_marketId",
          "type": "bytes32"
        }
      ],
      "name": "getPosition",
      "outputs": [
        {
          "internalType": "uint256",
          "name": "_longShares",
          "type": "uint256"
        },
        {
          "internalType": "uint256",
          "name": "_shortShares",
          "type": "uint256"
        },
        {
          "internalType": "uint256",
          "name": "_meanEntryPrice",
          "type": "uint256"
        },
        {
          "internalType": "uint256",
          "name": "_meanEntrySpread",
          "type": "uint256"
        },
        {
          "internalType": "uint256",
          "name": "_meanEntryLeverage",
          "type": "uint256"
        },
        {
          "internalType": "uint256",
          "name": "_liquidationPrice",
          "type": "uint256"
        }
      ],
      "stateMutability": "view",
      "type": "function",
      "constant": true
    },
    {
      "inputs": [
        {
          "internalType": "address",
          "name": "_address",
          "type": "address"
        },
        {
          "internalType": "bytes32",
          "name": "_marketId",
          "type": "bytes32"
        },
        {
          "internalType": "uint256",
          "name": "_timeStamp",
          "type": "uint256"
        },
        {
          "internalType": "uint256",
          "name": "_longShares",
          "type": "uint256"
        },
        {
          "internalType": "uint256",
          "name": "_shortShares",
          "type": "uint256"
        },
        {
          "internalType": "uint256",
          "name": "_meanEntryPrice",
          "type": "uint256"
        },
        {
          "internalType": "uint256",
          "name": "_meanEntrySpread",
          "type": "uint256"
        },
        {
          "internalType": "uint256",
          "name": "_meanEntryLeverage",
          "type": "uint256"
        },
        {
          "internalType": "uint256",
          "name": "_liquidationPrice",
          "type": "uint256"
        }
      ],
      "name": "getPositionHash",
      "outputs": [
        {
          "internalType": "bytes32",
          "name": "_hash",
          "type": "bytes32"
        }
      ],
      "stateMutability": "pure",
      "type": "function",
      "constant": true
    },
    {
      "inputs": [
        {
          "internalType": "address",
          "name": "_address",
          "type": "address"
        },
        {
          "internalType": "uint256",
          "name": "_balance",
          "type": "uint256"
        }
      ],
      "name": "getBalanceHash",
      "outputs": [
        {
          "internalType": "bytes32",
          "name": "_hash",
          "type": "bytes32"
        }
      ],
      "stateMutability": "pure",
      "type": "function",
      "constant": true
    },
    {
      "inputs": [
        {
          "internalType": "address",
          "name": "_address",
          "type": "address"
        },
        {
          "internalType": "bytes32",
          "name": "_marketId",
          "type": "bytes32"
        }
      ],
      "name": "getLastUpdated",
      "outputs": [
        {
          "internalType": "uint256",
          "name": "_lastUpdated",
          "type": "uint256"
        }
      ],
      "stateMutability": "view",
      "type": "function",
      "constant": true
    },
    {
      "inputs": [
        {
          "internalType": "address",
          "name": "_address",
          "type": "address"
        },
        {
          "internalType": "bytes32",
          "name": "_marketId",
          "type": "bytes32"
        }
      ],
      "name": "getLongShares",
      "outputs": [
        {
          "internalType": "uint256",
          "name": "_longShares",
          "type": "uint256"
        }
      ],
      "stateMutability": "view",
      "type": "function",
      "constant": true
    },
    {
      "inputs": [
        {
          "internalType": "address",
          "name": "_address",
          "type": "address"
        },
        {
          "internalType": "bytes32",
          "name": "_marketId",
          "type": "bytes32"
        }
      ],
      "name": "getShortShares",
      "outputs": [
        {
          "internalType": "uint256",
          "name": "_shortShares",
          "type": "uint256"
        }
      ],
      "stateMutability": "view",
      "type": "function",
      "constant": true
    },
    {
      "inputs": [
        {
          "internalType": "address",
          "name": "_address",
          "type": "address"
        },
        {
          "internalType": "bytes32",
          "name": "_marketId",
          "type": "bytes32"
        }
      ],
      "name": "getMeanEntryPrice",
      "outputs": [
        {
          "internalType": "uint256",
          "name": "_meanEntryPrice",
          "type": "uint256"
        }
      ],
      "stateMutability": "view",
      "type": "function",
      "constant": true
    },
    {
      "inputs": [
        {
          "internalType": "address",
          "name": "_address",
          "type": "address"
        },
        {
          "internalType": "bytes32",
          "name": "_marketId",
          "type": "bytes32"
        }
      ],
      "name": "getMeanEntrySpread",
      "outputs": [
        {
          "internalType": "uint256",
          "name": "_meanEntrySpread",
          "type": "uint256"
        }
      ],
      "stateMutability": "view",
      "type": "function",
      "constant": true
    },
    {
      "inputs": [
        {
          "internalType": "address",
          "name": "_address",
          "type": "address"
        },
        {
          "internalType": "bytes32",
          "name": "_marketId",
          "type": "bytes32"
        }
      ],
      "name": "getMeanEntryLeverage",
      "outputs": [
        {
          "internalType": "uint256",
          "name": "_meanEntryLeverage",
          "type": "uint256"
        }
      ],
      "stateMutability": "view",
      "type": "function",
      "constant": true
    },
    {
      "inputs": [
        {
          "internalType": "address",
          "name": "_address",
          "type": "address"
        },
        {
          "internalType": "bytes32",
          "name": "_marketId",
          "type": "bytes32"
        }
      ],
      "name": "getLiquidationPrice",
      "outputs": [
        {
          "internalType": "uint256",
          "name": "_liquidationPrice",
          "type": "uint256"
        }
      ],
      "stateMutability": "view",
      "type": "function",
      "constant": true
    },
    {
      "inputs": [],
      "name": "payOperatingReward",
      "outputs": [],
      "stateMutability": "nonpayable",
      "type": "function"
    }
  ],
  "bytecode": "0x608060405234801561001057600080fd5b50613b59806100206000396000f3fe608060405234801561001057600080fd5b50600436106106f65760003560e01c80637c995e9111610392578063bfde5730116101e9578063e4974f8d1161011a578063efeecb04116100b8578063faddee1411610087578063faddee1414611087578063fbfc50f6146110c0578063fc89a4fc146110c9578063ff047c38146110dc57600080fd5b8063efeecb0414611015578063f2fde38b1461104e578063f53d0a8e14611061578063f606a41a1461107457600080fd5b8063e5c36bad116100f4578063e5c36bad14610f66578063ebd164fb14610f93578063ef5fa32214610fbc578063ef92f83114610ff557600080fd5b8063e4974f8d14610f38578063e4bd852214610f4b578063e5160f8014610f5357600080fd5b8063d8d5470d11610187578063df8089ef11610161578063df8089ef14610ec8578063e254542214610edb578063e291f13514610eee578063e3bbb56514610f2757600080fd5b8063d8d5470d14610e95578063da46098c14610ea2578063da4b0f4014610eb557600080fd5b8063c5e1b59a116101c3578063c5e1b59a14610e5e578063d362bd2b14610e71578063d69082c414610e7a578063d711835114610e8d57600080fd5b8063bfde573014610e0e578063c209afac14610e22578063c5d90a1914610e4b57600080fd5b8063aa7bcd5d116102c3578063b8ed12a411610261578063bcc3e3421161023b578063bcc3e34214610dc2578063be7e64b614610dd5578063beabacc814610de8578063bece753214610dfb57600080fd5b8063b8ed12a414610d9d578063bb65b24214610da6578063bbcd5bbe14610daf57600080fd5b8063acb17ba71161029d578063acb17ba714610d5a578063af2b48a714610d6d578063af434a6d14610d77578063b6554c2c14610d8a57600080fd5b8063aa7bcd5d14610d33578063aaf5eb6814610d3c578063ac981b1e14610d4757600080fd5b80639dc29fac11610330578063a35ab9c81161030a578063a35ab9c814610cf1578063a8c8afaa14610d04578063a99d389f14610d17578063aa43ced814610d2a57600080fd5b80639dc29fac14610cc35780639fe4e9d214610cd6578063a058088014610ce957600080fd5b80638da5cb5b1161036c5780638da5cb5b14610c835780638ea09da614610c945780639162298f14610ca75780639231cf7414610cba57600080fd5b80637c995e9114610c5f578063857b0da014610c675780638c4050b114610c7a57600080fd5b8063364ae26e116105515780635e00e679116104825780636d37e2181161042057806373ed1fe2116103ef57806373ed1fe214610c2a578063755ca87a14610c3b5780637a68744414610c435780637b431ab114610c5657600080fd5b80636d37e21814610bd9578063706277da14610be157806370a0823114610bf9578063715018a614610c2257600080fd5b8063652f17631161045c578063652f176314610b6757806369c66c7b14610ba057806369cdcfb714610bb35780636c36a4ec14610bc657600080fd5b80635e00e67914610b3857806361afd5ac14610b4b578063626be56714610b5e57600080fd5b80634a4cce97116104ef578063592b6aab116104c9578063592b6aab14610af25780635996e20914610afa5780635c8b933414610b025780635c975abb14610b2b57600080fd5b80634a4cce9714610ab35780634da3c19914610ad657806355b3374114610ae957600080fd5b806340c10f191161052b57806340c10f1914610a57578063422cc2e714610a6a57806344ae029c14610a7d578063496ccd9b14610aa057600080fd5b8063364ae26e146109ef5780633d7f4f3c14610a185780633eedf76a14610a4e57600080fd5b8063169674071161062b57806321c02c8e116105c957806328b7bede116105a357806328b7bede146109865780632d7b42c11461099c5780632e0f2625146109d45780633383e8d8146109dc57600080fd5b806321c02c8e1461094457806325fbf7121461096d578063289b3c0d1461097557600080fd5b80631864ba30116106055780631864ba30146108e65780631bdbae901461091f5780631cb11077146109285780632020e6971461093157600080fd5b806316967407146108b9578063174c51dc146108ca57806318160ddd146108dd57600080fd5b80630b7c8e7f116106985780630fa8f516116106725780630fa8f516146107df5780631129753f14610867578063147125121461087a57806314ce70ef146108a657600080fd5b80630b7c8e7f146107a25780630eb933dc146107ab5780630f508e00146107ce57600080fd5b806309089f97116106d457806309089f97146107365780630aa7cee2146107515780630ae5e7391461077c5780630af4187d1461078f57600080fd5b806304371f48146106fb57806306442d0a1461071057806307a9100e14610723575b600080fd5b61070e610709366004613517565b6110e4565b005b61070e61071e366004613517565b61126d565b61070e610731366004613545565b6112d7565b61073e611327565b6040519081526020015b60405180910390f35b606954610764906001600160a01b031681565b6040516001600160a01b039091168152602001610748565b61070e61078a366004613545565b6113c2565b61073e61079d366004613569565b61143a565b61073e606d5481565b6107be6107b9366004613545565b611467565b6040519015158152602001610748565b6069546001600160a01b0316610764565b61083a6107ed3660046135a2565b6001600160a01b03919091166000908152607b6020908152604080832093835292905220600181015460028201546003830154600484015460058501546006909501549395929491939092565b604080519687526020870195909552938501929092526060840152608083015260a082015260c001610748565b61070e610875366004613545565b61149c565b6107be610888366004613545565b6001600160a01b031660009081526076602052604090205460ff1690565b61070e6108b4366004613545565b611510565b6067546001600160a01b0316610764565b61070e6108d83660046135ce565b611584565b61073e606b5481565b61073e6108f43660046135a2565b6001600160a01b03919091166000908152607b60209081526040808320938352929052206002015490565b61073e606e5481565b61073e60835481565b61070e61093f366004613606565b6115f5565b61073e610952366004613545565b6001600160a01b03166000908152607d602052604090205490565b60735461073e565b6065546001600160a01b0316610764565b60705461010090046001600160a01b0316610764565b6107646109aa366004613606565b6000918252607c60209081526040808420928452600290920190529020546001600160a01b031690565b61073e601281565b61070e6109ea3660046135a2565b61163b565b61073e6109fd366004613545565b6001600160a01b03166000908152607e602052604090205490565b61073e610a263660046135a2565b6001600160a01b03919091166000908152607b60209081526040808320938352929052205490565b61073e606f5481565b61070e610a653660046135a2565b6116bd565b61070e610a783660046135a2565b6118a0565b6107be610a8b366004613517565b60009081526080602052604090205460ff1690565b61070e610aae366004613545565b611959565b6107be610ac1366004613517565b6000908152607a602052604090205460ff1690565b61070e610ae4366004613517565b6119cd565b61073e60755481565b61070e611a36565b61070e611a95565b61073e610b10366004613545565b6001600160a01b031660009081526088602052604090205490565b6070546107be9060ff1681565b61070e610b46366004613545565b611b05565b61070e610b59366004613545565b611b7f565b61073e606c5481565b61073e610b753660046135a2565b6001600160a01b03919091166000908152607b60209081526040808320938352929052206006015490565b61073e610bae366004613628565b611bf4565b61070e610bc1366004613517565b611c20565b61070e610bd43660046135a2565b611c7d565b61070e611ccd565b6070546107649061010090046001600160a01b031681565b61073e610c07366004613545565b6001600160a01b031660009081526078602052604090205490565b61070e611df2565b606a546001600160a01b0316610764565b60895461073e565b61073e610c5136600461364d565b611e56565b61073e60745481565b606f5461073e565b61073e610c753660046135a2565b611ece565b61073e60895481565b6033546001600160a01b0316610764565b61070e610ca2366004613545565b611f15565b61070e610cb53660046135ce565b611f88565b61073e60725481565b61070e610cd13660046135a2565b611fd7565b61070e610ce4366004613517565b6121a5565b61070e612215565b61070e610cff366004613517565b61226f565b606554610764906001600160a01b031681565b61070e610d253660046135ce565b6122fe565b61073e60815481565b61073e60825481565b61073e6305f5e10081565b61070e610d55366004613517565b61235c565b61070e610d68366004613545565b6123c9565b61073e6201518081565b61070e610d85366004613517565b61243f565b61070e610d98366004613517565b61249e565b61073e60855481565b61073e60715481565b61070e610dbd366004613545565b6124e3565b61070e610dd0366004613545565b61255f565b61070e610de336600461364d565b6125bf565b61070e610df63660046136b5565b612737565b606854610764906001600160a01b031681565b606a546107be90600160a01b900460ff1681565b61073e610e30366004613545565b6001600160a01b031660009081526087602052604090205490565b61070e610e59366004613517565b612a07565b61070e610e6c366004613545565b612ac4565b61073e60845481565b61070e610e88366004613517565b612b3c565b61070e612bb3565b6086546107be9060ff1681565b61070e610eb03660046136b5565b612c24565b61070e610ec3366004613517565b612cb1565b61070e610ed6366004613545565b612d73565b61070e610ee93660046136e5565b612de7565b61073e610efc3660046135a2565b6001600160a01b03919091166000908152607b60209081526040808320938352929052206003015490565b6068546001600160a01b0316610764565b606a54610764906001600160a01b031681565b60745461073e565b61070e610f61366004613517565b61317e565b604080518082018252600b81526a68656c6c6f2070726f787960a81b602082015290516107489190613735565b61073e610fa1366004613545565b6001600160a01b03166000908152607f602052604090205490565b61073e610fca3660046135a2565b6001600160a01b03919091166000908152607b60209081526040808320938352929052206001015490565b61073e611003366004613517565b6000908152607c602052604090205490565b61073e6110233660046135a2565b6001600160a01b03919091166000908152607b60209081526040808320938352929052206004015490565b61070e61105c366004613545565b6131e5565b606754610764906001600160a01b031681565b606654610764906001600160a01b031681565b61073e6110953660046135a2565b6001600160a01b03919091166000908152607b60209081526040808320938352929052206005015490565b61073e60735481565b61070e6110d7366004613517565b6132b0565b60755461073e565b6065546001600160a01b031633146111175760405162461bcd60e51b815260040161110e9061378a565b60405180910390fd5b606a54600160a01b900460ff161515600114156111b957613a988111156111b45760405162461bcd60e51b8152602060048201526044602482018190527f4d6f727068657253746174653a2052657761726420626173697320706f696e74908201527f73206e65656420746f206265206c657373206f7220657175616c20746f2031356064820152631818181760e11b608482015260a40161110e565b61122d565b801561122d5760405162461bcd60e51b815260206004820152603e60248201527f4d6f727068657253746174653a2052657761726420626173697320706f696e7460448201527f732063616e206f6e6c7920626520736574206f6e20457468657265756d2e0000606482015260840161110e565b607181905560665460405182916001600160a01b0316907faa735ef3e20d6d58610022edb69ae0e7e8aaa0084dc5699a0b36a5683bc7a7c790600090a350565b6067546001600160a01b031633146112975760405162461bcd60e51b815260040161110e906137f5565b6000818152607a6020526040808220805460ff191690555182917f9cb9d54a58b209894faa9f115e54b1c61733c0764fe29ed01f97c7c425f2f24391a250565b3360009081526076602052604090205460ff16151560011461130b5760405162461bcd60e51b815260040161110e90613852565b6001600160a01b03166000908152608760205260409020439055565b600061133b606a546001600160a01b031690565b6001600160a01b0316336001600160a01b03161461136b5760405162461bcd60e51b815260040161110e906138af565b6085805490600061137b83613916565b91905055507f86423ef8971dc4252acb273ac1099fb639020a7a2f5a64dad077d033ab2ae8e26085546040516113b391815260200190565b60405180910390a15060855490565b6067546001600160a01b031633146113ec5760405162461bcd60e51b815260040161110e906137f5565b6001600160a01b038116600081815260766020526040808220805460ff19166001179055514392917f556646edb498605e1eaf0f4ab1619f3dbc4164f1cddc22ecae584e045838d13891a350565b6001600160a01b038083166000908152607960209081526040808320938516835292905220545b92915050565b606a54600090600160a01b900460ff16806114615750506001600160a01b031660009081526077602052604090205460ff1690565b6065546001600160a01b031633146114c65760405162461bcd60e51b815260040161110e9061378a565b606580546001600160a01b0319166001600160a01b0383169081179091556040517f5ab1e8b2c0a96bffa69cb323894590e00556bdce76b87d529100949740e6a55a90600090a250565b6067546001600160a01b0316331461153a5760405162461bcd60e51b815260040161110e906137f5565b606980546001600160a01b0319166001600160a01b0383169081179091556040517f07c5be40db03f5890f6ca87fc24a286cabbbd63a79791089701cb0b5eb71529890600090a250565b3360009081526076602052604090205460ff1615156001146115b85760405162461bcd60e51b815260040161110e90613852565b6000928352607c602090815260408085209285526002909201905290912080546001600160a01b0319166001600160a01b03909216919091179055565b3360009081526076602052604090205460ff1615156001146116295760405162461bcd60e51b815260040161110e90613852565b6000918252607c602052604090912055565b606a546001600160a01b031633146116655760405162461bcd60e51b815260040161110e906138af565b6001600160a01b0382166000818152607d6020908152604091829020849055815192835282018390527fb83fc1206022cf828cdd927bea92f3cfe9ae485bc4d4308b65413dfdd0ab6edb910160405180910390a15050565b3360009081526076602052604090205460ff1615156001146116f15760405162461bcd60e51b815260040161110e90613852565b60705460ff16156117145760405162461bcd60e51b815260040161110e90613931565b6001600160a01b038216600090815260786020526040902054611738908290613978565b6001600160a01b038316600090815260786020526040902055606c5461175f908290613978565b606c5561176a61330f565b6070546040516323de665160e01b8152600060048201526001600160a01b03848116602483015260448201849052610100909204909116906323de665190606401600060405180830381600087803b1580156117c557600080fd5b505af11580156117d9573d6000803e3d6000fd5b50505050816001600160a01b03167f4c209b5fc8ad50758f13e2e1088ba56a560dff690a1c6fef26394f4c03821c4f82606c54604051611823929190918252602082015260400190565b60405180910390a26001600160a01b03821660009081526078602052604090205461184f908390611ece565b6001600160a01b0383166000818152607860209081526040918290205491519182527fd5cc1526bf6f20f18608ca8834d23bacab6780c93fa2e5e7033a5c85016af046910160405180910390a35050565b606a546001600160a01b031633146118ca5760405162461bcd60e51b815260040161110e906138af565b6001600160a01b0382166000908152607e60208181526040808420858155607f8352932042905552546118fe908390611ece565b6001600160a01b0383166000818152607e602090815260409182902054825193845290830185905282820152517fa3579111956ed8ebf7836e375375f707ea762883fa60008df45a289d53090b659181900360600190a25050565b6065546001600160a01b031633146119835760405162461bcd60e51b815260040161110e9061378a565b606880546001600160a01b0319166001600160a01b0383169081179091556040517f127863dda9b4c03043886af0affd8e8ff8c0c65822d70f0b639eadce57271f0890600090a250565b606a546001600160a01b031633146119f75760405162461bcd60e51b815260040161110e906138af565b607381905542607455611a08611ccd565b60405181907f2fe11f024562cd0798f5b3975c7be128c3b86e0249f9a66ad1e74bfb52f9246490600090a250565b606a546001600160a01b03163314611a605760405162461bcd60e51b815260040161110e906138af565b6086805460ff191690556040517ff6b2b9c63998bbfbe0a548dce3fa97702cb864dbfbdb42d4bcdb6f58c4209c3490600090a1565b6067546001600160a01b03163314611abf5760405162461bcd60e51b815260040161110e906137f5565b6070805460ff1916905560408051338152600060208201527f532bec1988bda028bb59aba6eb1db09c7209eac3ac08644acb899122b604d1c291015b60405180910390a1565b6065546001600160a01b03163314611b2f5760405162461bcd60e51b815260040161110e9061378a565b606680546001600160a01b0319166001600160a01b0383169081179091556071546040519091907faa735ef3e20d6d58610022edb69ae0e7e8aaa0084dc5699a0b36a5683bc7a7c790600090a350565b6067546001600160a01b03163314611ba95760405162461bcd60e51b815260040161110e906137f5565b6001600160a01b038116600081815260766020526040808220805460ff19169055514392917fa40f23a963aabba33c55679497d6dd6d9815feadbeb0b0ad39d1285beda16bdd91a350565b6000828152607c602090815260408083206001600160a01b038516845260010190915290205492915050565b6065546001600160a01b03163314611c4a5760405162461bcd60e51b815260040161110e9061378a565b607581905560405181907f1177d9c2a77eb9dd45c02329c8e4924e44101d64dabf8024543b0ce26e622f3690600090a250565b3360009081526076602052604090205460ff161515600114611cb15760405162461bcd60e51b815260040161110e90613852565b6001600160a01b03909116600090815260886020526040902055565b606a54600160a01b900460ff161515600114611d425760405162461bcd60e51b815260206004820152602e60248201527f4d6f727068657253746174653a2043616e206f6e6c792062652063616c6c656460448201526d1037b71036b0b4b731b430b4b71760911b606482015260840161110e565b62015180607254611d539190613978565b421115611df05760006305f5e100607154606b54611d719190613990565b611d7b91906139af565b9050611d9662015180607254611d919190613978565b613361565b606654611dac906001600160a01b0316826116bd565b6066546040518281526001600160a01b03909116907f38fec7f72e65a01ab4170fddd9ed4438b1b378e84bef08292112fb619abfc9a29060200160405180910390a2505b565b6033546001600160a01b03163314611e4c5760405162461bcd60e51b815260206004820181905260248201527f4f776e61626c653a2063616c6c6572206973206e6f7420746865206f776e6572604482015260640161110e565b611df06000613394565b6040805160609a909a1b6bffffffffffffffffffffffff19166020808c019190915260348b019990995260548a01979097526074890195909552609488019390935260b487019190915260d486015260f485015261011480850191909152815180850390910181526101349093019052815191012090565b6040516bffffffffffffffffffffffff19606084901b1660208201526034810182905260009060540160405160208183030381529060405280519060200120905092915050565b6067546001600160a01b03163314611f3f5760405162461bcd60e51b815260040161110e906137f5565b6001600160a01b038116600081815260776020526040808220805460ff19169055517f972d3365ef4d458e53aedba4b7422b4eea3046ea55b243b9e64341b1f1ad449d9190a250565b3360009081526076602052604090205460ff161515600114611fbc5760405162461bcd60e51b815260040161110e90613852565b611fc78383836122fe565b611fd2838383611584565b505050565b3360009081526076602052604090205460ff16151560011461200b5760405162461bcd60e51b815260040161110e90613852565b60705460ff161561202e5760405162461bcd60e51b815260040161110e90613931565b6001600160a01b0382166000908152607860205260409020548111156120965760405162461bcd60e51b815260206004820152601f60248201527f4d6f727068657253746174653a204e6f7420656e6f75676820746f6b656e2e00604482015260640161110e565b6001600160a01b0382166000908152607860205260409020546120ba9082906139d1565b6001600160a01b038316600090815260786020526040902055606c546120e19082906139d1565b606c556120ec61330f565b6070546040516323de665160e01b81526001600160a01b0384811660048301526000602483015260448201849052610100909204909116906323de665190606401600060405180830381600087803b15801561214757600080fd5b505af115801561215b573d6000803e3d6000fd5b50505050816001600160a01b03167f49995e5dd6158cf69ad3e9777c46755a1a826a446c6416992167462dad033b2a82606c54604051611823929190918252602082015260400190565b3360009081526076602052604090205460ff1615156001146121d95760405162461bcd60e51b815260040161110e90613852565b60898190556040518181527f8347cc6d3a3b991db61121237578d3a133ddf434ee43936f1c48d2c815eb0ab3906020015b60405180910390a150565b606a546001600160a01b0316331461223f5760405162461bcd60e51b815260040161110e906138af565b600060828190556040517fcada5cc63a6cd5770ca818284aa0ee429013dfd689c4f9587022943b408a09b19190a1565b606a546001600160a01b031633146122995760405162461bcd60e51b815260040161110e906138af565b8060825411156122b957806082546122b191906139d1565b6082556122bf565b60006082555b4260818190556082546040517fa11a2bc3cadf4e1be663d8cd5705d0e1dfab645a6d258fa97b350610640d30a09261220a928252602082015260400190565b3360009081526076602052604090205460ff1615156001146123325760405162461bcd60e51b815260040161110e90613852565b6000928352607c602090815260408085206001600160a01b03909416855260019093019052912055565b6067546001600160a01b031633146123865760405162461bcd60e51b815260040161110e906137f5565b6000818152607a6020526040808220805460ff191660011790555182917f52ebf9d662e8bc70841a5b603c1711882a8e4b11a663af6b5709286fe7bd964591a250565b6067546001600160a01b031633146123f35760405162461bcd60e51b815260040161110e906137f5565b6001600160a01b038116600081815260776020526040808220805460ff19166001179055517f6d3bdb877ca7bde5be7e4afec9b4afd12e4f3dd1188c8fa57a7802f0f6cfa4d49190a250565b606a546001600160a01b031633146124695760405162461bcd60e51b815260040161110e906138af565b60848190556040518181527faf1ea5ac33bf092763f62a127ef50006ae56eef9cc122568bea97c7308d173769060200161220a565b606a546001600160a01b031633146124c85760405162461bcd60e51b815260040161110e906138af565b6000908152608060205260409020805460ff19166001179055565b6065546001600160a01b0316331461250d5760405162461bcd60e51b815260040161110e9061378a565b60708054610100600160a81b0319166101006001600160a01b038416908102919091179091556040517f0e6436d2b3e53a8a3ec2fbdd1d22525f0cd81d796bcb4beeef7337031a7e5efa90600090a250565b3360009081526076602052604090205460ff1615156001146125935760405162461bcd60e51b815260040161110e90613852565b6001600160a01b03811660009081526088602052604081208054916125b783613916565b919050555050565b3360009081526076602052604090205460ff1615156001146125f35760405162461bcd60e51b815260040161110e90613852565b6001600160a01b0389166000908152607b602090815260408083208b845290915290208781556001810187905560028101869055600381018590556004810184905560058101839055600601819055612653898989898989898989611e56565b6001600160a01b038a166000908152607b602090815260408083208c8452909152902060070155851515806126885750600085115b1561269c57612697888a6133e6565b6126a6565b6126a6888a61342a565b6001600160a01b0389166000818152607b602090815260408083208c84528252918290206007015482518b81529182018a9052918101889052606081018790526080810186905260a0810185905260c081018490528a9291907f35ea872e77adbec19df83a66765d5bdc0adfe73d9ada9518cb384242ddb40d5d9060e00160405180910390a4505050505050505050565b3360009081526076602052604090205460ff16151560011461276b5760405162461bcd60e51b815260040161110e90613852565b60705460ff161561278e5760405162461bcd60e51b815260040161110e90613931565b6001600160a01b0383166000908152607860205260409020548111156127f65760405162461bcd60e51b815260206004820152601f60248201527f4d6f727068657253746174653a204e6f7420656e6f75676820746f6b656e2e00604482015260640161110e565b6001600160a01b03831660009081526078602052604090205461281a9082906139d1565b6001600160a01b03808516600090815260786020526040808220939093559084168152205461284a908290613978565b6001600160a01b03838116600081815260786020526040908190209390935560705492516323de665160e01b8152868316600482015260248101919091526044810184905261010090920416906323de665190606401600060405180830381600087803b1580156128ba57600080fd5b505af11580156128ce573d6000803e3d6000fd5b50505050816001600160a01b0316836001600160a01b03167fddf252ad1be2c89b69c2b068fc378daa952ba7f163c4a11628f55a4df523b3ef8360405161291791815260200190565b60405180910390a36001600160a01b038316600090815260786020526040902054612943908490611ece565b6001600160a01b0384166000818152607860209081526040918290205491519182527fd5cc1526bf6f20f18608ca8834d23bacab6780c93fa2e5e7033a5c85016af046910160405180910390a36001600160a01b0382166000908152607860205260409020546129b4908390611ece565b6001600160a01b0383166000818152607860209081526040918290205491519182527fd5cc1526bf6f20f18608ca8834d23bacab6780c93fa2e5e7033a5c85016af04691015b60405180910390a3505050565b6069546001600160a01b03163314612a875760405162461bcd60e51b815260206004820152603d60248201527f4d6f727068657253746174653a2043616c6c6572206973206e6f74207468652060448201527f53696465636861696e204f70657261746f722e2041626f7274696e672e000000606482015260840161110e565b606e819055612a9461330f565b6040518181527f38e3203d00fb51f959df7882c56c583370da2f7abea215c09e83e7ffa61281d29060200161220a565b6065546001600160a01b03163314612aee5760405162461bcd60e51b815260040161110e9061378a565b606a80546001600160a01b0319166001600160a01b0383169081179091556040519081527f631bdf9495e4e83ab921eecb28e1057d3598a3fa0fc5f40b06bafe3e7333bc5c9060200161220a565b606a546001600160a01b03163314612b665760405162461bcd60e51b815260040161110e906138af565b80608254612b749190613978565b60828190556081546040517fa11a2bc3cadf4e1be663d8cd5705d0e1dfab645a6d258fa97b350610640d30a09261220a92908252602082015260400190565b6067546001600160a01b03163314612bdd5760405162461bcd60e51b815260040161110e906137f5565b6070805460ff191660019081179091556040805133815260208101929092527f532bec1988bda028bb59aba6eb1db09c7209eac3ac08644acb899122b604d1c29101611afb565b3360009081526076602052604090205460ff161515600114612c585760405162461bcd60e51b815260040161110e90613852565b6001600160a01b0383811660008181526079602090815260408083209487168084529482529182902085905590518481527f3c07380f6fcae3bac39771c60e5c680334073911f2176b65f1d6925ba0badcdf91016129fa565b6067546001600160a01b03163314612cdb5760405162461bcd60e51b815260040161110e906137f5565b6305f5e1008111612d3e5760405162461bcd60e51b815260206004820152602760248201527f4d6f727068657253746174653a204c6576657261676520707265636973696f6e604482015266040d2e64062ca760cb1b606482015260840161110e565b606f8190556040518181527f258a1584bca0aad852538c9d396233520174feedba906a03d19b307d3bad5f309060200161220a565b6065546001600160a01b03163314612d9d5760405162461bcd60e51b815260040161110e9061378a565b606780546001600160a01b0319166001600160a01b0383169081179091556040517f47c6cd80582c55aabfec5a8be39d30b380cf41ba92dd2d13ba626c48c96bf27690600090a250565b600054610100900460ff16612e025760005460ff1615612e06565b303b155b612e695760405162461bcd60e51b815260206004820152602e60248201527f496e697469616c697a61626c653a20636f6e747261637420697320616c72656160448201526d191e481a5b9a5d1a585b1a5e995960921b606482015260840161110e565b600054610100900460ff16158015612e8b576000805461ffff19166101011790555b612e936134bd565b606a805460ff60a01b1916600160a01b86151502179055612eb342613361565b6000612ec16012600a613acc565b612ecf90632245cdc0613990565b90506000612edf6012600a613acc565b612eed90631954fc40613990565b9050612f016033546001600160a01b031690565b606780546001600160a01b0319166001600160a01b0392831617905560335416606580546001600160a01b0319166001600160a01b03928316179055603354612f4a91166113c2565b612f5f6108b46033546001600160a01b031690565b606a54600160a01b900460ff16613030578160786000612f876033546001600160a01b031690565b6001600160a01b03168152602081019190915260400160002055606c829055612fb86033546001600160a01b031690565b6001600160a01b03167f4c209b5fc8ad50758f13e2e1088ba56a560dff690a1c6fef26394f4c03821c4f612ff7610c076033546001600160a01b031690565b60408051918252602082018690520160405180910390a261301860006110e4565b6130226000611b05565b61302b81612a07565b6130eb565b80607860006130476033546001600160a01b031690565b6001600160a01b03168152602081019190915260400160002055606c8190556130786033546001600160a01b031690565b6001600160a01b03167f4c209b5fc8ad50758f13e2e1088ba56a560dff690a1c6fef26394f4c03821c4f6130b7610c076033546001600160a01b031690565b60408051918252602082018590520160405180910390a26130d9613a986110e4565b6130e284611b05565b6130eb82612a07565b6086805460ff1916600117905561310260036121a5565b6131146032606b54610bc191906139af565b61311d85611510565b613132610b596033546001600160a01b031690565b6131416305f5e100600a613990565b606f5550506070805460ff191690556a108b2a2c280290940000006075556203f4806084558015613178576000805461ff00191690555b50505050565b6067546001600160a01b031633146131a85760405162461bcd60e51b815260040161110e906137f5565b606d8190556131b561330f565b6040518181527ff915189a6212c055e85c9c0dc760b7a2a5d1ff9a9e64bd9af0a9897b4046dcd99060200161220a565b6033546001600160a01b0316331461323f5760405162461bcd60e51b815260206004820181905260248201527f4f776e61626c653a2063616c6c6572206973206e6f7420746865206f776e6572604482015260640161110e565b6001600160a01b0381166132a45760405162461bcd60e51b815260206004820152602660248201527f4f776e61626c653a206e6577206f776e657220697320746865207a65726f206160448201526564647265737360d01b606482015260840161110e565b6132ad81613394565b50565b606a546001600160a01b031633146132da5760405162461bcd60e51b815260040161110e906138af565b60838190556040518181527f0969f79b044617688492c7c9b226129947037ca88c450002a7561ed78aa549ac9060200161220a565b606e54606d54606c546133229190613978565b61332c9190613978565b606b8190556040519081527f5b1767df4e2cc8a7b2716959e609e0cdd987c9b88ac27b7fc4be99435aa1673b90602001611afb565b607281905560405181907fb11f7283fda904f54a0fc8af727d3bf56e40a6cbf7c8fbb177083f0a335152ed90600090a250565b603380546001600160a01b038381166001600160a01b0319831681179093556040519116919082907f8be0079c531659141344cd1fd0a4f28419497f9722a3daafe3b4186f6b6457e090600090a35050565b60006133f28383611bf4565b905080611fd2576000838152607c6020526040812054613413906001613978565b905061341f84826115f5565b613178848483611f88565b60006134368383611bf4565b6000848152607c602090815260408083208054808552600290910190925290912054919250906001600160a01b031682156134b657818310156134895761347e858285611584565b6134898582856122fe565b61349585600084611584565b6134a1858560006122fe565b81156134b6576134b68561093f6001856139d1565b5050505050565b600054610100900460ff166134e45760405162461bcd60e51b815260040161110e90613ad8565b611df0600054610100900460ff1661350e5760405162461bcd60e51b815260040161110e90613ad8565b611df033613394565b60006020828403121561352957600080fd5b5035919050565b6001600160a01b03811681146132ad57600080fd5b60006020828403121561355757600080fd5b813561356281613530565b9392505050565b6000806040838503121561357c57600080fd5b823561358781613530565b9150602083013561359781613530565b809150509250929050565b600080604083850312156135b557600080fd5b82356135c081613530565b946020939093013593505050565b6000806000606084860312156135e357600080fd5b8335925060208401356135f581613530565b929592945050506040919091013590565b6000806040838503121561361957600080fd5b50508035926020909101359150565b6000806040838503121561363b57600080fd5b82359150602083013561359781613530565b60008060008060008060008060006101208a8c03121561366c57600080fd5b893561367781613530565b9b60208b01359b5060408b01359a60608101359a506080810135995060a0810135985060c0810135975060e081013596506101000135945092505050565b6000806000606084860312156136ca57600080fd5b83356136d581613530565b925060208401356135f581613530565b6000806000606084860312156136fa57600080fd5b8335801515811461370a57600080fd5b9250602084013561371a81613530565b9150604084013561372a81613530565b809150509250925092565b600060208083528351808285015260005b8181101561376257858101830151858201604001528201613746565b81811115613774576000604083870101525b50601f01601f1916929092016040019392505050565b60208082526045908201527f4d6f727068657253746174653a2043616c6c696e6720636f6e7472616374206e60408201527f6f742074686520476f7665726e616e636520436f6e74726163742e2041626f726060820152643a34b7339760d91b608082015260a00190565b60208082526038908201527f4d6f727068657253746174653a2043616c6c6572206973206e6f74207468652060408201527f41646d696e6973747261746f722e2041626f7274696e672e0000000000000000606082015260800190565b6020808252603c908201527f4d6f727068657253746174653a204f6e6c7920506c6174666f726d206973206160408201527f6c6c6f77656420746f2065786563757465206f7065726174696f6e2e00000000606082015260800190565b60208082526031908201527f4d6f727068657253746174653a2043616c6c6572206973206e6f742074686520604082015270213934b233b2971020b137b93a34b7339760791b606082015260800190565b634e487b7160e01b600052601160045260246000fd5b600060001982141561392a5761392a613900565b5060010190565b60208082526027908201527f4d6f727068657253746174653a20436f6e7472616374207061757365642c2061604082015266626f7274696e6760c81b606082015260800190565b6000821982111561398b5761398b613900565b500190565b60008160001904831182151516156139aa576139aa613900565b500290565b6000826139cc57634e487b7160e01b600052601260045260246000fd5b500490565b6000828210156139e3576139e3613900565b500390565b600181815b80851115613a23578160001904821115613a0957613a09613900565b80851615613a1657918102915b93841c93908002906139ed565b509250929050565b600082613a3a57506001611461565b81613a4757506000611461565b8160018114613a5d5760028114613a6757613a83565b6001915050611461565b60ff841115613a7857613a78613900565b50506001821b611461565b5060208310610133831016604e8410600b8410161715613aa6575081810a611461565b613ab083836139e8565b8060001904821115613ac457613ac4613900565b029392505050565b60006135628383613a2b565b6020808252602b908201527f496e697469616c697a61626c653a20636f6e7472616374206973206e6f74206960408201526a6e697469616c697a696e6760a81b60608201526080019056fea26469706673582212200294fee7b8036157a91e2f2d0800b3df7c67b197faaa3cdb5f46b18f2a53617064736f6c634300080b0033",
  "immutableReferences": {},
  "source": "//SPDX-License-Identifier: GPLv3\r\npragma solidity 0.8.11;\r\nimport \"@openzeppelin/contracts-upgradeable/access/OwnableUpgradeable.sol\";\r\nimport \"@openzeppelin/contracts-upgradeable/proxy/utils/Initializable.sol\";\r\nimport \"./MorpherToken.sol\";\r\n\r\n// ----------------------------------------------------------------------------------\r\n// Data and token balance storage of the Morpher platform\r\n// Writing access is only granted to platform contracts. The contract can be paused\r\n// by an elected platform administrator (see MorpherGovernance) to perform protocol updates.\r\n// ----------------------------------------------------------------------------------\r\n\r\ncontract MorpherState is Initializable, OwnableUpgradeable  {\r\n\r\n    address public morpherGovernance;\r\n    address public morpherRewards;\r\n    address public administrator;\r\n    address public oracleContract;\r\n    address public sideChainOperator;\r\n    address public morpherBridge;\r\n    bool public mainChain;\r\n    uint256 public totalSupply;\r\n    uint256 public totalToken;\r\n    uint256 public totalInPositions;\r\n    uint256 public totalOnOtherChain;\r\n    uint256 public maximumLeverage; // Leverage precision is 1e8, maximum leverage set to 10 initially\r\n    uint256 public constant PRECISION = 10**8;\r\n    uint256 public constant DECIMALS = 18;\r\n    uint256 public constant REWARDPERIOD = 1 days;\r\n    bool public paused;\r\n\r\n    \r\n    address payable public morpherToken;\r\n\r\n    uint256 public rewardBasisPoints;\r\n    uint256 public lastRewardTime;\r\n\r\n    bytes32 public sideChainMerkleRoot;\r\n    uint256 public sideChainMerkleRootWrittenAtTime;\r\n\r\n    // Set initial withdraw limit from sidechain to 20m token or 2% of initial supply\r\n    uint256 public mainChainWithdrawLimit24;\r\n\r\n    mapping(address => bool) private stateAccess;\r\n    mapping(address => bool) private transferAllowed;\r\n\r\n    mapping(address => uint256) private balances;\r\n    mapping(address => mapping(address => uint256)) private allowed;\r\n\r\n    mapping(bytes32 => bool) private marketActive;\r\n\r\n    // ----------------------------------------------------------------------------\r\n    // Position struct records virtual futures\r\n    // ----------------------------------------------------------------------------\r\n    struct position {\r\n        uint256 lastUpdated;\r\n        uint256 longShares;\r\n        uint256 shortShares;\r\n        uint256 meanEntryPrice;\r\n        uint256 meanEntrySpread;\r\n        uint256 meanEntryLeverage;\r\n        uint256 liquidationPrice;\r\n        bytes32 positionHash;\r\n    }\r\n\r\n    // ----------------------------------------------------------------------------\r\n    // A portfolio is an address specific collection of postions\r\n    // ----------------------------------------------------------------------------\r\n    mapping(address => mapping(bytes32 => position)) private portfolio;\r\n\r\n    // ----------------------------------------------------------------------------\r\n    // Record all addresses that hold a position of a market, needed for clean stock splits\r\n    // ----------------------------------------------------------------------------\r\n    struct hasExposure {\r\n        uint256 maxMappingIndex;\r\n        mapping(address => uint256) index;\r\n        mapping(uint256 => address) addy;\r\n    }\r\n\r\n    mapping(bytes32 => hasExposure) private exposureByMarket;\r\n\r\n    // ----------------------------------------------------------------------------\r\n    // Bridge Variables\r\n    // ----------------------------------------------------------------------------\r\n    mapping (address => uint256) private tokenClaimedOnThisChain;\r\n    mapping (address => uint256) private tokenSentToLinkedChain;\r\n    mapping (address => uint256) private tokenSentToLinkedChainTime;\r\n    mapping (bytes32 => bool) private positionClaimedOnMainChain;\r\n\r\n    uint256 public lastWithdrawLimitReductionTime;\r\n    uint256 public last24HoursAmountWithdrawn;\r\n    uint256 public withdrawLimit24Hours;\r\n    uint256 public inactivityPeriod;\r\n    uint256 public transferNonce;\r\n    bool public fastTransfersEnabled;\r\n\r\n    // ----------------------------------------------------------------------------\r\n    // Sidechain spam protection\r\n    // ----------------------------------------------------------------------------\r\n\r\n    mapping(address => uint256) private lastRequestBlock;\r\n    mapping(address => uint256) private numberOfRequests;\r\n    uint256 public numberOfRequestsLimit;\r\n\r\n    // ----------------------------------------------------------------------------\r\n    // Events\r\n    // ----------------------------------------------------------------------------\r\n    event StateAccessGranted(address indexed whiteList, uint256 indexed blockNumber);\r\n    event StateAccessDenied(address indexed blackList, uint256 indexed blockNumber);\r\n\r\n    event TransfersEnabled(address indexed whiteList);\r\n    event TransfersDisabled(address indexed blackList);\r\n\r\n    event Transfer(address indexed sender, address indexed recipient, uint256 amount);\r\n    event Mint(address indexed recipient, uint256 amount, uint256 totalToken);\r\n    event Burn(address indexed recipient, uint256 amount, uint256 totalToken);\r\n    event NewTotalSupply(uint256 newTotalSupply);\r\n    event NewTotalOnOtherChain(uint256 newTotalOnOtherChain);\r\n    event NewTotalInPositions(uint256 newTotalOnOtherChain);\r\n    event OperatingRewardMinted(address indexed recipient, uint256 amount);\r\n\r\n    event RewardsChange(address indexed rewardsAddress, uint256 indexed rewardsBasisPoints);\r\n    event LastRewardTime(uint256 indexed rewardsTime);\r\n    event GovernanceChange(address indexed governanceAddress);\r\n    event TokenChange(address indexed tokenAddress);\r\n    event AdministratorChange(address indexed administratorAddress);\r\n    event OracleChange(address indexed oracleContract);\r\n    event MaximumLeverageChange(uint256 maxLeverage);\r\n    event MarketActivated(bytes32 indexed activateMarket);\r\n    event MarketDeActivated(bytes32 indexed deActivateMarket);\r\n    event BridgeChange(address _bridgeAddress);\r\n    event SideChainMerkleRootUpdate(bytes32 indexed sideChainMerkleRoot);\r\n    event NewSideChainOperator(address indexed sideChainOperator);\r\n    event NumberOfRequestsLimitUpdate(uint256 _numberOfRequests);\r\n\r\n    event MainChainWithdrawLimitUpdate(uint256 indexed mainChainWithdrawLimit24);\r\n    event TokenSentToLinkedChain(address _address, uint256 _token, uint256 _totalTokenSent, bytes32 indexed _tokenSentToLinkedChainHash);\r\n    event TransferredTokenClaimed(address _address, uint256 _token);\r\n    event LastWithdrawAt();\r\n    event RollingWithdrawnAmountUpdated(uint256 _last24HoursAmountWithdrawn, uint256 _lastWithdrawLimitReductionTime);\r\n    event WithdrawLimitUpdated(uint256 _amount);\r\n    event InactivityPeriodUpdated(uint256 _periodLength);\r\n    event FastWithdrawsDisabled();\r\n    event NewBridgeNonce(uint256 _transferNonce);\r\n    event Last24HoursAmountWithdrawnReset();\r\n\r\n    event StatePaused(address administrator, bool _paused);\r\n\r\n    event SetAllowance(address indexed sender, address indexed spender, uint256 tokens);\r\n    event SetPosition(bytes32 indexed positionHash,\r\n        address indexed sender,\r\n        bytes32 indexed marketId,\r\n        uint256 timeStamp,\r\n        uint256 longShares,\r\n        uint256 shortShares,\r\n        uint256 meanEntryPrice,\r\n        uint256 meanEntrySpread,\r\n        uint256 meanEntryLeverage,\r\n        uint256 liquidationPrice\r\n    );\r\n    event SetBalance(address indexed account, uint256 balance, bytes32 indexed balanceHash);\r\n    event TokenTransferredToOtherChain(address indexed account, uint256 tokenTransferredToOtherChain, bytes32 indexed transferHash);\r\n\r\n    modifier notPaused {\r\n        require(paused == false, \"MorpherState: Contract paused, aborting\");\r\n        _;\r\n    }\r\n\r\n    modifier onlyPlatform {\r\n        require(stateAccess[msg.sender] == true, \"MorpherState: Only Platform is allowed to execute operation.\");\r\n        _;\r\n    }\r\n\r\n    modifier onlyGovernance {\r\n        require(msg.sender == getGovernance(), \"MorpherState: Calling contract not the Governance Contract. Aborting.\");\r\n        _;\r\n    }\r\n\r\n    modifier onlyAdministrator {\r\n        require(msg.sender == getAdministrator(), \"MorpherState: Caller is not the Administrator. Aborting.\");\r\n        _;\r\n    }\r\n\r\n    modifier onlySideChainOperator {\r\n        require(msg.sender == sideChainOperator, \"MorpherState: Caller is not the Sidechain Operator. Aborting.\");\r\n        _;\r\n    }\r\n\r\n    modifier canTransfer {\r\n        require(getCanTransfer(msg.sender), \"MorpherState: Caller may not transfer token. Aborting.\");\r\n        _;\r\n    }\r\n\r\n    modifier onlyBridge {\r\n        require(msg.sender == getMorpherBridge(), \"MorpherState: Caller is not the Bridge. Aborting.\");\r\n        _;\r\n    }\r\n\r\n    modifier onlyMainChain {\r\n        require(mainChain == true, \"MorpherState: Can only be called on mainchain.\");\r\n        _;\r\n    }\r\n\r\n    modifier onlySideChain {\r\n        require(mainChain == false, \"MorpherState: Can only be called on mainchain.\");\r\n        _;\r\n    }\r\n\r\n    function initialize(bool _mainChain, address _sideChainOperator, address _morpherTreasury) public initializer {\r\n        OwnableUpgradeable.__Ownable_init();\r\n        // @Deployer: Transfer State Ownership to cold storage address after deploying protocol\r\n        mainChain = _mainChain; // true for Ethereum, false for Morpher PoA sidechain\r\n        setLastRewardTime(block.timestamp);\r\n        uint256 _sideChainMint = 575000000 * 10**(DECIMALS);\r\n        uint256 _mainChainMint = 425000000 * 10**(DECIMALS);\r\n\r\n        administrator = owner(); //first set the owner as administrator\r\n        morpherGovernance = owner(); //first set the owner as governance\r\n        \r\n        grantAccess(owner());\r\n        setSideChainOperator(owner());\r\n        if (mainChain == false) { // Create token only on sidechain\r\n            balances[owner()] = _sideChainMint; // Create airdrop and team token on sidechain\r\n            totalToken = _sideChainMint;\r\n            emit Mint(owner(), balanceOf(owner()), _sideChainMint);\r\n            setRewardBasisPoints(0); // Reward is minted on mainchain\r\n            setRewardAddress(address(0));\r\n            setTotalOnOtherChain(_mainChainMint);\r\n        } else {\r\n            balances[owner()] = _mainChainMint; // Create treasury and investor token on mainchain\r\n            totalToken = _mainChainMint;\r\n            emit Mint(owner(), balanceOf(owner()), _mainChainMint);\r\n            setRewardBasisPoints(15000); // 15000 / PRECISION = 0.00015\r\n            setRewardAddress(_morpherTreasury);\r\n            setTotalOnOtherChain(_sideChainMint);\r\n        }\r\n        fastTransfersEnabled = true;\r\n        setNumberOfRequestsLimit(3);\r\n        setMainChainWithdrawLimit(totalSupply / 50);\r\n        setSideChainOperator(_sideChainOperator);\r\n        denyAccess(owner());\r\n\r\n        maximumLeverage = 10*PRECISION; // Leverage precision is 1e8, maximum leverage set to 10 initially\r\n        paused = false;\r\n        mainChainWithdrawLimit24 = 2 * 10**25;   \r\n        inactivityPeriod = 3 days;\r\n    }\r\n\r\n    function someNewFunction() public view returns(string memory) {\r\n        return \"hello proxy\";\r\n    }\r\n\r\n    // ----------------------------------------------------------------------------\r\n    // Setter/Getter functions for market wise exposure\r\n    // ----------------------------------------------------------------------------\r\n\r\n    function getMaxMappingIndex(bytes32 _marketId) public view returns(uint256 _maxMappingIndex) {\r\n        return exposureByMarket[_marketId].maxMappingIndex;\r\n    }\r\n\r\n    function getExposureMappingIndex(bytes32 _marketId, address _address) public view returns(uint256 _mappingIndex) {\r\n        return exposureByMarket[_marketId].index[_address];\r\n    }\r\n\r\n    function getExposureMappingAddress(bytes32 _marketId, uint256 _mappingIndex) public view returns(address _address) {\r\n        return exposureByMarket[_marketId].addy[_mappingIndex];\r\n    }\r\n\r\n    function setMaxMappingIndex(bytes32 _marketId, uint256 _maxMappingIndex) public onlyPlatform {\r\n        exposureByMarket[_marketId].maxMappingIndex = _maxMappingIndex;\r\n    }\r\n\r\n    function setExposureMapping(bytes32 _marketId, address _address, uint256 _index) public onlyPlatform  {\r\n        setExposureMappingIndex(_marketId, _address, _index);\r\n        setExposureMappingAddress(_marketId, _address, _index);\r\n    }\r\n\r\n    function setExposureMappingIndex(bytes32 _marketId, address _address, uint256 _index) public onlyPlatform {\r\n        exposureByMarket[_marketId].index[_address] = _index;\r\n    }\r\n\r\n    function setExposureMappingAddress(bytes32 _marketId, address _address, uint256 _index) public onlyPlatform {\r\n        exposureByMarket[_marketId].addy[_index] = _address;\r\n    }\r\n\r\n    // ----------------------------------------------------------------------------\r\n    // Setter/Getter functions for bridge variables\r\n    // ----------------------------------------------------------------------------\r\n    function setTokenClaimedOnThisChain(address _address, uint256 _token) public onlyBridge {\r\n        tokenClaimedOnThisChain[_address] = _token;\r\n        emit TransferredTokenClaimed(_address, _token);\r\n    }\r\n\r\n    function getTokenClaimedOnThisChain(address _address) public view returns (uint256 _token) {\r\n        return tokenClaimedOnThisChain[_address];\r\n    }\r\n\r\n    function setTokenSentToLinkedChain(address _address, uint256 _token) public onlyBridge {\r\n        tokenSentToLinkedChain[_address] = _token;\r\n        tokenSentToLinkedChainTime[_address] = block.timestamp;\r\n        emit TokenSentToLinkedChain(_address, _token, tokenSentToLinkedChain[_address], getBalanceHash(_address, tokenSentToLinkedChain[_address]));\r\n    }\r\n\r\n    function getTokenSentToLinkedChain(address _address) public view returns (uint256 _token) {\r\n        return tokenSentToLinkedChain[_address];\r\n    }\r\n\r\n    function getTokenSentToLinkedChainTime(address _address) public view returns (uint256 _timeStamp) {\r\n        return tokenSentToLinkedChainTime[_address];\r\n    }\r\n\r\n    function add24HoursWithdrawn(uint256 _amount) public onlyBridge {\r\n        last24HoursAmountWithdrawn = last24HoursAmountWithdrawn + (_amount);\r\n        emit RollingWithdrawnAmountUpdated(last24HoursAmountWithdrawn, lastWithdrawLimitReductionTime);\r\n    }\r\n\r\n    function update24HoursWithdrawLimit(uint256 _amount) public onlyBridge {\r\n        if (last24HoursAmountWithdrawn > _amount) {\r\n            last24HoursAmountWithdrawn = last24HoursAmountWithdrawn - (_amount);\r\n        } else {\r\n            last24HoursAmountWithdrawn = 0;\r\n        }\r\n        lastWithdrawLimitReductionTime = block.timestamp;\r\n        emit RollingWithdrawnAmountUpdated(last24HoursAmountWithdrawn, lastWithdrawLimitReductionTime);\r\n    }\r\n\r\n    function set24HourWithdrawLimit(uint256 _limit) public onlyBridge {\r\n        withdrawLimit24Hours = _limit;\r\n        emit WithdrawLimitUpdated(_limit);\r\n    }\r\n\r\n    function resetLast24HoursAmountWithdrawn() public onlyBridge {\r\n        last24HoursAmountWithdrawn = 0;\r\n        emit Last24HoursAmountWithdrawnReset();\r\n    }\r\n\r\n    function setInactivityPeriod(uint256 _periodLength) public onlyBridge {\r\n        inactivityPeriod = _periodLength;\r\n        emit InactivityPeriodUpdated(_periodLength);\r\n    }\r\n\r\n    function getBridgeNonce() public onlyBridge returns (uint256 _nonce) {\r\n        transferNonce++;\r\n        emit NewBridgeNonce(transferNonce);\r\n        return transferNonce;\r\n    }\r\n\r\n    function disableFastWithdraws() public onlyBridge {\r\n        fastTransfersEnabled = false;\r\n        emit FastWithdrawsDisabled();\r\n    }\r\n\r\n    function setPositionClaimedOnMainChain(bytes32 _positionHash) public onlyBridge {\r\n        positionClaimedOnMainChain[_positionHash] = true;\r\n    }\r\n\r\n    function getPositionClaimedOnMainChain(bytes32 _positionHash) public view returns (bool _alreadyClaimed) {\r\n        return positionClaimedOnMainChain[_positionHash];\r\n    }\r\n\r\n    // ----------------------------------------------------------------------------\r\n    // Setter/Getter functions for spam protection\r\n    // ----------------------------------------------------------------------------\r\n\r\n    function setLastRequestBlock(address _address) public onlyPlatform {\r\n        lastRequestBlock[_address] = block.number;\r\n    }\r\n\r\n    function getLastRequestBlock(address _address) public view returns(uint256 _lastRequestBlock) {\r\n        return lastRequestBlock[_address];\r\n    }\r\n\r\n    function setNumberOfRequests(address _address, uint256 _numberOfRequests) public onlyPlatform {\r\n        numberOfRequests[_address] = _numberOfRequests;\r\n    }\r\n\r\n    function increaseNumberOfRequests(address _address) public onlyPlatform{\r\n        numberOfRequests[_address]++;\r\n    }\r\n\r\n    function getNumberOfRequests(address _address) public view returns(uint256 _numberOfRequests) {\r\n        return numberOfRequests[_address];\r\n    }\r\n\r\n    function setNumberOfRequestsLimit(uint256 _numberOfRequestsLimit) public onlyPlatform {\r\n        numberOfRequestsLimit = _numberOfRequestsLimit;\r\n        emit NumberOfRequestsLimitUpdate(_numberOfRequestsLimit);\r\n    }\r\n\r\n    function getNumberOfRequestsLimit() public view returns (uint256 _numberOfRequestsLimit) {\r\n        return numberOfRequestsLimit;\r\n    }\r\n\r\n    function setMainChainWithdrawLimit(uint256 _mainChainWithdrawLimit24) public onlyGovernance {\r\n        mainChainWithdrawLimit24 = _mainChainWithdrawLimit24;\r\n        emit MainChainWithdrawLimitUpdate(_mainChainWithdrawLimit24);\r\n    }\r\n\r\n    function getMainChainWithdrawLimit() public view returns (uint256 _mainChainWithdrawLimit24) {\r\n        return mainChainWithdrawLimit24;\r\n    }\r\n\r\n    // ----------------------------------------------------------------------------\r\n    // Setter/Getter functions for state access\r\n    // ----------------------------------------------------------------------------\r\n\r\n    function grantAccess(address _address) public onlyAdministrator {\r\n        stateAccess[_address] = true;\r\n        emit StateAccessGranted(_address, block.number);\r\n    }\r\n\r\n    function denyAccess(address _address) public onlyAdministrator {\r\n        stateAccess[_address] = false;\r\n        emit StateAccessDenied(_address, block.number);\r\n    }\r\n\r\n    function getStateAccess(address _address) public view returns(bool _hasAccess) {\r\n        return stateAccess[_address];\r\n    }\r\n\r\n    // ----------------------------------------------------------------------------\r\n    // Setter/Getter functions for addresses that can transfer tokens (sidechain only)\r\n    // ----------------------------------------------------------------------------\r\n\r\n    function enableTransfers(address _address) public onlyAdministrator {\r\n        transferAllowed[_address] = true;\r\n        emit TransfersEnabled(_address);\r\n    }\r\n\r\n    function disableTransfers(address _address) public onlyAdministrator {\r\n        transferAllowed[_address] = false;\r\n        emit TransfersDisabled(_address);\r\n    }\r\n\r\n    function getCanTransfer(address _address) public view returns(bool _hasAccess) {\r\n        return mainChain || transferAllowed[_address];\r\n    }\r\n\r\n    // ----------------------------------------------------------------------------\r\n    // Minting/burning/transfer of token\r\n    // ----------------------------------------------------------------------------\r\n\r\n    function transfer(address _from, address _to, uint256 _token) public onlyPlatform notPaused {\r\n        require(balances[_from] >= _token, \"MorpherState: Not enough token.\");\r\n        balances[_from] = balances[_from] - (_token);\r\n        balances[_to] = balances[_to] + (_token);\r\n        MorpherToken(morpherToken).emitTransfer(_from, _to, _token);\r\n        emit Transfer(_from, _to, _token);\r\n        emit SetBalance(_from, balances[_from], getBalanceHash(_from, balances[_from]));\r\n        emit SetBalance(_to, balances[_to], getBalanceHash(_to, balances[_to]));\r\n    }\r\n\r\n    function mint(address _address, uint256 _token) public onlyPlatform notPaused {\r\n        balances[_address] = balances[_address] + (_token);\r\n        totalToken = totalToken + (_token);\r\n        updateTotalSupply();\r\n        MorpherToken(morpherToken).emitTransfer(address(0), _address, _token);\r\n        emit Mint(_address, _token, totalToken);\r\n        emit SetBalance(_address, balances[_address], getBalanceHash(_address, balances[_address]));\r\n    }\r\n\r\n    function burn(address _address, uint256 _token) public onlyPlatform notPaused {\r\n        require(balances[_address] >= _token, \"MorpherState: Not enough token.\");\r\n        balances[_address] = balances[_address] - (_token);\r\n        totalToken = totalToken - (_token);\r\n        updateTotalSupply();\r\n        MorpherToken(morpherToken).emitTransfer(_address, address(0), _token);\r\n        emit Burn(_address, _token, totalToken);\r\n        emit SetBalance(_address, balances[_address], getBalanceHash(_address, balances[_address]));\r\n    }\r\n\r\n    // ----------------------------------------------------------------------------\r\n    // Setter/Getter functions for balance and token functions (ERC20)\r\n    // ----------------------------------------------------------------------------\r\n    function updateTotalSupply() private {\r\n        totalSupply = totalToken + (totalInPositions) + (totalOnOtherChain);\r\n        emit NewTotalSupply(totalSupply);\r\n    }\r\n\r\n    function setTotalInPositions(uint256 _totalInPositions) public onlyAdministrator {\r\n        totalInPositions = _totalInPositions;\r\n        updateTotalSupply();\r\n        emit NewTotalInPositions(_totalInPositions);\r\n    }\r\n\r\n    function setTotalOnOtherChain(uint256 _newTotalOnOtherChain) public onlySideChainOperator {\r\n        totalOnOtherChain = _newTotalOnOtherChain;\r\n        updateTotalSupply();\r\n        emit NewTotalOnOtherChain(_newTotalOnOtherChain);\r\n    }\r\n\r\n    function balanceOf(address _tokenOwner) public view returns (uint256 balance) {\r\n        return balances[_tokenOwner];\r\n    }\r\n\r\n    function setAllowance(address _from, address _spender, uint256 _tokens) public onlyPlatform {\r\n        allowed[_from][_spender] = _tokens;\r\n        emit SetAllowance(_from, _spender, _tokens);\r\n    }\r\n\r\n    function getAllowance(address _tokenOwner, address spender) public view returns (uint256 remaining) {\r\n        return allowed[_tokenOwner][spender];\r\n    }\r\n\r\n    // ----------------------------------------------------------------------------\r\n    // Setter/Getter functions for platform roles\r\n    // ----------------------------------------------------------------------------\r\n\r\n    function setGovernanceContract(address _newGovernanceContractAddress) public onlyGovernance {\r\n        morpherGovernance = _newGovernanceContractAddress;\r\n        emit GovernanceChange(_newGovernanceContractAddress);\r\n    }\r\n\r\n    function getGovernance() public view returns (address _governanceContract) {\r\n        return morpherGovernance;\r\n    }\r\n\r\n    function setMorpherBridge(address _newBridge) public onlyGovernance {\r\n        morpherBridge = _newBridge;\r\n        emit BridgeChange(_newBridge);\r\n    }\r\n\r\n    function getMorpherBridge() public view returns (address _currentBridge) {\r\n        return morpherBridge;\r\n    }\r\n\r\n    function setOracleContract(address _newOracleContract) public onlyGovernance {\r\n        oracleContract = _newOracleContract;\r\n        emit OracleChange(_newOracleContract);\r\n    }\r\n\r\n    function getOracleContract() public view returns(address) {\r\n        return oracleContract;\r\n    }\r\n\r\n    function setTokenContract(address payable _newTokenContract) public onlyGovernance {\r\n        morpherToken = _newTokenContract;\r\n        emit TokenChange(_newTokenContract);\r\n    }\r\n\r\n    function getTokenContract() public view returns(address) {\r\n        return morpherToken;\r\n    }\r\n\r\n    function setAdministrator(address _newAdministrator) public onlyGovernance {\r\n        administrator = _newAdministrator;\r\n        emit AdministratorChange(_newAdministrator);\r\n    }\r\n\r\n    function getAdministrator() public view returns(address) {\r\n        return administrator;\r\n    }\r\n\r\n    // ----------------------------------------------------------------------------\r\n    // Setter/Getter functions for platform operating rewards\r\n    // ----------------------------------------------------------------------------\r\n\r\n    function setRewardAddress(address _newRewardsAddress) public onlyGovernance {\r\n        morpherRewards = _newRewardsAddress;\r\n        emit RewardsChange(_newRewardsAddress, rewardBasisPoints);\r\n    }\r\n\r\n    function setRewardBasisPoints(uint256 _newRewardBasisPoints) public onlyGovernance {\r\n        if (mainChain == true) {\r\n            require(_newRewardBasisPoints <= 15000, \"MorpherState: Reward basis points need to be less or equal to 15000.\");\r\n        } else {\r\n            require(_newRewardBasisPoints == 0, \"MorpherState: Reward basis points can only be set on Ethereum.\");\r\n        }\r\n        rewardBasisPoints = _newRewardBasisPoints;\r\n        emit RewardsChange(morpherRewards, _newRewardBasisPoints);\r\n    }\r\n\r\n    function setLastRewardTime(uint256 _lastRewardTime) private {\r\n        lastRewardTime = _lastRewardTime;\r\n        emit LastRewardTime(_lastRewardTime);\r\n    }\r\n\r\n    // ----------------------------------------------------------------------------\r\n    // Setter/Getter functions for platform administration\r\n    // ----------------------------------------------------------------------------\r\n\r\n    function activateMarket(bytes32 _activateMarket) public onlyAdministrator {\r\n        marketActive[_activateMarket] = true;\r\n        emit MarketActivated(_activateMarket);\r\n    }\r\n\r\n    function deActivateMarket(bytes32 _deActivateMarket) public onlyAdministrator {\r\n        marketActive[_deActivateMarket] = false;\r\n        emit MarketDeActivated(_deActivateMarket);\r\n    }\r\n\r\n    function getMarketActive(bytes32 _marketId) public view returns(bool _active) {\r\n        return marketActive[_marketId];\r\n    }\r\n\r\n    function setMaximumLeverage(uint256 _newMaximumLeverage) public onlyAdministrator {\r\n        require(_newMaximumLeverage > PRECISION, \"MorpherState: Leverage precision is 1e8\");\r\n        maximumLeverage = _newMaximumLeverage;\r\n        emit MaximumLeverageChange(_newMaximumLeverage);\r\n    }\r\n\r\n    function getMaximumLeverage() public view returns(uint256 _maxLeverage) {\r\n        return maximumLeverage;\r\n    }\r\n\r\n    function pauseState() public onlyAdministrator {\r\n        paused = true;\r\n        emit StatePaused(msg.sender, true);\r\n    }\r\n\r\n    function unPauseState() public onlyAdministrator {\r\n        paused = false;\r\n        emit StatePaused(msg.sender, false);\r\n    }\r\n\r\n    // ----------------------------------------------------------------------------\r\n    // Setter/Getter for side chain state\r\n    // ----------------------------------------------------------------------------\r\n\r\n    function setSideChainMerkleRoot(bytes32 _sideChainMerkleRoot) public onlyBridge {\r\n        sideChainMerkleRoot = _sideChainMerkleRoot;\r\n        sideChainMerkleRootWrittenAtTime = block.timestamp;\r\n        payOperatingReward();\r\n        emit SideChainMerkleRootUpdate(_sideChainMerkleRoot);\r\n    }\r\n\r\n    function getSideChainMerkleRoot() public view returns(bytes32 _sideChainMerkleRoot) {\r\n        return sideChainMerkleRoot;\r\n    }\r\n\r\n    function setSideChainOperator(address _address) public onlyAdministrator {\r\n        sideChainOperator = _address;\r\n        emit NewSideChainOperator(_address);\r\n    }\r\n\r\n    function getSideChainOperator() public view returns (address _address) {\r\n        return sideChainOperator;\r\n    }\r\n\r\n    function getSideChainMerkleRootWrittenAtTime() public view returns(uint256 _sideChainMerkleRoot) {\r\n        return sideChainMerkleRootWrittenAtTime;\r\n    }\r\n\r\n    // ----------------------------------------------------------------------------\r\n    // Setter/Getter functions for portfolio\r\n    // ----------------------------------------------------------------------------\r\n\r\n    function setPosition(\r\n        address _address,\r\n        bytes32 _marketId,\r\n        uint256 _timeStamp,\r\n        uint256 _longShares,\r\n        uint256 _shortShares,\r\n        uint256 _meanEntryPrice,\r\n        uint256 _meanEntrySpread,\r\n        uint256 _meanEntryLeverage,\r\n        uint256 _liquidationPrice\r\n    ) public onlyPlatform {\r\n        portfolio[_address][_marketId].lastUpdated = _timeStamp;\r\n        portfolio[_address][_marketId].longShares = _longShares;\r\n        portfolio[_address][_marketId].shortShares = _shortShares;\r\n        portfolio[_address][_marketId].meanEntryPrice = _meanEntryPrice;\r\n        portfolio[_address][_marketId].meanEntrySpread = _meanEntrySpread;\r\n        portfolio[_address][_marketId].meanEntryLeverage = _meanEntryLeverage;\r\n        portfolio[_address][_marketId].liquidationPrice = _liquidationPrice;\r\n        portfolio[_address][_marketId].positionHash = getPositionHash(\r\n            _address,\r\n            _marketId,\r\n            _timeStamp,\r\n            _longShares,\r\n            _shortShares,\r\n            _meanEntryPrice,\r\n            _meanEntrySpread,\r\n            _meanEntryLeverage,\r\n            _liquidationPrice\r\n        );\r\n        if (_longShares > 0 || _shortShares > 0) {\r\n            addExposureByMarket(_marketId, _address);\r\n        } else {\r\n            deleteExposureByMarket(_marketId, _address);\r\n        }\r\n        emit SetPosition(\r\n            portfolio[_address][_marketId].positionHash,\r\n            _address,\r\n            _marketId,\r\n            _timeStamp,\r\n            _longShares,\r\n            _shortShares,\r\n            _meanEntryPrice,\r\n            _meanEntrySpread,\r\n            _meanEntryLeverage,\r\n            _liquidationPrice\r\n        );\r\n    }\r\n\r\n    function getPosition(\r\n        address _address,\r\n        bytes32 _marketId\r\n    ) public view returns (\r\n        uint256 _longShares,\r\n        uint256 _shortShares,\r\n        uint256 _meanEntryPrice,\r\n        uint256 _meanEntrySpread,\r\n        uint256 _meanEntryLeverage,\r\n        uint256 _liquidationPrice\r\n    ) {\r\n        return(\r\n        portfolio[_address][_marketId].longShares,\r\n        portfolio[_address][_marketId].shortShares,\r\n        portfolio[_address][_marketId].meanEntryPrice,\r\n        portfolio[_address][_marketId].meanEntrySpread,\r\n        portfolio[_address][_marketId].meanEntryLeverage,\r\n        portfolio[_address][_marketId].liquidationPrice\r\n        );\r\n    }\r\n\r\n    function getPositionHash(\r\n        address _address,\r\n        bytes32 _marketId,\r\n        uint256 _timeStamp,\r\n        uint256 _longShares,\r\n        uint256 _shortShares,\r\n        uint256 _meanEntryPrice,\r\n        uint256 _meanEntrySpread,\r\n        uint256 _meanEntryLeverage,\r\n        uint256 _liquidationPrice\r\n    ) public pure returns (bytes32 _hash) {\r\n        return keccak256(\r\n            abi.encodePacked(\r\n                _address,\r\n                _marketId,\r\n                _timeStamp,\r\n                _longShares,\r\n                _shortShares,\r\n                _meanEntryPrice,\r\n                _meanEntrySpread,\r\n                _meanEntryLeverage,\r\n                _liquidationPrice\r\n            )\r\n        );\r\n    }\r\n\r\n    function getBalanceHash(address _address, uint256 _balance) public pure returns (bytes32 _hash) {\r\n        return keccak256(abi.encodePacked(_address, _balance));\r\n    }\r\n\r\n    function getLastUpdated(address _address, bytes32 _marketId) public view returns (uint256 _lastUpdated) {\r\n        return(portfolio[_address][_marketId].lastUpdated);\r\n    }\r\n\r\n    function getLongShares(address _address, bytes32 _marketId) public view returns (uint256 _longShares) {\r\n        return(portfolio[_address][_marketId].longShares);\r\n    }\r\n\r\n    function getShortShares(address _address, bytes32 _marketId) public view returns (uint256 _shortShares) {\r\n        return(portfolio[_address][_marketId].shortShares);\r\n    }\r\n\r\n    function getMeanEntryPrice(address _address, bytes32 _marketId) public view returns (uint256 _meanEntryPrice) {\r\n        return(portfolio[_address][_marketId].meanEntryPrice);\r\n    }\r\n\r\n    function getMeanEntrySpread(address _address, bytes32 _marketId) public view returns (uint256 _meanEntrySpread) {\r\n        return(portfolio[_address][_marketId].meanEntrySpread);\r\n    }\r\n\r\n    function getMeanEntryLeverage(address _address, bytes32 _marketId) public view returns (uint256 _meanEntryLeverage) {\r\n        return(portfolio[_address][_marketId].meanEntryLeverage);\r\n    }\r\n\r\n    function getLiquidationPrice(address _address, bytes32 _marketId) public view returns (uint256 _liquidationPrice) {\r\n        return(portfolio[_address][_marketId].liquidationPrice);\r\n    }\r\n\r\n    // ----------------------------------------------------------------------------\r\n    // Record positions by market by address. Needed for exposure aggregations\r\n    // and spits and dividends.\r\n    // ----------------------------------------------------------------------------\r\n    function addExposureByMarket(bytes32 _symbol, address _address) private {\r\n        // Address must not be already recored\r\n        uint256 _myExposureIndex = getExposureMappingIndex(_symbol, _address);\r\n        if (_myExposureIndex == 0) {\r\n            uint256 _maxMappingIndex = getMaxMappingIndex(_symbol) + (1);\r\n            setMaxMappingIndex(_symbol, _maxMappingIndex);\r\n            setExposureMapping(_symbol, _address, _maxMappingIndex);\r\n        }\r\n    }\r\n\r\n    function deleteExposureByMarket(bytes32 _symbol, address _address) private {\r\n        // Get my index in mapping\r\n        uint256 _myExposureIndex = getExposureMappingIndex(_symbol, _address);\r\n        // Get last element of mapping\r\n        uint256 _lastIndex = getMaxMappingIndex(_symbol);\r\n        address _lastAddress = getExposureMappingAddress(_symbol, _lastIndex);\r\n        // If _myExposureIndex is greater than 0 (i.e. there is an exposure of that address on that market) delete it\r\n        if (_myExposureIndex > 0) {\r\n            // If _myExposureIndex is less than _lastIndex overwrite element at _myExposureIndex with element at _lastIndex in\r\n            // deleted elements position.\r\n            if (_myExposureIndex < _lastIndex) {\r\n                setExposureMappingAddress(_symbol, _lastAddress, _myExposureIndex);\r\n                setExposureMappingIndex(_symbol, _lastAddress, _myExposureIndex);\r\n            }\r\n            // Delete _lastIndex and _lastAddress element and reduce maxExposureIndex\r\n            setExposureMappingAddress(_symbol, address(0), _lastIndex);\r\n            setExposureMappingIndex(_symbol, _address, 0);\r\n            // Shouldn't happen, but check that not empty\r\n            if (_lastIndex > 0) {\r\n                setMaxMappingIndex(_symbol, _lastIndex - (1));\r\n            }\r\n        }\r\n    }\r\n\r\n    // ----------------------------------------------------------------------------\r\n    // Calculate and send operating reward\r\n    // Every 24 hours the protocol mints rewardBasisPoints/(PRECISION) percent of the total\r\n    // supply as reward for the protocol operator. The amount can not exceed 0.015% per\r\n    // day.\r\n    // ----------------------------------------------------------------------------\r\n\r\n    function payOperatingReward() public onlyMainChain {\r\n        if (block.timestamp > lastRewardTime + (REWARDPERIOD)) {\r\n            uint256 _reward = totalSupply * (rewardBasisPoints) / (PRECISION);\r\n            setLastRewardTime(lastRewardTime + (REWARDPERIOD));\r\n            mint(morpherRewards, _reward);\r\n            emit OperatingRewardMinted(morpherRewards, _reward);\r\n        }\r\n    }\r\n}\r\n",
  "sourcePath": "/home/thomas/MorpherProtocol/contracts/MorpherState.sol",
  "compiler": {
    "name": "solc",
    "version": "0.8.11+commit.d7f03943.Emscripten.clang"
  },
  "schemaVersion": "3.4.5",
  "updatedAt": "2022-03-03T15:07:38.942Z",
  "networkType": "ethereum",
  "devdoc": {
    "kind": "dev",
    "methods": {
      "owner()": {
        "details": "Returns the address of the current owner."
      },
      "renounceOwnership()": {
        "details": "Leaves the contract without owner. It will not be possible to call `onlyOwner` functions anymore. Can only be called by the current owner. NOTE: Renouncing ownership will leave the contract without an owner, thereby removing any functionality that is only available to the owner."
      },
      "transferOwnership(address)": {
        "details": "Transfers ownership of the contract to a new account (`newOwner`). Can only be called by the current owner."
      }
    },
    "version": 1
  },
  "userdoc": {
    "kind": "user",
    "methods": {},
    "version": 1
  }
}