{
  "contractName": "MorpherTokenPaymaster",
  "abi": [
    {
      "inputs": [
        {
          "internalType": "contract IERC20Metadata",
          "name": "_token",
          "type": "address"
        },
        {
          "internalType": "contract IEntryPoint",
          "name": "_entryPoint",
          "type": "address"
        },
        {
          "internalType": "contract IERC20",
          "name": "_wrappedNative",
          "type": "address"
        },
        {
          "internalType": "contract ISwapRouter",
          "name": "_uniswap",
          "type": "address"
        },
        {
          "components": [
            {
              "internalType": "uint256",
              "name": "priceMarkup",
              "type": "uint256"
            },
            {
              "internalType": "uint128",
              "name": "minEntryPointBalance",
              "type": "uint128"
            },
            {
              "internalType": "uint48",
              "name": "refundPostopCost",
              "type": "uint48"
            },
            {
              "internalType": "uint48",
              "name": "priceMaxAge",
              "type": "uint48"
            }
          ],
          "internalType": "struct MorpherTokenPaymaster.TokenPaymasterConfig",
          "name": "_tokenPaymasterConfig",
          "type": "tuple"
        },
        {
          "components": [
            {
              "internalType": "uint48",
              "name": "cacheTimeToLive",
              "type": "uint48"
            },
            {
              "internalType": "contract IOracle",
              "name": "tokenOracle",
              "type": "address"
            },
            {
              "internalType": "contract IOracle",
              "name": "nativeOracle",
              "type": "address"
            },
            {
              "internalType": "bool",
              "name": "tokenToNativeOracle",
              "type": "bool"
            },
            {
              "internalType": "bool",
              "name": "tokenOracleReverse",
              "type": "bool"
            },
            {
              "internalType": "bool",
              "name": "nativeOracleReverse",
              "type": "bool"
            },
            {
              "internalType": "uint48",
              "name": "priceUpdateThreshold",
              "type": "uint48"
            }
          ],
          "internalType": "struct OracleHelper.OracleHelperConfig",
          "name": "_oracleHelperConfig",
          "type": "tuple"
        },
        {
          "components": [
            {
              "internalType": "uint256",
              "name": "minSwapAmount",
              "type": "uint256"
            },
            {
              "internalType": "uint24",
              "name": "uniswapPoolFee",
              "type": "uint24"
            },
            {
              "internalType": "uint8",
              "name": "slippage",
              "type": "uint8"
            }
          ],
          "internalType": "struct UniswapHelper.UniswapHelperConfig",
          "name": "_uniswapHelperConfig",
          "type": "tuple"
        },
        {
          "internalType": "address",
          "name": "_owner",
          "type": "address"
        }
      ],
      "stateMutability": "nonpayable",
      "type": "constructor"
    },
    {
      "anonymous": false,
      "inputs": [
        {
          "components": [
            {
              "internalType": "uint256",
              "name": "priceMarkup",
              "type": "uint256"
            },
            {
              "internalType": "uint128",
              "name": "minEntryPointBalance",
              "type": "uint128"
            },
            {
              "internalType": "uint48",
              "name": "refundPostopCost",
              "type": "uint48"
            },
            {
              "internalType": "uint48",
              "name": "priceMaxAge",
              "type": "uint48"
            }
          ],
          "indexed": false,
          "internalType": "struct MorpherTokenPaymaster.TokenPaymasterConfig",
          "name": "tokenPaymasterConfig",
          "type": "tuple"
        }
      ],
      "name": "ConfigUpdated",
      "type": "event"
    },
    {
      "anonymous": false,
      "inputs": [
        {
          "indexed": true,
          "internalType": "address",
          "name": "previousOwner",
          "type": "address"
        },
        {
          "indexed": true,
          "internalType": "address",
          "name": "newOwner",
          "type": "address"
        }
      ],
      "name": "OwnershipTransferred",
      "type": "event"
    },
    {
      "anonymous": false,
      "inputs": [
        {
          "indexed": true,
          "internalType": "address",
          "name": "sender",
          "type": "address"
        },
        {
          "indexed": false,
          "internalType": "uint256",
          "name": "value",
          "type": "uint256"
        }
      ],
      "name": "Received",
      "type": "event"
    },
    {
      "anonymous": false,
      "inputs": [
        {
          "indexed": false,
          "internalType": "uint256",
          "name": "currentPrice",
          "type": "uint256"
        },
        {
          "indexed": false,
          "internalType": "uint256",
          "name": "previousPrice",
          "type": "uint256"
        },
        {
          "indexed": false,
          "internalType": "uint256",
          "name": "cachedPriceTimestamp",
          "type": "uint256"
        }
      ],
      "name": "TokenPriceUpdated",
      "type": "event"
    },
    {
      "anonymous": false,
      "inputs": [
        {
          "indexed": false,
          "internalType": "address",
          "name": "tokenIn",
          "type": "address"
        },
        {
          "indexed": false,
          "internalType": "address",
          "name": "tokenOut",
          "type": "address"
        },
        {
          "indexed": false,
          "internalType": "uint256",
          "name": "amountIn",
          "type": "uint256"
        },
        {
          "indexed": false,
          "internalType": "uint256",
          "name": "amountOutMin",
          "type": "uint256"
        }
      ],
      "name": "UniswapReverted",
      "type": "event"
    },
    {
      "anonymous": false,
      "inputs": [
        {
          "indexed": true,
          "internalType": "address",
          "name": "user",
          "type": "address"
        },
        {
          "indexed": false,
          "internalType": "uint256",
          "name": "actualTokenCharge",
          "type": "uint256"
        },
        {
          "indexed": false,
          "internalType": "uint256",
          "name": "actualGasCost",
          "type": "uint256"
        },
        {
          "indexed": false,
          "internalType": "uint256",
          "name": "actualTokenPrice",
          "type": "uint256"
        }
      ],
      "name": "UserOperationSponsored",
      "type": "event"
    },
    {
      "inputs": [
        {
          "internalType": "uint32",
          "name": "unstakeDelaySec",
          "type": "uint32"
        }
      ],
      "name": "addStake",
      "outputs": [],
      "stateMutability": "payable",
      "type": "function"
    },
    {
      "inputs": [],
      "name": "cachedPrice",
      "outputs": [
        {
          "internalType": "uint256",
          "name": "",
          "type": "uint256"
        }
      ],
      "stateMutability": "view",
      "type": "function"
    },
    {
      "inputs": [],
      "name": "cachedPriceTimestamp",
      "outputs": [
        {
          "internalType": "uint48",
          "name": "",
          "type": "uint48"
        }
      ],
      "stateMutability": "view",
      "type": "function"
    },
    {
      "inputs": [],
      "name": "deposit",
      "outputs": [],
      "stateMutability": "payable",
      "type": "function"
    },
    {
      "inputs": [],
      "name": "entryPoint",
      "outputs": [
        {
          "internalType": "contract IEntryPoint",
          "name": "",
          "type": "address"
        }
      ],
      "stateMutability": "view",
      "type": "function"
    },
    {
      "inputs": [],
      "name": "getDeposit",
      "outputs": [
        {
          "internalType": "uint256",
          "name": "",
          "type": "uint256"
        }
      ],
      "stateMutability": "view",
      "type": "function"
    },
    {
      "inputs": [],
      "name": "owner",
      "outputs": [
        {
          "internalType": "address",
          "name": "",
          "type": "address"
        }
      ],
      "stateMutability": "view",
      "type": "function"
    },
    {
      "inputs": [
        {
          "internalType": "enum IPaymaster.PostOpMode",
          "name": "mode",
          "type": "uint8"
        },
        {
          "internalType": "bytes",
          "name": "context",
          "type": "bytes"
        },
        {
          "internalType": "uint256",
          "name": "actualGasCost",
          "type": "uint256"
        }
      ],
      "name": "postOp",
      "outputs": [],
      "stateMutability": "nonpayable",
      "type": "function"
    },
    {
      "inputs": [],
      "name": "renounceOwnership",
      "outputs": [],
      "stateMutability": "nonpayable",
      "type": "function"
    },
    {
      "inputs": [],
      "name": "token",
      "outputs": [
        {
          "internalType": "contract IERC20",
          "name": "",
          "type": "address"
        }
      ],
      "stateMutability": "view",
      "type": "function"
    },
    {
      "inputs": [
        {
          "internalType": "uint256",
          "name": "amount",
          "type": "uint256"
        },
        {
          "internalType": "uint256",
          "name": "price",
          "type": "uint256"
        }
      ],
      "name": "tokenToWei",
      "outputs": [
        {
          "internalType": "uint256",
          "name": "",
          "type": "uint256"
        }
      ],
      "stateMutability": "pure",
      "type": "function"
    },
    {
      "inputs": [
        {
          "internalType": "address",
          "name": "newOwner",
          "type": "address"
        }
      ],
      "name": "transferOwnership",
      "outputs": [],
      "stateMutability": "nonpayable",
      "type": "function"
    },
    {
      "inputs": [],
      "name": "uniswap",
      "outputs": [
        {
          "internalType": "contract ISwapRouter",
          "name": "",
          "type": "address"
        }
      ],
      "stateMutability": "view",
      "type": "function"
    },
    {
      "inputs": [],
      "name": "unlockStake",
      "outputs": [],
      "stateMutability": "nonpayable",
      "type": "function"
    },
    {
      "inputs": [
        {
          "internalType": "bool",
          "name": "force",
          "type": "bool"
        }
      ],
      "name": "updateCachedPrice",
      "outputs": [
        {
          "internalType": "uint256",
          "name": "newPrice",
          "type": "uint256"
        }
      ],
      "stateMutability": "nonpayable",
      "type": "function"
    },
    {
      "inputs": [
        {
          "components": [
            {
              "internalType": "address",
              "name": "sender",
              "type": "address"
            },
            {
              "internalType": "uint256",
              "name": "nonce",
              "type": "uint256"
            },
            {
              "internalType": "bytes",
              "name": "initCode",
              "type": "bytes"
            },
            {
              "internalType": "bytes",
              "name": "callData",
              "type": "bytes"
            },
            {
              "internalType": "uint256",
              "name": "callGasLimit",
              "type": "uint256"
            },
            {
              "internalType": "uint256",
              "name": "verificationGasLimit",
              "type": "uint256"
            },
            {
              "internalType": "uint256",
              "name": "preVerificationGas",
              "type": "uint256"
            },
            {
              "internalType": "uint256",
              "name": "maxFeePerGas",
              "type": "uint256"
            },
            {
              "internalType": "uint256",
              "name": "maxPriorityFeePerGas",
              "type": "uint256"
            },
            {
              "internalType": "bytes",
              "name": "paymasterAndData",
              "type": "bytes"
            },
            {
              "internalType": "bytes",
              "name": "signature",
              "type": "bytes"
            }
          ],
          "internalType": "struct UserOperation",
          "name": "userOp",
          "type": "tuple"
        },
        {
          "internalType": "bytes32",
          "name": "userOpHash",
          "type": "bytes32"
        },
        {
          "internalType": "uint256",
          "name": "maxCost",
          "type": "uint256"
        }
      ],
      "name": "validatePaymasterUserOp",
      "outputs": [
        {
          "internalType": "bytes",
          "name": "context",
          "type": "bytes"
        },
        {
          "internalType": "uint256",
          "name": "validationData",
          "type": "uint256"
        }
      ],
      "stateMutability": "nonpayable",
      "type": "function"
    },
    {
      "inputs": [
        {
          "internalType": "uint256",
          "name": "amount",
          "type": "uint256"
        },
        {
          "internalType": "uint256",
          "name": "price",
          "type": "uint256"
        }
      ],
      "name": "weiToToken",
      "outputs": [
        {
          "internalType": "uint256",
          "name": "",
          "type": "uint256"
        }
      ],
      "stateMutability": "pure",
      "type": "function"
    },
    {
      "inputs": [
        {
          "internalType": "address payable",
          "name": "withdrawAddress",
          "type": "address"
        }
      ],
      "name": "withdrawStake",
      "outputs": [],
      "stateMutability": "nonpayable",
      "type": "function"
    },
    {
      "inputs": [
        {
          "internalType": "address payable",
          "name": "withdrawAddress",
          "type": "address"
        },
        {
          "internalType": "uint256",
          "name": "amount",
          "type": "uint256"
        }
      ],
      "name": "withdrawTo",
      "outputs": [],
      "stateMutability": "nonpayable",
      "type": "function"
    },
    {
      "inputs": [],
      "name": "wrappedNative",
      "outputs": [
        {
          "internalType": "contract IERC20",
          "name": "",
          "type": "address"
        }
      ],
      "stateMutability": "view",
      "type": "function"
    },
    {
      "stateMutability": "payable",
      "type": "receive"
    },
    {
      "inputs": [
        {
          "components": [
            {
              "internalType": "uint256",
              "name": "priceMarkup",
              "type": "uint256"
            },
            {
              "internalType": "uint128",
              "name": "minEntryPointBalance",
              "type": "uint128"
            },
            {
              "internalType": "uint48",
              "name": "refundPostopCost",
              "type": "uint48"
            },
            {
              "internalType": "uint48",
              "name": "priceMaxAge",
              "type": "uint48"
            }
          ],
          "internalType": "struct MorpherTokenPaymaster.TokenPaymasterConfig",
          "name": "_tokenPaymasterConfig",
          "type": "tuple"
        }
      ],
      "name": "setTokenPaymasterConfig",
      "outputs": [],
      "stateMutability": "nonpayable",
      "type": "function"
    },
    {
      "inputs": [
        {
          "components": [
            {
              "internalType": "uint256",
              "name": "minSwapAmount",
              "type": "uint256"
            },
            {
              "internalType": "uint24",
              "name": "uniswapPoolFee",
              "type": "uint24"
            },
            {
              "internalType": "uint8",
              "name": "slippage",
              "type": "uint8"
            }
          ],
          "internalType": "struct UniswapHelper.UniswapHelperConfig",
          "name": "_uniswapHelperConfig",
          "type": "tuple"
        }
      ],
      "name": "setUniswapConfiguration",
      "outputs": [],
      "stateMutability": "nonpayable",
      "type": "function"
    },
    {
      "inputs": [
        {
          "internalType": "address",
          "name": "to",
          "type": "address"
        },
        {
          "internalType": "uint256",
          "name": "amount",
          "type": "uint256"
        }
      ],
      "name": "withdrawToken",
      "outputs": [],
      "stateMutability": "nonpayable",
      "type": "function"
    }
  ],
  "bytecode": "0x61012060405234801562000011575f80fd5b5060405162002bc838038062002bc883398101604081905262000034916200083f565b828887878b6001600160a01b031663313ce5676040518163ffffffff1660e01b8152600401602060405180830381865afa15801562000075573d5f803e3d5ffd5b505050506040513d601f19601f820116820180604052508101906200009b91906200094e565b620000a890600a62000a80565b868c620000b533620001c9565b6001600160a01b0390811660805260405163095ea7b360e01b815284821660048201525f1960248201529086169063095ea7b3906044016020604051808303815f875af115801562000109573d5f803e3d5ffd5b505050506040513d601f19601f820116820180604052508101906200012f919062000a90565b506001600160a01b0380861660c05284811660e052831660a0526101008290526200018d81805160015560208101516002805460409093015160ff1663010000000263ffffffff1990931662ffffff90921691909117919091179055565b50505f1960035550620001a4915082905062000218565b50620001b084620003d1565b620001bb816200059d565b505050505050505062000ac6565b5f80546001600160a01b038381166001600160a01b0319831681178455604051919092169283917f8be0079c531659141344cd1fd0a4f28419497f9722a3daafe3b4186f6b6457e09190a35050565b805160058054602084015165ffffffffffff9384166001600160d01b03199092169190911766010000000000006001600160a01b0392831602179091556040830151600680546060860151608087015160a088015160c0890151959096166001600160a81b031990931692909217600160a01b911515919091021761ffff60a81b1916600160a81b9115159190910260ff60b01b191617600160b01b931515939093029290921765ffffffffffff60b81b1916600160b81b91909316908102929092179055620f42401015620003355760405162461bcd60e51b815260206004820152601e60248201527f54504d3a20757064617465207468726573686f6c6420746f6f2068696768000060448201526064015b60405180910390fd5b60055f0160069054906101000a90046001600160a01b03166001600160a01b031663313ce5676040518163ffffffff1660e01b8152600401602060405180830381865afa15801562000389573d5f803e3d5ffd5b505050506040513d601f19601f82011682018060405250810190620003af91906200094e565b620003bc90600a62000a80565b6001600160801b0316600160801b1760075550565b5f546001600160a01b031633146200041a5760405162461bcd60e51b815260206004820181905260248201525f8051602062002ba883398151915260448201526064016200032c565b620004326a52b7d2dcc80cd2e4000000600262000aac565b81511115620004845760405162461bcd60e51b815260206004820152601a60248201527f54504d3a207072696365206d61726b757020746f6f206869676800000000000060448201526064016200032c565b80516a52b7d2dcc80cd2e40000001115620004e25760405162461bcd60e51b815260206004820152601960248201527f54504d3a207072696365206d61726b757020746f6f206c6f770000000000000060448201526064016200032c565b805160088190556020808301805160098054604080880180516060808b01805165ffffffffffff908116600160b01b0265ffffffffffff60b01b19948216600160801b026001600160b01b03199098166001600160801b039a8b161797909717939093169590951790955582519889529551909416958701959095529151831685850152905190911690830152517fcd938817f1c47094d43be3d07e8c67e11766db2e11a2b4376e7ee937b15793a29181900360800190a150565b5f546001600160a01b03163314620005e65760405162461bcd60e51b815260206004820181905260248201525f8051602062002ba883398151915260448201526064016200032c565b6001600160a01b0381166200064d5760405162461bcd60e51b815260206004820152602660248201527f4f776e61626c653a206e6577206f776e657220697320746865207a65726f206160448201526564647265737360d01b60648201526084016200032c565b6200065881620001c9565b50565b6001600160a01b038116811462000658575f80fd5b604051608081016001600160401b03811182821017156200069f57634e487b7160e01b5f52604160045260245ffd5b60405290565b805165ffffffffffff81168114620006bb575f80fd5b919050565b80518015158114620006bb575f80fd5b5f60e08284031215620006e1575f80fd5b60405160e081016001600160401b03811182821017156200071057634e487b7160e01b5f52604160045260245ffd5b6040529050806200072183620006a5565b8152602083015162000733816200065b565b6020820152604083015162000748816200065b565b60408201526200075b60608401620006c0565b60608201526200076e60808401620006c0565b60808201526200078160a08401620006c0565b60a08201526200079460c08401620006a5565b60c08201525092915050565b805160ff81168114620006bb575f80fd5b5f60608284031215620007c2575f80fd5b604051606081016001600160401b0381118282101715620007f157634e487b7160e01b5f52604160045260245ffd5b806040525080915082518152602083015162ffffff8116811462000813575f80fd5b60208201526200082660408401620007a0565b60408201525092915050565b8051620006bb816200065b565b5f805f805f805f80888a0361026081121562000859575f80fd5b895162000866816200065b565b60208b015190995062000879816200065b565b60408b01519098506200088c816200065b565b60608b01519097506200089f816200065b565b95506080607f1982011215620008b3575f80fd5b50620008be62000670565b60808a0151815260a08a01516001600160801b0381168114620008df575f80fd5b6020820152620008f260c08b01620006a5565b60408201526200090560e08b01620006a5565b606082015293506200091c8a6101008b01620006d0565b92506200092e8a6101e08b01620007b1565b91506200093f6102408a0162000832565b90509295985092959890939650565b5f602082840312156200095f575f80fd5b6200096a82620007a0565b9392505050565b634e487b7160e01b5f52601160045260245ffd5b600181815b80851115620009c557815f1904821115620009a957620009a962000971565b80851615620009b757918102915b93841c93908002906200098a565b509250929050565b5f82620009dd5750600162000a7a565b81620009eb57505f62000a7a565b816001811462000a04576002811462000a0f5762000a2f565b600191505062000a7a565b60ff84111562000a235762000a2362000971565b50506001821b62000a7a565b5060208310610133831016604e8410600b841016171562000a54575081810a62000a7a565b62000a60838362000985565b805f190482111562000a765762000a7662000971565b0290505b92915050565b5f6200096a60ff841683620009cd565b5f6020828403121562000aa1575f80fd5b6200096a82620006c0565b808202811582820484141762000a7a5762000a7a62000971565b60805160a05160c05160e0516101005161203062000b785f395f50505f81816103c3015261172201525f81816104760152818161081c0152818161114901528181611183015281816112e2015261156d01525f81816101c401528181611775015261192901525f81816102ed015281816104e401528181610598015281816108f4015281816109a401528181610a1601528181610aa10152818161105e015281816114e001526115b201526120305ff3fe60806040526004361061013f575f3560e01c8063bb9fe6bf116100b3578063eb6d3a111161006d578063eb6d3a11146103b2578063f14d64ed146103e5578063f2fde38b14610404578063f465c77e14610423578063f60fdcb314610450578063fc0c546a14610465575f80fd5b8063bb9fe6bf1461030f578063c23a5cea14610323578063c399ec8814610342578063d0e30db014610356578063d7a23b3c1461035e578063e1d8153c1461037d575f80fd5b80637c986aac116101045780637c986aac146102445780638da5cb5b146102635780639e281a981461027f578063a0840fa71461029e578063a9a23409146102bd578063b0d691fe146102dc575f80fd5b80630396cb601461017f578063205c2878146101945780632681f7e4146101b35780633ba9290f14610203578063715018a614610230575f80fd5b3661017b5760405134815233907f88a5966d370b9919b20f3e2c13ff65706f196a4e32cc2c12bf57088f885258749060200160405180910390a2005b5f80fd5b61019261018d366004611aa5565b610498565b005b34801561019f575f80fd5b506101926101ae366004611adc565b610549565b3480156101be575f80fd5b506101e67f000000000000000000000000000000000000000000000000000000000000000081565b6040516001600160a01b0390911681526020015b60405180910390f35b34801561020e575f80fd5b5061022261021d366004611b13565b6105d9565b6040519081526020016101fa565b34801561023b575f80fd5b50610192610790565b34801561024f575f80fd5b5061022261025e366004611b2e565b6107c4565b34801561026e575f80fd5b505f546001600160a01b03166101e6565b34801561028a575f80fd5b50610192610299366004611adc565b6107ee565b3480156102a9575f80fd5b506101926102b8366004611b4e565b610846565b3480156102c8575f80fd5b506101926102d7366004611bcd565b6108af565b3480156102e7575f80fd5b506101e67f000000000000000000000000000000000000000000000000000000000000000081565b34801561031a575f80fd5b506101926108c9565b34801561032e575f80fd5b5061019261033d366004611c54565b61095c565b34801561034d575f80fd5b506102226109ff565b610192610a8c565b348015610369575f80fd5b50610222610378366004611b2e565b610aec565b348015610388575f80fd5b5060045461039b9065ffffffffffff1681565b60405165ffffffffffff90911681526020016101fa565b3480156103bd575f80fd5b506101e67f000000000000000000000000000000000000000000000000000000000000000081565b3480156103f0575f80fd5b506101926103ff366004611c89565b610b03565b34801561040f575f80fd5b5061019261041e366004611c54565b610ca9565b34801561042e575f80fd5b5061044261043d366004611d16565b610d40565b6040516101fa929190611db2565b34801561045b575f80fd5b5061022260035481565b348015610470575f80fd5b506101e67f000000000000000000000000000000000000000000000000000000000000000081565b5f546001600160a01b031633146104ca5760405162461bcd60e51b81526004016104c190611dd3565b60405180910390fd5b604051621cb65b60e51b815263ffffffff821660048201527f00000000000000000000000000000000000000000000000000000000000000006001600160a01b031690630396cb609034906024015f604051808303818588803b15801561052f575f80fd5b505af1158015610541573d5f803e3d5ffd5b505050505050565b5f546001600160a01b031633146105725760405162461bcd60e51b81526004016104c190611dd3565b60405163040b850f60e31b81526001600160a01b038381166004830152602482018390527f0000000000000000000000000000000000000000000000000000000000000000169063205c2878906044015f604051808303815f87803b15801561052f575f80fd5b6005546004545f9165ffffffffffff9081169183916105f9911642611e1c565b9050831580156106095750818111155b1561061957505060035492915050565b60065460055460035465ffffffffffff600160b81b840416926001600160a01b03660100000000000090930483169216905f61065484610d62565b600654909150600190600160a01b900460ff166106775761067484610d62565b90505b6006545f9061069d908490849060ff600160a81b8204811691600160b01b900416610ed8565b90505f846106b66a52b7d2dcc80cd2e400000084611e2f565b6106c09190611e5a565b90505f8c806106e257506106df896a52b7d2dcc80cd2e4000000611e79565b82115b8061070057506106fd896a52b7d2dcc80cd2e4000000611e1c565b82105b9050806107185750939b9a5050505050505050505050565b60038390556004805465ffffffffffff19164265ffffffffffff16908117909155604080518581526020810189905290810191909152929586937ed4fe314618b73a96886b87817a53a5ed51433b0234c85a5e9dafe2cb7b88429060600160405180910390a150949c9b505050505050505050505050565b5f546001600160a01b031633146107b95760405162461bcd60e51b81526004016104c190611dd3565b6107c25f610f9c565b565b5f816107db6a52b7d2dcc80cd2e400000085611e2f565b6107e59190611e5a565b90505b92915050565b5f546001600160a01b031633146108175760405162461bcd60e51b81526004016104c190611dd3565b6108427f00000000000000000000000000000000000000000000000000000000000000008383610feb565b5050565b5f546001600160a01b0316331461086f5760405162461bcd60e51b81526004016104c190611dd3565b6108ac81805160015560208101516002805460409093015160ff1663010000000263ffffffff1990931662ffffff90921691909117919091179055565b50565b6108b7611053565b6108c3848484846110c3565b50505050565b5f546001600160a01b031633146108f25760405162461bcd60e51b81526004016104c190611dd3565b7f00000000000000000000000000000000000000000000000000000000000000006001600160a01b031663bb9fe6bf6040518163ffffffff1660e01b81526004015f604051808303815f87803b15801561094a575f80fd5b505af11580156108c3573d5f803e3d5ffd5b5f546001600160a01b031633146109855760405162461bcd60e51b81526004016104c190611dd3565b60405163611d2e7560e11b81526001600160a01b0382811660048301527f0000000000000000000000000000000000000000000000000000000000000000169063c23a5cea906024015b5f604051808303815f87803b1580156109e6575f80fd5b505af11580156109f8573d5f803e3d5ffd5b5050505050565b6040516370a0823160e01b81523060048201525f907f00000000000000000000000000000000000000000000000000000000000000006001600160a01b0316906370a0823190602401602060405180830381865afa158015610a63573d5f803e3d5ffd5b505050506040513d601f19601f82011682018060405250810190610a879190611e8c565b905090565b60405163b760faf960e01b81523060048201527f00000000000000000000000000000000000000000000000000000000000000006001600160a01b03169063b760faf99034906024015f604051808303818588803b1580156109e6575f80fd5b5f6a52b7d2dcc80cd2e40000006107db8385611e2f565b5f546001600160a01b03163314610b2c5760405162461bcd60e51b81526004016104c190611dd3565b610b426a52b7d2dcc80cd2e40000006002611e2f565b81511115610b925760405162461bcd60e51b815260206004820152601a60248201527f54504d3a207072696365206d61726b757020746f6f206869676800000000000060448201526064016104c1565b80516a52b7d2dcc80cd2e40000001115610bee5760405162461bcd60e51b815260206004820152601960248201527f54504d3a207072696365206d61726b757020746f6f206c6f770000000000000060448201526064016104c1565b805160088190556020808301805160098054604080880180516060808b01805165ffffffffffff908116600160b01b0265ffffffffffff60b01b19948216600160801b026001600160b01b03199098166001600160801b039a8b161797909717939093169590951790955582519889529551909416958701959095529151831685850152905190911690830152517fcd938817f1c47094d43be3d07e8c67e11766db2e11a2b4376e7ee937b15793a29181900360800190a150565b5f546001600160a01b03163314610cd25760405162461bcd60e51b81526004016104c190611dd3565b6001600160a01b038116610d375760405162461bcd60e51b815260206004820152602660248201527f4f776e61626c653a206e6577206f776e657220697320746865207a65726f206160448201526564647265737360d01b60648201526084016104c1565b6108ac81610f9c565b60605f610d4b611053565b610d56858585611211565b91509150935093915050565b5f805f805f856001600160a01b031663feaf968c6040518163ffffffff1660e01b815260040160a060405180830381865afa158015610da3573d5f803e3d5ffd5b505050506040513d601f19601f82011682018060405250810190610dc79190611ebc565b9450945050935093505f8313610e1f5760405162461bcd60e51b815260206004820152601960248201527f54504d3a20436861696e6c696e6b207072696365203c3d20300000000000000060448201526064016104c1565b610e2c6202a30042611e1c565b821015610e735760405162461bcd60e51b81526020600482015260156024820152741514134e88125b98dbdb5c1b195d19481c9bdd5b99605a1b60448201526064016104c1565b8369ffffffffffffffffffff168169ffffffffffffffffffff161015610ece5760405162461bcd60e51b815260206004820152601060248201526f54504d3a205374616c6520707269636560801b60448201526064016104c1565b5090949350505050565b5f8215610f13576007548590610f02906001600160801b03166a52b7d2dcc80cd2e4000000611e2f565b610f0c9190611e5a565b9450610f41565b6007546001600160801b0316610f34866a52b7d2dcc80cd2e4000000611e2f565b610f3e9190611e5a565b94505b8115610f7557600754600160801b90046001600160801b0316610f648686611e2f565b610f6e9190611e5a565b9050610f94565b6007548490610f6490600160801b90046001600160801b031687611e2f565b949350505050565b5f80546001600160a01b038381166001600160a01b0319831681178455604051919092169283917f8be0079c531659141344cd1fd0a4f28419497f9722a3daafe3b4186f6b6457e09190a35050565b6040516001600160a01b03831660248201526044810182905261104e90849063a9059cbb60e01b906064015b60408051601f198184030181529190526020810180516001600160e01b03166001600160e01b03199093169290921790915261139e565b505050565b336001600160a01b037f000000000000000000000000000000000000000000000000000000000000000016146107c25760405162461bcd60e51b815260206004820152601560248201527414d95b99195c881b9bdd08115b9d1c9e541bda5b9d605a1b60448201526064016104c1565b6008545f8080806110d687890189611f08565b93509350935093505f6110e9848461146f565b90505f6110f55f6105d9565b90505f876a52b7d2dcc80cd2e400000083028161111457611114611e46565b6009549190049150600160801b900465ffffffffffff16830289015f61113a82846107c4565b905080891115611176576111717f000000000000000000000000000000000000000000000000000000000000000087838c03610feb565b6111ac565b808910156111ac576111ac7f000000000000000000000000000000000000000000000000000000000000000087308c8503611491565b60408051828152602081018d90529081018590526001600160a01b038716907f46caa0511cf037f06f57a0bf273a2ff04229f5b12fb04675234a6cbe2e7f1a899060600160405180910390a2611201846114c9565b5050505050505050505050505050565b6008546060905f9081601461122a610120890189611f46565b9050039050805f148061123d5750806020145b6112895760405162461bcd60e51b815260206004820152601860248201527f54504d3a20696e76616c69642064617461206c656e677468000000000000000060448201526064016104c1565b60095465ffffffffffff600160801b9091041660e08801350285016112ad5f6105d9565b505f836a52b7d2dcc80cd2e400000060035402816112cd576112cd611e46565b0490505f6112db83836107c4565b90506113157f000000000000000000000000000000000000000000000000000000000000000061130e60208d018d611c54565b3084611491565b8060e08b01356101008c013561132e60208e018e611c54565b60408051602081019590955284019290925260608301526001600160a01b0316608082015260a00160408051808303601f1901815291905260095460045491985061138f915f91600160b01b900465ffffffffffff90811691160181611619565b95505050505050935093915050565b5f6113f2826040518060400160405280602081526020017f5361666545524332303a206c6f772d6c6576656c2063616c6c206661696c6564815250856001600160a01b03166116519092919063ffffffff16565b80519091501561104e57808060200190518101906114109190611f90565b61104e5760405162461bcd60e51b815260206004820152602a60248201527f5361666545524332303a204552433230206f7065726174696f6e20646964206e6044820152691bdd081cdd58d8d9595960b21b60648201526084016104c1565b5f81830361147e5750816107e8565b6107e58361148c4885611e79565b61165f565b6040516001600160a01b03808516602483015283166044820152606481018290526108c39085906323b872dd60e01b90608401611017565b6040516370a0823160e01b81523060048201525f907f00000000000000000000000000000000000000000000000000000000000000006001600160a01b0316906370a0823190602401602060405180830381865afa15801561152d573d5f803e3d5ffd5b505050506040513d601f19601f820116820180604052508101906115519190611e8c565b6009549091506001600160801b0316811015610842575f6115927f000000000000000000000000000000000000000000000000000000000000000084611674565b905061159d81611759565b60405163b760faf960e01b81523060048201527f00000000000000000000000000000000000000000000000000000000000000006001600160a01b03169063b760faf99047906024015f604051808303818588803b1580156115fd575f80fd5b505af115801561160f573d5f803e3d5ffd5b5050505050505050565b5f60d08265ffffffffffff16901b60a08465ffffffffffff16901b8561163f575f611642565b60015b60ff16171790505b9392505050565b6060610f9484845f856117ac565b5f81831061166d57816107e5565b5090919050565b6040516370a0823160e01b81523060048201525f9081906001600160a01b038516906370a0823190602401602060405180830381865afa1580156116ba573d5f803e3d5ffd5b505050506040513d601f19601f820116820180604052508101906116de9190611e8c565b90505f6117006116ee8386610aec565b6002546301000000900460ff166118d9565b600154909150811015611717575f925050506107e8565b6002546117509086907f0000000000000000000000000000000000000000000000000000000000000000908590859062ffffff166118f8565b95945050505050565b60405163125012df60e21b8152600481018290523060248201527f00000000000000000000000000000000000000000000000000000000000000006001600160a01b0316906349404b7c906044016109cf565b60608247101561180d5760405162461bcd60e51b815260206004820152602660248201527f416464726573733a20696e73756666696369656e742062616c616e636520666f6044820152651c8818d85b1b60d21b60648201526084016104c1565b6001600160a01b0385163b6118645760405162461bcd60e51b815260206004820152601d60248201527f416464726573733a2063616c6c20746f206e6f6e2d636f6e747261637400000060448201526064016104c1565b5f80866001600160a01b0316858760405161187f9190611fab565b5f6040518083038185875af1925050503d805f81146118b9576040519150601f19603f3d011682016040523d82523d5f602084013e6118be565b606091505b50915091506118ce828286611a6c565b979650505050505050565b5f6103e86118ea60ff841682611fc6565b6107db9061ffff1685611e2f565b60408051610100810182526001600160a01b0387811682528681166020830190815262ffffff8581168486019081527f0000000000000000000000000000000000000000000000000000000000000000841660608601818152426080880190815260a088018c815260c089018c81525f60e08b018181529b5163414bf38960e01b81528b518b16600482015298518a1660248a0152955190961660448801529151871660648701525160848601525160a4850152915160c4840152945190921660e482015263414bf38990610104016020604051808303815f875af1925050508015611a01575060408051601f3d908101601f191682019092526119fe91810190611e8c565b60015b611a5f57604080516001600160a01b03808a16825288166020820152908101869052606081018590527ff7edd4c6ec425decf715a8b8eaa3b65d3d86e31ad0ff750aa60fa834190f515f9060800160405180910390a15f9150611a62565b91505b5095945050505050565b60608315611a7b57508161164a565b825115611a8b5782518084602001fd5b8160405162461bcd60e51b81526004016104c19190611fe8565b5f60208284031215611ab5575f80fd5b813563ffffffff8116811461164a575f80fd5b6001600160a01b03811681146108ac575f80fd5b5f8060408385031215611aed575f80fd5b8235611af881611ac8565b946020939093013593505050565b80151581146108ac575f80fd5b5f60208284031215611b23575f80fd5b813561164a81611b06565b5f8060408385031215611b3f575f80fd5b50508035926020909101359150565b5f60608284031215611b5e575f80fd5b6040516060810181811067ffffffffffffffff82111715611b8d57634e487b7160e01b5f52604160045260245ffd5b60405282358152602083013562ffffff81168114611ba9575f80fd5b6020820152604083013560ff81168114611bc1575f80fd5b60408201529392505050565b5f805f8060608587031215611be0575f80fd5b843560038110611bee575f80fd5b9350602085013567ffffffffffffffff80821115611c0a575f80fd5b818701915087601f830112611c1d575f80fd5b813581811115611c2b575f80fd5b886020828501011115611c3c575f80fd5b95986020929092019750949560400135945092505050565b5f60208284031215611c64575f80fd5b813561164a81611ac8565b803565ffffffffffff81168114611c84575f80fd5b919050565b5f60808284031215611c99575f80fd5b6040516080810181811067ffffffffffffffff82111715611cc857634e487b7160e01b5f52604160045260245ffd5b6040528235815260208301356001600160801b0381168114611ce8575f80fd5b6020820152611cf960408401611c6f565b6040820152611d0a60608401611c6f565b60608201529392505050565b5f805f60608486031215611d28575f80fd5b833567ffffffffffffffff811115611d3e575f80fd5b84016101608187031215611d50575f80fd5b95602085013595506040909401359392505050565b5f5b83811015611d7f578181015183820152602001611d67565b50505f910152565b5f8151808452611d9e816020860160208601611d65565b601f01601f19169290920160200192915050565b604081525f611dc46040830185611d87565b90508260208301529392505050565b6020808252818101527f4f776e61626c653a2063616c6c6572206973206e6f7420746865206f776e6572604082015260600190565b634e487b7160e01b5f52601160045260245ffd5b818103818111156107e8576107e8611e08565b80820281158282048414176107e8576107e8611e08565b634e487b7160e01b5f52601260045260245ffd5b5f82611e7457634e487b7160e01b5f52601260045260245ffd5b500490565b808201808211156107e8576107e8611e08565b5f60208284031215611e9c575f80fd5b5051919050565b805169ffffffffffffffffffff81168114611c84575f80fd5b5f805f805f60a08688031215611ed0575f80fd5b611ed986611ea3565b9450602086015193506040860151925060608601519150611efc60808701611ea3565b90509295509295909350565b5f805f8060808587031215611f1b575f80fd5b8435935060208501359250604085013591506060850135611f3b81611ac8565b939692955090935050565b5f808335601e19843603018112611f5b575f80fd5b83018035915067ffffffffffffffff821115611f75575f80fd5b602001915036819003821315611f89575f80fd5b9250929050565b5f60208284031215611fa0575f80fd5b815161164a81611b06565b5f8251611fbc818460208701611d65565b9190910192915050565b61ffff828116828216039080821115611fe157611fe1611e08565b5092915050565b602081525f6107e56020830184611d8756fea2646970667358221220a83d1cb793a15c0e8828966679d027430e348003ea83e114bd97dafa0b2ea65a64736f6c634300081400334f776e61626c653a2063616c6c6572206973206e6f7420746865206f776e6572",
  "immutableReferences": {
    "17704": [
      {
        "length": 32,
        "start": 452
      },
      {
        "length": 32,
        "start": 6005
      },
      {
        "length": 32,
        "start": 6441
      }
    ],
    "17708": [
      {
        "length": 32,
        "start": 1142
      },
      {
        "length": 32,
        "start": 2076
      },
      {
        "length": 32,
        "start": 4425
      },
      {
        "length": 32,
        "start": 4483
      },
      {
        "length": 32,
        "start": 4834
      },
      {
        "length": 32,
        "start": 5485
      }
    ],
    "17712": [
      {
        "length": 32,
        "start": 963
      },
      {
        "length": 32,
        "start": 5922
      }
    ],
    "18032": [
      {
        "length": 32,
        "start": 749
      },
      {
        "length": 32,
        "start": 1252
      },
      {
        "length": 32,
        "start": 1432
      },
      {
        "length": 32,
        "start": 2292
      },
      {
        "length": 32,
        "start": 2468
      },
      {
        "length": 32,
        "start": 2582
      },
      {
        "length": 32,
        "start": 2721
      },
      {
        "length": 32,
        "start": 4190
      },
      {
        "length": 32,
        "start": 5344
      },
      {
        "length": 32,
        "start": 5554
      }
    ]
  },
  "source": "// SPDX-License-Identifier: GPL-3.0\npragma solidity ^0.8.11;\n\n// Import the required libraries and contracts\nimport \"@openzeppelin/contracts/token/ERC20/extensions/IERC20Metadata.sol\";\nimport \"@openzeppelin/contracts/token/ERC20/utils/SafeERC20.sol\";\nimport \"../installed_contracts/openzeppelin-contracts-5/contracts/utils/cryptography/EIP712.sol\";\n\nimport \"../installed_contracts/eth-infinitism/contracts/interfaces/IEntryPoint.sol\";\nimport \"../installed_contracts/eth-infinitism/contracts/core/BasePaymaster.sol\";\nimport \"../installed_contracts/eth-infinitism/contracts/interfaces/UserOperation.sol\";\nimport \"../installed_contracts/eth-infinitism-dev/contracts/samples/utils/UniswapHelper.sol\";\nimport \"../installed_contracts/eth-infinitism-dev/contracts/samples/utils/OracleHelper.sol\";\n\n/// @title Sample ERC-20 Token Paymaster for ERC-4337\n/// This Paymaster covers gas fees in exchange for ERC20 tokens charged using allowance pre-issued by ERC-4337 accounts.\n/// The contract refunds excess tokens if the actual gas cost is lower than the initially provided amount.\n/// The token price cannot be queried in the validation code due to storage access restrictions of ERC-4337.\n/// The price is cached inside the contract and is updated in the 'postOp' stage if the change is >10%.\n/// It is theoretically possible the token has depreciated so much since the last 'postOp' the refund becomes negative.\n/// The contract reverts the inner user transaction in that case but keeps the charge.\n/// The contract also allows honest clients to prepay tokens at a higher price to avoid getting reverted.\n/// It also allows updating price configuration and withdrawing tokens by the contract owner.\n/// The contract uses an Oracle to fetch the latest token prices.\n/// @dev Inherits from BasePaymaster.\ncontract MorpherTokenPaymaster is BasePaymaster, UniswapHelper, OracleHelper {\n\n    \n    struct TokenPaymasterConfig {\n        /// @notice The price markup percentage applied to the token price (1e6 = 100%)\n        uint256 priceMarkup;\n\n        /// @notice Exchange tokens to native currency if the EntryPoint balance of this Paymaster falls below this value\n        uint128 minEntryPointBalance;\n\n        /// @notice Estimated gas cost for refunding tokens after the transaction is completed\n        uint48 refundPostopCost;\n\n        /// @notice Transactions are only valid as long as the cached price is not older than this value\n        uint48 priceMaxAge;\n    }\n\n    event ConfigUpdated(TokenPaymasterConfig tokenPaymasterConfig);\n\n    event UserOperationSponsored(address indexed user, uint256 actualTokenCharge, uint256 actualGasCost, uint256 actualTokenPrice);\n\n    event Received(address indexed sender, uint256 value);\n\n    /// @notice All 'price' variables are multiplied by this value to avoid rounding up\n    uint256 private constant PRICE_DENOMINATOR = 1e26;\n\n    TokenPaymasterConfig private tokenPaymasterConfig;\n\n    /// @notice Initializes the TokenPaymaster contract with the given parameters.\n    /// @param _token The ERC20 token used for transaction fee payments.\n    /// @param _entryPoint The EntryPoint contract used in the Account Abstraction infrastructure.\n    /// @param _wrappedNative The ERC-20 token that wraps the native asset for current chain.\n    /// @param _uniswap The Uniswap V3 SwapRouter contract.\n    /// @param _tokenPaymasterConfig The configuration for the Token Paymaster.\n    /// @param _oracleHelperConfig The configuration for the Oracle Helper.\n    /// @param _uniswapHelperConfig The configuration for the Uniswap Helper.\n    /// @param _owner The address that will be set as the owner of the contract.\n    constructor(\n        IERC20Metadata _token, //0x322531297FAb2e8FeAf13070a7174a83117ADAd4\n        IEntryPoint _entryPoint, //0x5FF137D4b0FDCD49DcA30c7CF57E578a026d2789\n        IERC20 _wrappedNative, //0x9c3C9283D3e44854697Cd22D3Faa240Cfb032889\n        ISwapRouter _uniswap, //0x68b3465833fb72A70ecDF485E0e4C7bD8665Fc45\n        TokenPaymasterConfig memory _tokenPaymasterConfig, //[100000000000000000000000000,100000000000000,20000,60]\n        OracleHelperConfig memory _oracleHelperConfig, //[60,\"0xBde0eDd749f225dbD9e6b79BE0ED7F5B1b80A65d\",\"0xBde0eDd749f225dbD9e6b79BE0ED7F5B1b80A65d\",true,false,false,100000]\n        UniswapHelperConfig memory _uniswapHelperConfig,//[100000000,300,100]\n        address _owner\n    )\n    BasePaymaster(\n    _entryPoint\n    )\n    OracleHelper(\n    _oracleHelperConfig\n    )\n    UniswapHelper(\n    _token,\n    _wrappedNative,\n    _uniswap,\n    10 ** _token.decimals(),\n    _uniswapHelperConfig\n    )\n    {\n        setTokenPaymasterConfig(_tokenPaymasterConfig);\n        transferOwnership(_owner);\n    }\n\n    /// @notice Updates the configuration for the Token Paymaster.\n    /// @param _tokenPaymasterConfig The new configuration struct.\n    function setTokenPaymasterConfig(\n        TokenPaymasterConfig memory _tokenPaymasterConfig\n    ) public onlyOwner {\n        require(_tokenPaymasterConfig.priceMarkup <= 2 * PRICE_DENOMINATOR, \"TPM: price markup too high\");\n        require(_tokenPaymasterConfig.priceMarkup >= PRICE_DENOMINATOR, \"TPM: price markup too low\");\n        tokenPaymasterConfig = _tokenPaymasterConfig;\n        emit ConfigUpdated(_tokenPaymasterConfig);\n    }\n\n    function setUniswapConfiguration(\n        UniswapHelperConfig memory _uniswapHelperConfig\n    ) external onlyOwner {\n        _setUniswapHelperConfiguration(_uniswapHelperConfig);\n    }\n    \n\n    /// @notice Allows the contract owner to withdraw a specified amount of tokens from the contract.\n    /// @param to The address to transfer the tokens to.\n    /// @param amount The amount of tokens to transfer.\n    function withdrawToken(address to, uint256 amount) external onlyOwner {\n        SafeERC20.safeTransfer(token, to, amount);\n    }\n\n    /// @notice Validates a paymaster user operation and calculates the required token amount for the transaction.\n    /// @param userOp The user operation data.\n    /// @param requiredPreFund The amount of tokens required for pre-funding.\n    /// @return context The context containing the token amount and user sender address (if applicable).\n    /// @return validationResult A uint256 value indicating the result of the validation (always 0 in this implementation).\n    function _validatePaymasterUserOp(UserOperation calldata userOp, bytes32, uint256 requiredPreFund)\n    internal\n    override\n    returns (bytes memory context, uint256 validationResult) {unchecked {\n            uint256 priceMarkup = tokenPaymasterConfig.priceMarkup;\n            uint256 paymasterAndDataLength = userOp.paymasterAndData.length - 20;\n            require(paymasterAndDataLength == 0 || paymasterAndDataLength == 32,\n                \"TPM: invalid data length\"\n            );\n            uint256 preChargeNative = requiredPreFund + (tokenPaymasterConfig.refundPostopCost * userOp.maxFeePerGas);\n        // note: as price is in ether-per-token and we want more tokens increasing it means dividing it by markup\n            updateCachedPrice(false); //force a price update?! why not...\n            uint256 cachedPriceWithMarkup = cachedPrice * PRICE_DENOMINATOR / priceMarkup;\n            // if (paymasterAndDataLength == 32) {\n            //     uint256 clientSuppliedPrice = uint256(bytes32(userOp.paymasterAndData[PAYMASTER_DATA_OFFSET : PAYMASTER_DATA_OFFSET + 32]));\n            //     if (clientSuppliedPrice < cachedPriceWithMarkup) {\n            //         // note: smaller number means 'more ether per token'\n            //         cachedPriceWithMarkup = clientSuppliedPrice;\n            //     }\n            // }\n            uint256 tokenAmount = weiToToken(preChargeNative, cachedPriceWithMarkup);\n            SafeERC20.safeTransferFrom(token, userOp.sender, address(this), tokenAmount);\n            context = abi.encode(tokenAmount, userOp.maxFeePerGas, userOp.maxPriorityFeePerGas, userOp.sender);\n            validationResult = _packValidationData(\n                false,\n                uint48(cachedPriceTimestamp + tokenPaymasterConfig.priceMaxAge),\n                0\n            );\n        }\n    }\n\n    /// @notice Performs post-operation tasks, such as updating the token price and refunding excess tokens.\n    /// @dev This function is called after a user operation has been executed or reverted.\n    /// @param context The context containing the token amount and user sender address.\n    /// @param actualGasCost The actual gas cost of the transaction.\n    function _postOp(PostOpMode, bytes calldata context, uint256 actualGasCost) internal override {\n        unchecked {\n            uint256 priceMarkup = tokenPaymasterConfig.priceMarkup;\n            (\n                uint256 preCharge,\n                uint256 maxFeePerGas,\n                uint256 maxPriorityFeePerGas,\n                address userOpSender\n            ) = abi.decode(context, (uint256, uint256, uint256, address));\n            uint256 gasPrice = getGasPrice(maxFeePerGas, maxPriorityFeePerGas);\n            uint256 _cachedPrice = updateCachedPrice(false);\n        // note: as price is in ether-per-token and we want more tokens increasing it means dividing it by markup\n            uint256 cachedPriceWithMarkup = _cachedPrice * PRICE_DENOMINATOR / priceMarkup;\n        // Refund tokens based on actual gas cost\n            uint256 actualChargeNative = actualGasCost + tokenPaymasterConfig.refundPostopCost * gasPrice;\n            uint256 actualTokenNeeded = weiToToken(actualChargeNative, cachedPriceWithMarkup);\n            if (preCharge > actualTokenNeeded) {\n                // If the initially provided token amount is greater than the actual amount needed, refund the difference\n                SafeERC20.safeTransfer(\n                    token,\n                    userOpSender,\n                    preCharge - actualTokenNeeded\n                );\n            } else if (preCharge < actualTokenNeeded) {\n                // Attempt to cover Paymaster's gas expenses by withdrawing the 'overdraft' from the client\n                // If the transfer reverts also revert the 'postOp' to remove the incentive to cheat\n                SafeERC20.safeTransferFrom(\n                    token,\n                    userOpSender,\n                    address(this),\n                    actualTokenNeeded - preCharge\n                );\n            }\n\n            emit UserOperationSponsored(userOpSender, actualTokenNeeded, actualGasCost, _cachedPrice);\n            refillEntryPointDeposit(_cachedPrice);\n        }\n    }\n\n    /// @notice If necessary this function uses this Paymaster's token balance to refill the deposit on EntryPoint\n    /// @param _cachedPrice the token price that will be used to calculate the swap amount.\n    function refillEntryPointDeposit(uint256 _cachedPrice) private {\n        uint256 currentEntryPointBalance = entryPoint.balanceOf(address(this));\n        if (\n            currentEntryPointBalance < tokenPaymasterConfig.minEntryPointBalance\n        ) {\n            uint256 swappedWeth = _maybeSwapTokenToWeth(token, _cachedPrice);\n            unwrapWeth(swappedWeth);\n            entryPoint.depositTo{value: address(this).balance}(address(this));\n        }\n    }\n\n    function getGasPrice(uint256 maxFeePerGas, uint256 maxPriorityFeePerGas) internal view returns (uint256) {\n        if (maxFeePerGas == maxPriorityFeePerGas) {\n            // legacy mode (for networks that don't support the 'basefee' opcode)\n            return maxFeePerGas;\n        }\n        return min(maxFeePerGas, maxPriorityFeePerGas + block.basefee);\n    }\n\n    function min(uint256 a, uint256 b) internal pure returns (uint256) {\n        return a < b ? a : b;\n    }\n\n    receive() external payable {\n        emit Received(msg.sender, msg.value);\n    }\n}",
  "sourcePath": "/Users/thomas/Projects/Morpher/MorpherProtocol/contracts/MorpherTokenPaymaster.sol",
  "compiler": {
    "name": "solc",
    "version": "0.8.20+commit.a1b79de6.Emscripten.clang"
  },
  "schemaVersion": "3.4.16",
  "updatedAt": "2024-01-12T14:11:19.429Z",
  "devdoc": {
    "details": "Inherits from BasePaymaster.",
    "kind": "dev",
    "methods": {
      "addStake(uint32)": {
        "params": {
          "unstakeDelaySec": "- the unstake delay for this paymaster. Can only be increased."
        }
      },
      "constructor": {
        "params": {
          "_entryPoint": "The EntryPoint contract used in the Account Abstraction infrastructure.",
          "_oracleHelperConfig": "The configuration for the Oracle Helper.",
          "_owner": "The address that will be set as the owner of the contract.",
          "_token": "The ERC20 token used for transaction fee payments.",
          "_tokenPaymasterConfig": "The configuration for the Token Paymaster.",
          "_uniswap": "The Uniswap V3 SwapRouter contract.",
          "_uniswapHelperConfig": "The configuration for the Uniswap Helper.",
          "_wrappedNative": "The ERC-20 token that wraps the native asset for current chain."
        }
      },
      "owner()": {
        "details": "Returns the address of the current owner."
      },
      "postOp(uint8,bytes,uint256)": {
        "params": {
          "actualGasCost": "- actual gas used so far (without this postOp call).",
          "context": "- the context value returned by validatePaymasterUserOp",
          "mode": "enum with the following options:      opSucceeded - user operation succeeded.      opReverted  - user op reverted. still has to pay for gas.      postOpReverted - user op succeeded, but caused postOp (in mode=opSucceeded) to revert.                       Now this is the 2nd call, after user's op was deliberately reverted."
        }
      },
      "renounceOwnership()": {
        "details": "Leaves the contract without owner. It will not be possible to call `onlyOwner` functions anymore. Can only be called by the current owner. NOTE: Renouncing ownership will leave the contract without an owner, thereby removing any functionality that is only available to the owner."
      },
      "setTokenPaymasterConfig((uint256,uint128,uint48,uint48))": {
        "params": {
          "_tokenPaymasterConfig": "The new configuration struct."
        }
      },
      "transferOwnership(address)": {
        "details": "Transfers ownership of the contract to a new account (`newOwner`). Can only be called by the current owner."
      },
      "validatePaymasterUserOp((address,uint256,bytes,bytes,uint256,uint256,uint256,uint256,uint256,bytes,bytes),bytes32,uint256)": {
        "params": {
          "maxCost": "the maximum cost of this transaction (based on maximum gas and gas price from userOp)",
          "userOp": "the user operation",
          "userOpHash": "hash of the user's request data."
        },
        "returns": {
          "context": "value to send to a postOp      zero length to signify postOp is not required.",
          "validationData": "signature and time-range of this operation, encoded the same as the return value of validateUserOperation      <20-byte> sigAuthorizer - 0 for valid signature, 1 to mark signature failure,         otherwise, an address of an \"authorizer\" contract.      <6-byte> validUntil - last timestamp this operation is valid. 0 for \"indefinite\"      <6-byte> validAfter - first timestamp this operation is valid      Note that the validation code cannot use block.timestamp (or block.number) directly."
        }
      },
      "withdrawStake(address)": {
        "params": {
          "withdrawAddress": "the address to send withdrawn value."
        }
      },
      "withdrawTo(address,uint256)": {
        "params": {
          "amount": "to withdraw",
          "withdrawAddress": "target to send to"
        }
      },
      "withdrawToken(address,uint256)": {
        "params": {
          "amount": "The amount of tokens to transfer.",
          "to": "The address to transfer the tokens to."
        }
      }
    },
    "title": "Sample ERC-20 Token Paymaster for ERC-4337 This Paymaster covers gas fees in exchange for ERC20 tokens charged using allowance pre-issued by ERC-4337 accounts. The contract refunds excess tokens if the actual gas cost is lower than the initially provided amount. The token price cannot be queried in the validation code due to storage access restrictions of ERC-4337. The price is cached inside the contract and is updated in the 'postOp' stage if the change is >10%. It is theoretically possible the token has depreciated so much since the last 'postOp' the refund becomes negative. The contract reverts the inner user transaction in that case but keeps the charge. The contract also allows honest clients to prepay tokens at a higher price to avoid getting reverted. It also allows updating price configuration and withdrawing tokens by the contract owner. The contract uses an Oracle to fetch the latest token prices.",
    "version": 1
  },
  "userdoc": {
    "kind": "user",
    "methods": {
      "addStake(uint32)": {
        "notice": "add stake for this paymaster. This method can also carry eth value to add to the current stake."
      },
      "cachedPrice()": {
        "notice": "The cached token price from the Oracle, always in (ether-per-token) * PRICE_DENOMINATOR format"
      },
      "cachedPriceTimestamp()": {
        "notice": "The timestamp of a block when the cached price was updated"
      },
      "constructor": {
        "notice": "Initializes the TokenPaymaster contract with the given parameters."
      },
      "deposit()": {
        "notice": "add a deposit for this paymaster, used for paying for transaction fees"
      },
      "getDeposit()": {
        "notice": "return current paymaster's deposit on the entryPoint."
      },
      "postOp(uint8,bytes,uint256)": {
        "notice": "post-operation handler. Must verify sender is the entryPoint"
      },
      "setTokenPaymasterConfig((uint256,uint128,uint48,uint48))": {
        "notice": "Updates the configuration for the Token Paymaster."
      },
      "token()": {
        "notice": "The ERC20 token used for transaction fee payments"
      },
      "uniswap()": {
        "notice": "The Uniswap V3 SwapRouter contract"
      },
      "unlockStake()": {
        "notice": "unlock the stake, in order to withdraw it. The paymaster can't serve requests once unlocked, until it calls addStake again"
      },
      "updateCachedPrice(bool)": {
        "notice": "Updates the token price by fetching the latest price from the Oracle."
      },
      "validatePaymasterUserOp((address,uint256,bytes,bytes,uint256,uint256,uint256,uint256,uint256,bytes,bytes),bytes32,uint256)": {
        "notice": "payment validation: check if paymaster agrees to pay. Must verify sender is the entryPoint. Revert to reject this request. Note that bundlers will reject this method if it changes the state, unless the paymaster is trusted (whitelisted) The paymaster pre-pays using its deposit, and receive back a refund after the postOp method returns."
      },
      "withdrawStake(address)": {
        "notice": "withdraw the entire paymaster's stake. stake must be unlocked first (and then wait for the unstakeDelay to be over)"
      },
      "withdrawTo(address,uint256)": {
        "notice": "withdraw value from the deposit"
      },
      "withdrawToken(address,uint256)": {
        "notice": "Allows the contract owner to withdraw a specified amount of tokens from the contract."
      },
      "wrappedNative()": {
        "notice": "The ERC-20 token that wraps the native asset for current chain"
      }
    },
    "version": 1
  }
}