{
  "contractName": "MorpherToken",
  "abi": [
    {
      "anonymous": false,
      "inputs": [
        {
          "indexed": true,
          "internalType": "address",
          "name": "owner",
          "type": "address"
        },
        {
          "indexed": true,
          "internalType": "address",
          "name": "spender",
          "type": "address"
        },
        {
          "indexed": false,
          "internalType": "uint256",
          "name": "value",
          "type": "uint256"
        }
      ],
      "name": "Approval",
      "type": "event"
    },
    {
      "anonymous": false,
      "inputs": [
        {
          "indexed": false,
          "internalType": "uint8",
          "name": "version",
          "type": "uint8"
        }
      ],
      "name": "Initialized",
      "type": "event"
    },
    {
      "anonymous": false,
      "inputs": [
        {
          "indexed": false,
          "internalType": "address",
          "name": "account",
          "type": "address"
        }
      ],
      "name": "Paused",
      "type": "event"
    },
    {
      "anonymous": false,
      "inputs": [
        {
          "indexed": false,
          "internalType": "bool",
          "name": "_oldValue",
          "type": "bool"
        },
        {
          "indexed": false,
          "internalType": "bool",
          "name": "_newValue",
          "type": "bool"
        }
      ],
      "name": "SetRestrictTransfers",
      "type": "event"
    },
    {
      "anonymous": false,
      "inputs": [
        {
          "indexed": false,
          "internalType": "uint256",
          "name": "_oldValue",
          "type": "uint256"
        },
        {
          "indexed": false,
          "internalType": "uint256",
          "name": "_newValue",
          "type": "uint256"
        }
      ],
      "name": "SetTotalTokensInPositions",
      "type": "event"
    },
    {
      "anonymous": false,
      "inputs": [
        {
          "indexed": false,
          "internalType": "uint256",
          "name": "_oldValue",
          "type": "uint256"
        },
        {
          "indexed": false,
          "internalType": "uint256",
          "name": "_newValue",
          "type": "uint256"
        }
      ],
      "name": "SetTotalTokensOnOtherChain",
      "type": "event"
    },
    {
      "anonymous": false,
      "inputs": [
        {
          "indexed": true,
          "internalType": "address",
          "name": "from",
          "type": "address"
        },
        {
          "indexed": true,
          "internalType": "address",
          "name": "to",
          "type": "address"
        },
        {
          "indexed": false,
          "internalType": "uint256",
          "name": "value",
          "type": "uint256"
        }
      ],
      "name": "Transfer",
      "type": "event"
    },
    {
      "anonymous": false,
      "inputs": [
        {
          "indexed": false,
          "internalType": "address",
          "name": "account",
          "type": "address"
        }
      ],
      "name": "Unpaused",
      "type": "event"
    },
    {
      "inputs": [],
      "name": "ADMINISTRATOR_ROLE",
      "outputs": [
        {
          "internalType": "bytes32",
          "name": "",
          "type": "bytes32"
        }
      ],
      "stateMutability": "view",
      "type": "function",
      "constant": true
    },
    {
      "inputs": [],
      "name": "BURNER_ROLE",
      "outputs": [
        {
          "internalType": "bytes32",
          "name": "",
          "type": "bytes32"
        }
      ],
      "stateMutability": "view",
      "type": "function",
      "constant": true
    },
    {
      "inputs": [],
      "name": "MINTER_ROLE",
      "outputs": [
        {
          "internalType": "bytes32",
          "name": "",
          "type": "bytes32"
        }
      ],
      "stateMutability": "view",
      "type": "function",
      "constant": true
    },
    {
      "inputs": [],
      "name": "PAUSER_ROLE",
      "outputs": [
        {
          "internalType": "bytes32",
          "name": "",
          "type": "bytes32"
        }
      ],
      "stateMutability": "view",
      "type": "function",
      "constant": true
    },
    {
      "inputs": [],
      "name": "POLYGONMINTER_ROLE",
      "outputs": [
        {
          "internalType": "bytes32",
          "name": "",
          "type": "bytes32"
        }
      ],
      "stateMutability": "view",
      "type": "function",
      "constant": true
    },
    {
      "inputs": [],
      "name": "TOKENUPDATER_ROLE",
      "outputs": [
        {
          "internalType": "bytes32",
          "name": "",
          "type": "bytes32"
        }
      ],
      "stateMutability": "view",
      "type": "function",
      "constant": true
    },
    {
      "inputs": [],
      "name": "TRANSFERBLOCKED_ROLE",
      "outputs": [
        {
          "internalType": "bytes32",
          "name": "",
          "type": "bytes32"
        }
      ],
      "stateMutability": "view",
      "type": "function",
      "constant": true
    },
    {
      "inputs": [],
      "name": "TRANSFER_ROLE",
      "outputs": [
        {
          "internalType": "bytes32",
          "name": "",
          "type": "bytes32"
        }
      ],
      "stateMutability": "view",
      "type": "function",
      "constant": true
    },
    {
      "inputs": [
        {
          "internalType": "address",
          "name": "owner",
          "type": "address"
        },
        {
          "internalType": "address",
          "name": "spender",
          "type": "address"
        }
      ],
      "name": "allowance",
      "outputs": [
        {
          "internalType": "uint256",
          "name": "",
          "type": "uint256"
        }
      ],
      "stateMutability": "view",
      "type": "function",
      "constant": true
    },
    {
      "inputs": [
        {
          "internalType": "address",
          "name": "spender",
          "type": "address"
        },
        {
          "internalType": "uint256",
          "name": "amount",
          "type": "uint256"
        }
      ],
      "name": "approve",
      "outputs": [
        {
          "internalType": "bool",
          "name": "",
          "type": "bool"
        }
      ],
      "stateMutability": "nonpayable",
      "type": "function"
    },
    {
      "inputs": [
        {
          "internalType": "address",
          "name": "account",
          "type": "address"
        }
      ],
      "name": "balanceOf",
      "outputs": [
        {
          "internalType": "uint256",
          "name": "",
          "type": "uint256"
        }
      ],
      "stateMutability": "view",
      "type": "function",
      "constant": true
    },
    {
      "inputs": [],
      "name": "decimals",
      "outputs": [
        {
          "internalType": "uint8",
          "name": "",
          "type": "uint8"
        }
      ],
      "stateMutability": "view",
      "type": "function",
      "constant": true
    },
    {
      "inputs": [
        {
          "internalType": "address",
          "name": "spender",
          "type": "address"
        },
        {
          "internalType": "uint256",
          "name": "subtractedValue",
          "type": "uint256"
        }
      ],
      "name": "decreaseAllowance",
      "outputs": [
        {
          "internalType": "bool",
          "name": "",
          "type": "bool"
        }
      ],
      "stateMutability": "nonpayable",
      "type": "function"
    },
    {
      "inputs": [
        {
          "internalType": "address",
          "name": "spender",
          "type": "address"
        },
        {
          "internalType": "uint256",
          "name": "addedValue",
          "type": "uint256"
        }
      ],
      "name": "increaseAllowance",
      "outputs": [
        {
          "internalType": "bool",
          "name": "",
          "type": "bool"
        }
      ],
      "stateMutability": "nonpayable",
      "type": "function"
    },
    {
      "inputs": [],
      "name": "morpherAccessControl",
      "outputs": [
        {
          "internalType": "contract MorpherAccessControl",
          "name": "",
          "type": "address"
        }
      ],
      "stateMutability": "view",
      "type": "function",
      "constant": true
    },
    {
      "inputs": [],
      "name": "name",
      "outputs": [
        {
          "internalType": "string",
          "name": "",
          "type": "string"
        }
      ],
      "stateMutability": "view",
      "type": "function",
      "constant": true
    },
    {
      "inputs": [],
      "name": "paused",
      "outputs": [
        {
          "internalType": "bool",
          "name": "",
          "type": "bool"
        }
      ],
      "stateMutability": "view",
      "type": "function",
      "constant": true
    },
    {
      "inputs": [],
      "name": "symbol",
      "outputs": [
        {
          "internalType": "string",
          "name": "",
          "type": "string"
        }
      ],
      "stateMutability": "view",
      "type": "function",
      "constant": true
    },
    {
      "inputs": [
        {
          "internalType": "address",
          "name": "to",
          "type": "address"
        },
        {
          "internalType": "uint256",
          "name": "amount",
          "type": "uint256"
        }
      ],
      "name": "transfer",
      "outputs": [
        {
          "internalType": "bool",
          "name": "",
          "type": "bool"
        }
      ],
      "stateMutability": "nonpayable",
      "type": "function"
    },
    {
      "inputs": [
        {
          "internalType": "address",
          "name": "from",
          "type": "address"
        },
        {
          "internalType": "address",
          "name": "to",
          "type": "address"
        },
        {
          "internalType": "uint256",
          "name": "amount",
          "type": "uint256"
        }
      ],
      "name": "transferFrom",
      "outputs": [
        {
          "internalType": "bool",
          "name": "",
          "type": "bool"
        }
      ],
      "stateMutability": "nonpayable",
      "type": "function"
    },
    {
      "inputs": [
        {
          "internalType": "address",
          "name": "_morpherAccessControl",
          "type": "address"
        }
      ],
      "name": "initialize",
      "outputs": [],
      "stateMutability": "nonpayable",
      "type": "function"
    },
    {
      "inputs": [
        {
          "internalType": "bool",
          "name": "restrictTransfers",
          "type": "bool"
        }
      ],
      "name": "setRestrictTransfers",
      "outputs": [],
      "stateMutability": "nonpayable",
      "type": "function"
    },
    {
      "inputs": [],
      "name": "getRestrictTransfers",
      "outputs": [
        {
          "internalType": "bool",
          "name": "",
          "type": "bool"
        }
      ],
      "stateMutability": "view",
      "type": "function",
      "constant": true
    },
    {
      "inputs": [
        {
          "internalType": "uint256",
          "name": "totalOnOtherChain",
          "type": "uint256"
        }
      ],
      "name": "setTotalTokensOnOtherChain",
      "outputs": [],
      "stateMutability": "nonpayable",
      "type": "function"
    },
    {
      "inputs": [],
      "name": "getTotalTokensOnOtherChain",
      "outputs": [
        {
          "internalType": "uint256",
          "name": "",
          "type": "uint256"
        }
      ],
      "stateMutability": "view",
      "type": "function",
      "constant": true
    },
    {
      "inputs": [
        {
          "internalType": "uint256",
          "name": "totalTokensInPositions",
          "type": "uint256"
        }
      ],
      "name": "setTotalInPositions",
      "outputs": [],
      "stateMutability": "nonpayable",
      "type": "function"
    },
    {
      "inputs": [],
      "name": "getTotalTokensInPositions",
      "outputs": [
        {
          "internalType": "uint256",
          "name": "",
          "type": "uint256"
        }
      ],
      "stateMutability": "view",
      "type": "function",
      "constant": true
    },
    {
      "inputs": [],
      "name": "totalSupply",
      "outputs": [
        {
          "internalType": "uint256",
          "name": "",
          "type": "uint256"
        }
      ],
      "stateMutability": "view",
      "type": "function",
      "constant": true
    },
    {
      "inputs": [
        {
          "internalType": "address",
          "name": "user",
          "type": "address"
        },
        {
          "internalType": "bytes",
          "name": "depositData",
          "type": "bytes"
        }
      ],
      "name": "deposit",
      "outputs": [],
      "stateMutability": "nonpayable",
      "type": "function"
    },
    {
      "inputs": [
        {
          "internalType": "uint256",
          "name": "amount",
          "type": "uint256"
        }
      ],
      "name": "withdraw",
      "outputs": [],
      "stateMutability": "nonpayable",
      "type": "function"
    },
    {
      "inputs": [
        {
          "internalType": "address",
          "name": "to",
          "type": "address"
        },
        {
          "internalType": "uint256",
          "name": "amount",
          "type": "uint256"
        }
      ],
      "name": "mint",
      "outputs": [],
      "stateMutability": "nonpayable",
      "type": "function"
    },
    {
      "inputs": [
        {
          "internalType": "address",
          "name": "from",
          "type": "address"
        },
        {
          "internalType": "uint256",
          "name": "amount",
          "type": "uint256"
        }
      ],
      "name": "burn",
      "outputs": [],
      "stateMutability": "nonpayable",
      "type": "function"
    },
    {
      "inputs": [],
      "name": "pause",
      "outputs": [],
      "stateMutability": "nonpayable",
      "type": "function"
    },
    {
      "inputs": [],
      "name": "unpause",
      "outputs": [],
      "stateMutability": "nonpayable",
      "type": "function"
    }
  ],
  "bytecode": "0x608060405234801561001057600080fd5b50612129806100206000396000f3fe608060405234801561001057600080fd5b50600436106102065760003560e01c806385f993c61161011a578063c4d66de8116100ad578063d53913931161007c578063d539139314610495578063dd62ed3e146104bc578063e5160f80146104cf578063e63ab1e9146104e2578063f45edb5f1461050957600080fd5b8063c4d66de814610435578063c4f33a5e14610448578063cae6a37d1461046f578063cf2c52cb1461048257600080fd5b806397226ece116100e957806397226ece146103f45780639dc29fac146103fc578063a457c2d71461040f578063a9059cbb1461042257600080fd5b806385f993c6146103a65780638ac203a7146103ae57806395a5d292146103c157806395d89b41146103ec57600080fd5b8063313ce5671161019d57806340c10f191161016c57806340c10f19146103305780635c975abb1461034357806370a082311461034e5780637599a393146103775780638456cb591461039e57600080fd5b8063313ce567146102fb578063395093511461030a5780633ba2e5661461031d5780633f4ba83a1461032857600080fd5b8063206b60f9116101d9578063206b60f91461028557806323b872dd146102ac578063282c51f3146102bf5780632e1a7d4d146102e657600080fd5b80630529fec21461020b57806306fdde0314610245578063095ea7b31461025a57806318160ddd1461027d575b600080fd5b6102327f976f69c4d3b65478fca9223fe0ed1b2522bde010f2060b8733f0ed5e916f496481565b6040519081526020015b60405180910390f35b61024d610530565b60405161023c9190611d97565b61026d610268366004611e03565b6105c2565b604051901515815260200161023c565b6102326105da565b6102327f8502233096d909befbda0999bb8ea2f3a6be3c138b9fbf003752a4c8bce86f6c81565b61026d6102ba366004611e2d565b610604565b6102327f3c11d16cbaffd01df69ce1c404f6340ee057498f5f00246190ea54220576a84881565b6102f96102f4366004611e69565b610628565b005b6040516012815260200161023c565b61026d610318366004611e03565b6106fe565b60cc5460ff1661026d565b6102f9610720565b6102f961033e366004611e03565b61082e565b60655460ff1661026d565b61023261035c366004611e82565b6001600160a01b031660009081526033602052604090205490565b6102327f8f9b87baaf0dcf6097cd12d17d5a30d81dfb97be0fd6e19c2ba4376afd55a3a981565b6102f9610939565b60cb54610232565b6102f96103bc366004611e69565b610a43565b60c9546103d4906001600160a01b031681565b6040516001600160a01b03909116815260200161023c565b61024d610b44565b60ca54610232565b6102f961040a366004611e03565b610b53565b61026d61041d366004611e03565b610c5e565b61026d610430366004611e03565b610cd9565b6102f9610443366004611e82565b610ce7565b6102327f22060b5f5e80cc25f73a2ae7f4b9389213d436da9a0db76b0bf57fa95eddf87d81565b6102f961047d366004611eb5565b610db3565b6102f9610490366004611ed2565b610ec9565b6102327f9f2df0fed2c77648de5860a4cc508cd0818c85b8b8a1ab4ceeef8d981c8956a681565b6102326104ca366004611f55565b610fa9565b6102f96104dd366004611e69565b610fd4565b6102327f65d7a28e3265b37a6474929f336521b332c1681b933f6cb9f3376673440d862a81565b6102327fe5a0b4d50f56047f84728557fedbda92f956391bc9d5c762e8461996dd8e7ad781565b60606036805461053f90611f88565b80601f016020809104026020016040519081016040528092919081815260200182805461056b90611f88565b80156105b85780601f1061058d576101008083540402835291602001916105b8565b820191906000526020600020905b81548152906001019060200180831161059b57829003601f168201915b5050505050905090565b6000336105d08185856110d5565b5060019392505050565b600060cb5460ca546105eb60355490565b6105f59190611fd9565b6105ff9190611fd9565b905090565b6000336106128582856111fa565b61061d858585611274565b506001949350505050565b60c9547f22060b5f5e80cc25f73a2ae7f4b9389213d436da9a0db76b0bf57fa95eddf87d906001600160a01b03166391d1485482336040516001600160e01b031960e085901b16815260048101929092526001600160a01b03166024820152604401602060405180830381865afa1580156106a7573d6000803e3d6000fd5b505050506040513d601f19601f820116820180604052508101906106cb9190611ff1565b6106f05760405162461bcd60e51b81526004016106e79061200e565b60405180910390fd5b6106fa338361144d565b5050565b6000336105d08185856107118383610fa9565b61071b9190611fd9565b6110d5565b60c9546001600160a01b03166391d148547f65d7a28e3265b37a6474929f336521b332c1681b933f6cb9f3376673440d862a336040516001600160e01b031960e085901b16815260048101929092526001600160a01b03166024820152604401602060405180830381865afa15801561079d573d6000803e3d6000fd5b505050506040513d601f19601f820116820180604052508101906107c19190611ff1565b6108245760405162461bcd60e51b815260206004820152602e60248201527f4d6f7270686572546f6b656e3a206d757374206861766520706175736572207260448201526d6f6c6520746f20756e706175736560901b60648201526084016106e7565b61082c6115a4565b565b60c9546001600160a01b03166391d148547f9f2df0fed2c77648de5860a4cc508cd0818c85b8b8a1ab4ceeef8d981c8956a6336040516001600160e01b031960e085901b16815260048101929092526001600160a01b03166024820152604401602060405180830381865afa1580156108ab573d6000803e3d6000fd5b505050506040513d601f19601f820116820180604052508101906108cf9190611ff1565b61092f5760405162461bcd60e51b815260206004820152602b60248201527f4d6f7270686572546f6b656e3a206d7573742068617665206d696e746572207260448201526a1bdb19481d1bc81b5a5b9d60aa1b60648201526084016106e7565b6106fa8282611637565b60c9546001600160a01b03166391d148547f65d7a28e3265b37a6474929f336521b332c1681b933f6cb9f3376673440d862a336040516001600160e01b031960e085901b16815260048101929092526001600160a01b03166024820152604401602060405180830381865afa1580156109b6573d6000803e3d6000fd5b505050506040513d601f19601f820116820180604052508101906109da9190611ff1565b610a3b5760405162461bcd60e51b815260206004820152602c60248201527f4d6f7270686572546f6b656e3a206d757374206861766520706175736572207260448201526b6f6c6520746f20706175736560a01b60648201526084016106e7565b61082c611722565b60c9547f8f9b87baaf0dcf6097cd12d17d5a30d81dfb97be0fd6e19c2ba4376afd55a3a9906001600160a01b03166391d1485482336040516001600160e01b031960e085901b16815260048101929092526001600160a01b03166024820152604401602060405180830381865afa158015610ac2573d6000803e3d6000fd5b505050506040513d601f19601f82011682018060405250810190610ae69190611ff1565b610b025760405162461bcd60e51b81526004016106e79061200e565b60cb5460408051918252602082018490527f403593c572c4e2016cd93550e0260e82ab507a5ce5c9604f7c1fe84192f7649d910160405180910390a15060ca55565b60606037805461053f90611f88565b60c9546001600160a01b03166391d148547f3c11d16cbaffd01df69ce1c404f6340ee057498f5f00246190ea54220576a848336040516001600160e01b031960e085901b16815260048101929092526001600160a01b03166024820152604401602060405180830381865afa158015610bd0573d6000803e3d6000fd5b505050506040513d601f19601f82011682018060405250810190610bf49190611ff1565b610c545760405162461bcd60e51b815260206004820152602b60248201527f4d6f7270686572546f6b656e3a206d7573742068617665206275726e6572207260448201526a37b632903a3790313ab93760a91b60648201526084016106e7565b6106fa828261144d565b60003381610c6c8286610fa9565b905083811015610ccc5760405162461bcd60e51b815260206004820152602560248201527f45524332303a2064656372656173656420616c6c6f77616e63652062656c6f77604482015264207a65726f60d81b60648201526084016106e7565b61061d82868684036110d5565b6000336105d0818585611274565b6000610cf3600161179d565b90508015610d0b576000805461ff0019166101001790555b610d4f6040518060400160405280600781526020016626b7b9383432b960c91b8152506040518060400160405280600381526020016209aa0960eb1b81525061182a565b60c980546001600160a01b0319166001600160a01b03841617905580156106fa576000805461ff0019169055604051600181527f7f26b83ff96e1f2b6a682f133852f6798a09c465da95921460cefb38474024989060200160405180910390a15050565b60c9547fe5a0b4d50f56047f84728557fedbda92f956391bc9d5c762e8461996dd8e7ad7906001600160a01b03166391d1485482336040516001600160e01b031960e085901b16815260048101929092526001600160a01b03166024820152604401602060405180830381865afa158015610e32573d6000803e3d6000fd5b505050506040513d601f19601f82011682018060405250810190610e569190611ff1565b610e725760405162461bcd60e51b81526004016106e79061200e565b60cc546040805160ff9092161515825283151560208301527f031b7076ea69cc7c069abb5b40b40971da5a280ca9d1c3bda1e25e69b2e72abb910160405180910390a15060cc805460ff1916911515919091179055565b60c9547f22060b5f5e80cc25f73a2ae7f4b9389213d436da9a0db76b0bf57fa95eddf87d906001600160a01b03166391d1485482336040516001600160e01b031960e085901b16815260048101929092526001600160a01b03166024820152604401602060405180830381865afa158015610f48573d6000803e3d6000fd5b505050506040513d601f19601f82011682018060405250810190610f6c9190611ff1565b610f885760405162461bcd60e51b81526004016106e79061200e565b6000610f9683850185611e69565b9050610fa28582611637565b5050505050565b6001600160a01b03918216600090815260346020908152604080832093909416825291909152205490565b60c9547f8f9b87baaf0dcf6097cd12d17d5a30d81dfb97be0fd6e19c2ba4376afd55a3a9906001600160a01b03166391d1485482336040516001600160e01b031960e085901b16815260048101929092526001600160a01b03166024820152604401602060405180830381865afa158015611053573d6000803e3d6000fd5b505050506040513d601f19601f820116820180604052508101906110779190611ff1565b6110935760405162461bcd60e51b81526004016106e79061200e565b60cb5460408051918252602082018490527f9be715265056d01e32a5a436e7cf9bd1e204862153232c5ccdd5bbb72f5ea944910160405180910390a15060cb55565b6001600160a01b0383166111375760405162461bcd60e51b8152602060048201526024808201527f45524332303a20617070726f76652066726f6d20746865207a65726f206164646044820152637265737360e01b60648201526084016106e7565b6001600160a01b0382166111985760405162461bcd60e51b815260206004820152602260248201527f45524332303a20617070726f766520746f20746865207a65726f206164647265604482015261737360f01b60648201526084016106e7565b6001600160a01b0383811660008181526034602090815260408083209487168084529482529182902085905590518481527f8c5be1e5ebec7d5bd14f71427d1e84f3dd0314c0f7b2291e5b200ac8c7c3b92591015b60405180910390a3505050565b60006112068484610fa9565b9050600019811461126e57818110156112615760405162461bcd60e51b815260206004820152601d60248201527f45524332303a20696e73756666696369656e7420616c6c6f77616e636500000060448201526064016106e7565b61126e84848484036110d5565b50505050565b6001600160a01b0383166112d85760405162461bcd60e51b815260206004820152602560248201527f45524332303a207472616e736665722066726f6d20746865207a65726f206164604482015264647265737360d81b60648201526084016106e7565b6001600160a01b03821661133a5760405162461bcd60e51b815260206004820152602360248201527f45524332303a207472616e7366657220746f20746865207a65726f206164647260448201526265737360e81b60648201526084016106e7565b61134583838361185b565b6001600160a01b038316600090815260336020526040902054818110156113bd5760405162461bcd60e51b815260206004820152602660248201527f45524332303a207472616e7366657220616d6f756e7420657863656564732062604482015265616c616e636560d01b60648201526084016106e7565b6001600160a01b038085166000908152603360205260408082208585039055918516815290812080548492906113f4908490611fd9565b92505081905550826001600160a01b0316846001600160a01b03167fddf252ad1be2c89b69c2b068fc378daa952ba7f163c4a11628f55a4df523b3ef8460405161144091815260200190565b60405180910390a361126e565b6001600160a01b0382166114ad5760405162461bcd60e51b815260206004820152602160248201527f45524332303a206275726e2066726f6d20746865207a65726f206164647265736044820152607360f81b60648201526084016106e7565b6114b98260008361185b565b6001600160a01b0382166000908152603360205260409020548181101561152d5760405162461bcd60e51b815260206004820152602260248201527f45524332303a206275726e20616d6f756e7420657863656564732062616c616e604482015261636560f01b60648201526084016106e7565b6001600160a01b038316600090815260336020526040812083830390556035805484929061155c908490612043565b90915550506040518281526000906001600160a01b038516907fddf252ad1be2c89b69c2b068fc378daa952ba7f163c4a11628f55a4df523b3ef906020016111ed565b505050565b60655460ff166115ed5760405162461bcd60e51b815260206004820152601460248201527314185d5cd8589b194e881b9bdd081c185d5cd95960621b60448201526064016106e7565b6065805460ff191690557f5db9ee0a495bf2e6ff9c91a7834c1ba4fdd244a5e8aa4e537bd38aeae4b073aa335b6040516001600160a01b03909116815260200160405180910390a1565b6001600160a01b03821661168d5760405162461bcd60e51b815260206004820152601f60248201527f45524332303a206d696e7420746f20746865207a65726f20616464726573730060448201526064016106e7565b6116996000838361185b565b80603560008282546116ab9190611fd9565b90915550506001600160a01b038216600090815260336020526040812080548392906116d8908490611fd9565b90915550506040518181526001600160a01b038316906000907fddf252ad1be2c89b69c2b068fc378daa952ba7f163c4a11628f55a4df523b3ef9060200160405180910390a35050565b60655460ff16156117685760405162461bcd60e51b815260206004820152601060248201526f14185d5cd8589b194e881c185d5cd95960821b60448201526064016106e7565b6065805460ff191660011790557f62e78cea01bee320cd4e420270b5ea74000d11b0c9f74754ebdbfc544b05a25861161a3390565b60008054610100900460ff16156117e4578160ff1660011480156117c05750303b155b6117dc5760405162461bcd60e51b81526004016106e79061205a565b506000919050565b60005460ff80841691161061180b5760405162461bcd60e51b81526004016106e79061205a565b506000805460ff191660ff92909216919091179055600190565b919050565b600054610100900460ff166118515760405162461bcd60e51b81526004016106e7906120a8565b6106fa8282611c4a565b60cc5460ff161580611909575060c9546001600160a01b03166391d148547f8502233096d909befbda0999bb8ea2f3a6be3c138b9fbf003752a4c8bce86f6c336040516001600160e01b031960e085901b16815260048101929092526001600160a01b03166024820152604401602060405180830381865afa1580156118e5573d6000803e3d6000fd5b505050506040513d601f19601f820116820180604052508101906119099190611ff1565b806119b0575060c9546001600160a01b03166391d148547f9f2df0fed2c77648de5860a4cc508cd0818c85b8b8a1ab4ceeef8d981c8956a6336040516001600160e01b031960e085901b16815260048101929092526001600160a01b03166024820152604401602060405180830381865afa15801561198c573d6000803e3d6000fd5b505050506040513d601f19601f820116820180604052508101906119b09190611ff1565b80611a57575060c9546001600160a01b03166391d148547f3c11d16cbaffd01df69ce1c404f6340ee057498f5f00246190ea54220576a848336040516001600160e01b031960e085901b16815260048101929092526001600160a01b03166024820152604401602060405180830381865afa158015611a33573d6000803e3d6000fd5b505050506040513d601f19601f82011682018060405250810190611a579190611ff1565b80611af1575060c954604051632474521560e21b81527f8502233096d909befbda0999bb8ea2f3a6be3c138b9fbf003752a4c8bce86f6c60048201526001600160a01b038581166024830152909116906391d1485490604401602060405180830381865afa158015611acd573d6000803e3d6000fd5b505050506040513d601f19601f82011682018060405250810190611af19190611ff1565b611b3d5760405162461bcd60e51b815260206004820152601d60248201527f4d6f7270686572546f6b656e3a205472616e736665722064656e69656400000060448201526064016106e7565b60c9546001600160a01b03166391d148547f976f69c4d3b65478fca9223fe0ed1b2522bde010f2060b8733f0ed5e916f4964336040516001600160e01b031960e085901b16815260048101929092526001600160a01b03166024820152604401602060405180830381865afa158015611bba573d6000803e3d6000fd5b505050506040513d601f19601f82011682018060405250810190611bde9190611ff1565b15611c3f5760405162461bcd60e51b815260206004820152602b60248201527f4d6f7270686572546f6b656e3a205472616e7366657220666f7220557365722060448201526a34b990313637b1b5b2b21760a91b60648201526084016106e7565b61159f838383611c98565b600054610100900460ff16611c715760405162461bcd60e51b81526004016106e7906120a8565b8151611c84906036906020850190611cfe565b50805161159f906037906020840190611cfe565b60655460ff161561159f5760405162461bcd60e51b815260206004820152602a60248201527f45524332305061757361626c653a20746f6b656e207472616e736665722077686044820152691a5b19481c185d5cd95960b21b60648201526084016106e7565b828054611d0a90611f88565b90600052602060002090601f016020900481019282611d2c5760008555611d72565b82601f10611d4557805160ff1916838001178555611d72565b82800160010185558215611d72579182015b82811115611d72578251825591602001919060010190611d57565b50611d7e929150611d82565b5090565b5b80821115611d7e5760008155600101611d83565b600060208083528351808285015260005b81811015611dc457858101830151858201604001528201611da8565b81811115611dd6576000604083870101525b50601f01601f1916929092016040019392505050565b80356001600160a01b038116811461182557600080fd5b60008060408385031215611e1657600080fd5b611e1f83611dec565b946020939093013593505050565b600080600060608486031215611e4257600080fd5b611e4b84611dec565b9250611e5960208501611dec565b9150604084013590509250925092565b600060208284031215611e7b57600080fd5b5035919050565b600060208284031215611e9457600080fd5b611e9d82611dec565b9392505050565b8015158114611eb257600080fd5b50565b600060208284031215611ec757600080fd5b8135611e9d81611ea4565b600080600060408486031215611ee757600080fd5b611ef084611dec565b9250602084013567ffffffffffffffff80821115611f0d57600080fd5b818601915086601f830112611f2157600080fd5b813581811115611f3057600080fd5b876020828501011115611f4257600080fd5b6020830194508093505050509250925092565b60008060408385031215611f6857600080fd5b611f7183611dec565b9150611f7f60208401611dec565b90509250929050565b600181811c90821680611f9c57607f821691505b60208210811415611fbd57634e487b7160e01b600052602260045260246000fd5b50919050565b634e487b7160e01b600052601160045260246000fd5b60008219821115611fec57611fec611fc3565b500190565b60006020828403121561200357600080fd5b8151611e9d81611ea4565b6020808252818101527f4d6f7270686572546f6b656e3a205065726d697373696f6e2064656e6965642e604082015260600190565b60008282101561205557612055611fc3565b500390565b6020808252602e908201527f496e697469616c697a61626c653a20636f6e747261637420697320616c72656160408201526d191e481a5b9a5d1a585b1a5e995960921b606082015260800190565b6020808252602b908201527f496e697469616c697a61626c653a20636f6e7472616374206973206e6f74206960408201526a6e697469616c697a696e6760a81b60608201526080019056fea26469706673582212201a493f9db5341f4f15870ab40386b099fe05c0f1399f98093f03d88a22ef788d64736f6c634300080b0033",
  "immutableReferences": {},
  "source": "//SPDX-License-Identifier: GPLv3\npragma solidity 0.8.11;\n\nimport \"@openzeppelin/contracts-upgradeable/token/ERC20/ERC20Upgradeable.sol\";\nimport \"@openzeppelin/contracts-upgradeable/token/ERC20/extensions/ERC20PausableUpgradeable.sol\";\nimport \"./MorpherAccessControl.sol\";\n\ncontract MorpherToken is ERC20Upgradeable, ERC20PausableUpgradeable {\n\n    MorpherAccessControl public morpherAccessControl;\n    \n    bytes32 public constant MINTER_ROLE = keccak256(\"MINTER_ROLE\");\n    bytes32 public constant BURNER_ROLE = keccak256(\"BURNER_ROLE\");\n    bytes32 public constant PAUSER_ROLE = keccak256(\"PAUSER_ROLE\");\n    bytes32 public constant ADMINISTRATOR_ROLE = keccak256(\"ADMINISTRATOR_ROLE\");\n    bytes32 public constant TRANSFER_ROLE = keccak256(\"TRANSFER_ROLE\");\n    bytes32 public constant TRANSFERBLOCKED_ROLE = keccak256(\"TRANSFERBLOCKED_ROLE\");\n    bytes32 public constant POLYGONMINTER_ROLE = keccak256(\"POLYGONMINTER_ROLE\");\n    bytes32 public constant TOKENUPDATER_ROLE = keccak256(\"TOKENUPDATER_ROLE\");\n\n    uint256 private _totalTokensOnOtherChain;\n    uint256 private _totalTokensInPositions;\n    bool private _restrictTransfers;\n\n    event SetTotalTokensOnOtherChain(uint256 _oldValue, uint256 _newValue);\n    event SetTotalTokensInPositions(uint256 _oldValue, uint256 _newValue);\n    event SetRestrictTransfers(bool _oldValue, bool _newValue);\n\n    function initialize(address _morpherAccessControl) public initializer {\n        ERC20Upgradeable.__ERC20_init(\"Morpher\", \"MPH\");\n        morpherAccessControl = MorpherAccessControl(_morpherAccessControl);\n    }\n\n    modifier onlyRole(bytes32 role) {\n        require(morpherAccessControl.hasRole(role, _msgSender()), \"MorpherToken: Permission denied.\");\n        _;\n    }\n\n    // function getMorpherAccessControl() public view returns(address) {\n    //     return address(morpherAccessControl);\n    // }\n\n    function setRestrictTransfers(bool restrictTransfers) public onlyRole(ADMINISTRATOR_ROLE) {\n        emit SetRestrictTransfers(_restrictTransfers, restrictTransfers);\n        _restrictTransfers = restrictTransfers;\n    }\n\n    function getRestrictTransfers() public view returns(bool) {\n        return _restrictTransfers;\n    }\n\n    function setTotalTokensOnOtherChain(uint256 totalOnOtherChain) public onlyRole(TOKENUPDATER_ROLE) {\n        emit SetTotalTokensOnOtherChain(_totalTokensInPositions, totalOnOtherChain);\n        _totalTokensOnOtherChain = totalOnOtherChain;\n    }\n\n    function getTotalTokensOnOtherChain() public view returns(uint256) {\n        return _totalTokensOnOtherChain;\n    }\n\n    function setTotalInPositions(uint256 totalTokensInPositions) public onlyRole(TOKENUPDATER_ROLE) {\n        emit SetTotalTokensInPositions(_totalTokensInPositions, totalTokensInPositions);\n        _totalTokensInPositions = totalTokensInPositions;\n    }\n\n    function getTotalTokensInPositions() public view returns(uint256) {\n        return _totalTokensInPositions;\n    }\n\n\n    \n    /**\n     * @dev See {IERC20-totalSupply}.\n     */\n    function totalSupply() public view virtual override returns (uint256) {\n        return super.totalSupply() + _totalTokensOnOtherChain + _totalTokensInPositions;\n    }\n\n    function deposit(address user, bytes calldata depositData) external onlyRole(POLYGONMINTER_ROLE) {\n        uint256 amount = abi.decode(depositData, (uint256));\n        _mint(user, amount);\n    }\n\n    function withdraw(uint256 amount) external onlyRole(POLYGONMINTER_ROLE) {\n        _burn(msg.sender, amount);\n    }\n\n\n    /**\n     * @dev Creates `amount` new tokens for `to`.\n     *\n     * See {ERC20-_mint}.\n     *\n     * Requirements:\n     *\n     * - the caller must have the `MINTER_ROLE`.\n     */\n    function mint(address to, uint256 amount) public virtual {\n        require(morpherAccessControl.hasRole(MINTER_ROLE, _msgSender()), \"MorpherToken: must have minter role to mint\");\n        _mint(to, amount);\n    }\n\n    /**\n     * @dev Burns `amount` of tokens for `from`.\n     *\n     * See {ERC20-_burn}.\n     *\n     * Requirements:\n     *\n     * - the caller must have the `BURNER_ROLE`.\n     */\n    function burn(address from, uint256 amount) public virtual {\n        require(morpherAccessControl.hasRole(BURNER_ROLE, _msgSender()), \"MorpherToken: must have burner role to burn\");\n        _burn(from, amount);\n    }\n\n    /**\n     * @dev Pauses all token transfers.\n     *\n     * See {ERC20Pausable} and {Pausable-_pause}.\n     *\n     * Requirements:\n     *\n     * - the caller must have the `PAUSER_ROLE`.\n     */\n    function pause() public virtual {\n        require(morpherAccessControl.hasRole(PAUSER_ROLE, _msgSender()), \"MorpherToken: must have pauser role to pause\");\n        _pause();\n    }\n\n    /**\n     * @dev Unpauses all token transfers.\n     *\n     * See {ERC20Pausable} and {Pausable-_unpause}.\n     *\n     * Requirements:\n     *\n     * - the caller must have the `PAUSER_ROLE`.\n     */\n    function unpause() public virtual {\n        require(morpherAccessControl.hasRole(PAUSER_ROLE, _msgSender()), \"MorpherToken: must have pauser role to unpause\");\n        _unpause();\n    }\n\n    function _beforeTokenTransfer(\n        address from,\n        address to,\n        uint256 amount\n    ) internal virtual override(ERC20Upgradeable, ERC20PausableUpgradeable) {\n        require(\n            !_restrictTransfers || \n            morpherAccessControl.hasRole(TRANSFER_ROLE, _msgSender()) || \n            morpherAccessControl.hasRole(MINTER_ROLE, _msgSender()) || \n            morpherAccessControl.hasRole(BURNER_ROLE, _msgSender()) || \n            morpherAccessControl.hasRole(TRANSFER_ROLE, from)\n            , \"MorpherToken: Transfer denied\");\n\n        require(!morpherAccessControl.hasRole(TRANSFERBLOCKED_ROLE, _msgSender()), \"MorpherToken: Transfer for User is blocked.\");\n\n        super._beforeTokenTransfer(from, to, amount);\n    }\n}\n\n",
  "sourcePath": "/home/michele/Work/MorpherProtocol/contracts/MorpherToken.sol",
  "compiler": {
    "name": "solc",
    "version": "0.8.11+commit.d7f03943.Emscripten.clang"
  },
  "schemaVersion": "3.4.14",
  "updatedAt": "2023-07-21T09:47:45.397Z",
  "networkType": "ethereum",
  "devdoc": {
    "kind": "dev",
    "methods": {
      "allowance(address,address)": {
        "details": "See {IERC20-allowance}."
      },
      "approve(address,uint256)": {
        "details": "See {IERC20-approve}. NOTE: If `amount` is the maximum `uint256`, the allowance is not updated on `transferFrom`. This is semantically equivalent to an infinite approval. Requirements: - `spender` cannot be the zero address."
      },
      "balanceOf(address)": {
        "details": "See {IERC20-balanceOf}."
      },
      "burn(address,uint256)": {
        "details": "Burns `amount` of tokens for `from`. See {ERC20-_burn}. Requirements: - the caller must have the `BURNER_ROLE`."
      },
      "decimals()": {
        "details": "Returns the number of decimals used to get its user representation. For example, if `decimals` equals `2`, a balance of `505` tokens should be displayed to a user as `5.05` (`505 / 10 ** 2`). Tokens usually opt for a value of 18, imitating the relationship between Ether and Wei. This is the value {ERC20} uses, unless this function is overridden; NOTE: This information is only used for _display_ purposes: it in no way affects any of the arithmetic of the contract, including {IERC20-balanceOf} and {IERC20-transfer}."
      },
      "decreaseAllowance(address,uint256)": {
        "details": "Atomically decreases the allowance granted to `spender` by the caller. This is an alternative to {approve} that can be used as a mitigation for problems described in {IERC20-approve}. Emits an {Approval} event indicating the updated allowance. Requirements: - `spender` cannot be the zero address. - `spender` must have allowance for the caller of at least `subtractedValue`."
      },
      "increaseAllowance(address,uint256)": {
        "details": "Atomically increases the allowance granted to `spender` by the caller. This is an alternative to {approve} that can be used as a mitigation for problems described in {IERC20-approve}. Emits an {Approval} event indicating the updated allowance. Requirements: - `spender` cannot be the zero address."
      },
      "mint(address,uint256)": {
        "details": "Creates `amount` new tokens for `to`. See {ERC20-_mint}. Requirements: - the caller must have the `MINTER_ROLE`."
      },
      "name()": {
        "details": "Returns the name of the token."
      },
      "pause()": {
        "details": "Pauses all token transfers. See {ERC20Pausable} and {Pausable-_pause}. Requirements: - the caller must have the `PAUSER_ROLE`."
      },
      "paused()": {
        "details": "Returns true if the contract is paused, and false otherwise."
      },
      "symbol()": {
        "details": "Returns the symbol of the token, usually a shorter version of the name."
      },
      "totalSupply()": {
        "details": "See {IERC20-totalSupply}."
      },
      "transfer(address,uint256)": {
        "details": "See {IERC20-transfer}. Requirements: - `to` cannot be the zero address. - the caller must have a balance of at least `amount`."
      },
      "transferFrom(address,address,uint256)": {
        "details": "See {IERC20-transferFrom}. Emits an {Approval} event indicating the updated allowance. This is not required by the EIP. See the note at the beginning of {ERC20}. NOTE: Does not update the allowance if the current allowance is the maximum `uint256`. Requirements: - `from` and `to` cannot be the zero address. - `from` must have a balance of at least `amount`. - the caller must have allowance for ``from``'s tokens of at least `amount`."
      },
      "unpause()": {
        "details": "Unpauses all token transfers. See {ERC20Pausable} and {Pausable-_unpause}. Requirements: - the caller must have the `PAUSER_ROLE`."
      }
    },
    "version": 1
  },
  "userdoc": {
    "kind": "user",
    "methods": {},
    "version": 1
  }
}