{
  "contractName": "MorpherToken",
  "abi": [
    {
      "anonymous": false,
      "inputs": [
        {
          "indexed": true,
          "internalType": "address",
          "name": "owner",
          "type": "address"
        },
        {
          "indexed": true,
          "internalType": "address",
          "name": "spender",
          "type": "address"
        },
        {
          "indexed": false,
          "internalType": "uint256",
          "name": "value",
          "type": "uint256"
        }
      ],
      "name": "Approval",
      "type": "event"
    },
    {
      "anonymous": false,
      "inputs": [
        {
          "indexed": false,
          "internalType": "address",
          "name": "account",
          "type": "address"
        }
      ],
      "name": "Paused",
      "type": "event"
    },
    {
      "anonymous": false,
      "inputs": [
        {
          "indexed": false,
          "internalType": "bool",
          "name": "_oldValue",
          "type": "bool"
        },
        {
          "indexed": false,
          "internalType": "bool",
          "name": "_newValue",
          "type": "bool"
        }
      ],
      "name": "SetRestrictTransfers",
      "type": "event"
    },
    {
      "anonymous": false,
      "inputs": [
        {
          "indexed": false,
          "internalType": "uint256",
          "name": "_oldValue",
          "type": "uint256"
        },
        {
          "indexed": false,
          "internalType": "uint256",
          "name": "_newValue",
          "type": "uint256"
        }
      ],
      "name": "SetTotalTokensInPositions",
      "type": "event"
    },
    {
      "anonymous": false,
      "inputs": [
        {
          "indexed": false,
          "internalType": "uint256",
          "name": "_oldValue",
          "type": "uint256"
        },
        {
          "indexed": false,
          "internalType": "uint256",
          "name": "_newValue",
          "type": "uint256"
        }
      ],
      "name": "SetTotalTokensOnOtherChain",
      "type": "event"
    },
    {
      "anonymous": false,
      "inputs": [
        {
          "indexed": true,
          "internalType": "address",
          "name": "from",
          "type": "address"
        },
        {
          "indexed": true,
          "internalType": "address",
          "name": "to",
          "type": "address"
        },
        {
          "indexed": false,
          "internalType": "uint256",
          "name": "value",
          "type": "uint256"
        }
      ],
      "name": "Transfer",
      "type": "event"
    },
    {
      "anonymous": false,
      "inputs": [
        {
          "indexed": false,
          "internalType": "address",
          "name": "account",
          "type": "address"
        }
      ],
      "name": "Unpaused",
      "type": "event"
    },
    {
      "inputs": [],
      "name": "ADMINISTRATOR_ROLE",
      "outputs": [
        {
          "internalType": "bytes32",
          "name": "",
          "type": "bytes32"
        }
      ],
      "stateMutability": "view",
      "type": "function",
      "constant": true
    },
    {
      "inputs": [],
      "name": "BURNER_ROLE",
      "outputs": [
        {
          "internalType": "bytes32",
          "name": "",
          "type": "bytes32"
        }
      ],
      "stateMutability": "view",
      "type": "function",
      "constant": true
    },
    {
      "inputs": [],
      "name": "MINTER_ROLE",
      "outputs": [
        {
          "internalType": "bytes32",
          "name": "",
          "type": "bytes32"
        }
      ],
      "stateMutability": "view",
      "type": "function",
      "constant": true
    },
    {
      "inputs": [],
      "name": "PAUSER_ROLE",
      "outputs": [
        {
          "internalType": "bytes32",
          "name": "",
          "type": "bytes32"
        }
      ],
      "stateMutability": "view",
      "type": "function",
      "constant": true
    },
    {
      "inputs": [],
      "name": "TRANSFER_ROLE",
      "outputs": [
        {
          "internalType": "bytes32",
          "name": "",
          "type": "bytes32"
        }
      ],
      "stateMutability": "view",
      "type": "function",
      "constant": true
    },
    {
      "inputs": [
        {
          "internalType": "address",
          "name": "owner",
          "type": "address"
        },
        {
          "internalType": "address",
          "name": "spender",
          "type": "address"
        }
      ],
      "name": "allowance",
      "outputs": [
        {
          "internalType": "uint256",
          "name": "",
          "type": "uint256"
        }
      ],
      "stateMutability": "view",
      "type": "function",
      "constant": true
    },
    {
      "inputs": [
        {
          "internalType": "address",
          "name": "spender",
          "type": "address"
        },
        {
          "internalType": "uint256",
          "name": "amount",
          "type": "uint256"
        }
      ],
      "name": "approve",
      "outputs": [
        {
          "internalType": "bool",
          "name": "",
          "type": "bool"
        }
      ],
      "stateMutability": "nonpayable",
      "type": "function"
    },
    {
      "inputs": [
        {
          "internalType": "address",
          "name": "account",
          "type": "address"
        }
      ],
      "name": "balanceOf",
      "outputs": [
        {
          "internalType": "uint256",
          "name": "",
          "type": "uint256"
        }
      ],
      "stateMutability": "view",
      "type": "function",
      "constant": true
    },
    {
      "inputs": [],
      "name": "decimals",
      "outputs": [
        {
          "internalType": "uint8",
          "name": "",
          "type": "uint8"
        }
      ],
      "stateMutability": "view",
      "type": "function",
      "constant": true
    },
    {
      "inputs": [
        {
          "internalType": "address",
          "name": "spender",
          "type": "address"
        },
        {
          "internalType": "uint256",
          "name": "subtractedValue",
          "type": "uint256"
        }
      ],
      "name": "decreaseAllowance",
      "outputs": [
        {
          "internalType": "bool",
          "name": "",
          "type": "bool"
        }
      ],
      "stateMutability": "nonpayable",
      "type": "function"
    },
    {
      "inputs": [
        {
          "internalType": "address",
          "name": "spender",
          "type": "address"
        },
        {
          "internalType": "uint256",
          "name": "addedValue",
          "type": "uint256"
        }
      ],
      "name": "increaseAllowance",
      "outputs": [
        {
          "internalType": "bool",
          "name": "",
          "type": "bool"
        }
      ],
      "stateMutability": "nonpayable",
      "type": "function"
    },
    {
      "inputs": [],
      "name": "morpherAccessControl",
      "outputs": [
        {
          "internalType": "contract MorpherAccessControl",
          "name": "",
          "type": "address"
        }
      ],
      "stateMutability": "view",
      "type": "function",
      "constant": true
    },
    {
      "inputs": [],
      "name": "name",
      "outputs": [
        {
          "internalType": "string",
          "name": "",
          "type": "string"
        }
      ],
      "stateMutability": "view",
      "type": "function",
      "constant": true
    },
    {
      "inputs": [],
      "name": "paused",
      "outputs": [
        {
          "internalType": "bool",
          "name": "",
          "type": "bool"
        }
      ],
      "stateMutability": "view",
      "type": "function",
      "constant": true
    },
    {
      "inputs": [],
      "name": "symbol",
      "outputs": [
        {
          "internalType": "string",
          "name": "",
          "type": "string"
        }
      ],
      "stateMutability": "view",
      "type": "function",
      "constant": true
    },
    {
      "inputs": [
        {
          "internalType": "address",
          "name": "to",
          "type": "address"
        },
        {
          "internalType": "uint256",
          "name": "amount",
          "type": "uint256"
        }
      ],
      "name": "transfer",
      "outputs": [
        {
          "internalType": "bool",
          "name": "",
          "type": "bool"
        }
      ],
      "stateMutability": "nonpayable",
      "type": "function"
    },
    {
      "inputs": [
        {
          "internalType": "address",
          "name": "from",
          "type": "address"
        },
        {
          "internalType": "address",
          "name": "to",
          "type": "address"
        },
        {
          "internalType": "uint256",
          "name": "amount",
          "type": "uint256"
        }
      ],
      "name": "transferFrom",
      "outputs": [
        {
          "internalType": "bool",
          "name": "",
          "type": "bool"
        }
      ],
      "stateMutability": "nonpayable",
      "type": "function"
    },
    {
      "inputs": [
        {
          "internalType": "address",
          "name": "_morpherAccessControl",
          "type": "address"
        }
      ],
      "name": "initialize",
      "outputs": [],
      "stateMutability": "nonpayable",
      "type": "function"
    },
    {
      "inputs": [],
      "name": "getMorpherAccessControl",
      "outputs": [
        {
          "internalType": "address",
          "name": "",
          "type": "address"
        }
      ],
      "stateMutability": "view",
      "type": "function",
      "constant": true
    },
    {
      "inputs": [
        {
          "internalType": "bool",
          "name": "restrictTransfers",
          "type": "bool"
        }
      ],
      "name": "setRestrictTransfers",
      "outputs": [],
      "stateMutability": "nonpayable",
      "type": "function"
    },
    {
      "inputs": [],
      "name": "getRestrictTransfers",
      "outputs": [
        {
          "internalType": "bool",
          "name": "",
          "type": "bool"
        }
      ],
      "stateMutability": "view",
      "type": "function",
      "constant": true
    },
    {
      "inputs": [
        {
          "internalType": "uint256",
          "name": "totalOnOtherChain",
          "type": "uint256"
        }
      ],
      "name": "setTotalTokensOnOtherChain",
      "outputs": [],
      "stateMutability": "nonpayable",
      "type": "function"
    },
    {
      "inputs": [],
      "name": "getTotalTokensOnOtherChain",
      "outputs": [
        {
          "internalType": "uint256",
          "name": "",
          "type": "uint256"
        }
      ],
      "stateMutability": "view",
      "type": "function",
      "constant": true
    },
    {
      "inputs": [
        {
          "internalType": "uint256",
          "name": "totalTokensInPositions",
          "type": "uint256"
        }
      ],
      "name": "setTotalInPositions",
      "outputs": [],
      "stateMutability": "nonpayable",
      "type": "function"
    },
    {
      "inputs": [],
      "name": "getTotalTokensInPositions",
      "outputs": [
        {
          "internalType": "uint256",
          "name": "",
          "type": "uint256"
        }
      ],
      "stateMutability": "view",
      "type": "function",
      "constant": true
    },
    {
      "inputs": [],
      "name": "totalSupply",
      "outputs": [
        {
          "internalType": "uint256",
          "name": "",
          "type": "uint256"
        }
      ],
      "stateMutability": "view",
      "type": "function",
      "constant": true
    },
    {
      "inputs": [
        {
          "internalType": "address",
          "name": "to",
          "type": "address"
        },
        {
          "internalType": "uint256",
          "name": "amount",
          "type": "uint256"
        }
      ],
      "name": "mint",
      "outputs": [],
      "stateMutability": "nonpayable",
      "type": "function"
    },
    {
      "inputs": [
        {
          "internalType": "address",
          "name": "from",
          "type": "address"
        },
        {
          "internalType": "uint256",
          "name": "amount",
          "type": "uint256"
        }
      ],
      "name": "burn",
      "outputs": [],
      "stateMutability": "nonpayable",
      "type": "function"
    },
    {
      "inputs": [],
      "name": "pause",
      "outputs": [],
      "stateMutability": "nonpayable",
      "type": "function"
    },
    {
      "inputs": [],
      "name": "unpause",
      "outputs": [],
      "stateMutability": "nonpayable",
      "type": "function"
    }
  ],
  "bytecode": "0x608060405234801561001057600080fd5b50611b8c806100206000396000f3fe608060405234801561001057600080fd5b50600436106101da5760003560e01c80638ac203a711610104578063b597edaf116100a2578063dd62ed3e11610071578063dd62ed3e1461040a578063e5160f8014610443578063e63ab1e914610456578063f45edb5f1461047d57600080fd5b8063b597edaf146103ac578063c4d66de8146103bd578063cae6a37d146103d0578063d5391393146103e357600080fd5b806397226ece116100de57806397226ece1461036b5780639dc29fac14610373578063a457c2d714610386578063a9059cbb1461039957600080fd5b80638ac203a71461032557806395a5d2921461033857806395d89b411461036357600080fd5b8063395093511161017c5780635c975abb1161014b5780635c975abb146102e157806370a08231146102ec5780638456cb591461031557806385f993c61461031d57600080fd5b806339509351146102a65780633ba2e566146102b95780633f4ba83a146102c457806340c10f19146102ce57600080fd5b8063206b60f9116101b8578063206b60f91461023657806323b872dd1461025d578063282c51f314610270578063313ce5671461029757600080fd5b806306fdde03146101df578063095ea7b3146101fd57806318160ddd14610220575b600080fd5b6101e7610492565b6040516101f491906118a6565b60405180910390f35b61021061020b366004611917565b610524565b60405190151581526020016101f4565b61022861053c565b6040519081526020016101f4565b6102287f8502233096d909befbda0999bb8ea2f3a6be3c138b9fbf003752a4c8bce86f6c81565b61021061026b366004611941565b610566565b6102287f3c11d16cbaffd01df69ce1c404f6340ee057498f5f00246190ea54220576a84881565b604051601281526020016101f4565b6102106102b4366004611917565b61058a565b60cc5460ff16610210565b6102cc6105c9565b005b6102cc6102dc366004611917565b6106dc565b60655460ff16610210565b6102286102fa36600461197d565b6001600160a01b031660009081526033602052604090205490565b6102cc6107eb565b60cb54610228565b6102cc61033336600461199f565b6108f5565b60c95461034b906001600160a01b031681565b6040516001600160a01b0390911681526020016101f4565b6101e76109e4565b60ca54610228565b6102cc610381366004611917565b6109f3565b610210610394366004611917565b610afe565b6102106103a7366004611917565b610b90565b60c9546001600160a01b031661034b565b6102cc6103cb36600461197d565b610b9e565b6102cc6103de3660046119c9565b610cb6565b6102287f9f2df0fed2c77648de5860a4cc508cd0818c85b8b8a1ab4ceeef8d981c8956a681565b6102286104183660046119e6565b6001600160a01b03918216600090815260346020908152604080832093909416825291909152205490565b6102cc61045136600461199f565b610dba565b6102287f65d7a28e3265b37a6474929f336521b332c1681b933f6cb9f3376673440d862a81565b610228600080516020611b3783398151915281565b6060603680546104a190611a19565b80601f01602080910402602001604051908101604052809291908181526020018280546104cd90611a19565b801561051a5780601f106104ef5761010080835404028352916020019161051a565b820191906000526020600020905b8154815290600101906020018083116104fd57829003601f168201915b5050505050905090565b600033610532818585610ea9565b5060019392505050565b600060cb5460ca5461054d60355490565b6105579190611a6a565b6105619190611a6a565b905090565b600033610574858285610fce565b61057f858585611060565b506001949350505050565b3360008181526034602090815260408083206001600160a01b038716845290915281205490919061053290829086906105c4908790611a6a565b610ea9565b60c9546001600160a01b03166391d148547f65d7a28e3265b37a6474929f336521b332c1681b933f6cb9f3376673440d862a336040516001600160e01b031960e085901b16815260048101929092526001600160a01b03166024820152604401602060405180830381865afa158015610646573d6000803e3d6000fd5b505050506040513d601f19601f8201168201806040525081019061066a9190611a82565b6106d25760405162461bcd60e51b815260206004820152602e60248201527f4d6f7270686572546f6b656e3a206d757374206861766520706175736572207260448201526d6f6c6520746f20756e706175736560901b60648201526084015b60405180910390fd5b6106da611239565b565b60c9546001600160a01b03166391d148547f9f2df0fed2c77648de5860a4cc508cd0818c85b8b8a1ab4ceeef8d981c8956a6336040516001600160e01b031960e085901b16815260048101929092526001600160a01b03166024820152604401602060405180830381865afa158015610759573d6000803e3d6000fd5b505050506040513d601f19601f8201168201806040525081019061077d9190611a82565b6107dd5760405162461bcd60e51b815260206004820152602b60248201527f4d6f7270686572546f6b656e3a206d7573742068617665206d696e746572207260448201526a1bdb19481d1bc81b5a5b9d60aa1b60648201526084016106c9565b6107e782826112cc565b5050565b60c9546001600160a01b03166391d148547f65d7a28e3265b37a6474929f336521b332c1681b933f6cb9f3376673440d862a336040516001600160e01b031960e085901b16815260048101929092526001600160a01b03166024820152604401602060405180830381865afa158015610868573d6000803e3d6000fd5b505050506040513d601f19601f8201168201806040525081019061088c9190611a82565b6108ed5760405162461bcd60e51b815260206004820152602c60248201527f4d6f7270686572546f6b656e3a206d757374206861766520706175736572207260448201526b6f6c6520746f20706175736560a01b60648201526084016106c9565b6106da6113b7565b60c954600080516020611b37833981519152906001600160a01b03166391d1485482336040516001600160e01b031960e085901b16815260048101929092526001600160a01b03166024820152604401602060405180830381865afa158015610962573d6000803e3d6000fd5b505050506040513d601f19601f820116820180604052508101906109869190611a82565b6109a25760405162461bcd60e51b81526004016106c990611a9f565b60cb5460408051918252602082018490527f403593c572c4e2016cd93550e0260e82ab507a5ce5c9604f7c1fe84192f7649d910160405180910390a15060ca55565b6060603780546104a190611a19565b60c9546001600160a01b03166391d148547f3c11d16cbaffd01df69ce1c404f6340ee057498f5f00246190ea54220576a848336040516001600160e01b031960e085901b16815260048101929092526001600160a01b03166024820152604401602060405180830381865afa158015610a70573d6000803e3d6000fd5b505050506040513d601f19601f82011682018060405250810190610a949190611a82565b610af45760405162461bcd60e51b815260206004820152602b60248201527f4d6f7270686572546f6b656e3a206d7573742068617665206275726e6572207260448201526a37b632903a3790313ab93760a91b60648201526084016106c9565b6107e78282611432565b3360008181526034602090815260408083206001600160a01b038716845290915281205490919083811015610b835760405162461bcd60e51b815260206004820152602560248201527f45524332303a2064656372656173656420616c6c6f77616e63652062656c6f77604482015264207a65726f60d81b60648201526084016106c9565b61057f8286868403610ea9565b600033610532818585611060565b600054610100900460ff16610bb95760005460ff1615610bbd565b303b155b610c205760405162461bcd60e51b815260206004820152602e60248201527f496e697469616c697a61626c653a20636f6e747261637420697320616c72656160448201526d191e481a5b9a5d1a585b1a5e995960921b60648201526084016106c9565b600054610100900460ff16158015610c42576000805461ffff19166101011790555b610c866040518060400160405280600781526020016626b7b9383432b960c91b8152506040518060400160405280600381526020016209aa0960eb1b815250611589565b60c980546001600160a01b0319166001600160a01b03841617905580156107e7576000805461ff00191690555050565b60c954600080516020611b37833981519152906001600160a01b03166391d1485482336040516001600160e01b031960e085901b16815260048101929092526001600160a01b03166024820152604401602060405180830381865afa158015610d23573d6000803e3d6000fd5b505050506040513d601f19601f82011682018060405250810190610d479190611a82565b610d635760405162461bcd60e51b81526004016106c990611a9f565b60cc546040805160ff9092161515825283151560208301527f031b7076ea69cc7c069abb5b40b40971da5a280ca9d1c3bda1e25e69b2e72abb910160405180910390a15060cc805460ff1916911515919091179055565b60c954600080516020611b37833981519152906001600160a01b03166391d1485482336040516001600160e01b031960e085901b16815260048101929092526001600160a01b03166024820152604401602060405180830381865afa158015610e27573d6000803e3d6000fd5b505050506040513d601f19601f82011682018060405250810190610e4b9190611a82565b610e675760405162461bcd60e51b81526004016106c990611a9f565b60cb5460408051918252602082018490527f9be715265056d01e32a5a436e7cf9bd1e204862153232c5ccdd5bbb72f5ea944910160405180910390a15060cb55565b6001600160a01b038316610f0b5760405162461bcd60e51b8152602060048201526024808201527f45524332303a20617070726f76652066726f6d20746865207a65726f206164646044820152637265737360e01b60648201526084016106c9565b6001600160a01b038216610f6c5760405162461bcd60e51b815260206004820152602260248201527f45524332303a20617070726f766520746f20746865207a65726f206164647265604482015261737360f01b60648201526084016106c9565b6001600160a01b0383811660008181526034602090815260408083209487168084529482529182902085905590518481527f8c5be1e5ebec7d5bd14f71427d1e84f3dd0314c0f7b2291e5b200ac8c7c3b92591015b60405180910390a3505050565b6001600160a01b03838116600090815260346020908152604080832093861683529290522054600019811461105a578181101561104d5760405162461bcd60e51b815260206004820152601d60248201527f45524332303a20696e73756666696369656e7420616c6c6f77616e636500000060448201526064016106c9565b61105a8484848403610ea9565b50505050565b6001600160a01b0383166110c45760405162461bcd60e51b815260206004820152602560248201527f45524332303a207472616e736665722066726f6d20746865207a65726f206164604482015264647265737360d81b60648201526084016106c9565b6001600160a01b0382166111265760405162461bcd60e51b815260206004820152602360248201527f45524332303a207472616e7366657220746f20746865207a65726f206164647260448201526265737360e81b60648201526084016106c9565b6111318383836115ba565b6001600160a01b038316600090815260336020526040902054818110156111a95760405162461bcd60e51b815260206004820152602660248201527f45524332303a207472616e7366657220616d6f756e7420657863656564732062604482015265616c616e636560d01b60648201526084016106c9565b6001600160a01b038085166000908152603360205260408082208585039055918516815290812080548492906111e0908490611a6a565b92505081905550826001600160a01b0316846001600160a01b03167fddf252ad1be2c89b69c2b068fc378daa952ba7f163c4a11628f55a4df523b3ef8460405161122c91815260200190565b60405180910390a361105a565b60655460ff166112825760405162461bcd60e51b815260206004820152601460248201527314185d5cd8589b194e881b9bdd081c185d5cd95960621b60448201526064016106c9565b6065805460ff191690557f5db9ee0a495bf2e6ff9c91a7834c1ba4fdd244a5e8aa4e537bd38aeae4b073aa335b6040516001600160a01b03909116815260200160405180910390a1565b6001600160a01b0382166113225760405162461bcd60e51b815260206004820152601f60248201527f45524332303a206d696e7420746f20746865207a65726f20616464726573730060448201526064016106c9565b61132e600083836115ba565b80603560008282546113409190611a6a565b90915550506001600160a01b0382166000908152603360205260408120805483929061136d908490611a6a565b90915550506040518181526001600160a01b038316906000907fddf252ad1be2c89b69c2b068fc378daa952ba7f163c4a11628f55a4df523b3ef9060200160405180910390a35050565b60655460ff16156113fd5760405162461bcd60e51b815260206004820152601060248201526f14185d5cd8589b194e881c185d5cd95960821b60448201526064016106c9565b6065805460ff191660011790557f62e78cea01bee320cd4e420270b5ea74000d11b0c9f74754ebdbfc544b05a2586112af3390565b6001600160a01b0382166114925760405162461bcd60e51b815260206004820152602160248201527f45524332303a206275726e2066726f6d20746865207a65726f206164647265736044820152607360f81b60648201526084016106c9565b61149e826000836115ba565b6001600160a01b038216600090815260336020526040902054818110156115125760405162461bcd60e51b815260206004820152602260248201527f45524332303a206275726e20616d6f756e7420657863656564732062616c616e604482015261636560f01b60648201526084016106c9565b6001600160a01b0383166000908152603360205260408120838303905560358054849290611541908490611ad4565b90915550506040518281526000906001600160a01b038516907fddf252ad1be2c89b69c2b068fc378daa952ba7f163c4a11628f55a4df523b3ef90602001610fc1565b505050565b600054610100900460ff166115b05760405162461bcd60e51b81526004016106c990611aeb565b6107e78282611759565b60cc5460ff161580611668575060c9546001600160a01b03166391d148547f8502233096d909befbda0999bb8ea2f3a6be3c138b9fbf003752a4c8bce86f6c336040516001600160e01b031960e085901b16815260048101929092526001600160a01b03166024820152604401602060405180830381865afa158015611644573d6000803e3d6000fd5b505050506040513d601f19601f820116820180604052508101906116689190611a82565b80611702575060c954604051632474521560e21b81527f8502233096d909befbda0999bb8ea2f3a6be3c138b9fbf003752a4c8bce86f6c60048201526001600160a01b038581166024830152909116906391d1485490604401602060405180830381865afa1580156116de573d6000803e3d6000fd5b505050506040513d601f19601f820116820180604052508101906117029190611a82565b61174e5760405162461bcd60e51b815260206004820152601d60248201527f4d6f7270686572546f6b656e3a205472616e736665722064656e69656400000060448201526064016106c9565b6115848383836117a7565b600054610100900460ff166117805760405162461bcd60e51b81526004016106c990611aeb565b815161179390603690602085019061180d565b50805161158490603790602084019061180d565b60655460ff16156115845760405162461bcd60e51b815260206004820152602a60248201527f45524332305061757361626c653a20746f6b656e207472616e736665722077686044820152691a5b19481c185d5cd95960b21b60648201526084016106c9565b82805461181990611a19565b90600052602060002090601f01602090048101928261183b5760008555611881565b82601f1061185457805160ff1916838001178555611881565b82800160010185558215611881579182015b82811115611881578251825591602001919060010190611866565b5061188d929150611891565b5090565b5b8082111561188d5760008155600101611892565b600060208083528351808285015260005b818110156118d3578581018301518582016040015282016118b7565b818111156118e5576000604083870101525b50601f01601f1916929092016040019392505050565b80356001600160a01b038116811461191257600080fd5b919050565b6000806040838503121561192a57600080fd5b611933836118fb565b946020939093013593505050565b60008060006060848603121561195657600080fd5b61195f846118fb565b925061196d602085016118fb565b9150604084013590509250925092565b60006020828403121561198f57600080fd5b611998826118fb565b9392505050565b6000602082840312156119b157600080fd5b5035919050565b80151581146119c657600080fd5b50565b6000602082840312156119db57600080fd5b8135611998816119b8565b600080604083850312156119f957600080fd5b611a02836118fb565b9150611a10602084016118fb565b90509250929050565b600181811c90821680611a2d57607f821691505b60208210811415611a4e57634e487b7160e01b600052602260045260246000fd5b50919050565b634e487b7160e01b600052601160045260246000fd5b60008219821115611a7d57611a7d611a54565b500190565b600060208284031215611a9457600080fd5b8151611998816119b8565b6020808252818101527f4d6f7270686572546f6b656e3a205065726d697373696f6e2064656e6965642e604082015260600190565b600082821015611ae657611ae6611a54565b500390565b6020808252602b908201527f496e697469616c697a61626c653a20636f6e7472616374206973206e6f74206960408201526a6e697469616c697a696e6760a81b60608201526080019056fee5a0b4d50f56047f84728557fedbda92f956391bc9d5c762e8461996dd8e7ad7a2646970667358221220264f56204e1c58f04b0f13c1cf06ee4c5a05d75808c2f071f5eb0496ed666e2564736f6c634300080b0033",
  "immutableReferences": {},
  "source": "//SPDX-License-Identifier: GPLv3\npragma solidity 0.8.11;\n\nimport \"@openzeppelin/contracts-upgradeable/token/ERC20/ERC20Upgradeable.sol\";\nimport \"@openzeppelin/contracts-upgradeable/token/ERC20/extensions/ERC20PausableUpgradeable.sol\";\nimport \"./MorpherAccessControl.sol\";\n\ncontract MorpherToken is ERC20Upgradeable, ERC20PausableUpgradeable {\n\n    MorpherAccessControl public morpherAccessControl;\n    \n    bytes32 public constant MINTER_ROLE = keccak256(\"MINTER_ROLE\");\n    bytes32 public constant BURNER_ROLE = keccak256(\"BURNER_ROLE\");\n    bytes32 public constant PAUSER_ROLE = keccak256(\"PAUSER_ROLE\");\n    bytes32 public constant ADMINISTRATOR_ROLE = keccak256(\"ADMINISTRATOR_ROLE\");\n    bytes32 public constant TRANSFER_ROLE = keccak256(\"TRANSFER_ROLE\");\n\n    uint256 private _totalTokensOnOtherChain;\n    uint256 private _totalTokensInPositions;\n    bool private _restrictTransfers;\n\n    event SetTotalTokensOnOtherChain(uint256 _oldValue, uint256 _newValue);\n    event SetTotalTokensInPositions(uint256 _oldValue, uint256 _newValue);\n    event SetRestrictTransfers(bool _oldValue, bool _newValue);\n\n    function initialize(address _morpherAccessControl) public initializer {\n        ERC20Upgradeable.__ERC20_init(\"Morpher\", \"MPH\");\n        morpherAccessControl = MorpherAccessControl(_morpherAccessControl);\n    }\n\n    modifier onlyRole(bytes32 role) {\n        require(morpherAccessControl.hasRole(role, _msgSender()), \"MorpherToken: Permission denied.\");\n        _;\n    }\n\n    function getMorpherAccessControl() public view returns(address) {\n        return address(morpherAccessControl);\n    }\n\n    function setRestrictTransfers(bool restrictTransfers) public onlyRole(ADMINISTRATOR_ROLE) {\n        emit SetRestrictTransfers(_restrictTransfers, restrictTransfers);\n        _restrictTransfers = restrictTransfers;\n    }\n\n    function getRestrictTransfers() public view returns(bool) {\n        return _restrictTransfers;\n    }\n\n    function setTotalTokensOnOtherChain(uint256 totalOnOtherChain) public onlyRole(ADMINISTRATOR_ROLE) {\n        emit SetTotalTokensOnOtherChain(_totalTokensInPositions, totalOnOtherChain);\n        _totalTokensOnOtherChain = totalOnOtherChain;\n    }\n\n    function getTotalTokensOnOtherChain() public view returns(uint256) {\n        return _totalTokensOnOtherChain;\n    }\n\n    function setTotalInPositions(uint256 totalTokensInPositions) public onlyRole(ADMINISTRATOR_ROLE) {\n        emit SetTotalTokensInPositions(_totalTokensInPositions, totalTokensInPositions);\n        _totalTokensInPositions = totalTokensInPositions;\n    }\n\n    function getTotalTokensInPositions() public view returns(uint256) {\n        return _totalTokensInPositions;\n    }\n\n\n    \n    /**\n     * @dev See {IERC20-totalSupply}.\n     */\n    function totalSupply() public view virtual override returns (uint256) {\n        return super.totalSupply() + _totalTokensOnOtherChain + _totalTokensInPositions;\n    }\n\n\n    /**\n     * @dev Creates `amount` new tokens for `to`.\n     *\n     * See {ERC20-_mint}.\n     *\n     * Requirements:\n     *\n     * - the caller must have the `MINTER_ROLE`.\n     */\n    function mint(address to, uint256 amount) public virtual {\n        require(morpherAccessControl.hasRole(MINTER_ROLE, _msgSender()), \"MorpherToken: must have minter role to mint\");\n        _mint(to, amount);\n    }\n\n    /**\n     * @dev Burns `amount` of tokens for `from`.\n     *\n     * See {ERC20-_burn}.\n     *\n     * Requirements:\n     *\n     * - the caller must have the `BURNER_ROLE`.\n     */\n    function burn(address from, uint256 amount) public virtual {\n        require(morpherAccessControl.hasRole(BURNER_ROLE, _msgSender()), \"MorpherToken: must have burner role to burn\");\n        _burn(from, amount);\n    }\n\n    /**\n     * @dev Pauses all token transfers.\n     *\n     * See {ERC20Pausable} and {Pausable-_pause}.\n     *\n     * Requirements:\n     *\n     * - the caller must have the `PAUSER_ROLE`.\n     */\n    function pause() public virtual {\n        require(morpherAccessControl.hasRole(PAUSER_ROLE, _msgSender()), \"MorpherToken: must have pauser role to pause\");\n        _pause();\n    }\n\n    /**\n     * @dev Unpauses all token transfers.\n     *\n     * See {ERC20Pausable} and {Pausable-_unpause}.\n     *\n     * Requirements:\n     *\n     * - the caller must have the `PAUSER_ROLE`.\n     */\n    function unpause() public virtual {\n        require(morpherAccessControl.hasRole(PAUSER_ROLE, _msgSender()), \"MorpherToken: must have pauser role to unpause\");\n        _unpause();\n    }\n\n    function _beforeTokenTransfer(\n        address from,\n        address to,\n        uint256 amount\n    ) internal virtual override(ERC20Upgradeable, ERC20PausableUpgradeable) {\n        require(!_restrictTransfers || morpherAccessControl.hasRole(TRANSFER_ROLE, _msgSender()) || morpherAccessControl.hasRole(TRANSFER_ROLE, from), \"MorpherToken: Transfer denied\");\n        super._beforeTokenTransfer(from, to, amount);\n    }\n}\n\n",
  "sourcePath": "/home/thomas/MorpherProtocol/contracts/MorpherToken.sol",
  "compiler": {
    "name": "solc",
    "version": "0.8.11+commit.d7f03943.Emscripten.clang"
  },
  "schemaVersion": "3.4.5",
  "updatedAt": "2022-03-09T13:35:56.532Z",
  "networkType": "ethereum",
  "devdoc": {
    "kind": "dev",
    "methods": {
      "allowance(address,address)": {
        "details": "See {IERC20-allowance}."
      },
      "approve(address,uint256)": {
        "details": "See {IERC20-approve}. NOTE: If `amount` is the maximum `uint256`, the allowance is not updated on `transferFrom`. This is semantically equivalent to an infinite approval. Requirements: - `spender` cannot be the zero address."
      },
      "balanceOf(address)": {
        "details": "See {IERC20-balanceOf}."
      },
      "burn(address,uint256)": {
        "details": "Burns `amount` of tokens for `from`. See {ERC20-_burn}. Requirements: - the caller must have the `BURNER_ROLE`."
      },
      "decimals()": {
        "details": "Returns the number of decimals used to get its user representation. For example, if `decimals` equals `2`, a balance of `505` tokens should be displayed to a user as `5.05` (`505 / 10 ** 2`). Tokens usually opt for a value of 18, imitating the relationship between Ether and Wei. This is the value {ERC20} uses, unless this function is overridden; NOTE: This information is only used for _display_ purposes: it in no way affects any of the arithmetic of the contract, including {IERC20-balanceOf} and {IERC20-transfer}."
      },
      "decreaseAllowance(address,uint256)": {
        "details": "Atomically decreases the allowance granted to `spender` by the caller. This is an alternative to {approve} that can be used as a mitigation for problems described in {IERC20-approve}. Emits an {Approval} event indicating the updated allowance. Requirements: - `spender` cannot be the zero address. - `spender` must have allowance for the caller of at least `subtractedValue`."
      },
      "increaseAllowance(address,uint256)": {
        "details": "Atomically increases the allowance granted to `spender` by the caller. This is an alternative to {approve} that can be used as a mitigation for problems described in {IERC20-approve}. Emits an {Approval} event indicating the updated allowance. Requirements: - `spender` cannot be the zero address."
      },
      "mint(address,uint256)": {
        "details": "Creates `amount` new tokens for `to`. See {ERC20-_mint}. Requirements: - the caller must have the `MINTER_ROLE`."
      },
      "name()": {
        "details": "Returns the name of the token."
      },
      "pause()": {
        "details": "Pauses all token transfers. See {ERC20Pausable} and {Pausable-_pause}. Requirements: - the caller must have the `PAUSER_ROLE`."
      },
      "paused()": {
        "details": "Returns true if the contract is paused, and false otherwise."
      },
      "symbol()": {
        "details": "Returns the symbol of the token, usually a shorter version of the name."
      },
      "totalSupply()": {
        "details": "See {IERC20-totalSupply}."
      },
      "transfer(address,uint256)": {
        "details": "See {IERC20-transfer}. Requirements: - `to` cannot be the zero address. - the caller must have a balance of at least `amount`."
      },
      "transferFrom(address,address,uint256)": {
        "details": "See {IERC20-transferFrom}. Emits an {Approval} event indicating the updated allowance. This is not required by the EIP. See the note at the beginning of {ERC20}. NOTE: Does not update the allowance if the current allowance is the maximum `uint256`. Requirements: - `from` and `to` cannot be the zero address. - `from` must have a balance of at least `amount`. - the caller must have allowance for ``from``'s tokens of at least `amount`."
      },
      "unpause()": {
        "details": "Unpauses all token transfers. See {ERC20Pausable} and {Pausable-_unpause}. Requirements: - the caller must have the `PAUSER_ROLE`."
      }
    },
    "version": 1
  },
  "userdoc": {
    "kind": "user",
    "methods": {},
    "version": 1
  }
}