{
  "contractName": "MorpherAdmin",
  "abi": [
    {
      "inputs": [
        {
          "internalType": "address",
          "name": "_stateAddress",
          "type": "address"
        },
        {
          "internalType": "address",
          "name": "_tradeEngine",
          "type": "address"
        }
      ],
      "stateMutability": "nonpayable",
      "type": "constructor"
    },
    {
      "anonymous": false,
      "inputs": [
        {
          "indexed": false,
          "internalType": "address",
          "name": "_owner",
          "type": "address"
        },
        {
          "indexed": false,
          "internalType": "bytes32",
          "name": "_oldMarketId",
          "type": "bytes32"
        },
        {
          "indexed": false,
          "internalType": "bytes32",
          "name": "_newMarketId",
          "type": "bytes32"
        }
      ],
      "name": "AddressPositionMigrationComplete",
      "type": "event"
    },
    {
      "anonymous": false,
      "inputs": [
        {
          "indexed": true,
          "internalType": "bytes32",
          "name": "_orderId",
          "type": "bytes32"
        },
        {
          "indexed": true,
          "internalType": "address",
          "name": "_address",
          "type": "address"
        },
        {
          "indexed": true,
          "internalType": "bytes32",
          "name": "_marketId",
          "type": "bytes32"
        },
        {
          "indexed": false,
          "internalType": "uint256",
          "name": "_closeSharesAmount",
          "type": "uint256"
        },
        {
          "indexed": false,
          "internalType": "uint256",
          "name": "_openMPHTokenAmount",
          "type": "uint256"
        },
        {
          "indexed": false,
          "internalType": "bool",
          "name": "_tradeDirection",
          "type": "bool"
        },
        {
          "indexed": false,
          "internalType": "uint256",
          "name": "_orderLeverage",
          "type": "uint256"
        }
      ],
      "name": "AdminLiquidationOrderCreated",
      "type": "event"
    },
    {
      "anonymous": false,
      "inputs": [
        {
          "indexed": false,
          "internalType": "bytes32",
          "name": "_oldMarketId",
          "type": "bytes32"
        },
        {
          "indexed": false,
          "internalType": "bytes32",
          "name": "_newMarketId",
          "type": "bytes32"
        },
        {
          "indexed": false,
          "internalType": "uint256",
          "name": "_maxIx",
          "type": "uint256"
        }
      ],
      "name": "AllPositionMigrationIncomplete",
      "type": "event"
    },
    {
      "anonymous": false,
      "inputs": [
        {
          "indexed": false,
          "internalType": "bytes32",
          "name": "_oldMarketId",
          "type": "bytes32"
        },
        {
          "indexed": false,
          "internalType": "bytes32",
          "name": "_newMarketId",
          "type": "bytes32"
        }
      ],
      "name": "AllPositionMigrationsComplete",
      "type": "event"
    },
    {
      "inputs": [
        {
          "internalType": "address",
          "name": "_stateAddress",
          "type": "address"
        }
      ],
      "name": "setMorpherState",
      "outputs": [],
      "stateMutability": "nonpayable",
      "type": "function"
    },
    {
      "inputs": [
        {
          "internalType": "address",
          "name": "_tradeEngine",
          "type": "address"
        }
      ],
      "name": "setMorpherTradeEngine",
      "outputs": [],
      "stateMutability": "nonpayable",
      "type": "function"
    },
    {
      "inputs": [
        {
          "internalType": "bytes32",
          "name": "_oldMarketId",
          "type": "bytes32"
        },
        {
          "internalType": "bytes32",
          "name": "_newMarketId",
          "type": "bytes32"
        }
      ],
      "name": "migratePositionsToNewMarket",
      "outputs": [],
      "stateMutability": "nonpayable",
      "type": "function"
    },
    {
      "inputs": [
        {
          "internalType": "bytes32",
          "name": "_marketId",
          "type": "bytes32"
        },
        {
          "internalType": "uint256",
          "name": "_fromIx",
          "type": "uint256"
        },
        {
          "internalType": "uint256",
          "name": "_toIx",
          "type": "uint256"
        },
        {
          "internalType": "uint256",
          "name": "_nominator",
          "type": "uint256"
        },
        {
          "internalType": "uint256",
          "name": "_denominator",
          "type": "uint256"
        }
      ],
      "name": "stockSplits",
      "outputs": [],
      "stateMutability": "nonpayable",
      "type": "function"
    },
    {
      "inputs": [
        {
          "internalType": "bytes32",
          "name": "_marketId",
          "type": "bytes32"
        },
        {
          "internalType": "uint256",
          "name": "_fromIx",
          "type": "uint256"
        },
        {
          "internalType": "uint256",
          "name": "_toIx",
          "type": "uint256"
        },
        {
          "internalType": "uint256",
          "name": "_rollUp",
          "type": "uint256"
        },
        {
          "internalType": "uint256",
          "name": "_rollDown",
          "type": "uint256"
        }
      ],
      "name": "contractRolls",
      "outputs": [],
      "stateMutability": "nonpayable",
      "type": "function"
    },
    {
      "inputs": [
        {
          "internalType": "bytes32",
          "name": "_marketId",
          "type": "bytes32"
        },
        {
          "internalType": "uint256",
          "name": "_fromIx",
          "type": "uint256"
        },
        {
          "internalType": "uint256",
          "name": "_toIx",
          "type": "uint256"
        }
      ],
      "name": "delistMarket",
      "outputs": [],
      "stateMutability": "nonpayable",
      "type": "function"
    },
    {
      "inputs": [
        {
          "internalType": "address",
          "name": "_address",
          "type": "address"
        },
        {
          "internalType": "bytes32",
          "name": "_marketId",
          "type": "bytes32"
        }
      ],
      "name": "adminLiquidationOrder",
      "outputs": [
        {
          "internalType": "bytes32",
          "name": "_orderId",
          "type": "bytes32"
        }
      ],
      "stateMutability": "nonpayable",
      "type": "function"
    },
    {
      "inputs": [],
      "name": "payOperatingReward",
      "outputs": [],
      "stateMutability": "view",
      "type": "function"
    }
  ],
  "bytecode": "0x60806040523480156200001157600080fd5b5060405162001ed138038062001ed1833981016040819052620000349162000083565b600080546001600160a01b039384166001600160a01b03199182161790915560018054929093169116179055620000bb565b80516001600160a01b03811681146200007e57600080fd5b919050565b600080604083850312156200009757600080fd5b620000a28362000066565b9150620000b26020840162000066565b90509250929050565b611e0680620000cb6000396000f3fe608060405234801561001057600080fd5b50600436106100885760003560e01c8063801046681161005b57806380104668146100e2578063aba5d3b1146100f5578063d86084e914610108578063d9d450001461011b57600080fd5b80632082bb281461008d57806341b2a4b8146100a25780636d37e218146100b55780637848d1df146100bd575b600080fd5b6100a061009b366004611a9b565b61012e565b005b6100a06100b0366004611abf565b6101fe565b6100a061081d565b6100d06100cb366004611ae1565b6109c1565b60405190815260200160405180910390f35b6100a06100f0366004611a9b565b610d55565b6100a0610103366004611b0d565b610e1c565b6100a0610116366004611b48565b611218565b6100a0610129366004611b0d565b6114c5565b60008054906101000a90046001600160a01b03166001600160a01b031663169674076040518163ffffffff1660e01b8152600401602060405180830381865afa15801561017f573d6000803e3d6000fd5b505050506040513d601f19601f820116820180604052508101906101a39190611b74565b6001600160a01b0316336001600160a01b0316146101dc5760405162461bcd60e51b81526004016101d390611b91565b60405180910390fd5b600180546001600160a01b0319166001600160a01b0392909216919091179055565b60008054906101000a90046001600160a01b03166001600160a01b031663169674076040518163ffffffff1660e01b8152600401602060405180830381865afa15801561024f573d6000803e3d6000fd5b505050506040513d601f19601f820116820180604052508101906102739190611b74565b6001600160a01b0316336001600160a01b0316146102a35760405162461bcd60e51b81526004016101d390611b91565b600054604051634a4cce9760e01b8152600481018490526001600160a01b0390911690634a4cce9790602401602060405180830381865afa1580156102ec573d6000803e3d6000fd5b505050506040513d601f19601f820116820180604052508101906103109190611be2565b1561032d5760405162461bcd60e51b81526004016101d390611c04565b600054604051634a4cce9760e01b8152600481018390526001600160a01b0390911690634a4cce9790602401602060405180830381865afa158015610376573d6000803e3d6000fd5b505050506040513d601f19601f8201168201806040525081019061039a9190611be2565b156103b75760405162461bcd60e51b81526004016101d390611c04565b6000805460405163ef92f83160e01b8152600481018590526001600160a01b039091169063ef92f83190602401602060405180830381865afa158015610401573d6000803e3d6000fd5b505050506040513d601f19601f820116820180604052508101906104259190611c56565b905060008167ffffffffffffffff81111561044257610442611c6f565b60405190808252806020026020018201604052801561046b578160200160208202803683370190505b50905060015b82811161053257600054604051632d7b42c160e01b815260048101879052602481018390526001600160a01b0390911690632d7b42c190604401602060405180830381865afa1580156104c8573d6000803e3d6000fd5b505050506040513d601f19601f820116820180604052508101906104ec9190611b74565b826104f8600184611c9b565b8151811061050857610508611cb2565b6001600160a01b03909216602092830291909101909101528061052a81611cc8565b915050610471565b5060005b81518110156107dc57600082828151811061055357610553611cb2565b6020908102919091010151600080546040516307d47a8b60e11b81526001600160a01b038085166004830152602482018b90529394509192839283928392839283929190911690630fa8f5169060440160c060405180830381865afa1580156105c0573d6000803e3d6000fd5b505050506040513d601f19601f820116820180604052508101906105e49190611ce3565b95509550955095509550955060008611806105ff5750600085115b1561075257600054604051635f3f325b60e11b81526001600160a01b039091169063be7e64b690610644908a908f9042908c908c908c908c908c908c90600401611d2d565b600060405180830381600087803b15801561065e57600080fd5b505af1158015610672573d6000803e3d6000fd5b5050505060008054906101000a90046001600160a01b03166001600160a01b031663be7e64b6888e426000806000806000806040518a63ffffffff1660e01b81526004016106c899989796959493929190611d2d565b600060405180830381600087803b1580156106e257600080fd5b505af11580156106f6573d6000803e3d6000fd5b505050507f39194ea174eda0bd2ddf918b1097e6cbd8e5edd7aa1742f797ba39fd18507523878d8d604051610749939291906001600160a01b039390931683526020830191909152604082015260600190565b60405180910390a15b6207a1205a10801561076e5750885161076c896001611d77565b105b156107c257604080518d8152602081018d90529081018990527f2d4a70151c093a45634061e3fef2ceb2c682319bb6db8865a7f794c12401f8649060600160405180910390a1505050505050505050505050565b5050505050505080806107d490611cc8565b915050610536565b5060408051858152602081018590527f35527c925af87c39083d1de190fa1962baaefa6bdd44f2ab944aca0234d7b24c910160405180910390a150505b5050565b60008054906101000a90046001600160a01b03166001600160a01b031663bfde57306040518163ffffffff1660e01b8152600401602060405180830381865afa15801561086e573d6000803e3d6000fd5b505050506040513d601f19601f820116820180604052508101906108929190611be2565b1515600114156109bf5760008060009054906101000a90046001600160a01b03166001600160a01b0316639231cf746040518163ffffffff1660e01b8152600401602060405180830381865afa1580156108f0573d6000803e3d6000fd5b505050506040513d601f19601f820116820180604052508101906109149190611c56565b9050804211156109bd5760015b6000546040805163248c73dd60e21b8152905162015180926001600160a01b031691639231cf749160048083019260209291908290030181865afa15801561096d573d6000803e3d6000fd5b505050506040513d601f19601f820116820180604052508101906109919190611c56565b61099b9190611d8f565b6109a59042611c9b565b811161081957806109b581611cc8565b915050610921565b505b565b60008060009054906101000a90046001600160a01b03166001600160a01b031663169674076040518163ffffffff1660e01b8152600401602060405180830381865afa158015610a15573d6000803e3d6000fd5b505050506040513d601f19601f82011682018060405250810190610a399190611b74565b6001600160a01b0316336001600160a01b031614610a695760405162461bcd60e51b81526004016101d390611b91565b600080546040516377afd19160e11b81526001600160a01b038681166004830152602482018690529091169063ef5fa32290604401602060405180830381865afa158015610abb573d6000803e3d6000fd5b505050506040513d601f19601f82011682018060405250810190610adf9190611c56565b600080546040516301864ba360e41b81526001600160a01b0388811660048301526024820188905293945091921690631864ba3090604401602060405180830381865afa158015610b34573d6000803e3d6000fd5b505050506040513d601f19601f82011682018060405250810190610b589190611c56565b90508115610c535760015460405163ac8f6f7f60e01b81526001600160a01b038781166004830152602482018790526044820185905260006064830181905260848301526305f5e10060a48301529091169063ac8f6f7f9060c4016020604051808303816000875af1158015610bd2573d6000803e3d6000fd5b505050506040513d601f19601f82011682018060405250810190610bf69190611c56565b60408051848152600060208201819052818301526305f5e1006060820152905191945085916001600160a01b0388169186917f68909f9be64c2fb9036bc6c47d8cff89160ee7f28d4e14082931cfcc8e980d779181900360800190a45b8015610d4d576001805460405163ac8f6f7f60e01b81526001600160a01b03888116600483015260248201889052604482018590526000606483015260848201939093526305f5e10060a482015291169063ac8f6f7f9060c4016020604051808303816000875af1158015610ccc573d6000803e3d6000fd5b505050506040513d601f19601f82011682018060405250810190610cf09190611c56565b60408051838152600060208201526001818301526305f5e1006060820152905191945085916001600160a01b0388169186917f68909f9be64c2fb9036bc6c47d8cff89160ee7f28d4e14082931cfcc8e980d779181900360800190a45b505092915050565b60008054906101000a90046001600160a01b03166001600160a01b031663169674076040518163ffffffff1660e01b8152600401602060405180830381865afa158015610da6573d6000803e3d6000fd5b505050506040513d601f19601f82011682018060405250810190610dca9190611b74565b6001600160a01b0316336001600160a01b031614610dfa5760405162461bcd60e51b81526004016101d390611b91565b600080546001600160a01b0319166001600160a01b0392909216919091179055565b60008054906101000a90046001600160a01b03166001600160a01b031663169674076040518163ffffffff1660e01b8152600401602060405180830381865afa158015610e6d573d6000803e3d6000fd5b505050506040513d601f19601f82011682018060405250810190610e919190611b74565b6001600160a01b0316336001600160a01b031614610ec15760405162461bcd60e51b81526004016101d390611b91565b600054604051634a4cce9760e01b8152600481018790526001600160a01b0390911690634a4cce9790602401602060405180830381865afa158015610f0a573d6000803e3d6000fd5b505050506040513d601f19601f82011682018060405250810190610f2e9190611be2565b15610f8b5760405162461bcd60e51b815260206004820152602760248201527f4d61726b6574206d7573742062652070617573656420746f2070726f63657373604482015266103937b636399760c91b60648201526084016101d3565b83610f9557600193505b8261100a5760005460405163ef92f83160e01b8152600481018790526001600160a01b039091169063ef92f83190602401602060405180830381865afa158015610fe3573d6000803e3d6000fd5b505050506040513d601f19601f820116820180604052508101906110079190611c56565b92505b60008080808080808a5b8a811161120957600054604051632d7b42c160e01b8152600481018f9052602481018390526001600160a01b0390911690632d7b42c190604401602060405180830381865afa15801561106b573d6000803e3d6000fd5b505050506040513d601f19601f8201168201806040525081019061108f9190611b74565b915060008054906101000a90046001600160a01b03166001600160a01b0316630fa8f516838f6040518363ffffffff1660e01b81526004016110e69291906001600160a01b03929092168252602082015260400190565b60c060405180830381865afa158015611103573d6000803e3d6000fd5b505050506040513d601f19601f820116820180604052508101906111279190611ce3565b949c50929a50909850965094509250886111418b88611d77565b61114b9190611c9b565b955086156111665761115f6000838f6118fe565b9250611175565b6111726001838f6118fe565b92505b60008054906101000a90046001600160a01b03166001600160a01b031663be7e64b6838f428c8c8c8c8c8c6040518a63ffffffff1660e01b81526004016111c499989796959493929190611d2d565b600060405180830381600087803b1580156111de57600080fd5b505af11580156111f2573d6000803e3d6000fd5b50505050808061120190611cc8565b915050611014565b50505050505050505050505050565b60008054906101000a90046001600160a01b03166001600160a01b031663169674076040518163ffffffff1660e01b8152600401602060405180830381865afa158015611269573d6000803e3d6000fd5b505050506040513d601f19601f8201168201806040525081019061128d9190611b74565b6001600160a01b0316336001600160a01b0316146112bd5760405162461bcd60e51b81526004016101d390611b91565b600054604051634a4cce9760e01b8152600481018590526001600160a01b0390911690634a4cce9790602401602060405180830381865afa158015611306573d6000803e3d6000fd5b505050506040513d601f19601f8201168201806040525081019061132a9190611be2565b15156001146113a15760405162461bcd60e51b815260206004820152603760248201527f4d61726b6574206d7573742062652061637469766520746f2070726f6365737360448201527f20706f736974696f6e206c69717569646174696f6e732e00000000000000000060648201526084016101d3565b816113ab57600191505b806114205760005460405163ef92f83160e01b8152600481018590526001600160a01b039091169063ef92f83190602401602060405180830381865afa1580156113f9573d6000803e3d6000fd5b505050506040513d601f19601f8201168201806040525081019061141d9190611c56565b90505b6000825b8281116114be57600054604051632d7b42c160e01b815260048101879052602481018390526001600160a01b0390911690632d7b42c190604401602060405180830381865afa15801561147b573d6000803e3d6000fd5b505050506040513d601f19601f8201168201806040525081019061149f9190611b74565b91506114ab82866109c1565b50806114b681611cc8565b915050611424565b5050505050565b60008054906101000a90046001600160a01b03166001600160a01b031663169674076040518163ffffffff1660e01b8152600401602060405180830381865afa158015611516573d6000803e3d6000fd5b505050506040513d601f19601f8201168201806040525081019061153a9190611b74565b6001600160a01b0316336001600160a01b03161461156a5760405162461bcd60e51b81526004016101d390611b91565b600054604051634a4cce9760e01b8152600481018790526001600160a01b0390911690634a4cce9790602401602060405180830381865afa1580156115b3573d6000803e3d6000fd5b505050506040513d601f19601f820116820180604052508101906115d79190611be2565b1561163b5760405162461bcd60e51b815260206004820152602e60248201527f4d61726b6574206d7573742062652070617573656420746f2070726f6365737360448201526d1039ba37b1b59039b83634ba399760911b60648201526084016101d3565b8361164557600193505b826116ba5760005460405163ef92f83160e01b8152600481018790526001600160a01b039091169063ef92f83190602401602060405180830381865afa158015611693573d6000803e3d6000fd5b505050506040513d601f19601f820116820180604052508101906116b79190611c56565b92505b60008080808080808a5b8a811161120957600054604051632d7b42c160e01b8152600481018f9052602481018390526001600160a01b0390911690632d7b42c190604401602060405180830381865afa15801561171b573d6000803e3d6000fd5b505050506040513d601f19601f8201168201806040525081019061173f9190611b74565b915060008054906101000a90046001600160a01b03166001600160a01b0316630fa8f516838f6040518363ffffffff1660e01b81526004016117969291906001600160a01b03929092168252602082015260400190565b60c060405180830381865afa1580156117b3573d6000803e3d6000fd5b505050506040513d601f19601f820116820180604052508101906117d79190611ce3565b949c50929a50909850965094509250896117f18a8a611db1565b6117fb9190611d8f565b9750896118088a89611db1565b6118129190611d8f565b96508861181f8b88611db1565b6118299190611d8f565b9550886118368b87611db1565b6118409190611d8f565b9450861561185b576118546000838f6118fe565b925061186a565b6118676001838f6118fe565b92505b60008054906101000a90046001600160a01b03166001600160a01b031663be7e64b6838f428c8c8c8c8c8c6040518a63ffffffff1660e01b81526004016118b999989796959493929190611d2d565b600060405180830381600087803b1580156118d357600080fd5b505af11580156118e7573d6000803e3d6000fd5b5050505080806118f690611cc8565b9150506116c4565b600080546040516307d47a8b60e11b81526001600160a01b0385811660048301526024820185905283928392911690630fa8f5169060440160c060405180830381865afa158015611953573d6000803e3d6000fd5b505050506040513d601f19601f820116820180604052508101906119779190611ce3565b50600154600054604051630f5fd3cf60e21b81526001600160a01b038d81166004830152602482018d90529599509297509084169550637dffd040945087938793508c92911690633d7f4f3c90604401602060405180830381865afa1580156119e4573d6000803e3d6000fd5b505050506040513d601f19601f82011682018060405250810190611a089190611c56565b6040516001600160e01b031960e087901b16815260048101949094526024840192909252151560448301526064820152608401602060405180830381865afa158015611a58573d6000803e3d6000fd5b505050506040513d601f19601f82011682018060405250810190611a7c9190611c56565b9695505050505050565b6001600160a01b03811681146109bd57600080fd5b600060208284031215611aad57600080fd5b8135611ab881611a86565b9392505050565b60008060408385031215611ad257600080fd5b50508035926020909101359150565b60008060408385031215611af457600080fd5b8235611aff81611a86565b946020939093013593505050565b600080600080600060a08688031215611b2557600080fd5b505083359560208501359550604085013594606081013594506080013592509050565b600080600060608486031215611b5d57600080fd5b505081359360208301359350604090920135919050565b600060208284031215611b8657600080fd5b8151611ab881611a86565b60208082526031908201527f46756e6374696f6e2063616e206f6e6c792062652063616c6c6564206279207460408201527034329020b236b4b734b9ba3930ba37b91760791b606082015260800190565b600060208284031215611bf457600080fd5b81518015158114611ab857600080fd5b60208082526032908201527f4d61726b6574206d7573742062652070617573656420746f2070726f636573736040820152711036b0b935b2ba1036b4b3b930ba34b7b71760711b606082015260800190565b600060208284031215611c6857600080fd5b5051919050565b634e487b7160e01b600052604160045260246000fd5b634e487b7160e01b600052601160045260246000fd5b600082821015611cad57611cad611c85565b500390565b634e487b7160e01b600052603260045260246000fd5b6000600019821415611cdc57611cdc611c85565b5060010190565b60008060008060008060c08789031215611cfc57600080fd5b865195506020870151945060408701519350606087015192506080870151915060a087015190509295509295509295565b6001600160a01b03999099168952602089019790975260408801959095526060870193909352608086019190915260a085015260c084015260e08301526101008201526101200190565b60008219821115611d8a57611d8a611c85565b500190565b600082611dac57634e487b7160e01b600052601260045260246000fd5b500490565b6000816000190483118215151615611dcb57611dcb611c85565b50029056fea2646970667358221220bfc29d2d64263fa6dce09203becfb80ea03611f61469153fdd7ff5f905c3616764736f6c634300080b0033",
  "immutableReferences": {},
  "source": "//SPDX-License-Identifier: GPLv3\r\npragma solidity ^0.8.10;\r\n\r\nimport \"./MorpherState.sol\";\r\nimport \"./MorpherTradeEngine.sol\";\r\n\r\n// ----------------------------------------------------------------------------------\r\n// Administrator of the Morpher platform\r\n// ----------------------------------------------------------------------------------\r\n\r\ncontract MorpherAdmin {\r\n    MorpherState state;\r\n    MorpherTradeEngine tradeEngine;\r\n\r\n    event AdminLiquidationOrderCreated(\r\n        bytes32 indexed _orderId,\r\n        address indexed _address,\r\n        bytes32 indexed _marketId,\r\n        uint256 _closeSharesAmount,\r\n        uint256 _openMPHTokenAmount,\r\n        bool _tradeDirection,\r\n        uint256 _orderLeverage\r\n        );\r\n\r\n event AddressPositionMigrationComplete(address _owner, bytes32 _oldMarketId, bytes32 _newMarketId);\r\n event AllPositionMigrationsComplete(bytes32 _oldMarketId, bytes32 _newMarketId);\r\n event AllPositionMigrationIncomplete(bytes32 _oldMarketId, bytes32 _newMarketId, uint _maxIx);\r\n\r\n// ----------------------------------------------------------------------------\r\n// Precision of prices and leverage\r\n// ----------------------------------------------------------------------------\r\n\r\n    modifier onlyAdministrator {\r\n        require(msg.sender == state.getAdministrator(), \"Function can only be called by the Administrator.\");\r\n        _;\r\n    }\r\n    \r\n    constructor(address _stateAddress, address _tradeEngine) {\r\n        state = MorpherState(_stateAddress);\r\n        tradeEngine = MorpherTradeEngine(_tradeEngine);\r\n    }\r\n\r\n// ----------------------------------------------------------------------------\r\n// Administrative functions\r\n// Set state address and maximum permitted leverage on platform\r\n// ----------------------------------------------------------------------------\r\n    function setMorpherState(address _stateAddress) public onlyAdministrator {\r\n        state = MorpherState(_stateAddress);\r\n    }\r\n\r\n    function setMorpherTradeEngine(address _tradeEngine) public onlyAdministrator {\r\n        tradeEngine = MorpherTradeEngine(_tradeEngine);\r\n    }\r\n\r\n    function migratePositionsToNewMarket(bytes32 _oldMarketId, bytes32 _newMarketId) public onlyAdministrator {\r\n        require(state.getMarketActive(_oldMarketId) == false, \"Market must be paused to process market migration.\");\r\n        require(state.getMarketActive(_newMarketId) == false, \"Market must be paused to process market migration.\");\r\n\r\n        uint256 maxMarketAddressIndex = state.getMaxMappingIndex(_oldMarketId);\r\n        address[] memory addresses = new address[](maxMarketAddressIndex);\r\n        for (uint256 i = 1; i <= maxMarketAddressIndex; i++) { \r\n            addresses[i-1] = state.getExposureMappingAddress(_oldMarketId, i); //changing on position delete\r\n        }\r\n        for(uint256 i = 0; i < addresses.length; i++) {\r\n            address _address = addresses[i]; //normalize back to 0-based index\r\n            (uint longShares, uint shortShares, uint meanEntryPrice, uint meanEntrySpread, uint meanEntryLeverage, uint liquidationPrice) = state.getPosition(_address, _oldMarketId);\r\n            if(longShares > 0 || shortShares > 0) {\r\n                state.setPosition(_address, _newMarketId, block.timestamp, longShares, shortShares, meanEntryPrice, meanEntrySpread, meanEntryLeverage, liquidationPrice); //create a new position for the new market with the same parameters\r\n                state.setPosition(_address, _oldMarketId, block.timestamp, 0,0,0,0,0,0); //delete the current position   \r\n                emit AddressPositionMigrationComplete(_address, _oldMarketId, _newMarketId);  \r\n            } \r\n\r\n            if(gasleft() < 500000 && (i+1) < addresses.length) { //stop if there's not enough gas to write the next transaction\r\n                emit AllPositionMigrationIncomplete(_oldMarketId, _newMarketId, i);\r\n                return;\r\n            }\r\n        }\r\n\r\n        emit AllPositionMigrationsComplete(_oldMarketId, _newMarketId);\r\n    }\r\n\r\n\r\n// ----------------------------------------------------------------------------------\r\n// stockSplits(bytes32 _marketId, uint256 _fromIx, uint256 _toIx, uint256 _nominator, uint256 _denominator)\r\n// Experimental and untested\r\n// ----------------------------------------------------------------------------------\r\n\r\n    function stockSplits(bytes32 _marketId, uint256 _fromIx, uint256 _toIx, uint256 _nominator, uint256 _denominator) public onlyAdministrator {\r\n        require(state.getMarketActive(_marketId) == false, \"Market must be paused to process stock splits.\");\r\n        // If no _fromIx and _toIx specified, do entire _list\r\n        if (_fromIx == 0) {\r\n            _fromIx = 1;\r\n        }\r\n        if (_toIx == 0) {\r\n            _toIx = state.getMaxMappingIndex(_marketId);\r\n        }\r\n        uint256 _positionLongShares;\r\n        uint256 _positionShortShares;\r\n        uint256 _positionAveragePrice;\r\n        uint256 _positionAverageSpread;\r\n        uint256 _positionAverageLeverage;\r\n        uint256 _liquidationPrice;\r\n        address _address;\r\n        \r\n        for (uint256 i = _fromIx; i <= _toIx; i++) {\r\n             // GET position from state\r\n             // multiply with nominator, divide by denominator (longShares/shortShares/meanEntry/meanSpread)\r\n             // Write back to state\r\n            _address = state.getExposureMappingAddress(_marketId, i);\r\n            (_positionLongShares, _positionShortShares, _positionAveragePrice, _positionAverageSpread, _positionAverageLeverage, _liquidationPrice) = state.getPosition(_address, _marketId);\r\n            _positionLongShares      = _positionLongShares * _denominator / _nominator ;\r\n            _positionShortShares     = _positionShortShares * _denominator / _nominator;\r\n            _positionAveragePrice    = _positionAveragePrice * _nominator / _denominator;\r\n            _positionAverageSpread   = _positionAverageSpread * _nominator / _denominator;\r\n            if (_positionShortShares > 0) {\r\n                _liquidationPrice    = getLiquidationPriceInternal(false, _address, _marketId);\r\n            } else {\r\n                _liquidationPrice    = getLiquidationPriceInternal(true, _address, _marketId);\r\n            }               \r\n            state.setPosition(_address, _marketId, block.timestamp, _positionLongShares, _positionShortShares, _positionAveragePrice, _positionAverageSpread, _positionAverageLeverage, _liquidationPrice);   \r\n        }\r\n    }\r\n\r\n// ----------------------------------------------------------------------------------\r\n// contractRolls(bytes32 _marketId, uint256 _fromIx, uint256 _toIx, uint256 _rollUp, uint256 _rollDown)\r\n// Experimental and untested\r\n// ----------------------------------------------------------------------------------\r\n    function contractRolls(bytes32 _marketId, uint256 _fromIx, uint256 _toIx, uint256 _rollUp, uint256 _rollDown) public onlyAdministrator {\r\n        // If no _fromIx and _toIx specified, do entire _list\r\n        // dividends set meanEntry down, rolls either up or down\r\n        require(state.getMarketActive(_marketId) == false, \"Market must be paused to process rolls.\");\r\n        // If no _fromIx and _toIx specified, do entire _list\r\n        if (_fromIx == 0) {\r\n            _fromIx = 1;\r\n        }\r\n        if (_toIx == 0) {\r\n            _toIx = state.getMaxMappingIndex(_marketId);\r\n        }\r\n        uint256 _positionLongShares;\r\n        uint256 _positionShortShares;\r\n        uint256 _positionAveragePrice;\r\n        uint256 _positionAverageSpread;\r\n        uint256 _positionAverageLeverage;\r\n        uint256 _liquidationPrice;\r\n        address _address;\r\n        \r\n        for (uint256 i = _fromIx; i <= _toIx; i++) {\r\n            _address = state.getExposureMappingAddress(_marketId, i);\r\n            (_positionLongShares, _positionShortShares, _positionAveragePrice, _positionAverageSpread, _positionAverageLeverage, _liquidationPrice) = state.getPosition(_address, _marketId);\r\n            _positionAveragePrice    = _positionAveragePrice + _rollUp - _rollDown;\r\n            if (_positionShortShares > 0) {\r\n                _liquidationPrice    = getLiquidationPriceInternal(false, _address, _marketId);\r\n            } else {\r\n                _liquidationPrice    = getLiquidationPriceInternal(true, _address, _marketId);\r\n            }               \r\n            state.setPosition(_address, _marketId, block.timestamp, _positionLongShares, _positionShortShares, _positionAveragePrice, _positionAverageSpread, _positionAverageLeverage, _liquidationPrice);   \r\n        }\r\n    }\r\n\r\n/**\r\n * Stack too deep error\r\n */\r\n    function getLiquidationPriceInternal(bool isLong, address _userAddress, bytes32 _marketId) internal view returns (uint) {\r\n        ( , , uint price, , uint leverage, ) = state.getPosition(_userAddress, _marketId);\r\n        return tradeEngine.getLiquidationPrice(price, leverage, isLong, state.getLastUpdated(_userAddress, _marketId));\r\n    }\r\n    \r\n// ----------------------------------------------------------------------------------\r\n// delistMarket(bytes32 _marketId)\r\n// Administrator closes out all existing positions on _marketId market at current prices\r\n// ----------------------------------------------------------------------------------\r\n    function delistMarket(bytes32 _marketId, uint256 _fromIx, uint256 _toIx) public onlyAdministrator {\r\n        require(state.getMarketActive(_marketId) == true, \"Market must be active to process position liquidations.\");\r\n        // If no _fromIx and _toIx specified, do entire _list\r\n        if (_fromIx == 0) {\r\n            _fromIx = 1;\r\n        }\r\n        if (_toIx == 0) {\r\n            _toIx = state.getMaxMappingIndex(_marketId);\r\n        }\r\n        address _address;\r\n        for (uint256 i = _fromIx; i <= _toIx; i++) {\r\n            _address = state.getExposureMappingAddress(_marketId, i);\r\n            adminLiquidationOrder(_address, _marketId);\r\n        }\r\n    }\r\n\r\n// ----------------------------------------------------------------------------------\r\n// delistMarket(bytes32 _marketId)\r\n// Administrator closes out an existing positions on _marketId market at current price\r\n// ----------------------------------------------------------------------------------\r\n    function adminLiquidationOrder(\r\n        address _address,\r\n        bytes32 _marketId\r\n        ) public onlyAdministrator returns (bytes32 _orderId) {\r\n            uint256 _positionLongShares = state.getLongShares(_address, _marketId);\r\n            uint256 _positionShortShares = state.getShortShares(_address, _marketId);\r\n            if (_positionLongShares > 0) {\r\n                _orderId = tradeEngine.requestOrderId(_address, _marketId, _positionLongShares, 0, false, 10**8);\r\n                emit AdminLiquidationOrderCreated(_orderId, _address, _marketId, _positionLongShares, 0, false, 10**8);\r\n            }\r\n            if (_positionShortShares > 0) {\r\n                _orderId = tradeEngine.requestOrderId(_address, _marketId, _positionShortShares, 0, true, 10**8);\r\n                emit AdminLiquidationOrderCreated(_orderId, _address, _marketId, _positionShortShares, 0, true, 10**8);\r\n            }\r\n            return _orderId;\r\n    }\r\n\r\n// ----------------------------------------------------------------------------------\r\n// payOperatingReward()\r\n// Calls paying of operating reward in state\r\n// ----------------------------------------------------------------------------------\r\n    function payOperatingReward() public view {\r\n        if (state.mainChain() == true) {\r\n            uint256 _lastRewardTime = state.lastRewardTime();\r\n            if (block.timestamp > _lastRewardTime) {\r\n                for (uint256 i = 1; i <= block.timestamp - state.lastRewardTime() / 86400; i++) {\r\n                    state.payOperatingReward;\r\n                }\r\n            }\r\n        }\r\n    }\r\n\r\n// ----------------------------------------------------------------------------------\r\n// stockDividends()\r\n// May want to add support for dividends later\r\n// ----------------------------------------------------------------------------------\r\n/*    function stockDividends(bytes32 _marketId, uint256 _fromIx, uint256 _toIx, uint256 _meanEntryUp, uint256 _meanEntryDown) public onlyOracle returns (bool _success){\r\n    }\r\n*/\r\n}\r\n",
  "sourcePath": "/home/thomas/MorpherProtocol/contracts/MorpherAdmin.sol",
  "compiler": {
    "name": "solc",
    "version": "0.8.11+commit.d7f03943.Emscripten.clang"
  },
  "schemaVersion": "3.4.5",
  "updatedAt": "2022-03-09T13:35:33.481Z",
  "devdoc": {
    "kind": "dev",
    "methods": {},
    "version": 1
  },
  "userdoc": {
    "kind": "user",
    "methods": {},
    "version": 1
  }
}