{
  "contractName": "MorpherState",
  "abi": [
    {
      "anonymous": false,
      "inputs": [
        {
          "indexed": false,
          "internalType": "uint8",
          "name": "version",
          "type": "uint8"
        }
      ],
      "name": "Initialized",
      "type": "event"
    },
    {
      "anonymous": false,
      "inputs": [
        {
          "indexed": true,
          "internalType": "uint256",
          "name": "rewardsTime",
          "type": "uint256"
        }
      ],
      "name": "LastRewardTime",
      "type": "event"
    },
    {
      "anonymous": false,
      "inputs": [
        {
          "indexed": true,
          "internalType": "bytes32",
          "name": "activateMarket",
          "type": "bytes32"
        }
      ],
      "name": "MarketActivated",
      "type": "event"
    },
    {
      "anonymous": false,
      "inputs": [
        {
          "indexed": true,
          "internalType": "bytes32",
          "name": "deActivateMarket",
          "type": "bytes32"
        }
      ],
      "name": "MarketDeActivated",
      "type": "event"
    },
    {
      "anonymous": false,
      "inputs": [
        {
          "indexed": false,
          "internalType": "uint256",
          "name": "maxLeverage",
          "type": "uint256"
        }
      ],
      "name": "MaximumLeverageChange",
      "type": "event"
    },
    {
      "anonymous": false,
      "inputs": [
        {
          "indexed": true,
          "internalType": "address",
          "name": "recipient",
          "type": "address"
        },
        {
          "indexed": false,
          "internalType": "uint256",
          "name": "amount",
          "type": "uint256"
        }
      ],
      "name": "OperatingRewardMinted",
      "type": "event"
    },
    {
      "anonymous": false,
      "inputs": [
        {
          "indexed": true,
          "internalType": "address",
          "name": "rewardsAddress",
          "type": "address"
        },
        {
          "indexed": true,
          "internalType": "uint256",
          "name": "rewardsBasisPoints",
          "type": "uint256"
        }
      ],
      "name": "RewardsChange",
      "type": "event"
    },
    {
      "anonymous": false,
      "inputs": [
        {
          "indexed": false,
          "internalType": "address",
          "name": "_oldAddress",
          "type": "address"
        },
        {
          "indexed": false,
          "internalType": "address",
          "name": "_newAddress",
          "type": "address"
        }
      ],
      "name": "SetMorpherAccessControlAddress",
      "type": "event"
    },
    {
      "anonymous": false,
      "inputs": [
        {
          "indexed": false,
          "internalType": "address",
          "name": "_oldAddress",
          "type": "address"
        },
        {
          "indexed": false,
          "internalType": "address",
          "name": "_newAddress",
          "type": "address"
        }
      ],
      "name": "SetMorpherAirdropAddress",
      "type": "event"
    },
    {
      "anonymous": false,
      "inputs": [
        {
          "indexed": false,
          "internalType": "address",
          "name": "_oldAddress",
          "type": "address"
        },
        {
          "indexed": false,
          "internalType": "address",
          "name": "_newAddress",
          "type": "address"
        }
      ],
      "name": "SetMorpherBridgeAddress",
      "type": "event"
    },
    {
      "anonymous": false,
      "inputs": [
        {
          "indexed": false,
          "internalType": "address",
          "name": "_oldAddress",
          "type": "address"
        },
        {
          "indexed": false,
          "internalType": "address",
          "name": "_newAddress",
          "type": "address"
        }
      ],
      "name": "SetMorpherFaucetAddress",
      "type": "event"
    },
    {
      "anonymous": false,
      "inputs": [
        {
          "indexed": false,
          "internalType": "address",
          "name": "_oldAddress",
          "type": "address"
        },
        {
          "indexed": false,
          "internalType": "address",
          "name": "_newAddress",
          "type": "address"
        }
      ],
      "name": "SetMorpherGovernanceAddress",
      "type": "event"
    },
    {
      "anonymous": false,
      "inputs": [
        {
          "indexed": false,
          "internalType": "address",
          "name": "_oldAddress",
          "type": "address"
        },
        {
          "indexed": false,
          "internalType": "address",
          "name": "_newAddress",
          "type": "address"
        }
      ],
      "name": "SetMorpherMintingLimiterAddress",
      "type": "event"
    },
    {
      "anonymous": false,
      "inputs": [
        {
          "indexed": false,
          "internalType": "address",
          "name": "_oldAddress",
          "type": "address"
        },
        {
          "indexed": false,
          "internalType": "address",
          "name": "_newAddress",
          "type": "address"
        }
      ],
      "name": "SetMorpherOracleAddress",
      "type": "event"
    },
    {
      "anonymous": false,
      "inputs": [
        {
          "indexed": false,
          "internalType": "address",
          "name": "_oldAddress",
          "type": "address"
        },
        {
          "indexed": false,
          "internalType": "address",
          "name": "_newAddress",
          "type": "address"
        }
      ],
      "name": "SetMorpherStakingAddress",
      "type": "event"
    },
    {
      "anonymous": false,
      "inputs": [
        {
          "indexed": false,
          "internalType": "address",
          "name": "_oldAddress",
          "type": "address"
        },
        {
          "indexed": false,
          "internalType": "address",
          "name": "_newAddress",
          "type": "address"
        }
      ],
      "name": "SetMorpherTokenAddress",
      "type": "event"
    },
    {
      "anonymous": false,
      "inputs": [
        {
          "indexed": false,
          "internalType": "address",
          "name": "_oldAddress",
          "type": "address"
        },
        {
          "indexed": false,
          "internalType": "address",
          "name": "_newAddress",
          "type": "address"
        }
      ],
      "name": "SetMorpherTradeEngineAddress",
      "type": "event"
    },
    {
      "anonymous": false,
      "inputs": [
        {
          "indexed": false,
          "internalType": "address",
          "name": "_oldAddress",
          "type": "address"
        },
        {
          "indexed": false,
          "internalType": "address",
          "name": "_newAddress",
          "type": "address"
        }
      ],
      "name": "SetMorpherUserBlockingAddress",
      "type": "event"
    },
    {
      "inputs": [],
      "name": "ADMINISTRATOR_ROLE",
      "outputs": [
        {
          "internalType": "bytes32",
          "name": "",
          "type": "bytes32"
        }
      ],
      "stateMutability": "view",
      "type": "function"
    },
    {
      "inputs": [],
      "name": "DECIMALS",
      "outputs": [
        {
          "internalType": "uint256",
          "name": "",
          "type": "uint256"
        }
      ],
      "stateMutability": "view",
      "type": "function"
    },
    {
      "inputs": [],
      "name": "GOVERNANCE_ROLE",
      "outputs": [
        {
          "internalType": "bytes32",
          "name": "",
          "type": "bytes32"
        }
      ],
      "stateMutability": "view",
      "type": "function"
    },
    {
      "inputs": [],
      "name": "PLATFORM_ROLE",
      "outputs": [
        {
          "internalType": "bytes32",
          "name": "",
          "type": "bytes32"
        }
      ],
      "stateMutability": "view",
      "type": "function"
    },
    {
      "inputs": [],
      "name": "PRECISION",
      "outputs": [
        {
          "internalType": "uint256",
          "name": "",
          "type": "uint256"
        }
      ],
      "stateMutability": "view",
      "type": "function"
    },
    {
      "inputs": [],
      "name": "REWARDPERIOD",
      "outputs": [
        {
          "internalType": "uint256",
          "name": "",
          "type": "uint256"
        }
      ],
      "stateMutability": "view",
      "type": "function"
    },
    {
      "inputs": [],
      "name": "lastRewardTime",
      "outputs": [
        {
          "internalType": "uint256",
          "name": "",
          "type": "uint256"
        }
      ],
      "stateMutability": "view",
      "type": "function"
    },
    {
      "inputs": [],
      "name": "mainChainWithdrawLimit24",
      "outputs": [
        {
          "internalType": "uint256",
          "name": "",
          "type": "uint256"
        }
      ],
      "stateMutability": "view",
      "type": "function"
    },
    {
      "inputs": [],
      "name": "maximumLeverage",
      "outputs": [
        {
          "internalType": "uint256",
          "name": "",
          "type": "uint256"
        }
      ],
      "stateMutability": "view",
      "type": "function"
    },
    {
      "inputs": [],
      "name": "morpherAccessControlAddress",
      "outputs": [
        {
          "internalType": "address",
          "name": "",
          "type": "address"
        }
      ],
      "stateMutability": "view",
      "type": "function"
    },
    {
      "inputs": [],
      "name": "morpherAirdropAddress",
      "outputs": [
        {
          "internalType": "address",
          "name": "",
          "type": "address"
        }
      ],
      "stateMutability": "view",
      "type": "function"
    },
    {
      "inputs": [],
      "name": "morpherBridgeAddress",
      "outputs": [
        {
          "internalType": "address",
          "name": "",
          "type": "address"
        }
      ],
      "stateMutability": "view",
      "type": "function"
    },
    {
      "inputs": [],
      "name": "morpherFaucetAddress",
      "outputs": [
        {
          "internalType": "address",
          "name": "",
          "type": "address"
        }
      ],
      "stateMutability": "view",
      "type": "function"
    },
    {
      "inputs": [],
      "name": "morpherGovernanceAddress",
      "outputs": [
        {
          "internalType": "address",
          "name": "",
          "type": "address"
        }
      ],
      "stateMutability": "view",
      "type": "function"
    },
    {
      "inputs": [],
      "name": "morpherMintingLimiterAddress",
      "outputs": [
        {
          "internalType": "address",
          "name": "",
          "type": "address"
        }
      ],
      "stateMutability": "view",
      "type": "function"
    },
    {
      "inputs": [],
      "name": "morpherOracleAddress",
      "outputs": [
        {
          "internalType": "address",
          "name": "",
          "type": "address"
        }
      ],
      "stateMutability": "view",
      "type": "function"
    },
    {
      "inputs": [],
      "name": "morpherRewards",
      "outputs": [
        {
          "internalType": "address",
          "name": "",
          "type": "address"
        }
      ],
      "stateMutability": "view",
      "type": "function"
    },
    {
      "inputs": [],
      "name": "morpherStakingAddress",
      "outputs": [
        {
          "internalType": "address payable",
          "name": "",
          "type": "address"
        }
      ],
      "stateMutability": "view",
      "type": "function"
    },
    {
      "inputs": [],
      "name": "morpherTokenAddress",
      "outputs": [
        {
          "internalType": "address",
          "name": "",
          "type": "address"
        }
      ],
      "stateMutability": "view",
      "type": "function"
    },
    {
      "inputs": [],
      "name": "morpherTradeEngineAddress",
      "outputs": [
        {
          "internalType": "address",
          "name": "",
          "type": "address"
        }
      ],
      "stateMutability": "view",
      "type": "function"
    },
    {
      "inputs": [],
      "name": "morpherUserBlockingAddress",
      "outputs": [
        {
          "internalType": "address",
          "name": "",
          "type": "address"
        }
      ],
      "stateMutability": "view",
      "type": "function"
    },
    {
      "inputs": [],
      "name": "numberOfRequestsLimit",
      "outputs": [
        {
          "internalType": "uint256",
          "name": "",
          "type": "uint256"
        }
      ],
      "stateMutability": "view",
      "type": "function"
    },
    {
      "inputs": [],
      "name": "rewardBasisPoints",
      "outputs": [
        {
          "internalType": "uint256",
          "name": "",
          "type": "uint256"
        }
      ],
      "stateMutability": "view",
      "type": "function"
    },
    {
      "inputs": [],
      "name": "sideChainMerkleRoot",
      "outputs": [
        {
          "internalType": "bytes32",
          "name": "",
          "type": "bytes32"
        }
      ],
      "stateMutability": "view",
      "type": "function"
    },
    {
      "inputs": [],
      "name": "sideChainMerkleRootWrittenAtTime",
      "outputs": [
        {
          "internalType": "uint256",
          "name": "",
          "type": "uint256"
        }
      ],
      "stateMutability": "view",
      "type": "function"
    },
    {
      "inputs": [
        {
          "internalType": "bool",
          "name": "_mainChain",
          "type": "bool"
        },
        {
          "internalType": "address",
          "name": "_morpherAccessControlAddress",
          "type": "address"
        }
      ],
      "name": "initialize",
      "outputs": [],
      "stateMutability": "nonpayable",
      "type": "function"
    },
    {
      "inputs": [
        {
          "internalType": "address",
          "name": "_morpherAccessControlAddress",
          "type": "address"
        }
      ],
      "name": "setMorpherAccessControl",
      "outputs": [],
      "stateMutability": "nonpayable",
      "type": "function"
    },
    {
      "inputs": [
        {
          "internalType": "address",
          "name": "_morpherAirdropAddress",
          "type": "address"
        }
      ],
      "name": "setMorpherAirdrop",
      "outputs": [],
      "stateMutability": "nonpayable",
      "type": "function"
    },
    {
      "inputs": [
        {
          "internalType": "address",
          "name": "_morpherBridgeAddress",
          "type": "address"
        }
      ],
      "name": "setMorpherBridge",
      "outputs": [],
      "stateMutability": "nonpayable",
      "type": "function"
    },
    {
      "inputs": [
        {
          "internalType": "address",
          "name": "_morpherFaucetAddress",
          "type": "address"
        }
      ],
      "name": "setMorpherFaucet",
      "outputs": [],
      "stateMutability": "nonpayable",
      "type": "function"
    },
    {
      "inputs": [
        {
          "internalType": "address",
          "name": "_morpherGovernanceAddress",
          "type": "address"
        }
      ],
      "name": "setMorpherGovernance",
      "outputs": [],
      "stateMutability": "nonpayable",
      "type": "function"
    },
    {
      "inputs": [
        {
          "internalType": "address",
          "name": "_morpherMintingLimiterAddress",
          "type": "address"
        }
      ],
      "name": "setMorpherMintingLimiter",
      "outputs": [],
      "stateMutability": "nonpayable",
      "type": "function"
    },
    {
      "inputs": [
        {
          "internalType": "address",
          "name": "_morpherOracleAddress",
          "type": "address"
        }
      ],
      "name": "setMorpherOracle",
      "outputs": [],
      "stateMutability": "nonpayable",
      "type": "function"
    },
    {
      "inputs": [
        {
          "internalType": "address payable",
          "name": "_morpherStakingAddress",
          "type": "address"
        }
      ],
      "name": "setMorpherStaking",
      "outputs": [],
      "stateMutability": "nonpayable",
      "type": "function"
    },
    {
      "inputs": [
        {
          "internalType": "address",
          "name": "_morpherTokenAddress",
          "type": "address"
        }
      ],
      "name": "setMorpherToken",
      "outputs": [],
      "stateMutability": "nonpayable",
      "type": "function"
    },
    {
      "inputs": [
        {
          "internalType": "address",
          "name": "_morpherTradeEngineAddress",
          "type": "address"
        }
      ],
      "name": "setMorpherTradeEngine",
      "outputs": [],
      "stateMutability": "nonpayable",
      "type": "function"
    },
    {
      "inputs": [
        {
          "internalType": "address",
          "name": "_morpherUserBlockingAddress",
          "type": "address"
        }
      ],
      "name": "setMorpherUserBlocking",
      "outputs": [],
      "stateMutability": "nonpayable",
      "type": "function"
    },
    {
      "inputs": [
        {
          "internalType": "bytes32",
          "name": "_activateMarket",
          "type": "bytes32"
        }
      ],
      "name": "activateMarket",
      "outputs": [],
      "stateMutability": "nonpayable",
      "type": "function"
    },
    {
      "inputs": [
        {
          "internalType": "bytes32",
          "name": "_deActivateMarket",
          "type": "bytes32"
        }
      ],
      "name": "deActivateMarket",
      "outputs": [],
      "stateMutability": "nonpayable",
      "type": "function"
    },
    {
      "inputs": [
        {
          "internalType": "bytes32",
          "name": "_marketId",
          "type": "bytes32"
        }
      ],
      "name": "getMarketActive",
      "outputs": [
        {
          "internalType": "bool",
          "name": "_active",
          "type": "bool"
        }
      ],
      "stateMutability": "view",
      "type": "function"
    },
    {
      "inputs": [
        {
          "internalType": "uint256",
          "name": "_newMaximumLeverage",
          "type": "uint256"
        }
      ],
      "name": "setMaximumLeverage",
      "outputs": [],
      "stateMutability": "nonpayable",
      "type": "function"
    },
    {
      "inputs": [],
      "name": "getMaximumLeverage",
      "outputs": [
        {
          "internalType": "uint256",
          "name": "_maxLeverage",
          "type": "uint256"
        }
      ],
      "stateMutability": "view",
      "type": "function"
    },
    {
      "inputs": [
        {
          "internalType": "address",
          "name": "_address",
          "type": "address"
        },
        {
          "internalType": "bytes32",
          "name": "_marketHash",
          "type": "bytes32"
        }
      ],
      "name": "getLastUpdated",
      "outputs": [
        {
          "internalType": "uint256",
          "name": "",
          "type": "uint256"
        }
      ],
      "stateMutability": "view",
      "type": "function"
    },
    {
      "inputs": [],
      "name": "totalToken",
      "outputs": [
        {
          "internalType": "uint256",
          "name": "",
          "type": "uint256"
        }
      ],
      "stateMutability": "view",
      "type": "function"
    },
    {
      "inputs": [
        {
          "internalType": "address",
          "name": "_address",
          "type": "address"
        },
        {
          "internalType": "bytes32",
          "name": "_marketId",
          "type": "bytes32"
        }
      ],
      "name": "getPosition",
      "outputs": [
        {
          "internalType": "uint256",
          "name": "_longShares",
          "type": "uint256"
        },
        {
          "internalType": "uint256",
          "name": "_shortShares",
          "type": "uint256"
        },
        {
          "internalType": "uint256",
          "name": "_meanEntryPrice",
          "type": "uint256"
        },
        {
          "internalType": "uint256",
          "name": "_meanEntrySpread",
          "type": "uint256"
        },
        {
          "internalType": "uint256",
          "name": "_meanEntryLeverage",
          "type": "uint256"
        },
        {
          "internalType": "uint256",
          "name": "_liquidationPrice",
          "type": "uint256"
        }
      ],
      "stateMutability": "view",
      "type": "function"
    }
  ],
  "bytecode": "0x608060405234801561000f575f80fd5b50611ae28061001d5f395ff3fe608060405234801561000f575f80fd5b5060043610610276575f3560e01c80638c4050b111610156578063d37afa8d116100ca578063f45edb5f11610084578063f45edb5f14610592578063f606a41a146105a6578063f90f59b7146105b9578063fbfc50f6146105cc578063fc653833146105d5578063fe252852146105e8575f80fd5b8063d37afa8d1461050c578063da4b0f401461051f578063da8cac0214610532578063daf9502714610545578063e20569af14610558578063f36c8f5c1461056b575f80fd5b8063ac981b1e1161011b578063ac981b1e146104ad578063af2b48a7146104c0578063af6976c3146104ca578063bb65b242146104dd578063bc5bea65146104e6578063c5e1b59a146104f9575f80fd5b80638c4050b11461046a5780639231cf74146104735780639baafc5c1461047c578063a13141bd1461048f578063aaf5eb68146104a2575f80fd5b806350a71bac116101ed5780637993a991116101b25780637993a9911461040d5780637b431ab1146104205780637c995e91146104295780638167083614610431578063847787711461044457806385ee7ba614610457575f80fd5b806350a71bac146103af57806355b33741146103c2578063626be567146103cb5780636f319549146103d357806370824c5c146103e6575f80fd5b80633716552d1161023e5780633716552d1461032857806339b1969a1461033b5780633d7f4f3c1461034e5780633eedf76a14610361578063432556ba1461036a5780634a4cce971461037d575f80fd5b806306442d0a1461027a5780630fa8f5161461028f5780632082bb28146102d457806328196ca0146102e75780632e0f262514610312575b5f80fd5b61028d610288366004611842565b6105fb565b005b6102a261029d366004611870565b6106ee565b604080519687526020870195909552938501929092526060840152608083015260a082015260c0015b60405180910390f35b61028d6102e236600461189a565b6107a3565b6033546102fa906001600160a01b031681565b6040516001600160a01b0390911681526020016102cb565b61031a601281565b6040519081526020016102cb565b61028d61033636600461189a565b6108b7565b61028d61034936600461189a565b6109cb565b61031a61035c366004611870565b610adf565b61031a603f5481565b603b546102fa906001600160a01b031681565b61039f61038b366004611842565b5f9081526045602052604090205460ff1690565b60405190151581526020016102cb565b603d546102fa906001600160a01b031681565b61031a60445481565b61031a610b5d565b6035546102fa906001600160a01b031681565b61031a7f797343f8d6a29aafeb3aaf0910a8973e0081c60c2f6c1f775cd9f76ea348fc1e81565b61028d61041b36600461189a565b610bcd565b61031a60435481565b603f5461031a565b6037546102fa906001600160a01b031681565b6039546102fa906001600160a01b031681565b61028d6104653660046118c9565b610ce1565b61031a60485481565b61031a60415481565b61028d61048a36600461189a565b610d90565b61028d61049d36600461189a565b610ea4565b61031a6305f5e10081565b61028d6104bb366004611842565b610fb8565b61031a6201518081565b6038546102fa906001600160a01b031681565b61031a60405481565b6036546102fa906001600160a01b031681565b61028d61050736600461189a565b6110a5565b603c546102fa906001600160a01b031681565b61028d61052d366004611842565b6111b9565b61028d61054036600461189a565b611302565b61028d61055336600461189a565b611416565b603a546102fa906001600160a01b031681565b61031a7f71840dc4906352362b0cdaf79870196c8e42acafade72d5d5a6d59291253ceb181565b61031a5f80516020611a8d83398151915281565b603e546102fa906001600160a01b031681565b6034546102fa906001600160a01b031681565b61031a60425481565b61028d6105e336600461189a565b61152a565b61028d6105f636600461189a565b61163e565b6033545f80516020611a8d833981519152906001600160a01b03166391d1485482336040516001600160e01b031960e085901b16815260048101929092526001600160a01b03166024820152604401602060405180830381865afa158015610665573d5f803e3d5ffd5b505050506040513d601f19601f820116820180604052508101906106899190611900565b6106ae5760405162461bcd60e51b81526004016106a59061191b565b60405180910390fd5b5f82815260456020526040808220805460ff191690555183917f9cb9d54a58b209894faa9f115e54b1c61733c0764fe29ed01f97c7c425f2f24391a25050565b603c546040516307d47a8b60e11b81526001600160a01b038481166004830152602482018490525f928392839283928392839283921690630fa8f5169060440161010060405180830381865afa15801561074a573d5f803e3d5ffd5b505050506040513d601f19601f8201168201806040525081019061076e9190611950565b602081015160408201516060830151608084015160a085015160c090950151939e929d50909b50995091975095509350505050565b6033545f80516020611a8d833981519152906001600160a01b03166391d1485482336040516001600160e01b031960e085901b16815260048101929092526001600160a01b03166024820152604401602060405180830381865afa15801561080d573d5f803e3d5ffd5b505050506040513d601f19601f820116820180604052508101906108319190611900565b61084d5760405162461bcd60e51b81526004016106a59061191b565b603c546040517f258a1bec0e18e5de82e8b2d04d828a5c9634a1c2d13ac19bc17d418704b6076f9161088c916001600160a01b039091169085906119ea565b60405180910390a150603c80546001600160a01b0319166001600160a01b0392909216919091179055565b6033545f80516020611a8d833981519152906001600160a01b03166391d1485482336040516001600160e01b031960e085901b16815260048101929092526001600160a01b03166024820152604401602060405180830381865afa158015610921573d5f803e3d5ffd5b505050506040513d601f19601f820116820180604052508101906109459190611900565b6109615760405162461bcd60e51b81526004016106a59061191b565b6037546040517fb5ae810821e1befb4ae4e5e1ad7e85d8bc5e9f43471fb7deca38e8c057cc44a4916109a0916001600160a01b039091169085906119ea565b60405180910390a150603780546001600160a01b0319166001600160a01b0392909216919091179055565b6033545f80516020611a8d833981519152906001600160a01b03166391d1485482336040516001600160e01b031960e085901b16815260048101929092526001600160a01b03166024820152604401602060405180830381865afa158015610a35573d5f803e3d5ffd5b505050506040513d601f19601f82011682018060405250810190610a599190611900565b610a755760405162461bcd60e51b81526004016106a59061191b565b6036546040517f7fa90270c0b88ee88c968fdff5b5e7dbff285ee37bfb88cf3e168d71aebb432291610ab4916001600160a01b039091169085906119ea565b60405180910390a150603680546001600160a01b0319166001600160a01b0392909216919091179055565b603c546040516307d47a8b60e11b81526001600160a01b038481166004830152602482018490525f921690630fa8f5169060440161010060405180830381865afa158015610b2f573d5f803e3d5ffd5b505050506040513d601f19601f82011682018060405250810190610b539190611950565b5190505b92915050565b603b54604080516318160ddd60e01b815290515f926001600160a01b0316916318160ddd9160048083019260209291908290030181865afa158015610ba4573d5f803e3d5ffd5b505050506040513d601f19601f82011682018060405250810190610bc89190611a04565b905090565b6033545f80516020611a8d833981519152906001600160a01b03166391d1485482336040516001600160e01b031960e085901b16815260048101929092526001600160a01b03166024820152604401602060405180830381865afa158015610c37573d5f803e3d5ffd5b505050506040513d601f19601f82011682018060405250810190610c5b9190611900565b610c775760405162461bcd60e51b81526004016106a59061191b565b603a546040517fe42fe56fe8570b6afa53fb486f69a7b4039429bfed524bab39f5e40c3c30cf0691610cb6916001600160a01b039091169085906119ea565b60405180910390a150603a80546001600160a01b0319166001600160a01b0392909216919091179055565b5f610cec6001611752565b90508015610d03575f805461ff0019166101001790555b610d0b6117d6565b603380546001600160a01b0319166001600160a01b0384161790556049805460ff1916841515179055610d436305f5e100600a611a1b565b603f558015610d8b575f805461ff0019169055604051600181527f7f26b83ff96e1f2b6a682f133852f6798a09c465da95921460cefb38474024989060200160405180910390a15b505050565b6033545f80516020611a8d833981519152906001600160a01b03166391d1485482336040516001600160e01b031960e085901b16815260048101929092526001600160a01b03166024820152604401602060405180830381865afa158015610dfa573d5f803e3d5ffd5b505050506040513d601f19601f82011682018060405250810190610e1e9190611900565b610e3a5760405162461bcd60e51b81526004016106a59061191b565b603d546040517f95269a6783e0a6580818e738f41864edc9da93b2b7dd3821b4e54ebf76cb3da291610e79916001600160a01b039091169085906119ea565b60405180910390a150603d80546001600160a01b0319166001600160a01b0392909216919091179055565b6033545f80516020611a8d833981519152906001600160a01b03166391d1485482336040516001600160e01b031960e085901b16815260048101929092526001600160a01b03166024820152604401602060405180830381865afa158015610f0e573d5f803e3d5ffd5b505050506040513d601f19601f82011682018060405250810190610f329190611900565b610f4e5760405162461bcd60e51b81526004016106a59061191b565b6039546040517fc9a71a70f53329a4d37f06a753cb4867fc10a37bb83532a0194ae1ef438611f791610f8d916001600160a01b039091169085906119ea565b60405180910390a150603980546001600160a01b0319166001600160a01b0392909216919091179055565b6033545f80516020611a8d833981519152906001600160a01b03166391d1485482336040516001600160e01b031960e085901b16815260048101929092526001600160a01b03166024820152604401602060405180830381865afa158015611022573d5f803e3d5ffd5b505050506040513d601f19601f820116820180604052508101906110469190611900565b6110625760405162461bcd60e51b81526004016106a59061191b565b5f82815260456020526040808220805460ff191660011790555183917f52ebf9d662e8bc70841a5b603c1711882a8e4b11a663af6b5709286fe7bd964591a25050565b6033545f80516020611a8d833981519152906001600160a01b03166391d1485482336040516001600160e01b031960e085901b16815260048101929092526001600160a01b03166024820152604401602060405180830381865afa15801561110f573d5f803e3d5ffd5b505050506040513d601f19601f820116820180604052508101906111339190611900565b61114f5760405162461bcd60e51b81526004016106a59061191b565b6035546040517f0143e43add49c04d6583ba258761acbb5ff6c4e04fe756828b55b6da764a27cb9161118e916001600160a01b039091169085906119ea565b60405180910390a150603580546001600160a01b0319166001600160a01b0392909216919091179055565b6033545f80516020611a8d833981519152906001600160a01b03166391d1485482336040516001600160e01b031960e085901b16815260048101929092526001600160a01b03166024820152604401602060405180830381865afa158015611223573d5f803e3d5ffd5b505050506040513d601f19601f820116820180604052508101906112479190611900565b6112635760405162461bcd60e51b81526004016106a59061191b565b6305f5e10082116112c65760405162461bcd60e51b815260206004820152602760248201527f4d6f727068657253746174653a204c6576657261676520707265636973696f6e604482015266040d2e64062ca760cb1b60648201526084016106a5565b603f8290556040518281527f258a1584bca0aad852538c9d396233520174feedba906a03d19b307d3bad5f309060200160405180910390a15050565b6033545f80516020611a8d833981519152906001600160a01b03166391d1485482336040516001600160e01b031960e085901b16815260048101929092526001600160a01b03166024820152604401602060405180830381865afa15801561136c573d5f803e3d5ffd5b505050506040513d601f19601f820116820180604052508101906113909190611900565b6113ac5760405162461bcd60e51b81526004016106a59061191b565b603b546040517fb79492f43466f55538db548bd2b1ce60c376f9541c7b0db11799828061d7a5f6916113eb916001600160a01b039091169085906119ea565b60405180910390a150603b80546001600160a01b0319166001600160a01b0392909216919091179055565b6033545f80516020611a8d833981519152906001600160a01b03166391d1485482336040516001600160e01b031960e085901b16815260048101929092526001600160a01b03166024820152604401602060405180830381865afa158015611480573d5f803e3d5ffd5b505050506040513d601f19601f820116820180604052508101906114a49190611900565b6114c05760405162461bcd60e51b81526004016106a59061191b565b6038546040517f0128d789e17bfd1c3c0876d54f4667a81cb93280e8251bfc6dd7fcb6fa6063ef916114ff916001600160a01b039091169085906119ea565b60405180910390a150603880546001600160a01b0319166001600160a01b0392909216919091179055565b6033545f80516020611a8d833981519152906001600160a01b03166391d1485482336040516001600160e01b031960e085901b16815260048101929092526001600160a01b03166024820152604401602060405180830381865afa158015611594573d5f803e3d5ffd5b505050506040513d601f19601f820116820180604052508101906115b89190611900565b6115d45760405162461bcd60e51b81526004016106a59061191b565b6033546040517f6a1edde11d2186fa21863eb6defd9c39b65ef651d33126a15ddd601186a7aaa291611613916001600160a01b039091169085906119ea565b60405180910390a150603380546001600160a01b0319166001600160a01b0392909216919091179055565b6033545f80516020611a8d833981519152906001600160a01b03166391d1485482336040516001600160e01b031960e085901b16815260048101929092526001600160a01b03166024820152604401602060405180830381865afa1580156116a8573d5f803e3d5ffd5b505050506040513d601f19601f820116820180604052508101906116cc9190611900565b6116e85760405162461bcd60e51b81526004016106a59061191b565b6034546040517fb51ac1f47ba9ff86631e80bbde5882438b4a51649022715da7635919b1d6815891611727916001600160a01b039091169085906119ea565b60405180910390a150603480546001600160a01b0319166001600160a01b0392909216919091179055565b5f8054610100900460ff1615611797578160ff1660011480156117745750303b155b6117905760405162461bcd60e51b81526004016106a590611a3e565b505f919050565b5f5460ff8084169116106117bd5760405162461bcd60e51b81526004016106a590611a3e565b505f805460ff191660ff92909216919091179055600190565b5f54610100900460ff166118405760405162461bcd60e51b815260206004820152602b60248201527f496e697469616c697a61626c653a20636f6e7472616374206973206e6f74206960448201526a6e697469616c697a696e6760a81b60648201526084016106a5565b565b5f60208284031215611852575f80fd5b5035919050565b6001600160a01b038116811461186d575f80fd5b50565b5f8060408385031215611881575f80fd5b823561188c81611859565b946020939093013593505050565b5f602082840312156118aa575f80fd5b81356118b581611859565b9392505050565b801515811461186d575f80fd5b5f80604083850312156118da575f80fd5b82356118e5816118bc565b915060208301356118f581611859565b809150509250929050565b5f60208284031215611910575f80fd5b81516118b5816118bc565b6020808252818101527f4d6f727068657253746174653a205065726d697373696f6e2064656e6965642e604082015260600190565b5f610100808385031215611962575f80fd5b6040519081019067ffffffffffffffff8211818310171561199157634e487b7160e01b5f52604160045260245ffd5b81604052835181526020840151602082015260408401516040820152606084015160608201526080840151608082015260a084015160a082015260c084015160c082015260e084015160e0820152809250505092915050565b6001600160a01b0392831681529116602082015260400190565b5f60208284031215611a14575f80fd5b5051919050565b8082028115828204841417610b5757634e487b7160e01b5f52601160045260245ffd5b6020808252602e908201527f496e697469616c697a61626c653a20636f6e747261637420697320616c72656160408201526d191e481a5b9a5d1a585b1a5e995960921b60608201526080019056fee5a0b4d50f56047f84728557fedbda92f956391bc9d5c762e8461996dd8e7ad7a2646970667358221220844c0d9802b5a3b71205cffe0ab20c11b8610e9aea8b9b7577b697cb4be83dc264736f6c63430008140033",
  "immutableReferences": {},
  "source": "//SPDX-License-Identifier: GPLv3\r\npragma solidity ^0.8.11;\r\nimport \"@openzeppelin/contracts-upgradeable/proxy/utils/Initializable.sol\";\r\nimport \"@openzeppelin/contracts-upgradeable/utils/ContextUpgradeable.sol\";\r\nimport \"./MorpherToken.sol\";\r\nimport \"./MorpherTradeEngine.sol\";\r\n\r\n// ----------------------------------------------------------------------------------\r\n// Data and token balance storage of the Morpher platform\r\n// Writing access is only granted to platform contracts. The contract can be paused\r\n// by an elected platform administrator (see MorpherGovernance) to perform protocol updates.\r\n// ----------------------------------------------------------------------------------\r\n\r\ncontract MorpherState is Initializable, ContextUpgradeable  {\r\n\r\n    address public morpherAccessControlAddress;\r\n    address public morpherAirdropAddress;\r\n    address public morpherBridgeAddress;\r\n    address public morpherFaucetAddress;\r\n    address public morpherGovernanceAddress;\r\n    address public morpherMintingLimiterAddress;\r\n    address public morpherOracleAddress;\r\n    address payable public morpherStakingAddress;\r\n    address public morpherTokenAddress;\r\n    address public morpherTradeEngineAddress;\r\n    address public morpherUserBlockingAddress;\r\n\r\n    /**\r\n     * Roles known to State\r\n     */\r\n    bytes32 public constant ADMINISTRATOR_ROLE = keccak256(\"ADMINISTRATOR_ROLE\");\r\n    bytes32 public constant GOVERNANCE_ROLE = keccak256(\"GOVERNANCE_ROLE\");\r\n    bytes32 public constant PLATFORM_ROLE = keccak256(\"PLATFORM_ROLE\");\r\n \r\n\r\n    address public morpherRewards;\r\n    uint256 public maximumLeverage; // Leverage precision is 1e8, maximum leverage set to 10 initially\r\n    uint256 public constant PRECISION = 10**8;\r\n    uint256 public constant DECIMALS = 18;\r\n    uint256 public constant REWARDPERIOD = 1 days;\r\n\r\n    uint256 public rewardBasisPoints;\r\n    uint256 public lastRewardTime;\r\n\r\n    bytes32 public sideChainMerkleRoot;\r\n    uint256 public sideChainMerkleRootWrittenAtTime;\r\n\r\n    // Set initial withdraw limit from sidechain to 20m token or 2% of initial supply\r\n    uint256 public mainChainWithdrawLimit24;\r\n\r\n    mapping(bytes32 => bool) private marketActive;\r\n\r\n    // ----------------------------------------------------------------------------\r\n    // Sidechain spam protection\r\n    // ----------------------------------------------------------------------------\r\n\r\n    mapping(address => uint256) private lastRequestBlock;\r\n    mapping(address => uint256) private numberOfRequests;\r\n    uint256 public numberOfRequestsLimit;\r\n\r\n    // ----------------------------------------------------------------------------\r\n    // Events\r\n    // ----------------------------------------------------------------------------\r\n    event OperatingRewardMinted(address indexed recipient, uint256 amount);\r\n\r\n    event RewardsChange(address indexed rewardsAddress, uint256 indexed rewardsBasisPoints);\r\n    event LastRewardTime(uint256 indexed rewardsTime);\r\n\r\n   \r\n    event MaximumLeverageChange(uint256 maxLeverage);\r\n    event MarketActivated(bytes32 indexed activateMarket);\r\n    event MarketDeActivated(bytes32 indexed deActivateMarket);\r\n\r\n\r\n    modifier onlyRole(bytes32 role) {\r\n        require(MorpherAccessControl(morpherAccessControlAddress).hasRole(role, _msgSender()), \"MorpherState: Permission denied.\");\r\n        _;\r\n    }\r\n\r\n\r\n\r\n    modifier onlyBridge {\r\n        require(msg.sender == morpherBridgeAddress, \"MorpherState: Caller is not the Bridge. Aborting.\");\r\n        _;\r\n    }\r\n\r\n    modifier onlyMainChain {\r\n        require(mainChain == true, \"MorpherState: Can only be called on mainchain.\");\r\n        _;\r\n    }\r\n\r\n    bool mainChain;\r\n\r\n    function initialize(bool _mainChain, address _morpherAccessControlAddress) public initializer {\r\n        ContextUpgradeable.__Context_init();\r\n        \r\n        morpherAccessControlAddress = _morpherAccessControlAddress;\r\n        mainChain = _mainChain;\r\n\r\n        maximumLeverage = 10*PRECISION; // Leverage precision is 1e8, maximum leverage set to 10 initially\r\n    }\r\n\r\n    // ----------------------------------------------------------------------------\r\n    // Setter/Getter functions for platform roles\r\n    // ----------------------------------------------------------------------------\r\n\r\n    event SetMorpherAccessControlAddress(address _oldAddress, address _newAddress);\r\n    function setMorpherAccessControl(address _morpherAccessControlAddress) public onlyRole(ADMINISTRATOR_ROLE) {\r\n        emit SetMorpherAccessControlAddress(morpherAccessControlAddress, _morpherAccessControlAddress);\r\n        morpherAccessControlAddress = _morpherAccessControlAddress;\r\n    }\r\n\r\n    event SetMorpherAirdropAddress(address _oldAddress, address _newAddress);\r\n    function setMorpherAirdrop(address _morpherAirdropAddress) public onlyRole(ADMINISTRATOR_ROLE) {\r\n        emit SetMorpherAirdropAddress(morpherAirdropAddress, _morpherAirdropAddress);\r\n        morpherAirdropAddress = _morpherAirdropAddress;\r\n    }\r\n\r\n    event SetMorpherBridgeAddress(address _oldAddress, address _newAddress);\r\n    function setMorpherBridge(address _morpherBridgeAddress) public onlyRole(ADMINISTRATOR_ROLE) {\r\n        emit SetMorpherBridgeAddress(morpherBridgeAddress, _morpherBridgeAddress);\r\n        morpherBridgeAddress = _morpherBridgeAddress;\r\n    }\r\n\r\n    event SetMorpherFaucetAddress(address _oldAddress, address _newAddress);\r\n    function setMorpherFaucet(address _morpherFaucetAddress) public onlyRole(ADMINISTRATOR_ROLE) {\r\n        emit SetMorpherFaucetAddress(morpherFaucetAddress, _morpherFaucetAddress);\r\n        morpherFaucetAddress = _morpherFaucetAddress;\r\n    }\r\n\r\n    event SetMorpherGovernanceAddress(address _oldAddress, address _newAddress);\r\n    function setMorpherGovernance(address _morpherGovernanceAddress) public onlyRole(ADMINISTRATOR_ROLE) {\r\n        emit SetMorpherGovernanceAddress(morpherGovernanceAddress, _morpherGovernanceAddress);\r\n        morpherGovernanceAddress = _morpherGovernanceAddress;\r\n    }\r\n\r\n    event SetMorpherMintingLimiterAddress(address _oldAddress, address _newAddress);\r\n    function setMorpherMintingLimiter(address _morpherMintingLimiterAddress) public onlyRole(ADMINISTRATOR_ROLE) {\r\n        emit SetMorpherMintingLimiterAddress(morpherMintingLimiterAddress, _morpherMintingLimiterAddress);\r\n        morpherMintingLimiterAddress = _morpherMintingLimiterAddress;\r\n    }\r\n    event SetMorpherOracleAddress(address _oldAddress, address _newAddress);\r\n    function setMorpherOracle(address _morpherOracleAddress) public onlyRole(ADMINISTRATOR_ROLE) {\r\n        emit SetMorpherOracleAddress(morpherOracleAddress, _morpherOracleAddress);\r\n        morpherOracleAddress = _morpherOracleAddress;\r\n    }\r\n\r\n    event SetMorpherStakingAddress(address _oldAddress, address _newAddress);\r\n    function setMorpherStaking(address payable _morpherStakingAddress) public onlyRole(ADMINISTRATOR_ROLE) {\r\n        emit SetMorpherStakingAddress(morpherStakingAddress, _morpherStakingAddress);\r\n        morpherStakingAddress = _morpherStakingAddress;\r\n    }\r\n\r\n    event SetMorpherTokenAddress(address _oldAddress, address _newAddress);\r\n    function setMorpherToken(address _morpherTokenAddress) public onlyRole(ADMINISTRATOR_ROLE) {\r\n        emit SetMorpherTokenAddress(morpherTokenAddress, _morpherTokenAddress);\r\n        morpherTokenAddress = _morpherTokenAddress;\r\n    }\r\n\r\n    event SetMorpherTradeEngineAddress(address _oldAddress, address _newAddress);\r\n    function setMorpherTradeEngine(address _morpherTradeEngineAddress) public onlyRole(ADMINISTRATOR_ROLE) {\r\n        emit SetMorpherTradeEngineAddress(morpherTradeEngineAddress, _morpherTradeEngineAddress);\r\n        morpherTradeEngineAddress = _morpherTradeEngineAddress;\r\n    }\r\n\r\n    event SetMorpherUserBlockingAddress(address _oldAddress, address _newAddress);\r\n    function setMorpherUserBlocking(address _morpherUserBlockingAddress) public onlyRole(ADMINISTRATOR_ROLE) {\r\n        emit SetMorpherUserBlockingAddress(morpherUserBlockingAddress, _morpherUserBlockingAddress);\r\n        morpherUserBlockingAddress = _morpherUserBlockingAddress;\r\n    }\r\n\r\n\r\n    // ----------------------------------------------------------------------------\r\n    // Setter/Getter functions for platform administration\r\n    // ----------------------------------------------------------------------------\r\n\r\n    function activateMarket(bytes32 _activateMarket) public onlyRole(ADMINISTRATOR_ROLE)  {\r\n        marketActive[_activateMarket] = true;\r\n        emit MarketActivated(_activateMarket);\r\n    }\r\n\r\n    function deActivateMarket(bytes32 _deActivateMarket) public onlyRole(ADMINISTRATOR_ROLE)  {\r\n        marketActive[_deActivateMarket] = false;\r\n        emit MarketDeActivated(_deActivateMarket);\r\n    }\r\n\r\n    function getMarketActive(bytes32 _marketId) public view returns(bool _active) {\r\n        return marketActive[_marketId];\r\n    }\r\n\r\n    function setMaximumLeverage(uint256 _newMaximumLeverage) public onlyRole(ADMINISTRATOR_ROLE)  {\r\n        require(_newMaximumLeverage > PRECISION, \"MorpherState: Leverage precision is 1e8\");\r\n        maximumLeverage = _newMaximumLeverage;\r\n        emit MaximumLeverageChange(_newMaximumLeverage);\r\n    }\r\n\r\n    function getMaximumLeverage() public view returns(uint256 _maxLeverage) {\r\n        return maximumLeverage;\r\n    }\r\n\r\n    /**\r\n     * Backwards compatibility functions\r\n     */\r\n    function getLastUpdated(address _address, bytes32 _marketHash) public view returns(uint) {\r\n        return MorpherTradeEngine(morpherTradeEngineAddress).getPosition(_address, _marketHash).lastUpdated; \r\n    }\r\n\r\n    function totalToken() public view returns(uint) {\r\n        return MorpherToken(morpherTokenAddress).totalSupply();\r\n    }\r\n\r\n       function getPosition(\r\n        address _address,\r\n        bytes32 _marketId\r\n    ) public view returns (\r\n        uint256 _longShares,\r\n        uint256 _shortShares,\r\n        uint256 _meanEntryPrice,\r\n        uint256 _meanEntrySpread,\r\n        uint256 _meanEntryLeverage,\r\n        uint256 _liquidationPrice\r\n    ) {\r\n        MorpherTradeEngine.position memory position = MorpherTradeEngine(morpherTradeEngineAddress).getPosition(_address, _marketId);\r\n        return (\r\n            position.longShares,\r\n            position.shortShares,\r\n            position.meanEntryPrice,\r\n            position.meanEntrySpread,\r\n            position.meanEntryLeverage,\r\n            position.liquidationPrice\r\n        );\r\n    }\r\n\r\n    \r\n}\r\n",
  "sourcePath": "/Users/thomas/Projects/Morpher/MorpherProtocol/contracts/MorpherState.sol",
  "compiler": {
    "name": "solc",
    "version": "0.8.20+commit.a1b79de6.Emscripten.clang"
  },
  "schemaVersion": "3.4.16",
  "updatedAt": "2024-01-16T11:09:31.225Z",
  "devdoc": {
    "events": {
      "Initialized(uint8)": {
        "details": "Triggered when the contract has been initialized or reinitialized."
      }
    },
    "kind": "dev",
    "methods": {},
    "version": 1
  },
  "userdoc": {
    "kind": "user",
    "methods": {
      "ADMINISTRATOR_ROLE()": {
        "notice": "Roles known to State"
      },
      "getLastUpdated(address,bytes32)": {
        "notice": "Backwards compatibility functions"
      }
    },
    "version": 1
  }
}