{
  "contractName": "MorpherOracle",
  "abi": [
    {
      "anonymous": false,
      "inputs": [
        {
          "indexed": false,
          "internalType": "address",
          "name": "_address",
          "type": "address"
        }
      ],
      "name": "AddressBlackListed",
      "type": "event"
    },
    {
      "anonymous": false,
      "inputs": [
        {
          "indexed": false,
          "internalType": "address",
          "name": "_address",
          "type": "address"
        }
      ],
      "name": "AddressWhiteListed",
      "type": "event"
    },
    {
      "anonymous": false,
      "inputs": [
        {
          "indexed": true,
          "internalType": "bytes32",
          "name": "_orderId",
          "type": "bytes32"
        },
        {
          "indexed": true,
          "internalType": "address",
          "name": "_address",
          "type": "address"
        },
        {
          "indexed": true,
          "internalType": "bytes32",
          "name": "_marketId",
          "type": "bytes32"
        },
        {
          "indexed": false,
          "internalType": "uint256",
          "name": "_closeSharesAmount",
          "type": "uint256"
        },
        {
          "indexed": false,
          "internalType": "uint256",
          "name": "_openMPHTokenAmount",
          "type": "uint256"
        },
        {
          "indexed": false,
          "internalType": "bool",
          "name": "_tradeDirection",
          "type": "bool"
        },
        {
          "indexed": false,
          "internalType": "uint256",
          "name": "_orderLeverage",
          "type": "uint256"
        }
      ],
      "name": "AdminLiquidationOrderCreated",
      "type": "event"
    },
    {
      "anonymous": false,
      "inputs": [
        {
          "indexed": true,
          "internalType": "bytes32",
          "name": "_orderId",
          "type": "bytes32"
        },
        {
          "indexed": true,
          "internalType": "address",
          "name": "_sender",
          "type": "address"
        },
        {
          "indexed": true,
          "internalType": "address",
          "name": "_oracleAddress",
          "type": "address"
        }
      ],
      "name": "AdminOrderCancelled",
      "type": "event"
    },
    {
      "anonymous": false,
      "inputs": [
        {
          "indexed": false,
          "internalType": "address",
          "name": "_address",
          "type": "address"
        }
      ],
      "name": "CallBackCollectionAddressChange",
      "type": "event"
    },
    {
      "anonymous": false,
      "inputs": [
        {
          "indexed": true,
          "internalType": "address",
          "name": "_address",
          "type": "address"
        }
      ],
      "name": "CallbackAddressDisabled",
      "type": "event"
    },
    {
      "anonymous": false,
      "inputs": [
        {
          "indexed": true,
          "internalType": "address",
          "name": "_address",
          "type": "address"
        }
      ],
      "name": "CallbackAddressEnabled",
      "type": "event"
    },
    {
      "anonymous": false,
      "inputs": [
        {
          "indexed": false,
          "internalType": "bytes32",
          "name": "_marketId",
          "type": "bytes32"
        }
      ],
      "name": "DelistMarketComplete",
      "type": "event"
    },
    {
      "anonymous": false,
      "inputs": [
        {
          "indexed": false,
          "internalType": "bytes32",
          "name": "_marketId",
          "type": "bytes32"
        },
        {
          "indexed": false,
          "internalType": "uint256",
          "name": "_processedUntilIndex",
          "type": "uint256"
        }
      ],
      "name": "DelistMarketIncomplete",
      "type": "event"
    },
    {
      "anonymous": false,
      "inputs": [
        {
          "indexed": false,
          "internalType": "uint8",
          "name": "version",
          "type": "uint8"
        }
      ],
      "name": "Initialized",
      "type": "event"
    },
    {
      "anonymous": false,
      "inputs": [
        {
          "indexed": false,
          "internalType": "address",
          "name": "_address",
          "type": "address"
        }
      ],
      "name": "LinkMorpherState",
      "type": "event"
    },
    {
      "anonymous": false,
      "inputs": [
        {
          "indexed": false,
          "internalType": "address",
          "name": "_address",
          "type": "address"
        }
      ],
      "name": "LinkTradeEngine",
      "type": "event"
    },
    {
      "anonymous": false,
      "inputs": [
        {
          "indexed": false,
          "internalType": "address",
          "name": "_address",
          "type": "address"
        }
      ],
      "name": "LinkWMatic",
      "type": "event"
    },
    {
      "anonymous": false,
      "inputs": [
        {
          "indexed": true,
          "internalType": "bytes32",
          "name": "_orderId",
          "type": "bytes32"
        },
        {
          "indexed": false,
          "internalType": "address",
          "name": "_sender",
          "type": "address"
        },
        {
          "indexed": true,
          "internalType": "address",
          "name": "_address",
          "type": "address"
        },
        {
          "indexed": true,
          "internalType": "bytes32",
          "name": "_marketId",
          "type": "bytes32"
        }
      ],
      "name": "LiquidationOrderCreated",
      "type": "event"
    },
    {
      "anonymous": false,
      "inputs": [
        {
          "indexed": false,
          "internalType": "bytes32",
          "name": "_marketId",
          "type": "bytes32"
        },
        {
          "indexed": false,
          "internalType": "uint256",
          "name": "_price",
          "type": "uint256"
        }
      ],
      "name": "LockedPriceForClosingPositions",
      "type": "event"
    },
    {
      "anonymous": false,
      "inputs": [
        {
          "indexed": false,
          "internalType": "bool",
          "name": "_paused",
          "type": "bool"
        }
      ],
      "name": "OraclePaused",
      "type": "event"
    },
    {
      "anonymous": false,
      "inputs": [
        {
          "indexed": true,
          "internalType": "bytes32",
          "name": "_orderId",
          "type": "bytes32"
        },
        {
          "indexed": true,
          "internalType": "address",
          "name": "_sender",
          "type": "address"
        }
      ],
      "name": "OrderCancellationRequestedEvent",
      "type": "event"
    },
    {
      "anonymous": false,
      "inputs": [
        {
          "indexed": true,
          "internalType": "bytes32",
          "name": "_orderId",
          "type": "bytes32"
        },
        {
          "indexed": true,
          "internalType": "address",
          "name": "_sender",
          "type": "address"
        },
        {
          "indexed": true,
          "internalType": "address",
          "name": "_oracleAddress",
          "type": "address"
        }
      ],
      "name": "OrderCancelled",
      "type": "event"
    },
    {
      "anonymous": false,
      "inputs": [
        {
          "indexed": true,
          "internalType": "bytes32",
          "name": "_orderId",
          "type": "bytes32"
        },
        {
          "indexed": true,
          "internalType": "address",
          "name": "_address",
          "type": "address"
        },
        {
          "indexed": true,
          "internalType": "bytes32",
          "name": "_marketId",
          "type": "bytes32"
        },
        {
          "indexed": false,
          "internalType": "uint256",
          "name": "_closeSharesAmount",
          "type": "uint256"
        },
        {
          "indexed": false,
          "internalType": "uint256",
          "name": "_openMPHTokenAmount",
          "type": "uint256"
        },
        {
          "indexed": false,
          "internalType": "bool",
          "name": "_tradeDirection",
          "type": "bool"
        },
        {
          "indexed": false,
          "internalType": "uint256",
          "name": "_orderLeverage",
          "type": "uint256"
        },
        {
          "indexed": false,
          "internalType": "uint256",
          "name": "_onlyIfPriceBelow",
          "type": "uint256"
        },
        {
          "indexed": false,
          "internalType": "uint256",
          "name": "_onlyIfPriceAbove",
          "type": "uint256"
        },
        {
          "indexed": false,
          "internalType": "uint256",
          "name": "_goodFrom",
          "type": "uint256"
        },
        {
          "indexed": false,
          "internalType": "uint256",
          "name": "_goodUntil",
          "type": "uint256"
        }
      ],
      "name": "OrderCreated",
      "type": "event"
    },
    {
      "anonymous": false,
      "inputs": [
        {
          "indexed": true,
          "internalType": "bytes32",
          "name": "_orderId",
          "type": "bytes32"
        },
        {
          "indexed": true,
          "internalType": "address",
          "name": "_address",
          "type": "address"
        },
        {
          "indexed": true,
          "internalType": "bytes32",
          "name": "_marketId",
          "type": "bytes32"
        },
        {
          "indexed": false,
          "internalType": "uint256",
          "name": "_closeSharesAmount",
          "type": "uint256"
        },
        {
          "indexed": false,
          "internalType": "uint256",
          "name": "_openMPHTokenAmount",
          "type": "uint256"
        },
        {
          "indexed": false,
          "internalType": "bool",
          "name": "_tradeDirection",
          "type": "bool"
        },
        {
          "indexed": false,
          "internalType": "uint256",
          "name": "_orderLeverage",
          "type": "uint256"
        },
        {
          "indexed": false,
          "internalType": "uint256",
          "name": "_onlyIfPriceBelow",
          "type": "uint256"
        },
        {
          "indexed": false,
          "internalType": "uint256",
          "name": "_onlyIfPriceAbove",
          "type": "uint256"
        },
        {
          "indexed": false,
          "internalType": "uint256",
          "name": "_goodFrom",
          "type": "uint256"
        },
        {
          "indexed": false,
          "internalType": "uint256",
          "name": "_goodUntil",
          "type": "uint256"
        }
      ],
      "name": "OrderFailed",
      "type": "event"
    },
    {
      "anonymous": false,
      "inputs": [
        {
          "indexed": true,
          "internalType": "bytes32",
          "name": "_orderId",
          "type": "bytes32"
        },
        {
          "indexed": false,
          "internalType": "uint256",
          "name": "_price",
          "type": "uint256"
        },
        {
          "indexed": false,
          "internalType": "uint256",
          "name": "_unadjustedMarketPrice",
          "type": "uint256"
        },
        {
          "indexed": false,
          "internalType": "uint256",
          "name": "_spread",
          "type": "uint256"
        },
        {
          "indexed": false,
          "internalType": "uint256",
          "name": "_positionLiquidationTimestamp",
          "type": "uint256"
        },
        {
          "indexed": false,
          "internalType": "uint256",
          "name": "_timeStamp",
          "type": "uint256"
        },
        {
          "indexed": false,
          "internalType": "uint256",
          "name": "_newLongShares",
          "type": "uint256"
        },
        {
          "indexed": false,
          "internalType": "uint256",
          "name": "_newShortShares",
          "type": "uint256"
        },
        {
          "indexed": false,
          "internalType": "uint256",
          "name": "_newMeanEntry",
          "type": "uint256"
        },
        {
          "indexed": false,
          "internalType": "uint256",
          "name": "_newMeanSprad",
          "type": "uint256"
        },
        {
          "indexed": false,
          "internalType": "uint256",
          "name": "_newMeanLeverage",
          "type": "uint256"
        },
        {
          "indexed": false,
          "internalType": "uint256",
          "name": "_liquidationPrice",
          "type": "uint256"
        }
      ],
      "name": "OrderProcessed",
      "type": "event"
    },
    {
      "anonymous": false,
      "inputs": [
        {
          "indexed": false,
          "internalType": "address",
          "name": "account",
          "type": "address"
        }
      ],
      "name": "Paused",
      "type": "event"
    },
    {
      "anonymous": false,
      "inputs": [
        {
          "indexed": false,
          "internalType": "uint256",
          "name": "_gasForCallback",
          "type": "uint256"
        }
      ],
      "name": "SetGasForCallback",
      "type": "event"
    },
    {
      "anonymous": false,
      "inputs": [
        {
          "indexed": false,
          "internalType": "bool",
          "name": "_useWhiteList",
          "type": "bool"
        }
      ],
      "name": "SetUseWhiteList",
      "type": "event"
    },
    {
      "anonymous": false,
      "inputs": [
        {
          "indexed": false,
          "internalType": "address",
          "name": "account",
          "type": "address"
        }
      ],
      "name": "Unpaused",
      "type": "event"
    },
    {
      "inputs": [],
      "name": "ADMINISTRATOR_ROLE",
      "outputs": [
        {
          "internalType": "bytes32",
          "name": "",
          "type": "bytes32"
        }
      ],
      "stateMutability": "view",
      "type": "function"
    },
    {
      "inputs": [],
      "name": "ORACLEOPERATOR_ROLE",
      "outputs": [
        {
          "internalType": "bytes32",
          "name": "",
          "type": "bytes32"
        }
      ],
      "stateMutability": "view",
      "type": "function"
    },
    {
      "inputs": [],
      "name": "PAUSER_ROLE",
      "outputs": [
        {
          "internalType": "bytes32",
          "name": "",
          "type": "bytes32"
        }
      ],
      "stateMutability": "view",
      "type": "function"
    },
    {
      "inputs": [],
      "name": "UNISWAP_ROUTER",
      "outputs": [
        {
          "internalType": "address",
          "name": "",
          "type": "address"
        }
      ],
      "stateMutability": "view",
      "type": "function"
    },
    {
      "inputs": [],
      "name": "_HASHED_NAME",
      "outputs": [
        {
          "internalType": "bytes32",
          "name": "",
          "type": "bytes32"
        }
      ],
      "stateMutability": "view",
      "type": "function"
    },
    {
      "inputs": [],
      "name": "_HASHED_VERSION",
      "outputs": [
        {
          "internalType": "bytes32",
          "name": "",
          "type": "bytes32"
        }
      ],
      "stateMutability": "view",
      "type": "function"
    },
    {
      "inputs": [],
      "name": "_PERMIT_TYPEHASH",
      "outputs": [
        {
          "internalType": "bytes32",
          "name": "",
          "type": "bytes32"
        }
      ],
      "stateMutability": "view",
      "type": "function"
    },
    {
      "inputs": [],
      "name": "_TYPE_HASH",
      "outputs": [
        {
          "internalType": "bytes32",
          "name": "",
          "type": "bytes32"
        }
      ],
      "stateMutability": "view",
      "type": "function"
    },
    {
      "inputs": [
        {
          "internalType": "address",
          "name": "",
          "type": "address"
        }
      ],
      "name": "callBackAddress",
      "outputs": [
        {
          "internalType": "bool",
          "name": "",
          "type": "bool"
        }
      ],
      "stateMutability": "view",
      "type": "function"
    },
    {
      "inputs": [],
      "name": "callBackCollectionAddress",
      "outputs": [
        {
          "internalType": "address payable",
          "name": "",
          "type": "address"
        }
      ],
      "stateMutability": "view",
      "type": "function"
    },
    {
      "inputs": [],
      "name": "gasForCallback",
      "outputs": [
        {
          "internalType": "uint256",
          "name": "",
          "type": "uint256"
        }
      ],
      "stateMutability": "view",
      "type": "function"
    },
    {
      "inputs": [
        {
          "internalType": "bytes32",
          "name": "",
          "type": "bytes32"
        }
      ],
      "name": "goodFrom",
      "outputs": [
        {
          "internalType": "uint256",
          "name": "",
          "type": "uint256"
        }
      ],
      "stateMutability": "view",
      "type": "function"
    },
    {
      "inputs": [
        {
          "internalType": "bytes32",
          "name": "",
          "type": "bytes32"
        }
      ],
      "name": "goodUntil",
      "outputs": [
        {
          "internalType": "uint256",
          "name": "",
          "type": "uint256"
        }
      ],
      "stateMutability": "view",
      "type": "function"
    },
    {
      "inputs": [
        {
          "internalType": "bytes32",
          "name": "",
          "type": "bytes32"
        }
      ],
      "name": "orderCancellationRequested",
      "outputs": [
        {
          "internalType": "bool",
          "name": "",
          "type": "bool"
        }
      ],
      "stateMutability": "view",
      "type": "function"
    },
    {
      "inputs": [],
      "name": "paused",
      "outputs": [
        {
          "internalType": "bool",
          "name": "",
          "type": "bool"
        }
      ],
      "stateMutability": "view",
      "type": "function"
    },
    {
      "inputs": [],
      "name": "poolFee",
      "outputs": [
        {
          "internalType": "uint24",
          "name": "",
          "type": "uint24"
        }
      ],
      "stateMutability": "view",
      "type": "function"
    },
    {
      "inputs": [
        {
          "internalType": "bytes32",
          "name": "",
          "type": "bytes32"
        }
      ],
      "name": "priceAbove",
      "outputs": [
        {
          "internalType": "uint256",
          "name": "",
          "type": "uint256"
        }
      ],
      "stateMutability": "view",
      "type": "function"
    },
    {
      "inputs": [
        {
          "internalType": "bytes32",
          "name": "",
          "type": "bytes32"
        }
      ],
      "name": "priceBelow",
      "outputs": [
        {
          "internalType": "uint256",
          "name": "",
          "type": "uint256"
        }
      ],
      "stateMutability": "view",
      "type": "function"
    },
    {
      "inputs": [],
      "name": "useWhiteList",
      "outputs": [
        {
          "internalType": "bool",
          "name": "",
          "type": "bool"
        }
      ],
      "stateMutability": "view",
      "type": "function"
    },
    {
      "inputs": [],
      "name": "wMaticAddress",
      "outputs": [
        {
          "internalType": "address",
          "name": "",
          "type": "address"
        }
      ],
      "stateMutability": "view",
      "type": "function"
    },
    {
      "inputs": [
        {
          "internalType": "address",
          "name": "",
          "type": "address"
        }
      ],
      "name": "whiteList",
      "outputs": [
        {
          "internalType": "bool",
          "name": "",
          "type": "bool"
        }
      ],
      "stateMutability": "view",
      "type": "function"
    },
    {
      "inputs": [
        {
          "internalType": "address",
          "name": "_morpherState",
          "type": "address"
        },
        {
          "internalType": "address payable",
          "name": "_gasCollectionAddress",
          "type": "address"
        },
        {
          "internalType": "uint256",
          "name": "_gasForCallback",
          "type": "uint256"
        }
      ],
      "name": "initialize",
      "outputs": [],
      "stateMutability": "nonpayable",
      "type": "function"
    },
    {
      "inputs": [
        {
          "internalType": "address",
          "name": "_address",
          "type": "address"
        }
      ],
      "name": "setStateAddress",
      "outputs": [],
      "stateMutability": "nonpayable",
      "type": "function"
    },
    {
      "inputs": [
        {
          "internalType": "address",
          "name": "_address",
          "type": "address"
        }
      ],
      "name": "setWmaticAddress",
      "outputs": [],
      "stateMutability": "nonpayable",
      "type": "function"
    },
    {
      "inputs": [
        {
          "internalType": "uint256",
          "name": "_gasForCallback",
          "type": "uint256"
        }
      ],
      "name": "overrideGasForCallback",
      "outputs": [],
      "stateMutability": "nonpayable",
      "type": "function"
    },
    {
      "inputs": [
        {
          "internalType": "address payable",
          "name": "_address",
          "type": "address"
        }
      ],
      "name": "setCallbackCollectionAddress",
      "outputs": [],
      "stateMutability": "nonpayable",
      "type": "function"
    },
    {
      "inputs": [
        {
          "internalType": "bytes32",
          "name": "_orderId",
          "type": "bytes32"
        },
        {
          "internalType": "address",
          "name": "_address",
          "type": "address"
        },
        {
          "internalType": "bytes32",
          "name": "_marketId",
          "type": "bytes32"
        },
        {
          "internalType": "uint256",
          "name": "_closeSharesAmount",
          "type": "uint256"
        },
        {
          "internalType": "uint256",
          "name": "_openMPHTokenAmount",
          "type": "uint256"
        },
        {
          "internalType": "bool",
          "name": "_tradeDirection",
          "type": "bool"
        },
        {
          "internalType": "uint256",
          "name": "_orderLeverage",
          "type": "uint256"
        },
        {
          "internalType": "uint256",
          "name": "_onlyIfPriceBelow",
          "type": "uint256"
        },
        {
          "internalType": "uint256",
          "name": "_onlyIfPriceAbove",
          "type": "uint256"
        },
        {
          "internalType": "uint256",
          "name": "_goodFrom",
          "type": "uint256"
        },
        {
          "internalType": "uint256",
          "name": "_goodUntil",
          "type": "uint256"
        }
      ],
      "name": "emitOrderFailed",
      "outputs": [],
      "stateMutability": "nonpayable",
      "type": "function"
    },
    {
      "inputs": [
        {
          "components": [
            {
              "internalType": "bytes32",
              "name": "_marketId",
              "type": "bytes32"
            },
            {
              "internalType": "uint256",
              "name": "_closeSharesAmount",
              "type": "uint256"
            },
            {
              "internalType": "uint256",
              "name": "_openMPHTokenAmount",
              "type": "uint256"
            },
            {
              "internalType": "bool",
              "name": "_tradeDirection",
              "type": "bool"
            },
            {
              "internalType": "uint256",
              "name": "_orderLeverage",
              "type": "uint256"
            },
            {
              "internalType": "uint256",
              "name": "_onlyIfPriceAbove",
              "type": "uint256"
            },
            {
              "internalType": "uint256",
              "name": "_onlyIfPriceBelow",
              "type": "uint256"
            },
            {
              "internalType": "uint256",
              "name": "_goodUntil",
              "type": "uint256"
            },
            {
              "internalType": "uint256",
              "name": "_goodFrom",
              "type": "uint256"
            }
          ],
          "internalType": "struct MorpherOracle.CreateOrderStruct",
          "name": "createOrderParams",
          "type": "tuple"
        }
      ],
      "name": "createOrder",
      "outputs": [
        {
          "internalType": "bytes32",
          "name": "_orderId",
          "type": "bytes32"
        }
      ],
      "stateMutability": "payable",
      "type": "function"
    },
    {
      "inputs": [
        {
          "internalType": "bytes32",
          "name": "_marketId",
          "type": "bytes32"
        },
        {
          "internalType": "uint256",
          "name": "_closeSharesAmount",
          "type": "uint256"
        },
        {
          "internalType": "uint256",
          "name": "_openMPHTokenAmount",
          "type": "uint256"
        },
        {
          "internalType": "bool",
          "name": "_tradeDirection",
          "type": "bool"
        },
        {
          "internalType": "uint256",
          "name": "_orderLeverage",
          "type": "uint256"
        },
        {
          "internalType": "uint256",
          "name": "_onlyIfPriceAbove",
          "type": "uint256"
        },
        {
          "internalType": "uint256",
          "name": "_onlyIfPriceBelow",
          "type": "uint256"
        },
        {
          "internalType": "uint256",
          "name": "_goodUntil",
          "type": "uint256"
        },
        {
          "internalType": "uint256",
          "name": "_goodFrom",
          "type": "uint256"
        }
      ],
      "name": "createOrder",
      "outputs": [
        {
          "internalType": "bytes32",
          "name": "_orderId",
          "type": "bytes32"
        }
      ],
      "stateMutability": "payable",
      "type": "function"
    },
    {
      "inputs": [
        {
          "components": [
            {
              "internalType": "bytes32",
              "name": "_marketId",
              "type": "bytes32"
            },
            {
              "internalType": "uint256",
              "name": "_closeSharesAmount",
              "type": "uint256"
            },
            {
              "internalType": "uint256",
              "name": "_openMPHTokenAmount",
              "type": "uint256"
            },
            {
              "internalType": "bool",
              "name": "_tradeDirection",
              "type": "bool"
            },
            {
              "internalType": "uint256",
              "name": "_orderLeverage",
              "type": "uint256"
            },
            {
              "internalType": "uint256",
              "name": "_onlyIfPriceAbove",
              "type": "uint256"
            },
            {
              "internalType": "uint256",
              "name": "_onlyIfPriceBelow",
              "type": "uint256"
            },
            {
              "internalType": "uint256",
              "name": "_goodUntil",
              "type": "uint256"
            },
            {
              "internalType": "uint256",
              "name": "_goodFrom",
              "type": "uint256"
            }
          ],
          "internalType": "struct MorpherOracle.CreateOrderStruct",
          "name": "createOrderParams",
          "type": "tuple"
        },
        {
          "internalType": "address",
          "name": "_addressPositionOwner",
          "type": "address"
        },
        {
          "internalType": "uint256",
          "name": "deadline",
          "type": "uint256"
        },
        {
          "internalType": "uint8",
          "name": "v",
          "type": "uint8"
        },
        {
          "internalType": "bytes32",
          "name": "r",
          "type": "bytes32"
        },
        {
          "internalType": "bytes32",
          "name": "s",
          "type": "bytes32"
        }
      ],
      "name": "createOrderPermittedBySignature",
      "outputs": [
        {
          "internalType": "bytes32",
          "name": "orderId",
          "type": "bytes32"
        }
      ],
      "stateMutability": "nonpayable",
      "type": "function"
    },
    {
      "inputs": [
        {
          "components": [
            {
              "internalType": "bytes32",
              "name": "_marketId",
              "type": "bytes32"
            },
            {
              "internalType": "uint256",
              "name": "_closeSharesAmount",
              "type": "uint256"
            },
            {
              "internalType": "uint256",
              "name": "_openMPHTokenAmount",
              "type": "uint256"
            },
            {
              "internalType": "bool",
              "name": "_tradeDirection",
              "type": "bool"
            },
            {
              "internalType": "uint256",
              "name": "_orderLeverage",
              "type": "uint256"
            },
            {
              "internalType": "uint256",
              "name": "_onlyIfPriceAbove",
              "type": "uint256"
            },
            {
              "internalType": "uint256",
              "name": "_onlyIfPriceBelow",
              "type": "uint256"
            },
            {
              "internalType": "uint256",
              "name": "_goodUntil",
              "type": "uint256"
            },
            {
              "internalType": "uint256",
              "name": "_goodFrom",
              "type": "uint256"
            }
          ],
          "internalType": "struct MorpherOracle.CreateOrderStruct",
          "name": "createOrderParams",
          "type": "tuple"
        },
        {
          "components": [
            {
              "internalType": "address",
              "name": "tokenAddress",
              "type": "address"
            },
            {
              "internalType": "address",
              "name": "owner",
              "type": "address"
            },
            {
              "internalType": "uint256",
              "name": "value",
              "type": "uint256"
            },
            {
              "internalType": "uint256",
              "name": "minOutValue",
              "type": "uint256"
            },
            {
              "internalType": "uint256",
              "name": "deadline",
              "type": "uint256"
            },
            {
              "internalType": "uint8",
              "name": "v",
              "type": "uint8"
            },
            {
              "internalType": "bytes32",
              "name": "r",
              "type": "bytes32"
            },
            {
              "internalType": "bytes32",
              "name": "s",
              "type": "bytes32"
            }
          ],
          "internalType": "struct MorpherOracle.TokenPermitEIP712Struct",
          "name": "inputToken",
          "type": "tuple"
        }
      ],
      "name": "createOrderFromToken",
      "outputs": [],
      "stateMutability": "nonpayable",
      "type": "function"
    },
    {
      "inputs": [
        {
          "components": [
            {
              "internalType": "bytes32",
              "name": "_marketId",
              "type": "bytes32"
            },
            {
              "internalType": "uint256",
              "name": "_closeSharesAmount",
              "type": "uint256"
            },
            {
              "internalType": "uint256",
              "name": "_openMPHTokenAmount",
              "type": "uint256"
            },
            {
              "internalType": "bool",
              "name": "_tradeDirection",
              "type": "bool"
            },
            {
              "internalType": "uint256",
              "name": "_orderLeverage",
              "type": "uint256"
            },
            {
              "internalType": "uint256",
              "name": "_onlyIfPriceAbove",
              "type": "uint256"
            },
            {
              "internalType": "uint256",
              "name": "_onlyIfPriceBelow",
              "type": "uint256"
            },
            {
              "internalType": "uint256",
              "name": "_goodUntil",
              "type": "uint256"
            },
            {
              "internalType": "uint256",
              "name": "_goodFrom",
              "type": "uint256"
            }
          ],
          "internalType": "struct MorpherOracle.CreateOrderStruct",
          "name": "createOrderParams",
          "type": "tuple"
        },
        {
          "components": [
            {
              "internalType": "address",
              "name": "tokenAddress",
              "type": "address"
            },
            {
              "internalType": "address",
              "name": "owner",
              "type": "address"
            },
            {
              "internalType": "uint256",
              "name": "value",
              "type": "uint256"
            },
            {
              "internalType": "uint256",
              "name": "minOutValue",
              "type": "uint256"
            },
            {
              "internalType": "uint256",
              "name": "deadline",
              "type": "uint256"
            },
            {
              "internalType": "uint8",
              "name": "v",
              "type": "uint8"
            },
            {
              "internalType": "bytes32",
              "name": "r",
              "type": "bytes32"
            },
            {
              "internalType": "bytes32",
              "name": "s",
              "type": "bytes32"
            }
          ],
          "internalType": "struct MorpherOracle.TokenPermitEIP712Struct",
          "name": "inputToken",
          "type": "tuple"
        },
        {
          "internalType": "address",
          "name": "_addressPositionOwner",
          "type": "address"
        },
        {
          "internalType": "uint256",
          "name": "deadline",
          "type": "uint256"
        },
        {
          "internalType": "uint8",
          "name": "v",
          "type": "uint8"
        },
        {
          "internalType": "bytes32",
          "name": "r",
          "type": "bytes32"
        },
        {
          "internalType": "bytes32",
          "name": "s",
          "type": "bytes32"
        }
      ],
      "name": "createOrderFromToken",
      "outputs": [],
      "stateMutability": "nonpayable",
      "type": "function"
    },
    {
      "inputs": [
        {
          "internalType": "address",
          "name": "owner",
          "type": "address"
        }
      ],
      "name": "nonces",
      "outputs": [
        {
          "internalType": "uint256",
          "name": "",
          "type": "uint256"
        }
      ],
      "stateMutability": "view",
      "type": "function"
    },
    {
      "inputs": [],
      "name": "DOMAIN_SEPARATOR",
      "outputs": [
        {
          "internalType": "bytes32",
          "name": "",
          "type": "bytes32"
        }
      ],
      "stateMutability": "view",
      "type": "function"
    },
    {
      "inputs": [
        {
          "internalType": "bytes32",
          "name": "_orderId",
          "type": "bytes32"
        }
      ],
      "name": "initiateCancelOrder",
      "outputs": [],
      "stateMutability": "nonpayable",
      "type": "function"
    },
    {
      "inputs": [
        {
          "internalType": "bytes32",
          "name": "_orderId",
          "type": "bytes32"
        }
      ],
      "name": "cancelOrder",
      "outputs": [],
      "stateMutability": "nonpayable",
      "type": "function"
    },
    {
      "inputs": [
        {
          "internalType": "bytes32",
          "name": "_orderId",
          "type": "bytes32"
        }
      ],
      "name": "adminCancelOrder",
      "outputs": [],
      "stateMutability": "nonpayable",
      "type": "function"
    },
    {
      "inputs": [
        {
          "internalType": "bytes32",
          "name": "_orderId",
          "type": "bytes32"
        },
        {
          "internalType": "uint256",
          "name": "_price",
          "type": "uint256"
        }
      ],
      "name": "checkOrderConditions",
      "outputs": [
        {
          "internalType": "bool",
          "name": "_conditionsMet",
          "type": "bool"
        }
      ],
      "stateMutability": "view",
      "type": "function"
    },
    {
      "inputs": [],
      "name": "pause",
      "outputs": [],
      "stateMutability": "nonpayable",
      "type": "function"
    },
    {
      "inputs": [],
      "name": "unpause",
      "outputs": [],
      "stateMutability": "nonpayable",
      "type": "function"
    },
    {
      "inputs": [
        {
          "internalType": "address",
          "name": "_address",
          "type": "address"
        },
        {
          "internalType": "bytes32",
          "name": "_marketId",
          "type": "bytes32"
        }
      ],
      "name": "createLiquidationOrder",
      "outputs": [
        {
          "internalType": "bytes32",
          "name": "_orderId",
          "type": "bytes32"
        }
      ],
      "stateMutability": "payable",
      "type": "function"
    },
    {
      "inputs": [
        {
          "internalType": "bytes32",
          "name": "_orderId",
          "type": "bytes32"
        },
        {
          "internalType": "uint256",
          "name": "_price",
          "type": "uint256"
        },
        {
          "internalType": "uint256",
          "name": "_unadjustedMarketPrice",
          "type": "uint256"
        },
        {
          "internalType": "uint256",
          "name": "_spread",
          "type": "uint256"
        },
        {
          "internalType": "uint256",
          "name": "_liquidationTimestamp",
          "type": "uint256"
        },
        {
          "internalType": "uint256",
          "name": "_timeStamp",
          "type": "uint256"
        },
        {
          "internalType": "uint256",
          "name": "_gasForNextCallback",
          "type": "uint256"
        }
      ],
      "name": "__callback",
      "outputs": [
        {
          "components": [
            {
              "internalType": "uint256",
              "name": "lastUpdated",
              "type": "uint256"
            },
            {
              "internalType": "uint256",
              "name": "longShares",
              "type": "uint256"
            },
            {
              "internalType": "uint256",
              "name": "shortShares",
              "type": "uint256"
            },
            {
              "internalType": "uint256",
              "name": "meanEntryPrice",
              "type": "uint256"
            },
            {
              "internalType": "uint256",
              "name": "meanEntrySpread",
              "type": "uint256"
            },
            {
              "internalType": "uint256",
              "name": "meanEntryLeverage",
              "type": "uint256"
            },
            {
              "internalType": "uint256",
              "name": "liquidationPrice",
              "type": "uint256"
            },
            {
              "internalType": "bytes32",
              "name": "positionHash",
              "type": "bytes32"
            }
          ],
          "internalType": "struct MorpherTradeEngine.position",
          "name": "createdPosition",
          "type": "tuple"
        }
      ],
      "stateMutability": "nonpayable",
      "type": "function"
    },
    {
      "inputs": [
        {
          "internalType": "bytes32",
          "name": "_marketId",
          "type": "bytes32"
        },
        {
          "internalType": "bool",
          "name": "_startFromScratch",
          "type": "bool"
        }
      ],
      "name": "delistMarket",
      "outputs": [],
      "stateMutability": "nonpayable",
      "type": "function"
    },
    {
      "inputs": [
        {
          "internalType": "address",
          "name": "_address",
          "type": "address"
        },
        {
          "internalType": "bytes32",
          "name": "_marketId",
          "type": "bytes32"
        }
      ],
      "name": "adminLiquidationOrder",
      "outputs": [
        {
          "internalType": "bytes32",
          "name": "_orderId",
          "type": "bytes32"
        }
      ],
      "stateMutability": "nonpayable",
      "type": "function"
    },
    {
      "inputs": [
        {
          "internalType": "uint256",
          "name": "orderId",
          "type": "uint256"
        }
      ],
      "name": "getTradeEngineFromOrderId",
      "outputs": [
        {
          "internalType": "address",
          "name": "",
          "type": "address"
        }
      ],
      "stateMutability": "view",
      "type": "function"
    }
  ],
  "bytecode": "0x608060405234801561000f575f80fd5b5061513c8061001d5f395ff3fe60806040526004361061026a575f3560e01c80637489ec231161014a57806399614d18116100be578063d826492011610078578063d826492014610819578063d99f867414610840578063e087e3ce14610860578063e63ab1e91461088b578063f45edb5f146108be578063f51ff221146108de575f80fd5b806399614d1814610733578063aeb2cc3314610746578063b95e437b14610771578063c7f4532d14610790578063caac6c82146107bb578063d204bc6c146107ee575f80fd5b80637ecebe001161010f5780637ecebe00146106615780638456cb591461068057806385e75e721461069457806388deab73146106b35780638adbe72f146106d2578063982aaf6b14610700575f80fd5b80637489ec231461056657806374d94024146105855780637848d1df146105a45780637dd63e1d146105c35780637e031af214610642575f80fd5b80633a196bab116101e15780635952525a116101a65780635952525a1461047d5780635c975abb1461049c5780635d2dab0b146104b357806367aa1e0f146104e65780636b0ed36e14610505578063712ac56d14610533575f80fd5b80633a196bab146103f95780633e37c0dc146104185780633f4ba83a146104375780634c79fdf91461044b57806350a5fdef1461046a575f80fd5b80632ac21a48116102325780632ac21a48146103125780632d559f6a1461033257806330b589b9146103695780633644e51514610388578063372c12b11461039c57806338bd3ad1146103da575f80fd5b8063089fe6aa1461026e57806316afdfd31461029c5780631794bb3c146102bf5780631c4c7fd8146102e0578063290893c8146102ff575b5f80fd5b348015610279575f80fd5b50610283610bb881565b60405162ffffff90911681526020015b60405180910390f35b3480156102a7575f80fd5b506102b160665481565b604051908152602001610293565b3480156102ca575f80fd5b506102de6102d9366004614771565b6108fd565b005b3480156102eb575f80fd5b506102de6102fa3660046147af565b6109a7565b6102b161030d3660046148c6565b610b1d565b34801561031d575f80fd5b506102b15f805160206150e783398151915281565b34801561033d575f80fd5b50607254610351906001600160a01b031681565b6040516001600160a01b039091168152602001610293565b348015610374575f80fd5b506102de610383366004614977565b611148565b348015610393575f80fd5b506102b161120e565b3480156103a7575f80fd5b506103ca6103b63660046147af565b60696020525f908152604090205460ff1681565b6040519015158152602001610293565b3480156103e5575f80fd5b506102de6103f43660046149ac565b61121c565b348015610404575f80fd5b506102de6104133660046149c3565b6114f5565b348015610423575f80fd5b506102de6104323660046147af565b61197b565b348015610442575f80fd5b506102de611ae0565b348015610456575f80fd5b506103516104653660046149ac565b611c15565b6102b16104783660046149f1565b611c86565b348015610488575f80fd5b506102de610497366004614a1b565b611f70565b3480156104a7575f80fd5b5060335460ff166103ca565b3480156104be575f80fd5b506102b17f8b73c3c69bb8fe3d512ecc4cf759cc79239f7b179b0ffacaa9a75d522b39400f81565b3480156104f1575f80fd5b50606754610351906001600160a01b031681565b348015610510575f80fd5b506103ca61051f3660046149ac565b606e6020525f908152604090205460ff1681565b34801561053e575f80fd5b506102b17fc89efdaa54c0f20c7adf612882df0950f5a951637e0307cdcb4c672f298b8bc681565b348015610571575f80fd5b506102de6105803660046149ac565b612103565b348015610590575f80fd5b506102de61059f3660046149ac565b61245b565b3480156105af575f80fd5b506102b16105be3660046149f1565b612694565b3480156105ce575f80fd5b506105e26105dd366004614a92565b612b59565b60405161029391905f61010082019050825182526020830151602083015260408301516040830152606083015160608301526080830151608083015260a083015160a083015260c083015160c083015260e083015160e083015292915050565b34801561064d575f80fd5b506103ca61065c366004614ad9565b612eeb565b34801561066c575f80fd5b506102b161067b3660046147af565b613015565b34801561068b575f80fd5b506102de613032565b34801561069f575f80fd5b506102de6106ae3660046149ac565b613164565b3480156106be575f80fd5b506102de6106cd3660046147af565b6132b0565b3480156106dd575f80fd5b506103ca6106ec3660046147af565b60686020525f908152604090205460ff1681565b34801561070b575f80fd5b506102b17f7fd20421357a1c20062b0fca45106216b1f0c9af8635225c603297387ba5269581565b6102b1610741366004614af9565b613415565b348015610751575f80fd5b506102b16107603660046149ac565b606b6020525f908152604090205481565b34801561077c575f80fd5b506102de61078b366004614b62565b61349c565b34801561079b575f80fd5b506102b16107aa3660046149ac565b606d6020525f908152604090205481565b3480156107c6575f80fd5b506102b17fca82a94b3c35be4fb8e06faa102ba96b016e9c5dd45f747224333f012bfd5e6a81565b3480156107f9575f80fd5b506102b16108083660046149ac565b606a6020525f908152604090205481565b348015610824575f80fd5b5061035173e592427a0aece92de3edee1f18e0157c0586156481565b34801561084b575f80fd5b506065546103ca90600160a01b900460ff1681565b34801561086b575f80fd5b506102b161087a3660046149ac565b606c6020525f908152604090205481565b348015610896575f80fd5b506102b17f65d7a28e3265b37a6474929f336521b332c1681b933f6cb9f3376673440d862a81565b3480156108c9575f80fd5b506102b15f805160206150c783398151915281565b3480156108e9575f80fd5b506102b16108f8366004614beb565b613636565b5f61090860016137cb565b9050801561091f575f805461ff0019166101001790555b61092761384f565b61092f613877565b606580546001600160a01b0319166001600160a01b038616179055610953836132b0565b61095c826138a5565b80156109a1575f805461ff0019169055604051600181527f7f26b83ff96e1f2b6a682f133852f6798a09c465da95921460cefb38474024989060200160405180910390a15b50505050565b60655460408051630140cb6560e51b815290515f805160206150c7833981519152926001600160a01b0316916328196ca09160048083019260209291908290030181865afa1580156109fb573d5f803e3d5ffd5b505050506040513d601f19601f82011682018060405250810190610a1f9190614c4f565b6001600160a01b03166391d1485482610a366138e0565b6040516001600160e01b031960e085901b16815260048101929092526001600160a01b03166024820152604401602060405180830381865afa158015610a7e573d5f803e3d5ffd5b505050506040513d601f19601f82011682018060405250810190610aa29190614c6a565b610ac75760405162461bcd60e51b8152600401610abe90614c85565b60405180910390fd5b606580546001600160a01b0319166001600160a01b0384169081179091556040519081527f9ceaf926f42b3faf9a5f7f52388397891ad1608576994e5c3b2d055a09bb225f906020015b60405180910390a15050565b5f610b2a60335460ff1690565b15610b475760405162461bcd60e51b8152600401610abe90614cc6565b60665415610ba957606654341015610b715760405162461bcd60e51b8152600401610abe90614cf0565b6067546040516001600160a01b03909116903480156108fc02915f818181858888f19350505050158015610ba7573d5f803e3d5ffd5b505b60655f9054906101000a90046001600160a01b03166001600160a01b031663d37afa8d6040518163ffffffff1660e01b8152600401602060405180830381865afa158015610bf9573d5f803e3d5ffd5b505050506040513d601f19601f82011682018060405250810190610c1d9190614c4f565b6001600160a01b031663ac8f6f7f610c336138e0565b84516020860151604080880151606089015160808a015192516001600160e01b031960e089901b168152610c6d9695949390600401614d5a565b6020604051808303815f875af1158015610c89573d5f803e3d5ffd5b505050506040513d601f19601f82011682018060405250810190610cad9190614d8f565b6065548351604051634a4cce9760e01b815260048101919091529192506001600160a01b031690634a4cce9790602401602060405180830381865afa158015610cf8573d5f803e3d5ffd5b505050506040513d601f19601f82011682018060405250810190610d1c9190614c6a565b15155f036110555760655f9054906101000a90046001600160a01b03166001600160a01b031663d37afa8d6040518163ffffffff1660e01b8152600401602060405180830381865afa158015610d74573d5f803e3d5ffd5b505050506040513d601f19601f82011682018060405250810190610d989190614c4f565b6001600160a01b03166316f77a5b8260655f9054906101000a90046001600160a01b03166001600160a01b031663d37afa8d6040518163ffffffff1660e01b8152600401602060405180830381865afa158015610df7573d5f803e3d5ffd5b505050506040513d601f19601f82011682018060405250810190610e1b9190614c4f565b85516040516351c37dab60e11b81526001600160a01b03929092169163a386fb5691610e4d9160040190815260200190565b602060405180830381865afa158015610e68573d5f803e3d5ffd5b505050506040513d601f19601f82011682018060405250810190610e8c9190614d8f565b5f80610e9a426103e8614dba565b6040516001600160e01b031960e088901b1681526004810195909552602485019390935260448401919091526064830152608482015260a401610100604051808303815f875af1158015610ef0573d5f803e3d5ffd5b505050506040513d601f19601f82011682018060405250810190610f149190614dd1565b50807ff45eeb03060db0baf36cec20acde5e8464f49340c9877c55029d6ffe0e5cdac160655f9054906101000a90046001600160a01b03166001600160a01b031663d37afa8d6040518163ffffffff1660e01b8152600401602060405180830381865afa158015610f87573d5f803e3d5ffd5b505050506040513d601f19601f82011682018060405250810190610fab9190614c4f565b84516040516351c37dab60e11b81526001600160a01b03929092169163a386fb5691610fdd9160040190815260200190565b602060405180830381865afa158015610ff8573d5f803e3d5ffd5b505050506040513d601f19601f8201168201806040525081019061101c9190614d8f565b5f808061102b426103e8614dba565b5f805f805f806040516110489b9a99989796959493929190614e3e565b60405180910390a2919050565b60a08201515f828152606b602090815260408083209390935560c0850151606a825283832055610100850151606c82528383205560e0850151606d9091529190205581516110a16138e0565b6001600160a01b0316827fc7392b9822094f2dca86d2a7a97945e80918a8aee61c04de90253f3683b5695085602001518660400151876060015188608001518960c001518a60a001518b61010001518c60e0015160405161113a989796959493929190978852602088019690965293151560408701526060860192909252608085015260a084015260c083015260e08201526101000190565b60405180910390a45b919050565b60408201511561116e57611160818360400151613908565b61116982610b1d565b505050565b5f61117883610b1d565b5f90815260716020908152604091829020845181546001600160a01b03199081166001600160a01b0392831617835592860151600183018054909416911617909155908301516002820155606083015160038201556080830151600482015560a083015160058201805460ff191660ff90921691909117905560c0830151600682015560e0909201516007909201919091555050565b5f611217613fd1565b905090565b60655460408051630140cb6560e51b815290515f805160206150e7833981519152926001600160a01b0316916328196ca09160048083019260209291908290030181865afa158015611270573d5f803e3d5ffd5b505050506040513d601f19601f820116820180604052508101906112949190614c4f565b6001600160a01b03166391d14854826112ab6138e0565b6040516001600160e01b031960e085901b16815260048101929092526001600160a01b03166024820152604401602060405180830381865afa1580156112f3573d5f803e3d5ffd5b505050506040513d601f19601f820116820180604052508101906113179190614c6a565b6113335760405162461bcd60e51b8152600401610abe90614c85565b6065546040805163d37afa8d60e01b815290515f926001600160a01b03169163d37afa8d9160048083019260209291908290030181865afa15801561137a573d5f803e3d5ffd5b505050506040513d601f19601f8201168201806040525081019061139e9190614c4f565b604051632bbc239560e11b8152600481018590529091505f906001600160a01b03831690635778472a9060240160e060405180830381865afa1580156113e6573d5f803e3d5ffd5b505050506040513d601f19601f8201168201806040525081019061140a9190614e8c565b5050604051636b0d76bd60e11b8152600481018a90526001600160a01b0380871660248301529596509487169463d61aed7a9450604401925061144b915050565b5f604051808303815f87803b158015611462575f80fd5b505af1158015611474573d5f803e3d5ffd5b5050505f858152606b60209081526040808320839055606a8252808320839055606c8252808320839055606d909152812055506114af6138e0565b6001600160a01b0316816001600160a01b0316857fbda7bebff2a349d53ff61a2f625aba38b63add7de03f20f568c660aaf3c61f5160405160405180910390a450505050565b60655460408051630140cb6560e51b815290515f805160206150c7833981519152926001600160a01b0316916328196ca09160048083019260209291908290030181865afa158015611549573d5f803e3d5ffd5b505050506040513d601f19601f8201168201806040525081019061156d9190614c4f565b6001600160a01b03166391d14854826115846138e0565b6040516001600160e01b031960e085901b16815260048101929092526001600160a01b03166024820152604401602060405180830381865afa1580156115cc573d5f803e3d5ffd5b505050506040513d601f19601f820116820180604052508101906115f09190614c6a565b61160c5760405162461bcd60e51b8152600401610abe90614c85565b606554604051634a4cce9760e01b8152600481018590526001600160a01b0390911690634a4cce9790602401602060405180830381865afa158015611653573d5f803e3d5ffd5b505050506040513d601f19601f820116820180604052508101906116779190614c6a565b15156001146116ee5760405162461bcd60e51b815260206004820152603760248201527f4d61726b6574206d7573742062652061637469766520746f2070726f6365737360448201527f20706f736974696f6e206c69717569646174696f6e732e0000000000000000006064820152608401610abe565b81156116f9575f6073555b6065546040805163d37afa8d60e01b815290515f926001600160a01b03169163d37afa8d9160048083019260209291908290030181865afa158015611740573d5f803e3d5ffd5b505050506040513d601f19601f820116820180604052508101906117649190614c4f565b6001600160a01b031663ef92f831856040518263ffffffff1660e01b815260040161179191815260200190565b602060405180830381865afa1580156117ac573d5f803e3d5ffd5b505050506040513d601f19601f820116820180604052508101906117d09190614d8f565b6073549091505f905b828111611940576203d0905a1080156117f25750828114155b1561183d57607381905560408051878152602081018590527f6f7e2b4e250b68477086154afade591035c41aae27a60e044260f031e0f6a1ff910160405180910390a1505050505050565b60655f9054906101000a90046001600160a01b03166001600160a01b031663d37afa8d6040518163ffffffff1660e01b8152600401602060405180830381865afa15801561188d573d5f803e3d5ffd5b505050506040513d601f19601f820116820180604052508101906118b19190614c4f565b604051632d7b42c160e01b815260048101889052602481018390526001600160a01b039190911690632d7b42c190604401602060405180830381865afa1580156118fd573d5f803e3d5ffd5b505050506040513d601f19601f820116820180604052508101906119219190614c4f565b915061192d8287612694565b508061193881614ee4565b9150506117d9565b506040518581527f89d629fd4446c04fb00ba5e14060971d7cc08049bb55786f1bb8d4294a5bb95c9060200160405180910390a15050505050565b60655460408051630140cb6560e51b815290515f805160206150c7833981519152926001600160a01b0316916328196ca09160048083019260209291908290030181865afa1580156119cf573d5f803e3d5ffd5b505050506040513d601f19601f820116820180604052508101906119f39190614c4f565b6001600160a01b03166391d1485482611a0a6138e0565b6040516001600160e01b031960e085901b16815260048101929092526001600160a01b03166024820152604401602060405180830381865afa158015611a52573d5f803e3d5ffd5b505050506040513d601f19601f82011682018060405250810190611a769190614c6a565b611a925760405162461bcd60e51b8152600401610abe90614c85565b607280546001600160a01b0319166001600160a01b0384169081179091556040519081527f0fa5c194558467cdb25d2dd69df7bbbf1bda4cd38903214b0291829f0d6c94eb90602001610b11565b60655460408051630140cb6560e51b815290517f65d7a28e3265b37a6474929f336521b332c1681b933f6cb9f3376673440d862a926001600160a01b0316916328196ca09160048083019260209291908290030181865afa158015611b47573d5f803e3d5ffd5b505050506040513d601f19601f82011682018060405250810190611b6b9190614c4f565b6001600160a01b03166391d1485482611b826138e0565b6040516001600160e01b031960e085901b16815260048101929092526001600160a01b03166024820152604401602060405180830381865afa158015611bca573d5f803e3d5ffd5b505050506040513d601f19601f82011682018060405250810190611bee9190614c6a565b611c0a5760405162461bcd60e51b8152600401610abe90614c85565b611c1261403d565b50565b6065546040805163d37afa8d60e01b815290515f926001600160a01b03169163d37afa8d9160048083019260209291908290030181865afa158015611c5c573d5f803e3d5ffd5b505050506040513d601f19601f82011682018060405250810190611c809190614c4f565b92915050565b5f611c9360335460ff1690565b15611cb05760405162461bcd60e51b8152600401610abe90614cc6565b60655460408051630140cb6560e51b815290515f805160206150e7833981519152926001600160a01b0316916328196ca09160048083019260209291908290030181865afa158015611d04573d5f803e3d5ffd5b505050506040513d601f19601f82011682018060405250810190611d289190614c4f565b6001600160a01b03166391d1485482611d3f6138e0565b6040516001600160e01b031960e085901b16815260048101929092526001600160a01b03166024820152604401602060405180830381865afa158015611d87573d5f803e3d5ffd5b505050506040513d601f19601f82011682018060405250810190611dab9190614c6a565b611dc75760405162461bcd60e51b8152600401610abe90614c85565b60665415611e2957606654341015611df15760405162461bcd60e51b8152600401610abe90614cf0565b6067546040516001600160a01b03909116903480156108fc02915f818181858888f19350505050158015611e27573d5f803e3d5ffd5b505b60655f9054906101000a90046001600160a01b03166001600160a01b031663d37afa8d6040518163ffffffff1660e01b8152600401602060405180830381865afa158015611e79573d5f803e3d5ffd5b505050506040513d601f19601f82011682018060405250810190611e9d9190614c4f565b6001600160a01b031663ac8f6f7f85855f8060016305f5e1006040518763ffffffff1660e01b8152600401611ed796959493929190614d5a565b6020604051808303815f875af1158015611ef3573d5f803e3d5ffd5b505050506040513d601f19601f82011682018060405250810190611f179190614d8f565b915082846001600160a01b0316837f1e73a21af9c77a375ee7275ea920afd5c4b6170bc8e21c0cfeeae8139a3cea09611f4e6138e0565b6040516001600160a01b03909116815260200160405180910390a45092915050565b83421115611fc05760405162461bcd60e51b815260206004820152601f60248201527f4d6f72706865724f7261636c653a206578706972656420646561646c696e65006044820152606401610abe565b5f7f7fd20421357a1c20062b0fca45106216b1f0c9af8635225c603297387ba52695885f015189602001518a60400151896120178b6001600160a01b03165f908152606f6020526040902080546001810190915590565b8a60405160200161202e9796959493929190614efc565b6040516020818303038152906040528051906020012090505f612050826140d6565b90505f61205f82878787614122565b9050876001600160a01b0316816001600160a01b0316146120c25760405162461bcd60e51b815260206004820181905260248201527f4d6f72706865724f7261636c653a20696e76616c6964207369676e61747572656044820152606401610abe565b607080546001600160a01b0319166001600160a01b038a161790556120e78a8a611148565b5050607080546001600160a01b03191690555050505050505050565b60655460408051630140cb6560e51b815290515f805160206150e7833981519152926001600160a01b0316916328196ca09160048083019260209291908290030181865afa158015612157573d5f803e3d5ffd5b505050506040513d601f19601f8201168201806040525081019061217b9190614c4f565b6001600160a01b03166391d14854826121926138e0565b6040516001600160e01b031960e085901b16815260048101929092526001600160a01b03166024820152604401602060405180830381865afa1580156121da573d5f803e3d5ffd5b505050506040513d601f19601f820116820180604052508101906121fe9190614c6a565b61221a5760405162461bcd60e51b8152600401610abe90614c85565b5f828152606e602052604090205460ff1615156001146122995760405162461bcd60e51b815260206004820152603460248201527f4d6f72706865724f7261636c653a204f726465722d43616e63656c6c6174696f60448201527337103bb0b9903737ba103932b8bab2b9ba32b21760611b6064820152608401610abe565b6065546040805163d37afa8d60e01b815290515f926001600160a01b03169163d37afa8d9160048083019260209291908290030181865afa1580156122e0573d5f803e3d5ffd5b505050506040513d601f19601f820116820180604052508101906123049190614c4f565b604051632bbc239560e11b8152600481018590529091505f906001600160a01b03831690635778472a9060240160e060405180830381865afa15801561234c573d5f803e3d5ffd5b505050506040513d601f19601f820116820180604052508101906123709190614e8c565b5050604051636b0d76bd60e11b8152600481018a90526001600160a01b0380871660248301529596509487169463d61aed7a945060440192506123b1915050565b5f604051808303815f87803b1580156123c8575f80fd5b505af11580156123da573d5f803e3d5ffd5b5050505f858152606b60209081526040808320839055606a8252808320839055606c8252808320839055606d909152812055506124156138e0565b6001600160a01b0316816001600160a01b0316857f6bacc01dbe442496068f7d234edd811f1a5f833243e0aec824f86ab861f3c90d60405160405180910390a450505050565b6065546040805163d37afa8d60e01b815290515f926001600160a01b03169163d37afa8d9160048083019260209291908290030181865afa1580156124a2573d5f803e3d5ffd5b505050506040513d601f19601f820116820180604052508101906124c69190614c4f565b5f838152606e602052604090205490915060ff161561253a5760405162461bcd60e51b815260206004820152602a60248201527f4d6f72706865724f7261636c653a204f726465722077617320616c72656164796044820152691031b0b731b2b632b21760b11b6064820152608401610abe565b604051632bbc239560e11b8152600481018390525f906001600160a01b03831690635778472a9060240160e060405180830381865afa15801561257f573d5f803e3d5ffd5b505050506040513d601f19601f820116820180604052508101906125a39190614e8c565b50505050505090506125b36138e0565b6001600160a01b0316816001600160a01b0316146126395760405162461bcd60e51b815260206004820152603f60248201527f4d6f72706865724f7261636c653a204f6e6c792074686520757365722063616e60448201527f207265717565737420616e206f726465722063616e63656c6c6174696f6e2e006064820152608401610abe565b5f838152606e60205260409020805460ff191660011790556126596138e0565b6001600160a01b0316837f02487731041c5966b7038b3e0d347a232658f9e76e79848ed5fa003ca5f2506360405160405180910390a3505050565b5f5f805160206150c783398151915260655f9054906101000a90046001600160a01b03166001600160a01b03166328196ca06040518163ffffffff1660e01b8152600401602060405180830381865afa1580156126f3573d5f803e3d5ffd5b505050506040513d601f19601f820116820180604052508101906127179190614c4f565b6001600160a01b03166391d148548261272e6138e0565b6040516001600160e01b031960e085901b16815260048101929092526001600160a01b03166024820152604401602060405180830381865afa158015612776573d5f803e3d5ffd5b505050506040513d601f19601f8201168201806040525081019061279a9190614c6a565b6127b65760405162461bcd60e51b8152600401610abe90614c85565b6065546040805163d37afa8d60e01b815290515f926001600160a01b03169163d37afa8d9160048083019260209291908290030181865afa1580156127fd573d5f803e3d5ffd5b505050506040513d601f19601f820116820180604052508101906128219190614c4f565b6040516307d47a8b60e11b81526001600160a01b038781166004830152602482018790529190911690630fa8f5169060440161010060405180830381865afa15801561286f573d5f803e3d5ffd5b505050506040513d601f19601f820116820180604052508101906128939190614dd1565b6020810151909150156129f55760655f9054906101000a90046001600160a01b03166001600160a01b031663d37afa8d6040518163ffffffff1660e01b8152600401602060405180830381865afa1580156128f0573d5f803e3d5ffd5b505050506040513d601f19601f820116820180604052508101906129149190614c4f565b6001600160a01b031663ac8f6f7f868684602001515f806305f5e1006040518763ffffffff1660e01b815260040161295196959493929190614d5a565b6020604051808303815f875af115801561296d573d5f803e3d5ffd5b505050506040513d601f19601f820116820180604052508101906129919190614d8f565b602080830151604080519182525f9282018390528101919091526305f5e100606082015290935084906001600160a01b0387169085907f68909f9be64c2fb9036bc6c47d8cff89160ee7f28d4e14082931cfcc8e980d779060800160405180910390a45b604081015115612b515760655f9054906101000a90046001600160a01b03166001600160a01b031663d37afa8d6040518163ffffffff1660e01b8152600401602060405180830381865afa158015612a4f573d5f803e3d5ffd5b505050506040513d601f19601f82011682018060405250810190612a739190614c4f565b6001600160a01b031663ac8f6f7f868684604001515f60016305f5e1006040518763ffffffff1660e01b8152600401612ab196959493929190614d5a565b6020604051808303815f875af1158015612acd573d5f803e3d5ffd5b505050506040513d601f19601f82011682018060405250810190612af19190614d8f565b60408281015181519081525f60208201526001818301526305f5e1006060820152905191945085916001600160a01b0388169186917f68909f9be64c2fb9036bc6c47d8cff89160ee7f28d4e14082931cfcc8e980d779181900360800190a45b505092915050565b612b9c6040518061010001604052805f81526020015f81526020015f81526020015f81526020015f81526020015f81526020015f81526020015f80191681525090565b60655460408051630140cb6560e51b815290515f805160206150e7833981519152926001600160a01b0316916328196ca09160048083019260209291908290030181865afa158015612bf0573d5f803e3d5ffd5b505050506040513d601f19601f82011682018060405250810190612c149190614c4f565b6001600160a01b03166391d1485482612c2b6138e0565b6040516001600160e01b031960e085901b16815260048101929092526001600160a01b03166024820152604401602060405180830381865afa158015612c73573d5f803e3d5ffd5b505050506040513d601f19601f82011682018060405250810190612c979190614c6a565b612cb35760405162461bcd60e51b8152600401610abe90614c85565b60335460ff1615612cd65760405162461bcd60e51b8152600401610abe90614cc6565b612ce08989612eeb565b612d465760405162461bcd60e51b815260206004820152603160248201527f4d6f72706865724f7261636c65204572726f723a204f7264657220436f6e64696044820152701d1a5bdb9cc8185c99481b9bdd081b595d607a1b6064820152608401610abe565b60655f9054906101000a90046001600160a01b03166001600160a01b031663d37afa8d6040518163ffffffff1660e01b8152600401602060405180830381865afa158015612d96573d5f803e3d5ffd5b505050506040513d601f19601f82011682018060405250810190612dba9190614c4f565b6040516316f77a5b60e01b8152600481018b9052602481018a90526044810188905260648101879052608481018690526001600160a01b0391909116906316f77a5b9060a401610100604051808303815f875af1158015612e1d573d5f803e3d5ffd5b505050506040513d601f19601f82011682018060405250810190612e419190614dd1565b5f8a8152606b60209081526040808320839055606a8252808320839055606c8252808320839055606d9091528120559150887ff45eeb03060db0baf36cec20acde5e8464f49340c9877c55029d6ffe0e5cdac18989898989886020015189604001518a606001518b608001518c60a001518d60c00151604051612ece9b9a99989796959493929190614e3e565b60405180910390a2612edf836138a5565b50979650505050505050565b5f828152606d602052604090205460019042118015612f1657505f838152606d602052604090205415155b15612f1e57505f5b5f838152606c602052604090205442108015612f4657505f838152606c602052604090205415155b15612f4e57505f5b5f838152606b602052604090205415801590612f7657505f838152606a602052604090205415155b15612fb0575f838152606b602052604090205482108015612fa357505f838152606a602052604090205482115b15612fab57505f5b611c80565b5f838152606b602052604090205482108015612fd857505f838152606b602052604090205415155b15612fe057505f5b5f838152606a60205260409020548211801561300857505f838152606a602052604090205415155b15611c8057505f92915050565b6001600160a01b0381165f908152606f6020526040812054611c80565b60655460408051630140cb6560e51b815290517f65d7a28e3265b37a6474929f336521b332c1681b933f6cb9f3376673440d862a926001600160a01b0316916328196ca09160048083019260209291908290030181865afa158015613099573d5f803e3d5ffd5b505050506040513d601f19601f820116820180604052508101906130bd9190614c4f565b6001600160a01b03166391d14854826130d46138e0565b6040516001600160e01b031960e085901b16815260048101929092526001600160a01b03166024820152604401602060405180830381865afa15801561311c573d5f803e3d5ffd5b505050506040513d601f19601f820116820180604052508101906131409190614c6a565b61315c5760405162461bcd60e51b8152600401610abe90614c85565b611c12614148565b60655460408051630140cb6560e51b815290515f805160206150c7833981519152926001600160a01b0316916328196ca09160048083019260209291908290030181865afa1580156131b8573d5f803e3d5ffd5b505050506040513d601f19601f820116820180604052508101906131dc9190614c4f565b6001600160a01b03166391d14854826131f36138e0565b6040516001600160e01b031960e085901b16815260048101929092526001600160a01b03166024820152604401602060405180830381865afa15801561323b573d5f803e3d5ffd5b505050506040513d601f19601f8201168201806040525081019061325f9190614c6a565b61327b5760405162461bcd60e51b8152600401610abe90614c85565b60668290556040518281527f0a20b6289d596db2ac25c70c6c69f5e39361ed00454ab483397db8c744ec0b3190602001610b11565b60655460408051630140cb6560e51b815290515f805160206150c7833981519152926001600160a01b0316916328196ca09160048083019260209291908290030181865afa158015613304573d5f803e3d5ffd5b505050506040513d601f19601f820116820180604052508101906133289190614c4f565b6001600160a01b03166391d148548261333f6138e0565b6040516001600160e01b031960e085901b16815260048101929092526001600160a01b03166024820152604401602060405180830381865afa158015613387573d5f803e3d5ffd5b505050506040513d601f19601f820116820180604052508101906133ab9190614c6a565b6133c75760405162461bcd60e51b8152600401610abe90614c85565b606780546001600160a01b0319166001600160a01b0384169081179091556040519081527f1cd1802fd5b9e82a19a67f7a572c9be656c58ffe140184139d1708b2cfe3a8dc90602001610b11565b5f61342260335460ff1690565b1561343f5760405162461bcd60e51b8152600401610abe90614cc6565b5f6040518061012001604052808c81526020018b81526020018a8152602001891515815260200188815260200187815260200186815260200185815260200184815250905061348d81610b1d565b9b9a5050505050505050505050565b60655460408051630140cb6560e51b815290515f805160206150e7833981519152926001600160a01b0316916328196ca09160048083019260209291908290030181865afa1580156134f0573d5f803e3d5ffd5b505050506040513d601f19601f820116820180604052508101906135149190614c4f565b6001600160a01b03166391d148548261352b6138e0565b6040516001600160e01b031960e085901b16815260048101929092526001600160a01b03166024820152604401602060405180830381865afa158015613573573d5f803e3d5ffd5b505050506040513d601f19601f820116820180604052508101906135979190614c6a565b6135b35760405162461bcd60e51b8152600401610abe90614c85565b604080518a8152602081018a905288151581830152606081018890526080810187905260a0810186905260c0810185905260e0810184905290518b916001600160a01b038e16918f917fe27c49d1eafe79b2bc5109b33b96343dba653822906061750c5b6f591b8c753191908190036101000190a4505050505050505050505050565b5f844211156136875760405162461bcd60e51b815260206004820152601f60248201527f4d6f72706865724f7261636c653a206578706972656420646561646c696e65006044820152606401610abe565b5f7f7fd20421357a1c20062b0fca45106216b1f0c9af8635225c603297387ba52695885f015189602001518a604001518a6136de8c6001600160a01b03165f908152606f6020526040902080546001810190915590565b8b6040516020016136f59796959493929190614efc565b6040516020818303038152906040528051906020012090505f613717826140d6565b90505f61372682888888614122565b9050886001600160a01b0316816001600160a01b0316146137895760405162461bcd60e51b815260206004820181905260248201527f4d6f72706865724f7261636c653a20696e76616c6964207369676e61747572656044820152606401610abe565b607080546001600160a01b0319166001600160a01b038b161790556137ad8a610b1d565b607080546001600160a01b03191690559a9950505050505050505050565b5f8054610100900460ff1615613810578160ff1660011480156137ed5750303b155b6138095760405162461bcd60e51b8152600401610abe90614f35565b505f919050565b5f5460ff8084169116106138365760405162461bcd60e51b8152600401610abe90614f35565b505f805460ff191660ff92909216919091179055600190565b5f54610100900460ff166138755760405162461bcd60e51b8152600401610abe90614f83565b565b5f54610100900460ff1661389d5760405162461bcd60e51b8152600401610abe90614f83565b6138756141a1565b60668190556040518181527f0a20b6289d596db2ac25c70c6c69f5e39361ed00454ab483397db8c744ec0b319060200160405180910390a150565b6070545f906001600160a01b03161561390357506070546001600160a01b031690565b503390565b81516020830151604080850151608086015160a087015160c088015160e0890151945163d505accf60e01b81526001600160a01b0396871660048201523060248201526044810194909452606484019290925260ff16608483015260a482015260c481019190915291169063d505accf9060e4015f604051808303815f87803b158015613993575f80fd5b505af11580156139a5573d5f803e3d5ffd5b505050506139c0825f015183602001513085604001516141d3565b8151604080840151905163095ea7b360e01b815273e592427a0aece92de3edee1f18e0157c05861564600482015260248101919091526001600160a01b039091169063095ea7b3906044016020604051808303815f875af1158015613a27573d5f803e3d5ffd5b505050506040513d601f19601f82011682018060405250810190613a4b9190614c6a565b5060655f9054906101000a90046001600160a01b03166001600160a01b031663432556ba6040518163ffffffff1660e01b8152600401602060405180830381865afa158015613a9c573d5f803e3d5ffd5b505050506040513d601f19601f82011682018060405250810190613ac09190614c4f565b60405163095ea7b360e01b815273e592427a0aece92de3edee1f18e0157c058615646004820152602481018390526001600160a01b03919091169063095ea7b3906044016020604051808303815f875af1158015613b20573d5f803e3d5ffd5b505050506040513d601f19601f82011682018060405250810190613b449190614c6a565b5060725482516060916001600160a01b03918216911614613c355760655f9054906101000a90046001600160a01b03166001600160a01b031663432556ba6040518163ffffffff1660e01b8152600401602060405180830381865afa158015613baf573d5f803e3d5ffd5b505050506040513d601f19601f82011682018060405250810190613bd39190614c4f565b60725484516040516bffffffffffffffffffffffff19606094851b8116602083015261017760eb1b6034830181905293851b81166037830152604b820193909352921b16604e8201526062016040516020818303038152906040529050613cf3565b60655f9054906101000a90046001600160a01b03166001600160a01b031663432556ba6040518163ffffffff1660e01b8152600401602060405180830381865afa158015613c85573d5f803e3d5ffd5b505050506040513d601f19601f82011682018060405250810190613ca99190614c4f565b6072546040516bffffffffffffffffffffffff19606093841b8116602083015261017760eb1b60348301529190921b166037820152604b0160405160208183030381529060405290505b5f73e592427a0aece92de3edee1f18e0157c0586156490505f6040518060a00160405280848152602001613d256138e0565b6001600160a01b03168152602001428152602001858152602001866040015181525090505f826001600160a01b031663f28c0498836040518263ffffffff1660e01b8152600401613d76919061501b565b6020604051808303815f875af1158015613d92573d5f803e3d5ffd5b505050506040513d601f19601f82011682018060405250810190613db69190614d8f565b9050855f01516001600160a01b031663a9059cbb8760200151838960400151613ddf9190615072565b6040516001600160e01b031960e085901b1681526001600160a01b03909216600483015260248201526044016020604051808303815f875af1158015613e27573d5f803e3d5ffd5b505050506040513d601f19601f82011682018060405250810190613e4b9190614c6a565b50855160405163095ea7b360e01b815273e592427a0aece92de3edee1f18e0157c0586156460048201525f60248201526001600160a01b039091169063095ea7b3906044016020604051808303815f875af1158015613eac573d5f803e3d5ffd5b505050506040513d601f19601f82011682018060405250810190613ed09190614c6a565b5060655f9054906101000a90046001600160a01b03166001600160a01b031663432556ba6040518163ffffffff1660e01b8152600401602060405180830381865afa158015613f21573d5f803e3d5ffd5b505050506040513d601f19601f82011682018060405250810190613f459190614c4f565b60405163095ea7b360e01b815273e592427a0aece92de3edee1f18e0157c0586156460048201525f60248201526001600160a01b03919091169063095ea7b3906044016020604051808303815f875af1158015613fa4573d5f803e3d5ffd5b505050506040513d601f19601f82011682018060405250810190613fc89190614c6a565b50505050505050565b5f6112177f8b73c3c69bb8fe3d512ecc4cf759cc79239f7b179b0ffacaa9a75d522b39400f7fca82a94b3c35be4fb8e06faa102ba96b016e9c5dd45f747224333f012bfd5e6a7fc89efdaa54c0f20c7adf612882df0950f5a951637e0307cdcb4c672f298b8bc661422d565b60335460ff166140865760405162461bcd60e51b815260206004820152601460248201527314185d5cd8589b194e881b9bdd081c185d5cd95960621b6044820152606401610abe565b6033805460ff191690557f5db9ee0a495bf2e6ff9c91a7834c1ba4fdd244a5e8aa4e537bd38aeae4b073aa6140b96138e0565b6040516001600160a01b03909116815260200160405180910390a1565b5f611c806140e2613fd1565b8360405161190160f01b602082015260228101839052604281018290525f9060620160405160208183030381529060405280519060200120905092915050565b5f805f61413187878787614276565b9150915061413e8161435b565b5095945050505050565b60335460ff161561416b5760405162461bcd60e51b8152600401610abe90614cc6565b6033805460ff191660011790557f62e78cea01bee320cd4e420270b5ea74000d11b0c9f74754ebdbfc544b05a2586140b96138e0565b5f54610100900460ff166141c75760405162461bcd60e51b8152600401610abe90614f83565b6033805460ff19169055565b604080516001600160a01b0385811660248301528416604482015260648082018490528251808303909101815260849091019091526020810180516001600160e01b03166323b872dd60e01b1790526109a1908590614510565b6040805160208101859052908101839052606081018290524660808201523060a08201525f9060c0016040516020818303038152906040528051906020012090505b9392505050565b5f807f7fffffffffffffffffffffffffffffff5d576e7357a4501ddfe92f46681b20a08311156142ab57505f90506003614352565b8460ff16601b141580156142c357508460ff16601c14155b156142d357505f90506004614352565b604080515f8082526020820180845289905260ff881692820192909252606081018690526080810185905260019060a0016020604051602081039080840390855afa158015614324573d5f803e3d5ffd5b5050604051601f1901519150506001600160a01b03811661434c575f60019250925050614352565b91505f90505b94509492505050565b5f81600481111561436e5761436e615085565b036143765750565b600181600481111561438a5761438a615085565b036143d75760405162461bcd60e51b815260206004820152601860248201527f45434453413a20696e76616c6964207369676e617475726500000000000000006044820152606401610abe565b60028160048111156143eb576143eb615085565b036144385760405162461bcd60e51b815260206004820152601f60248201527f45434453413a20696e76616c6964207369676e6174757265206c656e677468006044820152606401610abe565b600381600481111561444c5761444c615085565b036144a45760405162461bcd60e51b815260206004820152602260248201527f45434453413a20696e76616c6964207369676e6174757265202773272076616c604482015261756560f01b6064820152608401610abe565b60048160048111156144b8576144b8615085565b03611c125760405162461bcd60e51b815260206004820152602260248201527f45434453413a20696e76616c6964207369676e6174757265202776272076616c604482015261756560f01b6064820152608401610abe565b5f614564826040518060400160405280602081526020017f5361666545524332303a206c6f772d6c6576656c2063616c6c206661696c6564815250856001600160a01b03166145e19092919063ffffffff16565b80519091501561116957808060200190518101906145829190614c6a565b6111695760405162461bcd60e51b815260206004820152602a60248201527f5361666545524332303a204552433230206f7065726174696f6e20646964206e6044820152691bdd081cdd58d8d9595960b21b6064820152608401610abe565b60606145ef84845f856145f7565b949350505050565b6060824710156146585760405162461bcd60e51b815260206004820152602660248201527f416464726573733a20696e73756666696369656e742062616c616e636520666f6044820152651c8818d85b1b60d21b6064820152608401610abe565b6001600160a01b0385163b6146af5760405162461bcd60e51b815260206004820152601d60248201527f416464726573733a2063616c6c20746f206e6f6e2d636f6e74726163740000006044820152606401610abe565b5f80866001600160a01b031685876040516146ca9190615099565b5f6040518083038185875af1925050503d805f8114614704576040519150601f19603f3d011682016040523d82523d5f602084013e614709565b606091505b5091509150614719828286614724565b979650505050505050565b6060831561473357508161426f565b8251156147435782518084602001fd5b8160405162461bcd60e51b8152600401610abe91906150b4565b6001600160a01b0381168114611c12575f80fd5b5f805f60608486031215614783575f80fd5b833561478e8161475d565b9250602084013561479e8161475d565b929592945050506040919091013590565b5f602082840312156147bf575f80fd5b813561426f8161475d565b604051610120810167ffffffffffffffff811182821017156147fa57634e487b7160e01b5f52604160045260245ffd5b60405290565b604051610100810167ffffffffffffffff811182821017156147fa57634e487b7160e01b5f52604160045260245ffd5b8015158114611c12575f80fd5b803561114381614830565b5f6101208284031215614859575f80fd5b6148616147ca565b90508135815260208201356020820152604082013560408201526148876060830161483d565b60608201526080820135608082015260a082013560a082015260c082013560c082015260e082013560e082015261010080830135818301525092915050565b5f61012082840312156148d7575f80fd5b61426f8383614848565b803560ff81168114611143575f80fd5b5f6101008284031215614902575f80fd5b61490a614800565b905081356149178161475d565b815260208201356149278161475d565b8060208301525060408201356040820152606082013560608201526080820135608082015261495860a083016148e1565b60a082015260c082013560c082015260e082013560e082015292915050565b5f806102208385031215614989575f80fd5b6149938484614848565b91506149a38461012085016148f1565b90509250929050565b5f602082840312156149bc575f80fd5b5035919050565b5f80604083850312156149d4575f80fd5b8235915060208301356149e681614830565b809150509250929050565b5f8060408385031215614a02575f80fd5b8235614a0d8161475d565b946020939093013593505050565b5f805f805f805f6102c0888a031215614a32575f80fd5b614a3c8989614848565b9650614a4c896101208a016148f1565b9550610220880135614a5d8161475d565b94506102408801359350614a7461026089016148e1565b925061028088013591506102a0880135905092959891949750929550565b5f805f805f805f60e0888a031215614aa8575f80fd5b505085359760208701359750604087013596606081013596506080810135955060a0810135945060c0013592509050565b5f8060408385031215614aea575f80fd5b50508035926020909101359150565b5f805f805f805f805f6101208a8c031215614b12575f80fd5b8935985060208a0135975060408a0135965060608a0135614b3281614830565b989b979a50959860808101359760a0820135975060c0820135965060e08201359550610100909101359350915050565b5f805f805f805f805f805f6101608c8e031215614b7d575f80fd5b8b359a5060208c0135614b8f8161475d565b995060408c0135985060608c0135975060808c0135965060a08c0135614bb481614830565b9a9d999c50979a9699959895975050505060c08401359360e081013593610100820135935061012082013592506101409091013590565b5f805f805f806101c08789031215614c01575f80fd5b614c0b8888614848565b9550610120870135614c1c8161475d565b94506101408701359350614c3361016088016148e1565b925061018087013591506101a087013590509295509295509295565b5f60208284031215614c5f575f80fd5b815161426f8161475d565b5f60208284031215614c7a575f80fd5b815161426f81614830565b60208082526021908201527f4d6f72706865724f7261636c653a205065726d697373696f6e2064656e6965646040820152601760f91b606082015260800190565b60208082526010908201526f14185d5cd8589b194e881c185d5cd95960821b604082015260600190565b60208082526044908201527f4d6f72706865724f7261636c653a204d757374207472616e736665722067617360408201527f20636f73747320666f72204f7261636c652043616c6c6261636b2066756e637460608201526334b7b71760e11b608082015260a00190565b6001600160a01b039690961686526020860194909452604085019290925260608401521515608083015260a082015260c00190565b5f60208284031215614d9f575f80fd5b5051919050565b634e487b7160e01b5f52601160045260245ffd5b8082028115828204841417611c8057611c80614da6565b5f6101008284031215614de2575f80fd5b614dea614800565b825181526020830151602082015260408301516040820152606083015160608201526080830151608082015260a083015160a082015260c083015160c082015260e083015160e08201528091505092915050565b9a8b5260208b019990995260408a01979097526060890195909552608088019390935260a087019190915260c086015260e08501526101008401526101208301526101408201526101600190565b5f805f805f805f60e0888a031215614ea2575f80fd5b8751614ead8161475d565b602089015160408a015160608b015160808c015160a08d015160c0909d0151949e939d50919b909a50909850965090945092505050565b5f60018201614ef557614ef5614da6565b5060010190565b9687526020870195909552604086019390935260608501919091526001600160a01b0316608084015260a083015260c082015260e00190565b6020808252602e908201527f496e697469616c697a61626c653a20636f6e747261637420697320616c72656160408201526d191e481a5b9a5d1a585b1a5e995960921b606082015260800190565b6020808252602b908201527f496e697469616c697a61626c653a20636f6e7472616374206973206e6f74206960408201526a6e697469616c697a696e6760a81b606082015260800190565b5f5b83811015614fe8578181015183820152602001614fd0565b50505f910152565b5f8151808452615007816020860160208601614fce565b601f01601f19169290920160200192915050565b602081525f825160a0602084015261503660c0840182614ff0565b905060018060a01b0360208501511660408401526040840151606084015260608401516080840152608084015160a08401528091505092915050565b81810381811115611c8057611c80614da6565b634e487b7160e01b5f52602160045260245ffd5b5f82516150aa818460208701614fce565b9190910192915050565b602081525f61426f6020830184614ff056fee5a0b4d50f56047f84728557fedbda92f956391bc9d5c762e8461996dd8e7ad7456e80d7f83ecad5376797c2562c7d48cc4873cf784699120b78efad9ba18ecca26469706673582212206a2a9b4fe7b21498cf4e4d70bacf915d4aed45cfae53e1906992370c25f8007864736f6c63430008140033",
  "immutableReferences": {},
  "source": "//SPDX-License-Identifier: GPLv3\r\npragma solidity ^0.8.11;\r\n\r\nimport \"./MorpherTradeEngine.sol\";\r\nimport \"./MorpherState.sol\";\r\nimport \"./MorpherAccessControl.sol\";\r\n\r\nimport \"@openzeppelin/contracts-upgradeable/utils/cryptography/MerkleProofUpgradeable.sol\";\r\nimport \"@openzeppelin/contracts-upgradeable/proxy/utils/Initializable.sol\";\r\nimport \"@openzeppelin/contracts-upgradeable/utils/ContextUpgradeable.sol\";\r\nimport \"@openzeppelin/contracts-upgradeable/security/PausableUpgradeable.sol\";\r\nimport \"@openzeppelin/contracts-upgradeable/utils/cryptography/draft-EIP712Upgradeable.sol\";\r\nimport \"@openzeppelin/contracts-upgradeable/utils/cryptography/ECDSAUpgradeable.sol\";\r\nimport \"@openzeppelin/contracts-upgradeable/utils/CountersUpgradeable.sol\";\r\nimport \"@openzeppelin/contracts/token/ERC20/extensions/IERC20Permit.sol\";\r\n\r\nimport \"@openzeppelin/contracts-upgradeable/token/ERC20/IERC20Upgradeable.sol\";\r\nimport \"@openzeppelin/contracts-upgradeable/token/ERC20/utils/SafeERC20Upgradeable.sol\";\r\n\r\nimport \"@uniswap/v3-periphery/contracts/interfaces/ISwapRouter.sol\";\r\nimport \"@uniswap/v3-periphery/contracts/interfaces/IPeripheryPayments.sol\";\r\n\r\n// ----------------------------------------------------------------------------------\r\n// Morpher Oracle contract v 2.0\r\n// The oracle initates a new trade by calling trade engine and requesting a new orderId.\r\n// An event is fired by the contract notifying the oracle operator to query a price/liquidation unchecked\r\n// for a market/user and return the information via the callback function. Since calling\r\n// the callback function requires gas, the user must send a fixed amount of Ether when\r\n// creating their order.\r\n// ----------------------------------------------------------------------------------\r\n\r\ncontract MorpherOracle is Initializable, ContextUpgradeable, PausableUpgradeable {\r\n\tMorpherState state; // read only, Oracle doesn't need writing access to state\r\n\r\n\tbool public useWhiteList; //always false at the moment\r\n\r\n\tuint256 public gasForCallback;\r\n\r\n\taddress payable public callBackCollectionAddress;\r\n\r\n\tmapping(address => bool) public callBackAddress;\r\n\tmapping(address => bool) public whiteList;\r\n\r\n\tmapping(bytes32 => uint256) public priceBelow;\r\n\tmapping(bytes32 => uint256) public priceAbove;\r\n\tmapping(bytes32 => uint256) public goodFrom;\r\n\tmapping(bytes32 => uint256) public goodUntil;\r\n\r\n\tmapping(bytes32 => bool) public orderCancellationRequested;\r\n\r\n\t/**\r\n\t * ROLES KNOWN TO ORACLE\r\n\t */\r\n\tbytes32 public constant ADMINISTRATOR_ROLE = keccak256(\"ADMINISTRATOR_ROLE\");\r\n\tbytes32 public constant ORACLEOPERATOR_ROLE = keccak256(\"ORACLEOPERATOR_ROLE\"); //used for callbacks from API\r\n\tbytes32 public constant PAUSER_ROLE = keccak256(\"PAUSER_ROLE\"); //can pause oracle\r\n\r\n\t/**\r\n\t * Permit functionality\r\n\t * Added after proxy was deployed, so manually adding functionality here\r\n\t */\r\n\tbytes32 public constant _HASHED_NAME = 0xca82a94b3c35be4fb8e06faa102ba96b016e9c5dd45f747224333f012bfd5e6a;\r\n\tbytes32 public constant _HASHED_VERSION = 0xc89efdaa54c0f20c7adf612882df0950f5a951637e0307cdcb4c672f298b8bc6;\r\n\tbytes32 public constant _TYPE_HASH =\r\n\t\tkeccak256(\"EIP712Domain(string name,string version,uint256 chainId,address verifyingContract)\");\r\n\r\n\taddress public constant UNISWAP_ROUTER = 0xE592427A0AEce92De3Edee1F18E0157C05861564;\r\n\r\n\tusing CountersUpgradeable for CountersUpgradeable.Counter;\r\n\r\n\tmapping(address => CountersUpgradeable.Counter) private _nonces;\r\n\r\n\t// solhint-disable-next-line var-name-mixedcase\r\n\tbytes32 public constant _PERMIT_TYPEHASH =\r\n\t\tkeccak256(\r\n\t\t\t\"CreateOrder(bytes32 _marketId,uint256 _closeSharesAmount,uint256 _openMPHTokenAmount,address _msgSender,uint256 nonce,uint256 deadline)\"\r\n\t\t);\r\n\r\n\tstruct CreateOrderStruct {\r\n\t\tbytes32 _marketId;\r\n\t\tuint256 _closeSharesAmount;\r\n\t\tuint256 _openMPHTokenAmount;\r\n\t\tbool _tradeDirection;\r\n\t\tuint256 _orderLeverage;\r\n\t\tuint256 _onlyIfPriceAbove;\r\n\t\tuint256 _onlyIfPriceBelow;\r\n\t\tuint256 _goodUntil;\r\n\t\tuint256 _goodFrom;\r\n\t}\r\n\r\n\tstruct TokenPermitEIP712Struct {\r\n\t\taddress tokenAddress;\r\n\t\taddress owner;\r\n\t\tuint256 value;\r\n\t\tuint256 minOutValue;\r\n\t\tuint256 deadline;\r\n\t\tuint8 v;\r\n\t\tbytes32 r;\r\n\t\tbytes32 s;\r\n\t}\r\n\r\n\taddress private msgSenderOverride;\r\n\t\r\n\tmapping(bytes32 => TokenPermitEIP712Struct) closeOrderIdSwapToToken; //tokenAddress will be the target address, the permit needs to be for MPH and needs to be larger than the MPH amount to be closed otherwise it will fail.\r\n\r\n\tuint24 public constant poolFee = 3000;\r\n\t\r\n\taddress public wMaticAddress;\r\n\t\r\n\r\n\tfunction _msgSender() internal view override returns (address) {\r\n\t\tif (msgSenderOverride != address(0)) {\r\n\t\t\treturn msgSenderOverride;\r\n\t\t}\r\n\r\n\t\treturn msg.sender;\r\n\t}\r\n\r\n\t// ----------------------------------------------------------------------------------\r\n\t// Events\r\n\t// ----------------------------------------------------------------------------------\r\n\tevent OrderCreated(\r\n\t\tbytes32 indexed _orderId,\r\n\t\taddress indexed _address,\r\n\t\tbytes32 indexed _marketId,\r\n\t\tuint256 _closeSharesAmount,\r\n\t\tuint256 _openMPHTokenAmount,\r\n\t\tbool _tradeDirection,\r\n\t\tuint256 _orderLeverage,\r\n\t\tuint256 _onlyIfPriceBelow,\r\n\t\tuint256 _onlyIfPriceAbove,\r\n\t\tuint256 _goodFrom,\r\n\t\tuint256 _goodUntil\r\n\t);\r\n\r\n\tevent LiquidationOrderCreated(\r\n\t\tbytes32 indexed _orderId,\r\n\t\taddress _sender,\r\n\t\taddress indexed _address,\r\n\t\tbytes32 indexed _marketId\r\n\t);\r\n\r\n\tevent OrderProcessed(\r\n\t\tbytes32 indexed _orderId,\r\n\t\tuint256 _price,\r\n\t\tuint256 _unadjustedMarketPrice,\r\n\t\tuint256 _spread,\r\n\t\tuint256 _positionLiquidationTimestamp,\r\n\t\tuint256 _timeStamp,\r\n\t\tuint256 _newLongShares,\r\n\t\tuint256 _newShortShares,\r\n\t\tuint256 _newMeanEntry,\r\n\t\tuint256 _newMeanSprad,\r\n\t\tuint256 _newMeanLeverage,\r\n\t\tuint256 _liquidationPrice\r\n\t);\r\n\r\n\tevent OrderFailed(\r\n\t\tbytes32 indexed _orderId,\r\n\t\taddress indexed _address,\r\n\t\tbytes32 indexed _marketId,\r\n\t\tuint256 _closeSharesAmount,\r\n\t\tuint256 _openMPHTokenAmount,\r\n\t\tbool _tradeDirection,\r\n\t\tuint256 _orderLeverage,\r\n\t\tuint256 _onlyIfPriceBelow,\r\n\t\tuint256 _onlyIfPriceAbove,\r\n\t\tuint256 _goodFrom,\r\n\t\tuint256 _goodUntil\r\n\t);\r\n\r\n\tevent OrderCancelled(bytes32 indexed _orderId, address indexed _sender, address indexed _oracleAddress);\r\n\r\n\tevent AdminOrderCancelled(bytes32 indexed _orderId, address indexed _sender, address indexed _oracleAddress);\r\n\r\n\tevent OrderCancellationRequestedEvent(bytes32 indexed _orderId, address indexed _sender);\r\n\r\n\tevent CallbackAddressEnabled(address indexed _address);\r\n\r\n\tevent CallbackAddressDisabled(address indexed _address);\r\n\r\n\tevent OraclePaused(bool _paused);\r\n\r\n\tevent CallBackCollectionAddressChange(address _address);\r\n\r\n\tevent SetGasForCallback(uint256 _gasForCallback);\r\n\r\n\tevent LinkTradeEngine(address _address);\r\n\tevent LinkWMatic(address _address);\r\n\r\n\tevent LinkMorpherState(address _address);\r\n\r\n\tevent SetUseWhiteList(bool _useWhiteList);\r\n\r\n\tevent AddressWhiteListed(address _address);\r\n\r\n\tevent AddressBlackListed(address _address);\r\n\r\n\tevent AdminLiquidationOrderCreated(\r\n\t\tbytes32 indexed _orderId,\r\n\t\taddress indexed _address,\r\n\t\tbytes32 indexed _marketId,\r\n\t\tuint256 _closeSharesAmount,\r\n\t\tuint256 _openMPHTokenAmount,\r\n\t\tbool _tradeDirection,\r\n\t\tuint256 _orderLeverage\r\n\t);\r\n\r\n\t/**\r\n\t * Delisting markets is a function that stops when gas is running low\r\n\t * if it reached all positions it will emit \"DelistMarketComplete\"\r\n\t * otherwise it needs to be re-run.\r\n\t */\r\n\tevent DelistMarketIncomplete(bytes32 _marketId, uint256 _processedUntilIndex);\r\n\tevent DelistMarketComplete(bytes32 _marketId);\r\n\tevent LockedPriceForClosingPositions(bytes32 _marketId, uint256 _price);\r\n\r\n\tmodifier onlyRole(bytes32 role) {\r\n\t\trequire(\r\n\t\t\tMorpherAccessControl(state.morpherAccessControlAddress()).hasRole(role, _msgSender()),\r\n\t\t\t\"MorpherOracle: Permission denied.\"\r\n\t\t);\r\n\t\t_;\r\n\t}\r\n\r\n\tfunction initialize(\r\n\t\taddress _morpherState,\r\n\t\taddress payable _gasCollectionAddress,\r\n\t\tuint256 _gasForCallback\r\n\t) public initializer {\r\n\t\tContextUpgradeable.__Context_init();\r\n\t\tPausableUpgradeable.__Pausable_init();\r\n\r\n\t\tstate = MorpherState(_morpherState);\r\n\r\n\t\tsetCallbackCollectionAddress(_gasCollectionAddress);\r\n\t\tsetGasForCallback(_gasForCallback);\r\n\t}\r\n\r\n\t// ----------------------------------------------------------------------------------\r\n\t// Setter/getter functions for trade engine address, oracle operator (callback) address,\r\n\t// and prepaid gas limit for callback function\r\n\t// ----------------------------------------------------------------------------------\r\n\r\n\tfunction setStateAddress(address _address) public onlyRole(ADMINISTRATOR_ROLE) {\r\n\t\tstate = MorpherState(_address);\r\n\t\temit LinkMorpherState(_address);\r\n\t}\r\n\r\n\tfunction setWmaticAddress(address _address) public onlyRole(ADMINISTRATOR_ROLE) {\r\n\t\twMaticAddress = _address;\r\n\t\temit LinkWMatic(_address);\r\n\t}\r\n\r\n\tfunction overrideGasForCallback(uint256 _gasForCallback) public onlyRole(ADMINISTRATOR_ROLE) {\r\n\t\tgasForCallback = _gasForCallback;\r\n\t\temit SetGasForCallback(_gasForCallback);\r\n\t}\r\n\r\n\tfunction setGasForCallback(uint256 _gasForCallback) private {\r\n\t\tgasForCallback = _gasForCallback;\r\n\t\temit SetGasForCallback(_gasForCallback);\r\n\t}\r\n\r\n\tfunction setCallbackCollectionAddress(address payable _address) public onlyRole(ADMINISTRATOR_ROLE) {\r\n\t\tcallBackCollectionAddress = _address;\r\n\t\temit CallBackCollectionAddressChange(_address);\r\n\t}\r\n\r\n\t// ----------------------------------------------------------------------------------\r\n\t// emitOrderFailed\r\n\t// Can be called by Oracle Operator to notifiy user of failed order\r\n\t// ----------------------------------------------------------------------------------\r\n\tfunction emitOrderFailed(\r\n\t\tbytes32 _orderId,\r\n\t\taddress _address,\r\n\t\tbytes32 _marketId,\r\n\t\tuint256 _closeSharesAmount,\r\n\t\tuint256 _openMPHTokenAmount,\r\n\t\tbool _tradeDirection,\r\n\t\tuint256 _orderLeverage,\r\n\t\tuint256 _onlyIfPriceBelow,\r\n\t\tuint256 _onlyIfPriceAbove,\r\n\t\tuint256 _goodFrom,\r\n\t\tuint256 _goodUntil\r\n\t) public onlyRole(ORACLEOPERATOR_ROLE) {\r\n\t\temit OrderFailed(\r\n\t\t\t_orderId,\r\n\t\t\t_address,\r\n\t\t\t_marketId,\r\n\t\t\t_closeSharesAmount,\r\n\t\t\t_openMPHTokenAmount,\r\n\t\t\t_tradeDirection,\r\n\t\t\t_orderLeverage,\r\n\t\t\t_onlyIfPriceBelow,\r\n\t\t\t_onlyIfPriceAbove,\r\n\t\t\t_goodFrom,\r\n\t\t\t_goodUntil\r\n\t\t);\r\n\t}\r\n\r\n\t// ----------------------------------------------------------------------------------\r\n\t// createOrder(bytes32  _marketId, bool _tradeAmountGivenInShares, uint256 _tradeAmount, bool _tradeDirection, uint256 _orderLeverage)\r\n\t// Request a new orderId from trade engine and fires event for price/liquidation check request.\r\n\t// ----------------------------------------------------------------------------------\r\n\tfunction createOrder(\r\n\t\tbytes32 _marketId,\r\n\t\tuint256 _closeSharesAmount,\r\n\t\tuint256 _openMPHTokenAmount,\r\n\t\tbool _tradeDirection,\r\n\t\tuint256 _orderLeverage,\r\n\t\tuint256 _onlyIfPriceAbove,\r\n\t\tuint256 _onlyIfPriceBelow,\r\n\t\tuint256 _goodUntil,\r\n\t\tuint256 _goodFrom\r\n\t) public payable whenNotPaused returns (bytes32 _orderId) {\r\n\t\tCreateOrderStruct memory createOrderStruct = CreateOrderStruct(\r\n\t\t\t_marketId,\r\n\t\t\t_closeSharesAmount,\r\n\t\t\t_openMPHTokenAmount,\r\n\t\t\t_tradeDirection,\r\n\t\t\t_orderLeverage,\r\n\t\t\t_onlyIfPriceAbove,\r\n\t\t\t_onlyIfPriceBelow,\r\n\t\t\t_goodUntil,\r\n\t\t\t_goodFrom\r\n\t\t);\r\n\t\treturn createOrder(createOrderStruct);\r\n\t}\r\n\r\n\tfunction createOrder(\r\n\t\tCreateOrderStruct memory createOrderParams\r\n\t) public payable whenNotPaused returns (bytes32 _orderId) {\r\n\t\tif (gasForCallback > 0) {\r\n\t\t\trequire(\r\n\t\t\t\tmsg.value >= gasForCallback,\r\n\t\t\t\t\"MorpherOracle: Must transfer gas costs for Oracle Callback function.\"\r\n\t\t\t);\r\n\t\t\tcallBackCollectionAddress.transfer(msg.value);\r\n\t\t}\r\n\t\t_orderId = MorpherTradeEngine(state.morpherTradeEngineAddress()).requestOrderId(\r\n\t\t\t_msgSender(),\r\n\t\t\tcreateOrderParams._marketId,\r\n\t\t\tcreateOrderParams._closeSharesAmount,\r\n\t\t\tcreateOrderParams._openMPHTokenAmount,\r\n\t\t\tcreateOrderParams._tradeDirection,\r\n\t\t\tcreateOrderParams._orderLeverage\r\n\t\t);\r\n\r\n\t\t//if the market was deactivated, and the trader didn't fail yet, then we got an orderId to close the position with a locked in price\r\n\t\tif (state.getMarketActive(createOrderParams._marketId) == false) {\r\n\t\t\t//price will come from the position where price is stored forever\r\n\t\t\tMorpherTradeEngine(state.morpherTradeEngineAddress()).processOrder(\r\n\t\t\t\t_orderId,\r\n\t\t\t\tMorpherTradeEngine(state.morpherTradeEngineAddress()).getDeactivatedMarketPrice(\r\n\t\t\t\t\tcreateOrderParams._marketId\r\n\t\t\t\t),\r\n\t\t\t\t0,\r\n\t\t\t\t0,\r\n\t\t\t\tblock.timestamp * (1000)\r\n\t\t\t);\r\n\r\n\t\t\temit OrderProcessed(\r\n\t\t\t\t_orderId,\r\n\t\t\t\tMorpherTradeEngine(state.morpherTradeEngineAddress()).getDeactivatedMarketPrice(\r\n\t\t\t\t\tcreateOrderParams._marketId\r\n\t\t\t\t),\r\n\t\t\t\t0,\r\n\t\t\t\t0,\r\n\t\t\t\t0,\r\n\t\t\t\tblock.timestamp * (1000),\r\n\t\t\t\t0,\r\n\t\t\t\t0,\r\n\t\t\t\t0,\r\n\t\t\t\t0,\r\n\t\t\t\t0,\r\n\t\t\t\t0\r\n\t\t\t);\r\n\t\t} else {\r\n\t\t\tpriceAbove[_orderId] = createOrderParams._onlyIfPriceAbove;\r\n\t\t\tpriceBelow[_orderId] = createOrderParams._onlyIfPriceBelow;\r\n\t\t\tgoodFrom[_orderId] = createOrderParams._goodFrom;\r\n\t\t\tgoodUntil[_orderId] = createOrderParams._goodUntil;\r\n\t\t\temit OrderCreated(\r\n\t\t\t\t_orderId,\r\n\t\t\t\t_msgSender(),\r\n\t\t\t\tcreateOrderParams._marketId,\r\n\t\t\t\tcreateOrderParams._closeSharesAmount,\r\n\t\t\t\tcreateOrderParams._openMPHTokenAmount,\r\n\t\t\t\tcreateOrderParams._tradeDirection,\r\n\t\t\t\tcreateOrderParams._orderLeverage,\r\n\t\t\t\tcreateOrderParams._onlyIfPriceBelow,\r\n\t\t\t\tcreateOrderParams._onlyIfPriceAbove,\r\n\t\t\t\tcreateOrderParams._goodFrom,\r\n\t\t\t\tcreateOrderParams._goodUntil\r\n\t\t\t);\r\n\t\t}\r\n\r\n\t\treturn _orderId;\r\n\t}\r\n\r\n\tfunction createOrderPermittedBySignature(\r\n\t\tCreateOrderStruct memory createOrderParams,\r\n\t\taddress _addressPositionOwner,\r\n\t\tuint256 deadline,\r\n\t\tuint8 v,\r\n\t\tbytes32 r,\r\n\t\tbytes32 s\r\n\t) public returns (bytes32 orderId) {\r\n\t\trequire(block.timestamp <= deadline, \"MorpherOracle: expired deadline\");\r\n\r\n\t\tbytes32 structHash = keccak256(\r\n\t\t\tabi.encode(\r\n\t\t\t\t_PERMIT_TYPEHASH,\r\n\t\t\t\tcreateOrderParams._marketId,\r\n\t\t\t\tcreateOrderParams._closeSharesAmount,\r\n\t\t\t\tcreateOrderParams._openMPHTokenAmount,\r\n\t\t\t\t_addressPositionOwner,\r\n\t\t\t\t_useNonce(_addressPositionOwner),\r\n\t\t\t\tdeadline\r\n\t\t\t)\r\n\t\t);\r\n\r\n\t\tbytes32 hash = _hashTypedDataV4(structHash);\r\n\r\n\t\taddress signer = ECDSAUpgradeable.recover(hash, v, r, s);\r\n\t\trequire(signer == _addressPositionOwner, \"MorpherOracle: invalid signature\");\r\n\t\tmsgSenderOverride = _addressPositionOwner;\r\n\t\torderId = createOrder(createOrderParams);\r\n\t\tmsgSenderOverride = address(0);\r\n\t}\r\n\r\n\t//sent directly from the owner\r\n\tfunction createOrderFromToken(\r\n\t\tCreateOrderStruct memory createOrderParams,\r\n\t\tTokenPermitEIP712Struct memory inputToken\r\n\t) public {\r\n\t\tif (createOrderParams._openMPHTokenAmount > 0) {\r\n\t\t\tpermitTransferAndSwap(inputToken, createOrderParams._openMPHTokenAmount);\r\n\t\t\t// require(createOrderParams.openMPHTokenAmount <= amountOut, \"MorpherOracle: OpenMPHTokenAmount bigger than conversion amount, aborting\"); //it does not matter, because total balance of MPH counts here more\r\n\t\t\tcreateOrder(createOrderParams);\r\n\t\t} else {\r\n\t\t\tbytes32 orderId = createOrder(createOrderParams);\r\n\t\t\tcloseOrderIdSwapToToken[orderId] = inputToken;\r\n\t\t}\r\n\t}\r\n\r\n\tfunction createOrderFromToken(\r\n\t\tCreateOrderStruct memory createOrderParams,\r\n\t\tTokenPermitEIP712Struct memory inputToken,\r\n\t\taddress _addressPositionOwner,\r\n\t\tuint256 deadline,\r\n\t\tuint8 v,\r\n\t\tbytes32 r,\r\n\t\tbytes32 s\r\n\t) public {\r\n\t\trequire(block.timestamp <= deadline, \"MorpherOracle: expired deadline\");\r\n\r\n\t\tbytes32 structHash = keccak256(\r\n\t\t\tabi.encode(\r\n\t\t\t\t_PERMIT_TYPEHASH,\r\n\t\t\t\tcreateOrderParams._marketId,\r\n\t\t\t\tcreateOrderParams._closeSharesAmount,\r\n\t\t\t\tcreateOrderParams._openMPHTokenAmount,\r\n\t\t\t\t_addressPositionOwner,\r\n\t\t\t\t_useNonce(_addressPositionOwner),\r\n\t\t\t\tdeadline\r\n\t\t\t)\r\n\t\t);\r\n\r\n\t\tbytes32 hash = _hashTypedDataV4(structHash);\r\n\r\n\t\taddress signer = ECDSAUpgradeable.recover(hash, v, r, s);\r\n\t\trequire(signer == _addressPositionOwner, \"MorpherOracle: invalid signature\");\r\n\t\tmsgSenderOverride = _addressPositionOwner;\r\n\r\n\t\tcreateOrderFromToken(createOrderParams, inputToken);\r\n\t\tmsgSenderOverride = address(0);\r\n\t}\r\n\t\r\n\t\r\n\r\n    function permitTransferAndSwap(TokenPermitEIP712Struct memory inputToken, uint256 mphTokenAmount) internal {\r\n        //increase allowance\r\n\t\t\tIERC20Permit(inputToken.tokenAddress).permit(\r\n\t\t\t\tinputToken.owner,\r\n\t\t\t\taddress(this),\r\n\t\t\t\tinputToken.value,\r\n\t\t\t\tinputToken.deadline,\r\n\t\t\t\tinputToken.v,\r\n\t\t\t\tinputToken.r,\r\n\t\t\t\tinputToken.s\r\n\t\t\t);\r\n\r\n\t\t\t// Transfer `amountIn` of inputToken to this contract.\r\n\t\t\tSafeERC20Upgradeable.safeTransferFrom(\r\n\t\t\t\tIERC20Upgradeable(inputToken.tokenAddress),\r\n\t\t\t\tinputToken.owner,\r\n\t\t\t\taddress(this),\r\n\t\t\t\tinputToken.value\r\n\t\t\t);\r\n\r\n\t\t\t// Approve the router to spend the token.\r\n\t\t\tIERC20Upgradeable(inputToken.tokenAddress).approve(address(UNISWAP_ROUTER), inputToken.value);\r\n\t\t\tIERC20Upgradeable(state.morpherTokenAddress()).approve(address(UNISWAP_ROUTER), mphTokenAmount);\r\n\r\n\t\t\tbytes memory path;\r\n\r\n\t\t\tif(inputToken.tokenAddress != wMaticAddress) {\r\n\t\t\t\tpath = abi.encodePacked( //reversed path for exactOutput! FU oz!\r\n\t\t\t\t\tstate.morpherTokenAddress(),\r\n\t\t\t\t\tpoolFee,\r\n\t\t\t\t\twMaticAddress,\r\n\t\t\t\t\tpoolFee,\r\n\t\t\t\t\tinputToken.tokenAddress\r\n\t\t\t\t);\r\n\t\t\t} else {\r\n\t\t\t\tpath = abi.encodePacked( //reversed path for exactOutput! FU oz!\r\n\t\t\t\t\tstate.morpherTokenAddress(),\r\n\t\t\t\t\tpoolFee,\r\n\t\t\t\t\twMaticAddress\r\n\t\t\t\t);\r\n\t\t\t}\r\n\r\n\t\t\tISwapRouter swapRouter = ISwapRouter(UNISWAP_ROUTER);\r\n\t\t\tISwapRouter.ExactOutputParams memory outputSwapParams = ISwapRouter.ExactOutputParams({\r\n\t\t\t\tpath: path,\r\n\t\t\t\trecipient: _msgSender(),\r\n\t\t\t\tdeadline: block.timestamp,\r\n\t\t\t\tamountOut: mphTokenAmount,\r\n\t\t\t\tamountInMaximum: inputToken.value //safeguarded by the permit functionality.\r\n\t\t\t});\r\n\r\n\t\t\tuint amountIn = swapRouter.exactOutput(outputSwapParams);\r\n\r\n\t\t\t//TransferBack the remainder\r\n\t\t\tIERC20Upgradeable(inputToken.tokenAddress).transfer(\r\n\t\t\t\tinputToken.owner,\r\n\t\t\t\tinputToken.value - amountIn\r\n\t\t\t);\r\n\t\t\t\r\n\t\t\t//reset the approved amounts\r\n\t\t\tIERC20Upgradeable(inputToken.tokenAddress).approve(address(UNISWAP_ROUTER), 0);\r\n\t\t\tIERC20Upgradeable(state.morpherTokenAddress()).approve(address(UNISWAP_ROUTER), 0);\r\n\t\t\t\r\n    }\r\n\r\n\tfunction convertMphAndPayout(bytes32 orderId) internal {\r\n\t\t//convert the MPH paid out by the close order back to the\r\n\t\tif (closeOrderIdSwapToToken[orderId].tokenAddress != address(0)) {\r\n\t\t\tISwapRouter swapRouter = ISwapRouter(UNISWAP_ROUTER);\r\n\r\n\t\t\tTokenPermitEIP712Struct memory inputToken = closeOrderIdSwapToToken[orderId];\r\n\t\t\t//increase allowance\r\n\t\t\tIERC20Permit(state.morpherTokenAddress()).permit(\r\n\t\t\t\tinputToken.owner,\r\n\t\t\t\taddress(this),\r\n\t\t\t\tinputToken.value,\r\n\t\t\t\tinputToken.deadline,\r\n\t\t\t\tinputToken.v,\r\n\t\t\t\tinputToken.r,\r\n\t\t\t\tinputToken.s\r\n\t\t\t);\r\n\r\n\t\t\tMorpherTradeEngine tradeEngine = MorpherTradeEngine(state.morpherTradeEngineAddress());\r\n\t\t\t(, , , , , , , , , , , MorpherTradeEngine.OrderModifier memory oldOrder) = tradeEngine.orders(orderId);\r\n\t\t\tuint mphTokenAmount = oldOrder.balanceUp;\r\n\r\n\t\t\tSafeERC20Upgradeable.safeApprove(IERC20Upgradeable(state.morpherTokenAddress()), address(swapRouter), mphTokenAmount);\r\n\t\t\tISwapRouter.ExactInputParams memory backConvertParams =\r\n\t\t\tISwapRouter.ExactInputParams({\r\n\t\t\t    path: abi.encodePacked(state.morpherTokenAddress(), poolFee, wMaticAddress, poolFee, inputToken.tokenAddress),\r\n\t\t\t    recipient: inputToken.owner,\r\n\t\t\t    deadline: block.timestamp,\r\n\t\t\t    amountIn: inputToken.value,\r\n\t\t\t    amountOutMinimum: inputToken.minOutValue\r\n\t\t\t});\r\n\r\n\t\t\t// swap the remaining token back\r\n\t\t\tswapRouter.exactInput(backConvertParams);\r\n\t\t}\r\n\t}\r\n\r\n\t/**\r\n\t * @dev Returns the domain separator for the current chain.\r\n\t */\r\n\tfunction _domainSeparatorV4() internal view returns (bytes32) {\r\n\t\treturn _buildDomainSeparator(_TYPE_HASH, _EIP712NameHash(), _EIP712VersionHash());\r\n\t}\r\n\r\n\tfunction _buildDomainSeparator(\r\n\t\tbytes32 typeHash,\r\n\t\tbytes32 nameHash,\r\n\t\tbytes32 versionHash\r\n\t) private view returns (bytes32) {\r\n\t\treturn keccak256(abi.encode(typeHash, nameHash, versionHash, block.chainid, address(this)));\r\n\t}\r\n\r\n\t/**\r\n\t * @dev Given an already https://eips.ethereum.org/EIPS/eip-712#definition-of-hashstruct[hashed struct], this\r\n\t * function returns the hash of the fully encoded EIP712 message for this domain.\r\n\t *\r\n\t * This hash can be used together with {ECDSA-recover} to obtain the signer of a message. For example:\r\n\t *\r\n\t * ```solidity\r\n\t * bytes32 digest = _hashTypedDataV4(keccak256(abi.encode(\r\n\t *     keccak256(\"Mail(address to,string contents)\"),\r\n\t *     mailTo,\r\n\t *     keccak256(bytes(mailContents))\r\n\t * )));\r\n\t * address signer = ECDSA.recover(digest, signature);\r\n\t * ```\r\n\t */\r\n\tfunction _hashTypedDataV4(bytes32 structHash) internal view virtual returns (bytes32) {\r\n\t\treturn ECDSAUpgradeable.toTypedDataHash(_domainSeparatorV4(), structHash);\r\n\t}\r\n\r\n\t/**\r\n\t * @dev The hash of the name parameter for the EIP712 domain.\r\n\t *\r\n\t * NOTE: This function reads from storage by default, but can be redefined to return a constant value if gas costs\r\n\t * are a concern.\r\n\t */\r\n\tfunction _EIP712NameHash() internal view virtual returns (bytes32) {\r\n\t\treturn _HASHED_NAME;\r\n\t}\r\n\r\n\t/**\r\n\t * @dev The hash of the version parameter for the EIP712 domain.\r\n\t *\r\n\t * NOTE: This function reads from storage by default, but can be redefined to return a constant value if gas costs\r\n\t * are a concern.\r\n\t */\r\n\tfunction _EIP712VersionHash() internal view virtual returns (bytes32) {\r\n\t\treturn _HASHED_VERSION;\r\n\t}\r\n\r\n\t/**\r\n\t * @dev See {IERC20Permit-nonces}.\r\n\t */\r\n\tfunction nonces(address owner) public view virtual returns (uint256) {\r\n\t\treturn _nonces[owner].current();\r\n\t}\r\n\r\n\t/**\r\n\t * @dev See {IERC20Permit-DOMAIN_SEPARATOR}.\r\n\t */\r\n\t// solhint-disable-next-line func-name-mixedcase\r\n\tfunction DOMAIN_SEPARATOR() external view returns (bytes32) {\r\n\t\treturn _domainSeparatorV4();\r\n\t}\r\n\r\n\t/**\r\n\t * @dev \"Consume a nonce\": return the current value and increment.\r\n\t *\r\n\t * _Available since v4.1._\r\n\t */\r\n\tfunction _useNonce(address owner) internal virtual returns (uint256 current) {\r\n\t\tCountersUpgradeable.Counter storage nonce = _nonces[owner];\r\n\t\tcurrent = nonce.current();\r\n\t\tnonce.increment();\r\n\t}\r\n\r\n\tfunction initiateCancelOrder(bytes32 _orderId) public {\r\n\t\tMorpherTradeEngine _tradeEngine = MorpherTradeEngine(state.morpherTradeEngineAddress());\r\n\t\trequire(orderCancellationRequested[_orderId] == false, \"MorpherOracle: Order was already canceled.\");\r\n\t\t(address userId, , , , , , ) = _tradeEngine.getOrder(_orderId);\r\n\t\trequire(userId == _msgSender(), \"MorpherOracle: Only the user can request an order cancellation.\");\r\n\t\torderCancellationRequested[_orderId] = true;\r\n\t\temit OrderCancellationRequestedEvent(_orderId, _msgSender());\r\n\t}\r\n\r\n\t// ----------------------------------------------------------------------------------\r\n\t// cancelOrder(bytes32  _orderId)\r\n\t// User or Administrator can cancel their own orders before the _callback has been executed\r\n\t// ----------------------------------------------------------------------------------\r\n\tfunction cancelOrder(bytes32 _orderId) public onlyRole(ORACLEOPERATOR_ROLE) {\r\n\t\trequire(orderCancellationRequested[_orderId] == true, \"MorpherOracle: Order-Cancellation was not requested.\");\r\n\t\tMorpherTradeEngine _tradeEngine = MorpherTradeEngine(state.morpherTradeEngineAddress());\r\n\t\t(address userId, , , , , , ) = _tradeEngine.getOrder(_orderId);\r\n\t\t_tradeEngine.cancelOrder(_orderId, userId);\r\n\t\tclearOrderConditions(_orderId);\r\n\t\temit OrderCancelled(_orderId, userId, _msgSender());\r\n\t}\r\n\r\n\t// ----------------------------------------------------------------------------------\r\n\t// adminCancelOrder(bytes32  _orderId)\r\n\t// Administrator can cancel before the _callback has been executed to provide an updateOrder functionality\r\n\t// ----------------------------------------------------------------------------------\r\n\tfunction adminCancelOrder(bytes32 _orderId) public onlyRole(ORACLEOPERATOR_ROLE) {\r\n\t\tMorpherTradeEngine _tradeEngine = MorpherTradeEngine(state.morpherTradeEngineAddress());\r\n\t\t(address userId, , , , , , ) = _tradeEngine.getOrder(_orderId);\r\n\t\t_tradeEngine.cancelOrder(_orderId, userId);\r\n\t\tclearOrderConditions(_orderId);\r\n\t\temit AdminOrderCancelled(_orderId, userId, _msgSender());\r\n\t}\r\n\r\n\t// ------------------------------------------------------------------------\r\n\t// checkOrderConditions(bytes32 _orderId, uint256 _price)\r\n\t// Checks if callback satisfies the order conditions\r\n\t// ------------------------------------------------------------------------\r\n\tfunction checkOrderConditions(bytes32 _orderId, uint256 _price) public view returns (bool _conditionsMet) {\r\n\t\t_conditionsMet = true;\r\n\t\tif (block.timestamp > goodUntil[_orderId] && goodUntil[_orderId] > 0) {\r\n\t\t\t_conditionsMet = false;\r\n\t\t}\r\n\t\tif (block.timestamp < goodFrom[_orderId] && goodFrom[_orderId] > 0) {\r\n\t\t\t_conditionsMet = false;\r\n\t\t}\r\n\r\n\t\tif (priceAbove[_orderId] > 0 && priceBelow[_orderId] > 0) {\r\n\t\t\tif (_price < priceAbove[_orderId] && _price > priceBelow[_orderId]) {\r\n\t\t\t\t_conditionsMet = false;\r\n\t\t\t}\r\n\t\t} else {\r\n\t\t\tif (_price < priceAbove[_orderId] && priceAbove[_orderId] > 0) {\r\n\t\t\t\t_conditionsMet = false;\r\n\t\t\t}\r\n\t\t\tif (_price > priceBelow[_orderId] && priceBelow[_orderId] > 0) {\r\n\t\t\t\t_conditionsMet = false;\r\n\t\t\t}\r\n\t\t}\r\n\r\n\t\treturn _conditionsMet;\r\n\t}\r\n\r\n\t// ----------------------------------------------------------------------------------\r\n\t// Deletes parameters of cancelled or processed orders\r\n\t// ----------------------------------------------------------------------------------\r\n\tfunction clearOrderConditions(bytes32 _orderId) internal {\r\n\t\tpriceAbove[_orderId] = 0;\r\n\t\tpriceBelow[_orderId] = 0;\r\n\t\tgoodFrom[_orderId] = 0;\r\n\t\tgoodUntil[_orderId] = 0;\r\n\t}\r\n\r\n\tfunction pause() public virtual onlyRole(PAUSER_ROLE) {\r\n\t\t_pause();\r\n\t}\r\n\r\n\tfunction unpause() public virtual onlyRole(PAUSER_ROLE) {\r\n\t\t_unpause();\r\n\t}\r\n\r\n\t// ----------------------------------------------------------------------------------\r\n\t// createLiquidationOrder(address _address, bytes32 _marketId)\r\n\t// Checks if position has been liquidated since last check. Requires gas for callback\r\n\t// function. Anyone can issue a liquidation order for any other address and market.\r\n\t// ----------------------------------------------------------------------------------\r\n\tfunction createLiquidationOrder(\r\n\t\taddress _address,\r\n\t\tbytes32 _marketId\r\n\t) public payable whenNotPaused onlyRole(ORACLEOPERATOR_ROLE) returns (bytes32 _orderId) {\r\n\t\tif (gasForCallback > 0) {\r\n\t\t\trequire(\r\n\t\t\t\tmsg.value >= gasForCallback,\r\n\t\t\t\t\"MorpherOracle: Must transfer gas costs for Oracle Callback function.\"\r\n\t\t\t);\r\n\t\t\tcallBackCollectionAddress.transfer(msg.value);\r\n\t\t}\r\n\t\t_orderId = MorpherTradeEngine(state.morpherTradeEngineAddress()).requestOrderId(\r\n\t\t\t_address,\r\n\t\t\t_marketId,\r\n\t\t\t0,\r\n\t\t\t0,\r\n\t\t\ttrue,\r\n\t\t\t10 ** 8\r\n\t\t);\r\n\t\temit LiquidationOrderCreated(_orderId, _msgSender(), _address, _marketId);\r\n\t\treturn _orderId;\r\n\t}\r\n\r\n\t// ----------------------------------------------------------------------------------\r\n\t// __callback(bytes32 _orderId, uint256 _price, uint256 _spread, uint256 _liquidationTimestamp, uint256 _timeStamp)\r\n\t// Called by the oracle operator. Writes price/spread/liquidiation check to the blockchain.\r\n\t// Trade engine processes the order and updates the portfolio in state if successful.\r\n\t// ----------------------------------------------------------------------------------\r\n\tfunction __callback(\r\n\t\tbytes32 _orderId,\r\n\t\tuint256 _price,\r\n\t\tuint256 _unadjustedMarketPrice,\r\n\t\tuint256 _spread,\r\n\t\tuint256 _liquidationTimestamp,\r\n\t\tuint256 _timeStamp,\r\n\t\tuint256 _gasForNextCallback\r\n\t) public onlyRole(ORACLEOPERATOR_ROLE) whenNotPaused returns (MorpherTradeEngine.position memory createdPosition) {\r\n\t\trequire(checkOrderConditions(_orderId, _price), \"MorpherOracle Error: Order Conditions are not met\");\r\n\r\n\t\tcreatedPosition = MorpherTradeEngine(state.morpherTradeEngineAddress()).processOrder(\r\n\t\t\t_orderId,\r\n\t\t\t_price,\r\n\t\t\t_spread,\r\n\t\t\t_liquidationTimestamp,\r\n\t\t\t_timeStamp\r\n\t\t);\r\n\r\n\t\tclearOrderConditions(_orderId);\r\n\t\temit OrderProcessed(\r\n\t\t\t_orderId,\r\n\t\t\t_price,\r\n\t\t\t_unadjustedMarketPrice,\r\n\t\t\t_spread,\r\n\t\t\t_liquidationTimestamp,\r\n\t\t\t_timeStamp,\r\n\t\t\tcreatedPosition.longShares,\r\n\t\t\tcreatedPosition.shortShares,\r\n\t\t\tcreatedPosition.meanEntryPrice,\r\n\t\t\tcreatedPosition.meanEntrySpread,\r\n\t\t\tcreatedPosition.meanEntryLeverage,\r\n\t\t\tcreatedPosition.liquidationPrice\r\n\t\t);\r\n\t\tsetGasForCallback(_gasForNextCallback);\r\n\t\treturn createdPosition;\r\n\t}\r\n\r\n\t// ----------------------------------------------------------------------------------\r\n\t// delistMarket(bytes32 _marketId)\r\n\t// Administrator closes out all existing positions on _marketId market at current prices\r\n\t// ----------------------------------------------------------------------------------\r\n\r\n\tuint delistMarketFromIx;\r\n\r\n\tfunction delistMarket(bytes32 _marketId, bool _startFromScratch) public onlyRole(ADMINISTRATOR_ROLE) {\r\n\t\trequire(state.getMarketActive(_marketId) == true, \"Market must be active to process position liquidations.\");\r\n\t\t// If no _fromIx and _toIx specified, do entire _list\r\n\t\tif (_startFromScratch) {\r\n\t\t\tdelistMarketFromIx = 0;\r\n\t\t}\r\n\r\n\t\tuint _toIx = MorpherTradeEngine(state.morpherTradeEngineAddress()).getMaxMappingIndex(_marketId);\r\n\r\n\t\taddress _address;\r\n\t\tfor (uint256 i = delistMarketFromIx; i <= _toIx; i++) {\r\n\t\t\tif (gasleft() < 250000 && i != _toIx) {\r\n\t\t\t\t//stop if there's not enough gas to write the next transaction\r\n\t\t\t\tdelistMarketFromIx = i;\r\n\t\t\t\temit DelistMarketIncomplete(_marketId, _toIx);\r\n\t\t\t\treturn;\r\n\t\t\t}\r\n\r\n\t\t\t_address = MorpherTradeEngine(state.morpherTradeEngineAddress()).getExposureMappingAddress(_marketId, i);\r\n\t\t\tadminLiquidationOrder(_address, _marketId);\r\n\t\t}\r\n\t\temit DelistMarketComplete(_marketId);\r\n\t}\r\n\r\n\t// ----------------------------------------------------------------------------------\r\n\t// adminLiquidationOrder(address _address, bytes32 _marketId)\r\n\t// Administrator closes out an existing position of _address on _marketId market at current price\r\n\t// ----------------------------------------------------------------------------------\r\n\tfunction adminLiquidationOrder(\r\n\t\taddress _address,\r\n\t\tbytes32 _marketId\r\n\t) public onlyRole(ADMINISTRATOR_ROLE) returns (bytes32 _orderId) {\r\n\t\tMorpherTradeEngine.position memory position = MorpherTradeEngine(state.morpherTradeEngineAddress()).getPosition(\r\n\t\t\t_address,\r\n\t\t\t_marketId\r\n\t\t);\r\n\r\n\t\tif (position.longShares > 0) {\r\n\t\t\t_orderId = MorpherTradeEngine(state.morpherTradeEngineAddress()).requestOrderId(\r\n\t\t\t\t_address,\r\n\t\t\t\t_marketId,\r\n\t\t\t\tposition.longShares,\r\n\t\t\t\t0,\r\n\t\t\t\tfalse,\r\n\t\t\t\t10 ** 8\r\n\t\t\t);\r\n\t\t\temit AdminLiquidationOrderCreated(_orderId, _address, _marketId, position.longShares, 0, false, 10 ** 8);\r\n\t\t}\r\n\t\tif (position.shortShares > 0) {\r\n\t\t\t_orderId = MorpherTradeEngine(state.morpherTradeEngineAddress()).requestOrderId(\r\n\t\t\t\t_address,\r\n\t\t\t\t_marketId,\r\n\t\t\t\tposition.shortShares,\r\n\t\t\t\t0,\r\n\t\t\t\ttrue,\r\n\t\t\t\t10 ** 8\r\n\t\t\t);\r\n\t\t\temit AdminLiquidationOrderCreated(_orderId, _address, _marketId, position.shortShares, 0, true, 10 ** 8);\r\n\t\t}\r\n\t\treturn _orderId;\r\n\t}\r\n\r\n\t/**\r\n\t * Deprecated function\r\n\t */\r\n\tfunction getTradeEngineFromOrderId(uint orderId) public view returns (address) {\r\n\t\torderId = orderId; //mute the warning\r\n\t\treturn state.morpherTradeEngineAddress();\r\n\t}\r\n}\r\n",
  "sourcePath": "/Users/thomas/Projects/Morpher/MorpherProtocol/contracts/MorpherOracle.sol",
  "compiler": {
    "name": "solc",
    "version": "0.8.20+commit.a1b79de6.Emscripten.clang"
  },
  "schemaVersion": "3.4.16",
  "updatedAt": "2024-01-30T13:10:08.429Z",
  "devdoc": {
    "events": {
      "Initialized(uint8)": {
        "details": "Triggered when the contract has been initialized or reinitialized."
      },
      "Paused(address)": {
        "details": "Emitted when the pause is triggered by `account`."
      },
      "Unpaused(address)": {
        "details": "Emitted when the pause is lifted by `account`."
      }
    },
    "kind": "dev",
    "methods": {
      "DOMAIN_SEPARATOR()": {
        "details": "See {IERC20Permit-DOMAIN_SEPARATOR}."
      },
      "nonces(address)": {
        "details": "See {IERC20Permit-nonces}."
      },
      "paused()": {
        "details": "Returns true if the contract is paused, and false otherwise."
      }
    },
    "version": 1
  },
  "userdoc": {
    "events": {
      "DelistMarketIncomplete(bytes32,uint256)": {
        "notice": "Delisting markets is a function that stops when gas is running low if it reached all positions it will emit \"DelistMarketComplete\" otherwise it needs to be re-run."
      }
    },
    "kind": "user",
    "methods": {
      "ADMINISTRATOR_ROLE()": {
        "notice": "ROLES KNOWN TO ORACLE"
      },
      "_HASHED_NAME()": {
        "notice": "Permit functionality Added after proxy was deployed, so manually adding functionality here"
      },
      "getTradeEngineFromOrderId(uint256)": {
        "notice": "Deprecated function"
      }
    },
    "version": 1
  }
}