{
  "contractName": "MorpherStaking",
  "abi": [
    {
      "anonymous": false,
      "inputs": [
        {
          "indexed": false,
          "internalType": "uint256",
          "name": "interestRate",
          "type": "uint256"
        },
        {
          "indexed": false,
          "internalType": "uint256",
          "name": "validFromTimestamp",
          "type": "uint256"
        }
      ],
      "name": "InterestRateAdded",
      "type": "event"
    },
    {
      "anonymous": false,
      "inputs": [
        {
          "indexed": false,
          "internalType": "uint256",
          "name": "interstRateIndex",
          "type": "uint256"
        },
        {
          "indexed": false,
          "internalType": "uint256",
          "name": "oldvalue",
          "type": "uint256"
        },
        {
          "indexed": false,
          "internalType": "uint256",
          "name": "newValue",
          "type": "uint256"
        }
      ],
      "name": "InterestRateRateChanged",
      "type": "event"
    },
    {
      "anonymous": false,
      "inputs": [
        {
          "indexed": false,
          "internalType": "uint256",
          "name": "interstRateIndex",
          "type": "uint256"
        },
        {
          "indexed": false,
          "internalType": "uint256",
          "name": "oldvalue",
          "type": "uint256"
        },
        {
          "indexed": false,
          "internalType": "uint256",
          "name": "newValue",
          "type": "uint256"
        }
      ],
      "name": "InterestRateValidFromChanged",
      "type": "event"
    },
    {
      "anonymous": false,
      "inputs": [
        {
          "indexed": false,
          "internalType": "address",
          "name": "stateAddress",
          "type": "address"
        }
      ],
      "name": "LinkState",
      "type": "event"
    },
    {
      "anonymous": false,
      "inputs": [
        {
          "indexed": true,
          "internalType": "uint256",
          "name": "lastReward",
          "type": "uint256"
        },
        {
          "indexed": false,
          "internalType": "uint256",
          "name": "poolShareValue",
          "type": "uint256"
        }
      ],
      "name": "PoolShareValueUpdated",
      "type": "event"
    },
    {
      "anonymous": false,
      "inputs": [
        {
          "indexed": false,
          "internalType": "uint256",
          "name": "newInterestRate",
          "type": "uint256"
        }
      ],
      "name": "SetInterestRate",
      "type": "event"
    },
    {
      "anonymous": false,
      "inputs": [
        {
          "indexed": false,
          "internalType": "uint256",
          "name": "newLockupPeriod",
          "type": "uint256"
        }
      ],
      "name": "SetLockupPeriod",
      "type": "event"
    },
    {
      "anonymous": false,
      "inputs": [
        {
          "indexed": false,
          "internalType": "uint256",
          "name": "newMinimumStake",
          "type": "uint256"
        }
      ],
      "name": "SetMinimumStake",
      "type": "event"
    },
    {
      "anonymous": false,
      "inputs": [
        {
          "indexed": true,
          "internalType": "address",
          "name": "userAddress",
          "type": "address"
        },
        {
          "indexed": true,
          "internalType": "uint256",
          "name": "amount",
          "type": "uint256"
        },
        {
          "indexed": false,
          "internalType": "uint256",
          "name": "poolShares",
          "type": "uint256"
        },
        {
          "indexed": false,
          "internalType": "uint256",
          "name": "lockedUntil",
          "type": "uint256"
        }
      ],
      "name": "Staked",
      "type": "event"
    },
    {
      "anonymous": false,
      "inputs": [
        {
          "indexed": true,
          "internalType": "uint256",
          "name": "lastReward",
          "type": "uint256"
        },
        {
          "indexed": false,
          "internalType": "uint256",
          "name": "delta",
          "type": "uint256"
        }
      ],
      "name": "StakingRewardsMinted",
      "type": "event"
    },
    {
      "anonymous": false,
      "inputs": [
        {
          "indexed": true,
          "internalType": "address",
          "name": "userAddress",
          "type": "address"
        },
        {
          "indexed": true,
          "internalType": "uint256",
          "name": "amount",
          "type": "uint256"
        },
        {
          "indexed": false,
          "internalType": "uint256",
          "name": "poolShares",
          "type": "uint256"
        }
      ],
      "name": "Unstaked",
      "type": "event"
    },
    {
      "inputs": [],
      "name": "ADMINISTRATOR_ROLE",
      "outputs": [
        {
          "internalType": "bytes32",
          "name": "",
          "type": "bytes32"
        }
      ],
      "stateMutability": "view",
      "type": "function"
    },
    {
      "inputs": [],
      "name": "STAKINGADMIN_ROLE",
      "outputs": [
        {
          "internalType": "bytes32",
          "name": "",
          "type": "bytes32"
        }
      ],
      "stateMutability": "view",
      "type": "function"
    },
    {
      "inputs": [
        {
          "internalType": "uint256",
          "name": "",
          "type": "uint256"
        }
      ],
      "name": "interestRates",
      "outputs": [
        {
          "internalType": "uint256",
          "name": "validFrom",
          "type": "uint256"
        },
        {
          "internalType": "uint256",
          "name": "rate",
          "type": "uint256"
        }
      ],
      "stateMutability": "view",
      "type": "function"
    },
    {
      "inputs": [],
      "name": "lastReward",
      "outputs": [
        {
          "internalType": "uint256",
          "name": "",
          "type": "uint256"
        }
      ],
      "stateMutability": "view",
      "type": "function"
    },
    {
      "inputs": [],
      "name": "lockupPeriod",
      "outputs": [
        {
          "internalType": "uint256",
          "name": "",
          "type": "uint256"
        }
      ],
      "stateMutability": "view",
      "type": "function"
    },
    {
      "inputs": [],
      "name": "marketIdStakingMPH",
      "outputs": [
        {
          "internalType": "bytes32",
          "name": "",
          "type": "bytes32"
        }
      ],
      "stateMutability": "view",
      "type": "function"
    },
    {
      "inputs": [],
      "name": "minimumStake",
      "outputs": [
        {
          "internalType": "uint256",
          "name": "",
          "type": "uint256"
        }
      ],
      "stateMutability": "view",
      "type": "function"
    },
    {
      "inputs": [],
      "name": "numInterestRates",
      "outputs": [
        {
          "internalType": "uint256",
          "name": "",
          "type": "uint256"
        }
      ],
      "stateMutability": "view",
      "type": "function"
    },
    {
      "inputs": [],
      "name": "poolShareValue",
      "outputs": [
        {
          "internalType": "uint256",
          "name": "",
          "type": "uint256"
        }
      ],
      "stateMutability": "view",
      "type": "function"
    },
    {
      "inputs": [
        {
          "internalType": "address",
          "name": "",
          "type": "address"
        }
      ],
      "name": "poolShares",
      "outputs": [
        {
          "internalType": "uint256",
          "name": "numPoolShares",
          "type": "uint256"
        },
        {
          "internalType": "uint256",
          "name": "lockedUntil",
          "type": "uint256"
        }
      ],
      "stateMutability": "view",
      "type": "function"
    },
    {
      "inputs": [],
      "name": "stakingAddress",
      "outputs": [
        {
          "internalType": "address",
          "name": "",
          "type": "address"
        }
      ],
      "stateMutability": "view",
      "type": "function"
    },
    {
      "inputs": [],
      "name": "totalShares",
      "outputs": [
        {
          "internalType": "uint256",
          "name": "",
          "type": "uint256"
        }
      ],
      "stateMutability": "view",
      "type": "function"
    },
    {
      "inputs": [
        {
          "internalType": "address",
          "name": "_morpherState",
          "type": "address"
        }
      ],
      "name": "initialize",
      "outputs": [],
      "stateMutability": "nonpayable",
      "type": "function"
    },
    {
      "inputs": [],
      "name": "updatePoolShareValue",
      "outputs": [
        {
          "internalType": "uint256",
          "name": "_newPoolShareValue",
          "type": "uint256"
        }
      ],
      "stateMutability": "nonpayable",
      "type": "function"
    },
    {
      "inputs": [
        {
          "internalType": "uint256",
          "name": "_amount",
          "type": "uint256"
        }
      ],
      "name": "stake",
      "outputs": [
        {
          "internalType": "uint256",
          "name": "_poolShares",
          "type": "uint256"
        }
      ],
      "stateMutability": "nonpayable",
      "type": "function"
    },
    {
      "inputs": [
        {
          "internalType": "uint256",
          "name": "_numOfShares",
          "type": "uint256"
        }
      ],
      "name": "unstake",
      "outputs": [
        {
          "internalType": "uint256",
          "name": "_amount",
          "type": "uint256"
        }
      ],
      "stateMutability": "nonpayable",
      "type": "function"
    },
    {
      "inputs": [
        {
          "internalType": "address",
          "name": "_stateAddress",
          "type": "address"
        }
      ],
      "name": "setMorpherStateAddress",
      "outputs": [],
      "stateMutability": "nonpayable",
      "type": "function"
    },
    {
      "inputs": [
        {
          "internalType": "uint256",
          "name": "_interestRate",
          "type": "uint256"
        }
      ],
      "name": "setInterestRate",
      "outputs": [],
      "stateMutability": "nonpayable",
      "type": "function"
    },
    {
      "inputs": [],
      "name": "interestRate",
      "outputs": [
        {
          "internalType": "uint256",
          "name": "",
          "type": "uint256"
        }
      ],
      "stateMutability": "view",
      "type": "function"
    },
    {
      "inputs": [
        {
          "internalType": "uint256",
          "name": "_rate",
          "type": "uint256"
        },
        {
          "internalType": "uint256",
          "name": "_validFrom",
          "type": "uint256"
        }
      ],
      "name": "addInterestRate",
      "outputs": [],
      "stateMutability": "nonpayable",
      "type": "function"
    },
    {
      "inputs": [
        {
          "internalType": "uint256",
          "name": "_numInterestRate",
          "type": "uint256"
        },
        {
          "internalType": "uint256",
          "name": "_rate",
          "type": "uint256"
        }
      ],
      "name": "changeInterestRateValue",
      "outputs": [],
      "stateMutability": "nonpayable",
      "type": "function"
    },
    {
      "inputs": [
        {
          "internalType": "uint256",
          "name": "_numInterestRate",
          "type": "uint256"
        },
        {
          "internalType": "uint256",
          "name": "_validFrom",
          "type": "uint256"
        }
      ],
      "name": "changeInterestRateValidFrom",
      "outputs": [],
      "stateMutability": "nonpayable",
      "type": "function"
    },
    {
      "inputs": [
        {
          "internalType": "uint256",
          "name": "_positionTimestamp",
          "type": "uint256"
        }
      ],
      "name": "getInterestRate",
      "outputs": [
        {
          "internalType": "uint256",
          "name": "",
          "type": "uint256"
        }
      ],
      "stateMutability": "view",
      "type": "function"
    },
    {
      "inputs": [
        {
          "internalType": "uint256",
          "name": "_lockupPeriod",
          "type": "uint256"
        }
      ],
      "name": "setLockupPeriodRate",
      "outputs": [],
      "stateMutability": "nonpayable",
      "type": "function"
    },
    {
      "inputs": [
        {
          "internalType": "uint256",
          "name": "_minimumStake",
          "type": "uint256"
        }
      ],
      "name": "setMinimumStake",
      "outputs": [],
      "stateMutability": "nonpayable",
      "type": "function"
    },
    {
      "inputs": [],
      "name": "getTotalPooledValue",
      "outputs": [
        {
          "internalType": "uint256",
          "name": "_totalPooled",
          "type": "uint256"
        }
      ],
      "stateMutability": "view",
      "type": "function"
    },
    {
      "inputs": [
        {
          "internalType": "address",
          "name": "_address",
          "type": "address"
        }
      ],
      "name": "getStake",
      "outputs": [
        {
          "internalType": "uint256",
          "name": "_poolShares",
          "type": "uint256"
        }
      ],
      "stateMutability": "view",
      "type": "function"
    },
    {
      "inputs": [
        {
          "internalType": "address",
          "name": "_address",
          "type": "address"
        }
      ],
      "name": "getStakeValue",
      "outputs": [
        {
          "internalType": "uint256",
          "name": "_value",
          "type": "uint256"
        },
        {
          "internalType": "uint256",
          "name": "_lastUpdate",
          "type": "uint256"
        }
      ],
      "stateMutability": "view",
      "type": "function"
    }
  ],
  "bytecode": "0x608060405234801561001057600080fd5b5061201e806100206000396000f3fe608060405234801561001057600080fd5b50600436106101c45760003560e01c80639a4d8ba1116100f9578063e71e7ec011610097578063ee947a7c11610071578063ee947a7c146103c1578063f45edb5f146103ca578063f48fedb0146103f1578063fc395c40146103f957600080fd5b8063e71e7ec01461039c578063e9ea0ddc146103a5578063ec5ffac2146103b857600080fd5b8063c4d66de8116100d3578063c4d66de814610340578063c9b1714914610353578063d7b4be241461035c578063e4c3bc331461038757600080fd5b80639a4d8ba1146102fd578063a4c2661e14610324578063a694fc3a1461032d57600080fd5b80632e17de78116101665780635f84f302116101405780635f84f302146102a65780637a766460146102b95780637c3a00fd146102e257806396802374146102ea57600080fd5b80632e17de78146102775780633a98ef391461028a578063597f859c1461029357600080fd5b80631176aeef116101a25780631176aeef14610233578063133840391461023c578063224f7e5814610251578063233e99031461026457600080fd5b80630645dcd7146101c95780630c196a74146101e45780630fb51f41146101f7575b600080fd5b6101d161040c565b6040519081526020015b60405180910390f35b6101d16101f2366004611e0c565b610423565b61021e610205366004611e3d565b603d602052600090815260409020805460019091015482565b604080519283526020830191909152016101db565b6101d160385481565b61024f61024a366004611e61565b6105b3565b005b61024f61025f366004611e61565b610806565b61024f610272366004611e0c565b61098c565b6101d1610285366004611e0c565b610ade565b6101d160365481565b61024f6102a1366004611e0c565b610e68565b61024f6102b4366004611e0c565b610fb2565b6101d16102c7366004611e3d565b6001600160a01b03166000908152603d602052604090205490565b6101d16110d5565b61021e6102f8366004611e3d565b61113a565b61021e61030b366004611e0c565b6037602052600090815260409020805460019091015482565b6101d160345481565b6101d161033b366004611e0c565b611175565b61024f61034e366004611e3d565b611618565b6101d160355481565b603b5461036f906001600160a01b031681565b6040516001600160a01b0390911681526020016101db565b6101d1600080516020611fc983398151915281565b6101d1603c5481565b61024f6103b3366004611e3d565b6117d3565b6101d1603a5481565b6101d160395481565b6101d17fe5a0b4d50f56047f84728557fedbda92f956391bc9d5c762e8461996dd8e7ad781565b6101d1611948565b61024f610407366004611e61565b611a00565b600060365460345461041e9190611e99565b905090565b60008080805b6038548110156105935760016038546104429190611eb8565b81148061046e5750426037600061045a846001611ecf565b815260200190815260200160002060000154115b156104d05760008181526037602052604090205461048c9042611eb8565b6000828152603760205260409020600101546104a89190611e99565b6104b29084611ecf565b9250816104cb5760008181526037602052604090205491505b610593565b84603760006104e0846001611ecf565b815260200190815260200160002060000154111561058157600081815260376020819052604082205491610515846001611ecf565b8152602001908152602001600020600001546105319190611eb8565b60008281526037602052604090206001015461054d9190611e99565b6105579084611ecf565b60008281526037602052604090205490935085106105815760008181526037602052604090205491505b8061058b81611ee7565b915050610429565b5060006105a08242611eb8565b6105aa9084611f02565b95945050505050565b60335460408051630140cb6560e51b81529051600080516020611fc9833981519152926001600160a01b0316916328196ca09160048083019260209291908290030181865afa15801561060a573d6000803e3d6000fd5b505050506040513d601f19601f8201168201806040525081019061062e9190611f24565b6001600160a01b03166391d1485482336040516001600160e01b031960e085901b16815260048101929092526001600160a01b03166024820152604401602060405180830381865afa158015610688573d6000803e3d6000fd5b505050506040513d601f19601f820116820180604052508101906106ac9190611f41565b6106d15760405162461bcd60e51b81526004016106c890611f63565b60405180910390fd5b60385415806107035750816037600060016038546106ef9190611eb8565b815260200190815260200160002060000154105b61078b5760405162461bcd60e51b815260206004820152604d60248201527f4d6f72706865725374616b696e673a20496e746572657374205261746520566160448201527f6c69642046726f6d206d757374206265206c61746572207468616e206c61737460648201526c20696e7465726573745261746560981b608482015260a4016106c8565b610793611948565b5060388054600090815260376020526040808220859055825482528120600101859055815491906107c383611ee7565b909155505060408051848152602081018490527f293620aa5866cd353b1989961237e94aece8c56f6b2b4b8514ee3a6f2dded5c3910160405180910390a1505050565b60335460408051630140cb6560e51b81529051600080516020611fc9833981519152926001600160a01b0316916328196ca09160048083019260209291908290030181865afa15801561085d573d6000803e3d6000fd5b505050506040513d601f19601f820116820180604052508101906108819190611f24565b6001600160a01b03166391d1485482336040516001600160e01b031960e085901b16815260048101929092526001600160a01b03166024820152604401602060405180830381865afa1580156108db573d6000803e3d6000fd5b505050506040513d601f19601f820116820180604052508101906108ff9190611f41565b61091b5760405162461bcd60e51b81526004016106c890611f63565b600083815260376020908152604091829020600101548251868152918201529081018390527ff27b67df57164becd752b9ec4283586534adc2dfb848ee602c500aa6e46b30299060600160405180910390a1610975611948565b505060009182526037602052604090912060010155565b60335460408051630140cb6560e51b81529051600080516020611fc9833981519152926001600160a01b0316916328196ca09160048083019260209291908290030181865afa1580156109e3573d6000803e3d6000fd5b505050506040513d601f19601f82011682018060405250810190610a079190611f24565b6001600160a01b03166391d1485482336040516001600160e01b031960e085901b16815260048101929092526001600160a01b03166024820152604401602060405180830381865afa158015610a61573d6000803e3d6000fd5b505050506040513d601f19601f82011682018060405250810190610a859190611f41565b610aa15760405162461bcd60e51b81526004016106c890611f63565b603a8290556040518281527fcd49b0a32b631e59338de3903380e535f8738f7ff62fcb3953129b9607696739906020015b60405180910390a15050565b60335460408051631429c6eb60e21b815290516000926001600160a01b0316916350a71bac9160048083019260209291908290030181865afa158015610b28573d6000803e3d6000fd5b505050506040513d601f19601f82011682018060405250810190610b4c9190611f24565b604051635612cd6760e11b81523360048201526001600160a01b03919091169063ac259ace90602401602060405180830381865afa158015610b92573d6000803e3d6000fd5b505050506040513d601f19601f82011682018060405250810190610bb69190611f41565b15610c035760405162461bcd60e51b815260206004820152601f60248201527f4d6f72706865725374616b696e673a205573657220697320626c6f636b65640060448201526064016106c8565b336000908152603d602052604090205480831115610c745760405162461bcd60e51b815260206004820152602860248201527f4d6f72706865725374616b696e673a20696e73756666696369656e7420706f6f6044820152676c2073686172657360c01b60648201526084016106c8565b336000908152603d602052604090206001015442811115610cfd5760405162461bcd60e51b815260206004820152603760248201527f4d6f72706865725374616b696e673a2063616e6e6f7420756e7374616b65206260448201527f65666f7265206c6f636b75702065787069726174696f6e00000000000000000060648201526084016106c8565b610d05611948565b50336000908152603d6020526040902054610d21908590611eb8565b336000908152603d6020526040902055603654610d3f908590611eb8565b603655603454610d4f9085611e99565b9250603360009054906101000a90046001600160a01b03166001600160a01b031663432556ba6040518163ffffffff1660e01b8152600401602060405180830381865afa158015610da4573d6000803e3d6000fd5b505050506040513d601f19601f82011682018060405250810190610dc89190611f24565b6040516340c10f1960e01b8152336004820152602481018590526001600160a01b0391909116906340c10f1990604401600060405180830381600087803b158015610e1257600080fd5b505af1158015610e26573d6000803e3d6000fd5b50506040518681528592503391507f7fc4727e062e336010f2c282598ef5f14facb3de68cf8195c2f23e1454b2b74e9060200160405180910390a35050919050565b60335460408051630140cb6560e51b81529051600080516020611fc9833981519152926001600160a01b0316916328196ca09160048083019260209291908290030181865afa158015610ebf573d6000803e3d6000fd5b505050506040513d601f19601f82011682018060405250810190610ee39190611f24565b6001600160a01b03166391d1485482336040516001600160e01b031960e085901b16815260048101929092526001600160a01b03166024820152604401602060405180830381865afa158015610f3d573d6000803e3d6000fd5b505050506040513d601f19601f82011682018060405250810190610f619190611f41565b610f7d5760405162461bcd60e51b81526004016106c890611f63565b60398290556040518281527ffd48bfbbcb5a287c0ba5513ca319e022d18f0f07bc4d4dea3ace362f6710898090602001610ad2565b60335460408051630140cb6560e51b81529051600080516020611fc9833981519152926001600160a01b0316916328196ca09160048083019260209291908290030181865afa158015611009573d6000803e3d6000fd5b505050506040513d601f19601f8201168201806040525081019061102d9190611f24565b6001600160a01b03166391d1485482336040516001600160e01b031960e085901b16815260048101929092526001600160a01b03166024820152604401602060405180830381865afa158015611087573d6000803e3d6000fd5b505050506040513d601f19601f820116820180604052508101906110ab9190611f41565b6110c75760405162461bcd60e51b81526004016106c890611f63565b6110d182426105b3565b5050565b6000603854600014156110e85750600090565b600060016038546110f99190611eb8565b90505b600081815260376020526040902054421061112857600090815260376020526040902060010154919050565b8061113281611f98565b9150506110fc565b60008060345461115f846001600160a01b03166000908152603d602052604090205490565b6111699190611e99565b60355491509150915091565b60335460408051631429c6eb60e21b815290516000926001600160a01b0316916350a71bac9160048083019260209291908290030181865afa1580156111bf573d6000803e3d6000fd5b505050506040513d601f19601f820116820180604052508101906111e39190611f24565b604051635612cd6760e11b81523360048201526001600160a01b03919091169063ac259ace90602401602060405180830381865afa158015611229573d6000803e3d6000fd5b505050506040513d601f19601f8201168201806040525081019061124d9190611f41565b1561129a5760405162461bcd60e51b815260206004820152601f60248201527f4d6f72706865725374616b696e673a205573657220697320626c6f636b65640060448201526064016106c8565b60335460408051632192ab5d60e11b8152905184926001600160a01b03169163432556ba9160048083019260209291908290030181865afa1580156112e3573d6000803e3d6000fd5b505050506040513d601f19601f820116820180604052508101906113079190611f24565b6040516370a0823160e01b81523360048201526001600160a01b0391909116906370a0823190602401602060405180830381865afa15801561134d573d6000803e3d6000fd5b505050506040513d601f19601f820116820180604052508101906113719190611faf565b10156113d65760405162461bcd60e51b815260206004820152602e60248201527f4d6f72706865725374616b696e673a20696e73756666696369656e74204d504860448201526d20746f6b656e2062616c616e636560901b60648201526084016106c8565b6113de611948565b506034546113ec9083611f02565b336000908152603d60205260409020546034549192509061140d9083611e99565b6114179082611ecf565b603a5411156114865760405162461bcd60e51b815260206004820152603560248201527f4d6f72706865725374616b696e673a207374616b6520616d6f756e74206c6f776044820152746572207468616e206d696e696d756d207374616b6560581b60648201526084016106c8565b603360009054906101000a90046001600160a01b03166001600160a01b031663432556ba6040518163ffffffff1660e01b8152600401602060405180830381865afa1580156114d9573d6000803e3d6000fd5b505050506040513d601f19601f820116820180604052508101906114fd9190611f24565b6001600160a01b0316639dc29fac336034548561151a9190611e99565b6040516001600160e01b031960e085901b1681526001600160a01b0390921660048301526024820152604401600060405180830381600087803b15801561156057600080fd5b505af1158015611574573d6000803e3d6000fd5b50505050816036546115869190611ecf565b6036556115938282611ecf565b336000908152603d60205260409020556039546115b09042611ecf565b336000818152603d60205260409020600101919091556039548491907fb4caaf29adda3eefee3ad552a8e85058589bf834c7466cae4ee58787f70589ed9085906115fa9042611ecf565b6040805192835260208301919091520160405180910390a350919050565b600054610100900460ff166116335760005460ff1615611637565b303b155b61169a5760405162461bcd60e51b815260206004820152602e60248201527f496e697469616c697a61626c653a20636f6e747261637420697320616c72656160448201526d191e481a5b9a5d1a585b1a5e995960921b60648201526084016106c8565b600054610100900460ff161580156116bc576000805461ffff19166101011790555b6116c4611d9f565b603380546001600160a01b0384166001600160a01b0319918216179091554260355562278d00603981905569152d02c7e14af6800000603a55603b8054909216732222222222222222222222222222222222222222179091557f9a31fdde7a3b1444b1befb10735dcc3b72cbd9dd604d2ff45144352bf0f359a6603c556305f5e1006034556040517ffd48bfbbcb5a287c0ba5513ca319e022d18f0f07bc4d4dea3ace362f671089809161177b9190815260200190565b60405180910390a17fcd49b0a32b631e59338de3903380e535f8738f7ff62fcb3953129b9607696739603a546040516117b691815260200190565b60405180910390a180156110d1576000805461ff00191690555050565b60335460408051630140cb6560e51b815290517fe5a0b4d50f56047f84728557fedbda92f956391bc9d5c762e8461996dd8e7ad7926001600160a01b0316916328196ca09160048083019260209291908290030181865afa15801561183c573d6000803e3d6000fd5b505050506040513d601f19601f820116820180604052508101906118609190611f24565b6001600160a01b03166391d1485482336040516001600160e01b031960e085901b16815260048101929092526001600160a01b03166024820152604401602060405180830381865afa1580156118ba573d6000803e3d6000fd5b505050506040513d601f19601f820116820180604052508101906118de9190611f41565b6118fa5760405162461bcd60e51b81526004016106c890611f63565b603380546001600160a01b0319166001600160a01b0384169081179091556040519081527f978c711532bae8c58f353b0f3c7f3a0dfe600d9ae9a81818f2ad2919b88e199090602001610ad2565b60006201518060355461195b9190611ecf565b42106119f9576000620151806035546119749190611f02565b61197e9042611eb8565b90506119886110d5565b6119929082611e99565b60345461199f9190611ecf565b6034556119af6201518082611e99565b6035546119bc9190611ecf565b60358190556034546040519081527fd59b6c8b3190f59807a1cf0b6fb311ba03a32a91c1da71f75e24251a132cdc369060200160405180910390a2505b5060345490565b60335460408051630140cb6560e51b81529051600080516020611fc9833981519152926001600160a01b0316916328196ca09160048083019260209291908290030181865afa158015611a57573d6000803e3d6000fd5b505050506040513d601f19601f82011682018060405250810190611a7b9190611f24565b6001600160a01b03166391d1485482336040516001600160e01b031960e085901b16815260048101929092526001600160a01b03166024820152604401602060405180830381865afa158015611ad5573d6000803e3d6000fd5b505050506040513d601f19601f82011682018060405250810190611af99190611f41565b611b155760405162461bcd60e51b81526004016106c890611f63565b600083815260376020908152604091829020548251868152918201529081018390527f540bfd7b71faa6e96efd78eadf2100240526e583905c7fb4a63d545b20effd2e9060600160405180910390a18260385411611bcb5760405162461bcd60e51b815260206004820152602d60248201527f4d6f72706865725374616b696e673a20496e746572657374205261746520446f60448201526c6573206e6f742065786973742160981b60648201526084016106c8565b82158015611be7575060006001603854611be59190611eb8565b115b8015611c1257508160376000611bfe866001611ecf565b815260200190815260200160002060000154115b80611c605750600083118015611c3557506001603854611c329190611eb8565b83145b8015611c6057508160376000611c4c600187611eb8565b815260200190815260200160002060000154105b80611cd95750600083118015611c8357506001603854611c809190611eb8565b83105b8015611cae57508160376000611c9a600187611eb8565b815260200190815260200160002060000154105b8015611cd957508160376000611cc5866001611ecf565b815260200190815260200160002060000154115b611d835760405162461bcd60e51b815260206004820152606960248201527f4d6f72706865725374616b696e673a2076616c696446726f6d2063616e6e6f7460448201527f20626520736d616c6c6572207468616e2070726576696f757320496e7465726560648201527f73742052617465206f72206c6172676572207468616e206e65787420496e746560848201526872657374205261746560b81b60a482015260c4016106c8565b611d8b611948565b505060009182526037602052604090912055565b600054610100900460ff16611e0a5760405162461bcd60e51b815260206004820152602b60248201527f496e697469616c697a61626c653a20636f6e7472616374206973206e6f74206960448201526a6e697469616c697a696e6760a81b60648201526084016106c8565b565b600060208284031215611e1e57600080fd5b5035919050565b6001600160a01b0381168114611e3a57600080fd5b50565b600060208284031215611e4f57600080fd5b8135611e5a81611e25565b9392505050565b60008060408385031215611e7457600080fd5b50508035926020909101359150565b634e487b7160e01b600052601160045260246000fd5b6000816000190483118215151615611eb357611eb3611e83565b500290565b600082821015611eca57611eca611e83565b500390565b60008219821115611ee257611ee2611e83565b500190565b6000600019821415611efb57611efb611e83565b5060010190565b600082611f1f57634e487b7160e01b600052601260045260246000fd5b500490565b600060208284031215611f3657600080fd5b8151611e5a81611e25565b600060208284031215611f5357600080fd5b81518015158114611e5a57600080fd5b6020808252818101527f4d6f7270686572546f6b656e3a205065726d697373696f6e2064656e6965642e604082015260600190565b600081611fa757611fa7611e83565b506000190190565b600060208284031215611fc157600080fd5b505191905056fe63951dae8c67350a35b32da0155a4b45b6d7eb305049c51f4e0c5d1be838370aa264697066735822122078999478916c43f62d87501e62e02cc08082eb8b71f6c9572a45a9612b8fb7fa64736f6c634300080b0033",
  "immutableReferences": {},
  "source": "//SPDX-License-Identifier: GPLv3\r\npragma solidity 0.8.11;\r\nimport \"@openzeppelin/contracts-upgradeable/proxy/utils/Initializable.sol\";\r\nimport \"@openzeppelin/contracts-upgradeable/utils/ContextUpgradeable.sol\";\r\n\r\nimport \"./MorpherState.sol\";\r\nimport \"./MorpherUserBlocking.sol\";\r\nimport \"./MorpherToken.sol\";\r\n\r\n// ----------------------------------------------------------------------------------\r\n// Staking Morpher Token generates interest\r\n// The interest is set to 0.015% a day or ~5.475% in the first year\r\n// Stakers will be able to vote on all ProtocolDecisions in MorpherGovernance (soon...)\r\n// There is a lockup after staking or topping up (30 days) and a minimum stake (100k MPH)\r\n// ----------------------------------------------------------------------------------\r\n\r\ncontract MorpherStaking is Initializable, ContextUpgradeable {\r\n\r\n    MorpherState state;\r\n\r\n    uint256 constant PRECISION = 10**8;\r\n    uint256 constant INTERVAL  = 1 days;\r\n\r\n    bytes32 constant public ADMINISTRATOR_ROLE = keccak256(\"ADMINISTRATOR_ROLE\");\r\n    bytes32 constant public STAKINGADMIN_ROLE = keccak256(\"STAKINGADMIN_ROLE\");\r\n\r\n    //mapping(address => uint256) private poolShares;\r\n    //mapping(address => uint256) private lockup;\r\n\r\n    uint256 public poolShareValue;\r\n    uint256 public lastReward;\r\n    uint256 public totalShares;\r\n    //uint256 public interestRate = 15000; // 0.015% per day initially, diminishing returns over time\r\n    struct InterestRate {\r\n        uint256 validFrom;\r\n        uint256 rate;\r\n    }\r\n\r\n    mapping(uint256 => InterestRate) public interestRates;\r\n    uint256 public numInterestRates;\r\n\r\n    uint256 public lockupPeriod; // to prevent tactical staking and ensure smooth governance\r\n    uint256 public minimumStake; // 100k MPH minimum\r\n\r\n    address public stakingAddress;\r\n    bytes32 public marketIdStakingMPH; //STAKING_MPH\r\n\r\n    struct PoolShares {\r\n        uint256 numPoolShares;\r\n        uint256 lockedUntil;\r\n    }\r\n    mapping(address => PoolShares) public poolShares;\r\n\r\n// ----------------------------------------------------------------------------\r\n// Events\r\n// ----------------------------------------------------------------------------\r\n    event SetInterestRate(uint256 newInterestRate);\r\n    event InterestRateAdded(uint256 interestRate, uint256 validFromTimestamp);\r\n    event InterestRateRateChanged(uint256 interstRateIndex, uint256 oldvalue, uint256 newValue);\r\n    event InterestRateValidFromChanged(uint256 interstRateIndex, uint256 oldvalue, uint256 newValue);\r\n    event SetLockupPeriod(uint256 newLockupPeriod);\r\n    event SetMinimumStake(uint256 newMinimumStake);\r\n    event LinkState(address stateAddress);\r\n    \r\n    event PoolShareValueUpdated(uint256 indexed lastReward, uint256 poolShareValue);\r\n    event StakingRewardsMinted(uint256 indexed lastReward, uint256 delta);\r\n    event Staked(address indexed userAddress, uint256 indexed amount, uint256 poolShares, uint256 lockedUntil);\r\n    event Unstaked(address indexed userAddress, uint256 indexed amount, uint256 poolShares);\r\n    \r\n    \r\n    modifier onlyRole(bytes32 role) {\r\n        require(MorpherAccessControl(state.morpherAccessControlAddress()).hasRole(role, _msgSender()), \"MorpherToken: Permission denied.\");\r\n        _;\r\n    }\r\n\r\n    modifier userNotBlocked {\r\n        require(!MorpherUserBlocking(state.morpherUserBlockingAddress()).userIsBlocked(msg.sender), \"MorpherStaking: User is blocked\");\r\n        _;\r\n    }\r\n    \r\n    function initialize(address _morpherState) public initializer {\r\n        ContextUpgradeable.__Context_init();\r\n\r\n        state = MorpherState(_morpherState);\r\n        \r\n        lastReward = block.timestamp;\r\n        lockupPeriod = 30 days; // to prevent tactical staking and ensure smooth governance\r\n        minimumStake = 10**23; // 100k MPH minimum\r\n        stakingAddress = 0x2222222222222222222222222222222222222222;\r\n        marketIdStakingMPH = 0x9a31fdde7a3b1444b1befb10735dcc3b72cbd9dd604d2ff45144352bf0f359a6; //STAKING_MPH\r\n        poolShareValue = PRECISION;\r\n        emit SetLockupPeriod(lockupPeriod);\r\n        emit SetMinimumStake(minimumStake);\r\n        // missing: transferOwnership to Governance once deployed\r\n    }\r\n\r\n// ----------------------------------------------------------------------------\r\n// updatePoolShareValue\r\n// Updates the value of the Pool Shares and returns the new value.\r\n// Staking rewards are linear, there is no compound interest.\r\n// ----------------------------------------------------------------------------\r\n    \r\n    function updatePoolShareValue() public returns (uint256 _newPoolShareValue) {\r\n        if (block.timestamp >= lastReward + INTERVAL) {\r\n            uint256 _numOfIntervals = block.timestamp - lastReward / INTERVAL;\r\n            poolShareValue = poolShareValue + (_numOfIntervals * interestRate());\r\n            lastReward = lastReward + (_numOfIntervals * (INTERVAL));\r\n            emit PoolShareValueUpdated(lastReward, poolShareValue);\r\n        }\r\n        //mintStakingRewards(); //burning/minting does not influence this\r\n        return poolShareValue;        \r\n    }\r\n\r\n// ----------------------------------------------------------------------------\r\n// Staking rewards are minted if necessary\r\n// ----------------------------------------------------------------------------\r\n\r\n    // function mintStakingRewards() private {\r\n    //     uint256 _targetBalance = poolShareValue * (totalShares);\r\n    //     if (MorpherToken(state.morpherTokenAddress()).balanceOf(stakingAddress) < _targetBalance) {\r\n    //         // If there are not enough token held by the contract, mint them\r\n    //         uint256 _delta = _targetBalance - (MorpherToken(state.morpherTokenAddress()).balanceOf(stakingAddress));\r\n    //         MorpherToken(state.morpherTokenAddress()).mint(stakingAddress, _delta);\r\n    //         emit StakingRewardsMinted(lastReward, _delta);\r\n    //     }\r\n    // }\r\n\r\n// ----------------------------------------------------------------------------\r\n// stake(uint256 _amount)\r\n// User specifies an amount they intend to stake. Pool Shares are issued accordingly\r\n// and the _amount is transferred to the staking contract\r\n// ----------------------------------------------------------------------------\r\n\r\n    function stake(uint256 _amount) public userNotBlocked returns (uint256 _poolShares) {\r\n        require(MorpherToken(state.morpherTokenAddress()).balanceOf(msg.sender) >= _amount, \"MorpherStaking: insufficient MPH token balance\");\r\n        updatePoolShareValue();\r\n        _poolShares = _amount / (poolShareValue);\r\n        uint _numOfShares = poolShares[msg.sender].numPoolShares;\r\n        require(minimumStake <= _numOfShares + _poolShares * poolShareValue, \"MorpherStaking: stake amount lower than minimum stake\");\r\n        MorpherToken(state.morpherTokenAddress()).burn(msg.sender, _poolShares * (poolShareValue));\r\n        totalShares = totalShares + (_poolShares);\r\n        poolShares[msg.sender].numPoolShares = _numOfShares + _poolShares;\r\n        poolShares[msg.sender].lockedUntil = block.timestamp + lockupPeriod;\r\n        emit Staked(msg.sender, _amount, _poolShares, block.timestamp + (lockupPeriod));\r\n        return _poolShares;\r\n    }\r\n\r\n// ----------------------------------------------------------------------------\r\n// unstake(uint256 _amount)\r\n// User specifies number of Pool Shares they want to unstake. \r\n// Pool Shares get deleted and the user receives their MPH plus interest\r\n// ----------------------------------------------------------------------------\r\n\r\n    function unstake(uint256 _numOfShares) public userNotBlocked returns (uint256 _amount) {\r\n        uint256 _numOfExistingShares = poolShares[msg.sender].numPoolShares;\r\n        require(_numOfShares <= _numOfExistingShares, \"MorpherStaking: insufficient pool shares\");\r\n\r\n        uint256 lockedInUntil = poolShares[msg.sender].lockedUntil;\r\n        require(block.timestamp >= lockedInUntil, \"MorpherStaking: cannot unstake before lockup expiration\");\r\n        updatePoolShareValue();\r\n        poolShares[msg.sender].numPoolShares = poolShares[msg.sender].numPoolShares - _numOfShares;\r\n        totalShares = totalShares - _numOfShares;\r\n        _amount = _numOfShares * poolShareValue;\r\n        MorpherToken(state.morpherTokenAddress()).mint(msg.sender, _amount);\r\n        emit Unstaked(msg.sender, _amount, _numOfShares);\r\n        return _amount;\r\n    }\r\n\r\n// ----------------------------------------------------------------------------\r\n// Administrative functions\r\n// ----------------------------------------------------------------------------\r\n\r\n    function setMorpherStateAddress(address _stateAddress) public onlyRole(ADMINISTRATOR_ROLE) {\r\n        state = MorpherState(_stateAddress);\r\n        emit LinkState(_stateAddress);\r\n    }\r\n\r\n    /**\r\n    Interest rate\r\n     */\r\n    function setInterestRate(uint256 _interestRate) public onlyRole(STAKINGADMIN_ROLE) {\r\n        addInterestRate(_interestRate, block.timestamp);\r\n    }\r\n\r\n/**\r\n    fallback function in case the old tradeengine asks for the current interest rate\r\n */\r\n    function interestRate() public view returns (uint256) {\r\n        //start with the last one, as its most likely the last active one, no need to run through the whole map\r\n        if(numInterestRates == 0) {\r\n            return 0;\r\n        }\r\n        for(uint256 i = numInterestRates - 1; i >= 0; i--) {\r\n            if(interestRates[i].validFrom <= block.timestamp) {\r\n                return interestRates[i].rate;\r\n            }\r\n        }\r\n        return 0;\r\n    }\r\n\r\n    function addInterestRate(uint _rate, uint _validFrom) public onlyRole(STAKINGADMIN_ROLE) {\r\n        require(numInterestRates == 0 || interestRates[numInterestRates-1].validFrom < _validFrom, \"MorpherStaking: Interest Rate Valid From must be later than last interestRate\");\r\n        //omitting rate sanity checks here. It should always be smaller than 100% (100000000) but I'll leave that to the common sense of the admin.\r\n        updatePoolShareValue();\r\n        interestRates[numInterestRates].validFrom = _validFrom;\r\n        interestRates[numInterestRates].rate = _rate;\r\n        numInterestRates++;\r\n        emit InterestRateAdded(_rate, _validFrom);\r\n    }\r\n\r\n    function changeInterestRateValue(uint256 _numInterestRate, uint256 _rate) public onlyRole(STAKINGADMIN_ROLE) {\r\n        emit InterestRateRateChanged(_numInterestRate, interestRates[_numInterestRate].rate, _rate);\r\n        updatePoolShareValue();\r\n        interestRates[_numInterestRate].rate = _rate;\r\n    }\r\n    function changeInterestRateValidFrom(uint256 _numInterestRate, uint256 _validFrom) public onlyRole(STAKINGADMIN_ROLE) {\r\n        emit InterestRateValidFromChanged(_numInterestRate, interestRates[_numInterestRate].validFrom, _validFrom);\r\n        require(numInterestRates > _numInterestRate, \"MorpherStaking: Interest Rate Does not exist!\");\r\n        require(\r\n            (_numInterestRate == 0 && numInterestRates-1 > 0 && interestRates[_numInterestRate+1].validFrom > _validFrom) || //we change the first one and there exist more than one\r\n            (_numInterestRate > 0 && _numInterestRate == numInterestRates-1 && interestRates[_numInterestRate - 1].validFrom < _validFrom) || //we changed the last one\r\n            (_numInterestRate > 0 && _numInterestRate < numInterestRates-1 && interestRates[_numInterestRate - 1].validFrom < _validFrom && interestRates[_numInterestRate + 1].validFrom > _validFrom),\r\n            \"MorpherStaking: validFrom cannot be smaller than previous Interest Rate or larger than next Interest Rate\"\r\n            );\r\n        updatePoolShareValue();\r\n        interestRates[_numInterestRate].validFrom = _validFrom;\r\n    }\r\n\r\n     function getInterestRate(uint256 _positionTimestamp) public view returns(uint256) {\r\n        uint256 sumInterestRatesWeighted = 0;\r\n        uint256 startingTimestamp = 0;\r\n        \r\n        for(uint256 i = 0; i < numInterestRates; i++) {\r\n            if(i == numInterestRates-1 || interestRates[i+1].validFrom > block.timestamp) {\r\n                //reached last interest rate\r\n                sumInterestRatesWeighted = sumInterestRatesWeighted + (interestRates[i].rate * (block.timestamp - interestRates[i].validFrom));\r\n                if(startingTimestamp == 0) {\r\n                    startingTimestamp = interestRates[i].validFrom;\r\n                }\r\n                break; //in case there are more in the future\r\n            } else {\r\n                //only take interest rates after the position was created\r\n                if(interestRates[i+1].validFrom > _positionTimestamp) {\r\n                    sumInterestRatesWeighted = sumInterestRatesWeighted + (interestRates[i].rate * (interestRates[i+1].validFrom - interestRates[i].validFrom));\r\n                    if(interestRates[i].validFrom <= _positionTimestamp) {\r\n                        startingTimestamp = interestRates[i].validFrom;\r\n                    }\r\n                }\r\n            } \r\n        }\r\n        uint interestRateInternal = sumInterestRatesWeighted / (block.timestamp - startingTimestamp);\r\n        return interestRateInternal;\r\n\r\n    }\r\n\r\n    function setLockupPeriodRate(uint256 _lockupPeriod) public onlyRole(STAKINGADMIN_ROLE) {\r\n        lockupPeriod = _lockupPeriod;\r\n        emit SetLockupPeriod(_lockupPeriod);\r\n    }\r\n    \r\n    function setMinimumStake(uint256 _minimumStake) public onlyRole(STAKINGADMIN_ROLE) {\r\n        minimumStake = _minimumStake;\r\n        emit SetMinimumStake(_minimumStake);\r\n    }\r\n\r\n// ----------------------------------------------------------------------------\r\n// Getter functions\r\n// ----------------------------------------------------------------------------\r\n\r\n    function getTotalPooledValue() public view returns (uint256 _totalPooled) {\r\n        // Only accurate if poolShareValue is up to date\r\n        return poolShareValue * (totalShares);\r\n    }\r\n\r\n    function getStake(address _address) public view returns (uint256 _poolShares) {\r\n        return poolShares[_address].numPoolShares;\r\n    }\r\n\r\n    function getStakeValue(address _address) public view returns(uint256 _value, uint256 _lastUpdate) {\r\n        // Only accurate if poolShareValue is up to date\r\n        return (getStake(_address) * (poolShareValue), lastReward);\r\n    }\r\n}\r\n",
  "sourcePath": "/home/thomas/MorpherProtocol/contracts/MorpherStaking.sol",
  "compiler": {
    "name": "solc",
    "version": "0.8.11+commit.d7f03943.Emscripten.clang"
  },
  "schemaVersion": "3.4.7",
  "updatedAt": "2022-06-10T08:48:42.285Z",
  "devdoc": {
    "kind": "dev",
    "methods": {},
    "version": 1
  },
  "userdoc": {
    "kind": "user",
    "methods": {
      "interestRate()": {
        "notice": "fallback function in case the old tradeengine asks for the current interest rate"
      },
      "setInterestRate(uint256)": {
        "notice": "Interest rate"
      }
    },
    "version": 1
  }
}