{
  "contractName": "MorpherAdministratorProxy",
  "abi": [
    {
      "inputs": [
        {
          "internalType": "address",
          "name": "_morpherAdministrator",
          "type": "address"
        },
        {
          "internalType": "address",
          "name": "_morpherStateAddress",
          "type": "address"
        }
      ],
      "stateMutability": "nonpayable",
      "type": "constructor"
    },
    {
      "anonymous": false,
      "inputs": [
        {
          "indexed": true,
          "internalType": "address",
          "name": "previousOwner",
          "type": "address"
        },
        {
          "indexed": true,
          "internalType": "address",
          "name": "newOwner",
          "type": "address"
        }
      ],
      "name": "OwnershipTransferred",
      "type": "event"
    },
    {
      "stateMutability": "payable",
      "type": "fallback"
    },
    {
      "inputs": [],
      "name": "morpherStateAddress",
      "outputs": [
        {
          "internalType": "address",
          "name": "",
          "type": "address"
        }
      ],
      "stateMutability": "view",
      "type": "function"
    },
    {
      "inputs": [],
      "name": "owner",
      "outputs": [
        {
          "internalType": "address",
          "name": "",
          "type": "address"
        }
      ],
      "stateMutability": "view",
      "type": "function"
    },
    {
      "inputs": [],
      "name": "renounceOwnership",
      "outputs": [],
      "stateMutability": "nonpayable",
      "type": "function"
    },
    {
      "inputs": [
        {
          "internalType": "address",
          "name": "newOwner",
          "type": "address"
        }
      ],
      "name": "transferOwnership",
      "outputs": [],
      "stateMutability": "nonpayable",
      "type": "function"
    },
    {
      "stateMutability": "payable",
      "type": "receive"
    },
    {
      "inputs": [
        {
          "internalType": "bytes32[]",
          "name": "_marketHashes",
          "type": "bytes32[]"
        }
      ],
      "name": "bulkActivateMarkets",
      "outputs": [],
      "stateMutability": "nonpayable",
      "type": "function"
    }
  ],
  "bytecode": "0x608060405234801561000f575f80fd5b5060405161084d38038061084d83398101604081905261002e916101a9565b61003733610066565b610040826100b5565b600180546001600160a01b0319166001600160a01b0392909216919091179055506101da565b5f80546001600160a01b038381166001600160a01b0319831681178455604051919092169283917f8be0079c531659141344cd1fd0a4f28419497f9722a3daafe3b4186f6b6457e09190a35050565b6100bd610133565b6001600160a01b0381166101275760405162461bcd60e51b815260206004820152602660248201527f4f776e61626c653a206e6577206f776e657220697320746865207a65726f206160448201526564647265737360d01b60648201526084015b60405180910390fd5b61013081610066565b50565b5f546001600160a01b0316331461018c5760405162461bcd60e51b815260206004820181905260248201527f4f776e61626c653a2063616c6c6572206973206e6f7420746865206f776e6572604482015260640161011e565b565b80516001600160a01b03811681146101a4575f80fd5b919050565b5f80604083850312156101ba575f80fd5b6101c38361018e565b91506101d16020840161018e565b90509250929050565b610666806101e75f395ff3fe60806040526004361061004d575f3560e01c8063715018a61461019a5780638da5cb5b146101ae57806391e0d7c2146101e2578063a91c23e114610201578063f2fde38b14610220576100c5565b366100c55761005a61023f565b60405162461bcd60e51b815260206004820152603560248201527f4d6f727068657241646d696e6973747261746f7250726f78793a204e6f20455460448201527412081d1c985b9cd9995c9cc81cdd5c1c1bdc9d1959605a1b60648201526084015b60405180910390fd5b6100cd61023f565b6001546040515f916001600160a01b03169034906100ee90849036906104c3565b5f6040518083038185875af1925050503d805f8114610128576040519150601f19603f3d011682016040523d82523d5f602084013e61012d565b606091505b50509050806101985760405162461bcd60e51b815260206004820152603160248201527f4d6f727068657241646d696e6973747261746f7250726f78793a204661696c6560448201527019081d1bc8199bdc9dd85c990818d85b1b607a1b60648201526084016100bc565b005b3480156101a5575f80fd5b5061019861029a565b3480156101b9575f80fd5b505f546001600160a01b03165b6040516001600160a01b03909116815260200160405180910390f35b3480156101ed575f80fd5b506001546101c6906001600160a01b031681565b34801561020c575f80fd5b5061019861021b3660046104e6565b6102ab565b34801561022b575f80fd5b5061019861023a36600461059f565b6103fb565b5f546001600160a01b031633146102985760405162461bcd60e51b815260206004820181905260248201527f4f776e61626c653a2063616c6c6572206973206e6f7420746865206f776e657260448201526064016100bc565b565b6102a261023f565b6102985f610474565b6102b361023f565b5f5b81518110156103f7575f8282815181106102d1576102d16105cc565b60200260200101516040516024016102eb91815260200190565b60408051601f198184030181529181526020820180516001600160e01b031663564c0d8f60e11b17905260015490519192505f916001600160a01b03909116906103369084906105e0565b5f604051808303815f865af19150503d805f811461036f576040519150601f19603f3d011682016040523d82523d5f602084013e610374565b606091505b50509050806103e25760405162461bcd60e51b815260206004820152603460248201527f4d6f727068657241646d696e6973747261746f7250726f78793a204661696c6560448201527319081d1bc81858dd1a5d985d194813585c9ad95d60621b60648201526084016100bc565b505080806103ef9061060c565b9150506102b5565b5050565b61040361023f565b6001600160a01b0381166104685760405162461bcd60e51b815260206004820152602660248201527f4f776e61626c653a206e6577206f776e657220697320746865207a65726f206160448201526564647265737360d01b60648201526084016100bc565b61047181610474565b50565b5f80546001600160a01b038381166001600160a01b0319831681178455604051919092169283917f8be0079c531659141344cd1fd0a4f28419497f9722a3daafe3b4186f6b6457e09190a35050565b818382375f9101908152919050565b634e487b7160e01b5f52604160045260245ffd5b5f60208083850312156104f7575f80fd5b823567ffffffffffffffff8082111561050e575f80fd5b818501915085601f830112610521575f80fd5b813581811115610533576105336104d2565b8060051b604051601f19603f83011681018181108582111715610558576105586104d2565b604052918252848201925083810185019188831115610575575f80fd5b938501935b828510156105935784358452938501939285019261057a565b98975050505050505050565b5f602082840312156105af575f80fd5b81356001600160a01b03811681146105c5575f80fd5b9392505050565b634e487b7160e01b5f52603260045260245ffd5b5f82515f5b818110156105ff57602081860181015185830152016105e5565b505f920191825250919050565b5f6001820161062957634e487b7160e01b5f52601160045260245ffd5b506001019056fea26469706673582212208e7d31273e64843859eace5533e24a942fe89700b6b4611bdf0294e44e2e0c4664736f6c63430008140033",
  "immutableReferences": {},
  "source": "//SPDX-License-Identifier: GPLv3\r\npragma solidity ^0.8.11;\r\n\r\nimport \"@openzeppelin/contracts/access/Ownable.sol\";\r\n\r\ncontract MorpherAdministratorProxy is Ownable {\r\n\r\n    address public morpherStateAddress;\r\n\r\n    constructor(address _morpherAdministrator, address _morpherStateAddress) {\r\n        transferOwnership(_morpherAdministrator);\r\n        morpherStateAddress = _morpherStateAddress;\r\n    }\r\n\r\n    function bulkActivateMarkets(bytes32[] memory _marketHashes) public onlyOwner {\r\n        for(uint i = 0; i < _marketHashes.length; i++) {\r\n            bytes memory payload = abi.encodeWithSignature(\"activateMarket(bytes32)\", _marketHashes[i]);\r\n            (bool success, ) = morpherStateAddress.call(payload);\r\n            require(success,  \"MorpherAdministratorProxy: Failed to activate Market\");\r\n        }\r\n    }\r\n\r\n    fallback() external payable onlyOwner {\r\n        (bool success, ) = morpherStateAddress.call{value: msg.value}(msg.data);\r\n        require(success, \"MorpherAdministratorProxy: Failed to forward call\");\r\n    }\r\n    receive() external payable onlyOwner {\r\n        revert(\"MorpherAdministratorProxy: No ETH transfers supported\");\r\n    }\r\n}",
  "sourcePath": "/Users/thomas/Projects/Morpher/MorpherProtocol/contracts/MorpherAdministratorProxy.sol",
  "compiler": {
    "name": "solc",
    "version": "0.8.20+commit.a1b79de6.Emscripten.clang"
  },
  "schemaVersion": "3.4.16",
  "updatedAt": "2024-01-16T11:09:31.176Z",
  "devdoc": {
    "kind": "dev",
    "methods": {
      "owner()": {
        "details": "Returns the address of the current owner."
      },
      "renounceOwnership()": {
        "details": "Leaves the contract without owner. It will not be possible to call `onlyOwner` functions. Can only be called by the current owner. NOTE: Renouncing ownership will leave the contract without an owner, thereby disabling any functionality that is only available to the owner."
      },
      "transferOwnership(address)": {
        "details": "Transfers ownership of the contract to a new account (`newOwner`). Can only be called by the current owner."
      }
    },
    "version": 1
  },
  "userdoc": {
    "kind": "user",
    "methods": {},
    "version": 1
  }
}