{
  "contractName": "MorpherOracle",
  "abi": [
    {
      "anonymous": false,
      "inputs": [
        {
          "indexed": false,
          "internalType": "address",
          "name": "_address",
          "type": "address"
        }
      ],
      "name": "AddressBlackListed",
      "type": "event"
    },
    {
      "anonymous": false,
      "inputs": [
        {
          "indexed": false,
          "internalType": "address",
          "name": "_address",
          "type": "address"
        }
      ],
      "name": "AddressWhiteListed",
      "type": "event"
    },
    {
      "anonymous": false,
      "inputs": [
        {
          "indexed": true,
          "internalType": "bytes32",
          "name": "_orderId",
          "type": "bytes32"
        },
        {
          "indexed": true,
          "internalType": "address",
          "name": "_address",
          "type": "address"
        },
        {
          "indexed": true,
          "internalType": "bytes32",
          "name": "_marketId",
          "type": "bytes32"
        },
        {
          "indexed": false,
          "internalType": "uint256",
          "name": "_closeSharesAmount",
          "type": "uint256"
        },
        {
          "indexed": false,
          "internalType": "uint256",
          "name": "_openMPHTokenAmount",
          "type": "uint256"
        },
        {
          "indexed": false,
          "internalType": "bool",
          "name": "_tradeDirection",
          "type": "bool"
        },
        {
          "indexed": false,
          "internalType": "uint256",
          "name": "_orderLeverage",
          "type": "uint256"
        }
      ],
      "name": "AdminLiquidationOrderCreated",
      "type": "event"
    },
    {
      "anonymous": false,
      "inputs": [
        {
          "indexed": true,
          "internalType": "bytes32",
          "name": "_orderId",
          "type": "bytes32"
        },
        {
          "indexed": true,
          "internalType": "address",
          "name": "_sender",
          "type": "address"
        },
        {
          "indexed": true,
          "internalType": "address",
          "name": "_oracleAddress",
          "type": "address"
        }
      ],
      "name": "AdminOrderCancelled",
      "type": "event"
    },
    {
      "anonymous": false,
      "inputs": [
        {
          "indexed": false,
          "internalType": "address",
          "name": "_address",
          "type": "address"
        }
      ],
      "name": "CallBackCollectionAddressChange",
      "type": "event"
    },
    {
      "anonymous": false,
      "inputs": [
        {
          "indexed": true,
          "internalType": "address",
          "name": "_address",
          "type": "address"
        }
      ],
      "name": "CallbackAddressDisabled",
      "type": "event"
    },
    {
      "anonymous": false,
      "inputs": [
        {
          "indexed": true,
          "internalType": "address",
          "name": "_address",
          "type": "address"
        }
      ],
      "name": "CallbackAddressEnabled",
      "type": "event"
    },
    {
      "anonymous": false,
      "inputs": [
        {
          "indexed": false,
          "internalType": "bytes32",
          "name": "_marketId",
          "type": "bytes32"
        }
      ],
      "name": "DelistMarketComplete",
      "type": "event"
    },
    {
      "anonymous": false,
      "inputs": [
        {
          "indexed": false,
          "internalType": "bytes32",
          "name": "_marketId",
          "type": "bytes32"
        },
        {
          "indexed": false,
          "internalType": "uint256",
          "name": "_processedUntilIndex",
          "type": "uint256"
        }
      ],
      "name": "DelistMarketIncomplete",
      "type": "event"
    },
    {
      "anonymous": false,
      "inputs": [
        {
          "indexed": false,
          "internalType": "uint8",
          "name": "version",
          "type": "uint8"
        }
      ],
      "name": "Initialized",
      "type": "event"
    },
    {
      "anonymous": false,
      "inputs": [
        {
          "indexed": false,
          "internalType": "address",
          "name": "_address",
          "type": "address"
        }
      ],
      "name": "LinkMorpherState",
      "type": "event"
    },
    {
      "anonymous": false,
      "inputs": [
        {
          "indexed": false,
          "internalType": "address",
          "name": "_address",
          "type": "address"
        }
      ],
      "name": "LinkTradeEngine",
      "type": "event"
    },
    {
      "anonymous": false,
      "inputs": [
        {
          "indexed": true,
          "internalType": "bytes32",
          "name": "_orderId",
          "type": "bytes32"
        },
        {
          "indexed": false,
          "internalType": "address",
          "name": "_sender",
          "type": "address"
        },
        {
          "indexed": true,
          "internalType": "address",
          "name": "_address",
          "type": "address"
        },
        {
          "indexed": true,
          "internalType": "bytes32",
          "name": "_marketId",
          "type": "bytes32"
        }
      ],
      "name": "LiquidationOrderCreated",
      "type": "event"
    },
    {
      "anonymous": false,
      "inputs": [
        {
          "indexed": false,
          "internalType": "bytes32",
          "name": "_marketId",
          "type": "bytes32"
        },
        {
          "indexed": false,
          "internalType": "uint256",
          "name": "_price",
          "type": "uint256"
        }
      ],
      "name": "LockedPriceForClosingPositions",
      "type": "event"
    },
    {
      "anonymous": false,
      "inputs": [
        {
          "indexed": false,
          "internalType": "bool",
          "name": "_paused",
          "type": "bool"
        }
      ],
      "name": "OraclePaused",
      "type": "event"
    },
    {
      "anonymous": false,
      "inputs": [
        {
          "indexed": true,
          "internalType": "bytes32",
          "name": "_orderId",
          "type": "bytes32"
        },
        {
          "indexed": true,
          "internalType": "address",
          "name": "_sender",
          "type": "address"
        }
      ],
      "name": "OrderCancellationRequestedEvent",
      "type": "event"
    },
    {
      "anonymous": false,
      "inputs": [
        {
          "indexed": true,
          "internalType": "bytes32",
          "name": "_orderId",
          "type": "bytes32"
        },
        {
          "indexed": true,
          "internalType": "address",
          "name": "_sender",
          "type": "address"
        },
        {
          "indexed": true,
          "internalType": "address",
          "name": "_oracleAddress",
          "type": "address"
        }
      ],
      "name": "OrderCancelled",
      "type": "event"
    },
    {
      "anonymous": false,
      "inputs": [
        {
          "indexed": true,
          "internalType": "bytes32",
          "name": "_orderId",
          "type": "bytes32"
        },
        {
          "indexed": true,
          "internalType": "address",
          "name": "_address",
          "type": "address"
        },
        {
          "indexed": true,
          "internalType": "bytes32",
          "name": "_marketId",
          "type": "bytes32"
        },
        {
          "indexed": false,
          "internalType": "uint256",
          "name": "_closeSharesAmount",
          "type": "uint256"
        },
        {
          "indexed": false,
          "internalType": "uint256",
          "name": "_openMPHTokenAmount",
          "type": "uint256"
        },
        {
          "indexed": false,
          "internalType": "bool",
          "name": "_tradeDirection",
          "type": "bool"
        },
        {
          "indexed": false,
          "internalType": "uint256",
          "name": "_orderLeverage",
          "type": "uint256"
        },
        {
          "indexed": false,
          "internalType": "uint256",
          "name": "_onlyIfPriceBelow",
          "type": "uint256"
        },
        {
          "indexed": false,
          "internalType": "uint256",
          "name": "_onlyIfPriceAbove",
          "type": "uint256"
        },
        {
          "indexed": false,
          "internalType": "uint256",
          "name": "_goodFrom",
          "type": "uint256"
        },
        {
          "indexed": false,
          "internalType": "uint256",
          "name": "_goodUntil",
          "type": "uint256"
        }
      ],
      "name": "OrderCreated",
      "type": "event"
    },
    {
      "anonymous": false,
      "inputs": [
        {
          "indexed": true,
          "internalType": "bytes32",
          "name": "_orderId",
          "type": "bytes32"
        },
        {
          "indexed": true,
          "internalType": "address",
          "name": "_address",
          "type": "address"
        },
        {
          "indexed": true,
          "internalType": "bytes32",
          "name": "_marketId",
          "type": "bytes32"
        },
        {
          "indexed": false,
          "internalType": "uint256",
          "name": "_closeSharesAmount",
          "type": "uint256"
        },
        {
          "indexed": false,
          "internalType": "uint256",
          "name": "_openMPHTokenAmount",
          "type": "uint256"
        },
        {
          "indexed": false,
          "internalType": "bool",
          "name": "_tradeDirection",
          "type": "bool"
        },
        {
          "indexed": false,
          "internalType": "uint256",
          "name": "_orderLeverage",
          "type": "uint256"
        },
        {
          "indexed": false,
          "internalType": "uint256",
          "name": "_onlyIfPriceBelow",
          "type": "uint256"
        },
        {
          "indexed": false,
          "internalType": "uint256",
          "name": "_onlyIfPriceAbove",
          "type": "uint256"
        },
        {
          "indexed": false,
          "internalType": "uint256",
          "name": "_goodFrom",
          "type": "uint256"
        },
        {
          "indexed": false,
          "internalType": "uint256",
          "name": "_goodUntil",
          "type": "uint256"
        }
      ],
      "name": "OrderFailed",
      "type": "event"
    },
    {
      "anonymous": false,
      "inputs": [
        {
          "indexed": true,
          "internalType": "bytes32",
          "name": "_orderId",
          "type": "bytes32"
        },
        {
          "indexed": false,
          "internalType": "uint256",
          "name": "_price",
          "type": "uint256"
        },
        {
          "indexed": false,
          "internalType": "uint256",
          "name": "_unadjustedMarketPrice",
          "type": "uint256"
        },
        {
          "indexed": false,
          "internalType": "uint256",
          "name": "_spread",
          "type": "uint256"
        },
        {
          "indexed": false,
          "internalType": "uint256",
          "name": "_positionLiquidationTimestamp",
          "type": "uint256"
        },
        {
          "indexed": false,
          "internalType": "uint256",
          "name": "_timeStamp",
          "type": "uint256"
        },
        {
          "indexed": false,
          "internalType": "uint256",
          "name": "_newLongShares",
          "type": "uint256"
        },
        {
          "indexed": false,
          "internalType": "uint256",
          "name": "_newShortShares",
          "type": "uint256"
        },
        {
          "indexed": false,
          "internalType": "uint256",
          "name": "_newMeanEntry",
          "type": "uint256"
        },
        {
          "indexed": false,
          "internalType": "uint256",
          "name": "_newMeanSprad",
          "type": "uint256"
        },
        {
          "indexed": false,
          "internalType": "uint256",
          "name": "_newMeanLeverage",
          "type": "uint256"
        },
        {
          "indexed": false,
          "internalType": "uint256",
          "name": "_liquidationPrice",
          "type": "uint256"
        }
      ],
      "name": "OrderProcessed",
      "type": "event"
    },
    {
      "anonymous": false,
      "inputs": [
        {
          "indexed": false,
          "internalType": "address",
          "name": "account",
          "type": "address"
        }
      ],
      "name": "Paused",
      "type": "event"
    },
    {
      "anonymous": false,
      "inputs": [
        {
          "indexed": false,
          "internalType": "uint256",
          "name": "_gasForCallback",
          "type": "uint256"
        }
      ],
      "name": "SetGasForCallback",
      "type": "event"
    },
    {
      "anonymous": false,
      "inputs": [
        {
          "indexed": false,
          "internalType": "bool",
          "name": "_useWhiteList",
          "type": "bool"
        }
      ],
      "name": "SetUseWhiteList",
      "type": "event"
    },
    {
      "anonymous": false,
      "inputs": [
        {
          "indexed": false,
          "internalType": "address",
          "name": "account",
          "type": "address"
        }
      ],
      "name": "Unpaused",
      "type": "event"
    },
    {
      "inputs": [],
      "name": "ADMINISTRATOR_ROLE",
      "outputs": [
        {
          "internalType": "bytes32",
          "name": "",
          "type": "bytes32"
        }
      ],
      "stateMutability": "view",
      "type": "function"
    },
    {
      "inputs": [],
      "name": "ORACLEOPERATOR_ROLE",
      "outputs": [
        {
          "internalType": "bytes32",
          "name": "",
          "type": "bytes32"
        }
      ],
      "stateMutability": "view",
      "type": "function"
    },
    {
      "inputs": [],
      "name": "PAUSER_ROLE",
      "outputs": [
        {
          "internalType": "bytes32",
          "name": "",
          "type": "bytes32"
        }
      ],
      "stateMutability": "view",
      "type": "function"
    },
    {
      "inputs": [
        {
          "internalType": "address",
          "name": "",
          "type": "address"
        }
      ],
      "name": "callBackAddress",
      "outputs": [
        {
          "internalType": "bool",
          "name": "",
          "type": "bool"
        }
      ],
      "stateMutability": "view",
      "type": "function"
    },
    {
      "inputs": [],
      "name": "callBackCollectionAddress",
      "outputs": [
        {
          "internalType": "address payable",
          "name": "",
          "type": "address"
        }
      ],
      "stateMutability": "view",
      "type": "function"
    },
    {
      "inputs": [],
      "name": "gasForCallback",
      "outputs": [
        {
          "internalType": "uint256",
          "name": "",
          "type": "uint256"
        }
      ],
      "stateMutability": "view",
      "type": "function"
    },
    {
      "inputs": [
        {
          "internalType": "bytes32",
          "name": "",
          "type": "bytes32"
        }
      ],
      "name": "goodFrom",
      "outputs": [
        {
          "internalType": "uint256",
          "name": "",
          "type": "uint256"
        }
      ],
      "stateMutability": "view",
      "type": "function"
    },
    {
      "inputs": [
        {
          "internalType": "bytes32",
          "name": "",
          "type": "bytes32"
        }
      ],
      "name": "goodUntil",
      "outputs": [
        {
          "internalType": "uint256",
          "name": "",
          "type": "uint256"
        }
      ],
      "stateMutability": "view",
      "type": "function"
    },
    {
      "inputs": [
        {
          "internalType": "bytes32",
          "name": "",
          "type": "bytes32"
        }
      ],
      "name": "orderCancellationRequested",
      "outputs": [
        {
          "internalType": "bool",
          "name": "",
          "type": "bool"
        }
      ],
      "stateMutability": "view",
      "type": "function"
    },
    {
      "inputs": [],
      "name": "paused",
      "outputs": [
        {
          "internalType": "bool",
          "name": "",
          "type": "bool"
        }
      ],
      "stateMutability": "view",
      "type": "function"
    },
    {
      "inputs": [
        {
          "internalType": "bytes32",
          "name": "",
          "type": "bytes32"
        }
      ],
      "name": "priceAbove",
      "outputs": [
        {
          "internalType": "uint256",
          "name": "",
          "type": "uint256"
        }
      ],
      "stateMutability": "view",
      "type": "function"
    },
    {
      "inputs": [
        {
          "internalType": "bytes32",
          "name": "",
          "type": "bytes32"
        }
      ],
      "name": "priceBelow",
      "outputs": [
        {
          "internalType": "uint256",
          "name": "",
          "type": "uint256"
        }
      ],
      "stateMutability": "view",
      "type": "function"
    },
    {
      "inputs": [],
      "name": "useWhiteList",
      "outputs": [
        {
          "internalType": "bool",
          "name": "",
          "type": "bool"
        }
      ],
      "stateMutability": "view",
      "type": "function"
    },
    {
      "inputs": [
        {
          "internalType": "address",
          "name": "",
          "type": "address"
        }
      ],
      "name": "whiteList",
      "outputs": [
        {
          "internalType": "bool",
          "name": "",
          "type": "bool"
        }
      ],
      "stateMutability": "view",
      "type": "function"
    },
    {
      "inputs": [
        {
          "internalType": "address",
          "name": "_morpherState",
          "type": "address"
        },
        {
          "internalType": "address payable",
          "name": "_gasCollectionAddress",
          "type": "address"
        },
        {
          "internalType": "uint256",
          "name": "_gasForCallback",
          "type": "uint256"
        }
      ],
      "name": "initialize",
      "outputs": [],
      "stateMutability": "nonpayable",
      "type": "function"
    },
    {
      "inputs": [
        {
          "internalType": "address",
          "name": "_address",
          "type": "address"
        }
      ],
      "name": "setStateAddress",
      "outputs": [],
      "stateMutability": "nonpayable",
      "type": "function"
    },
    {
      "inputs": [
        {
          "internalType": "uint256",
          "name": "_gasForCallback",
          "type": "uint256"
        }
      ],
      "name": "overrideGasForCallback",
      "outputs": [],
      "stateMutability": "nonpayable",
      "type": "function"
    },
    {
      "inputs": [
        {
          "internalType": "address payable",
          "name": "_address",
          "type": "address"
        }
      ],
      "name": "setCallbackCollectionAddress",
      "outputs": [],
      "stateMutability": "nonpayable",
      "type": "function"
    },
    {
      "inputs": [
        {
          "internalType": "bytes32",
          "name": "_orderId",
          "type": "bytes32"
        },
        {
          "internalType": "address",
          "name": "_address",
          "type": "address"
        },
        {
          "internalType": "bytes32",
          "name": "_marketId",
          "type": "bytes32"
        },
        {
          "internalType": "uint256",
          "name": "_closeSharesAmount",
          "type": "uint256"
        },
        {
          "internalType": "uint256",
          "name": "_openMPHTokenAmount",
          "type": "uint256"
        },
        {
          "internalType": "bool",
          "name": "_tradeDirection",
          "type": "bool"
        },
        {
          "internalType": "uint256",
          "name": "_orderLeverage",
          "type": "uint256"
        },
        {
          "internalType": "uint256",
          "name": "_onlyIfPriceBelow",
          "type": "uint256"
        },
        {
          "internalType": "uint256",
          "name": "_onlyIfPriceAbove",
          "type": "uint256"
        },
        {
          "internalType": "uint256",
          "name": "_goodFrom",
          "type": "uint256"
        },
        {
          "internalType": "uint256",
          "name": "_goodUntil",
          "type": "uint256"
        }
      ],
      "name": "emitOrderFailed",
      "outputs": [],
      "stateMutability": "nonpayable",
      "type": "function"
    },
    {
      "inputs": [
        {
          "internalType": "bytes32",
          "name": "_marketId",
          "type": "bytes32"
        },
        {
          "internalType": "uint256",
          "name": "_closeSharesAmount",
          "type": "uint256"
        },
        {
          "internalType": "uint256",
          "name": "_openMPHTokenAmount",
          "type": "uint256"
        },
        {
          "internalType": "bool",
          "name": "_tradeDirection",
          "type": "bool"
        },
        {
          "internalType": "uint256",
          "name": "_orderLeverage",
          "type": "uint256"
        },
        {
          "internalType": "uint256",
          "name": "_onlyIfPriceAbove",
          "type": "uint256"
        },
        {
          "internalType": "uint256",
          "name": "_onlyIfPriceBelow",
          "type": "uint256"
        },
        {
          "internalType": "uint256",
          "name": "_goodUntil",
          "type": "uint256"
        },
        {
          "internalType": "uint256",
          "name": "_goodFrom",
          "type": "uint256"
        }
      ],
      "name": "createOrder",
      "outputs": [
        {
          "internalType": "bytes32",
          "name": "_orderId",
          "type": "bytes32"
        }
      ],
      "stateMutability": "payable",
      "type": "function"
    },
    {
      "inputs": [
        {
          "internalType": "bytes32",
          "name": "_orderId",
          "type": "bytes32"
        }
      ],
      "name": "initiateCancelOrder",
      "outputs": [],
      "stateMutability": "nonpayable",
      "type": "function"
    },
    {
      "inputs": [
        {
          "internalType": "bytes32",
          "name": "_orderId",
          "type": "bytes32"
        }
      ],
      "name": "cancelOrder",
      "outputs": [],
      "stateMutability": "nonpayable",
      "type": "function"
    },
    {
      "inputs": [
        {
          "internalType": "bytes32",
          "name": "_orderId",
          "type": "bytes32"
        }
      ],
      "name": "adminCancelOrder",
      "outputs": [],
      "stateMutability": "nonpayable",
      "type": "function"
    },
    {
      "inputs": [
        {
          "internalType": "bytes32",
          "name": "_orderId",
          "type": "bytes32"
        },
        {
          "internalType": "uint256",
          "name": "_price",
          "type": "uint256"
        }
      ],
      "name": "checkOrderConditions",
      "outputs": [
        {
          "internalType": "bool",
          "name": "_conditionsMet",
          "type": "bool"
        }
      ],
      "stateMutability": "view",
      "type": "function"
    },
    {
      "inputs": [],
      "name": "pause",
      "outputs": [],
      "stateMutability": "nonpayable",
      "type": "function"
    },
    {
      "inputs": [],
      "name": "unpause",
      "outputs": [],
      "stateMutability": "nonpayable",
      "type": "function"
    },
    {
      "inputs": [
        {
          "internalType": "address",
          "name": "_address",
          "type": "address"
        },
        {
          "internalType": "bytes32",
          "name": "_marketId",
          "type": "bytes32"
        }
      ],
      "name": "createLiquidationOrder",
      "outputs": [
        {
          "internalType": "bytes32",
          "name": "_orderId",
          "type": "bytes32"
        }
      ],
      "stateMutability": "payable",
      "type": "function"
    },
    {
      "inputs": [
        {
          "internalType": "bytes32",
          "name": "_orderId",
          "type": "bytes32"
        },
        {
          "internalType": "uint256",
          "name": "_price",
          "type": "uint256"
        },
        {
          "internalType": "uint256",
          "name": "_unadjustedMarketPrice",
          "type": "uint256"
        },
        {
          "internalType": "uint256",
          "name": "_spread",
          "type": "uint256"
        },
        {
          "internalType": "uint256",
          "name": "_liquidationTimestamp",
          "type": "uint256"
        },
        {
          "internalType": "uint256",
          "name": "_timeStamp",
          "type": "uint256"
        },
        {
          "internalType": "uint256",
          "name": "_gasForNextCallback",
          "type": "uint256"
        }
      ],
      "name": "__callback",
      "outputs": [
        {
          "components": [
            {
              "internalType": "uint256",
              "name": "lastUpdated",
              "type": "uint256"
            },
            {
              "internalType": "uint256",
              "name": "longShares",
              "type": "uint256"
            },
            {
              "internalType": "uint256",
              "name": "shortShares",
              "type": "uint256"
            },
            {
              "internalType": "uint256",
              "name": "meanEntryPrice",
              "type": "uint256"
            },
            {
              "internalType": "uint256",
              "name": "meanEntrySpread",
              "type": "uint256"
            },
            {
              "internalType": "uint256",
              "name": "meanEntryLeverage",
              "type": "uint256"
            },
            {
              "internalType": "uint256",
              "name": "liquidationPrice",
              "type": "uint256"
            },
            {
              "internalType": "bytes32",
              "name": "positionHash",
              "type": "bytes32"
            }
          ],
          "internalType": "struct MorpherTradeEngine.position",
          "name": "createdPosition",
          "type": "tuple"
        }
      ],
      "stateMutability": "nonpayable",
      "type": "function"
    },
    {
      "inputs": [
        {
          "internalType": "bytes32",
          "name": "_marketId",
          "type": "bytes32"
        },
        {
          "internalType": "bool",
          "name": "_startFromScratch",
          "type": "bool"
        }
      ],
      "name": "delistMarket",
      "outputs": [],
      "stateMutability": "nonpayable",
      "type": "function"
    },
    {
      "inputs": [
        {
          "internalType": "address",
          "name": "_address",
          "type": "address"
        },
        {
          "internalType": "bytes32",
          "name": "_marketId",
          "type": "bytes32"
        }
      ],
      "name": "adminLiquidationOrder",
      "outputs": [
        {
          "internalType": "bytes32",
          "name": "_orderId",
          "type": "bytes32"
        }
      ],
      "stateMutability": "nonpayable",
      "type": "function"
    },
    {
      "inputs": [
        {
          "internalType": "uint256",
          "name": "orderId",
          "type": "uint256"
        }
      ],
      "name": "getTradeEngineFromOrderId",
      "outputs": [
        {
          "internalType": "address",
          "name": "",
          "type": "address"
        }
      ],
      "stateMutability": "view",
      "type": "function"
    }
  ],
  "bytecode": "0x608060405234801561001057600080fd5b506137e5806100206000396000f3fe6080604052600436106101d85760003560e01c80637848d1df11610102578063aeb2cc3311610095578063d99f867411610064578063d99f8674146105f2578063e087e3ce14610613578063e63ab1e914610640578063f45edb5f1461067457600080fd5b8063aeb2cc331461054b578063b95e437b14610578578063c7f4532d14610598578063d204bc6c146105c557600080fd5b806385e75e72116100d157806385e75e72146104c857806388deab73146104e85780638adbe72f1461050857806399614d181461053857600080fd5b80637848d1df146103f25780637dd63e1d146104125780637e031af2146104935780638456cb59146104b357600080fd5b80633f4ba83a1161017a57806367aa1e0f1161014957806367aa1e0f146103625780636b0ed36e146103825780637489ec23146103b257806374d94024146103d257600080fd5b80633f4ba83a146102ea5780634c79fdf9146102ff57806350a5fdef146103375780635c975abb1461034a57600080fd5b80632ac21a48116101b65780632ac21a4814610248578063372c12b11461026a57806338bd3ad1146102aa5780633a196bab146102ca57600080fd5b806316afdfd3146101dd5780631794bb3c146102065780631c4c7fd814610228575b600080fd5b3480156101e957600080fd5b506101f360665481565b6040519081526020015b60405180910390f35b34801561021257600080fd5b5061022661022136600461318b565b610696565b005b34801561023457600080fd5b506102266102433660046131cc565b610743565b34801561025457600080fd5b506101f360008051602061379083398151915281565b34801561027657600080fd5b5061029a6102853660046131cc565b60696020526000908152604090205460ff1681565b60405190151581526020016101fd565b3480156102b657600080fd5b506102266102c53660046131f0565b6108b7565b3480156102d657600080fd5b506102266102e5366004613217565b610b89565b3480156102f657600080fd5b5061022661101b565b34801561030b57600080fd5b5061031f61031a3660046131f0565b61114d565b6040516001600160a01b0390911681526020016101fd565b6101f3610345366004613247565b6111c1565b34801561035657600080fd5b5060335460ff1661029a565b34801561036e57600080fd5b5060675461031f906001600160a01b031681565b34801561038e57600080fd5b5061029a61039d3660046131f0565b606e6020526000908152604090205460ff1681565b3480156103be57600080fd5b506102266103cd3660046131f0565b6114ad565b3480156103de57600080fd5b506102266103ed3660046131f0565b6117ff565b3480156103fe57600080fd5b506101f361040d366004613247565b611a3e565b34801561041e57600080fd5b5061043261042d366004613273565b611f18565b6040516101fd9190600061010082019050825182526020830151602083015260408301516040830152606083015160608301526080830151608083015260a083015160a083015260c083015160c083015260e083015160e083015292915050565b34801561049f57600080fd5b5061029a6104ae3660046132bf565b6122b7565b3480156104bf57600080fd5b506102266123f2565b3480156104d457600080fd5b506102266104e33660046131f0565b612521565b3480156104f457600080fd5b506102266105033660046131cc565b61266b565b34801561051457600080fd5b5061029a6105233660046131cc565b60686020526000908152604090205460ff1681565b6101f36105463660046132e1565b6127ce565b34801561055757600080fd5b506101f36105663660046131f0565b606b6020526000908152604090205481565b34801561058457600080fd5b50610226610593366004613350565b612da5565b3480156105a457600080fd5b506101f36105b33660046131f0565b606d6020526000908152604090205481565b3480156105d157600080fd5b506101f36105e03660046131f0565b606a6020526000908152604090205481565b3480156105fe57600080fd5b5060655461029a90600160a01b900460ff1681565b34801561061f57600080fd5b506101f361062e3660046131f0565b606c6020526000908152604090205481565b34801561064c57600080fd5b506101f37f65d7a28e3265b37a6474929f336521b332c1681b933f6cb9f3376673440d862a81565b34801561068057600080fd5b506101f360008051602061377083398151915281565b60006106a26001612f3d565b905080156106ba576000805461ff0019166101001790555b6106c2612fc5565b6106ca612fee565b606580546001600160a01b0319166001600160a01b0386161790556106ee8361266b565b6106f78261301d565b801561073d576000805461ff0019169055604051600181527f7f26b83ff96e1f2b6a682f133852f6798a09c465da95921460cefb38474024989060200160405180910390a15b50505050565b60655460408051630140cb6560e51b81529051600080516020613770833981519152926001600160a01b0316916328196ca09160048083019260209291908290030181865afa15801561079a573d6000803e3d6000fd5b505050506040513d601f19601f820116820180604052508101906107be91906133e0565b6001600160a01b03166391d1485482336040516001600160e01b031960e085901b16815260048101929092526001600160a01b03166024820152604401602060405180830381865afa158015610818573d6000803e3d6000fd5b505050506040513d601f19601f8201168201806040525081019061083c91906133fd565b6108615760405162461bcd60e51b81526004016108589061341a565b60405180910390fd5b606580546001600160a01b0319166001600160a01b0384169081179091556040519081527f9ceaf926f42b3faf9a5f7f52388397891ad1608576994e5c3b2d055a09bb225f906020015b60405180910390a15050565b60655460408051630140cb6560e51b81529051600080516020613790833981519152926001600160a01b0316916328196ca09160048083019260209291908290030181865afa15801561090e573d6000803e3d6000fd5b505050506040513d601f19601f8201168201806040525081019061093291906133e0565b6001600160a01b03166391d1485482336040516001600160e01b031960e085901b16815260048101929092526001600160a01b03166024820152604401602060405180830381865afa15801561098c573d6000803e3d6000fd5b505050506040513d601f19601f820116820180604052508101906109b091906133fd565b6109cc5760405162461bcd60e51b81526004016108589061341a565b6065546040805163d37afa8d60e01b815290516000926001600160a01b03169163d37afa8d9160048083019260209291908290030181865afa158015610a16573d6000803e3d6000fd5b505050506040513d601f19601f82011682018060405250810190610a3a91906133e0565b604051632bbc239560e11b8152600481018590529091506000906001600160a01b03831690635778472a9060240160e060405180830381865afa158015610a85573d6000803e3d6000fd5b505050506040513d601f19601f82011682018060405250810190610aa9919061345b565b5050604051636b0d76bd60e11b8152600481018a90526001600160a01b0380871660248301529596509487169463d61aed7a94506044019250610aea915050565b600060405180830381600087803b158015610b0457600080fd5b505af1158015610b18573d6000803e3d6000fd5b5050506000858152606b60209081526040808320839055606a8252808320839055606c8252808320839055606d909152808220829055513392506001600160a01b0384169187917fbda7bebff2a349d53ff61a2f625aba38b63add7de03f20f568c660aaf3c61f519190a450505050565b60655460408051630140cb6560e51b81529051600080516020613770833981519152926001600160a01b0316916328196ca09160048083019260209291908290030181865afa158015610be0573d6000803e3d6000fd5b505050506040513d601f19601f82011682018060405250810190610c0491906133e0565b6001600160a01b03166391d1485482336040516001600160e01b031960e085901b16815260048101929092526001600160a01b03166024820152604401602060405180830381865afa158015610c5e573d6000803e3d6000fd5b505050506040513d601f19601f82011682018060405250810190610c8291906133fd565b610c9e5760405162461bcd60e51b81526004016108589061341a565b606554604051634a4cce9760e01b8152600481018590526001600160a01b0390911690634a4cce9790602401602060405180830381865afa158015610ce7573d6000803e3d6000fd5b505050506040513d601f19601f82011682018060405250810190610d0b91906133fd565b1515600114610d825760405162461bcd60e51b815260206004820152603760248201527f4d61726b6574206d7573742062652061637469766520746f2070726f6365737360448201527f20706f736974696f6e206c69717569646174696f6e732e0000000000000000006064820152608401610858565b8115610d8e576000606f555b6065546040805163d37afa8d60e01b815290516000926001600160a01b03169163d37afa8d9160048083019260209291908290030181865afa158015610dd8573d6000803e3d6000fd5b505050506040513d601f19601f82011682018060405250810190610dfc91906133e0565b6001600160a01b031663ef92f831856040518263ffffffff1660e01b8152600401610e2991815260200190565b602060405180830381865afa158015610e46573d6000803e3d6000fd5b505050506040513d601f19601f82011682018060405250810190610e6a91906134b8565b606f549091506000905b828111610fe0576203d0905a108015610e8d5750828114155b15610ed857606f81905560408051878152602081018590527f6f7e2b4e250b68477086154afade591035c41aae27a60e044260f031e0f6a1ff910160405180910390a1505050505050565b606560009054906101000a90046001600160a01b03166001600160a01b031663d37afa8d6040518163ffffffff1660e01b8152600401602060405180830381865afa158015610f2b573d6000803e3d6000fd5b505050506040513d601f19601f82011682018060405250810190610f4f91906133e0565b604051632d7b42c160e01b815260048101889052602481018390526001600160a01b039190911690632d7b42c190604401602060405180830381865afa158015610f9d573d6000803e3d6000fd5b505050506040513d601f19601f82011682018060405250810190610fc191906133e0565b9150610fcd8287611a3e565b5080610fd8816134e7565b915050610e74565b506040518581527f89d629fd4446c04fb00ba5e14060971d7cc08049bb55786f1bb8d4294a5bb95c9060200160405180910390a15050505050565b60655460408051630140cb6560e51b815290517f65d7a28e3265b37a6474929f336521b332c1681b933f6cb9f3376673440d862a926001600160a01b0316916328196ca09160048083019260209291908290030181865afa158015611084573d6000803e3d6000fd5b505050506040513d601f19601f820116820180604052508101906110a891906133e0565b6001600160a01b03166391d1485482336040516001600160e01b031960e085901b16815260048101929092526001600160a01b03166024820152604401602060405180830381865afa158015611102573d6000803e3d6000fd5b505050506040513d601f19601f8201168201806040525081019061112691906133fd565b6111425760405162461bcd60e51b81526004016108589061341a565b61114a613058565b50565b6065546040805163d37afa8d60e01b815290516000926001600160a01b03169163d37afa8d9160048083019260209291908290030181865afa158015611197573d6000803e3d6000fd5b505050506040513d601f19601f820116820180604052508101906111bb91906133e0565b92915050565b60006111cf60335460ff1690565b156111ec5760405162461bcd60e51b815260040161085890613502565b60655460408051630140cb6560e51b81529051600080516020613790833981519152926001600160a01b0316916328196ca09160048083019260209291908290030181865afa158015611243573d6000803e3d6000fd5b505050506040513d601f19601f8201168201806040525081019061126791906133e0565b6001600160a01b03166391d1485482336040516001600160e01b031960e085901b16815260048101929092526001600160a01b03166024820152604401602060405180830381865afa1580156112c1573d6000803e3d6000fd5b505050506040513d601f19601f820116820180604052508101906112e591906133fd565b6113015760405162461bcd60e51b81526004016108589061341a565b606654156113665760665434101561132b5760405162461bcd60e51b81526004016108589061352c565b6067546040516001600160a01b03909116903480156108fc02916000818181858888f19350505050158015611364573d6000803e3d6000fd5b505b606560009054906101000a90046001600160a01b03166001600160a01b031663d37afa8d6040518163ffffffff1660e01b8152600401602060405180830381865afa1580156113b9573d6000803e3d6000fd5b505050506040513d601f19601f820116820180604052508101906113dd91906133e0565b6001600160a01b031663ac8f6f7f858560008060016305f5e1006040518763ffffffff1660e01b815260040161141896959493929190613596565b6020604051808303816000875af1158015611437573d6000803e3d6000fd5b505050506040513d601f19601f8201168201806040525081019061145b91906134b8565b9150826001600160a01b038516837f1e73a21af9c77a375ee7275ea920afd5c4b6170bc8e21c0cfeeae8139a3cea09336040516001600160a01b03909116815260200160405180910390a45092915050565b60655460408051630140cb6560e51b81529051600080516020613790833981519152926001600160a01b0316916328196ca09160048083019260209291908290030181865afa158015611504573d6000803e3d6000fd5b505050506040513d601f19601f8201168201806040525081019061152891906133e0565b6001600160a01b03166391d1485482336040516001600160e01b031960e085901b16815260048101929092526001600160a01b03166024820152604401602060405180830381865afa158015611582573d6000803e3d6000fd5b505050506040513d601f19601f820116820180604052508101906115a691906133fd565b6115c25760405162461bcd60e51b81526004016108589061341a565b6000828152606e602052604090205460ff1615156001146116425760405162461bcd60e51b815260206004820152603460248201527f4d6f72706865724f7261636c653a204f726465722d43616e63656c6c6174696f60448201527337103bb0b9903737ba103932b8bab2b9ba32b21760611b6064820152608401610858565b6065546040805163d37afa8d60e01b815290516000926001600160a01b03169163d37afa8d9160048083019260209291908290030181865afa15801561168c573d6000803e3d6000fd5b505050506040513d601f19601f820116820180604052508101906116b091906133e0565b604051632bbc239560e11b8152600481018590529091506000906001600160a01b03831690635778472a9060240160e060405180830381865afa1580156116fb573d6000803e3d6000fd5b505050506040513d601f19601f8201168201806040525081019061171f919061345b565b5050604051636b0d76bd60e11b8152600481018a90526001600160a01b0380871660248301529596509487169463d61aed7a94506044019250611760915050565b600060405180830381600087803b15801561177a57600080fd5b505af115801561178e573d6000803e3d6000fd5b5050506000858152606b60209081526040808320839055606a8252808320839055606c8252808320839055606d909152808220829055513392506001600160a01b0384169187917f6bacc01dbe442496068f7d234edd811f1a5f833243e0aec824f86ab861f3c90d9190a450505050565b6065546040805163d37afa8d60e01b815290516000926001600160a01b03169163d37afa8d9160048083019260209291908290030181865afa158015611849573d6000803e3d6000fd5b505050506040513d601f19601f8201168201806040525081019061186d91906133e0565b6000838152606e602052604090205490915060ff16156118e25760405162461bcd60e51b815260206004820152602a60248201527f4d6f72706865724f7261636c653a204f726465722077617320616c72656164796044820152691031b0b731b2b632b21760b11b6064820152608401610858565b604051632bbc239560e11b8152600481018390526000906001600160a01b03831690635778472a9060240160e060405180830381865afa15801561192a573d6000803e3d6000fd5b505050506040513d601f19601f8201168201806040525081019061194e919061345b565b505050505050905061195d3390565b6001600160a01b0316816001600160a01b0316146119e35760405162461bcd60e51b815260206004820152603f60248201527f4d6f72706865724f7261636c653a204f6e6c792074686520757365722063616e60448201527f207265717565737420616e206f726465722063616e63656c6c6174696f6e2e006064820152608401610858565b6000838152606e60205260409020805460ff19166001179055611a033390565b6001600160a01b0316837f02487731041c5966b7038b3e0d347a232658f9e76e79848ed5fa003ca5f2506360405160405180910390a3505050565b6000600080516020613770833981519152606560009054906101000a90046001600160a01b03166001600160a01b03166328196ca06040518163ffffffff1660e01b8152600401602060405180830381865afa158015611aa2573d6000803e3d6000fd5b505050506040513d601f19601f82011682018060405250810190611ac691906133e0565b6001600160a01b03166391d1485482336040516001600160e01b031960e085901b16815260048101929092526001600160a01b03166024820152604401602060405180830381865afa158015611b20573d6000803e3d6000fd5b505050506040513d601f19601f82011682018060405250810190611b4491906133fd565b611b605760405162461bcd60e51b81526004016108589061341a565b6065546040805163d37afa8d60e01b815290516000926001600160a01b03169163d37afa8d9160048083019260209291908290030181865afa158015611baa573d6000803e3d6000fd5b505050506040513d601f19601f82011682018060405250810190611bce91906133e0565b6040516307d47a8b60e11b81526001600160a01b038781166004830152602482018790529190911690630fa8f5169060440161010060405180830381865afa158015611c1e573d6000803e3d6000fd5b505050506040513d601f19601f82011682018060405250810190611c4291906135cb565b602081015190915015611dac57606560009054906101000a90046001600160a01b03166001600160a01b031663d37afa8d6040518163ffffffff1660e01b8152600401602060405180830381865afa158015611ca2573d6000803e3d6000fd5b505050506040513d601f19601f82011682018060405250810190611cc691906133e0565b6001600160a01b031663ac8f6f7f868684602001516000806305f5e1006040518763ffffffff1660e01b8152600401611d0496959493929190613596565b6020604051808303816000875af1158015611d23573d6000803e3d6000fd5b505050506040513d601f19601f82011682018060405250810190611d4791906134b8565b6020808301516040805191825260009282018390528101919091526305f5e100606082015290935084906001600160a01b0387169085907f68909f9be64c2fb9036bc6c47d8cff89160ee7f28d4e14082931cfcc8e980d779060800160405180910390a45b604081015115611f1057606560009054906101000a90046001600160a01b03166001600160a01b031663d37afa8d6040518163ffffffff1660e01b8152600401602060405180830381865afa158015611e09573d6000803e3d6000fd5b505050506040513d601f19601f82011682018060405250810190611e2d91906133e0565b6001600160a01b031663ac8f6f7f86868460400151600060016305f5e1006040518763ffffffff1660e01b8152600401611e6c96959493929190613596565b6020604051808303816000875af1158015611e8b573d6000803e3d6000fd5b505050506040513d601f19601f82011682018060405250810190611eaf91906134b8565b6040828101518151908152600060208201526001818301526305f5e1006060820152905191945085916001600160a01b0388169186917f68909f9be64c2fb9036bc6c47d8cff89160ee7f28d4e14082931cfcc8e980d779181900360800190a45b505092915050565b611f6360405180610100016040528060008152602001600081526020016000815260200160008152602001600081526020016000815260200160008152602001600080191681525090565b60655460408051630140cb6560e51b81529051600080516020613790833981519152926001600160a01b0316916328196ca09160048083019260209291908290030181865afa158015611fba573d6000803e3d6000fd5b505050506040513d601f19601f82011682018060405250810190611fde91906133e0565b6001600160a01b03166391d1485482336040516001600160e01b031960e085901b16815260048101929092526001600160a01b03166024820152604401602060405180830381865afa158015612038573d6000803e3d6000fd5b505050506040513d601f19601f8201168201806040525081019061205c91906133fd565b6120785760405162461bcd60e51b81526004016108589061341a565b60335460ff161561209b5760405162461bcd60e51b815260040161085890613502565b6120a589896122b7565b61210b5760405162461bcd60e51b815260206004820152603160248201527f4d6f72706865724f7261636c65204572726f723a204f7264657220436f6e64696044820152701d1a5bdb9cc8185c99481b9bdd081b595d607a1b6064820152608401610858565b606560009054906101000a90046001600160a01b03166001600160a01b031663d37afa8d6040518163ffffffff1660e01b8152600401602060405180830381865afa15801561215e573d6000803e3d6000fd5b505050506040513d601f19601f8201168201806040525081019061218291906133e0565b6040516316f77a5b60e01b8152600481018b9052602481018a90526044810188905260648101879052608481018690526001600160a01b0391909116906316f77a5b9060a401610100604051808303816000875af11580156121e8573d6000803e3d6000fd5b505050506040513d601f19601f8201168201806040525081019061220c91906135cb565b60008a8152606b60209081526040808320839055606a8252808320839055606c8252808320839055606d9091528120559150887ff45eeb03060db0baf36cec20acde5e8464f49340c9877c55029d6ffe0e5cdac18989898989886020015189604001518a606001518b608001518c60a001518d60c0015160405161229a9b9a99989796959493929190613669565b60405180910390a26122ab8361301d565b50979650505050505050565b6000828152606d6020526040902054600190421180156122e457506000838152606d602052604090205415155b156122ed575060005b6000838152606c60205260409020544210801561231757506000838152606c602052604090205415155b15612320575060005b6000838152606b60205260409020541580159061234a57506000838152606a602052604090205415155b15612387576000838152606b60205260409020548210801561237957506000838152606a602052604090205482115b15612382575060005b6111bb565b6000838152606b6020526040902054821080156123b157506000838152606b602052604090205415155b156123ba575060005b6000838152606a6020526040902054821180156123e457506000838152606a602052604090205415155b156111bb5750600092915050565b60655460408051630140cb6560e51b815290517f65d7a28e3265b37a6474929f336521b332c1681b933f6cb9f3376673440d862a926001600160a01b0316916328196ca09160048083019260209291908290030181865afa15801561245b573d6000803e3d6000fd5b505050506040513d601f19601f8201168201806040525081019061247f91906133e0565b6001600160a01b03166391d1485482336040516001600160e01b031960e085901b16815260048101929092526001600160a01b03166024820152604401602060405180830381865afa1580156124d9573d6000803e3d6000fd5b505050506040513d601f19601f820116820180604052508101906124fd91906133fd565b6125195760405162461bcd60e51b81526004016108589061341a565b61114a6130eb565b60655460408051630140cb6560e51b81529051600080516020613770833981519152926001600160a01b0316916328196ca09160048083019260209291908290030181865afa158015612578573d6000803e3d6000fd5b505050506040513d601f19601f8201168201806040525081019061259c91906133e0565b6001600160a01b03166391d1485482336040516001600160e01b031960e085901b16815260048101929092526001600160a01b03166024820152604401602060405180830381865afa1580156125f6573d6000803e3d6000fd5b505050506040513d601f19601f8201168201806040525081019061261a91906133fd565b6126365760405162461bcd60e51b81526004016108589061341a565b60668290556040518281527f0a20b6289d596db2ac25c70c6c69f5e39361ed00454ab483397db8c744ec0b31906020016108ab565b60655460408051630140cb6560e51b81529051600080516020613770833981519152926001600160a01b0316916328196ca09160048083019260209291908290030181865afa1580156126c2573d6000803e3d6000fd5b505050506040513d601f19601f820116820180604052508101906126e691906133e0565b6001600160a01b03166391d1485482336040516001600160e01b031960e085901b16815260048101929092526001600160a01b03166024820152604401602060405180830381865afa158015612740573d6000803e3d6000fd5b505050506040513d601f19601f8201168201806040525081019061276491906133fd565b6127805760405162461bcd60e51b81526004016108589061341a565b606780546001600160a01b0319166001600160a01b0384169081179091556040519081527f1cd1802fd5b9e82a19a67f7a572c9be656c58ffe140184139d1708b2cfe3a8dc906020016108ab565b60006127dc60335460ff1690565b156127f95760405162461bcd60e51b815260040161085890613502565b6066541561285e576066543410156128235760405162461bcd60e51b81526004016108589061352c565b6067546040516001600160a01b03909116903480156108fc02916000818181858888f1935050505015801561285c573d6000803e3d6000fd5b505b606560009054906101000a90046001600160a01b03166001600160a01b031663d37afa8d6040518163ffffffff1660e01b8152600401602060405180830381865afa1580156128b1573d6000803e3d6000fd5b505050506040513d601f19601f820116820180604052508101906128d591906133e0565b6001600160a01b031663ac8f6f7f338c8c8c8c8c6040518763ffffffff1660e01b815260040161290a96959493929190613596565b6020604051808303816000875af1158015612929573d6000803e3d6000fd5b505050506040513d601f19601f8201168201806040525081019061294d91906134b8565b606554604051634a4cce9760e01b8152600481018d90529192506001600160a01b031690634a4cce9790602401602060405180830381865afa158015612997573d6000803e3d6000fd5b505050506040513d601f19601f820116820180604052508101906129bb91906133fd565b612cfb57606560009054906101000a90046001600160a01b03166001600160a01b031663d37afa8d6040518163ffffffff1660e01b8152600401602060405180830381865afa158015612a12573d6000803e3d6000fd5b505050506040513d601f19601f82011682018060405250810190612a3691906133e0565b6001600160a01b03166316f77a5b82606560009054906101000a90046001600160a01b03166001600160a01b031663d37afa8d6040518163ffffffff1660e01b8152600401602060405180830381865afa158015612a98573d6000803e3d6000fd5b505050506040513d601f19601f82011682018060405250810190612abc91906133e0565b6001600160a01b031663a386fb568e6040518263ffffffff1660e01b8152600401612ae991815260200190565b602060405180830381865afa158015612b06573d6000803e3d6000fd5b505050506040513d601f19601f82011682018060405250810190612b2a91906134b8565b600080612b39426103e86136b7565b6040516001600160e01b031960e088901b1681526004810195909552602485019390935260448401919091526064830152608482015260a401610100604051808303816000875af1158015612b92573d6000803e3d6000fd5b505050506040513d601f19601f82011682018060405250810190612bb691906135cb565b50807ff45eeb03060db0baf36cec20acde5e8464f49340c9877c55029d6ffe0e5cdac1606560009054906101000a90046001600160a01b03166001600160a01b031663d37afa8d6040518163ffffffff1660e01b8152600401602060405180830381865afa158015612c2c573d6000803e3d6000fd5b505050506040513d601f19601f82011682018060405250810190612c5091906133e0565b6001600160a01b031663a386fb568d6040518263ffffffff1660e01b8152600401612c7d91815260200190565b602060405180830381865afa158015612c9a573d6000803e3d6000fd5b505050506040513d601f19601f82011682018060405250810190612cbe91906134b8565b60008080612cce426103e86136b7565b600080600080600080604051612cee9b9a99989796959493929190613669565b60405180910390a2612d98565b6000818152606b60209081526040808320889055606a8252808320879055606c8252808320859055606d82529182902085905581518b81529081018a905288151581830152606081018890526080810186905260a0810187905260c0810184905260e0810185905290518b91339184917fc7392b9822094f2dca86d2a7a97945e80918a8aee61c04de90253f3683b5695091908190036101000190a45b9998505050505050505050565b60655460408051630140cb6560e51b81529051600080516020613790833981519152926001600160a01b0316916328196ca09160048083019260209291908290030181865afa158015612dfc573d6000803e3d6000fd5b505050506040513d601f19601f82011682018060405250810190612e2091906133e0565b6001600160a01b03166391d1485482336040516001600160e01b031960e085901b16815260048101929092526001600160a01b03166024820152604401602060405180830381865afa158015612e7a573d6000803e3d6000fd5b505050506040513d601f19601f82011682018060405250810190612e9e91906133fd565b612eba5760405162461bcd60e51b81526004016108589061341a565b604080518a8152602081018a905288151581830152606081018890526080810187905260a0810186905260c0810185905260e0810184905290518b916001600160a01b038e16918f917fe27c49d1eafe79b2bc5109b33b96343dba653822906061750c5b6f591b8c753191908190036101000190a4505050505050505050505050565b60008054610100900460ff1615612f84578160ff166001148015612f605750303b155b612f7c5760405162461bcd60e51b8152600401610858906136d6565b506000919050565b60005460ff808416911610612fab5760405162461bcd60e51b8152600401610858906136d6565b506000805460ff191660ff92909216919091179055600190565b600054610100900460ff16612fec5760405162461bcd60e51b815260040161085890613724565b565b600054610100900460ff166130155760405162461bcd60e51b815260040161085890613724565b612fec613143565b60668190556040518181527f0a20b6289d596db2ac25c70c6c69f5e39361ed00454ab483397db8c744ec0b319060200160405180910390a150565b60335460ff166130a15760405162461bcd60e51b815260206004820152601460248201527314185d5cd8589b194e881b9bdd081c185d5cd95960621b6044820152606401610858565b6033805460ff191690557f5db9ee0a495bf2e6ff9c91a7834c1ba4fdd244a5e8aa4e537bd38aeae4b073aa335b6040516001600160a01b03909116815260200160405180910390a1565b60335460ff161561310e5760405162461bcd60e51b815260040161085890613502565b6033805460ff191660011790557f62e78cea01bee320cd4e420270b5ea74000d11b0c9f74754ebdbfc544b05a2586130ce3390565b600054610100900460ff1661316a5760405162461bcd60e51b815260040161085890613724565b6033805460ff19169055565b6001600160a01b038116811461114a57600080fd5b6000806000606084860312156131a057600080fd5b83356131ab81613176565b925060208401356131bb81613176565b929592945050506040919091013590565b6000602082840312156131de57600080fd5b81356131e981613176565b9392505050565b60006020828403121561320257600080fd5b5035919050565b801515811461114a57600080fd5b6000806040838503121561322a57600080fd5b82359150602083013561323c81613209565b809150509250929050565b6000806040838503121561325a57600080fd5b823561326581613176565b946020939093013593505050565b600080600080600080600060e0888a03121561328e57600080fd5b505085359760208701359750604087013596606081013596506080810135955060a0810135945060c0013592509050565b600080604083850312156132d257600080fd5b50508035926020909101359150565b60008060008060008060008060006101208a8c03121561330057600080fd5b8935985060208a0135975060408a0135965060608a013561332081613209565b989b979a50959860808101359760a0820135975060c0820135965060e08201359550610100909101359350915050565b60008060008060008060008060008060006101608c8e03121561337257600080fd5b8b359a5060208c013561338481613176565b995060408c0135985060608c0135975060808c0135965060a08c01356133a981613209565b9a9d999c50979a9699959895975050505060c08401359360e081013593610100820135935061012082013592506101409091013590565b6000602082840312156133f257600080fd5b81516131e981613176565b60006020828403121561340f57600080fd5b81516131e981613209565b60208082526021908201527f4d6f72706865724f7261636c653a205065726d697373696f6e2064656e6965646040820152601760f91b606082015260800190565b600080600080600080600060e0888a03121561347657600080fd5b875161348181613176565b602089015160408a015160608b015160808c015160a08d015160c0909d0151949e939d50919b909a50909850965090945092505050565b6000602082840312156134ca57600080fd5b5051919050565b634e487b7160e01b600052601160045260246000fd5b60006000198214156134fb576134fb6134d1565b5060010190565b60208082526010908201526f14185d5cd8589b194e881c185d5cd95960821b604082015260600190565b60208082526044908201527f4d6f72706865724f7261636c653a204d757374207472616e736665722067617360408201527f20636f73747320666f72204f7261636c652043616c6c6261636b2066756e637460608201526334b7b71760e11b608082015260a00190565b6001600160a01b039690961686526020860194909452604085019290925260608401521515608083015260a082015260c00190565b60006101008083850312156135df57600080fd5b6040519081019067ffffffffffffffff8211818310171561361057634e487b7160e01b600052604160045260246000fd5b81604052835181526020840151602082015260408401516040820152606084015160608201526080840151608082015260a084015160a082015260c084015160c082015260e084015160e0820152809250505092915050565b9a8b5260208b019990995260408a01979097526060890195909552608088019390935260a087019190915260c086015260e08501526101008401526101208301526101408201526101600190565b60008160001904831182151516156136d1576136d16134d1565b500290565b6020808252602e908201527f496e697469616c697a61626c653a20636f6e747261637420697320616c72656160408201526d191e481a5b9a5d1a585b1a5e995960921b606082015260800190565b6020808252602b908201527f496e697469616c697a61626c653a20636f6e7472616374206973206e6f74206960408201526a6e697469616c697a696e6760a81b60608201526080019056fee5a0b4d50f56047f84728557fedbda92f956391bc9d5c762e8461996dd8e7ad7456e80d7f83ecad5376797c2562c7d48cc4873cf784699120b78efad9ba18ecca26469706673582212207c09abc10518dccd38e86f7fc420f763383a2addc98335ead3850ef45977ba1264736f6c634300080b0033",
  "immutableReferences": {},
  "source": "//SPDX-License-Identifier: GPLv3\r\npragma solidity 0.8.11;\r\n\r\nimport \"./MorpherTradeEngine.sol\";\r\nimport \"./MorpherState.sol\";\r\nimport \"./MorpherAccessControl.sol\";\r\nimport \"@openzeppelin/contracts-upgradeable/utils/cryptography/MerkleProofUpgradeable.sol\";\r\nimport \"@openzeppelin/contracts-upgradeable/proxy/utils/Initializable.sol\";\r\nimport \"@openzeppelin/contracts-upgradeable/utils/ContextUpgradeable.sol\";\r\nimport \"@openzeppelin/contracts-upgradeable/security/PausableUpgradeable.sol\";\r\n\r\n\r\n// ----------------------------------------------------------------------------------\r\n// Morpher Oracle contract v 2.0\r\n// The oracle initates a new trade by calling trade engine and requesting a new orderId.\r\n// An event is fired by the contract notifying the oracle operator to query a price/liquidation unchecked\r\n// for a market/user and return the information via the callback function. Since calling\r\n// the callback function requires gas, the user must send a fixed amount of Ether when\r\n// creating their order.\r\n// ----------------------------------------------------------------------------------\r\n\r\ncontract MorpherOracle is Initializable, ContextUpgradeable, PausableUpgradeable {\r\n\r\n    MorpherState state; // read only, Oracle doesn't need writing access to state\r\n\r\n    bool public useWhiteList; //always false at the moment\r\n\r\n    uint256 public gasForCallback;\r\n\r\n    address payable public callBackCollectionAddress;\r\n\r\n    mapping(address => bool) public callBackAddress;\r\n    mapping(address => bool) public whiteList;\r\n    \r\n    mapping(bytes32 => uint256) public priceBelow;\r\n    mapping(bytes32 => uint256) public priceAbove;\r\n    mapping(bytes32 => uint256) public goodFrom;\r\n    mapping(bytes32 => uint256) public goodUntil;\r\n\r\n    mapping(bytes32 => bool) public orderCancellationRequested;\r\n\r\n    /**\r\n     * ROLES KNOWN TO ORACLE\r\n     */\r\n    bytes32 constant public ADMINISTRATOR_ROLE = keccak256(\"ADMINISTRATOR_ROLE\");\r\n    bytes32 constant public ORACLEOPERATOR_ROLE = keccak256(\"ORACLEOPERATOR_ROLE\"); //used for callbacks from API\r\n    bytes32 constant public PAUSER_ROLE = keccak256(\"PAUSER_ROLE\"); //can pause oracle\r\n\r\n// ----------------------------------------------------------------------------------\r\n// Events\r\n// ----------------------------------------------------------------------------------\r\n    event OrderCreated(\r\n        bytes32 indexed _orderId,\r\n        address indexed _address,\r\n        bytes32 indexed _marketId,\r\n        uint256 _closeSharesAmount,\r\n        uint256 _openMPHTokenAmount,\r\n        bool _tradeDirection,\r\n        uint256 _orderLeverage,\r\n        uint256 _onlyIfPriceBelow,\r\n        uint256 _onlyIfPriceAbove,\r\n        uint256 _goodFrom,\r\n        uint256 _goodUntil\r\n        );\r\n\r\n    event LiquidationOrderCreated(\r\n        bytes32 indexed _orderId,\r\n        address _sender,\r\n        address indexed _address,\r\n        bytes32 indexed _marketId\r\n\r\n        );\r\n\r\n    event OrderProcessed(\r\n        bytes32 indexed _orderId,\r\n        uint256 _price,\r\n        uint256 _unadjustedMarketPrice,\r\n        uint256 _spread,\r\n        uint256 _positionLiquidationTimestamp,\r\n        uint256 _timeStamp,\r\n        uint256 _newLongShares,\r\n        uint256 _newShortShares,\r\n        uint256 _newMeanEntry,\r\n        uint256 _newMeanSprad,\r\n        uint256 _newMeanLeverage,\r\n        uint256 _liquidationPrice\r\n        );\r\n\r\n    event OrderFailed(\r\n        bytes32 indexed _orderId,\r\n        address indexed _address,\r\n        bytes32 indexed _marketId,\r\n        uint256 _closeSharesAmount,\r\n        uint256 _openMPHTokenAmount,\r\n        bool _tradeDirection,\r\n        uint256 _orderLeverage,\r\n        uint256 _onlyIfPriceBelow,\r\n        uint256 _onlyIfPriceAbove,\r\n        uint256 _goodFrom,\r\n        uint256 _goodUntil\r\n        );\r\n\r\n    event OrderCancelled(\r\n        bytes32 indexed _orderId,\r\n        address indexed _sender,\r\n        address indexed _oracleAddress\r\n        );\r\n    \r\n    event AdminOrderCancelled(\r\n        bytes32 indexed _orderId,\r\n        address indexed _sender,\r\n        address indexed _oracleAddress\r\n        );\r\n\r\n    event OrderCancellationRequestedEvent(\r\n        bytes32 indexed _orderId,\r\n        address indexed _sender\r\n        );\r\n\r\n    event CallbackAddressEnabled(\r\n        address indexed _address\r\n        );\r\n\r\n    event CallbackAddressDisabled(\r\n        address indexed _address\r\n        );\r\n\r\n    event OraclePaused(\r\n        bool _paused\r\n        );\r\n        \r\n    event CallBackCollectionAddressChange(\r\n        address _address\r\n        );\r\n\r\n    event SetGasForCallback(\r\n        uint256 _gasForCallback\r\n        );\r\n\r\n    event LinkTradeEngine(\r\n        address _address\r\n        );\r\n\r\n    event LinkMorpherState(\r\n        address _address\r\n        );\r\n\r\n    event SetUseWhiteList(\r\n        bool _useWhiteList\r\n        );\r\n\r\n    event AddressWhiteListed(\r\n        address _address\r\n        );\r\n\r\n    event AddressBlackListed(\r\n        address _address\r\n        );\r\n\r\n    event AdminLiquidationOrderCreated(\r\n        bytes32 indexed _orderId,\r\n        address indexed _address,\r\n        bytes32 indexed _marketId,\r\n        uint256 _closeSharesAmount,\r\n        uint256 _openMPHTokenAmount,\r\n        bool _tradeDirection,\r\n        uint256 _orderLeverage\r\n        );\r\n\r\n    /**\r\n     * Delisting markets is a function that stops when gas is running low\r\n     * if it reached all positions it will emit \"DelistMarketComplete\"\r\n     * otherwise it needs to be re-run.\r\n     */\r\n    event DelistMarketIncomplete(bytes32 _marketId, uint256 _processedUntilIndex);\r\n    event DelistMarketComplete(bytes32 _marketId);\r\n    event LockedPriceForClosingPositions(bytes32 _marketId, uint256 _price);\r\n\r\n\r\n    modifier onlyRole(bytes32 role) {\r\n        require(MorpherAccessControl(state.morpherAccessControlAddress()).hasRole(role, _msgSender()), \"MorpherOracle: Permission denied.\");\r\n        _;\r\n    }\r\n\r\n   function initialize(address _morpherState, address payable _gasCollectionAddress, uint256 _gasForCallback) public initializer{\r\n        ContextUpgradeable.__Context_init();\r\n        PausableUpgradeable.__Pausable_init();\r\n\r\n        state = MorpherState(_morpherState);\r\n        \r\n        setCallbackCollectionAddress(_gasCollectionAddress);\r\n        setGasForCallback(_gasForCallback);\r\n    }\r\n\r\n// ----------------------------------------------------------------------------------\r\n// Setter/getter functions for trade engine address, oracle operator (callback) address,\r\n// and prepaid gas limit for callback function\r\n// ----------------------------------------------------------------------------------\r\n\r\n    function setStateAddress(address _address) public onlyRole(ADMINISTRATOR_ROLE) {\r\n        state = MorpherState(_address);\r\n        emit LinkMorpherState(_address);\r\n    }\r\n\r\n    function overrideGasForCallback(uint256 _gasForCallback) public onlyRole(ADMINISTRATOR_ROLE) {\r\n        gasForCallback = _gasForCallback;\r\n        emit SetGasForCallback(_gasForCallback);\r\n    }\r\n    \r\n    function setGasForCallback(uint256 _gasForCallback) private {\r\n        gasForCallback = _gasForCallback;\r\n        emit SetGasForCallback(_gasForCallback);\r\n    }\r\n\r\n    function setCallbackCollectionAddress(address payable _address) public onlyRole(ADMINISTRATOR_ROLE) {\r\n        callBackCollectionAddress = _address;\r\n        emit CallBackCollectionAddressChange(_address);\r\n    }\r\n\r\n// ----------------------------------------------------------------------------------\r\n// emitOrderFailed\r\n// Can be called by Oracle Operator to notifiy user of failed order\r\n// ----------------------------------------------------------------------------------\r\n    function emitOrderFailed(\r\n        bytes32 _orderId,\r\n        address _address,\r\n        bytes32 _marketId,\r\n        uint256 _closeSharesAmount,\r\n        uint256 _openMPHTokenAmount,\r\n        bool _tradeDirection,\r\n        uint256 _orderLeverage,\r\n        uint256 _onlyIfPriceBelow,\r\n        uint256 _onlyIfPriceAbove,\r\n        uint256 _goodFrom,\r\n        uint256 _goodUntil\r\n    ) public onlyRole(ORACLEOPERATOR_ROLE) {\r\n        emit OrderFailed(\r\n            _orderId,\r\n            _address,\r\n            _marketId,\r\n            _closeSharesAmount,\r\n            _openMPHTokenAmount,\r\n            _tradeDirection,\r\n            _orderLeverage,\r\n            _onlyIfPriceBelow,\r\n            _onlyIfPriceAbove,\r\n            _goodFrom,\r\n            _goodUntil);\r\n    }\r\n\r\n// ----------------------------------------------------------------------------------\r\n// createOrder(bytes32  _marketId, bool _tradeAmountGivenInShares, uint256 _tradeAmount, bool _tradeDirection, uint256 _orderLeverage)\r\n// Request a new orderId from trade engine and fires event for price/liquidation check request.\r\n// ----------------------------------------------------------------------------------\r\n    function createOrder(\r\n        bytes32 _marketId,\r\n        uint256 _closeSharesAmount,\r\n        uint256 _openMPHTokenAmount,\r\n        bool _tradeDirection,\r\n        uint256 _orderLeverage,\r\n        uint256 _onlyIfPriceAbove,\r\n        uint256 _onlyIfPriceBelow,\r\n        uint256 _goodUntil,\r\n        uint256 _goodFrom\r\n        ) public payable whenNotPaused returns (bytes32 _orderId) {\r\n        if (gasForCallback > 0) {\r\n            require(msg.value >= gasForCallback, \"MorpherOracle: Must transfer gas costs for Oracle Callback function.\");\r\n            callBackCollectionAddress.transfer(msg.value);\r\n        }\r\n        _orderId = MorpherTradeEngine(state.morpherTradeEngineAddress()).requestOrderId(_msgSender(), _marketId, _closeSharesAmount, _openMPHTokenAmount, _tradeDirection, _orderLeverage);\r\n\r\n        //if the market was deactivated, and the trader didn't fail yet, then we got an orderId to close the position with a locked in price\r\n        if(state.getMarketActive(_marketId) == false) {\r\n\r\n            //price will come from the position where price is stored forever\r\n            MorpherTradeEngine(state.morpherTradeEngineAddress()).processOrder(_orderId, MorpherTradeEngine(state.morpherTradeEngineAddress()).getDeactivatedMarketPrice(_marketId), 0, 0, block.timestamp * (1000));\r\n            \r\n            emit OrderProcessed(\r\n                _orderId,\r\n                MorpherTradeEngine(state.morpherTradeEngineAddress()).getDeactivatedMarketPrice(_marketId),\r\n                0,\r\n                0,\r\n                0,\r\n                block.timestamp * (1000),\r\n                0,\r\n                0,\r\n                0,\r\n                0,\r\n                0,\r\n                0\r\n                );\r\n        } else {\r\n            priceAbove[_orderId] = _onlyIfPriceAbove;\r\n            priceBelow[_orderId] = _onlyIfPriceBelow;\r\n            goodFrom[_orderId]   = _goodFrom;\r\n            goodUntil[_orderId]  = _goodUntil;\r\n            emit OrderCreated(\r\n                _orderId,\r\n                _msgSender(),\r\n                _marketId,\r\n                _closeSharesAmount,\r\n                _openMPHTokenAmount,\r\n                _tradeDirection,\r\n                _orderLeverage,\r\n                _onlyIfPriceBelow,\r\n                _onlyIfPriceAbove,\r\n                _goodFrom,\r\n                _goodUntil\r\n                );\r\n        }\r\n\r\n        return _orderId;\r\n    }\r\n\r\n    function initiateCancelOrder(bytes32 _orderId) public {\r\n        MorpherTradeEngine _tradeEngine = MorpherTradeEngine(state.morpherTradeEngineAddress());\r\n        require(orderCancellationRequested[_orderId] == false, \"MorpherOracle: Order was already canceled.\");\r\n        (address userId, , , , , , ) = _tradeEngine.getOrder(_orderId);\r\n        require(userId == _msgSender(), \"MorpherOracle: Only the user can request an order cancellation.\");\r\n        orderCancellationRequested[_orderId] = true;\r\n        emit OrderCancellationRequestedEvent(_orderId, _msgSender());\r\n    }\r\n\r\n    // ----------------------------------------------------------------------------------\r\n    // cancelOrder(bytes32  _orderId)\r\n    // User or Administrator can cancel their own orders before the _callback has been executed\r\n    // ----------------------------------------------------------------------------------\r\n    function cancelOrder(bytes32 _orderId) public onlyRole(ORACLEOPERATOR_ROLE) {\r\n        require(orderCancellationRequested[_orderId] == true, \"MorpherOracle: Order-Cancellation was not requested.\");\r\n        MorpherTradeEngine _tradeEngine = MorpherTradeEngine(state.morpherTradeEngineAddress());\r\n        (address userId, , , , , , ) = _tradeEngine.getOrder(_orderId);\r\n        _tradeEngine.cancelOrder(_orderId, userId);\r\n        clearOrderConditions(_orderId);\r\n        emit OrderCancelled(\r\n            _orderId,\r\n            userId,\r\n            _msgSender()\r\n            );\r\n    }\r\n    \r\n    // ----------------------------------------------------------------------------------\r\n    // adminCancelOrder(bytes32  _orderId)\r\n    // Administrator can cancel before the _callback has been executed to provide an updateOrder functionality\r\n    // ----------------------------------------------------------------------------------\r\n    function adminCancelOrder(bytes32 _orderId) public onlyRole(ORACLEOPERATOR_ROLE) {\r\n        MorpherTradeEngine _tradeEngine = MorpherTradeEngine(state.morpherTradeEngineAddress());\r\n        (address userId, , , , , , ) = _tradeEngine.getOrder(_orderId);\r\n        _tradeEngine.cancelOrder(_orderId, userId);\r\n        clearOrderConditions(_orderId);\r\n        emit AdminOrderCancelled(\r\n            _orderId,\r\n            userId,\r\n            _msgSender()\r\n            );\r\n    }\r\n\r\n// ------------------------------------------------------------------------\r\n// checkOrderConditions(bytes32 _orderId, uint256 _price)\r\n// Checks if callback satisfies the order conditions\r\n// ------------------------------------------------------------------------\r\n    function checkOrderConditions(bytes32 _orderId, uint256 _price) public view returns (bool _conditionsMet) {\r\n        _conditionsMet = true;\r\n        if (block.timestamp > goodUntil[_orderId] && goodUntil[_orderId] > 0) {\r\n            _conditionsMet = false;\r\n        }\r\n        if (block.timestamp < goodFrom[_orderId] && goodFrom[_orderId] > 0) {\r\n            _conditionsMet = false;\r\n        }\r\n\r\n        if(priceAbove[_orderId] > 0 && priceBelow[_orderId] > 0) {\r\n            if(_price < priceAbove[_orderId] && _price > priceBelow[_orderId]) {\r\n                _conditionsMet = false;\r\n            }\r\n        } else {\r\n            if (_price < priceAbove[_orderId] && priceAbove[_orderId] > 0) {\r\n                _conditionsMet = false;\r\n            }\r\n            if (_price > priceBelow[_orderId] && priceBelow[_orderId] > 0) {\r\n                _conditionsMet = false;\r\n            }\r\n        }\r\n        \r\n        return _conditionsMet;\r\n    }\r\n\r\n// ----------------------------------------------------------------------------------\r\n// Deletes parameters of cancelled or processed orders\r\n// ----------------------------------------------------------------------------------\r\n    function clearOrderConditions(bytes32 _orderId) internal {\r\n        priceAbove[_orderId] = 0;\r\n        priceBelow[_orderId] = 0;\r\n        goodFrom[_orderId]   = 0;\r\n        goodUntil[_orderId]  = 0;\r\n    }\r\n\r\n    function pause() public virtual onlyRole(PAUSER_ROLE) {\r\n        _pause();\r\n    }\r\n\r\n    function unpause() public virtual onlyRole(PAUSER_ROLE) {\r\n        _unpause();\r\n    }\r\n\r\n// ----------------------------------------------------------------------------------\r\n// createLiquidationOrder(address _address, bytes32 _marketId)\r\n// Checks if position has been liquidated since last check. Requires gas for callback\r\n// function. Anyone can issue a liquidation order for any other address and market.\r\n// ----------------------------------------------------------------------------------\r\n    function createLiquidationOrder(\r\n        address _address,\r\n        bytes32 _marketId\r\n        ) public whenNotPaused onlyRole(ORACLEOPERATOR_ROLE) payable returns (bytes32 _orderId) {\r\n        if (gasForCallback > 0) {\r\n            require(msg.value >= gasForCallback, \"MorpherOracle: Must transfer gas costs for Oracle Callback function.\");\r\n            callBackCollectionAddress.transfer(msg.value);\r\n        }\r\n        _orderId = MorpherTradeEngine(state.morpherTradeEngineAddress()).requestOrderId(_address, _marketId, 0, 0, true, 10**8);\r\n        emit LiquidationOrderCreated(_orderId, _msgSender(), _address, _marketId);\r\n        return _orderId;\r\n    }\r\n\r\n// ----------------------------------------------------------------------------------\r\n// __callback(bytes32 _orderId, uint256 _price, uint256 _spread, uint256 _liquidationTimestamp, uint256 _timeStamp)\r\n// Called by the oracle operator. Writes price/spread/liquidiation check to the blockchain.\r\n// Trade engine processes the order and updates the portfolio in state if successful.\r\n// ----------------------------------------------------------------------------------\r\n    function __callback(\r\n        bytes32 _orderId,\r\n        uint256 _price,\r\n        uint256 _unadjustedMarketPrice,\r\n        uint256 _spread,\r\n        uint256 _liquidationTimestamp,\r\n        uint256 _timeStamp,\r\n        uint256 _gasForNextCallback\r\n        ) public onlyRole(ORACLEOPERATOR_ROLE) whenNotPaused returns (MorpherTradeEngine.position memory createdPosition)  {\r\n        \r\n        require(checkOrderConditions(_orderId, _price), 'MorpherOracle Error: Order Conditions are not met');\r\n       \r\n       createdPosition = MorpherTradeEngine(state.morpherTradeEngineAddress()).processOrder(_orderId, _price, _spread, _liquidationTimestamp, _timeStamp);\r\n        \r\n        clearOrderConditions(_orderId);\r\n        emit OrderProcessed(\r\n            _orderId,\r\n            _price,\r\n            _unadjustedMarketPrice,\r\n            _spread,\r\n            _liquidationTimestamp,\r\n            _timeStamp,\r\n            createdPosition.longShares,\r\n            createdPosition.shortShares,\r\n            createdPosition.meanEntryPrice,\r\n            createdPosition.meanEntrySpread,\r\n            createdPosition.meanEntryLeverage,\r\n            createdPosition.liquidationPrice\r\n            );\r\n        setGasForCallback(_gasForNextCallback);\r\n        return createdPosition;\r\n    }\r\n\r\n// ----------------------------------------------------------------------------------\r\n// delistMarket(bytes32 _marketId)\r\n// Administrator closes out all existing positions on _marketId market at current prices\r\n// ----------------------------------------------------------------------------------\r\n\r\n    uint delistMarketFromIx;\r\n    function delistMarket(bytes32 _marketId, bool _startFromScratch) public onlyRole(ADMINISTRATOR_ROLE) {\r\n        require(state.getMarketActive(_marketId) == true, \"Market must be active to process position liquidations.\");\r\n        // If no _fromIx and _toIx specified, do entire _list\r\n        if (_startFromScratch) {\r\n            delistMarketFromIx = 0;\r\n        }\r\n        \r\n        uint _toIx = MorpherTradeEngine(state.morpherTradeEngineAddress()).getMaxMappingIndex(_marketId);\r\n        \r\n        address _address;\r\n        for (uint256 i = delistMarketFromIx; i <= _toIx; i++) {\r\n             if(gasleft() < 250000 && i != _toIx) { //stop if there's not enough gas to write the next transaction\r\n                delistMarketFromIx = i;\r\n                emit DelistMarketIncomplete(_marketId, _toIx);\r\n                return;\r\n            } \r\n            \r\n            _address = MorpherTradeEngine(state.morpherTradeEngineAddress()).getExposureMappingAddress(_marketId, i);\r\n            adminLiquidationOrder(_address, _marketId);\r\n            \r\n        }\r\n        emit DelistMarketComplete(_marketId);\r\n    }\r\n\r\n\r\n// ----------------------------------------------------------------------------------\r\n// adminLiquidationOrder(address _address, bytes32 _marketId)\r\n// Administrator closes out an existing position of _address on _marketId market at current price\r\n// ----------------------------------------------------------------------------------\r\n    function adminLiquidationOrder(\r\n        address _address,\r\n        bytes32 _marketId\r\n        ) public onlyRole(ADMINISTRATOR_ROLE) returns (bytes32 _orderId) {\r\n            MorpherTradeEngine.position memory position = MorpherTradeEngine(state.morpherTradeEngineAddress()).getPosition(_address, _marketId);\r\n            \r\n            if (position.longShares > 0) {\r\n                _orderId = MorpherTradeEngine(state.morpherTradeEngineAddress()).requestOrderId(_address, _marketId, position.longShares, 0, false, 10**8);\r\n                emit AdminLiquidationOrderCreated(_orderId, _address, _marketId, position.longShares, 0, false, 10**8);\r\n            }\r\n            if (position.shortShares > 0) {\r\n                _orderId = MorpherTradeEngine(state.morpherTradeEngineAddress()).requestOrderId(_address, _marketId, position.shortShares, 0, true, 10**8);\r\n                emit AdminLiquidationOrderCreated(_orderId, _address, _marketId, position.shortShares, 0, true, 10**8);\r\n            }\r\n            return _orderId;\r\n    }\r\n\r\n    /**\r\n     * Deprecated function\r\n     */\r\n    function getTradeEngineFromOrderId(uint orderId) public view returns(address) {\r\n        orderId = orderId; //mute the warning\r\n        return state.morpherTradeEngineAddress();\r\n    }   \r\n\r\n}\r\n\r\n",
  "sourcePath": "/home/thomas/MorpherProtocol/contracts/MorpherOracle.sol",
  "compiler": {
    "name": "solc",
    "version": "0.8.11+commit.d7f03943.Emscripten.clang"
  },
  "schemaVersion": "3.4.7",
  "updatedAt": "2022-06-28T11:46:09.818Z",
  "devdoc": {
    "kind": "dev",
    "methods": {
      "paused()": {
        "details": "Returns true if the contract is paused, and false otherwise."
      }
    },
    "version": 1
  },
  "userdoc": {
    "events": {
      "DelistMarketIncomplete(bytes32,uint256)": {
        "notice": "Delisting markets is a function that stops when gas is running low if it reached all positions it will emit \"DelistMarketComplete\" otherwise it needs to be re-run."
      }
    },
    "kind": "user",
    "methods": {
      "ADMINISTRATOR_ROLE()": {
        "notice": "ROLES KNOWN TO ORACLE"
      },
      "getTradeEngineFromOrderId(uint256)": {
        "notice": "Deprecated function"
      }
    },
    "version": 1
  }
}