{
  "contractName": "MorpherToken",
  "abi": [
    {
      "anonymous": false,
      "inputs": [
        {
          "indexed": true,
          "internalType": "address",
          "name": "owner",
          "type": "address"
        },
        {
          "indexed": true,
          "internalType": "address",
          "name": "spender",
          "type": "address"
        },
        {
          "indexed": false,
          "internalType": "uint256",
          "name": "value",
          "type": "uint256"
        }
      ],
      "name": "Approval",
      "type": "event"
    },
    {
      "anonymous": false,
      "inputs": [
        {
          "indexed": false,
          "internalType": "address",
          "name": "account",
          "type": "address"
        }
      ],
      "name": "Paused",
      "type": "event"
    },
    {
      "anonymous": false,
      "inputs": [
        {
          "indexed": false,
          "internalType": "bool",
          "name": "_oldValue",
          "type": "bool"
        },
        {
          "indexed": false,
          "internalType": "bool",
          "name": "_newValue",
          "type": "bool"
        }
      ],
      "name": "SetRestrictTransfers",
      "type": "event"
    },
    {
      "anonymous": false,
      "inputs": [
        {
          "indexed": false,
          "internalType": "uint256",
          "name": "_oldValue",
          "type": "uint256"
        },
        {
          "indexed": false,
          "internalType": "uint256",
          "name": "_newValue",
          "type": "uint256"
        }
      ],
      "name": "SetTotalTokensInPositions",
      "type": "event"
    },
    {
      "anonymous": false,
      "inputs": [
        {
          "indexed": false,
          "internalType": "uint256",
          "name": "_oldValue",
          "type": "uint256"
        },
        {
          "indexed": false,
          "internalType": "uint256",
          "name": "_newValue",
          "type": "uint256"
        }
      ],
      "name": "SetTotalTokensOnOtherChain",
      "type": "event"
    },
    {
      "anonymous": false,
      "inputs": [
        {
          "indexed": true,
          "internalType": "address",
          "name": "from",
          "type": "address"
        },
        {
          "indexed": true,
          "internalType": "address",
          "name": "to",
          "type": "address"
        },
        {
          "indexed": false,
          "internalType": "uint256",
          "name": "value",
          "type": "uint256"
        }
      ],
      "name": "Transfer",
      "type": "event"
    },
    {
      "anonymous": false,
      "inputs": [
        {
          "indexed": false,
          "internalType": "address",
          "name": "account",
          "type": "address"
        }
      ],
      "name": "Unpaused",
      "type": "event"
    },
    {
      "inputs": [],
      "name": "ADMINISTRATOR_ROLE",
      "outputs": [
        {
          "internalType": "bytes32",
          "name": "",
          "type": "bytes32"
        }
      ],
      "stateMutability": "view",
      "type": "function",
      "constant": true
    },
    {
      "inputs": [],
      "name": "BURNER_ROLE",
      "outputs": [
        {
          "internalType": "bytes32",
          "name": "",
          "type": "bytes32"
        }
      ],
      "stateMutability": "view",
      "type": "function",
      "constant": true
    },
    {
      "inputs": [],
      "name": "MINTER_ROLE",
      "outputs": [
        {
          "internalType": "bytes32",
          "name": "",
          "type": "bytes32"
        }
      ],
      "stateMutability": "view",
      "type": "function",
      "constant": true
    },
    {
      "inputs": [],
      "name": "PAUSER_ROLE",
      "outputs": [
        {
          "internalType": "bytes32",
          "name": "",
          "type": "bytes32"
        }
      ],
      "stateMutability": "view",
      "type": "function",
      "constant": true
    },
    {
      "inputs": [],
      "name": "TRANSFERBLOCKED_ROLE",
      "outputs": [
        {
          "internalType": "bytes32",
          "name": "",
          "type": "bytes32"
        }
      ],
      "stateMutability": "view",
      "type": "function",
      "constant": true
    },
    {
      "inputs": [],
      "name": "TRANSFER_ROLE",
      "outputs": [
        {
          "internalType": "bytes32",
          "name": "",
          "type": "bytes32"
        }
      ],
      "stateMutability": "view",
      "type": "function",
      "constant": true
    },
    {
      "inputs": [
        {
          "internalType": "address",
          "name": "owner",
          "type": "address"
        },
        {
          "internalType": "address",
          "name": "spender",
          "type": "address"
        }
      ],
      "name": "allowance",
      "outputs": [
        {
          "internalType": "uint256",
          "name": "",
          "type": "uint256"
        }
      ],
      "stateMutability": "view",
      "type": "function",
      "constant": true
    },
    {
      "inputs": [
        {
          "internalType": "address",
          "name": "spender",
          "type": "address"
        },
        {
          "internalType": "uint256",
          "name": "amount",
          "type": "uint256"
        }
      ],
      "name": "approve",
      "outputs": [
        {
          "internalType": "bool",
          "name": "",
          "type": "bool"
        }
      ],
      "stateMutability": "nonpayable",
      "type": "function"
    },
    {
      "inputs": [
        {
          "internalType": "address",
          "name": "account",
          "type": "address"
        }
      ],
      "name": "balanceOf",
      "outputs": [
        {
          "internalType": "uint256",
          "name": "",
          "type": "uint256"
        }
      ],
      "stateMutability": "view",
      "type": "function",
      "constant": true
    },
    {
      "inputs": [],
      "name": "decimals",
      "outputs": [
        {
          "internalType": "uint8",
          "name": "",
          "type": "uint8"
        }
      ],
      "stateMutability": "view",
      "type": "function",
      "constant": true
    },
    {
      "inputs": [
        {
          "internalType": "address",
          "name": "spender",
          "type": "address"
        },
        {
          "internalType": "uint256",
          "name": "subtractedValue",
          "type": "uint256"
        }
      ],
      "name": "decreaseAllowance",
      "outputs": [
        {
          "internalType": "bool",
          "name": "",
          "type": "bool"
        }
      ],
      "stateMutability": "nonpayable",
      "type": "function"
    },
    {
      "inputs": [
        {
          "internalType": "address",
          "name": "spender",
          "type": "address"
        },
        {
          "internalType": "uint256",
          "name": "addedValue",
          "type": "uint256"
        }
      ],
      "name": "increaseAllowance",
      "outputs": [
        {
          "internalType": "bool",
          "name": "",
          "type": "bool"
        }
      ],
      "stateMutability": "nonpayable",
      "type": "function"
    },
    {
      "inputs": [],
      "name": "morpherAccessControl",
      "outputs": [
        {
          "internalType": "contract MorpherAccessControl",
          "name": "",
          "type": "address"
        }
      ],
      "stateMutability": "view",
      "type": "function",
      "constant": true
    },
    {
      "inputs": [],
      "name": "name",
      "outputs": [
        {
          "internalType": "string",
          "name": "",
          "type": "string"
        }
      ],
      "stateMutability": "view",
      "type": "function",
      "constant": true
    },
    {
      "inputs": [],
      "name": "paused",
      "outputs": [
        {
          "internalType": "bool",
          "name": "",
          "type": "bool"
        }
      ],
      "stateMutability": "view",
      "type": "function",
      "constant": true
    },
    {
      "inputs": [],
      "name": "symbol",
      "outputs": [
        {
          "internalType": "string",
          "name": "",
          "type": "string"
        }
      ],
      "stateMutability": "view",
      "type": "function",
      "constant": true
    },
    {
      "inputs": [
        {
          "internalType": "address",
          "name": "to",
          "type": "address"
        },
        {
          "internalType": "uint256",
          "name": "amount",
          "type": "uint256"
        }
      ],
      "name": "transfer",
      "outputs": [
        {
          "internalType": "bool",
          "name": "",
          "type": "bool"
        }
      ],
      "stateMutability": "nonpayable",
      "type": "function"
    },
    {
      "inputs": [
        {
          "internalType": "address",
          "name": "from",
          "type": "address"
        },
        {
          "internalType": "address",
          "name": "to",
          "type": "address"
        },
        {
          "internalType": "uint256",
          "name": "amount",
          "type": "uint256"
        }
      ],
      "name": "transferFrom",
      "outputs": [
        {
          "internalType": "bool",
          "name": "",
          "type": "bool"
        }
      ],
      "stateMutability": "nonpayable",
      "type": "function"
    },
    {
      "inputs": [
        {
          "internalType": "address",
          "name": "_morpherAccessControl",
          "type": "address"
        }
      ],
      "name": "initialize",
      "outputs": [],
      "stateMutability": "nonpayable",
      "type": "function"
    },
    {
      "inputs": [
        {
          "internalType": "bool",
          "name": "restrictTransfers",
          "type": "bool"
        }
      ],
      "name": "setRestrictTransfers",
      "outputs": [],
      "stateMutability": "nonpayable",
      "type": "function"
    },
    {
      "inputs": [],
      "name": "getRestrictTransfers",
      "outputs": [
        {
          "internalType": "bool",
          "name": "",
          "type": "bool"
        }
      ],
      "stateMutability": "view",
      "type": "function",
      "constant": true
    },
    {
      "inputs": [
        {
          "internalType": "uint256",
          "name": "totalOnOtherChain",
          "type": "uint256"
        }
      ],
      "name": "setTotalTokensOnOtherChain",
      "outputs": [],
      "stateMutability": "nonpayable",
      "type": "function"
    },
    {
      "inputs": [],
      "name": "getTotalTokensOnOtherChain",
      "outputs": [
        {
          "internalType": "uint256",
          "name": "",
          "type": "uint256"
        }
      ],
      "stateMutability": "view",
      "type": "function",
      "constant": true
    },
    {
      "inputs": [
        {
          "internalType": "uint256",
          "name": "totalTokensInPositions",
          "type": "uint256"
        }
      ],
      "name": "setTotalInPositions",
      "outputs": [],
      "stateMutability": "nonpayable",
      "type": "function"
    },
    {
      "inputs": [],
      "name": "getTotalTokensInPositions",
      "outputs": [
        {
          "internalType": "uint256",
          "name": "",
          "type": "uint256"
        }
      ],
      "stateMutability": "view",
      "type": "function",
      "constant": true
    },
    {
      "inputs": [],
      "name": "totalSupply",
      "outputs": [
        {
          "internalType": "uint256",
          "name": "",
          "type": "uint256"
        }
      ],
      "stateMutability": "view",
      "type": "function",
      "constant": true
    },
    {
      "inputs": [
        {
          "internalType": "address",
          "name": "to",
          "type": "address"
        },
        {
          "internalType": "uint256",
          "name": "amount",
          "type": "uint256"
        }
      ],
      "name": "mint",
      "outputs": [],
      "stateMutability": "nonpayable",
      "type": "function"
    },
    {
      "inputs": [
        {
          "internalType": "address",
          "name": "from",
          "type": "address"
        },
        {
          "internalType": "uint256",
          "name": "amount",
          "type": "uint256"
        }
      ],
      "name": "burn",
      "outputs": [],
      "stateMutability": "nonpayable",
      "type": "function"
    },
    {
      "inputs": [],
      "name": "pause",
      "outputs": [],
      "stateMutability": "nonpayable",
      "type": "function"
    },
    {
      "inputs": [],
      "name": "unpause",
      "outputs": [],
      "stateMutability": "nonpayable",
      "type": "function"
    }
  ],
  "bytecode": "0x608060405234801561001057600080fd5b50611dee806100206000396000f3fe608060405234801561001057600080fd5b50600436106101da5760003560e01c806385f993c611610104578063a9059cbb116100a2578063dd62ed3e11610071578063dd62ed3e1461041c578063e5160f8014610455578063e63ab1e914610468578063f45edb5f1461048f57600080fd5b8063a9059cbb146103bc578063c4d66de8146103cf578063cae6a37d146103e2578063d5391393146103f557600080fd5b806395d89b41116100de57806395d89b411461038657806397226ece1461038e5780639dc29fac14610396578063a457c2d7146103a957600080fd5b806385f993c6146103405780638ac203a71461034857806395a5d2921461035b57600080fd5b8063313ce5671161017c57806340c10f191161014b57806340c10f19146102f15780635c975abb1461030457806370a082311461030f5780638456cb591461033857600080fd5b8063313ce567146102ba57806339509351146102c95780633ba2e566146102dc5780633f4ba83a146102e757600080fd5b806318160ddd116101b857806318160ddd14610251578063206b60f91461025957806323b872dd14610280578063282c51f31461029357600080fd5b80630529fec2146101df57806306fdde0314610219578063095ea7b31461022e575b600080fd5b6102067f976f69c4d3b65478fca9223fe0ed1b2522bde010f2060b8733f0ed5e916f496481565b6040519081526020015b60405180910390f35b6102216104a4565b6040516102109190611b08565b61024161023c366004611b79565b610536565b6040519015158152602001610210565b61020661054e565b6102067f8502233096d909befbda0999bb8ea2f3a6be3c138b9fbf003752a4c8bce86f6c81565b61024161028e366004611ba3565b610578565b6102067f3c11d16cbaffd01df69ce1c404f6340ee057498f5f00246190ea54220576a84881565b60405160128152602001610210565b6102416102d7366004611b79565b61059c565b60cc5460ff16610241565b6102ef6105db565b005b6102ef6102ff366004611b79565b6106ee565b60655460ff16610241565b61020661031d366004611bdf565b6001600160a01b031660009081526033602052604090205490565b6102ef6107fd565b60cb54610206565b6102ef610356366004611c01565b610907565b60c95461036e906001600160a01b031681565b6040516001600160a01b039091168152602001610210565b6102216109f6565b60ca54610206565b6102ef6103a4366004611b79565b610a05565b6102416103b7366004611b79565b610b10565b6102416103ca366004611b79565b610ba2565b6102ef6103dd366004611bdf565b610bb0565b6102ef6103f0366004611c2b565b610cc8565b6102067f9f2df0fed2c77648de5860a4cc508cd0818c85b8b8a1ab4ceeef8d981c8956a681565b61020661042a366004611c48565b6001600160a01b03918216600090815260346020908152604080832093909416825291909152205490565b6102ef610463366004611c01565b610dcc565b6102067f65d7a28e3265b37a6474929f336521b332c1681b933f6cb9f3376673440d862a81565b610206600080516020611d9983398151915281565b6060603680546104b390611c7b565b80601f01602080910402602001604051908101604052809291908181526020018280546104df90611c7b565b801561052c5780601f106105015761010080835404028352916020019161052c565b820191906000526020600020905b81548152906001019060200180831161050f57829003601f168201915b5050505050905090565b600033610544818585610ebb565b5060019392505050565b600060cb5460ca5461055f60355490565b6105699190611ccc565b6105739190611ccc565b905090565b600033610586858285610fe0565b610591858585611072565b506001949350505050565b3360008181526034602090815260408083206001600160a01b038716845290915281205490919061054490829086906105d6908790611ccc565b610ebb565b60c9546001600160a01b03166391d148547f65d7a28e3265b37a6474929f336521b332c1681b933f6cb9f3376673440d862a336040516001600160e01b031960e085901b16815260048101929092526001600160a01b03166024820152604401602060405180830381865afa158015610658573d6000803e3d6000fd5b505050506040513d601f19601f8201168201806040525081019061067c9190611ce4565b6106e45760405162461bcd60e51b815260206004820152602e60248201527f4d6f7270686572546f6b656e3a206d757374206861766520706175736572207260448201526d6f6c6520746f20756e706175736560901b60648201526084015b60405180910390fd5b6106ec61124b565b565b60c9546001600160a01b03166391d148547f9f2df0fed2c77648de5860a4cc508cd0818c85b8b8a1ab4ceeef8d981c8956a6336040516001600160e01b031960e085901b16815260048101929092526001600160a01b03166024820152604401602060405180830381865afa15801561076b573d6000803e3d6000fd5b505050506040513d601f19601f8201168201806040525081019061078f9190611ce4565b6107ef5760405162461bcd60e51b815260206004820152602b60248201527f4d6f7270686572546f6b656e3a206d7573742068617665206d696e746572207260448201526a1bdb19481d1bc81b5a5b9d60aa1b60648201526084016106db565b6107f982826112de565b5050565b60c9546001600160a01b03166391d148547f65d7a28e3265b37a6474929f336521b332c1681b933f6cb9f3376673440d862a336040516001600160e01b031960e085901b16815260048101929092526001600160a01b03166024820152604401602060405180830381865afa15801561087a573d6000803e3d6000fd5b505050506040513d601f19601f8201168201806040525081019061089e9190611ce4565b6108ff5760405162461bcd60e51b815260206004820152602c60248201527f4d6f7270686572546f6b656e3a206d757374206861766520706175736572207260448201526b6f6c6520746f20706175736560a01b60648201526084016106db565b6106ec6113c9565b60c954600080516020611d99833981519152906001600160a01b03166391d1485482336040516001600160e01b031960e085901b16815260048101929092526001600160a01b03166024820152604401602060405180830381865afa158015610974573d6000803e3d6000fd5b505050506040513d601f19601f820116820180604052508101906109989190611ce4565b6109b45760405162461bcd60e51b81526004016106db90611d01565b60cb5460408051918252602082018490527f403593c572c4e2016cd93550e0260e82ab507a5ce5c9604f7c1fe84192f7649d910160405180910390a15060ca55565b6060603780546104b390611c7b565b60c9546001600160a01b03166391d148547f3c11d16cbaffd01df69ce1c404f6340ee057498f5f00246190ea54220576a848336040516001600160e01b031960e085901b16815260048101929092526001600160a01b03166024820152604401602060405180830381865afa158015610a82573d6000803e3d6000fd5b505050506040513d601f19601f82011682018060405250810190610aa69190611ce4565b610b065760405162461bcd60e51b815260206004820152602b60248201527f4d6f7270686572546f6b656e3a206d7573742068617665206275726e6572207260448201526a37b632903a3790313ab93760a91b60648201526084016106db565b6107f98282611444565b3360008181526034602090815260408083206001600160a01b038716845290915281205490919083811015610b955760405162461bcd60e51b815260206004820152602560248201527f45524332303a2064656372656173656420616c6c6f77616e63652062656c6f77604482015264207a65726f60d81b60648201526084016106db565b6105918286868403610ebb565b600033610544818585611072565b600054610100900460ff16610bcb5760005460ff1615610bcf565b303b155b610c325760405162461bcd60e51b815260206004820152602e60248201527f496e697469616c697a61626c653a20636f6e747261637420697320616c72656160448201526d191e481a5b9a5d1a585b1a5e995960921b60648201526084016106db565b600054610100900460ff16158015610c54576000805461ffff19166101011790555b610c986040518060400160405280600781526020016626b7b9383432b960c91b8152506040518060400160405280600381526020016209aa0960eb1b81525061159b565b60c980546001600160a01b0319166001600160a01b03841617905580156107f9576000805461ff00191690555050565b60c954600080516020611d99833981519152906001600160a01b03166391d1485482336040516001600160e01b031960e085901b16815260048101929092526001600160a01b03166024820152604401602060405180830381865afa158015610d35573d6000803e3d6000fd5b505050506040513d601f19601f82011682018060405250810190610d599190611ce4565b610d755760405162461bcd60e51b81526004016106db90611d01565b60cc546040805160ff9092161515825283151560208301527f031b7076ea69cc7c069abb5b40b40971da5a280ca9d1c3bda1e25e69b2e72abb910160405180910390a15060cc805460ff1916911515919091179055565b60c954600080516020611d99833981519152906001600160a01b03166391d1485482336040516001600160e01b031960e085901b16815260048101929092526001600160a01b03166024820152604401602060405180830381865afa158015610e39573d6000803e3d6000fd5b505050506040513d601f19601f82011682018060405250810190610e5d9190611ce4565b610e795760405162461bcd60e51b81526004016106db90611d01565b60cb5460408051918252602082018490527f9be715265056d01e32a5a436e7cf9bd1e204862153232c5ccdd5bbb72f5ea944910160405180910390a15060cb55565b6001600160a01b038316610f1d5760405162461bcd60e51b8152602060048201526024808201527f45524332303a20617070726f76652066726f6d20746865207a65726f206164646044820152637265737360e01b60648201526084016106db565b6001600160a01b038216610f7e5760405162461bcd60e51b815260206004820152602260248201527f45524332303a20617070726f766520746f20746865207a65726f206164647265604482015261737360f01b60648201526084016106db565b6001600160a01b0383811660008181526034602090815260408083209487168084529482529182902085905590518481527f8c5be1e5ebec7d5bd14f71427d1e84f3dd0314c0f7b2291e5b200ac8c7c3b92591015b60405180910390a3505050565b6001600160a01b03838116600090815260346020908152604080832093861683529290522054600019811461106c578181101561105f5760405162461bcd60e51b815260206004820152601d60248201527f45524332303a20696e73756666696369656e7420616c6c6f77616e636500000060448201526064016106db565b61106c8484848403610ebb565b50505050565b6001600160a01b0383166110d65760405162461bcd60e51b815260206004820152602560248201527f45524332303a207472616e736665722066726f6d20746865207a65726f206164604482015264647265737360d81b60648201526084016106db565b6001600160a01b0382166111385760405162461bcd60e51b815260206004820152602360248201527f45524332303a207472616e7366657220746f20746865207a65726f206164647260448201526265737360e81b60648201526084016106db565b6111438383836115cc565b6001600160a01b038316600090815260336020526040902054818110156111bb5760405162461bcd60e51b815260206004820152602660248201527f45524332303a207472616e7366657220616d6f756e7420657863656564732062604482015265616c616e636560d01b60648201526084016106db565b6001600160a01b038085166000908152603360205260408082208585039055918516815290812080548492906111f2908490611ccc565b92505081905550826001600160a01b0316846001600160a01b03167fddf252ad1be2c89b69c2b068fc378daa952ba7f163c4a11628f55a4df523b3ef8460405161123e91815260200190565b60405180910390a361106c565b60655460ff166112945760405162461bcd60e51b815260206004820152601460248201527314185d5cd8589b194e881b9bdd081c185d5cd95960621b60448201526064016106db565b6065805460ff191690557f5db9ee0a495bf2e6ff9c91a7834c1ba4fdd244a5e8aa4e537bd38aeae4b073aa335b6040516001600160a01b03909116815260200160405180910390a1565b6001600160a01b0382166113345760405162461bcd60e51b815260206004820152601f60248201527f45524332303a206d696e7420746f20746865207a65726f20616464726573730060448201526064016106db565b611340600083836115cc565b80603560008282546113529190611ccc565b90915550506001600160a01b0382166000908152603360205260408120805483929061137f908490611ccc565b90915550506040518181526001600160a01b038316906000907fddf252ad1be2c89b69c2b068fc378daa952ba7f163c4a11628f55a4df523b3ef9060200160405180910390a35050565b60655460ff161561140f5760405162461bcd60e51b815260206004820152601060248201526f14185d5cd8589b194e881c185d5cd95960821b60448201526064016106db565b6065805460ff191660011790557f62e78cea01bee320cd4e420270b5ea74000d11b0c9f74754ebdbfc544b05a2586112c13390565b6001600160a01b0382166114a45760405162461bcd60e51b815260206004820152602160248201527f45524332303a206275726e2066726f6d20746865207a65726f206164647265736044820152607360f81b60648201526084016106db565b6114b0826000836115cc565b6001600160a01b038216600090815260336020526040902054818110156115245760405162461bcd60e51b815260206004820152602260248201527f45524332303a206275726e20616d6f756e7420657863656564732062616c616e604482015261636560f01b60648201526084016106db565b6001600160a01b0383166000908152603360205260408120838303905560358054849290611553908490611d36565b90915550506040518281526000906001600160a01b038516907fddf252ad1be2c89b69c2b068fc378daa952ba7f163c4a11628f55a4df523b3ef90602001610fd3565b505050565b600054610100900460ff166115c25760405162461bcd60e51b81526004016106db90611d4d565b6107f982826119bb565b60cc5460ff16158061167a575060c9546001600160a01b03166391d148547f8502233096d909befbda0999bb8ea2f3a6be3c138b9fbf003752a4c8bce86f6c336040516001600160e01b031960e085901b16815260048101929092526001600160a01b03166024820152604401602060405180830381865afa158015611656573d6000803e3d6000fd5b505050506040513d601f19601f8201168201806040525081019061167a9190611ce4565b80611721575060c9546001600160a01b03166391d148547f9f2df0fed2c77648de5860a4cc508cd0818c85b8b8a1ab4ceeef8d981c8956a6336040516001600160e01b031960e085901b16815260048101929092526001600160a01b03166024820152604401602060405180830381865afa1580156116fd573d6000803e3d6000fd5b505050506040513d601f19601f820116820180604052508101906117219190611ce4565b806117c8575060c9546001600160a01b03166391d148547f3c11d16cbaffd01df69ce1c404f6340ee057498f5f00246190ea54220576a848336040516001600160e01b031960e085901b16815260048101929092526001600160a01b03166024820152604401602060405180830381865afa1580156117a4573d6000803e3d6000fd5b505050506040513d601f19601f820116820180604052508101906117c89190611ce4565b80611862575060c954604051632474521560e21b81527f8502233096d909befbda0999bb8ea2f3a6be3c138b9fbf003752a4c8bce86f6c60048201526001600160a01b038581166024830152909116906391d1485490604401602060405180830381865afa15801561183e573d6000803e3d6000fd5b505050506040513d601f19601f820116820180604052508101906118629190611ce4565b6118ae5760405162461bcd60e51b815260206004820152601d60248201527f4d6f7270686572546f6b656e3a205472616e736665722064656e69656400000060448201526064016106db565b60c9546001600160a01b03166391d148547f976f69c4d3b65478fca9223fe0ed1b2522bde010f2060b8733f0ed5e916f4964336040516001600160e01b031960e085901b16815260048101929092526001600160a01b03166024820152604401602060405180830381865afa15801561192b573d6000803e3d6000fd5b505050506040513d601f19601f8201168201806040525081019061194f9190611ce4565b156119b05760405162461bcd60e51b815260206004820152602b60248201527f4d6f7270686572546f6b656e3a205472616e7366657220666f7220557365722060448201526a34b990313637b1b5b2b21760a91b60648201526084016106db565b611596838383611a09565b600054610100900460ff166119e25760405162461bcd60e51b81526004016106db90611d4d565b81516119f5906036906020850190611a6f565b508051611596906037906020840190611a6f565b60655460ff16156115965760405162461bcd60e51b815260206004820152602a60248201527f45524332305061757361626c653a20746f6b656e207472616e736665722077686044820152691a5b19481c185d5cd95960b21b60648201526084016106db565b828054611a7b90611c7b565b90600052602060002090601f016020900481019282611a9d5760008555611ae3565b82601f10611ab657805160ff1916838001178555611ae3565b82800160010185558215611ae3579182015b82811115611ae3578251825591602001919060010190611ac8565b50611aef929150611af3565b5090565b5b80821115611aef5760008155600101611af4565b600060208083528351808285015260005b81811015611b3557858101830151858201604001528201611b19565b81811115611b47576000604083870101525b50601f01601f1916929092016040019392505050565b80356001600160a01b0381168114611b7457600080fd5b919050565b60008060408385031215611b8c57600080fd5b611b9583611b5d565b946020939093013593505050565b600080600060608486031215611bb857600080fd5b611bc184611b5d565b9250611bcf60208501611b5d565b9150604084013590509250925092565b600060208284031215611bf157600080fd5b611bfa82611b5d565b9392505050565b600060208284031215611c1357600080fd5b5035919050565b8015158114611c2857600080fd5b50565b600060208284031215611c3d57600080fd5b8135611bfa81611c1a565b60008060408385031215611c5b57600080fd5b611c6483611b5d565b9150611c7260208401611b5d565b90509250929050565b600181811c90821680611c8f57607f821691505b60208210811415611cb057634e487b7160e01b600052602260045260246000fd5b50919050565b634e487b7160e01b600052601160045260246000fd5b60008219821115611cdf57611cdf611cb6565b500190565b600060208284031215611cf657600080fd5b8151611bfa81611c1a565b6020808252818101527f4d6f7270686572546f6b656e3a205065726d697373696f6e2064656e6965642e604082015260600190565b600082821015611d4857611d48611cb6565b500390565b6020808252602b908201527f496e697469616c697a61626c653a20636f6e7472616374206973206e6f74206960408201526a6e697469616c697a696e6760a81b60608201526080019056fee5a0b4d50f56047f84728557fedbda92f956391bc9d5c762e8461996dd8e7ad7a2646970667358221220569df549d12f195223ee6dc1fdd8262dbf453ae1acadcc5408c141dc0a4dd26c64736f6c634300080b0033",
  "immutableReferences": {},
  "source": "//SPDX-License-Identifier: GPLv3\npragma solidity 0.8.11;\n\nimport \"@openzeppelin/contracts-upgradeable/token/ERC20/ERC20Upgradeable.sol\";\nimport \"@openzeppelin/contracts-upgradeable/token/ERC20/extensions/ERC20PausableUpgradeable.sol\";\nimport \"./MorpherAccessControl.sol\";\n\ncontract MorpherToken is ERC20Upgradeable, ERC20PausableUpgradeable {\n\n    MorpherAccessControl public morpherAccessControl;\n    \n    bytes32 public constant MINTER_ROLE = keccak256(\"MINTER_ROLE\");\n    bytes32 public constant BURNER_ROLE = keccak256(\"BURNER_ROLE\");\n    bytes32 public constant PAUSER_ROLE = keccak256(\"PAUSER_ROLE\");\n    bytes32 public constant ADMINISTRATOR_ROLE = keccak256(\"ADMINISTRATOR_ROLE\");\n    bytes32 public constant TRANSFER_ROLE = keccak256(\"TRANSFER_ROLE\");\n    bytes32 public constant TRANSFERBLOCKED_ROLE = keccak256(\"TRANSFERBLOCKED_ROLE\");\n\n    uint256 private _totalTokensOnOtherChain;\n    uint256 private _totalTokensInPositions;\n    bool private _restrictTransfers;\n\n    event SetTotalTokensOnOtherChain(uint256 _oldValue, uint256 _newValue);\n    event SetTotalTokensInPositions(uint256 _oldValue, uint256 _newValue);\n    event SetRestrictTransfers(bool _oldValue, bool _newValue);\n\n    function initialize(address _morpherAccessControl) public initializer {\n        ERC20Upgradeable.__ERC20_init(\"Morpher\", \"MPH\");\n        morpherAccessControl = MorpherAccessControl(_morpherAccessControl);\n    }\n\n    modifier onlyRole(bytes32 role) {\n        require(morpherAccessControl.hasRole(role, _msgSender()), \"MorpherToken: Permission denied.\");\n        _;\n    }\n\n    // function getMorpherAccessControl() public view returns(address) {\n    //     return address(morpherAccessControl);\n    // }\n\n    function setRestrictTransfers(bool restrictTransfers) public onlyRole(ADMINISTRATOR_ROLE) {\n        emit SetRestrictTransfers(_restrictTransfers, restrictTransfers);\n        _restrictTransfers = restrictTransfers;\n    }\n\n    function getRestrictTransfers() public view returns(bool) {\n        return _restrictTransfers;\n    }\n\n    function setTotalTokensOnOtherChain(uint256 totalOnOtherChain) public onlyRole(ADMINISTRATOR_ROLE) {\n        emit SetTotalTokensOnOtherChain(_totalTokensInPositions, totalOnOtherChain);\n        _totalTokensOnOtherChain = totalOnOtherChain;\n    }\n\n    function getTotalTokensOnOtherChain() public view returns(uint256) {\n        return _totalTokensOnOtherChain;\n    }\n\n    function setTotalInPositions(uint256 totalTokensInPositions) public onlyRole(ADMINISTRATOR_ROLE) {\n        emit SetTotalTokensInPositions(_totalTokensInPositions, totalTokensInPositions);\n        _totalTokensInPositions = totalTokensInPositions;\n    }\n\n    function getTotalTokensInPositions() public view returns(uint256) {\n        return _totalTokensInPositions;\n    }\n\n\n    \n    /**\n     * @dev See {IERC20-totalSupply}.\n     */\n    function totalSupply() public view virtual override returns (uint256) {\n        return super.totalSupply() + _totalTokensOnOtherChain + _totalTokensInPositions;\n    }\n\n\n    /**\n     * @dev Creates `amount` new tokens for `to`.\n     *\n     * See {ERC20-_mint}.\n     *\n     * Requirements:\n     *\n     * - the caller must have the `MINTER_ROLE`.\n     */\n    function mint(address to, uint256 amount) public virtual {\n        require(morpherAccessControl.hasRole(MINTER_ROLE, _msgSender()), \"MorpherToken: must have minter role to mint\");\n        _mint(to, amount);\n    }\n\n    /**\n     * @dev Burns `amount` of tokens for `from`.\n     *\n     * See {ERC20-_burn}.\n     *\n     * Requirements:\n     *\n     * - the caller must have the `BURNER_ROLE`.\n     */\n    function burn(address from, uint256 amount) public virtual {\n        require(morpherAccessControl.hasRole(BURNER_ROLE, _msgSender()), \"MorpherToken: must have burner role to burn\");\n        _burn(from, amount);\n    }\n\n    /**\n     * @dev Pauses all token transfers.\n     *\n     * See {ERC20Pausable} and {Pausable-_pause}.\n     *\n     * Requirements:\n     *\n     * - the caller must have the `PAUSER_ROLE`.\n     */\n    function pause() public virtual {\n        require(morpherAccessControl.hasRole(PAUSER_ROLE, _msgSender()), \"MorpherToken: must have pauser role to pause\");\n        _pause();\n    }\n\n    /**\n     * @dev Unpauses all token transfers.\n     *\n     * See {ERC20Pausable} and {Pausable-_unpause}.\n     *\n     * Requirements:\n     *\n     * - the caller must have the `PAUSER_ROLE`.\n     */\n    function unpause() public virtual {\n        require(morpherAccessControl.hasRole(PAUSER_ROLE, _msgSender()), \"MorpherToken: must have pauser role to unpause\");\n        _unpause();\n    }\n\n    function _beforeTokenTransfer(\n        address from,\n        address to,\n        uint256 amount\n    ) internal virtual override(ERC20Upgradeable, ERC20PausableUpgradeable) {\n        require(\n            !_restrictTransfers || \n            morpherAccessControl.hasRole(TRANSFER_ROLE, _msgSender()) || \n            morpherAccessControl.hasRole(MINTER_ROLE, _msgSender()) || \n            morpherAccessControl.hasRole(BURNER_ROLE, _msgSender()) || \n            morpherAccessControl.hasRole(TRANSFER_ROLE, from)\n            , \"MorpherToken: Transfer denied\");\n\n        require(!morpherAccessControl.hasRole(TRANSFERBLOCKED_ROLE, _msgSender()), \"MorpherToken: Transfer for User is blocked.\");\n\n        super._beforeTokenTransfer(from, to, amount);\n    }\n}\n\n",
  "sourcePath": "/home/thomas/MorpherProtocol/contracts/MorpherToken.sol",
  "compiler": {
    "name": "solc",
    "version": "0.8.11+commit.d7f03943.Emscripten.clang"
  },
  "schemaVersion": "3.4.5",
  "updatedAt": "2022-05-13T11:32:27.331Z",
  "networkType": "ethereum",
  "devdoc": {
    "kind": "dev",
    "methods": {
      "allowance(address,address)": {
        "details": "See {IERC20-allowance}."
      },
      "approve(address,uint256)": {
        "details": "See {IERC20-approve}. NOTE: If `amount` is the maximum `uint256`, the allowance is not updated on `transferFrom`. This is semantically equivalent to an infinite approval. Requirements: - `spender` cannot be the zero address."
      },
      "balanceOf(address)": {
        "details": "See {IERC20-balanceOf}."
      },
      "burn(address,uint256)": {
        "details": "Burns `amount` of tokens for `from`. See {ERC20-_burn}. Requirements: - the caller must have the `BURNER_ROLE`."
      },
      "decimals()": {
        "details": "Returns the number of decimals used to get its user representation. For example, if `decimals` equals `2`, a balance of `505` tokens should be displayed to a user as `5.05` (`505 / 10 ** 2`). Tokens usually opt for a value of 18, imitating the relationship between Ether and Wei. This is the value {ERC20} uses, unless this function is overridden; NOTE: This information is only used for _display_ purposes: it in no way affects any of the arithmetic of the contract, including {IERC20-balanceOf} and {IERC20-transfer}."
      },
      "decreaseAllowance(address,uint256)": {
        "details": "Atomically decreases the allowance granted to `spender` by the caller. This is an alternative to {approve} that can be used as a mitigation for problems described in {IERC20-approve}. Emits an {Approval} event indicating the updated allowance. Requirements: - `spender` cannot be the zero address. - `spender` must have allowance for the caller of at least `subtractedValue`."
      },
      "increaseAllowance(address,uint256)": {
        "details": "Atomically increases the allowance granted to `spender` by the caller. This is an alternative to {approve} that can be used as a mitigation for problems described in {IERC20-approve}. Emits an {Approval} event indicating the updated allowance. Requirements: - `spender` cannot be the zero address."
      },
      "mint(address,uint256)": {
        "details": "Creates `amount` new tokens for `to`. See {ERC20-_mint}. Requirements: - the caller must have the `MINTER_ROLE`."
      },
      "name()": {
        "details": "Returns the name of the token."
      },
      "pause()": {
        "details": "Pauses all token transfers. See {ERC20Pausable} and {Pausable-_pause}. Requirements: - the caller must have the `PAUSER_ROLE`."
      },
      "paused()": {
        "details": "Returns true if the contract is paused, and false otherwise."
      },
      "symbol()": {
        "details": "Returns the symbol of the token, usually a shorter version of the name."
      },
      "totalSupply()": {
        "details": "See {IERC20-totalSupply}."
      },
      "transfer(address,uint256)": {
        "details": "See {IERC20-transfer}. Requirements: - `to` cannot be the zero address. - the caller must have a balance of at least `amount`."
      },
      "transferFrom(address,address,uint256)": {
        "details": "See {IERC20-transferFrom}. Emits an {Approval} event indicating the updated allowance. This is not required by the EIP. See the note at the beginning of {ERC20}. NOTE: Does not update the allowance if the current allowance is the maximum `uint256`. Requirements: - `from` and `to` cannot be the zero address. - `from` must have a balance of at least `amount`. - the caller must have allowance for ``from``'s tokens of at least `amount`."
      },
      "unpause()": {
        "details": "Unpauses all token transfers. See {ERC20Pausable} and {Pausable-_unpause}. Requirements: - the caller must have the `PAUSER_ROLE`."
      }
    },
    "version": 1
  },
  "userdoc": {
    "kind": "user",
    "methods": {},
    "version": 1
  }
}