{
  "contractName": "MorpherUserBlocking",
  "abi": [
    {
      "inputs": [
        {
          "internalType": "address",
          "name": "_state",
          "type": "address"
        }
      ],
      "stateMutability": "nonpayable",
      "type": "constructor"
    },
    {
      "anonymous": false,
      "inputs": [
        {
          "indexed": false,
          "internalType": "address",
          "name": "_user",
          "type": "address"
        },
        {
          "indexed": false,
          "internalType": "bool",
          "name": "_oldIsBlocked",
          "type": "bool"
        },
        {
          "indexed": false,
          "internalType": "bool",
          "name": "_newIsBlocked",
          "type": "bool"
        }
      ],
      "name": "ChangeUserBlocked",
      "type": "event"
    },
    {
      "inputs": [
        {
          "internalType": "address",
          "name": "",
          "type": "address"
        }
      ],
      "name": "userIsBlocked",
      "outputs": [
        {
          "internalType": "bool",
          "name": "",
          "type": "bool"
        }
      ],
      "stateMutability": "view",
      "type": "function"
    },
    {
      "inputs": [
        {
          "internalType": "address",
          "name": "_user",
          "type": "address"
        },
        {
          "internalType": "bool",
          "name": "_isBlocked",
          "type": "bool"
        }
      ],
      "name": "setUserBlocked",
      "outputs": [],
      "stateMutability": "nonpayable",
      "type": "function"
    }
  ],
  "bytecode": "0x608060405234801561001057600080fd5b5060405161036e38038061036e83398101604081905261002f91610054565b600180546001600160a01b0319166001600160a01b0392909216919091179055610084565b60006020828403121561006657600080fd5b81516001600160a01b038116811461007d57600080fd5b9392505050565b6102db806100936000396000f3fe608060405234801561001057600080fd5b50600436106100365760003560e01c80632a8203c91461003b578063ac259ace14610050575b600080fd5b61004e610049366004610226565b610087565b005b61007361005e366004610264565b60006020819052908152604090205460ff1681565b604051901515815260200160405180910390f35b600160009054906101000a90046001600160a01b03166001600160a01b031663169674076040518163ffffffff1660e01b8152600401602060405180830381865afa1580156100da573d6000803e3d6000fd5b505050506040513d601f19601f820116820180604052508101906100fe9190610288565b6001600160a01b0316336001600160a01b0316146101885760405162461bcd60e51b815260206004820152603760248201527f55736572426c6f636b696e673a204f6e6c792041646d696e6973747261746f7260448201527f2063616e2063616c6c20746869732066756e6374696f6e000000000000000000606482015260840160405180910390fd5b6001600160a01b0382166000818152602081815260409182902054825193845260ff1615159083015282151582820152517f60642ac3e5c326cc9df8f7a56bc66480fa777b33774874ac42651853d9f43f3b9181900360600190a16001600160a01b03919091166000908152602081905260409020805460ff1916911515919091179055565b6001600160a01b038116811461022357600080fd5b50565b6000806040838503121561023957600080fd5b82356102448161020e565b91506020830135801515811461025957600080fd5b809150509250929050565b60006020828403121561027657600080fd5b81356102818161020e565b9392505050565b60006020828403121561029a57600080fd5b81516102818161020e56fea26469706673582212203e8d3b01127e62c0f1cb5d20da086893a645cc89420075988c3e275048bf264964736f6c634300080b0033",
  "immutableReferences": {},
  "source": "//SPDX-License-Identifier: GPLv3\r\npragma solidity 0.8.11;\r\n\r\nimport \"./MorpherState.sol\";\r\n\r\n\r\ncontract MorpherUserBlocking {\r\n    mapping(address => bool) public userIsBlocked;\r\n    MorpherState state;\r\n\r\n    event ChangeUserBlocked(address _user, bool _oldIsBlocked, bool _newIsBlocked);\r\n\r\n    constructor(address _state) {\r\n        state = MorpherState(_state);\r\n    }\r\n\r\n    modifier onlyAdministrator() {\r\n        require(msg.sender == state.getAdministrator(), \"UserBlocking: Only Administrator can call this function\");\r\n        _;\r\n    }\r\n\r\n    function setUserBlocked(address _user, bool _isBlocked) public onlyAdministrator {\r\n        emit ChangeUserBlocked(_user, userIsBlocked[_user], _isBlocked);\r\n        userIsBlocked[_user] = _isBlocked;\r\n    }\r\n}",
  "sourcePath": "/home/thomas/MorpherProtocol/contracts/MorpherUserBlocking.sol",
  "compiler": {
    "name": "solc",
    "version": "0.8.11+commit.d7f03943.Emscripten.clang"
  },
  "schemaVersion": "3.4.5",
  "updatedAt": "2022-03-03T15:03:23.843Z",
  "devdoc": {
    "kind": "dev",
    "methods": {},
    "version": 1
  },
  "userdoc": {
    "kind": "user",
    "methods": {},
    "version": 1
  }
}