{
  "contractName": "MorpherToken",
  "abi": [
    {
      "anonymous": false,
      "inputs": [
        {
          "indexed": true,
          "internalType": "address",
          "name": "owner",
          "type": "address"
        },
        {
          "indexed": true,
          "internalType": "address",
          "name": "spender",
          "type": "address"
        },
        {
          "indexed": false,
          "internalType": "uint256",
          "name": "value",
          "type": "uint256"
        }
      ],
      "name": "Approval",
      "type": "event"
    },
    {
      "anonymous": false,
      "inputs": [
        {
          "indexed": false,
          "internalType": "uint8",
          "name": "version",
          "type": "uint8"
        }
      ],
      "name": "Initialized",
      "type": "event"
    },
    {
      "anonymous": false,
      "inputs": [
        {
          "indexed": false,
          "internalType": "address",
          "name": "account",
          "type": "address"
        }
      ],
      "name": "Paused",
      "type": "event"
    },
    {
      "anonymous": false,
      "inputs": [
        {
          "indexed": false,
          "internalType": "bool",
          "name": "_oldValue",
          "type": "bool"
        },
        {
          "indexed": false,
          "internalType": "bool",
          "name": "_newValue",
          "type": "bool"
        }
      ],
      "name": "SetRestrictTransfers",
      "type": "event"
    },
    {
      "anonymous": false,
      "inputs": [
        {
          "indexed": false,
          "internalType": "uint256",
          "name": "_oldValue",
          "type": "uint256"
        },
        {
          "indexed": false,
          "internalType": "uint256",
          "name": "_newValue",
          "type": "uint256"
        }
      ],
      "name": "SetTotalTokensInPositions",
      "type": "event"
    },
    {
      "anonymous": false,
      "inputs": [
        {
          "indexed": false,
          "internalType": "uint256",
          "name": "_oldValue",
          "type": "uint256"
        },
        {
          "indexed": false,
          "internalType": "uint256",
          "name": "_newValue",
          "type": "uint256"
        }
      ],
      "name": "SetTotalTokensOnOtherChain",
      "type": "event"
    },
    {
      "anonymous": false,
      "inputs": [
        {
          "indexed": true,
          "internalType": "address",
          "name": "from",
          "type": "address"
        },
        {
          "indexed": true,
          "internalType": "address",
          "name": "to",
          "type": "address"
        },
        {
          "indexed": false,
          "internalType": "uint256",
          "name": "value",
          "type": "uint256"
        }
      ],
      "name": "Transfer",
      "type": "event"
    },
    {
      "anonymous": false,
      "inputs": [
        {
          "indexed": false,
          "internalType": "address",
          "name": "account",
          "type": "address"
        }
      ],
      "name": "Unpaused",
      "type": "event"
    },
    {
      "inputs": [],
      "name": "ADMINISTRATOR_ROLE",
      "outputs": [
        {
          "internalType": "bytes32",
          "name": "",
          "type": "bytes32"
        }
      ],
      "stateMutability": "view",
      "type": "function",
      "constant": true
    },
    {
      "inputs": [],
      "name": "BURNER_ROLE",
      "outputs": [
        {
          "internalType": "bytes32",
          "name": "",
          "type": "bytes32"
        }
      ],
      "stateMutability": "view",
      "type": "function",
      "constant": true
    },
    {
      "inputs": [],
      "name": "MINTER_ROLE",
      "outputs": [
        {
          "internalType": "bytes32",
          "name": "",
          "type": "bytes32"
        }
      ],
      "stateMutability": "view",
      "type": "function",
      "constant": true
    },
    {
      "inputs": [],
      "name": "PAUSER_ROLE",
      "outputs": [
        {
          "internalType": "bytes32",
          "name": "",
          "type": "bytes32"
        }
      ],
      "stateMutability": "view",
      "type": "function",
      "constant": true
    },
    {
      "inputs": [],
      "name": "POLYGONMINTER_ROLE",
      "outputs": [
        {
          "internalType": "bytes32",
          "name": "",
          "type": "bytes32"
        }
      ],
      "stateMutability": "view",
      "type": "function",
      "constant": true
    },
    {
      "inputs": [],
      "name": "TOKENUPDATER_ROLE",
      "outputs": [
        {
          "internalType": "bytes32",
          "name": "",
          "type": "bytes32"
        }
      ],
      "stateMutability": "view",
      "type": "function",
      "constant": true
    },
    {
      "inputs": [],
      "name": "TRANSFERBLOCKED_ROLE",
      "outputs": [
        {
          "internalType": "bytes32",
          "name": "",
          "type": "bytes32"
        }
      ],
      "stateMutability": "view",
      "type": "function",
      "constant": true
    },
    {
      "inputs": [],
      "name": "TRANSFER_ROLE",
      "outputs": [
        {
          "internalType": "bytes32",
          "name": "",
          "type": "bytes32"
        }
      ],
      "stateMutability": "view",
      "type": "function",
      "constant": true
    },
    {
      "inputs": [
        {
          "internalType": "address",
          "name": "owner",
          "type": "address"
        },
        {
          "internalType": "address",
          "name": "spender",
          "type": "address"
        }
      ],
      "name": "allowance",
      "outputs": [
        {
          "internalType": "uint256",
          "name": "",
          "type": "uint256"
        }
      ],
      "stateMutability": "view",
      "type": "function",
      "constant": true
    },
    {
      "inputs": [
        {
          "internalType": "address",
          "name": "spender",
          "type": "address"
        },
        {
          "internalType": "uint256",
          "name": "amount",
          "type": "uint256"
        }
      ],
      "name": "approve",
      "outputs": [
        {
          "internalType": "bool",
          "name": "",
          "type": "bool"
        }
      ],
      "stateMutability": "nonpayable",
      "type": "function"
    },
    {
      "inputs": [
        {
          "internalType": "address",
          "name": "account",
          "type": "address"
        }
      ],
      "name": "balanceOf",
      "outputs": [
        {
          "internalType": "uint256",
          "name": "",
          "type": "uint256"
        }
      ],
      "stateMutability": "view",
      "type": "function",
      "constant": true
    },
    {
      "inputs": [],
      "name": "decimals",
      "outputs": [
        {
          "internalType": "uint8",
          "name": "",
          "type": "uint8"
        }
      ],
      "stateMutability": "view",
      "type": "function",
      "constant": true
    },
    {
      "inputs": [
        {
          "internalType": "address",
          "name": "spender",
          "type": "address"
        },
        {
          "internalType": "uint256",
          "name": "subtractedValue",
          "type": "uint256"
        }
      ],
      "name": "decreaseAllowance",
      "outputs": [
        {
          "internalType": "bool",
          "name": "",
          "type": "bool"
        }
      ],
      "stateMutability": "nonpayable",
      "type": "function"
    },
    {
      "inputs": [
        {
          "internalType": "address",
          "name": "spender",
          "type": "address"
        },
        {
          "internalType": "uint256",
          "name": "addedValue",
          "type": "uint256"
        }
      ],
      "name": "increaseAllowance",
      "outputs": [
        {
          "internalType": "bool",
          "name": "",
          "type": "bool"
        }
      ],
      "stateMutability": "nonpayable",
      "type": "function"
    },
    {
      "inputs": [],
      "name": "morpherAccessControl",
      "outputs": [
        {
          "internalType": "contract MorpherAccessControl",
          "name": "",
          "type": "address"
        }
      ],
      "stateMutability": "view",
      "type": "function",
      "constant": true
    },
    {
      "inputs": [],
      "name": "name",
      "outputs": [
        {
          "internalType": "string",
          "name": "",
          "type": "string"
        }
      ],
      "stateMutability": "view",
      "type": "function",
      "constant": true
    },
    {
      "inputs": [],
      "name": "paused",
      "outputs": [
        {
          "internalType": "bool",
          "name": "",
          "type": "bool"
        }
      ],
      "stateMutability": "view",
      "type": "function",
      "constant": true
    },
    {
      "inputs": [],
      "name": "symbol",
      "outputs": [
        {
          "internalType": "string",
          "name": "",
          "type": "string"
        }
      ],
      "stateMutability": "view",
      "type": "function",
      "constant": true
    },
    {
      "inputs": [
        {
          "internalType": "address",
          "name": "to",
          "type": "address"
        },
        {
          "internalType": "uint256",
          "name": "amount",
          "type": "uint256"
        }
      ],
      "name": "transfer",
      "outputs": [
        {
          "internalType": "bool",
          "name": "",
          "type": "bool"
        }
      ],
      "stateMutability": "nonpayable",
      "type": "function"
    },
    {
      "inputs": [
        {
          "internalType": "address",
          "name": "from",
          "type": "address"
        },
        {
          "internalType": "address",
          "name": "to",
          "type": "address"
        },
        {
          "internalType": "uint256",
          "name": "amount",
          "type": "uint256"
        }
      ],
      "name": "transferFrom",
      "outputs": [
        {
          "internalType": "bool",
          "name": "",
          "type": "bool"
        }
      ],
      "stateMutability": "nonpayable",
      "type": "function"
    },
    {
      "inputs": [
        {
          "internalType": "address",
          "name": "_morpherAccessControl",
          "type": "address"
        }
      ],
      "name": "initialize",
      "outputs": [],
      "stateMutability": "nonpayable",
      "type": "function"
    },
    {
      "inputs": [
        {
          "internalType": "bool",
          "name": "restrictTransfers",
          "type": "bool"
        }
      ],
      "name": "setRestrictTransfers",
      "outputs": [],
      "stateMutability": "nonpayable",
      "type": "function"
    },
    {
      "inputs": [],
      "name": "getRestrictTransfers",
      "outputs": [
        {
          "internalType": "bool",
          "name": "",
          "type": "bool"
        }
      ],
      "stateMutability": "view",
      "type": "function",
      "constant": true
    },
    {
      "inputs": [
        {
          "internalType": "uint256",
          "name": "totalOnOtherChain",
          "type": "uint256"
        }
      ],
      "name": "setTotalTokensOnOtherChain",
      "outputs": [],
      "stateMutability": "nonpayable",
      "type": "function"
    },
    {
      "inputs": [],
      "name": "getTotalTokensOnOtherChain",
      "outputs": [
        {
          "internalType": "uint256",
          "name": "",
          "type": "uint256"
        }
      ],
      "stateMutability": "view",
      "type": "function",
      "constant": true
    },
    {
      "inputs": [
        {
          "internalType": "uint256",
          "name": "totalTokensInPositions",
          "type": "uint256"
        }
      ],
      "name": "setTotalInPositions",
      "outputs": [],
      "stateMutability": "nonpayable",
      "type": "function"
    },
    {
      "inputs": [],
      "name": "getTotalTokensInPositions",
      "outputs": [
        {
          "internalType": "uint256",
          "name": "",
          "type": "uint256"
        }
      ],
      "stateMutability": "view",
      "type": "function",
      "constant": true
    },
    {
      "inputs": [],
      "name": "totalSupply",
      "outputs": [
        {
          "internalType": "uint256",
          "name": "",
          "type": "uint256"
        }
      ],
      "stateMutability": "view",
      "type": "function",
      "constant": true
    },
    {
      "inputs": [
        {
          "internalType": "address",
          "name": "user",
          "type": "address"
        },
        {
          "internalType": "bytes",
          "name": "depositData",
          "type": "bytes"
        }
      ],
      "name": "deposit",
      "outputs": [],
      "stateMutability": "nonpayable",
      "type": "function"
    },
    {
      "inputs": [
        {
          "internalType": "uint256",
          "name": "amount",
          "type": "uint256"
        }
      ],
      "name": "withdraw",
      "outputs": [],
      "stateMutability": "nonpayable",
      "type": "function"
    },
    {
      "inputs": [
        {
          "internalType": "address",
          "name": "to",
          "type": "address"
        },
        {
          "internalType": "uint256",
          "name": "amount",
          "type": "uint256"
        }
      ],
      "name": "mint",
      "outputs": [],
      "stateMutability": "nonpayable",
      "type": "function"
    },
    {
      "inputs": [
        {
          "internalType": "address",
          "name": "from",
          "type": "address"
        },
        {
          "internalType": "uint256",
          "name": "amount",
          "type": "uint256"
        }
      ],
      "name": "burn",
      "outputs": [],
      "stateMutability": "nonpayable",
      "type": "function"
    },
    {
      "inputs": [],
      "name": "pause",
      "outputs": [],
      "stateMutability": "nonpayable",
      "type": "function"
    },
    {
      "inputs": [],
      "name": "unpause",
      "outputs": [],
      "stateMutability": "nonpayable",
      "type": "function"
    }
  ],
  "bytecode": "0x608060405234801561000f575f80fd5b5061212a8061001d5f395ff3fe608060405234801561000f575f80fd5b50600436106101fd575f3560e01c806385f993c611610114578063c4d66de8116100a9578063d539139311610079578063d53913931461048a578063dd62ed3e146104b1578063e5160f80146104c4578063e63ab1e9146104d7578063f45edb5f146104fe575f80fd5b8063c4d66de81461042a578063c4f33a5e1461043d578063cae6a37d14610464578063cf2c52cb14610477575f80fd5b806397226ece116100e457806397226ece146103e95780639dc29fac146103f1578063a457c2d714610404578063a9059cbb14610417575f80fd5b806385f993c61461039b5780638ac203a7146103a357806395a5d292146103b657806395d89b41146103e1575f80fd5b8063313ce5671161019557806340c10f191161016557806340c10f19146103265780635c975abb1461033957806370a08231146103445780637599a3931461036c5780638456cb5914610393575f80fd5b8063313ce567146102f157806339509351146103005780633ba2e566146103135780633f4ba83a1461031e575f80fd5b8063206b60f9116101d0578063206b60f91461027b57806323b872dd146102a2578063282c51f3146102b55780632e1a7d4d146102dc575f80fd5b80630529fec21461020157806306fdde031461023b578063095ea7b31461025057806318160ddd14610273575b5f80fd5b6102287f976f69c4d3b65478fca9223fe0ed1b2522bde010f2060b8733f0ed5e916f496481565b6040519081526020015b60405180910390f35b610243610525565b6040516102329190611cab565b61026361025e366004611d0c565b6105b5565b6040519015158152602001610232565b6102286105ce565b6102287f8502233096d909befbda0999bb8ea2f3a6be3c138b9fbf003752a4c8bce86f6c81565b6102636102b0366004611d34565b6105f7565b6102287f3c11d16cbaffd01df69ce1c404f6340ee057498f5f00246190ea54220576a84881565b6102ef6102ea366004611d6d565b61061a565b005b60405160128152602001610232565b61026361030e366004611d0c565b6106ee565b60cc5460ff16610263565b6102ef61070f565b6102ef610334366004611d0c565b61081b565b60655460ff16610263565b610228610352366004611d84565b6001600160a01b03165f9081526033602052604090205490565b6102287f8f9b87baaf0dcf6097cd12d17d5a30d81dfb97be0fd6e19c2ba4376afd55a3a981565b6102ef610924565b60cb54610228565b6102ef6103b1366004611d6d565b610a2c565b60c9546103c9906001600160a01b031681565b6040516001600160a01b039091168152602001610232565b610243610b2b565b60ca54610228565b6102ef6103ff366004611d0c565b610b3a565b610263610412366004611d0c565b610c43565b610263610425366004611d0c565b610cbd565b6102ef610438366004611d84565b610cca565b6102287f22060b5f5e80cc25f73a2ae7f4b9389213d436da9a0db76b0bf57fa95eddf87d81565b6102ef610472366004611db4565b610d93565b6102ef610485366004611dcf565b610ea7565b6102287f9f2df0fed2c77648de5860a4cc508cd0818c85b8b8a1ab4ceeef8d981c8956a681565b6102286104bf366004611e4b565b610f84565b6102ef6104d2366004611d6d565b610fae565b6102287f65d7a28e3265b37a6474929f336521b332c1681b933f6cb9f3376673440d862a81565b6102287fe5a0b4d50f56047f84728557fedbda92f956391bc9d5c762e8461996dd8e7ad781565b60606036805461053490611e7c565b80601f016020809104026020016040519081016040528092919081815260200182805461056090611e7c565b80156105ab5780601f10610582576101008083540402835291602001916105ab565b820191905f5260205f20905b81548152906001019060200180831161058e57829003601f168201915b5050505050905090565b5f336105c28185856110ad565b60019150505b92915050565b5f60cb5460ca546105de60355490565b6105e89190611ec8565b6105f29190611ec8565b905090565b5f336106048582856111d1565b61060f858585611249565b506001949350505050565b60c9547f22060b5f5e80cc25f73a2ae7f4b9389213d436da9a0db76b0bf57fa95eddf87d906001600160a01b03166391d1485482336040516001600160e01b031960e085901b16815260048101929092526001600160a01b03166024820152604401602060405180830381865afa158015610697573d5f803e3d5ffd5b505050506040513d601f19601f820116820180604052508101906106bb9190611edb565b6106e05760405162461bcd60e51b81526004016106d790611ef6565b60405180910390fd5b6106ea3383611420565b5050565b5f336105c28185856107008383610f84565b61070a9190611ec8565b6110ad565b60c9546001600160a01b03166391d148547f65d7a28e3265b37a6474929f336521b332c1681b933f6cb9f3376673440d862a336040516001600160e01b031960e085901b16815260048101929092526001600160a01b03166024820152604401602060405180830381865afa15801561078a573d5f803e3d5ffd5b505050506040513d601f19601f820116820180604052508101906107ae9190611edb565b6108115760405162461bcd60e51b815260206004820152602e60248201527f4d6f7270686572546f6b656e3a206d757374206861766520706175736572207260448201526d6f6c6520746f20756e706175736560901b60648201526084016106d7565b610819611573565b565b60c9546001600160a01b03166391d148547f9f2df0fed2c77648de5860a4cc508cd0818c85b8b8a1ab4ceeef8d981c8956a6336040516001600160e01b031960e085901b16815260048101929092526001600160a01b03166024820152604401602060405180830381865afa158015610896573d5f803e3d5ffd5b505050506040513d601f19601f820116820180604052508101906108ba9190611edb565b61091a5760405162461bcd60e51b815260206004820152602b60248201527f4d6f7270686572546f6b656e3a206d7573742068617665206d696e746572207260448201526a1bdb19481d1bc81b5a5b9d60aa1b60648201526084016106d7565b6106ea8282611606565b60c9546001600160a01b03166391d148547f65d7a28e3265b37a6474929f336521b332c1681b933f6cb9f3376673440d862a336040516001600160e01b031960e085901b16815260048101929092526001600160a01b03166024820152604401602060405180830381865afa15801561099f573d5f803e3d5ffd5b505050506040513d601f19601f820116820180604052508101906109c39190611edb565b610a245760405162461bcd60e51b815260206004820152602c60248201527f4d6f7270686572546f6b656e3a206d757374206861766520706175736572207260448201526b6f6c6520746f20706175736560a01b60648201526084016106d7565b6108196116ed565b60c9547f8f9b87baaf0dcf6097cd12d17d5a30d81dfb97be0fd6e19c2ba4376afd55a3a9906001600160a01b03166391d1485482336040516001600160e01b031960e085901b16815260048101929092526001600160a01b03166024820152604401602060405180830381865afa158015610aa9573d5f803e3d5ffd5b505050506040513d601f19601f82011682018060405250810190610acd9190611edb565b610ae95760405162461bcd60e51b81526004016106d790611ef6565b60cb5460408051918252602082018490527f403593c572c4e2016cd93550e0260e82ab507a5ce5c9604f7c1fe84192f7649d910160405180910390a15060ca55565b60606037805461053490611e7c565b60c9546001600160a01b03166391d148547f3c11d16cbaffd01df69ce1c404f6340ee057498f5f00246190ea54220576a848336040516001600160e01b031960e085901b16815260048101929092526001600160a01b03166024820152604401602060405180830381865afa158015610bb5573d5f803e3d5ffd5b505050506040513d601f19601f82011682018060405250810190610bd99190611edb565b610c395760405162461bcd60e51b815260206004820152602b60248201527f4d6f7270686572546f6b656e3a206d7573742068617665206275726e6572207260448201526a37b632903a3790313ab93760a91b60648201526084016106d7565b6106ea8282611420565b5f3381610c508286610f84565b905083811015610cb05760405162461bcd60e51b815260206004820152602560248201527f45524332303a2064656372656173656420616c6c6f77616e63652062656c6f77604482015264207a65726f60d81b60648201526084016106d7565b61060f82868684036110ad565b5f336105c2818585611249565b5f610cd56001611768565b90508015610cec575f805461ff0019166101001790555b610d306040518060400160405280600781526020016626b7b9383432b960c91b8152506040518060400160405280600381526020016209aa0960eb1b8152506117f1565b60c980546001600160a01b0319166001600160a01b03841617905580156106ea575f805461ff0019169055604051600181527f7f26b83ff96e1f2b6a682f133852f6798a09c465da95921460cefb38474024989060200160405180910390a15050565b60c9547fe5a0b4d50f56047f84728557fedbda92f956391bc9d5c762e8461996dd8e7ad7906001600160a01b03166391d1485482336040516001600160e01b031960e085901b16815260048101929092526001600160a01b03166024820152604401602060405180830381865afa158015610e10573d5f803e3d5ffd5b505050506040513d601f19601f82011682018060405250810190610e349190611edb565b610e505760405162461bcd60e51b81526004016106d790611ef6565b60cc546040805160ff9092161515825283151560208301527f031b7076ea69cc7c069abb5b40b40971da5a280ca9d1c3bda1e25e69b2e72abb910160405180910390a15060cc805460ff1916911515919091179055565b60c9547f22060b5f5e80cc25f73a2ae7f4b9389213d436da9a0db76b0bf57fa95eddf87d906001600160a01b03166391d1485482336040516001600160e01b031960e085901b16815260048101929092526001600160a01b03166024820152604401602060405180830381865afa158015610f24573d5f803e3d5ffd5b505050506040513d601f19601f82011682018060405250810190610f489190611edb565b610f645760405162461bcd60e51b81526004016106d790611ef6565b5f610f7183850185611d6d565b9050610f7d8582611606565b5050505050565b6001600160a01b039182165f90815260346020908152604080832093909416825291909152205490565b60c9547f8f9b87baaf0dcf6097cd12d17d5a30d81dfb97be0fd6e19c2ba4376afd55a3a9906001600160a01b03166391d1485482336040516001600160e01b031960e085901b16815260048101929092526001600160a01b03166024820152604401602060405180830381865afa15801561102b573d5f803e3d5ffd5b505050506040513d601f19601f8201168201806040525081019061104f9190611edb565b61106b5760405162461bcd60e51b81526004016106d790611ef6565b60cb5460408051918252602082018490527f9be715265056d01e32a5a436e7cf9bd1e204862153232c5ccdd5bbb72f5ea944910160405180910390a15060cb55565b6001600160a01b03831661110f5760405162461bcd60e51b8152602060048201526024808201527f45524332303a20617070726f76652066726f6d20746865207a65726f206164646044820152637265737360e01b60648201526084016106d7565b6001600160a01b0382166111705760405162461bcd60e51b815260206004820152602260248201527f45524332303a20617070726f766520746f20746865207a65726f206164647265604482015261737360f01b60648201526084016106d7565b6001600160a01b038381165f8181526034602090815260408083209487168084529482529182902085905590518481527f8c5be1e5ebec7d5bd14f71427d1e84f3dd0314c0f7b2291e5b200ac8c7c3b92591015b60405180910390a3505050565b5f6111dc8484610f84565b90505f19811461124357818110156112365760405162461bcd60e51b815260206004820152601d60248201527f45524332303a20696e73756666696369656e7420616c6c6f77616e636500000060448201526064016106d7565b61124384848484036110ad565b50505050565b6001600160a01b0383166112ad5760405162461bcd60e51b815260206004820152602560248201527f45524332303a207472616e736665722066726f6d20746865207a65726f206164604482015264647265737360d81b60648201526084016106d7565b6001600160a01b03821661130f5760405162461bcd60e51b815260206004820152602360248201527f45524332303a207472616e7366657220746f20746865207a65726f206164647260448201526265737360e81b60648201526084016106d7565b61131a838383611821565b6001600160a01b0383165f90815260336020526040902054818110156113915760405162461bcd60e51b815260206004820152602660248201527f45524332303a207472616e7366657220616d6f756e7420657863656564732062604482015265616c616e636560d01b60648201526084016106d7565b6001600160a01b038085165f908152603360205260408082208585039055918516815290812080548492906113c7908490611ec8565b92505081905550826001600160a01b0316846001600160a01b03167fddf252ad1be2c89b69c2b068fc378daa952ba7f163c4a11628f55a4df523b3ef8460405161141391815260200190565b60405180910390a3611243565b6001600160a01b0382166114805760405162461bcd60e51b815260206004820152602160248201527f45524332303a206275726e2066726f6d20746865207a65726f206164647265736044820152607360f81b60648201526084016106d7565b61148b825f83611821565b6001600160a01b0382165f90815260336020526040902054818110156114fe5760405162461bcd60e51b815260206004820152602260248201527f45524332303a206275726e20616d6f756e7420657863656564732062616c616e604482015261636560f01b60648201526084016106d7565b6001600160a01b0383165f90815260336020526040812083830390556035805484929061152c908490611f2b565b90915550506040518281525f906001600160a01b038516907fddf252ad1be2c89b69c2b068fc378daa952ba7f163c4a11628f55a4df523b3ef906020016111c4565b505050565b60655460ff166115bc5760405162461bcd60e51b815260206004820152601460248201527314185d5cd8589b194e881b9bdd081c185d5cd95960621b60448201526064016106d7565b6065805460ff191690557f5db9ee0a495bf2e6ff9c91a7834c1ba4fdd244a5e8aa4e537bd38aeae4b073aa335b6040516001600160a01b03909116815260200160405180910390a1565b6001600160a01b03821661165c5760405162461bcd60e51b815260206004820152601f60248201527f45524332303a206d696e7420746f20746865207a65726f20616464726573730060448201526064016106d7565b6116675f8383611821565b8060355f8282546116789190611ec8565b90915550506001600160a01b0382165f90815260336020526040812080548392906116a4908490611ec8565b90915550506040518181526001600160a01b038316905f907fddf252ad1be2c89b69c2b068fc378daa952ba7f163c4a11628f55a4df523b3ef9060200160405180910390a35050565b60655460ff16156117335760405162461bcd60e51b815260206004820152601060248201526f14185d5cd8589b194e881c185d5cd95960821b60448201526064016106d7565b6065805460ff191660011790557f62e78cea01bee320cd4e420270b5ea74000d11b0c9f74754ebdbfc544b05a2586115e93390565b5f8054610100900460ff16156117ad578160ff16600114801561178a5750303b155b6117a65760405162461bcd60e51b81526004016106d790611f3e565b505f919050565b5f5460ff8084169116106117d35760405162461bcd60e51b81526004016106d790611f3e565b505f805460ff191660ff92909216919091179055600190565b919050565b5f54610100900460ff166118175760405162461bcd60e51b81526004016106d790611f8c565b6106ea8282611c06565b60cc5460ff1615806118cd575060c9546001600160a01b03166391d148547f8502233096d909befbda0999bb8ea2f3a6be3c138b9fbf003752a4c8bce86f6c336040516001600160e01b031960e085901b16815260048101929092526001600160a01b03166024820152604401602060405180830381865afa1580156118a9573d5f803e3d5ffd5b505050506040513d601f19601f820116820180604052508101906118cd9190611edb565b80611972575060c9546001600160a01b03166391d148547f9f2df0fed2c77648de5860a4cc508cd0818c85b8b8a1ab4ceeef8d981c8956a6336040516001600160e01b031960e085901b16815260048101929092526001600160a01b03166024820152604401602060405180830381865afa15801561194e573d5f803e3d5ffd5b505050506040513d601f19601f820116820180604052508101906119729190611edb565b80611a17575060c9546001600160a01b03166391d148547f3c11d16cbaffd01df69ce1c404f6340ee057498f5f00246190ea54220576a848336040516001600160e01b031960e085901b16815260048101929092526001600160a01b03166024820152604401602060405180830381865afa1580156119f3573d5f803e3d5ffd5b505050506040513d601f19601f82011682018060405250810190611a179190611edb565b80611aaf575060c954604051632474521560e21b81527f8502233096d909befbda0999bb8ea2f3a6be3c138b9fbf003752a4c8bce86f6c60048201526001600160a01b038581166024830152909116906391d1485490604401602060405180830381865afa158015611a8b573d5f803e3d5ffd5b505050506040513d601f19601f82011682018060405250810190611aaf9190611edb565b611afb5760405162461bcd60e51b815260206004820152601d60248201527f4d6f7270686572546f6b656e3a205472616e736665722064656e69656400000060448201526064016106d7565b60c9546001600160a01b03166391d148547f976f69c4d3b65478fca9223fe0ed1b2522bde010f2060b8733f0ed5e916f4964336040516001600160e01b031960e085901b16815260048101929092526001600160a01b03166024820152604401602060405180830381865afa158015611b76573d5f803e3d5ffd5b505050506040513d601f19601f82011682018060405250810190611b9a9190611edb565b15611bfb5760405162461bcd60e51b815260206004820152602b60248201527f4d6f7270686572546f6b656e3a205472616e7366657220666f7220557365722060448201526a34b990313637b1b5b2b21760a91b60648201526084016106d7565b61156e838383611c45565b5f54610100900460ff16611c2c5760405162461bcd60e51b81526004016106d790611f8c565b6036611c388382612038565b50603761156e8282612038565b60655460ff161561156e5760405162461bcd60e51b815260206004820152602a60248201527f45524332305061757361626c653a20746f6b656e207472616e736665722077686044820152691a5b19481c185d5cd95960b21b60648201526084016106d7565b5f6020808352835180828501525f5b81811015611cd657858101830151858201604001528201611cba565b505f604082860101526040601f19601f8301168501019250505092915050565b80356001600160a01b03811681146117ec575f80fd5b5f8060408385031215611d1d575f80fd5b611d2683611cf6565b946020939093013593505050565b5f805f60608486031215611d46575f80fd5b611d4f84611cf6565b9250611d5d60208501611cf6565b9150604084013590509250925092565b5f60208284031215611d7d575f80fd5b5035919050565b5f60208284031215611d94575f80fd5b611d9d82611cf6565b9392505050565b8015158114611db1575f80fd5b50565b5f60208284031215611dc4575f80fd5b8135611d9d81611da4565b5f805f60408486031215611de1575f80fd5b611dea84611cf6565b9250602084013567ffffffffffffffff80821115611e06575f80fd5b818601915086601f830112611e19575f80fd5b813581811115611e27575f80fd5b876020828501011115611e38575f80fd5b6020830194508093505050509250925092565b5f8060408385031215611e5c575f80fd5b611e6583611cf6565b9150611e7360208401611cf6565b90509250929050565b600181811c90821680611e9057607f821691505b602082108103611eae57634e487b7160e01b5f52602260045260245ffd5b50919050565b634e487b7160e01b5f52601160045260245ffd5b808201808211156105c8576105c8611eb4565b5f60208284031215611eeb575f80fd5b8151611d9d81611da4565b6020808252818101527f4d6f7270686572546f6b656e3a205065726d697373696f6e2064656e6965642e604082015260600190565b818103818111156105c8576105c8611eb4565b6020808252602e908201527f496e697469616c697a61626c653a20636f6e747261637420697320616c72656160408201526d191e481a5b9a5d1a585b1a5e995960921b606082015260800190565b6020808252602b908201527f496e697469616c697a61626c653a20636f6e7472616374206973206e6f74206960408201526a6e697469616c697a696e6760a81b606082015260800190565b634e487b7160e01b5f52604160045260245ffd5b601f82111561156e575f81815260208120601f850160051c810160208610156120115750805b601f850160051c820191505b818110156120305782815560010161201d565b505050505050565b815167ffffffffffffffff81111561205257612052611fd7565b612066816120608454611e7c565b84611feb565b602080601f831160018114612099575f84156120825750858301515b5f19600386901b1c1916600185901b178555612030565b5f85815260208120601f198616915b828110156120c7578886015182559484019460019091019084016120a8565b50858210156120e457878501515f19600388901b60f8161c191681555b5050505050600190811b0190555056fea26469706673582212203eaff8295414e83aa7ac4acbc39b5cbbd21784f1accb8df918b10e2c1f9ed1dd64736f6c63430008140033",
  "immutableReferences": {},
  "source": "//SPDX-License-Identifier: GPLv3\npragma solidity ^0.8.11;\n\nimport \"@openzeppelin/contracts-upgradeable/token/ERC20/ERC20Upgradeable.sol\";\nimport \"@openzeppelin/contracts-upgradeable/token/ERC20/extensions/ERC20PausableUpgradeable.sol\";\nimport \"./MorpherAccessControl.sol\";\n\ncontract MorpherToken is ERC20Upgradeable, ERC20PausableUpgradeable {\n\n    MorpherAccessControl public morpherAccessControl;\n    \n    bytes32 public constant MINTER_ROLE = keccak256(\"MINTER_ROLE\");\n    bytes32 public constant BURNER_ROLE = keccak256(\"BURNER_ROLE\");\n    bytes32 public constant PAUSER_ROLE = keccak256(\"PAUSER_ROLE\");\n    bytes32 public constant ADMINISTRATOR_ROLE = keccak256(\"ADMINISTRATOR_ROLE\");\n    bytes32 public constant TRANSFER_ROLE = keccak256(\"TRANSFER_ROLE\");\n    bytes32 public constant TRANSFERBLOCKED_ROLE = keccak256(\"TRANSFERBLOCKED_ROLE\");\n    bytes32 public constant POLYGONMINTER_ROLE = keccak256(\"POLYGONMINTER_ROLE\");\n    bytes32 public constant TOKENUPDATER_ROLE = keccak256(\"TOKENUPDATER_ROLE\");\n\n    uint256 private _totalTokensOnOtherChain;\n    uint256 private _totalTokensInPositions;\n    bool private _restrictTransfers;\n\n    event SetTotalTokensOnOtherChain(uint256 _oldValue, uint256 _newValue);\n    event SetTotalTokensInPositions(uint256 _oldValue, uint256 _newValue);\n    event SetRestrictTransfers(bool _oldValue, bool _newValue);\n\n    function initialize(address _morpherAccessControl) public initializer {\n        ERC20Upgradeable.__ERC20_init(\"Morpher\", \"MPH\");\n        morpherAccessControl = MorpherAccessControl(_morpherAccessControl);\n    }\n\n    modifier onlyRole(bytes32 role) {\n        require(morpherAccessControl.hasRole(role, _msgSender()), \"MorpherToken: Permission denied.\");\n        _;\n    }\n\n    // function getMorpherAccessControl() public view returns(address) {\n    //     return address(morpherAccessControl);\n    // }\n\n    function setRestrictTransfers(bool restrictTransfers) public onlyRole(ADMINISTRATOR_ROLE) {\n        emit SetRestrictTransfers(_restrictTransfers, restrictTransfers);\n        _restrictTransfers = restrictTransfers;\n    }\n\n    function getRestrictTransfers() public view returns(bool) {\n        return _restrictTransfers;\n    }\n\n    function setTotalTokensOnOtherChain(uint256 totalOnOtherChain) public onlyRole(TOKENUPDATER_ROLE) {\n        emit SetTotalTokensOnOtherChain(_totalTokensInPositions, totalOnOtherChain);\n        _totalTokensOnOtherChain = totalOnOtherChain;\n    }\n\n    function getTotalTokensOnOtherChain() public view returns(uint256) {\n        return _totalTokensOnOtherChain;\n    }\n\n    function setTotalInPositions(uint256 totalTokensInPositions) public onlyRole(TOKENUPDATER_ROLE) {\n        emit SetTotalTokensInPositions(_totalTokensInPositions, totalTokensInPositions);\n        _totalTokensInPositions = totalTokensInPositions;\n    }\n\n    function getTotalTokensInPositions() public view returns(uint256) {\n        return _totalTokensInPositions;\n    }\n\n\n    \n    /**\n     * @dev See {IERC20-totalSupply}.\n     */\n    function totalSupply() public view virtual override returns (uint256) {\n        return super.totalSupply() + _totalTokensOnOtherChain + _totalTokensInPositions;\n    }\n\n    function deposit(address user, bytes calldata depositData) external onlyRole(POLYGONMINTER_ROLE) {\n        uint256 amount = abi.decode(depositData, (uint256));\n        _mint(user, amount);\n    }\n\n    function withdraw(uint256 amount) external onlyRole(POLYGONMINTER_ROLE) {\n        _burn(msg.sender, amount);\n    }\n\n\n    /**\n     * @dev Creates `amount` new tokens for `to`.\n     *\n     * See {ERC20-_mint}.\n     *\n     * Requirements:\n     *\n     * - the caller must have the `MINTER_ROLE`.\n     */\n    function mint(address to, uint256 amount) public virtual {\n        require(morpherAccessControl.hasRole(MINTER_ROLE, _msgSender()), \"MorpherToken: must have minter role to mint\");\n        _mint(to, amount);\n    }\n\n    /**\n     * @dev Burns `amount` of tokens for `from`.\n     *\n     * See {ERC20-_burn}.\n     *\n     * Requirements:\n     *\n     * - the caller must have the `BURNER_ROLE`.\n     */\n    function burn(address from, uint256 amount) public virtual {\n        require(morpherAccessControl.hasRole(BURNER_ROLE, _msgSender()), \"MorpherToken: must have burner role to burn\");\n        _burn(from, amount);\n    }\n\n    /**\n     * @dev Pauses all token transfers.\n     *\n     * See {ERC20Pausable} and {Pausable-_pause}.\n     *\n     * Requirements:\n     *\n     * - the caller must have the `PAUSER_ROLE`.\n     */\n    function pause() public virtual {\n        require(morpherAccessControl.hasRole(PAUSER_ROLE, _msgSender()), \"MorpherToken: must have pauser role to pause\");\n        _pause();\n    }\n\n    /**\n     * @dev Unpauses all token transfers.\n     *\n     * See {ERC20Pausable} and {Pausable-_unpause}.\n     *\n     * Requirements:\n     *\n     * - the caller must have the `PAUSER_ROLE`.\n     */\n    function unpause() public virtual {\n        require(morpherAccessControl.hasRole(PAUSER_ROLE, _msgSender()), \"MorpherToken: must have pauser role to unpause\");\n        _unpause();\n    }\n\n    function _beforeTokenTransfer(\n        address from,\n        address to,\n        uint256 amount\n    ) internal virtual override(ERC20Upgradeable, ERC20PausableUpgradeable) {\n        require(\n            !_restrictTransfers || \n            morpherAccessControl.hasRole(TRANSFER_ROLE, _msgSender()) || \n            morpherAccessControl.hasRole(MINTER_ROLE, _msgSender()) || \n            morpherAccessControl.hasRole(BURNER_ROLE, _msgSender()) || \n            morpherAccessControl.hasRole(TRANSFER_ROLE, from)\n            , \"MorpherToken: Transfer denied\");\n\n        require(!morpherAccessControl.hasRole(TRANSFERBLOCKED_ROLE, _msgSender()), \"MorpherToken: Transfer for User is blocked.\");\n\n        super._beforeTokenTransfer(from, to, amount);\n    }\n}\n\n",
  "sourcePath": "/Users/thomas/Projects/Morpher/MorpherProtocol/contracts/MorpherToken.sol",
  "compiler": {
    "name": "solc",
    "version": "0.8.20+commit.a1b79de6.Emscripten.clang"
  },
  "schemaVersion": "3.4.16",
  "updatedAt": "2024-01-12T14:12:11.719Z",
  "networkType": "ethereum",
  "devdoc": {
    "events": {
      "Approval(address,address,uint256)": {
        "details": "Emitted when the allowance of a `spender` for an `owner` is set by a call to {approve}. `value` is the new allowance."
      },
      "Initialized(uint8)": {
        "details": "Triggered when the contract has been initialized or reinitialized."
      },
      "Paused(address)": {
        "details": "Emitted when the pause is triggered by `account`."
      },
      "Transfer(address,address,uint256)": {
        "details": "Emitted when `value` tokens are moved from one account (`from`) to another (`to`). Note that `value` may be zero."
      },
      "Unpaused(address)": {
        "details": "Emitted when the pause is lifted by `account`."
      }
    },
    "kind": "dev",
    "methods": {
      "allowance(address,address)": {
        "details": "See {IERC20-allowance}."
      },
      "approve(address,uint256)": {
        "details": "See {IERC20-approve}. NOTE: If `amount` is the maximum `uint256`, the allowance is not updated on `transferFrom`. This is semantically equivalent to an infinite approval. Requirements: - `spender` cannot be the zero address."
      },
      "balanceOf(address)": {
        "details": "See {IERC20-balanceOf}."
      },
      "burn(address,uint256)": {
        "details": "Burns `amount` of tokens for `from`. See {ERC20-_burn}. Requirements: - the caller must have the `BURNER_ROLE`."
      },
      "decimals()": {
        "details": "Returns the number of decimals used to get its user representation. For example, if `decimals` equals `2`, a balance of `505` tokens should be displayed to a user as `5.05` (`505 / 10 ** 2`). Tokens usually opt for a value of 18, imitating the relationship between Ether and Wei. This is the value {ERC20} uses, unless this function is overridden; NOTE: This information is only used for _display_ purposes: it in no way affects any of the arithmetic of the contract, including {IERC20-balanceOf} and {IERC20-transfer}."
      },
      "decreaseAllowance(address,uint256)": {
        "details": "Atomically decreases the allowance granted to `spender` by the caller. This is an alternative to {approve} that can be used as a mitigation for problems described in {IERC20-approve}. Emits an {Approval} event indicating the updated allowance. Requirements: - `spender` cannot be the zero address. - `spender` must have allowance for the caller of at least `subtractedValue`."
      },
      "increaseAllowance(address,uint256)": {
        "details": "Atomically increases the allowance granted to `spender` by the caller. This is an alternative to {approve} that can be used as a mitigation for problems described in {IERC20-approve}. Emits an {Approval} event indicating the updated allowance. Requirements: - `spender` cannot be the zero address."
      },
      "mint(address,uint256)": {
        "details": "Creates `amount` new tokens for `to`. See {ERC20-_mint}. Requirements: - the caller must have the `MINTER_ROLE`."
      },
      "name()": {
        "details": "Returns the name of the token."
      },
      "pause()": {
        "details": "Pauses all token transfers. See {ERC20Pausable} and {Pausable-_pause}. Requirements: - the caller must have the `PAUSER_ROLE`."
      },
      "paused()": {
        "details": "Returns true if the contract is paused, and false otherwise."
      },
      "symbol()": {
        "details": "Returns the symbol of the token, usually a shorter version of the name."
      },
      "totalSupply()": {
        "details": "See {IERC20-totalSupply}."
      },
      "transfer(address,uint256)": {
        "details": "See {IERC20-transfer}. Requirements: - `to` cannot be the zero address. - the caller must have a balance of at least `amount`."
      },
      "transferFrom(address,address,uint256)": {
        "details": "See {IERC20-transferFrom}. Emits an {Approval} event indicating the updated allowance. This is not required by the EIP. See the note at the beginning of {ERC20}. NOTE: Does not update the allowance if the current allowance is the maximum `uint256`. Requirements: - `from` and `to` cannot be the zero address. - `from` must have a balance of at least `amount`. - the caller must have allowance for ``from``'s tokens of at least `amount`."
      },
      "unpause()": {
        "details": "Unpauses all token transfers. See {ERC20Pausable} and {Pausable-_unpause}. Requirements: - the caller must have the `PAUSER_ROLE`."
      }
    },
    "version": 1
  },
  "userdoc": {
    "kind": "user",
    "methods": {},
    "version": 1
  }
}