{
  "contractName": "MorpherState",
  "abi": [
    {
      "anonymous": false,
      "inputs": [
        {
          "indexed": true,
          "internalType": "uint256",
          "name": "rewardsTime",
          "type": "uint256"
        }
      ],
      "name": "LastRewardTime",
      "type": "event"
    },
    {
      "anonymous": false,
      "inputs": [
        {
          "indexed": true,
          "internalType": "bytes32",
          "name": "activateMarket",
          "type": "bytes32"
        }
      ],
      "name": "MarketActivated",
      "type": "event"
    },
    {
      "anonymous": false,
      "inputs": [
        {
          "indexed": true,
          "internalType": "bytes32",
          "name": "deActivateMarket",
          "type": "bytes32"
        }
      ],
      "name": "MarketDeActivated",
      "type": "event"
    },
    {
      "anonymous": false,
      "inputs": [
        {
          "indexed": false,
          "internalType": "uint256",
          "name": "maxLeverage",
          "type": "uint256"
        }
      ],
      "name": "MaximumLeverageChange",
      "type": "event"
    },
    {
      "anonymous": false,
      "inputs": [
        {
          "indexed": true,
          "internalType": "address",
          "name": "recipient",
          "type": "address"
        },
        {
          "indexed": false,
          "internalType": "uint256",
          "name": "amount",
          "type": "uint256"
        }
      ],
      "name": "OperatingRewardMinted",
      "type": "event"
    },
    {
      "anonymous": false,
      "inputs": [
        {
          "indexed": true,
          "internalType": "address",
          "name": "rewardsAddress",
          "type": "address"
        },
        {
          "indexed": true,
          "internalType": "uint256",
          "name": "rewardsBasisPoints",
          "type": "uint256"
        }
      ],
      "name": "RewardsChange",
      "type": "event"
    },
    {
      "anonymous": false,
      "inputs": [
        {
          "indexed": false,
          "internalType": "address",
          "name": "_oldAddress",
          "type": "address"
        },
        {
          "indexed": false,
          "internalType": "address",
          "name": "_newAddress",
          "type": "address"
        }
      ],
      "name": "SetMorpherAccessControlAddress",
      "type": "event"
    },
    {
      "anonymous": false,
      "inputs": [
        {
          "indexed": false,
          "internalType": "address",
          "name": "_oldAddress",
          "type": "address"
        },
        {
          "indexed": false,
          "internalType": "address",
          "name": "_newAddress",
          "type": "address"
        }
      ],
      "name": "SetMorpherAirdropAddress",
      "type": "event"
    },
    {
      "anonymous": false,
      "inputs": [
        {
          "indexed": false,
          "internalType": "address",
          "name": "_oldAddress",
          "type": "address"
        },
        {
          "indexed": false,
          "internalType": "address",
          "name": "_newAddress",
          "type": "address"
        }
      ],
      "name": "SetMorpherBridgeAddress",
      "type": "event"
    },
    {
      "anonymous": false,
      "inputs": [
        {
          "indexed": false,
          "internalType": "address",
          "name": "_oldAddress",
          "type": "address"
        },
        {
          "indexed": false,
          "internalType": "address",
          "name": "_newAddress",
          "type": "address"
        }
      ],
      "name": "SetMorpherFaucetAddress",
      "type": "event"
    },
    {
      "anonymous": false,
      "inputs": [
        {
          "indexed": false,
          "internalType": "address",
          "name": "_oldAddress",
          "type": "address"
        },
        {
          "indexed": false,
          "internalType": "address",
          "name": "_newAddress",
          "type": "address"
        }
      ],
      "name": "SetMorpherGovernanceAddress",
      "type": "event"
    },
    {
      "anonymous": false,
      "inputs": [
        {
          "indexed": false,
          "internalType": "address",
          "name": "_oldAddress",
          "type": "address"
        },
        {
          "indexed": false,
          "internalType": "address",
          "name": "_newAddress",
          "type": "address"
        }
      ],
      "name": "SetMorpherMintingLimiterAddress",
      "type": "event"
    },
    {
      "anonymous": false,
      "inputs": [
        {
          "indexed": false,
          "internalType": "address",
          "name": "_oldAddress",
          "type": "address"
        },
        {
          "indexed": false,
          "internalType": "address",
          "name": "_newAddress",
          "type": "address"
        }
      ],
      "name": "SetMorpherOracleAddress",
      "type": "event"
    },
    {
      "anonymous": false,
      "inputs": [
        {
          "indexed": false,
          "internalType": "address",
          "name": "_oldAddress",
          "type": "address"
        },
        {
          "indexed": false,
          "internalType": "address",
          "name": "_newAddress",
          "type": "address"
        }
      ],
      "name": "SetMorpherStakingAddress",
      "type": "event"
    },
    {
      "anonymous": false,
      "inputs": [
        {
          "indexed": false,
          "internalType": "address",
          "name": "_oldAddress",
          "type": "address"
        },
        {
          "indexed": false,
          "internalType": "address",
          "name": "_newAddress",
          "type": "address"
        }
      ],
      "name": "SetMorpherTokenAddress",
      "type": "event"
    },
    {
      "anonymous": false,
      "inputs": [
        {
          "indexed": false,
          "internalType": "address",
          "name": "_oldAddress",
          "type": "address"
        },
        {
          "indexed": false,
          "internalType": "address",
          "name": "_newAddress",
          "type": "address"
        }
      ],
      "name": "SetMorpherTradeEngineAddress",
      "type": "event"
    },
    {
      "anonymous": false,
      "inputs": [
        {
          "indexed": false,
          "internalType": "address",
          "name": "_oldAddress",
          "type": "address"
        },
        {
          "indexed": false,
          "internalType": "address",
          "name": "_newAddress",
          "type": "address"
        }
      ],
      "name": "SetMorpherUserBlockingAddress",
      "type": "event"
    },
    {
      "inputs": [],
      "name": "ADMINISTRATOR_ROLE",
      "outputs": [
        {
          "internalType": "bytes32",
          "name": "",
          "type": "bytes32"
        }
      ],
      "stateMutability": "view",
      "type": "function",
      "constant": true
    },
    {
      "inputs": [],
      "name": "DECIMALS",
      "outputs": [
        {
          "internalType": "uint256",
          "name": "",
          "type": "uint256"
        }
      ],
      "stateMutability": "view",
      "type": "function",
      "constant": true
    },
    {
      "inputs": [],
      "name": "GOVERNANCE_ROLE",
      "outputs": [
        {
          "internalType": "bytes32",
          "name": "",
          "type": "bytes32"
        }
      ],
      "stateMutability": "view",
      "type": "function",
      "constant": true
    },
    {
      "inputs": [],
      "name": "PLATFORM_ROLE",
      "outputs": [
        {
          "internalType": "bytes32",
          "name": "",
          "type": "bytes32"
        }
      ],
      "stateMutability": "view",
      "type": "function",
      "constant": true
    },
    {
      "inputs": [],
      "name": "PRECISION",
      "outputs": [
        {
          "internalType": "uint256",
          "name": "",
          "type": "uint256"
        }
      ],
      "stateMutability": "view",
      "type": "function",
      "constant": true
    },
    {
      "inputs": [],
      "name": "REWARDPERIOD",
      "outputs": [
        {
          "internalType": "uint256",
          "name": "",
          "type": "uint256"
        }
      ],
      "stateMutability": "view",
      "type": "function",
      "constant": true
    },
    {
      "inputs": [],
      "name": "lastRewardTime",
      "outputs": [
        {
          "internalType": "uint256",
          "name": "",
          "type": "uint256"
        }
      ],
      "stateMutability": "view",
      "type": "function",
      "constant": true
    },
    {
      "inputs": [],
      "name": "mainChainWithdrawLimit24",
      "outputs": [
        {
          "internalType": "uint256",
          "name": "",
          "type": "uint256"
        }
      ],
      "stateMutability": "view",
      "type": "function",
      "constant": true
    },
    {
      "inputs": [],
      "name": "maximumLeverage",
      "outputs": [
        {
          "internalType": "uint256",
          "name": "",
          "type": "uint256"
        }
      ],
      "stateMutability": "view",
      "type": "function",
      "constant": true
    },
    {
      "inputs": [],
      "name": "morpherAccessControlAddress",
      "outputs": [
        {
          "internalType": "address",
          "name": "",
          "type": "address"
        }
      ],
      "stateMutability": "view",
      "type": "function",
      "constant": true
    },
    {
      "inputs": [],
      "name": "morpherAirdropAddress",
      "outputs": [
        {
          "internalType": "address",
          "name": "",
          "type": "address"
        }
      ],
      "stateMutability": "view",
      "type": "function",
      "constant": true
    },
    {
      "inputs": [],
      "name": "morpherBridgeAddress",
      "outputs": [
        {
          "internalType": "address",
          "name": "",
          "type": "address"
        }
      ],
      "stateMutability": "view",
      "type": "function",
      "constant": true
    },
    {
      "inputs": [],
      "name": "morpherFaucetAddress",
      "outputs": [
        {
          "internalType": "address",
          "name": "",
          "type": "address"
        }
      ],
      "stateMutability": "view",
      "type": "function",
      "constant": true
    },
    {
      "inputs": [],
      "name": "morpherGovernanceAddress",
      "outputs": [
        {
          "internalType": "address",
          "name": "",
          "type": "address"
        }
      ],
      "stateMutability": "view",
      "type": "function",
      "constant": true
    },
    {
      "inputs": [],
      "name": "morpherMintingLimiterAddress",
      "outputs": [
        {
          "internalType": "address",
          "name": "",
          "type": "address"
        }
      ],
      "stateMutability": "view",
      "type": "function",
      "constant": true
    },
    {
      "inputs": [],
      "name": "morpherOracleAddress",
      "outputs": [
        {
          "internalType": "address",
          "name": "",
          "type": "address"
        }
      ],
      "stateMutability": "view",
      "type": "function",
      "constant": true
    },
    {
      "inputs": [],
      "name": "morpherRewards",
      "outputs": [
        {
          "internalType": "address",
          "name": "",
          "type": "address"
        }
      ],
      "stateMutability": "view",
      "type": "function",
      "constant": true
    },
    {
      "inputs": [],
      "name": "morpherStakingAddress",
      "outputs": [
        {
          "internalType": "address payable",
          "name": "",
          "type": "address"
        }
      ],
      "stateMutability": "view",
      "type": "function",
      "constant": true
    },
    {
      "inputs": [],
      "name": "morpherTokenAddress",
      "outputs": [
        {
          "internalType": "address",
          "name": "",
          "type": "address"
        }
      ],
      "stateMutability": "view",
      "type": "function",
      "constant": true
    },
    {
      "inputs": [],
      "name": "morpherTradeEngineAddress",
      "outputs": [
        {
          "internalType": "address",
          "name": "",
          "type": "address"
        }
      ],
      "stateMutability": "view",
      "type": "function",
      "constant": true
    },
    {
      "inputs": [],
      "name": "morpherUserBlockingAddress",
      "outputs": [
        {
          "internalType": "address",
          "name": "",
          "type": "address"
        }
      ],
      "stateMutability": "view",
      "type": "function",
      "constant": true
    },
    {
      "inputs": [],
      "name": "numberOfRequestsLimit",
      "outputs": [
        {
          "internalType": "uint256",
          "name": "",
          "type": "uint256"
        }
      ],
      "stateMutability": "view",
      "type": "function",
      "constant": true
    },
    {
      "inputs": [],
      "name": "rewardBasisPoints",
      "outputs": [
        {
          "internalType": "uint256",
          "name": "",
          "type": "uint256"
        }
      ],
      "stateMutability": "view",
      "type": "function",
      "constant": true
    },
    {
      "inputs": [],
      "name": "sideChainMerkleRoot",
      "outputs": [
        {
          "internalType": "bytes32",
          "name": "",
          "type": "bytes32"
        }
      ],
      "stateMutability": "view",
      "type": "function",
      "constant": true
    },
    {
      "inputs": [],
      "name": "sideChainMerkleRootWrittenAtTime",
      "outputs": [
        {
          "internalType": "uint256",
          "name": "",
          "type": "uint256"
        }
      ],
      "stateMutability": "view",
      "type": "function",
      "constant": true
    },
    {
      "inputs": [
        {
          "internalType": "bool",
          "name": "_mainChain",
          "type": "bool"
        },
        {
          "internalType": "address",
          "name": "_morpherAccessControlAddress",
          "type": "address"
        }
      ],
      "name": "initialize",
      "outputs": [],
      "stateMutability": "nonpayable",
      "type": "function"
    },
    {
      "inputs": [
        {
          "internalType": "address",
          "name": "_morpherAccessControlAddress",
          "type": "address"
        }
      ],
      "name": "setMorpherAccessControl",
      "outputs": [],
      "stateMutability": "nonpayable",
      "type": "function"
    },
    {
      "inputs": [
        {
          "internalType": "address",
          "name": "_morpherAirdropAddress",
          "type": "address"
        }
      ],
      "name": "setMorpherAirdrop",
      "outputs": [],
      "stateMutability": "nonpayable",
      "type": "function"
    },
    {
      "inputs": [
        {
          "internalType": "address",
          "name": "_morpherBridgeAddress",
          "type": "address"
        }
      ],
      "name": "setMorpherBridge",
      "outputs": [],
      "stateMutability": "nonpayable",
      "type": "function"
    },
    {
      "inputs": [
        {
          "internalType": "address",
          "name": "_morpherFaucetAddress",
          "type": "address"
        }
      ],
      "name": "setMorpherFaucet",
      "outputs": [],
      "stateMutability": "nonpayable",
      "type": "function"
    },
    {
      "inputs": [
        {
          "internalType": "address",
          "name": "_morpherGovernanceAddress",
          "type": "address"
        }
      ],
      "name": "setMorpherGovernance",
      "outputs": [],
      "stateMutability": "nonpayable",
      "type": "function"
    },
    {
      "inputs": [
        {
          "internalType": "address",
          "name": "_morpherMintingLimiterAddress",
          "type": "address"
        }
      ],
      "name": "setMorpherMintingLimiter",
      "outputs": [],
      "stateMutability": "nonpayable",
      "type": "function"
    },
    {
      "inputs": [
        {
          "internalType": "address",
          "name": "_morpherOracleAddress",
          "type": "address"
        }
      ],
      "name": "setMorpherOracle",
      "outputs": [],
      "stateMutability": "nonpayable",
      "type": "function"
    },
    {
      "inputs": [
        {
          "internalType": "address payable",
          "name": "_morpherStakingAddress",
          "type": "address"
        }
      ],
      "name": "setMorpherStaking",
      "outputs": [],
      "stateMutability": "nonpayable",
      "type": "function"
    },
    {
      "inputs": [
        {
          "internalType": "address",
          "name": "_morpherTokenAddress",
          "type": "address"
        }
      ],
      "name": "setMorpherToken",
      "outputs": [],
      "stateMutability": "nonpayable",
      "type": "function"
    },
    {
      "inputs": [
        {
          "internalType": "address",
          "name": "_morpherTradeEngineAddress",
          "type": "address"
        }
      ],
      "name": "setMorpherTradeEngine",
      "outputs": [],
      "stateMutability": "nonpayable",
      "type": "function"
    },
    {
      "inputs": [
        {
          "internalType": "address",
          "name": "_morpherUserBlockingAddress",
          "type": "address"
        }
      ],
      "name": "setMorpherUserBlocking",
      "outputs": [],
      "stateMutability": "nonpayable",
      "type": "function"
    },
    {
      "inputs": [
        {
          "internalType": "bytes32",
          "name": "_activateMarket",
          "type": "bytes32"
        }
      ],
      "name": "activateMarket",
      "outputs": [],
      "stateMutability": "nonpayable",
      "type": "function"
    },
    {
      "inputs": [
        {
          "internalType": "bytes32",
          "name": "_deActivateMarket",
          "type": "bytes32"
        }
      ],
      "name": "deActivateMarket",
      "outputs": [],
      "stateMutability": "nonpayable",
      "type": "function"
    },
    {
      "inputs": [
        {
          "internalType": "bytes32",
          "name": "_marketId",
          "type": "bytes32"
        }
      ],
      "name": "getMarketActive",
      "outputs": [
        {
          "internalType": "bool",
          "name": "_active",
          "type": "bool"
        }
      ],
      "stateMutability": "view",
      "type": "function",
      "constant": true
    },
    {
      "inputs": [
        {
          "internalType": "uint256",
          "name": "_newMaximumLeverage",
          "type": "uint256"
        }
      ],
      "name": "setMaximumLeverage",
      "outputs": [],
      "stateMutability": "nonpayable",
      "type": "function"
    },
    {
      "inputs": [],
      "name": "getMaximumLeverage",
      "outputs": [
        {
          "internalType": "uint256",
          "name": "_maxLeverage",
          "type": "uint256"
        }
      ],
      "stateMutability": "view",
      "type": "function",
      "constant": true
    }
  ],
  "bytecode": "0x608060405234801561001057600080fd5b506117b2806100206000396000f3fe608060405234801561001057600080fd5b506004361061025e5760003560e01c80639baafc5c11610146578063da4b0f40116100c3578063f45edb5f11610087578063f45edb5f14610521578063f606a41a14610536578063f90f59b714610549578063fbfc50f61461055c578063fc65383314610565578063fe2528521461057857600080fd5b8063da4b0f40146104ae578063da8cac02146104c1578063daf95027146104d4578063e20569af146104e7578063f36c8f5c146104fa57600080fd5b8063af6976c31161010a578063af6976c314610459578063bb65b2421461046c578063bc5bea6514610475578063c5e1b59a14610488578063d37afa8d1461049b57600080fd5b80639baafc5c1461040b578063a13141bd1461041e578063aaf5eb6814610431578063ac981b1e1461043c578063af2b48a71461044f57600080fd5b806355b33741116101df5780637c995e91116101a35780637c995e91146103b857806381670836146103c057806384778771146103d357806385ee7ba6146103e65780638c4050b1146103f95780639231cf741461040257600080fd5b806355b33741146103595780636f3195491461036257806370824c5c146103755780637993a9911461039c5780637b431ab1146103af57600080fd5b806339b1969a1161022657806339b1969a146102e45780633eedf76a146102f7578063432556ba146103005780634a4cce971461031357806350a71bac1461034657600080fd5b806306442d0a146102635780632082bb281461027857806328196ca01461028b5780632e0f2625146102bb5780633716552d146102d1575b600080fd5b610276610271366004611627565b61058b565b005b610276610286366004611658565b610682565b60335461029e906001600160a01b031681565b6040516001600160a01b0390911681526020015b60405180910390f35b6102c3601281565b6040519081526020016102b2565b6102766102df366004611658565b610799565b6102766102f2366004611658565b6108b0565b6102c3603f5481565b603b5461029e906001600160a01b031681565b610336610321366004611627565b60009081526045602052604090205460ff1690565b60405190151581526020016102b2565b603d5461029e906001600160a01b031681565b6102c360445481565b60355461029e906001600160a01b031681565b6102c37f797343f8d6a29aafeb3aaf0910a8973e0081c60c2f6c1f775cd9f76ea348fc1e81565b6102766103aa366004611658565b6109c7565b6102c360435481565b603f546102c3565b60375461029e906001600160a01b031681565b60395461029e906001600160a01b031681565b6102766103f436600461168a565b610ade565b6102c360485481565b6102c360415481565b610276610419366004611658565b610bdc565b61027661042c366004611658565b610cf3565b6102c36305f5e10081565b61027661044a366004611627565b610e0a565b6102c36201518081565b60385461029e906001600160a01b031681565b6102c360405481565b60365461029e906001600160a01b031681565b610276610496366004611658565b610efb565b603c5461029e906001600160a01b031681565b6102766104bc366004611627565b611012565b6102766104cf366004611658565b61115e565b6102766104e2366004611658565b611275565b603a5461029e906001600160a01b031681565b6102c37f71840dc4906352362b0cdaf79870196c8e42acafade72d5d5a6d59291253ceb181565b6102c360008051602061175d83398151915281565b603e5461029e906001600160a01b031681565b60345461029e906001600160a01b031681565b6102c360425481565b610276610573366004611658565b61138c565b610276610586366004611658565b6114a3565b60335460008051602061175d833981519152906001600160a01b03166391d1485482336040516001600160e01b031960e085901b16815260048101929092526001600160a01b03166024820152604401602060405180830381865afa1580156105f8573d6000803e3d6000fd5b505050506040513d601f19601f8201168201806040525081019061061c91906116c3565b6106415760405162461bcd60e51b8152600401610638906116e0565b60405180910390fd5b600082815260456020526040808220805460ff191690555183917f9cb9d54a58b209894faa9f115e54b1c61733c0764fe29ed01f97c7c425f2f24391a25050565b60335460008051602061175d833981519152906001600160a01b03166391d1485482336040516001600160e01b031960e085901b16815260048101929092526001600160a01b03166024820152604401602060405180830381865afa1580156106ef573d6000803e3d6000fd5b505050506040513d601f19601f8201168201806040525081019061071391906116c3565b61072f5760405162461bcd60e51b8152600401610638906116e0565b603c546040517f258a1bec0e18e5de82e8b2d04d828a5c9634a1c2d13ac19bc17d418704b6076f9161076e916001600160a01b03909116908590611715565b60405180910390a150603c80546001600160a01b0319166001600160a01b0392909216919091179055565b60335460008051602061175d833981519152906001600160a01b03166391d1485482336040516001600160e01b031960e085901b16815260048101929092526001600160a01b03166024820152604401602060405180830381865afa158015610806573d6000803e3d6000fd5b505050506040513d601f19601f8201168201806040525081019061082a91906116c3565b6108465760405162461bcd60e51b8152600401610638906116e0565b6037546040517fb5ae810821e1befb4ae4e5e1ad7e85d8bc5e9f43471fb7deca38e8c057cc44a491610885916001600160a01b03909116908590611715565b60405180910390a150603780546001600160a01b0319166001600160a01b0392909216919091179055565b60335460008051602061175d833981519152906001600160a01b03166391d1485482336040516001600160e01b031960e085901b16815260048101929092526001600160a01b03166024820152604401602060405180830381865afa15801561091d573d6000803e3d6000fd5b505050506040513d601f19601f8201168201806040525081019061094191906116c3565b61095d5760405162461bcd60e51b8152600401610638906116e0565b6036546040517f7fa90270c0b88ee88c968fdff5b5e7dbff285ee37bfb88cf3e168d71aebb43229161099c916001600160a01b03909116908590611715565b60405180910390a150603680546001600160a01b0319166001600160a01b0392909216919091179055565b60335460008051602061175d833981519152906001600160a01b03166391d1485482336040516001600160e01b031960e085901b16815260048101929092526001600160a01b03166024820152604401602060405180830381865afa158015610a34573d6000803e3d6000fd5b505050506040513d601f19601f82011682018060405250810190610a5891906116c3565b610a745760405162461bcd60e51b8152600401610638906116e0565b603a546040517fe42fe56fe8570b6afa53fb486f69a7b4039429bfed524bab39f5e40c3c30cf0691610ab3916001600160a01b03909116908590611715565b60405180910390a150603a80546001600160a01b0319166001600160a01b0392909216919091179055565b600054610100900460ff16610af95760005460ff1615610afd565b303b155b610b605760405162461bcd60e51b815260206004820152602e60248201527f496e697469616c697a61626c653a20636f6e747261637420697320616c72656160448201526d191e481a5b9a5d1a585b1a5e995960921b6064820152608401610638565b600054610100900460ff16158015610b82576000805461ffff19166101011790555b610b8a6115ba565b603380546001600160a01b0319166001600160a01b0384161790556049805460ff1916841515179055610bc26305f5e100600a61172f565b603f558015610bd7576000805461ff00191690555b505050565b60335460008051602061175d833981519152906001600160a01b03166391d1485482336040516001600160e01b031960e085901b16815260048101929092526001600160a01b03166024820152604401602060405180830381865afa158015610c49573d6000803e3d6000fd5b505050506040513d601f19601f82011682018060405250810190610c6d91906116c3565b610c895760405162461bcd60e51b8152600401610638906116e0565b603d546040517f95269a6783e0a6580818e738f41864edc9da93b2b7dd3821b4e54ebf76cb3da291610cc8916001600160a01b03909116908590611715565b60405180910390a150603d80546001600160a01b0319166001600160a01b0392909216919091179055565b60335460008051602061175d833981519152906001600160a01b03166391d1485482336040516001600160e01b031960e085901b16815260048101929092526001600160a01b03166024820152604401602060405180830381865afa158015610d60573d6000803e3d6000fd5b505050506040513d601f19601f82011682018060405250810190610d8491906116c3565b610da05760405162461bcd60e51b8152600401610638906116e0565b6039546040517fc9a71a70f53329a4d37f06a753cb4867fc10a37bb83532a0194ae1ef438611f791610ddf916001600160a01b03909116908590611715565b60405180910390a150603980546001600160a01b0319166001600160a01b0392909216919091179055565b60335460008051602061175d833981519152906001600160a01b03166391d1485482336040516001600160e01b031960e085901b16815260048101929092526001600160a01b03166024820152604401602060405180830381865afa158015610e77573d6000803e3d6000fd5b505050506040513d601f19601f82011682018060405250810190610e9b91906116c3565b610eb75760405162461bcd60e51b8152600401610638906116e0565b600082815260456020526040808220805460ff191660011790555183917f52ebf9d662e8bc70841a5b603c1711882a8e4b11a663af6b5709286fe7bd964591a25050565b60335460008051602061175d833981519152906001600160a01b03166391d1485482336040516001600160e01b031960e085901b16815260048101929092526001600160a01b03166024820152604401602060405180830381865afa158015610f68573d6000803e3d6000fd5b505050506040513d601f19601f82011682018060405250810190610f8c91906116c3565b610fa85760405162461bcd60e51b8152600401610638906116e0565b6035546040517f0143e43add49c04d6583ba258761acbb5ff6c4e04fe756828b55b6da764a27cb91610fe7916001600160a01b03909116908590611715565b60405180910390a150603580546001600160a01b0319166001600160a01b0392909216919091179055565b60335460008051602061175d833981519152906001600160a01b03166391d1485482336040516001600160e01b031960e085901b16815260048101929092526001600160a01b03166024820152604401602060405180830381865afa15801561107f573d6000803e3d6000fd5b505050506040513d601f19601f820116820180604052508101906110a391906116c3565b6110bf5760405162461bcd60e51b8152600401610638906116e0565b6305f5e10082116111225760405162461bcd60e51b815260206004820152602760248201527f4d6f727068657253746174653a204c6576657261676520707265636973696f6e604482015266040d2e64062ca760cb1b6064820152608401610638565b603f8290556040518281527f258a1584bca0aad852538c9d396233520174feedba906a03d19b307d3bad5f309060200160405180910390a15050565b60335460008051602061175d833981519152906001600160a01b03166391d1485482336040516001600160e01b031960e085901b16815260048101929092526001600160a01b03166024820152604401602060405180830381865afa1580156111cb573d6000803e3d6000fd5b505050506040513d601f19601f820116820180604052508101906111ef91906116c3565b61120b5760405162461bcd60e51b8152600401610638906116e0565b603b546040517fb79492f43466f55538db548bd2b1ce60c376f9541c7b0db11799828061d7a5f69161124a916001600160a01b03909116908590611715565b60405180910390a150603b80546001600160a01b0319166001600160a01b0392909216919091179055565b60335460008051602061175d833981519152906001600160a01b03166391d1485482336040516001600160e01b031960e085901b16815260048101929092526001600160a01b03166024820152604401602060405180830381865afa1580156112e2573d6000803e3d6000fd5b505050506040513d601f19601f8201168201806040525081019061130691906116c3565b6113225760405162461bcd60e51b8152600401610638906116e0565b6038546040517f0128d789e17bfd1c3c0876d54f4667a81cb93280e8251bfc6dd7fcb6fa6063ef91611361916001600160a01b03909116908590611715565b60405180910390a150603880546001600160a01b0319166001600160a01b0392909216919091179055565b60335460008051602061175d833981519152906001600160a01b03166391d1485482336040516001600160e01b031960e085901b16815260048101929092526001600160a01b03166024820152604401602060405180830381865afa1580156113f9573d6000803e3d6000fd5b505050506040513d601f19601f8201168201806040525081019061141d91906116c3565b6114395760405162461bcd60e51b8152600401610638906116e0565b6033546040517f6a1edde11d2186fa21863eb6defd9c39b65ef651d33126a15ddd601186a7aaa291611478916001600160a01b03909116908590611715565b60405180910390a150603380546001600160a01b0319166001600160a01b0392909216919091179055565b60335460008051602061175d833981519152906001600160a01b03166391d1485482336040516001600160e01b031960e085901b16815260048101929092526001600160a01b03166024820152604401602060405180830381865afa158015611510573d6000803e3d6000fd5b505050506040513d601f19601f8201168201806040525081019061153491906116c3565b6115505760405162461bcd60e51b8152600401610638906116e0565b6034546040517fb51ac1f47ba9ff86631e80bbde5882438b4a51649022715da7635919b1d681589161158f916001600160a01b03909116908590611715565b60405180910390a150603480546001600160a01b0319166001600160a01b0392909216919091179055565b600054610100900460ff166116255760405162461bcd60e51b815260206004820152602b60248201527f496e697469616c697a61626c653a20636f6e7472616374206973206e6f74206960448201526a6e697469616c697a696e6760a81b6064820152608401610638565b565b60006020828403121561163957600080fd5b5035919050565b6001600160a01b038116811461165557600080fd5b50565b60006020828403121561166a57600080fd5b813561167581611640565b9392505050565b801515811461165557600080fd5b6000806040838503121561169d57600080fd5b82356116a88161167c565b915060208301356116b881611640565b809150509250929050565b6000602082840312156116d557600080fd5b81516116758161167c565b6020808252818101527f4d6f727068657253746174653a205065726d697373696f6e2064656e6965642e604082015260600190565b6001600160a01b0392831681529116602082015260400190565b600081600019048311821515161561175757634e487b7160e01b600052601160045260246000fd5b50029056fee5a0b4d50f56047f84728557fedbda92f956391bc9d5c762e8461996dd8e7ad7a2646970667358221220bdc254749a029a3698a5298278dd0eed1291b08a7957a4d143d304485f6e839764736f6c634300080b0033",
  "immutableReferences": {},
  "source": "//SPDX-License-Identifier: GPLv3\r\npragma solidity 0.8.11;\r\nimport \"@openzeppelin/contracts-upgradeable/proxy/utils/Initializable.sol\";\r\nimport \"@openzeppelin/contracts-upgradeable/utils/ContextUpgradeable.sol\";\r\nimport \"./MorpherToken.sol\";\r\n\r\n// ----------------------------------------------------------------------------------\r\n// Data and token balance storage of the Morpher platform\r\n// Writing access is only granted to platform contracts. The contract can be paused\r\n// by an elected platform administrator (see MorpherGovernance) to perform protocol updates.\r\n// ----------------------------------------------------------------------------------\r\n\r\ncontract MorpherState is Initializable, ContextUpgradeable  {\r\n\r\n    address public morpherAccessControlAddress;\r\n    address public morpherAirdropAddress;\r\n    address public morpherBridgeAddress;\r\n    address public morpherFaucetAddress;\r\n    address public morpherGovernanceAddress;\r\n    address public morpherMintingLimiterAddress;\r\n    address public morpherOracleAddress;\r\n    address payable public morpherStakingAddress;\r\n    address public morpherTokenAddress;\r\n    address public morpherTradeEngineAddress;\r\n    address public morpherUserBlockingAddress;\r\n\r\n    /**\r\n     * Roles known to State\r\n     */\r\n    bytes32 public constant ADMINISTRATOR_ROLE = keccak256(\"ADMINISTRATOR_ROLE\");\r\n    bytes32 public constant GOVERNANCE_ROLE = keccak256(\"GOVERNANCE_ROLE\");\r\n    bytes32 public constant PLATFORM_ROLE = keccak256(\"PLATFORM_ROLE\");\r\n \r\n\r\n    address public morpherRewards;\r\n    uint256 public maximumLeverage; // Leverage precision is 1e8, maximum leverage set to 10 initially\r\n    uint256 public constant PRECISION = 10**8;\r\n    uint256 public constant DECIMALS = 18;\r\n    uint256 public constant REWARDPERIOD = 1 days;\r\n\r\n    uint256 public rewardBasisPoints;\r\n    uint256 public lastRewardTime;\r\n\r\n    bytes32 public sideChainMerkleRoot;\r\n    uint256 public sideChainMerkleRootWrittenAtTime;\r\n\r\n    // Set initial withdraw limit from sidechain to 20m token or 2% of initial supply\r\n    uint256 public mainChainWithdrawLimit24;\r\n\r\n    mapping(bytes32 => bool) private marketActive;\r\n\r\n    // ----------------------------------------------------------------------------\r\n    // Sidechain spam protection\r\n    // ----------------------------------------------------------------------------\r\n\r\n    mapping(address => uint256) private lastRequestBlock;\r\n    mapping(address => uint256) private numberOfRequests;\r\n    uint256 public numberOfRequestsLimit;\r\n\r\n    // ----------------------------------------------------------------------------\r\n    // Events\r\n    // ----------------------------------------------------------------------------\r\n    event OperatingRewardMinted(address indexed recipient, uint256 amount);\r\n\r\n    event RewardsChange(address indexed rewardsAddress, uint256 indexed rewardsBasisPoints);\r\n    event LastRewardTime(uint256 indexed rewardsTime);\r\n\r\n   \r\n    event MaximumLeverageChange(uint256 maxLeverage);\r\n    event MarketActivated(bytes32 indexed activateMarket);\r\n    event MarketDeActivated(bytes32 indexed deActivateMarket);\r\n\r\n\r\n    modifier onlyRole(bytes32 role) {\r\n        require(MorpherAccessControl(morpherAccessControlAddress).hasRole(role, _msgSender()), \"MorpherState: Permission denied.\");\r\n        _;\r\n    }\r\n\r\n\r\n\r\n    modifier onlyBridge {\r\n        require(msg.sender == morpherBridgeAddress, \"MorpherState: Caller is not the Bridge. Aborting.\");\r\n        _;\r\n    }\r\n\r\n    modifier onlyMainChain {\r\n        require(mainChain == true, \"MorpherState: Can only be called on mainchain.\");\r\n        _;\r\n    }\r\n\r\n    bool mainChain;\r\n\r\n    function initialize(bool _mainChain, address _morpherAccessControlAddress) public initializer {\r\n        ContextUpgradeable.__Context_init();\r\n        \r\n        morpherAccessControlAddress = _morpherAccessControlAddress;\r\n        mainChain = _mainChain;\r\n\r\n        maximumLeverage = 10*PRECISION; // Leverage precision is 1e8, maximum leverage set to 10 initially\r\n    }\r\n\r\n    // ----------------------------------------------------------------------------\r\n    // Setter/Getter functions for platform roles\r\n    // ----------------------------------------------------------------------------\r\n\r\n    event SetMorpherAccessControlAddress(address _oldAddress, address _newAddress);\r\n    function setMorpherAccessControl(address _morpherAccessControlAddress) public onlyRole(ADMINISTRATOR_ROLE) {\r\n        emit SetMorpherAccessControlAddress(morpherAccessControlAddress, _morpherAccessControlAddress);\r\n        morpherAccessControlAddress = _morpherAccessControlAddress;\r\n    }\r\n\r\n    event SetMorpherAirdropAddress(address _oldAddress, address _newAddress);\r\n    function setMorpherAirdrop(address _morpherAirdropAddress) public onlyRole(ADMINISTRATOR_ROLE) {\r\n        emit SetMorpherAirdropAddress(morpherAirdropAddress, _morpherAirdropAddress);\r\n        morpherAirdropAddress = _morpherAirdropAddress;\r\n    }\r\n\r\n    event SetMorpherBridgeAddress(address _oldAddress, address _newAddress);\r\n    function setMorpherBridge(address _morpherBridgeAddress) public onlyRole(ADMINISTRATOR_ROLE) {\r\n        emit SetMorpherBridgeAddress(morpherBridgeAddress, _morpherBridgeAddress);\r\n        morpherBridgeAddress = _morpherBridgeAddress;\r\n    }\r\n\r\n    event SetMorpherFaucetAddress(address _oldAddress, address _newAddress);\r\n    function setMorpherFaucet(address _morpherFaucetAddress) public onlyRole(ADMINISTRATOR_ROLE) {\r\n        emit SetMorpherFaucetAddress(morpherFaucetAddress, _morpherFaucetAddress);\r\n        morpherFaucetAddress = _morpherFaucetAddress;\r\n    }\r\n\r\n    event SetMorpherGovernanceAddress(address _oldAddress, address _newAddress);\r\n    function setMorpherGovernance(address _morpherGovernanceAddress) public onlyRole(ADMINISTRATOR_ROLE) {\r\n        emit SetMorpherGovernanceAddress(morpherGovernanceAddress, _morpherGovernanceAddress);\r\n        morpherGovernanceAddress = _morpherGovernanceAddress;\r\n    }\r\n\r\n    event SetMorpherMintingLimiterAddress(address _oldAddress, address _newAddress);\r\n    function setMorpherMintingLimiter(address _morpherMintingLimiterAddress) public onlyRole(ADMINISTRATOR_ROLE) {\r\n        emit SetMorpherMintingLimiterAddress(morpherMintingLimiterAddress, _morpherMintingLimiterAddress);\r\n        morpherMintingLimiterAddress = _morpherMintingLimiterAddress;\r\n    }\r\n    event SetMorpherOracleAddress(address _oldAddress, address _newAddress);\r\n    function setMorpherOracle(address _morpherOracleAddress) public onlyRole(ADMINISTRATOR_ROLE) {\r\n        emit SetMorpherOracleAddress(morpherOracleAddress, _morpherOracleAddress);\r\n        morpherOracleAddress = _morpherOracleAddress;\r\n    }\r\n\r\n    event SetMorpherStakingAddress(address _oldAddress, address _newAddress);\r\n    function setMorpherStaking(address payable _morpherStakingAddress) public onlyRole(ADMINISTRATOR_ROLE) {\r\n        emit SetMorpherStakingAddress(morpherStakingAddress, _morpherStakingAddress);\r\n        morpherStakingAddress = _morpherStakingAddress;\r\n    }\r\n\r\n    event SetMorpherTokenAddress(address _oldAddress, address _newAddress);\r\n    function setMorpherToken(address _morpherTokenAddress) public onlyRole(ADMINISTRATOR_ROLE) {\r\n        emit SetMorpherTokenAddress(morpherTokenAddress, _morpherTokenAddress);\r\n        morpherTokenAddress = _morpherTokenAddress;\r\n    }\r\n\r\n    event SetMorpherTradeEngineAddress(address _oldAddress, address _newAddress);\r\n    function setMorpherTradeEngine(address _morpherTradeEngineAddress) public onlyRole(ADMINISTRATOR_ROLE) {\r\n        emit SetMorpherTradeEngineAddress(morpherTradeEngineAddress, _morpherTradeEngineAddress);\r\n        morpherTradeEngineAddress = _morpherTradeEngineAddress;\r\n    }\r\n\r\n    event SetMorpherUserBlockingAddress(address _oldAddress, address _newAddress);\r\n    function setMorpherUserBlocking(address _morpherUserBlockingAddress) public onlyRole(ADMINISTRATOR_ROLE) {\r\n        emit SetMorpherUserBlockingAddress(morpherUserBlockingAddress, _morpherUserBlockingAddress);\r\n        morpherUserBlockingAddress = _morpherUserBlockingAddress;\r\n    }\r\n\r\n\r\n    // ----------------------------------------------------------------------------\r\n    // Setter/Getter functions for platform administration\r\n    // ----------------------------------------------------------------------------\r\n\r\n    function activateMarket(bytes32 _activateMarket) public onlyRole(ADMINISTRATOR_ROLE)  {\r\n        marketActive[_activateMarket] = true;\r\n        emit MarketActivated(_activateMarket);\r\n    }\r\n\r\n    function deActivateMarket(bytes32 _deActivateMarket) public onlyRole(ADMINISTRATOR_ROLE)  {\r\n        marketActive[_deActivateMarket] = false;\r\n        emit MarketDeActivated(_deActivateMarket);\r\n    }\r\n\r\n    function getMarketActive(bytes32 _marketId) public view returns(bool _active) {\r\n        return marketActive[_marketId];\r\n    }\r\n\r\n    function setMaximumLeverage(uint256 _newMaximumLeverage) public onlyRole(ADMINISTRATOR_ROLE)  {\r\n        require(_newMaximumLeverage > PRECISION, \"MorpherState: Leverage precision is 1e8\");\r\n        maximumLeverage = _newMaximumLeverage;\r\n        emit MaximumLeverageChange(_newMaximumLeverage);\r\n    }\r\n\r\n    function getMaximumLeverage() public view returns(uint256 _maxLeverage) {\r\n        return maximumLeverage;\r\n    }\r\n\r\n    \r\n}\r\n",
  "sourcePath": "/home/thomas/MorpherProtocol/contracts/MorpherState.sol",
  "compiler": {
    "name": "solc",
    "version": "0.8.11+commit.d7f03943.Emscripten.clang"
  },
  "schemaVersion": "3.4.5",
  "updatedAt": "2022-05-13T11:32:27.317Z",
  "networkType": "ethereum",
  "devdoc": {
    "kind": "dev",
    "methods": {},
    "version": 1
  },
  "userdoc": {
    "kind": "user",
    "methods": {
      "ADMINISTRATOR_ROLE()": {
        "notice": "Roles known to State"
      }
    },
    "version": 1
  }
}