{
  "contractName": "MorpherMintingLimiter",
  "abi": [
    {
      "inputs": [
        {
          "internalType": "address",
          "name": "_stateAddress",
          "type": "address"
        },
        {
          "internalType": "uint256",
          "name": "_mintingLimitPerUser",
          "type": "uint256"
        },
        {
          "internalType": "uint256",
          "name": "_mintingLimitDaily",
          "type": "uint256"
        },
        {
          "internalType": "uint256",
          "name": "_timeLockingPeriodInSeconds",
          "type": "uint256"
        }
      ],
      "stateMutability": "nonpayable",
      "type": "constructor"
    },
    {
      "anonymous": false,
      "inputs": [],
      "name": "DailyMintedTokensReset",
      "type": "event"
    },
    {
      "anonymous": false,
      "inputs": [
        {
          "indexed": false,
          "internalType": "address",
          "name": "_user",
          "type": "address"
        },
        {
          "indexed": false,
          "internalType": "uint256",
          "name": "_tokenAmount",
          "type": "uint256"
        }
      ],
      "name": "EscrowReleased",
      "type": "event"
    },
    {
      "anonymous": false,
      "inputs": [
        {
          "indexed": false,
          "internalType": "address",
          "name": "_user",
          "type": "address"
        },
        {
          "indexed": false,
          "internalType": "uint256",
          "name": "_tokenAmount",
          "type": "uint256"
        }
      ],
      "name": "MintingDenied",
      "type": "event"
    },
    {
      "anonymous": false,
      "inputs": [
        {
          "indexed": false,
          "internalType": "address",
          "name": "_user",
          "type": "address"
        },
        {
          "indexed": false,
          "internalType": "uint256",
          "name": "_tokenAmount",
          "type": "uint256"
        }
      ],
      "name": "MintingEscrowed",
      "type": "event"
    },
    {
      "anonymous": false,
      "inputs": [
        {
          "indexed": false,
          "internalType": "uint256",
          "name": "_mintingLimitOld",
          "type": "uint256"
        },
        {
          "indexed": false,
          "internalType": "uint256",
          "name": "_mintingLimitNew",
          "type": "uint256"
        }
      ],
      "name": "MintingLimitUpdatedDaily",
      "type": "event"
    },
    {
      "anonymous": false,
      "inputs": [
        {
          "indexed": false,
          "internalType": "uint256",
          "name": "_mintingLimitOld",
          "type": "uint256"
        },
        {
          "indexed": false,
          "internalType": "uint256",
          "name": "_mintingLimitNew",
          "type": "uint256"
        }
      ],
      "name": "MintingLimitUpdatedPerUser",
      "type": "event"
    },
    {
      "anonymous": false,
      "inputs": [
        {
          "indexed": false,
          "internalType": "uint256",
          "name": "_timeLockPeriodOld",
          "type": "uint256"
        },
        {
          "indexed": false,
          "internalType": "uint256",
          "name": "_timeLockPeriodNew",
          "type": "uint256"
        }
      ],
      "name": "TimeLockPeriodUpdated",
      "type": "event"
    },
    {
      "anonymous": false,
      "inputs": [
        {
          "indexed": false,
          "internalType": "address",
          "name": "_tradeEngineAddress",
          "type": "address"
        }
      ],
      "name": "TradeEngineAddressSet",
      "type": "event"
    },
    {
      "inputs": [
        {
          "internalType": "uint256",
          "name": "",
          "type": "uint256"
        }
      ],
      "name": "dailyMintedTokens",
      "outputs": [
        {
          "internalType": "uint256",
          "name": "",
          "type": "uint256"
        }
      ],
      "stateMutability": "view",
      "type": "function"
    },
    {
      "inputs": [
        {
          "internalType": "address",
          "name": "",
          "type": "address"
        }
      ],
      "name": "escrowedTokens",
      "outputs": [
        {
          "internalType": "uint256",
          "name": "",
          "type": "uint256"
        }
      ],
      "stateMutability": "view",
      "type": "function"
    },
    {
      "inputs": [
        {
          "internalType": "address",
          "name": "",
          "type": "address"
        }
      ],
      "name": "lockedUntil",
      "outputs": [
        {
          "internalType": "uint256",
          "name": "",
          "type": "uint256"
        }
      ],
      "stateMutability": "view",
      "type": "function"
    },
    {
      "inputs": [],
      "name": "mintingLimitDaily",
      "outputs": [
        {
          "internalType": "uint256",
          "name": "",
          "type": "uint256"
        }
      ],
      "stateMutability": "view",
      "type": "function"
    },
    {
      "inputs": [],
      "name": "mintingLimitPerUser",
      "outputs": [
        {
          "internalType": "uint256",
          "name": "",
          "type": "uint256"
        }
      ],
      "stateMutability": "view",
      "type": "function"
    },
    {
      "inputs": [],
      "name": "timeLockingPeriod",
      "outputs": [
        {
          "internalType": "uint256",
          "name": "",
          "type": "uint256"
        }
      ],
      "stateMutability": "view",
      "type": "function"
    },
    {
      "inputs": [
        {
          "internalType": "address",
          "name": "_tradeEngineAddress",
          "type": "address"
        }
      ],
      "name": "setTradeEngineAddress",
      "outputs": [],
      "stateMutability": "nonpayable",
      "type": "function"
    },
    {
      "inputs": [
        {
          "internalType": "uint256",
          "name": "_newMintingLimit",
          "type": "uint256"
        }
      ],
      "name": "setMintingLimitDaily",
      "outputs": [],
      "stateMutability": "nonpayable",
      "type": "function"
    },
    {
      "inputs": [
        {
          "internalType": "uint256",
          "name": "_newMintingLimit",
          "type": "uint256"
        }
      ],
      "name": "setMintingLimitPerUser",
      "outputs": [],
      "stateMutability": "nonpayable",
      "type": "function"
    },
    {
      "inputs": [
        {
          "internalType": "uint256",
          "name": "_newTimeLockingPeriodInSeconds",
          "type": "uint256"
        }
      ],
      "name": "setTimeLockingPeriod",
      "outputs": [],
      "stateMutability": "nonpayable",
      "type": "function"
    },
    {
      "inputs": [
        {
          "internalType": "address",
          "name": "_user",
          "type": "address"
        },
        {
          "internalType": "uint256",
          "name": "_tokenAmount",
          "type": "uint256"
        }
      ],
      "name": "mint",
      "outputs": [],
      "stateMutability": "nonpayable",
      "type": "function"
    },
    {
      "inputs": [
        {
          "internalType": "address",
          "name": "_user",
          "type": "address"
        }
      ],
      "name": "delayedMint",
      "outputs": [],
      "stateMutability": "nonpayable",
      "type": "function"
    },
    {
      "inputs": [
        {
          "internalType": "address",
          "name": "_user",
          "type": "address"
        },
        {
          "internalType": "uint256",
          "name": "_tokenAmount",
          "type": "uint256"
        }
      ],
      "name": "adminApprovedMint",
      "outputs": [],
      "stateMutability": "nonpayable",
      "type": "function"
    },
    {
      "inputs": [
        {
          "internalType": "address",
          "name": "_user",
          "type": "address"
        },
        {
          "internalType": "uint256",
          "name": "_tokenAmount",
          "type": "uint256"
        }
      ],
      "name": "adminDisapproveMint",
      "outputs": [],
      "stateMutability": "nonpayable",
      "type": "function"
    },
    {
      "inputs": [],
      "name": "resetDailyMintedTokens",
      "outputs": [],
      "stateMutability": "nonpayable",
      "type": "function"
    },
    {
      "inputs": [],
      "name": "getDailyMintedTokens",
      "outputs": [
        {
          "internalType": "uint256",
          "name": "",
          "type": "uint256"
        }
      ],
      "stateMutability": "view",
      "type": "function"
    }
  ],
  "bytecode": "0x608060405234801561001057600080fd5b5060405161100338038061100383398101604081905261002f91610061565b600780546001600160a01b0319166001600160a01b0395909516949094179093556000919091556001556002556100ac565b6000806000806080858703121561007757600080fd5b84516001600160a01b038116811461008e57600080fd5b60208601516040870151606090970151919890975090945092505050565b610f48806100bb6000396000f3fe608060405234801561001057600080fd5b50600436106101005760003560e01c80636c399cf811610097578063cbc18dd811610066578063cbc18dd8146101fb578063ce8eef981461020e578063d329e92114610221578063fb8241d11461022957600080fd5b80636c399cf81461019f5780638028e879146101bf57806394737e41146101c85780639bc289f1146101db57600080fd5b80633feb0eaf116100d35780633feb0eaf1461016857806340c10f191461017157806344efa4ae14610184578063624be63c1461018c57600080fd5b80630536c7df146101055780630bf78a7c1461011a57806310cdccc01461014c5780632b02d18914610155575b600080fd5b610118610113366004610daf565b61023c565b005b61013a610128366004610daf565b60056020526000908152604090205481565b60405190815260200160405180910390f35b61013a60005481565b610118610163366004610de0565b61032d565b61013a60025481565b61011861017f366004610de0565b610522565b6101186107bc565b61011861019a366004610daf565b6108b5565b61013a6101ad366004610e0c565b60036020526000908152604090205481565b61013a60015481565b6101186101d6366004610e0c565b61099d565b61013a6101e9366004610e0c565b60046020526000908152604090205481565b610118610209366004610daf565b610a7e565b61011861021c366004610de0565b610b66565b61013a610c84565b610118610237366004610e0c565b610caa565b600760009054906101000a90046001600160a01b03166001600160a01b031663169674076040518163ffffffff1660e01b8152600401602060405180830381865afa15801561028f573d6000803e3d6000fd5b505050506040513d601f19601f820116820180604052508101906102b39190610e30565b6001600160a01b0316336001600160a01b0316146102ec5760405162461bcd60e51b81526004016102e390610e4d565b60405180910390fd5b60025460408051918252602082018390527f1fa8f052fedc11995fae60a7578ad2799decb2acff0cdd7f0f7f29653df25af7910160405180910390a1600255565b600760009054906101000a90046001600160a01b03166001600160a01b031663169674076040518163ffffffff1660e01b8152600401602060405180830381865afa158015610380573d6000803e3d6000fd5b505050506040513d601f19601f820116820180604052508101906103a49190610e30565b6001600160a01b0316336001600160a01b0316146103d45760405162461bcd60e51b81526004016102e390610e4d565b6001600160a01b0382166000908152600360205260409020546103f8908290610ec1565b6001600160a01b038084166000908152600360209081526040918290209390935560075481516308b9156160e21b815291519216926322e45584926004808401938290030181865afa158015610452573d6000803e3d6000fd5b505050506040513d601f19601f820116820180604052508101906104769190610e30565b6040516340c10f1960e01b81526001600160a01b0384811660048301526024820184905291909116906340c10f1990604401600060405180830381600087803b1580156104c257600080fd5b505af11580156104d6573d6000803e3d6000fd5b5050604080516001600160a01b0386168152602081018590527fe327b247066bdf32cf2493778e3fce4339b69c1e379a3b0dc780779bf67fe15593500190505b60405180910390a15050565b6006546001600160a01b031633146105b45760405162461bcd60e51b815260206004820152604960248201527f4d6f72706865724d696e74696e674c696d697465723a204f6e6c79205472616460448201527f6520456e67696e6520697320616c6c6f77656420746f2063616c6c207468697360648201526810333ab731ba34b7b760b91b608482015260a4016102e3565b60006105c36201518042610ed8565b9050600154600014806105f157506001546000828152600560205260409020546105ee908490610efa565b11155b80156106095750600054158061060957506000548211155b1561071757600760009054906101000a90046001600160a01b03166001600160a01b03166322e455846040518163ffffffff1660e01b8152600401602060405180830381865afa158015610661573d6000803e3d6000fd5b505050506040513d601f19601f820116820180604052508101906106859190610e30565b6040516340c10f1960e01b81526001600160a01b0385811660048301526024820185905291909116906340c10f1990604401600060405180830381600087803b1580156106d157600080fd5b505af11580156106e5573d6000803e3d6000fd5b50505060008281526005602052604090205461070391508390610efa565b600082815260056020526040902055505050565b6001600160a01b03831660009081526003602052604090205461073b908390610efa565b6001600160a01b0384166000908152600360205260409020556002546107619042610efa565b6001600160a01b0384166000818152600460209081526040918290209390935580519182529181018490527fa1e55e2c2b37828c5a2418e2ca0fee69cedb9199a22f6fb4943766ac0a8264d4910160405180910390a1505050565b600760009054906101000a90046001600160a01b03166001600160a01b031663169674076040518163ffffffff1660e01b8152600401602060405180830381865afa15801561080f573d6000803e3d6000fd5b505050506040513d601f19601f820116820180604052508101906108339190610e30565b6001600160a01b0316336001600160a01b0316146108635760405162461bcd60e51b81526004016102e390610e4d565b60006005816108756201518042610ed8565b8152602001908152602001600020819055507fb296bcb584266e8161b2f29d7cbe8ac66d9165c1806e73f6d1c4ee874a60fb5060405160405180910390a1565b600760009054906101000a90046001600160a01b03166001600160a01b031663169674076040518163ffffffff1660e01b8152600401602060405180830381865afa158015610908573d6000803e3d6000fd5b505050506040513d601f19601f8201168201806040525081019061092c9190610e30565b6001600160a01b0316336001600160a01b03161461095c5760405162461bcd60e51b81526004016102e390610e4d565b60015460408051918252602082018390527fbcdc3ef7ab7e75d7d30c31647adbf76eda501e4c49e4a1d5d796124c6d12f3e8910160405180910390a1600155565b6001600160a01b038116600090815260046020526040902054421015610a205760405162461bcd60e51b815260206004820152603260248201527f4d6f72706865724d696e74696e674c696d697465723a2046756e647320617265604482015271081cdd1a5b1b081d1a5b59481b1bd8dad95960721b60648201526084016102e3565b6001600160a01b038082166000908152600360209081526040808320805493905560075481516308b9156160e21b81529151939416926322e45584926004808401939192918290030181865afa158015610452573d6000803e3d6000fd5b600760009054906101000a90046001600160a01b03166001600160a01b031663169674076040518163ffffffff1660e01b8152600401602060405180830381865afa158015610ad1573d6000803e3d6000fd5b505050506040513d601f19601f82011682018060405250810190610af59190610e30565b6001600160a01b0316336001600160a01b031614610b255760405162461bcd60e51b81526004016102e390610e4d565b60015460408051918252602082018390527f76205335ef0cf53588499b4595011f891bcf940abfb96a794a02155587556535910160405180910390a1600055565b600760009054906101000a90046001600160a01b03166001600160a01b031663169674076040518163ffffffff1660e01b8152600401602060405180830381865afa158015610bb9573d6000803e3d6000fd5b505050506040513d601f19601f82011682018060405250810190610bdd9190610e30565b6001600160a01b0316336001600160a01b031614610c0d5760405162461bcd60e51b81526004016102e390610e4d565b6001600160a01b038216600090815260036020526040902054610c31908290610ec1565b6001600160a01b0383166000818152600360209081526040918290209390935580519182529181018390527fb288f77e64ae7b7dd519b90668e90b1336fa44036bd4da5188e13caf8547259d9101610516565b6000600581610c966201518042610ed8565b815260200190815260200160002054905090565b600760009054906101000a90046001600160a01b03166001600160a01b031663169674076040518163ffffffff1660e01b8152600401602060405180830381865afa158015610cfd573d6000803e3d6000fd5b505050506040513d601f19601f82011682018060405250810190610d219190610e30565b6001600160a01b0316336001600160a01b031614610d515760405162461bcd60e51b81526004016102e390610e4d565b6040516001600160a01b03821681527f5bc3cc8b83827fca0308e928f1749d39b7e3471012ae9d9c4ad7f07af4ed3c0f9060200160405180910390a1600680546001600160a01b0319166001600160a01b0392909216919091179055565b600060208284031215610dc157600080fd5b5035919050565b6001600160a01b0381168114610ddd57600080fd5b50565b60008060408385031215610df357600080fd5b8235610dfe81610dc8565b946020939093013593505050565b600060208284031215610e1e57600080fd5b8135610e2981610dc8565b9392505050565b600060208284031215610e4257600080fd5b8151610e2981610dc8565b602080825260409082018190527f4d6f72706865724d696e74696e674c696d697465723a204f6e6c792041646d69908201527f6e6973747261746f722063616e2063616c6c20746869732066756e6374696f6e606082015260800190565b634e487b7160e01b600052601160045260246000fd5b600082821015610ed357610ed3610eab565b500390565b600082610ef557634e487b7160e01b600052601260045260246000fd5b500490565b60008219821115610f0d57610f0d610eab565b50019056fea26469706673582212202bb8fa26b1c4f6d53576f132f62c6b340f2c17b8b271cc384febd472efed641d64736f6c634300080b0033",
  "immutableReferences": {},
  "source": "//SPDX-License-Identifier: GPLv3\r\npragma solidity 0.8.11;\r\n\r\nimport \"./MorpherState.sol\";\r\nimport \"./MorpherTradeEngine.sol\";\r\n\r\n\r\ncontract MorpherMintingLimiter {\r\n\r\n    uint256 public mintingLimitPerUser;\r\n    uint256 public mintingLimitDaily;\r\n    uint256 public timeLockingPeriod;\r\n\r\n    mapping(address => uint256) public escrowedTokens;\r\n    mapping(address => uint256) public lockedUntil;\r\n    mapping(uint256 => uint256) public dailyMintedTokens;\r\n\r\n    address tradeEngineAddress; \r\n    MorpherState state;\r\n\r\n    event MintingEscrowed(address _user, uint256 _tokenAmount);\r\n    event EscrowReleased(address _user, uint256 _tokenAmount);\r\n    event MintingDenied(address _user, uint256 _tokenAmount);\r\n    event MintingLimitUpdatedPerUser(uint256 _mintingLimitOld, uint256 _mintingLimitNew);\r\n    event MintingLimitUpdatedDaily(uint256 _mintingLimitOld, uint256 _mintingLimitNew);\r\n    event TimeLockPeriodUpdated(uint256 _timeLockPeriodOld, uint256 _timeLockPeriodNew);\r\n    event TradeEngineAddressSet(address _tradeEngineAddress);\r\n    event DailyMintedTokensReset();\r\n\r\n    modifier onlyTradeEngine() {\r\n        require(msg.sender == tradeEngineAddress, \"MorpherMintingLimiter: Only Trade Engine is allowed to call this function\");\r\n        _;\r\n    }\r\n\r\n    modifier onlyAdministrator() {\r\n        require(msg.sender == state.getAdministrator(), \"MorpherMintingLimiter: Only Administrator can call this function\");\r\n        _;\r\n    }\r\n\r\n    constructor(address _stateAddress, uint256 _mintingLimitPerUser, uint256 _mintingLimitDaily, uint256 _timeLockingPeriodInSeconds) {\r\n        state = MorpherState(_stateAddress);\r\n        mintingLimitPerUser = _mintingLimitPerUser;\r\n        mintingLimitDaily = _mintingLimitDaily;\r\n        timeLockingPeriod = _timeLockingPeriodInSeconds;\r\n    }\r\n\r\n    function setTradeEngineAddress(address _tradeEngineAddress) public onlyAdministrator {\r\n        emit TradeEngineAddressSet(_tradeEngineAddress);\r\n        tradeEngineAddress = _tradeEngineAddress;\r\n    }\r\n    \r\n\r\n    function setMintingLimitDaily(uint256 _newMintingLimit) public onlyAdministrator {\r\n        emit MintingLimitUpdatedDaily(mintingLimitDaily, _newMintingLimit);\r\n        mintingLimitDaily = _newMintingLimit;\r\n    }\r\n    function setMintingLimitPerUser(uint256 _newMintingLimit) public onlyAdministrator {\r\n        emit MintingLimitUpdatedPerUser(mintingLimitDaily, _newMintingLimit);\r\n        mintingLimitPerUser = _newMintingLimit;\r\n    }\r\n\r\n    function setTimeLockingPeriod(uint256 _newTimeLockingPeriodInSeconds) public onlyAdministrator {\r\n        emit TimeLockPeriodUpdated(timeLockingPeriod, _newTimeLockingPeriodInSeconds);\r\n        timeLockingPeriod = _newTimeLockingPeriodInSeconds;\r\n    }\r\n\r\n    function mint(address _user, uint256 _tokenAmount) public onlyTradeEngine {\r\n        uint256 mintingDay = block.timestamp / 1 days;\r\n        if((mintingLimitDaily == 0 || dailyMintedTokens[mintingDay] + (_tokenAmount) <= mintingLimitDaily) && (mintingLimitPerUser == 0 || _tokenAmount <= mintingLimitPerUser )) {\r\n            MorpherToken(state.getTokenContractAddress()).mint(_user, _tokenAmount);\r\n            dailyMintedTokens[mintingDay] = dailyMintedTokens[mintingDay] + (_tokenAmount);\r\n        } else {\r\n            escrowedTokens[_user] = escrowedTokens[_user] + (_tokenAmount);\r\n            lockedUntil[_user] = block.timestamp + timeLockingPeriod;\r\n            emit MintingEscrowed(_user, _tokenAmount);\r\n        }\r\n    }\r\n\r\n    function delayedMint(address _user) public {\r\n        require(lockedUntil[_user] <= block.timestamp, \"MorpherMintingLimiter: Funds are still time locked\");\r\n        uint256 sendAmount = escrowedTokens[_user];\r\n        escrowedTokens[_user] = 0;\r\n        MorpherToken(state.getTokenContractAddress()).mint(_user, sendAmount);\r\n        emit EscrowReleased(_user, sendAmount);\r\n    }\r\n\r\n    function adminApprovedMint(address _user, uint256 _tokenAmount) public onlyAdministrator {\r\n        escrowedTokens[_user] = escrowedTokens[_user] - (_tokenAmount);\r\n        MorpherToken(state.getTokenContractAddress()).mint(_user, _tokenAmount);\r\n        emit EscrowReleased(_user, _tokenAmount);\r\n    }\r\n\r\n    function adminDisapproveMint(address _user, uint256 _tokenAmount) public onlyAdministrator {\r\n        escrowedTokens[_user] = escrowedTokens[_user] - (_tokenAmount);\r\n        emit MintingDenied(_user, _tokenAmount);\r\n    }\r\n\r\n    function resetDailyMintedTokens() public onlyAdministrator {\r\n        dailyMintedTokens[block.timestamp / 1 days] = 0;\r\n        emit DailyMintedTokensReset();\r\n    }\r\n\r\n    function getDailyMintedTokens() public view returns(uint256) {\r\n        return dailyMintedTokens[block.timestamp / 1 days];\r\n    }\r\n}",
  "sourcePath": "/home/thomas/MorpherProtocol/contracts/MorpherMintingLimiter.sol",
  "compiler": {
    "name": "solc",
    "version": "0.8.11+commit.d7f03943.Emscripten.clang"
  },
  "schemaVersion": "3.4.5",
  "updatedAt": "2022-03-09T13:35:33.575Z",
  "devdoc": {
    "kind": "dev",
    "methods": {},
    "version": 1
  },
  "userdoc": {
    "kind": "user",
    "methods": {},
    "version": 1
  }
}