{
  "contractName": "MorpherBridge",
  "abi": [
    {
      "anonymous": false,
      "inputs": [
        {
          "indexed": true,
          "internalType": "address",
          "name": "from",
          "type": "address"
        },
        {
          "indexed": false,
          "internalType": "uint256",
          "name": "tokens",
          "type": "uint256"
        }
      ],
      "name": "ClaimFailedTransferToSidechain",
      "type": "event"
    },
    {
      "anonymous": false,
      "inputs": [
        {
          "indexed": false,
          "internalType": "address",
          "name": "_address",
          "type": "address"
        }
      ],
      "name": "LinkState",
      "type": "event"
    },
    {
      "anonymous": false,
      "inputs": [
        {
          "indexed": true,
          "internalType": "address",
          "name": "from",
          "type": "address"
        },
        {
          "indexed": false,
          "internalType": "uint256",
          "name": "tokens",
          "type": "uint256"
        },
        {
          "indexed": false,
          "internalType": "bytes32",
          "name": "sidechainTransactionHash",
          "type": "bytes32"
        }
      ],
      "name": "OperatorChainTransfer",
      "type": "event"
    },
    {
      "anonymous": false,
      "inputs": [
        {
          "indexed": true,
          "internalType": "address",
          "name": "from",
          "type": "address"
        },
        {
          "indexed": false,
          "internalType": "bytes32",
          "name": "positionHash",
          "type": "bytes32"
        }
      ],
      "name": "PositionRecoveryFromSideChain",
      "type": "event"
    },
    {
      "anonymous": false,
      "inputs": [
        {
          "indexed": false,
          "internalType": "bytes32",
          "name": "_rootHash",
          "type": "bytes32"
        }
      ],
      "name": "SideChainMerkleRootUpdated",
      "type": "event"
    },
    {
      "anonymous": false,
      "inputs": [
        {
          "indexed": true,
          "internalType": "address",
          "name": "from",
          "type": "address"
        },
        {
          "indexed": false,
          "internalType": "bytes32",
          "name": "positionHash",
          "type": "bytes32"
        }
      ],
      "name": "TokenRecoveryFromSideChain",
      "type": "event"
    },
    {
      "anonymous": false,
      "inputs": [
        {
          "indexed": true,
          "internalType": "address",
          "name": "from",
          "type": "address"
        },
        {
          "indexed": false,
          "internalType": "uint256",
          "name": "tokens",
          "type": "uint256"
        },
        {
          "indexed": false,
          "internalType": "uint256",
          "name": "totalTokenSent",
          "type": "uint256"
        },
        {
          "indexed": false,
          "internalType": "uint256",
          "name": "timeStamp",
          "type": "uint256"
        },
        {
          "indexed": false,
          "internalType": "uint256",
          "name": "transferNonce",
          "type": "uint256"
        },
        {
          "indexed": false,
          "internalType": "uint256",
          "name": "targetChainId",
          "type": "uint256"
        },
        {
          "indexed": true,
          "internalType": "bytes32",
          "name": "transferHash",
          "type": "bytes32"
        }
      ],
      "name": "TransferToLinkedChain",
      "type": "event"
    },
    {
      "anonymous": false,
      "inputs": [
        {
          "indexed": true,
          "internalType": "address",
          "name": "from",
          "type": "address"
        },
        {
          "indexed": false,
          "internalType": "uint256",
          "name": "tokens",
          "type": "uint256"
        },
        {
          "indexed": false,
          "internalType": "uint256",
          "name": "totalTokenSent",
          "type": "uint256"
        },
        {
          "indexed": false,
          "internalType": "uint256",
          "name": "timeStamp",
          "type": "uint256"
        },
        {
          "indexed": false,
          "internalType": "uint256",
          "name": "transferNonce",
          "type": "uint256"
        },
        {
          "indexed": false,
          "internalType": "uint256",
          "name": "targetChainId",
          "type": "uint256"
        },
        {
          "indexed": false,
          "internalType": "address",
          "name": "destinationAddress",
          "type": "address"
        },
        {
          "indexed": false,
          "internalType": "bytes",
          "name": "userSigature",
          "type": "bytes"
        },
        {
          "indexed": true,
          "internalType": "bytes32",
          "name": "transferHash",
          "type": "bytes32"
        }
      ],
      "name": "TransferToLinkedChainAndWithdrawTo",
      "type": "event"
    },
    {
      "anonymous": false,
      "inputs": [
        {
          "indexed": true,
          "internalType": "address",
          "name": "from",
          "type": "address"
        },
        {
          "indexed": false,
          "internalType": "uint256",
          "name": "tokens",
          "type": "uint256"
        }
      ],
      "name": "TrustlessWithdrawFromSideChain",
      "type": "event"
    },
    {
      "anonymous": false,
      "inputs": [
        {
          "indexed": false,
          "internalType": "uint256",
          "name": "_withdrawLimit",
          "type": "uint256"
        }
      ],
      "name": "WithdrawLimitChanged",
      "type": "event"
    },
    {
      "anonymous": false,
      "inputs": [
        {
          "indexed": false,
          "internalType": "uint256",
          "name": "_oldLimit",
          "type": "uint256"
        },
        {
          "indexed": false,
          "internalType": "uint256",
          "name": "_newLimit",
          "type": "uint256"
        }
      ],
      "name": "WithdrawLimitDailyGlobalChanged",
      "type": "event"
    },
    {
      "anonymous": false,
      "inputs": [
        {
          "indexed": false,
          "internalType": "uint256",
          "name": "_oldLimit",
          "type": "uint256"
        },
        {
          "indexed": false,
          "internalType": "uint256",
          "name": "_newLimit",
          "type": "uint256"
        }
      ],
      "name": "WithdrawLimitDailyPerUserChanged",
      "type": "event"
    },
    {
      "anonymous": false,
      "inputs": [
        {
          "indexed": false,
          "internalType": "uint256",
          "name": "_oldLimit",
          "type": "uint256"
        },
        {
          "indexed": false,
          "internalType": "uint256",
          "name": "_newLimit",
          "type": "uint256"
        }
      ],
      "name": "WithdrawLimitMonthlyGlobalChanged",
      "type": "event"
    },
    {
      "anonymous": false,
      "inputs": [
        {
          "indexed": false,
          "internalType": "uint256",
          "name": "_oldLimit",
          "type": "uint256"
        },
        {
          "indexed": false,
          "internalType": "uint256",
          "name": "_newLimit",
          "type": "uint256"
        }
      ],
      "name": "WithdrawLimitMonthlyPerUserChanged",
      "type": "event"
    },
    {
      "anonymous": false,
      "inputs": [],
      "name": "WithdrawLimitReset",
      "type": "event"
    },
    {
      "anonymous": false,
      "inputs": [
        {
          "indexed": false,
          "internalType": "uint256",
          "name": "_oldLimit",
          "type": "uint256"
        },
        {
          "indexed": false,
          "internalType": "uint256",
          "name": "_newLimit",
          "type": "uint256"
        }
      ],
      "name": "WithdrawLimitYearlyGlobalChanged",
      "type": "event"
    },
    {
      "anonymous": false,
      "inputs": [
        {
          "indexed": false,
          "internalType": "uint256",
          "name": "_oldLimit",
          "type": "uint256"
        },
        {
          "indexed": false,
          "internalType": "uint256",
          "name": "_newLimit",
          "type": "uint256"
        }
      ],
      "name": "WithdrawLimitYearlyPerUserChanged",
      "type": "event"
    },
    {
      "inputs": [],
      "name": "ADMINISTRATOR_ROLE",
      "outputs": [
        {
          "internalType": "bytes32",
          "name": "",
          "type": "bytes32"
        }
      ],
      "stateMutability": "view",
      "type": "function",
      "constant": true
    },
    {
      "inputs": [],
      "name": "SIDECHAINOPERATOR_ROLE",
      "outputs": [
        {
          "internalType": "bytes32",
          "name": "",
          "type": "bytes32"
        }
      ],
      "stateMutability": "view",
      "type": "function",
      "constant": true
    },
    {
      "inputs": [],
      "name": "bridgeNonce",
      "outputs": [
        {
          "internalType": "uint256",
          "name": "",
          "type": "uint256"
        }
      ],
      "stateMutability": "view",
      "type": "function",
      "constant": true
    },
    {
      "inputs": [
        {
          "internalType": "bytes32",
          "name": "",
          "type": "bytes32"
        }
      ],
      "name": "claimFromInactivity",
      "outputs": [
        {
          "internalType": "bool",
          "name": "",
          "type": "bool"
        }
      ],
      "stateMutability": "view",
      "type": "function",
      "constant": true
    },
    {
      "inputs": [],
      "name": "inactivityPeriod",
      "outputs": [
        {
          "internalType": "uint256",
          "name": "",
          "type": "uint256"
        }
      ],
      "stateMutability": "view",
      "type": "function",
      "constant": true
    },
    {
      "inputs": [],
      "name": "poolFee",
      "outputs": [
        {
          "internalType": "uint24",
          "name": "",
          "type": "uint24"
        }
      ],
      "stateMutability": "view",
      "type": "function",
      "constant": true
    },
    {
      "inputs": [],
      "name": "recoveryEnabled",
      "outputs": [
        {
          "internalType": "bool",
          "name": "",
          "type": "bool"
        }
      ],
      "stateMutability": "view",
      "type": "function",
      "constant": true
    },
    {
      "inputs": [],
      "name": "swapRouter",
      "outputs": [
        {
          "internalType": "contract ISwapRouter",
          "name": "",
          "type": "address"
        }
      ],
      "stateMutability": "view",
      "type": "function",
      "constant": true
    },
    {
      "inputs": [
        {
          "internalType": "address",
          "name": "",
          "type": "address"
        }
      ],
      "name": "tokenClaimedOnThisChain",
      "outputs": [
        {
          "internalType": "uint256",
          "name": "amount",
          "type": "uint256"
        },
        {
          "internalType": "uint256",
          "name": "lastTransferAt",
          "type": "uint256"
        }
      ],
      "stateMutability": "view",
      "type": "function",
      "constant": true
    },
    {
      "inputs": [
        {
          "internalType": "address",
          "name": "",
          "type": "address"
        },
        {
          "internalType": "uint256",
          "name": "",
          "type": "uint256"
        }
      ],
      "name": "tokenSentToLinkedChain",
      "outputs": [
        {
          "internalType": "uint256",
          "name": "amount",
          "type": "uint256"
        },
        {
          "internalType": "uint256",
          "name": "lastTransferAt",
          "type": "uint256"
        }
      ],
      "stateMutability": "view",
      "type": "function",
      "constant": true
    },
    {
      "inputs": [],
      "name": "withdrawalData",
      "outputs": [
        {
          "internalType": "bytes32",
          "name": "merkleRoot",
          "type": "bytes32"
        },
        {
          "internalType": "uint256",
          "name": "lastUpdatedAt",
          "type": "uint256"
        }
      ],
      "stateMutability": "view",
      "type": "function",
      "constant": true
    },
    {
      "inputs": [],
      "name": "withdrawalLimitGlobalDaily",
      "outputs": [
        {
          "internalType": "uint256",
          "name": "",
          "type": "uint256"
        }
      ],
      "stateMutability": "view",
      "type": "function",
      "constant": true
    },
    {
      "inputs": [],
      "name": "withdrawalLimitGlobalMonthly",
      "outputs": [
        {
          "internalType": "uint256",
          "name": "",
          "type": "uint256"
        }
      ],
      "stateMutability": "view",
      "type": "function",
      "constant": true
    },
    {
      "inputs": [],
      "name": "withdrawalLimitGlobalYearly",
      "outputs": [
        {
          "internalType": "uint256",
          "name": "",
          "type": "uint256"
        }
      ],
      "stateMutability": "view",
      "type": "function",
      "constant": true
    },
    {
      "inputs": [],
      "name": "withdrawalLimitPerUserDaily",
      "outputs": [
        {
          "internalType": "uint256",
          "name": "",
          "type": "uint256"
        }
      ],
      "stateMutability": "view",
      "type": "function",
      "constant": true
    },
    {
      "inputs": [],
      "name": "withdrawalLimitPerUserMonthly",
      "outputs": [
        {
          "internalType": "uint256",
          "name": "",
          "type": "uint256"
        }
      ],
      "stateMutability": "view",
      "type": "function",
      "constant": true
    },
    {
      "inputs": [],
      "name": "withdrawalLimitPerUserYearly",
      "outputs": [
        {
          "internalType": "uint256",
          "name": "",
          "type": "uint256"
        }
      ],
      "stateMutability": "view",
      "type": "function",
      "constant": true
    },
    {
      "inputs": [
        {
          "internalType": "address",
          "name": "",
          "type": "address"
        },
        {
          "internalType": "uint256",
          "name": "",
          "type": "uint256"
        }
      ],
      "name": "withdrawalPerUserPerDay",
      "outputs": [
        {
          "internalType": "uint256",
          "name": "",
          "type": "uint256"
        }
      ],
      "stateMutability": "view",
      "type": "function",
      "constant": true
    },
    {
      "inputs": [
        {
          "internalType": "address",
          "name": "",
          "type": "address"
        },
        {
          "internalType": "uint256",
          "name": "",
          "type": "uint256"
        }
      ],
      "name": "withdrawalPerUserPerMonth",
      "outputs": [
        {
          "internalType": "uint256",
          "name": "",
          "type": "uint256"
        }
      ],
      "stateMutability": "view",
      "type": "function",
      "constant": true
    },
    {
      "inputs": [
        {
          "internalType": "address",
          "name": "",
          "type": "address"
        },
        {
          "internalType": "uint256",
          "name": "",
          "type": "uint256"
        }
      ],
      "name": "withdrawalPerUserPerYear",
      "outputs": [
        {
          "internalType": "uint256",
          "name": "",
          "type": "uint256"
        }
      ],
      "stateMutability": "view",
      "type": "function",
      "constant": true
    },
    {
      "inputs": [
        {
          "internalType": "uint256",
          "name": "",
          "type": "uint256"
        }
      ],
      "name": "withdrawalsGlobalDaily",
      "outputs": [
        {
          "internalType": "uint256",
          "name": "",
          "type": "uint256"
        }
      ],
      "stateMutability": "view",
      "type": "function",
      "constant": true
    },
    {
      "inputs": [
        {
          "internalType": "uint256",
          "name": "",
          "type": "uint256"
        }
      ],
      "name": "withdrawalsGlobalMonthly",
      "outputs": [
        {
          "internalType": "uint256",
          "name": "",
          "type": "uint256"
        }
      ],
      "stateMutability": "view",
      "type": "function",
      "constant": true
    },
    {
      "inputs": [
        {
          "internalType": "uint256",
          "name": "",
          "type": "uint256"
        }
      ],
      "name": "withdrawalsGlobalYearly",
      "outputs": [
        {
          "internalType": "uint256",
          "name": "",
          "type": "uint256"
        }
      ],
      "stateMutability": "view",
      "type": "function",
      "constant": true
    },
    {
      "stateMutability": "payable",
      "type": "receive",
      "payable": true
    },
    {
      "inputs": [
        {
          "internalType": "address",
          "name": "_stateAddress",
          "type": "address"
        },
        {
          "internalType": "bool",
          "name": "_recoveryEnabled",
          "type": "bool"
        },
        {
          "internalType": "contract ISwapRouter",
          "name": "_swapRouter",
          "type": "address"
        }
      ],
      "name": "initialize",
      "outputs": [],
      "stateMutability": "nonpayable",
      "type": "function"
    },
    {
      "inputs": [
        {
          "internalType": "address",
          "name": "_stateAddress",
          "type": "address"
        }
      ],
      "name": "setMorpherState",
      "outputs": [],
      "stateMutability": "nonpayable",
      "type": "function"
    },
    {
      "inputs": [
        {
          "internalType": "contract ISwapRouter",
          "name": "_swapRouter",
          "type": "address"
        }
      ],
      "name": "updateSwapRouter",
      "outputs": [],
      "stateMutability": "nonpayable",
      "type": "function"
    },
    {
      "inputs": [
        {
          "internalType": "uint256",
          "name": "_periodInSeconds",
          "type": "uint256"
        }
      ],
      "name": "setInactivityPeriod",
      "outputs": [],
      "stateMutability": "nonpayable",
      "type": "function"
    },
    {
      "inputs": [
        {
          "internalType": "bytes32",
          "name": "_rootHash",
          "type": "bytes32"
        }
      ],
      "name": "updateSideChainMerkleRoot",
      "outputs": [],
      "stateMutability": "nonpayable",
      "type": "function"
    },
    {
      "inputs": [
        {
          "internalType": "uint256",
          "name": "_withdrawLimit",
          "type": "uint256"
        }
      ],
      "name": "updateWithdrawLimitPerUserDaily",
      "outputs": [],
      "stateMutability": "nonpayable",
      "type": "function"
    },
    {
      "inputs": [
        {
          "internalType": "uint256",
          "name": "_withdrawLimit",
          "type": "uint256"
        }
      ],
      "name": "updateWithdrawLimitPerUserMonthly",
      "outputs": [],
      "stateMutability": "nonpayable",
      "type": "function"
    },
    {
      "inputs": [
        {
          "internalType": "uint256",
          "name": "_withdrawLimit",
          "type": "uint256"
        }
      ],
      "name": "updateWithdrawLimitPerUserYearly",
      "outputs": [],
      "stateMutability": "nonpayable",
      "type": "function"
    },
    {
      "inputs": [
        {
          "internalType": "uint256",
          "name": "_withdrawLimit",
          "type": "uint256"
        }
      ],
      "name": "updateWithdrawLimitGlobalDaily",
      "outputs": [],
      "stateMutability": "nonpayable",
      "type": "function"
    },
    {
      "inputs": [
        {
          "internalType": "uint256",
          "name": "_withdrawLimit",
          "type": "uint256"
        }
      ],
      "name": "updateWithdrawLimitGlobalMonthly",
      "outputs": [],
      "stateMutability": "nonpayable",
      "type": "function"
    },
    {
      "inputs": [
        {
          "internalType": "uint256",
          "name": "_withdrawLimit",
          "type": "uint256"
        }
      ],
      "name": "updateWithdrawLimitGlobalYearly",
      "outputs": [],
      "stateMutability": "nonpayable",
      "type": "function"
    },
    {
      "inputs": [
        {
          "internalType": "address",
          "name": "_usr",
          "type": "address"
        },
        {
          "internalType": "uint256",
          "name": "_amount",
          "type": "uint256"
        }
      ],
      "name": "isNotDailyLimitExceeding",
      "outputs": [
        {
          "internalType": "bool",
          "name": "",
          "type": "bool"
        }
      ],
      "stateMutability": "view",
      "type": "function",
      "constant": true
    },
    {
      "inputs": [
        {
          "internalType": "address",
          "name": "_usr",
          "type": "address"
        },
        {
          "internalType": "uint256",
          "name": "_amount",
          "type": "uint256"
        }
      ],
      "name": "isNotMonthlyLimitExceeding",
      "outputs": [
        {
          "internalType": "bool",
          "name": "",
          "type": "bool"
        }
      ],
      "stateMutability": "view",
      "type": "function",
      "constant": true
    },
    {
      "inputs": [
        {
          "internalType": "address",
          "name": "_usr",
          "type": "address"
        },
        {
          "internalType": "uint256",
          "name": "_amount",
          "type": "uint256"
        }
      ],
      "name": "isNotYearlyLimitExceeding",
      "outputs": [
        {
          "internalType": "bool",
          "name": "",
          "type": "bool"
        }
      ],
      "stateMutability": "view",
      "type": "function",
      "constant": true
    },
    {
      "inputs": [
        {
          "internalType": "address",
          "name": "_usr",
          "type": "address"
        },
        {
          "internalType": "uint256",
          "name": "_amount",
          "type": "uint256"
        }
      ],
      "name": "verifyUpdateDailyLimit",
      "outputs": [],
      "stateMutability": "nonpayable",
      "type": "function"
    },
    {
      "inputs": [
        {
          "internalType": "address",
          "name": "_usr",
          "type": "address"
        },
        {
          "internalType": "uint256",
          "name": "_amount",
          "type": "uint256"
        }
      ],
      "name": "verifyUpdateMonthlyLimit",
      "outputs": [],
      "stateMutability": "nonpayable",
      "type": "function"
    },
    {
      "inputs": [
        {
          "internalType": "address",
          "name": "_usr",
          "type": "address"
        },
        {
          "internalType": "uint256",
          "name": "_amount",
          "type": "uint256"
        }
      ],
      "name": "verifyUpdateYearlyLimit",
      "outputs": [],
      "stateMutability": "nonpayable",
      "type": "function"
    },
    {
      "inputs": [
        {
          "internalType": "uint256",
          "name": "_tokens",
          "type": "uint256"
        },
        {
          "internalType": "uint256",
          "name": "_targetChainId",
          "type": "uint256"
        }
      ],
      "name": "stageTokensForTransfer",
      "outputs": [],
      "stateMutability": "nonpayable",
      "type": "function"
    },
    {
      "inputs": [
        {
          "internalType": "uint256",
          "name": "_tokens",
          "type": "uint256"
        },
        {
          "internalType": "uint256",
          "name": "_targetChainId",
          "type": "uint256"
        },
        {
          "internalType": "address",
          "name": "_autoWithdrawalAddressTo",
          "type": "address"
        },
        {
          "internalType": "bytes",
          "name": "_signature",
          "type": "bytes"
        }
      ],
      "name": "stageTokensForTransfer",
      "outputs": [],
      "stateMutability": "nonpayable",
      "type": "function"
    },
    {
      "inputs": [
        {
          "internalType": "uint256",
          "name": "_numOfToken",
          "type": "uint256"
        },
        {
          "internalType": "uint256",
          "name": "_claimLimit",
          "type": "uint256"
        },
        {
          "internalType": "bytes32[]",
          "name": "_proof",
          "type": "bytes32[]"
        }
      ],
      "name": "claimStagedTokens",
      "outputs": [],
      "stateMutability": "nonpayable",
      "type": "function"
    },
    {
      "inputs": [
        {
          "internalType": "uint256",
          "name": "_numOfToken",
          "type": "uint256"
        },
        {
          "internalType": "uint256",
          "name": "_claimLimit",
          "type": "uint256"
        },
        {
          "internalType": "bytes32[]",
          "name": "_proof",
          "type": "bytes32[]"
        },
        {
          "internalType": "address payable",
          "name": "_finalOutput",
          "type": "address"
        }
      ],
      "name": "claimStagedTokensConvertAndSend",
      "outputs": [],
      "stateMutability": "nonpayable",
      "type": "function"
    },
    {
      "inputs": [
        {
          "internalType": "address",
          "name": "_usrAddr",
          "type": "address"
        },
        {
          "internalType": "uint256",
          "name": "_numOfToken",
          "type": "uint256"
        },
        {
          "internalType": "uint256",
          "name": "fee",
          "type": "uint256"
        },
        {
          "internalType": "address",
          "name": "feeRecipient",
          "type": "address"
        },
        {
          "internalType": "uint256",
          "name": "_claimLimit",
          "type": "uint256"
        },
        {
          "internalType": "bytes32[]",
          "name": "_proof",
          "type": "bytes32[]"
        },
        {
          "internalType": "address payable",
          "name": "_finalOutput",
          "type": "address"
        },
        {
          "internalType": "bytes32",
          "name": "_rootHash",
          "type": "bytes32"
        },
        {
          "internalType": "bytes",
          "name": "_userConfirmationSignature",
          "type": "bytes"
        }
      ],
      "name": "claimStagedTokensConvertAndSendForUser",
      "outputs": [
        {
          "internalType": "uint256",
          "name": "",
          "type": "uint256"
        }
      ],
      "stateMutability": "nonpayable",
      "type": "function"
    },
    {
      "inputs": [
        {
          "internalType": "uint256",
          "name": "_wrongSideChainBalance",
          "type": "uint256"
        },
        {
          "internalType": "bytes32[]",
          "name": "_proof",
          "type": "bytes32[]"
        },
        {
          "internalType": "uint256",
          "name": "_targetChainId",
          "type": "uint256"
        }
      ],
      "name": "claimFailedTransferToSidechain",
      "outputs": [],
      "stateMutability": "nonpayable",
      "type": "function"
    },
    {
      "inputs": [
        {
          "internalType": "bytes32[]",
          "name": "_proof",
          "type": "bytes32[]"
        },
        {
          "internalType": "bytes32",
          "name": "_leaf",
          "type": "bytes32"
        },
        {
          "internalType": "bytes32",
          "name": "_marketId",
          "type": "bytes32"
        },
        {
          "internalType": "uint256",
          "name": "_timeStamp",
          "type": "uint256"
        },
        {
          "internalType": "uint256",
          "name": "_longShares",
          "type": "uint256"
        },
        {
          "internalType": "uint256",
          "name": "_shortShares",
          "type": "uint256"
        },
        {
          "internalType": "uint256",
          "name": "_meanEntryPrice",
          "type": "uint256"
        },
        {
          "internalType": "uint256",
          "name": "_meanEntrySpread",
          "type": "uint256"
        },
        {
          "internalType": "uint256",
          "name": "_meanEntryLeverage",
          "type": "uint256"
        },
        {
          "internalType": "uint256",
          "name": "_liquidationPrice",
          "type": "uint256"
        }
      ],
      "name": "recoverPositionFromInactivity",
      "outputs": [],
      "stateMutability": "nonpayable",
      "type": "function"
    },
    {
      "inputs": [
        {
          "internalType": "bytes32[]",
          "name": "_proof",
          "type": "bytes32[]"
        },
        {
          "internalType": "bytes32",
          "name": "_leaf",
          "type": "bytes32"
        },
        {
          "internalType": "uint256",
          "name": "_balance",
          "type": "uint256"
        }
      ],
      "name": "recoverTokenFromInactivity",
      "outputs": [],
      "stateMutability": "nonpayable",
      "type": "function"
    },
    {
      "inputs": [
        {
          "internalType": "bytes32[]",
          "name": "_proof",
          "type": "bytes32[]"
        },
        {
          "internalType": "bytes32",
          "name": "_leaf",
          "type": "bytes32"
        }
      ],
      "name": "mProof",
      "outputs": [
        {
          "internalType": "bool",
          "name": "_isTrue",
          "type": "bool"
        }
      ],
      "stateMutability": "view",
      "type": "function",
      "constant": true
    },
    {
      "inputs": [
        {
          "internalType": "address",
          "name": "_address",
          "type": "address"
        },
        {
          "internalType": "uint256",
          "name": "_balance",
          "type": "uint256"
        }
      ],
      "name": "getBalanceHash",
      "outputs": [
        {
          "internalType": "bytes32",
          "name": "_hash",
          "type": "bytes32"
        }
      ],
      "stateMutability": "pure",
      "type": "function",
      "constant": true
    }
  ],
  "bytecode": "0x608060405234801561001057600080fd5b5061528f806100206000396000f3fe6080604052600436106102cd5760003560e01c8063857b0da011610175578063c4b907ad116100dc578063e628eb5b11610095578063ec65d96c1161006f578063ec65d96c1461094c578063f03c6fdc1461096c578063f45edb5f1461098c578063fb16f5a9146109ae57600080fd5b8063e628eb5b146108ec578063e7f34bb71461090c578063e93f271d1461092c57600080fd5b8063c4b907ad1461083d578063cb1b92fb1461085d578063d345a76214610873578063d362bd2b14610893578063da9a6b35146108a9578063de8a5746146108d657600080fd5b8063a31c98b71161012e578063a31c98b714610752578063abc35a911461078a578063af434a6d146107a5578063b9154846146107c5578063b98b677f146107e5578063c31c9c071461080557600080fd5b8063857b0da01461064e5780638cd845d91461066e5780639291b7e21461069b57806392e7c76e146106bb578063a1949a0a146106db578063a2f1491f1461071357600080fd5b80634888a7d11161023457806358b0e6b5116101ed5780637946541e116101c75780637946541e146105c65780637ac15763146105e0578063801046681461061857806383ecd6121461063857600080fd5b806358b0e6b5146105705780636b92c06e14610586578063773cc3ff146105a657600080fd5b80634888a7d1146104b057806349c01664146104d057806350456b30146104f05780635300597b1461051057806354dddf431461053057806355069a811461055057600080fd5b806321bb10bb1161028657806321bb10bb146103c45780632e55e76e146103da5780632f21278c146103fa5780633b45c3551461041a5780633c14e3521461044757806345bc550c1461049057600080fd5b8063015b3ab4146102d957806303d230441461031e578063089fe6aa146103405780630e3575431461036a5780631c0ffbd01461038a5780631f87a250146103ae57600080fd5b366102d457005b600080fd5b3480156102e557600080fd5b506103096102f436600461477a565b60456020526000908152604090205460ff1681565b60405190151581526020015b60405180910390f35b34801561032a57600080fd5b5061033e61033936600461485a565b6109d0565b005b34801561034c57600080fd5b50610356610bb881565b60405162ffffff9091168152602001610315565b34801561037657600080fd5b5061033e6103853660046148cd565b610cbb565b34801561039657600080fd5b506103a0603a5481565b604051908152602001610315565b3480156103ba57600080fd5b506103a060495481565b3480156103d057600080fd5b506103a060385481565b3480156103e657600080fd5b5061033e6103f536600461477a565b610db3565b34801561040657600080fd5b5061033e61041536600461477a565b610f0a565b34801561042657600080fd5b506103a061043536600461477a565b60406020819052600091825290205481565b34801561045357600080fd5b5061047b6104623660046148f9565b6048602052600090815260409020805460019091015482565b60408051928352602083019190915201610315565b34801561049c57600080fd5b506103096104ab3660046148cd565b611061565b3480156104bc57600080fd5b5061033e6104cb366004614924565b6110e9565b3480156104dc57600080fd5b5061033e6104eb36600461477a565b611229565b3480156104fc57600080fd5b5061033e61050b36600461496f565b61137f565b34801561051c57600080fd5b5061030961052b366004614991565b6117af565b34801561053c57600080fd5b5061033e61054b3660046149d6565b6117c1565b34801561055c57600080fd5b5061033e61056b36600461477a565b611d15565b34801561057c57600080fd5b506103a060355481565b34801561059257600080fd5b506103096105a13660046148cd565b611e6c565b3480156105b257600080fd5b5061033e6105c1366004614a39565b611ed1565b3480156105d257600080fd5b506044546103099060ff1681565b3480156105ec57600080fd5b506103a06105fb3660046148cd565b603c60209081526000928352604080842090915290825290205481565b34801561062457600080fd5b5061033e6106333660046148f9565b6123f2565b34801561064457600080fd5b506103a060375481565b34801561065a57600080fd5b506103a06106693660046148cd565b612555565b34801561067a57600080fd5b506103a061068936600461477a565b603f6020526000908152604090205481565b3480156106a757600080fd5b506103a06106b6366004614af9565b612597565b3480156106c757600080fd5b5061033e6106d636600461477a565b612e1a565b3480156106e757600080fd5b506103a06106f63660046148cd565b603b60209081526000928352604080842090915290825290205481565b34801561071f57600080fd5b5061047b61072e3660046148cd565b60476020908152600092835260408084209091529082529020805460019091015482565b34801561075e57600080fd5b506103a061076d3660046148cd565b603d60209081526000928352604080842090915290825290205481565b34801561079657600080fd5b5060415460425461047b919082565b3480156107b157600080fd5b5061033e6107c036600461477a565b612f71565b3480156107d157600080fd5b5061033e6107e03660046148cd565b61308c565b3480156107f157600080fd5b5061033e6108003660046148f9565b61315b565b34801561081157600080fd5b50604654610825906001600160a01b031681565b6040516001600160a01b039091168152602001610315565b34801561084957600080fd5b5061033e610858366004614bba565b613293565b34801561086957600080fd5b506103a060395481565b34801561087f57600080fd5b5061033e61088e3660046148cd565b6136da565b34801561089f57600080fd5b506103a060435481565b3480156108b557600080fd5b506103a06108c436600461477a565b603e6020526000908152604090205481565b3480156108e257600080fd5b506103a060365481565b3480156108f857600080fd5b5061033e61090736600461477a565b6137ab565b34801561091857600080fd5b5061033e610927366004614c1d565b613902565b34801561093857600080fd5b506103096109473660046148cd565b613d9d565b34801561095857600080fd5b5061033e61096736600461477a565b613e04565b34801561097857600080fd5b5061033e610987366004614ca7565b613f5b565b34801561099857600080fd5b506103a060008051602061523a83398151915281565b3480156109ba57600080fd5b506103a060008051602061521a83398151915281565b6042546043546109e09042614d0d565b11610a065760405162461bcd60e51b81526004016109fd90614d24565b60405180910390fd5b603360009054906101000a90046001600160a01b03166001600160a01b03166350a71bac6040518163ffffffff1660e01b8152600401602060405180830381865afa158015610a59573d6000803e3d6000fd5b505050506040513d601f19601f82011682018060405250810190610a7d9190614d8e565b6001600160a01b031663ac259ace336040516001600160e01b031960e084901b1681526001600160a01b039091166004820152602401602060405180830381865afa158015610ad0573d6000803e3d6000fd5b505050506040513d601f19601f82011682018060405250810190610af49190614dab565b15610b115760405162461bcd60e51b81526004016109fd90614dc8565b60445460ff16610b335760405162461bcd60e51b81526004016109fd90614dff565b610b3d3382612555565b8214610b8b5760405162461bcd60e51b815260206004820152601d60248201527f4d6f72706865724272696467653a2057726f6e672062616c616e63652e00000060448201526064016109fd565b60008281526045602052604090205460ff1615610bfc5760405162461bcd60e51b815260206004820152602960248201527f4d6f72706865724272696467653a20546f6b656e20616c7265616479207472616044820152683739b332b93932b21760b91b60648201526084016109fd565b610c0683836117af565b1515600114610c275760405162461bcd60e51b81526004016109fd90614e50565b6000828152604560205260409020805460ff19166001179055610c50610c4a3390565b8261308c565b610c5b335b826136da565b610c66335b82610cbb565b33600081815260486020526040902054610c81919083614168565b60405182815233907f0534719a5dcedfc13619bb4206e36ba0e42fb7d166c8b8a79320c8128fc3af549060200160405180910390a2505050565b610cc58282613d9d565b610d2f5760405162461bcd60e51b815260206004820152603560248201527f4d6f72706865724272696467653a205769746864726177616c20416d6f756e7460448201527408195e18d959591cc81e59585c9b1e481b1a5b5a5d605a1b60648201526084016109fd565b6001600160a01b0382166000908152603d602052604081208291610d576301e1338042614e93565b81526020019081526020016000206000828254610d749190614eb5565b9091555081905060406000610d8d6301e1338042614e93565b81526020019081526020016000206000828254610daa9190614eb5565b90915550505050565b60335460408051630140cb6560e51b8152905160008051602061521a833981519152926001600160a01b0316916328196ca09160048083019260209291908290030181865afa158015610e0a573d6000803e3d6000fd5b505050506040513d601f19601f82011682018060405250810190610e2e9190614d8e565b6001600160a01b03166391d1485482336040516001600160e01b031960e085901b16815260048101929092526001600160a01b03166024820152604401602060405180830381865afa158015610e88573d6000803e3d6000fd5b505050506040513d601f19601f82011682018060405250810190610eac9190614dab565b610ec85760405162461bcd60e51b81526004016109fd90614ecd565b60375460408051918252602082018490527f58876df72ecce56c44d758d22355bb689efaa4946003c9bf0d75a228d1c0612f910160405180910390a150603755565b60335460408051630140cb6560e51b8152905160008051602061521a833981519152926001600160a01b0316916328196ca09160048083019260209291908290030181865afa158015610f61573d6000803e3d6000fd5b505050506040513d601f19601f82011682018060405250810190610f859190614d8e565b6001600160a01b03166391d1485482336040516001600160e01b031960e085901b16815260048101929092526001600160a01b03166024820152604401602060405180830381865afa158015610fdf573d6000803e3d6000fd5b505050506040513d601f19601f820116820180604052508101906110039190614dab565b61101f5760405162461bcd60e51b81526004016109fd90614ecd565b60355460408051918252602082018490527f8a30f3401f82aa6b9ef6b22cd0efee6be3c06cc377d13e718a97bdb5eccb811a910160405180910390a150603555565b6035546001600160a01b0383166000908152603b6020526040812090919083908361108f6201518042614e93565b8152602001908152602001600020546110a89190614eb5565b111580156110e2575060385482603e60006110c66201518042614e93565b8152602001908152602001600020546110df9190614eb5565b11155b9392505050565b600054610100900460ff166111045760005460ff1615611108565b303b155b61116b5760405162461bcd60e51b815260206004820152602e60248201527f496e697469616c697a61626c653a20636f6e747261637420697320616c72656160448201526d191e481a5b9a5d1a585b1a5e995960921b60648201526084016109fd565b600054610100900460ff1615801561118d576000805461ffff19166101011790555b603380546001600160a01b038087166001600160a01b0319928316179092556044805486151560ff19909116179055692a5a058fc295ed000000603581905569d3c21bcecceda100000060368190556a0422ca8b0a00a4250000006037819055603892909255603955603a556203f48060435560468054928516929091169190911790558015611223576000805461ff00191690555b50505050565b60335460408051630140cb6560e51b8152905160008051602061521a833981519152926001600160a01b0316916328196ca09160048083019260209291908290030181865afa158015611280573d6000803e3d6000fd5b505050506040513d601f19601f820116820180604052508101906112a49190614d8e565b6001600160a01b03166391d1485482336040516001600160e01b031960e085901b16815260048101929092526001600160a01b03166024820152604401602060405180830381865afa1580156112fe573d6000803e3d6000fd5b505050506040513d601f19601f820116820180604052508101906113229190614dab565b61133e5760405162461bcd60e51b81526004016109fd90614ecd565b6041829055426042556040518281527fce559c2f7d86d801cf61f2bfd589e7926036f75a2c58e06b35378f308637d504906020015b60405180910390a15050565b603360009054906101000a90046001600160a01b03166001600160a01b03166350a71bac6040518163ffffffff1660e01b8152600401602060405180830381865afa1580156113d2573d6000803e3d6000fd5b505050506040513d601f19601f820116820180604052508101906113f69190614d8e565b6001600160a01b031663ac259ace336040516001600160e01b031960e084901b1681526001600160a01b039091166004820152602401602060405180830381865afa158015611449573d6000803e3d6000fd5b505050506040513d601f19601f8201168201806040525081019061146d9190614dab565b1561148a5760405162461bcd60e51b81526004016109fd90614dc8565b611494338361308c565b61149e33836136da565b6114a83383610cbb565b60335460408051632192ab5d60e11b8152905168056bc75e2d63100000926001600160a01b03169163432556ba9160048083019260209291908290030181865afa1580156114fa573d6000803e3d6000fd5b505050506040513d601f19601f8201168201806040525081019061151e9190614d8e565b6001600160a01b0316639dc29fac336040516001600160e01b031960e084901b1681526001600160a01b03909116600482015260248101849052604401600060405180830381600087803b15801561157557600080fd5b505af1158015611589573d6000803e3d6000fd5b505050506000818461159b9190614d0d565b9050603360009054906101000a90046001600160a01b03166001600160a01b031663432556ba6040518163ffffffff1660e01b8152600401602060405180830381865afa1580156115f0573d6000803e3d6000fd5b505050506040513d601f19601f820116820180604052508101906116149190614d8e565b6001600160a01b0316639dc29fac336040516001600160e01b031960e084901b1681526001600160a01b03909116600482015260248101849052604401600060405180830381600087803b15801561166b57600080fd5b505af115801561167f573d6000803e3d6000fd5b50505050600081604760006116913390565b6001600160a01b03168152602080820192909252604090810160009081208882529092529020546116c29190614eb5565b905060006116ce614262565b9050426000338585848a876040516020016116ee96959493929190614f0e565b60405160208183030381529060405280519060200120905083604760006117123390565b6001600160a01b03168152602080820192909252604090810160009081208b825283528181209390935533808452604783528184208b855283529281902042600190910155805188815291820187905281810185905260608201869052608082018a9052518392917f22d7abd4c58e0b77e5d1da401e0ed36ada87c92c62c0fade36d396d12bf5dc7d919081900360a00190a35050505050505050565b60006110e28360416000015484614280565b603360009054906101000a90046001600160a01b03166001600160a01b03166350a71bac6040518163ffffffff1660e01b8152600401602060405180830381865afa158015611814573d6000803e3d6000fd5b505050506040513d601f19601f820116820180604052508101906118389190614d8e565b6001600160a01b031663ac259ace336040516001600160e01b031960e084901b1681526001600160a01b039091166004820152602401602060405180830381865afa15801561188b573d6000803e3d6000fd5b505050506040513d601f19601f820116820180604052508101906118af9190614dab565b156118cc5760405162461bcd60e51b81526004016109fd90614dc8565b60003384466040516020016118e393929190614f45565b6040516020818303038152906040528051906020012090506000604860006119083390565b6001600160a01b03168152602081019190915260400160002054905061192e84836117af565b61194a5760405162461bcd60e51b81526004016109fd90614f6a565b846119558783614eb5565b11156119735760405162461bcd60e51b81526004016109fd90614fed565b61197d338761308c565b61198733876136da565b6119913387610cbb565b61199c308288614168565b60405186815233907f943c724b337822464f019ef425f7d5b1dd7ca039317dabe7446a630a6b8236d39060200160405180910390a260335460408051632192ab5d60e11b81529051611a52926001600160a01b03169163432556ba9160048083019260209291908290030181865afa158015611a1c573d6000803e3d6000fd5b505050506040513d601f19601f82011682018060405250810190611a409190614d8e565b6046546001600160a01b031688614296565b604080516101008101808352603354632192ab5d60e11b909152915160009282916001600160a01b039091169063432556ba90610104808501916020918187030181865afa158015611aa8573d6000803e3d6000fd5b505050506040513d601f19601f82011682018060405250810190611acc9190614d8e565b6001600160a01b03168152602001604660009054906101000a90046001600160a01b03166001600160a01b0316634aa4a4fc6040518163ffffffff1660e01b8152600401602060405180830381865afa158015611b2d573d6000803e3d6000fd5b505050506040513d601f19601f82011682018060405250810190611b519190614d8e565b6001600160a01b039081168252610bb8602083015230604080840191909152426060840152608083018b9052600060a0840181905260c0909301839052604654905163414bf38960e01b8152939450919291169063414bf38990611bb9908590600401615055565b6020604051808303816000875af1158015611bd8573d6000803e3d6000fd5b505050506040513d601f19601f82011682018060405250810190611bfc91906150be565b9050604660009054906101000a90046001600160a01b03166001600160a01b0316634aa4a4fc6040518163ffffffff1660e01b8152600401602060405180830381865afa158015611c51573d6000803e3d6000fd5b505050506040513d601f19601f82011682018060405250810190611c759190614d8e565b6001600160a01b0316632e1a7d4d826040518263ffffffff1660e01b8152600401611ca291815260200190565b600060405180830381600087803b158015611cbc57600080fd5b505af1158015611cd0573d6000803e3d6000fd5b50506040516001600160a01b038816925083156108fc02915083906000818181858888f19350505050158015611d0a573d6000803e3d6000fd5b505050505050505050565b60335460408051630140cb6560e51b8152905160008051602061521a833981519152926001600160a01b0316916328196ca09160048083019260209291908290030181865afa158015611d6c573d6000803e3d6000fd5b505050506040513d601f19601f82011682018060405250810190611d909190614d8e565b6001600160a01b03166391d1485482336040516001600160e01b031960e085901b16815260048101929092526001600160a01b03166024820152604401602060405180830381865afa158015611dea573d6000803e3d6000fd5b505050506040513d601f19601f82011682018060405250810190611e0e9190614dab565b611e2a5760405162461bcd60e51b81526004016109fd90614ecd565b60395460408051918252602082018490527f53e006bea65a38d4b925b9299178d9c25ae1236005e70c46dc1d1d6329e41ff2910160405180910390a150603955565b6036546001600160a01b0383166000908152603c60205260408120909190839083611e9a62278d0042614e93565b815260200190815260200160002054611eb39190614eb5565b111580156110e2575060395482603f60006110c662278d0042614e93565b603360009054906101000a90046001600160a01b03166001600160a01b03166350a71bac6040518163ffffffff1660e01b8152600401602060405180830381865afa158015611f24573d6000803e3d6000fd5b505050506040513d601f19601f82011682018060405250810190611f489190614d8e565b6001600160a01b031663ac259ace336040516001600160e01b031960e084901b1681526001600160a01b039091166004820152602401602060405180830381865afa158015611f9b573d6000803e3d6000fd5b505050506040513d601f19601f82011682018060405250810190611fbf9190614dab565b15611fdc5760405162461bcd60e51b81526004016109fd90614dc8565b6040516001600160601b03193360601b16602082015260348101849052600090605401604051602081830303815290604052805190602001209050604354604760006120253390565b6001600160a01b03166001600160a01b031681526020019081526020016000206000848152602001908152602001600020600101546120649190614eb5565b42116120ec5760405162461bcd60e51b815260206004820152604b60248201527f4d6f72706865724272696467653a204661696c6564206465706f73697473206360448201527f616e206f6e6c7920626520636c61696d656420616674657220696e616374697660648201526a34ba3c903832b934b7b21760a91b608482015260a4016109fd565b33600090815260476020908152604080832085845290915290205484106121905760405162461bcd60e51b815260206004820152604c60248201527f4d6f72706865724272696467653a204f7468657220636861696e20637265646960448201527f74206973206772656174657220657175616c20746f2077726f6e67536964654360648201526b3430b4b72130b630b731b29760a11b608482015260a4016109fd565b61219a83826117af565b6122265760405162461bcd60e51b815260206004820152605160248201527f4d6f72706865724272696467653a204d65726b6c652050726f6f66206661696c60448201527f65642e20456e74657220746f74616c20616d6f756e74206f66206465706f73696064820152703a399037b71039b4b2329031b430b4b71760791b608482015260a4016109fd565b33600090815260476020908152604080832085845290915281205461224c908690614d0d565b33600090815260476020908152604080832087845290915281208054929350839290919061227b908490614d0d565b90915550503360008181526047602090815260408083208784529091529020426001909101556122aa90610c4a565b6122b333610c55565b6122bc33610c60565b603360009054906101000a90046001600160a01b03166001600160a01b031663432556ba6040518163ffffffff1660e01b8152600401602060405180830381865afa15801561230f573d6000803e3d6000fd5b505050506040513d601f19601f820116820180604052508101906123339190614d8e565b6001600160a01b03166340c10f19336040516001600160e01b031960e084901b1681526001600160a01b03909116600482015260248101849052604401600060405180830381600087803b15801561238a57600080fd5b505af115801561239e573d6000803e3d6000fd5b505050506123a93390565b6001600160a01b03167ff3d1bd7b5416206939e66c9b6ee92563caaf8499c21668173d17cacbaefdc700826040516123e391815260200190565b60405180910390a25050505050565b60335460408051630140cb6560e51b8152905160008051602061523a833981519152926001600160a01b0316916328196ca09160048083019260209291908290030181865afa158015612449573d6000803e3d6000fd5b505050506040513d601f19601f8201168201806040525081019061246d9190614d8e565b6001600160a01b03166391d1485482336040516001600160e01b031960e085901b16815260048101929092526001600160a01b03166024820152604401602060405180830381865afa1580156124c7573d6000803e3d6000fd5b505050506040513d601f19601f820116820180604052508101906124eb9190614dab565b6125075760405162461bcd60e51b81526004016109fd90614ecd565b603380546001600160a01b0319166001600160a01b0384169081179091556040519081527f978c711532bae8c58f353b0f3c7f3a0dfe600d9ae9a81818f2ad2919b88e199090602001611373565b6040516001600160601b0319606084901b1660208201526034810182905260009060540160405160208183030381529060405280519060200120905092915050565b600060008051602061521a833981519152603360009054906101000a90046001600160a01b03166001600160a01b03166328196ca06040518163ffffffff1660e01b8152600401602060405180830381865afa1580156125fb573d6000803e3d6000fd5b505050506040513d601f19601f8201168201806040525081019061261f9190614d8e565b6001600160a01b03166391d1485482336040516001600160e01b031960e085901b16815260048101929092526001600160a01b03166024820152604401602060405180830381865afa158015612679573d6000803e3d6000fd5b505050506040513d601f19601f8201168201806040525081019061269d9190614dab565b6126b95760405162461bcd60e51b81526004016109fd90614ecd565b8a6001600160a01b03166127638461275d8d89466040516020016126fd9392919092835260609190911b6001600160601b0319166020830152603482015260540190565b60408051601f1981840301815282825280516020918201207f19457468657265756d205369676e6564204d6573736167653a0a33320000000084830152603c8085019190915282518085039091018152605c909301909152815191012090565b90614396565b6001600160a01b0316146127d25760405162461bcd60e51b815260206004820152603060248201527f4d6f72706865724272696467653a205573657273207369676e6174757265206460448201526f6f6573206e6f742076616c696461746560801b60648201526084016109fd565b6127db84611229565b60008b88466040516020016127f293929190614f45565b60408051601f1981840301815291815281516020928301206001600160a01b038f166000908152604890935291205490915061282e88836117af565b61284a5760405162461bcd60e51b81526004016109fd90614f6a565b886128558d83614eb5565b11156128735760405162461bcd60e51b81526004016109fd90614fed565b61287d8d8d61308c565b6128878d8d6136da565b6128918d8d610cbb565b61289b8c82614eb5565b6001600160a01b03808f16600090815260486020908152604091829020938455426001909401939093556033548151632192ab5d60e11b8152915192169263432556ba926004808401938290030181865afa1580156128fe573d6000803e3d6000fd5b505050506040513d601f19601f820116820180604052508101906129229190614d8e565b6040516340c10f1960e01b8152306004820152602481018e90526001600160a01b0391909116906340c10f1990604401600060405180830381600087803b15801561296c57600080fd5b505af1158015612980573d6000803e3d6000fd5b505050508c6001600160a01b03167f943c724b337822464f019ef425f7d5b1dd7ca039317dabe7446a630a6b8236d38d6040516129bf91815260200190565b60405180910390a2603360009054906101000a90046001600160a01b03166001600160a01b031663432556ba6040518163ffffffff1660e01b8152600401602060405180830381865afa158015612a1a573d6000803e3d6000fd5b505050506040513d601f19601f82011682018060405250810190612a3e9190614d8e565b60405163a9059cbb60e01b81526001600160a01b038c81166004830152602482018e9052919091169063a9059cbb906044016020604051808303816000875af1158015612a8f573d6000803e3d6000fd5b505050506040513d601f19601f82011682018060405250810190612ab39190614dab565b506000612ac08c8e614d0d565b9050612b4e603360009054906101000a90046001600160a01b03166001600160a01b031663432556ba6040518163ffffffff1660e01b8152600401602060405180830381865afa158015612b18573d6000803e3d6000fd5b505050506040513d601f19601f82011682018060405250810190612b3c9190614d8e565b6046546001600160a01b031683614296565b604080516101008101808352603354632192ab5d60e11b909152915160009282916001600160a01b039091169063432556ba90610104808501916020918187030181865afa158015612ba4573d6000803e3d6000fd5b505050506040513d601f19601f82011682018060405250810190612bc89190614d8e565b6001600160a01b03168152602001604660009054906101000a90046001600160a01b03166001600160a01b0316634aa4a4fc6040518163ffffffff1660e01b8152600401602060405180830381865afa158015612c29573d6000803e3d6000fd5b505050506040513d601f19601f82011682018060405250810190612c4d9190614d8e565b6001600160a01b039081168252610bb860208301523060408084019190915242606084015260808301869052600060a0840181905260c0909301839052604654905163414bf38960e01b8152939450919291169063414bf38990612cb5908590600401615055565b6020604051808303816000875af1158015612cd4573d6000803e3d6000fd5b505050506040513d601f19601f82011682018060405250810190612cf891906150be565b9050604660009054906101000a90046001600160a01b03166001600160a01b0316634aa4a4fc6040518163ffffffff1660e01b8152600401602060405180830381865afa158015612d4d573d6000803e3d6000fd5b505050506040513d601f19601f82011682018060405250810190612d719190614d8e565b6001600160a01b0316632e1a7d4d826040518263ffffffff1660e01b8152600401612d9e91815260200190565b600060405180830381600087803b158015612db857600080fd5b505af1158015612dcc573d6000803e3d6000fd5b50506040516001600160a01b038d16925083156108fc02915083906000818181858888f19350505050158015612e06573d6000803e3d6000fd5b509f9e505050505050505050505050505050565b60335460408051630140cb6560e51b8152905160008051602061521a833981519152926001600160a01b0316916328196ca09160048083019260209291908290030181865afa158015612e71573d6000803e3d6000fd5b505050506040513d601f19601f82011682018060405250810190612e959190614d8e565b6001600160a01b03166391d1485482336040516001600160e01b031960e085901b16815260048101929092526001600160a01b03166024820152604401602060405180830381865afa158015612eef573d6000803e3d6000fd5b505050506040513d601f19601f82011682018060405250810190612f139190614dab565b612f2f5760405162461bcd60e51b81526004016109fd90614ecd565b60385460408051918252602082018490527fff4f3e2a6b4cb9b7141b4a215d1ae67a9dd18a640499d1393c6c0d0f253006db910160405180910390a150603855565b60335460408051630140cb6560e51b8152905160008051602061523a833981519152926001600160a01b0316916328196ca09160048083019260209291908290030181865afa158015612fc8573d6000803e3d6000fd5b505050506040513d601f19601f82011682018060405250810190612fec9190614d8e565b6001600160a01b03166391d1485482336040516001600160e01b031960e085901b16815260048101929092526001600160a01b03166024820152604401602060405180830381865afa158015613046573d6000803e3d6000fd5b505050506040513d601f19601f8201168201806040525081019061306a9190614dab565b6130865760405162461bcd60e51b81526004016109fd90614ecd565b50604355565b6130968282611061565b6130ff5760405162461bcd60e51b815260206004820152603460248201527f4d6f72706865724272696467653a205769746864726177616c20416d6f756e7460448201527308195e18d959591cc819185a5b1e481b1a5b5a5d60621b60648201526084016109fd565b6001600160a01b0382166000908152603b6020526040812082916131266201518042614e93565b815260200190815260200160002060008282546131439190614eb5565b90915550819050603e6000610d8d6201518042614e93565b60335460408051630140cb6560e51b8152905160008051602061523a833981519152926001600160a01b0316916328196ca09160048083019260209291908290030181865afa1580156131b2573d6000803e3d6000fd5b505050506040513d601f19601f820116820180604052508101906131d69190614d8e565b6001600160a01b03166391d1485482336040516001600160e01b031960e085901b16815260048101929092526001600160a01b03166024820152604401602060405180830381865afa158015613230573d6000803e3d6000fd5b505050506040513d601f19601f820116820180604052508101906132549190614dab565b6132705760405162461bcd60e51b81526004016109fd90614ecd565b50604680546001600160a01b0319166001600160a01b0392909216919091179055565b603360009054906101000a90046001600160a01b03166001600160a01b03166350a71bac6040518163ffffffff1660e01b8152600401602060405180830381865afa1580156132e6573d6000803e3d6000fd5b505050506040513d601f19601f8201168201806040525081019061330a9190614d8e565b6001600160a01b031663ac259ace336040516001600160e01b031960e084901b1681526001600160a01b039091166004820152602401602060405180830381865afa15801561335d573d6000803e3d6000fd5b505050506040513d601f19601f820116820180604052508101906133819190614dab565b1561339e5760405162461bcd60e51b81526004016109fd90614dc8565b6133a8338561308c565b6133b233856136da565b6133bc3385610cbb565b60335460408051632192ab5d60e11b8152905168056bc75e2d63100000926001600160a01b03169163432556ba9160048083019260209291908290030181865afa15801561340e573d6000803e3d6000fd5b505050506040513d601f19601f820116820180604052508101906134329190614d8e565b6001600160a01b0316639dc29fac336040516001600160e01b031960e084901b1681526001600160a01b03909116600482015260248101849052604401600060405180830381600087803b15801561348957600080fd5b505af115801561349d573d6000803e3d6000fd5b50505050600081866134af9190614d0d565b9050603360009054906101000a90046001600160a01b03166001600160a01b031663432556ba6040518163ffffffff1660e01b8152600401602060405180830381865afa158015613504573d6000803e3d6000fd5b505050506040513d601f19601f820116820180604052508101906135289190614d8e565b6001600160a01b0316639dc29fac336040516001600160e01b031960e084901b1681526001600160a01b03909116600482015260248101849052604401600060405180830381600087803b15801561357f57600080fd5b505af1158015613593573d6000803e3d6000fd5b50505050600081604760006135a53390565b6001600160a01b03168152602080820192909252604090810160009081208a82529092529020546135d69190614eb5565b905060006135e2614262565b9050426000338585848c8760405160200161360296959493929190614f0e565b60405160208183030381529060405280519060200120905083604760006136263390565b6001600160a01b03168152602080820192909252604090810160009081208d82529092528120919091554290604790336001600160a01b03168152602080820192909252604090810160009081208d825290925290206001015580336001600160a01b03167f5ece11db74b4a83792b00f8375343013bce17047b3ca83ff16ece331c9220a2f878786888f8f8f6040516136c69796959493929190615103565b60405180910390a350505050505050505050565b6136e48282611e6c565b61374f5760405162461bcd60e51b815260206004820152603660248201527f4d6f72706865724272696467653a205769746864726177616c20416d6f756e7460448201527508195e18d959591cc81b5bdb9d1a1b1e481b1a5b5a5d60521b60648201526084016109fd565b6001600160a01b0382166000908152603c60205260408120829161377662278d0042614e93565b815260200190815260200160002060008282546137939190614eb5565b90915550819050603f6000610d8d62278d0042614e93565b60335460408051630140cb6560e51b8152905160008051602061521a833981519152926001600160a01b0316916328196ca09160048083019260209291908290030181865afa158015613802573d6000803e3d6000fd5b505050506040513d601f19601f820116820180604052508101906138269190614d8e565b6001600160a01b03166391d1485482336040516001600160e01b031960e085901b16815260048101929092526001600160a01b03166024820152604401602060405180830381865afa158015613880573d6000803e3d6000fd5b505050506040513d601f19601f820116820180604052508101906138a49190614dab565b6138c05760405162461bcd60e51b81526004016109fd90614ecd565b603a5460408051918252602082018490527f5c3db7af464ea9d986519b99cb07faf52b14ed37cccd5d05bea914e2fd92a06b910160405180910390a150603a55565b6042546043546139129042614d0d565b1161392f5760405162461bcd60e51b81526004016109fd90614d24565b603360009054906101000a90046001600160a01b03166001600160a01b03166350a71bac6040518163ffffffff1660e01b8152600401602060405180830381865afa158015613982573d6000803e3d6000fd5b505050506040513d601f19601f820116820180604052508101906139a69190614d8e565b6001600160a01b031663ac259ace336040516001600160e01b031960e084901b1681526001600160a01b039091166004820152602401602060405180830381865afa1580156139f9573d6000803e3d6000fd5b505050506040513d601f19601f82011682018060405250810190613a1d9190614dab565b15613a3a5760405162461bcd60e51b81526004016109fd90614dc8565b60445460ff16613a5c5760405162461bcd60e51b81526004016109fd90614dff565b603360009054906101000a90046001600160a01b03166001600160a01b031663d37afa8d6040518163ffffffff1660e01b8152600401602060405180830381865afa158015613aaf573d6000803e3d6000fd5b505050506040513d601f19601f82011682018060405250810190613ad39190614d8e565b6001600160a01b0316637a687444338a8a8a8a8a8a8a8a6040518a63ffffffff1660e01b8152600401613b0e9998979695949392919061516c565b602060405180830381865afa158015613b2b573d6000803e3d6000fd5b505050506040513d601f19601f82011682018060405250810190613b4f91906150be565b8914613bb75760405162461bcd60e51b815260206004820152603160248201527f4d6f72706865724272696467653a206c65616620646f6573206e6f742065717560448201527030b6103837b9b4ba34b7b7103430b9b41760791b60648201526084016109fd565b60008981526045602052604090205460ff1615613c2b5760405162461bcd60e51b815260206004820152602c60248201527f4d6f72706865724272696467653a20506f736974696f6e20616c72656164792060448201526b3a3930b739b332b93932b21760a11b60648201526084016109fd565b613c358a8a6117af565b1515600114613c565760405162461bcd60e51b81526004016109fd90614e50565b600089815260456020908152604091829020805460ff19166001179055603354825163d37afa8d60e01b815292516001600160a01b039091169263d37afa8d9260048083019391928290030181865afa158015613cb7573d6000803e3d6000fd5b505050506040513d601f19601f82011682018060405250810190613cdb9190614d8e565b6001600160a01b031663be7e64b6338a8a8a8a8a8a8a8a6040518a63ffffffff1660e01b8152600401613d169998979695949392919061516c565b600060405180830381600087803b158015613d3057600080fd5b505af1158015613d44573d6000803e3d6000fd5b50505050613d4f3390565b6001600160a01b03167f46de0525fb620932847e7db9be837e386fb61845ffb4ccc632241dfa56ce5d438a604051613d8991815260200190565b60405180910390a250505050505050505050565b6037546001600160a01b0383166000908152603d60205260408120909190839083613dcc6301e1338042614e93565b815260200190815260200160002054613de59190614eb5565b111580156110e25750603a5482604060006110c66301e1338042614e93565b60335460408051630140cb6560e51b8152905160008051602061521a833981519152926001600160a01b0316916328196ca09160048083019260209291908290030181865afa158015613e5b573d6000803e3d6000fd5b505050506040513d601f19601f82011682018060405250810190613e7f9190614d8e565b6001600160a01b03166391d1485482336040516001600160e01b031960e085901b16815260048101929092526001600160a01b03166024820152604401602060405180830381865afa158015613ed9573d6000803e3d6000fd5b505050506040513d601f19601f82011682018060405250810190613efd9190614dab565b613f195760405162461bcd60e51b81526004016109fd90614ecd565b60365460408051918252602082018490527f15bbabad33cea99b6af1c5233603cb731748ed7b1cf3abd8de230338e7b4c97d910160405180910390a150603655565b603360009054906101000a90046001600160a01b03166001600160a01b03166350a71bac6040518163ffffffff1660e01b8152600401602060405180830381865afa158015613fae573d6000803e3d6000fd5b505050506040513d601f19601f82011682018060405250810190613fd29190614d8e565b6001600160a01b031663ac259ace336040516001600160e01b031960e084901b1681526001600160a01b039091166004820152602401602060405180830381865afa158015614025573d6000803e3d6000fd5b505050506040513d601f19601f820116820180604052508101906140499190614dab565b156140665760405162461bcd60e51b81526004016109fd90614dc8565b600033834660405160200161407d93929190614f45565b6040516020818303038152906040528051906020012090506000604860006140a23390565b6001600160a01b0316815260208101919091526040016000205490506140c883836117af565b6140e45760405162461bcd60e51b81526004016109fd90614f6a565b836140ef8683614eb5565b111561410d5760405162461bcd60e51b81526004016109fd90614fed565b614117338661308c565b61412133866136da565b61412b3386610cbb565b614136338287614168565b60405185815233907f943c724b337822464f019ef425f7d5b1dd7ca039317dabe7446a630a6b8236d3906020016123e3565b6141728183614eb5565b6001600160a01b03808516600090815260486020908152604091829020938455426001909401939093556033548151632192ab5d60e11b8152915192169263432556ba926004808401938290030181865afa1580156141d5573d6000803e3d6000fd5b505050506040513d601f19601f820116820180604052508101906141f99190614d8e565b6040516340c10f1960e01b81526001600160a01b0385811660048301526024820184905291909116906340c10f1990604401600060405180830381600087803b15801561424557600080fd5b505af1158015614259573d6000803e3d6000fd5b50505050505050565b6049805460009182614273836151b6565b9190505550604954905090565b60008261428d85846143ba565b14949350505050565b604080516001600160a01b038481166024830152604480830185905283518084039091018152606490920183526020820180516001600160e01b031663095ea7b360e01b17905291516000928392908716916142f291906151d1565b6000604051808303816000865af19150503d806000811461432f576040519150601f19603f3d011682016040523d82523d6000602084013e614334565b606091505b509150915081801561435e57508051158061435e57508080602001905181019061435e9190614dab565b61438f5760405162461bcd60e51b8152602060048201526002602482015261534160f01b60448201526064016109fd565b5050505050565b60008060006143a58585614426565b915091506143b281614496565b509392505050565b600081815b84518110156143b25760008582815181106143dc576143dc6151ed565b602002602001015190508083116144025760008381526020829052604090209250614413565b600081815260208490526040902092505b508061441e816151b6565b9150506143bf565b60008082516041141561445d5760208301516040840151606085015160001a61445187828585614654565b9450945050505061448f565b825160401415614487576020830151604084015161447c868383614741565b93509350505061448f565b506000905060025b9250929050565b60008160048111156144aa576144aa615203565b14156144b35750565b60018160048111156144c7576144c7615203565b14156145155760405162461bcd60e51b815260206004820152601860248201527f45434453413a20696e76616c6964207369676e6174757265000000000000000060448201526064016109fd565b600281600481111561452957614529615203565b14156145775760405162461bcd60e51b815260206004820152601f60248201527f45434453413a20696e76616c6964207369676e6174757265206c656e6774680060448201526064016109fd565b600381600481111561458b5761458b615203565b14156145e45760405162461bcd60e51b815260206004820152602260248201527f45434453413a20696e76616c6964207369676e6174757265202773272076616c604482015261756560f01b60648201526084016109fd565b60048160048111156145f8576145f8615203565b14156146515760405162461bcd60e51b815260206004820152602260248201527f45434453413a20696e76616c6964207369676e6174757265202776272076616c604482015261756560f01b60648201526084016109fd565b50565b6000807f7fffffffffffffffffffffffffffffff5d576e7357a4501ddfe92f46681b20a083111561468b5750600090506003614738565b8460ff16601b141580156146a357508460ff16601c14155b156146b45750600090506004614738565b6040805160008082526020820180845289905260ff881692820192909252606081018690526080810185905260019060a0016020604051602081039080840390855afa158015614708573d6000803e3d6000fd5b5050604051601f1901519150506001600160a01b03811661473157600060019250925050614738565b9150600090505b94509492505050565b6000806001600160ff1b0383168161475e60ff86901c601b614eb5565b905061476c87828885614654565b935093505050935093915050565b60006020828403121561478c57600080fd5b5035919050565b634e487b7160e01b600052604160045260246000fd5b604051601f8201601f1916810167ffffffffffffffff811182821017156147d2576147d2614793565b604052919050565b600082601f8301126147eb57600080fd5b8135602067ffffffffffffffff82111561480757614807614793565b8160051b6148168282016147a9565b928352848101820192828101908785111561483057600080fd5b83870192505b8483101561484f57823582529183019190830190614836565b979650505050505050565b60008060006060848603121561486f57600080fd5b833567ffffffffffffffff81111561488657600080fd5b614892868287016147da565b9660208601359650604090950135949350505050565b6001600160a01b038116811461465157600080fd5b80356148c8816148a8565b919050565b600080604083850312156148e057600080fd5b82356148eb816148a8565b946020939093013593505050565b60006020828403121561490b57600080fd5b81356110e2816148a8565b801515811461465157600080fd5b60008060006060848603121561493957600080fd5b8335614944816148a8565b9250602084013561495481614916565b91506040840135614964816148a8565b809150509250925092565b6000806040838503121561498257600080fd5b50508035926020909101359150565b600080604083850312156149a457600080fd5b823567ffffffffffffffff8111156149bb57600080fd5b6149c7858286016147da565b95602094909401359450505050565b600080600080608085870312156149ec57600080fd5b8435935060208501359250604085013567ffffffffffffffff811115614a1157600080fd5b614a1d878288016147da565b9250506060850135614a2e816148a8565b939692955090935050565b600080600060608486031215614a4e57600080fd5b83359250602084013567ffffffffffffffff811115614a6c57600080fd5b614a78868287016147da565b925050604084013590509250925092565b600082601f830112614a9a57600080fd5b813567ffffffffffffffff811115614ab457614ab4614793565b614ac7601f8201601f19166020016147a9565b818152846020838601011115614adc57600080fd5b816020850160208301376000918101602001919091529392505050565b60008060008060008060008060006101208a8c031215614b1857600080fd5b8935614b23816148a8565b985060208a0135975060408a0135965060608a0135614b41816148a8565b955060808a0135945060a08a013567ffffffffffffffff80821115614b6557600080fd5b614b718d838e016147da565b9550614b7f60c08d016148bd565b945060e08c013593506101008c0135915080821115614b9d57600080fd5b50614baa8c828d01614a89565b9150509295985092959850929598565b60008060008060808587031215614bd057600080fd5b84359350602085013592506040850135614be9816148a8565b9150606085013567ffffffffffffffff811115614c0557600080fd5b614c1187828801614a89565b91505092959194509250565b6000806000806000806000806000806101408b8d031215614c3d57600080fd5b8a3567ffffffffffffffff811115614c5457600080fd5b614c608d828e016147da565b9d60208d01359d5060408d01359c60608101359c5060808101359b5060a08101359a5060c0810135995060e081013598506101008101359750610120013595509350505050565b600080600060608486031215614cbc57600080fd5b8335925060208401359150604084013567ffffffffffffffff811115614ce157600080fd5b614ced868287016147da565b9150509250925092565b634e487b7160e01b600052601160045260246000fd5b600082821015614d1f57614d1f614cf7565b500390565b60208082526044908201527f4d6f72706865724272696467653a2046756e6374696f6e2063616e206f6e6c7960408201527f2062652063616c6c65642069662073696465636861696e20697320696e61637460608201526334bb329760e11b608082015260a00190565b600060208284031215614da057600080fd5b81516110e2816148a8565b600060208284031215614dbd57600080fd5b81516110e281614916565b6020808252601e908201527f4d6f72706865724272696467653a205573657220697320626c6f636b65640000604082015260600190565b60208082526031908201527f4d6f72706865724272696467653a205265636f766572792066756e6374696f6e6040820152701cc8185c99481b9bdd08195b98589b1959607a1b606082015260800190565b60208082526023908201527f4d6f72706865724272696467653a204d65726b6c652070726f6f66206661696c60408201526232b21760e91b606082015260800190565b600082614eb057634e487b7160e01b600052601260045260246000fd5b500490565b60008219821115614ec857614ec8614cf7565b500190565b60208082526021908201527f4d6f72706865724272696467653a205065726d697373696f6e2064656e6965646040820152601760f91b606082015260800190565b60609690961b6001600160601b03191686526014860194909452603485019290925260548401526074830152609482015260b40190565b60609390931b6001600160601b03191683526014830191909152603482015260540190565b60208082526059908201527f4d6f72706865724272696467653a204d65726b6c652050726f6f66206661696c60408201527f65642e20506c65617365206d616b65207375726520796f7520656e746572656460608201527f2074686520636f727265637420636c61696d206c696d69742e00000000000000608082015260a00190565b60208082526042908201527f4d6f72706865724272696467653a20546f6b656e20616d6f756e74206578636560408201527f65647320746f6b656e2064656c65746564206f6e206c696e6b65642063686169606082015261371760f11b608082015260a00190565b81516001600160a01b03908116825260208084015182169083015260408084015162ffffff16908301526060808401518216908301526080808401519083015260a0838101519083015260c0808401519083015260e09283015116918101919091526101000190565b6000602082840312156150d057600080fd5b5051919050565b60005b838110156150f25781810151838201526020016150da565b838111156112235750506000910152565b87815286602082015285604082015284606082015283608082015260018060a01b03831660a082015260e060c0820152600082518060e084015261010061515082828601602088016150d7565b80601f19601f8401168501019250505098975050505050505050565b6001600160a01b03999099168952602089019790975260408801959095526060870193909352608086019190915260a085015260c084015260e08301526101008201526101200190565b60006000198214156151ca576151ca614cf7565b5060010190565b600082516151e38184602087016150d7565b9190910192915050565b634e487b7160e01b600052603260045260246000fd5b634e487b7160e01b600052602160045260246000fdfec08f7188394b31596c538860a69934f466a85ebc66fc5d1d967ccfaef4a6bdabe5a0b4d50f56047f84728557fedbda92f956391bc9d5c762e8461996dd8e7ad7a2646970667358221220a287f43b6675c800d1b154a6e309414455ebda6416c77065d56424c2709f5d1764736f6c634300080b0033",
  "immutableReferences": {},
  "source": "// ------------------------------------------------------------------------\r\n// MorpherBridge\r\n// Handles deposit to and withdraws from the side chain, writing of the merkle\r\n// root to the main chain by the side chain operator, and enforces a rolling 24 hours\r\n// token withdraw limit from side chain to main chain.\r\n// If side chain operator doesn't write a merkle root hash to main chain for more than\r\n// 72 hours positions and balaces from side chain can be transferred to main chain.\r\n// ------------------------------------------------------------------------\r\n//SPDX-License-Identifier: GPLv3\r\npragma solidity 0.8.11;\r\n\r\nimport \"./MorpherState.sol\";\r\nimport \"./MorpherUserBlocking.sol\";\r\nimport \"./MorpherAccessControl.sol\";\r\nimport \"@openzeppelin/contracts-upgradeable/utils/cryptography/MerkleProofUpgradeable.sol\";\r\nimport \"@openzeppelin/contracts-upgradeable/proxy/utils/Initializable.sol\";\r\nimport \"@openzeppelin/contracts-upgradeable/utils/ContextUpgradeable.sol\";\r\nimport \"@openzeppelin/contracts-upgradeable/utils/cryptography/ECDSAUpgradeable.sol\";\r\nimport \"./MorpherTradeEngine.sol\";\r\n\r\nimport '@uniswap/v3-periphery/contracts/interfaces/ISwapRouter.sol';\r\nimport '@uniswap/v3-periphery/contracts/libraries/TransferHelper.sol';\r\nimport '@uniswap/v3-periphery/contracts/interfaces/external/IWETH9.sol';\r\nimport '@uniswap/v3-periphery/contracts/interfaces/IPeripheryImmutableState.sol';\r\n\r\ncontract MorpherBridge is Initializable, ContextUpgradeable {\r\n\r\n    using ECDSAUpgradeable for bytes32;\r\n\r\n\r\n    MorpherState state;\r\n    MorpherBridge previousBridge;\r\n\r\n    uint256 public withdrawalLimitPerUserDaily; //200k MPH per day\r\n    uint256 public withdrawalLimitPerUserMonthly; //1M MPH per month\r\n    uint256 public withdrawalLimitPerUserYearly; //5M MPH per year\r\n\r\n    uint256 public withdrawalLimitGlobalDaily; \r\n    uint256 public withdrawalLimitGlobalMonthly;\r\n    uint256 public withdrawalLimitGlobalYearly;\r\n    \r\n    mapping(address => mapping(uint256 => uint256)) public withdrawalPerUserPerDay; //[address][day] = withdrawalAmount\r\n    mapping(address => mapping(uint256 => uint256)) public withdrawalPerUserPerMonth; //[address][month] = withdrawalAmount\r\n    mapping(address => mapping(uint256 => uint256)) public withdrawalPerUserPerYear; //[address][year] = withdrawalAmount\r\n\r\n    mapping(uint256 => uint256) public withdrawalsGlobalDaily;\r\n    mapping(uint256 => uint256) public withdrawalsGlobalMonthly;\r\n    mapping(uint256 => uint256) public withdrawalsGlobalYearly;\r\n\r\n    bytes32 public constant ADMINISTRATOR_ROLE = keccak256(\"ADMINISTRATOR_ROLE\");\r\n    bytes32 public constant SIDECHAINOPERATOR_ROLE = keccak256(\"SIDECHAINOPERATOR_ROLE\");\r\n\r\n    struct WithdrawalDataStruct {\r\n        bytes32 merkleRoot;\r\n        uint256 lastUpdatedAt;\r\n    }\r\n\r\n    WithdrawalDataStruct public withdrawalData;\r\n\r\n    uint256 public inactivityPeriod;\r\n    bool public recoveryEnabled;\r\n    mapping(bytes32 => bool) public claimFromInactivity;\r\n\r\n    ISwapRouter public swapRouter;\r\n\r\n    // For this example, we will set the pool fee to 0.3%.\r\n    uint24 public constant poolFee = 3000;\r\n\r\n\r\n    struct TokensTransferredStruct {\r\n        uint256 amount;\r\n        uint256 lastTransferAt;\r\n    }\r\n    mapping(address => mapping(uint => TokensTransferredStruct)) public tokenSentToLinkedChain;\r\n    mapping(address => TokensTransferredStruct) public tokenClaimedOnThisChain;\r\n\r\n    uint256 public bridgeNonce;\r\n\r\n    event TransferToLinkedChain(\r\n        address indexed from,\r\n        uint256 tokens,\r\n        uint256 totalTokenSent,\r\n        uint256 timeStamp,\r\n        uint256 transferNonce,\r\n        uint256 targetChainId,\r\n        bytes32 indexed transferHash\r\n    );\r\n    event TransferToLinkedChainAndWithdrawTo(\r\n        address indexed from,\r\n        uint256 tokens,\r\n        uint256 totalTokenSent,\r\n        uint256 timeStamp,\r\n        uint256 transferNonce,\r\n        uint256 targetChainId,\r\n        address destinationAddress,\r\n        bytes userSigature,\r\n        bytes32 indexed transferHash\r\n    );\r\n    event TrustlessWithdrawFromSideChain(address indexed from, uint256 tokens);\r\n    event OperatorChainTransfer(address indexed from, uint256 tokens, bytes32 sidechainTransactionHash);\r\n    event ClaimFailedTransferToSidechain(address indexed from, uint256 tokens);\r\n    event PositionRecoveryFromSideChain(address indexed from, bytes32 positionHash);\r\n    event TokenRecoveryFromSideChain(address indexed from, bytes32 positionHash);\r\n    event SideChainMerkleRootUpdated(bytes32 _rootHash);\r\n    event WithdrawLimitReset();\r\n    event WithdrawLimitChanged(uint256 _withdrawLimit);\r\n    event WithdrawLimitDailyPerUserChanged(uint256 _oldLimit, uint256 _newLimit);\r\n    event WithdrawLimitMonthlyPerUserChanged(uint256 _oldLimit, uint256 _newLimit);\r\n    event WithdrawLimitYearlyPerUserChanged(uint256 _oldLimit, uint256 _newLimit);\r\n    event WithdrawLimitDailyGlobalChanged(uint256 _oldLimit, uint256 _newLimit);\r\n    event WithdrawLimitMonthlyGlobalChanged(uint256 _oldLimit, uint256 _newLimit);\r\n    event WithdrawLimitYearlyGlobalChanged(uint256 _oldLimit, uint256 _newLimit);\r\n    event LinkState(address _address);\r\n\r\n    function initialize(address _stateAddress, bool _recoveryEnabled, ISwapRouter _swapRouter) public initializer {\r\n        state = MorpherState(_stateAddress);\r\n        recoveryEnabled = _recoveryEnabled;\r\n        withdrawalLimitPerUserDaily = 200000 * (10**18); //200k MPH per day\r\n        withdrawalLimitPerUserMonthly = 1000000 * (10 ** 18); //1M MPH per month\r\n        withdrawalLimitPerUserYearly = 5000000 * (10 ** 18); //5M MPH per year\r\n\r\n        //TODO: Adjust limits globally\r\n        withdrawalLimitGlobalDaily = 200000 * (10**18); //200k MPH per day\r\n        withdrawalLimitGlobalMonthly = 1000000 * (10 ** 18); //1M MPH per month\r\n        withdrawalLimitGlobalYearly = 5000000 * (10 ** 18); //5M MPH per year\r\n        inactivityPeriod = 3 days;\r\n        swapRouter = _swapRouter;\r\n    }\r\n\r\n    modifier sideChainInactive {\r\n        require(block.timestamp - inactivityPeriod > withdrawalData.lastUpdatedAt, \"MorpherBridge: Function can only be called if sidechain is inactive.\");\r\n        _;\r\n    }\r\n\r\n    modifier onlyRecoveryEnabled() {\r\n        require(recoveryEnabled, \"MorpherBridge: Recovery functions are not enabled\");\r\n        _;\r\n    }\r\n\r\n    modifier userNotBlocked {\r\n        require(!MorpherUserBlocking(state.morpherUserBlockingAddress()).userIsBlocked(_msgSender()), \"MorpherBridge: User is blocked\");\r\n        _;\r\n    }\r\n\r\n    modifier onlyRole(bytes32 role) {\r\n        require(MorpherAccessControl(state.morpherAccessControlAddress()).hasRole(role, _msgSender()), \"MorpherBridge: Permission denied.\");\r\n        _;\r\n    }\r\n    \r\n    // ------------------------------------------------------------------------\r\n    // Links Token Contract with State\r\n    // ------------------------------------------------------------------------\r\n    function setMorpherState(address _stateAddress) public onlyRole(ADMINISTRATOR_ROLE) {\r\n        state = MorpherState(_stateAddress);\r\n        emit LinkState(_stateAddress);\r\n    }\r\n\r\n    function updateSwapRouter(ISwapRouter _swapRouter) public onlyRole(ADMINISTRATOR_ROLE) {\r\n        swapRouter = _swapRouter;\r\n    }\r\n\r\n\r\n    function setInactivityPeriod(uint256 _periodInSeconds) public onlyRole(ADMINISTRATOR_ROLE) {\r\n        inactivityPeriod = _periodInSeconds;\r\n    }\r\n\r\n    function updateSideChainMerkleRoot(bytes32 _rootHash) public onlyRole(SIDECHAINOPERATOR_ROLE) {\r\n        withdrawalData.merkleRoot = _rootHash;\r\n        withdrawalData.lastUpdatedAt = block.timestamp;\r\n        emit SideChainMerkleRootUpdated(_rootHash);\r\n    }\r\n\r\n    function updateWithdrawLimitPerUserDaily(uint256 _withdrawLimit) public onlyRole(SIDECHAINOPERATOR_ROLE) {\r\n        emit WithdrawLimitDailyPerUserChanged(withdrawalLimitPerUserDaily, _withdrawLimit);\r\n        withdrawalLimitPerUserDaily = _withdrawLimit;\r\n    }\r\n\r\n    function updateWithdrawLimitPerUserMonthly(uint256 _withdrawLimit) public onlyRole(SIDECHAINOPERATOR_ROLE) {\r\n        emit WithdrawLimitMonthlyPerUserChanged(withdrawalLimitPerUserMonthly, _withdrawLimit);\r\n        withdrawalLimitPerUserMonthly = _withdrawLimit;\r\n    }\r\n    function updateWithdrawLimitPerUserYearly(uint256 _withdrawLimit) public onlyRole(SIDECHAINOPERATOR_ROLE) {\r\n        emit WithdrawLimitYearlyPerUserChanged(withdrawalLimitPerUserYearly, _withdrawLimit);\r\n        withdrawalLimitPerUserYearly = _withdrawLimit;\r\n    }\r\n\r\n    function updateWithdrawLimitGlobalDaily(uint256 _withdrawLimit) public onlyRole(SIDECHAINOPERATOR_ROLE) {\r\n        emit WithdrawLimitDailyGlobalChanged(withdrawalLimitGlobalDaily, _withdrawLimit);\r\n        withdrawalLimitGlobalDaily = _withdrawLimit;\r\n    }\r\n\r\n    function updateWithdrawLimitGlobalMonthly(uint256 _withdrawLimit) public onlyRole(SIDECHAINOPERATOR_ROLE) {\r\n        emit WithdrawLimitMonthlyGlobalChanged(withdrawalLimitGlobalMonthly, _withdrawLimit);\r\n        withdrawalLimitGlobalMonthly = _withdrawLimit;\r\n    }\r\n    function updateWithdrawLimitGlobalYearly(uint256 _withdrawLimit) public onlyRole(SIDECHAINOPERATOR_ROLE) {\r\n        emit WithdrawLimitYearlyGlobalChanged(withdrawalLimitGlobalYearly, _withdrawLimit);\r\n        withdrawalLimitGlobalYearly = _withdrawLimit;\r\n    }\r\n\r\n\r\n    function isNotDailyLimitExceeding(address _usr, uint256 _amount) public view returns(bool) {\r\n        return (\r\n            (withdrawalPerUserPerDay[_usr][block.timestamp / 1 days] + _amount <= withdrawalLimitPerUserDaily) && \r\n            (withdrawalsGlobalDaily[block.timestamp / 1 days] + _amount <= withdrawalLimitGlobalDaily)\r\n        );\r\n    }\r\n    function isNotMonthlyLimitExceeding(address _usr, uint256 _amount) public view returns(bool) {\r\n        return (\r\n            (withdrawalPerUserPerMonth[_usr][block.timestamp / 30 days] + _amount <= withdrawalLimitPerUserMonthly) &&\r\n            (withdrawalsGlobalMonthly[block.timestamp / 30 days] + _amount <= withdrawalLimitGlobalMonthly)\r\n        );\r\n    }\r\n    function isNotYearlyLimitExceeding(address _usr, uint256 _amount) public view returns(bool) {\r\n        return (\r\n            (withdrawalPerUserPerYear[_usr][block.timestamp / 365 days] + _amount <= withdrawalLimitPerUserYearly) &&\r\n            (withdrawalsGlobalYearly[block.timestamp / 365 days] + _amount <= withdrawalLimitGlobalYearly)\r\n        );\r\n    }\r\n\r\n    function verifyUpdateDailyLimit(address _usr, uint256 _amount) public {\r\n        require(isNotDailyLimitExceeding(_usr, _amount), \"MorpherBridge: Withdrawal Amount exceeds daily limit\");\r\n        withdrawalPerUserPerDay[_usr][block.timestamp / 1 days] += _amount;\r\n        withdrawalsGlobalDaily[block.timestamp / 1 days] += _amount;\r\n    }\r\n\r\n    function verifyUpdateMonthlyLimit(address _usr, uint256 _amount) public {\r\n        require(isNotMonthlyLimitExceeding(_usr, _amount), \"MorpherBridge: Withdrawal Amount exceeds monthly limit\");\r\n        withdrawalPerUserPerMonth[_usr][block.timestamp / 30 days] += _amount;\r\n        withdrawalsGlobalMonthly[block.timestamp / 30 days] += _amount;\r\n    }\r\n\r\n    function verifyUpdateYearlyLimit(address _usr, uint256 _amount) public {\r\n        require(isNotYearlyLimitExceeding(_usr, _amount), \"MorpherBridge: Withdrawal Amount exceeds yearly limit\");\r\n        withdrawalPerUserPerYear[_usr][block.timestamp / 365 days] += _amount;\r\n        withdrawalsGlobalYearly[block.timestamp / 365 days] += _amount;\r\n    }\r\n\r\n    \r\n    /**\r\n    * stageTokensForTransfer [chain A] => claimTokens [chain B]\r\n    *     former: transferToSideChain(uint256 _tokens)\r\n    * \r\n    * Tokens are burned on chain A and then, after the merkle root is written, \r\n    * can be credited on chain B through claimStagedTokens(...) below\r\n    *\r\n    */\r\n    function stageTokensForTransfer(uint256 _tokens, uint _targetChainId) public userNotBlocked {\r\n        \r\n        verifyUpdateDailyLimit(_msgSender(), _tokens);\r\n        verifyUpdateMonthlyLimit(_msgSender(), _tokens);\r\n        verifyUpdateYearlyLimit(_msgSender(), _tokens);\r\n        uint withdrawalCost = 100 ether;\r\n        \r\n        MorpherToken(state.morpherTokenAddress()).burn(_msgSender(), withdrawalCost); //BURN 100 MPH as a Withdrawal Fee\r\n\r\n        uint tokensToWithdraw = _tokens - withdrawalCost;\r\n        MorpherToken(state.morpherTokenAddress()).burn(_msgSender(), tokensToWithdraw);\r\n\r\n\r\n        uint256 _newTokenSentToLinkedChain = tokenSentToLinkedChain[_msgSender()][_targetChainId].amount + tokensToWithdraw;\r\n        uint256 _transferNonce = getAndIncreaseBridgeNonce();\r\n        uint256 _timeStamp = block.timestamp;\r\n        bytes32 _transferHash = keccak256(\r\n            abi.encodePacked(\r\n                _msgSender(),\r\n                tokensToWithdraw,\r\n                _newTokenSentToLinkedChain,\r\n                _timeStamp,\r\n                _targetChainId,\r\n                _transferNonce\r\n            )\r\n        );\r\n        tokenSentToLinkedChain[_msgSender()][_targetChainId].amount =  _newTokenSentToLinkedChain;\r\n        tokenSentToLinkedChain[_msgSender()][_targetChainId].lastTransferAt = block.timestamp;\r\n        emit TransferToLinkedChain(_msgSender(), tokensToWithdraw, _newTokenSentToLinkedChain, _timeStamp, _transferNonce, _targetChainId, _transferHash);\r\n    }\r\n    \r\n    /**\r\n    * stageTokensForTransfer [chain A] => claimTokens [chain B]\r\n    *     former: transferToSideChain(uint256 _tokens)\r\n    * \r\n    * Tokens are burned on chain A and then, after the merkle root is written, \r\n    * can be credited on chain B through claimStagedTokens(...) below\r\n    *\r\n    */\r\n    function stageTokensForTransfer(uint256 _tokens, uint _targetChainId, address _autoWithdrawalAddressTo, bytes memory _signature) public userNotBlocked {\r\n        verifyUpdateDailyLimit(_msgSender(), _tokens);\r\n        verifyUpdateMonthlyLimit(_msgSender(), _tokens);\r\n        verifyUpdateYearlyLimit(_msgSender(), _tokens);\r\n        \r\n        uint withdrawalCost = 100 ether;\r\n        \r\n        MorpherToken(state.morpherTokenAddress()).burn(_msgSender(), withdrawalCost); //BURN 100 MPH as a Withdrawal Fee\r\n\r\n        uint tokensToWithdraw = _tokens - withdrawalCost;\r\n        MorpherToken(state.morpherTokenAddress()).burn(_msgSender(), tokensToWithdraw);\r\n        uint256 _newTokenSentToLinkedChain = tokenSentToLinkedChain[_msgSender()][_targetChainId].amount + tokensToWithdraw;\r\n        uint256 _transferNonce = getAndIncreaseBridgeNonce();\r\n        uint256 _timeStamp = block.timestamp;\r\n        bytes32 _transferHash = keccak256(\r\n            abi.encodePacked(\r\n                _msgSender(),\r\n                tokensToWithdraw,\r\n                _newTokenSentToLinkedChain,\r\n                _timeStamp,\r\n                _targetChainId,\r\n                _transferNonce\r\n            )\r\n        );\r\n        tokenSentToLinkedChain[_msgSender()][_targetChainId].amount =  _newTokenSentToLinkedChain;\r\n        tokenSentToLinkedChain[_msgSender()][_targetChainId].lastTransferAt = block.timestamp;\r\n        emit TransferToLinkedChainAndWithdrawTo(_msgSender(), tokensToWithdraw, _newTokenSentToLinkedChain, _timeStamp, _transferNonce, _targetChainId, _autoWithdrawalAddressTo, _signature, _transferHash);\r\n    }\r\n    \r\n    // ------------------------------------------------------------------------\r\n    // claimStagedTokens(...) former: trustlessTransferFromSideChain(uint256 _numOfToken, uint256 _claimLimit, bytes32[] memory _proof)\r\n    // Performs a merkle proof on the number of token that have been burned by the user on the side chain.\r\n    // If the number of token claimed on the main chain is less than the number of burned token on the side chain\r\n    // the difference (or less) can be claimed on the main chain.\r\n    // ------------------------------------------------------------------------\r\n    function claimStagedTokens(uint256 _numOfToken, uint256 _claimLimit, bytes32[] memory _proof) public userNotBlocked {\r\n        bytes32 leaf = keccak256(abi.encodePacked(_msgSender(), _claimLimit, block.chainid));\r\n        uint256 _tokenClaimed = tokenClaimedOnThisChain[_msgSender()].amount;  \r\n        require(mProof(_proof, leaf), \"MorpherBridge: Merkle Proof failed. Please make sure you entered the correct claim limit.\");\r\n        require(_tokenClaimed + _numOfToken <= _claimLimit, \"MorpherBridge: Token amount exceeds token deleted on linked chain.\"); \r\n\r\n        verifyUpdateDailyLimit(_msgSender(), _numOfToken);\r\n        verifyUpdateMonthlyLimit(_msgSender(), _numOfToken);\r\n        verifyUpdateYearlyLimit(_msgSender(), _numOfToken);        \r\n\r\n        _chainTransfer(_msgSender(), _tokenClaimed, _numOfToken);   \r\n        emit TrustlessWithdrawFromSideChain(_msgSender(), _numOfToken);\r\n    }\r\n    \r\n    // ------------------------------------------------------------------------\r\n    // claimStagedTokens(...) former: trustlessTransferFromSideChain(uint256 _numOfToken, uint256 _claimLimit, bytes32[] memory _proof)\r\n    // Performs a merkle proof on the number of token that have been burned by the user on the side chain.\r\n    // If the number of token claimed on the main chain is less than the number of burned token on the side chain\r\n    // the difference (or less) can be claimed on the main chain.\r\n    // ------------------------------------------------------------------------\r\n    function claimStagedTokensConvertAndSend(uint256 _numOfToken, uint256 _claimLimit, bytes32[] memory _proof, address payable _finalOutput) public userNotBlocked {\r\n        // msg.sender must approve this contract\r\n        \r\n        bytes32 leaf = keccak256(abi.encodePacked(_msgSender(), _claimLimit, block.chainid));\r\n        uint256 _tokenClaimed = tokenClaimedOnThisChain[_msgSender()].amount;  \r\n        require(mProof(_proof, leaf), \"MorpherBridge: Merkle Proof failed. Please make sure you entered the correct claim limit.\");\r\n        require(_tokenClaimed + _numOfToken <= _claimLimit, \"MorpherBridge: Token amount exceeds token deleted on linked chain.\"); \r\n\r\n        verifyUpdateDailyLimit(_msgSender(), _numOfToken);\r\n        verifyUpdateMonthlyLimit(_msgSender(), _numOfToken);\r\n        verifyUpdateYearlyLimit(_msgSender(), _numOfToken);        \r\n\r\n        _chainTransfer(address(this), _tokenClaimed, _numOfToken); //instead of transferring it to the user, transfer it to the bridge itself\r\n        emit TrustlessWithdrawFromSideChain(_msgSender(), _numOfToken);\r\n        // Transfer the specified amount of DAI to this contract.\r\n        // Approve the router to spend DAI.\r\n        TransferHelper.safeApprove(state.morpherTokenAddress(), address(swapRouter), _numOfToken);\r\n\r\n        // Naively set amountOutMinimum to 0. In production, use an oracle or other data source to choose a safer value for amountOutMinimum.\r\n        // We also set the sqrtPriceLimitx96 to be 0 to ensure we swap our exact input amount.\r\n        ISwapRouter.ExactInputSingleParams memory params =\r\n            ISwapRouter.ExactInputSingleParams({\r\n                tokenIn: state.morpherTokenAddress(),\r\n                tokenOut: IPeripheryImmutableState(address(swapRouter)).WETH9(),\r\n                fee: poolFee,\r\n                recipient: address(this),\r\n                deadline: block.timestamp,\r\n                amountIn: _numOfToken,\r\n                amountOutMinimum: 0,\r\n                sqrtPriceLimitX96: 0\r\n            });\r\n\r\n        // The call to `exactInputSingle` executes the swap.\r\n        uint amountOut = swapRouter.exactInputSingle(params);\r\n        //weth -> eth conversion\r\n        IWETH9(IPeripheryImmutableState(address(swapRouter)).WETH9()).withdraw(amountOut);\r\n        _finalOutput.transfer(amountOut);\r\n    }\r\n    // ------------------------------------------------------------------------\r\n    // claimStagedTokens(...) former: trustlessTransferFromSideChain(uint256 _numOfToken, uint256 _claimLimit, bytes32[] memory _proof)\r\n    // Performs a merkle proof on the number of token that have been burned by the user on the side chain.\r\n    // If the number of token claimed on the main chain is less than the number of burned token on the side chain\r\n    // the difference (or less) can be claimed on the main chain.\r\n    // ------------------------------------------------------------------------\r\n    function claimStagedTokensConvertAndSendForUser(address _usrAddr, uint256 _numOfToken, uint256 fee, address feeRecipient, uint256 _claimLimit, bytes32[] memory _proof, address payable _finalOutput, bytes32 _rootHash, bytes memory _userConfirmationSignature) public onlyRole(SIDECHAINOPERATOR_ROLE) returns(uint) {\r\n        // msg.sender must approve this contract\r\n        require(keccak256(abi.encodePacked(_numOfToken,_finalOutput,block.chainid)).toEthSignedMessageHash().recover(_userConfirmationSignature) == _usrAddr, \"MorpherBridge: Users signature does not validate\");\r\n        updateSideChainMerkleRoot(_rootHash);\r\n        bytes32 leaf = keccak256(abi.encodePacked(_usrAddr, _claimLimit, block.chainid));\r\n        uint256 _tokenClaimed = tokenClaimedOnThisChain[_usrAddr].amount;  \r\n        require(mProof(_proof, leaf), \"MorpherBridge: Merkle Proof failed. Please make sure you entered the correct claim limit.\");\r\n        require(_tokenClaimed + _numOfToken <= _claimLimit, \"MorpherBridge: Token amount exceeds token deleted on linked chain.\"); \r\n\r\n        verifyUpdateDailyLimit(_usrAddr, _numOfToken); //for usrAddr\r\n        verifyUpdateMonthlyLimit(_usrAddr, _numOfToken);\r\n        verifyUpdateYearlyLimit(_usrAddr, _numOfToken);        \r\n\r\n        //mint the tokens\r\n        tokenClaimedOnThisChain[_usrAddr].amount = _tokenClaimed + _numOfToken;\r\n        tokenClaimedOnThisChain[_usrAddr].lastTransferAt = block.timestamp;\r\n        MorpherToken(state.morpherTokenAddress()).mint(address(this), _numOfToken);\r\n        emit TrustlessWithdrawFromSideChain(_usrAddr, _numOfToken);\r\n\r\n        /**\r\n         * Transfer the Fee away\r\n         */\r\n        MorpherToken(state.morpherTokenAddress()).transfer(feeRecipient, fee);\r\n        \r\n        \r\n        uint convertTokens = _numOfToken - fee;\r\n\r\n\r\n        // Transfer the specified amount of DAI to this contract.\r\n        // Approve the router to spend DAI.\r\n        TransferHelper.safeApprove(state.morpherTokenAddress(), address(swapRouter), convertTokens);\r\n\r\n        // Naively set amountOutMinimum to 0. In production, use an oracle or other data source to choose a safer value for amountOutMinimum.\r\n        // We also set the sqrtPriceLimitx96 to be 0 to ensure we swap our exact input amount.\r\n        ISwapRouter.ExactInputSingleParams memory params =\r\n            ISwapRouter.ExactInputSingleParams({\r\n                tokenIn: state.morpherTokenAddress(),\r\n                tokenOut: IPeripheryImmutableState(address(swapRouter)).WETH9(),\r\n                fee: poolFee,\r\n                recipient: address(this),\r\n                deadline: block.timestamp,\r\n                amountIn: convertTokens,\r\n                amountOutMinimum: 0,\r\n                sqrtPriceLimitX96: 0\r\n            });\r\n\r\n        // The call to `exactInputSingle` executes the swap.\r\n        uint amountOut = swapRouter.exactInputSingle(params);\r\n\r\n        //weth -> eth conversion\r\n        IWETH9(IPeripheryImmutableState(address(swapRouter)).WETH9()).withdraw(amountOut);\r\n        _finalOutput.transfer(amountOut);\r\n        return amountOut;\r\n    }\r\n    \r\n    // ------------------------------------------------------------------------\r\n    // _chainTransfer(address _address, uint256 _tokenClaimed, uint256 _numOfToken)\r\n    // Creates token on the chain for the user after proving their distruction on the \r\n    // linked chain has been proven before \r\n    // ------------------------------------------------------------------------\r\n    function _chainTransfer(address _address, uint256 _tokenClaimed, uint256 _numOfToken) private {\r\n        tokenClaimedOnThisChain[_address].amount = _tokenClaimed + _numOfToken;\r\n        tokenClaimedOnThisChain[_address].lastTransferAt = block.timestamp;\r\n        MorpherToken(state.morpherTokenAddress()).mint(_address, _numOfToken);\r\n    }\r\n        \r\n    // ------------------------------------------------------------------------\r\n    // claimFailedTransferToSidechain(uint256 _wrongSideChainBalance, bytes32[] memory _proof)\r\n    // If token sent to side chain were not credited to the user on the side chain within inactivityPeriod\r\n    // they can reclaim the token on the main chain by submitting the proof that their\r\n    // side chain balance is less than the number of token sent from main chain.\r\n    // ------------------------------------------------------------------------\r\n    function claimFailedTransferToSidechain(uint256 _wrongSideChainBalance, bytes32[] memory _proof, uint256 _targetChainId) public userNotBlocked {\r\n        bytes32 leaf = keccak256(abi.encodePacked(_msgSender(), _wrongSideChainBalance));\r\n        require(block.timestamp > tokenSentToLinkedChain[_msgSender()][_targetChainId].lastTransferAt + inactivityPeriod, \"MorpherBridge: Failed deposits can only be claimed after inactivity period.\");\r\n        require(_wrongSideChainBalance < tokenSentToLinkedChain[_msgSender()][_targetChainId].amount, \"MorpherBridge: Other chain credit is greater equal to wrongSideChainBalance.\");\r\n       \r\n        require(mProof(_proof, leaf), \"MorpherBridge: Merkle Proof failed. Enter total amount of deposits on side chain.\");\r\n \r\n        uint256 _claimAmount = tokenSentToLinkedChain[_msgSender()][_targetChainId].amount - _wrongSideChainBalance;\r\n        tokenSentToLinkedChain[_msgSender()][_targetChainId].amount -=  _claimAmount;\r\n        tokenSentToLinkedChain[_msgSender()][_targetChainId].lastTransferAt = block.timestamp;\r\n        verifyUpdateDailyLimit(_msgSender(), _claimAmount);\r\n        verifyUpdateMonthlyLimit(_msgSender(), _claimAmount);\r\n        verifyUpdateYearlyLimit(_msgSender(), _claimAmount);         \r\n        MorpherToken(state.morpherTokenAddress()).mint(_msgSender(), _claimAmount);\r\n        emit ClaimFailedTransferToSidechain(_msgSender(), _claimAmount);\r\n    }\r\n\r\n    // ------------------------------------------------------------------------\r\n    // recoverPositionFromInactivity former recoverPositionFromSideChain(bytes32[] memory _proof, bytes32 _leaf, bytes32 _marketId, uint256 _timeStamp, uint256 _longShares, uint256 _shortShares, uint256 _meanEntryPrice, uint256 _meanEntrySpread, uint256 _meanEntryLeverage)\r\n    // Failsafe against side chain operator becoming inactive or withholding Times (Time withhold attack).\r\n    // After 72 hours of no update of the side chain merkle root users can withdraw their last recorded\r\n    // positions from side chain to main chain. Overwrites eventually existing position on main chain.\r\n    // ------------------------------------------------------------------------\r\n    function recoverPositionFromInactivity(\r\n        bytes32[] memory _proof,\r\n        bytes32 _leaf,\r\n        bytes32 _marketId,\r\n        uint256 _timeStamp,\r\n        uint256 _longShares,\r\n        uint256 _shortShares,\r\n        uint256 _meanEntryPrice,\r\n        uint256 _meanEntrySpread,\r\n        uint256 _meanEntryLeverage,\r\n        uint256 _liquidationPrice\r\n        ) public sideChainInactive userNotBlocked onlyRecoveryEnabled {\r\n        require(_leaf == MorpherTradeEngine(state.morpherTradeEngineAddress()).getPositionHash(_msgSender(), _marketId, _timeStamp, _longShares, _shortShares, _meanEntryPrice, _meanEntrySpread, _meanEntryLeverage, _liquidationPrice), \"MorpherBridge: leaf does not equal position hash.\");\r\n        require(claimFromInactivity[_leaf] == false, \"MorpherBridge: Position already transferred.\");\r\n        require(mProof(_proof,_leaf) == true, \"MorpherBridge: Merkle proof failed.\");\r\n        claimFromInactivity[_leaf] = true;\r\n        //todo: double positions clashing? \r\n        MorpherTradeEngine(state.morpherTradeEngineAddress()).setPosition(_msgSender(), _marketId, _timeStamp, _longShares, _shortShares, _meanEntryPrice, _meanEntrySpread, _meanEntryLeverage, _liquidationPrice);\r\n        emit PositionRecoveryFromSideChain(_msgSender(), _leaf);\r\n        // Remark: After resuming operations side chain operator has 72 hours to sync and eliminate transferred positions on side chain to avoid double spend\r\n    }\r\n\r\n    // ------------------------------------------------------------------------\r\n    // recoverTokenFromInactivity - former recoverTokenFromSideChain(bytes32[] memory _proof, bytes32 _leaf, uint256 _balance)\r\n    // Failsafe against side chain operator becoming inactive or withholding times (time withhold attack).\r\n    // After 72 hours of no update of the side chain merkle root users can withdraw their last recorded\r\n    // token balance from side chain to main chain.\r\n    // ------------------------------------------------------------------------\r\n    function recoverTokenFromInactivity(bytes32[] memory _proof, bytes32 _leaf, uint256 _balance) public sideChainInactive userNotBlocked onlyRecoveryEnabled {\r\n        // Require side chain root hash not set on Mainchain for more than 72 hours (=3 days)\r\n        require(_leaf == getBalanceHash(_msgSender(), _balance), \"MorpherBridge: Wrong balance.\");\r\n        require(claimFromInactivity[_leaf] == false, \"MorpherBridge: Token already transferred.\");\r\n        require(mProof(_proof,_leaf) == true, \"MorpherBridge: Merkle proof failed.\");\r\n        claimFromInactivity[_leaf] = true;\r\n\r\n        verifyUpdateDailyLimit(_msgSender(), _balance);\r\n        verifyUpdateMonthlyLimit(_msgSender(), _balance);\r\n        verifyUpdateYearlyLimit(_msgSender(), _balance); \r\n        \r\n        _chainTransfer(_msgSender(), tokenClaimedOnThisChain[_msgSender()].amount, _balance);\r\n        emit TokenRecoveryFromSideChain(_msgSender(), _leaf);\r\n        // Remark: Side chain operator must adjust side chain balances for token recoveries before restarting operations to avoid double spend\r\n    }\r\n\r\n    // ------------------------------------------------------------------------\r\n    // mProof(bytes32[] memory _proof, bytes32 _leaf)\r\n    // Computes merkle proof against the root hash of the sidechain stored in Morpher state\r\n    // ------------------------------------------------------------------------\r\n    function mProof(bytes32[] memory _proof, bytes32 _leaf) public view returns(bool _isTrue) {\r\n        return MerkleProofUpgradeable.verify(_proof, withdrawalData.merkleRoot, _leaf);\r\n    }\r\n\r\n    function getBalanceHash(address _address, uint256 _balance) public pure returns (bytes32 _hash) {\r\n        return keccak256(abi.encodePacked(_address, _balance));\r\n    }\r\n\r\n    function getAndIncreaseBridgeNonce() internal returns (uint256) {\r\n        bridgeNonce++;\r\n        return bridgeNonce;\r\n    }\r\n\r\n    receive() external payable {\r\n        //needed to convert the weth to eth and send to user\r\n    }\r\n}\r\n",
  "sourcePath": "/home/thomas/MorpherProtocol/contracts/MorpherBridge.sol",
  "compiler": {
    "name": "solc",
    "version": "0.8.11+commit.d7f03943.Emscripten.clang"
  },
  "schemaVersion": "3.4.5",
  "updatedAt": "2022-05-23T12:42:34.622Z",
  "networkType": "ethereum",
  "devdoc": {
    "kind": "dev",
    "methods": {},
    "version": 1
  },
  "userdoc": {
    "kind": "user",
    "methods": {
      "stageTokensForTransfer(uint256,uint256)": {
        "notice": "stageTokensForTransfer [chain A] => claimTokens [chain B]     former: transferToSideChain(uint256 _tokens)  Tokens are burned on chain A and then, after the merkle root is written,  can be credited on chain B through claimStagedTokens(...) below"
      },
      "stageTokensForTransfer(uint256,uint256,address,bytes)": {
        "notice": "stageTokensForTransfer [chain A] => claimTokens [chain B]     former: transferToSideChain(uint256 _tokens)  Tokens are burned on chain A and then, after the merkle root is written,  can be credited on chain B through claimStagedTokens(...) below"
      }
    },
    "version": 1
  }
}