{
  "contractName": "MorpherTradeEngine",
  "abi": [
    {
      "anonymous": false,
      "inputs": [
        {
          "indexed": false,
          "internalType": "bytes32",
          "name": "orderId",
          "type": "bytes32"
        },
        {
          "indexed": false,
          "internalType": "address",
          "name": "user",
          "type": "address"
        },
        {
          "indexed": false,
          "internalType": "uint256",
          "name": "escrowAmount",
          "type": "uint256"
        }
      ],
      "name": "EscrowPaid",
      "type": "event"
    },
    {
      "anonymous": false,
      "inputs": [
        {
          "indexed": false,
          "internalType": "bytes32",
          "name": "orderId",
          "type": "bytes32"
        },
        {
          "indexed": false,
          "internalType": "address",
          "name": "user",
          "type": "address"
        },
        {
          "indexed": false,
          "internalType": "uint256",
          "name": "escrowAmount",
          "type": "uint256"
        }
      ],
      "name": "EscrowReturned",
      "type": "event"
    },
    {
      "anonymous": false,
      "inputs": [
        {
          "indexed": false,
          "internalType": "uint8",
          "name": "version",
          "type": "uint8"
        }
      ],
      "name": "Initialized",
      "type": "event"
    },
    {
      "anonymous": false,
      "inputs": [
        {
          "indexed": false,
          "internalType": "uint256",
          "name": "interestRate",
          "type": "uint256"
        },
        {
          "indexed": false,
          "internalType": "uint256",
          "name": "validFromTimestamp",
          "type": "uint256"
        }
      ],
      "name": "LeverageInterestRateAdded",
      "type": "event"
    },
    {
      "anonymous": false,
      "inputs": [
        {
          "indexed": false,
          "internalType": "address",
          "name": "_address",
          "type": "address"
        }
      ],
      "name": "LinkState",
      "type": "event"
    },
    {
      "anonymous": false,
      "inputs": [
        {
          "indexed": false,
          "internalType": "bytes32",
          "name": "_marketId",
          "type": "bytes32"
        },
        {
          "indexed": false,
          "internalType": "uint256",
          "name": "_price",
          "type": "uint256"
        }
      ],
      "name": "LockedPriceForClosingPositions",
      "type": "event"
    },
    {
      "anonymous": false,
      "inputs": [
        {
          "indexed": true,
          "internalType": "bytes32",
          "name": "_orderId",
          "type": "bytes32"
        },
        {
          "indexed": true,
          "internalType": "address",
          "name": "_address",
          "type": "address"
        }
      ],
      "name": "OrderCancelled",
      "type": "event"
    },
    {
      "anonymous": false,
      "inputs": [
        {
          "indexed": false,
          "internalType": "bytes32",
          "name": "_orderId",
          "type": "bytes32"
        },
        {
          "indexed": true,
          "internalType": "address",
          "name": "_address",
          "type": "address"
        },
        {
          "indexed": true,
          "internalType": "bytes32",
          "name": "_marketId",
          "type": "bytes32"
        },
        {
          "indexed": false,
          "internalType": "uint256",
          "name": "_closeSharesAmount",
          "type": "uint256"
        },
        {
          "indexed": false,
          "internalType": "uint256",
          "name": "_openMPHTokenAmount",
          "type": "uint256"
        },
        {
          "indexed": false,
          "internalType": "bool",
          "name": "_tradeDirection",
          "type": "bool"
        },
        {
          "indexed": false,
          "internalType": "uint256",
          "name": "_orderLeverage",
          "type": "uint256"
        }
      ],
      "name": "OrderIdRequested",
      "type": "event"
    },
    {
      "anonymous": false,
      "inputs": [
        {
          "indexed": false,
          "internalType": "bytes32",
          "name": "_orderId",
          "type": "bytes32"
        },
        {
          "indexed": false,
          "internalType": "uint256",
          "name": "_marketPrice",
          "type": "uint256"
        },
        {
          "indexed": false,
          "internalType": "uint256",
          "name": "_marketSpread",
          "type": "uint256"
        },
        {
          "indexed": false,
          "internalType": "uint256",
          "name": "_liquidationTimestamp",
          "type": "uint256"
        },
        {
          "indexed": false,
          "internalType": "uint256",
          "name": "_timeStamp",
          "type": "uint256"
        },
        {
          "indexed": false,
          "internalType": "uint256",
          "name": "_newLongShares",
          "type": "uint256"
        },
        {
          "indexed": false,
          "internalType": "uint256",
          "name": "_newShortShares",
          "type": "uint256"
        },
        {
          "indexed": false,
          "internalType": "uint256",
          "name": "_newAverageEntry",
          "type": "uint256"
        },
        {
          "indexed": false,
          "internalType": "uint256",
          "name": "_newAverageSpread",
          "type": "uint256"
        },
        {
          "indexed": false,
          "internalType": "uint256",
          "name": "_newAverageLeverage",
          "type": "uint256"
        },
        {
          "indexed": false,
          "internalType": "uint256",
          "name": "_liquidationPrice",
          "type": "uint256"
        }
      ],
      "name": "OrderProcessed",
      "type": "event"
    },
    {
      "anonymous": false,
      "inputs": [
        {
          "indexed": true,
          "internalType": "address",
          "name": "_address",
          "type": "address"
        },
        {
          "indexed": true,
          "internalType": "bytes32",
          "name": "_marketId",
          "type": "bytes32"
        },
        {
          "indexed": false,
          "internalType": "bool",
          "name": "_longPosition",
          "type": "bool"
        },
        {
          "indexed": false,
          "internalType": "uint256",
          "name": "_timeStamp",
          "type": "uint256"
        },
        {
          "indexed": false,
          "internalType": "uint256",
          "name": "_marketPrice",
          "type": "uint256"
        },
        {
          "indexed": false,
          "internalType": "uint256",
          "name": "_marketSpread",
          "type": "uint256"
        }
      ],
      "name": "PositionLiquidated",
      "type": "event"
    },
    {
      "anonymous": false,
      "inputs": [
        {
          "indexed": false,
          "internalType": "address",
          "name": "_userId",
          "type": "address"
        },
        {
          "indexed": false,
          "internalType": "bytes32",
          "name": "_marketId",
          "type": "bytes32"
        },
        {
          "indexed": false,
          "internalType": "uint256",
          "name": "_timeStamp",
          "type": "uint256"
        },
        {
          "indexed": false,
          "internalType": "uint256",
          "name": "_newLongShares",
          "type": "uint256"
        },
        {
          "indexed": false,
          "internalType": "uint256",
          "name": "_newShortShares",
          "type": "uint256"
        },
        {
          "indexed": false,
          "internalType": "uint256",
          "name": "_newMeanEntryPrice",
          "type": "uint256"
        },
        {
          "indexed": false,
          "internalType": "uint256",
          "name": "_newMeanEntrySpread",
          "type": "uint256"
        },
        {
          "indexed": false,
          "internalType": "uint256",
          "name": "_newMeanEntryLeverage",
          "type": "uint256"
        },
        {
          "indexed": false,
          "internalType": "uint256",
          "name": "_newLiquidationPrice",
          "type": "uint256"
        },
        {
          "indexed": false,
          "internalType": "uint256",
          "name": "_mint",
          "type": "uint256"
        },
        {
          "indexed": false,
          "internalType": "uint256",
          "name": "_burn",
          "type": "uint256"
        }
      ],
      "name": "PositionUpdated",
      "type": "event"
    },
    {
      "anonymous": false,
      "inputs": [
        {
          "indexed": false,
          "internalType": "bytes32",
          "name": "_orderId",
          "type": "bytes32"
        },
        {
          "indexed": false,
          "internalType": "uint256",
          "name": "oldTimestamp",
          "type": "uint256"
        },
        {
          "indexed": false,
          "internalType": "uint256",
          "name": "newTimestamp",
          "type": "uint256"
        }
      ],
      "name": "ResetTimestampInOrder",
      "type": "event"
    },
    {
      "anonymous": false,
      "inputs": [
        {
          "indexed": false,
          "internalType": "uint256",
          "name": "newInterestRate",
          "type": "uint256"
        }
      ],
      "name": "SetLeverageInterestRate",
      "type": "event"
    },
    {
      "anonymous": false,
      "inputs": [
        {
          "indexed": true,
          "internalType": "bytes32",
          "name": "positionHash",
          "type": "bytes32"
        },
        {
          "indexed": true,
          "internalType": "address",
          "name": "sender",
          "type": "address"
        },
        {
          "indexed": true,
          "internalType": "bytes32",
          "name": "marketId",
          "type": "bytes32"
        },
        {
          "indexed": false,
          "internalType": "uint256",
          "name": "timeStamp",
          "type": "uint256"
        },
        {
          "indexed": false,
          "internalType": "uint256",
          "name": "longShares",
          "type": "uint256"
        },
        {
          "indexed": false,
          "internalType": "uint256",
          "name": "shortShares",
          "type": "uint256"
        },
        {
          "indexed": false,
          "internalType": "uint256",
          "name": "meanEntryPrice",
          "type": "uint256"
        },
        {
          "indexed": false,
          "internalType": "uint256",
          "name": "meanEntrySpread",
          "type": "uint256"
        },
        {
          "indexed": false,
          "internalType": "uint256",
          "name": "meanEntryLeverage",
          "type": "uint256"
        },
        {
          "indexed": false,
          "internalType": "uint256",
          "name": "liquidationPrice",
          "type": "uint256"
        }
      ],
      "name": "SetPosition",
      "type": "event"
    },
    {
      "inputs": [],
      "name": "ADMINISTRATOR_ROLE",
      "outputs": [
        {
          "internalType": "bytes32",
          "name": "",
          "type": "bytes32"
        }
      ],
      "stateMutability": "view",
      "type": "function"
    },
    {
      "inputs": [],
      "name": "ORACLE_ROLE",
      "outputs": [
        {
          "internalType": "bytes32",
          "name": "",
          "type": "bytes32"
        }
      ],
      "stateMutability": "view",
      "type": "function"
    },
    {
      "inputs": [],
      "name": "POSITIONADMIN_ROLE",
      "outputs": [
        {
          "internalType": "bytes32",
          "name": "",
          "type": "bytes32"
        }
      ],
      "stateMutability": "view",
      "type": "function"
    },
    {
      "inputs": [],
      "name": "deployedTimeStamp",
      "outputs": [
        {
          "internalType": "uint256",
          "name": "",
          "type": "uint256"
        }
      ],
      "stateMutability": "view",
      "type": "function"
    },
    {
      "inputs": [],
      "name": "escrowOpenOrderEnabled",
      "outputs": [
        {
          "internalType": "bool",
          "name": "",
          "type": "bool"
        }
      ],
      "stateMutability": "view",
      "type": "function"
    },
    {
      "inputs": [
        {
          "internalType": "bytes32",
          "name": "",
          "type": "bytes32"
        }
      ],
      "name": "exposureByMarket",
      "outputs": [
        {
          "internalType": "uint256",
          "name": "maxMappingIndex",
          "type": "uint256"
        }
      ],
      "stateMutability": "view",
      "type": "function"
    },
    {
      "inputs": [
        {
          "internalType": "uint256",
          "name": "",
          "type": "uint256"
        }
      ],
      "name": "interestRates",
      "outputs": [
        {
          "internalType": "uint256",
          "name": "validFrom",
          "type": "uint256"
        },
        {
          "internalType": "uint256",
          "name": "rate",
          "type": "uint256"
        }
      ],
      "stateMutability": "view",
      "type": "function"
    },
    {
      "inputs": [],
      "name": "lastOrderId",
      "outputs": [
        {
          "internalType": "bytes32",
          "name": "",
          "type": "bytes32"
        }
      ],
      "stateMutability": "view",
      "type": "function"
    },
    {
      "inputs": [],
      "name": "morpherState",
      "outputs": [
        {
          "internalType": "contract MorpherState",
          "name": "",
          "type": "address"
        }
      ],
      "stateMutability": "view",
      "type": "function"
    },
    {
      "inputs": [],
      "name": "numInterestRates",
      "outputs": [
        {
          "internalType": "uint256",
          "name": "",
          "type": "uint256"
        }
      ],
      "stateMutability": "view",
      "type": "function"
    },
    {
      "inputs": [],
      "name": "orderNonce",
      "outputs": [
        {
          "internalType": "uint256",
          "name": "",
          "type": "uint256"
        }
      ],
      "stateMutability": "view",
      "type": "function"
    },
    {
      "inputs": [
        {
          "internalType": "bytes32",
          "name": "",
          "type": "bytes32"
        }
      ],
      "name": "orders",
      "outputs": [
        {
          "internalType": "address",
          "name": "userId",
          "type": "address"
        },
        {
          "internalType": "bytes32",
          "name": "marketId",
          "type": "bytes32"
        },
        {
          "internalType": "uint256",
          "name": "closeSharesAmount",
          "type": "uint256"
        },
        {
          "internalType": "uint256",
          "name": "openMPHTokenAmount",
          "type": "uint256"
        },
        {
          "internalType": "bool",
          "name": "tradeDirection",
          "type": "bool"
        },
        {
          "internalType": "uint256",
          "name": "liquidationTimestamp",
          "type": "uint256"
        },
        {
          "internalType": "uint256",
          "name": "marketPrice",
          "type": "uint256"
        },
        {
          "internalType": "uint256",
          "name": "marketSpread",
          "type": "uint256"
        },
        {
          "internalType": "uint256",
          "name": "orderLeverage",
          "type": "uint256"
        },
        {
          "internalType": "uint256",
          "name": "timeStamp",
          "type": "uint256"
        },
        {
          "internalType": "uint256",
          "name": "orderEscrowAmount",
          "type": "uint256"
        },
        {
          "components": [
            {
              "internalType": "uint256",
              "name": "longSharesOrder",
              "type": "uint256"
            },
            {
              "internalType": "uint256",
              "name": "shortSharesOrder",
              "type": "uint256"
            },
            {
              "internalType": "uint256",
              "name": "balanceDown",
              "type": "uint256"
            },
            {
              "internalType": "uint256",
              "name": "balanceUp",
              "type": "uint256"
            },
            {
              "internalType": "uint256",
              "name": "newLongShares",
              "type": "uint256"
            },
            {
              "internalType": "uint256",
              "name": "newShortShares",
              "type": "uint256"
            },
            {
              "internalType": "uint256",
              "name": "newMeanEntryPrice",
              "type": "uint256"
            },
            {
              "internalType": "uint256",
              "name": "newMeanEntrySpread",
              "type": "uint256"
            },
            {
              "internalType": "uint256",
              "name": "newMeanEntryLeverage",
              "type": "uint256"
            },
            {
              "internalType": "uint256",
              "name": "newLiquidationPrice",
              "type": "uint256"
            }
          ],
          "internalType": "struct MorpherTradeEngine.OrderModifier",
          "name": "modifyPosition",
          "type": "tuple"
        }
      ],
      "stateMutability": "view",
      "type": "function"
    },
    {
      "inputs": [
        {
          "internalType": "address",
          "name": "",
          "type": "address"
        },
        {
          "internalType": "bytes32",
          "name": "",
          "type": "bytes32"
        }
      ],
      "name": "portfolio",
      "outputs": [
        {
          "internalType": "uint256",
          "name": "lastUpdated",
          "type": "uint256"
        },
        {
          "internalType": "uint256",
          "name": "longShares",
          "type": "uint256"
        },
        {
          "internalType": "uint256",
          "name": "shortShares",
          "type": "uint256"
        },
        {
          "internalType": "uint256",
          "name": "meanEntryPrice",
          "type": "uint256"
        },
        {
          "internalType": "uint256",
          "name": "meanEntrySpread",
          "type": "uint256"
        },
        {
          "internalType": "uint256",
          "name": "meanEntryLeverage",
          "type": "uint256"
        },
        {
          "internalType": "uint256",
          "name": "liquidationPrice",
          "type": "uint256"
        },
        {
          "internalType": "bytes32",
          "name": "positionHash",
          "type": "bytes32"
        }
      ],
      "stateMutability": "view",
      "type": "function"
    },
    {
      "inputs": [
        {
          "internalType": "bytes32",
          "name": "",
          "type": "bytes32"
        }
      ],
      "name": "priceLockDeactivatedMarket",
      "outputs": [
        {
          "internalType": "uint256",
          "name": "lockedPrice",
          "type": "uint256"
        }
      ],
      "stateMutability": "view",
      "type": "function"
    },
    {
      "inputs": [
        {
          "internalType": "address",
          "name": "_stateAddress",
          "type": "address"
        },
        {
          "internalType": "bool",
          "name": "_escrowOpenOrderEnabled",
          "type": "bool"
        },
        {
          "internalType": "uint256",
          "name": "_deployedTimestampOverride",
          "type": "uint256"
        }
      ],
      "name": "initialize",
      "outputs": [],
      "stateMutability": "nonpayable",
      "type": "function"
    },
    {
      "inputs": [
        {
          "internalType": "address",
          "name": "_stateAddress",
          "type": "address"
        }
      ],
      "name": "setMorpherState",
      "outputs": [],
      "stateMutability": "nonpayable",
      "type": "function"
    },
    {
      "inputs": [
        {
          "internalType": "bool",
          "name": "_isEnabled",
          "type": "bool"
        }
      ],
      "name": "setEscrowOpenOrderEnabled",
      "outputs": [],
      "stateMutability": "nonpayable",
      "type": "function"
    },
    {
      "inputs": [
        {
          "internalType": "uint256",
          "name": "_interestRate",
          "type": "uint256"
        }
      ],
      "name": "setLeverageInterestRate",
      "outputs": [],
      "stateMutability": "nonpayable",
      "type": "function"
    },
    {
      "inputs": [],
      "name": "interestRate",
      "outputs": [
        {
          "internalType": "uint256",
          "name": "",
          "type": "uint256"
        }
      ],
      "stateMutability": "view",
      "type": "function"
    },
    {
      "inputs": [
        {
          "internalType": "uint256",
          "name": "_rate",
          "type": "uint256"
        },
        {
          "internalType": "uint256",
          "name": "_validFrom",
          "type": "uint256"
        }
      ],
      "name": "addInterestRate",
      "outputs": [],
      "stateMutability": "nonpayable",
      "type": "function"
    },
    {
      "inputs": [
        {
          "internalType": "uint256",
          "name": "_positionTimestamp",
          "type": "uint256"
        }
      ],
      "name": "getInterestRate",
      "outputs": [
        {
          "internalType": "uint256",
          "name": "",
          "type": "uint256"
        }
      ],
      "stateMutability": "view",
      "type": "function"
    },
    {
      "inputs": [
        {
          "internalType": "address",
          "name": "_address",
          "type": "address"
        },
        {
          "internalType": "bytes32",
          "name": "_marketId",
          "type": "bytes32"
        },
        {
          "internalType": "uint256",
          "name": "_closeSharesAmount",
          "type": "uint256"
        },
        {
          "internalType": "uint256",
          "name": "_openMPHTokenAmount",
          "type": "uint256"
        },
        {
          "internalType": "bool",
          "name": "_tradeDirection",
          "type": "bool"
        },
        {
          "internalType": "uint256",
          "name": "_orderLeverage",
          "type": "uint256"
        }
      ],
      "name": "requestOrderId",
      "outputs": [
        {
          "internalType": "bytes32",
          "name": "_orderId",
          "type": "bytes32"
        }
      ],
      "stateMutability": "nonpayable",
      "type": "function"
    },
    {
      "inputs": [
        {
          "internalType": "bytes32",
          "name": "_orderId",
          "type": "bytes32"
        }
      ],
      "name": "getOrder",
      "outputs": [
        {
          "internalType": "address",
          "name": "_userId",
          "type": "address"
        },
        {
          "internalType": "bytes32",
          "name": "_marketId",
          "type": "bytes32"
        },
        {
          "internalType": "uint256",
          "name": "_closeSharesAmount",
          "type": "uint256"
        },
        {
          "internalType": "uint256",
          "name": "_openMPHTokenAmount",
          "type": "uint256"
        },
        {
          "internalType": "uint256",
          "name": "_marketPrice",
          "type": "uint256"
        },
        {
          "internalType": "uint256",
          "name": "_marketSpread",
          "type": "uint256"
        },
        {
          "internalType": "uint256",
          "name": "_orderLeverage",
          "type": "uint256"
        }
      ],
      "stateMutability": "view",
      "type": "function"
    },
    {
      "inputs": [
        {
          "internalType": "bytes32",
          "name": "_marketId",
          "type": "bytes32"
        },
        {
          "internalType": "uint256",
          "name": "_price",
          "type": "uint256"
        }
      ],
      "name": "setDeactivatedMarketPrice",
      "outputs": [],
      "stateMutability": "nonpayable",
      "type": "function"
    },
    {
      "inputs": [
        {
          "internalType": "bytes32",
          "name": "_marketId",
          "type": "bytes32"
        }
      ],
      "name": "getDeactivatedMarketPrice",
      "outputs": [
        {
          "internalType": "uint256",
          "name": "",
          "type": "uint256"
        }
      ],
      "stateMutability": "view",
      "type": "function"
    },
    {
      "inputs": [
        {
          "internalType": "bytes32",
          "name": "_orderId",
          "type": "bytes32"
        },
        {
          "internalType": "uint256",
          "name": "_marketPrice",
          "type": "uint256"
        },
        {
          "internalType": "uint256",
          "name": "_marketSpread",
          "type": "uint256"
        },
        {
          "internalType": "uint256",
          "name": "_liquidationTimestamp",
          "type": "uint256"
        },
        {
          "internalType": "uint256",
          "name": "_timeStampInMS",
          "type": "uint256"
        }
      ],
      "name": "processOrder",
      "outputs": [
        {
          "components": [
            {
              "internalType": "uint256",
              "name": "lastUpdated",
              "type": "uint256"
            },
            {
              "internalType": "uint256",
              "name": "longShares",
              "type": "uint256"
            },
            {
              "internalType": "uint256",
              "name": "shortShares",
              "type": "uint256"
            },
            {
              "internalType": "uint256",
              "name": "meanEntryPrice",
              "type": "uint256"
            },
            {
              "internalType": "uint256",
              "name": "meanEntrySpread",
              "type": "uint256"
            },
            {
              "internalType": "uint256",
              "name": "meanEntryLeverage",
              "type": "uint256"
            },
            {
              "internalType": "uint256",
              "name": "liquidationPrice",
              "type": "uint256"
            },
            {
              "internalType": "bytes32",
              "name": "positionHash",
              "type": "bytes32"
            }
          ],
          "internalType": "struct MorpherTradeEngine.position",
          "name": "",
          "type": "tuple"
        }
      ],
      "stateMutability": "nonpayable",
      "type": "function"
    },
    {
      "inputs": [
        {
          "internalType": "bytes32",
          "name": "_orderId",
          "type": "bytes32"
        },
        {
          "internalType": "address",
          "name": "_address",
          "type": "address"
        }
      ],
      "name": "cancelOrder",
      "outputs": [],
      "stateMutability": "nonpayable",
      "type": "function"
    },
    {
      "inputs": [
        {
          "internalType": "uint256",
          "name": "_positionAveragePrice",
          "type": "uint256"
        },
        {
          "internalType": "uint256",
          "name": "_positionAverageLeverage",
          "type": "uint256"
        },
        {
          "internalType": "uint256",
          "name": "_positionTimeStampInMs",
          "type": "uint256"
        },
        {
          "internalType": "uint256",
          "name": "_marketPrice",
          "type": "uint256"
        },
        {
          "internalType": "uint256",
          "name": "_marketSpread",
          "type": "uint256"
        },
        {
          "internalType": "uint256",
          "name": "_orderLeverage",
          "type": "uint256"
        },
        {
          "internalType": "bool",
          "name": "_sell",
          "type": "bool"
        }
      ],
      "name": "shortShareValue",
      "outputs": [
        {
          "internalType": "uint256",
          "name": "_shareValue",
          "type": "uint256"
        }
      ],
      "stateMutability": "view",
      "type": "function"
    },
    {
      "inputs": [
        {
          "internalType": "uint256",
          "name": "_positionAveragePrice",
          "type": "uint256"
        },
        {
          "internalType": "uint256",
          "name": "_positionAverageLeverage",
          "type": "uint256"
        },
        {
          "internalType": "uint256",
          "name": "_positionTimeStampInMs",
          "type": "uint256"
        },
        {
          "internalType": "uint256",
          "name": "_marketPrice",
          "type": "uint256"
        },
        {
          "internalType": "uint256",
          "name": "_marketSpread",
          "type": "uint256"
        },
        {
          "internalType": "uint256",
          "name": "_orderLeverage",
          "type": "uint256"
        },
        {
          "internalType": "bool",
          "name": "_sell",
          "type": "bool"
        }
      ],
      "name": "longShareValue",
      "outputs": [
        {
          "internalType": "uint256",
          "name": "_shareValue",
          "type": "uint256"
        }
      ],
      "stateMutability": "view",
      "type": "function"
    },
    {
      "inputs": [
        {
          "internalType": "uint256",
          "name": "_averagePrice",
          "type": "uint256"
        },
        {
          "internalType": "uint256",
          "name": "_averageLeverage",
          "type": "uint256"
        },
        {
          "internalType": "uint256",
          "name": "_positionTimeStampInMs",
          "type": "uint256"
        }
      ],
      "name": "calculateMarginInterest",
      "outputs": [
        {
          "internalType": "uint256",
          "name": "",
          "type": "uint256"
        }
      ],
      "stateMutability": "view",
      "type": "function"
    },
    {
      "inputs": [
        {
          "internalType": "bytes32",
          "name": "_orderId",
          "type": "bytes32"
        }
      ],
      "name": "computeLiquidationPrice",
      "outputs": [
        {
          "internalType": "uint256",
          "name": "_liquidationPrice",
          "type": "uint256"
        }
      ],
      "stateMutability": "nonpayable",
      "type": "function"
    },
    {
      "inputs": [
        {
          "internalType": "uint256",
          "name": "_newMeanEntryPrice",
          "type": "uint256"
        },
        {
          "internalType": "uint256",
          "name": "_newMeanEntryLeverage",
          "type": "uint256"
        },
        {
          "internalType": "bool",
          "name": "_long",
          "type": "bool"
        },
        {
          "internalType": "uint256",
          "name": "_positionTimestampInMs",
          "type": "uint256"
        }
      ],
      "name": "getLiquidationPrice",
      "outputs": [
        {
          "internalType": "uint256",
          "name": "",
          "type": "uint256"
        }
      ],
      "stateMutability": "view",
      "type": "function"
    },
    {
      "inputs": [
        {
          "internalType": "address",
          "name": "_address",
          "type": "address"
        },
        {
          "internalType": "bytes32",
          "name": "_marketId",
          "type": "bytes32"
        },
        {
          "internalType": "uint256",
          "name": "_timeStamp",
          "type": "uint256"
        },
        {
          "internalType": "uint256",
          "name": "_longShares",
          "type": "uint256"
        },
        {
          "internalType": "uint256",
          "name": "_shortShares",
          "type": "uint256"
        },
        {
          "internalType": "uint256",
          "name": "_meanEntryPrice",
          "type": "uint256"
        },
        {
          "internalType": "uint256",
          "name": "_meanEntrySpread",
          "type": "uint256"
        },
        {
          "internalType": "uint256",
          "name": "_meanEntryLeverage",
          "type": "uint256"
        },
        {
          "internalType": "uint256",
          "name": "_liquidationPrice",
          "type": "uint256"
        }
      ],
      "name": "setPosition",
      "outputs": [],
      "stateMutability": "nonpayable",
      "type": "function"
    },
    {
      "inputs": [
        {
          "internalType": "address",
          "name": "_address",
          "type": "address"
        },
        {
          "internalType": "bytes32",
          "name": "_marketId",
          "type": "bytes32"
        }
      ],
      "name": "getPosition",
      "outputs": [
        {
          "components": [
            {
              "internalType": "uint256",
              "name": "lastUpdated",
              "type": "uint256"
            },
            {
              "internalType": "uint256",
              "name": "longShares",
              "type": "uint256"
            },
            {
              "internalType": "uint256",
              "name": "shortShares",
              "type": "uint256"
            },
            {
              "internalType": "uint256",
              "name": "meanEntryPrice",
              "type": "uint256"
            },
            {
              "internalType": "uint256",
              "name": "meanEntrySpread",
              "type": "uint256"
            },
            {
              "internalType": "uint256",
              "name": "meanEntryLeverage",
              "type": "uint256"
            },
            {
              "internalType": "uint256",
              "name": "liquidationPrice",
              "type": "uint256"
            },
            {
              "internalType": "bytes32",
              "name": "positionHash",
              "type": "bytes32"
            }
          ],
          "internalType": "struct MorpherTradeEngine.position",
          "name": "",
          "type": "tuple"
        }
      ],
      "stateMutability": "view",
      "type": "function"
    },
    {
      "inputs": [
        {
          "internalType": "address",
          "name": "_address",
          "type": "address"
        },
        {
          "internalType": "bytes32",
          "name": "_marketId",
          "type": "bytes32"
        },
        {
          "internalType": "uint256",
          "name": "_timeStamp",
          "type": "uint256"
        },
        {
          "internalType": "uint256",
          "name": "_longShares",
          "type": "uint256"
        },
        {
          "internalType": "uint256",
          "name": "_shortShares",
          "type": "uint256"
        },
        {
          "internalType": "uint256",
          "name": "_meanEntryPrice",
          "type": "uint256"
        },
        {
          "internalType": "uint256",
          "name": "_meanEntrySpread",
          "type": "uint256"
        },
        {
          "internalType": "uint256",
          "name": "_meanEntryLeverage",
          "type": "uint256"
        },
        {
          "internalType": "uint256",
          "name": "_liquidationPrice",
          "type": "uint256"
        }
      ],
      "name": "getPositionHash",
      "outputs": [
        {
          "internalType": "bytes32",
          "name": "_hash",
          "type": "bytes32"
        }
      ],
      "stateMutability": "pure",
      "type": "function"
    },
    {
      "inputs": [
        {
          "internalType": "bytes32",
          "name": "_marketId",
          "type": "bytes32"
        }
      ],
      "name": "getMaxMappingIndex",
      "outputs": [
        {
          "internalType": "uint256",
          "name": "_maxMappingIndex",
          "type": "uint256"
        }
      ],
      "stateMutability": "view",
      "type": "function"
    },
    {
      "inputs": [
        {
          "internalType": "bytes32",
          "name": "_marketId",
          "type": "bytes32"
        },
        {
          "internalType": "address",
          "name": "_address",
          "type": "address"
        }
      ],
      "name": "getExposureMappingIndex",
      "outputs": [
        {
          "internalType": "uint256",
          "name": "_mappingIndex",
          "type": "uint256"
        }
      ],
      "stateMutability": "view",
      "type": "function"
    },
    {
      "inputs": [
        {
          "internalType": "bytes32",
          "name": "_marketId",
          "type": "bytes32"
        },
        {
          "internalType": "uint256",
          "name": "_mappingIndex",
          "type": "uint256"
        }
      ],
      "name": "getExposureMappingAddress",
      "outputs": [
        {
          "internalType": "address",
          "name": "_address",
          "type": "address"
        }
      ],
      "stateMutability": "view",
      "type": "function"
    }
  ],
  "bytecode": "0x608060405234801561000f575f80fd5b506150798061001d5f395ff3fe608060405234801561000f575f80fd5b5060043610610229575f3560e01c80637023b7831161012a578063ac8f6f7f116100b4578063e37ff29f11610079578063e37ff29f1461082e578063ee309c2214610841578063ef92f83114610868578063f40b7b3214610887578063f45edb5f14610890575f80fd5b8063ac8f6f7f146107cf578063ac9eee28146107e2578063be7e64b6146107f5578063cb581ced14610808578063d61aed7a1461081b575f80fd5b806380104668116100fa57806380104668146105865780639a4d8ba1146105995780639c3f1e90146105d45780639c92e2b414610791578063a386fb56146107b0575f80fd5b80637023b783146105455780637a687444146105585780637c3a00fd1461056b5780637dffd04014610573575f80fd5b806316f8de89116101b6578063480ee2071161017b578063480ee207146104705780635662ecc7146104835780635778472a1461048c57806369c66c7b1461051f5780636b4f706514610532575f80fd5b806316f8de89146103eb5780632d7b42c1146103f45780633062bde41461042b5780633754c5651461044a5780634702513c1461045d575f80fd5b80631035b2f1116101fc5780631035b2f1146103055780631176aeef1461039d57806313384039146103a657806316194bac146103bb57806316f77a5b146103d8575f80fd5b806307e2cea51461022d5780630c196a74146102545780630e2e7ed3146102675780630fa8f51614610292575b5f80fd5b6102415f8051602061500483398151915281565b6040519081526020015b60405180910390f35b610241610262366004614ab4565b6108a4565b60335461027a906001600160a01b031681565b6040516001600160a01b03909116815260200161024b565b6102a56102a0366004614adf565b610a25565b60405161024b91905f61010082019050825182526020830151602083015260408301516040830152606083015160608301526080830151608083015260a083015160a083015260c083015160c083015260e083015160e083015292915050565b610362610313366004614adf565b603a602052815f5260405f20602052805f5260405f205f9150915050805f0154908060010154908060020154908060030154908060040154908060050154908060060154908060070154905088565b604080519889526020890197909752958701949094526060860192909252608085015260a084015260c083015260e08201526101000161024b565b610241603d5481565b6103b96103b4366004614b09565b610ab0565b005b6037546103c89060ff1681565b604051901515815260200161024b565b6102a56103e6366004614b29565b610e0b565b61024160345481565b61027a610402366004614b09565b5f918252603b60209081526040808420928452600290920190529020546001600160a01b031690565b610241610439366004614ab4565b603b6020525f908152604090205481565b610241610458366004614b6d565b6116d4565b61024161046b366004614ab4565b6117ef565b61024161047e366004614b6d565b6118af565b61024160355481565b6104e061049a366004614ab4565b5f9081526039602052604090208054600182015460028301546003840154600685015460078601546008909601546001600160a01b039095169693959294919390929190565b604080516001600160a01b0390981688526020880196909652948601939093526060850191909152608084015260a083015260c082015260e00161024b565b61024161052d366004614bc8565b611938565b610241610540366004614bf6565b611963565b6103b9610553366004614b09565b611a17565b610241610566366004614c1f565b611b6e565b610241611be6565b610241610581366004614c81565b611c44565b6103b9610594366004614cbd565b611cee565b6105bf6105a7366004614ab4565b603c6020525f90815260409020805460019091015482565b6040805192835260208301919091520161024b565b6106bc6105e2366004614ab4565b603960209081525f91825260409182902080546001820154600283015460038401546004850154600586015460068701546007880154600889015460098a0154600a8b01548d5161014081018f52600b8d01548152600c8d01549d81019d909d52600d8c01549d8d019d909d52600e8b015460608d0152600f8b015460808d015260108b015460a08d015260118b015460c08d015260128b015460e08d015260138b01546101008d01526014909a01546101208c01526001600160a01b039098169a96999598949760ff909416969295919490939290918c565b604080516001600160a01b03909d168d526020808e019c909c528c81019a909a526060808d01999099529615156080808d019190915260a0808d019790975260c0808d019690965260e0808d0195909552610100808d0194909452610120808d01939093526101408c019190915286516101608c0152988601516101808b0152968501516101a08a0152948401516101c0890152958301516101e0880152908201516102008701528101516102208601529283015161024085015282015161026084015201516102808201526102a00161024b565b61024161079f366004614ab4565b60386020525f908152604090205481565b6102416107be366004614ab4565b5f9081526038602052604090205490565b6102416107dd366004614cdf565b611e54565b6103b96107f0366004614d39565b6122c5565b6103b9610803366004614c1f565b6123e9565b6103b9610816366004614ab4565b612529565b6103b9610829366004614bc8565b612647565b6103b961083c366004614d54565b612a5d565b6102417fd7753d4b699289191763bde82d59e1de5c3c491e8ee2ca272786ed78707b323a81565b610241610876366004614ab4565b5f908152603b602052604090205490565b61024160365481565b6102415f8051602061502483398151915281565b5f8080805b603d54811015610a06576001603d546108c29190614da6565b8114806108eb575042603c5f6108d9846001614db9565b81526020019081526020015f205f0154115b1561094c575f818152603c60205260409020546109089042614da6565b5f828152603c60205260409020600101546109239190614dcc565b61092d9084614db9565b9250815f03610947575f818152603c602052604090205491505b610a06565b84603c5f61095b846001614db9565b81526020019081526020015f205f015411156109f4575f818152603c602081905260408220549161098d846001614db9565b81526020019081526020015f205f01546109a79190614da6565b5f828152603c60205260409020600101546109c29190614dcc565b6109cc9084614db9565b5f828152603c602052604090205490935085106109f4575f818152603c602052604090205491505b806109fe81614de3565b9150506108a9565b505f610a128242614da6565b610a1c9084614dfb565b95945050505050565b610a2d614a74565b506001600160a01b0382165f908152603a60209081526040808320848452825291829020825161010081018452815481526001820154928101929092526002810154928201929092526003820154606082015260048201546080820152600582015460a0820152600682015460c082015260079091015460e08201525b92915050565b60335460408051630140cb6560e51b815290515f80516020615024833981519152926001600160a01b0316916328196ca09160048083019260209291908290030181865afa158015610b04573d5f803e3d5ffd5b505050506040513d601f19601f82011682018060405250810190610b289190614e1a565b6001600160a01b03166391d1485482336040516001600160e01b031960e085901b16815260048101929092526001600160a01b03166024820152604401602060405180830381865afa158015610b80573d5f803e3d5ffd5b505050506040513d601f19601f82011682018060405250810190610ba49190614e35565b610bc95760405162461bcd60e51b8152600401610bc090614e50565b60405180910390fd5b603d541580610bf8575081603c5f6001603d54610be69190614da6565b81526020019081526020015f205f0154105b610c845760405162461bcd60e51b815260206004820152605160248201527f4d6f72706865725472616465456e67696e653a20496e7465726573742052617460448201527f652056616c69642046726f6d206d757374206265206c61746572207468616e206064820152706c61737420696e7465726573745261746560781b608482015260a401610bc0565b6305f5e100831115610cfe5760405162461bcd60e51b815260206004820152603c60248201527f4d6f72706865725472616465456e67696e653a20496e7465726573742052617460448201527f652063616e6e6f74206265206c6172676572207468616e2031303025000000006064820152608401610bc0565b42610d0d6301e1338084614da6565b1115610d995760405162461bcd60e51b815260206004820152604f60248201527f4d6f72706865725472616465456e67696e653a20496e7465726573742052617460448201527f652063616e6e6f74207374617274206d6f7265207468616e203120796561722060648201526e696e746f207468652066757475726560881b608482015260a401610bc0565b603d80545f908152603c602052604080822085905582548252812060010185905581549190610dc783614de3565b909155505060408051848152602081018490527f93b9f7720ecbc1a525daad04dea2344903315e98916d6ca70319deddb02eb70b91015b60405180910390a1505050565b610e13614a74565b60335460408051630140cb6560e51b815290515f80516020615004833981519152926001600160a01b0316916328196ca09160048083019260209291908290030181865afa158015610e67573d5f803e3d5ffd5b505050506040513d601f19601f82011682018060405250810190610e8b9190614e1a565b6001600160a01b03166391d1485482336040516001600160e01b031960e085901b16815260048101929092526001600160a01b03166024820152604401602060405180830381865afa158015610ee3573d5f803e3d5ffd5b505050506040513d601f19601f82011682018060405250810190610f079190614e35565b610f235760405162461bcd60e51b8152600401610bc090614e50565b5f878152603960205260409020546001600160a01b0316610fac5760405162461bcd60e51b815260206004820152603e60248201527f4d6f72706865725472616465456e67696e653a20756e61626c6520746f20707260448201527f6f636573732c206f7264657220686173206265656e2064656c657465642e00006064820152608401610bc0565b5f86116110335760405162461bcd60e51b815260206004820152604960248201527f4d6f72706865725472616465456e67696e653a206d61726b657420707269636560448201527f64206174207a65726f2e20427579206f726465722063616e6e6f7420626520706064820152683937b1b2b9b9b2b21760b91b608482015260a401610bc0565b848610156110c75760405162461bcd60e51b815260206004820152605560248201527f4d6f72706865725472616465456e67696e653a206d61726b657420707269636560448201527f206c6f776572207468656e206d61726b6574207370726561642e204f726465726064820152741031b0b73737ba10313290383937b1b2b9b9b2b21760591b608482015260a401610bc0565b5f8781526039602052604090819020600681018890556007810187905560098101859055600581018690556033546001909101549151634a4cce9760e01b815260048101929092526001600160a01b031690634a4cce9790602401602060405180830381865afa15801561113d573d5f803e3d5ffd5b505050506040513d601f19601f820116820180604052508101906111619190614e35565b15155f0361119d5761117287612b0b565b5f878152603960208181526040808420600181015485526038835290842054938b9052919052600601555b5f87815260396020908152604080832080546001600160a01b03168452603a835281842060019091015484529091529020548411156111e4576111df87612b4b565b611335565b60335f9054906101000a90046001600160a01b03166001600160a01b03166350a71bac6040518163ffffffff1660e01b8152600401602060405180830381865afa158015611234573d5f803e3d5ffd5b505050506040513d601f19601f820116820180604052508101906112589190614e1a565b5f8881526039602052604090819020549051635612cd6760e11b81526001600160a01b03918216600482015291169063ac259ace90602401602060405180830381865afa1580156112ab573d5f803e3d5ffd5b505050506040513d601f19601f820116820180604052508101906112cf9190614e35565b156113355760405162461bcd60e51b815260206004820152603060248201527f4d6f72706865725472616465456e67696e653a205573657220697320626c6f6360448201526f6b65642066726f6d2054726164696e6760801b6064820152608401610bc0565b61133e87612d64565b5f8781526039602052604090206004015460ff16156113655761136087612ebc565b61136e565b61136e8761308c565b5f60395f8981526020019081526020015f205f015f9054906101000a90046001600160a01b031690505f60395f8a81526020019081526020015f2060010154905060395f8a81526020019081526020015f205f8082015f6101000a8154906001600160a01b030219169055600182015f9055600282015f9055600382015f9055600482015f6101000a81549060ff0219169055600582015f9055600682015f9055600782015f9055600882015f9055600982015f9055600a82015f9055600b82015f8082015f9055600182015f9055600282015f9055600382015f9055600482015f9055600582015f9055600682015f9055600782015f9055600882015f9055600982015f9055505050507f696a3d28d7b4bcfc9cbfef719a03218d7a502cda20d01f9ef8086249e81654928989898989603a5f896001600160a01b03166001600160a01b031681526020019081526020015f205f8881526020019081526020015f2060010154603a5f8a6001600160a01b03166001600160a01b031681526020019081526020015f205f8981526020019081526020015f2060020154603a5f8b6001600160a01b03166001600160a01b031681526020019081526020015f205f8a81526020019081526020015f2060030154603a5f8c6001600160a01b03166001600160a01b031681526020019081526020015f205f8b81526020019081526020015f2060040154603a5f8d6001600160a01b03166001600160a01b031681526020019081526020015f205f8c81526020019081526020015f2060050154603a5f8e6001600160a01b03166001600160a01b031681526020019081526020015f205f8d81526020019081526020015f20600601546040516116439b9a999897969594939291909a8b5260208b019990995260408a01979097526060890195909552608088019390935260a087019190915260c086015260e08501526101008401526101208301526101408201526101600190565b60405180910390a16001600160a01b039091165f908152603a6020908152604080832093835292815290829020825161010081018452815481526001820154928101929092526002810154928201929092526003820154606082015260048201546080820152600582015460a0820152600682015460c082015260079091015460e082015291505095945050505050565b5f87876305f5e1008110156116ea57506305f5e1005b8315155f036116f95750859050835b8661170683835f8c611c44565b11611713575f92506117e2565b6305f5e1006117228282614db9565b61172c9084614dcc565b6117369190614dfb565b92506305f5e1006117478289614dcc565b6117519190614dfb565b61175b9084614da6565b92508315156001036117bc576305f5e1006117768288614dcc565b6117809190614dfb565b61178a9084614da6565b92505f61179883838b611963565b90508381116117b2576117ab8185614da6565b93506117b6565b5f93505b506117e2565b6305f5e1006117cb8688614dcc565b6117d59190614dfb565b6117df9084614db9565b92505b5050979650505050505050565b5f81815260396020526040812060148101829055600f015415611848575f828152603960205260409020601181015460138201546009909201546118369290600190611c44565b5f838152603960205260409020601401555b5f828152603960205260409020601001541561189a575f828152603960205260408120601181015460138201546009909201546118889391929190611c44565b5f838152603960205260409020601401555b505f9081526039602052604090206014015490565b5f87876305f5e1008110156118c557506305f5e1005b8315155f036118d45750859050835b6118e1828260018b611c44565b87116118ef575f92506117e2565b6305f5e1006118fe8183614da6565b6119089084614dcc565b6119129190614dfb565b9250826305f5e100611924838a614dcc565b61192e9190614dfb565b61175b9190614da6565b5f828152603b602090815260408083206001600160a01b038516845260010190915290205492915050565b5f806036546103e8846119769190614dfb565b101561198f576103e860365461198c9190614dfb565b92505b61199d6305f5e10085614da6565b6119a79086614dcc565b9050620151806119b96103e885614dfb565b6119c39042614da6565b6119cd9190614dfb565b6119d8906001614db9565b6119e29082614dcc565b90506305f5e100806119f96102626103e887614dfb565b611a039084614dcc565b611a0d9190614dfb565b610a1c9190614dfb565b60335460408051630140cb6560e51b815290515f80516020615024833981519152926001600160a01b0316916328196ca09160048083019260209291908290030181865afa158015611a6b573d5f803e3d5ffd5b505050506040513d601f19601f82011682018060405250810190611a8f9190614e1a565b6001600160a01b03166391d1485482336040516001600160e01b031960e085901b16815260048101929092526001600160a01b03166024820152604401602060405180830381865afa158015611ae7573d5f803e3d5ffd5b505050506040513d601f19601f82011682018060405250810190611b0b9190614e35565b611b275760405162461bcd60e51b8152600401610bc090614e50565b5f8381526038602090815260409182902084905581518581529081018490527f3cf30f15febef0d3f8e86318070db2c80d03fd14e8406d326aab41cb043f18399101610dfe565b6040805160609a909a1b6bffffffffffffffffffffffff19166020808c019190915260348b019990995260548a01979097526074890195909552609488019390935260b487019190915260d486015260f485015261011480850191909152815180850390910181526101349093019052815191012090565b5f603d545f03611bf557505f90565b5f6001603d54611c059190614da6565b90505b5f818152603c60205260409020544210611c32575f908152603c6020526040902060010154919050565b80611c3c81614e96565b915050611c08565b5f805f611c52878786611963565b90505f86611c646305f5e10084614dcc565b611c6e9190614dfb565b9050851515600103611cb05786611c896305f5e10082614da6565b611c93908a614dcc565b611c9d9190614dfb565b9250611ca98184614db9565b9250611ce2565b86611cbf6305f5e10082614db9565b611cc9908a614dcc565b611cd39190614dfb565b9250611cdf8184614da6565b92505b50909695505050505050565b60335460408051630140cb6560e51b815290515f80516020615024833981519152926001600160a01b0316916328196ca09160048083019260209291908290030181865afa158015611d42573d5f803e3d5ffd5b505050506040513d601f19601f82011682018060405250810190611d669190614e1a565b6001600160a01b03166391d1485482336040516001600160e01b031960e085901b16815260048101929092526001600160a01b03166024820152604401602060405180830381865afa158015611dbe573d5f803e3d5ffd5b505050506040513d601f19601f82011682018060405250810190611de29190614e35565b611dfe5760405162461bcd60e51b8152600401610bc090614e50565b603380546001600160a01b0319166001600160a01b0384169081179091556040519081527f978c711532bae8c58f353b0f3c7f3a0dfe600d9ae9a81818f2ad2919b88e1990906020015b60405180910390a15050565b5f5f8051602061500483398151915260335f9054906101000a90046001600160a01b03166001600160a01b03166328196ca06040518163ffffffff1660e01b8152600401602060405180830381865afa158015611eb3573d5f803e3d5ffd5b505050506040513d601f19601f82011682018060405250810190611ed79190614e1a565b6001600160a01b03166391d1485482336040516001600160e01b031960e085901b16815260048101929092526001600160a01b03166024820152604401602060405180830381865afa158015611f2f573d5f803e3d5ffd5b505050506040513d601f19601f82011682018060405250810190611f539190614e35565b611f6f5760405162461bcd60e51b8152600401610bc090614e50565b6305f5e100831015611ff35760405162461bcd60e51b815260206004820152604160248201527f4d6f72706865725472616465456e67696e653a206c6576657261676520746f6f60448201527f20736d616c6c2e204c6576657261676520707265636973696f6e2069732031656064820152600760fb1b608482015260a401610bc0565b60335f9054906101000a90046001600160a01b03166001600160a01b0316637c995e916040518163ffffffff1660e01b8152600401602060405180830381865afa158015612043573d5f803e3d5ffd5b505050506040513d601f19601f820116820180604052508101906120679190614eab565b8311156120dc5760405162461bcd60e51b815260206004820152603e60248201527f4d6f72706865725472616465456e67696e653a206c657665726167652065786360448201527f65656473206d6178696d756d20616c6c6f776564206c657665726167652e00006064820152608401610bc0565b6120e98888888888613261565b841561218257831561213e576001600160a01b0388165f908152603a602090815260408083208a845290915290206002015486146121395760405162461bcd60e51b8152600401610bc090614ec2565b612182565b6001600160a01b0388165f908152603a602090815260408083208a845290915290206001015486146121825760405162461bcd60e51b8152600401610bc090614ec2565b60348054905f61219183614de3565b9091555050603480546040516bffffffffffffffffffffffff1960608c901b166020820152439281019290925260548201899052607482018890526094820187905285151560f81b60b483015260b5820185905260d582015260f50160408051808303601f19018152828252805160209182012060358190555f8181526039835283902080546001600160a01b0319166001600160a01b038e169081178255600182018d9055600282018c9055600382018b905560048201805460ff19168b151590811790915560089092018990558286529285018b905292840189905260608401929092526080830186905290935088917fd5dec9e768ba83c154ee9ecf7a0c145c8e7ee75e1cc4af2d271a1f9c93bb39469060a00160405180910390a36122ba828661350e565b509695505050505050565b60335460408051630140cb6560e51b815290515f80516020615024833981519152926001600160a01b0316916328196ca09160048083019260209291908290030181865afa158015612319573d5f803e3d5ffd5b505050506040513d601f19601f8201168201806040525081019061233d9190614e1a565b6001600160a01b03166391d1485482336040516001600160e01b031960e085901b16815260048101929092526001600160a01b03166024820152604401602060405180830381865afa158015612395573d5f803e3d5ffd5b505050506040513d601f19601f820116820180604052508101906123b99190614e35565b6123d55760405162461bcd60e51b8152600401610bc090614e50565b506037805460ff1916911515919091179055565b60335460408051630140cb6560e51b815290517fd7753d4b699289191763bde82d59e1de5c3c491e8ee2ca272786ed78707b323a926001600160a01b0316916328196ca09160048083019260209291908290030181865afa158015612450573d5f803e3d5ffd5b505050506040513d601f19601f820116820180604052508101906124749190614e1a565b6001600160a01b03166391d1485482336040516001600160e01b031960e085901b16815260048101929092526001600160a01b03166024820152604401602060405180830381865afa1580156124cc573d5f803e3d5ffd5b505050506040513d601f19601f820116820180604052508101906124f09190614e35565b61250c5760405162461bcd60e51b8152600401610bc090614e50565b61251d8a8a8a8a8a8a8a8a8a613674565b50505050505050505050565b60335460408051630140cb6560e51b815290515f80516020615024833981519152926001600160a01b0316916328196ca09160048083019260209291908290030181865afa15801561257d573d5f803e3d5ffd5b505050506040513d601f19601f820116820180604052508101906125a19190614e1a565b6001600160a01b03166391d1485482336040516001600160e01b031960e085901b16815260048101929092526001600160a01b03166024820152604401602060405180830381865afa1580156125f9573d5f803e3d5ffd5b505050506040513d601f19601f8201168201806040525081019061261d9190614e35565b6126395760405162461bcd60e51b8152600401610bc090614e50565b6126438242610ab0565b5050565b60335460408051630140cb6560e51b815290515f80516020615004833981519152926001600160a01b0316916328196ca09160048083019260209291908290030181865afa15801561269b573d5f803e3d5ffd5b505050506040513d601f19601f820116820180604052508101906126bf9190614e1a565b6001600160a01b03166391d1485482336040516001600160e01b031960e085901b16815260048101929092526001600160a01b03166024820152604401602060405180830381865afa158015612717573d5f803e3d5ffd5b505050506040513d601f19601f8201168201806040525081019061273b9190614e35565b6127575760405162461bcd60e51b8152600401610bc090614e50565b5f838152603960205260409020546001600160a01b038381169116148061286a575060335f9054906101000a90046001600160a01b03166001600160a01b03166328196ca06040518163ffffffff1660e01b8152600401602060405180830381865afa1580156127c9573d5f803e3d5ffd5b505050506040513d601f19601f820116820180604052508101906127ed9190614e1a565b604051632474521560e21b81525f8051602061502483398151915260048201526001600160a01b03848116602483015291909116906391d1485490604401602060405180830381865afa158015612846573d5f803e3d5ffd5b505050506040513d601f19601f8201168201806040525081019061286a9190614e35565b6128e85760405162461bcd60e51b815260206004820152604360248201527f4d6f72706865725472616465456e67696e653a206f6e6c792041646d696e697360448201527f747261746f72206f7220757365722063616e2063616e63656c20616e206f726460648201526232b91760e91b608482015260a401610bc0565b5f838152603960205260409020546001600160a01b03166129715760405162461bcd60e51b815260206004820152603c60248201527f4d6f72706865725472616465456e67696e653a20756e61626c6520746f20707260448201527f6f636573732c206f7264657220646f6573206e6f742065786973742e000000006064820152608401610bc0565b61297a83612d64565b5f8381526039602052604080822080546001600160a01b031916815560018101839055600281018390556003810183905560048101805460ff191690556005810183905560068101839055600781018390556008810183905560098101839055600a8101839055600b8101839055600c8101839055600d8101839055600e8101839055600f810183905560108101839055601181018390556012810183905560138101839055601401829055516001600160a01b0384169185917fa6eb7cdc219e1518ced964e9a34e61d68a94e4f1569db3e84256ba981ba527539190a3505050565b5f612a6860016137b4565b90508015612a7f575f805461ff0019166101001790555b612a87613838565b603380546001600160a01b0319166001600160a01b0386161790556037805460ff191684151517905581612abb5742612abd565b815b6036558015612b05575f805461ff0019169055604051600181527f7f26b83ff96e1f2b6a682f133852f6798a09c465da95921460cefb38474024989060200160405180910390a15b50505050565b5f8181526039602052604090208054600182015460028301546003840154600490940154612b48946001600160a01b03909416939060ff16613261565b50565b5f818152603960209081526040808320805460018201546005909201546001600160a01b03909116808652603a85528386208387529094529190932054919291811115612b05576001600160a01b0383165f908152603a6020908152604080832085845290915290206001015415612c7d575f848152603960209081526040808320600901546001600160a01b0387168452603a8352818420868552909252822060020154612c08928692869290919081806305f5e100816123e9565b5f84815260396020908152604091829020600981015460068201546007909201548451600181529384019190915292820152606081019190915282906001600160a01b038516907fe41babb55b71bb17aa9629797bcd2f80ff29c7c3fe5f8d20b8bf3b08d4e4f9459060800160405180910390a35b6001600160a01b0383165f908152603a6020908152604080832085845290915290206002015415612b05575f848152603960209081526040808320600901546001600160a01b0387168452603a8352818420868552909252822060010154612cf29286928692909180806305f5e100816123e9565b5f8481526039602090815260408083206009810154600682015460079092015483519586529385015290830152606082015282906001600160a01b038516907fe41babb55b71bb17aa9629797bcd2f80ff29c7c3fe5f8d20b8bf3b08d4e4f9459060800160405180910390a350505050565b5f818152603960205260409020600a015415612b48575f818152603960209081526040808320600a0180549390556033548151632192ab5d60e11b815291516001600160a01b039091169263432556ba92600480820193918290030181865afa158015612dd3573d5f803e3d5ffd5b505050506040513d601f19601f82011682018060405250810190612df79190614e1a565b5f83815260396020526040908190205490516340c10f1960e01b81526001600160a01b039182166004820152602481018490529116906340c10f19906044015f604051808303815f87803b158015612e4d575f80fd5b505af1158015612e5f573d5f803e3d5ffd5b5050505f838152603960209081526040918290205482518681526001600160a01b03909116918101919091529081018390527fbd3ba1f648c8894f4fca2dbf0a22719b08647d73e153e568d413c6dd6e6cb8619150606001611e48565b5f8181526039602052604090206002015415612f74575f81815260396020818152604080842080546001600160a01b03168552603a83528185206001820154865283529084206002908101549486905292909152015411612f34575f8181526039602052604090206002810154600c90910155612f74565b5f81815260396020818152604080842080546001600160a01b03168552603a83528185206001820154865283529084206002015493859052919052600c01555b5f81815260396020818152604080842080546001600160a01b03168552603a83528185206001820154865283529084206002015493859052919052600c0154148015612fcf57505f8181526039602052604090206003015415155b1561304e575f81815260396020526040902060068101546008909101546130219190612ffd426103e8614dcc565b5f8581526039602052604081206006810154600782015460089092015490926118af565b5f8281526039602052604090206003015461303c9190614dfb565b5f828152603960205260409020600b01555b5f818152603960205260409020600c01541561306d5761306d816138a4565b5f818152603960205260409020600b015415612b4857612b4881613a19565b5f8181526039602052604090206002015415613147575f81815260396020818152604080842080546001600160a01b03168552603a8352818520600180830154875290845291852090910154938590529190526002015411613105575f8181526039602052604090206002810154600b90910155613147565b5f81815260396020818152604080842080546001600160a01b03168552603a835281852060018083015487529084529185209091015493859052919052600b01555b5f81815260396020818152604080842080546001600160a01b03168552603a835281852060018083015487529084529185209091015493859052919052600b01541480156131a457505f8181526039602052604090206003015415155b15613223575f81815260396020526040902060068101546008909101546131f691906131d2426103e8614dcc565b5f8581526039602052604081206006810154600782015460089092015490926116d4565b5f828152603960205260409020600301546132119190614dfb565b5f828152603960205260409020600c01555b5f818152603960205260409020600b0154156132425761324281613d8c565b5f818152603960205260409020600c015415612b4857612b4881613eeb565b811561335f57603354604051634a4cce9760e01b8152600481018690526001600160a01b0390911690634a4cce9790602401602060405180830381865afa1580156132ae573d5f803e3d5ffd5b505050506040513d601f19601f820116820180604052508101906132d29190614e35565b151560011461335a5760405162461bcd60e51b815260206004820152604860248201527f4d6f72706865725472616465456e67696e653a206d61726b657420756e6b6e6f60448201527f776e206f722063757272656e746c79206e6f7420656e61626c656420666f72206064820152673a3930b234b7339760c11b608482015260a401610bc0565b613507565b603354604051634a4cce9760e01b8152600481018690526001600160a01b0390911690634a4cce9790602401602060405180830381865afa1580156133a6573d5f803e3d5ffd5b505050506040513d601f19601f820116820180604052508101906133ca9190614e35565b15155f03613507575f84815260386020526040812054116134795760405162461bcd60e51b815260206004820152605a60248201527f4d6f72706865725472616465456e67696e653a2043616e277420636c6f73652060448201527f6120706f736974696f6e2c206d61726b6574206e6f742061637469766520616e60648201527f6420636c6f73696e67207072696365206e6f74206c6f636b6564000000000000608482015260a401610bc0565b80156134c3576001600160a01b0385165f908152603a60209081526040808320878452909152902060010154831461335a5760405162461bcd60e51b8152600401610bc090614f45565b6001600160a01b0385165f908152603a6020908152604080832087845290915290206001015483146135075760405162461bcd60e51b8152600401610bc090614f45565b5050505050565b60375460ff16801561351f57505f81115b156126435760335f9054906101000a90046001600160a01b03166001600160a01b031663432556ba6040518163ffffffff1660e01b8152600401602060405180830381865afa158015613574573d5f803e3d5ffd5b505050506040513d601f19601f820116820180604052508101906135989190614e1a565b5f8381526039602052604090819020549051632770a7eb60e21b81526001600160a01b03918216600482015260248101849052911690639dc29fac906044015f604051808303815f87803b1580156135ee575f80fd5b505af1158015613600573d5f803e3d5ffd5b5050505f838152603960209081526040918290205482518681526001600160a01b03909116918101919091529081018390527f558e795083bf3802836b1f3eef9c404a698512ee98b4193781cede9b89fc64d0915060600160405180910390a15f91825260396020526040909120600a0155565b6001600160a01b0389165f908152603a602090815260408083208b8452909152902087815560018101879055600281018690556003810185905560048101849055600581018390556006018190556136d3898989898989898989611b6e565b6001600160a01b038a165f908152603a602090815260408083208c84529091529020600701558515158061370657505f85115b1561371a57613715888a614256565b613724565b613724888a6142a5565b6001600160a01b0389165f818152603a602090815260408083208c84528252918290206007015482518b81529182018a9052918101889052606081018790526080810186905260a0810185905260c081018490528a9291907f35ea872e77adbec19df83a66765d5bdc0adfe73d9ada9518cb384242ddb40d5d9060e00160405180910390a4505050505050505050565b5f8054610100900460ff16156137f9578160ff1660011480156137d65750303b155b6137f25760405162461bcd60e51b8152600401610bc090614fb5565b505f919050565b5f5460ff80841691161061381f5760405162461bcd60e51b8152600401610bc090614fb5565b505f805460ff191660ff92909216919091179055600190565b5f54610100900460ff166138a25760405162461bcd60e51b815260206004820152602b60248201527f496e697469616c697a61626c653a20636f6e7472616374206973206e6f74206960448201526a6e697469616c697a696e6760a81b6064820152608401610bc0565b565b5f81815260396020908152604080832080546001820154600c909201546001600160a01b03909116808652603a8552838620838752909452918420600201549293909290918291829182916138f99190614da6565b90505f6139058861433e565b6001600160a01b0388165f908152603a602090815260408083208a84528252808320600201548c84526039909252909120600c01549192509003613955575f94505f93506305f5e1009250613998565b6001600160a01b0387165f908152603a6020908152604080832089845290915290206003810154600482015460059092015490965090945092506139988861443c565b5f888152603960208181526040808420600d8101859055600e810186905580546001600160a01b03168552603a8352818520600180830154875290845291852090910154938c9052919052600f810191909155601081018390556011810186905560128101859055601301839055613a0f886144d6565b5050505050505050565b5f81815260396020908152604080832080546001909101546001600160a01b03909116808552603a8452828520828652909352908320600501549192909181906305f5e100811015613a6c57506305f5e1005b613a7a6305f5e10082614da6565b5f878152603960209081526040808320600601546001600160a01b038a168452603a83528184208985529092529091206003015491925090613abc9083614dcc565b613ac69190614dfb565b6001600160a01b0386165f908152603a60209081526040808320888452909152902060050154909150811015613b2e576001600160a01b0385165f908152603a60209081526040808320878452909152902060050154613b27908290614da6565b9050613b31565b505f5b6001600160a01b0385165f908152603a602090815260408083208784529091528120600101546305f5e10090613b679084614dcc565b613b719190614dfb565b6001600160a01b0387165f908152603a60209081526040808320898452909152902060050154909150613ba5908290614dcc565b5f888152603960205260409020600b810154600890910154919450613bc991614dcc565b613bd39084614db9565b5f888152603960205260409020600b0154909350613bf19082614db9565b613bfb9084614dfb565b6001600160a01b0387165f908152603a6020908152604080832089845290915290206001810154600490910154919450613c3491614dcc565b5f888152603960205260409020600b810154600790910154919550613c5891614dcc565b613c629085614db9565b5f888152603960205260409020600b0154909450613c809082614db9565b613c8a9085614dfb565b5f88815260396020526040902060088101546007820154600b909201549296506305f5e100929091613cbb91614dcc565b613cc59190614dcc565b613ccf9190614dfb565b5f8881526039602052604090206006810154600b90910154613cf19190614dcc565b613cfb9190614db9565b5f888152603960205260408120600d810192909255600e820155600b0154613d239082614db9565b5f888152603960208181526040808420600f8101959095556001600160a01b038b168452603a82528084208a85528252832060020154928b90525260108201556006810154601182015560128101859055601301839055613d83876144d6565b50505050505050565b5f8181526039602090815260408083208054600180830154600b909301546001600160a01b03909216808752603a865284872084885290955292852090920154929390929091613ddb91614da6565b90505f613de78561433e565b6001600160a01b0385165f908152603a6020908152604080832087845282528083206001015489845260399092528220600b015492935090918291829103613e3a57505f91508190506305f5e100613e7b565b5050506001600160a01b0384165f908152603a60209081526040808320868452909152902060038101546004820154600590920154909190613e7b8861443c565b5f888152603960208181526040808420600d8101859055600e8101899055600f81018a90556001600160a01b038c168552603a83528185208b8652835290842060020154938c905291905260108101919091556011810184905560128101839055601301819055613a0f886144d6565b5f81815260396020908152604080832080546001909101546001600160a01b03909116808552603a8452828520828652909352908320600501549192909181906305f5e100811015613f3e57506305f5e1005b613f4c6305f5e10082614db9565b5f878152603960209081526040808320600601546001600160a01b038a168452603a83528184208985529092529091206003015491925090613f8e9083614dcc565b613f989190614dfb565b6001600160a01b0386165f908152603a60209081526040808320888452909152902060050154909150811115613fff576001600160a01b0385165f908152603a60209081526040808320878452909152902060050154613ff89082614da6565b9050614002565b505f5b6001600160a01b0385165f908152603a602090815260408083208784529091528120600201546305f5e100906140389084614dcc565b6140429190614dfb565b6001600160a01b0387165f908152603a60209081526040808320898452909152902060050154909150614076908290614dcc565b5f888152603960205260409020600c81015460089091015491945061409a91614dcc565b6140a49084614db9565b5f888152603960205260409020600c01549093506140c29082614db9565b6140cc9084614dfb565b6001600160a01b0387165f908152603a602090815260408083208984529091529020600281015460049091015491945061410591614dcc565b5f888152603960205260409020600c81015460079091015491955061412991614dcc565b6141339085614db9565b5f888152603960205260409020600c01549094506141519082614db9565b61415b9085614dfb565b5f88815260396020526040902060088101546007820154600c909201549296506305f5e10092909161418c91614dcc565b6141969190614dcc565b6141a09190614dfb565b5f8881526039602052604090206006810154600c909101546141c29190614dcc565b6141cc9190614db9565b5f888152603960208181526040808420600d810195909555600e85018490556001600160a01b038b168452603a82528084208a85528252832060010154928b905252600f820155600c01546142219082614db9565b5f88815260396020526040902060108101919091556006810154601182015560128101859055601301839055613d83876144d6565b5f6142618383611938565b9050805f036142a0575f838152603b6020526040812054614283906001614db9565b5f858152603b602052604090208190559050612b058484836149fd565b505050565b5f6142b08383611938565b5f848152603b602090815260408083208054808552600290910190925290912054919250906001600160a01b031682156135075781831015614302576142f7858285614a0f565b614302858285614a4b565b61430d855f84614a0f565b61431885855f614a4b565b8115613507576135078561432d600185614da6565b5f918252603b602052604090912055565b5f818152603960205260408120805460018201546004909201546001600160a01b039091169190839060ff16151581036143d4575f858152603960209081526040808320600b8101546001600160a01b0388168552603a8452828520878652909352922060038101546005820154915460068501546007909501549398506143cd9491939091908360016118af565b9050614432565b5f858152603960209081526040808320600c8101546001600160a01b0388168552603a84528285208786529093529220600381015460058201549154600685015460079095015493985061442f9491939091908360016116d4565b90505b610a1c8185614dcc565b5f818152603960208181526040808420805460018201546001600160a01b03909116808752603a8552838720828852855283872054968890529484526009909101548251878152938401529082018490529192907f8c75318cfd6a0eae2329289b6827fd382e7324865986be09126ce67fc55bedc29060600160405180910390a15f93845260396020526040909320600901929092555050565b5f81815260396020908152604091829020600d810154600e909101546033548451632192ab5d60e11b81529451929491936001600160a01b039091169263432556ba9260048082019392918290030181865afa158015614538573d5f803e3d5ffd5b505050506040513d601f19601f8201168201806040525081019061455c9190614e1a565b5f84815260396020526040908190205490516370a0823160e01b81526001600160a01b0391821660048201529116906370a0823190602401602060405180830381865afa1580156145af573d5f803e3d5ffd5b505050506040513d601f19601f820116820180604052508101906145d39190614eab565b6145dd9190614db9565b101561463b5760405162461bcd60e51b815260206004820152602760248201527f4d6f72706865725472616465456e67696e653a20696e73756666696369656e7460448201526610333ab732399760c91b6064820152608401610bc0565b614644816117ef565b505f818152603960205260409020600d810154600e9091015411156146a6575f818152603960205260408120600d810154600e90910180549192909161468b908490614da6565b90915550505f818152603960205260408120600d01556146e5565b5f818152603960205260408120600e810154600d9091018054919290916146ce908490614da6565b90915550505f818152603960205260408120600e01555b5f818152603960205260409020600e0154156147e65760335f9054906101000a90046001600160a01b03166001600160a01b031663af6976c36040518163ffffffff1660e01b8152600401602060405180830381865afa15801561474b573d5f803e3d5ffd5b505050506040513d601f19601f8201168201806040525081019061476f9190614e1a565b5f82815260396020526040908190208054600e9091015491516340c10f1960e01b81526001600160a01b039182166004820152602481019290925291909116906340c10f19906044015f604051808303815f87803b1580156147cf575f80fd5b505af11580156147e1573d5f803e3d5ffd5b505050505b5f818152603960205260409020600d0154156148e75760335f9054906101000a90046001600160a01b03166001600160a01b031663432556ba6040518163ffffffff1660e01b8152600401602060405180830381865afa15801561484c573d5f803e3d5ffd5b505050506040513d601f19601f820116820180604052508101906148709190614e1a565b5f82815260396020526040908190208054600d909101549151632770a7eb60e21b81526001600160a01b03918216600482015260248101929092529190911690639dc29fac906044015f604051808303815f87803b1580156148d0575f80fd5b505af11580156148e2573d5f803e3d5ffd5b505050505b5f818152603960205260409020805460018201546009830154600f8401546010850154601186015460128701546013880154601490980154614935986001600160a01b039098169790613674565b5f81815260396020908152604091829020805460018201546009830154600f84015460108501546011860154601287015460138801546014890154600e8a0154600d909a01548c516001600160a01b03909a168a529a890197909752998701949094526060860192909252608085015260a084015260c083015260e08201949094526101008101939093526101208301526101408201527f39cf7e0047b8651259e011d0b3ed8fc2c3dc2e49ed041f1651f06429698c1c94906101600160405180910390a150565b614a08838383614a4b565b6142a08383835b5f928352603b602090815260408085209285526002909201905290912080546001600160a01b0319166001600160a01b03909216919091179055565b5f928352603b602090815260408085206001600160a01b03909416855260019093019052912055565b6040518061010001604052805f81526020015f81526020015f81526020015f81526020015f81526020015f81526020015f81526020015f80191681525090565b5f60208284031215614ac4575f80fd5b5035919050565b6001600160a01b0381168114612b48575f80fd5b5f8060408385031215614af0575f80fd5b8235614afb81614acb565b946020939093013593505050565b5f8060408385031215614b1a575f80fd5b50508035926020909101359150565b5f805f805f60a08688031215614b3d575f80fd5b505083359560208501359550604085013594606081013594506080013592509050565b8015158114612b48575f80fd5b5f805f805f805f60e0888a031215614b83575f80fd5b873596506020880135955060408801359450606088013593506080880135925060a0880135915060c0880135614bb881614b60565b8091505092959891949750929550565b5f8060408385031215614bd9575f80fd5b823591506020830135614beb81614acb565b809150509250929050565b5f805f60608486031215614c08575f80fd5b505081359360208301359350604090920135919050565b5f805f805f805f805f6101208a8c031215614c38575f80fd5b8935614c4381614acb565b9b60208b01359b5060408b01359a60608101359a506080810135995060a0810135985060c0810135975060e081013596506101000135945092505050565b5f805f8060808587031215614c94575f80fd5b84359350602085013592506040850135614cad81614b60565b9396929550929360600135925050565b5f60208284031215614ccd575f80fd5b8135614cd881614acb565b9392505050565b5f805f805f8060c08789031215614cf4575f80fd5b8635614cff81614acb565b95506020870135945060408701359350606087013592506080870135614d2481614b60565b8092505060a087013590509295509295509295565b5f60208284031215614d49575f80fd5b8135614cd881614b60565b5f805f60608486031215614d66575f80fd5b8335614d7181614acb565b92506020840135614d8181614b60565b929592945050506040919091013590565b634e487b7160e01b5f52601160045260245ffd5b81810381811115610aaa57610aaa614d92565b80820180821115610aaa57610aaa614d92565b8082028115828204841417610aaa57610aaa614d92565b5f60018201614df457614df4614d92565b5060010190565b5f82614e1557634e487b7160e01b5f52601260045260245ffd5b500490565b5f60208284031215614e2a575f80fd5b8151614cd881614acb565b5f60208284031215614e45575f80fd5b8151614cd881614b60565b60208082526026908201527f4d6f72706865725472616465456e67696e653a205065726d697373696f6e206460408201526532b734b2b21760d11b606082015260800190565b5f81614ea457614ea4614d92565b505f190190565b5f60208284031215614ebb575f80fd5b5051919050565b6020808252605f908201527f4d6f72706865725472616465456e67696e653a2043616e27742070617274696160408201527f6c6c7920636c6f7365206120706f736974696f6e20616e64206f70656e20616e60608201527f6f74686572206f6e6520696e206f70706f7369746520646972656374696f6e00608082015260a00190565b6020808252604a908201527f4d6f72706865725472616465456e67696e653a2044656163746976617465642060408201527f6d61726b6574206f72646572206e6565647320616c6c2073686172657320746f6060820152690818994818db1bdcd95960b21b608082015260a00190565b6020808252602e908201527f496e697469616c697a61626c653a20636f6e747261637420697320616c72656160408201526d191e481a5b9a5d1a585b1a5e995960921b60608201526080019056fe68e79a7bf1e0bc45d0a330c573bc367f9cf464fd326078812f301165fbda4ef1e5a0b4d50f56047f84728557fedbda92f956391bc9d5c762e8461996dd8e7ad7a26469706673582212209a3d133b73ea175ab89f95f0e608c9292831f261397ce4eaebf4a4d7274631ad64736f6c63430008140033",
  "immutableReferences": {},
  "source": "//SPDX-License-Identifier: GPLv3\r\npragma solidity ^0.8.11;\r\n\r\nimport \"@openzeppelin/contracts-upgradeable/proxy/utils/Initializable.sol\";\r\nimport \"@openzeppelin/contracts-upgradeable/utils/ContextUpgradeable.sol\";\r\n\r\nimport \"./MorpherState.sol\";\r\nimport \"./MorpherToken.sol\";\r\nimport \"./MorpherStaking.sol\";\r\nimport \"./MorpherUserBlocking.sol\";\r\nimport \"./MorpherMintingLimiter.sol\";\r\nimport \"./MorpherAccessControl.sol\";\r\n\r\n// ----------------------------------------------------------------------------------\r\n// Tradeengine of the Morpher platform\r\n// Creates and processes orders, and computes the state change of portfolio.\r\n// Needs writing/reading access to/from Morpher State. Order objects are stored locally,\r\n// portfolios are stored in state.\r\n// ----------------------------------------------------------------------------------\r\n\r\ncontract MorpherTradeEngine is Initializable, ContextUpgradeable {\r\n    MorpherState public morpherState;\r\n\r\n    /**\r\n     * Known Roles to Trade Engine\r\n     */\r\n    \r\n    bytes32 public constant ADMINISTRATOR_ROLE = keccak256(\"ADMINISTRATOR_ROLE\");\r\n    bytes32 public constant ORACLE_ROLE = keccak256(\"ORACLE_ROLE\");\r\n    bytes32 public constant POSITIONADMIN_ROLE = keccak256(\"POSITIONADMIN_ROLE\"); //can set and modify positions\r\n\r\n// ----------------------------------------------------------------------------\r\n// Precision of prices and leverage\r\n// ----------------------------------------------------------------------------\r\n    uint256 constant PRECISION = 10**8;\r\n    uint256 public orderNonce;\r\n    bytes32 public lastOrderId;\r\n    uint256 public deployedTimeStamp;\r\n\r\n    bool public escrowOpenOrderEnabled;\r\n\r\n    \r\n    struct InterestRate {\r\n        uint256 validFrom;\r\n        uint256 rate;\r\n    }\r\n\r\n\r\n    struct PriceLock {\r\n        uint lockedPrice;\r\n    }\r\n    //we're locking positions in for this price at a market marketId;\r\n    mapping(bytes32 => PriceLock) public priceLockDeactivatedMarket;\r\n\r\n\r\n// ----------------------------------------------------------------------------\r\n// Order struct contains all order specific varibles. Variables are completed\r\n// during processing of trade. State changes are saved in the order struct as\r\n// well, since local variables would lead to stack to deep errors *sigh*.\r\n// ----------------------------------------------------------------------------\r\n    struct order {\r\n        address userId;\r\n        bytes32 marketId;\r\n        uint256 closeSharesAmount;\r\n        uint256 openMPHTokenAmount;\r\n        bool tradeDirection; // true = long, false = short\r\n        uint256 liquidationTimestamp;\r\n        uint256 marketPrice;\r\n        uint256 marketSpread;\r\n        uint256 orderLeverage;\r\n        uint256 timeStamp;\r\n        uint256 orderEscrowAmount;\r\n        OrderModifier modifyPosition;\r\n    }\r\n\r\n    struct OrderModifier {\r\n        uint256 longSharesOrder;\r\n        uint256 shortSharesOrder;\r\n        uint256 balanceDown;\r\n        uint256 balanceUp;\r\n        uint256 newLongShares;\r\n        uint256 newShortShares;\r\n        uint256 newMeanEntryPrice;\r\n        uint256 newMeanEntrySpread;\r\n        uint256 newMeanEntryLeverage;\r\n        uint256 newLiquidationPrice;\r\n    }\r\n\r\n\r\n    mapping(bytes32 => order) public orders;\r\n\r\n     // ----------------------------------------------------------------------------\r\n    // Position struct records virtual futures\r\n    // ----------------------------------------------------------------------------\r\n    struct position {\r\n        uint256 lastUpdated;\r\n        uint256 longShares;\r\n        uint256 shortShares;\r\n        uint256 meanEntryPrice;\r\n        uint256 meanEntrySpread;\r\n        uint256 meanEntryLeverage;\r\n        uint256 liquidationPrice;\r\n        bytes32 positionHash;\r\n    }\r\n\r\n    // ----------------------------------------------------------------------------\r\n    // A portfolio is an address specific collection of postions\r\n    // ----------------------------------------------------------------------------\r\n    mapping(address => mapping(bytes32 => position)) public portfolio;\r\n\r\n    // ----------------------------------------------------------------------------\r\n    // Record all addresses that hold a position of a market, needed for clean stock splits\r\n    // ----------------------------------------------------------------------------\r\n    struct hasExposure {\r\n        uint256 maxMappingIndex;\r\n        mapping(address => uint256) index;\r\n        mapping(uint256 => address) addy;\r\n    }\r\n\r\n    mapping(bytes32 => hasExposure) public exposureByMarket;\r\n\r\n    \r\n    mapping(uint256 => InterestRate) public interestRates;\r\n    uint256 public numInterestRates;\r\n\r\n\r\n// ----------------------------------------------------------------------------\r\n// Events\r\n// Order created/processed events are fired by MorpherOracle.\r\n// ----------------------------------------------------------------------------\r\n\r\n    event PositionLiquidated(\r\n        address indexed _address,\r\n        bytes32 indexed _marketId,\r\n        bool _longPosition,\r\n        uint256 _timeStamp,\r\n        uint256 _marketPrice,\r\n        uint256 _marketSpread\r\n    );\r\n\r\n    event OrderCancelled(\r\n        bytes32 indexed _orderId,\r\n        address indexed _address\r\n    );\r\n\r\n    event OrderIdRequested(\r\n        bytes32 _orderId,\r\n        address indexed _address,\r\n        bytes32 indexed _marketId,\r\n        uint256 _closeSharesAmount,\r\n        uint256 _openMPHTokenAmount,\r\n        bool _tradeDirection,\r\n        uint256 _orderLeverage\r\n    );\r\n\r\n    event OrderProcessed(\r\n        bytes32 _orderId,\r\n        uint256 _marketPrice,\r\n        uint256 _marketSpread,\r\n        uint256 _liquidationTimestamp,\r\n        uint256 _timeStamp,\r\n        uint256 _newLongShares,\r\n        uint256 _newShortShares,\r\n        uint256 _newAverageEntry,\r\n        uint256 _newAverageSpread,\r\n        uint256 _newAverageLeverage,\r\n        uint256 _liquidationPrice\r\n    );\r\n\r\n    event PositionUpdated(\r\n        address _userId,\r\n        bytes32 _marketId,\r\n        uint256 _timeStamp,\r\n        uint256 _newLongShares,\r\n        uint256 _newShortShares,\r\n        uint256 _newMeanEntryPrice,\r\n        uint256 _newMeanEntrySpread,\r\n        uint256 _newMeanEntryLeverage,\r\n        uint256 _newLiquidationPrice,\r\n        uint256 _mint,\r\n        uint256 _burn\r\n    );\r\n\r\n    event SetPosition(\r\n        bytes32 indexed positionHash,\r\n        address indexed sender,\r\n        bytes32 indexed marketId,\r\n        uint256 timeStamp,\r\n        uint256 longShares,\r\n        uint256 shortShares,\r\n        uint256 meanEntryPrice,\r\n        uint256 meanEntrySpread,\r\n        uint256 meanEntryLeverage,\r\n        uint256 liquidationPrice\r\n    );\r\n\r\n    \r\n    event EscrowPaid(bytes32 orderId, address user, uint escrowAmount);\r\n    event EscrowReturned(bytes32 orderId, address user, uint escrowAmount);\r\n\r\n    event LinkState(address _address);\r\n    \r\n    event LockedPriceForClosingPositions(bytes32 _marketId, uint256 _price);\r\n\r\n    event SetLeverageInterestRate(uint256 newInterestRate);\r\n    event LeverageInterestRateAdded(uint256 interestRate, uint256 validFromTimestamp);\r\n\r\n    function initialize(address _stateAddress, bool _escrowOpenOrderEnabled, uint256 _deployedTimestampOverride) public initializer {\r\n        ContextUpgradeable.__Context_init();\r\n\r\n        morpherState = MorpherState(_stateAddress);\r\n        escrowOpenOrderEnabled = _escrowOpenOrderEnabled;\r\n        deployedTimeStamp = _deployedTimestampOverride > 0 ? _deployedTimestampOverride : block.timestamp;\r\n    }\r\n\r\n    modifier onlyRole(bytes32 role) {\r\n        require(MorpherAccessControl(morpherState.morpherAccessControlAddress()).hasRole(role, _msgSender()), \"MorpherTradeEngine: Permission denied.\");\r\n        _;\r\n    }\r\n\r\n\r\n// ----------------------------------------------------------------------------\r\n// Administrative functions\r\n// Set state address, get administrator address\r\n// ----------------------------------------------------------------------------\r\n\r\n    function setMorpherState(address _stateAddress) public onlyRole(ADMINISTRATOR_ROLE) {\r\n        morpherState = MorpherState(_stateAddress);\r\n        emit LinkState(_stateAddress);\r\n    }\r\n\r\n    function setEscrowOpenOrderEnabled(bool _isEnabled) public onlyRole(ADMINISTRATOR_ROLE) {\r\n        escrowOpenOrderEnabled = _isEnabled;\r\n    }\r\n\r\n    /**\r\n    Interest rate\r\n     */\r\n    function setLeverageInterestRate(uint256 _interestRate) public onlyRole(ADMINISTRATOR_ROLE) {\r\n        addInterestRate(_interestRate, block.timestamp);\r\n    }\r\n\r\n    /**\r\n        fallback function in case the old tradeengine asks for the current interest rate\r\n    */\r\n    function interestRate() public view returns (uint256) {\r\n        //start with the last one, as its most likely the last active one, no need to run through the whole map\r\n        if(numInterestRates == 0) {\r\n            return 0;\r\n        }\r\n        for(uint256 i = numInterestRates - 1; i >= 0; i--) {\r\n            if(interestRates[i].validFrom <= block.timestamp) {\r\n                return interestRates[i].rate;\r\n            }\r\n        }\r\n        return 0;\r\n    }\r\n\r\n    function addInterestRate(uint _rate, uint _validFrom) public onlyRole(ADMINISTRATOR_ROLE) {\r\n        require(numInterestRates == 0 || interestRates[numInterestRates-1].validFrom < _validFrom, \"MorpherTradeEngine: Interest Rate Valid From must be later than last interestRate\");\r\n        require(_rate <= 100000000, \"MorpherTradeEngine: Interest Rate cannot be larger than 100%\");\r\n        require(_validFrom - 365 days <= block.timestamp, \"MorpherTradeEngine: Interest Rate cannot start more than 1 year into the future\");\r\n        //omitting rate sanity checks here. It should always be smaller than 100% (100000000) but I'll leave that to the common sense of the admin.\r\n        interestRates[numInterestRates].validFrom = _validFrom;\r\n        interestRates[numInterestRates].rate = _rate;\r\n        numInterestRates++;\r\n        emit LeverageInterestRateAdded(_rate, _validFrom);\r\n    }\r\n\r\n     function getInterestRate(uint256 _positionTimestamp) public view returns(uint256) {\r\n        uint256 sumInterestRatesWeighted = 0;\r\n        uint256 startingTimestamp = 0;\r\n        \r\n        for(uint256 i = 0; i < numInterestRates; i++) {\r\n            if(i == numInterestRates-1 || interestRates[i+1].validFrom > block.timestamp) {\r\n                //reached last interest rate\r\n                sumInterestRatesWeighted = sumInterestRatesWeighted + (interestRates[i].rate * (block.timestamp - interestRates[i].validFrom));\r\n                if(startingTimestamp == 0) {\r\n                    startingTimestamp = interestRates[i].validFrom;\r\n                }\r\n                break; //in case there are more in the future\r\n            } else {\r\n                //only take interest rates after the position was created\r\n                if(interestRates[i+1].validFrom > _positionTimestamp) {\r\n                    sumInterestRatesWeighted = sumInterestRatesWeighted + (interestRates[i].rate * (interestRates[i+1].validFrom - interestRates[i].validFrom));\r\n                    if(interestRates[i].validFrom <= _positionTimestamp) {\r\n                        startingTimestamp = interestRates[i].validFrom;\r\n                    }\r\n                }\r\n            } \r\n        }\r\n        uint interestRateInternal = sumInterestRatesWeighted / (block.timestamp - startingTimestamp);\r\n        return interestRateInternal;\r\n    }\r\n    \r\n    function paybackEscrow(bytes32 _orderId) private {\r\n        //pay back the escrow to the user so he has it back on his balance/**\r\n        if(orders[_orderId].orderEscrowAmount > 0) {\r\n            //checks effects interaction\r\n            uint256 paybackAmount = orders[_orderId].orderEscrowAmount;\r\n            orders[_orderId].orderEscrowAmount = 0;\r\n            MorpherToken(morpherState.morpherTokenAddress()).mint(orders[_orderId].userId, paybackAmount);\r\n            emit EscrowReturned(_orderId, orders[_orderId].userId, paybackAmount);\r\n        }\r\n    }\r\n\r\n    function buildupEscrow(bytes32 _orderId, uint256 _amountInMPH) private {\r\n        if(escrowOpenOrderEnabled && _amountInMPH > 0) {\r\n            MorpherToken(morpherState.morpherTokenAddress()).burn(orders[_orderId].userId, _amountInMPH);\r\n            emit EscrowPaid(_orderId, orders[_orderId].userId, _amountInMPH);\r\n            orders[_orderId].orderEscrowAmount = _amountInMPH;\r\n        }\r\n    }\r\n\r\n\r\n    function validateClosedMarketOrderConditions(address _address, bytes32 _marketId, uint256 _closeSharesAmount, uint256 _openMPHTokenAmount, bool _tradeDirection ) internal view {\r\n        //markets active? Still tradeable?\r\n        if(_openMPHTokenAmount > 0) {\r\n            require(morpherState.getMarketActive(_marketId) == true, \"MorpherTradeEngine: market unknown or currently not enabled for trading.\");\r\n        } else {\r\n            //we're just closing a position, but it needs a forever price locked in if market is not active\r\n            //the user needs to close his complete position\r\n            if(morpherState.getMarketActive(_marketId) == false) {\r\n                require(getDeactivatedMarketPrice(_marketId) > 0, \"MorpherTradeEngine: Can't close a position, market not active and closing price not locked\");\r\n                if(_tradeDirection) {\r\n                    //long\r\n                    require(_closeSharesAmount == portfolio[_address][_marketId].longShares, \"MorpherTradeEngine: Deactivated market order needs all shares to be closed\");\r\n                } else {\r\n                    //short\r\n                    require(_closeSharesAmount == portfolio[_address][_marketId].longShares, \"MorpherTradeEngine: Deactivated market order needs all shares to be closed\");\r\n                }\r\n            }\r\n        }\r\n    }\r\n\r\n    //wrapper for stack too deep errors\r\n    function validateClosedMarketOrder(bytes32 _orderId) internal view {\r\n         validateClosedMarketOrderConditions(orders[_orderId].userId, orders[_orderId].marketId, orders[_orderId].closeSharesAmount, orders[_orderId].openMPHTokenAmount, orders[_orderId].tradeDirection);\r\n    }\r\n\r\n// ----------------------------------------------------------------------------\r\n// requestOrderId(address _address, bytes32 _marketId, bool _closeSharesAmount, uint256 _openMPHTokenAmount, bool _tradeDirection, uint256 _orderLeverage)\r\n// Creates a new order object with unique orderId and assigns order information.\r\n// Must be called by MorpherOracle contract.\r\n// ----------------------------------------------------------------------------\r\n\r\n    function requestOrderId(\r\n        address _address,\r\n        bytes32 _marketId,\r\n        uint256 _closeSharesAmount,\r\n        uint256 _openMPHTokenAmount,\r\n        bool _tradeDirection,\r\n        uint256 _orderLeverage\r\n        ) public onlyRole(ORACLE_ROLE) returns (bytes32 _orderId) {\r\n            \r\n        require(_orderLeverage >= PRECISION, \"MorpherTradeEngine: leverage too small. Leverage precision is 1e8\");\r\n        require(_orderLeverage <= morpherState.getMaximumLeverage(), \"MorpherTradeEngine: leverage exceeds maximum allowed leverage.\");\r\n\r\n        validateClosedMarketOrderConditions(_address, _marketId, _closeSharesAmount, _openMPHTokenAmount, _tradeDirection);\r\n\r\n        //request limits\r\n        //@todo: fix request limit: 3 requests per block\r\n\r\n        /**\r\n         * The user can't partially close a position and open another one with MPH\r\n         */\r\n        if(_openMPHTokenAmount > 0) {\r\n\r\n            if(_tradeDirection) {\r\n                //long\r\n                require(_closeSharesAmount == portfolio[_address][_marketId].shortShares, \"MorpherTradeEngine: Can't partially close a position and open another one in opposite direction\");\r\n            } else {\r\n                //short\r\n                require(_closeSharesAmount == portfolio[_address][_marketId].longShares, \"MorpherTradeEngine: Can't partially close a position and open another one in opposite direction\");\r\n            }\r\n        }\r\n\r\n        orderNonce++;\r\n        _orderId = keccak256(\r\n            abi.encodePacked(\r\n                _address,\r\n                block.number,\r\n                _marketId,\r\n                _closeSharesAmount,\r\n                _openMPHTokenAmount,\r\n                _tradeDirection,\r\n                _orderLeverage,\r\n                orderNonce\r\n                )\r\n            );\r\n        lastOrderId = _orderId;\r\n        orders[_orderId].userId = _address;\r\n        orders[_orderId].marketId = _marketId;\r\n        orders[_orderId].closeSharesAmount = _closeSharesAmount;\r\n        orders[_orderId].openMPHTokenAmount = _openMPHTokenAmount;\r\n        orders[_orderId].tradeDirection = _tradeDirection;\r\n        orders[_orderId].orderLeverage = _orderLeverage;\r\n        emit OrderIdRequested(\r\n            _orderId,\r\n            _address,\r\n            _marketId,\r\n            _closeSharesAmount,\r\n            _openMPHTokenAmount,\r\n            _tradeDirection,\r\n            _orderLeverage\r\n        );\r\n\r\n        /**\r\n         * put the money in escrow here if given MPH to open an order\r\n         * - also, can only close positions if in shares, so it will\r\n         * definitely trigger a mint there.\r\n         * The money must be put in escrow even though we have an existing position\r\n         */\r\n        buildupEscrow(_orderId, _openMPHTokenAmount);\r\n\r\n        return _orderId;\r\n    }\r\n\r\n// ----------------------------------------------------------------------------\r\n// Getter functions for orders, shares, and positions\r\n// ----------------------------------------------------------------------------\r\n\r\n    function getOrder(bytes32 _orderId) public view returns (\r\n        address _userId,\r\n        bytes32 _marketId,\r\n        uint256 _closeSharesAmount,\r\n        uint256 _openMPHTokenAmount,\r\n        uint256 _marketPrice,\r\n        uint256 _marketSpread,\r\n        uint256 _orderLeverage\r\n        ) {\r\n        return(\r\n            orders[_orderId].userId,\r\n            orders[_orderId].marketId,\r\n            orders[_orderId].closeSharesAmount,\r\n            orders[_orderId].openMPHTokenAmount,\r\n            orders[_orderId].marketPrice,\r\n            orders[_orderId].marketSpread,\r\n            orders[_orderId].orderLeverage\r\n            );\r\n    }\r\n\r\n    function setDeactivatedMarketPrice(bytes32 _marketId, uint256 _price) public onlyRole(ADMINISTRATOR_ROLE) {\r\n         priceLockDeactivatedMarket[_marketId].lockedPrice = _price;\r\n        emit LockedPriceForClosingPositions(_marketId, _price);\r\n\r\n    }\r\n\r\n    function getDeactivatedMarketPrice(bytes32 _marketId) public view returns(uint256) {\r\n        return priceLockDeactivatedMarket[_marketId].lockedPrice;\r\n    }\r\n\r\n// ----------------------------------------------------------------------------\r\n// liquidate(bytes32 _orderId)\r\n// Checks for bankruptcy of position between its last update and now\r\n// Time check is necessary to avoid two consecutive / unorderded liquidations\r\n// ----------------------------------------------------------------------------\r\n\r\n    function liquidate(bytes32 _orderId) private {\r\n        address _address = orders[_orderId].userId;\r\n        bytes32 _marketId = orders[_orderId].marketId;\r\n        uint256 _liquidationTimestamp = orders[_orderId].liquidationTimestamp;\r\n        if (_liquidationTimestamp > portfolio[_address][ _marketId].lastUpdated) {\r\n            if (portfolio[_address][_marketId].longShares > 0) {\r\n                setPosition(\r\n                    _address,\r\n                    _marketId,\r\n                    orders[_orderId].timeStamp,\r\n                    0,\r\n                    portfolio[_address][ _marketId].shortShares,\r\n                    0,\r\n                    0,\r\n                    PRECISION,\r\n                    0);\r\n                emit PositionLiquidated(\r\n                    _address,\r\n                    _marketId,\r\n                    true,\r\n                    orders[_orderId].timeStamp,\r\n                    orders[_orderId].marketPrice,\r\n                    orders[_orderId].marketSpread\r\n                );\r\n            }\r\n            if (portfolio[_address][_marketId].shortShares > 0) {\r\n                setPosition(\r\n                    _address,\r\n                    _marketId,\r\n                    orders[_orderId].timeStamp,\r\n                    portfolio[_address][_marketId].longShares,\r\n                    0,\r\n                    0,\r\n                    0,\r\n                    PRECISION,\r\n                    0\r\n                );\r\n                emit PositionLiquidated(\r\n                    _address,\r\n                    _marketId,\r\n                    false,\r\n                    orders[_orderId].timeStamp,\r\n                    orders[_orderId].marketPrice,\r\n                    orders[_orderId].marketSpread\r\n                );\r\n            }\r\n        }\r\n    }\r\n\r\n// ----------------------------------------------------------------------------\r\n// processOrder(bytes32 _orderId, uint256 _marketPrice, uint256 _marketSpread, uint256 _liquidationTimestamp, uint256 _timeStamp)\r\n// ProcessOrder receives the price/spread/liqidation information from the Oracle and\r\n// triggers the processing of the order. If successful, processOrder updates the portfolio state.\r\n// Liquidation time check is necessary to avoid two consecutive / unorderded liquidations\r\n// ----------------------------------------------------------------------------\r\n\r\n    function processOrder(\r\n        bytes32 _orderId,\r\n        uint256 _marketPrice,\r\n        uint256 _marketSpread,\r\n        uint256 _liquidationTimestamp,\r\n        uint256 _timeStampInMS\r\n        ) public onlyRole(ORACLE_ROLE) returns (position memory) {\r\n        require(orders[_orderId].userId != address(0), \"MorpherTradeEngine: unable to process, order has been deleted.\");\r\n        require(_marketPrice > 0, \"MorpherTradeEngine: market priced at zero. Buy order cannot be processed.\");\r\n        require(_marketPrice >= _marketSpread, \"MorpherTradeEngine: market price lower then market spread. Order cannot be processed.\");\r\n        \r\n        orders[_orderId].marketPrice = _marketPrice;\r\n        orders[_orderId].marketSpread = _marketSpread;\r\n        orders[_orderId].timeStamp = _timeStampInMS;\r\n        orders[_orderId].liquidationTimestamp = _liquidationTimestamp;\r\n        \r\n        /**\r\n        * If the market is deactivated, then override the price with the locked in market price\r\n        * if the price wasn't locked in: error out.\r\n        */\r\n        if(morpherState.getMarketActive(orders[_orderId].marketId) == false) {\r\n            validateClosedMarketOrder(_orderId);\r\n            orders[_orderId].marketPrice = getDeactivatedMarketPrice(orders[_orderId].marketId);\r\n        }\r\n        \r\n        // Check if previous position on that market was liquidated\r\n        if (_liquidationTimestamp > portfolio[orders[_orderId].userId][ orders[_orderId].marketId].lastUpdated) {\r\n            liquidate(_orderId);\r\n        } else {\r\n            require(!MorpherUserBlocking(morpherState.morpherUserBlockingAddress()).userIsBlocked(orders[_orderId].userId), \"MorpherTradeEngine: User is blocked from Trading\");\r\n        }\r\n    \r\n\r\n        paybackEscrow(_orderId);\r\n\r\n        if (orders[_orderId].tradeDirection) {\r\n            processBuyOrder(_orderId);\r\n        } else {\r\n            processSellOrder(_orderId);\r\n        }\r\n\r\n        address _address = orders[_orderId].userId;\r\n        bytes32 _marketId = orders[_orderId].marketId;\r\n        delete orders[_orderId];\r\n        emit OrderProcessed(\r\n            _orderId,\r\n            _marketPrice,\r\n            _marketSpread,\r\n            _liquidationTimestamp,\r\n            _timeStampInMS,\r\n            portfolio[_address][_marketId].longShares,\r\n            portfolio[_address][_marketId].shortShares,\r\n            portfolio[_address][_marketId].meanEntryPrice,\r\n            portfolio[_address][_marketId].meanEntrySpread,\r\n            portfolio[_address][_marketId].meanEntryLeverage,\r\n            portfolio[_address][_marketId].liquidationPrice\r\n        );\r\n\r\n        return portfolio[_address][_marketId];\r\n    }\r\n\r\n// ----------------------------------------------------------------------------\r\n// function cancelOrder(bytes32 _orderId, address _address)\r\n// Users or Administrator can delete pending orders before the callback went through\r\n// ----------------------------------------------------------------------------\r\n    function cancelOrder(bytes32 _orderId, address _address) public onlyRole(ORACLE_ROLE) {\r\n        require(_address == orders[_orderId].userId || MorpherAccessControl(morpherState.morpherAccessControlAddress()).hasRole(ADMINISTRATOR_ROLE, _address), \"MorpherTradeEngine: only Administrator or user can cancel an order.\");\r\n        require(orders[_orderId].userId != address(0), \"MorpherTradeEngine: unable to process, order does not exist.\");\r\n\r\n        /**\r\n         * Pay back any escrow there\r\n         */\r\n        paybackEscrow(_orderId);\r\n\r\n        delete orders[_orderId];\r\n        emit OrderCancelled(_orderId, _address);\r\n    }\r\n\r\n// ----------------------------------------------------------------------------\r\n// shortShareValue / longShareValue compute the value of a virtual future\r\n// given current price/spread/leverage of the market and mean price/spread/leverage\r\n// at the beginning of the trade\r\n// ----------------------------------------------------------------------------\r\n    function shortShareValue(\r\n        uint256 _positionAveragePrice,\r\n        uint256 _positionAverageLeverage,\r\n        uint256 _positionTimeStampInMs,\r\n        uint256 _marketPrice,\r\n        uint256 _marketSpread,\r\n        uint256 _orderLeverage,\r\n        bool _sell\r\n        ) public view returns (uint256 _shareValue) {\r\n\r\n        uint256 _averagePrice = _positionAveragePrice;\r\n        uint256 _averageLeverage = _positionAverageLeverage;\r\n\r\n        if (_positionAverageLeverage < PRECISION) {\r\n            // Leverage can never be less than 1. Fail safe for empty positions, i.e. undefined _positionAverageLeverage\r\n            _averageLeverage = PRECISION;\r\n        }\r\n        if (_sell == false) {\r\n            // New short position\r\n            // It costs marketPrice + marketSpread to build up a new short position\r\n            _averagePrice = _marketPrice;\r\n\t        // This is the average Leverage\r\n\t        _averageLeverage = _orderLeverage;\r\n        }\r\n        if (\r\n            getLiquidationPrice(_averagePrice, _averageLeverage, false, _positionTimeStampInMs) <= _marketPrice\r\n            ) {\r\n\t        // Position is worthless\r\n            _shareValue = 0;\r\n        } else {\r\n            // The regular share value is 2x the entry price minus the current price for short positions.\r\n            _shareValue = _averagePrice * (PRECISION + _averageLeverage) / PRECISION;\r\n            _shareValue = _shareValue - _marketPrice * _averageLeverage / PRECISION;\r\n            if (_sell == true) {\r\n                // We have to reduce the share value by the average spread (i.e. the average expense to build up the position)\r\n                // and reduce the value further by the spread for selling.\r\n                _shareValue = _shareValue- _marketSpread * _averageLeverage / PRECISION;\r\n                uint256 _marginInterest = calculateMarginInterest(_averagePrice, _averageLeverage, _positionTimeStampInMs);\r\n                if (_marginInterest <= _shareValue) {\r\n                    _shareValue = _shareValue - (_marginInterest);\r\n                } else {\r\n                    _shareValue = 0;\r\n                }\r\n            } else {\r\n                // If a new short position is built up each share costs value + spread\r\n                _shareValue = _shareValue + (_marketSpread * (_orderLeverage) / (PRECISION));\r\n            }\r\n        }\r\n      \r\n        return _shareValue;\r\n    }\r\n\r\n    function longShareValue(\r\n        uint256 _positionAveragePrice,\r\n        uint256 _positionAverageLeverage,\r\n        uint256 _positionTimeStampInMs,\r\n        uint256 _marketPrice,\r\n        uint256 _marketSpread,\r\n        uint256 _orderLeverage,\r\n        bool _sell\r\n        ) public view returns (uint256 _shareValue) {\r\n\r\n        uint256 _averagePrice = _positionAveragePrice;\r\n        uint256 _averageLeverage = _positionAverageLeverage;\r\n\r\n        if (_positionAverageLeverage < PRECISION) {\r\n            // Leverage can never be less than 1. Fail safe for empty positions, i.e. undefined _positionAverageLeverage\r\n            _averageLeverage = PRECISION;\r\n        }\r\n        if (_sell == false) {\r\n            // New long position\r\n            // It costs marketPrice + marketSpread to build up a new long position\r\n            _averagePrice = _marketPrice;\r\n\t        // This is the average Leverage\r\n\t        _averageLeverage = _orderLeverage;\r\n        }\r\n        if (\r\n            _marketPrice <= getLiquidationPrice(_averagePrice, _averageLeverage, true, _positionTimeStampInMs)\r\n            ) {\r\n\t        // Position is worthless\r\n            _shareValue = 0;\r\n        } else {\r\n            _shareValue = _averagePrice * (_averageLeverage - PRECISION) / (PRECISION);\r\n            // The regular share value is market price times leverage minus entry price times entry leverage minus one.\r\n            _shareValue = (_marketPrice * _averageLeverage / PRECISION) - _shareValue;\r\n            if (_sell == true) {\r\n                // We sell a long and have to correct the shareValue with the averageSpread and the currentSpread for selling.\r\n                _shareValue = _shareValue - (_marketSpread * _averageLeverage / PRECISION);\r\n                \r\n                uint256 _marginInterest = calculateMarginInterest(_averagePrice, _averageLeverage, _positionTimeStampInMs);\r\n                if (_marginInterest <= _shareValue) {\r\n                    _shareValue = _shareValue - (_marginInterest);\r\n                } else {\r\n                    _shareValue = 0;\r\n                }\r\n            } else {\r\n                // We buy a new long position and have to pay the spread\r\n                _shareValue = _shareValue + (_marketSpread * (_orderLeverage) / (PRECISION));\r\n            }\r\n        }\r\n        return _shareValue;\r\n    }\r\n\r\n// ----------------------------------------------------------------------------\r\n// calculateMarginInterest(uint256 _averagePrice, uint256 _averageLeverage, uint256 _positionTimeStamp)\r\n// Calculates the interest for leveraged positions\r\n// ----------------------------------------------------------------------------\r\n\r\n\r\n    function calculateMarginInterest(uint256 _averagePrice, uint256 _averageLeverage, uint256 _positionTimeStampInMs) public view returns (uint256) {\r\n        uint _marginInterest;\r\n        if (_positionTimeStampInMs / 1000 < deployedTimeStamp) {\r\n            _positionTimeStampInMs = deployedTimeStamp / 1000;\r\n        }\r\n        _marginInterest = _averagePrice * (_averageLeverage - PRECISION);\r\n        _marginInterest = _marginInterest * (((block.timestamp - (_positionTimeStampInMs / 1000)) / 86400) + 1);\r\n        _marginInterest = ((_marginInterest * getInterestRate(_positionTimeStampInMs / 1000)) / PRECISION) / PRECISION;\r\n        return _marginInterest;\r\n    }\r\n\r\n// ----------------------------------------------------------------------------\r\n// processBuyOrder(bytes32 _orderId)\r\n// Converts orders specified in virtual shares to orders specified in Morpher token\r\n// and computes the number of short shares that are sold and long shares that are bought.\r\n// long shares are bought only if the order amount exceeds all open short positions\r\n// ----------------------------------------------------------------------------\r\n\r\n    function processBuyOrder(bytes32 _orderId) private {\r\n        if (orders[_orderId].closeSharesAmount > 0) {\r\n            //calcualte the balanceUp/down first\r\n            //then reopen the position with MPH amount\r\n\r\n             // Investment was specified in shares\r\n            if (orders[_orderId].closeSharesAmount <= portfolio[orders[_orderId].userId][ orders[_orderId].marketId].shortShares) {\r\n                // Partial closing of short position\r\n                orders[_orderId].modifyPosition.shortSharesOrder = orders[_orderId].closeSharesAmount;\r\n            } else {\r\n                // Closing of entire short position\r\n                orders[_orderId].modifyPosition.shortSharesOrder = portfolio[orders[_orderId].userId][ orders[_orderId].marketId].shortShares;\r\n            }\r\n        }\r\n\r\n        //calculate the long shares, but only if the old position is completely closed out (if none exist shortSharesOrder = 0)\r\n        if(\r\n            orders[_orderId].modifyPosition.shortSharesOrder == portfolio[orders[_orderId].userId][ orders[_orderId].marketId].shortShares && \r\n            orders[_orderId].openMPHTokenAmount > 0\r\n        ) {\r\n            orders[_orderId].modifyPosition.longSharesOrder = orders[_orderId].openMPHTokenAmount / (\r\n                longShareValue(\r\n                    orders[_orderId].marketPrice,\r\n                    orders[_orderId].orderLeverage,\r\n                    block.timestamp * (1000),\r\n                    orders[_orderId].marketPrice,\r\n                    orders[_orderId].marketSpread,\r\n                    orders[_orderId].orderLeverage,\r\n                    false\r\n            ));\r\n        }\r\n\r\n        // Investment equals number of shares now.\r\n        if (orders[_orderId].modifyPosition.shortSharesOrder > 0) {\r\n            closeShort(_orderId);\r\n        }\r\n        if (orders[_orderId].modifyPosition.longSharesOrder > 0) {\r\n            openLong(_orderId);\r\n        }\r\n    }\r\n\r\n// ----------------------------------------------------------------------------\r\n// processSellOrder(bytes32 _orderId)\r\n// Converts orders specified in virtual shares to orders specified in Morpher token\r\n// and computes the number of long shares that are sold and short shares that are bought.\r\n// short shares are bought only if the order amount exceeds all open long positions\r\n// ----------------------------------------------------------------------------\r\n\r\n    function processSellOrder(bytes32 _orderId) private {\r\n        if (orders[_orderId].closeSharesAmount > 0) {\r\n            //calcualte the balanceUp/down first\r\n            //then reopen the position with MPH amount\r\n\r\n            // Investment was specified in shares\r\n            if (orders[_orderId].closeSharesAmount <= portfolio[orders[_orderId].userId][ orders[_orderId].marketId].longShares) {\r\n                // Partial closing of long position\r\n                orders[_orderId].modifyPosition.longSharesOrder = orders[_orderId].closeSharesAmount;\r\n            } else {\r\n                // Closing of entire long position\r\n                orders[_orderId].modifyPosition.longSharesOrder = portfolio[orders[_orderId].userId][ orders[_orderId].marketId].longShares;\r\n            }\r\n        }\r\n\r\n        if(\r\n            orders[_orderId].modifyPosition.longSharesOrder == portfolio[orders[_orderId].userId][ orders[_orderId].marketId].longShares && \r\n            orders[_orderId].openMPHTokenAmount > 0\r\n        ) {\r\n        orders[_orderId].modifyPosition.shortSharesOrder = orders[_orderId].openMPHTokenAmount / (\r\n                    shortShareValue(\r\n                        orders[_orderId].marketPrice,\r\n                        orders[_orderId].orderLeverage,\r\n                        block.timestamp * (1000),\r\n                        orders[_orderId].marketPrice,\r\n                        orders[_orderId].marketSpread,\r\n                        orders[_orderId].orderLeverage,\r\n                        false\r\n                ));\r\n        }\r\n        // Investment equals number of shares now.\r\n        if (orders[_orderId].modifyPosition.longSharesOrder > 0) {\r\n            closeLong(_orderId);\r\n        }\r\n        if (orders[_orderId].modifyPosition.shortSharesOrder > 0) {\r\n            openShort(_orderId);\r\n        }\r\n    }\r\n\r\n// ----------------------------------------------------------------------------\r\n// openLong(bytes32 _orderId)\r\n// Opens a new long position and computes the new resulting average entry price/spread/leverage.\r\n// Computation is broken down to several instructions for readability.\r\n// ----------------------------------------------------------------------------\r\n    function openLong(bytes32 _orderId) private {\r\n        address _userId = orders[_orderId].userId;\r\n        bytes32 _marketId = orders[_orderId].marketId;\r\n\r\n        uint256 _newMeanSpread;\r\n        uint256 _newMeanLeverage;\r\n\r\n        // Existing position is virtually liquidated and reopened with current marketPrice\r\n        // orders[_orderId].modifyPosition.newMeanEntryPrice = orders[_orderId].marketPrice;\r\n        // _factorLongShares is a factor to adjust the existing longShares via virtual liqudiation and reopening at current market price\r\n\r\n        uint256 _factorLongShares = portfolio[_userId][ _marketId].meanEntryLeverage;\r\n        if (_factorLongShares < PRECISION) {\r\n            _factorLongShares = PRECISION;\r\n        }\r\n        _factorLongShares = _factorLongShares - (PRECISION);\r\n        _factorLongShares = _factorLongShares * (portfolio[_userId][ _marketId].meanEntryPrice) / (orders[_orderId].marketPrice);\r\n        if (portfolio[_userId][ _marketId].meanEntryLeverage > _factorLongShares) {\r\n            _factorLongShares = portfolio[_userId][ _marketId].meanEntryLeverage - (_factorLongShares);\r\n        } else {\r\n            _factorLongShares = 0;\r\n        }\r\n\r\n        uint256 _adjustedLongShares = _factorLongShares * (portfolio[_userId][ _marketId].longShares) / (PRECISION);\r\n\r\n        // _newMeanLeverage is the weighted leverage of the existing position and the new position\r\n        _newMeanLeverage = portfolio[_userId][ _marketId].meanEntryLeverage * (_adjustedLongShares);\r\n        _newMeanLeverage = _newMeanLeverage + (orders[_orderId].orderLeverage * (orders[_orderId].modifyPosition.longSharesOrder));\r\n        _newMeanLeverage = _newMeanLeverage / (_adjustedLongShares + (orders[_orderId].modifyPosition.longSharesOrder));\r\n\r\n        // _newMeanSpread is the weighted spread of the existing position and the new position\r\n        _newMeanSpread = portfolio[_userId][ _marketId].meanEntrySpread * (portfolio[_userId][ _marketId].longShares);\r\n        _newMeanSpread = _newMeanSpread + (orders[_orderId].marketSpread * (orders[_orderId].modifyPosition.longSharesOrder));\r\n        _newMeanSpread = _newMeanSpread / (_adjustedLongShares + (orders[_orderId].modifyPosition.longSharesOrder));\r\n\r\n        orders[_orderId].modifyPosition.balanceDown = orders[_orderId].modifyPosition.longSharesOrder * (orders[_orderId].marketPrice) + (\r\n            orders[_orderId].modifyPosition.longSharesOrder * (orders[_orderId].marketSpread) * (orders[_orderId].orderLeverage) / (PRECISION)\r\n        );\r\n        orders[_orderId].modifyPosition.balanceUp = 0;\r\n        orders[_orderId].modifyPosition.newLongShares = _adjustedLongShares + (orders[_orderId].modifyPosition.longSharesOrder);\r\n        orders[_orderId].modifyPosition.newShortShares = portfolio[_userId][ _marketId].shortShares;\r\n        orders[_orderId].modifyPosition.newMeanEntryPrice = orders[_orderId].marketPrice;\r\n        orders[_orderId].modifyPosition.newMeanEntrySpread = _newMeanSpread;\r\n        orders[_orderId].modifyPosition.newMeanEntryLeverage = _newMeanLeverage;\r\n\r\n        setPositionInState(_orderId);\r\n    }\r\n// ----------------------------------------------------------------------------\r\n// closeLong(bytes32 _orderId)\r\n// Closes an existing long position. Average entry price/spread/leverage do not change.\r\n// ----------------------------------------------------------------------------\r\n     function closeLong(bytes32 _orderId) private {\r\n        address _userId = orders[_orderId].userId;\r\n        bytes32 _marketId = orders[_orderId].marketId;\r\n        uint256 _newLongShares  = portfolio[_userId][ _marketId].longShares - (orders[_orderId].modifyPosition.longSharesOrder);\r\n        uint256 _balanceUp = calculateBalanceUp(_orderId);\r\n        uint256 _newMeanEntry;\r\n        uint256 _newMeanSpread;\r\n        uint256 _newMeanLeverage;\r\n\r\n        if (orders[_orderId].modifyPosition.longSharesOrder == portfolio[_userId][ _marketId].longShares) {\r\n            _newMeanEntry = 0;\r\n            _newMeanSpread = 0;\r\n            _newMeanLeverage = PRECISION;\r\n        } else {\r\n            _newMeanEntry = portfolio[_userId][ _marketId].meanEntryPrice;\r\n\t        _newMeanSpread = portfolio[_userId][ _marketId].meanEntrySpread;\r\n\t        _newMeanLeverage = portfolio[_userId][ _marketId].meanEntryLeverage;\r\n            resetTimestampInOrderToLastUpdated(_orderId);\r\n        }\r\n\r\n        orders[_orderId].modifyPosition.balanceDown = 0;\r\n        orders[_orderId].modifyPosition.balanceUp = _balanceUp;\r\n        orders[_orderId].modifyPosition.newLongShares = _newLongShares;\r\n        orders[_orderId].modifyPosition.newShortShares = portfolio[_userId][ _marketId].shortShares;\r\n        orders[_orderId].modifyPosition.newMeanEntryPrice = _newMeanEntry;\r\n        orders[_orderId].modifyPosition.newMeanEntrySpread = _newMeanSpread;\r\n        orders[_orderId].modifyPosition.newMeanEntryLeverage = _newMeanLeverage;\r\n\r\n        setPositionInState(_orderId);\r\n    }\r\n\r\nevent ResetTimestampInOrder(bytes32 _orderId, uint oldTimestamp, uint newTimestamp);\r\nfunction resetTimestampInOrderToLastUpdated(bytes32 _orderId) internal {\r\n    address userId = orders[_orderId].userId;\r\n    bytes32 marketId = orders[_orderId].marketId;\r\n    uint lastUpdated = portfolio[userId][ marketId].lastUpdated;\r\n    emit ResetTimestampInOrder(_orderId, orders[_orderId].timeStamp, lastUpdated);\r\n    orders[_orderId].timeStamp = lastUpdated;\r\n}\r\n\r\n// ----------------------------------------------------------------------------\r\n// closeShort(bytes32 _orderId)\r\n// Closes an existing short position. Average entry price/spread/leverage do not change.\r\n// ----------------------------------------------------------------------------\r\nfunction calculateBalanceUp(bytes32 _orderId) private view returns (uint256 _balanceUp) {\r\n        address _userId = orders[_orderId].userId;\r\n        bytes32 _marketId = orders[_orderId].marketId;\r\n        uint256 _shareValue;\r\n\r\n        if (orders[_orderId].tradeDirection == false) { //we are selling our long shares\r\n            _balanceUp = orders[_orderId].modifyPosition.longSharesOrder;\r\n            _shareValue = longShareValue(\r\n                portfolio[_userId][ _marketId].meanEntryPrice,\r\n                portfolio[_userId][ _marketId].meanEntryLeverage,\r\n                portfolio[_userId][ _marketId].lastUpdated,\r\n                orders[_orderId].marketPrice,\r\n                orders[_orderId].marketSpread,\r\n                portfolio[_userId][ _marketId].meanEntryLeverage,\r\n                true\r\n            );\r\n        } else { //we are going long, we are selling our short shares\r\n            _balanceUp = orders[_orderId].modifyPosition.shortSharesOrder;\r\n            _shareValue = shortShareValue(\r\n                portfolio[_userId][ _marketId].meanEntryPrice,\r\n                portfolio[_userId][ _marketId].meanEntryLeverage,\r\n                portfolio[_userId][ _marketId].lastUpdated,\r\n                orders[_orderId].marketPrice,\r\n                orders[_orderId].marketSpread,\r\n                portfolio[_userId][ _marketId].meanEntryLeverage,\r\n                true\r\n            );\r\n        }\r\n        return _balanceUp * (_shareValue); \r\n    }\r\n\r\n    function closeShort(bytes32 _orderId) private {\r\n        address _userId = orders[_orderId].userId;\r\n        bytes32 _marketId = orders[_orderId].marketId;\r\n        uint256 _newMeanEntry;\r\n        uint256 _newMeanSpread;\r\n        uint256 _newMeanLeverage;\r\n        uint256 _newShortShares = portfolio[_userId][ _marketId].shortShares - (orders[_orderId].modifyPosition.shortSharesOrder);\r\n        uint256 _balanceUp = calculateBalanceUp(_orderId);\r\n        \r\n        if (orders[_orderId].modifyPosition.shortSharesOrder == portfolio[_userId][ _marketId].shortShares) {\r\n            _newMeanEntry = 0;\r\n            _newMeanSpread = 0;\r\n\t        _newMeanLeverage = PRECISION;\r\n        } else {\r\n            _newMeanEntry = portfolio[_userId][ _marketId].meanEntryPrice;\r\n\t        _newMeanSpread = portfolio[_userId][ _marketId].meanEntrySpread;\r\n\t        _newMeanLeverage = portfolio[_userId][ _marketId].meanEntryLeverage;\r\n\r\n            /**\r\n             * we need the timestamp of the old order for partial closes, not the new one\r\n             */\r\n            resetTimestampInOrderToLastUpdated(_orderId);\r\n        }\r\n\r\n        orders[_orderId].modifyPosition.balanceDown = 0;\r\n        orders[_orderId].modifyPosition.balanceUp = _balanceUp;\r\n        orders[_orderId].modifyPosition.newLongShares = portfolio[orders[_orderId].userId][ orders[_orderId].marketId].longShares;\r\n        orders[_orderId].modifyPosition.newShortShares = _newShortShares;\r\n        orders[_orderId].modifyPosition.newMeanEntryPrice = _newMeanEntry;\r\n        orders[_orderId].modifyPosition.newMeanEntrySpread = _newMeanSpread;\r\n        orders[_orderId].modifyPosition.newMeanEntryLeverage = _newMeanLeverage;\r\n\r\n        setPositionInState(_orderId);\r\n    }\r\n\r\n// ----------------------------------------------------------------------------\r\n// openShort(bytes32 _orderId)\r\n// Opens a new short position and computes the new resulting average entry price/spread/leverage.\r\n// Computation is broken down to several instructions for readability.\r\n// ----------------------------------------------------------------------------\r\n    function openShort(bytes32 _orderId) private {\r\n        address _userId = orders[_orderId].userId;\r\n        bytes32 _marketId = orders[_orderId].marketId;\r\n\r\n        uint256 _newMeanSpread;\r\n        uint256 _newMeanLeverage;\r\n        //\r\n        // Existing position is virtually liquidated and reopened with current marketPrice\r\n        // orders[_orderId].modifyPosition.newMeanEntryPrice = orders[_orderId].marketPrice;\r\n        // _factorShortShares is a factor to adjust the existing shortShares via virtual liqudiation and reopening at current market price\r\n\r\n        uint256 _factorShortShares = portfolio[_userId][ _marketId].meanEntryLeverage;\r\n        if (_factorShortShares < PRECISION) {\r\n            _factorShortShares = PRECISION;\r\n        }\r\n        _factorShortShares = _factorShortShares + (PRECISION);\r\n        _factorShortShares = _factorShortShares * (portfolio[_userId][ _marketId].meanEntryPrice) / (orders[_orderId].marketPrice);\r\n        if (portfolio[_userId][ _marketId].meanEntryLeverage < _factorShortShares) {\r\n            _factorShortShares = _factorShortShares - (portfolio[_userId][ _marketId].meanEntryLeverage);\r\n        } else {\r\n            _factorShortShares = 0;\r\n        }\r\n\r\n        uint256 _adjustedShortShares = _factorShortShares * (portfolio[_userId][ _marketId].shortShares) / (PRECISION);\r\n\r\n        // _newMeanLeverage is the weighted leverage of the existing position and the new position\r\n        _newMeanLeverage = portfolio[_userId][ _marketId].meanEntryLeverage * (_adjustedShortShares);\r\n        _newMeanLeverage = _newMeanLeverage + (orders[_orderId].orderLeverage * (orders[_orderId].modifyPosition.shortSharesOrder));\r\n        _newMeanLeverage = _newMeanLeverage / (_adjustedShortShares + (orders[_orderId].modifyPosition.shortSharesOrder));\r\n\r\n        // _newMeanSpread is the weighted spread of the existing position and the new position\r\n        _newMeanSpread = portfolio[_userId][ _marketId].meanEntrySpread * (portfolio[_userId][ _marketId].shortShares);\r\n        _newMeanSpread = _newMeanSpread + (orders[_orderId].marketSpread * (orders[_orderId].modifyPosition.shortSharesOrder));\r\n        _newMeanSpread = _newMeanSpread / (_adjustedShortShares + (orders[_orderId].modifyPosition.shortSharesOrder));\r\n\r\n        orders[_orderId].modifyPosition.balanceDown = orders[_orderId].modifyPosition.shortSharesOrder * (orders[_orderId].marketPrice) + (\r\n            orders[_orderId].modifyPosition.shortSharesOrder * (orders[_orderId].marketSpread) * (orders[_orderId].orderLeverage) / (PRECISION)\r\n        );\r\n        orders[_orderId].modifyPosition.balanceUp = 0;\r\n        orders[_orderId].modifyPosition.newLongShares = portfolio[_userId][ _marketId].longShares;\r\n        orders[_orderId].modifyPosition.newShortShares = _adjustedShortShares + (orders[_orderId].modifyPosition.shortSharesOrder);\r\n        orders[_orderId].modifyPosition.newMeanEntryPrice = orders[_orderId].marketPrice;\r\n        orders[_orderId].modifyPosition.newMeanEntrySpread = _newMeanSpread;\r\n        orders[_orderId].modifyPosition.newMeanEntryLeverage = _newMeanLeverage;\r\n\r\n        setPositionInState(_orderId);\r\n    }\r\n\r\n    function computeLiquidationPrice(bytes32 _orderId) public returns(uint256 _liquidationPrice) {\r\n        orders[_orderId].modifyPosition.newLiquidationPrice = 0;\r\n        if (orders[_orderId].modifyPosition.newLongShares > 0) {\r\n            orders[_orderId].modifyPosition.newLiquidationPrice = getLiquidationPrice(orders[_orderId].modifyPosition.newMeanEntryPrice, orders[_orderId].modifyPosition.newMeanEntryLeverage, true, orders[_orderId].timeStamp);\r\n        }\r\n        if (orders[_orderId].modifyPosition.newShortShares > 0) {\r\n            orders[_orderId].modifyPosition.newLiquidationPrice = getLiquidationPrice(orders[_orderId].modifyPosition.newMeanEntryPrice, orders[_orderId].modifyPosition.newMeanEntryLeverage, false, orders[_orderId].timeStamp);\r\n        }\r\n        return orders[_orderId].modifyPosition.newLiquidationPrice;\r\n    }\r\n\r\n    function getLiquidationPrice(uint256 _newMeanEntryPrice, uint256 _newMeanEntryLeverage, bool _long, uint _positionTimestampInMs) public view returns (uint256) {\r\n        uint _liquidationPrice;\r\n        uint marginInterest = calculateMarginInterest(_newMeanEntryPrice, _newMeanEntryLeverage, _positionTimestampInMs);\r\n        uint adjustedMarginInterest = marginInterest * PRECISION / _newMeanEntryLeverage;\r\n        if (_long == true) {\r\n            _liquidationPrice = _newMeanEntryPrice * (_newMeanEntryLeverage - (PRECISION)) / (_newMeanEntryLeverage);\r\n            _liquidationPrice += adjustedMarginInterest;\r\n        } else {\r\n            _liquidationPrice = _newMeanEntryPrice * (_newMeanEntryLeverage + (PRECISION)) / (_newMeanEntryLeverage);\r\n            _liquidationPrice -= adjustedMarginInterest;\r\n        }\r\n        return _liquidationPrice;\r\n    }\r\n\r\n    \r\n// ----------------------------------------------------------------------------\r\n// setPositionInState(bytes32 _orderId)\r\n// Updates the portfolio in Morpher State. Called by closeLong/closeShort/openLong/openShort\r\n// ----------------------------------------------------------------------------\r\n    function setPositionInState(bytes32 _orderId) private {\r\n        require(MorpherToken(morpherState.morpherTokenAddress()).balanceOf(orders[_orderId].userId) + (orders[_orderId].modifyPosition.balanceUp) >= orders[_orderId].modifyPosition.balanceDown, \"MorpherTradeEngine: insufficient funds.\");\r\n        computeLiquidationPrice(_orderId);\r\n        // Net balanceUp and balanceDown\r\n        if (orders[_orderId].modifyPosition.balanceUp > orders[_orderId].modifyPosition.balanceDown) {\r\n            orders[_orderId].modifyPosition.balanceUp -= (orders[_orderId].modifyPosition.balanceDown);\r\n            orders[_orderId].modifyPosition.balanceDown = 0;\r\n        } else {\r\n            orders[_orderId].modifyPosition.balanceDown -= (orders[_orderId].modifyPosition.balanceUp);\r\n            orders[_orderId].modifyPosition.balanceUp = 0;\r\n        }\r\n        if (orders[_orderId].modifyPosition.balanceUp > 0) {\r\n            MorpherToken(morpherState.morpherMintingLimiterAddress()).mint(orders[_orderId].userId, orders[_orderId].modifyPosition.balanceUp);\r\n        }\r\n        if (orders[_orderId].modifyPosition.balanceDown > 0) {\r\n            MorpherToken(morpherState.morpherTokenAddress()).burn(orders[_orderId].userId, orders[_orderId].modifyPosition.balanceDown);\r\n        }\r\n        _setPosition(\r\n            orders[_orderId].userId,\r\n            orders[_orderId].marketId,\r\n            orders[_orderId].timeStamp,\r\n            orders[_orderId].modifyPosition.newLongShares,\r\n            orders[_orderId].modifyPosition.newShortShares,\r\n            orders[_orderId].modifyPosition.newMeanEntryPrice,\r\n            orders[_orderId].modifyPosition.newMeanEntrySpread,\r\n            orders[_orderId].modifyPosition.newMeanEntryLeverage,\r\n            orders[_orderId].modifyPosition.newLiquidationPrice\r\n        );\r\n        emit PositionUpdated(\r\n            orders[_orderId].userId,\r\n            orders[_orderId].marketId,\r\n            orders[_orderId].timeStamp,\r\n            orders[_orderId].modifyPosition.newLongShares,\r\n            orders[_orderId].modifyPosition.newShortShares,\r\n            orders[_orderId].modifyPosition.newMeanEntryPrice,\r\n            orders[_orderId].modifyPosition.newMeanEntrySpread,\r\n            orders[_orderId].modifyPosition.newMeanEntryLeverage,\r\n            orders[_orderId].modifyPosition.newLiquidationPrice,\r\n            orders[_orderId].modifyPosition.balanceUp,\r\n            orders[_orderId].modifyPosition.balanceDown\r\n        );\r\n    }\r\n\r\n     function setPosition(\r\n        address _address,\r\n        bytes32 _marketId,\r\n        uint256 _timeStamp,\r\n        uint256 _longShares,\r\n        uint256 _shortShares,\r\n        uint256 _meanEntryPrice,\r\n        uint256 _meanEntrySpread,\r\n        uint256 _meanEntryLeverage,\r\n        uint256 _liquidationPrice\r\n    ) public onlyRole(POSITIONADMIN_ROLE) {\r\n        _setPosition(_address,\r\n        _marketId,\r\n        _timeStamp,\r\n        _longShares,\r\n        _shortShares,\r\n        _meanEntryPrice,\r\n        _meanEntrySpread,\r\n        _meanEntryLeverage,\r\n        _liquidationPrice);\r\n    }\r\n\r\n     function _setPosition(\r\n        address _address,\r\n        bytes32 _marketId,\r\n        uint256 _timeStamp,\r\n        uint256 _longShares,\r\n        uint256 _shortShares,\r\n        uint256 _meanEntryPrice,\r\n        uint256 _meanEntrySpread,\r\n        uint256 _meanEntryLeverage,\r\n        uint256 _liquidationPrice\r\n    ) internal {\r\n        portfolio[_address][_marketId].lastUpdated = _timeStamp;\r\n        portfolio[_address][_marketId].longShares = _longShares;\r\n        portfolio[_address][_marketId].shortShares = _shortShares;\r\n        portfolio[_address][_marketId].meanEntryPrice = _meanEntryPrice;\r\n        portfolio[_address][_marketId].meanEntrySpread = _meanEntrySpread;\r\n        portfolio[_address][_marketId].meanEntryLeverage = _meanEntryLeverage;\r\n        portfolio[_address][_marketId].liquidationPrice = _liquidationPrice;\r\n        portfolio[_address][_marketId].positionHash = getPositionHash(\r\n            _address,\r\n            _marketId,\r\n            _timeStamp,\r\n            _longShares,\r\n            _shortShares,\r\n            _meanEntryPrice,\r\n            _meanEntrySpread,\r\n            _meanEntryLeverage,\r\n            _liquidationPrice\r\n        );\r\n        if (_longShares > 0 || _shortShares > 0) {\r\n            addExposureByMarket(_marketId, _address);\r\n        } else {\r\n            deleteExposureByMarket(_marketId, _address);\r\n        }\r\n        emit SetPosition(\r\n            portfolio[_address][_marketId].positionHash,\r\n            _address,\r\n            _marketId,\r\n            _timeStamp,\r\n            _longShares,\r\n            _shortShares,\r\n            _meanEntryPrice,\r\n            _meanEntrySpread,\r\n            _meanEntryLeverage,\r\n            _liquidationPrice\r\n        );\r\n    }\r\n\r\n    function getPosition(address _address, bytes32 _marketId) public view returns (position memory) {\r\n        return portfolio[_address][_marketId];\r\n    }\r\n\r\n    function getPositionHash(\r\n        address _address,\r\n        bytes32 _marketId,\r\n        uint256 _timeStamp,\r\n        uint256 _longShares,\r\n        uint256 _shortShares,\r\n        uint256 _meanEntryPrice,\r\n        uint256 _meanEntrySpread,\r\n        uint256 _meanEntryLeverage,\r\n        uint256 _liquidationPrice\r\n    ) public pure returns (bytes32 _hash) {\r\n        return keccak256(\r\n            abi.encodePacked(\r\n                _address,\r\n                _marketId,\r\n                _timeStamp,\r\n                _longShares,\r\n                _shortShares,\r\n                _meanEntryPrice,\r\n                _meanEntrySpread,\r\n                _meanEntryLeverage,\r\n                _liquidationPrice\r\n            )\r\n        );\r\n    }\r\n\r\n\r\n\r\n    function addExposureByMarket(bytes32 _symbol, address _address) private {\r\n        // Address must not be already recored\r\n        uint256 _myExposureIndex = getExposureMappingIndex(_symbol, _address);\r\n        if (_myExposureIndex == 0) {\r\n            uint256 _maxMappingIndex = getMaxMappingIndex(_symbol) + (1);\r\n            setMaxMappingIndex(_symbol, _maxMappingIndex);\r\n            setExposureMapping(_symbol, _address, _maxMappingIndex);\r\n        }\r\n    }\r\n\r\n\r\n    function deleteExposureByMarket(bytes32 _symbol, address _address) private {\r\n        // Get my index in mapping\r\n        uint256 _myExposureIndex = getExposureMappingIndex(_symbol, _address);\r\n        // Get last element of mapping\r\n        uint256 _lastIndex = getMaxMappingIndex(_symbol);\r\n        address _lastAddress = getExposureMappingAddress(_symbol, _lastIndex);\r\n        // If _myExposureIndex is greater than 0 (i.e. there is an exposure of that address on that market) delete it\r\n        if (_myExposureIndex > 0) {\r\n            // If _myExposureIndex is less than _lastIndex overwrite element at _myExposureIndex with element at _lastIndex in\r\n            // deleted elements position.\r\n            if (_myExposureIndex < _lastIndex) {\r\n                setExposureMappingAddress(_symbol, _lastAddress, _myExposureIndex);\r\n                setExposureMappingIndex(_symbol, _lastAddress, _myExposureIndex);\r\n            }\r\n            // Delete _lastIndex and _lastAddress element and reduce maxExposureIndex\r\n            setExposureMappingAddress(_symbol, address(0), _lastIndex);\r\n            setExposureMappingIndex(_symbol, _address, 0);\r\n            // Shouldn't happen, but check that not empty\r\n            if (_lastIndex > 0) {\r\n                setMaxMappingIndex(_symbol, _lastIndex - (1));\r\n            }\r\n        }\r\n    }\r\n\r\n    \r\n    function getMaxMappingIndex(bytes32 _marketId) public view returns(uint256 _maxMappingIndex) {\r\n        return exposureByMarket[_marketId].maxMappingIndex;\r\n    }\r\n\r\n    function getExposureMappingIndex(bytes32 _marketId, address _address) public view returns(uint256 _mappingIndex) {\r\n        return exposureByMarket[_marketId].index[_address];\r\n    }\r\n\r\n    function getExposureMappingAddress(bytes32 _marketId, uint256 _mappingIndex) public view returns(address _address) {\r\n        return exposureByMarket[_marketId].addy[_mappingIndex];\r\n    }\r\n\r\n    function setMaxMappingIndex(bytes32 _marketId, uint256 _maxMappingIndex) private {\r\n        exposureByMarket[_marketId].maxMappingIndex = _maxMappingIndex;\r\n    }\r\n\r\n    function setExposureMapping(bytes32 _marketId, address _address, uint256 _index) private {\r\n        setExposureMappingIndex(_marketId, _address, _index);\r\n        setExposureMappingAddress(_marketId, _address, _index);\r\n    }\r\n\r\n    function setExposureMappingIndex(bytes32 _marketId, address _address, uint256 _index) private {\r\n        exposureByMarket[_marketId].index[_address] = _index;\r\n    }\r\n\r\n    function setExposureMappingAddress(bytes32 _marketId, address _address, uint256 _index) private {\r\n        exposureByMarket[_marketId].addy[_index] = _address;\r\n    }\r\n\r\n\r\n\r\n}\r\n",
  "sourcePath": "/Users/thomas/Projects/Morpher/MorpherProtocol/contracts/MorpherTradeEngine.sol",
  "compiler": {
    "name": "solc",
    "version": "0.8.20+commit.a1b79de6.Emscripten.clang"
  },
  "schemaVersion": "3.4.16",
  "updatedAt": "2024-01-12T14:11:19.444Z",
  "devdoc": {
    "events": {
      "Initialized(uint8)": {
        "details": "Triggered when the contract has been initialized or reinitialized."
      }
    },
    "kind": "dev",
    "methods": {},
    "version": 1
  },
  "userdoc": {
    "kind": "user",
    "methods": {
      "ADMINISTRATOR_ROLE()": {
        "notice": "Known Roles to Trade Engine"
      },
      "interestRate()": {
        "notice": "fallback function in case the old tradeengine asks for the current interest rate"
      },
      "setLeverageInterestRate(uint256)": {
        "notice": "Interest rate"
      }
    },
    "version": 1
  }
}