{
  "contractName": "MorpherAirdrop",
  "abi": [
    {
      "inputs": [
        {
          "internalType": "address",
          "name": "_airdropAdminAddress",
          "type": "address"
        },
        {
          "internalType": "address",
          "name": "_morpherToken",
          "type": "address"
        },
        {
          "internalType": "address",
          "name": "_coldStorageOwnerAddress",
          "type": "address"
        }
      ],
      "stateMutability": "nonpayable",
      "type": "constructor"
    },
    {
      "anonymous": false,
      "inputs": [
        {
          "indexed": true,
          "internalType": "address",
          "name": "_operator",
          "type": "address"
        },
        {
          "indexed": true,
          "internalType": "address",
          "name": "_recipient",
          "type": "address"
        },
        {
          "indexed": false,
          "internalType": "uint256",
          "name": "_amountClaimed",
          "type": "uint256"
        },
        {
          "indexed": false,
          "internalType": "uint256",
          "name": "_amountAuthorized",
          "type": "uint256"
        }
      ],
      "name": "AirdropSent",
      "type": "event"
    },
    {
      "anonymous": false,
      "inputs": [
        {
          "indexed": true,
          "internalType": "address",
          "name": "previousOwner",
          "type": "address"
        },
        {
          "indexed": true,
          "internalType": "address",
          "name": "newOwner",
          "type": "address"
        }
      ],
      "name": "OwnershipTransferred",
      "type": "event"
    },
    {
      "anonymous": false,
      "inputs": [
        {
          "indexed": true,
          "internalType": "address",
          "name": "_recipient",
          "type": "address"
        },
        {
          "indexed": false,
          "internalType": "uint256",
          "name": "_amountClaimed",
          "type": "uint256"
        },
        {
          "indexed": false,
          "internalType": "uint256",
          "name": "_amountAuthorized",
          "type": "uint256"
        }
      ],
      "name": "SetAirdropAuthorized",
      "type": "event"
    },
    {
      "stateMutability": "payable",
      "type": "fallback"
    },
    {
      "inputs": [],
      "name": "airdropAdmin",
      "outputs": [
        {
          "internalType": "address",
          "name": "",
          "type": "address"
        }
      ],
      "stateMutability": "view",
      "type": "function"
    },
    {
      "inputs": [],
      "name": "morpherToken",
      "outputs": [
        {
          "internalType": "address",
          "name": "",
          "type": "address"
        }
      ],
      "stateMutability": "view",
      "type": "function"
    },
    {
      "inputs": [],
      "name": "owner",
      "outputs": [
        {
          "internalType": "address",
          "name": "",
          "type": "address"
        }
      ],
      "stateMutability": "view",
      "type": "function"
    },
    {
      "inputs": [],
      "name": "renounceOwnership",
      "outputs": [],
      "stateMutability": "nonpayable",
      "type": "function"
    },
    {
      "inputs": [],
      "name": "totalAirdropAuthorized",
      "outputs": [
        {
          "internalType": "uint256",
          "name": "",
          "type": "uint256"
        }
      ],
      "stateMutability": "view",
      "type": "function"
    },
    {
      "inputs": [],
      "name": "totalAirdropClaimed",
      "outputs": [
        {
          "internalType": "uint256",
          "name": "",
          "type": "uint256"
        }
      ],
      "stateMutability": "view",
      "type": "function"
    },
    {
      "inputs": [
        {
          "internalType": "address",
          "name": "newOwner",
          "type": "address"
        }
      ],
      "name": "transferOwnership",
      "outputs": [],
      "stateMutability": "nonpayable",
      "type": "function"
    },
    {
      "stateMutability": "payable",
      "type": "receive"
    },
    {
      "inputs": [
        {
          "internalType": "address",
          "name": "_address",
          "type": "address"
        }
      ],
      "name": "setAirdropAdmin",
      "outputs": [],
      "stateMutability": "nonpayable",
      "type": "function"
    },
    {
      "inputs": [
        {
          "internalType": "address",
          "name": "_address",
          "type": "address"
        }
      ],
      "name": "setMorpherTokenAddress",
      "outputs": [],
      "stateMutability": "nonpayable",
      "type": "function"
    },
    {
      "inputs": [
        {
          "internalType": "address",
          "name": "_userAddress",
          "type": "address"
        }
      ],
      "name": "getAirdropClaimed",
      "outputs": [
        {
          "internalType": "uint256",
          "name": "_amount",
          "type": "uint256"
        }
      ],
      "stateMutability": "view",
      "type": "function"
    },
    {
      "inputs": [
        {
          "internalType": "address",
          "name": "_userAddress",
          "type": "address"
        }
      ],
      "name": "getAirdropAuthorized",
      "outputs": [
        {
          "internalType": "uint256",
          "name": "_balance",
          "type": "uint256"
        }
      ],
      "stateMutability": "view",
      "type": "function"
    },
    {
      "inputs": [
        {
          "internalType": "address",
          "name": "_userAddress",
          "type": "address"
        }
      ],
      "name": "getAirdrop",
      "outputs": [
        {
          "internalType": "uint256",
          "name": "_claimed",
          "type": "uint256"
        },
        {
          "internalType": "uint256",
          "name": "_authorized",
          "type": "uint256"
        }
      ],
      "stateMutability": "view",
      "type": "function"
    },
    {
      "inputs": [
        {
          "internalType": "address",
          "name": "_userAddress",
          "type": "address"
        },
        {
          "internalType": "uint256",
          "name": "_authorized",
          "type": "uint256"
        }
      ],
      "name": "setAirdropAuthorized",
      "outputs": [],
      "stateMutability": "nonpayable",
      "type": "function"
    },
    {
      "inputs": [],
      "name": "claimAirdrop",
      "outputs": [],
      "stateMutability": "nonpayable",
      "type": "function"
    },
    {
      "inputs": [
        {
          "internalType": "uint256",
          "name": "_amount",
          "type": "uint256"
        }
      ],
      "name": "claimSomeAirdrop",
      "outputs": [],
      "stateMutability": "nonpayable",
      "type": "function"
    },
    {
      "inputs": [
        {
          "internalType": "address",
          "name": "_recipient",
          "type": "address"
        }
      ],
      "name": "adminSendAirdrop",
      "outputs": [],
      "stateMutability": "nonpayable",
      "type": "function"
    },
    {
      "inputs": [
        {
          "internalType": "address",
          "name": "_recipient",
          "type": "address"
        },
        {
          "internalType": "uint256",
          "name": "_amount",
          "type": "uint256"
        }
      ],
      "name": "adminSendSomeAirdrop",
      "outputs": [],
      "stateMutability": "nonpayable",
      "type": "function"
    },
    {
      "inputs": [
        {
          "internalType": "address",
          "name": "_recipient",
          "type": "address"
        },
        {
          "internalType": "uint256",
          "name": "_amount",
          "type": "uint256"
        }
      ],
      "name": "adminAuthorizeAndSend",
      "outputs": [],
      "stateMutability": "nonpayable",
      "type": "function"
    }
  ],
  "bytecode": "0x608060405234801562000010575f80fd5b5060405162000ea938038062000ea983398101604081905262000033916200026b565b6200003e3362000068565b6200004983620000b7565b620000548262000126565b6200005f8162000191565b505050620002b2565b5f80546001600160a01b038381166001600160a01b0319831681178455604051919092169283917f8be0079c531659141344cd1fd0a4f28419497f9722a3daafe3b4186f6b6457e09190a35050565b5f546001600160a01b03163314620001045760405162461bcd60e51b815260206004820181905260248201525f8051602062000e8983398151915260448201526064015b60405180910390fd5b600580546001600160a01b0319166001600160a01b0392909216919091179055565b5f546001600160a01b031633146200016f5760405162461bcd60e51b815260206004820181905260248201525f8051602062000e898339815191526044820152606401620000fb565b600680546001600160a01b0319166001600160a01b0392909216919091179055565b5f546001600160a01b03163314620001da5760405162461bcd60e51b815260206004820181905260248201525f8051602062000e898339815191526044820152606401620000fb565b6001600160a01b038116620002415760405162461bcd60e51b815260206004820152602660248201527f4f776e61626c653a206e6577206f776e657220697320746865207a65726f206160448201526564647265737360d01b6064820152608401620000fb565b6200024c8162000068565b50565b80516001600160a01b038116811462000266575f80fd5b919050565b5f805f606084860312156200027e575f80fd5b62000289846200024f565b925062000299602085016200024f565b9150620002a9604085016200024f565b90509250925092565b610bc980620002c05f395ff3fe60806040526004361061010c575f3560e01c806370a2de1e116100945780639f4c5c4d116100635780639f4c5c4d14610333578063ba3fe3aa14610367578063c820e17014610386578063cc8fd18a1461039b578063f2fde38b146103ba57610132565b806370a2de1e146102cf578063715018a6146102ee5780638da5cb5b146103025780639605330b1461031e57610132565b80633817f554116100db5780633817f554146102275780634441e599146102465780635b88349d1461026557806368afeab214610279578063706277da146102b057610132565b8063069f5bdd1461014a57806311e90fd4146101a557806311fef1b8146101e75780631f005f511461020857610132565b366101325760405162461bcd60e51b8152600401610129906109dc565b60405180910390fd5b60405162461bcd60e51b8152600401610129906109dc565b348015610155575f80fd5b5061018b610164366004610a43565b6001600160a01b03165f908152600160209081526040808320546002909252909120549091565b604080519283526020830191909152015b60405180910390f35b3480156101b0575f80fd5b506101d96101bf366004610a43565b6001600160a01b03165f9081526002602052604090205490565b60405190815260200161019c565b3480156101f2575f80fd5b50610206610201366004610a63565b6103d9565b005b348015610213575f80fd5b50610206610222366004610a63565b61043e565b348015610232575f80fd5b50610206610241366004610a43565b610468565b348015610251575f80fd5b50610206610260366004610a43565b6104b3565b348015610270575f80fd5b50610206610516565b348015610284575f80fd5b50600554610298906001600160a01b031681565b6040516001600160a01b03909116815260200161019c565b3480156102bb575f80fd5b50600654610298906001600160a01b031681565b3480156102da575f80fd5b506102066102e9366004610a43565b610549565b3480156102f9575f80fd5b50610206610594565b34801561030d575f80fd5b505f546001600160a01b0316610298565b348015610329575f80fd5b506101d960045481565b34801561033e575f80fd5b506101d961034d366004610a43565b6001600160a01b03165f9081526001602052604090205490565b348015610372575f80fd5b50610206610381366004610a63565b6105c8565b348015610391575f80fd5b506101d960035481565b3480156103a6575f80fd5b506102066103b5366004610a8b565b610718565b3480156103c5575f80fd5b506102066103d4366004610a43565b610722565b6005546001600160a01b031633146104035760405162461bcd60e51b815260040161012990610aa2565b6104308282610426856001600160a01b03165f9081526002602052604090205490565b6103819190610b13565b61043a82826107b9565b5050565b6005546001600160a01b031633146104305760405162461bcd60e51b815260040161012990610aa2565b5f546001600160a01b031633146104915760405162461bcd60e51b815260040161012990610b2c565b600680546001600160a01b0319166001600160a01b0392909216919091179055565b6005546001600160a01b031633146104dd5760405162461bcd60e51b815260040161012990610aa2565b6001600160a01b0381165f90815260016020908152604080832054600290925282205461050a9190610b61565b905061043a82826107b9565b335f90815260016020908152604080832054600290925282205461053a9190610b61565b905061054633826107b9565b50565b5f546001600160a01b031633146105725760405162461bcd60e51b815260040161012990610b2c565b600580546001600160a01b0319166001600160a01b0392909216919091179055565b5f546001600160a01b031633146105bd5760405162461bcd60e51b815260040161012990610b2c565b6105c65f61098d565b565b6005546001600160a01b031633146105f25760405162461bcd60e51b815260040161012990610aa2565b6001600160a01b0382165f9081526001602052604090205481101561067f5760405162461bcd60e51b815260206004820152603f60248201527f4d6f727068657241697264726f703a2061697264726f7020617574686f72697a60448201527f6564206d757374206265206c6172676572207468616e20636c61696d65642e006064820152608401610129565b8061069e836001600160a01b03165f9081526002602052604090205490565b6003546106ab9190610b61565b6106b59190610b13565b6003556001600160a01b0382165f81815260026020908152604080832085905560018252918290205482519081529081018490527f24054b8121f807df44790c6ddcb4d716004a1e5f83c594139a3820fdccf2fc82910160405180910390a25050565b61054633826107b9565b5f546001600160a01b0316331461074b5760405162461bcd60e51b815260040161012990610b2c565b6001600160a01b0381166107b05760405162461bcd60e51b815260206004820152602660248201527f4f776e61626c653a206e6577206f776e657220697320746865207a65726f206160448201526564647265737360d01b6064820152608401610129565b6105468161098d565b6001600160a01b0382165f908152600160205260409020546107dc908290610b13565b6001600160a01b0383165f9081526002602052604090205410156108685760405162461bcd60e51b815260206004820152603960248201527f4d6f727068657241697264726f703a20616d6f756e742065786365656473206160448201527f7574686f72697a65642061697264726f7020616d6f756e742e000000000000006064820152608401610129565b6001600160a01b0382165f9081526001602052604090205461088b908290610b13565b6001600160a01b0383165f908152600160205260409020556004546108b1908290610b13565b600490815560065460405163a9059cbb60e01b81526001600160a01b03858116938201939093526024810184905291169063a9059cbb906044016020604051808303815f875af1158015610907573d5f803e3d5ffd5b505050506040513d601f19601f8201168201806040525081019061092b9190610b74565b506001600160a01b0382165f8181526001602090815260408083205460028352928190205481519384529183019190915233917fa101eec99cd065f6b0c7dd60fe2a3df7dd8b8b189ef65ac430496f0a06e57d30910160405180910390a35050565b5f80546001600160a01b038381166001600160a01b0319831681178455604051919092169283917f8be0079c531659141344cd1fd0a4f28419497f9722a3daafe3b4186f6b6457e09190a35050565b6020808252602c908201527f4d6f727068657241697264726f703a20796f752063616e2774206465706f736960408201526b74204574686572206865726560a01b606082015260800190565b80356001600160a01b0381168114610a3e575f80fd5b919050565b5f60208284031215610a53575f80fd5b610a5c82610a28565b9392505050565b5f8060408385031215610a74575f80fd5b610a7d83610a28565b946020939093013593505050565b5f60208284031215610a9b575f80fd5b5035919050565b6020808252603c908201527f4d6f727068657241697264726f703a2063616e206f6e6c792062652063616c6c60408201527f65642062792041697264726f702041646d696e6973747261746f722e00000000606082015260800190565b634e487b7160e01b5f52601160045260245ffd5b80820180821115610b2657610b26610aff565b92915050565b6020808252818101527f4f776e61626c653a2063616c6c6572206973206e6f7420746865206f776e6572604082015260600190565b81810381811115610b2657610b26610aff565b5f60208284031215610b84575f80fd5b81518015158114610a5c575f80fdfea2646970667358221220dd5ba0a794faf9e2f2c41c26652c4c69a0e3c23637cc1a65f973ca74d5b07e1e64736f6c634300081400334f776e61626c653a2063616c6c6572206973206e6f7420746865206f776e6572",
  "immutableReferences": {},
  "source": "//SPDX-License-Identifier: GPLv3\r\npragma solidity ^0.8.11;\r\n\r\nimport \"@openzeppelin/contracts/access/Ownable.sol\";\r\nimport \"@openzeppelin/contracts/token/ERC20/IERC20.sol\";\r\n\r\n// ----------------------------------------------------------------------------------\r\n// Holds the Airdrop Token balance on contract address\r\n// AirdropAdmin can authorize addresses to receive airdrop.\r\n// Users have to claim their airdrop actively or Admin initiates transfer.\r\n// ----------------------------------------------------------------------------------\r\n\r\ncontract MorpherAirdrop is Ownable {\r\n\r\n\r\n// ----------------------------------------------------------------------------\r\n// Mappings for authorized / claimed airdrop\r\n// ----------------------------------------------------------------------------\r\n    mapping(address => uint256) private airdropClaimed;\r\n    mapping(address => uint256) private airdropAuthorized;\r\n\r\n    uint256 public totalAirdropAuthorized;\r\n    uint256 public totalAirdropClaimed;\r\n\r\n    address public airdropAdmin;\r\n    address public morpherToken;\r\n\r\n// ----------------------------------------------------------------------------\r\n// Events\r\n// ----------------------------------------------------------------------------\r\n    event AirdropSent(address indexed _operator, address indexed _recipient, uint256 _amountClaimed, uint256 _amountAuthorized);\r\n    event SetAirdropAuthorized(address indexed _recipient, uint256 _amountClaimed, uint256 _amountAuthorized);\r\n\r\n    constructor(address _airdropAdminAddress, address _morpherToken, address _coldStorageOwnerAddress) {\r\n        setAirdropAdmin(_airdropAdminAddress);\r\n        setMorpherTokenAddress(_morpherToken);\r\n        transferOwnership(_coldStorageOwnerAddress);\r\n    }\r\n\r\n    modifier onlyAirdropAdmin {\r\n        require(msg.sender == airdropAdmin, \"MorpherAirdrop: can only be called by Airdrop Administrator.\");\r\n        _;\r\n    }\r\n\r\n// ----------------------------------------------------------------------------\r\n// Administrative functions\r\n// ----------------------------------------------------------------------------\r\n    function setAirdropAdmin(address _address) public onlyOwner {\r\n        airdropAdmin = _address;\r\n    }\r\n\r\n    function setMorpherTokenAddress(address _address) public onlyOwner {\r\n        morpherToken = _address;\r\n    }\r\n\r\n// ----------------------------------------------------------------------------\r\n// Get airdrop amount authorized for or claimed by address\r\n// ----------------------------------------------------------------------------\r\n    function getAirdropClaimed(address _userAddress) public view returns (uint256 _amount) {\r\n        return airdropClaimed[_userAddress];\r\n    }\r\n\r\n    function getAirdropAuthorized(address _userAddress) public view returns (uint256 _balance) {\r\n        return airdropAuthorized[_userAddress];\r\n    }\r\n\r\n    function getAirdrop(address _userAddress) public view returns(uint256 _claimed, uint256 _authorized) {\r\n        return (airdropClaimed[_userAddress], airdropAuthorized[_userAddress]);\r\n    }\r\n\r\n// ----------------------------------------------------------------------------\r\n// Airdrop Administrator can authorize airdrop amount per address\r\n// ----------------------------------------------------------------------------\r\n    function setAirdropAuthorized(address _userAddress, uint256 _authorized) public onlyAirdropAdmin {\r\n        // Can only set authorized amount to be higher than claimed\r\n        require(_authorized >= airdropClaimed[_userAddress], \"MorpherAirdrop: airdrop authorized must be larger than claimed.\");\r\n        // Authorized amount can be higher or lower than previously authorized amount, adjust accordingly\r\n        totalAirdropAuthorized = totalAirdropAuthorized - getAirdropAuthorized(_userAddress) + _authorized;\r\n        airdropAuthorized[_userAddress] = _authorized;\r\n        emit SetAirdropAuthorized(_userAddress, airdropClaimed[_userAddress], _authorized);\r\n    }\r\n\r\n// ----------------------------------------------------------------------------\r\n// User claims their entire airdrop\r\n// ----------------------------------------------------------------------------\r\n    function claimAirdrop() public {\r\n        uint256 _amount = airdropAuthorized[msg.sender] - airdropClaimed[msg.sender];\r\n        _sendAirdrop(msg.sender, _amount);\r\n    }\r\n\r\n// ----------------------------------------------------------------------------\r\n// User claims part of their airdrop\r\n// ----------------------------------------------------------------------------\r\n    function claimSomeAirdrop(uint256 _amount) public {\r\n        _sendAirdrop(msg.sender, _amount);\r\n    }\r\n\r\n// ----------------------------------------------------------------------------\r\n// Administrator sends user their entire airdrop\r\n// ----------------------------------------------------------------------------\r\n    function adminSendAirdrop(address _recipient) public onlyAirdropAdmin {\r\n        uint256 _amount = airdropAuthorized[_recipient] - airdropClaimed[_recipient];\r\n        _sendAirdrop(_recipient, _amount);\r\n    }\r\n\r\n// ----------------------------------------------------------------------------\r\n// Administrator sends user part of their airdrop\r\n// ----------------------------------------------------------------------------\r\n    function adminSendSomeAirdrop(address _recipient, uint256 _amount) public onlyAirdropAdmin {\r\n        _sendAirdrop(_recipient, _amount);\r\n    }\r\n\r\n// ----------------------------------------------------------------------------\r\n// Administrator sends user entire airdrop\r\n// ----------------------------------------------------------------------------\r\n    function _sendAirdrop(address _recipient, uint256 _amount) private {\r\n        require(airdropAuthorized[_recipient] >= airdropClaimed[_recipient] + _amount, \"MorpherAirdrop: amount exceeds authorized airdrop amount.\");\r\n        airdropClaimed[_recipient] = airdropClaimed[_recipient] + _amount;\r\n        totalAirdropClaimed = totalAirdropClaimed + _amount;\r\n        IERC20(morpherToken).transfer(_recipient, _amount);\r\n        emit AirdropSent(msg.sender, _recipient, airdropClaimed[_recipient], airdropAuthorized[_recipient]);\r\n    }\r\n\r\n// ----------------------------------------------------------------------------\r\n// Administrator sends user part of their airdrop\r\n// ----------------------------------------------------------------------------\r\n    function adminAuthorizeAndSend(address _recipient, uint256 _amount) public onlyAirdropAdmin {\r\n        setAirdropAuthorized(_recipient, getAirdropAuthorized(_recipient) + _amount);\r\n        _sendAirdrop(_recipient, _amount);\r\n    }\r\n\r\n// ------------------------------------------------------------------------\r\n// Don't accept ETH\r\n// ------------------------------------------------------------------------\r\n    fallback() external payable {\r\n        revert(\"MorpherAirdrop: you can't deposit Ether here\");\r\n    }\r\n    receive() external payable {\r\n        revert(\"MorpherAirdrop: you can't deposit Ether here\");\r\n    }\r\n}\r\n",
  "sourcePath": "/Users/thomas/Projects/Morpher/MorpherProtocol/contracts/MorpherAirdrop.sol",
  "compiler": {
    "name": "solc",
    "version": "0.8.20+commit.a1b79de6.Emscripten.clang"
  },
  "schemaVersion": "3.4.16",
  "updatedAt": "2024-01-12T14:11:19.348Z",
  "devdoc": {
    "kind": "dev",
    "methods": {
      "owner()": {
        "details": "Returns the address of the current owner."
      },
      "renounceOwnership()": {
        "details": "Leaves the contract without owner. It will not be possible to call `onlyOwner` functions anymore. Can only be called by the current owner. NOTE: Renouncing ownership will leave the contract without an owner, thereby removing any functionality that is only available to the owner."
      },
      "transferOwnership(address)": {
        "details": "Transfers ownership of the contract to a new account (`newOwner`). Can only be called by the current owner."
      }
    },
    "version": 1
  },
  "userdoc": {
    "kind": "user",
    "methods": {},
    "version": 1
  }
}