{
  "contractName": "MorpherEscrow",
  "abi": [
    {
      "inputs": [
        {
          "internalType": "address",
          "name": "_recipientAddress",
          "type": "address"
        },
        {
          "internalType": "address",
          "name": "_morpherToken",
          "type": "address"
        },
        {
          "internalType": "address",
          "name": "_coldStorageOwnerAddress",
          "type": "address"
        }
      ],
      "payable": false,
      "stateMutability": "nonpayable",
      "type": "constructor"
    },
    {
      "anonymous": false,
      "inputs": [
        {
          "indexed": false,
          "internalType": "uint256",
          "name": "_released",
          "type": "uint256"
        },
        {
          "indexed": false,
          "internalType": "uint256",
          "name": "_leftInEscrow",
          "type": "uint256"
        }
      ],
      "name": "EscrowReleased",
      "type": "event"
    },
    {
      "anonymous": false,
      "inputs": [
        {
          "indexed": true,
          "internalType": "address",
          "name": "previousOwner",
          "type": "address"
        },
        {
          "indexed": true,
          "internalType": "address",
          "name": "newOwner",
          "type": "address"
        }
      ],
      "name": "OwnershipTransferred",
      "type": "event"
    },
    {
      "constant": true,
      "inputs": [],
      "name": "RELEASEAMOUNT",
      "outputs": [
        {
          "internalType": "uint256",
          "name": "",
          "type": "uint256"
        }
      ],
      "payable": false,
      "stateMutability": "view",
      "type": "function"
    },
    {
      "constant": true,
      "inputs": [],
      "name": "RELEASEPERIOD",
      "outputs": [
        {
          "internalType": "uint256",
          "name": "",
          "type": "uint256"
        }
      ],
      "payable": false,
      "stateMutability": "view",
      "type": "function"
    },
    {
      "constant": true,
      "inputs": [],
      "name": "_owner",
      "outputs": [
        {
          "internalType": "address",
          "name": "",
          "type": "address"
        }
      ],
      "payable": false,
      "stateMutability": "view",
      "type": "function"
    },
    {
      "constant": true,
      "inputs": [],
      "name": "isOwner",
      "outputs": [
        {
          "internalType": "bool",
          "name": "",
          "type": "bool"
        }
      ],
      "payable": false,
      "stateMutability": "view",
      "type": "function"
    },
    {
      "constant": true,
      "inputs": [],
      "name": "lastEscrowTransferTime",
      "outputs": [
        {
          "internalType": "uint256",
          "name": "",
          "type": "uint256"
        }
      ],
      "payable": false,
      "stateMutability": "view",
      "type": "function"
    },
    {
      "constant": true,
      "inputs": [],
      "name": "morpherToken",
      "outputs": [
        {
          "internalType": "address",
          "name": "",
          "type": "address"
        }
      ],
      "payable": false,
      "stateMutability": "view",
      "type": "function"
    },
    {
      "constant": true,
      "inputs": [],
      "name": "owner",
      "outputs": [
        {
          "internalType": "address",
          "name": "",
          "type": "address"
        }
      ],
      "payable": false,
      "stateMutability": "view",
      "type": "function"
    },
    {
      "constant": true,
      "inputs": [],
      "name": "recipient",
      "outputs": [
        {
          "internalType": "address",
          "name": "",
          "type": "address"
        }
      ],
      "payable": false,
      "stateMutability": "view",
      "type": "function"
    },
    {
      "constant": false,
      "inputs": [],
      "name": "renounceOwnership",
      "outputs": [],
      "payable": false,
      "stateMutability": "nonpayable",
      "type": "function"
    },
    {
      "constant": false,
      "inputs": [
        {
          "internalType": "address",
          "name": "_tokenAddress",
          "type": "address"
        },
        {
          "internalType": "uint256",
          "name": "_tokens",
          "type": "uint256"
        }
      ],
      "name": "transferAnyERC20Token",
      "outputs": [
        {
          "internalType": "bool",
          "name": "_success",
          "type": "bool"
        }
      ],
      "payable": false,
      "stateMutability": "nonpayable",
      "type": "function"
    },
    {
      "constant": false,
      "inputs": [
        {
          "internalType": "address",
          "name": "newOwner",
          "type": "address"
        }
      ],
      "name": "transferOwnership",
      "outputs": [],
      "payable": false,
      "stateMutability": "nonpayable",
      "type": "function"
    },
    {
      "constant": false,
      "inputs": [
        {
          "internalType": "address",
          "name": "_recipientAddress",
          "type": "address"
        }
      ],
      "name": "setRecipientAddress",
      "outputs": [],
      "payable": false,
      "stateMutability": "nonpayable",
      "type": "function"
    },
    {
      "constant": false,
      "inputs": [
        {
          "internalType": "address",
          "name": "_address",
          "type": "address"
        }
      ],
      "name": "setMorpherTokenAddress",
      "outputs": [],
      "payable": false,
      "stateMutability": "nonpayable",
      "type": "function"
    },
    {
      "constant": false,
      "inputs": [],
      "name": "releaseFromEscrow",
      "outputs": [],
      "payable": false,
      "stateMutability": "nonpayable",
      "type": "function"
    }
  ],
  "bytecode": "0x60806040523480156200001157600080fd5b5060405162000d2738038062000d27833981810160405260608110156200003757600080fd5b5080516020820151604092830151600080546001600160a01b031916331780825594519394929391926001600160a01b03169160008051602062000ce7833981519152908290a362000092836001600160e01b03620000c716565b620000a6826001600160e01b036200013d16565b42600155620000be816001600160e01b03620001b316565b505050620002c0565b620000da6001600160e01b036200021e16565b6200011b576040805162461bcd60e51b8152602060048201819052602482015260008051602062000d07833981519152604482015290519081900360640190fd5b600280546001600160a01b0319166001600160a01b0392909216919091179055565b620001506001600160e01b036200021e16565b62000191576040805162461bcd60e51b8152602060048201819052602482015260008051602062000d07833981519152604482015290519081900360640190fd5b600380546001600160a01b0319166001600160a01b0392909216919091179055565b620001c66001600160e01b036200021e16565b62000207576040805162461bcd60e51b8152602060048201819052602482015260008051602062000d07833981519152604482015290519081900360640190fd5b6200021b816001600160e01b036200022f16565b50565b6000546001600160a01b0316331490565b6001600160a01b038116620002765760405162461bcd60e51b815260040180806020018281038252602881526020018062000cbf6028913960400191505060405180910390fd5b600080546040516001600160a01b038085169392169160008051602062000ce783398151915291a3600080546001600160a01b0319166001600160a01b0392909216919091179055565b6109ef80620002d06000396000f3fe608060405234801561001057600080fd5b50600436106100ea5760003560e01c8063715018a61161008c578063b2bdfa7b11610066578063b2bdfa7b146101bf578063bda7ed2c146101c7578063dc39d06d146101cf578063f2fde38b146101fb576100ea565b8063715018a6146101935780638da5cb5b1461019b5780638f32d59b146101a3576100ea565b8063400a4e3e116100c8578063400a4e3e1461014557806366d003ac1461015f578063703760f714610183578063706277da1461018b576100ea565b806336bfc264146100ef5780633817f554146101175780633e214e311461013d575b600080fd5b6101156004803603602081101561010557600080fd5b50356001600160a01b0316610221565b005b6101156004803603602081101561012d57600080fd5b50356001600160a01b031661028a565b6101156102f3565b61014d610644565b60408051918252519081900360200190f35b61016761064a565b604080516001600160a01b039092168252519081900360200190f35b61014d610659565b610167610660565b61011561066f565b610167610700565b6101ab61070f565b604080519115158252519081900360200190f35b610167610720565b61014d61072f565b6101ab600480360360408110156101e557600080fd5b506001600160a01b03813516906020013561073e565b6101156004803603602081101561021157600080fd5b50356001600160a01b0316610821565b61022961070f565b610268576040805162461bcd60e51b8152602060048201819052602482015260008051602061099b833981519152604482015290519081900360640190fd5b600280546001600160a01b0319166001600160a01b0392909216919091179055565b61029261070f565b6102d1576040805162461bcd60e51b8152602060048201819052602482015260008051602061099b833981519152604482015290519081900360640190fd5b600380546001600160a01b0319166001600160a01b0392909216919091179055565b600354604080516370a0823160e01b815230600482015290516000926001600160a01b0316916370a08231916024808301926020929190829003018186803b15801561033e57600080fd5b505afa158015610352573d6000803e3d6000fd5b505050506040513d602081101561036857600080fd5b5051116103bc576040805162461bcd60e51b815260206004820152601860248201527f4e6f2066756e6473206c65667420696e20657363726f772e0000000000000000604482015290519081900360640190fd5b6001546000906103d59062278d0063ffffffff61087116565b42111561064157600354604080516370a0823160e01b815230600482015290516a084595161401484a000000926001600160a01b0316916370a08231916024808301926020929190829003018186803b15801561043157600080fd5b505afa158015610445573d6000803e3d6000fd5b505050506040513d602081101561045b57600080fd5b5051111561047557506a084595161401484a0000006104ef565b600354604080516370a0823160e01b815230600482015290516001600160a01b03909216916370a0823191602480820192602092909190829003018186803b1580156104c057600080fd5b505afa1580156104d4573d6000803e3d6000fd5b505050506040513d60208110156104ea57600080fd5b505190505b6003546002546040805163a9059cbb60e01b81526001600160a01b039283166004820152602481018590529051919092169163a9059cbb9160448083019260209291908290030181600087803b15801561054857600080fd5b505af115801561055c573d6000803e3d6000fd5b505050506040513d602081101561057257600080fd5b505060015461058a9062278d0063ffffffff61087116565b600155600354604080516370a0823160e01b815230600482015290517f10ce17ae7e78eb775b13182ea618b201c2c81afc8fee55c287291f8686f17eac9284926001600160a01b03909116916370a0823191602480820192602092909190829003018186803b1580156105fc57600080fd5b505afa158015610610573d6000803e3d6000fd5b505050506040513d602081101561062657600080fd5b50516040805192835260208301919091528051918290030190a15b50565b60015481565b6002546001600160a01b031681565b62278d0081565b6003546001600160a01b031681565b61067761070f565b6106b6576040805162461bcd60e51b8152602060048201819052602482015260008051602061099b833981519152604482015290519081900360640190fd5b600080546040516001600160a01b03909116907f8be0079c531659141344cd1fd0a4f28419497f9722a3daafe3b4186f6b6457e0908390a3600080546001600160a01b0319169055565b6000546001600160a01b031690565b6000546001600160a01b0316331490565b6000546001600160a01b031681565b6a084595161401484a00000081565b600061074861070f565b610787576040805162461bcd60e51b8152602060048201819052602482015260008051602061099b833981519152604482015290519081900360640190fd5b826001600160a01b031663a9059cbb61079e610700565b846040518363ffffffff1660e01b815260040180836001600160a01b03166001600160a01b0316815260200182815260200192505050602060405180830381600087803b1580156107ee57600080fd5b505af1158015610802573d6000803e3d6000fd5b505050506040513d602081101561081857600080fd5b50519392505050565b61082961070f565b610868576040805162461bcd60e51b8152602060048201819052602482015260008051602061099b833981519152604482015290519081900360640190fd5b610641816108d2565b6000828201838110156108cb576040805162461bcd60e51b815260206004820152601b60248201527f536166654d6174683a206164646974696f6e206f766572666c6f770000000000604482015290519081900360640190fd5b9392505050565b6001600160a01b0381166109175760405162461bcd60e51b81526004018080602001828103825260288152602001806109736028913960400191505060405180910390fd5b600080546040516001600160a01b03808516939216917f8be0079c531659141344cd1fd0a4f28419497f9722a3daafe3b4186f6b6457e091a3600080546001600160a01b0319166001600160a01b039290921691909117905556fe4f776e61626c653a207573652072656e6f756e6365206f776e65727368697020696e73746561642e4f776e61626c653a2063616c6c65722073686f756c64206265206f776e65722ea265627a7a723158204bcc53fe1008b2671b70b31c11cf3e7e11b6f9ea6ea8fe362ffc308d0ee33d2964736f6c634300051000324f776e61626c653a207573652072656e6f756e6365206f776e65727368697020696e73746561642e8be0079c531659141344cd1fd0a4f28419497f9722a3daafe3b4186f6b6457e04f776e61626c653a2063616c6c65722073686f756c64206265206f776e65722e",
  "source": "pragma solidity 0.5.16;\n\nimport \"./Ownable.sol\";\nimport \"./SafeMath.sol\";\nimport \"./IERC20.sol\";\n\n// ----------------------------------------------------------------------------------\n// Escrow contract to safely store and release the token allocated to Morpher at\n// protocol inception\n// ----------------------------------------------------------------------------------\n\ncontract MorpherEscrow is Ownable{\n    using SafeMath for uint256;\n\n    uint256 public lastEscrowTransferTime;\n    address public recipient;\n    address public morpherToken;\n\n    uint256 public constant RELEASEAMOUNT = 10**25;\n    uint256 public constant RELEASEPERIOD = 30 days;\n\n    event EscrowReleased(uint256 _released, uint256 _leftInEscrow);\n\n    constructor(address _recipientAddress, address _morpherToken, address _coldStorageOwnerAddress) public {\n        setRecipientAddress(_recipientAddress);\n        setMorpherTokenAddress(_morpherToken);\n        lastEscrowTransferTime = now;\n        transferOwnership(_coldStorageOwnerAddress);\n    }\n\n    // ----------------------------------------------------------------------------------\n    // Owner can modify recipient address and update morpherToken adddress\n    // ----------------------------------------------------------------------------------\n    function setRecipientAddress(address _recipientAddress) public onlyOwner {\n        recipient = _recipientAddress;\n    }\n\n    function setMorpherTokenAddress(address _address) public onlyOwner {\n        morpherToken = _address;\n    }\n\n    // ----------------------------------------------------------------------------------\n    // Anyone can release funds from escrow if enough time has elapsed\n    // Every 30 days 1% of the total initial supply or 10m token are released to Morpher\n    // ----------------------------------------------------------------------------------\n    function releaseFromEscrow() public {\n        require(IERC20(morpherToken).balanceOf(address(this)) > 0, \"No funds left in escrow.\");\n        uint256 _releasedAmount;\n        if (now > lastEscrowTransferTime.add(RELEASEPERIOD)) {\n            if (IERC20(morpherToken).balanceOf(address(this)) > RELEASEAMOUNT) {\n                _releasedAmount = RELEASEAMOUNT;\n            } else {\n                _releasedAmount = IERC20(morpherToken).balanceOf(address(this));\n            }\n            IERC20(morpherToken).transfer(recipient, _releasedAmount);\n            lastEscrowTransferTime = lastEscrowTransferTime.add(RELEASEPERIOD);\n            emit EscrowReleased(_releasedAmount, IERC20(morpherToken).balanceOf(address(this)));\n        }\n    }\n}\n",
  "sourcePath": "/Users/thomas/Projects/Morpher/MorpherProtocol/contracts/MorpherEscrow.sol",
  "compiler": {
    "name": "solc",
    "version": "0.5.16+commit.9c3226ce.Emscripten.clang"
  },
  "schemaVersion": "3.4.11",
  "updatedAt": "2023-04-17T13:41:06.411Z",
  "networkType": "ethereum",
  "devdoc": {
    "methods": {
      "isOwner()": {
        "return": "true if `msg.sender` is the owner of the contract."
      },
      "owner()": {
        "return": "the address of the owner."
      },
      "renounceOwnership()": {
        "details": "Allows the current owner to relinquish control of the contract. It will not be possible to call the functions with the `onlyOwner` modifier anymore."
      },
      "transferOwnership(address)": {
        "details": "Allows the current owner to transfer control of the contract to a newOwner.",
        "params": {
          "newOwner": "The address to transfer ownership to."
        }
      }
    }
  },
  "userdoc": {
    "methods": {
      "renounceOwnership()": {
        "notice": "Renouncing ownership will leave the contract without an owner, thereby removing any functionality that is only available to the owner."
      }
    }
  }
}