{
  "contractName": "MorpherOracle",
  "abi": [
    {
      "anonymous": false,
      "inputs": [
        {
          "indexed": false,
          "internalType": "address",
          "name": "_address",
          "type": "address"
        }
      ],
      "name": "AddressBlackListed",
      "type": "event"
    },
    {
      "anonymous": false,
      "inputs": [
        {
          "indexed": false,
          "internalType": "address",
          "name": "_address",
          "type": "address"
        }
      ],
      "name": "AddressWhiteListed",
      "type": "event"
    },
    {
      "anonymous": false,
      "inputs": [
        {
          "indexed": true,
          "internalType": "bytes32",
          "name": "_orderId",
          "type": "bytes32"
        },
        {
          "indexed": true,
          "internalType": "address",
          "name": "_address",
          "type": "address"
        },
        {
          "indexed": true,
          "internalType": "bytes32",
          "name": "_marketId",
          "type": "bytes32"
        },
        {
          "indexed": false,
          "internalType": "uint256",
          "name": "_closeSharesAmount",
          "type": "uint256"
        },
        {
          "indexed": false,
          "internalType": "uint256",
          "name": "_openMPHTokenAmount",
          "type": "uint256"
        },
        {
          "indexed": false,
          "internalType": "bool",
          "name": "_tradeDirection",
          "type": "bool"
        },
        {
          "indexed": false,
          "internalType": "uint256",
          "name": "_orderLeverage",
          "type": "uint256"
        }
      ],
      "name": "AdminLiquidationOrderCreated",
      "type": "event"
    },
    {
      "anonymous": false,
      "inputs": [
        {
          "indexed": true,
          "internalType": "bytes32",
          "name": "_orderId",
          "type": "bytes32"
        },
        {
          "indexed": true,
          "internalType": "address",
          "name": "_sender",
          "type": "address"
        },
        {
          "indexed": true,
          "internalType": "address",
          "name": "_oracleAddress",
          "type": "address"
        }
      ],
      "name": "AdminOrderCancelled",
      "type": "event"
    },
    {
      "anonymous": false,
      "inputs": [
        {
          "indexed": false,
          "internalType": "address",
          "name": "_address",
          "type": "address"
        }
      ],
      "name": "CallBackCollectionAddressChange",
      "type": "event"
    },
    {
      "anonymous": false,
      "inputs": [
        {
          "indexed": true,
          "internalType": "address",
          "name": "_address",
          "type": "address"
        }
      ],
      "name": "CallbackAddressDisabled",
      "type": "event"
    },
    {
      "anonymous": false,
      "inputs": [
        {
          "indexed": true,
          "internalType": "address",
          "name": "_address",
          "type": "address"
        }
      ],
      "name": "CallbackAddressEnabled",
      "type": "event"
    },
    {
      "anonymous": false,
      "inputs": [
        {
          "indexed": false,
          "internalType": "bytes32",
          "name": "_marketId",
          "type": "bytes32"
        }
      ],
      "name": "DelistMarketComplete",
      "type": "event"
    },
    {
      "anonymous": false,
      "inputs": [
        {
          "indexed": false,
          "internalType": "bytes32",
          "name": "_marketId",
          "type": "bytes32"
        },
        {
          "indexed": false,
          "internalType": "uint256",
          "name": "_processedUntilIndex",
          "type": "uint256"
        }
      ],
      "name": "DelistMarketIncomplete",
      "type": "event"
    },
    {
      "anonymous": false,
      "inputs": [
        {
          "indexed": false,
          "internalType": "address",
          "name": "_address",
          "type": "address"
        }
      ],
      "name": "LinkMorpherState",
      "type": "event"
    },
    {
      "anonymous": false,
      "inputs": [
        {
          "indexed": false,
          "internalType": "address",
          "name": "_address",
          "type": "address"
        }
      ],
      "name": "LinkTradeEngine",
      "type": "event"
    },
    {
      "anonymous": false,
      "inputs": [
        {
          "indexed": true,
          "internalType": "bytes32",
          "name": "_orderId",
          "type": "bytes32"
        },
        {
          "indexed": false,
          "internalType": "address",
          "name": "_sender",
          "type": "address"
        },
        {
          "indexed": true,
          "internalType": "address",
          "name": "_address",
          "type": "address"
        },
        {
          "indexed": true,
          "internalType": "bytes32",
          "name": "_marketId",
          "type": "bytes32"
        }
      ],
      "name": "LiquidationOrderCreated",
      "type": "event"
    },
    {
      "anonymous": false,
      "inputs": [
        {
          "indexed": false,
          "internalType": "bytes32",
          "name": "_marketId",
          "type": "bytes32"
        },
        {
          "indexed": false,
          "internalType": "uint256",
          "name": "_price",
          "type": "uint256"
        }
      ],
      "name": "LockedPriceForClosingPositions",
      "type": "event"
    },
    {
      "anonymous": false,
      "inputs": [
        {
          "indexed": false,
          "internalType": "bool",
          "name": "_paused",
          "type": "bool"
        }
      ],
      "name": "OraclePaused",
      "type": "event"
    },
    {
      "anonymous": false,
      "inputs": [
        {
          "indexed": true,
          "internalType": "bytes32",
          "name": "_orderId",
          "type": "bytes32"
        },
        {
          "indexed": true,
          "internalType": "address",
          "name": "_sender",
          "type": "address"
        }
      ],
      "name": "OrderCancellationRequestedEvent",
      "type": "event"
    },
    {
      "anonymous": false,
      "inputs": [
        {
          "indexed": true,
          "internalType": "bytes32",
          "name": "_orderId",
          "type": "bytes32"
        },
        {
          "indexed": true,
          "internalType": "address",
          "name": "_sender",
          "type": "address"
        },
        {
          "indexed": true,
          "internalType": "address",
          "name": "_oracleAddress",
          "type": "address"
        }
      ],
      "name": "OrderCancelled",
      "type": "event"
    },
    {
      "anonymous": false,
      "inputs": [
        {
          "indexed": true,
          "internalType": "bytes32",
          "name": "_orderId",
          "type": "bytes32"
        },
        {
          "indexed": true,
          "internalType": "address",
          "name": "_address",
          "type": "address"
        },
        {
          "indexed": true,
          "internalType": "bytes32",
          "name": "_marketId",
          "type": "bytes32"
        },
        {
          "indexed": false,
          "internalType": "uint256",
          "name": "_closeSharesAmount",
          "type": "uint256"
        },
        {
          "indexed": false,
          "internalType": "uint256",
          "name": "_openMPHTokenAmount",
          "type": "uint256"
        },
        {
          "indexed": false,
          "internalType": "bool",
          "name": "_tradeDirection",
          "type": "bool"
        },
        {
          "indexed": false,
          "internalType": "uint256",
          "name": "_orderLeverage",
          "type": "uint256"
        },
        {
          "indexed": false,
          "internalType": "uint256",
          "name": "_onlyIfPriceBelow",
          "type": "uint256"
        },
        {
          "indexed": false,
          "internalType": "uint256",
          "name": "_onlyIfPriceAbove",
          "type": "uint256"
        },
        {
          "indexed": false,
          "internalType": "uint256",
          "name": "_goodFrom",
          "type": "uint256"
        },
        {
          "indexed": false,
          "internalType": "uint256",
          "name": "_goodUntil",
          "type": "uint256"
        }
      ],
      "name": "OrderCreated",
      "type": "event"
    },
    {
      "anonymous": false,
      "inputs": [
        {
          "indexed": true,
          "internalType": "bytes32",
          "name": "_orderId",
          "type": "bytes32"
        },
        {
          "indexed": true,
          "internalType": "address",
          "name": "_address",
          "type": "address"
        },
        {
          "indexed": true,
          "internalType": "bytes32",
          "name": "_marketId",
          "type": "bytes32"
        },
        {
          "indexed": false,
          "internalType": "uint256",
          "name": "_closeSharesAmount",
          "type": "uint256"
        },
        {
          "indexed": false,
          "internalType": "uint256",
          "name": "_openMPHTokenAmount",
          "type": "uint256"
        },
        {
          "indexed": false,
          "internalType": "bool",
          "name": "_tradeDirection",
          "type": "bool"
        },
        {
          "indexed": false,
          "internalType": "uint256",
          "name": "_orderLeverage",
          "type": "uint256"
        },
        {
          "indexed": false,
          "internalType": "uint256",
          "name": "_onlyIfPriceBelow",
          "type": "uint256"
        },
        {
          "indexed": false,
          "internalType": "uint256",
          "name": "_onlyIfPriceAbove",
          "type": "uint256"
        },
        {
          "indexed": false,
          "internalType": "uint256",
          "name": "_goodFrom",
          "type": "uint256"
        },
        {
          "indexed": false,
          "internalType": "uint256",
          "name": "_goodUntil",
          "type": "uint256"
        }
      ],
      "name": "OrderFailed",
      "type": "event"
    },
    {
      "anonymous": false,
      "inputs": [
        {
          "indexed": true,
          "internalType": "bytes32",
          "name": "_orderId",
          "type": "bytes32"
        },
        {
          "indexed": false,
          "internalType": "uint256",
          "name": "_price",
          "type": "uint256"
        },
        {
          "indexed": false,
          "internalType": "uint256",
          "name": "_unadjustedMarketPrice",
          "type": "uint256"
        },
        {
          "indexed": false,
          "internalType": "uint256",
          "name": "_spread",
          "type": "uint256"
        },
        {
          "indexed": false,
          "internalType": "uint256",
          "name": "_positionLiquidationTimestamp",
          "type": "uint256"
        },
        {
          "indexed": false,
          "internalType": "uint256",
          "name": "_timeStamp",
          "type": "uint256"
        },
        {
          "indexed": false,
          "internalType": "uint256",
          "name": "_newLongShares",
          "type": "uint256"
        },
        {
          "indexed": false,
          "internalType": "uint256",
          "name": "_newShortShares",
          "type": "uint256"
        },
        {
          "indexed": false,
          "internalType": "uint256",
          "name": "_newMeanEntry",
          "type": "uint256"
        },
        {
          "indexed": false,
          "internalType": "uint256",
          "name": "_newMeanSprad",
          "type": "uint256"
        },
        {
          "indexed": false,
          "internalType": "uint256",
          "name": "_newMeanLeverage",
          "type": "uint256"
        },
        {
          "indexed": false,
          "internalType": "uint256",
          "name": "_liquidationPrice",
          "type": "uint256"
        }
      ],
      "name": "OrderProcessed",
      "type": "event"
    },
    {
      "anonymous": false,
      "inputs": [
        {
          "indexed": false,
          "internalType": "address",
          "name": "account",
          "type": "address"
        }
      ],
      "name": "Paused",
      "type": "event"
    },
    {
      "anonymous": false,
      "inputs": [
        {
          "indexed": false,
          "internalType": "uint256",
          "name": "_gasForCallback",
          "type": "uint256"
        }
      ],
      "name": "SetGasForCallback",
      "type": "event"
    },
    {
      "anonymous": false,
      "inputs": [
        {
          "indexed": false,
          "internalType": "bool",
          "name": "_useWhiteList",
          "type": "bool"
        }
      ],
      "name": "SetUseWhiteList",
      "type": "event"
    },
    {
      "anonymous": false,
      "inputs": [
        {
          "indexed": false,
          "internalType": "address",
          "name": "account",
          "type": "address"
        }
      ],
      "name": "Unpaused",
      "type": "event"
    },
    {
      "inputs": [],
      "name": "ADMINISTRATOR_ROLE",
      "outputs": [
        {
          "internalType": "bytes32",
          "name": "",
          "type": "bytes32"
        }
      ],
      "stateMutability": "view",
      "type": "function",
      "constant": true
    },
    {
      "inputs": [],
      "name": "ORACLEOPERATOR_ROLE",
      "outputs": [
        {
          "internalType": "bytes32",
          "name": "",
          "type": "bytes32"
        }
      ],
      "stateMutability": "view",
      "type": "function",
      "constant": true
    },
    {
      "inputs": [],
      "name": "PAUSER_ROLE",
      "outputs": [
        {
          "internalType": "bytes32",
          "name": "",
          "type": "bytes32"
        }
      ],
      "stateMutability": "view",
      "type": "function",
      "constant": true
    },
    {
      "inputs": [
        {
          "internalType": "address",
          "name": "",
          "type": "address"
        }
      ],
      "name": "callBackAddress",
      "outputs": [
        {
          "internalType": "bool",
          "name": "",
          "type": "bool"
        }
      ],
      "stateMutability": "view",
      "type": "function",
      "constant": true
    },
    {
      "inputs": [],
      "name": "callBackCollectionAddress",
      "outputs": [
        {
          "internalType": "address payable",
          "name": "",
          "type": "address"
        }
      ],
      "stateMutability": "view",
      "type": "function",
      "constant": true
    },
    {
      "inputs": [],
      "name": "gasForCallback",
      "outputs": [
        {
          "internalType": "uint256",
          "name": "",
          "type": "uint256"
        }
      ],
      "stateMutability": "view",
      "type": "function",
      "constant": true
    },
    {
      "inputs": [
        {
          "internalType": "bytes32",
          "name": "",
          "type": "bytes32"
        }
      ],
      "name": "goodFrom",
      "outputs": [
        {
          "internalType": "uint256",
          "name": "",
          "type": "uint256"
        }
      ],
      "stateMutability": "view",
      "type": "function",
      "constant": true
    },
    {
      "inputs": [
        {
          "internalType": "bytes32",
          "name": "",
          "type": "bytes32"
        }
      ],
      "name": "goodUntil",
      "outputs": [
        {
          "internalType": "uint256",
          "name": "",
          "type": "uint256"
        }
      ],
      "stateMutability": "view",
      "type": "function",
      "constant": true
    },
    {
      "inputs": [
        {
          "internalType": "bytes32",
          "name": "",
          "type": "bytes32"
        }
      ],
      "name": "orderCancellationRequested",
      "outputs": [
        {
          "internalType": "bool",
          "name": "",
          "type": "bool"
        }
      ],
      "stateMutability": "view",
      "type": "function",
      "constant": true
    },
    {
      "inputs": [],
      "name": "paused",
      "outputs": [
        {
          "internalType": "bool",
          "name": "",
          "type": "bool"
        }
      ],
      "stateMutability": "view",
      "type": "function",
      "constant": true
    },
    {
      "inputs": [
        {
          "internalType": "bytes32",
          "name": "",
          "type": "bytes32"
        }
      ],
      "name": "priceAbove",
      "outputs": [
        {
          "internalType": "uint256",
          "name": "",
          "type": "uint256"
        }
      ],
      "stateMutability": "view",
      "type": "function",
      "constant": true
    },
    {
      "inputs": [
        {
          "internalType": "bytes32",
          "name": "",
          "type": "bytes32"
        }
      ],
      "name": "priceBelow",
      "outputs": [
        {
          "internalType": "uint256",
          "name": "",
          "type": "uint256"
        }
      ],
      "stateMutability": "view",
      "type": "function",
      "constant": true
    },
    {
      "inputs": [],
      "name": "useWhiteList",
      "outputs": [
        {
          "internalType": "bool",
          "name": "",
          "type": "bool"
        }
      ],
      "stateMutability": "view",
      "type": "function",
      "constant": true
    },
    {
      "inputs": [
        {
          "internalType": "address",
          "name": "",
          "type": "address"
        }
      ],
      "name": "whiteList",
      "outputs": [
        {
          "internalType": "bool",
          "name": "",
          "type": "bool"
        }
      ],
      "stateMutability": "view",
      "type": "function",
      "constant": true
    },
    {
      "inputs": [
        {
          "internalType": "address",
          "name": "_morpherState",
          "type": "address"
        },
        {
          "internalType": "address payable",
          "name": "_gasCollectionAddress",
          "type": "address"
        },
        {
          "internalType": "uint256",
          "name": "_gasForCallback",
          "type": "uint256"
        }
      ],
      "name": "initialize",
      "outputs": [],
      "stateMutability": "nonpayable",
      "type": "function"
    },
    {
      "inputs": [
        {
          "internalType": "address",
          "name": "_address",
          "type": "address"
        }
      ],
      "name": "setStateAddress",
      "outputs": [],
      "stateMutability": "nonpayable",
      "type": "function"
    },
    {
      "inputs": [
        {
          "internalType": "uint256",
          "name": "_gasForCallback",
          "type": "uint256"
        }
      ],
      "name": "overrideGasForCallback",
      "outputs": [],
      "stateMutability": "nonpayable",
      "type": "function"
    },
    {
      "inputs": [
        {
          "internalType": "address payable",
          "name": "_address",
          "type": "address"
        }
      ],
      "name": "setCallbackCollectionAddress",
      "outputs": [],
      "stateMutability": "nonpayable",
      "type": "function"
    },
    {
      "inputs": [
        {
          "internalType": "bytes32",
          "name": "_orderId",
          "type": "bytes32"
        },
        {
          "internalType": "address",
          "name": "_address",
          "type": "address"
        },
        {
          "internalType": "bytes32",
          "name": "_marketId",
          "type": "bytes32"
        },
        {
          "internalType": "uint256",
          "name": "_closeSharesAmount",
          "type": "uint256"
        },
        {
          "internalType": "uint256",
          "name": "_openMPHTokenAmount",
          "type": "uint256"
        },
        {
          "internalType": "bool",
          "name": "_tradeDirection",
          "type": "bool"
        },
        {
          "internalType": "uint256",
          "name": "_orderLeverage",
          "type": "uint256"
        },
        {
          "internalType": "uint256",
          "name": "_onlyIfPriceBelow",
          "type": "uint256"
        },
        {
          "internalType": "uint256",
          "name": "_onlyIfPriceAbove",
          "type": "uint256"
        },
        {
          "internalType": "uint256",
          "name": "_goodFrom",
          "type": "uint256"
        },
        {
          "internalType": "uint256",
          "name": "_goodUntil",
          "type": "uint256"
        }
      ],
      "name": "emitOrderFailed",
      "outputs": [],
      "stateMutability": "nonpayable",
      "type": "function"
    },
    {
      "inputs": [
        {
          "internalType": "bytes32",
          "name": "_marketId",
          "type": "bytes32"
        },
        {
          "internalType": "uint256",
          "name": "_closeSharesAmount",
          "type": "uint256"
        },
        {
          "internalType": "uint256",
          "name": "_openMPHTokenAmount",
          "type": "uint256"
        },
        {
          "internalType": "bool",
          "name": "_tradeDirection",
          "type": "bool"
        },
        {
          "internalType": "uint256",
          "name": "_orderLeverage",
          "type": "uint256"
        },
        {
          "internalType": "uint256",
          "name": "_onlyIfPriceAbove",
          "type": "uint256"
        },
        {
          "internalType": "uint256",
          "name": "_onlyIfPriceBelow",
          "type": "uint256"
        },
        {
          "internalType": "uint256",
          "name": "_goodUntil",
          "type": "uint256"
        },
        {
          "internalType": "uint256",
          "name": "_goodFrom",
          "type": "uint256"
        }
      ],
      "name": "createOrder",
      "outputs": [
        {
          "internalType": "bytes32",
          "name": "_orderId",
          "type": "bytes32"
        }
      ],
      "stateMutability": "payable",
      "type": "function",
      "payable": true
    },
    {
      "inputs": [
        {
          "internalType": "bytes32",
          "name": "_orderId",
          "type": "bytes32"
        }
      ],
      "name": "initiateCancelOrder",
      "outputs": [],
      "stateMutability": "nonpayable",
      "type": "function"
    },
    {
      "inputs": [
        {
          "internalType": "bytes32",
          "name": "_orderId",
          "type": "bytes32"
        }
      ],
      "name": "cancelOrder",
      "outputs": [],
      "stateMutability": "nonpayable",
      "type": "function"
    },
    {
      "inputs": [
        {
          "internalType": "bytes32",
          "name": "_orderId",
          "type": "bytes32"
        }
      ],
      "name": "adminCancelOrder",
      "outputs": [],
      "stateMutability": "nonpayable",
      "type": "function"
    },
    {
      "inputs": [
        {
          "internalType": "bytes32",
          "name": "_orderId",
          "type": "bytes32"
        },
        {
          "internalType": "uint256",
          "name": "_price",
          "type": "uint256"
        }
      ],
      "name": "checkOrderConditions",
      "outputs": [
        {
          "internalType": "bool",
          "name": "_conditionsMet",
          "type": "bool"
        }
      ],
      "stateMutability": "view",
      "type": "function",
      "constant": true
    },
    {
      "inputs": [],
      "name": "pause",
      "outputs": [],
      "stateMutability": "nonpayable",
      "type": "function"
    },
    {
      "inputs": [],
      "name": "unpause",
      "outputs": [],
      "stateMutability": "nonpayable",
      "type": "function"
    },
    {
      "inputs": [
        {
          "internalType": "address",
          "name": "_address",
          "type": "address"
        },
        {
          "internalType": "bytes32",
          "name": "_marketId",
          "type": "bytes32"
        }
      ],
      "name": "createLiquidationOrder",
      "outputs": [
        {
          "internalType": "bytes32",
          "name": "_orderId",
          "type": "bytes32"
        }
      ],
      "stateMutability": "payable",
      "type": "function",
      "payable": true
    },
    {
      "inputs": [
        {
          "internalType": "bytes32",
          "name": "_orderId",
          "type": "bytes32"
        },
        {
          "internalType": "uint256",
          "name": "_price",
          "type": "uint256"
        },
        {
          "internalType": "uint256",
          "name": "_unadjustedMarketPrice",
          "type": "uint256"
        },
        {
          "internalType": "uint256",
          "name": "_spread",
          "type": "uint256"
        },
        {
          "internalType": "uint256",
          "name": "_liquidationTimestamp",
          "type": "uint256"
        },
        {
          "internalType": "uint256",
          "name": "_timeStamp",
          "type": "uint256"
        },
        {
          "internalType": "uint256",
          "name": "_gasForNextCallback",
          "type": "uint256"
        }
      ],
      "name": "__callback",
      "outputs": [
        {
          "components": [
            {
              "internalType": "uint256",
              "name": "lastUpdated",
              "type": "uint256"
            },
            {
              "internalType": "uint256",
              "name": "longShares",
              "type": "uint256"
            },
            {
              "internalType": "uint256",
              "name": "shortShares",
              "type": "uint256"
            },
            {
              "internalType": "uint256",
              "name": "meanEntryPrice",
              "type": "uint256"
            },
            {
              "internalType": "uint256",
              "name": "meanEntrySpread",
              "type": "uint256"
            },
            {
              "internalType": "uint256",
              "name": "meanEntryLeverage",
              "type": "uint256"
            },
            {
              "internalType": "uint256",
              "name": "liquidationPrice",
              "type": "uint256"
            },
            {
              "internalType": "bytes32",
              "name": "positionHash",
              "type": "bytes32"
            }
          ],
          "internalType": "struct MorpherTradeEngine.position",
          "name": "createdPosition",
          "type": "tuple"
        }
      ],
      "stateMutability": "nonpayable",
      "type": "function"
    },
    {
      "inputs": [
        {
          "internalType": "bytes32",
          "name": "_marketId",
          "type": "bytes32"
        },
        {
          "internalType": "bool",
          "name": "_startFromScratch",
          "type": "bool"
        }
      ],
      "name": "delistMarket",
      "outputs": [],
      "stateMutability": "nonpayable",
      "type": "function"
    },
    {
      "inputs": [
        {
          "internalType": "address",
          "name": "_address",
          "type": "address"
        },
        {
          "internalType": "bytes32",
          "name": "_marketId",
          "type": "bytes32"
        }
      ],
      "name": "adminLiquidationOrder",
      "outputs": [
        {
          "internalType": "bytes32",
          "name": "_orderId",
          "type": "bytes32"
        }
      ],
      "stateMutability": "nonpayable",
      "type": "function"
    }
  ],
  "bytecode": "0x608060405234801561001057600080fd5b506136b9806100206000396000f3fe6080604052600436106101cd5760003560e01c80637dd63e1d116100f7578063aeb2cc3311610095578063d99f867411610064578063d99f8674146105c7578063e087e3ce146105e8578063e63ab1e914610615578063f45edb5f1461064957600080fd5b8063aeb2cc3314610520578063b95e437b1461054d578063c7f4532d1461056d578063d204bc6c1461059a57600080fd5b806385e75e72116100d157806385e75e721461049d57806388deab73146104bd5780638adbe72f146104dd57806399614d181461050d57600080fd5b80637dd63e1d146103e75780637e031af2146104685780638456cb591461048857600080fd5b80633f4ba83a1161016f5780636b0ed36e1161013e5780636b0ed36e146103575780637489ec231461038757806374d94024146103a75780637848d1df146103c757600080fd5b80633f4ba83a146102df57806350a5fdef146102f45780635c975abb1461030757806367aa1e0f1461031f57600080fd5b80632ac21a48116101ab5780632ac21a481461023d578063372c12b11461025f57806338bd3ad11461029f5780633a196bab146102bf57600080fd5b806316afdfd3146101d25780631794bb3c146101fb5780631c4c7fd81461021d575b600080fd5b3480156101de57600080fd5b506101e860665481565b6040519081526020015b60405180910390f35b34801561020757600080fd5b5061021b6102163660046130ad565b61066b565b005b34801561022957600080fd5b5061021b6102383660046130ee565b610769565b34801561024957600080fd5b506101e860008051602061366483398151915281565b34801561026b57600080fd5b5061028f61027a3660046130ee565b60696020526000908152604090205460ff1681565b60405190151581526020016101f2565b3480156102ab57600080fd5b5061021b6102ba366004613112565b6108d4565b3480156102cb57600080fd5b5061021b6102da366004613139565b610ba6565b3480156102eb57600080fd5b5061021b611038565b6101e8610302366004613169565b61116a565b34801561031357600080fd5b5060335460ff1661028f565b34801561032b57600080fd5b5060675461033f906001600160a01b031681565b6040516001600160a01b0390911681526020016101f2565b34801561036357600080fd5b5061028f610372366004613112565b606e6020526000908152604090205460ff1681565b34801561039357600080fd5b5061021b6103a2366004613112565b611456565b3480156103b357600080fd5b5061021b6103c2366004613112565b6117a8565b3480156103d357600080fd5b506101e86103e2366004613169565b6119e7565b3480156103f357600080fd5b50610407610402366004613195565b611ec1565b6040516101f29190600061010082019050825182526020830151602083015260408301516040830152606083015160608301526080830151608083015260a083015160a083015260c083015160c083015260e083015160e083015292915050565b34801561047457600080fd5b5061028f6104833660046131e1565b612260565b34801561049457600080fd5b5061021b61239c565b3480156104a957600080fd5b5061021b6104b8366004613112565b6124cb565b3480156104c957600080fd5b5061021b6104d83660046130ee565b612615565b3480156104e957600080fd5b5061028f6104f83660046130ee565b60686020526000908152604090205460ff1681565b6101e861051b366004613203565b612778565b34801561052c57600080fd5b506101e861053b366004613112565b606b6020526000908152604090205481565b34801561055957600080fd5b5061021b610568366004613272565b612d4f565b34801561057957600080fd5b506101e8610588366004613112565b606d6020526000908152604090205481565b3480156105a657600080fd5b506101e86105b5366004613112565b606a6020526000908152604090205481565b3480156105d357600080fd5b5060655461028f90600160a01b900460ff1681565b3480156105f457600080fd5b506101e8610603366004613112565b606c6020526000908152604090205481565b34801561062157600080fd5b506101e87f65d7a28e3265b37a6474929f336521b332c1681b933f6cb9f3376673440d862a81565b34801561065557600080fd5b506101e860008051602061364483398151915281565b600054610100900460ff166106865760005460ff161561068a565b303b155b6106f25760405162461bcd60e51b815260206004820152602e60248201527f496e697469616c697a61626c653a20636f6e747261637420697320616c72656160448201526d191e481a5b9a5d1a585b1a5e995960921b60648201526084015b60405180910390fd5b600054610100900460ff16158015610714576000805461ffff19166101011790555b61071c612ee7565b610724612f10565b606580546001600160a01b0319166001600160a01b03861617905561074883612615565b61075182612f3f565b8015610763576000805461ff00191690555b50505050565b60655460408051630140cb6560e51b81529051600080516020613644833981519152926001600160a01b0316916328196ca09160048083019260209291908290030181865afa1580156107c0573d6000803e3d6000fd5b505050506040513d601f19601f820116820180604052508101906107e49190613302565b6001600160a01b03166391d1485482336040516001600160e01b031960e085901b16815260048101929092526001600160a01b03166024820152604401602060405180830381865afa15801561083e573d6000803e3d6000fd5b505050506040513d601f19601f82011682018060405250810190610862919061331f565b61087e5760405162461bcd60e51b81526004016106e99061333c565b606580546001600160a01b0319166001600160a01b0384169081179091556040519081527f9ceaf926f42b3faf9a5f7f52388397891ad1608576994e5c3b2d055a09bb225f906020015b60405180910390a15050565b60655460408051630140cb6560e51b81529051600080516020613664833981519152926001600160a01b0316916328196ca09160048083019260209291908290030181865afa15801561092b573d6000803e3d6000fd5b505050506040513d601f19601f8201168201806040525081019061094f9190613302565b6001600160a01b03166391d1485482336040516001600160e01b031960e085901b16815260048101929092526001600160a01b03166024820152604401602060405180830381865afa1580156109a9573d6000803e3d6000fd5b505050506040513d601f19601f820116820180604052508101906109cd919061331f565b6109e95760405162461bcd60e51b81526004016106e99061333c565b6065546040805163d37afa8d60e01b815290516000926001600160a01b03169163d37afa8d9160048083019260209291908290030181865afa158015610a33573d6000803e3d6000fd5b505050506040513d601f19601f82011682018060405250810190610a579190613302565b604051632bbc239560e11b8152600481018590529091506000906001600160a01b03831690635778472a9060240160e060405180830381865afa158015610aa2573d6000803e3d6000fd5b505050506040513d601f19601f82011682018060405250810190610ac6919061337d565b5050604051636b0d76bd60e11b8152600481018a90526001600160a01b0380871660248301529596509487169463d61aed7a94506044019250610b07915050565b600060405180830381600087803b158015610b2157600080fd5b505af1158015610b35573d6000803e3d6000fd5b5050506000858152606b60209081526040808320839055606a8252808320839055606c8252808320839055606d909152808220829055513392506001600160a01b0384169187917fbda7bebff2a349d53ff61a2f625aba38b63add7de03f20f568c660aaf3c61f519190a450505050565b60655460408051630140cb6560e51b81529051600080516020613644833981519152926001600160a01b0316916328196ca09160048083019260209291908290030181865afa158015610bfd573d6000803e3d6000fd5b505050506040513d601f19601f82011682018060405250810190610c219190613302565b6001600160a01b03166391d1485482336040516001600160e01b031960e085901b16815260048101929092526001600160a01b03166024820152604401602060405180830381865afa158015610c7b573d6000803e3d6000fd5b505050506040513d601f19601f82011682018060405250810190610c9f919061331f565b610cbb5760405162461bcd60e51b81526004016106e99061333c565b606554604051634a4cce9760e01b8152600481018590526001600160a01b0390911690634a4cce9790602401602060405180830381865afa158015610d04573d6000803e3d6000fd5b505050506040513d601f19601f82011682018060405250810190610d28919061331f565b1515600114610d9f5760405162461bcd60e51b815260206004820152603760248201527f4d61726b6574206d7573742062652061637469766520746f2070726f6365737360448201527f20706f736974696f6e206c69717569646174696f6e732e00000000000000000060648201526084016106e9565b8115610dab576000606f555b6065546040805163d37afa8d60e01b815290516000926001600160a01b03169163d37afa8d9160048083019260209291908290030181865afa158015610df5573d6000803e3d6000fd5b505050506040513d601f19601f82011682018060405250810190610e199190613302565b6001600160a01b031663ef92f831856040518263ffffffff1660e01b8152600401610e4691815260200190565b602060405180830381865afa158015610e63573d6000803e3d6000fd5b505050506040513d601f19601f82011682018060405250810190610e8791906133da565b606f549091506000905b828111610ffd576203d0905a108015610eaa5750828114155b15610ef557606f81905560408051878152602081018590527f6f7e2b4e250b68477086154afade591035c41aae27a60e044260f031e0f6a1ff910160405180910390a1505050505050565b606560009054906101000a90046001600160a01b03166001600160a01b031663d37afa8d6040518163ffffffff1660e01b8152600401602060405180830381865afa158015610f48573d6000803e3d6000fd5b505050506040513d601f19601f82011682018060405250810190610f6c9190613302565b604051632d7b42c160e01b815260048101889052602481018390526001600160a01b039190911690632d7b42c190604401602060405180830381865afa158015610fba573d6000803e3d6000fd5b505050506040513d601f19601f82011682018060405250810190610fde9190613302565b9150610fea82876119e7565b5080610ff581613409565b915050610e91565b506040518581527f89d629fd4446c04fb00ba5e14060971d7cc08049bb55786f1bb8d4294a5bb95c9060200160405180910390a15050505050565b60655460408051630140cb6560e51b815290517f65d7a28e3265b37a6474929f336521b332c1681b933f6cb9f3376673440d862a926001600160a01b0316916328196ca09160048083019260209291908290030181865afa1580156110a1573d6000803e3d6000fd5b505050506040513d601f19601f820116820180604052508101906110c59190613302565b6001600160a01b03166391d1485482336040516001600160e01b031960e085901b16815260048101929092526001600160a01b03166024820152604401602060405180830381865afa15801561111f573d6000803e3d6000fd5b505050506040513d601f19601f82011682018060405250810190611143919061331f565b61115f5760405162461bcd60e51b81526004016106e99061333c565b611167612f7a565b50565b600061117860335460ff1690565b156111955760405162461bcd60e51b81526004016106e990613424565b60655460408051630140cb6560e51b81529051600080516020613664833981519152926001600160a01b0316916328196ca09160048083019260209291908290030181865afa1580156111ec573d6000803e3d6000fd5b505050506040513d601f19601f820116820180604052508101906112109190613302565b6001600160a01b03166391d1485482336040516001600160e01b031960e085901b16815260048101929092526001600160a01b03166024820152604401602060405180830381865afa15801561126a573d6000803e3d6000fd5b505050506040513d601f19601f8201168201806040525081019061128e919061331f565b6112aa5760405162461bcd60e51b81526004016106e99061333c565b6066541561130f576066543410156112d45760405162461bcd60e51b81526004016106e99061344e565b6067546040516001600160a01b03909116903480156108fc02916000818181858888f1935050505015801561130d573d6000803e3d6000fd5b505b606560009054906101000a90046001600160a01b03166001600160a01b031663d37afa8d6040518163ffffffff1660e01b8152600401602060405180830381865afa158015611362573d6000803e3d6000fd5b505050506040513d601f19601f820116820180604052508101906113869190613302565b6001600160a01b031663ac8f6f7f858560008060016305f5e1006040518763ffffffff1660e01b81526004016113c1969594939291906134b8565b6020604051808303816000875af11580156113e0573d6000803e3d6000fd5b505050506040513d601f19601f8201168201806040525081019061140491906133da565b9150826001600160a01b038516837f1e73a21af9c77a375ee7275ea920afd5c4b6170bc8e21c0cfeeae8139a3cea09336040516001600160a01b03909116815260200160405180910390a45092915050565b60655460408051630140cb6560e51b81529051600080516020613664833981519152926001600160a01b0316916328196ca09160048083019260209291908290030181865afa1580156114ad573d6000803e3d6000fd5b505050506040513d601f19601f820116820180604052508101906114d19190613302565b6001600160a01b03166391d1485482336040516001600160e01b031960e085901b16815260048101929092526001600160a01b03166024820152604401602060405180830381865afa15801561152b573d6000803e3d6000fd5b505050506040513d601f19601f8201168201806040525081019061154f919061331f565b61156b5760405162461bcd60e51b81526004016106e99061333c565b6000828152606e602052604090205460ff1615156001146115eb5760405162461bcd60e51b815260206004820152603460248201527f4d6f72706865724f7261636c653a204f726465722d43616e63656c6c6174696f60448201527337103bb0b9903737ba103932b8bab2b9ba32b21760611b60648201526084016106e9565b6065546040805163d37afa8d60e01b815290516000926001600160a01b03169163d37afa8d9160048083019260209291908290030181865afa158015611635573d6000803e3d6000fd5b505050506040513d601f19601f820116820180604052508101906116599190613302565b604051632bbc239560e11b8152600481018590529091506000906001600160a01b03831690635778472a9060240160e060405180830381865afa1580156116a4573d6000803e3d6000fd5b505050506040513d601f19601f820116820180604052508101906116c8919061337d565b5050604051636b0d76bd60e11b8152600481018a90526001600160a01b0380871660248301529596509487169463d61aed7a94506044019250611709915050565b600060405180830381600087803b15801561172357600080fd5b505af1158015611737573d6000803e3d6000fd5b5050506000858152606b60209081526040808320839055606a8252808320839055606c8252808320839055606d909152808220829055513392506001600160a01b0384169187917f6bacc01dbe442496068f7d234edd811f1a5f833243e0aec824f86ab861f3c90d9190a450505050565b6065546040805163d37afa8d60e01b815290516000926001600160a01b03169163d37afa8d9160048083019260209291908290030181865afa1580156117f2573d6000803e3d6000fd5b505050506040513d601f19601f820116820180604052508101906118169190613302565b6000838152606e602052604090205490915060ff161561188b5760405162461bcd60e51b815260206004820152602a60248201527f4d6f72706865724f7261636c653a204f726465722077617320616c72656164796044820152691031b0b731b2b632b21760b11b60648201526084016106e9565b604051632bbc239560e11b8152600481018390526000906001600160a01b03831690635778472a9060240160e060405180830381865afa1580156118d3573d6000803e3d6000fd5b505050506040513d601f19601f820116820180604052508101906118f7919061337d565b50505050505090506119063390565b6001600160a01b0316816001600160a01b03161461198c5760405162461bcd60e51b815260206004820152603f60248201527f4d6f72706865724f7261636c653a204f6e6c792074686520757365722063616e60448201527f207265717565737420616e206f726465722063616e63656c6c6174696f6e2e0060648201526084016106e9565b6000838152606e60205260409020805460ff191660011790556119ac3390565b6001600160a01b0316837f02487731041c5966b7038b3e0d347a232658f9e76e79848ed5fa003ca5f2506360405160405180910390a3505050565b6000600080516020613644833981519152606560009054906101000a90046001600160a01b03166001600160a01b03166328196ca06040518163ffffffff1660e01b8152600401602060405180830381865afa158015611a4b573d6000803e3d6000fd5b505050506040513d601f19601f82011682018060405250810190611a6f9190613302565b6001600160a01b03166391d1485482336040516001600160e01b031960e085901b16815260048101929092526001600160a01b03166024820152604401602060405180830381865afa158015611ac9573d6000803e3d6000fd5b505050506040513d601f19601f82011682018060405250810190611aed919061331f565b611b095760405162461bcd60e51b81526004016106e99061333c565b6065546040805163d37afa8d60e01b815290516000926001600160a01b03169163d37afa8d9160048083019260209291908290030181865afa158015611b53573d6000803e3d6000fd5b505050506040513d601f19601f82011682018060405250810190611b779190613302565b6040516307d47a8b60e11b81526001600160a01b038781166004830152602482018790529190911690630fa8f5169060440161010060405180830381865afa158015611bc7573d6000803e3d6000fd5b505050506040513d601f19601f82011682018060405250810190611beb91906134ed565b602081015190915015611d5557606560009054906101000a90046001600160a01b03166001600160a01b031663d37afa8d6040518163ffffffff1660e01b8152600401602060405180830381865afa158015611c4b573d6000803e3d6000fd5b505050506040513d601f19601f82011682018060405250810190611c6f9190613302565b6001600160a01b031663ac8f6f7f868684602001516000806305f5e1006040518763ffffffff1660e01b8152600401611cad969594939291906134b8565b6020604051808303816000875af1158015611ccc573d6000803e3d6000fd5b505050506040513d601f19601f82011682018060405250810190611cf091906133da565b6020808301516040805191825260009282018390528101919091526305f5e100606082015290935084906001600160a01b0387169085907f68909f9be64c2fb9036bc6c47d8cff89160ee7f28d4e14082931cfcc8e980d779060800160405180910390a45b604081015115611eb957606560009054906101000a90046001600160a01b03166001600160a01b031663d37afa8d6040518163ffffffff1660e01b8152600401602060405180830381865afa158015611db2573d6000803e3d6000fd5b505050506040513d601f19601f82011682018060405250810190611dd69190613302565b6001600160a01b031663ac8f6f7f86868460400151600060016305f5e1006040518763ffffffff1660e01b8152600401611e15969594939291906134b8565b6020604051808303816000875af1158015611e34573d6000803e3d6000fd5b505050506040513d601f19601f82011682018060405250810190611e5891906133da565b6040828101518151908152600060208201526001818301526305f5e1006060820152905191945085916001600160a01b0388169186917f68909f9be64c2fb9036bc6c47d8cff89160ee7f28d4e14082931cfcc8e980d779181900360800190a45b505092915050565b611f0c60405180610100016040528060008152602001600081526020016000815260200160008152602001600081526020016000815260200160008152602001600080191681525090565b60655460408051630140cb6560e51b81529051600080516020613664833981519152926001600160a01b0316916328196ca09160048083019260209291908290030181865afa158015611f63573d6000803e3d6000fd5b505050506040513d601f19601f82011682018060405250810190611f879190613302565b6001600160a01b03166391d1485482336040516001600160e01b031960e085901b16815260048101929092526001600160a01b03166024820152604401602060405180830381865afa158015611fe1573d6000803e3d6000fd5b505050506040513d601f19601f82011682018060405250810190612005919061331f565b6120215760405162461bcd60e51b81526004016106e99061333c565b60335460ff16156120445760405162461bcd60e51b81526004016106e990613424565b61204e8989612260565b6120b45760405162461bcd60e51b815260206004820152603160248201527f4d6f72706865724f7261636c65204572726f723a204f7264657220436f6e64696044820152701d1a5bdb9cc8185c99481b9bdd081b595d607a1b60648201526084016106e9565b606560009054906101000a90046001600160a01b03166001600160a01b031663d37afa8d6040518163ffffffff1660e01b8152600401602060405180830381865afa158015612107573d6000803e3d6000fd5b505050506040513d601f19601f8201168201806040525081019061212b9190613302565b6040516316f77a5b60e01b8152600481018b9052602481018a90526044810188905260648101879052608481018690526001600160a01b0391909116906316f77a5b9060a401610100604051808303816000875af1158015612191573d6000803e3d6000fd5b505050506040513d601f19601f820116820180604052508101906121b591906134ed565b60008a8152606b60209081526040808320839055606a8252808320839055606c8252808320839055606d9091528120559150887ff45eeb03060db0baf36cec20acde5e8464f49340c9877c55029d6ffe0e5cdac18989898989886020015189604001518a606001518b608001518c60a001518d60c001516040516122439b9a9998979695949392919061358b565b60405180910390a261225483612f3f565b50979650505050505050565b6000828152606d60205260409020546001904211801561228d57506000838152606d602052604090205415155b15612296575060005b6000838152606c6020526040902054421080156122c057506000838152606c602052604090205415155b156122c9575060005b6000838152606b6020526040902054158015906122f357506000838152606a602052604090205415155b15612330576000838152606b60205260409020548210801561232257506000838152606a602052604090205482115b1561232b575060005b612396565b6000838152606b60205260409020548210801561235a57506000838152606b602052604090205415155b15612363575060005b6000838152606a60205260409020548211801561238d57506000838152606a602052604090205415155b15612396575060005b92915050565b60655460408051630140cb6560e51b815290517f65d7a28e3265b37a6474929f336521b332c1681b933f6cb9f3376673440d862a926001600160a01b0316916328196ca09160048083019260209291908290030181865afa158015612405573d6000803e3d6000fd5b505050506040513d601f19601f820116820180604052508101906124299190613302565b6001600160a01b03166391d1485482336040516001600160e01b031960e085901b16815260048101929092526001600160a01b03166024820152604401602060405180830381865afa158015612483573d6000803e3d6000fd5b505050506040513d601f19601f820116820180604052508101906124a7919061331f565b6124c35760405162461bcd60e51b81526004016106e99061333c565b61116761300d565b60655460408051630140cb6560e51b81529051600080516020613644833981519152926001600160a01b0316916328196ca09160048083019260209291908290030181865afa158015612522573d6000803e3d6000fd5b505050506040513d601f19601f820116820180604052508101906125469190613302565b6001600160a01b03166391d1485482336040516001600160e01b031960e085901b16815260048101929092526001600160a01b03166024820152604401602060405180830381865afa1580156125a0573d6000803e3d6000fd5b505050506040513d601f19601f820116820180604052508101906125c4919061331f565b6125e05760405162461bcd60e51b81526004016106e99061333c565b60668290556040518281527f0a20b6289d596db2ac25c70c6c69f5e39361ed00454ab483397db8c744ec0b31906020016108c8565b60655460408051630140cb6560e51b81529051600080516020613644833981519152926001600160a01b0316916328196ca09160048083019260209291908290030181865afa15801561266c573d6000803e3d6000fd5b505050506040513d601f19601f820116820180604052508101906126909190613302565b6001600160a01b03166391d1485482336040516001600160e01b031960e085901b16815260048101929092526001600160a01b03166024820152604401602060405180830381865afa1580156126ea573d6000803e3d6000fd5b505050506040513d601f19601f8201168201806040525081019061270e919061331f565b61272a5760405162461bcd60e51b81526004016106e99061333c565b606780546001600160a01b0319166001600160a01b0384169081179091556040519081527f1cd1802fd5b9e82a19a67f7a572c9be656c58ffe140184139d1708b2cfe3a8dc906020016108c8565b600061278660335460ff1690565b156127a35760405162461bcd60e51b81526004016106e990613424565b60665415612808576066543410156127cd5760405162461bcd60e51b81526004016106e99061344e565b6067546040516001600160a01b03909116903480156108fc02916000818181858888f19350505050158015612806573d6000803e3d6000fd5b505b606560009054906101000a90046001600160a01b03166001600160a01b031663d37afa8d6040518163ffffffff1660e01b8152600401602060405180830381865afa15801561285b573d6000803e3d6000fd5b505050506040513d601f19601f8201168201806040525081019061287f9190613302565b6001600160a01b031663ac8f6f7f338c8c8c8c8c6040518763ffffffff1660e01b81526004016128b4969594939291906134b8565b6020604051808303816000875af11580156128d3573d6000803e3d6000fd5b505050506040513d601f19601f820116820180604052508101906128f791906133da565b606554604051634a4cce9760e01b8152600481018d90529192506001600160a01b031690634a4cce9790602401602060405180830381865afa158015612941573d6000803e3d6000fd5b505050506040513d601f19601f82011682018060405250810190612965919061331f565b612ca557606560009054906101000a90046001600160a01b03166001600160a01b031663d37afa8d6040518163ffffffff1660e01b8152600401602060405180830381865afa1580156129bc573d6000803e3d6000fd5b505050506040513d601f19601f820116820180604052508101906129e09190613302565b6001600160a01b03166316f77a5b82606560009054906101000a90046001600160a01b03166001600160a01b031663d37afa8d6040518163ffffffff1660e01b8152600401602060405180830381865afa158015612a42573d6000803e3d6000fd5b505050506040513d601f19601f82011682018060405250810190612a669190613302565b6001600160a01b031663a386fb568e6040518263ffffffff1660e01b8152600401612a9391815260200190565b602060405180830381865afa158015612ab0573d6000803e3d6000fd5b505050506040513d601f19601f82011682018060405250810190612ad491906133da565b600080612ae3426103e86135d9565b6040516001600160e01b031960e088901b1681526004810195909552602485019390935260448401919091526064830152608482015260a401610100604051808303816000875af1158015612b3c573d6000803e3d6000fd5b505050506040513d601f19601f82011682018060405250810190612b6091906134ed565b50807ff45eeb03060db0baf36cec20acde5e8464f49340c9877c55029d6ffe0e5cdac1606560009054906101000a90046001600160a01b03166001600160a01b031663d37afa8d6040518163ffffffff1660e01b8152600401602060405180830381865afa158015612bd6573d6000803e3d6000fd5b505050506040513d601f19601f82011682018060405250810190612bfa9190613302565b6001600160a01b031663a386fb568d6040518263ffffffff1660e01b8152600401612c2791815260200190565b602060405180830381865afa158015612c44573d6000803e3d6000fd5b505050506040513d601f19601f82011682018060405250810190612c6891906133da565b60008080612c78426103e86135d9565b600080600080600080604051612c989b9a9998979695949392919061358b565b60405180910390a2612d42565b6000818152606b60209081526040808320889055606a8252808320879055606c8252808320859055606d82529182902085905581518b81529081018a905288151581830152606081018890526080810186905260a0810187905260c0810184905260e0810185905290518b91339184917fc7392b9822094f2dca86d2a7a97945e80918a8aee61c04de90253f3683b5695091908190036101000190a45b9998505050505050505050565b60655460408051630140cb6560e51b81529051600080516020613664833981519152926001600160a01b0316916328196ca09160048083019260209291908290030181865afa158015612da6573d6000803e3d6000fd5b505050506040513d601f19601f82011682018060405250810190612dca9190613302565b6001600160a01b03166391d1485482336040516001600160e01b031960e085901b16815260048101929092526001600160a01b03166024820152604401602060405180830381865afa158015612e24573d6000803e3d6000fd5b505050506040513d601f19601f82011682018060405250810190612e48919061331f565b612e645760405162461bcd60e51b81526004016106e99061333c565b604080518a8152602081018a905288151581830152606081018890526080810187905260a0810186905260c0810185905260e0810184905290518b916001600160a01b038e16918f917fe27c49d1eafe79b2bc5109b33b96343dba653822906061750c5b6f591b8c753191908190036101000190a4505050505050505050505050565b600054610100900460ff16612f0e5760405162461bcd60e51b81526004016106e9906135f8565b565b600054610100900460ff16612f375760405162461bcd60e51b81526004016106e9906135f8565b612f0e613065565b60668190556040518181527f0a20b6289d596db2ac25c70c6c69f5e39361ed00454ab483397db8c744ec0b319060200160405180910390a150565b60335460ff16612fc35760405162461bcd60e51b815260206004820152601460248201527314185d5cd8589b194e881b9bdd081c185d5cd95960621b60448201526064016106e9565b6033805460ff191690557f5db9ee0a495bf2e6ff9c91a7834c1ba4fdd244a5e8aa4e537bd38aeae4b073aa335b6040516001600160a01b03909116815260200160405180910390a1565b60335460ff16156130305760405162461bcd60e51b81526004016106e990613424565b6033805460ff191660011790557f62e78cea01bee320cd4e420270b5ea74000d11b0c9f74754ebdbfc544b05a258612ff03390565b600054610100900460ff1661308c5760405162461bcd60e51b81526004016106e9906135f8565b6033805460ff19169055565b6001600160a01b038116811461116757600080fd5b6000806000606084860312156130c257600080fd5b83356130cd81613098565b925060208401356130dd81613098565b929592945050506040919091013590565b60006020828403121561310057600080fd5b813561310b81613098565b9392505050565b60006020828403121561312457600080fd5b5035919050565b801515811461116757600080fd5b6000806040838503121561314c57600080fd5b82359150602083013561315e8161312b565b809150509250929050565b6000806040838503121561317c57600080fd5b823561318781613098565b946020939093013593505050565b600080600080600080600060e0888a0312156131b057600080fd5b505085359760208701359750604087013596606081013596506080810135955060a0810135945060c0013592509050565b600080604083850312156131f457600080fd5b50508035926020909101359150565b60008060008060008060008060006101208a8c03121561322257600080fd5b8935985060208a0135975060408a0135965060608a01356132428161312b565b989b979a50959860808101359760a0820135975060c0820135965060e08201359550610100909101359350915050565b60008060008060008060008060008060006101608c8e03121561329457600080fd5b8b359a5060208c01356132a681613098565b995060408c0135985060608c0135975060808c0135965060a08c01356132cb8161312b565b9a9d999c50979a9699959895975050505060c08401359360e081013593610100820135935061012082013592506101409091013590565b60006020828403121561331457600080fd5b815161310b81613098565b60006020828403121561333157600080fd5b815161310b8161312b565b60208082526021908201527f4d6f72706865724f7261636c653a205065726d697373696f6e2064656e6965646040820152601760f91b606082015260800190565b600080600080600080600060e0888a03121561339857600080fd5b87516133a381613098565b602089015160408a015160608b015160808c015160a08d015160c0909d0151949e939d50919b909a50909850965090945092505050565b6000602082840312156133ec57600080fd5b5051919050565b634e487b7160e01b600052601160045260246000fd5b600060001982141561341d5761341d6133f3565b5060010190565b60208082526010908201526f14185d5cd8589b194e881c185d5cd95960821b604082015260600190565b60208082526044908201527f4d6f72706865724f7261636c653a204d757374207472616e736665722067617360408201527f20636f73747320666f72204f7261636c652043616c6c6261636b2066756e637460608201526334b7b71760e11b608082015260a00190565b6001600160a01b039690961686526020860194909452604085019290925260608401521515608083015260a082015260c00190565b600061010080838503121561350157600080fd5b6040519081019067ffffffffffffffff8211818310171561353257634e487b7160e01b600052604160045260246000fd5b81604052835181526020840151602082015260408401516040820152606084015160608201526080840151608082015260a084015160a082015260c084015160c082015260e084015160e0820152809250505092915050565b9a8b5260208b019990995260408a01979097526060890195909552608088019390935260a087019190915260c086015260e08501526101008401526101208301526101408201526101600190565b60008160001904831182151516156135f3576135f36133f3565b500290565b6020808252602b908201527f496e697469616c697a61626c653a20636f6e7472616374206973206e6f74206960408201526a6e697469616c697a696e6760a81b60608201526080019056fee5a0b4d50f56047f84728557fedbda92f956391bc9d5c762e8461996dd8e7ad7456e80d7f83ecad5376797c2562c7d48cc4873cf784699120b78efad9ba18ecca264697066735822122039604c9465987a89c2598e06a81fc9c14859770d03c3f771f43a8cabae8a393664736f6c634300080b0033",
  "immutableReferences": {},
  "source": "//SPDX-License-Identifier: GPLv3\r\npragma solidity 0.8.11;\r\n\r\nimport \"./MorpherTradeEngine.sol\";\r\nimport \"./MorpherState.sol\";\r\nimport \"./MorpherAccessControl.sol\";\r\nimport \"@openzeppelin/contracts-upgradeable/utils/cryptography/MerkleProofUpgradeable.sol\";\r\nimport \"@openzeppelin/contracts-upgradeable/proxy/utils/Initializable.sol\";\r\nimport \"@openzeppelin/contracts-upgradeable/utils/ContextUpgradeable.sol\";\r\nimport \"@openzeppelin/contracts-upgradeable/security/PausableUpgradeable.sol\";\r\n\r\n\r\n// ----------------------------------------------------------------------------------\r\n// Morpher Oracle contract v 2.0\r\n// The oracle initates a new trade by calling trade engine and requesting a new orderId.\r\n// An event is fired by the contract notifying the oracle operator to query a price/liquidation unchecked\r\n// for a market/user and return the information via the callback function. Since calling\r\n// the callback function requires gas, the user must send a fixed amount of Ether when\r\n// creating their order.\r\n// ----------------------------------------------------------------------------------\r\n\r\ncontract MorpherOracle is Initializable, ContextUpgradeable, PausableUpgradeable {\r\n\r\n    MorpherState state; // read only, Oracle doesn't need writing access to state\r\n\r\n    bool public useWhiteList; //always false at the moment\r\n\r\n    uint256 public gasForCallback;\r\n\r\n    address payable public callBackCollectionAddress;\r\n\r\n    mapping(address => bool) public callBackAddress;\r\n    mapping(address => bool) public whiteList;\r\n    \r\n    mapping(bytes32 => uint256) public priceBelow;\r\n    mapping(bytes32 => uint256) public priceAbove;\r\n    mapping(bytes32 => uint256) public goodFrom;\r\n    mapping(bytes32 => uint256) public goodUntil;\r\n\r\n    mapping(bytes32 => bool) public orderCancellationRequested;\r\n\r\n    /**\r\n     * ROLES KNOWN TO ORACLE\r\n     */\r\n    bytes32 constant public ADMINISTRATOR_ROLE = keccak256(\"ADMINISTRATOR_ROLE\");\r\n    bytes32 constant public ORACLEOPERATOR_ROLE = keccak256(\"ORACLEOPERATOR_ROLE\"); //used for callbacks from API\r\n    bytes32 constant public PAUSER_ROLE = keccak256(\"PAUSER_ROLE\"); //can pause oracle\r\n\r\n// ----------------------------------------------------------------------------------\r\n// Events\r\n// ----------------------------------------------------------------------------------\r\n    event OrderCreated(\r\n        bytes32 indexed _orderId,\r\n        address indexed _address,\r\n        bytes32 indexed _marketId,\r\n        uint256 _closeSharesAmount,\r\n        uint256 _openMPHTokenAmount,\r\n        bool _tradeDirection,\r\n        uint256 _orderLeverage,\r\n        uint256 _onlyIfPriceBelow,\r\n        uint256 _onlyIfPriceAbove,\r\n        uint256 _goodFrom,\r\n        uint256 _goodUntil\r\n        );\r\n\r\n    event LiquidationOrderCreated(\r\n        bytes32 indexed _orderId,\r\n        address _sender,\r\n        address indexed _address,\r\n        bytes32 indexed _marketId\r\n\r\n        );\r\n\r\n    event OrderProcessed(\r\n        bytes32 indexed _orderId,\r\n        uint256 _price,\r\n        uint256 _unadjustedMarketPrice,\r\n        uint256 _spread,\r\n        uint256 _positionLiquidationTimestamp,\r\n        uint256 _timeStamp,\r\n        uint256 _newLongShares,\r\n        uint256 _newShortShares,\r\n        uint256 _newMeanEntry,\r\n        uint256 _newMeanSprad,\r\n        uint256 _newMeanLeverage,\r\n        uint256 _liquidationPrice\r\n        );\r\n\r\n    event OrderFailed(\r\n        bytes32 indexed _orderId,\r\n        address indexed _address,\r\n        bytes32 indexed _marketId,\r\n        uint256 _closeSharesAmount,\r\n        uint256 _openMPHTokenAmount,\r\n        bool _tradeDirection,\r\n        uint256 _orderLeverage,\r\n        uint256 _onlyIfPriceBelow,\r\n        uint256 _onlyIfPriceAbove,\r\n        uint256 _goodFrom,\r\n        uint256 _goodUntil\r\n        );\r\n\r\n    event OrderCancelled(\r\n        bytes32 indexed _orderId,\r\n        address indexed _sender,\r\n        address indexed _oracleAddress\r\n        );\r\n    \r\n    event AdminOrderCancelled(\r\n        bytes32 indexed _orderId,\r\n        address indexed _sender,\r\n        address indexed _oracleAddress\r\n        );\r\n\r\n    event OrderCancellationRequestedEvent(\r\n        bytes32 indexed _orderId,\r\n        address indexed _sender\r\n        );\r\n\r\n    event CallbackAddressEnabled(\r\n        address indexed _address\r\n        );\r\n\r\n    event CallbackAddressDisabled(\r\n        address indexed _address\r\n        );\r\n\r\n    event OraclePaused(\r\n        bool _paused\r\n        );\r\n        \r\n    event CallBackCollectionAddressChange(\r\n        address _address\r\n        );\r\n\r\n    event SetGasForCallback(\r\n        uint256 _gasForCallback\r\n        );\r\n\r\n    event LinkTradeEngine(\r\n        address _address\r\n        );\r\n\r\n    event LinkMorpherState(\r\n        address _address\r\n        );\r\n\r\n    event SetUseWhiteList(\r\n        bool _useWhiteList\r\n        );\r\n\r\n    event AddressWhiteListed(\r\n        address _address\r\n        );\r\n\r\n    event AddressBlackListed(\r\n        address _address\r\n        );\r\n\r\n    event AdminLiquidationOrderCreated(\r\n        bytes32 indexed _orderId,\r\n        address indexed _address,\r\n        bytes32 indexed _marketId,\r\n        uint256 _closeSharesAmount,\r\n        uint256 _openMPHTokenAmount,\r\n        bool _tradeDirection,\r\n        uint256 _orderLeverage\r\n        );\r\n\r\n    /**\r\n     * Delisting markets is a function that stops when gas is running low\r\n     * if it reached all positions it will emit \"DelistMarketComplete\"\r\n     * otherwise it needs to be re-run.\r\n     */\r\n    event DelistMarketIncomplete(bytes32 _marketId, uint256 _processedUntilIndex);\r\n    event DelistMarketComplete(bytes32 _marketId);\r\n    event LockedPriceForClosingPositions(bytes32 _marketId, uint256 _price);\r\n\r\n\r\n    modifier onlyRole(bytes32 role) {\r\n        require(MorpherAccessControl(state.morpherAccessControlAddress()).hasRole(role, _msgSender()), \"MorpherOracle: Permission denied.\");\r\n        _;\r\n    }\r\n\r\n   function initialize(address _morpherState, address payable _gasCollectionAddress, uint256 _gasForCallback) public initializer{\r\n        ContextUpgradeable.__Context_init();\r\n        PausableUpgradeable.__Pausable_init();\r\n\r\n        state = MorpherState(_morpherState);\r\n        \r\n        setCallbackCollectionAddress(_gasCollectionAddress);\r\n        setGasForCallback(_gasForCallback);\r\n    }\r\n\r\n// ----------------------------------------------------------------------------------\r\n// Setter/getter functions for trade engine address, oracle operator (callback) address,\r\n// and prepaid gas limit for callback function\r\n// ----------------------------------------------------------------------------------\r\n\r\n    function setStateAddress(address _address) public onlyRole(ADMINISTRATOR_ROLE) {\r\n        state = MorpherState(_address);\r\n        emit LinkMorpherState(_address);\r\n    }\r\n\r\n    function overrideGasForCallback(uint256 _gasForCallback) public onlyRole(ADMINISTRATOR_ROLE) {\r\n        gasForCallback = _gasForCallback;\r\n        emit SetGasForCallback(_gasForCallback);\r\n    }\r\n    \r\n    function setGasForCallback(uint256 _gasForCallback) private {\r\n        gasForCallback = _gasForCallback;\r\n        emit SetGasForCallback(_gasForCallback);\r\n    }\r\n\r\n    function setCallbackCollectionAddress(address payable _address) public onlyRole(ADMINISTRATOR_ROLE) {\r\n        callBackCollectionAddress = _address;\r\n        emit CallBackCollectionAddressChange(_address);\r\n    }\r\n\r\n// ----------------------------------------------------------------------------------\r\n// emitOrderFailed\r\n// Can be called by Oracle Operator to notifiy user of failed order\r\n// ----------------------------------------------------------------------------------\r\n    function emitOrderFailed(\r\n        bytes32 _orderId,\r\n        address _address,\r\n        bytes32 _marketId,\r\n        uint256 _closeSharesAmount,\r\n        uint256 _openMPHTokenAmount,\r\n        bool _tradeDirection,\r\n        uint256 _orderLeverage,\r\n        uint256 _onlyIfPriceBelow,\r\n        uint256 _onlyIfPriceAbove,\r\n        uint256 _goodFrom,\r\n        uint256 _goodUntil\r\n    ) public onlyRole(ORACLEOPERATOR_ROLE) {\r\n        emit OrderFailed(\r\n            _orderId,\r\n            _address,\r\n            _marketId,\r\n            _closeSharesAmount,\r\n            _openMPHTokenAmount,\r\n            _tradeDirection,\r\n            _orderLeverage,\r\n            _onlyIfPriceBelow,\r\n            _onlyIfPriceAbove,\r\n            _goodFrom,\r\n            _goodUntil);\r\n    }\r\n\r\n// ----------------------------------------------------------------------------------\r\n// createOrder(bytes32  _marketId, bool _tradeAmountGivenInShares, uint256 _tradeAmount, bool _tradeDirection, uint256 _orderLeverage)\r\n// Request a new orderId from trade engine and fires event for price/liquidation check request.\r\n// ----------------------------------------------------------------------------------\r\n    function createOrder(\r\n        bytes32 _marketId,\r\n        uint256 _closeSharesAmount,\r\n        uint256 _openMPHTokenAmount,\r\n        bool _tradeDirection,\r\n        uint256 _orderLeverage,\r\n        uint256 _onlyIfPriceAbove,\r\n        uint256 _onlyIfPriceBelow,\r\n        uint256 _goodUntil,\r\n        uint256 _goodFrom\r\n        ) public payable whenNotPaused returns (bytes32 _orderId) {\r\n        if (gasForCallback > 0) {\r\n            require(msg.value >= gasForCallback, \"MorpherOracle: Must transfer gas costs for Oracle Callback function.\");\r\n            callBackCollectionAddress.transfer(msg.value);\r\n        }\r\n        _orderId = MorpherTradeEngine(state.morpherTradeEngineAddress()).requestOrderId(_msgSender(), _marketId, _closeSharesAmount, _openMPHTokenAmount, _tradeDirection, _orderLeverage);\r\n\r\n        //if the market was deactivated, and the trader didn't fail yet, then we got an orderId to close the position with a locked in price\r\n        if(state.getMarketActive(_marketId) == false) {\r\n\r\n            //price will come from the position where price is stored forever\r\n            MorpherTradeEngine(state.morpherTradeEngineAddress()).processOrder(_orderId, MorpherTradeEngine(state.morpherTradeEngineAddress()).getDeactivatedMarketPrice(_marketId), 0, 0, block.timestamp * (1000));\r\n            \r\n            emit OrderProcessed(\r\n                _orderId,\r\n                MorpherTradeEngine(state.morpherTradeEngineAddress()).getDeactivatedMarketPrice(_marketId),\r\n                0,\r\n                0,\r\n                0,\r\n                block.timestamp * (1000),\r\n                0,\r\n                0,\r\n                0,\r\n                0,\r\n                0,\r\n                0\r\n                );\r\n        } else {\r\n            priceAbove[_orderId] = _onlyIfPriceAbove;\r\n            priceBelow[_orderId] = _onlyIfPriceBelow;\r\n            goodFrom[_orderId]   = _goodFrom;\r\n            goodUntil[_orderId]  = _goodUntil;\r\n            emit OrderCreated(\r\n                _orderId,\r\n                _msgSender(),\r\n                _marketId,\r\n                _closeSharesAmount,\r\n                _openMPHTokenAmount,\r\n                _tradeDirection,\r\n                _orderLeverage,\r\n                _onlyIfPriceBelow,\r\n                _onlyIfPriceAbove,\r\n                _goodFrom,\r\n                _goodUntil\r\n                );\r\n        }\r\n\r\n        return _orderId;\r\n    }\r\n\r\n    function initiateCancelOrder(bytes32 _orderId) public {\r\n        MorpherTradeEngine _tradeEngine = MorpherTradeEngine(state.morpherTradeEngineAddress());\r\n        require(orderCancellationRequested[_orderId] == false, \"MorpherOracle: Order was already canceled.\");\r\n        (address userId, , , , , , ) = _tradeEngine.getOrder(_orderId);\r\n        require(userId == _msgSender(), \"MorpherOracle: Only the user can request an order cancellation.\");\r\n        orderCancellationRequested[_orderId] = true;\r\n        emit OrderCancellationRequestedEvent(_orderId, _msgSender());\r\n    }\r\n\r\n    // ----------------------------------------------------------------------------------\r\n    // cancelOrder(bytes32  _orderId)\r\n    // User or Administrator can cancel their own orders before the _callback has been executed\r\n    // ----------------------------------------------------------------------------------\r\n    function cancelOrder(bytes32 _orderId) public onlyRole(ORACLEOPERATOR_ROLE) {\r\n        require(orderCancellationRequested[_orderId] == true, \"MorpherOracle: Order-Cancellation was not requested.\");\r\n        MorpherTradeEngine _tradeEngine = MorpherTradeEngine(state.morpherTradeEngineAddress());\r\n        (address userId, , , , , , ) = _tradeEngine.getOrder(_orderId);\r\n        _tradeEngine.cancelOrder(_orderId, userId);\r\n        clearOrderConditions(_orderId);\r\n        emit OrderCancelled(\r\n            _orderId,\r\n            userId,\r\n            _msgSender()\r\n            );\r\n    }\r\n    \r\n    // ----------------------------------------------------------------------------------\r\n    // adminCancelOrder(bytes32  _orderId)\r\n    // Administrator can cancel before the _callback has been executed to provide an updateOrder functionality\r\n    // ----------------------------------------------------------------------------------\r\n    function adminCancelOrder(bytes32 _orderId) public onlyRole(ORACLEOPERATOR_ROLE) {\r\n        MorpherTradeEngine _tradeEngine = MorpherTradeEngine(state.morpherTradeEngineAddress());\r\n        (address userId, , , , , , ) = _tradeEngine.getOrder(_orderId);\r\n        _tradeEngine.cancelOrder(_orderId, userId);\r\n        clearOrderConditions(_orderId);\r\n        emit AdminOrderCancelled(\r\n            _orderId,\r\n            userId,\r\n            _msgSender()\r\n            );\r\n    }\r\n\r\n// ------------------------------------------------------------------------\r\n// checkOrderConditions(bytes32 _orderId, uint256 _price)\r\n// Checks if callback satisfies the order conditions\r\n// ------------------------------------------------------------------------\r\n    function checkOrderConditions(bytes32 _orderId, uint256 _price) public view returns (bool _conditionsMet) {\r\n        _conditionsMet = true;\r\n        if (block.timestamp > goodUntil[_orderId] && goodUntil[_orderId] > 0) {\r\n            _conditionsMet = false;\r\n        }\r\n        if (block.timestamp < goodFrom[_orderId] && goodFrom[_orderId] > 0) {\r\n            _conditionsMet = false;\r\n        }\r\n\r\n        if(priceAbove[_orderId] > 0 && priceBelow[_orderId] > 0) {\r\n            if(_price < priceAbove[_orderId] && _price > priceBelow[_orderId]) {\r\n                _conditionsMet = false;\r\n            }\r\n        } else {\r\n            if (_price < priceAbove[_orderId] && priceAbove[_orderId] > 0) {\r\n                _conditionsMet = false;\r\n            }\r\n            if (_price > priceBelow[_orderId] && priceBelow[_orderId] > 0) {\r\n                _conditionsMet = false;\r\n            }\r\n        }\r\n        \r\n        return _conditionsMet;\r\n    }\r\n\r\n// ----------------------------------------------------------------------------------\r\n// Deletes parameters of cancelled or processed orders\r\n// ----------------------------------------------------------------------------------\r\n    function clearOrderConditions(bytes32 _orderId) internal {\r\n        priceAbove[_orderId] = 0;\r\n        priceBelow[_orderId] = 0;\r\n        goodFrom[_orderId]   = 0;\r\n        goodUntil[_orderId]  = 0;\r\n    }\r\n\r\n    function pause() public virtual onlyRole(PAUSER_ROLE) {\r\n        _pause();\r\n    }\r\n\r\n    function unpause() public virtual onlyRole(PAUSER_ROLE) {\r\n        _unpause();\r\n    }\r\n\r\n// ----------------------------------------------------------------------------------\r\n// createLiquidationOrder(address _address, bytes32 _marketId)\r\n// Checks if position has been liquidated since last check. Requires gas for callback\r\n// function. Anyone can issue a liquidation order for any other address and market.\r\n// ----------------------------------------------------------------------------------\r\n    function createLiquidationOrder(\r\n        address _address,\r\n        bytes32 _marketId\r\n        ) public whenNotPaused onlyRole(ORACLEOPERATOR_ROLE) payable returns (bytes32 _orderId) {\r\n        if (gasForCallback > 0) {\r\n            require(msg.value >= gasForCallback, \"MorpherOracle: Must transfer gas costs for Oracle Callback function.\");\r\n            callBackCollectionAddress.transfer(msg.value);\r\n        }\r\n        _orderId = MorpherTradeEngine(state.morpherTradeEngineAddress()).requestOrderId(_address, _marketId, 0, 0, true, 10**8);\r\n        emit LiquidationOrderCreated(_orderId, _msgSender(), _address, _marketId);\r\n        return _orderId;\r\n    }\r\n\r\n// ----------------------------------------------------------------------------------\r\n// __callback(bytes32 _orderId, uint256 _price, uint256 _spread, uint256 _liquidationTimestamp, uint256 _timeStamp)\r\n// Called by the oracle operator. Writes price/spread/liquidiation check to the blockchain.\r\n// Trade engine processes the order and updates the portfolio in state if successful.\r\n// ----------------------------------------------------------------------------------\r\n    function __callback(\r\n        bytes32 _orderId,\r\n        uint256 _price,\r\n        uint256 _unadjustedMarketPrice,\r\n        uint256 _spread,\r\n        uint256 _liquidationTimestamp,\r\n        uint256 _timeStamp,\r\n        uint256 _gasForNextCallback\r\n        ) public onlyRole(ORACLEOPERATOR_ROLE) whenNotPaused returns (MorpherTradeEngine.position memory createdPosition)  {\r\n        \r\n        require(checkOrderConditions(_orderId, _price), 'MorpherOracle Error: Order Conditions are not met');\r\n       \r\n       createdPosition = MorpherTradeEngine(state.morpherTradeEngineAddress()).processOrder(_orderId, _price, _spread, _liquidationTimestamp, _timeStamp);\r\n        \r\n        clearOrderConditions(_orderId);\r\n        emit OrderProcessed(\r\n            _orderId,\r\n            _price,\r\n            _unadjustedMarketPrice,\r\n            _spread,\r\n            _liquidationTimestamp,\r\n            _timeStamp,\r\n            createdPosition.longShares,\r\n            createdPosition.shortShares,\r\n            createdPosition.meanEntryPrice,\r\n            createdPosition.meanEntrySpread,\r\n            createdPosition.meanEntryLeverage,\r\n            createdPosition.liquidationPrice\r\n            );\r\n        setGasForCallback(_gasForNextCallback);\r\n        return createdPosition;\r\n    }\r\n\r\n// ----------------------------------------------------------------------------------\r\n// delistMarket(bytes32 _marketId)\r\n// Administrator closes out all existing positions on _marketId market at current prices\r\n// ----------------------------------------------------------------------------------\r\n\r\n    uint delistMarketFromIx;\r\n    function delistMarket(bytes32 _marketId, bool _startFromScratch) public onlyRole(ADMINISTRATOR_ROLE) {\r\n        require(state.getMarketActive(_marketId) == true, \"Market must be active to process position liquidations.\");\r\n        // If no _fromIx and _toIx specified, do entire _list\r\n        if (_startFromScratch) {\r\n            delistMarketFromIx = 0;\r\n        }\r\n        \r\n        uint _toIx = MorpherTradeEngine(state.morpherTradeEngineAddress()).getMaxMappingIndex(_marketId);\r\n        \r\n        address _address;\r\n        for (uint256 i = delistMarketFromIx; i <= _toIx; i++) {\r\n             if(gasleft() < 250000 && i != _toIx) { //stop if there's not enough gas to write the next transaction\r\n                delistMarketFromIx = i;\r\n                emit DelistMarketIncomplete(_marketId, _toIx);\r\n                return;\r\n            } \r\n            \r\n            _address = MorpherTradeEngine(state.morpherTradeEngineAddress()).getExposureMappingAddress(_marketId, i);\r\n            adminLiquidationOrder(_address, _marketId);\r\n            \r\n        }\r\n        emit DelistMarketComplete(_marketId);\r\n    }\r\n\r\n\r\n// ----------------------------------------------------------------------------------\r\n// adminLiquidationOrder(address _address, bytes32 _marketId)\r\n// Administrator closes out an existing position of _address on _marketId market at current price\r\n// ----------------------------------------------------------------------------------\r\n    function adminLiquidationOrder(\r\n        address _address,\r\n        bytes32 _marketId\r\n        ) public onlyRole(ADMINISTRATOR_ROLE) returns (bytes32 _orderId) {\r\n            MorpherTradeEngine.position memory position = MorpherTradeEngine(state.morpherTradeEngineAddress()).getPosition(_address, _marketId);\r\n            \r\n            if (position.longShares > 0) {\r\n                _orderId = MorpherTradeEngine(state.morpherTradeEngineAddress()).requestOrderId(_address, _marketId, position.longShares, 0, false, 10**8);\r\n                emit AdminLiquidationOrderCreated(_orderId, _address, _marketId, position.longShares, 0, false, 10**8);\r\n            }\r\n            if (position.shortShares > 0) {\r\n                _orderId = MorpherTradeEngine(state.morpherTradeEngineAddress()).requestOrderId(_address, _marketId, position.shortShares, 0, true, 10**8);\r\n                emit AdminLiquidationOrderCreated(_orderId, _address, _marketId, position.shortShares, 0, true, 10**8);\r\n            }\r\n            return _orderId;\r\n    }\r\n    \r\n\r\n}\r\n\r\n",
  "sourcePath": "/home/thomas/MorpherProtocol/contracts/MorpherOracle.sol",
  "compiler": {
    "name": "solc",
    "version": "0.8.11+commit.d7f03943.Emscripten.clang"
  },
  "schemaVersion": "3.4.5",
  "updatedAt": "2022-03-17T07:58:43.822Z",
  "networkType": "ethereum",
  "devdoc": {
    "kind": "dev",
    "methods": {
      "paused()": {
        "details": "Returns true if the contract is paused, and false otherwise."
      }
    },
    "version": 1
  },
  "userdoc": {
    "events": {
      "DelistMarketIncomplete(bytes32,uint256)": {
        "notice": "Delisting markets is a function that stops when gas is running low if it reached all positions it will emit \"DelistMarketComplete\" otherwise it needs to be re-run."
      }
    },
    "kind": "user",
    "methods": {
      "ADMINISTRATOR_ROLE()": {
        "notice": "ROLES KNOWN TO ORACLE"
      }
    },
    "version": 1
  }
}