{"abi":[{"type":"function","name":"ADMINISTRATOR_ROLE","inputs":[],"outputs":[{"name":"","type":"bytes32","internalType":"bytes32"}],"stateMutability":"view"},{"type":"function","name":"BURNER_ROLE","inputs":[],"outputs":[{"name":"","type":"bytes32","internalType":"bytes32"}],"stateMutability":"view"},{"type":"function","name":"MINTER_ROLE","inputs":[],"outputs":[{"name":"","type":"bytes32","internalType":"bytes32"}],"stateMutability":"view"},{"type":"function","name":"PAUSER_ROLE","inputs":[],"outputs":[{"name":"","type":"bytes32","internalType":"bytes32"}],"stateMutability":"view"},{"type":"function","name":"POLYGONMINTER_ROLE","inputs":[],"outputs":[{"name":"","type":"bytes32","internalType":"bytes32"}],"stateMutability":"view"},{"type":"function","name":"TRANSFERBLOCKED_ROLE","inputs":[],"outputs":[{"name":"","type":"bytes32","internalType":"bytes32"}],"stateMutability":"view"},{"type":"function","name":"TRANSFER_ROLE","inputs":[],"outputs":[{"name":"","type":"bytes32","internalType":"bytes32"}],"stateMutability":"view"},{"type":"function","name":"allowance","inputs":[{"name":"owner","type":"address","internalType":"address"},{"name":"spender","type":"address","internalType":"address"}],"outputs":[{"name":"","type":"uint256","internalType":"uint256"}],"stateMutability":"view"},{"type":"function","name":"approve","inputs":[{"name":"spender","type":"address","internalType":"address"},{"name":"amount","type":"uint256","internalType":"uint256"}],"outputs":[{"name":"","type":"bool","internalType":"bool"}],"stateMutability":"nonpayable"},{"type":"function","name":"balanceOf","inputs":[{"name":"account","type":"address","internalType":"address"}],"outputs":[{"name":"","type":"uint256","internalType":"uint256"}],"stateMutability":"view"},{"type":"function","name":"burn","inputs":[{"name":"from","type":"address","internalType":"address"},{"name":"amount","type":"uint256","internalType":"uint256"}],"outputs":[],"stateMutability":"nonpayable"},{"type":"function","name":"decimals","inputs":[],"outputs":[{"name":"","type":"uint8","internalType":"uint8"}],"stateMutability":"view"},{"type":"function","name":"decreaseAllowance","inputs":[{"name":"spender","type":"address","internalType":"address"},{"name":"subtractedValue","type":"uint256","internalType":"uint256"}],"outputs":[{"name":"","type":"bool","internalType":"bool"}],"stateMutability":"nonpayable"},{"type":"function","name":"deposit","inputs":[{"name":"user","type":"address","internalType":"address"},{"name":"depositData","type":"bytes","internalType":"bytes"}],"outputs":[],"stateMutability":"nonpayable"},{"type":"function","name":"getRestrictTransfers","inputs":[],"outputs":[{"name":"","type":"bool","internalType":"bool"}],"stateMutability":"view"},{"type":"function","name":"getTotalTokensInPositions","inputs":[],"outputs":[{"name":"","type":"uint256","internalType":"uint256"}],"stateMutability":"view"},{"type":"function","name":"getTotalTokensOnOtherChain","inputs":[],"outputs":[{"name":"","type":"uint256","internalType":"uint256"}],"stateMutability":"view"},{"type":"function","name":"increaseAllowance","inputs":[{"name":"spender","type":"address","internalType":"address"},{"name":"addedValue","type":"uint256","internalType":"uint256"}],"outputs":[{"name":"","type":"bool","internalType":"bool"}],"stateMutability":"nonpayable"},{"type":"function","name":"initialize","inputs":[{"name":"_morpherAccessControl","type":"address","internalType":"address"}],"outputs":[],"stateMutability":"nonpayable"},{"type":"function","name":"mint","inputs":[{"name":"to","type":"address","internalType":"address"},{"name":"amount","type":"uint256","internalType":"uint256"}],"outputs":[],"stateMutability":"nonpayable"},{"type":"function","name":"morpherAccessControl","inputs":[],"outputs":[{"name":"","type":"address","internalType":"contract MorpherAccessControl"}],"stateMutability":"view"},{"type":"function","name":"name","inputs":[],"outputs":[{"name":"","type":"string","internalType":"string"}],"stateMutability":"view"},{"type":"function","name":"pause","inputs":[],"outputs":[],"stateMutability":"nonpayable"},{"type":"function","name":"paused","inputs":[],"outputs":[{"name":"","type":"bool","internalType":"bool"}],"stateMutability":"view"},{"type":"function","name":"setRestrictTransfers","inputs":[{"name":"restrictTransfers","type":"bool","internalType":"bool"}],"outputs":[],"stateMutability":"nonpayable"},{"type":"function","name":"setTotalInPositions","inputs":[{"name":"totalTokensInPositions","type":"uint256","internalType":"uint256"}],"outputs":[],"stateMutability":"nonpayable"},{"type":"function","name":"setTotalTokensOnOtherChain","inputs":[{"name":"totalOnOtherChain","type":"uint256","internalType":"uint256"}],"outputs":[],"stateMutability":"nonpayable"},{"type":"function","name":"symbol","inputs":[],"outputs":[{"name":"","type":"string","internalType":"string"}],"stateMutability":"view"},{"type":"function","name":"totalSupply","inputs":[],"outputs":[{"name":"","type":"uint256","internalType":"uint256"}],"stateMutability":"view"},{"type":"function","name":"transfer","inputs":[{"name":"to","type":"address","internalType":"address"},{"name":"amount","type":"uint256","internalType":"uint256"}],"outputs":[{"name":"","type":"bool","internalType":"bool"}],"stateMutability":"nonpayable"},{"type":"function","name":"transferFrom","inputs":[{"name":"from","type":"address","internalType":"address"},{"name":"to","type":"address","internalType":"address"},{"name":"amount","type":"uint256","internalType":"uint256"}],"outputs":[{"name":"","type":"bool","internalType":"bool"}],"stateMutability":"nonpayable"},{"type":"function","name":"unpause","inputs":[],"outputs":[],"stateMutability":"nonpayable"},{"type":"function","name":"withdraw","inputs":[{"name":"amount","type":"uint256","internalType":"uint256"}],"outputs":[],"stateMutability":"nonpayable"},{"type":"event","name":"Approval","inputs":[{"name":"owner","type":"address","indexed":true,"internalType":"address"},{"name":"spender","type":"address","indexed":true,"internalType":"address"},{"name":"value","type":"uint256","indexed":false,"internalType":"uint256"}],"anonymous":false},{"type":"event","name":"Initialized","inputs":[{"name":"version","type":"uint8","indexed":false,"internalType":"uint8"}],"anonymous":false},{"type":"event","name":"Paused","inputs":[{"name":"account","type":"address","indexed":false,"internalType":"address"}],"anonymous":false},{"type":"event","name":"SetRestrictTransfers","inputs":[{"name":"_oldValue","type":"bool","indexed":false,"internalType":"bool"},{"name":"_newValue","type":"bool","indexed":false,"internalType":"bool"}],"anonymous":false},{"type":"event","name":"SetTotalTokensInPositions","inputs":[{"name":"_oldValue","type":"uint256","indexed":false,"internalType":"uint256"},{"name":"_newValue","type":"uint256","indexed":false,"internalType":"uint256"}],"anonymous":false},{"type":"event","name":"SetTotalTokensOnOtherChain","inputs":[{"name":"_oldValue","type":"uint256","indexed":false,"internalType":"uint256"},{"name":"_newValue","type":"uint256","indexed":false,"internalType":"uint256"}],"anonymous":false},{"type":"event","name":"Transfer","inputs":[{"name":"from","type":"address","indexed":true,"internalType":"address"},{"name":"to","type":"address","indexed":true,"internalType":"address"},{"name":"value","type":"uint256","indexed":false,"internalType":"uint256"}],"anonymous":false},{"type":"event","name":"Unpaused","inputs":[{"name":"account","type":"address","indexed":false,"internalType":"address"}],"anonymous":false}],"bytecode":{"object":"0x608060405234801561001057600080fd5b5061202b806100206000396000f3fe608060405234801561001057600080fd5b50600436106101fb5760003560e01c806385f993c61161011a578063c4d66de8116100ad578063d53913931161007c578063d539139314610463578063dd62ed3e1461048a578063e5160f801461049d578063e63ab1e9146104b0578063f45edb5f146104d757600080fd5b8063c4d66de814610403578063c4f33a5e14610416578063cae6a37d1461043d578063cf2c52cb1461045057600080fd5b806397226ece116100e957806397226ece146103c25780639dc29fac146103ca578063a457c2d7146103dd578063a9059cbb146103f057600080fd5b806385f993c6146103745780638ac203a71461037c57806395a5d2921461038f57806395d89b41146103ba57600080fd5b8063313ce5671161019257806340c10f191161016157806340c10f19146103255780635c975abb1461033857806370a08231146103435780638456cb591461036c57600080fd5b8063313ce567146102f057806339509351146102ff5780633ba2e566146103125780633f4ba83a1461031d57600080fd5b8063206b60f9116101ce578063206b60f91461027a57806323b872dd146102a1578063282c51f3146102b45780632e1a7d4d146102db57600080fd5b80630529fec21461020057806306fdde031461023a578063095ea7b31461024f57806318160ddd14610272575b600080fd5b6102277f976f69c4d3b65478fca9223fe0ed1b2522bde010f2060b8733f0ed5e916f496481565b6040519081526020015b60405180910390f35b6102426104ec565b6040516102319190611ce1565b61026261025d366004611d52565b61057e565b6040519015158152602001610231565b610227610596565b6102277f8502233096d909befbda0999bb8ea2f3a6be3c138b9fbf003752a4c8bce86f6c81565b6102626102af366004611d7c565b6105c0565b6102277f3c11d16cbaffd01df69ce1c404f6340ee057498f5f00246190ea54220576a84881565b6102ee6102e9366004611db8565b6105e4565b005b60405160128152602001610231565b61026261030d366004611d52565b6106ba565b60cc5460ff16610262565b6102ee6106dc565b6102ee610333366004611d52565b6107ea565b60655460ff16610262565b610227610351366004611dd1565b6001600160a01b031660009081526033602052604090205490565b6102ee6108f5565b60cb54610227565b6102ee61038a366004611db8565b6109ff565b60c9546103a2906001600160a01b031681565b6040516001600160a01b039091168152602001610231565b610242610aee565b60ca54610227565b6102ee6103d8366004611d52565b610afd565b6102626103eb366004611d52565b610c08565b6102626103fe366004611d52565b610c83565b6102ee610411366004611dd1565b610c91565b6102277f22060b5f5e80cc25f73a2ae7f4b9389213d436da9a0db76b0bf57fa95eddf87d81565b6102ee61044b366004611e04565b610df9565b6102ee61045e366004611e21565b610efd565b6102277f9f2df0fed2c77648de5860a4cc508cd0818c85b8b8a1ab4ceeef8d981c8956a681565b610227610498366004611ea4565b610fdd565b6102ee6104ab366004611db8565b611008565b6102277f65d7a28e3265b37a6474929f336521b332c1681b933f6cb9f3376673440d862a81565b610227600080516020611fd683398151915281565b6060603680546104fb90611ed7565b80601f016020809104026020016040519081016040528092919081815260200182805461052790611ed7565b80156105745780601f1061054957610100808354040283529160200191610574565b820191906000526020600020905b81548152906001019060200180831161055757829003601f168201915b5050505050905090565b60003361058c8185856110f7565b5060019392505050565b600060cb5460ca546105a760355490565b6105b19190611f12565b6105bb9190611f12565b905090565b6000336105ce85828561121c565b6105d9858585611296565b506001949350505050565b60c9547f22060b5f5e80cc25f73a2ae7f4b9389213d436da9a0db76b0bf57fa95eddf87d906001600160a01b03166391d1485482336040516001600160e01b031960e085901b16815260048101929092526001600160a01b03166024820152604401602060405180830381865afa158015610663573d6000803e3d6000fd5b505050506040513d601f19601f820116820180604052508101906106879190611f38565b6106ac5760405162461bcd60e51b81526004016106a390611f55565b60405180910390fd5b6106b6338361144c565b5050565b60003361058c8185856106cd8383610fdd565b6106d79190611f12565b6110f7565b60c9546001600160a01b03166391d148547f65d7a28e3265b37a6474929f336521b332c1681b933f6cb9f3376673440d862a336040516001600160e01b031960e085901b16815260048101929092526001600160a01b03166024820152604401602060405180830381865afa158015610759573d6000803e3d6000fd5b505050506040513d601f19601f8201168201806040525081019061077d9190611f38565b6107e05760405162461bcd60e51b815260206004820152602e60248201527f4d6f7270686572546f6b656e3a206d757374206861766520706175736572207260448201526d6f6c6520746f20756e706175736560901b60648201526084016106a3565b6107e8611589565b565b60c9546001600160a01b03166391d148547f9f2df0fed2c77648de5860a4cc508cd0818c85b8b8a1ab4ceeef8d981c8956a6336040516001600160e01b031960e085901b16815260048101929092526001600160a01b03166024820152604401602060405180830381865afa158015610867573d6000803e3d6000fd5b505050506040513d601f19601f8201168201806040525081019061088b9190611f38565b6108eb5760405162461bcd60e51b815260206004820152602b60248201527f4d6f7270686572546f6b656e3a206d7573742068617665206d696e746572207260448201526a1bdb19481d1bc81b5a5b9d60aa1b60648201526084016106a3565b6106b682826115db565b60c9546001600160a01b03166391d148547f65d7a28e3265b37a6474929f336521b332c1681b933f6cb9f3376673440d862a336040516001600160e01b031960e085901b16815260048101929092526001600160a01b03166024820152604401602060405180830381865afa158015610972573d6000803e3d6000fd5b505050506040513d601f19601f820116820180604052508101906109969190611f38565b6109f75760405162461bcd60e51b815260206004820152602c60248201527f4d6f7270686572546f6b656e3a206d757374206861766520706175736572207260448201526b6f6c6520746f20706175736560a01b60648201526084016106a3565b6107e86116a8565b60c954600080516020611fd6833981519152906001600160a01b03166391d1485482336040516001600160e01b031960e085901b16815260048101929092526001600160a01b03166024820152604401602060405180830381865afa158015610a6c573d6000803e3d6000fd5b505050506040513d601f19601f82011682018060405250810190610a909190611f38565b610aac5760405162461bcd60e51b81526004016106a390611f55565b60cb5460408051918252602082018490527f403593c572c4e2016cd93550e0260e82ab507a5ce5c9604f7c1fe84192f7649d910160405180910390a15060ca55565b6060603780546104fb90611ed7565b60c9546001600160a01b03166391d148547f3c11d16cbaffd01df69ce1c404f6340ee057498f5f00246190ea54220576a848336040516001600160e01b031960e085901b16815260048101929092526001600160a01b03166024820152604401602060405180830381865afa158015610b7a573d6000803e3d6000fd5b505050506040513d601f19601f82011682018060405250810190610b9e9190611f38565b610bfe5760405162461bcd60e51b815260206004820152602b60248201527f4d6f7270686572546f6b656e3a206d7573742068617665206275726e6572207260448201526a37b632903a3790313ab93760a91b60648201526084016106a3565b6106b6828261144c565b60003381610c168286610fdd565b905083811015610c765760405162461bcd60e51b815260206004820152602560248201527f45524332303a2064656372656173656420616c6c6f77616e63652062656c6f77604482015264207a65726f60d81b60648201526084016106a3565b6105d982868684036110f7565b60003361058c818585611296565b600054610100900460ff1615808015610cb15750600054600160ff909116105b80610ccb5750303b158015610ccb575060005460ff166001145b610d2e5760405162461bcd60e51b815260206004820152602e60248201527f496e697469616c697a61626c653a20636f6e747261637420697320616c72656160448201526d191e481a5b9a5d1a585b1a5e995960921b60648201526084016106a3565b6000805460ff191660011790558015610d51576000805461ff0019166101001790555b610d956040518060400160405280600781526020016626b7b9383432b960c91b8152506040518060400160405280600381526020016209aa0960eb1b8152506116e5565b60c980546001600160a01b0319166001600160a01b03841617905580156106b6576000805461ff0019169055604051600181527f7f26b83ff96e1f2b6a682f133852f6798a09c465da95921460cefb38474024989060200160405180910390a15050565b60c954600080516020611fd6833981519152906001600160a01b03166391d1485482336040516001600160e01b031960e085901b16815260048101929092526001600160a01b03166024820152604401602060405180830381865afa158015610e66573d6000803e3d6000fd5b505050506040513d601f19601f82011682018060405250810190610e8a9190611f38565b610ea65760405162461bcd60e51b81526004016106a390611f55565b60cc546040805160ff9092161515825283151560208301527f031b7076ea69cc7c069abb5b40b40971da5a280ca9d1c3bda1e25e69b2e72abb910160405180910390a15060cc805460ff1916911515919091179055565b60c9547f22060b5f5e80cc25f73a2ae7f4b9389213d436da9a0db76b0bf57fa95eddf87d906001600160a01b03166391d1485482336040516001600160e01b031960e085901b16815260048101929092526001600160a01b03166024820152604401602060405180830381865afa158015610f7c573d6000803e3d6000fd5b505050506040513d601f19601f82011682018060405250810190610fa09190611f38565b610fbc5760405162461bcd60e51b81526004016106a390611f55565b6000610fca83850185611db8565b9050610fd685826115db565b5050505050565b6001600160a01b03918216600090815260346020908152604080832093909416825291909152205490565b60c954600080516020611fd6833981519152906001600160a01b03166391d1485482336040516001600160e01b031960e085901b16815260048101929092526001600160a01b03166024820152604401602060405180830381865afa158015611075573d6000803e3d6000fd5b505050506040513d601f19601f820116820180604052508101906110999190611f38565b6110b55760405162461bcd60e51b81526004016106a390611f55565b60cb5460408051918252602082018490527f9be715265056d01e32a5a436e7cf9bd1e204862153232c5ccdd5bbb72f5ea944910160405180910390a15060cb55565b6001600160a01b0383166111595760405162461bcd60e51b8152602060048201526024808201527f45524332303a20617070726f76652066726f6d20746865207a65726f206164646044820152637265737360e01b60648201526084016106a3565b6001600160a01b0382166111ba5760405162461bcd60e51b815260206004820152602260248201527f45524332303a20617070726f766520746f20746865207a65726f206164647265604482015261737360f01b60648201526084016106a3565b6001600160a01b0383811660008181526034602090815260408083209487168084529482529182902085905590518481527f8c5be1e5ebec7d5bd14f71427d1e84f3dd0314c0f7b2291e5b200ac8c7c3b92591015b60405180910390a3505050565b60006112288484610fdd565b9050600019811461129057818110156112835760405162461bcd60e51b815260206004820152601d60248201527f45524332303a20696e73756666696369656e7420616c6c6f77616e636500000060448201526064016106a3565b61129084848484036110f7565b50505050565b6001600160a01b0383166112fa5760405162461bcd60e51b815260206004820152602560248201527f45524332303a207472616e736665722066726f6d20746865207a65726f206164604482015264647265737360d81b60648201526084016106a3565b6001600160a01b03821661135c5760405162461bcd60e51b815260206004820152602360248201527f45524332303a207472616e7366657220746f20746865207a65726f206164647260448201526265737360e81b60648201526084016106a3565b611367838383611716565b6001600160a01b038316600090815260336020526040902054818110156113df5760405162461bcd60e51b815260206004820152602660248201527f45524332303a207472616e7366657220616d6f756e7420657863656564732062604482015265616c616e636560d01b60648201526084016106a3565b6001600160a01b0380851660008181526033602052604080822086860390559286168082529083902080548601905591517fddf252ad1be2c89b69c2b068fc378daa952ba7f163c4a11628f55a4df523b3ef9061143f9086815260200190565b60405180910390a3611290565b6001600160a01b0382166114ac5760405162461bcd60e51b815260206004820152602160248201527f45524332303a206275726e2066726f6d20746865207a65726f206164647265736044820152607360f81b60648201526084016106a3565b6114b882600083611716565b6001600160a01b0382166000908152603360205260409020548181101561152c5760405162461bcd60e51b815260206004820152602260248201527f45524332303a206275726e20616d6f756e7420657863656564732062616c616e604482015261636560f01b60648201526084016106a3565b6001600160a01b03831660008181526033602090815260408083208686039055603580548790039055518581529192917fddf252ad1be2c89b69c2b068fc378daa952ba7f163c4a11628f55a4df523b3ef910161120f565b505050565b611591611b05565b6065805460ff191690557f5db9ee0a495bf2e6ff9c91a7834c1ba4fdd244a5e8aa4e537bd38aeae4b073aa335b6040516001600160a01b03909116815260200160405180910390a1565b6001600160a01b0382166116315760405162461bcd60e51b815260206004820152601f60248201527f45524332303a206d696e7420746f20746865207a65726f20616464726573730060448201526064016106a3565b61163d60008383611716565b806035600082825461164f9190611f12565b90915550506001600160a01b0382166000818152603360209081526040808320805486019055518481527fddf252ad1be2c89b69c2b068fc378daa952ba7f163c4a11628f55a4df523b3ef910160405180910390a35050565b6116b0611b4e565b6065805460ff191660011790557f62e78cea01bee320cd4e420270b5ea74000d11b0c9f74754ebdbfc544b05a2586115be3390565b600054610100900460ff1661170c5760405162461bcd60e51b81526004016106a390611f8a565b6106b68282611b94565b60cc5460ff1615806117c4575060c9546001600160a01b03166391d148547f8502233096d909befbda0999bb8ea2f3a6be3c138b9fbf003752a4c8bce86f6c336040516001600160e01b031960e085901b16815260048101929092526001600160a01b03166024820152604401602060405180830381865afa1580156117a0573d6000803e3d6000fd5b505050506040513d601f19601f820116820180604052508101906117c49190611f38565b8061186b575060c9546001600160a01b03166391d148547f9f2df0fed2c77648de5860a4cc508cd0818c85b8b8a1ab4ceeef8d981c8956a6336040516001600160e01b031960e085901b16815260048101929092526001600160a01b03166024820152604401602060405180830381865afa158015611847573d6000803e3d6000fd5b505050506040513d601f19601f8201168201806040525081019061186b9190611f38565b80611912575060c9546001600160a01b03166391d148547f3c11d16cbaffd01df69ce1c404f6340ee057498f5f00246190ea54220576a848336040516001600160e01b031960e085901b16815260048101929092526001600160a01b03166024820152604401602060405180830381865afa1580156118ee573d6000803e3d6000fd5b505050506040513d601f19601f820116820180604052508101906119129190611f38565b806119ac575060c954604051632474521560e21b81527f8502233096d909befbda0999bb8ea2f3a6be3c138b9fbf003752a4c8bce86f6c60048201526001600160a01b038581166024830152909116906391d1485490604401602060405180830381865afa158015611988573d6000803e3d6000fd5b505050506040513d601f19601f820116820180604052508101906119ac9190611f38565b6119f85760405162461bcd60e51b815260206004820152601d60248201527f4d6f7270686572546f6b656e3a205472616e736665722064656e69656400000060448201526064016106a3565b60c9546001600160a01b03166391d148547f976f69c4d3b65478fca9223fe0ed1b2522bde010f2060b8733f0ed5e916f4964336040516001600160e01b031960e085901b16815260048101929092526001600160a01b03166024820152604401602060405180830381865afa158015611a75573d6000803e3d6000fd5b505050506040513d601f19601f82011682018060405250810190611a999190611f38565b15611afa5760405162461bcd60e51b815260206004820152602b60248201527f4d6f7270686572546f6b656e3a205472616e7366657220666f7220557365722060448201526a34b990313637b1b5b2b21760a91b60648201526084016106a3565b611584838383611be2565b60655460ff166107e85760405162461bcd60e51b815260206004820152601460248201527314185d5cd8589b194e881b9bdd081c185d5cd95960621b60448201526064016106a3565b60655460ff16156107e85760405162461bcd60e51b815260206004820152601060248201526f14185d5cd8589b194e881c185d5cd95960821b60448201526064016106a3565b600054610100900460ff16611bbb5760405162461bcd60e51b81526004016106a390611f8a565b8151611bce906036906020850190611c48565b508051611584906037906020840190611c48565b60655460ff16156115845760405162461bcd60e51b815260206004820152602a60248201527f45524332305061757361626c653a20746f6b656e207472616e736665722077686044820152691a5b19481c185d5cd95960b21b60648201526084016106a3565b828054611c5490611ed7565b90600052602060002090601f016020900481019282611c765760008555611cbc565b82601f10611c8f57805160ff1916838001178555611cbc565b82800160010185558215611cbc579182015b82811115611cbc578251825591602001919060010190611ca1565b50611cc8929150611ccc565b5090565b5b80821115611cc85760008155600101611ccd565b600060208083528351808285015260005b81811015611d0e57858101830151858201604001528201611cf2565b81811115611d20576000604083870101525b50601f01601f1916929092016040019392505050565b80356001600160a01b0381168114611d4d57600080fd5b919050565b60008060408385031215611d6557600080fd5b611d6e83611d36565b946020939093013593505050565b600080600060608486031215611d9157600080fd5b611d9a84611d36565b9250611da860208501611d36565b9150604084013590509250925092565b600060208284031215611dca57600080fd5b5035919050565b600060208284031215611de357600080fd5b611dec82611d36565b9392505050565b8015158114611e0157600080fd5b50565b600060208284031215611e1657600080fd5b8135611dec81611df3565b600080600060408486031215611e3657600080fd5b611e3f84611d36565b9250602084013567ffffffffffffffff80821115611e5c57600080fd5b818601915086601f830112611e7057600080fd5b813581811115611e7f57600080fd5b876020828501011115611e9157600080fd5b6020830194508093505050509250925092565b60008060408385031215611eb757600080fd5b611ec083611d36565b9150611ece60208401611d36565b90509250929050565b600181811c90821680611eeb57607f821691505b60208210811415611f0c57634e487b7160e01b600052602260045260246000fd5b50919050565b60008219821115611f3357634e487b7160e01b600052601160045260246000fd5b500190565b600060208284031215611f4a57600080fd5b8151611dec81611df3565b6020808252818101527f4d6f7270686572546f6b656e3a205065726d697373696f6e2064656e6965642e604082015260600190565b6020808252602b908201527f496e697469616c697a61626c653a20636f6e7472616374206973206e6f74206960408201526a6e697469616c697a696e6760a81b60608201526080019056fee5a0b4d50f56047f84728557fedbda92f956391bc9d5c762e8461996dd8e7ad7a2646970667358221220bfdb6183c0ce8dd40dbc0fb52c752a5b8bd97bf74dbf8fdace79c3f070b55d3564736f6c634300080b0033","linkReferences":{}},"methodIdentifiers":{"ADMINISTRATOR_ROLE()":"f45edb5f","BURNER_ROLE()":"282c51f3","MINTER_ROLE()":"d5391393","PAUSER_ROLE()":"e63ab1e9","POLYGONMINTER_ROLE()":"c4f33a5e","TRANSFERBLOCKED_ROLE()":"0529fec2","TRANSFER_ROLE()":"206b60f9","allowance(address,address)":"dd62ed3e","approve(address,uint256)":"095ea7b3","balanceOf(address)":"70a08231","burn(address,uint256)":"9dc29fac","decimals()":"313ce567","decreaseAllowance(address,uint256)":"a457c2d7","deposit(address,bytes)":"cf2c52cb","getRestrictTransfers()":"3ba2e566","getTotalTokensInPositions()":"85f993c6","getTotalTokensOnOtherChain()":"97226ece","increaseAllowance(address,uint256)":"39509351","initialize(address)":"c4d66de8","mint(address,uint256)":"40c10f19","morpherAccessControl()":"95a5d292","name()":"06fdde03","pause()":"8456cb59","paused()":"5c975abb","setRestrictTransfers(bool)":"cae6a37d","setTotalInPositions(uint256)":"e5160f80","setTotalTokensOnOtherChain(uint256)":"8ac203a7","symbol()":"95d89b41","totalSupply()":"18160ddd","transfer(address,uint256)":"a9059cbb","transferFrom(address,address,uint256)":"23b872dd","unpause()":"3f4ba83a","withdraw(uint256)":"2e1a7d4d"},"storageLayout":{"storage":[{"astId":7090,"contract":"contracts/prev/contracts/MorpherToken.sol:MorpherToken","label":"_initialized","offset":0,"slot":"0","type":"t_uint8"},{"astId":7093,"contract":"contracts/prev/contracts/MorpherToken.sol:MorpherToken","label":"_initializing","offset":1,"slot":"0","type":"t_bool"},{"astId":8537,"contract":"contracts/prev/contracts/MorpherToken.sol:MorpherToken","label":"__gap","offset":0,"slot":"1","type":"t_array(t_uint256)50_storage"},{"astId":7400,"contract":"contracts/prev/contracts/MorpherToken.sol:MorpherToken","label":"_balances","offset":0,"slot":"51","type":"t_mapping(t_address,t_uint256)"},{"astId":7406,"contract":"contracts/prev/contracts/MorpherToken.sol:MorpherToken","label":"_allowances","offset":0,"slot":"52","type":"t_mapping(t_address,t_mapping(t_address,t_uint256))"},{"astId":7408,"contract":"contracts/prev/contracts/MorpherToken.sol:MorpherToken","label":"_totalSupply","offset":0,"slot":"53","type":"t_uint256"},{"astId":7410,"contract":"contracts/prev/contracts/MorpherToken.sol:MorpherToken","label":"_name","offset":0,"slot":"54","type":"t_string_storage"},{"astId":7412,"contract":"contracts/prev/contracts/MorpherToken.sol:MorpherToken","label":"_symbol","offset":0,"slot":"55","type":"t_string_storage"},{"astId":7992,"contract":"contracts/prev/contracts/MorpherToken.sol:MorpherToken","label":"__gap","offset":0,"slot":"56","type":"t_array(t_uint256)45_storage"},{"astId":7274,"contract":"contracts/prev/contracts/MorpherToken.sol:MorpherToken","label":"_paused","offset":0,"slot":"101","type":"t_bool"},{"astId":7379,"contract":"contracts/prev/contracts/MorpherToken.sol:MorpherToken","label":"__gap","offset":0,"slot":"102","type":"t_array(t_uint256)49_storage"},{"astId":8131,"contract":"contracts/prev/contracts/MorpherToken.sol:MorpherToken","label":"__gap","offset":0,"slot":"151","type":"t_array(t_uint256)50_storage"},{"astId":2041,"contract":"contracts/prev/contracts/MorpherToken.sol:MorpherToken","label":"morpherAccessControl","offset":0,"slot":"201","type":"t_contract(MorpherAccessControl)22"},{"astId":2078,"contract":"contracts/prev/contracts/MorpherToken.sol:MorpherToken","label":"_totalTokensOnOtherChain","offset":0,"slot":"202","type":"t_uint256"},{"astId":2080,"contract":"contracts/prev/contracts/MorpherToken.sol:MorpherToken","label":"_totalTokensInPositions","offset":0,"slot":"203","type":"t_uint256"},{"astId":2082,"contract":"contracts/prev/contracts/MorpherToken.sol:MorpherToken","label":"_restrictTransfers","offset":0,"slot":"204","type":"t_bool"}],"types":{"t_address":{"encoding":"inplace","label":"address","numberOfBytes":"20"},"t_array(t_uint256)45_storage":{"encoding":"inplace","label":"uint256[45]","numberOfBytes":"1440","base":"t_uint256"},"t_array(t_uint256)49_storage":{"encoding":"inplace","label":"uint256[49]","numberOfBytes":"1568","base":"t_uint256"},"t_array(t_uint256)50_storage":{"encoding":"inplace","label":"uint256[50]","numberOfBytes":"1600","base":"t_uint256"},"t_bool":{"encoding":"inplace","label":"bool","numberOfBytes":"1"},"t_contract(MorpherAccessControl)22":{"encoding":"inplace","label":"contract MorpherAccessControl","numberOfBytes":"20"},"t_mapping(t_address,t_mapping(t_address,t_uint256))":{"encoding":"mapping","key":"t_address","label":"mapping(address => mapping(address => uint256))","numberOfBytes":"32","value":"t_mapping(t_address,t_uint256)"},"t_mapping(t_address,t_uint256)":{"encoding":"mapping","key":"t_address","label":"mapping(address => uint256)","numberOfBytes":"32","value":"t_uint256"},"t_string_storage":{"encoding":"bytes","label":"string","numberOfBytes":"32"},"t_uint256":{"encoding":"inplace","label":"uint256","numberOfBytes":"32"},"t_uint8":{"encoding":"inplace","label":"uint8","numberOfBytes":"1"}}},"id":4}